{
  "contractName": "CreatorTokenFormulas",
  "abi": [
    {
      "inputs": [
        {
          "internalType": "string",
          "name": "uri",
          "type": "string"
        }
      ],
      "stateMutability": "nonpayable",
      "type": "constructor"
    },
    {
      "anonymous": false,
      "inputs": [
        {
          "indexed": true,
          "internalType": "address",
          "name": "account",
          "type": "address"
        },
        {
          "indexed": true,
          "internalType": "address",
          "name": "operator",
          "type": "address"
        },
        {
          "indexed": false,
          "internalType": "bool",
          "name": "approved",
          "type": "bool"
        }
      ],
      "name": "ApprovalForAll",
      "type": "event"
    },
    {
      "anonymous": false,
      "inputs": [
        {
          "indexed": false,
          "internalType": "uint256",
          "name": "tokenId",
          "type": "uint256"
        },
        {
          "indexed": false,
          "internalType": "address payable",
          "name": "creatorAddress",
          "type": "address"
        },
        {
          "indexed": false,
          "internalType": "string",
          "name": "name",
          "type": "string"
        },
        {
          "indexed": false,
          "internalType": "string",
          "name": "symbol",
          "type": "string"
        },
        {
          "indexed": false,
          "internalType": "string",
          "name": "description",
          "type": "string"
        },
        {
          "indexed": false,
          "internalType": "bool",
          "name": "verified",
          "type": "bool"
        },
        {
          "indexed": false,
          "internalType": "uint256",
          "name": "outstanding",
          "type": "uint256"
        },
        {
          "indexed": false,
          "internalType": "uint256",
          "name": "maxSupply",
          "type": "uint256"
        }
      ],
      "name": "NewCreatorToken",
      "type": "event"
    },
    {
      "anonymous": false,
      "inputs": [
        {
          "indexed": true,
          "internalType": "address",
          "name": "previousOwner",
          "type": "address"
        },
        {
          "indexed": true,
          "internalType": "address",
          "name": "newOwner",
          "type": "address"
        }
      ],
      "name": "OwnershipTransferred",
      "type": "event"
    },
    {
      "anonymous": false,
      "inputs": [
        {
          "indexed": true,
          "internalType": "address",
          "name": "operator",
          "type": "address"
        },
        {
          "indexed": true,
          "internalType": "address",
          "name": "from",
          "type": "address"
        },
        {
          "indexed": true,
          "internalType": "address",
          "name": "to",
          "type": "address"
        },
        {
          "indexed": false,
          "internalType": "uint256[]",
          "name": "ids",
          "type": "uint256[]"
        },
        {
          "indexed": false,
          "internalType": "uint256[]",
          "name": "values",
          "type": "uint256[]"
        }
      ],
      "name": "TransferBatch",
      "type": "event"
    },
    {
      "anonymous": false,
      "inputs": [
        {
          "indexed": true,
          "internalType": "address",
          "name": "operator",
          "type": "address"
        },
        {
          "indexed": true,
          "internalType": "address",
          "name": "from",
          "type": "address"
        },
        {
          "indexed": true,
          "internalType": "address",
          "name": "to",
          "type": "address"
        },
        {
          "indexed": false,
          "internalType": "uint256",
          "name": "id",
          "type": "uint256"
        },
        {
          "indexed": false,
          "internalType": "uint256",
          "name": "value",
          "type": "uint256"
        }
      ],
      "name": "TransferSingle",
      "type": "event"
    },
    {
      "anonymous": false,
      "inputs": [
        {
          "indexed": false,
          "internalType": "string",
          "name": "value",
          "type": "string"
        },
        {
          "indexed": true,
          "internalType": "uint256",
          "name": "id",
          "type": "uint256"
        }
      ],
      "name": "URI",
      "type": "event"
    },
    {
      "inputs": [
        {
          "internalType": "address",
          "name": "",
          "type": "address"
        },
        {
          "internalType": "address",
          "name": "",
          "type": "address"
        }
      ],
      "name": "approvals",
      "outputs": [
        {
          "internalType": "bool",
          "name": "",
          "type": "bool"
        }
      ],
      "stateMutability": "view",
      "type": "function"
    },
    {
      "inputs": [
        {
          "internalType": "address",
          "name": "account",
          "type": "address"
        },
        {
          "internalType": "uint256",
          "name": "id",
          "type": "uint256"
        }
      ],
      "name": "balanceOf",
      "outputs": [
        {
          "internalType": "uint256",
          "name": "",
          "type": "uint256"
        }
      ],
      "stateMutability": "view",
      "type": "function"
    },
    {
      "inputs": [
        {
          "internalType": "address[]",
          "name": "accounts",
          "type": "address[]"
        },
        {
          "internalType": "uint256[]",
          "name": "ids",
          "type": "uint256[]"
        }
      ],
      "name": "balanceOfBatch",
      "outputs": [
        {
          "internalType": "uint256[]",
          "name": "",
          "type": "uint256[]"
        }
      ],
      "stateMutability": "view",
      "type": "function"
    },
    {
      "inputs": [
        {
          "internalType": "uint256",
          "name": "_tokenId",
          "type": "uint256"
        },
        {
          "internalType": "address payable",
          "name": "_newCreatorAddress",
          "type": "address"
        }
      ],
      "name": "changeAddress",
      "outputs": [],
      "stateMutability": "nonpayable",
      "type": "function"
    },
    {
      "inputs": [
        {
          "internalType": "uint256",
          "name": "_tokenId",
          "type": "uint256"
        },
        {
          "internalType": "string",
          "name": "_newDescription",
          "type": "string"
        }
      ],
      "name": "changeDescription",
      "outputs": [],
      "stateMutability": "nonpayable",
      "type": "function"
    },
    {
      "inputs": [
        {
          "internalType": "uint256",
          "name": "_tokenId",
          "type": "uint256"
        },
        {
          "internalType": "string",
          "name": "_newName",
          "type": "string"
        }
      ],
      "name": "changeName",
      "outputs": [],
      "stateMutability": "nonpayable",
      "type": "function"
    },
    {
      "inputs": [
        {
          "internalType": "uint256",
          "name": "_newPlatformFee",
          "type": "uint256"
        }
      ],
      "name": "changePlatformFee",
      "outputs": [],
      "stateMutability": "nonpayable",
      "type": "function"
    },
    {
      "inputs": [
        {
          "internalType": "uint256",
          "name": "_newProfitMargin",
          "type": "uint256"
        }
      ],
      "name": "changeProfitMargin",
      "outputs": [],
      "stateMutability": "nonpayable",
      "type": "function"
    },
    {
      "inputs": [
        {
          "internalType": "uint256",
          "name": "_tokenId",
          "type": "uint256"
        },
        {
          "internalType": "string",
          "name": "_newSymbol",
          "type": "string"
        }
      ],
      "name": "changeSymbol",
      "outputs": [],
      "stateMutability": "nonpayable",
      "type": "function"
    },
    {
      "inputs": [
        {
          "internalType": "uint256",
          "name": "_tokenId",
          "type": "uint256"
        },
        {
          "internalType": "bool",
          "name": "_verified",
          "type": "bool"
        }
      ],
      "name": "changeVerification",
      "outputs": [],
      "stateMutability": "nonpayable",
      "type": "function"
    },
    {
      "inputs": [
        {
          "internalType": "address payable",
          "name": "_creatorAddress",
          "type": "address"
        },
        {
          "internalType": "string",
          "name": "_name",
          "type": "string"
        },
        {
          "internalType": "string",
          "name": "_symbol",
          "type": "string"
        },
        {
          "internalType": "string",
          "name": "_description",
          "type": "string"
        }
      ],
      "name": "createCreatorToken",
      "outputs": [],
      "stateMutability": "nonpayable",
      "type": "function"
    },
    {
      "inputs": [
        {
          "internalType": "uint256",
          "name": "",
          "type": "uint256"
        }
      ],
      "name": "creatorTokens",
      "outputs": [
        {
          "internalType": "address payable",
          "name": "creatorAddress",
          "type": "address"
        },
        {
          "internalType": "string",
          "name": "name",
          "type": "string"
        },
        {
          "internalType": "string",
          "name": "symbol",
          "type": "string"
        },
        {
          "internalType": "string",
          "name": "description",
          "type": "string"
        },
        {
          "internalType": "bool",
          "name": "verified",
          "type": "bool"
        },
        {
          "internalType": "uint256",
          "name": "outstanding",
          "type": "uint256"
        },
        {
          "internalType": "uint256",
          "name": "maxSupply",
          "type": "uint256"
        }
      ],
      "stateMutability": "view",
      "type": "function"
    },
    {
      "inputs": [],
      "name": "getCreatorTokenCount",
      "outputs": [
        {
          "internalType": "uint256",
          "name": "",
          "type": "uint256"
        }
      ],
      "stateMutability": "view",
      "type": "function"
    },
    {
      "inputs": [
        {
          "internalType": "uint256",
          "name": "_id",
          "type": "uint256"
        }
      ],
      "name": "getToken",
      "outputs": [
        {
          "components": [
            {
              "internalType": "address payable",
              "name": "creatorAddress",
              "type": "address"
            },
            {
              "internalType": "string",
              "name": "name",
              "type": "string"
            },
            {
              "internalType": "string",
              "name": "symbol",
              "type": "string"
            },
            {
              "internalType": "string",
              "name": "description",
              "type": "string"
            },
            {
              "internalType": "bool",
              "name": "verified",
              "type": "bool"
            },
            {
              "internalType": "uint256",
              "name": "outstanding",
              "type": "uint256"
            },
            {
              "internalType": "uint256",
              "name": "maxSupply",
              "type": "uint256"
            }
          ],
          "internalType": "struct CreatorTokenFactory.CreatorToken",
          "name": "",
          "type": "tuple"
        }
      ],
      "stateMutability": "view",
      "type": "function"
    },
    {
      "inputs": [
        {
          "internalType": "address",
          "name": "_account",
          "type": "address"
        },
        {
          "internalType": "address",
          "name": "_operator",
          "type": "address"
        }
      ],
      "name": "isApprovedForAll",
      "outputs": [
        {
          "internalType": "bool",
          "name": "",
          "type": "bool"
        }
      ],
      "stateMutability": "view",
      "type": "function"
    },
    {
      "inputs": [],
      "name": "owner",
      "outputs": [
        {
          "internalType": "address",
          "name": "",
          "type": "address"
        }
      ],
      "stateMutability": "view",
      "type": "function"
    },
    {
      "inputs": [
        {
          "internalType": "address payable",
          "name": "_owner",
          "type": "address"
        }
      ],
      "name": "payoutPlatformFees",
      "outputs": [],
      "stateMutability": "nonpayable",
      "type": "function"
    },
    {
      "inputs": [],
      "name": "platformFeesOwed",
      "outputs": [
        {
          "internalType": "uint256",
          "name": "",
          "type": "uint256"
        }
      ],
      "stateMutability": "view",
      "type": "function"
    },
    {
      "inputs": [],
      "name": "renounceOwnership",
      "outputs": [],
      "stateMutability": "nonpayable",
      "type": "function"
    },
    {
      "inputs": [
        {
          "internalType": "address",
          "name": "_from",
          "type": "address"
        },
        {
          "internalType": "address",
          "name": "_to",
          "type": "address"
        },
        {
          "internalType": "uint256[]",
          "name": "_ids",
          "type": "uint256[]"
        },
        {
          "internalType": "uint256[]",
          "name": "_amounts",
          "type": "uint256[]"
        },
        {
          "internalType": "bytes",
          "name": "_data",
          "type": "bytes"
        }
      ],
      "name": "safeBatchTransferFrom",
      "outputs": [],
      "stateMutability": "nonpayable",
      "type": "function"
    },
    {
      "inputs": [
        {
          "internalType": "address",
          "name": "_from",
          "type": "address"
        },
        {
          "internalType": "address",
          "name": "_to",
          "type": "address"
        },
        {
          "internalType": "uint256",
          "name": "_id",
          "type": "uint256"
        },
        {
          "internalType": "uint256",
          "name": "_amount",
          "type": "uint256"
        },
        {
          "internalType": "bytes",
          "name": "_data",
          "type": "bytes"
        }
      ],
      "name": "safeTransferFrom",
      "outputs": [],
      "stateMutability": "nonpayable",
      "type": "function"
    },
    {
      "inputs": [
        {
          "internalType": "address",
          "name": "_operator",
          "type": "address"
        },
        {
          "internalType": "bool",
          "name": "_approved",
          "type": "bool"
        }
      ],
      "name": "setApprovalForAll",
      "outputs": [],
      "stateMutability": "nonpayable",
      "type": "function"
    },
    {
      "inputs": [
        {
          "internalType": "bytes4",
          "name": "interfaceId",
          "type": "bytes4"
        }
      ],
      "name": "supportsInterface",
      "outputs": [
        {
          "internalType": "bool",
          "name": "",
          "type": "bool"
        }
      ],
      "stateMutability": "view",
      "type": "function"
    },
    {
      "inputs": [
        {
          "internalType": "uint256",
          "name": "",
          "type": "uint256"
        },
        {
          "internalType": "address",
          "name": "",
          "type": "address"
        }
      ],
      "name": "tokenHoldership",
      "outputs": [
        {
          "internalType": "uint256",
          "name": "",
          "type": "uint256"
        }
      ],
      "stateMutability": "view",
      "type": "function"
    },
    {
      "inputs": [
        {
          "internalType": "uint256",
          "name": "",
          "type": "uint256"
        }
      ],
      "name": "tokenToCreator",
      "outputs": [
        {
          "internalType": "address",
          "name": "",
          "type": "address"
        }
      ],
      "stateMutability": "view",
      "type": "function"
    },
    {
      "inputs": [
        {
          "internalType": "uint256",
          "name": "",
          "type": "uint256"
        }
      ],
      "name": "tokenValueTransferred",
      "outputs": [
        {
          "internalType": "uint256",
          "name": "",
          "type": "uint256"
        }
      ],
      "stateMutability": "view",
      "type": "function"
    },
    {
      "inputs": [],
      "name": "totalPlatformFees",
      "outputs": [
        {
          "internalType": "uint256",
          "name": "",
          "type": "uint256"
        }
      ],
      "stateMutability": "view",
      "type": "function"
    },
    {
      "inputs": [
        {
          "internalType": "uint256",
          "name": "",
          "type": "uint256"
        }
      ],
      "name": "totalValueLocked",
      "outputs": [
        {
          "internalType": "uint256",
          "name": "",
          "type": "uint256"
        }
      ],
      "stateMutability": "view",
      "type": "function"
    },
    {
      "inputs": [
        {
          "internalType": "address",
          "name": "newOwner",
          "type": "address"
        }
      ],
      "name": "transferOwnership",
      "outputs": [],
      "stateMutability": "nonpayable",
      "type": "function"
    },
    {
      "inputs": [
        {
          "internalType": "uint256",
          "name": "",
          "type": "uint256"
        }
      ],
      "name": "uri",
      "outputs": [
        {
          "internalType": "string",
          "name": "",
          "type": "string"
        }
      ],
      "stateMutability": "view",
      "type": "function"
    },
    {
      "inputs": [
        {
          "internalType": "address",
          "name": "",
          "type": "address"
        },
        {
          "internalType": "uint256",
          "name": "",
          "type": "uint256"
        }
      ],
      "name": "userToHoldings",
      "outputs": [
        {
          "internalType": "uint256",
          "name": "",
          "type": "uint256"
        }
      ],
      "stateMutability": "view",
      "type": "function"
    },
    {
      "inputs": [
        {
          "internalType": "address payable",
          "name": "_owner",
          "type": "address"
        }
      ],
      "name": "withdraw",
      "outputs": [],
      "stateMutability": "nonpayable",
      "type": "function"
    },
    {
      "inputs": [
        {
          "internalType": "uint256",
          "name": "_startingSupply",
          "type": "uint256"
        },
        {
          "internalType": "uint256",
          "name": "_amount",
          "type": "uint256"
        },
        {
          "internalType": "uint256",
          "name": "_mNumerator",
          "type": "uint256"
        },
        {
          "internalType": "uint256",
          "name": "_mDenominator",
          "type": "uint256"
        },
        {
          "internalType": "uint256",
          "name": "_maxSupply",
          "type": "uint256"
        },
        {
          "internalType": "uint256",
          "name": "_profitMargin",
          "type": "uint256"
        }
      ],
      "name": "_saleFunction",
      "outputs": [
        {
          "internalType": "uint256",
          "name": "",
          "type": "uint256"
        }
      ],
      "stateMutability": "pure",
      "type": "function"
    }
  ],
  "bytecode": "0x60806040526001805560006002556000600355601460045565082f79cd900060055560b96006553480156200003357600080fd5b5060405162003ef838038062003ef8833981810160405281019062000059919062000277565b808060006200006d6200012560201b60201c565b9050806000806101000a81548173ffffffffffffffffffffffffffffffffffffffff021916908373ffffffffffffffffffffffffffffffffffffffff1602179055508073ffffffffffffffffffffffffffffffffffffffff16600073ffffffffffffffffffffffffffffffffffffffff167f8be0079c531659141344cd1fd0a4f28419497f9722a3daafe3b4186f6b6457e060405160405180910390a3506200011c816200012d60201b60201c565b5050506200044c565b600033905090565b80601090805190602001906200014592919062000149565b5050565b82805462000157906200035d565b90600052602060002090601f0160209004810192826200017b5760008555620001c7565b82601f106200019657805160ff1916838001178555620001c7565b82800160010185558215620001c7579182015b82811115620001c6578251825591602001919060010190620001a9565b5b509050620001d69190620001da565b5090565b5b80821115620001f5576000816000905550600101620001db565b5090565b6000620002106200020a84620002f1565b620002c8565b9050828152602081018484840111156200022f576200022e6200042c565b5b6200023c84828562000327565b509392505050565b600082601f8301126200025c576200025b62000427565b5b81516200026e848260208601620001f9565b91505092915050565b60006020828403121562000290576200028f62000436565b5b600082015167ffffffffffffffff811115620002b157620002b062000431565b5b620002bf8482850162000244565b91505092915050565b6000620002d4620002e7565b9050620002e2828262000393565b919050565b6000604051905090565b600067ffffffffffffffff8211156200030f576200030e620003f8565b5b6200031a826200043b565b9050602081019050919050565b60005b83811015620003475780820151818401526020810190506200032a565b8381111562000357576000848401525b50505050565b600060028204905060018216806200037657607f821691505b602082108114156200038d576200038c620003c9565b5b50919050565b6200039e826200043b565b810181811067ffffffffffffffff82111715620003c057620003bf620003f8565b5b80604052505050565b7f4e487b7100000000000000000000000000000000000000000000000000000000600052602260045260246000fd5b7f4e487b7100000000000000000000000000000000000000000000000000000000600052604160045260246000fd5b600080fd5b600080fd5b600080fd5b600080fd5b6000601f19601f8301169050919050565b613a9c806200045c6000396000f3fe608060405234801561001057600080fd5b50600436106101fa5760003560e01c8063bfb48c9c1161011a578063d9bd3a40116100ad578063e985e9c51161007c578063e985e9c51461060f578063eb8417591461063f578063f242432a1461065b578063f2fde38b14610677578063f7374e2e14610693576101fa565b8063d9bd3a4014610563578063de6a06ed14610593578063df3c00b1146105af578063e4b50cb8146105df576101fa565b8063ce901d8a116100e9578063ce901d8a146104d7578063d3631fa51461050d578063d56b72c71461052b578063d7a5791a14610547576101fa565b8063bfb48c9c14610451578063c1d3304914610481578063c39cbef11461049f578063c539c317146104bb576101fa565b80632eb2c2d6116101925780638da5cb5b116101615780638da5cb5b146103b757806392724afa146103d5578063a22cb46514610405578063a32ce11e14610421576101fa565b80632eb2c2d6146103455780634e1273f41461036157806351cff8d914610391578063715018a6146103ad576101fa565b806317bcaa08116101ce57806317bcaa08146102ab57806318892ae8146102db5780631d5ad18b1461030b5780632a2b237c14610327576101fa565b8062fdd58e146101ff57806301ffc9a71461022f57806306e320f51461025f5780630e89341c1461027b575b600080fd5b61021960048036038101906102149190612be0565b6106af565b604051610226919061330c565b60405180910390f35b61024960048036038101906102449190612c98565b610779565b604051610256919061322d565b60405180910390f35b61027960048036038101906102749190612db2565b61085b565b005b61029560048036038101906102909190612cc5565b610902565b6040516102a29190613248565b60405180910390f35b6102c560048036038101906102c09190612cc5565b610996565b6040516102d2919061330c565b60405180910390f35b6102f560048036038101906102f09190612cc5565b6109ae565b6040516103029190613135565b60405180910390f35b61032560048036038101906103209190612d32565b6109e1565b005b61032f610ab6565b60405161033c919061330c565b60405180910390f35b61035f600480360381019061035a9190612a3a565b610ac3565b005b61037b60048036038101906103769190612c20565b610c2f565b60405161038891906131d4565b60405180910390f35b6103ab60048036038101906103a69190612912565b610d48565b005b6103b5610e0e565b005b6103bf610f48565b6040516103cc9190613135565b60405180910390f35b6103ef60048036038101906103ea9190612be0565b610f71565b6040516103fc919061330c565b60405180910390f35b61041f600480360381019061041a9190612ba0565b610f96565b005b61043b600480360381019061043691906129fa565b611093565b604051610448919061322d565b60405180910390f35b61046b60048036038101906104669190612cf2565b6110c2565b604051610478919061330c565b60405180910390f35b6104896110e7565b604051610496919061330c565b60405180910390f35b6104b960048036038101906104b49190612db2565b6110ed565b005b6104d560048036038101906104d09190612cc5565b611194565b005b6104f160048036038101906104ec9190612cc5565b61121a565b6040516105049796959493929190613150565b60405180910390f35b610515611431565b604051610522919061330c565b60405180910390f35b6105456004803603810190610540919061293f565b611437565b005b610561600480360381019061055c9190612cc5565b611653565b005b61057d60048036038101906105789190612cc5565b6116d9565b60405161058a919061330c565b60405180910390f35b6105ad60048036038101906105a89190612db2565b6116f1565b005b6105c960048036038101906105c49190612e12565b611798565b6040516105d6919061330c565b60405180910390f35b6105f960048036038101906105f49190612cc5565b611811565b60405161060691906132ea565b60405180910390f35b610629600480360381019061062491906129fa565b611a88565b604051610636919061322d565b60405180910390f35b61065960048036038101906106549190612912565b611b1c565b005b61067560048036038101906106709190612b09565b611bec565b005b610691600480360381019061068c91906128e5565b611cd0565b005b6106ad60048036038101906106a89190612d72565b611e79565b005b60008073ffffffffffffffffffffffffffffffffffffffff168373ffffffffffffffffffffffffffffffffffffffff161415610720576040517f08c379a00000000000000000000000000000000000000000000000000000000081526004016107179061326a565b60405180910390fd5b600e600083815260200190815260200160002060008473ffffffffffffffffffffffffffffffffffffffff1673ffffffffffffffffffffffffffffffffffffffff16815260200190815260200160002054905092915050565b60007fd9b67a26000000000000000000000000000000000000000000000000000000007bffffffffffffffffffffffffffffffffffffffffffffffffffffffff1916827bffffffffffffffffffffffffffffffffffffffffffffffffffffffff1916148061084457507f0e89341c000000000000000000000000000000000000000000000000000000007bffffffffffffffffffffffffffffffffffffffffffffffffffffffff1916827bffffffffffffffffffffffffffffffffffffffffffffffffffffffff1916145b80610854575061085382611f36565b5b9050919050565b826008600082815260200190815260200160002060009054906101000a900473ffffffffffffffffffffffffffffffffffffffff1673ffffffffffffffffffffffffffffffffffffffff163373ffffffffffffffffffffffffffffffffffffffff16146108c757600080fd5b8282600786815481106108dd576108dc613850565b5b906000526020600020906007020160020191906108fb92919061248c565b5050505050565b60606010805461091190613717565b80601f016020809104026020016040519081016040528092919081815260200182805461093d90613717565b801561098a5780601f1061095f5761010080835404028352916020019161098a565b820191906000526020600020905b81548152906001019060200180831161096d57829003601f168201915b50505050509050919050565b60096020528060005260406000206000915090505481565b60086020528060005260406000206000915054906101000a900473ffffffffffffffffffffffffffffffffffffffff1681565b816008600082815260200190815260200160002060009054906101000a900473ffffffffffffffffffffffffffffffffffffffff1673ffffffffffffffffffffffffffffffffffffffff163373ffffffffffffffffffffffffffffffffffffffff1614610a4d57600080fd5b8160078481548110610a6257610a61613850565b5b906000526020600020906007020160000160006101000a81548173ffffffffffffffffffffffffffffffffffffffff021916908373ffffffffffffffffffffffffffffffffffffffff160217905550505050565b6000600780549050905090565b60005b8351811015610ba9578573ffffffffffffffffffffffffffffffffffffffff163373ffffffffffffffffffffffffffffffffffffffff161480610b0f5750610b0e8686611a88565b5b610b1857600080fd5b610b5786858381518110610b2f57610b2e613850565b5b6020026020010151858481518110610b4a57610b49613850565b5b6020026020010151611fa0565b610b9685858381518110610b6e57610b6d613850565b5b6020026020010151858481518110610b8957610b88613850565b5b6020026020010151612073565b8080610ba19061377a565b915050610ac6565b508373ffffffffffffffffffffffffffffffffffffffff168573ffffffffffffffffffffffffffffffffffffffff163373ffffffffffffffffffffffffffffffffffffffff167f4a39dc06d4c0dbc64b70af90fd698a233a518aa5d07e595d983b8c0526c8f7fb8686604051610c209291906131f6565b60405180910390a45050505050565b60608151835114610c75576040517f08c379a0000000000000000000000000000000000000000000000000000000008152600401610c6c906132ca565b60405180910390fd5b6000835167ffffffffffffffff811115610c9257610c9161387f565b5b604051908082528060200260200182016040528015610cc05781602001602082028036833780820191505090505b50905060005b8451811015610d3d57610d0d858281518110610ce557610ce4613850565b5b6020026020010151858381518110610d0057610cff613850565b5b60200260200101516106af565b828281518110610d2057610d1f613850565b5b60200260200101818152505080610d369061377a565b9050610cc6565b508091505092915050565b610d50612146565b73ffffffffffffffffffffffffffffffffffffffff16610d6e610f48565b73ffffffffffffffffffffffffffffffffffffffff1614610dc4576040517f08c379a0000000000000000000000000000000000000000000000000000000008152600401610dbb906132aa565b60405180910390fd5b8073ffffffffffffffffffffffffffffffffffffffff166108fc479081150290604051600060405180830381858888f19350505050158015610e0a573d6000803e3d6000fd5b5050565b610e16612146565b73ffffffffffffffffffffffffffffffffffffffff16610e34610f48565b73ffffffffffffffffffffffffffffffffffffffff1614610e8a576040517f08c379a0000000000000000000000000000000000000000000000000000000008152600401610e81906132aa565b60405180910390fd5b600073ffffffffffffffffffffffffffffffffffffffff1660008054906101000a900473ffffffffffffffffffffffffffffffffffffffff1673ffffffffffffffffffffffffffffffffffffffff167f8be0079c531659141344cd1fd0a4f28419497f9722a3daafe3b4186f6b6457e060405160405180910390a360008060006101000a81548173ffffffffffffffffffffffffffffffffffffffff021916908373ffffffffffffffffffffffffffffffffffffffff160217905550565b60008060009054906101000a900473ffffffffffffffffffffffffffffffffffffffff16905090565b600b602052816000526040600020602052806000526040600020600091509150505481565b80600c60003373ffffffffffffffffffffffffffffffffffffffff1673ffffffffffffffffffffffffffffffffffffffff16815260200190815260200160002060008473ffffffffffffffffffffffffffffffffffffffff1673ffffffffffffffffffffffffffffffffffffffff16815260200190815260200160002060006101000a81548160ff0219169083151502179055508173ffffffffffffffffffffffffffffffffffffffff163373ffffffffffffffffffffffffffffffffffffffff167f17307eab39ab6107e8899845ad3d59bd9653f200f220920489ca2b5937696c3183604051611087919061322d565b60405180910390a35050565b600c6020528160005260406000206020528060005260406000206000915091509054906101000a900460ff1681565b600a602052816000526040600020602052806000526040600020600091509150505481565b60035481565b826008600082815260200190815260200160002060009054906101000a900473ffffffffffffffffffffffffffffffffffffffff1673ffffffffffffffffffffffffffffffffffffffff163373ffffffffffffffffffffffffffffffffffffffff161461115957600080fd5b82826007868154811061116f5761116e613850565b5b9060005260206000209060070201600101919061118d92919061248c565b5050505050565b61119c612146565b73ffffffffffffffffffffffffffffffffffffffff166111ba610f48565b73ffffffffffffffffffffffffffffffffffffffff1614611210576040517f08c379a0000000000000000000000000000000000000000000000000000000008152600401611207906132aa565b60405180910390fd5b8060048190555050565b6007818154811061122a57600080fd5b90600052602060002090600702016000915090508060000160009054906101000a900473ffffffffffffffffffffffffffffffffffffffff169080600101805461127390613717565b80601f016020809104026020016040519081016040528092919081815260200182805461129f90613717565b80156112ec5780601f106112c1576101008083540402835291602001916112ec565b820191906000526020600020905b8154815290600101906020018083116112cf57829003601f168201915b50505050509080600201805461130190613717565b80601f016020809104026020016040519081016040528092919081815260200182805461132d90613717565b801561137a5780601f1061134f5761010080835404028352916020019161137a565b820191906000526020600020905b81548152906001019060200180831161135d57829003601f168201915b50505050509080600301805461138f90613717565b80601f01602080910402602001604051908101604052809291908181526020018280546113bb90613717565b80156114085780601f106113dd57610100808354040283529160200191611408565b820191906000526020600020905b8154815290600101906020018083116113eb57829003601f168201915b5050505050908060040160009054906101000a900460ff16908060050154908060060154905087565b60025481565b60076040518060e001604052808673ffffffffffffffffffffffffffffffffffffffff168152602001858152602001848152602001838152602001600015158152602001600081526020016000815250908060018154018082558091505060019003906000526020600020906007020160009091909190915060008201518160000160006101000a81548173ffffffffffffffffffffffffffffffffffffffff021916908373ffffffffffffffffffffffffffffffffffffffff1602179055506020820151816001019080519060200190611513929190612512565b506040820151816002019080519060200190611530929190612512565b50606082015181600301908051906020019061154d929190612512565b5060808201518160040160006101000a81548160ff02191690831515021790555060a0820151816005015560c082015181600601555050600060016007805490506115989190613609565b9050846008600083815260200190815260200160002060006101000a81548173ffffffffffffffffffffffffffffffffffffffff021916908373ffffffffffffffffffffffffffffffffffffffff160217905550600060096000838152602001908152602001600020819055507f3ef624c0f3fb7ad40b94c02078ea3e3a797dbfc21e921ee4bd2b8ad0ca6aa11381868686866000806000604051611644989796959493929190613327565b60405180910390a15050505050565b61165b612146565b73ffffffffffffffffffffffffffffffffffffffff16611679610f48565b73ffffffffffffffffffffffffffffffffffffffff16146116cf576040517f08c379a00000000000000000000000000000000000000000000000000000000081526004016116c6906132aa565b60405180910390fd5b8060018190555050565b600d6020528060005260406000206000915090505481565b826008600082815260200190815260200160002060009054906101000a900473ffffffffffffffffffffffffffffffffffffffff1673ffffffffffffffffffffffffffffffffffffffff163373ffffffffffffffffffffffffffffffffffffffff161461175d57600080fd5b82826007868154811061177357611772613850565b5b9060005260206000209060070201600301919061179192919061248c565b5050505050565b6000806000806117ac8a8a8a8a8a8a61214e565b9250925092506000838b10156117cf576117c884848d856121c9565b9050611800565b838210156117ed576117e684848d858d8d8d61226c565b90506117ff565b6117fc84848d858d8d8d61238e565b90505b5b809450505050509695505050505050565b611819612598565b6007828154811061182d5761182c613850565b5b90600052602060002090600702016040518060e00160405290816000820160009054906101000a900473ffffffffffffffffffffffffffffffffffffffff1673ffffffffffffffffffffffffffffffffffffffff1673ffffffffffffffffffffffffffffffffffffffff1681526020016001820180546118ac90613717565b80601f01602080910402602001604051908101604052809291908181526020018280546118d890613717565b80156119255780601f106118fa57610100808354040283529160200191611925565b820191906000526020600020905b81548152906001019060200180831161190857829003601f168201915b5050505050815260200160028201805461193e90613717565b80601f016020809104026020016040519081016040528092919081815260200182805461196a90613717565b80156119b75780601f1061198c576101008083540402835291602001916119b7565b820191906000526020600020905b81548152906001019060200180831161199a57829003601f168201915b505050505081526020016003820180546119d090613717565b80601f01602080910402602001604051908101604052809291908181526020018280546119fc90613717565b8015611a495780601f10611a1e57610100808354040283529160200191611a49565b820191906000526020600020905b815481529060010190602001808311611a2c57829003601f168201915b505050505081526020016004820160009054906101000a900460ff16151515158152602001600582015481526020016006820154815250509050919050565b6000600c60008473ffffffffffffffffffffffffffffffffffffffff1673ffffffffffffffffffffffffffffffffffffffff16815260200190815260200160002060008373ffffffffffffffffffffffffffffffffffffffff1673ffffffffffffffffffffffffffffffffffffffff16815260200190815260200160002060009054906101000a900460ff16905092915050565b611b24612146565b73ffffffffffffffffffffffffffffffffffffffff16611b42610f48565b73ffffffffffffffffffffffffffffffffffffffff1614611b98576040517f08c379a0000000000000000000000000000000000000000000000000000000008152600401611b8f906132aa565b60405180910390fd5b8073ffffffffffffffffffffffffffffffffffffffff166108fc6003549081150290604051600060405180830381858888f19350505050158015611be0573d6000803e3d6000fd5b50600060038190555050565b8473ffffffffffffffffffffffffffffffffffffffff163373ffffffffffffffffffffffffffffffffffffffff161480611c2c5750611c2b8585611a88565b5b611c3557600080fd5b611c40858484611fa0565b611c4b848484612073565b8373ffffffffffffffffffffffffffffffffffffffff168573ffffffffffffffffffffffffffffffffffffffff163373ffffffffffffffffffffffffffffffffffffffff167fc3d58168c5ae7397731d063d5bbf3d657854427343f4c083240f7aacaa2d0f628686604051611cc19291906133ba565b60405180910390a45050505050565b611cd8612146565b73ffffffffffffffffffffffffffffffffffffffff16611cf6610f48565b73ffffffffffffffffffffffffffffffffffffffff1614611d4c576040517f08c379a0000000000000000000000000000000000000000000000000000000008152600401611d43906132aa565b60405180910390fd5b600073ffffffffffffffffffffffffffffffffffffffff168173ffffffffffffffffffffffffffffffffffffffff161415611dbc576040517f08c379a0000000000000000000000000000000000000000000000000000000008152600401611db39061328a565b60405180910390fd5b8073ffffffffffffffffffffffffffffffffffffffff1660008054906101000a900473ffffffffffffffffffffffffffffffffffffffff1673ffffffffffffffffffffffffffffffffffffffff167f8be0079c531659141344cd1fd0a4f28419497f9722a3daafe3b4186f6b6457e060405160405180910390a3806000806101000a81548173ffffffffffffffffffffffffffffffffffffffff021916908373ffffffffffffffffffffffffffffffffffffffff16021790555050565b611e81612146565b73ffffffffffffffffffffffffffffffffffffffff16611e9f610f48565b73ffffffffffffffffffffffffffffffffffffffff1614611ef5576040517f08c379a0000000000000000000000000000000000000000000000000000000008152600401611eec906132aa565b60405180910390fd5b8060078381548110611f0a57611f09613850565b5b906000526020600020906007020160040160006101000a81548160ff0219169083151502179055505050565b60007f01ffc9a7000000000000000000000000000000000000000000000000000000007bffffffffffffffffffffffffffffffffffffffffffffffffffffffff1916827bffffffffffffffffffffffffffffffffffffffffffffffffffffffff1916149050919050565b80600a600084815260200190815260200160002060008573ffffffffffffffffffffffffffffffffffffffff1673ffffffffffffffffffffffffffffffffffffffff16815260200190815260200160002060008282546120009190613609565b9250508190555080600b60008573ffffffffffffffffffffffffffffffffffffffff1673ffffffffffffffffffffffffffffffffffffffff168152602001908152602001600020600084815260200190815260200160002060008282546120679190613609565b92505081905550505050565b80600a600084815260200190815260200160002060008573ffffffffffffffffffffffffffffffffffffffff1673ffffffffffffffffffffffffffffffffffffffff16815260200190815260200160002060008282546120d39190613528565b9250508190555080600b60008573ffffffffffffffffffffffffffffffffffffffff1673ffffffffffffffffffffffffffffffffffffffff1681526020019081526020016000206000848152602001908152602001600020600082825461213a9190613528565b92505081905550505050565b600033905090565b600080600080600286612161919061357e565b90506000878960648860326121769190613609565b8a61218191906135af565b61218b919061357e565b61219591906135af565b61219f919061357e565b905060008a8c6121af9190613609565b905082828295509550955050505096509650969350505050565b60008082866121d89190613609565b86866121e4919061357e565b6121ee91906135af565b856121f99190613609565b9050600084876122099190613609565b8787612215919061357e565b61221f91906135af565b8661222a9190613609565b90506000848661223a9190613609565b9050600281838561224b9190613528565b61225591906135af565b61225f919061357e565b9350505050949350505050565b600080858961227b9190613609565b8989612287919061357e565b61229191906135af565b8861229c9190613609565b905060008890506000878b6122b19190613609565b9050600060028284866122c49190613528565b6122ce91906135af565b6122d8919061357e565b905060008b8d8c6122e99190613609565b8e896122f59190613609565b8e8b8b8e61230391906135af565b61230d919061357e565b6123179190613609565b612321919061357e565b61232b91906135af565b6123359190613528565b905060008d8c6123459190613609565b9050600060028284886123589190613528565b61236291906135af565b61236c919061357e565b9050808461237a9190613528565b975050505050505050979650505050505050565b60008087898761239e9190613609565b8a856123aa9190613609565b8a87878a6123b891906135af565b6123c2919061357e565b6123cc9190613609565b6123d6919061357e565b6123e091906135af565b6123ea9190613528565b90506000888a896123fb9190613609565b8b866124079190613609565b8b88888b61241591906135af565b61241f919061357e565b6124299190613609565b612433919061357e565b61243d91906135af565b6124479190613528565b9050600087896124579190613609565b905060028183856124689190613528565b61247291906135af565b61247c919061357e565b9350505050979650505050505050565b82805461249890613717565b90600052602060002090601f0160209004810192826124ba5760008555612501565b82601f106124d357803560ff1916838001178555612501565b82800160010185558215612501579182015b828111156125005782358255916020019190600101906124e5565b5b50905061250e91906125ed565b5090565b82805461251e90613717565b90600052602060002090601f0160209004810192826125405760008555612587565b82601f1061255957805160ff1916838001178555612587565b82800160010185558215612587579182015b8281111561258657825182559160200191906001019061256b565b5b50905061259491906125ed565b5090565b6040518060e00160405280600073ffffffffffffffffffffffffffffffffffffffff16815260200160608152602001606081526020016060815260200160001515815260200160008152602001600081525090565b5b808211156126065760008160009055506001016125ee565b5090565b600061261d61261884613408565b6133e3565b905080838252602082019050828560208602820111156126405761263f6138b8565b5b60005b858110156126705781612656888261276e565b845260208401935060208301925050600181019050612643565b5050509392505050565b600061268d61268884613434565b6133e3565b905080838252602082019050828560208602820111156126b0576126af6138b8565b5b60005b858110156126e057816126c688826128d0565b8452602084019350602083019250506001810190506126b3565b5050509392505050565b60006126fd6126f884613460565b6133e3565b905082815260208101848484011115612719576127186138bd565b5b6127248482856136d5565b509392505050565b600061273f61273a84613491565b6133e3565b90508281526020810184848401111561275b5761275a6138bd565b5b6127668482856136d5565b509392505050565b60008135905061277d816139f3565b92915050565b60008135905061279281613a0a565b92915050565b600082601f8301126127ad576127ac6138b3565b5b81356127bd84826020860161260a565b91505092915050565b600082601f8301126127db576127da6138b3565b5b81356127eb84826020860161267a565b91505092915050565b60008135905061280381613a21565b92915050565b60008135905061281881613a38565b92915050565b600082601f830112612833576128326138b3565b5b81356128438482602086016126ea565b91505092915050565b60008083601f840112612862576128616138b3565b5b8235905067ffffffffffffffff81111561287f5761287e6138ae565b5b60208301915083600182028301111561289b5761289a6138b8565b5b9250929050565b600082601f8301126128b7576128b66138b3565b5b81356128c784826020860161272c565b91505092915050565b6000813590506128df81613a4f565b92915050565b6000602082840312156128fb576128fa6138c7565b5b60006129098482850161276e565b91505092915050565b600060208284031215612928576129276138c7565b5b600061293684828501612783565b91505092915050565b60008060008060808587031215612959576129586138c7565b5b600061296787828801612783565b945050602085013567ffffffffffffffff811115612988576129876138c2565b5b612994878288016128a2565b935050604085013567ffffffffffffffff8111156129b5576129b46138c2565b5b6129c1878288016128a2565b925050606085013567ffffffffffffffff8111156129e2576129e16138c2565b5b6129ee878288016128a2565b91505092959194509250565b60008060408385031215612a1157612a106138c7565b5b6000612a1f8582860161276e565b9250506020612a308582860161276e565b9150509250929050565b600080600080600060a08688031215612a5657612a556138c7565b5b6000612a648882890161276e565b9550506020612a758882890161276e565b945050604086013567ffffffffffffffff811115612a9657612a956138c2565b5b612aa2888289016127c6565b935050606086013567ffffffffffffffff811115612ac357612ac26138c2565b5b612acf888289016127c6565b925050608086013567ffffffffffffffff811115612af057612aef6138c2565b5b612afc8882890161281e565b9150509295509295909350565b600080600080600060a08688031215612b2557612b246138c7565b5b6000612b338882890161276e565b9550506020612b448882890161276e565b9450506040612b55888289016128d0565b9350506060612b66888289016128d0565b925050608086013567ffffffffffffffff811115612b8757612b866138c2565b5b612b938882890161281e565b9150509295509295909350565b60008060408385031215612bb757612bb66138c7565b5b6000612bc58582860161276e565b9250506020612bd6858286016127f4565b9150509250929050565b60008060408385031215612bf757612bf66138c7565b5b6000612c058582860161276e565b9250506020612c16858286016128d0565b9150509250929050565b60008060408385031215612c3757612c366138c7565b5b600083013567ffffffffffffffff811115612c5557612c546138c2565b5b612c6185828601612798565b925050602083013567ffffffffffffffff811115612c8257612c816138c2565b5b612c8e858286016127c6565b9150509250929050565b600060208284031215612cae57612cad6138c7565b5b6000612cbc84828501612809565b91505092915050565b600060208284031215612cdb57612cda6138c7565b5b6000612ce9848285016128d0565b91505092915050565b60008060408385031215612d0957612d086138c7565b5b6000612d17858286016128d0565b9250506020612d288582860161276e565b9150509250929050565b60008060408385031215612d4957612d486138c7565b5b6000612d57858286016128d0565b9250506020612d6885828601612783565b9150509250929050565b60008060408385031215612d8957612d886138c7565b5b6000612d97858286016128d0565b9250506020612da8858286016127f4565b9150509250929050565b600080600060408486031215612dcb57612dca6138c7565b5b6000612dd9868287016128d0565b935050602084013567ffffffffffffffff811115612dfa57612df96138c2565b5b612e068682870161284c565b92509250509250925092565b60008060008060008060c08789031215612e2f57612e2e6138c7565b5b6000612e3d89828a016128d0565b9650506020612e4e89828a016128d0565b9550506040612e5f89828a016128d0565b9450506060612e7089828a016128d0565b9350506080612e8189828a016128d0565b92505060a0612e9289828a016128d0565b9150509295509295509295565b6000612eab8383613117565b60208301905092915050565b612ec08161364f565b82525050565b612ecf8161364f565b82525050565b612ede8161363d565b82525050565b6000612eef826134d2565b612ef981856134f5565b9350612f04836134c2565b8060005b83811015612f35578151612f1c8882612e9f565b9750612f27836134e8565b925050600181019050612f08565b5085935050505092915050565b612f4b81613661565b82525050565b612f5a81613661565b82525050565b612f69816136c3565b82525050565b6000612f7a826134dd565b612f848185613506565b9350612f948185602086016136e4565b612f9d816138cc565b840191505092915050565b6000612fb3826134dd565b612fbd8185613517565b9350612fcd8185602086016136e4565b612fd6816138cc565b840191505092915050565b6000612fee602b83613517565b9150612ff9826138dd565b604082019050919050565b6000613011602683613517565b915061301c8261392c565b604082019050919050565b6000613034602083613517565b915061303f8261397b565b602082019050919050565b6000613057602983613517565b9150613062826139a4565b604082019050919050565b600060e0830160008301516130856000860182612eb7565b506020830151848203602086015261309d8282612f6f565b915050604083015184820360408601526130b78282612f6f565b915050606083015184820360608601526130d18282612f6f565b91505060808301516130e66080860182612f42565b5060a08301516130f960a0860182613117565b5060c083015161310c60c0860182613117565b508091505092915050565b613120816136b9565b82525050565b61312f816136b9565b82525050565b600060208201905061314a6000830184612ed5565b92915050565b600060e082019050613165600083018a612ec6565b81810360208301526131778189612fa8565b9050818103604083015261318b8188612fa8565b9050818103606083015261319f8187612fa8565b90506131ae6080830186612f51565b6131bb60a0830185613126565b6131c860c0830184613126565b98975050505050505050565b600060208201905081810360008301526131ee8184612ee4565b905092915050565b600060408201905081810360008301526132108185612ee4565b905081810360208301526132248184612ee4565b90509392505050565b60006020820190506132426000830184612f51565b92915050565b600060208201905081810360008301526132628184612fa8565b905092915050565b6000602082019050818103600083015261328381612fe1565b9050919050565b600060208201905081810360008301526132a381613004565b9050919050565b600060208201905081810360008301526132c381613027565b9050919050565b600060208201905081810360008301526132e38161304a565b9050919050565b60006020820190508181036000830152613304818461306d565b905092915050565b60006020820190506133216000830184613126565b92915050565b60006101008201905061333d600083018b613126565b61334a602083018a612ec6565b818103604083015261335c8189612fa8565b905081810360608301526133708188612fa8565b905081810360808301526133848187612fa8565b905061339360a0830186612f51565b6133a060c0830185612f60565b6133ad60e0830184612f60565b9998505050505050505050565b60006040820190506133cf6000830185613126565b6133dc6020830184613126565b9392505050565b60006133ed6133fe565b90506133f98282613749565b919050565b6000604051905090565b600067ffffffffffffffff8211156134235761342261387f565b5b602082029050602081019050919050565b600067ffffffffffffffff82111561344f5761344e61387f565b5b602082029050602081019050919050565b600067ffffffffffffffff82111561347b5761347a61387f565b5b613484826138cc565b9050602081019050919050565b600067ffffffffffffffff8211156134ac576134ab61387f565b5b6134b5826138cc565b9050602081019050919050565b6000819050602082019050919050565b600081519050919050565b600081519050919050565b6000602082019050919050565b600082825260208201905092915050565b600082825260208201905092915050565b600082825260208201905092915050565b6000613533826136b9565b915061353e836136b9565b9250827fffffffffffffffffffffffffffffffffffffffffffffffffffffffffffffffff03821115613573576135726137c3565b5b828201905092915050565b6000613589826136b9565b9150613594836136b9565b9250826135a4576135a36137f2565b5b828204905092915050565b60006135ba826136b9565b91506135c5836136b9565b9250817fffffffffffffffffffffffffffffffffffffffffffffffffffffffffffffffff04831182151516156135fe576135fd6137c3565b5b828202905092915050565b6000613614826136b9565b915061361f836136b9565b925082821015613632576136316137c3565b5b828203905092915050565b600061364882613699565b9050919050565b600061365a82613699565b9050919050565b60008115159050919050565b60007fffffffff0000000000000000000000000000000000000000000000000000000082169050919050565b600073ffffffffffffffffffffffffffffffffffffffff82169050919050565b6000819050919050565b60006136ce826136b9565b9050919050565b82818337600083830152505050565b60005b838110156137025780820151818401526020810190506136e7565b83811115613711576000848401525b50505050565b6000600282049050600182168061372f57607f821691505b6020821081141561374357613742613821565b5b50919050565b613752826138cc565b810181811067ffffffffffffffff821117156137715761377061387f565b5b80604052505050565b6000613785826136b9565b91507fffffffffffffffffffffffffffffffffffffffffffffffffffffffffffffffff8214156137b8576137b76137c3565b5b600182019050919050565b7f4e487b7100000000000000000000000000000000000000000000000000000000600052601160045260246000fd5b7f4e487b7100000000000000000000000000000000000000000000000000000000600052601260045260246000fd5b7f4e487b7100000000000000000000000000000000000000000000000000000000600052602260045260246000fd5b7f4e487b7100000000000000000000000000000000000000000000000000000000600052603260045260246000fd5b7f4e487b7100000000000000000000000000000000000000000000000000000000600052604160045260246000fd5b600080fd5b600080fd5b600080fd5b600080fd5b600080fd5b600080fd5b6000601f19601f8301169050919050565b7f455243313135353a2062616c616e636520717565727920666f7220746865207a60008201527f65726f2061646472657373000000000000000000000000000000000000000000602082015250565b7f4f776e61626c653a206e6577206f776e657220697320746865207a65726f206160008201527f6464726573730000000000000000000000000000000000000000000000000000602082015250565b7f4f776e61626c653a2063616c6c6572206973206e6f7420746865206f776e6572600082015250565b7f455243313135353a206163636f756e747320616e6420696473206c656e67746860008201527f206d69736d617463680000000000000000000000000000000000000000000000602082015250565b6139fc8161363d565b8114613a0757600080fd5b50565b613a138161364f565b8114613a1e57600080fd5b50565b613a2a81613661565b8114613a3557600080fd5b50565b613a418161366d565b8114613a4c57600080fd5b50565b613a58816136b9565b8114613a6357600080fd5b5056fea26469706673582212209271b7bf728fd07bb2a139915090374c2e1b4de98afd4855b9545e0244910e4f64736f6c63430008060033",
  "immutableReferences": {},
  "source": "// SPDX-License-Identifier: MIT\npragma solidity ^0.8.0;\n\nimport \"./creatortokenownership.sol\";\n\n/// @title Formulas representing the buy and sale price functions, as well as helper functions to efficiently calculate area under the curve\n/// @author Kamil Alizai Sadik\ncontract CreatorTokenFormulas is CreatorTokenOwnership {\n\n\tconstructor(string memory uri) CreatorTokenOwnership(uri) { }\n\n\t/// @dev Calculates area under buy price function\n\t/// @param _startingSupply Supply of token in circulation before the transaction\n\t/// @param _amount Amount of token being purchased\n\t/// @param _mNumerator Numerator of the slope of the buy price function\n\t/// @param _mDenominator Denominator of the slope of the buy price function\n\t/// @return Area under buy price function denoting total proceeds required to buy _amount tokens (before fees)\n\tfunction _buyFunction(uint _startingSupply, uint _amount, uint _mNumerator, uint _mDenominator) internal pure returns (uint256) {\n\t\t// b(x) = m*x\n\t\tuint endSupply = _startingSupply + _amount;\n\t\tuint base1 = _mNumerator*_startingSupply/_mDenominator;\n\t\tuint base2 = _mNumerator*endSupply/_mDenominator;\n\t\tuint height = endSupply-_startingSupply;\n\t\tuint area = (base1 + base2) * height / 2;\n\t\treturn area;\n\t}\n\n\t/// @dev Calculates area under sale price function\n\t/// @param _startingSupply Supply of token in circulation before the transaction\n\t/// @param _amount Amount of token being transacted\n\t/// @param _mNumerator Numerator of the slope of the buy price function\n\t/// @param _mDenominator Denominator of the slope of the buy price function\n\t/// @param _maxSupply Peak level of supply of the token to date\n\t/// @param _profitMargin percentage of total revenue generated routed to creator\n\t/// @return Area under sale price function denoting total proceeds received when selling _amount tokens (before fees)\n\tfunction _saleFunction(uint _startingSupply, uint _amount, uint _mNumerator, uint _mDenominator, uint _maxSupply, uint _profitMargin) public pure returns (uint256) {\n\t\t// Calculate breakpoint and endSupply\n\t\t(uint a, uint b, uint endSupply) = _breakpoint(_startingSupply, _amount, _mNumerator, _mDenominator, _maxSupply, _profitMargin);\n\t\t// Initialize area under curve\n\t\tuint area = 0;\n\t\t// Check where _startingSupply is relative to the breakpoint\n\t\tif (_startingSupply < a) {\n\t\t\t// Just need trapezoidal area of partial entirely left of the breakpoint\n\t\t\tarea = _leftArea(a, b, _startingSupply, endSupply);\n\t\t} else if (endSupply < a) {\n\t\t\t// Scenario in which _startingSupply >= a, and endSupply < a\n\t\t\t// There, need trapezoidal area of components both to right and left of breakpoint\n\t\t\tarea = _bothArea(a, b, _startingSupply, endSupply, _mNumerator, _mDenominator, _maxSupply);\n\t\t} else {\n\t\t\t// Scenario in which entire sale occurs to right of breakpoint\n\t\t\t// Just need trapezoidal area of partial entirely right of the breakpoint\n\t\t\tarea = _rightArea(a, b, _startingSupply, endSupply, _mNumerator, _mDenominator, _maxSupply);\n\t\t}\n\t\treturn area;\n\t}\n\n\t/// @dev Calculates breakpoint and other key inputs into _saleFunction\n\t/// @param _startingSupply Supply of token in circulation before the transaction\n\t/// @param _amount Amount of token being transacted\n\t/// @param _mNumerator Numerator of the slope of the buy price function\n\t/// @param _mDenominator Denominator of the slope of the buy price function\n\t/// @param _maxSupply Peak level of supply of the token to date\n\t/// @param _profitMargin percentage of total revenue generated routed to creator\n\t/// @return x-coordinate of breakpoint, y-coordinate of breakpoint, supply of token after the transaction\n\tfunction _breakpoint(uint _startingSupply, uint _amount, uint _mNumerator, uint _mDenominator, uint _maxSupply, uint _profitMargin) internal pure returns (uint, uint, uint) {\n\t\t// Define breakpoint (a,b) chosen s.t. area under sale price function is (1-profitMargin) times area under buy price function\n\t\tuint a = _maxSupply/2;\n\t\tuint b = _maxSupply*(50-_profitMargin)/100*_mNumerator/_mDenominator;\n\t\tuint endSupply = _startingSupply - _amount;\n\t\treturn (a, b, endSupply);\n\t}\n\n\t/// @dev Computes _saleFunction scenario in which entire transaction occurs left of breakpoint\n\t/// @param _a x-coordinate of breakpoint\n\t/// @param _b y-coordinate of breakpoint\n\t/// @param _startingSupply Supply of token in circulation before the transaction\n\t/// @param _endSupply Supply of token in circulation after the transaction\n\t/// @return Area under the sale price function in this scenario\n\tfunction _leftArea(uint _a, uint _b, uint _startingSupply, uint _endSupply) internal pure returns (uint256) {\n\t\t\t//uint base1 = ((_b/_a)*(_a-_endSupply)+_b);\n\t\t\t//uint base1 = ((_b/_a)*(_endSupply-_a)+_b);\n\t\t\tuint base1 = (_b-(_b/_a)*(_a-_endSupply));\n\t\t\t//uint base2 = ((_b/_a)*(_a-_startingSupply)+_b);\n\t\t\t//uint base2 = ((_b/_a)*(_startingSupply-_a)+_b);\n\t\t\tuint base2 = (_b-(_b/_a)*(_a-_startingSupply));\n\t\t\tuint height = _startingSupply-_endSupply;\n\t\t\treturn (base1 + base2) * height / 2;\n\t}\n\n\t/// @dev Computes _saleFunction scenario in which transaction crosses breakpoint\n\t/// @param _a x-coordinate of breakpoint\n\t/// @param _b y-coordinate of breakpoint\n\t/// @param _startingSupply Supply of token in circulation before the transaction\n\t/// @param _endSupply Supply of token in circulation after the transaction\n\t/// @param _mNumerator Numerator of the slope of the buy price function\n\t/// @param _mDenominator Denominator of the slope of the buy price function\n\t/// @param _maxSupply Peak level of supply of the token to date\n\t/// @return Area under the sale price function in this scenario\n\tfunction _bothArea(uint _a, uint _b, uint _startingSupply, uint _endSupply, uint _mNumerator, uint _mDenominator, uint _maxSupply) internal pure returns (uint256) {\n\t\t//uint leftBase1 = ((_b/_a)*(_a-_endSupply)+_b);\n\t\t//uint leftBase1 = ((_b/_a)*(_endSupply-_a)+_b);\n\t\tuint leftBase1 = (_b-(_b/_a)*(_a-_endSupply));\n\t\tuint sharedBase = _b;\n\t\tuint leftHeight = _a-_endSupply;\n\t\tuint leftArea = (leftBase1 + sharedBase) * leftHeight / 2;\n\t\tuint rightBase2 = (_mNumerator*_maxSupply/_mDenominator-_b)/(_maxSupply-_a)*(_startingSupply-_a)+_b;\n\t\tuint rightHeight = _startingSupply-_a;\n\t\tuint rightArea = (sharedBase + rightBase2) * rightHeight / 2;\n\t\treturn leftArea + rightArea;\n\t}\n\n\t/// @dev Computes _saleFunction scneario in which entire transaction occurs right of breakpoint\n\t/// @param _a x-coordinate of breakpoint\n\t/// @param _b y-coordinate of breakpoint\n\t/// @param _startingSupply Supply of token in circulation before the transaction\n\t/// @param _endSupply Supply of token in circulation after the transaction\n\t/// @param _mNumerator Numerator of the slope of the buy price function\n\t/// @param _mDenominator Denominator of the slope of the buy price function\n\t/// @param _maxSupply Peak level of supply of the token to date\n\t/// @return Area under the sale price function in this scenario\n\tfunction _rightArea(uint _a, uint _b, uint _startingSupply, uint _endSupply, uint _mNumerator, uint _mDenominator, uint _maxSupply) internal pure returns (uint256) {\n\t\tuint base1 = (((_mNumerator*_maxSupply/_mDenominator-_b)/(_maxSupply-_a))*(_endSupply-_a)+_b);\n\t\tuint base2 = (((_mNumerator*_maxSupply/_mDenominator-_b)/(_maxSupply-_a))*(_startingSupply-_a)+_b);\n\t\tuint height = _startingSupply-_endSupply;\n\t\treturn (base1 + base2) * height / 2;\n\t}\n}",
  "sourcePath": "/Users/kamilalizaisadik/DeFi/Dynamic Automated Market Maker/CreatorTokenExchange/contracts/creatortokenformulas.sol",
  "compiler": {
    "name": "solc",
    "version": "0.8.6+commit.11564f7e.Emscripten.clang"
  },
  "schemaVersion": "3.4.1",
  "updatedAt": "2021-07-29T00:15:16.617Z",
  "devdoc": {
    "author": "Kamil Alizai Sadik",
    "kind": "dev",
    "methods": {
      "_saleFunction(uint256,uint256,uint256,uint256,uint256,uint256)": {
        "details": "Calculates area under sale price function",
        "params": {
          "_amount": "Amount of token being transacted",
          "_mDenominator": "Denominator of the slope of the buy price function",
          "_mNumerator": "Numerator of the slope of the buy price function",
          "_maxSupply": "Peak level of supply of the token to date",
          "_profitMargin": "percentage of total revenue generated routed to creator",
          "_startingSupply": "Supply of token in circulation before the transaction"
        },
        "returns": {
          "_0": "Area under sale price function denoting total proceeds received when selling _amount tokens (before fees)"
        }
      },
      "balanceOf(address,uint256)": {
        "details": "See {IERC1155-balanceOf}. Requirements: - `account` cannot be the zero address."
      },
      "balanceOfBatch(address[],uint256[])": {
        "details": "See {IERC1155-balanceOfBatch}. Requirements: - `accounts` and `ids` must have the same length."
      },
      "changeAddress(uint256,address)": {
        "details": "Allows token creator to change their address",
        "params": {
          "_newCreatorAddress": "New creator address associated with the token",
          "_tokenId": "ID of the token in question"
        }
      },
      "changeDescription(uint256,string)": {
        "details": "Allows token creator to change the description of their token",
        "params": {
          "_newDescription": "New description associated with the token",
          "_tokenId": "ID of the token in question"
        }
      },
      "changeName(uint256,string)": {
        "details": "Allows token creator to change the name of their token",
        "params": {
          "_newName": "New name associated with the token",
          "_tokenId": "ID of the token in question"
        }
      },
      "changePlatformFee(uint256)": {
        "details": "Allows owner to change platformFee",
        "params": {
          "_newPlatformFee": "New platform fee"
        }
      },
      "changeProfitMargin(uint256)": {
        "details": "Allows owner to change profit_margin",
        "params": {
          "_newProfitMargin": "New profit margin"
        }
      },
      "changeSymbol(uint256,string)": {
        "details": "Allows token creator to change the symbol of their token",
        "params": {
          "_newSymbol": "New symbol associated with the token",
          "_tokenId": "ID of the token in question"
        }
      },
      "changeVerification(uint256,bool)": {
        "details": "Allows owner to verify (or undo verification) of a CreatorToken",
        "params": {
          "_tokenId": "ID of the token in question",
          "_verified": "Verification status of the token in question"
        }
      },
      "createCreatorToken(address,string,string,string)": {
        "details": "Creates a new creator token",
        "params": {
          "_creatorAddress": "Address of the creator of the token",
          "_description": "chosen by the creator of the tokens",
          "_name": "Name chosen by the creator of the token",
          "_symbol": "Ticker symbol chosen by the creator of the token"
        }
      },
      "getCreatorTokenCount()": {
        "details": "Returns the current length of the creatorTokens array",
        "returns": {
          "_0": "uint representing number of unique Creator Tokens"
        }
      },
      "getToken(uint256)": {
        "details": "Returns token with a particular id",
        "params": {
          "_id": "Id of desired token"
        },
        "returns": {
          "_0": "CreatorToken"
        }
      },
      "isApprovedForAll(address,address)": {
        "details": "Denotes whether operator is approved to transfer account's tokens",
        "params": {
          "_account": "Wallet address holding tokens",
          "_operator": "Wallet address which is/isn't approved to transfer _account's tokens"
        },
        "returns": {
          "_0": "Boolean value indicating approval status"
        }
      },
      "owner()": {
        "details": "Returns the address of the current owner."
      },
      "payoutPlatformFees(address)": {
        "details": "Pays out platform fees owed to owner (might opt to call this daily)",
        "params": {
          "_owner": "Owner of the smart contract"
        }
      },
      "renounceOwnership()": {
        "details": "Leaves the contract without owner. It will not be possible to call `onlyOwner` functions anymore. Can only be called by the current owner. NOTE: Renouncing ownership will leave the contract without an owner, thereby removing any functionality that is only available to the owner."
      },
      "safeBatchTransferFrom(address,address,uint256[],uint256[],bytes)": {
        "details": "Transfers a batch of tokens",
        "params": {
          "_amounts": "Array of quantities of token to be transferred",
          "_data": "Data",
          "_from": "Address token is being transferred from",
          "_ids": "Array of IDs of tokens being transferred",
          "_to": "Address token is being transferred to"
        }
      },
      "safeTransferFrom(address,address,uint256,uint256,bytes)": {
        "details": "Transfers a token",
        "params": {
          "_amount": "Quantity of token to be transferred",
          "_data": "Data",
          "_from": "Address token is being transferred from",
          "_id": "ID of token being transferred",
          "_to": "Address token is being transferred to"
        }
      },
      "setApprovalForAll(address,bool)": {
        "details": "Gives operator permission to transfer caller's tokens",
        "params": {
          "_approved": "Boolean value indicating whether operator is approved",
          "_operator": "Wallet address being granted permission"
        }
      },
      "supportsInterface(bytes4)": {
        "details": "See {IERC165-supportsInterface}."
      },
      "transferOwnership(address)": {
        "details": "Transfers ownership of the contract to a new account (`newOwner`). Can only be called by the current owner."
      },
      "uri(uint256)": {
        "details": "See {IERC1155MetadataURI-uri}. This implementation returns the same URI for *all* token types. It relies on the token type ID substitution mechanism https://eips.ethereum.org/EIPS/eip-1155#metadata[defined in the EIP]. Clients calling this function must replace the `\\{id\\}` substring with the actual token type ID."
      },
      "withdraw(address)": {
        "details": "Ownable function allowing for withdrawal",
        "params": {
          "_owner": "Owner of the smart contract"
        }
      }
    },
    "title": "Formulas representing the buy and sale price functions, as well as helper functions to efficiently calculate area under the curve",
    "version": 1
  },
  "userdoc": {
    "kind": "user",
    "methods": {},
    "version": 1
  }
}