{
  "contractName": "CreatorTokenFormulas",
  "abi": [
    {
      "inputs": [
        {
          "internalType": "string",
          "name": "uri",
          "type": "string"
        }
      ],
      "stateMutability": "nonpayable",
      "type": "constructor"
    },
    {
      "anonymous": false,
      "inputs": [
        {
          "indexed": true,
          "internalType": "address",
          "name": "account",
          "type": "address"
        },
        {
          "indexed": true,
          "internalType": "address",
          "name": "operator",
          "type": "address"
        },
        {
          "indexed": false,
          "internalType": "bool",
          "name": "approved",
          "type": "bool"
        }
      ],
      "name": "ApprovalForAll",
      "type": "event"
    },
    {
      "anonymous": false,
      "inputs": [
        {
          "indexed": false,
          "internalType": "uint256",
          "name": "tokenId",
          "type": "uint256"
        },
        {
          "indexed": false,
          "internalType": "address payable",
          "name": "creatorAddress",
          "type": "address"
        },
        {
          "indexed": false,
          "internalType": "string",
          "name": "name",
          "type": "string"
        },
        {
          "indexed": false,
          "internalType": "string",
          "name": "symbol",
          "type": "string"
        },
        {
          "indexed": false,
          "internalType": "string",
          "name": "description",
          "type": "string"
        },
        {
          "indexed": false,
          "internalType": "bool",
          "name": "verified",
          "type": "bool"
        },
        {
          "indexed": false,
          "internalType": "uint256",
          "name": "outstanding",
          "type": "uint256"
        },
        {
          "indexed": false,
          "internalType": "uint256",
          "name": "maxSupply",
          "type": "uint256"
        }
      ],
      "name": "NewCreatorToken",
      "type": "event"
    },
    {
      "anonymous": false,
      "inputs": [
        {
          "indexed": true,
          "internalType": "address",
          "name": "previousOwner",
          "type": "address"
        },
        {
          "indexed": true,
          "internalType": "address",
          "name": "newOwner",
          "type": "address"
        }
      ],
      "name": "OwnershipTransferred",
      "type": "event"
    },
    {
      "anonymous": false,
      "inputs": [
        {
          "indexed": false,
          "internalType": "address",
          "name": "account",
          "type": "address"
        }
      ],
      "name": "Paused",
      "type": "event"
    },
    {
      "anonymous": false,
      "inputs": [
        {
          "indexed": true,
          "internalType": "bytes32",
          "name": "role",
          "type": "bytes32"
        },
        {
          "indexed": true,
          "internalType": "bytes32",
          "name": "previousAdminRole",
          "type": "bytes32"
        },
        {
          "indexed": true,
          "internalType": "bytes32",
          "name": "newAdminRole",
          "type": "bytes32"
        }
      ],
      "name": "RoleAdminChanged",
      "type": "event"
    },
    {
      "anonymous": false,
      "inputs": [
        {
          "indexed": true,
          "internalType": "bytes32",
          "name": "role",
          "type": "bytes32"
        },
        {
          "indexed": true,
          "internalType": "address",
          "name": "account",
          "type": "address"
        },
        {
          "indexed": true,
          "internalType": "address",
          "name": "sender",
          "type": "address"
        }
      ],
      "name": "RoleGranted",
      "type": "event"
    },
    {
      "anonymous": false,
      "inputs": [
        {
          "indexed": true,
          "internalType": "bytes32",
          "name": "role",
          "type": "bytes32"
        },
        {
          "indexed": true,
          "internalType": "address",
          "name": "account",
          "type": "address"
        },
        {
          "indexed": true,
          "internalType": "address",
          "name": "sender",
          "type": "address"
        }
      ],
      "name": "RoleRevoked",
      "type": "event"
    },
    {
      "anonymous": false,
      "inputs": [
        {
          "indexed": true,
          "internalType": "address",
          "name": "operator",
          "type": "address"
        },
        {
          "indexed": true,
          "internalType": "address",
          "name": "from",
          "type": "address"
        },
        {
          "indexed": true,
          "internalType": "address",
          "name": "to",
          "type": "address"
        },
        {
          "indexed": false,
          "internalType": "uint256[]",
          "name": "ids",
          "type": "uint256[]"
        },
        {
          "indexed": false,
          "internalType": "uint256[]",
          "name": "values",
          "type": "uint256[]"
        }
      ],
      "name": "TransferBatch",
      "type": "event"
    },
    {
      "anonymous": false,
      "inputs": [
        {
          "indexed": true,
          "internalType": "address",
          "name": "operator",
          "type": "address"
        },
        {
          "indexed": true,
          "internalType": "address",
          "name": "from",
          "type": "address"
        },
        {
          "indexed": true,
          "internalType": "address",
          "name": "to",
          "type": "address"
        },
        {
          "indexed": false,
          "internalType": "uint256",
          "name": "id",
          "type": "uint256"
        },
        {
          "indexed": false,
          "internalType": "uint256",
          "name": "value",
          "type": "uint256"
        }
      ],
      "name": "TransferSingle",
      "type": "event"
    },
    {
      "anonymous": false,
      "inputs": [
        {
          "indexed": false,
          "internalType": "string",
          "name": "value",
          "type": "string"
        },
        {
          "indexed": true,
          "internalType": "uint256",
          "name": "id",
          "type": "uint256"
        }
      ],
      "name": "URI",
      "type": "event"
    },
    {
      "anonymous": false,
      "inputs": [
        {
          "indexed": false,
          "internalType": "address",
          "name": "account",
          "type": "address"
        }
      ],
      "name": "Unpaused",
      "type": "event"
    },
    {
      "inputs": [],
      "name": "DEFAULT_ADMIN_ROLE",
      "outputs": [
        {
          "internalType": "bytes32",
          "name": "",
          "type": "bytes32"
        }
      ],
      "stateMutability": "view",
      "type": "function"
    },
    {
      "inputs": [],
      "name": "MINTER_ROLE",
      "outputs": [
        {
          "internalType": "bytes32",
          "name": "",
          "type": "bytes32"
        }
      ],
      "stateMutability": "view",
      "type": "function"
    },
    {
      "inputs": [],
      "name": "PAUSER_ROLE",
      "outputs": [
        {
          "internalType": "bytes32",
          "name": "",
          "type": "bytes32"
        }
      ],
      "stateMutability": "view",
      "type": "function"
    },
    {
      "inputs": [
        {
          "internalType": "address",
          "name": "_account",
          "type": "address"
        },
        {
          "internalType": "uint256",
          "name": "_id",
          "type": "uint256"
        }
      ],
      "name": "balanceOf",
      "outputs": [
        {
          "internalType": "uint256",
          "name": "",
          "type": "uint256"
        }
      ],
      "stateMutability": "view",
      "type": "function"
    },
    {
      "inputs": [
        {
          "internalType": "address[]",
          "name": "_accounts",
          "type": "address[]"
        },
        {
          "internalType": "uint256[]",
          "name": "_ids",
          "type": "uint256[]"
        }
      ],
      "name": "balanceOfBatch",
      "outputs": [
        {
          "internalType": "uint256[]",
          "name": "",
          "type": "uint256[]"
        }
      ],
      "stateMutability": "view",
      "type": "function"
    },
    {
      "inputs": [
        {
          "internalType": "address",
          "name": "_account",
          "type": "address"
        },
        {
          "internalType": "uint256",
          "name": "_id",
          "type": "uint256"
        },
        {
          "internalType": "uint256",
          "name": "_amount",
          "type": "uint256"
        }
      ],
      "name": "burn",
      "outputs": [],
      "stateMutability": "nonpayable",
      "type": "function"
    },
    {
      "inputs": [
        {
          "internalType": "address",
          "name": "_account",
          "type": "address"
        },
        {
          "internalType": "uint256[]",
          "name": "_ids",
          "type": "uint256[]"
        },
        {
          "internalType": "uint256[]",
          "name": "_amounts",
          "type": "uint256[]"
        }
      ],
      "name": "burnBatch",
      "outputs": [],
      "stateMutability": "nonpayable",
      "type": "function"
    },
    {
      "inputs": [
        {
          "internalType": "uint256",
          "name": "_tokenId",
          "type": "uint256"
        },
        {
          "internalType": "address payable",
          "name": "_newCreatorAddress",
          "type": "address"
        }
      ],
      "name": "changeAddress",
      "outputs": [],
      "stateMutability": "nonpayable",
      "type": "function"
    },
    {
      "inputs": [
        {
          "internalType": "uint256",
          "name": "_tokenId",
          "type": "uint256"
        },
        {
          "internalType": "string",
          "name": "_newDescription",
          "type": "string"
        }
      ],
      "name": "changeDescription",
      "outputs": [],
      "stateMutability": "nonpayable",
      "type": "function"
    },
    {
      "inputs": [
        {
          "internalType": "uint256",
          "name": "_tokenId",
          "type": "uint256"
        },
        {
          "internalType": "string",
          "name": "_newName",
          "type": "string"
        }
      ],
      "name": "changeName",
      "outputs": [],
      "stateMutability": "nonpayable",
      "type": "function"
    },
    {
      "inputs": [
        {
          "internalType": "uint256",
          "name": "_newPlatformFee",
          "type": "uint256"
        }
      ],
      "name": "changePlatformFee",
      "outputs": [],
      "stateMutability": "nonpayable",
      "type": "function"
    },
    {
      "inputs": [
        {
          "internalType": "uint256",
          "name": "_newProfitMargin",
          "type": "uint256"
        }
      ],
      "name": "changeProfitMargin",
      "outputs": [],
      "stateMutability": "nonpayable",
      "type": "function"
    },
    {
      "inputs": [
        {
          "internalType": "uint256",
          "name": "_tokenId",
          "type": "uint256"
        },
        {
          "internalType": "string",
          "name": "_newSymbol",
          "type": "string"
        }
      ],
      "name": "changeSymbol",
      "outputs": [],
      "stateMutability": "nonpayable",
      "type": "function"
    },
    {
      "inputs": [
        {
          "internalType": "uint256",
          "name": "_tokenId",
          "type": "uint256"
        },
        {
          "internalType": "bool",
          "name": "_verified",
          "type": "bool"
        }
      ],
      "name": "changeVerification",
      "outputs": [],
      "stateMutability": "nonpayable",
      "type": "function"
    },
    {
      "inputs": [
        {
          "internalType": "address payable",
          "name": "_creatorAddress",
          "type": "address"
        },
        {
          "internalType": "string",
          "name": "_name",
          "type": "string"
        },
        {
          "internalType": "string",
          "name": "_symbol",
          "type": "string"
        },
        {
          "internalType": "string",
          "name": "_description",
          "type": "string"
        }
      ],
      "name": "createCreatorToken",
      "outputs": [],
      "stateMutability": "nonpayable",
      "type": "function"
    },
    {
      "inputs": [
        {
          "internalType": "uint256",
          "name": "",
          "type": "uint256"
        }
      ],
      "name": "creatorTokens",
      "outputs": [
        {
          "internalType": "address payable",
          "name": "creatorAddress",
          "type": "address"
        },
        {
          "internalType": "string",
          "name": "name",
          "type": "string"
        },
        {
          "internalType": "string",
          "name": "symbol",
          "type": "string"
        },
        {
          "internalType": "string",
          "name": "description",
          "type": "string"
        },
        {
          "internalType": "bool",
          "name": "verified",
          "type": "bool"
        },
        {
          "internalType": "uint256",
          "name": "outstanding",
          "type": "uint256"
        },
        {
          "internalType": "uint256",
          "name": "maxSupply",
          "type": "uint256"
        }
      ],
      "stateMutability": "view",
      "type": "function"
    },
    {
      "inputs": [
        {
          "internalType": "bytes32",
          "name": "role",
          "type": "bytes32"
        }
      ],
      "name": "getRoleAdmin",
      "outputs": [
        {
          "internalType": "bytes32",
          "name": "",
          "type": "bytes32"
        }
      ],
      "stateMutability": "view",
      "type": "function"
    },
    {
      "inputs": [
        {
          "internalType": "bytes32",
          "name": "role",
          "type": "bytes32"
        },
        {
          "internalType": "uint256",
          "name": "index",
          "type": "uint256"
        }
      ],
      "name": "getRoleMember",
      "outputs": [
        {
          "internalType": "address",
          "name": "",
          "type": "address"
        }
      ],
      "stateMutability": "view",
      "type": "function"
    },
    {
      "inputs": [
        {
          "internalType": "bytes32",
          "name": "role",
          "type": "bytes32"
        }
      ],
      "name": "getRoleMemberCount",
      "outputs": [
        {
          "internalType": "uint256",
          "name": "",
          "type": "uint256"
        }
      ],
      "stateMutability": "view",
      "type": "function"
    },
    {
      "inputs": [
        {
          "internalType": "bytes32",
          "name": "role",
          "type": "bytes32"
        },
        {
          "internalType": "address",
          "name": "account",
          "type": "address"
        }
      ],
      "name": "grantRole",
      "outputs": [],
      "stateMutability": "nonpayable",
      "type": "function"
    },
    {
      "inputs": [
        {
          "internalType": "bytes32",
          "name": "role",
          "type": "bytes32"
        },
        {
          "internalType": "address",
          "name": "account",
          "type": "address"
        }
      ],
      "name": "hasRole",
      "outputs": [
        {
          "internalType": "bool",
          "name": "",
          "type": "bool"
        }
      ],
      "stateMutability": "view",
      "type": "function"
    },
    {
      "inputs": [
        {
          "internalType": "address",
          "name": "_account",
          "type": "address"
        },
        {
          "internalType": "address",
          "name": "_operator",
          "type": "address"
        }
      ],
      "name": "isApprovedForAll",
      "outputs": [
        {
          "internalType": "bool",
          "name": "",
          "type": "bool"
        }
      ],
      "stateMutability": "view",
      "type": "function"
    },
    {
      "inputs": [
        {
          "internalType": "address",
          "name": "_account",
          "type": "address"
        },
        {
          "internalType": "uint256",
          "name": "_id",
          "type": "uint256"
        },
        {
          "internalType": "uint256",
          "name": "_amount",
          "type": "uint256"
        }
      ],
      "name": "mappingDecrease",
      "outputs": [],
      "stateMutability": "nonpayable",
      "type": "function"
    },
    {
      "inputs": [
        {
          "internalType": "address",
          "name": "_account",
          "type": "address"
        },
        {
          "internalType": "uint256",
          "name": "_id",
          "type": "uint256"
        },
        {
          "internalType": "uint256",
          "name": "_amount",
          "type": "uint256"
        }
      ],
      "name": "mappingIncrease",
      "outputs": [],
      "stateMutability": "nonpayable",
      "type": "function"
    },
    {
      "inputs": [
        {
          "internalType": "address",
          "name": "_to",
          "type": "address"
        },
        {
          "internalType": "uint256",
          "name": "_id",
          "type": "uint256"
        },
        {
          "internalType": "uint256",
          "name": "_amount",
          "type": "uint256"
        },
        {
          "internalType": "bytes",
          "name": "_data",
          "type": "bytes"
        }
      ],
      "name": "mint",
      "outputs": [],
      "stateMutability": "nonpayable",
      "type": "function"
    },
    {
      "inputs": [
        {
          "internalType": "address",
          "name": "_to",
          "type": "address"
        },
        {
          "internalType": "uint256[]",
          "name": "_ids",
          "type": "uint256[]"
        },
        {
          "internalType": "uint256[]",
          "name": "_amounts",
          "type": "uint256[]"
        },
        {
          "internalType": "bytes",
          "name": "data",
          "type": "bytes"
        }
      ],
      "name": "mintBatch",
      "outputs": [],
      "stateMutability": "nonpayable",
      "type": "function"
    },
    {
      "inputs": [],
      "name": "owner",
      "outputs": [
        {
          "internalType": "address",
          "name": "",
          "type": "address"
        }
      ],
      "stateMutability": "view",
      "type": "function"
    },
    {
      "inputs": [],
      "name": "pause",
      "outputs": [],
      "stateMutability": "nonpayable",
      "type": "function"
    },
    {
      "inputs": [],
      "name": "paused",
      "outputs": [
        {
          "internalType": "bool",
          "name": "",
          "type": "bool"
        }
      ],
      "stateMutability": "view",
      "type": "function"
    },
    {
      "inputs": [
        {
          "internalType": "address payable",
          "name": "_owner",
          "type": "address"
        }
      ],
      "name": "payoutPlatformFees",
      "outputs": [],
      "stateMutability": "nonpayable",
      "type": "function"
    },
    {
      "inputs": [],
      "name": "renounceOwnership",
      "outputs": [],
      "stateMutability": "nonpayable",
      "type": "function"
    },
    {
      "inputs": [
        {
          "internalType": "bytes32",
          "name": "role",
          "type": "bytes32"
        },
        {
          "internalType": "address",
          "name": "account",
          "type": "address"
        }
      ],
      "name": "renounceRole",
      "outputs": [],
      "stateMutability": "nonpayable",
      "type": "function"
    },
    {
      "inputs": [
        {
          "internalType": "bytes32",
          "name": "role",
          "type": "bytes32"
        },
        {
          "internalType": "address",
          "name": "account",
          "type": "address"
        }
      ],
      "name": "revokeRole",
      "outputs": [],
      "stateMutability": "nonpayable",
      "type": "function"
    },
    {
      "inputs": [
        {
          "internalType": "address",
          "name": "_from",
          "type": "address"
        },
        {
          "internalType": "address",
          "name": "_to",
          "type": "address"
        },
        {
          "internalType": "uint256[]",
          "name": "_ids",
          "type": "uint256[]"
        },
        {
          "internalType": "uint256[]",
          "name": "_amounts",
          "type": "uint256[]"
        },
        {
          "internalType": "bytes",
          "name": "data",
          "type": "bytes"
        }
      ],
      "name": "safeBatchTransferFrom",
      "outputs": [],
      "stateMutability": "nonpayable",
      "type": "function"
    },
    {
      "inputs": [
        {
          "internalType": "address",
          "name": "_from",
          "type": "address"
        },
        {
          "internalType": "address",
          "name": "_to",
          "type": "address"
        },
        {
          "internalType": "uint256",
          "name": "_id",
          "type": "uint256"
        },
        {
          "internalType": "uint256",
          "name": "_amount",
          "type": "uint256"
        },
        {
          "internalType": "bytes",
          "name": "_data",
          "type": "bytes"
        }
      ],
      "name": "safeTransferFrom",
      "outputs": [],
      "stateMutability": "nonpayable",
      "type": "function"
    },
    {
      "inputs": [
        {
          "internalType": "address",
          "name": "_operator",
          "type": "address"
        },
        {
          "internalType": "bool",
          "name": "_approved",
          "type": "bool"
        }
      ],
      "name": "setApprovalForAll",
      "outputs": [],
      "stateMutability": "nonpayable",
      "type": "function"
    },
    {
      "inputs": [
        {
          "internalType": "bytes4",
          "name": "interfaceId",
          "type": "bytes4"
        }
      ],
      "name": "supportsInterface",
      "outputs": [
        {
          "internalType": "bool",
          "name": "",
          "type": "bool"
        }
      ],
      "stateMutability": "view",
      "type": "function"
    },
    {
      "inputs": [
        {
          "internalType": "uint256",
          "name": "",
          "type": "uint256"
        },
        {
          "internalType": "address",
          "name": "",
          "type": "address"
        }
      ],
      "name": "tokenHoldership",
      "outputs": [
        {
          "internalType": "uint256",
          "name": "",
          "type": "uint256"
        }
      ],
      "stateMutability": "view",
      "type": "function"
    },
    {
      "inputs": [
        {
          "internalType": "uint256",
          "name": "",
          "type": "uint256"
        }
      ],
      "name": "tokenToCreator",
      "outputs": [
        {
          "internalType": "address",
          "name": "",
          "type": "address"
        }
      ],
      "stateMutability": "view",
      "type": "function"
    },
    {
      "inputs": [
        {
          "internalType": "address",
          "name": "newOwner",
          "type": "address"
        }
      ],
      "name": "transferOwnership",
      "outputs": [],
      "stateMutability": "nonpayable",
      "type": "function"
    },
    {
      "inputs": [],
      "name": "unpause",
      "outputs": [],
      "stateMutability": "nonpayable",
      "type": "function"
    },
    {
      "inputs": [
        {
          "internalType": "uint256",
          "name": "",
          "type": "uint256"
        }
      ],
      "name": "uri",
      "outputs": [
        {
          "internalType": "string",
          "name": "",
          "type": "string"
        }
      ],
      "stateMutability": "view",
      "type": "function"
    },
    {
      "inputs": [
        {
          "internalType": "address",
          "name": "",
          "type": "address"
        },
        {
          "internalType": "uint256",
          "name": "",
          "type": "uint256"
        }
      ],
      "name": "userToHoldings",
      "outputs": [
        {
          "internalType": "uint256",
          "name": "",
          "type": "uint256"
        }
      ],
      "stateMutability": "view",
      "type": "function"
    },
    {
      "inputs": [
        {
          "internalType": "address payable",
          "name": "_owner",
          "type": "address"
        }
      ],
      "name": "withdraw",
      "outputs": [],
      "stateMutability": "nonpayable",
      "type": "function"
    }
  ],
  "bytecode": "0x60806040526001805560006002556000600355601460045565082f79cd900060055560b96006553480156200003357600080fd5b506040516200522e3803806200522e8339818101604052810190620000599190620005ca565b80808060006200006e620001e860201b60201c565b9050806000806101000a81548173ffffffffffffffffffffffffffffffffffffffff021916908373ffffffffffffffffffffffffffffffffffffffff1602179055508073ffffffffffffffffffffffffffffffffffffffff16600073ffffffffffffffffffffffffffffffffffffffff167f8be0079c531659141344cd1fd0a4f28419497f9722a3daafe3b4186f6b6457e060405160405180910390a3506200011d81620001f060201b60201c565b506000601260006101000a81548160ff0219169083151502179055506200015d6000801b62000151620001e860201b60201c565b6200020c60201b60201c565b6200019e7f9f2df0fed2c77648de5860a4cc508cd0818c85b8b8a1ab4ceeef8d981c8956a662000192620001e860201b60201c565b6200020c60201b60201c565b620001df7f65d7a28e3265b37a6474929f336521b332c1681b933f6cb9f3376673440d862a620001d3620001e860201b60201c565b6200020c60201b60201c565b5050506200079f565b600033905090565b8060119080519060200190620002089291906200049c565b5050565b6200022382826200025460201b620024431760201c565b6200024f81600e60008581526020019081526020016000206200026a60201b620024511790919060201c565b505050565b620002668282620002a260201b60201c565b5050565b60006200029a836000018373ffffffffffffffffffffffffffffffffffffffff1660001b6200039460201b60201c565b905092915050565b620002b482826200040e60201b60201c565b62000390576001600d600084815260200190815260200160002060000160008373ffffffffffffffffffffffffffffffffffffffff1673ffffffffffffffffffffffffffffffffffffffff16815260200190815260200160002060006101000a81548160ff02191690831515021790555062000335620001e860201b60201c565b73ffffffffffffffffffffffffffffffffffffffff168173ffffffffffffffffffffffffffffffffffffffff16837f2f8788117e7eff1d82e926ec794901d17c78024a50270940304540a733656f0d60405160405180910390a45b5050565b6000620003a883836200047960201b60201c565b6200040357826000018290806001815401808255809150506001900390600052602060002001600090919091909150558260000180549050836001016000848152602001908152602001600020819055506001905062000408565b600090505b92915050565b6000600d600084815260200190815260200160002060000160008373ffffffffffffffffffffffffffffffffffffffff1673ffffffffffffffffffffffffffffffffffffffff16815260200190815260200160002060009054906101000a900460ff16905092915050565b600080836001016000848152602001908152602001600020541415905092915050565b828054620004aa90620006b0565b90600052602060002090601f016020900481019282620004ce57600085556200051a565b82601f10620004e957805160ff19168380011785556200051a565b828001600101855582156200051a579182015b8281111562000519578251825591602001919060010190620004fc565b5b5090506200052991906200052d565b5090565b5b80821115620005485760008160009055506001016200052e565b5090565b6000620005636200055d8462000644565b6200061b565b9050828152602081018484840111156200058257620005816200077f565b5b6200058f8482856200067a565b509392505050565b600082601f830112620005af57620005ae6200077a565b5b8151620005c18482602086016200054c565b91505092915050565b600060208284031215620005e357620005e262000789565b5b600082015167ffffffffffffffff81111562000604576200060362000784565b5b620006128482850162000597565b91505092915050565b6000620006276200063a565b9050620006358282620006e6565b919050565b6000604051905090565b600067ffffffffffffffff8211156200066257620006616200074b565b5b6200066d826200078e565b9050602081019050919050565b60005b838110156200069a5780820151818401526020810190506200067d565b83811115620006aa576000848401525b50505050565b60006002820490506001821680620006c957607f821691505b60208210811415620006e057620006df6200071c565b5b50919050565b620006f1826200078e565b810181811067ffffffffffffffff821117156200071357620007126200074b565b5b80604052505050565b7f4e487b7100000000000000000000000000000000000000000000000000000000600052602260045260246000fd5b7f4e487b7100000000000000000000000000000000000000000000000000000000600052604160045260246000fd5b600080fd5b600080fd5b600080fd5b600080fd5b6000601f19601f8301169050919050565b614a7f80620007af6000396000f3fe608060405234801561001057600080fd5b50600436106102735760003560e01c806391d1485411610151578063d56b72c7116100c3578063eb84175911610087578063eb8417591461077e578063f242432a1461079a578063f2fde38b146107b6578063f5298aca146107d2578063f56e71b4146107ee578063f7374e2e1461080a57610273565b8063d56b72c7146106dc578063d7a5791a146106f8578063de6a06ed14610714578063e63ab1e914610730578063e985e9c51461074e57610273565b8063c39cbef111610115578063c39cbef114610604578063c539c31714610620578063ca15c8731461063c578063ce901d8a1461066c578063d5391393146106a2578063d547741f146106c057610273565b806391d148541461053a57806392724afa1461056a578063a217fddf1461059a578063a22cb465146105b8578063bfb48c9c146105d457610273565b80633f4ba83a116101ea5780636b20c454116101ae5780636b20c454146104a0578063715018a6146104bc578063731133e9146104c65780638456cb59146104e25780638da5cb5b146104ec5780639010d07c1461050a57610273565b80633f4ba83a146104105780634e1273f41461041a57806351cff8d91461044a5780635c975abb146104665780635d4222cd1461048457610273565b80631d5ad18b1161023c5780631d5ad18b146103545780631f7fdffa14610370578063248a9ca31461038c5780632eb2c2d6146103bc5780632f2ff15d146103d857806336568abe146103f457610273565b8062fdd58e1461027857806301ffc9a7146102a857806306e320f5146102d85780630e89341c146102f457806318892ae814610324575b600080fd5b610292600480360381019061028d919061386a565b610826565b60405161029f919061419c565b60405180910390f35b6102c260048036038101906102bd9190613aae565b610881565b6040516102cf9190614024565b60405180910390f35b6102f260048036038101906102ed9190613bc8565b610893565b005b61030e60048036038101906103099190613adb565b61093a565b60405161031b919061405a565b60405180910390f35b61033e60048036038101906103399190613adb565b6109ce565b60405161034b9190613f2c565b60405180910390f35b61036e60048036038101906103699190613b48565b610a01565b005b61038a6004803603810190610385919061376f565b610ad6565b005b6103a660048036038101906103a19190613a01565b610c2a565b6040516103b3919061403f565b60405180910390f35b6103d660048036038101906103d1919061357e565b610c4a565b005b6103f260048036038101906103ed9190613a2e565b610d6d565b005b61040e60048036038101906104099190613a2e565b610da1565b005b610418610dd5565b005b610434600480360381019061042f9190613980565b610e4f565b6040516104419190613fcb565b60405180910390f35b610464600480360381019061045f9190613456565b610f7f565b005b61046e611045565b60405161047b9190614024565b60405180910390f35b61049e600480360381019061049991906138aa565b61105c565b005b6104ba60048036038101906104b591906136e4565b61112f565b005b6104c4611282565b005b6104e060048036038101906104db91906138fd565b6113bc565b005b6104ea611488565b005b6104f4611502565b6040516105019190613f2c565b60405180910390f35b610524600480360381019061051f9190613a6e565b61152b565b6040516105319190613f2c565b60405180910390f35b610554600480360381019061054f9190613a2e565b61155a565b6040516105619190614024565b60405180910390f35b610584600480360381019061057f919061386a565b6115c5565b604051610591919061419c565b60405180910390f35b6105a26115ea565b6040516105af919061403f565b60405180910390f35b6105d260048036038101906105cd919061382a565b6115f1565b005b6105ee60048036038101906105e99190613b08565b6116ee565b6040516105fb919061419c565b60405180910390f35b61061e60048036038101906106199190613bc8565b611713565b005b61063a60048036038101906106359190613adb565b6117ba565b005b61065660048036038101906106519190613a01565b611840565b604051610663919061419c565b60405180910390f35b61068660048036038101906106819190613adb565b611864565b6040516106999796959493929190613f47565b60405180910390f35b6106aa611a7b565b6040516106b7919061403f565b60405180910390f35b6106da60048036038101906106d59190613a2e565b611a9f565b005b6106f660048036038101906106f19190613483565b611ad3565b005b610712600480360381019061070d9190613adb565b611cef565b005b61072e60048036038101906107299190613bc8565b611d75565b005b610738611e1c565b604051610745919061403f565b60405180910390f35b6107686004803603810190610763919061353e565b611e40565b6040516107759190614024565b60405180910390f35b61079860048036038101906107939190613456565b611ed4565b005b6107b460048036038101906107af919061364d565b611fa4565b005b6107d060048036038101906107cb9190613429565b61203f565b005b6107ec60048036038101906107e791906138aa565b6121e8565b005b610808600480360381019061080391906138aa565b6122b3565b005b610824600480360381019061081f9190613b88565b612386565b005b6000600a600083815260200190815260200160002060008473ffffffffffffffffffffffffffffffffffffffff1673ffffffffffffffffffffffffffffffffffffffff16815260200190815260200160002054905092915050565b600061088c82612481565b9050919050565b826008600082815260200190815260200160002060009054906101000a900473ffffffffffffffffffffffffffffffffffffffff1673ffffffffffffffffffffffffffffffffffffffff163373ffffffffffffffffffffffffffffffffffffffff16146108ff57600080fd5b828260078681548110610915576109146146b1565b5b90600052602060002090600702016002019190610933929190613002565b5050505050565b60606011805461094990614578565b80601f016020809104026020016040519081016040528092919081815260200182805461097590614578565b80156109c25780601f10610997576101008083540402835291602001916109c2565b820191906000526020600020905b8154815290600101906020018083116109a557829003601f168201915b50505050509050919050565b60086020528060005260406000206000915054906101000a900473ffffffffffffffffffffffffffffffffffffffff1681565b816008600082815260200190815260200160002060009054906101000a900473ffffffffffffffffffffffffffffffffffffffff1673ffffffffffffffffffffffffffffffffffffffff163373ffffffffffffffffffffffffffffffffffffffff1614610a6d57600080fd5b8160078481548110610a8257610a816146b1565b5b906000526020600020906007020160000160006101000a81548173ffffffffffffffffffffffffffffffffffffffff021916908373ffffffffffffffffffffffffffffffffffffffff160217905550505050565b60005b8351811015610ba457610b2185858381518110610af957610af86146b1565b5b6020026020010151858481518110610b1457610b136146b1565b5b602002602001015161105c565b828181518110610b3457610b336146b1565b5b60200260200101516007858381518110610b5157610b506146b1565b5b602002602001015181548110610b6a57610b696146b1565b5b90600052602060002090600702016005016000828254610b8a9190614386565b925050819055508080610b9c906145db565b915050610ad9565b508373ffffffffffffffffffffffffffffffffffffffff16600073ffffffffffffffffffffffffffffffffffffffff163373ffffffffffffffffffffffffffffffffffffffff167f4a39dc06d4c0dbc64b70af90fd698a233a518aa5d07e595d983b8c0526c8f7fb8686604051610c1c929190613fed565b60405180910390a450505050565b6000600d6000838152602001908152602001600020600101549050919050565b60005b8351811015610ce757610c9586858381518110610c6d57610c6c6146b1565b5b6020026020010151858481518110610c8857610c876146b1565b5b60200260200101516122b3565b610cd485858381518110610cac57610cab6146b1565b5b6020026020010151858481518110610cc757610cc66146b1565b5b602002602001015161105c565b8080610cdf906145db565b915050610c4d565b508373ffffffffffffffffffffffffffffffffffffffff168573ffffffffffffffffffffffffffffffffffffffff163373ffffffffffffffffffffffffffffffffffffffff167f4a39dc06d4c0dbc64b70af90fd698a233a518aa5d07e595d983b8c0526c8f7fb8686604051610d5e929190613fed565b60405180910390a45050505050565b610d778282612563565b610d9c81600e600085815260200190815260200160002061245190919063ffffffff16565b505050565b610dab828261258c565b610dd081600e600085815260200190815260200160002061260f90919063ffffffff16565b505050565b610e067f65d7a28e3265b37a6474929f336521b332c1681b933f6cb9f3376673440d862a610e0161263f565b61155a565b610e45576040517f08c379a0000000000000000000000000000000000000000000000000000000008152600401610e3c9061413c565b60405180910390fd5b610e4d612647565b565b606060008585905067ffffffffffffffff811115610e7057610e6f6146e0565b5b604051908082528060200260200182016040528015610e9e5781602001602082028036833780820191505090505b50905060005b86869050811015610f7257600a6000868684818110610ec657610ec56146b1565b5b9050602002013581526020019081526020016000206000888884818110610ef057610eef6146b1565b5b9050602002016020810190610f059190613429565b73ffffffffffffffffffffffffffffffffffffffff1673ffffffffffffffffffffffffffffffffffffffff16815260200190815260200160002054828281518110610f5357610f526146b1565b5b6020026020010181815250508080610f6a906145db565b915050610ea4565b5080915050949350505050565b610f8761263f565b73ffffffffffffffffffffffffffffffffffffffff16610fa5611502565b73ffffffffffffffffffffffffffffffffffffffff1614610ffb576040517f08c379a0000000000000000000000000000000000000000000000000000000008152600401610ff29061411c565b60405180910390fd5b8073ffffffffffffffffffffffffffffffffffffffff166108fc479081150290604051600060405180830381858888f19350505050158015611041573d6000803e3d6000fd5b5050565b6000601260009054906101000a900460ff16905090565b80600a600084815260200190815260200160002060008573ffffffffffffffffffffffffffffffffffffffff1673ffffffffffffffffffffffffffffffffffffffff16815260200190815260200160002060008282546110bc9190614386565b9250508190555080600b60008573ffffffffffffffffffffffffffffffffffffffff1673ffffffffffffffffffffffffffffffffffffffff168152602001908152602001600020600084815260200190815260200160002060008282546111239190614386565b92505081905550505050565b60005b82518110156111fd5761117a84848381518110611152576111516146b1565b5b602002602001015184848151811061116d5761116c6146b1565b5b60200260200101516122b3565b81818151811061118d5761118c6146b1565b5b602002602001015160078483815181106111aa576111a96146b1565b5b6020026020010151815481106111c3576111c26146b1565b5b906000526020600020906007020160050160008282546111e39190614436565b9250508190555080806111f5906145db565b915050611132565b50600073ffffffffffffffffffffffffffffffffffffffff168373ffffffffffffffffffffffffffffffffffffffff163373ffffffffffffffffffffffffffffffffffffffff167f4a39dc06d4c0dbc64b70af90fd698a233a518aa5d07e595d983b8c0526c8f7fb8585604051611275929190613fed565b60405180910390a4505050565b61128a61263f565b73ffffffffffffffffffffffffffffffffffffffff166112a8611502565b73ffffffffffffffffffffffffffffffffffffffff16146112fe576040517f08c379a00000000000000000000000000000000000000000000000000000000081526004016112f59061411c565b60405180910390fd5b600073ffffffffffffffffffffffffffffffffffffffff1660008054906101000a900473ffffffffffffffffffffffffffffffffffffffff1673ffffffffffffffffffffffffffffffffffffffff167f8be0079c531659141344cd1fd0a4f28419497f9722a3daafe3b4186f6b6457e060405160405180910390a360008060006101000a81548173ffffffffffffffffffffffffffffffffffffffff021916908373ffffffffffffffffffffffffffffffffffffffff160217905550565b6113c784848461105c565b81600784815481106113dc576113db6146b1565b5b906000526020600020906007020160050160008282546113fc9190614386565b925050819055508373ffffffffffffffffffffffffffffffffffffffff16600073ffffffffffffffffffffffffffffffffffffffff163373ffffffffffffffffffffffffffffffffffffffff167fc3d58168c5ae7397731d063d5bbf3d657854427343f4c083240f7aacaa2d0f62868660405161147a92919061424a565b60405180910390a450505050565b6114b97f65d7a28e3265b37a6474929f336521b332c1681b933f6cb9f3376673440d862a6114b461263f565b61155a565b6114f8576040517f08c379a00000000000000000000000000000000000000000000000000000000081526004016114ef9061415c565b60405180910390fd5b6115006126e9565b565b60008060009054906101000a900473ffffffffffffffffffffffffffffffffffffffff16905090565b600061155282600e600086815260200190815260200160002061278c90919063ffffffff16565b905092915050565b6000600d600084815260200190815260200160002060000160008373ffffffffffffffffffffffffffffffffffffffff1673ffffffffffffffffffffffffffffffffffffffff16815260200190815260200160002060009054906101000a900460ff16905092915050565b600b602052816000526040600020602052806000526040600020600091509150505481565b6000801b81565b80600c60003373ffffffffffffffffffffffffffffffffffffffff1673ffffffffffffffffffffffffffffffffffffffff16815260200190815260200160002060008473ffffffffffffffffffffffffffffffffffffffff1673ffffffffffffffffffffffffffffffffffffffff16815260200190815260200160002060006101000a81548160ff0219169083151502179055508173ffffffffffffffffffffffffffffffffffffffff163373ffffffffffffffffffffffffffffffffffffffff167f17307eab39ab6107e8899845ad3d59bd9653f200f220920489ca2b5937696c31836040516116e29190614024565b60405180910390a35050565b600a602052816000526040600020602052806000526040600020600091509150505481565b826008600082815260200190815260200160002060009054906101000a900473ffffffffffffffffffffffffffffffffffffffff1673ffffffffffffffffffffffffffffffffffffffff163373ffffffffffffffffffffffffffffffffffffffff161461177f57600080fd5b828260078681548110611795576117946146b1565b5b906000526020600020906007020160010191906117b3929190613002565b5050505050565b6117c261263f565b73ffffffffffffffffffffffffffffffffffffffff166117e0611502565b73ffffffffffffffffffffffffffffffffffffffff1614611836576040517f08c379a000000000000000000000000000000000000000000000000000000000815260040161182d9061411c565b60405180910390fd5b8060048190555050565b600061185d600e60008481526020019081526020016000206127a6565b9050919050565b6007818154811061187457600080fd5b90600052602060002090600702016000915090508060000160009054906101000a900473ffffffffffffffffffffffffffffffffffffffff16908060010180546118bd90614578565b80601f01602080910402602001604051908101604052809291908181526020018280546118e990614578565b80156119365780601f1061190b57610100808354040283529160200191611936565b820191906000526020600020905b81548152906001019060200180831161191957829003601f168201915b50505050509080600201805461194b90614578565b80601f016020809104026020016040519081016040528092919081815260200182805461197790614578565b80156119c45780601f10611999576101008083540402835291602001916119c4565b820191906000526020600020905b8154815290600101906020018083116119a757829003601f168201915b5050505050908060030180546119d990614578565b80601f0160208091040260200160405190810160405280929190818152602001828054611a0590614578565b8015611a525780601f10611a2757610100808354040283529160200191611a52565b820191906000526020600020905b815481529060010190602001808311611a3557829003601f168201915b5050505050908060040160009054906101000a900460ff16908060050154908060060154905087565b7f9f2df0fed2c77648de5860a4cc508cd0818c85b8b8a1ab4ceeef8d981c8956a681565b611aa982826127bb565b611ace81600e600085815260200190815260200160002061260f90919063ffffffff16565b505050565b60076040518060e001604052808673ffffffffffffffffffffffffffffffffffffffff168152602001858152602001848152602001838152602001600015158152602001600081526020016000815250908060018154018082558091505060019003906000526020600020906007020160009091909190915060008201518160000160006101000a81548173ffffffffffffffffffffffffffffffffffffffff021916908373ffffffffffffffffffffffffffffffffffffffff1602179055506020820151816001019080519060200190611baf929190613088565b506040820151816002019080519060200190611bcc929190613088565b506060820151816003019080519060200190611be9929190613088565b5060808201518160040160006101000a81548160ff02191690831515021790555060a0820151816005015560c08201518160060155505060006001600780549050611c349190614436565b9050846008600083815260200190815260200160002060006101000a81548173ffffffffffffffffffffffffffffffffffffffff021916908373ffffffffffffffffffffffffffffffffffffffff160217905550600060096000838152602001908152602001600020819055507f3ef624c0f3fb7ad40b94c02078ea3e3a797dbfc21e921ee4bd2b8ad0ca6aa11381868686866000806000604051611ce09897969594939291906141b7565b60405180910390a15050505050565b611cf761263f565b73ffffffffffffffffffffffffffffffffffffffff16611d15611502565b73ffffffffffffffffffffffffffffffffffffffff1614611d6b576040517f08c379a0000000000000000000000000000000000000000000000000000000008152600401611d629061411c565b60405180910390fd5b8060018190555050565b826008600082815260200190815260200160002060009054906101000a900473ffffffffffffffffffffffffffffffffffffffff1673ffffffffffffffffffffffffffffffffffffffff163373ffffffffffffffffffffffffffffffffffffffff1614611de157600080fd5b828260078681548110611df757611df66146b1565b5b90600052602060002090600702016003019190611e15929190613002565b5050505050565b7f65d7a28e3265b37a6474929f336521b332c1681b933f6cb9f3376673440d862a81565b6000600c60008473ffffffffffffffffffffffffffffffffffffffff1673ffffffffffffffffffffffffffffffffffffffff16815260200190815260200160002060008373ffffffffffffffffffffffffffffffffffffffff1673ffffffffffffffffffffffffffffffffffffffff16815260200190815260200160002060009054906101000a900460ff16905092915050565b611edc61263f565b73ffffffffffffffffffffffffffffffffffffffff16611efa611502565b73ffffffffffffffffffffffffffffffffffffffff1614611f50576040517f08c379a0000000000000000000000000000000000000000000000000000000008152600401611f479061411c565b60405180910390fd5b8073ffffffffffffffffffffffffffffffffffffffff166108fc6003549081150290604051600060405180830381858888f19350505050158015611f98573d6000803e3d6000fd5b50600060038190555050565b611faf8584846122b3565b611fba84848461105c565b8373ffffffffffffffffffffffffffffffffffffffff168573ffffffffffffffffffffffffffffffffffffffff163373ffffffffffffffffffffffffffffffffffffffff167fc3d58168c5ae7397731d063d5bbf3d657854427343f4c083240f7aacaa2d0f62868660405161203092919061424a565b60405180910390a45050505050565b61204761263f565b73ffffffffffffffffffffffffffffffffffffffff16612065611502565b73ffffffffffffffffffffffffffffffffffffffff16146120bb576040517f08c379a00000000000000000000000000000000000000000000000000000000081526004016120b29061411c565b60405180910390fd5b600073ffffffffffffffffffffffffffffffffffffffff168173ffffffffffffffffffffffffffffffffffffffff16141561212b576040517f08c379a0000000000000000000000000000000000000000000000000000000008152600401612122906140dc565b60405180910390fd5b8073ffffffffffffffffffffffffffffffffffffffff1660008054906101000a900473ffffffffffffffffffffffffffffffffffffffff1673ffffffffffffffffffffffffffffffffffffffff167f8be0079c531659141344cd1fd0a4f28419497f9722a3daafe3b4186f6b6457e060405160405180910390a3806000806101000a81548173ffffffffffffffffffffffffffffffffffffffff021916908373ffffffffffffffffffffffffffffffffffffffff16021790555050565b6121f38383836122b3565b8060078381548110612208576122076146b1565b5b906000526020600020906007020160050160008282546122289190614436565b92505081905550600073ffffffffffffffffffffffffffffffffffffffff168373ffffffffffffffffffffffffffffffffffffffff163373ffffffffffffffffffffffffffffffffffffffff167fc3d58168c5ae7397731d063d5bbf3d657854427343f4c083240f7aacaa2d0f6285856040516122a692919061424a565b60405180910390a4505050565b80600a600084815260200190815260200160002060008573ffffffffffffffffffffffffffffffffffffffff1673ffffffffffffffffffffffffffffffffffffffff16815260200190815260200160002060008282546123139190614436565b9250508190555080600b60008573ffffffffffffffffffffffffffffffffffffffff1673ffffffffffffffffffffffffffffffffffffffff1681526020019081526020016000206000848152602001908152602001600020600082825461237a9190614436565b92505081905550505050565b61238e61263f565b73ffffffffffffffffffffffffffffffffffffffff166123ac611502565b73ffffffffffffffffffffffffffffffffffffffff1614612402576040517f08c379a00000000000000000000000000000000000000000000000000000000081526004016123f99061411c565b60405180910390fd5b8060078381548110612417576124166146b1565b5b906000526020600020906007020160040160006101000a81548160ff0219169083151502179055505050565b61244d82826127e4565b5050565b6000612479836000018373ffffffffffffffffffffffffffffffffffffffff1660001b6128c5565b905092915050565b60007fd9b67a26000000000000000000000000000000000000000000000000000000007bffffffffffffffffffffffffffffffffffffffffffffffffffffffff1916827bffffffffffffffffffffffffffffffffffffffffffffffffffffffff1916148061254c57507f0e89341c000000000000000000000000000000000000000000000000000000007bffffffffffffffffffffffffffffffffffffffffffffffffffffffff1916827bffffffffffffffffffffffffffffffffffffffffffffffffffffffff1916145b8061255c575061255b82612935565b5b9050919050565b61256c82610c2a565b61257d8161257861263f565b6129af565b61258783836127e4565b505050565b61259461263f565b73ffffffffffffffffffffffffffffffffffffffff168173ffffffffffffffffffffffffffffffffffffffff1614612601576040517f08c379a00000000000000000000000000000000000000000000000000000000081526004016125f89061417c565b60405180910390fd5b61260b8282612a4c565b5050565b6000612637836000018373ffffffffffffffffffffffffffffffffffffffff1660001b612b2e565b905092915050565b600033905090565b61264f611045565b61268e576040517f08c379a0000000000000000000000000000000000000000000000000000000008152600401612685906140bc565b60405180910390fd5b6000601260006101000a81548160ff0219169083151502179055507f5db9ee0a495bf2e6ff9c91a7834c1ba4fdd244a5e8aa4e537bd38aeae4b073aa6126d261263f565b6040516126df9190613f2c565b60405180910390a1565b6126f1611045565b15612731576040517f08c379a0000000000000000000000000000000000000000000000000000000008152600401612728906140fc565b60405180910390fd5b6001601260006101000a81548160ff0219169083151502179055507f62e78cea01bee320cd4e420270b5ea74000d11b0c9f74754ebdbfc544b05a25861277561263f565b6040516127829190613f2c565b60405180910390a1565b600061279b8360000183612c3a565b60001c905092915050565b60006127b482600001612cae565b9050919050565b6127c482610c2a565b6127d5816127d061263f565b6129af565b6127df8383612a4c565b505050565b6127ee828261155a565b6128c1576001600d600084815260200190815260200160002060000160008373ffffffffffffffffffffffffffffffffffffffff1673ffffffffffffffffffffffffffffffffffffffff16815260200190815260200160002060006101000a81548160ff02191690831515021790555061286661263f565b73ffffffffffffffffffffffffffffffffffffffff168173ffffffffffffffffffffffffffffffffffffffff16837f2f8788117e7eff1d82e926ec794901d17c78024a50270940304540a733656f0d60405160405180910390a45b5050565b60006128d18383612cbf565b61292a57826000018290806001815401808255809150506001900390600052602060002001600090919091909150558260000180549050836001016000848152602001908152602001600020819055506001905061292f565b600090505b92915050565b60007f5a05180f000000000000000000000000000000000000000000000000000000007bffffffffffffffffffffffffffffffffffffffffffffffffffffffff1916827bffffffffffffffffffffffffffffffffffffffffffffffffffffffff191614806129a857506129a782612ce2565b5b9050919050565b6129b9828261155a565b612a48576129de8173ffffffffffffffffffffffffffffffffffffffff166014612d5c565b6129ec8360001c6020612d5c565b6040516020016129fd929190613ef2565b6040516020818303038152906040526040517f08c379a0000000000000000000000000000000000000000000000000000000008152600401612a3f919061405a565b60405180910390fd5b5050565b612a56828261155a565b15612b2a576000600d600084815260200190815260200160002060000160008373ffffffffffffffffffffffffffffffffffffffff1673ffffffffffffffffffffffffffffffffffffffff16815260200190815260200160002060006101000a81548160ff021916908315150217905550612acf61263f565b73ffffffffffffffffffffffffffffffffffffffff168173ffffffffffffffffffffffffffffffffffffffff16837ff6391f5c32d9c69d2a47ea670b442974b53935d1edc7fd64eb21e047a839171b60405160405180910390a45b5050565b60008083600101600084815260200190815260200160002054905060008114612c2e576000600182612b609190614436565b9050600060018660000180549050612b789190614436565b90506000866000018281548110612b9257612b916146b1565b5b9060005260206000200154905080876000018481548110612bb657612bb56146b1565b5b9060005260206000200181905550838760010160008381526020019081526020016000208190555086600001805480612bf257612bf1614682565b5b60019003818190600052602060002001600090559055866001016000878152602001908152602001600020600090556001945050505050612c34565b60009150505b92915050565b600081836000018054905011612c85576040517f08c379a0000000000000000000000000000000000000000000000000000000008152600401612c7c9061407c565b60405180910390fd5b826000018281548110612c9b57612c9a6146b1565b5b9060005260206000200154905092915050565b600081600001805490509050919050565b600080836001016000848152602001908152602001600020541415905092915050565b60007f7965db0b000000000000000000000000000000000000000000000000000000007bffffffffffffffffffffffffffffffffffffffffffffffffffffffff1916827bffffffffffffffffffffffffffffffffffffffffffffffffffffffff19161480612d555750612d5482612f98565b5b9050919050565b606060006002836002612d6f91906143dc565b612d799190614386565b67ffffffffffffffff811115612d9257612d916146e0565b5b6040519080825280601f01601f191660200182016040528015612dc45781602001600182028036833780820191505090505b5090507f300000000000000000000000000000000000000000000000000000000000000081600081518110612dfc57612dfb6146b1565b5b60200101907effffffffffffffffffffffffffffffffffffffffffffffffffffffffffffff1916908160001a9053507f780000000000000000000000000000000000000000000000000000000000000081600181518110612e6057612e5f6146b1565b5b60200101907effffffffffffffffffffffffffffffffffffffffffffffffffffffffffffff1916908160001a90535060006001846002612ea091906143dc565b612eaa9190614386565b90505b6001811115612f4a577f3031323334353637383961626364656600000000000000000000000000000000600f861660108110612eec57612eeb6146b1565b5b1a60f81b828281518110612f0357612f026146b1565b5b60200101907effffffffffffffffffffffffffffffffffffffffffffffffffffffffffffff1916908160001a905350600485901c945080612f439061454e565b9050612ead565b5060008414612f8e576040517f08c379a0000000000000000000000000000000000000000000000000000000008152600401612f859061409c565b60405180910390fd5b8091505092915050565b60007f01ffc9a7000000000000000000000000000000000000000000000000000000007bffffffffffffffffffffffffffffffffffffffffffffffffffffffff1916827bffffffffffffffffffffffffffffffffffffffffffffffffffffffff1916149050919050565b82805461300e90614578565b90600052602060002090601f0160209004810192826130305760008555613077565b82601f1061304957803560ff1916838001178555613077565b82800160010185558215613077579182015b8281111561307657823582559160200191906001019061305b565b5b509050613084919061310e565b5090565b82805461309490614578565b90600052602060002090601f0160209004810192826130b657600085556130fd565b82601f106130cf57805160ff19168380011785556130fd565b828001600101855582156130fd579182015b828111156130fc5782518255916020019190600101906130e1565b5b50905061310a919061310e565b5090565b5b8082111561312757600081600090555060010161310f565b5090565b600061313e61313984614298565b614273565b9050808382526020820190508285602086028201111561316157613160614719565b5b60005b8581101561319157816131778882613414565b845260208401935060208301925050600181019050613164565b5050509392505050565b60006131ae6131a9846142c4565b614273565b9050828152602081018484840111156131ca576131c961471e565b5b6131d584828561450c565b509392505050565b60006131f06131eb846142f5565b614273565b90508281526020810184848401111561320c5761320b61471e565b5b61321784828561450c565b509392505050565b60008135905061322e816149bf565b92915050565b600081359050613243816149d6565b92915050565b60008083601f84011261325f5761325e614714565b5b8235905067ffffffffffffffff81111561327c5761327b61470f565b5b60208301915083602082028301111561329857613297614719565b5b9250929050565b60008083601f8401126132b5576132b4614714565b5b8235905067ffffffffffffffff8111156132d2576132d161470f565b5b6020830191508360208202830111156132ee576132ed614719565b5b9250929050565b600082601f83011261330a57613309614714565b5b813561331a84826020860161312b565b91505092915050565b600081359050613332816149ed565b92915050565b60008135905061334781614a04565b92915050565b60008135905061335c81614a1b565b92915050565b600082601f83011261337757613376614714565b5b813561338784826020860161319b565b91505092915050565b60008083601f8401126133a6576133a5614714565b5b8235905067ffffffffffffffff8111156133c3576133c261470f565b5b6020830191508360018202830111156133df576133de614719565b5b9250929050565b600082601f8301126133fb576133fa614714565b5b813561340b8482602086016131dd565b91505092915050565b60008135905061342381614a32565b92915050565b60006020828403121561343f5761343e614728565b5b600061344d8482850161321f565b91505092915050565b60006020828403121561346c5761346b614728565b5b600061347a84828501613234565b91505092915050565b6000806000806080858703121561349d5761349c614728565b5b60006134ab87828801613234565b945050602085013567ffffffffffffffff8111156134cc576134cb614723565b5b6134d8878288016133e6565b935050604085013567ffffffffffffffff8111156134f9576134f8614723565b5b613505878288016133e6565b925050606085013567ffffffffffffffff81111561352657613525614723565b5b613532878288016133e6565b91505092959194509250565b6000806040838503121561355557613554614728565b5b60006135638582860161321f565b92505060206135748582860161321f565b9150509250929050565b600080600080600060a0868803121561359a57613599614728565b5b60006135a88882890161321f565b95505060206135b98882890161321f565b945050604086013567ffffffffffffffff8111156135da576135d9614723565b5b6135e6888289016132f5565b935050606086013567ffffffffffffffff81111561360757613606614723565b5b613613888289016132f5565b925050608086013567ffffffffffffffff81111561363457613633614723565b5b61364088828901613362565b9150509295509295909350565b600080600080600060a0868803121561366957613668614728565b5b60006136778882890161321f565b95505060206136888882890161321f565b945050604061369988828901613414565b93505060606136aa88828901613414565b925050608086013567ffffffffffffffff8111156136cb576136ca614723565b5b6136d788828901613362565b9150509295509295909350565b6000806000606084860312156136fd576136fc614728565b5b600061370b8682870161321f565b935050602084013567ffffffffffffffff81111561372c5761372b614723565b5b613738868287016132f5565b925050604084013567ffffffffffffffff81111561375957613758614723565b5b613765868287016132f5565b9150509250925092565b6000806000806080858703121561378957613788614728565b5b60006137978782880161321f565b945050602085013567ffffffffffffffff8111156137b8576137b7614723565b5b6137c4878288016132f5565b935050604085013567ffffffffffffffff8111156137e5576137e4614723565b5b6137f1878288016132f5565b925050606085013567ffffffffffffffff81111561381257613811614723565b5b61381e87828801613362565b91505092959194509250565b6000806040838503121561384157613840614728565b5b600061384f8582860161321f565b925050602061386085828601613323565b9150509250929050565b6000806040838503121561388157613880614728565b5b600061388f8582860161321f565b92505060206138a085828601613414565b9150509250929050565b6000806000606084860312156138c3576138c2614728565b5b60006138d18682870161321f565b93505060206138e286828701613414565b92505060406138f386828701613414565b9150509250925092565b6000806000806080858703121561391757613916614728565b5b60006139258782880161321f565b945050602061393687828801613414565b935050604061394787828801613414565b925050606085013567ffffffffffffffff81111561396857613967614723565b5b61397487828801613362565b91505092959194509250565b6000806000806040858703121561399a57613999614728565b5b600085013567ffffffffffffffff8111156139b8576139b7614723565b5b6139c487828801613249565b9450945050602085013567ffffffffffffffff8111156139e7576139e6614723565b5b6139f38782880161329f565b925092505092959194509250565b600060208284031215613a1757613a16614728565b5b6000613a2584828501613338565b91505092915050565b60008060408385031215613a4557613a44614728565b5b6000613a5385828601613338565b9250506020613a648582860161321f565b9150509250929050565b60008060408385031215613a8557613a84614728565b5b6000613a9385828601613338565b9250506020613aa485828601613414565b9150509250929050565b600060208284031215613ac457613ac3614728565b5b6000613ad28482850161334d565b91505092915050565b600060208284031215613af157613af0614728565b5b6000613aff84828501613414565b91505092915050565b60008060408385031215613b1f57613b1e614728565b5b6000613b2d85828601613414565b9250506020613b3e8582860161321f565b9150509250929050565b60008060408385031215613b5f57613b5e614728565b5b6000613b6d85828601613414565b9250506020613b7e85828601613234565b9150509250929050565b60008060408385031215613b9f57613b9e614728565b5b6000613bad85828601613414565b9250506020613bbe85828601613323565b9150509250929050565b600080600060408486031215613be157613be0614728565b5b6000613bef86828701613414565b935050602084013567ffffffffffffffff811115613c1057613c0f614723565b5b613c1c86828701613390565b92509250509250925092565b6000613c348383613ed4565b60208301905092915050565b613c498161447c565b82525050565b613c588161446a565b82525050565b6000613c6982614336565b613c738185614359565b9350613c7e83614326565b8060005b83811015613caf578151613c968882613c28565b9750613ca18361434c565b925050600181019050613c82565b5085935050505092915050565b613cc58161448e565b82525050565b613cd48161449a565b82525050565b613ce3816144fa565b82525050565b6000613cf482614341565b613cfe818561436a565b9350613d0e81856020860161451b565b613d178161472d565b840191505092915050565b6000613d2d82614341565b613d37818561437b565b9350613d4781856020860161451b565b80840191505092915050565b6000613d6060228361436a565b9150613d6b8261473e565b604082019050919050565b6000613d8360208361436a565b9150613d8e8261478d565b602082019050919050565b6000613da660148361436a565b9150613db1826147b6565b602082019050919050565b6000613dc960268361436a565b9150613dd4826147df565b604082019050919050565b6000613dec60108361436a565b9150613df78261482e565b602082019050919050565b6000613e0f60208361436a565b9150613e1a82614857565b602082019050919050565b6000613e32603b8361436a565b9150613e3d82614880565b604082019050919050565b6000613e5560398361436a565b9150613e60826148cf565b604082019050919050565b6000613e7860178361437b565b9150613e838261491e565b601782019050919050565b6000613e9b60118361437b565b9150613ea682614947565b601182019050919050565b6000613ebe602f8361436a565b9150613ec982614970565b604082019050919050565b613edd816144f0565b82525050565b613eec816144f0565b82525050565b6000613efd82613e6b565b9150613f098285613d22565b9150613f1482613e8e565b9150613f208284613d22565b91508190509392505050565b6000602082019050613f416000830184613c4f565b92915050565b600060e082019050613f5c600083018a613c40565b8181036020830152613f6e8189613ce9565b90508181036040830152613f828188613ce9565b90508181036060830152613f968187613ce9565b9050613fa56080830186613cbc565b613fb260a0830185613ee3565b613fbf60c0830184613ee3565b98975050505050505050565b60006020820190508181036000830152613fe58184613c5e565b905092915050565b600060408201905081810360008301526140078185613c5e565b9050818103602083015261401b8184613c5e565b90509392505050565b60006020820190506140396000830184613cbc565b92915050565b60006020820190506140546000830184613ccb565b92915050565b600060208201905081810360008301526140748184613ce9565b905092915050565b6000602082019050818103600083015261409581613d53565b9050919050565b600060208201905081810360008301526140b581613d76565b9050919050565b600060208201905081810360008301526140d581613d99565b9050919050565b600060208201905081810360008301526140f581613dbc565b9050919050565b6000602082019050818103600083015261411581613ddf565b9050919050565b6000602082019050818103600083015261413581613e02565b9050919050565b6000602082019050818103600083015261415581613e25565b9050919050565b6000602082019050818103600083015261417581613e48565b9050919050565b6000602082019050818103600083015261419581613eb1565b9050919050565b60006020820190506141b16000830184613ee3565b92915050565b6000610100820190506141cd600083018b613ee3565b6141da602083018a613c40565b81810360408301526141ec8189613ce9565b905081810360608301526142008188613ce9565b905081810360808301526142148187613ce9565b905061422360a0830186613cbc565b61423060c0830185613cda565b61423d60e0830184613cda565b9998505050505050505050565b600060408201905061425f6000830185613ee3565b61426c6020830184613ee3565b9392505050565b600061427d61428e565b905061428982826145aa565b919050565b6000604051905090565b600067ffffffffffffffff8211156142b3576142b26146e0565b5b602082029050602081019050919050565b600067ffffffffffffffff8211156142df576142de6146e0565b5b6142e88261472d565b9050602081019050919050565b600067ffffffffffffffff8211156143105761430f6146e0565b5b6143198261472d565b9050602081019050919050565b6000819050602082019050919050565b600081519050919050565b600081519050919050565b6000602082019050919050565b600082825260208201905092915050565b600082825260208201905092915050565b600081905092915050565b6000614391826144f0565b915061439c836144f0565b9250827fffffffffffffffffffffffffffffffffffffffffffffffffffffffffffffffff038211156143d1576143d0614624565b5b828201905092915050565b60006143e7826144f0565b91506143f2836144f0565b9250817fffffffffffffffffffffffffffffffffffffffffffffffffffffffffffffffff048311821515161561442b5761442a614624565b5b828202905092915050565b6000614441826144f0565b915061444c836144f0565b92508282101561445f5761445e614624565b5b828203905092915050565b6000614475826144d0565b9050919050565b6000614487826144d0565b9050919050565b60008115159050919050565b6000819050919050565b60007fffffffff0000000000000000000000000000000000000000000000000000000082169050919050565b600073ffffffffffffffffffffffffffffffffffffffff82169050919050565b6000819050919050565b6000614505826144f0565b9050919050565b82818337600083830152505050565b60005b8381101561453957808201518184015260208101905061451e565b83811115614548576000848401525b50505050565b6000614559826144f0565b9150600082141561456d5761456c614624565b5b600182039050919050565b6000600282049050600182168061459057607f821691505b602082108114156145a4576145a3614653565b5b50919050565b6145b38261472d565b810181811067ffffffffffffffff821117156145d2576145d16146e0565b5b80604052505050565b60006145e6826144f0565b91507fffffffffffffffffffffffffffffffffffffffffffffffffffffffffffffffff82141561461957614618614624565b5b600182019050919050565b7f4e487b7100000000000000000000000000000000000000000000000000000000600052601160045260246000fd5b7f4e487b7100000000000000000000000000000000000000000000000000000000600052602260045260246000fd5b7f4e487b7100000000000000000000000000000000000000000000000000000000600052603160045260246000fd5b7f4e487b7100000000000000000000000000000000000000000000000000000000600052603260045260246000fd5b7f4e487b7100000000000000000000000000000000000000000000000000000000600052604160045260246000fd5b600080fd5b600080fd5b600080fd5b600080fd5b600080fd5b600080fd5b6000601f19601f8301169050919050565b7f456e756d657261626c655365743a20696e646578206f7574206f6620626f756e60008201527f6473000000000000000000000000000000000000000000000000000000000000602082015250565b7f537472696e67733a20686578206c656e67746820696e73756666696369656e74600082015250565b7f5061757361626c653a206e6f7420706175736564000000000000000000000000600082015250565b7f4f776e61626c653a206e6577206f776e657220697320746865207a65726f206160008201527f6464726573730000000000000000000000000000000000000000000000000000602082015250565b7f5061757361626c653a2070617573656400000000000000000000000000000000600082015250565b7f4f776e61626c653a2063616c6c6572206973206e6f7420746865206f776e6572600082015250565b7f455243313135355072657365744d696e7465725061757365723a206d7573742060008201527f686176652070617573657220726f6c6520746f20756e70617573650000000000602082015250565b7f455243313135355072657365744d696e7465725061757365723a206d7573742060008201527f686176652070617573657220726f6c6520746f20706175736500000000000000602082015250565b7f416363657373436f6e74726f6c3a206163636f756e7420000000000000000000600082015250565b7f206973206d697373696e6720726f6c6520000000000000000000000000000000600082015250565b7f416363657373436f6e74726f6c3a2063616e206f6e6c792072656e6f756e636560008201527f20726f6c657320666f722073656c660000000000000000000000000000000000602082015250565b6149c88161446a565b81146149d357600080fd5b50565b6149df8161447c565b81146149ea57600080fd5b50565b6149f68161448e565b8114614a0157600080fd5b50565b614a0d8161449a565b8114614a1857600080fd5b50565b614a24816144a4565b8114614a2f57600080fd5b50565b614a3b816144f0565b8114614a4657600080fd5b5056fea2646970667358221220abaa0e454acd4174c67e4a861e39b243234b1487397f109c7c60f3fddf723fe364736f6c63430008060033",
  "immutableReferences": {},
  "source": "// SPDX-License-Identifier: MIT\npragma solidity ^0.8.0;\n\nimport \"./creatortokenownership.sol\";\n\ncontract CreatorTokenFormulas is CreatorTokenOwnership {\n\n\tconstructor(string memory uri) CreatorTokenOwnership(uri) { }\n\n\t// Calculate area under buy price function\n\tfunction _buyFunction(uint _startingSupply, uint _amount, uint _mNumerator, uint _mDenominator) internal pure returns (uint256) {\n\t\t// b(x) = m*x\n\t\tuint endSupply = _startingSupply + _amount;\n\t\tuint base1 = _mNumerator*_startingSupply/_mDenominator;\n\t\tuint base2 = _mNumerator*endSupply/_mDenominator;\n\t\tuint height = endSupply-_startingSupply;\n\t\tuint area = (base1 + base2) * height / 2;\n\t\treturn area;\n\t}\n\n\t// Calculate area under sale price function\n\tfunction _saleFunction(uint _startingSupply, uint _amount, uint _mNumerator, uint _mDenominator, uint _maxSupply, uint _profitMargin) internal pure returns (uint256) {\n\t\t// Calculate breakpoint and endSupply\n\t\t(uint a, uint b, uint endSupply) = _breakpoint(_startingSupply, _amount, _mNumerator, _mDenominator, _maxSupply, _profitMargin);\n\t\t// Initialize area under curve\n\t\tuint area = 0;\n\t\t// Check where _startingSupply is relative to the breakpoint\n\t\tif (_startingSupply < a) {\n\t\t\t// Just need trapezoidal area of partial entirely left of the breakpoint\n\t\t\tarea = _leftArea(a, b, _startingSupply, endSupply);\n\t\t} else if (endSupply < a) {\n\t\t\t// Scenario in which _startingSupply >= a, and endSupply < a\n\t\t\t// There, need trapezoidal area of components both to right and left of breakpoint\n\t\t\tarea = _bothArea(a, b, _startingSupply, endSupply, _mNumerator, _mDenominator, _maxSupply);\n\t\t} else {\n\t\t\t// Scenario in which entire sale occurs to right of breakpoint\n\t\t\t// Just need trapezoidal area of partial entirely right of the breakpoint\n\t\t\tarea = _rightArea(a, b, _startingSupply, endSupply, _mNumerator, _mDenominator, _maxSupply);\n\t\t}\n\t\treturn area;\n\t}\n\n\t// Calculate breakpoint and other key inputs into _saleFunction\n\tfunction _breakpoint(uint _startingSupply, uint _amount, uint _mNumerator, uint _mDenominator, uint _maxSupply, uint _profitMargin) internal pure returns (uint, uint, uint) {\n\t\t// Define breakpoint (a,b) chosen s.t. area under sale price function is (1-profitMargin) times area under buy price function\n\t\tuint a = _maxSupply/2;\n\t\tuint b = _maxSupply*(50-_profitMargin)/100*_mNumerator/_mDenominator;\n\t\tuint endSupply = _startingSupply - _amount;\n\t\treturn (a, b, endSupply);\n\t}\n\n\t// _saleFunction scenario in which entire transaction occurs left of breakpoint\n\tfunction _leftArea(uint _a, uint _b, uint _startingSupply, uint _endSupply) internal pure returns (uint256) {\n\t\t\t//uint base1 = ((_b/_a)*(_a-_endSupply)+_b);\n\t\t\t//uint base1 = ((_b/_a)*(_endSupply-_a)+_b);\n\t\t\tuint base1 = (_b-(_b/_a)*(_a-_endSupply));\n\t\t\t//uint base2 = ((_b/_a)*(_a-_startingSupply)+_b);\n\t\t\t//uint base2 = ((_b/_a)*(_startingSupply-_a)+_b);\n\t\t\tuint base2 = (_b-(_b/_a)*(_a-_startingSupply));\n\t\t\tuint height = _startingSupply-_endSupply;\n\t\t\treturn (base1 + base2) * height / 2;\n\t}\n\n\t// _saleFunction scenario in which transaction crosses breakpoint\n\tfunction _bothArea(uint _a, uint _b, uint _startingSupply, uint _endSupply, uint _mNumerator, uint _mDenominator, uint _maxSupply) internal pure returns (uint256) {\n\t\t//uint leftBase1 = ((_b/_a)*(_a-_endSupply)+_b);\n\t\t//uint leftBase1 = ((_b/_a)*(_endSupply-_a)+_b);\n\t\tuint leftBase1 = (_b-(_b/_a)*(_a-_endSupply));\n\t\tuint sharedBase = _b;\n\t\tuint leftHeight = _a-_endSupply;\n\t\tuint leftArea = (leftBase1 + sharedBase) * leftHeight / 2;\n\t\tuint rightBase2 = (_mNumerator*_maxSupply/_mDenominator-_b)/(_maxSupply-_a)*(_startingSupply-_a)+_b;\n\t\tuint rightHeight = _startingSupply-_a;\n\t\tuint rightArea = (sharedBase + rightBase2) * rightHeight / 2;\n\t\treturn leftArea + rightArea;\n\t}\n\n\t// _saleFunction scneario in which entire transaction occurs right of breakpoint\n\tfunction _rightArea(uint _a, uint _b, uint _startingSupply, uint _endSupply, uint _mNumerator, uint _mDenominator, uint _maxSupply) internal pure returns (uint256) {\n\t\tuint base1 = (((_mNumerator*_maxSupply/_mDenominator-_b)/(_maxSupply-_a))*(_endSupply-_a)+_b);\n\t\tuint base2 = (((_mNumerator*_maxSupply/_mDenominator-_b)/(_maxSupply-_a))*(_startingSupply-_a)+_b);\n\t\tuint height = _startingSupply-_endSupply;\n\t\treturn (base1 + base2) * height / 2;\n\t}\n}\n",
  "sourcePath": "/Users/kamilalizaisadik/DeFi/Dynamic Automated Market Maker/damm_solidity/contracts/creatortokenformulas.sol",
  "compiler": {
    "name": "solc",
    "version": "0.8.6+commit.11564f7e.Emscripten.clang"
  },
  "schemaVersion": "3.4.1",
  "updatedAt": "2021-07-08T16:49:54.158Z",
  "devdoc": {
    "kind": "dev",
    "methods": {
      "getRoleAdmin(bytes32)": {
        "details": "Returns the admin role that controls `role`. See {grantRole} and {revokeRole}. To change a role's admin, use {_setRoleAdmin}."
      },
      "getRoleMember(bytes32,uint256)": {
        "details": "Returns one of the accounts that have `role`. `index` must be a value between 0 and {getRoleMemberCount}, non-inclusive. Role bearers are not sorted in any particular way, and their ordering may change at any point. WARNING: When using {getRoleMember} and {getRoleMemberCount}, make sure you perform all queries on the same block. See the following https://forum.openzeppelin.com/t/iterating-over-elements-on-enumerableset-in-openzeppelin-contracts/2296[forum post] for more information."
      },
      "getRoleMemberCount(bytes32)": {
        "details": "Returns the number of accounts that have `role`. Can be used together with {getRoleMember} to enumerate all bearers of a role."
      },
      "grantRole(bytes32,address)": {
        "details": "Overload {grantRole} to track enumerable memberships"
      },
      "hasRole(bytes32,address)": {
        "details": "Returns `true` if `account` has been granted `role`."
      },
      "owner()": {
        "details": "Returns the address of the current owner."
      },
      "pause()": {
        "details": "Pauses all token transfers. See {ERC1155Pausable} and {Pausable-_pause}. Requirements: - the caller must have the `PAUSER_ROLE`."
      },
      "paused()": {
        "details": "Returns true if the contract is paused, and false otherwise."
      },
      "renounceOwnership()": {
        "details": "Leaves the contract without owner. It will not be possible to call `onlyOwner` functions anymore. Can only be called by the current owner. NOTE: Renouncing ownership will leave the contract without an owner, thereby removing any functionality that is only available to the owner."
      },
      "renounceRole(bytes32,address)": {
        "details": "Overload {renounceRole} to track enumerable memberships"
      },
      "revokeRole(bytes32,address)": {
        "details": "Overload {revokeRole} to track enumerable memberships"
      },
      "supportsInterface(bytes4)": {
        "details": "See {IERC165-supportsInterface}."
      },
      "transferOwnership(address)": {
        "details": "Transfers ownership of the contract to a new account (`newOwner`). Can only be called by the current owner."
      },
      "unpause()": {
        "details": "Unpauses all token transfers. See {ERC1155Pausable} and {Pausable-_unpause}. Requirements: - the caller must have the `PAUSER_ROLE`."
      },
      "uri(uint256)": {
        "details": "See {IERC1155MetadataURI-uri}. This implementation returns the same URI for *all* token types. It relies on the token type ID substitution mechanism https://eips.ethereum.org/EIPS/eip-1155#metadata[defined in the EIP]. Clients calling this function must replace the `\\{id\\}` substring with the actual token type ID."
      }
    },
    "version": 1
  },
  "userdoc": {
    "kind": "user",
    "methods": {},
    "version": 1
  }
}