{
  "contractName": "CreatorTokenComputation",
  "abi": [
    {
      "inputs": [
        {
          "internalType": "string",
          "name": "uri",
          "type": "string"
        }
      ],
      "stateMutability": "nonpayable",
      "type": "constructor"
    },
    {
      "anonymous": false,
      "inputs": [
        {
          "indexed": true,
          "internalType": "address",
          "name": "account",
          "type": "address"
        },
        {
          "indexed": true,
          "internalType": "address",
          "name": "operator",
          "type": "address"
        },
        {
          "indexed": false,
          "internalType": "bool",
          "name": "approved",
          "type": "bool"
        }
      ],
      "name": "ApprovalForAll",
      "type": "event"
    },
    {
      "anonymous": false,
      "inputs": [
        {
          "indexed": false,
          "internalType": "uint256",
          "name": "tokenId",
          "type": "uint256"
        },
        {
          "indexed": false,
          "internalType": "address payable",
          "name": "creatorAddress",
          "type": "address"
        },
        {
          "indexed": false,
          "internalType": "string",
          "name": "name",
          "type": "string"
        },
        {
          "indexed": false,
          "internalType": "string",
          "name": "symbol",
          "type": "string"
        },
        {
          "indexed": false,
          "internalType": "string",
          "name": "description",
          "type": "string"
        },
        {
          "indexed": false,
          "internalType": "bool",
          "name": "verified",
          "type": "bool"
        },
        {
          "indexed": false,
          "internalType": "uint256",
          "name": "outstanding",
          "type": "uint256"
        },
        {
          "indexed": false,
          "internalType": "uint256",
          "name": "maxSupply",
          "type": "uint256"
        }
      ],
      "name": "NewCreatorToken",
      "type": "event"
    },
    {
      "anonymous": false,
      "inputs": [
        {
          "indexed": true,
          "internalType": "address",
          "name": "previousOwner",
          "type": "address"
        },
        {
          "indexed": true,
          "internalType": "address",
          "name": "newOwner",
          "type": "address"
        }
      ],
      "name": "OwnershipTransferred",
      "type": "event"
    },
    {
      "anonymous": false,
      "inputs": [
        {
          "indexed": false,
          "internalType": "address",
          "name": "account",
          "type": "address"
        }
      ],
      "name": "Paused",
      "type": "event"
    },
    {
      "anonymous": false,
      "inputs": [
        {
          "indexed": true,
          "internalType": "bytes32",
          "name": "role",
          "type": "bytes32"
        },
        {
          "indexed": true,
          "internalType": "bytes32",
          "name": "previousAdminRole",
          "type": "bytes32"
        },
        {
          "indexed": true,
          "internalType": "bytes32",
          "name": "newAdminRole",
          "type": "bytes32"
        }
      ],
      "name": "RoleAdminChanged",
      "type": "event"
    },
    {
      "anonymous": false,
      "inputs": [
        {
          "indexed": true,
          "internalType": "bytes32",
          "name": "role",
          "type": "bytes32"
        },
        {
          "indexed": true,
          "internalType": "address",
          "name": "account",
          "type": "address"
        },
        {
          "indexed": true,
          "internalType": "address",
          "name": "sender",
          "type": "address"
        }
      ],
      "name": "RoleGranted",
      "type": "event"
    },
    {
      "anonymous": false,
      "inputs": [
        {
          "indexed": true,
          "internalType": "bytes32",
          "name": "role",
          "type": "bytes32"
        },
        {
          "indexed": true,
          "internalType": "address",
          "name": "account",
          "type": "address"
        },
        {
          "indexed": true,
          "internalType": "address",
          "name": "sender",
          "type": "address"
        }
      ],
      "name": "RoleRevoked",
      "type": "event"
    },
    {
      "anonymous": false,
      "inputs": [
        {
          "indexed": true,
          "internalType": "address",
          "name": "operator",
          "type": "address"
        },
        {
          "indexed": true,
          "internalType": "address",
          "name": "from",
          "type": "address"
        },
        {
          "indexed": true,
          "internalType": "address",
          "name": "to",
          "type": "address"
        },
        {
          "indexed": false,
          "internalType": "uint256[]",
          "name": "ids",
          "type": "uint256[]"
        },
        {
          "indexed": false,
          "internalType": "uint256[]",
          "name": "values",
          "type": "uint256[]"
        }
      ],
      "name": "TransferBatch",
      "type": "event"
    },
    {
      "anonymous": false,
      "inputs": [
        {
          "indexed": true,
          "internalType": "address",
          "name": "operator",
          "type": "address"
        },
        {
          "indexed": true,
          "internalType": "address",
          "name": "from",
          "type": "address"
        },
        {
          "indexed": true,
          "internalType": "address",
          "name": "to",
          "type": "address"
        },
        {
          "indexed": false,
          "internalType": "uint256",
          "name": "id",
          "type": "uint256"
        },
        {
          "indexed": false,
          "internalType": "uint256",
          "name": "value",
          "type": "uint256"
        }
      ],
      "name": "TransferSingle",
      "type": "event"
    },
    {
      "anonymous": false,
      "inputs": [
        {
          "indexed": false,
          "internalType": "string",
          "name": "value",
          "type": "string"
        },
        {
          "indexed": true,
          "internalType": "uint256",
          "name": "id",
          "type": "uint256"
        }
      ],
      "name": "URI",
      "type": "event"
    },
    {
      "anonymous": false,
      "inputs": [
        {
          "indexed": false,
          "internalType": "address",
          "name": "account",
          "type": "address"
        }
      ],
      "name": "Unpaused",
      "type": "event"
    },
    {
      "inputs": [],
      "name": "DEFAULT_ADMIN_ROLE",
      "outputs": [
        {
          "internalType": "bytes32",
          "name": "",
          "type": "bytes32"
        }
      ],
      "stateMutability": "view",
      "type": "function"
    },
    {
      "inputs": [],
      "name": "MINTER_ROLE",
      "outputs": [
        {
          "internalType": "bytes32",
          "name": "",
          "type": "bytes32"
        }
      ],
      "stateMutability": "view",
      "type": "function"
    },
    {
      "inputs": [],
      "name": "PAUSER_ROLE",
      "outputs": [
        {
          "internalType": "bytes32",
          "name": "",
          "type": "bytes32"
        }
      ],
      "stateMutability": "view",
      "type": "function"
    },
    {
      "inputs": [
        {
          "internalType": "uint256",
          "name": "_proceedsRequired",
          "type": "uint256"
        }
      ],
      "name": "_feeProceeds",
      "outputs": [
        {
          "internalType": "uint256",
          "name": "",
          "type": "uint256"
        }
      ],
      "stateMutability": "view",
      "type": "function"
    },
    {
      "inputs": [
        {
          "internalType": "address",
          "name": "account",
          "type": "address"
        },
        {
          "internalType": "uint256",
          "name": "id",
          "type": "uint256"
        }
      ],
      "name": "balanceOf",
      "outputs": [
        {
          "internalType": "uint256",
          "name": "",
          "type": "uint256"
        }
      ],
      "stateMutability": "view",
      "type": "function"
    },
    {
      "inputs": [
        {
          "internalType": "address[]",
          "name": "accounts",
          "type": "address[]"
        },
        {
          "internalType": "uint256[]",
          "name": "ids",
          "type": "uint256[]"
        }
      ],
      "name": "balanceOfBatch",
      "outputs": [
        {
          "internalType": "uint256[]",
          "name": "",
          "type": "uint256[]"
        }
      ],
      "stateMutability": "view",
      "type": "function"
    },
    {
      "inputs": [
        {
          "internalType": "address",
          "name": "_account",
          "type": "address"
        },
        {
          "internalType": "uint256",
          "name": "_id",
          "type": "uint256"
        },
        {
          "internalType": "uint256",
          "name": "_amount",
          "type": "uint256"
        }
      ],
      "name": "burn",
      "outputs": [],
      "stateMutability": "nonpayable",
      "type": "function"
    },
    {
      "inputs": [
        {
          "internalType": "address",
          "name": "_account",
          "type": "address"
        },
        {
          "internalType": "uint256[]",
          "name": "_ids",
          "type": "uint256[]"
        },
        {
          "internalType": "uint256[]",
          "name": "_amounts",
          "type": "uint256[]"
        }
      ],
      "name": "burnBatch",
      "outputs": [],
      "stateMutability": "nonpayable",
      "type": "function"
    },
    {
      "inputs": [
        {
          "internalType": "uint256",
          "name": "_tokenId",
          "type": "uint256"
        },
        {
          "internalType": "address payable",
          "name": "_newCreatorAddress",
          "type": "address"
        }
      ],
      "name": "changeAddress",
      "outputs": [],
      "stateMutability": "nonpayable",
      "type": "function"
    },
    {
      "inputs": [
        {
          "internalType": "uint256",
          "name": "_tokenId",
          "type": "uint256"
        },
        {
          "internalType": "string",
          "name": "_newDescription",
          "type": "string"
        }
      ],
      "name": "changeDescription",
      "outputs": [],
      "stateMutability": "nonpayable",
      "type": "function"
    },
    {
      "inputs": [
        {
          "internalType": "uint256",
          "name": "_tokenId",
          "type": "uint256"
        },
        {
          "internalType": "string",
          "name": "_newName",
          "type": "string"
        }
      ],
      "name": "changeName",
      "outputs": [],
      "stateMutability": "nonpayable",
      "type": "function"
    },
    {
      "inputs": [
        {
          "internalType": "uint256",
          "name": "_newPlatformFee",
          "type": "uint256"
        }
      ],
      "name": "changePlatformFee",
      "outputs": [],
      "stateMutability": "nonpayable",
      "type": "function"
    },
    {
      "inputs": [
        {
          "internalType": "uint256",
          "name": "_newProfitMargin",
          "type": "uint256"
        }
      ],
      "name": "changeProfitMargin",
      "outputs": [],
      "stateMutability": "nonpayable",
      "type": "function"
    },
    {
      "inputs": [
        {
          "internalType": "uint256",
          "name": "_tokenId",
          "type": "uint256"
        },
        {
          "internalType": "string",
          "name": "_newSymbol",
          "type": "string"
        }
      ],
      "name": "changeSymbol",
      "outputs": [],
      "stateMutability": "nonpayable",
      "type": "function"
    },
    {
      "inputs": [
        {
          "internalType": "uint256",
          "name": "_tokenId",
          "type": "uint256"
        },
        {
          "internalType": "bool",
          "name": "_verified",
          "type": "bool"
        }
      ],
      "name": "changeVerification",
      "outputs": [],
      "stateMutability": "nonpayable",
      "type": "function"
    },
    {
      "inputs": [
        {
          "internalType": "address payable",
          "name": "_creatorAddress",
          "type": "address"
        },
        {
          "internalType": "string",
          "name": "_name",
          "type": "string"
        },
        {
          "internalType": "string",
          "name": "_symbol",
          "type": "string"
        },
        {
          "internalType": "string",
          "name": "_description",
          "type": "string"
        }
      ],
      "name": "createCreatorToken",
      "outputs": [],
      "stateMutability": "nonpayable",
      "type": "function"
    },
    {
      "inputs": [
        {
          "internalType": "uint256",
          "name": "",
          "type": "uint256"
        }
      ],
      "name": "creatorTokens",
      "outputs": [
        {
          "internalType": "address payable",
          "name": "creatorAddress",
          "type": "address"
        },
        {
          "internalType": "string",
          "name": "name",
          "type": "string"
        },
        {
          "internalType": "string",
          "name": "symbol",
          "type": "string"
        },
        {
          "internalType": "string",
          "name": "description",
          "type": "string"
        },
        {
          "internalType": "bool",
          "name": "verified",
          "type": "bool"
        },
        {
          "internalType": "uint256",
          "name": "outstanding",
          "type": "uint256"
        },
        {
          "internalType": "uint256",
          "name": "maxSupply",
          "type": "uint256"
        }
      ],
      "stateMutability": "view",
      "type": "function"
    },
    {
      "inputs": [
        {
          "internalType": "bytes32",
          "name": "role",
          "type": "bytes32"
        }
      ],
      "name": "getRoleAdmin",
      "outputs": [
        {
          "internalType": "bytes32",
          "name": "",
          "type": "bytes32"
        }
      ],
      "stateMutability": "view",
      "type": "function"
    },
    {
      "inputs": [
        {
          "internalType": "bytes32",
          "name": "role",
          "type": "bytes32"
        },
        {
          "internalType": "uint256",
          "name": "index",
          "type": "uint256"
        }
      ],
      "name": "getRoleMember",
      "outputs": [
        {
          "internalType": "address",
          "name": "",
          "type": "address"
        }
      ],
      "stateMutability": "view",
      "type": "function"
    },
    {
      "inputs": [
        {
          "internalType": "bytes32",
          "name": "role",
          "type": "bytes32"
        }
      ],
      "name": "getRoleMemberCount",
      "outputs": [
        {
          "internalType": "uint256",
          "name": "",
          "type": "uint256"
        }
      ],
      "stateMutability": "view",
      "type": "function"
    },
    {
      "inputs": [
        {
          "internalType": "bytes32",
          "name": "role",
          "type": "bytes32"
        },
        {
          "internalType": "address",
          "name": "account",
          "type": "address"
        }
      ],
      "name": "grantRole",
      "outputs": [],
      "stateMutability": "nonpayable",
      "type": "function"
    },
    {
      "inputs": [
        {
          "internalType": "bytes32",
          "name": "role",
          "type": "bytes32"
        },
        {
          "internalType": "address",
          "name": "account",
          "type": "address"
        }
      ],
      "name": "hasRole",
      "outputs": [
        {
          "internalType": "bool",
          "name": "",
          "type": "bool"
        }
      ],
      "stateMutability": "view",
      "type": "function"
    },
    {
      "inputs": [
        {
          "internalType": "address",
          "name": "_account",
          "type": "address"
        },
        {
          "internalType": "address",
          "name": "_operator",
          "type": "address"
        }
      ],
      "name": "isApprovedForAll",
      "outputs": [
        {
          "internalType": "bool",
          "name": "",
          "type": "bool"
        }
      ],
      "stateMutability": "view",
      "type": "function"
    },
    {
      "inputs": [
        {
          "internalType": "address",
          "name": "_account",
          "type": "address"
        },
        {
          "internalType": "uint256",
          "name": "_id",
          "type": "uint256"
        },
        {
          "internalType": "uint256",
          "name": "_amount",
          "type": "uint256"
        }
      ],
      "name": "mappingDecrease",
      "outputs": [],
      "stateMutability": "nonpayable",
      "type": "function"
    },
    {
      "inputs": [
        {
          "internalType": "address",
          "name": "_account",
          "type": "address"
        },
        {
          "internalType": "uint256",
          "name": "_id",
          "type": "uint256"
        },
        {
          "internalType": "uint256",
          "name": "_amount",
          "type": "uint256"
        }
      ],
      "name": "mappingIncrease",
      "outputs": [],
      "stateMutability": "nonpayable",
      "type": "function"
    },
    {
      "inputs": [
        {
          "internalType": "address",
          "name": "_to",
          "type": "address"
        },
        {
          "internalType": "uint256",
          "name": "_id",
          "type": "uint256"
        },
        {
          "internalType": "uint256",
          "name": "_amount",
          "type": "uint256"
        },
        {
          "internalType": "bytes",
          "name": "_data",
          "type": "bytes"
        }
      ],
      "name": "mint",
      "outputs": [],
      "stateMutability": "nonpayable",
      "type": "function"
    },
    {
      "inputs": [
        {
          "internalType": "address",
          "name": "_to",
          "type": "address"
        },
        {
          "internalType": "uint256[]",
          "name": "_ids",
          "type": "uint256[]"
        },
        {
          "internalType": "uint256[]",
          "name": "_amounts",
          "type": "uint256[]"
        },
        {
          "internalType": "bytes",
          "name": "data",
          "type": "bytes"
        }
      ],
      "name": "mintBatch",
      "outputs": [],
      "stateMutability": "nonpayable",
      "type": "function"
    },
    {
      "inputs": [],
      "name": "owner",
      "outputs": [
        {
          "internalType": "address",
          "name": "",
          "type": "address"
        }
      ],
      "stateMutability": "view",
      "type": "function"
    },
    {
      "inputs": [],
      "name": "pause",
      "outputs": [],
      "stateMutability": "nonpayable",
      "type": "function"
    },
    {
      "inputs": [],
      "name": "paused",
      "outputs": [
        {
          "internalType": "bool",
          "name": "",
          "type": "bool"
        }
      ],
      "stateMutability": "view",
      "type": "function"
    },
    {
      "inputs": [
        {
          "internalType": "address payable",
          "name": "_owner",
          "type": "address"
        }
      ],
      "name": "payoutPlatformFees",
      "outputs": [],
      "stateMutability": "nonpayable",
      "type": "function"
    },
    {
      "inputs": [],
      "name": "renounceOwnership",
      "outputs": [],
      "stateMutability": "nonpayable",
      "type": "function"
    },
    {
      "inputs": [
        {
          "internalType": "bytes32",
          "name": "role",
          "type": "bytes32"
        },
        {
          "internalType": "address",
          "name": "account",
          "type": "address"
        }
      ],
      "name": "renounceRole",
      "outputs": [],
      "stateMutability": "nonpayable",
      "type": "function"
    },
    {
      "inputs": [
        {
          "internalType": "bytes32",
          "name": "role",
          "type": "bytes32"
        },
        {
          "internalType": "address",
          "name": "account",
          "type": "address"
        }
      ],
      "name": "revokeRole",
      "outputs": [],
      "stateMutability": "nonpayable",
      "type": "function"
    },
    {
      "inputs": [
        {
          "internalType": "address",
          "name": "_from",
          "type": "address"
        },
        {
          "internalType": "address",
          "name": "_to",
          "type": "address"
        },
        {
          "internalType": "uint256[]",
          "name": "_ids",
          "type": "uint256[]"
        },
        {
          "internalType": "uint256[]",
          "name": "_amounts",
          "type": "uint256[]"
        },
        {
          "internalType": "bytes",
          "name": "data",
          "type": "bytes"
        }
      ],
      "name": "safeBatchTransferFrom",
      "outputs": [],
      "stateMutability": "nonpayable",
      "type": "function"
    },
    {
      "inputs": [
        {
          "internalType": "address",
          "name": "_from",
          "type": "address"
        },
        {
          "internalType": "address",
          "name": "_to",
          "type": "address"
        },
        {
          "internalType": "uint256",
          "name": "_id",
          "type": "uint256"
        },
        {
          "internalType": "uint256",
          "name": "_amount",
          "type": "uint256"
        },
        {
          "internalType": "bytes",
          "name": "_data",
          "type": "bytes"
        }
      ],
      "name": "safeTransferFrom",
      "outputs": [],
      "stateMutability": "nonpayable",
      "type": "function"
    },
    {
      "inputs": [
        {
          "internalType": "address",
          "name": "_operator",
          "type": "address"
        },
        {
          "internalType": "bool",
          "name": "_approved",
          "type": "bool"
        }
      ],
      "name": "setApprovalForAll",
      "outputs": [],
      "stateMutability": "nonpayable",
      "type": "function"
    },
    {
      "inputs": [
        {
          "internalType": "bytes4",
          "name": "interfaceId",
          "type": "bytes4"
        }
      ],
      "name": "supportsInterface",
      "outputs": [
        {
          "internalType": "bool",
          "name": "",
          "type": "bool"
        }
      ],
      "stateMutability": "view",
      "type": "function"
    },
    {
      "inputs": [
        {
          "internalType": "uint256",
          "name": "",
          "type": "uint256"
        },
        {
          "internalType": "address",
          "name": "",
          "type": "address"
        }
      ],
      "name": "tokenHoldership",
      "outputs": [
        {
          "internalType": "uint256",
          "name": "",
          "type": "uint256"
        }
      ],
      "stateMutability": "view",
      "type": "function"
    },
    {
      "inputs": [
        {
          "internalType": "uint256",
          "name": "",
          "type": "uint256"
        }
      ],
      "name": "tokenToCreator",
      "outputs": [
        {
          "internalType": "address",
          "name": "",
          "type": "address"
        }
      ],
      "stateMutability": "view",
      "type": "function"
    },
    {
      "inputs": [
        {
          "internalType": "address",
          "name": "newOwner",
          "type": "address"
        }
      ],
      "name": "transferOwnership",
      "outputs": [],
      "stateMutability": "nonpayable",
      "type": "function"
    },
    {
      "inputs": [],
      "name": "unpause",
      "outputs": [],
      "stateMutability": "nonpayable",
      "type": "function"
    },
    {
      "inputs": [
        {
          "internalType": "uint256",
          "name": "",
          "type": "uint256"
        }
      ],
      "name": "uri",
      "outputs": [
        {
          "internalType": "string",
          "name": "",
          "type": "string"
        }
      ],
      "stateMutability": "view",
      "type": "function"
    },
    {
      "inputs": [
        {
          "internalType": "address",
          "name": "",
          "type": "address"
        },
        {
          "internalType": "uint256",
          "name": "",
          "type": "uint256"
        }
      ],
      "name": "userToHoldings",
      "outputs": [
        {
          "internalType": "uint256",
          "name": "",
          "type": "uint256"
        }
      ],
      "stateMutability": "view",
      "type": "function"
    },
    {
      "inputs": [
        {
          "internalType": "address payable",
          "name": "_owner",
          "type": "address"
        }
      ],
      "name": "withdraw",
      "outputs": [],
      "stateMutability": "nonpayable",
      "type": "function"
    },
    {
      "inputs": [
        {
          "internalType": "uint256",
          "name": "_tokenId",
          "type": "uint256"
        },
        {
          "internalType": "uint256",
          "name": "_amount",
          "type": "uint256"
        }
      ],
      "name": "_totalProceeds",
      "outputs": [
        {
          "internalType": "uint256",
          "name": "",
          "type": "uint256"
        }
      ],
      "stateMutability": "view",
      "type": "function"
    },
    {
      "inputs": [
        {
          "internalType": "uint256",
          "name": "_tokenId",
          "type": "uint256"
        },
        {
          "internalType": "uint256",
          "name": "_amount",
          "type": "uint256"
        }
      ],
      "name": "_buyProceeds",
      "outputs": [
        {
          "internalType": "uint256",
          "name": "",
          "type": "uint256"
        }
      ],
      "stateMutability": "view",
      "type": "function"
    }
  ],
  "bytecode": "0x60806040526001805560006002556000600355601460045565082f79cd900060055560b96006553480156200003357600080fd5b5060405162005cc338038062005cc38339818101604052810190620000599190620005ce565b8080808080600062000070620001ec60201b60201c565b9050806000806101000a81548173ffffffffffffffffffffffffffffffffffffffff021916908373ffffffffffffffffffffffffffffffffffffffff1602179055508073ffffffffffffffffffffffffffffffffffffffff16600073ffffffffffffffffffffffffffffffffffffffff167f8be0079c531659141344cd1fd0a4f28419497f9722a3daafe3b4186f6b6457e060405160405180910390a3506200011f81620001f460201b60201c565b506000601260006101000a81548160ff0219169083151502179055506200015f6000801b62000153620001ec60201b60201c565b6200021060201b60201c565b620001a07f9f2df0fed2c77648de5860a4cc508cd0818c85b8b8a1ab4ceeef8d981c8956a662000194620001ec60201b60201c565b6200021060201b60201c565b620001e17f65d7a28e3265b37a6474929f336521b332c1681b933f6cb9f3376673440d862a620001d5620001ec60201b60201c565b6200021060201b60201c565b5050505050620007a3565b600033905090565b80601190805190602001906200020c929190620004a0565b5050565b6200022782826200025860201b620028b61760201c565b6200025381600e60008581526020019081526020016000206200026e60201b620028c41790919060201c565b505050565b6200026a8282620002a660201b60201c565b5050565b60006200029e836000018373ffffffffffffffffffffffffffffffffffffffff1660001b6200039860201b60201c565b905092915050565b620002b882826200041260201b60201c565b62000394576001600d600084815260200190815260200160002060000160008373ffffffffffffffffffffffffffffffffffffffff1673ffffffffffffffffffffffffffffffffffffffff16815260200190815260200160002060006101000a81548160ff02191690831515021790555062000339620001ec60201b60201c565b73ffffffffffffffffffffffffffffffffffffffff168173ffffffffffffffffffffffffffffffffffffffff16837f2f8788117e7eff1d82e926ec794901d17c78024a50270940304540a733656f0d60405160405180910390a45b5050565b6000620003ac83836200047d60201b60201c565b620004075782600001829080600181540180825580915050600190039060005260206000200160009091909190915055826000018054905083600101600084815260200190815260200160002081905550600190506200040c565b600090505b92915050565b6000600d600084815260200190815260200160002060000160008373ffffffffffffffffffffffffffffffffffffffff1673ffffffffffffffffffffffffffffffffffffffff16815260200190815260200160002060009054906101000a900460ff16905092915050565b600080836001016000848152602001908152602001600020541415905092915050565b828054620004ae90620006b4565b90600052602060002090601f016020900481019282620004d257600085556200051e565b82601f10620004ed57805160ff19168380011785556200051e565b828001600101855582156200051e579182015b828111156200051d57825182559160200191906001019062000500565b5b5090506200052d919062000531565b5090565b5b808211156200054c57600081600090555060010162000532565b5090565b600062000567620005618462000648565b6200061f565b90508281526020810184848401111562000586576200058562000783565b5b620005938482856200067e565b509392505050565b600082601f830112620005b357620005b26200077e565b5b8151620005c584826020860162000550565b91505092915050565b600060208284031215620005e757620005e66200078d565b5b600082015167ffffffffffffffff81111562000608576200060762000788565b5b62000616848285016200059b565b91505092915050565b60006200062b6200063e565b9050620006398282620006ea565b919050565b6000604051905090565b600067ffffffffffffffff8211156200066657620006656200074f565b5b620006718262000792565b9050602081019050919050565b60005b838110156200069e57808201518184015260208101905062000681565b83811115620006ae576000848401525b50505050565b60006002820490506001821680620006cd57607f821691505b60208210811415620006e457620006e362000720565b5b50919050565b620006f58262000792565b810181811067ffffffffffffffff821117156200071757620007166200074f565b5b80604052505050565b7f4e487b7100000000000000000000000000000000000000000000000000000000600052602260045260246000fd5b7f4e487b7100000000000000000000000000000000000000000000000000000000600052604160045260246000fd5b600080fd5b600080fd5b600080fd5b600080fd5b6000601f19601f8301169050919050565b61551080620007b36000396000f3fe608060405234801561001057600080fd5b50600436106102945760003560e01c80639010d07c11610167578063d547741f116100ce578063eb84175911610087578063eb8417591461082f578063f242432a1461084b578063f2fde38b14610867578063f5298aca14610883578063f56e71b41461089f578063f7374e2e146108bb57610294565b8063d547741f14610771578063d56b72c71461078d578063d7a5791a146107a9578063de6a06ed146107c5578063e63ab1e9146107e1578063e985e9c5146107ff57610294565b8063bfb48c9c11610120578063bfb48c9c14610685578063c39cbef1146106b5578063c539c317146106d1578063ca15c873146106ed578063ce901d8a1461071d578063d53913931461075357610294565b80639010d07c1461058b57806391d14854146105bb57806392724afa146105eb578063a217fddf1461061b578063a22cb46514610639578063ba111a051461065557610294565b806336568abe1161020b5780635d4222cd116101c45780635d4222cd146105055780636b20c45414610521578063715018a61461053d578063731133e9146105475780638456cb59146105635780638da5cb5b1461056d57610294565b806336568abe146104455780633f4ba83a146104615780634e1273f41461046b5780634fe477d81461049b57806351cff8d9146104cb5780635c975abb146104e757610294565b80631d5ad18b1161025d5780631d5ad18b146103755780631f7fdffa14610391578063248a9ca3146103ad5780632eb2c2d6146103dd5780632f2ff15d146103f957806335a8ae211461041557610294565b8062fdd58e1461029957806301ffc9a7146102c957806306e320f5146102f95780630e89341c1461031557806318892ae814610345575b600080fd5b6102b360048036038101906102ae9190614114565b6108d7565b6040516102c09190614b03565b60405180910390f35b6102e360048036038101906102de919061434f565b6109a1565b6040516102f0919061494b565b60405180910390f35b610313600480360381019061030e9190614469565b6109b3565b005b61032f600480360381019061032a919061437c565b610a5a565b60405161033c9190614981565b60405180910390f35b61035f600480360381019061035a919061437c565b610aee565b60405161036c9190614853565b60405180910390f35b61038f600480360381019061038a91906143e9565b610b21565b005b6103ab60048036038101906103a69190614019565b610bf6565b005b6103c760048036038101906103c291906142a2565b610d4a565b6040516103d49190614966565b60405180910390f35b6103f760048036038101906103f29190613e28565b610d6a565b005b610413600480360381019061040e91906142cf565b610ed6565b005b61042f600480360381019061042a91906144c9565b610f0a565b60405161043c9190614b03565b60405180910390f35b61045f600480360381019061045a91906142cf565b610f42565b005b610469610f76565b005b6104856004803603810190610480919061422a565b610ff0565b60405161049291906148f2565b60405180910390f35b6104b560048036038101906104b091906144c9565b611109565b6040516104c29190614b03565b60405180910390f35b6104e560048036038101906104e09190613d00565b611316565b005b6104ef6113dc565b6040516104fc919061494b565b60405180910390f35b61051f600480360381019061051a9190614154565b6113f3565b005b61053b60048036038101906105369190613f8e565b6114c6565b005b610545611651565b005b610561600480360381019061055c91906141a7565b61178b565b005b61056b611857565b005b6105756118d1565b6040516105829190614853565b60405180910390f35b6105a560048036038101906105a0919061430f565b6118fa565b6040516105b29190614853565b60405180910390f35b6105d560048036038101906105d091906142cf565b611929565b6040516105e2919061494b565b60405180910390f35b61060560048036038101906106009190614114565b611994565b6040516106129190614b03565b60405180910390f35b6106236119b9565b6040516106309190614966565b60405180910390f35b610653600480360381019061064e91906140d4565b6119c0565b005b61066f600480360381019061066a919061437c565b611abd565b60405161067c9190614b03565b60405180910390f35b61069f600480360381019061069a91906143a9565b611ae0565b6040516106ac9190614b03565b60405180910390f35b6106cf60048036038101906106ca9190614469565b611b05565b005b6106eb60048036038101906106e6919061437c565b611bac565b005b610707600480360381019061070291906142a2565b611c32565b6040516107149190614b03565b60405180910390f35b6107376004803603810190610732919061437c565b611c56565b60405161074a979695949392919061486e565b60405180910390f35b61075b611e6d565b6040516107689190614966565b60405180910390f35b61078b600480360381019061078691906142cf565b611e91565b005b6107a760048036038101906107a29190613d2d565b611ec5565b005b6107c360048036038101906107be919061437c565b6120e1565b005b6107df60048036038101906107da9190614469565b612167565b005b6107e961220e565b6040516107f69190614966565b60405180910390f35b61081960048036038101906108149190613de8565b612232565b604051610826919061494b565b60405180910390f35b61084960048036038101906108449190613d00565b6122c6565b005b61086560048036038101906108609190613ef7565b612396565b005b610881600480360381019061087c9190613cd3565b61247a565b005b61089d60048036038101906108989190614154565b612623565b005b6108b960048036038101906108b49190614154565b612726565b005b6108d560048036038101906108d09190614429565b6127f9565b005b60008073ffffffffffffffffffffffffffffffffffffffff168373ffffffffffffffffffffffffffffffffffffffff161415610948576040517f08c379a000000000000000000000000000000000000000000000000000000000815260040161093f90614a03565b60405180910390fd5b600f600083815260200190815260200160002060008473ffffffffffffffffffffffffffffffffffffffff1673ffffffffffffffffffffffffffffffffffffffff16815260200190815260200160002054905092915050565b60006109ac826128f4565b9050919050565b826008600082815260200190815260200160002060009054906101000a900473ffffffffffffffffffffffffffffffffffffffff1673ffffffffffffffffffffffffffffffffffffffff163373ffffffffffffffffffffffffffffffffffffffff1614610a1f57600080fd5b828260078681548110610a3557610a346150a4565b5b90600052602060002090600702016002019190610a539291906138ba565b5050505050565b606060118054610a6990614f3c565b80601f0160208091040260200160405190810160405280929190818152602001828054610a9590614f3c565b8015610ae25780601f10610ab757610100808354040283529160200191610ae2565b820191906000526020600020905b815481529060010190602001808311610ac557829003601f168201915b50505050509050919050565b60086020528060005260406000206000915054906101000a900473ffffffffffffffffffffffffffffffffffffffff1681565b816008600082815260200190815260200160002060009054906101000a900473ffffffffffffffffffffffffffffffffffffffff1673ffffffffffffffffffffffffffffffffffffffff163373ffffffffffffffffffffffffffffffffffffffff1614610b8d57600080fd5b8160078481548110610ba257610ba16150a4565b5b906000526020600020906007020160000160006101000a81548173ffffffffffffffffffffffffffffffffffffffff021916908373ffffffffffffffffffffffffffffffffffffffff160217905550505050565b60005b8351811015610cc457610c4185858381518110610c1957610c186150a4565b5b6020026020010151858481518110610c3457610c336150a4565b5b60200260200101516113f3565b828181518110610c5457610c536150a4565b5b60200260200101516007858381518110610c7157610c706150a4565b5b602002602001015181548110610c8a57610c896150a4565b5b90600052602060002090600702016005016000828254610caa9190614d19565b925050819055508080610cbc90614f9f565b915050610bf9565b508373ffffffffffffffffffffffffffffffffffffffff16600073ffffffffffffffffffffffffffffffffffffffff163373ffffffffffffffffffffffffffffffffffffffff167f4a39dc06d4c0dbc64b70af90fd698a233a518aa5d07e595d983b8c0526c8f7fb8686604051610d3c929190614914565b60405180910390a450505050565b6000600d6000838152602001908152602001600020600101549050919050565b60005b8351811015610e50578573ffffffffffffffffffffffffffffffffffffffff163373ffffffffffffffffffffffffffffffffffffffff161480610db65750610db58686612232565b5b610dbf57600080fd5b610dfe86858381518110610dd657610dd56150a4565b5b6020026020010151858481518110610df157610df06150a4565b5b6020026020010151612726565b610e3d85858381518110610e1557610e146150a4565b5b6020026020010151858481518110610e3057610e2f6150a4565b5b60200260200101516113f3565b8080610e4890614f9f565b915050610d6d565b508373ffffffffffffffffffffffffffffffffffffffff168573ffffffffffffffffffffffffffffffffffffffff163373ffffffffffffffffffffffffffffffffffffffff167f4a39dc06d4c0dbc64b70af90fd698a233a518aa5d07e595d983b8c0526c8f7fb8686604051610ec7929190614914565b60405180910390a45050505050565b610ee082826129d6565b610f0581600e60008581526020019081526020016000206128c490919063ffffffff16565b505050565b600080610f178484611109565b90506000610f2482611abd565b905060008183610f349190614d19565b905080935050505092915050565b610f4c82826129ff565b610f7181600e6000858152602001908152602001600020612a8290919063ffffffff16565b505050565b610fa77f65d7a28e3265b37a6474929f336521b332c1681b933f6cb9f3376673440d862a610fa2612ab2565b611929565b610fe6576040517f08c379a0000000000000000000000000000000000000000000000000000000008152600401610fdd90614a83565b60405180910390fd5b610fee612aba565b565b60608151835114611036576040517f08c379a000000000000000000000000000000000000000000000000000000000815260040161102d90614ac3565b60405180910390fd5b6000835167ffffffffffffffff811115611053576110526150d3565b5b6040519080825280602002602001820160405280156110815781602001602082028036833780820191505090505b50905060005b84518110156110fe576110ce8582815181106110a6576110a56150a4565b5b60200260200101518583815181106110c1576110c06150a4565b5b60200260200101516108d7565b8282815181106110e1576110e06150a4565b5b602002602001018181525050806110f790614f9f565b9050611087565b508091505092915050565b60008060009050600060078581548110611126576111256150a4565b5b9060005260206000209060070201600501549050600084826111489190614d19565b90506007868154811061115e5761115d6150a4565b5b9060005260206000209060070201600601548110156111b7576111b0818660055460065460078b81548110611196576111956150a4565b5b906000526020600020906007020160060154600454612b5c565b925061130a565b600786815481106111cb576111ca6150a4565b5b9060005260206000209060070201600601548210156112f657611272600787815481106111fb576111fa6150a4565b5b9060005260206000209060070201600601548360078981548110611222576112216150a4565b5b90600052602060002090600702016006015461123e9190614dfa565b60055460065460078b81548110611258576112576150a4565b5b906000526020600020906007020160060154600454612b5c565b92506112e46007878154811061128b5761128a6150a4565b5b90600052602060002090600702016006015483600789815481106112b2576112b16150a4565b5b9060005260206000209060070201600601546112ce9190614dfa565b876112d99190614dfa565b600554600654612bd5565b836112ef9190614d19565b9250611309565b6113068286600554600654612bd5565b92505b5b82935050505092915050565b61131e612ab2565b73ffffffffffffffffffffffffffffffffffffffff1661133c6118d1565b73ffffffffffffffffffffffffffffffffffffffff1614611392576040517f08c379a000000000000000000000000000000000000000000000000000000000815260040161138990614a63565b60405180910390fd5b8073ffffffffffffffffffffffffffffffffffffffff166108fc479081150290604051600060405180830381858888f193505050501580156113d8573d6000803e3d6000fd5b5050565b6000601260009054906101000a900460ff16905090565b80600a600084815260200190815260200160002060008573ffffffffffffffffffffffffffffffffffffffff1673ffffffffffffffffffffffffffffffffffffffff16815260200190815260200160002060008282546114539190614d19565b9250508190555080600b60008573ffffffffffffffffffffffffffffffffffffffff1673ffffffffffffffffffffffffffffffffffffffff168152602001908152602001600020600084815260200190815260200160002060008282546114ba9190614d19565b92505081905550505050565b8273ffffffffffffffffffffffffffffffffffffffff163373ffffffffffffffffffffffffffffffffffffffff16146114fe57600080fd5b60005b82518110156115cc5761154984848381518110611521576115206150a4565b5b602002602001015184848151811061153c5761153b6150a4565b5b6020026020010151612726565b81818151811061155c5761155b6150a4565b5b60200260200101516007848381518110611579576115786150a4565b5b602002602001015181548110611592576115916150a4565b5b906000526020600020906007020160050160008282546115b29190614dfa565b9250508190555080806115c490614f9f565b915050611501565b50600073ffffffffffffffffffffffffffffffffffffffff168373ffffffffffffffffffffffffffffffffffffffff163373ffffffffffffffffffffffffffffffffffffffff167f4a39dc06d4c0dbc64b70af90fd698a233a518aa5d07e595d983b8c0526c8f7fb8585604051611644929190614914565b60405180910390a4505050565b611659612ab2565b73ffffffffffffffffffffffffffffffffffffffff166116776118d1565b73ffffffffffffffffffffffffffffffffffffffff16146116cd576040517f08c379a00000000000000000000000000000000000000000000000000000000081526004016116c490614a63565b60405180910390fd5b600073ffffffffffffffffffffffffffffffffffffffff1660008054906101000a900473ffffffffffffffffffffffffffffffffffffffff1673ffffffffffffffffffffffffffffffffffffffff167f8be0079c531659141344cd1fd0a4f28419497f9722a3daafe3b4186f6b6457e060405160405180910390a360008060006101000a81548173ffffffffffffffffffffffffffffffffffffffff021916908373ffffffffffffffffffffffffffffffffffffffff160217905550565b6117968484846113f3565b81600784815481106117ab576117aa6150a4565b5b906000526020600020906007020160050160008282546117cb9190614d19565b925050819055508373ffffffffffffffffffffffffffffffffffffffff16600073ffffffffffffffffffffffffffffffffffffffff163373ffffffffffffffffffffffffffffffffffffffff167fc3d58168c5ae7397731d063d5bbf3d657854427343f4c083240f7aacaa2d0f628686604051611849929190614bb1565b60405180910390a450505050565b6118887f65d7a28e3265b37a6474929f336521b332c1681b933f6cb9f3376673440d862a611883612ab2565b611929565b6118c7576040517f08c379a00000000000000000000000000000000000000000000000000000000081526004016118be90614aa3565b60405180910390fd5b6118cf612c63565b565b60008060009054906101000a900473ffffffffffffffffffffffffffffffffffffffff16905090565b600061192182600e6000868152602001908152602001600020612d0690919063ffffffff16565b905092915050565b6000600d600084815260200190815260200160002060000160008373ffffffffffffffffffffffffffffffffffffffff1673ffffffffffffffffffffffffffffffffffffffff16815260200190815260200160002060009054906101000a900460ff16905092915050565b600b602052816000526040600020602052806000526040600020600091509150505481565b6000801b81565b80600c60003373ffffffffffffffffffffffffffffffffffffffff1673ffffffffffffffffffffffffffffffffffffffff16815260200190815260200160002060008473ffffffffffffffffffffffffffffffffffffffff1673ffffffffffffffffffffffffffffffffffffffff16815260200190815260200160002060006101000a81548160ff0219169083151502179055508173ffffffffffffffffffffffffffffffffffffffff163373ffffffffffffffffffffffffffffffffffffffff167f17307eab39ab6107e8899845ad3d59bd9653f200f220920489ca2b5937696c3183604051611ab1919061494b565b60405180910390a35050565b6000606460015483611acf9190614da0565b611ad99190614d6f565b9050919050565b600a602052816000526040600020602052806000526040600020600091509150505481565b826008600082815260200190815260200160002060009054906101000a900473ffffffffffffffffffffffffffffffffffffffff1673ffffffffffffffffffffffffffffffffffffffff163373ffffffffffffffffffffffffffffffffffffffff1614611b7157600080fd5b828260078681548110611b8757611b866150a4565b5b90600052602060002090600702016001019190611ba59291906138ba565b5050505050565b611bb4612ab2565b73ffffffffffffffffffffffffffffffffffffffff16611bd26118d1565b73ffffffffffffffffffffffffffffffffffffffff1614611c28576040517f08c379a0000000000000000000000000000000000000000000000000000000008152600401611c1f90614a63565b60405180910390fd5b8060048190555050565b6000611c4f600e6000848152602001908152602001600020612d20565b9050919050565b60078181548110611c6657600080fd5b90600052602060002090600702016000915090508060000160009054906101000a900473ffffffffffffffffffffffffffffffffffffffff1690806001018054611caf90614f3c565b80601f0160208091040260200160405190810160405280929190818152602001828054611cdb90614f3c565b8015611d285780601f10611cfd57610100808354040283529160200191611d28565b820191906000526020600020905b815481529060010190602001808311611d0b57829003601f168201915b505050505090806002018054611d3d90614f3c565b80601f0160208091040260200160405190810160405280929190818152602001828054611d6990614f3c565b8015611db65780601f10611d8b57610100808354040283529160200191611db6565b820191906000526020600020905b815481529060010190602001808311611d9957829003601f168201915b505050505090806003018054611dcb90614f3c565b80601f0160208091040260200160405190810160405280929190818152602001828054611df790614f3c565b8015611e445780601f10611e1957610100808354040283529160200191611e44565b820191906000526020600020905b815481529060010190602001808311611e2757829003601f168201915b5050505050908060040160009054906101000a900460ff16908060050154908060060154905087565b7f9f2df0fed2c77648de5860a4cc508cd0818c85b8b8a1ab4ceeef8d981c8956a681565b611e9b8282612d35565b611ec081600e6000858152602001908152602001600020612a8290919063ffffffff16565b505050565b60076040518060e001604052808673ffffffffffffffffffffffffffffffffffffffff168152602001858152602001848152602001838152602001600015158152602001600081526020016000815250908060018154018082558091505060019003906000526020600020906007020160009091909190915060008201518160000160006101000a81548173ffffffffffffffffffffffffffffffffffffffff021916908373ffffffffffffffffffffffffffffffffffffffff1602179055506020820151816001019080519060200190611fa1929190613940565b506040820151816002019080519060200190611fbe929190613940565b506060820151816003019080519060200190611fdb929190613940565b5060808201518160040160006101000a81548160ff02191690831515021790555060a0820151816005015560c082015181600601555050600060016007805490506120269190614dfa565b9050846008600083815260200190815260200160002060006101000a81548173ffffffffffffffffffffffffffffffffffffffff021916908373ffffffffffffffffffffffffffffffffffffffff160217905550600060096000838152602001908152602001600020819055507f3ef624c0f3fb7ad40b94c02078ea3e3a797dbfc21e921ee4bd2b8ad0ca6aa113818686868660008060006040516120d2989796959493929190614b1e565b60405180910390a15050505050565b6120e9612ab2565b73ffffffffffffffffffffffffffffffffffffffff166121076118d1565b73ffffffffffffffffffffffffffffffffffffffff161461215d576040517f08c379a000000000000000000000000000000000000000000000000000000000815260040161215490614a63565b60405180910390fd5b8060018190555050565b826008600082815260200190815260200160002060009054906101000a900473ffffffffffffffffffffffffffffffffffffffff1673ffffffffffffffffffffffffffffffffffffffff163373ffffffffffffffffffffffffffffffffffffffff16146121d357600080fd5b8282600786815481106121e9576121e86150a4565b5b906000526020600020906007020160030191906122079291906138ba565b5050505050565b7f65d7a28e3265b37a6474929f336521b332c1681b933f6cb9f3376673440d862a81565b6000600c60008473ffffffffffffffffffffffffffffffffffffffff1673ffffffffffffffffffffffffffffffffffffffff16815260200190815260200160002060008373ffffffffffffffffffffffffffffffffffffffff1673ffffffffffffffffffffffffffffffffffffffff16815260200190815260200160002060009054906101000a900460ff16905092915050565b6122ce612ab2565b73ffffffffffffffffffffffffffffffffffffffff166122ec6118d1565b73ffffffffffffffffffffffffffffffffffffffff1614612342576040517f08c379a000000000000000000000000000000000000000000000000000000000815260040161233990614a63565b60405180910390fd5b8073ffffffffffffffffffffffffffffffffffffffff166108fc6003549081150290604051600060405180830381858888f1935050505015801561238a573d6000803e3d6000fd5b50600060038190555050565b8473ffffffffffffffffffffffffffffffffffffffff163373ffffffffffffffffffffffffffffffffffffffff1614806123d657506123d58585612232565b5b6123df57600080fd5b6123ea858484612726565b6123f58484846113f3565b8373ffffffffffffffffffffffffffffffffffffffff168573ffffffffffffffffffffffffffffffffffffffff163373ffffffffffffffffffffffffffffffffffffffff167fc3d58168c5ae7397731d063d5bbf3d657854427343f4c083240f7aacaa2d0f62868660405161246b929190614bb1565b60405180910390a45050505050565b612482612ab2565b73ffffffffffffffffffffffffffffffffffffffff166124a06118d1565b73ffffffffffffffffffffffffffffffffffffffff16146124f6576040517f08c379a00000000000000000000000000000000000000000000000000000000081526004016124ed90614a63565b60405180910390fd5b600073ffffffffffffffffffffffffffffffffffffffff168173ffffffffffffffffffffffffffffffffffffffff161415612566576040517f08c379a000000000000000000000000000000000000000000000000000000000815260040161255d90614a23565b60405180910390fd5b8073ffffffffffffffffffffffffffffffffffffffff1660008054906101000a900473ffffffffffffffffffffffffffffffffffffffff1673ffffffffffffffffffffffffffffffffffffffff167f8be0079c531659141344cd1fd0a4f28419497f9722a3daafe3b4186f6b6457e060405160405180910390a3806000806101000a81548173ffffffffffffffffffffffffffffffffffffffff021916908373ffffffffffffffffffffffffffffffffffffffff16021790555050565b8273ffffffffffffffffffffffffffffffffffffffff163373ffffffffffffffffffffffffffffffffffffffff161461265b57600080fd5b612666838383612726565b806007838154811061267b5761267a6150a4565b5b9060005260206000209060070201600501600082825461269b9190614dfa565b92505081905550600073ffffffffffffffffffffffffffffffffffffffff168373ffffffffffffffffffffffffffffffffffffffff163373ffffffffffffffffffffffffffffffffffffffff167fc3d58168c5ae7397731d063d5bbf3d657854427343f4c083240f7aacaa2d0f628585604051612719929190614bb1565b60405180910390a4505050565b80600a600084815260200190815260200160002060008573ffffffffffffffffffffffffffffffffffffffff1673ffffffffffffffffffffffffffffffffffffffff16815260200190815260200160002060008282546127869190614dfa565b9250508190555080600b60008573ffffffffffffffffffffffffffffffffffffffff1673ffffffffffffffffffffffffffffffffffffffff168152602001908152602001600020600084815260200190815260200160002060008282546127ed9190614dfa565b92505081905550505050565b612801612ab2565b73ffffffffffffffffffffffffffffffffffffffff1661281f6118d1565b73ffffffffffffffffffffffffffffffffffffffff1614612875576040517f08c379a000000000000000000000000000000000000000000000000000000000815260040161286c90614a63565b60405180910390fd5b806007838154811061288a576128896150a4565b5b906000526020600020906007020160040160006101000a81548160ff0219169083151502179055505050565b6128c08282612d5e565b5050565b60006128ec836000018373ffffffffffffffffffffffffffffffffffffffff1660001b612e3f565b905092915050565b60007fd9b67a26000000000000000000000000000000000000000000000000000000007bffffffffffffffffffffffffffffffffffffffffffffffffffffffff1916827bffffffffffffffffffffffffffffffffffffffffffffffffffffffff191614806129bf57507f0e89341c000000000000000000000000000000000000000000000000000000007bffffffffffffffffffffffffffffffffffffffffffffffffffffffff1916827bffffffffffffffffffffffffffffffffffffffffffffffffffffffff1916145b806129cf57506129ce82612eaf565b5b9050919050565b6129df82610d4a565b6129f0816129eb612ab2565b612f29565b6129fa8383612d5e565b505050565b612a07612ab2565b73ffffffffffffffffffffffffffffffffffffffff168173ffffffffffffffffffffffffffffffffffffffff1614612a74576040517f08c379a0000000000000000000000000000000000000000000000000000000008152600401612a6b90614ae3565b60405180910390fd5b612a7e8282612fc6565b5050565b6000612aaa836000018373ffffffffffffffffffffffffffffffffffffffff1660001b6130a8565b905092915050565b600033905090565b612ac26113dc565b612b01576040517f08c379a0000000000000000000000000000000000000000000000000000000008152600401612af8906149e3565b60405180910390fd5b6000601260006101000a81548160ff0219169083151502179055507f5db9ee0a495bf2e6ff9c91a7834c1ba4fdd244a5e8aa4e537bd38aeae4b073aa612b45612ab2565b604051612b529190614853565b60405180910390a1565b600080600080612b708a8a8a8a8a8a6131b4565b9250925092506000838b1015612b9357612b8c84848d8561322f565b9050612bc4565b83821015612bb157612baa84848d858d8d8d6132d2565b9050612bc3565b612bc084848d858d8d8d6133f4565b90505b5b809450505050509695505050505050565b6000808486612be49190614d19565b90506000838786612bf59190614da0565b612bff9190614d6f565b90506000848387612c109190614da0565b612c1a9190614d6f565b905060008884612c2a9190614dfa565b905060006002828486612c3d9190614d19565b612c479190614da0565b612c519190614d6f565b90508095505050505050949350505050565b612c6b6113dc565b15612cab576040517f08c379a0000000000000000000000000000000000000000000000000000000008152600401612ca290614a43565b60405180910390fd5b6001601260006101000a81548160ff0219169083151502179055507f62e78cea01bee320cd4e420270b5ea74000d11b0c9f74754ebdbfc544b05a258612cef612ab2565b604051612cfc9190614853565b60405180910390a1565b6000612d1583600001836134f2565b60001c905092915050565b6000612d2e82600001613566565b9050919050565b612d3e82610d4a565b612d4f81612d4a612ab2565b612f29565b612d598383612fc6565b505050565b612d688282611929565b612e3b576001600d600084815260200190815260200160002060000160008373ffffffffffffffffffffffffffffffffffffffff1673ffffffffffffffffffffffffffffffffffffffff16815260200190815260200160002060006101000a81548160ff021916908315150217905550612de0612ab2565b73ffffffffffffffffffffffffffffffffffffffff168173ffffffffffffffffffffffffffffffffffffffff16837f2f8788117e7eff1d82e926ec794901d17c78024a50270940304540a733656f0d60405160405180910390a45b5050565b6000612e4b8383613577565b612ea4578260000182908060018154018082558091505060019003906000526020600020016000909190919091505582600001805490508360010160008481526020019081526020016000208190555060019050612ea9565b600090505b92915050565b60007f5a05180f000000000000000000000000000000000000000000000000000000007bffffffffffffffffffffffffffffffffffffffffffffffffffffffff1916827bffffffffffffffffffffffffffffffffffffffffffffffffffffffff19161480612f225750612f218261359a565b5b9050919050565b612f338282611929565b612fc257612f588173ffffffffffffffffffffffffffffffffffffffff166014613614565b612f668360001c6020613614565b604051602001612f77929190614819565b6040516020818303038152906040526040517f08c379a0000000000000000000000000000000000000000000000000000000008152600401612fb99190614981565b60405180910390fd5b5050565b612fd08282611929565b156130a4576000600d600084815260200190815260200160002060000160008373ffffffffffffffffffffffffffffffffffffffff1673ffffffffffffffffffffffffffffffffffffffff16815260200190815260200160002060006101000a81548160ff021916908315150217905550613049612ab2565b73ffffffffffffffffffffffffffffffffffffffff168173ffffffffffffffffffffffffffffffffffffffff16837ff6391f5c32d9c69d2a47ea670b442974b53935d1edc7fd64eb21e047a839171b60405160405180910390a45b5050565b600080836001016000848152602001908152602001600020549050600081146131a85760006001826130da9190614dfa565b90506000600186600001805490506130f29190614dfa565b9050600086600001828154811061310c5761310b6150a4565b5b90600052602060002001549050808760000184815481106131305761312f6150a4565b5b906000526020600020018190555083876001016000838152602001908152602001600020819055508660000180548061316c5761316b615075565b5b600190038181906000526020600020016000905590558660010160008781526020019081526020016000206000905560019450505050506131ae565b60009150505b92915050565b6000806000806002866131c79190614d6f565b90506000878960648860326131dc9190614dfa565b8a6131e79190614da0565b6131f19190614d6f565b6131fb9190614da0565b6132059190614d6f565b905060008a8c6132159190614dfa565b905082828295509550955050505096509650969350505050565b600080828661323e9190614dfa565b868661324a9190614d6f565b6132549190614da0565b8561325f9190614dfa565b90506000848761326f9190614dfa565b878761327b9190614d6f565b6132859190614da0565b866132909190614dfa565b9050600084866132a09190614dfa565b905060028183856132b19190614d19565b6132bb9190614da0565b6132c59190614d6f565b9350505050949350505050565b60008085896132e19190614dfa565b89896132ed9190614d6f565b6132f79190614da0565b886133029190614dfa565b905060008890506000878b6133179190614dfa565b90506000600282848661332a9190614d19565b6133349190614da0565b61333e9190614d6f565b905060008b8d8c61334f9190614dfa565b8e8961335b9190614dfa565b8e8b8b8e6133699190614da0565b6133739190614d6f565b61337d9190614dfa565b6133879190614d6f565b6133919190614da0565b61339b9190614d19565b905060008d8c6133ab9190614dfa565b9050600060028284886133be9190614d19565b6133c89190614da0565b6133d29190614d6f565b905080846133e09190614d19565b975050505050505050979650505050505050565b6000808789876134049190614dfa565b8a856134109190614dfa565b8a87878a61341e9190614da0565b6134289190614d6f565b6134329190614dfa565b61343c9190614d6f565b6134469190614da0565b6134509190614d19565b90506000888a896134619190614dfa565b8b8661346d9190614dfa565b8b88888b61347b9190614da0565b6134859190614d6f565b61348f9190614dfa565b6134999190614d6f565b6134a39190614da0565b6134ad9190614d19565b9050600087896134bd9190614dfa565b905060028183856134ce9190614d19565b6134d89190614da0565b6134e29190614d6f565b9350505050979650505050505050565b60008183600001805490501161353d576040517f08c379a0000000000000000000000000000000000000000000000000000000008152600401613534906149a3565b60405180910390fd5b826000018281548110613553576135526150a4565b5b9060005260206000200154905092915050565b600081600001805490509050919050565b600080836001016000848152602001908152602001600020541415905092915050565b60007f7965db0b000000000000000000000000000000000000000000000000000000007bffffffffffffffffffffffffffffffffffffffffffffffffffffffff1916827bffffffffffffffffffffffffffffffffffffffffffffffffffffffff1916148061360d575061360c82613850565b5b9050919050565b6060600060028360026136279190614da0565b6136319190614d19565b67ffffffffffffffff81111561364a576136496150d3565b5b6040519080825280601f01601f19166020018201604052801561367c5781602001600182028036833780820191505090505b5090507f3000000000000000000000000000000000000000000000000000000000000000816000815181106136b4576136b36150a4565b5b60200101907effffffffffffffffffffffffffffffffffffffffffffffffffffffffffffff1916908160001a9053507f780000000000000000000000000000000000000000000000000000000000000081600181518110613718576137176150a4565b5b60200101907effffffffffffffffffffffffffffffffffffffffffffffffffffffffffffff1916908160001a905350600060018460026137589190614da0565b6137629190614d19565b90505b6001811115613802577f3031323334353637383961626364656600000000000000000000000000000000600f8616601081106137a4576137a36150a4565b5b1a60f81b8282815181106137bb576137ba6150a4565b5b60200101907effffffffffffffffffffffffffffffffffffffffffffffffffffffffffffff1916908160001a905350600485901c9450806137fb90614f12565b9050613765565b5060008414613846576040517f08c379a000000000000000000000000000000000000000000000000000000000815260040161383d906149c3565b60405180910390fd5b8091505092915050565b60007f01ffc9a7000000000000000000000000000000000000000000000000000000007bffffffffffffffffffffffffffffffffffffffffffffffffffffffff1916827bffffffffffffffffffffffffffffffffffffffffffffffffffffffff1916149050919050565b8280546138c690614f3c565b90600052602060002090601f0160209004810192826138e8576000855561392f565b82601f1061390157803560ff191683800117855561392f565b8280016001018555821561392f579182015b8281111561392e578235825591602001919060010190613913565b5b50905061393c91906139c6565b5090565b82805461394c90614f3c565b90600052602060002090601f01602090048101928261396e57600085556139b5565b82601f1061398757805160ff19168380011785556139b5565b828001600101855582156139b5579182015b828111156139b4578251825591602001919060010190613999565b5b5090506139c291906139c6565b5090565b5b808211156139df5760008160009055506001016139c7565b5090565b60006139f66139f184614bff565b614bda565b90508083825260208201905082856020860282011115613a1957613a1861510c565b5b60005b85811015613a495781613a2f8882613b47565b845260208401935060208301925050600181019050613a1c565b5050509392505050565b6000613a66613a6184614c2b565b614bda565b90508083825260208201905082856020860282011115613a8957613a8861510c565b5b60005b85811015613ab95781613a9f8882613cbe565b845260208401935060208301925050600181019050613a8c565b5050509392505050565b6000613ad6613ad184614c57565b614bda565b905082815260208101848484011115613af257613af1615111565b5b613afd848285614ed0565b509392505050565b6000613b18613b1384614c88565b614bda565b905082815260208101848484011115613b3457613b33615111565b5b613b3f848285614ed0565b509392505050565b600081359050613b5681615450565b92915050565b600081359050613b6b81615467565b92915050565b600082601f830112613b8657613b85615107565b5b8135613b968482602086016139e3565b91505092915050565b600082601f830112613bb457613bb3615107565b5b8135613bc4848260208601613a53565b91505092915050565b600081359050613bdc8161547e565b92915050565b600081359050613bf181615495565b92915050565b600081359050613c06816154ac565b92915050565b600082601f830112613c2157613c20615107565b5b8135613c31848260208601613ac3565b91505092915050565b60008083601f840112613c5057613c4f615107565b5b8235905067ffffffffffffffff811115613c6d57613c6c615102565b5b602083019150836001820283011115613c8957613c8861510c565b5b9250929050565b600082601f830112613ca557613ca4615107565b5b8135613cb5848260208601613b05565b91505092915050565b600081359050613ccd816154c3565b92915050565b600060208284031215613ce957613ce861511b565b5b6000613cf784828501613b47565b91505092915050565b600060208284031215613d1657613d1561511b565b5b6000613d2484828501613b5c565b91505092915050565b60008060008060808587031215613d4757613d4661511b565b5b6000613d5587828801613b5c565b945050602085013567ffffffffffffffff811115613d7657613d75615116565b5b613d8287828801613c90565b935050604085013567ffffffffffffffff811115613da357613da2615116565b5b613daf87828801613c90565b925050606085013567ffffffffffffffff811115613dd057613dcf615116565b5b613ddc87828801613c90565b91505092959194509250565b60008060408385031215613dff57613dfe61511b565b5b6000613e0d85828601613b47565b9250506020613e1e85828601613b47565b9150509250929050565b600080600080600060a08688031215613e4457613e4361511b565b5b6000613e5288828901613b47565b9550506020613e6388828901613b47565b945050604086013567ffffffffffffffff811115613e8457613e83615116565b5b613e9088828901613b9f565b935050606086013567ffffffffffffffff811115613eb157613eb0615116565b5b613ebd88828901613b9f565b925050608086013567ffffffffffffffff811115613ede57613edd615116565b5b613eea88828901613c0c565b9150509295509295909350565b600080600080600060a08688031215613f1357613f1261511b565b5b6000613f2188828901613b47565b9550506020613f3288828901613b47565b9450506040613f4388828901613cbe565b9350506060613f5488828901613cbe565b925050608086013567ffffffffffffffff811115613f7557613f74615116565b5b613f8188828901613c0c565b9150509295509295909350565b600080600060608486031215613fa757613fa661511b565b5b6000613fb586828701613b47565b935050602084013567ffffffffffffffff811115613fd657613fd5615116565b5b613fe286828701613b9f565b925050604084013567ffffffffffffffff81111561400357614002615116565b5b61400f86828701613b9f565b9150509250925092565b600080600080608085870312156140335761403261511b565b5b600061404187828801613b47565b945050602085013567ffffffffffffffff81111561406257614061615116565b5b61406e87828801613b9f565b935050604085013567ffffffffffffffff81111561408f5761408e615116565b5b61409b87828801613b9f565b925050606085013567ffffffffffffffff8111156140bc576140bb615116565b5b6140c887828801613c0c565b91505092959194509250565b600080604083850312156140eb576140ea61511b565b5b60006140f985828601613b47565b925050602061410a85828601613bcd565b9150509250929050565b6000806040838503121561412b5761412a61511b565b5b600061413985828601613b47565b925050602061414a85828601613cbe565b9150509250929050565b60008060006060848603121561416d5761416c61511b565b5b600061417b86828701613b47565b935050602061418c86828701613cbe565b925050604061419d86828701613cbe565b9150509250925092565b600080600080608085870312156141c1576141c061511b565b5b60006141cf87828801613b47565b94505060206141e087828801613cbe565b93505060406141f187828801613cbe565b925050606085013567ffffffffffffffff81111561421257614211615116565b5b61421e87828801613c0c565b91505092959194509250565b600080604083850312156142415761424061511b565b5b600083013567ffffffffffffffff81111561425f5761425e615116565b5b61426b85828601613b71565b925050602083013567ffffffffffffffff81111561428c5761428b615116565b5b61429885828601613b9f565b9150509250929050565b6000602082840312156142b8576142b761511b565b5b60006142c684828501613be2565b91505092915050565b600080604083850312156142e6576142e561511b565b5b60006142f485828601613be2565b925050602061430585828601613b47565b9150509250929050565b600080604083850312156143265761432561511b565b5b600061433485828601613be2565b925050602061434585828601613cbe565b9150509250929050565b6000602082840312156143655761436461511b565b5b600061437384828501613bf7565b91505092915050565b6000602082840312156143925761439161511b565b5b60006143a084828501613cbe565b91505092915050565b600080604083850312156143c0576143bf61511b565b5b60006143ce85828601613cbe565b92505060206143df85828601613b47565b9150509250929050565b60008060408385031215614400576143ff61511b565b5b600061440e85828601613cbe565b925050602061441f85828601613b5c565b9150509250929050565b600080604083850312156144405761443f61511b565b5b600061444e85828601613cbe565b925050602061445f85828601613bcd565b9150509250929050565b6000806000604084860312156144825761448161511b565b5b600061449086828701613cbe565b935050602084013567ffffffffffffffff8111156144b1576144b0615116565b5b6144bd86828701613c3a565b92509250509250925092565b600080604083850312156144e0576144df61511b565b5b60006144ee85828601613cbe565b92505060206144ff85828601613cbe565b9150509250929050565b600061451583836147fb565b60208301905092915050565b61452a81614e40565b82525050565b61453981614e2e565b82525050565b600061454a82614cc9565b6145548185614cec565b935061455f83614cb9565b8060005b838110156145905781516145778882614509565b975061458283614cdf565b925050600181019050614563565b5085935050505092915050565b6145a681614e52565b82525050565b6145b581614e5e565b82525050565b6145c481614ebe565b82525050565b60006145d582614cd4565b6145df8185614cfd565b93506145ef818560208601614edf565b6145f881615120565b840191505092915050565b600061460e82614cd4565b6146188185614d0e565b9350614628818560208601614edf565b80840191505092915050565b6000614641602283614cfd565b915061464c82615131565b604082019050919050565b6000614664602083614cfd565b915061466f82615180565b602082019050919050565b6000614687601483614cfd565b9150614692826151a9565b602082019050919050565b60006146aa602b83614cfd565b91506146b5826151d2565b604082019050919050565b60006146cd602683614cfd565b91506146d882615221565b604082019050919050565b60006146f0601083614cfd565b91506146fb82615270565b602082019050919050565b6000614713602083614cfd565b915061471e82615299565b602082019050919050565b6000614736603b83614cfd565b9150614741826152c2565b604082019050919050565b6000614759603983614cfd565b915061476482615311565b604082019050919050565b600061477c601783614d0e565b915061478782615360565b601782019050919050565b600061479f602983614cfd565b91506147aa82615389565b604082019050919050565b60006147c2601183614d0e565b91506147cd826153d8565b601182019050919050565b60006147e5602f83614cfd565b91506147f082615401565b604082019050919050565b61480481614eb4565b82525050565b61481381614eb4565b82525050565b60006148248261476f565b91506148308285614603565b915061483b826147b5565b91506148478284614603565b91508190509392505050565b60006020820190506148686000830184614530565b92915050565b600060e082019050614883600083018a614521565b818103602083015261489581896145ca565b905081810360408301526148a981886145ca565b905081810360608301526148bd81876145ca565b90506148cc608083018661459d565b6148d960a083018561480a565b6148e660c083018461480a565b98975050505050505050565b6000602082019050818103600083015261490c818461453f565b905092915050565b6000604082019050818103600083015261492e818561453f565b90508181036020830152614942818461453f565b90509392505050565b6000602082019050614960600083018461459d565b92915050565b600060208201905061497b60008301846145ac565b92915050565b6000602082019050818103600083015261499b81846145ca565b905092915050565b600060208201905081810360008301526149bc81614634565b9050919050565b600060208201905081810360008301526149dc81614657565b9050919050565b600060208201905081810360008301526149fc8161467a565b9050919050565b60006020820190508181036000830152614a1c8161469d565b9050919050565b60006020820190508181036000830152614a3c816146c0565b9050919050565b60006020820190508181036000830152614a5c816146e3565b9050919050565b60006020820190508181036000830152614a7c81614706565b9050919050565b60006020820190508181036000830152614a9c81614729565b9050919050565b60006020820190508181036000830152614abc8161474c565b9050919050565b60006020820190508181036000830152614adc81614792565b9050919050565b60006020820190508181036000830152614afc816147d8565b9050919050565b6000602082019050614b18600083018461480a565b92915050565b600061010082019050614b34600083018b61480a565b614b41602083018a614521565b8181036040830152614b5381896145ca565b90508181036060830152614b6781886145ca565b90508181036080830152614b7b81876145ca565b9050614b8a60a083018661459d565b614b9760c08301856145bb565b614ba460e08301846145bb565b9998505050505050505050565b6000604082019050614bc6600083018561480a565b614bd3602083018461480a565b9392505050565b6000614be4614bf5565b9050614bf08282614f6e565b919050565b6000604051905090565b600067ffffffffffffffff821115614c1a57614c196150d3565b5b602082029050602081019050919050565b600067ffffffffffffffff821115614c4657614c456150d3565b5b602082029050602081019050919050565b600067ffffffffffffffff821115614c7257614c716150d3565b5b614c7b82615120565b9050602081019050919050565b600067ffffffffffffffff821115614ca357614ca26150d3565b5b614cac82615120565b9050602081019050919050565b6000819050602082019050919050565b600081519050919050565b600081519050919050565b6000602082019050919050565b600082825260208201905092915050565b600082825260208201905092915050565b600081905092915050565b6000614d2482614eb4565b9150614d2f83614eb4565b9250827fffffffffffffffffffffffffffffffffffffffffffffffffffffffffffffffff03821115614d6457614d63614fe8565b5b828201905092915050565b6000614d7a82614eb4565b9150614d8583614eb4565b925082614d9557614d94615017565b5b828204905092915050565b6000614dab82614eb4565b9150614db683614eb4565b9250817fffffffffffffffffffffffffffffffffffffffffffffffffffffffffffffffff0483118215151615614def57614dee614fe8565b5b828202905092915050565b6000614e0582614eb4565b9150614e1083614eb4565b925082821015614e2357614e22614fe8565b5b828203905092915050565b6000614e3982614e94565b9050919050565b6000614e4b82614e94565b9050919050565b60008115159050919050565b6000819050919050565b60007fffffffff0000000000000000000000000000000000000000000000000000000082169050919050565b600073ffffffffffffffffffffffffffffffffffffffff82169050919050565b6000819050919050565b6000614ec982614eb4565b9050919050565b82818337600083830152505050565b60005b83811015614efd578082015181840152602081019050614ee2565b83811115614f0c576000848401525b50505050565b6000614f1d82614eb4565b91506000821415614f3157614f30614fe8565b5b600182039050919050565b60006002820490506001821680614f5457607f821691505b60208210811415614f6857614f67615046565b5b50919050565b614f7782615120565b810181811067ffffffffffffffff82111715614f9657614f956150d3565b5b80604052505050565b6000614faa82614eb4565b91507fffffffffffffffffffffffffffffffffffffffffffffffffffffffffffffffff821415614fdd57614fdc614fe8565b5b600182019050919050565b7f4e487b7100000000000000000000000000000000000000000000000000000000600052601160045260246000fd5b7f4e487b7100000000000000000000000000000000000000000000000000000000600052601260045260246000fd5b7f4e487b7100000000000000000000000000000000000000000000000000000000600052602260045260246000fd5b7f4e487b7100000000000000000000000000000000000000000000000000000000600052603160045260246000fd5b7f4e487b7100000000000000000000000000000000000000000000000000000000600052603260045260246000fd5b7f4e487b7100000000000000000000000000000000000000000000000000000000600052604160045260246000fd5b600080fd5b600080fd5b600080fd5b600080fd5b600080fd5b600080fd5b6000601f19601f8301169050919050565b7f456e756d657261626c655365743a20696e646578206f7574206f6620626f756e60008201527f6473000000000000000000000000000000000000000000000000000000000000602082015250565b7f537472696e67733a20686578206c656e67746820696e73756666696369656e74600082015250565b7f5061757361626c653a206e6f7420706175736564000000000000000000000000600082015250565b7f455243313135353a2062616c616e636520717565727920666f7220746865207a60008201527f65726f2061646472657373000000000000000000000000000000000000000000602082015250565b7f4f776e61626c653a206e6577206f776e657220697320746865207a65726f206160008201527f6464726573730000000000000000000000000000000000000000000000000000602082015250565b7f5061757361626c653a2070617573656400000000000000000000000000000000600082015250565b7f4f776e61626c653a2063616c6c6572206973206e6f7420746865206f776e6572600082015250565b7f455243313135355072657365744d696e7465725061757365723a206d7573742060008201527f686176652070617573657220726f6c6520746f20756e70617573650000000000602082015250565b7f455243313135355072657365744d696e7465725061757365723a206d7573742060008201527f686176652070617573657220726f6c6520746f20706175736500000000000000602082015250565b7f416363657373436f6e74726f6c3a206163636f756e7420000000000000000000600082015250565b7f455243313135353a206163636f756e747320616e6420696473206c656e67746860008201527f206d69736d617463680000000000000000000000000000000000000000000000602082015250565b7f206973206d697373696e6720726f6c6520000000000000000000000000000000600082015250565b7f416363657373436f6e74726f6c3a2063616e206f6e6c792072656e6f756e636560008201527f20726f6c657320666f722073656c660000000000000000000000000000000000602082015250565b61545981614e2e565b811461546457600080fd5b50565b61547081614e40565b811461547b57600080fd5b50565b61548781614e52565b811461549257600080fd5b50565b61549e81614e5e565b81146154a957600080fd5b50565b6154b581614e68565b81146154c057600080fd5b50565b6154cc81614eb4565b81146154d757600080fd5b5056fea264697066735822122083695ba9bbfba869993824f33a65f0c3ad2821f114ccb0fc859874c6a8be319b64736f6c63430008060033",
  "immutableReferences": {},
  "source": "// SPDX-License-Identifier: MIT\npragma solidity ^0.8.0;\n\nimport \"./creatortokenfees.sol\";\n\ncontract CreatorTokenComputation is CreatorTokenFees {\n\n\tconstructor(string memory uri) CreatorTokenFees(uri) { }\n\n\t// Calculate total transaction proceeds\n\tfunction _totalProceeds(uint _tokenId, uint _amount) public view returns (uint256) {//, uint256, uint256) {//[3] memory) {\n\t\t// Compute proceedsRequired (ex-fees)\n\t\tuint proceedsRequired = _buyProceeds(_tokenId, _amount);\n\t\t// Compute feeRequired\n\t\tuint feeRequired = _feeProceeds(proceedsRequired);\n\t\t// Compute total proceeds required\n\t\tuint totalProceeds = proceedsRequired + feeRequired;\n\t\treturn totalProceeds;\n\t}\n\n\t// Calculate proceedsRequired to for a given buy transaction (not including fees)\n\tfunction _buyProceeds(uint _tokenId, uint _amount) public view returns (uint256) {\n\t\t// Initialize proceeds required;\n\t\tuint proceedsRequired = 0;\n\t\t// Initialize pre-transaction supply\n\t\tuint startingSupply = creatorTokens[_tokenId].outstanding;\n\t\t// Compute post-transaction supply\n\t\tuint endSupply = startingSupply + _amount;\n\t\t// Compute buy proceeds\n\t\t// Check if endSupply <= maxSupply\n\t\tif (endSupply < creatorTokens[_tokenId].maxSupply) {\n\t\t\t// Scenario in which entire transaction takes place below maxSupply\n\t\t\t// Just call s(x)\n\t\t\t//proceedsRequired = _saleFunction(startingSupply, _amount, mNumerator, mDenominator, creatorTokens[_tokenId].maxSupply, profitMargin);\n\t\t\tproceedsRequired = _saleFunction(endSupply, _amount, mNumerator, mDenominator, creatorTokens[_tokenId].maxSupply, profitMargin);\n\t\t} else if (startingSupply < creatorTokens[_tokenId].maxSupply){\n\t\t\t// Scenario in which supply begins below maxSupply and ends above pre-transaction maxSupply\n\t\t\t// Use s(x) from startingSupply to maxSupply\n\t\t\tproceedsRequired = _saleFunction(creatorTokens[_tokenId].maxSupply, creatorTokens[_tokenId].maxSupply - startingSupply, mNumerator, mDenominator, creatorTokens[_tokenId].maxSupply, profitMargin);\n\t\t\t// Use b(x) from maxSupply to endSupply\n\t\t\tproceedsRequired += _buyFunction(creatorTokens[_tokenId].maxSupply, _amount - (creatorTokens[_tokenId].maxSupply - startingSupply), mNumerator, mDenominator);\n\t\t} else {\n\t\t\t// Scenario in which transaction begins at maxSupply\n\t\t\t// Just call b(x)\n\t\t\tproceedsRequired = _buyFunction(startingSupply, _amount, mNumerator, mDenominator);\n\t\t}\n\t\t// Return proceeds required\n\t\treturn proceedsRequired;\n\t}\n}",
  "sourcePath": "/Users/kamilalizaisadik/DeFi/Dynamic Automated Market Maker/damm_solidity/contracts/creatortokencomputation.sol",
  "compiler": {
    "name": "solc",
    "version": "0.8.6+commit.11564f7e.Emscripten.clang"
  },
  "schemaVersion": "3.4.1",
  "updatedAt": "2021-07-09T17:26:01.344Z",
  "devdoc": {
    "kind": "dev",
    "methods": {
      "balanceOf(address,uint256)": {
        "details": "See {IERC1155-balanceOf}. Requirements: - `account` cannot be the zero address."
      },
      "balanceOfBatch(address[],uint256[])": {
        "details": "See {IERC1155-balanceOfBatch}. Requirements: - `accounts` and `ids` must have the same length."
      },
      "getRoleAdmin(bytes32)": {
        "details": "Returns the admin role that controls `role`. See {grantRole} and {revokeRole}. To change a role's admin, use {_setRoleAdmin}."
      },
      "getRoleMember(bytes32,uint256)": {
        "details": "Returns one of the accounts that have `role`. `index` must be a value between 0 and {getRoleMemberCount}, non-inclusive. Role bearers are not sorted in any particular way, and their ordering may change at any point. WARNING: When using {getRoleMember} and {getRoleMemberCount}, make sure you perform all queries on the same block. See the following https://forum.openzeppelin.com/t/iterating-over-elements-on-enumerableset-in-openzeppelin-contracts/2296[forum post] for more information."
      },
      "getRoleMemberCount(bytes32)": {
        "details": "Returns the number of accounts that have `role`. Can be used together with {getRoleMember} to enumerate all bearers of a role."
      },
      "grantRole(bytes32,address)": {
        "details": "Overload {grantRole} to track enumerable memberships"
      },
      "hasRole(bytes32,address)": {
        "details": "Returns `true` if `account` has been granted `role`."
      },
      "owner()": {
        "details": "Returns the address of the current owner."
      },
      "pause()": {
        "details": "Pauses all token transfers. See {ERC1155Pausable} and {Pausable-_pause}. Requirements: - the caller must have the `PAUSER_ROLE`."
      },
      "paused()": {
        "details": "Returns true if the contract is paused, and false otherwise."
      },
      "renounceOwnership()": {
        "details": "Leaves the contract without owner. It will not be possible to call `onlyOwner` functions anymore. Can only be called by the current owner. NOTE: Renouncing ownership will leave the contract without an owner, thereby removing any functionality that is only available to the owner."
      },
      "renounceRole(bytes32,address)": {
        "details": "Overload {renounceRole} to track enumerable memberships"
      },
      "revokeRole(bytes32,address)": {
        "details": "Overload {revokeRole} to track enumerable memberships"
      },
      "supportsInterface(bytes4)": {
        "details": "See {IERC165-supportsInterface}."
      },
      "transferOwnership(address)": {
        "details": "Transfers ownership of the contract to a new account (`newOwner`). Can only be called by the current owner."
      },
      "unpause()": {
        "details": "Unpauses all token transfers. See {ERC1155Pausable} and {Pausable-_unpause}. Requirements: - the caller must have the `PAUSER_ROLE`."
      },
      "uri(uint256)": {
        "details": "See {IERC1155MetadataURI-uri}. This implementation returns the same URI for *all* token types. It relies on the token type ID substitution mechanism https://eips.ethereum.org/EIPS/eip-1155#metadata[defined in the EIP]. Clients calling this function must replace the `\\{id\\}` substring with the actual token type ID."
      }
    },
    "version": 1
  },
  "userdoc": {
    "kind": "user",
    "methods": {},
    "version": 1
  }
}