{
  "contractName": "CreatorTokenFees",
  "abi": [
    {
      "inputs": [
        {
          "internalType": "string",
          "name": "uri",
          "type": "string"
        }
      ],
      "stateMutability": "nonpayable",
      "type": "constructor"
    },
    {
      "anonymous": false,
      "inputs": [
        {
          "indexed": true,
          "internalType": "address",
          "name": "account",
          "type": "address"
        },
        {
          "indexed": true,
          "internalType": "address",
          "name": "operator",
          "type": "address"
        },
        {
          "indexed": false,
          "internalType": "bool",
          "name": "approved",
          "type": "bool"
        }
      ],
      "name": "ApprovalForAll",
      "type": "event"
    },
    {
      "anonymous": false,
      "inputs": [
        {
          "indexed": false,
          "internalType": "uint256",
          "name": "tokenId",
          "type": "uint256"
        },
        {
          "indexed": false,
          "internalType": "address payable",
          "name": "creatorAddress",
          "type": "address"
        },
        {
          "indexed": false,
          "internalType": "string",
          "name": "name",
          "type": "string"
        },
        {
          "indexed": false,
          "internalType": "string",
          "name": "symbol",
          "type": "string"
        },
        {
          "indexed": false,
          "internalType": "string",
          "name": "description",
          "type": "string"
        },
        {
          "indexed": false,
          "internalType": "bool",
          "name": "verified",
          "type": "bool"
        },
        {
          "indexed": false,
          "internalType": "uint256",
          "name": "outstanding",
          "type": "uint256"
        },
        {
          "indexed": false,
          "internalType": "uint256",
          "name": "maxSupply",
          "type": "uint256"
        }
      ],
      "name": "NewCreatorToken",
      "type": "event"
    },
    {
      "anonymous": false,
      "inputs": [
        {
          "indexed": true,
          "internalType": "address",
          "name": "previousOwner",
          "type": "address"
        },
        {
          "indexed": true,
          "internalType": "address",
          "name": "newOwner",
          "type": "address"
        }
      ],
      "name": "OwnershipTransferred",
      "type": "event"
    },
    {
      "anonymous": false,
      "inputs": [
        {
          "indexed": true,
          "internalType": "address",
          "name": "operator",
          "type": "address"
        },
        {
          "indexed": true,
          "internalType": "address",
          "name": "from",
          "type": "address"
        },
        {
          "indexed": true,
          "internalType": "address",
          "name": "to",
          "type": "address"
        },
        {
          "indexed": false,
          "internalType": "uint256[]",
          "name": "ids",
          "type": "uint256[]"
        },
        {
          "indexed": false,
          "internalType": "uint256[]",
          "name": "values",
          "type": "uint256[]"
        }
      ],
      "name": "TransferBatch",
      "type": "event"
    },
    {
      "anonymous": false,
      "inputs": [
        {
          "indexed": true,
          "internalType": "address",
          "name": "operator",
          "type": "address"
        },
        {
          "indexed": true,
          "internalType": "address",
          "name": "from",
          "type": "address"
        },
        {
          "indexed": true,
          "internalType": "address",
          "name": "to",
          "type": "address"
        },
        {
          "indexed": false,
          "internalType": "uint256",
          "name": "id",
          "type": "uint256"
        },
        {
          "indexed": false,
          "internalType": "uint256",
          "name": "value",
          "type": "uint256"
        }
      ],
      "name": "TransferSingle",
      "type": "event"
    },
    {
      "anonymous": false,
      "inputs": [
        {
          "indexed": false,
          "internalType": "string",
          "name": "value",
          "type": "string"
        },
        {
          "indexed": true,
          "internalType": "uint256",
          "name": "id",
          "type": "uint256"
        }
      ],
      "name": "URI",
      "type": "event"
    },
    {
      "inputs": [
        {
          "internalType": "address",
          "name": "account",
          "type": "address"
        },
        {
          "internalType": "uint256",
          "name": "id",
          "type": "uint256"
        }
      ],
      "name": "balanceOf",
      "outputs": [
        {
          "internalType": "uint256",
          "name": "",
          "type": "uint256"
        }
      ],
      "stateMutability": "view",
      "type": "function"
    },
    {
      "inputs": [
        {
          "internalType": "address[]",
          "name": "accounts",
          "type": "address[]"
        },
        {
          "internalType": "uint256[]",
          "name": "ids",
          "type": "uint256[]"
        }
      ],
      "name": "balanceOfBatch",
      "outputs": [
        {
          "internalType": "uint256[]",
          "name": "",
          "type": "uint256[]"
        }
      ],
      "stateMutability": "view",
      "type": "function"
    },
    {
      "inputs": [
        {
          "internalType": "uint256",
          "name": "_tokenId",
          "type": "uint256"
        },
        {
          "internalType": "address payable",
          "name": "_newCreatorAddress",
          "type": "address"
        }
      ],
      "name": "changeAddress",
      "outputs": [],
      "stateMutability": "nonpayable",
      "type": "function"
    },
    {
      "inputs": [
        {
          "internalType": "uint256",
          "name": "_tokenId",
          "type": "uint256"
        },
        {
          "internalType": "string",
          "name": "_newDescription",
          "type": "string"
        }
      ],
      "name": "changeDescription",
      "outputs": [],
      "stateMutability": "nonpayable",
      "type": "function"
    },
    {
      "inputs": [
        {
          "internalType": "uint256",
          "name": "_tokenId",
          "type": "uint256"
        },
        {
          "internalType": "string",
          "name": "_newName",
          "type": "string"
        }
      ],
      "name": "changeName",
      "outputs": [],
      "stateMutability": "nonpayable",
      "type": "function"
    },
    {
      "inputs": [
        {
          "internalType": "uint256",
          "name": "_newPlatformFee",
          "type": "uint256"
        }
      ],
      "name": "changePlatformFee",
      "outputs": [],
      "stateMutability": "nonpayable",
      "type": "function"
    },
    {
      "inputs": [
        {
          "internalType": "uint256",
          "name": "_newProfitMargin",
          "type": "uint256"
        }
      ],
      "name": "changeProfitMargin",
      "outputs": [],
      "stateMutability": "nonpayable",
      "type": "function"
    },
    {
      "inputs": [
        {
          "internalType": "uint256",
          "name": "_tokenId",
          "type": "uint256"
        },
        {
          "internalType": "string",
          "name": "_newSymbol",
          "type": "string"
        }
      ],
      "name": "changeSymbol",
      "outputs": [],
      "stateMutability": "nonpayable",
      "type": "function"
    },
    {
      "inputs": [
        {
          "internalType": "uint256",
          "name": "_tokenId",
          "type": "uint256"
        },
        {
          "internalType": "bool",
          "name": "_verified",
          "type": "bool"
        }
      ],
      "name": "changeVerification",
      "outputs": [],
      "stateMutability": "nonpayable",
      "type": "function"
    },
    {
      "inputs": [
        {
          "internalType": "address payable",
          "name": "_creatorAddress",
          "type": "address"
        },
        {
          "internalType": "string",
          "name": "_name",
          "type": "string"
        },
        {
          "internalType": "string",
          "name": "_symbol",
          "type": "string"
        },
        {
          "internalType": "string",
          "name": "_description",
          "type": "string"
        }
      ],
      "name": "createCreatorToken",
      "outputs": [],
      "stateMutability": "nonpayable",
      "type": "function"
    },
    {
      "inputs": [
        {
          "internalType": "uint256",
          "name": "",
          "type": "uint256"
        }
      ],
      "name": "creatorTokens",
      "outputs": [
        {
          "internalType": "address payable",
          "name": "creatorAddress",
          "type": "address"
        },
        {
          "internalType": "string",
          "name": "name",
          "type": "string"
        },
        {
          "internalType": "string",
          "name": "symbol",
          "type": "string"
        },
        {
          "internalType": "string",
          "name": "description",
          "type": "string"
        },
        {
          "internalType": "bool",
          "name": "verified",
          "type": "bool"
        },
        {
          "internalType": "uint256",
          "name": "outstanding",
          "type": "uint256"
        },
        {
          "internalType": "uint256",
          "name": "maxSupply",
          "type": "uint256"
        }
      ],
      "stateMutability": "view",
      "type": "function"
    },
    {
      "inputs": [
        {
          "internalType": "address",
          "name": "_account",
          "type": "address"
        },
        {
          "internalType": "address",
          "name": "_operator",
          "type": "address"
        }
      ],
      "name": "isApprovedForAll",
      "outputs": [
        {
          "internalType": "bool",
          "name": "",
          "type": "bool"
        }
      ],
      "stateMutability": "view",
      "type": "function"
    },
    {
      "inputs": [],
      "name": "owner",
      "outputs": [
        {
          "internalType": "address",
          "name": "",
          "type": "address"
        }
      ],
      "stateMutability": "view",
      "type": "function"
    },
    {
      "inputs": [
        {
          "internalType": "address payable",
          "name": "_owner",
          "type": "address"
        }
      ],
      "name": "payoutPlatformFees",
      "outputs": [],
      "stateMutability": "nonpayable",
      "type": "function"
    },
    {
      "inputs": [],
      "name": "platformFeesOwed",
      "outputs": [
        {
          "internalType": "uint256",
          "name": "",
          "type": "uint256"
        }
      ],
      "stateMutability": "view",
      "type": "function"
    },
    {
      "inputs": [],
      "name": "renounceOwnership",
      "outputs": [],
      "stateMutability": "nonpayable",
      "type": "function"
    },
    {
      "inputs": [
        {
          "internalType": "address",
          "name": "_from",
          "type": "address"
        },
        {
          "internalType": "address",
          "name": "_to",
          "type": "address"
        },
        {
          "internalType": "uint256[]",
          "name": "_ids",
          "type": "uint256[]"
        },
        {
          "internalType": "uint256[]",
          "name": "_amounts",
          "type": "uint256[]"
        },
        {
          "internalType": "bytes",
          "name": "_data",
          "type": "bytes"
        }
      ],
      "name": "safeBatchTransferFrom",
      "outputs": [],
      "stateMutability": "nonpayable",
      "type": "function"
    },
    {
      "inputs": [
        {
          "internalType": "address",
          "name": "_from",
          "type": "address"
        },
        {
          "internalType": "address",
          "name": "_to",
          "type": "address"
        },
        {
          "internalType": "uint256",
          "name": "_id",
          "type": "uint256"
        },
        {
          "internalType": "uint256",
          "name": "_amount",
          "type": "uint256"
        },
        {
          "internalType": "bytes",
          "name": "_data",
          "type": "bytes"
        }
      ],
      "name": "safeTransferFrom",
      "outputs": [],
      "stateMutability": "nonpayable",
      "type": "function"
    },
    {
      "inputs": [
        {
          "internalType": "address",
          "name": "_operator",
          "type": "address"
        },
        {
          "internalType": "bool",
          "name": "_approved",
          "type": "bool"
        }
      ],
      "name": "setApprovalForAll",
      "outputs": [],
      "stateMutability": "nonpayable",
      "type": "function"
    },
    {
      "inputs": [
        {
          "internalType": "bytes4",
          "name": "interfaceId",
          "type": "bytes4"
        }
      ],
      "name": "supportsInterface",
      "outputs": [
        {
          "internalType": "bool",
          "name": "",
          "type": "bool"
        }
      ],
      "stateMutability": "view",
      "type": "function"
    },
    {
      "inputs": [
        {
          "internalType": "uint256",
          "name": "",
          "type": "uint256"
        },
        {
          "internalType": "address",
          "name": "",
          "type": "address"
        }
      ],
      "name": "tokenHoldership",
      "outputs": [
        {
          "internalType": "uint256",
          "name": "",
          "type": "uint256"
        }
      ],
      "stateMutability": "view",
      "type": "function"
    },
    {
      "inputs": [
        {
          "internalType": "uint256",
          "name": "",
          "type": "uint256"
        }
      ],
      "name": "tokenToCreator",
      "outputs": [
        {
          "internalType": "address",
          "name": "",
          "type": "address"
        }
      ],
      "stateMutability": "view",
      "type": "function"
    },
    {
      "inputs": [],
      "name": "totalPlatformFees",
      "outputs": [
        {
          "internalType": "uint256",
          "name": "",
          "type": "uint256"
        }
      ],
      "stateMutability": "view",
      "type": "function"
    },
    {
      "inputs": [
        {
          "internalType": "uint256",
          "name": "",
          "type": "uint256"
        }
      ],
      "name": "totalValueLocked",
      "outputs": [
        {
          "internalType": "uint256",
          "name": "",
          "type": "uint256"
        }
      ],
      "stateMutability": "view",
      "type": "function"
    },
    {
      "inputs": [
        {
          "internalType": "address",
          "name": "newOwner",
          "type": "address"
        }
      ],
      "name": "transferOwnership",
      "outputs": [],
      "stateMutability": "nonpayable",
      "type": "function"
    },
    {
      "inputs": [
        {
          "internalType": "uint256",
          "name": "",
          "type": "uint256"
        }
      ],
      "name": "uri",
      "outputs": [
        {
          "internalType": "string",
          "name": "",
          "type": "string"
        }
      ],
      "stateMutability": "view",
      "type": "function"
    },
    {
      "inputs": [
        {
          "internalType": "address",
          "name": "",
          "type": "address"
        },
        {
          "internalType": "uint256",
          "name": "",
          "type": "uint256"
        }
      ],
      "name": "userToHoldings",
      "outputs": [
        {
          "internalType": "uint256",
          "name": "",
          "type": "uint256"
        }
      ],
      "stateMutability": "view",
      "type": "function"
    },
    {
      "inputs": [
        {
          "internalType": "address payable",
          "name": "_owner",
          "type": "address"
        }
      ],
      "name": "withdraw",
      "outputs": [],
      "stateMutability": "nonpayable",
      "type": "function"
    },
    {
      "inputs": [
        {
          "internalType": "uint256",
          "name": "_proceedsRequired",
          "type": "uint256"
        }
      ],
      "name": "_feeProceeds",
      "outputs": [
        {
          "internalType": "uint256",
          "name": "",
          "type": "uint256"
        }
      ],
      "stateMutability": "view",
      "type": "function"
    }
  ],
  "bytecode": "0x60806040526001805560006002556000600355601460045565082f79cd900060055560b96006553480156200003357600080fd5b50604051620035ab380380620035ab833981810160405281019062000059919062000279565b80808060006200006e6200012760201b60201c565b9050806000806101000a81548173ffffffffffffffffffffffffffffffffffffffff021916908373ffffffffffffffffffffffffffffffffffffffff1602179055508073ffffffffffffffffffffffffffffffffffffffff16600073ffffffffffffffffffffffffffffffffffffffff167f8be0079c531659141344cd1fd0a4f28419497f9722a3daafe3b4186f6b6457e060405160405180910390a3506200011d816200012f60201b60201c565b505050506200044e565b600033905090565b8060109080519060200190620001479291906200014b565b5050565b82805462000159906200035f565b90600052602060002090601f0160209004810192826200017d5760008555620001c9565b82601f106200019857805160ff1916838001178555620001c9565b82800160010185558215620001c9579182015b82811115620001c8578251825591602001919060010190620001ab565b5b509050620001d89190620001dc565b5090565b5b80821115620001f7576000816000905550600101620001dd565b5090565b6000620002126200020c84620002f3565b620002ca565b9050828152602081018484840111156200023157620002306200042e565b5b6200023e84828562000329565b509392505050565b600082601f8301126200025e576200025d62000429565b5b815162000270848260208601620001fb565b91505092915050565b60006020828403121562000292576200029162000438565b5b600082015167ffffffffffffffff811115620002b357620002b262000433565b5b620002c18482850162000246565b91505092915050565b6000620002d6620002e9565b9050620002e4828262000395565b919050565b6000604051905090565b600067ffffffffffffffff821115620003115762000310620003fa565b5b6200031c826200043d565b9050602081019050919050565b60005b83811015620003495780820151818401526020810190506200032c565b8381111562000359576000848401525b50505050565b600060028204905060018216806200037857607f821691505b602082108114156200038f576200038e620003cb565b5b50919050565b620003a0826200043d565b810181811067ffffffffffffffff82111715620003c257620003c1620003fa565b5b80604052505050565b7f4e487b7100000000000000000000000000000000000000000000000000000000600052602260045260246000fd5b7f4e487b7100000000000000000000000000000000000000000000000000000000600052604160045260246000fd5b600080fd5b600080fd5b600080fd5b600080fd5b6000601f19601f8301169050919050565b61314d806200045e6000396000f3fe608060405234801561001057600080fd5b50600436106101ce5760003560e01c8063bfb48c9c11610104578063d7a5791a116100a2578063eb84175911610071578063eb84175914610565578063f242432a14610581578063f2fde38b1461059d578063f7374e2e146105b9576101ce565b8063d7a5791a146104cd578063d9bd3a40146104e9578063de6a06ed14610519578063e985e9c514610535576101ce565b8063c539c317116100de578063c539c31714610441578063ce901d8a1461045d578063d3631fa514610493578063d56b72c7146104b1576101ce565b8063bfb48c9c146103d7578063c1d3304914610407578063c39cbef114610425576101ce565b80634e1273f4116101715780638da5cb5b1161014b5780638da5cb5b1461033d57806392724afa1461035b578063a22cb4651461038b578063ba111a05146103a7576101ce565b80634e1273f4146102e757806351cff8d914610317578063715018a614610333576101ce565b80630e89341c116101ad5780630e89341c1461024f57806318892ae81461027f5780631d5ad18b146102af5780632eb2c2d6146102cb576101ce565b8062fdd58e146101d357806301ffc9a71461020357806306e320f514610233575b600080fd5b6101ed60048036038101906101e89190612452565b6105d5565b6040516101fa91906129ce565b60405180910390f35b61021d6004803603810190610218919061250a565b61069f565b60405161022a9190612911565b60405180910390f35b61024d60048036038101906102489190612624565b610781565b005b61026960048036038101906102649190612537565b610828565b604051610276919061292c565b60405180910390f35b61029960048036038101906102949190612537565b6108bc565b6040516102a69190612819565b60405180910390f35b6102c960048036038101906102c491906125a4565b6108ef565b005b6102e560048036038101906102e091906122ac565b6109c4565b005b61030160048036038101906102fc9190612492565b610b30565b60405161030e91906128b8565b60405180910390f35b610331600480360381019061032c9190612184565b610c49565b005b61033b610d0f565b005b610345610e49565b6040516103529190612819565b60405180910390f35b61037560048036038101906103709190612452565b610e72565b60405161038291906129ce565b60405180910390f35b6103a560048036038101906103a09190612412565b610e97565b005b6103c160048036038101906103bc9190612537565b610f94565b6040516103ce91906129ce565b60405180910390f35b6103f160048036038101906103ec9190612564565b610fb7565b6040516103fe91906129ce565b60405180910390f35b61040f610fdc565b60405161041c91906129ce565b60405180910390f35b61043f600480360381019061043a9190612624565b610fe2565b005b61045b60048036038101906104569190612537565b611089565b005b61047760048036038101906104729190612537565b61110f565b60405161048a9796959493929190612834565b60405180910390f35b61049b611326565b6040516104a891906129ce565b60405180910390f35b6104cb60048036038101906104c691906121b1565b61132c565b005b6104e760048036038101906104e29190612537565b611548565b005b61050360048036038101906104fe9190612537565b6115ce565b60405161051091906129ce565b60405180910390f35b610533600480360381019061052e9190612624565b6115e6565b005b61054f600480360381019061054a919061226c565b61168d565b60405161055c9190612911565b60405180910390f35b61057f600480360381019061057a9190612184565b611721565b005b61059b6004803603810190610596919061237b565b6117f1565b005b6105b760048036038101906105b29190612157565b6118d5565b005b6105d360048036038101906105ce91906125e4565b611a7e565b005b60008073ffffffffffffffffffffffffffffffffffffffff168373ffffffffffffffffffffffffffffffffffffffff161415610646576040517f08c379a000000000000000000000000000000000000000000000000000000000815260040161063d9061294e565b60405180910390fd5b600e600083815260200190815260200160002060008473ffffffffffffffffffffffffffffffffffffffff1673ffffffffffffffffffffffffffffffffffffffff16815260200190815260200160002054905092915050565b60007fd9b67a26000000000000000000000000000000000000000000000000000000007bffffffffffffffffffffffffffffffffffffffffffffffffffffffff1916827bffffffffffffffffffffffffffffffffffffffffffffffffffffffff1916148061076a57507f0e89341c000000000000000000000000000000000000000000000000000000007bffffffffffffffffffffffffffffffffffffffffffffffffffffffff1916827bffffffffffffffffffffffffffffffffffffffffffffffffffffffff1916145b8061077a575061077982611b3b565b5b9050919050565b826008600082815260200190815260200160002060009054906101000a900473ffffffffffffffffffffffffffffffffffffffff1673ffffffffffffffffffffffffffffffffffffffff163373ffffffffffffffffffffffffffffffffffffffff16146107ed57600080fd5b82826007868154811061080357610802612f01565b5b90600052602060002090600702016002019190610821929190611d53565b5050505050565b60606010805461083790612dc8565b80601f016020809104026020016040519081016040528092919081815260200182805461086390612dc8565b80156108b05780601f10610885576101008083540402835291602001916108b0565b820191906000526020600020905b81548152906001019060200180831161089357829003601f168201915b50505050509050919050565b60086020528060005260406000206000915054906101000a900473ffffffffffffffffffffffffffffffffffffffff1681565b816008600082815260200190815260200160002060009054906101000a900473ffffffffffffffffffffffffffffffffffffffff1673ffffffffffffffffffffffffffffffffffffffff163373ffffffffffffffffffffffffffffffffffffffff161461095b57600080fd5b81600784815481106109705761096f612f01565b5b906000526020600020906007020160000160006101000a81548173ffffffffffffffffffffffffffffffffffffffff021916908373ffffffffffffffffffffffffffffffffffffffff160217905550505050565b60005b8351811015610aaa578573ffffffffffffffffffffffffffffffffffffffff163373ffffffffffffffffffffffffffffffffffffffff161480610a105750610a0f868661168d565b5b610a1957600080fd5b610a5886858381518110610a3057610a2f612f01565b5b6020026020010151858481518110610a4b57610a4a612f01565b5b6020026020010151611ba5565b610a9785858381518110610a6f57610a6e612f01565b5b6020026020010151858481518110610a8a57610a89612f01565b5b6020026020010151611c78565b8080610aa290612e2b565b9150506109c7565b508373ffffffffffffffffffffffffffffffffffffffff168573ffffffffffffffffffffffffffffffffffffffff163373ffffffffffffffffffffffffffffffffffffffff167f4a39dc06d4c0dbc64b70af90fd698a233a518aa5d07e595d983b8c0526c8f7fb8686604051610b219291906128da565b60405180910390a45050505050565b60608151835114610b76576040517f08c379a0000000000000000000000000000000000000000000000000000000008152600401610b6d906129ae565b60405180910390fd5b6000835167ffffffffffffffff811115610b9357610b92612f30565b5b604051908082528060200260200182016040528015610bc15781602001602082028036833780820191505090505b50905060005b8451811015610c3e57610c0e858281518110610be657610be5612f01565b5b6020026020010151858381518110610c0157610c00612f01565b5b60200260200101516105d5565b828281518110610c2157610c20612f01565b5b60200260200101818152505080610c3790612e2b565b9050610bc7565b508091505092915050565b610c51611d4b565b73ffffffffffffffffffffffffffffffffffffffff16610c6f610e49565b73ffffffffffffffffffffffffffffffffffffffff1614610cc5576040517f08c379a0000000000000000000000000000000000000000000000000000000008152600401610cbc9061298e565b60405180910390fd5b8073ffffffffffffffffffffffffffffffffffffffff166108fc479081150290604051600060405180830381858888f19350505050158015610d0b573d6000803e3d6000fd5b5050565b610d17611d4b565b73ffffffffffffffffffffffffffffffffffffffff16610d35610e49565b73ffffffffffffffffffffffffffffffffffffffff1614610d8b576040517f08c379a0000000000000000000000000000000000000000000000000000000008152600401610d829061298e565b60405180910390fd5b600073ffffffffffffffffffffffffffffffffffffffff1660008054906101000a900473ffffffffffffffffffffffffffffffffffffffff1673ffffffffffffffffffffffffffffffffffffffff167f8be0079c531659141344cd1fd0a4f28419497f9722a3daafe3b4186f6b6457e060405160405180910390a360008060006101000a81548173ffffffffffffffffffffffffffffffffffffffff021916908373ffffffffffffffffffffffffffffffffffffffff160217905550565b60008060009054906101000a900473ffffffffffffffffffffffffffffffffffffffff16905090565b600b602052816000526040600020602052806000526040600020600091509150505481565b80600c60003373ffffffffffffffffffffffffffffffffffffffff1673ffffffffffffffffffffffffffffffffffffffff16815260200190815260200160002060008473ffffffffffffffffffffffffffffffffffffffff1673ffffffffffffffffffffffffffffffffffffffff16815260200190815260200160002060006101000a81548160ff0219169083151502179055508173ffffffffffffffffffffffffffffffffffffffff163373ffffffffffffffffffffffffffffffffffffffff167f17307eab39ab6107e8899845ad3d59bd9653f200f220920489ca2b5937696c3183604051610f889190612911565b60405180910390a35050565b6000606460015483610fa69190612c60565b610fb09190612c2f565b9050919050565b600a602052816000526040600020602052806000526040600020600091509150505481565b60035481565b826008600082815260200190815260200160002060009054906101000a900473ffffffffffffffffffffffffffffffffffffffff1673ffffffffffffffffffffffffffffffffffffffff163373ffffffffffffffffffffffffffffffffffffffff161461104e57600080fd5b82826007868154811061106457611063612f01565b5b90600052602060002090600702016001019190611082929190611d53565b5050505050565b611091611d4b565b73ffffffffffffffffffffffffffffffffffffffff166110af610e49565b73ffffffffffffffffffffffffffffffffffffffff1614611105576040517f08c379a00000000000000000000000000000000000000000000000000000000081526004016110fc9061298e565b60405180910390fd5b8060048190555050565b6007818154811061111f57600080fd5b90600052602060002090600702016000915090508060000160009054906101000a900473ffffffffffffffffffffffffffffffffffffffff169080600101805461116890612dc8565b80601f016020809104026020016040519081016040528092919081815260200182805461119490612dc8565b80156111e15780601f106111b6576101008083540402835291602001916111e1565b820191906000526020600020905b8154815290600101906020018083116111c457829003601f168201915b5050505050908060020180546111f690612dc8565b80601f016020809104026020016040519081016040528092919081815260200182805461122290612dc8565b801561126f5780601f106112445761010080835404028352916020019161126f565b820191906000526020600020905b81548152906001019060200180831161125257829003601f168201915b50505050509080600301805461128490612dc8565b80601f01602080910402602001604051908101604052809291908181526020018280546112b090612dc8565b80156112fd5780601f106112d2576101008083540402835291602001916112fd565b820191906000526020600020905b8154815290600101906020018083116112e057829003601f168201915b5050505050908060040160009054906101000a900460ff16908060050154908060060154905087565b60025481565b60076040518060e001604052808673ffffffffffffffffffffffffffffffffffffffff168152602001858152602001848152602001838152602001600015158152602001600081526020016000815250908060018154018082558091505060019003906000526020600020906007020160009091909190915060008201518160000160006101000a81548173ffffffffffffffffffffffffffffffffffffffff021916908373ffffffffffffffffffffffffffffffffffffffff1602179055506020820151816001019080519060200190611408929190611dd9565b506040820151816002019080519060200190611425929190611dd9565b506060820151816003019080519060200190611442929190611dd9565b5060808201518160040160006101000a81548160ff02191690831515021790555060a0820151816005015560c0820151816006015550506000600160078054905061148d9190612cba565b9050846008600083815260200190815260200160002060006101000a81548173ffffffffffffffffffffffffffffffffffffffff021916908373ffffffffffffffffffffffffffffffffffffffff160217905550600060096000838152602001908152602001600020819055507f3ef624c0f3fb7ad40b94c02078ea3e3a797dbfc21e921ee4bd2b8ad0ca6aa113818686868660008060006040516115399897969594939291906129e9565b60405180910390a15050505050565b611550611d4b565b73ffffffffffffffffffffffffffffffffffffffff1661156e610e49565b73ffffffffffffffffffffffffffffffffffffffff16146115c4576040517f08c379a00000000000000000000000000000000000000000000000000000000081526004016115bb9061298e565b60405180910390fd5b8060018190555050565b600d6020528060005260406000206000915090505481565b826008600082815260200190815260200160002060009054906101000a900473ffffffffffffffffffffffffffffffffffffffff1673ffffffffffffffffffffffffffffffffffffffff163373ffffffffffffffffffffffffffffffffffffffff161461165257600080fd5b82826007868154811061166857611667612f01565b5b90600052602060002090600702016003019190611686929190611d53565b5050505050565b6000600c60008473ffffffffffffffffffffffffffffffffffffffff1673ffffffffffffffffffffffffffffffffffffffff16815260200190815260200160002060008373ffffffffffffffffffffffffffffffffffffffff1673ffffffffffffffffffffffffffffffffffffffff16815260200190815260200160002060009054906101000a900460ff16905092915050565b611729611d4b565b73ffffffffffffffffffffffffffffffffffffffff16611747610e49565b73ffffffffffffffffffffffffffffffffffffffff161461179d576040517f08c379a00000000000000000000000000000000000000000000000000000000081526004016117949061298e565b60405180910390fd5b8073ffffffffffffffffffffffffffffffffffffffff166108fc6003549081150290604051600060405180830381858888f193505050501580156117e5573d6000803e3d6000fd5b50600060038190555050565b8473ffffffffffffffffffffffffffffffffffffffff163373ffffffffffffffffffffffffffffffffffffffff1614806118315750611830858561168d565b5b61183a57600080fd5b611845858484611ba5565b611850848484611c78565b8373ffffffffffffffffffffffffffffffffffffffff168573ffffffffffffffffffffffffffffffffffffffff163373ffffffffffffffffffffffffffffffffffffffff167fc3d58168c5ae7397731d063d5bbf3d657854427343f4c083240f7aacaa2d0f6286866040516118c6929190612a7c565b60405180910390a45050505050565b6118dd611d4b565b73ffffffffffffffffffffffffffffffffffffffff166118fb610e49565b73ffffffffffffffffffffffffffffffffffffffff1614611951576040517f08c379a00000000000000000000000000000000000000000000000000000000081526004016119489061298e565b60405180910390fd5b600073ffffffffffffffffffffffffffffffffffffffff168173ffffffffffffffffffffffffffffffffffffffff1614156119c1576040517f08c379a00000000000000000000000000000000000000000000000000000000081526004016119b89061296e565b60405180910390fd5b8073ffffffffffffffffffffffffffffffffffffffff1660008054906101000a900473ffffffffffffffffffffffffffffffffffffffff1673ffffffffffffffffffffffffffffffffffffffff167f8be0079c531659141344cd1fd0a4f28419497f9722a3daafe3b4186f6b6457e060405160405180910390a3806000806101000a81548173ffffffffffffffffffffffffffffffffffffffff021916908373ffffffffffffffffffffffffffffffffffffffff16021790555050565b611a86611d4b565b73ffffffffffffffffffffffffffffffffffffffff16611aa4610e49565b73ffffffffffffffffffffffffffffffffffffffff1614611afa576040517f08c379a0000000000000000000000000000000000000000000000000000000008152600401611af19061298e565b60405180910390fd5b8060078381548110611b0f57611b0e612f01565b5b906000526020600020906007020160040160006101000a81548160ff0219169083151502179055505050565b60007f01ffc9a7000000000000000000000000000000000000000000000000000000007bffffffffffffffffffffffffffffffffffffffffffffffffffffffff1916827bffffffffffffffffffffffffffffffffffffffffffffffffffffffff1916149050919050565b80600a600084815260200190815260200160002060008573ffffffffffffffffffffffffffffffffffffffff1673ffffffffffffffffffffffffffffffffffffffff1681526020019081526020016000206000828254611c059190612cba565b9250508190555080600b60008573ffffffffffffffffffffffffffffffffffffffff1673ffffffffffffffffffffffffffffffffffffffff16815260200190815260200160002060008481526020019081526020016000206000828254611c6c9190612cba565b92505081905550505050565b80600a600084815260200190815260200160002060008573ffffffffffffffffffffffffffffffffffffffff1673ffffffffffffffffffffffffffffffffffffffff1681526020019081526020016000206000828254611cd89190612bd9565b9250508190555080600b60008573ffffffffffffffffffffffffffffffffffffffff1673ffffffffffffffffffffffffffffffffffffffff16815260200190815260200160002060008481526020019081526020016000206000828254611d3f9190612bd9565b92505081905550505050565b600033905090565b828054611d5f90612dc8565b90600052602060002090601f016020900481019282611d815760008555611dc8565b82601f10611d9a57803560ff1916838001178555611dc8565b82800160010185558215611dc8579182015b82811115611dc7578235825591602001919060010190611dac565b5b509050611dd59190611e5f565b5090565b828054611de590612dc8565b90600052602060002090601f016020900481019282611e075760008555611e4e565b82601f10611e2057805160ff1916838001178555611e4e565b82800160010185558215611e4e579182015b82811115611e4d578251825591602001919060010190611e32565b5b509050611e5b9190611e5f565b5090565b5b80821115611e78576000816000905550600101611e60565b5090565b6000611e8f611e8a84612aca565b612aa5565b90508083825260208201905082856020860282011115611eb257611eb1612f69565b5b60005b85811015611ee25781611ec88882611fe0565b845260208401935060208301925050600181019050611eb5565b5050509392505050565b6000611eff611efa84612af6565b612aa5565b90508083825260208201905082856020860282011115611f2257611f21612f69565b5b60005b85811015611f525781611f388882612142565b845260208401935060208301925050600181019050611f25565b5050509392505050565b6000611f6f611f6a84612b22565b612aa5565b905082815260208101848484011115611f8b57611f8a612f6e565b5b611f96848285612d86565b509392505050565b6000611fb1611fac84612b53565b612aa5565b905082815260208101848484011115611fcd57611fcc612f6e565b5b611fd8848285612d86565b509392505050565b600081359050611fef816130a4565b92915050565b600081359050612004816130bb565b92915050565b600082601f83011261201f5761201e612f64565b5b813561202f848260208601611e7c565b91505092915050565b600082601f83011261204d5761204c612f64565b5b813561205d848260208601611eec565b91505092915050565b600081359050612075816130d2565b92915050565b60008135905061208a816130e9565b92915050565b600082601f8301126120a5576120a4612f64565b5b81356120b5848260208601611f5c565b91505092915050565b60008083601f8401126120d4576120d3612f64565b5b8235905067ffffffffffffffff8111156120f1576120f0612f5f565b5b60208301915083600182028301111561210d5761210c612f69565b5b9250929050565b600082601f83011261212957612128612f64565b5b8135612139848260208601611f9e565b91505092915050565b60008135905061215181613100565b92915050565b60006020828403121561216d5761216c612f78565b5b600061217b84828501611fe0565b91505092915050565b60006020828403121561219a57612199612f78565b5b60006121a884828501611ff5565b91505092915050565b600080600080608085870312156121cb576121ca612f78565b5b60006121d987828801611ff5565b945050602085013567ffffffffffffffff8111156121fa576121f9612f73565b5b61220687828801612114565b935050604085013567ffffffffffffffff81111561222757612226612f73565b5b61223387828801612114565b925050606085013567ffffffffffffffff81111561225457612253612f73565b5b61226087828801612114565b91505092959194509250565b6000806040838503121561228357612282612f78565b5b600061229185828601611fe0565b92505060206122a285828601611fe0565b9150509250929050565b600080600080600060a086880312156122c8576122c7612f78565b5b60006122d688828901611fe0565b95505060206122e788828901611fe0565b945050604086013567ffffffffffffffff81111561230857612307612f73565b5b61231488828901612038565b935050606086013567ffffffffffffffff81111561233557612334612f73565b5b61234188828901612038565b925050608086013567ffffffffffffffff81111561236257612361612f73565b5b61236e88828901612090565b9150509295509295909350565b600080600080600060a0868803121561239757612396612f78565b5b60006123a588828901611fe0565b95505060206123b688828901611fe0565b94505060406123c788828901612142565b93505060606123d888828901612142565b925050608086013567ffffffffffffffff8111156123f9576123f8612f73565b5b61240588828901612090565b9150509295509295909350565b6000806040838503121561242957612428612f78565b5b600061243785828601611fe0565b925050602061244885828601612066565b9150509250929050565b6000806040838503121561246957612468612f78565b5b600061247785828601611fe0565b925050602061248885828601612142565b9150509250929050565b600080604083850312156124a9576124a8612f78565b5b600083013567ffffffffffffffff8111156124c7576124c6612f73565b5b6124d38582860161200a565b925050602083013567ffffffffffffffff8111156124f4576124f3612f73565b5b61250085828601612038565b9150509250929050565b6000602082840312156125205761251f612f78565b5b600061252e8482850161207b565b91505092915050565b60006020828403121561254d5761254c612f78565b5b600061255b84828501612142565b91505092915050565b6000806040838503121561257b5761257a612f78565b5b600061258985828601612142565b925050602061259a85828601611fe0565b9150509250929050565b600080604083850312156125bb576125ba612f78565b5b60006125c985828601612142565b92505060206125da85828601611ff5565b9150509250929050565b600080604083850312156125fb576125fa612f78565b5b600061260985828601612142565b925050602061261a85828601612066565b9150509250929050565b60008060006040848603121561263d5761263c612f78565b5b600061264b86828701612142565b935050602084013567ffffffffffffffff81111561266c5761266b612f73565b5b612678868287016120be565b92509250509250925092565b600061269083836127fb565b60208301905092915050565b6126a581612d00565b82525050565b6126b481612cee565b82525050565b60006126c582612b94565b6126cf8185612bb7565b93506126da83612b84565b8060005b8381101561270b5781516126f28882612684565b97506126fd83612baa565b9250506001810190506126de565b5085935050505092915050565b61272181612d12565b82525050565b61273081612d74565b82525050565b600061274182612b9f565b61274b8185612bc8565b935061275b818560208601612d95565b61276481612f7d565b840191505092915050565b600061277c602b83612bc8565b915061278782612f8e565b604082019050919050565b600061279f602683612bc8565b91506127aa82612fdd565b604082019050919050565b60006127c2602083612bc8565b91506127cd8261302c565b602082019050919050565b60006127e5602983612bc8565b91506127f082613055565b604082019050919050565b61280481612d6a565b82525050565b61281381612d6a565b82525050565b600060208201905061282e60008301846126ab565b92915050565b600060e082019050612849600083018a61269c565b818103602083015261285b8189612736565b9050818103604083015261286f8188612736565b905081810360608301526128838187612736565b90506128926080830186612718565b61289f60a083018561280a565b6128ac60c083018461280a565b98975050505050505050565b600060208201905081810360008301526128d281846126ba565b905092915050565b600060408201905081810360008301526128f481856126ba565b9050818103602083015261290881846126ba565b90509392505050565b60006020820190506129266000830184612718565b92915050565b600060208201905081810360008301526129468184612736565b905092915050565b600060208201905081810360008301526129678161276f565b9050919050565b6000602082019050818103600083015261298781612792565b9050919050565b600060208201905081810360008301526129a7816127b5565b9050919050565b600060208201905081810360008301526129c7816127d8565b9050919050565b60006020820190506129e3600083018461280a565b92915050565b6000610100820190506129ff600083018b61280a565b612a0c602083018a61269c565b8181036040830152612a1e8189612736565b90508181036060830152612a328188612736565b90508181036080830152612a468187612736565b9050612a5560a0830186612718565b612a6260c0830185612727565b612a6f60e0830184612727565b9998505050505050505050565b6000604082019050612a91600083018561280a565b612a9e602083018461280a565b9392505050565b6000612aaf612ac0565b9050612abb8282612dfa565b919050565b6000604051905090565b600067ffffffffffffffff821115612ae557612ae4612f30565b5b602082029050602081019050919050565b600067ffffffffffffffff821115612b1157612b10612f30565b5b602082029050602081019050919050565b600067ffffffffffffffff821115612b3d57612b3c612f30565b5b612b4682612f7d565b9050602081019050919050565b600067ffffffffffffffff821115612b6e57612b6d612f30565b5b612b7782612f7d565b9050602081019050919050565b6000819050602082019050919050565b600081519050919050565b600081519050919050565b6000602082019050919050565b600082825260208201905092915050565b600082825260208201905092915050565b6000612be482612d6a565b9150612bef83612d6a565b9250827fffffffffffffffffffffffffffffffffffffffffffffffffffffffffffffffff03821115612c2457612c23612e74565b5b828201905092915050565b6000612c3a82612d6a565b9150612c4583612d6a565b925082612c5557612c54612ea3565b5b828204905092915050565b6000612c6b82612d6a565b9150612c7683612d6a565b9250817fffffffffffffffffffffffffffffffffffffffffffffffffffffffffffffffff0483118215151615612caf57612cae612e74565b5b828202905092915050565b6000612cc582612d6a565b9150612cd083612d6a565b925082821015612ce357612ce2612e74565b5b828203905092915050565b6000612cf982612d4a565b9050919050565b6000612d0b82612d4a565b9050919050565b60008115159050919050565b60007fffffffff0000000000000000000000000000000000000000000000000000000082169050919050565b600073ffffffffffffffffffffffffffffffffffffffff82169050919050565b6000819050919050565b6000612d7f82612d6a565b9050919050565b82818337600083830152505050565b60005b83811015612db3578082015181840152602081019050612d98565b83811115612dc2576000848401525b50505050565b60006002820490506001821680612de057607f821691505b60208210811415612df457612df3612ed2565b5b50919050565b612e0382612f7d565b810181811067ffffffffffffffff82111715612e2257612e21612f30565b5b80604052505050565b6000612e3682612d6a565b91507fffffffffffffffffffffffffffffffffffffffffffffffffffffffffffffffff821415612e6957612e68612e74565b5b600182019050919050565b7f4e487b7100000000000000000000000000000000000000000000000000000000600052601160045260246000fd5b7f4e487b7100000000000000000000000000000000000000000000000000000000600052601260045260246000fd5b7f4e487b7100000000000000000000000000000000000000000000000000000000600052602260045260246000fd5b7f4e487b7100000000000000000000000000000000000000000000000000000000600052603260045260246000fd5b7f4e487b7100000000000000000000000000000000000000000000000000000000600052604160045260246000fd5b600080fd5b600080fd5b600080fd5b600080fd5b600080fd5b600080fd5b6000601f19601f8301169050919050565b7f455243313135353a2062616c616e636520717565727920666f7220746865207a60008201527f65726f2061646472657373000000000000000000000000000000000000000000602082015250565b7f4f776e61626c653a206e6577206f776e657220697320746865207a65726f206160008201527f6464726573730000000000000000000000000000000000000000000000000000602082015250565b7f4f776e61626c653a2063616c6c6572206973206e6f7420746865206f776e6572600082015250565b7f455243313135353a206163636f756e747320616e6420696473206c656e67746860008201527f206d69736d617463680000000000000000000000000000000000000000000000602082015250565b6130ad81612cee565b81146130b857600080fd5b50565b6130c481612d00565b81146130cf57600080fd5b50565b6130db81612d12565b81146130e657600080fd5b50565b6130f281612d1e565b81146130fd57600080fd5b50565b61310981612d6a565b811461311457600080fd5b5056fea26469706673582212204985739c3612189e57680e09da96ab8262f435ecce3679cf923312ba3ef7183064736f6c63430008060033",
  "immutableReferences": {},
  "source": "// SPDX-License-Identifier: MIT\npragma solidity ^0.8.0;\n\nimport \"./creatortokenformulas.sol\";\n\n/// @title Computation of fees owed to platform, and payout of creator\n/// @author Kamil Alizai Sadik\ncontract CreatorTokenFees is CreatorTokenFormulas {\n\n\tconstructor(string memory uri) CreatorTokenFormulas(uri) { }\n\n\t/// @dev Calculates the fee associated with a buy transaction\n\t/// @param _proceedsRequired The proceeds required for the buy transaction (before addition of fees)\n\t/// @return Fee associated with transaction\n\tfunction _feeProceeds(uint _proceedsRequired) public view returns (uint256) {\n\t\treturn _proceedsRequired*platformFee/100;\n\t}\n\n\t/// @dev Updates platform fee tracker mappings\n\t/// @param _fee Fee being added to the tracker\n\tfunction _platformFeeUpdater(uint _fee) internal {\n\t\ttotalPlatformFees += _fee;\n\t\tplatformFeesOwed += _fee;\n\t}\n\n\t/// @dev Transfers excess liquidity to the creator (triggered only when a CreatorToken hits a new maxSupply)\n\t/// @param _tokenId ID of the token in question\n\t/// @param _creatorAddress Wallet address of the creator of the token\n\tfunction _payCreator(uint _tokenId, address payable _creatorAddress) internal {\n\t\t// Create a variable showing excess liquidity that has already been transferred out of this token's liquidity pool\n\t\tuint alreadyTransferred = tokenValueTransferred[_tokenId];\n\t\t// Initialize totalProfit\n\t\tuint totalProfit = 0;\n\t\t// Calculate totalProfit (area between b(x) and s(x) from 0 to maxSupply)\n\t\ttotalProfit = _buyFunction(0, creatorTokens[_tokenId].maxSupply, mNumerator, mDenominator) - _saleFunction(creatorTokens[_tokenId].maxSupply, creatorTokens[_tokenId].maxSupply, mNumerator, mDenominator, creatorTokens[_tokenId].maxSupply, profitMargin);\n\t\t// Calculate creator's new profit created from new excess liquidity created\n\t\tuint newProfit = totalProfit - alreadyTransferred;\n\t\t// Transfer newProfit wei to creator\n\t\t_creatorAddress.transfer(newProfit);\n\t\t// Update amount of value transferred to creator\n\t\ttokenValueTransferred[_tokenId] = totalProfit;\n\t}\n}",
  "sourcePath": "/Users/kamilalizaisadik/DeFi/Dynamic Automated Market Maker/CreatorTokenExchange/contracts/creatortokenfees.sol",
  "compiler": {
    "name": "solc",
    "version": "0.8.6+commit.11564f7e.Emscripten.clang"
  },
  "schemaVersion": "3.4.1",
  "updatedAt": "2021-07-15T01:06:12.890Z",
  "devdoc": {
    "author": "Kamil Alizai Sadik",
    "kind": "dev",
    "methods": {
      "_feeProceeds(uint256)": {
        "details": "Calculates the fee associated with a buy transaction",
        "params": {
          "_proceedsRequired": "The proceeds required for the buy transaction (before addition of fees)"
        },
        "returns": {
          "_0": "Fee associated with transaction"
        }
      },
      "balanceOf(address,uint256)": {
        "details": "See {IERC1155-balanceOf}. Requirements: - `account` cannot be the zero address."
      },
      "balanceOfBatch(address[],uint256[])": {
        "details": "See {IERC1155-balanceOfBatch}. Requirements: - `accounts` and `ids` must have the same length."
      },
      "changeAddress(uint256,address)": {
        "details": "Allows token creator to change their address",
        "params": {
          "_newCreatorAddress": "New creator address associated with the token",
          "_tokenId": "ID of the token in question"
        }
      },
      "changeDescription(uint256,string)": {
        "details": "Allows token creator to change the description of their token",
        "params": {
          "_newDescription": "New description associated with the token",
          "_tokenId": "ID of the token in question"
        }
      },
      "changeName(uint256,string)": {
        "details": "Allows token creator to change the name of their token",
        "params": {
          "_newName": "New name associated with the token",
          "_tokenId": "ID of the token in question"
        }
      },
      "changePlatformFee(uint256)": {
        "details": "Allows owner to change platformFee",
        "params": {
          "_newPlatformFee": "New platform fee"
        }
      },
      "changeProfitMargin(uint256)": {
        "details": "Allows owner to change profit_margin",
        "params": {
          "_newProfitMargin": "New profit margin"
        }
      },
      "changeSymbol(uint256,string)": {
        "details": "Allows token creator to change the symbol of their token",
        "params": {
          "_newSymbol": "New symbol associated with the token",
          "_tokenId": "ID of the token in question"
        }
      },
      "changeVerification(uint256,bool)": {
        "details": "Allows owner to verify (or undo verification) of a CreatorToken",
        "params": {
          "_tokenId": "ID of the token in question",
          "_verified": "Verification status of the token in question"
        }
      },
      "createCreatorToken(address,string,string,string)": {
        "details": "Creates a new creator token",
        "params": {
          "_creatorAddress": "Address of the creator of the token",
          "_description": "chosen by the creator of the tokens",
          "_name": "Name chosen by the creator of the token",
          "_symbol": "Ticker symbol chosen by the creator of the token"
        }
      },
      "isApprovedForAll(address,address)": {
        "details": "Denotes whether operator is approved to transfer account's tokens",
        "params": {
          "_account": "Wallet address holding tokens",
          "_operator": "Wallet address which is/isn't approved to transfer _account's tokens"
        },
        "returns": {
          "_0": "Boolean value indicating approval status"
        }
      },
      "owner()": {
        "details": "Returns the address of the current owner."
      },
      "payoutPlatformFees(address)": {
        "details": "Pays out platform fees owed to owner (might opt to call this daily)",
        "params": {
          "_owner": "Owner of the smart contract"
        }
      },
      "renounceOwnership()": {
        "details": "Leaves the contract without owner. It will not be possible to call `onlyOwner` functions anymore. Can only be called by the current owner. NOTE: Renouncing ownership will leave the contract without an owner, thereby removing any functionality that is only available to the owner."
      },
      "safeBatchTransferFrom(address,address,uint256[],uint256[],bytes)": {
        "details": "Transfers a batch of tokens",
        "params": {
          "_amounts": "Array of quantities of token to be transferred",
          "_data": "Data",
          "_from": "Address token is being transferred from",
          "_ids": "Array of IDs of tokens being transferred",
          "_to": "Address token is being transferred to"
        }
      },
      "safeTransferFrom(address,address,uint256,uint256,bytes)": {
        "details": "Transfers a token",
        "params": {
          "_amount": "Quantity of token to be transferred",
          "_data": "Data",
          "_from": "Address token is being transferred from",
          "_id": "ID of token being transferred",
          "_to": "Address token is being transferred to"
        }
      },
      "setApprovalForAll(address,bool)": {
        "details": "Gives operator permission to transfer caller's tokens",
        "params": {
          "_approved": "Boolean value indicating whether operator is approved",
          "_operator": "Wallet address being granted permission"
        }
      },
      "supportsInterface(bytes4)": {
        "details": "See {IERC165-supportsInterface}."
      },
      "transferOwnership(address)": {
        "details": "Transfers ownership of the contract to a new account (`newOwner`). Can only be called by the current owner."
      },
      "uri(uint256)": {
        "details": "See {IERC1155MetadataURI-uri}. This implementation returns the same URI for *all* token types. It relies on the token type ID substitution mechanism https://eips.ethereum.org/EIPS/eip-1155#metadata[defined in the EIP]. Clients calling this function must replace the `\\{id\\}` substring with the actual token type ID."
      },
      "withdraw(address)": {
        "details": "Ownable function allowing for withdrawal",
        "params": {
          "_owner": "Owner of the smart contract"
        }
      }
    },
    "title": "Computation of fees owed to platform, and payout of creator",
    "version": 1
  },
  "userdoc": {
    "kind": "user",
    "methods": {},
    "version": 1
  }
}