{
  "contractName": "CreatorTokenFees",
  "abi": [
    {
      "inputs": [
        {
          "internalType": "string",
          "name": "uri",
          "type": "string"
        }
      ],
      "stateMutability": "nonpayable",
      "type": "constructor"
    },
    {
      "anonymous": false,
      "inputs": [
        {
          "indexed": true,
          "internalType": "address",
          "name": "account",
          "type": "address"
        },
        {
          "indexed": true,
          "internalType": "address",
          "name": "operator",
          "type": "address"
        },
        {
          "indexed": false,
          "internalType": "bool",
          "name": "approved",
          "type": "bool"
        }
      ],
      "name": "ApprovalForAll",
      "type": "event"
    },
    {
      "anonymous": false,
      "inputs": [
        {
          "indexed": false,
          "internalType": "uint256",
          "name": "tokenId",
          "type": "uint256"
        },
        {
          "indexed": false,
          "internalType": "address payable",
          "name": "creatorAddress",
          "type": "address"
        },
        {
          "indexed": false,
          "internalType": "string",
          "name": "name",
          "type": "string"
        },
        {
          "indexed": false,
          "internalType": "string",
          "name": "symbol",
          "type": "string"
        },
        {
          "indexed": false,
          "internalType": "string",
          "name": "description",
          "type": "string"
        },
        {
          "indexed": false,
          "internalType": "bool",
          "name": "verified",
          "type": "bool"
        },
        {
          "indexed": false,
          "internalType": "uint256",
          "name": "outstanding",
          "type": "uint256"
        },
        {
          "indexed": false,
          "internalType": "uint256",
          "name": "maxSupply",
          "type": "uint256"
        }
      ],
      "name": "NewCreatorToken",
      "type": "event"
    },
    {
      "anonymous": false,
      "inputs": [
        {
          "indexed": true,
          "internalType": "address",
          "name": "previousOwner",
          "type": "address"
        },
        {
          "indexed": true,
          "internalType": "address",
          "name": "newOwner",
          "type": "address"
        }
      ],
      "name": "OwnershipTransferred",
      "type": "event"
    },
    {
      "anonymous": false,
      "inputs": [
        {
          "indexed": true,
          "internalType": "address",
          "name": "operator",
          "type": "address"
        },
        {
          "indexed": true,
          "internalType": "address",
          "name": "from",
          "type": "address"
        },
        {
          "indexed": true,
          "internalType": "address",
          "name": "to",
          "type": "address"
        },
        {
          "indexed": false,
          "internalType": "uint256[]",
          "name": "ids",
          "type": "uint256[]"
        },
        {
          "indexed": false,
          "internalType": "uint256[]",
          "name": "values",
          "type": "uint256[]"
        }
      ],
      "name": "TransferBatch",
      "type": "event"
    },
    {
      "anonymous": false,
      "inputs": [
        {
          "indexed": true,
          "internalType": "address",
          "name": "operator",
          "type": "address"
        },
        {
          "indexed": true,
          "internalType": "address",
          "name": "from",
          "type": "address"
        },
        {
          "indexed": true,
          "internalType": "address",
          "name": "to",
          "type": "address"
        },
        {
          "indexed": false,
          "internalType": "uint256",
          "name": "id",
          "type": "uint256"
        },
        {
          "indexed": false,
          "internalType": "uint256",
          "name": "value",
          "type": "uint256"
        }
      ],
      "name": "TransferSingle",
      "type": "event"
    },
    {
      "anonymous": false,
      "inputs": [
        {
          "indexed": false,
          "internalType": "string",
          "name": "value",
          "type": "string"
        },
        {
          "indexed": true,
          "internalType": "uint256",
          "name": "id",
          "type": "uint256"
        }
      ],
      "name": "URI",
      "type": "event"
    },
    {
      "inputs": [
        {
          "internalType": "address",
          "name": "account",
          "type": "address"
        },
        {
          "internalType": "uint256",
          "name": "id",
          "type": "uint256"
        }
      ],
      "name": "balanceOf",
      "outputs": [
        {
          "internalType": "uint256",
          "name": "",
          "type": "uint256"
        }
      ],
      "stateMutability": "view",
      "type": "function"
    },
    {
      "inputs": [
        {
          "internalType": "address[]",
          "name": "accounts",
          "type": "address[]"
        },
        {
          "internalType": "uint256[]",
          "name": "ids",
          "type": "uint256[]"
        }
      ],
      "name": "balanceOfBatch",
      "outputs": [
        {
          "internalType": "uint256[]",
          "name": "",
          "type": "uint256[]"
        }
      ],
      "stateMutability": "view",
      "type": "function"
    },
    {
      "inputs": [
        {
          "internalType": "uint256",
          "name": "_tokenId",
          "type": "uint256"
        },
        {
          "internalType": "address payable",
          "name": "_newCreatorAddress",
          "type": "address"
        }
      ],
      "name": "changeAddress",
      "outputs": [],
      "stateMutability": "nonpayable",
      "type": "function"
    },
    {
      "inputs": [
        {
          "internalType": "uint256",
          "name": "_tokenId",
          "type": "uint256"
        },
        {
          "internalType": "string",
          "name": "_newDescription",
          "type": "string"
        }
      ],
      "name": "changeDescription",
      "outputs": [],
      "stateMutability": "nonpayable",
      "type": "function"
    },
    {
      "inputs": [
        {
          "internalType": "uint256",
          "name": "_tokenId",
          "type": "uint256"
        },
        {
          "internalType": "string",
          "name": "_newName",
          "type": "string"
        }
      ],
      "name": "changeName",
      "outputs": [],
      "stateMutability": "nonpayable",
      "type": "function"
    },
    {
      "inputs": [
        {
          "internalType": "uint256",
          "name": "_newPlatformFee",
          "type": "uint256"
        }
      ],
      "name": "changePlatformFee",
      "outputs": [],
      "stateMutability": "nonpayable",
      "type": "function"
    },
    {
      "inputs": [
        {
          "internalType": "uint256",
          "name": "_newProfitMargin",
          "type": "uint256"
        }
      ],
      "name": "changeProfitMargin",
      "outputs": [],
      "stateMutability": "nonpayable",
      "type": "function"
    },
    {
      "inputs": [
        {
          "internalType": "uint256",
          "name": "_tokenId",
          "type": "uint256"
        },
        {
          "internalType": "string",
          "name": "_newSymbol",
          "type": "string"
        }
      ],
      "name": "changeSymbol",
      "outputs": [],
      "stateMutability": "nonpayable",
      "type": "function"
    },
    {
      "inputs": [
        {
          "internalType": "uint256",
          "name": "_tokenId",
          "type": "uint256"
        },
        {
          "internalType": "bool",
          "name": "_verified",
          "type": "bool"
        }
      ],
      "name": "changeVerification",
      "outputs": [],
      "stateMutability": "nonpayable",
      "type": "function"
    },
    {
      "inputs": [
        {
          "internalType": "address payable",
          "name": "_creatorAddress",
          "type": "address"
        },
        {
          "internalType": "string",
          "name": "_name",
          "type": "string"
        },
        {
          "internalType": "string",
          "name": "_symbol",
          "type": "string"
        },
        {
          "internalType": "string",
          "name": "_description",
          "type": "string"
        }
      ],
      "name": "createCreatorToken",
      "outputs": [],
      "stateMutability": "nonpayable",
      "type": "function"
    },
    {
      "inputs": [
        {
          "internalType": "uint256",
          "name": "",
          "type": "uint256"
        }
      ],
      "name": "creatorTokens",
      "outputs": [
        {
          "internalType": "address payable",
          "name": "creatorAddress",
          "type": "address"
        },
        {
          "internalType": "string",
          "name": "name",
          "type": "string"
        },
        {
          "internalType": "string",
          "name": "symbol",
          "type": "string"
        },
        {
          "internalType": "string",
          "name": "description",
          "type": "string"
        },
        {
          "internalType": "bool",
          "name": "verified",
          "type": "bool"
        },
        {
          "internalType": "uint256",
          "name": "outstanding",
          "type": "uint256"
        },
        {
          "internalType": "uint256",
          "name": "maxSupply",
          "type": "uint256"
        }
      ],
      "stateMutability": "view",
      "type": "function"
    },
    {
      "inputs": [
        {
          "internalType": "address",
          "name": "_account",
          "type": "address"
        },
        {
          "internalType": "address",
          "name": "_operator",
          "type": "address"
        }
      ],
      "name": "isApprovedForAll",
      "outputs": [
        {
          "internalType": "bool",
          "name": "",
          "type": "bool"
        }
      ],
      "stateMutability": "view",
      "type": "function"
    },
    {
      "inputs": [],
      "name": "owner",
      "outputs": [
        {
          "internalType": "address",
          "name": "",
          "type": "address"
        }
      ],
      "stateMutability": "view",
      "type": "function"
    },
    {
      "inputs": [
        {
          "internalType": "address payable",
          "name": "_owner",
          "type": "address"
        }
      ],
      "name": "payoutPlatformFees",
      "outputs": [],
      "stateMutability": "nonpayable",
      "type": "function"
    },
    {
      "inputs": [],
      "name": "renounceOwnership",
      "outputs": [],
      "stateMutability": "nonpayable",
      "type": "function"
    },
    {
      "inputs": [
        {
          "internalType": "address",
          "name": "_from",
          "type": "address"
        },
        {
          "internalType": "address",
          "name": "_to",
          "type": "address"
        },
        {
          "internalType": "uint256[]",
          "name": "_ids",
          "type": "uint256[]"
        },
        {
          "internalType": "uint256[]",
          "name": "_amounts",
          "type": "uint256[]"
        },
        {
          "internalType": "bytes",
          "name": "data",
          "type": "bytes"
        }
      ],
      "name": "safeBatchTransferFrom",
      "outputs": [],
      "stateMutability": "nonpayable",
      "type": "function"
    },
    {
      "inputs": [
        {
          "internalType": "address",
          "name": "_from",
          "type": "address"
        },
        {
          "internalType": "address",
          "name": "_to",
          "type": "address"
        },
        {
          "internalType": "uint256",
          "name": "_id",
          "type": "uint256"
        },
        {
          "internalType": "uint256",
          "name": "_amount",
          "type": "uint256"
        },
        {
          "internalType": "bytes",
          "name": "_data",
          "type": "bytes"
        }
      ],
      "name": "safeTransferFrom",
      "outputs": [],
      "stateMutability": "nonpayable",
      "type": "function"
    },
    {
      "inputs": [
        {
          "internalType": "address",
          "name": "_operator",
          "type": "address"
        },
        {
          "internalType": "bool",
          "name": "_approved",
          "type": "bool"
        }
      ],
      "name": "setApprovalForAll",
      "outputs": [],
      "stateMutability": "nonpayable",
      "type": "function"
    },
    {
      "inputs": [
        {
          "internalType": "bytes4",
          "name": "interfaceId",
          "type": "bytes4"
        }
      ],
      "name": "supportsInterface",
      "outputs": [
        {
          "internalType": "bool",
          "name": "",
          "type": "bool"
        }
      ],
      "stateMutability": "view",
      "type": "function"
    },
    {
      "inputs": [
        {
          "internalType": "uint256",
          "name": "",
          "type": "uint256"
        },
        {
          "internalType": "address",
          "name": "",
          "type": "address"
        }
      ],
      "name": "tokenHoldership",
      "outputs": [
        {
          "internalType": "uint256",
          "name": "",
          "type": "uint256"
        }
      ],
      "stateMutability": "view",
      "type": "function"
    },
    {
      "inputs": [
        {
          "internalType": "uint256",
          "name": "",
          "type": "uint256"
        }
      ],
      "name": "tokenToCreator",
      "outputs": [
        {
          "internalType": "address",
          "name": "",
          "type": "address"
        }
      ],
      "stateMutability": "view",
      "type": "function"
    },
    {
      "inputs": [
        {
          "internalType": "address",
          "name": "newOwner",
          "type": "address"
        }
      ],
      "name": "transferOwnership",
      "outputs": [],
      "stateMutability": "nonpayable",
      "type": "function"
    },
    {
      "inputs": [
        {
          "internalType": "uint256",
          "name": "",
          "type": "uint256"
        }
      ],
      "name": "uri",
      "outputs": [
        {
          "internalType": "string",
          "name": "",
          "type": "string"
        }
      ],
      "stateMutability": "view",
      "type": "function"
    },
    {
      "inputs": [
        {
          "internalType": "address",
          "name": "",
          "type": "address"
        },
        {
          "internalType": "uint256",
          "name": "",
          "type": "uint256"
        }
      ],
      "name": "userToHoldings",
      "outputs": [
        {
          "internalType": "uint256",
          "name": "",
          "type": "uint256"
        }
      ],
      "stateMutability": "view",
      "type": "function"
    },
    {
      "inputs": [
        {
          "internalType": "address payable",
          "name": "_owner",
          "type": "address"
        }
      ],
      "name": "withdraw",
      "outputs": [],
      "stateMutability": "nonpayable",
      "type": "function"
    },
    {
      "inputs": [
        {
          "internalType": "uint256",
          "name": "_proceedsRequired",
          "type": "uint256"
        }
      ],
      "name": "_feeProceeds",
      "outputs": [
        {
          "internalType": "uint256",
          "name": "",
          "type": "uint256"
        }
      ],
      "stateMutability": "view",
      "type": "function"
    }
  ],
  "bytecode": "0x60806040526001805560006002556000600355601460045565082f79cd900060055560b96006553480156200003357600080fd5b50604051620034da380380620034da833981810160405281019062000059919062000279565b80808060006200006e6200012760201b60201c565b9050806000806101000a81548173ffffffffffffffffffffffffffffffffffffffff021916908373ffffffffffffffffffffffffffffffffffffffff1602179055508073ffffffffffffffffffffffffffffffffffffffff16600073ffffffffffffffffffffffffffffffffffffffff167f8be0079c531659141344cd1fd0a4f28419497f9722a3daafe3b4186f6b6457e060405160405180910390a3506200011d816200012f60201b60201c565b505050506200044e565b600033905090565b80600f9080519060200190620001479291906200014b565b5050565b82805462000159906200035f565b90600052602060002090601f0160209004810192826200017d5760008555620001c9565b82601f106200019857805160ff1916838001178555620001c9565b82800160010185558215620001c9579182015b82811115620001c8578251825591602001919060010190620001ab565b5b509050620001d89190620001dc565b5090565b5b80821115620001f7576000816000905550600101620001dd565b5090565b6000620002126200020c84620002f3565b620002ca565b9050828152602081018484840111156200023157620002306200042e565b5b6200023e84828562000329565b509392505050565b600082601f8301126200025e576200025d62000429565b5b815162000270848260208601620001fb565b91505092915050565b60006020828403121562000292576200029162000438565b5b600082015167ffffffffffffffff811115620002b357620002b262000433565b5b620002c18482850162000246565b91505092915050565b6000620002d6620002e9565b9050620002e4828262000395565b919050565b6000604051905090565b600067ffffffffffffffff821115620003115762000310620003fa565b5b6200031c826200043d565b9050602081019050919050565b60005b83811015620003495780820151818401526020810190506200032c565b8381111562000359576000848401525b50505050565b600060028204905060018216806200037857607f821691505b602082108114156200038f576200038e620003cb565b5b50919050565b620003a0826200043d565b810181811067ffffffffffffffff82111715620003c257620003c1620003fa565b5b80604052505050565b7f4e487b7100000000000000000000000000000000000000000000000000000000600052602260045260246000fd5b7f4e487b7100000000000000000000000000000000000000000000000000000000600052604160045260246000fd5b600080fd5b600080fd5b600080fd5b600080fd5b6000601f19601f8301169050919050565b61307c806200045e6000396000f3fe608060405234801561001057600080fd5b506004361061018d5760003560e01c8063ba111a05116100de578063d7a5791a11610097578063eb84175911610071578063eb841759146104b8578063f242432a146104d4578063f2fde38b146104f0578063f7374e2e1461050c5761018d565b8063d7a5791a14610450578063de6a06ed1461046c578063e985e9c5146104885761018d565b8063ba111a0514610366578063bfb48c9c14610396578063c39cbef1146103c6578063c539c317146103e2578063ce901d8a146103fe578063d56b72c7146104345761018d565b80632eb2c2d61161014b578063715018a611610125578063715018a6146102f25780638da5cb5b146102fc57806392724afa1461031a578063a22cb4651461034a5761018d565b80632eb2c2d61461028a5780634e1273f4146102a657806351cff8d9146102d65761018d565b8062fdd58e1461019257806301ffc9a7146101c257806306e320f5146101f25780630e89341c1461020e57806318892ae81461023e5780631d5ad18b1461026e575b600080fd5b6101ac60048036038101906101a79190612381565b610528565b6040516101b991906128fd565b60405180910390f35b6101dc60048036038101906101d79190612439565b6105f2565b6040516101e99190612840565b60405180910390f35b61020c60048036038101906102079190612553565b6106d4565b005b61022860048036038101906102239190612466565b61077b565b604051610235919061285b565b60405180910390f35b61025860048036038101906102539190612466565b61080f565b6040516102659190612748565b60405180910390f35b610288600480360381019061028391906124d3565b610842565b005b6102a4600480360381019061029f91906121db565b610917565b005b6102c060048036038101906102bb91906123c1565b610a83565b6040516102cd91906127e7565b60405180910390f35b6102f060048036038101906102eb91906120b3565b610b9c565b005b6102fa610c62565b005b610304610d9c565b6040516103119190612748565b60405180910390f35b610334600480360381019061032f9190612381565b610dc5565b60405161034191906128fd565b60405180910390f35b610364600480360381019061035f9190612341565b610dea565b005b610380600480360381019061037b9190612466565b610ee7565b60405161038d91906128fd565b60405180910390f35b6103b060048036038101906103ab9190612493565b610f0a565b6040516103bd91906128fd565b60405180910390f35b6103e060048036038101906103db9190612553565b610f2f565b005b6103fc60048036038101906103f79190612466565b610fd6565b005b61041860048036038101906104139190612466565b61105c565b60405161042b9796959493929190612763565b60405180910390f35b61044e600480360381019061044991906120e0565b611273565b005b61046a60048036038101906104659190612466565b61148f565b005b61048660048036038101906104819190612553565b611515565b005b6104a2600480360381019061049d919061219b565b6115bc565b6040516104af9190612840565b60405180910390f35b6104d260048036038101906104cd91906120b3565b611650565b005b6104ee60048036038101906104e991906122aa565b611720565b005b61050a60048036038101906105059190612086565b611804565b005b61052660048036038101906105219190612513565b6119ad565b005b60008073ffffffffffffffffffffffffffffffffffffffff168373ffffffffffffffffffffffffffffffffffffffff161415610599576040517f08c379a00000000000000000000000000000000000000000000000000000000081526004016105909061287d565b60405180910390fd5b600d600083815260200190815260200160002060008473ffffffffffffffffffffffffffffffffffffffff1673ffffffffffffffffffffffffffffffffffffffff16815260200190815260200160002054905092915050565b60007fd9b67a26000000000000000000000000000000000000000000000000000000007bffffffffffffffffffffffffffffffffffffffffffffffffffffffff1916827bffffffffffffffffffffffffffffffffffffffffffffffffffffffff191614806106bd57507f0e89341c000000000000000000000000000000000000000000000000000000007bffffffffffffffffffffffffffffffffffffffffffffffffffffffff1916827bffffffffffffffffffffffffffffffffffffffffffffffffffffffff1916145b806106cd57506106cc82611a6a565b5b9050919050565b826008600082815260200190815260200160002060009054906101000a900473ffffffffffffffffffffffffffffffffffffffff1673ffffffffffffffffffffffffffffffffffffffff163373ffffffffffffffffffffffffffffffffffffffff161461074057600080fd5b82826007868154811061075657610755612e30565b5b90600052602060002090600702016002019190610774929190611c82565b5050505050565b6060600f805461078a90612cf7565b80601f01602080910402602001604051908101604052809291908181526020018280546107b690612cf7565b80156108035780601f106107d857610100808354040283529160200191610803565b820191906000526020600020905b8154815290600101906020018083116107e657829003601f168201915b50505050509050919050565b60086020528060005260406000206000915054906101000a900473ffffffffffffffffffffffffffffffffffffffff1681565b816008600082815260200190815260200160002060009054906101000a900473ffffffffffffffffffffffffffffffffffffffff1673ffffffffffffffffffffffffffffffffffffffff163373ffffffffffffffffffffffffffffffffffffffff16146108ae57600080fd5b81600784815481106108c3576108c2612e30565b5b906000526020600020906007020160000160006101000a81548173ffffffffffffffffffffffffffffffffffffffff021916908373ffffffffffffffffffffffffffffffffffffffff160217905550505050565b60005b83518110156109fd578573ffffffffffffffffffffffffffffffffffffffff163373ffffffffffffffffffffffffffffffffffffffff161480610963575061096286866115bc565b5b61096c57600080fd5b6109ab8685838151811061098357610982612e30565b5b602002602001015185848151811061099e5761099d612e30565b5b6020026020010151611ad4565b6109ea858583815181106109c2576109c1612e30565b5b60200260200101518584815181106109dd576109dc612e30565b5b6020026020010151611ba7565b80806109f590612d5a565b91505061091a565b508373ffffffffffffffffffffffffffffffffffffffff168573ffffffffffffffffffffffffffffffffffffffff163373ffffffffffffffffffffffffffffffffffffffff167f4a39dc06d4c0dbc64b70af90fd698a233a518aa5d07e595d983b8c0526c8f7fb8686604051610a74929190612809565b60405180910390a45050505050565b60608151835114610ac9576040517f08c379a0000000000000000000000000000000000000000000000000000000008152600401610ac0906128dd565b60405180910390fd5b6000835167ffffffffffffffff811115610ae657610ae5612e5f565b5b604051908082528060200260200182016040528015610b145781602001602082028036833780820191505090505b50905060005b8451811015610b9157610b61858281518110610b3957610b38612e30565b5b6020026020010151858381518110610b5457610b53612e30565b5b6020026020010151610528565b828281518110610b7457610b73612e30565b5b60200260200101818152505080610b8a90612d5a565b9050610b1a565b508091505092915050565b610ba4611c7a565b73ffffffffffffffffffffffffffffffffffffffff16610bc2610d9c565b73ffffffffffffffffffffffffffffffffffffffff1614610c18576040517f08c379a0000000000000000000000000000000000000000000000000000000008152600401610c0f906128bd565b60405180910390fd5b8073ffffffffffffffffffffffffffffffffffffffff166108fc479081150290604051600060405180830381858888f19350505050158015610c5e573d6000803e3d6000fd5b5050565b610c6a611c7a565b73ffffffffffffffffffffffffffffffffffffffff16610c88610d9c565b73ffffffffffffffffffffffffffffffffffffffff1614610cde576040517f08c379a0000000000000000000000000000000000000000000000000000000008152600401610cd5906128bd565b60405180910390fd5b600073ffffffffffffffffffffffffffffffffffffffff1660008054906101000a900473ffffffffffffffffffffffffffffffffffffffff1673ffffffffffffffffffffffffffffffffffffffff167f8be0079c531659141344cd1fd0a4f28419497f9722a3daafe3b4186f6b6457e060405160405180910390a360008060006101000a81548173ffffffffffffffffffffffffffffffffffffffff021916908373ffffffffffffffffffffffffffffffffffffffff160217905550565b60008060009054906101000a900473ffffffffffffffffffffffffffffffffffffffff16905090565b600b602052816000526040600020602052806000526040600020600091509150505481565b80600c60003373ffffffffffffffffffffffffffffffffffffffff1673ffffffffffffffffffffffffffffffffffffffff16815260200190815260200160002060008473ffffffffffffffffffffffffffffffffffffffff1673ffffffffffffffffffffffffffffffffffffffff16815260200190815260200160002060006101000a81548160ff0219169083151502179055508173ffffffffffffffffffffffffffffffffffffffff163373ffffffffffffffffffffffffffffffffffffffff167f17307eab39ab6107e8899845ad3d59bd9653f200f220920489ca2b5937696c3183604051610edb9190612840565b60405180910390a35050565b6000606460015483610ef99190612b8f565b610f039190612b5e565b9050919050565b600a602052816000526040600020602052806000526040600020600091509150505481565b826008600082815260200190815260200160002060009054906101000a900473ffffffffffffffffffffffffffffffffffffffff1673ffffffffffffffffffffffffffffffffffffffff163373ffffffffffffffffffffffffffffffffffffffff1614610f9b57600080fd5b828260078681548110610fb157610fb0612e30565b5b90600052602060002090600702016001019190610fcf929190611c82565b5050505050565b610fde611c7a565b73ffffffffffffffffffffffffffffffffffffffff16610ffc610d9c565b73ffffffffffffffffffffffffffffffffffffffff1614611052576040517f08c379a0000000000000000000000000000000000000000000000000000000008152600401611049906128bd565b60405180910390fd5b8060048190555050565b6007818154811061106c57600080fd5b90600052602060002090600702016000915090508060000160009054906101000a900473ffffffffffffffffffffffffffffffffffffffff16908060010180546110b590612cf7565b80601f01602080910402602001604051908101604052809291908181526020018280546110e190612cf7565b801561112e5780601f106111035761010080835404028352916020019161112e565b820191906000526020600020905b81548152906001019060200180831161111157829003601f168201915b50505050509080600201805461114390612cf7565b80601f016020809104026020016040519081016040528092919081815260200182805461116f90612cf7565b80156111bc5780601f10611191576101008083540402835291602001916111bc565b820191906000526020600020905b81548152906001019060200180831161119f57829003601f168201915b5050505050908060030180546111d190612cf7565b80601f01602080910402602001604051908101604052809291908181526020018280546111fd90612cf7565b801561124a5780601f1061121f5761010080835404028352916020019161124a565b820191906000526020600020905b81548152906001019060200180831161122d57829003601f168201915b5050505050908060040160009054906101000a900460ff16908060050154908060060154905087565b60076040518060e001604052808673ffffffffffffffffffffffffffffffffffffffff168152602001858152602001848152602001838152602001600015158152602001600081526020016000815250908060018154018082558091505060019003906000526020600020906007020160009091909190915060008201518160000160006101000a81548173ffffffffffffffffffffffffffffffffffffffff021916908373ffffffffffffffffffffffffffffffffffffffff160217905550602082015181600101908051906020019061134f929190611d08565b50604082015181600201908051906020019061136c929190611d08565b506060820151816003019080519060200190611389929190611d08565b5060808201518160040160006101000a81548160ff02191690831515021790555060a0820151816005015560c082015181600601555050600060016007805490506113d49190612be9565b9050846008600083815260200190815260200160002060006101000a81548173ffffffffffffffffffffffffffffffffffffffff021916908373ffffffffffffffffffffffffffffffffffffffff160217905550600060096000838152602001908152602001600020819055507f3ef624c0f3fb7ad40b94c02078ea3e3a797dbfc21e921ee4bd2b8ad0ca6aa11381868686866000806000604051611480989796959493929190612918565b60405180910390a15050505050565b611497611c7a565b73ffffffffffffffffffffffffffffffffffffffff166114b5610d9c565b73ffffffffffffffffffffffffffffffffffffffff161461150b576040517f08c379a0000000000000000000000000000000000000000000000000000000008152600401611502906128bd565b60405180910390fd5b8060018190555050565b826008600082815260200190815260200160002060009054906101000a900473ffffffffffffffffffffffffffffffffffffffff1673ffffffffffffffffffffffffffffffffffffffff163373ffffffffffffffffffffffffffffffffffffffff161461158157600080fd5b82826007868154811061159757611596612e30565b5b906000526020600020906007020160030191906115b5929190611c82565b5050505050565b6000600c60008473ffffffffffffffffffffffffffffffffffffffff1673ffffffffffffffffffffffffffffffffffffffff16815260200190815260200160002060008373ffffffffffffffffffffffffffffffffffffffff1673ffffffffffffffffffffffffffffffffffffffff16815260200190815260200160002060009054906101000a900460ff16905092915050565b611658611c7a565b73ffffffffffffffffffffffffffffffffffffffff16611676610d9c565b73ffffffffffffffffffffffffffffffffffffffff16146116cc576040517f08c379a00000000000000000000000000000000000000000000000000000000081526004016116c3906128bd565b60405180910390fd5b8073ffffffffffffffffffffffffffffffffffffffff166108fc6003549081150290604051600060405180830381858888f19350505050158015611714573d6000803e3d6000fd5b50600060038190555050565b8473ffffffffffffffffffffffffffffffffffffffff163373ffffffffffffffffffffffffffffffffffffffff161480611760575061175f85856115bc565b5b61176957600080fd5b611774858484611ad4565b61177f848484611ba7565b8373ffffffffffffffffffffffffffffffffffffffff168573ffffffffffffffffffffffffffffffffffffffff163373ffffffffffffffffffffffffffffffffffffffff167fc3d58168c5ae7397731d063d5bbf3d657854427343f4c083240f7aacaa2d0f6286866040516117f59291906129ab565b60405180910390a45050505050565b61180c611c7a565b73ffffffffffffffffffffffffffffffffffffffff1661182a610d9c565b73ffffffffffffffffffffffffffffffffffffffff1614611880576040517f08c379a0000000000000000000000000000000000000000000000000000000008152600401611877906128bd565b60405180910390fd5b600073ffffffffffffffffffffffffffffffffffffffff168173ffffffffffffffffffffffffffffffffffffffff1614156118f0576040517f08c379a00000000000000000000000000000000000000000000000000000000081526004016118e79061289d565b60405180910390fd5b8073ffffffffffffffffffffffffffffffffffffffff1660008054906101000a900473ffffffffffffffffffffffffffffffffffffffff1673ffffffffffffffffffffffffffffffffffffffff167f8be0079c531659141344cd1fd0a4f28419497f9722a3daafe3b4186f6b6457e060405160405180910390a3806000806101000a81548173ffffffffffffffffffffffffffffffffffffffff021916908373ffffffffffffffffffffffffffffffffffffffff16021790555050565b6119b5611c7a565b73ffffffffffffffffffffffffffffffffffffffff166119d3610d9c565b73ffffffffffffffffffffffffffffffffffffffff1614611a29576040517f08c379a0000000000000000000000000000000000000000000000000000000008152600401611a20906128bd565b60405180910390fd5b8060078381548110611a3e57611a3d612e30565b5b906000526020600020906007020160040160006101000a81548160ff0219169083151502179055505050565b60007f01ffc9a7000000000000000000000000000000000000000000000000000000007bffffffffffffffffffffffffffffffffffffffffffffffffffffffff1916827bffffffffffffffffffffffffffffffffffffffffffffffffffffffff1916149050919050565b80600a600084815260200190815260200160002060008573ffffffffffffffffffffffffffffffffffffffff1673ffffffffffffffffffffffffffffffffffffffff1681526020019081526020016000206000828254611b349190612be9565b9250508190555080600b60008573ffffffffffffffffffffffffffffffffffffffff1673ffffffffffffffffffffffffffffffffffffffff16815260200190815260200160002060008481526020019081526020016000206000828254611b9b9190612be9565b92505081905550505050565b80600a600084815260200190815260200160002060008573ffffffffffffffffffffffffffffffffffffffff1673ffffffffffffffffffffffffffffffffffffffff1681526020019081526020016000206000828254611c079190612b08565b9250508190555080600b60008573ffffffffffffffffffffffffffffffffffffffff1673ffffffffffffffffffffffffffffffffffffffff16815260200190815260200160002060008481526020019081526020016000206000828254611c6e9190612b08565b92505081905550505050565b600033905090565b828054611c8e90612cf7565b90600052602060002090601f016020900481019282611cb05760008555611cf7565b82601f10611cc957803560ff1916838001178555611cf7565b82800160010185558215611cf7579182015b82811115611cf6578235825591602001919060010190611cdb565b5b509050611d049190611d8e565b5090565b828054611d1490612cf7565b90600052602060002090601f016020900481019282611d365760008555611d7d565b82601f10611d4f57805160ff1916838001178555611d7d565b82800160010185558215611d7d579182015b82811115611d7c578251825591602001919060010190611d61565b5b509050611d8a9190611d8e565b5090565b5b80821115611da7576000816000905550600101611d8f565b5090565b6000611dbe611db9846129f9565b6129d4565b90508083825260208201905082856020860282011115611de157611de0612e98565b5b60005b85811015611e115781611df78882611f0f565b845260208401935060208301925050600181019050611de4565b5050509392505050565b6000611e2e611e2984612a25565b6129d4565b90508083825260208201905082856020860282011115611e5157611e50612e98565b5b60005b85811015611e815781611e678882612071565b845260208401935060208301925050600181019050611e54565b5050509392505050565b6000611e9e611e9984612a51565b6129d4565b905082815260208101848484011115611eba57611eb9612e9d565b5b611ec5848285612cb5565b509392505050565b6000611ee0611edb84612a82565b6129d4565b905082815260208101848484011115611efc57611efb612e9d565b5b611f07848285612cb5565b509392505050565b600081359050611f1e81612fd3565b92915050565b600081359050611f3381612fea565b92915050565b600082601f830112611f4e57611f4d612e93565b5b8135611f5e848260208601611dab565b91505092915050565b600082601f830112611f7c57611f7b612e93565b5b8135611f8c848260208601611e1b565b91505092915050565b600081359050611fa481613001565b92915050565b600081359050611fb981613018565b92915050565b600082601f830112611fd457611fd3612e93565b5b8135611fe4848260208601611e8b565b91505092915050565b60008083601f84011261200357612002612e93565b5b8235905067ffffffffffffffff8111156120205761201f612e8e565b5b60208301915083600182028301111561203c5761203b612e98565b5b9250929050565b600082601f83011261205857612057612e93565b5b8135612068848260208601611ecd565b91505092915050565b6000813590506120808161302f565b92915050565b60006020828403121561209c5761209b612ea7565b5b60006120aa84828501611f0f565b91505092915050565b6000602082840312156120c9576120c8612ea7565b5b60006120d784828501611f24565b91505092915050565b600080600080608085870312156120fa576120f9612ea7565b5b600061210887828801611f24565b945050602085013567ffffffffffffffff81111561212957612128612ea2565b5b61213587828801612043565b935050604085013567ffffffffffffffff81111561215657612155612ea2565b5b61216287828801612043565b925050606085013567ffffffffffffffff81111561218357612182612ea2565b5b61218f87828801612043565b91505092959194509250565b600080604083850312156121b2576121b1612ea7565b5b60006121c085828601611f0f565b92505060206121d185828601611f0f565b9150509250929050565b600080600080600060a086880312156121f7576121f6612ea7565b5b600061220588828901611f0f565b955050602061221688828901611f0f565b945050604086013567ffffffffffffffff81111561223757612236612ea2565b5b61224388828901611f67565b935050606086013567ffffffffffffffff81111561226457612263612ea2565b5b61227088828901611f67565b925050608086013567ffffffffffffffff81111561229157612290612ea2565b5b61229d88828901611fbf565b9150509295509295909350565b600080600080600060a086880312156122c6576122c5612ea7565b5b60006122d488828901611f0f565b95505060206122e588828901611f0f565b94505060406122f688828901612071565b935050606061230788828901612071565b925050608086013567ffffffffffffffff81111561232857612327612ea2565b5b61233488828901611fbf565b9150509295509295909350565b6000806040838503121561235857612357612ea7565b5b600061236685828601611f0f565b925050602061237785828601611f95565b9150509250929050565b6000806040838503121561239857612397612ea7565b5b60006123a685828601611f0f565b92505060206123b785828601612071565b9150509250929050565b600080604083850312156123d8576123d7612ea7565b5b600083013567ffffffffffffffff8111156123f6576123f5612ea2565b5b61240285828601611f39565b925050602083013567ffffffffffffffff81111561242357612422612ea2565b5b61242f85828601611f67565b9150509250929050565b60006020828403121561244f5761244e612ea7565b5b600061245d84828501611faa565b91505092915050565b60006020828403121561247c5761247b612ea7565b5b600061248a84828501612071565b91505092915050565b600080604083850312156124aa576124a9612ea7565b5b60006124b885828601612071565b92505060206124c985828601611f0f565b9150509250929050565b600080604083850312156124ea576124e9612ea7565b5b60006124f885828601612071565b925050602061250985828601611f24565b9150509250929050565b6000806040838503121561252a57612529612ea7565b5b600061253885828601612071565b925050602061254985828601611f95565b9150509250929050565b60008060006040848603121561256c5761256b612ea7565b5b600061257a86828701612071565b935050602084013567ffffffffffffffff81111561259b5761259a612ea2565b5b6125a786828701611fed565b92509250509250925092565b60006125bf838361272a565b60208301905092915050565b6125d481612c2f565b82525050565b6125e381612c1d565b82525050565b60006125f482612ac3565b6125fe8185612ae6565b935061260983612ab3565b8060005b8381101561263a57815161262188826125b3565b975061262c83612ad9565b92505060018101905061260d565b5085935050505092915050565b61265081612c41565b82525050565b61265f81612ca3565b82525050565b600061267082612ace565b61267a8185612af7565b935061268a818560208601612cc4565b61269381612eac565b840191505092915050565b60006126ab602b83612af7565b91506126b682612ebd565b604082019050919050565b60006126ce602683612af7565b91506126d982612f0c565b604082019050919050565b60006126f1602083612af7565b91506126fc82612f5b565b602082019050919050565b6000612714602983612af7565b915061271f82612f84565b604082019050919050565b61273381612c99565b82525050565b61274281612c99565b82525050565b600060208201905061275d60008301846125da565b92915050565b600060e082019050612778600083018a6125cb565b818103602083015261278a8189612665565b9050818103604083015261279e8188612665565b905081810360608301526127b28187612665565b90506127c16080830186612647565b6127ce60a0830185612739565b6127db60c0830184612739565b98975050505050505050565b6000602082019050818103600083015261280181846125e9565b905092915050565b6000604082019050818103600083015261282381856125e9565b9050818103602083015261283781846125e9565b90509392505050565b60006020820190506128556000830184612647565b92915050565b600060208201905081810360008301526128758184612665565b905092915050565b600060208201905081810360008301526128968161269e565b9050919050565b600060208201905081810360008301526128b6816126c1565b9050919050565b600060208201905081810360008301526128d6816126e4565b9050919050565b600060208201905081810360008301526128f681612707565b9050919050565b60006020820190506129126000830184612739565b92915050565b60006101008201905061292e600083018b612739565b61293b602083018a6125cb565b818103604083015261294d8189612665565b905081810360608301526129618188612665565b905081810360808301526129758187612665565b905061298460a0830186612647565b61299160c0830185612656565b61299e60e0830184612656565b9998505050505050505050565b60006040820190506129c06000830185612739565b6129cd6020830184612739565b9392505050565b60006129de6129ef565b90506129ea8282612d29565b919050565b6000604051905090565b600067ffffffffffffffff821115612a1457612a13612e5f565b5b602082029050602081019050919050565b600067ffffffffffffffff821115612a4057612a3f612e5f565b5b602082029050602081019050919050565b600067ffffffffffffffff821115612a6c57612a6b612e5f565b5b612a7582612eac565b9050602081019050919050565b600067ffffffffffffffff821115612a9d57612a9c612e5f565b5b612aa682612eac565b9050602081019050919050565b6000819050602082019050919050565b600081519050919050565b600081519050919050565b6000602082019050919050565b600082825260208201905092915050565b600082825260208201905092915050565b6000612b1382612c99565b9150612b1e83612c99565b9250827fffffffffffffffffffffffffffffffffffffffffffffffffffffffffffffffff03821115612b5357612b52612da3565b5b828201905092915050565b6000612b6982612c99565b9150612b7483612c99565b925082612b8457612b83612dd2565b5b828204905092915050565b6000612b9a82612c99565b9150612ba583612c99565b9250817fffffffffffffffffffffffffffffffffffffffffffffffffffffffffffffffff0483118215151615612bde57612bdd612da3565b5b828202905092915050565b6000612bf482612c99565b9150612bff83612c99565b925082821015612c1257612c11612da3565b5b828203905092915050565b6000612c2882612c79565b9050919050565b6000612c3a82612c79565b9050919050565b60008115159050919050565b60007fffffffff0000000000000000000000000000000000000000000000000000000082169050919050565b600073ffffffffffffffffffffffffffffffffffffffff82169050919050565b6000819050919050565b6000612cae82612c99565b9050919050565b82818337600083830152505050565b60005b83811015612ce2578082015181840152602081019050612cc7565b83811115612cf1576000848401525b50505050565b60006002820490506001821680612d0f57607f821691505b60208210811415612d2357612d22612e01565b5b50919050565b612d3282612eac565b810181811067ffffffffffffffff82111715612d5157612d50612e5f565b5b80604052505050565b6000612d6582612c99565b91507fffffffffffffffffffffffffffffffffffffffffffffffffffffffffffffffff821415612d9857612d97612da3565b5b600182019050919050565b7f4e487b7100000000000000000000000000000000000000000000000000000000600052601160045260246000fd5b7f4e487b7100000000000000000000000000000000000000000000000000000000600052601260045260246000fd5b7f4e487b7100000000000000000000000000000000000000000000000000000000600052602260045260246000fd5b7f4e487b7100000000000000000000000000000000000000000000000000000000600052603260045260246000fd5b7f4e487b7100000000000000000000000000000000000000000000000000000000600052604160045260246000fd5b600080fd5b600080fd5b600080fd5b600080fd5b600080fd5b600080fd5b6000601f19601f8301169050919050565b7f455243313135353a2062616c616e636520717565727920666f7220746865207a60008201527f65726f2061646472657373000000000000000000000000000000000000000000602082015250565b7f4f776e61626c653a206e6577206f776e657220697320746865207a65726f206160008201527f6464726573730000000000000000000000000000000000000000000000000000602082015250565b7f4f776e61626c653a2063616c6c6572206973206e6f7420746865206f776e6572600082015250565b7f455243313135353a206163636f756e747320616e6420696473206c656e67746860008201527f206d69736d617463680000000000000000000000000000000000000000000000602082015250565b612fdc81612c1d565b8114612fe757600080fd5b50565b612ff381612c2f565b8114612ffe57600080fd5b50565b61300a81612c41565b811461301557600080fd5b50565b61302181612c4d565b811461302c57600080fd5b50565b61303881612c99565b811461304357600080fd5b5056fea2646970667358221220a0f511bb0bc31ddeff48b9e3061efc6645e28b53c70e506ef5f9f95f511fa91864736f6c63430008060033",
  "immutableReferences": {},
  "source": "// SPDX-License-Identifier: MIT\npragma solidity ^0.8.0;\n\nimport \"./creatortokenformulas.sol\";\n\ncontract CreatorTokenFees is CreatorTokenFormulas {\n\n\tconstructor(string memory uri) CreatorTokenFormulas(uri) { }\n\n\t// Calculate fee associated with buy transaction\n\tfunction _feeProceeds(uint _proceedsRequired) public view returns (uint256) {\n\t\treturn _proceedsRequired*platformFee/100;\n\t}\n\n\t// Update platform fees tracker\n\tfunction _platformFeeUpdater(uint _fee) internal {\n\t\ttotalPlatformFees += _fee;\n\t\tplatformFeesOwed += _fee;\n\t}\n\n\t// Transfer excess liquidity (triggered only when a CreatorToken hits a new maxSupply)\n\tfunction _payCreator(uint _tokenId, address payable _creatorAddress) internal {\n\t\t// Create a variable showing excess liquidity that has already been transferred out of this token's liquidity pool\n\t\tuint alreadyTransferred = tokenValueTransferred[_tokenId];\n\t\t// Initialize totalProfit\n\t\tuint totalProfit = 0;\n\t\t// Calculate totalProfit (area between b(x) and s(x) from 0 to maxSupply)\n\t\ttotalProfit = _buyFunction(0, creatorTokens[_tokenId].maxSupply, mNumerator, mDenominator) - _saleFunction(creatorTokens[_tokenId].maxSupply, creatorTokens[_tokenId].maxSupply, mNumerator, mDenominator, creatorTokens[_tokenId].maxSupply, profitMargin);\n\t\t// Calculate creator's new profit created from new excess liquidity created\n\t\tuint newProfit = totalProfit - alreadyTransferred; //400000000000000000; // \n\t\t// Transfer newProfit wei to creator\n\t\t_creatorAddress.transfer(newProfit);\n\t\t// Update amount of value transferred to creator\n\t\ttokenValueTransferred[_tokenId] = totalProfit;\n\t}\n}",
  "sourcePath": "/Users/kamilalizaisadik/DeFi/Dynamic Automated Market Maker/damm_solidity/contracts/creatortokenfees.sol",
  "compiler": {
    "name": "solc",
    "version": "0.8.6+commit.11564f7e.Emscripten.clang"
  },
  "schemaVersion": "3.4.1",
  "updatedAt": "2021-07-10T13:52:57.520Z",
  "devdoc": {
    "kind": "dev",
    "methods": {
      "balanceOf(address,uint256)": {
        "details": "See {IERC1155-balanceOf}. Requirements: - `account` cannot be the zero address."
      },
      "balanceOfBatch(address[],uint256[])": {
        "details": "See {IERC1155-balanceOfBatch}. Requirements: - `accounts` and `ids` must have the same length."
      },
      "owner()": {
        "details": "Returns the address of the current owner."
      },
      "renounceOwnership()": {
        "details": "Leaves the contract without owner. It will not be possible to call `onlyOwner` functions anymore. Can only be called by the current owner. NOTE: Renouncing ownership will leave the contract without an owner, thereby removing any functionality that is only available to the owner."
      },
      "supportsInterface(bytes4)": {
        "details": "See {IERC165-supportsInterface}."
      },
      "transferOwnership(address)": {
        "details": "Transfers ownership of the contract to a new account (`newOwner`). Can only be called by the current owner."
      },
      "uri(uint256)": {
        "details": "See {IERC1155MetadataURI-uri}. This implementation returns the same URI for *all* token types. It relies on the token type ID substitution mechanism https://eips.ethereum.org/EIPS/eip-1155#metadata[defined in the EIP]. Clients calling this function must replace the `\\{id\\}` substring with the actual token type ID."
      }
    },
    "version": 1
  },
  "userdoc": {
    "kind": "user",
    "methods": {},
    "version": 1
  }
}