{
  "contractName": "CreatorTokenFactory",
  "abi": [
    {
      "anonymous": false,
      "inputs": [
        {
          "indexed": false,
          "internalType": "uint256",
          "name": "tokenId",
          "type": "uint256"
        },
        {
          "indexed": false,
          "internalType": "string",
          "name": "name",
          "type": "string"
        },
        {
          "indexed": false,
          "internalType": "string",
          "name": "symbol",
          "type": "string"
        }
      ],
      "name": "NewCreatorToken",
      "type": "event"
    },
    {
      "anonymous": false,
      "inputs": [
        {
          "indexed": true,
          "internalType": "address",
          "name": "previousOwner",
          "type": "address"
        },
        {
          "indexed": true,
          "internalType": "address",
          "name": "newOwner",
          "type": "address"
        }
      ],
      "name": "OwnershipTransferred",
      "type": "event"
    },
    {
      "inputs": [
        {
          "internalType": "uint256",
          "name": "",
          "type": "uint256"
        }
      ],
      "name": "creatorTokens",
      "outputs": [
        {
          "internalType": "address payable",
          "name": "creatorAddress",
          "type": "address"
        },
        {
          "internalType": "string",
          "name": "name",
          "type": "string"
        },
        {
          "internalType": "string",
          "name": "symbol",
          "type": "string"
        },
        {
          "internalType": "string",
          "name": "description",
          "type": "string"
        },
        {
          "internalType": "bool",
          "name": "verified",
          "type": "bool"
        },
        {
          "internalType": "uint256",
          "name": "outstanding",
          "type": "uint256"
        },
        {
          "internalType": "uint256",
          "name": "maxSupply",
          "type": "uint256"
        }
      ],
      "stateMutability": "view",
      "type": "function"
    },
    {
      "inputs": [],
      "name": "owner",
      "outputs": [
        {
          "internalType": "address",
          "name": "",
          "type": "address"
        }
      ],
      "stateMutability": "view",
      "type": "function"
    },
    {
      "inputs": [],
      "name": "renounceOwnership",
      "outputs": [],
      "stateMutability": "nonpayable",
      "type": "function"
    },
    {
      "inputs": [
        {
          "internalType": "uint256",
          "name": "",
          "type": "uint256"
        },
        {
          "internalType": "address",
          "name": "",
          "type": "address"
        }
      ],
      "name": "tokenHoldership",
      "outputs": [
        {
          "internalType": "uint256",
          "name": "",
          "type": "uint256"
        }
      ],
      "stateMutability": "view",
      "type": "function"
    },
    {
      "inputs": [
        {
          "internalType": "uint256",
          "name": "",
          "type": "uint256"
        }
      ],
      "name": "tokenToCreator",
      "outputs": [
        {
          "internalType": "address",
          "name": "",
          "type": "address"
        }
      ],
      "stateMutability": "view",
      "type": "function"
    },
    {
      "inputs": [
        {
          "internalType": "address",
          "name": "newOwner",
          "type": "address"
        }
      ],
      "name": "transferOwnership",
      "outputs": [],
      "stateMutability": "nonpayable",
      "type": "function"
    },
    {
      "inputs": [
        {
          "internalType": "address",
          "name": "",
          "type": "address"
        },
        {
          "internalType": "uint256",
          "name": "",
          "type": "uint256"
        }
      ],
      "name": "userToHoldings",
      "outputs": [
        {
          "internalType": "uint256",
          "name": "",
          "type": "uint256"
        }
      ],
      "stateMutability": "view",
      "type": "function"
    },
    {
      "inputs": [
        {
          "internalType": "address payable",
          "name": "_creatorAddress",
          "type": "address"
        },
        {
          "internalType": "string",
          "name": "_name",
          "type": "string"
        },
        {
          "internalType": "string",
          "name": "_symbol",
          "type": "string"
        },
        {
          "internalType": "string",
          "name": "_description",
          "type": "string"
        }
      ],
      "name": "createCreatorToken",
      "outputs": [],
      "stateMutability": "nonpayable",
      "type": "function"
    }
  ],
  "bytecode": "0x6080604052600180556000600255600060035560146004556009600555620186a060065560065460055461003391906100fe565b60075534801561004257600080fd5b5060006100536100f660201b60201c565b9050806000806101000a81548173ffffffffffffffffffffffffffffffffffffffff021916908373ffffffffffffffffffffffffffffffffffffffff1602179055508073ffffffffffffffffffffffffffffffffffffffff16600073ffffffffffffffffffffffffffffffffffffffff167f8be0079c531659141344cd1fd0a4f28419497f9722a3daafe3b4186f6b6457e060405160405180910390a350610168565b600033905090565b60006101098261012f565b91506101148361012f565b92508261012457610123610139565b5b828204905092915050565b6000819050919050565b7f4e487b7100000000000000000000000000000000000000000000000000000000600052601260045260246000fd5b61119680620001786000396000f3fe608060405234801561001057600080fd5b50600436106100885760003560e01c8063bfb48c9c1161005b578063bfb48c9c14610115578063ce901d8a14610145578063d56b72c71461017b578063f2fde38b1461019757610088565b806318892ae81461008d578063715018a6146100bd5780638da5cb5b146100c757806392724afa146100e5575b600080fd5b6100a760048036038101906100a29190610be5565b6101b3565b6040516100b49190610d0d565b60405180910390f35b6100c56101e6565b005b6100cf610320565b6040516100dc9190610d0d565b60405180910390f35b6100ff60048036038101906100fa9190610ba5565b610349565b60405161010c9190610dec565b60405180910390f35b61012f600480360381019061012a9190610c12565b61036e565b60405161013c9190610dec565b60405180910390f35b61015f600480360381019061015a9190610be5565b610393565b6040516101729796959493929190610d28565b60405180910390f35b61019560048036038101906101909190610aea565b6105aa565b005b6101b160048036038101906101ac9190610abd565b6107ba565b005b60096020528060005260406000206000915054906101000a900473ffffffffffffffffffffffffffffffffffffffff1681565b6101ee610963565b73ffffffffffffffffffffffffffffffffffffffff1661020c610320565b73ffffffffffffffffffffffffffffffffffffffff1614610262576040517f08c379a000000000000000000000000000000000000000000000000000000000815260040161025990610dcc565b60405180910390fd5b600073ffffffffffffffffffffffffffffffffffffffff1660008054906101000a900473ffffffffffffffffffffffffffffffffffffffff1673ffffffffffffffffffffffffffffffffffffffff167f8be0079c531659141344cd1fd0a4f28419497f9722a3daafe3b4186f6b6457e060405160405180910390a360008060006101000a81548173ffffffffffffffffffffffffffffffffffffffff021916908373ffffffffffffffffffffffffffffffffffffffff160217905550565b60008060009054906101000a900473ffffffffffffffffffffffffffffffffffffffff16905090565b600c602052816000526040600020602052806000526040600020600091509150505481565b600b602052816000526040600020602052806000526040600020600091509150505481565b600881815481106103a357600080fd5b90600052602060002090600702016000915090508060000160009054906101000a900473ffffffffffffffffffffffffffffffffffffffff16908060010180546103ec90610f8e565b80601f016020809104026020016040519081016040528092919081815260200182805461041890610f8e565b80156104655780601f1061043a57610100808354040283529160200191610465565b820191906000526020600020905b81548152906001019060200180831161044857829003601f168201915b50505050509080600201805461047a90610f8e565b80601f01602080910402602001604051908101604052809291908181526020018280546104a690610f8e565b80156104f35780601f106104c8576101008083540402835291602001916104f3565b820191906000526020600020905b8154815290600101906020018083116104d657829003601f168201915b50505050509080600301805461050890610f8e565b80601f016020809104026020016040519081016040528092919081815260200182805461053490610f8e565b80156105815780601f1061055657610100808354040283529160200191610581565b820191906000526020600020905b81548152906001019060200180831161056457829003601f168201915b5050505050908060040160009054906101000a900460ff16908060050154908060060154905087565b60086040518060e001604052808673ffffffffffffffffffffffffffffffffffffffff168152602001858152602001848152602001838152602001600015158152602001600081526020016000815250908060018154018082558091505060019003906000526020600020906007020160009091909190915060008201518160000160006101000a81548173ffffffffffffffffffffffffffffffffffffffff021916908373ffffffffffffffffffffffffffffffffffffffff160217905550602082015181600101908051906020019061068692919061096b565b5060408201518160020190805190602001906106a392919061096b565b5060608201518160030190805190602001906106c092919061096b565b5060808201518160040160006101000a81548160ff02191690831515021790555060a0820151816005015560c0820151816006015550506000600160088054905061070b9190610ebe565b9050846009600083815260200190815260200160002060006101000a81548173ffffffffffffffffffffffffffffffffffffffff021916908373ffffffffffffffffffffffffffffffffffffffff1602179055506000600a6000838152602001908152602001600020819055507f01e9d0e2208938b5d6a39db5244c8dca0b77eb386bf3705fe751005e7e0ca16c8185856040516107ab93929190610e07565b60405180910390a15050505050565b6107c2610963565b73ffffffffffffffffffffffffffffffffffffffff166107e0610320565b73ffffffffffffffffffffffffffffffffffffffff1614610836576040517f08c379a000000000000000000000000000000000000000000000000000000000815260040161082d90610dcc565b60405180910390fd5b600073ffffffffffffffffffffffffffffffffffffffff168173ffffffffffffffffffffffffffffffffffffffff1614156108a6576040517f08c379a000000000000000000000000000000000000000000000000000000000815260040161089d90610dac565b60405180910390fd5b8073ffffffffffffffffffffffffffffffffffffffff1660008054906101000a900473ffffffffffffffffffffffffffffffffffffffff1673ffffffffffffffffffffffffffffffffffffffff167f8be0079c531659141344cd1fd0a4f28419497f9722a3daafe3b4186f6b6457e060405160405180910390a3806000806101000a81548173ffffffffffffffffffffffffffffffffffffffff021916908373ffffffffffffffffffffffffffffffffffffffff16021790555050565b600033905090565b82805461097790610f8e565b90600052602060002090601f01602090048101928261099957600085556109e0565b82601f106109b257805160ff19168380011785556109e0565b828001600101855582156109e0579182015b828111156109df5782518255916020019190600101906109c4565b5b5090506109ed91906109f1565b5090565b5b80821115610a0a5760008160009055506001016109f2565b5090565b6000610a21610a1c84610e71565b610e4c565b905082815260208101848484011115610a3d57610a3c611083565b5b610a48848285610f4c565b509392505050565b600081359050610a5f8161111b565b92915050565b600081359050610a7481611132565b92915050565b600082601f830112610a8f57610a8e61107e565b5b8135610a9f848260208601610a0e565b91505092915050565b600081359050610ab781611149565b92915050565b600060208284031215610ad357610ad261108d565b5b6000610ae184828501610a50565b91505092915050565b60008060008060808587031215610b0457610b0361108d565b5b6000610b1287828801610a65565b945050602085013567ffffffffffffffff811115610b3357610b32611088565b5b610b3f87828801610a7a565b935050604085013567ffffffffffffffff811115610b6057610b5f611088565b5b610b6c87828801610a7a565b925050606085013567ffffffffffffffff811115610b8d57610b8c611088565b5b610b9987828801610a7a565b91505092959194509250565b60008060408385031215610bbc57610bbb61108d565b5b6000610bca85828601610a50565b9250506020610bdb85828601610aa8565b9150509250929050565b600060208284031215610bfb57610bfa61108d565b5b6000610c0984828501610aa8565b91505092915050565b60008060408385031215610c2957610c2861108d565b5b6000610c3785828601610aa8565b9250506020610c4885828601610a50565b9150509250929050565b610c5b81610f04565b82525050565b610c6a81610ef2565b82525050565b610c7981610f16565b82525050565b6000610c8a82610ea2565b610c948185610ead565b9350610ca4818560208601610f5b565b610cad81611092565b840191505092915050565b6000610cc5602683610ead565b9150610cd0826110a3565b604082019050919050565b6000610ce8602083610ead565b9150610cf3826110f2565b602082019050919050565b610d0781610f42565b82525050565b6000602082019050610d226000830184610c61565b92915050565b600060e082019050610d3d600083018a610c52565b8181036020830152610d4f8189610c7f565b90508181036040830152610d638188610c7f565b90508181036060830152610d778187610c7f565b9050610d866080830186610c70565b610d9360a0830185610cfe565b610da060c0830184610cfe565b98975050505050505050565b60006020820190508181036000830152610dc581610cb8565b9050919050565b60006020820190508181036000830152610de581610cdb565b9050919050565b6000602082019050610e016000830184610cfe565b92915050565b6000606082019050610e1c6000830186610cfe565b8181036020830152610e2e8185610c7f565b90508181036040830152610e428184610c7f565b9050949350505050565b6000610e56610e67565b9050610e628282610fc0565b919050565b6000604051905090565b600067ffffffffffffffff821115610e8c57610e8b61104f565b5b610e9582611092565b9050602081019050919050565b600081519050919050565b600082825260208201905092915050565b6000610ec982610f42565b9150610ed483610f42565b925082821015610ee757610ee6610ff1565b5b828203905092915050565b6000610efd82610f22565b9050919050565b6000610f0f82610f22565b9050919050565b60008115159050919050565b600073ffffffffffffffffffffffffffffffffffffffff82169050919050565b6000819050919050565b82818337600083830152505050565b60005b83811015610f79578082015181840152602081019050610f5e565b83811115610f88576000848401525b50505050565b60006002820490506001821680610fa657607f821691505b60208210811415610fba57610fb9611020565b5b50919050565b610fc982611092565b810181811067ffffffffffffffff82111715610fe857610fe761104f565b5b80604052505050565b7f4e487b7100000000000000000000000000000000000000000000000000000000600052601160045260246000fd5b7f4e487b7100000000000000000000000000000000000000000000000000000000600052602260045260246000fd5b7f4e487b7100000000000000000000000000000000000000000000000000000000600052604160045260246000fd5b600080fd5b600080fd5b600080fd5b600080fd5b6000601f19601f8301169050919050565b7f4f776e61626c653a206e6577206f776e657220697320746865207a65726f206160008201527f6464726573730000000000000000000000000000000000000000000000000000602082015250565b7f4f776e61626c653a2063616c6c6572206973206e6f7420746865206f776e6572600082015250565b61112481610ef2565b811461112f57600080fd5b50565b61113b81610f04565b811461114657600080fd5b50565b61115281610f42565b811461115d57600080fd5b5056fea2646970667358221220d3b6a13be6b127e7cb40e7f6aa19e3de69ca42b73acd3d75a83fc4d68017c7e464736f6c63430008060033",
  "immutableReferences": {},
  "source": "// SPDX-License-Identifier: MIT\npragma solidity ^0.8.0;\n\nimport \"@openzeppelin/contracts/access/Ownable.sol\";\n\ncontract CreatorTokenFactory is Ownable {\n\n\t// Event that fires whenever a new CreatorToken is created\n\tevent NewCreatorToken(uint tokenId, string name, string symbol);\n\n\t// Pay-on-top style platform fee on each transaction\n\tuint platformFee = 1; // e.g., if platformFee == 1/, the platform earns 1% of each transaction's value\n\t// Variable to track total platform fees generated\n\tuint totalPlatformFees = 0;\n\t// Variable to track platform fees owed, but not yet paid to owner\n\tuint platformFeesOwed = 0;\n\n\t// Profit margin (percentage of total revenue) directed toward creator\n\tuint profitMargin = 20;\n\n\t// Slope of buy price function\n\tuint m_numerator = 9;\n\tuint m_denominator = 100000;\n\tuint m = m_numerator/m_denominator;\n\n\tstruct CreatorToken {\n\t\taddress payable creatorAddress;\n\t\tstring name;\n\t\tstring symbol;\n\t\tstring description;\n\t\tbool verified;\n\t\tuint outstanding;\n\t\tuint maxSupply;\n\t}\n\n\t// Array of all CreatorTokens\n\tCreatorToken[] public creatorTokens;\n\n\t// Mapping from tokenId to creatorAddress\n\tmapping (uint => address) public tokenToCreator;\n\t// Mapping from tokenId to token value transferred (to creator/platform)\n\tmapping (uint => uint) internal tokenValueTransferred;\n\t// Mapping from tokenId to mapping from address to quantity of tokenId held\n\tmapping(uint256 => mapping(address => uint256)) public tokenHoldership;\n\t// Mapping from user to mapping from tokenId to quantity of that token the user owns (to show a user's portfolio without having to iterate through tokenHoldership)\n\tmapping(address => mapping(uint256 => uint256)) public userToHoldings;\n\t// Mapping from account to operator approvals\n\tmapping(address => mapping(address => bool)) internal approvals;\n\n\t// Create a new CreatorToken\n\tfunction createCreatorToken(address payable _creatorAddress, string memory _name, string memory _symbol, string memory _description) public {\n\t\t// Add token to creatorTokens array\n\t\tcreatorTokens.push(CreatorToken(_creatorAddress, _name, _symbol, _description, false, 0, 0));\n\t\t// Create token id\n\t\tuint id = creatorTokens.length - 1;\n\t\t// Map from token id to creator's address\n\t\ttokenToCreator[id] = _creatorAddress;\n\t\t// Map from token id to amount of value transferred (0 at inception)\n\t\ttokenValueTransferred[id] = 0;\n\t\t// Emit token creation event\n\t\temit NewCreatorToken(id, _name, _symbol);\n\t}\n\n\n}",
  "sourcePath": "/Users/kamilalizaisadik/DeFi/Dynamic Automated Market Maker/damm_solidity/contracts/creatortokenfactory.sol",
  "compiler": {
    "name": "solc",
    "version": "0.8.6+commit.11564f7e.Emscripten.clang"
  },
  "schemaVersion": "3.4.1",
  "updatedAt": "2021-06-24T00:37:20.836Z",
  "devdoc": {
    "kind": "dev",
    "methods": {
      "owner()": {
        "details": "Returns the address of the current owner."
      },
      "renounceOwnership()": {
        "details": "Leaves the contract without owner. It will not be possible to call `onlyOwner` functions anymore. Can only be called by the current owner. NOTE: Renouncing ownership will leave the contract without an owner, thereby removing any functionality that is only available to the owner."
      },
      "transferOwnership(address)": {
        "details": "Transfers ownership of the contract to a new account (`newOwner`). Can only be called by the current owner."
      }
    },
    "version": 1
  },
  "userdoc": {
    "kind": "user",
    "methods": {},
    "version": 1
  }
}