{
  "contractName": "CreatorTokenFactory",
  "abi": [
    {
      "anonymous": false,
      "inputs": [
        {
          "indexed": false,
          "internalType": "uint256",
          "name": "tokenId",
          "type": "uint256"
        },
        {
          "indexed": false,
          "internalType": "address payable",
          "name": "creatorAddress",
          "type": "address"
        },
        {
          "indexed": false,
          "internalType": "string",
          "name": "name",
          "type": "string"
        },
        {
          "indexed": false,
          "internalType": "string",
          "name": "symbol",
          "type": "string"
        },
        {
          "indexed": false,
          "internalType": "string",
          "name": "description",
          "type": "string"
        },
        {
          "indexed": false,
          "internalType": "bool",
          "name": "verified",
          "type": "bool"
        },
        {
          "indexed": false,
          "internalType": "uint256",
          "name": "outstanding",
          "type": "uint256"
        },
        {
          "indexed": false,
          "internalType": "uint256",
          "name": "maxSupply",
          "type": "uint256"
        }
      ],
      "name": "NewCreatorToken",
      "type": "event"
    },
    {
      "anonymous": false,
      "inputs": [
        {
          "indexed": true,
          "internalType": "address",
          "name": "previousOwner",
          "type": "address"
        },
        {
          "indexed": true,
          "internalType": "address",
          "name": "newOwner",
          "type": "address"
        }
      ],
      "name": "OwnershipTransferred",
      "type": "event"
    },
    {
      "inputs": [
        {
          "internalType": "address",
          "name": "",
          "type": "address"
        },
        {
          "internalType": "address",
          "name": "",
          "type": "address"
        }
      ],
      "name": "approvals",
      "outputs": [
        {
          "internalType": "bool",
          "name": "",
          "type": "bool"
        }
      ],
      "stateMutability": "view",
      "type": "function"
    },
    {
      "inputs": [
        {
          "internalType": "uint256",
          "name": "",
          "type": "uint256"
        }
      ],
      "name": "creatorTokens",
      "outputs": [
        {
          "internalType": "address payable",
          "name": "creatorAddress",
          "type": "address"
        },
        {
          "internalType": "string",
          "name": "name",
          "type": "string"
        },
        {
          "internalType": "string",
          "name": "symbol",
          "type": "string"
        },
        {
          "internalType": "string",
          "name": "description",
          "type": "string"
        },
        {
          "internalType": "bool",
          "name": "verified",
          "type": "bool"
        },
        {
          "internalType": "uint256",
          "name": "outstanding",
          "type": "uint256"
        },
        {
          "internalType": "uint256",
          "name": "maxSupply",
          "type": "uint256"
        }
      ],
      "stateMutability": "view",
      "type": "function"
    },
    {
      "inputs": [],
      "name": "numCreatorTokens",
      "outputs": [
        {
          "internalType": "uint256",
          "name": "",
          "type": "uint256"
        }
      ],
      "stateMutability": "view",
      "type": "function"
    },
    {
      "inputs": [],
      "name": "owner",
      "outputs": [
        {
          "internalType": "address",
          "name": "",
          "type": "address"
        }
      ],
      "stateMutability": "view",
      "type": "function"
    },
    {
      "inputs": [],
      "name": "platformFeesOwed",
      "outputs": [
        {
          "internalType": "uint256",
          "name": "",
          "type": "uint256"
        }
      ],
      "stateMutability": "view",
      "type": "function"
    },
    {
      "inputs": [],
      "name": "renounceOwnership",
      "outputs": [],
      "stateMutability": "nonpayable",
      "type": "function"
    },
    {
      "inputs": [
        {
          "internalType": "uint256",
          "name": "",
          "type": "uint256"
        },
        {
          "internalType": "address",
          "name": "",
          "type": "address"
        }
      ],
      "name": "tokenHoldership",
      "outputs": [
        {
          "internalType": "uint256",
          "name": "",
          "type": "uint256"
        }
      ],
      "stateMutability": "view",
      "type": "function"
    },
    {
      "inputs": [
        {
          "internalType": "uint256",
          "name": "",
          "type": "uint256"
        }
      ],
      "name": "tokenToCreator",
      "outputs": [
        {
          "internalType": "address",
          "name": "",
          "type": "address"
        }
      ],
      "stateMutability": "view",
      "type": "function"
    },
    {
      "inputs": [
        {
          "internalType": "uint256",
          "name": "",
          "type": "uint256"
        }
      ],
      "name": "tokenValueTransferred",
      "outputs": [
        {
          "internalType": "uint256",
          "name": "",
          "type": "uint256"
        }
      ],
      "stateMutability": "view",
      "type": "function"
    },
    {
      "inputs": [],
      "name": "totalPlatformFees",
      "outputs": [
        {
          "internalType": "uint256",
          "name": "",
          "type": "uint256"
        }
      ],
      "stateMutability": "view",
      "type": "function"
    },
    {
      "inputs": [
        {
          "internalType": "uint256",
          "name": "",
          "type": "uint256"
        }
      ],
      "name": "totalValueLocked",
      "outputs": [
        {
          "internalType": "uint256",
          "name": "",
          "type": "uint256"
        }
      ],
      "stateMutability": "view",
      "type": "function"
    },
    {
      "inputs": [
        {
          "internalType": "address",
          "name": "newOwner",
          "type": "address"
        }
      ],
      "name": "transferOwnership",
      "outputs": [],
      "stateMutability": "nonpayable",
      "type": "function"
    },
    {
      "inputs": [
        {
          "internalType": "address",
          "name": "",
          "type": "address"
        },
        {
          "internalType": "uint256",
          "name": "",
          "type": "uint256"
        }
      ],
      "name": "userToHoldings",
      "outputs": [
        {
          "internalType": "uint256",
          "name": "",
          "type": "uint256"
        }
      ],
      "stateMutability": "view",
      "type": "function"
    },
    {
      "inputs": [
        {
          "internalType": "address payable",
          "name": "_creatorAddress",
          "type": "address"
        },
        {
          "internalType": "string",
          "name": "_name",
          "type": "string"
        },
        {
          "internalType": "string",
          "name": "_symbol",
          "type": "string"
        },
        {
          "internalType": "string",
          "name": "_description",
          "type": "string"
        }
      ],
      "name": "createCreatorToken",
      "outputs": [],
      "stateMutability": "nonpayable",
      "type": "function"
    },
    {
      "inputs": [],
      "name": "getCreatorTokenCount",
      "outputs": [
        {
          "internalType": "uint256",
          "name": "",
          "type": "uint256"
        }
      ],
      "stateMutability": "view",
      "type": "function"
    }
  ],
  "bytecode": "0x608060405260018055600060025560006003556000600455601460055565082f79cd900060065560b960075534801561003757600080fd5b5060006100486100eb60201b60201c565b9050806000806101000a81548173ffffffffffffffffffffffffffffffffffffffff021916908373ffffffffffffffffffffffffffffffffffffffff1602179055508073ffffffffffffffffffffffffffffffffffffffff16600073ffffffffffffffffffffffffffffffffffffffff167f8be0079c531659141344cd1fd0a4f28419497f9722a3daafe3b4186f6b6457e060405160405180910390a3506100f3565b600033905090565b61145f806101026000396000f3fe608060405234801561001057600080fd5b50600436106100f55760003560e01c8063afb2183211610097578063d3631fa511610066578063d3631fa5146102a2578063d56b72c7146102c0578063d9bd3a40146102dc578063f2fde38b1461030c576100f5565b8063afb2183214610200578063bfb48c9c1461021e578063c1d330491461024e578063ce901d8a1461026c576100f5565b8063715018a6116100d3578063715018a6146101785780638da5cb5b1461018257806392724afa146101a0578063a32ce11e146101d0576100f5565b806317bcaa08146100fa57806318892ae81461012a5780632a2b237c1461015a575b600080fd5b610114600480360381019061010f9190610e24565b610328565b6040516101219190611055565b60405180910390f35b610144600480360381019061013f9190610e24565b610340565b6040516101519190610f5b565b60405180910390f35b610162610373565b60405161016f9190611055565b60405180910390f35b610180610380565b005b61018a6104ba565b6040516101979190610f5b565b60405180910390f35b6101ba60048036038101906101b59190610de4565b6104e3565b6040516101c79190611055565b60405180910390f35b6101ea60048036038101906101e59190610da4565b610508565b6040516101f79190610ffa565b60405180910390f35b610208610537565b6040516102159190611055565b60405180910390f35b61023860048036038101906102339190610e51565b61053d565b6040516102459190611055565b60405180910390f35b610256610562565b6040516102639190611055565b60405180910390f35b61028660048036038101906102819190610e24565b610568565b6040516102999796959493929190610f76565b60405180910390f35b6102aa61077f565b6040516102b79190611055565b60405180910390f35b6102da60048036038101906102d59190610ce9565b610785565b005b6102f660048036038101906102f19190610e24565b6109a1565b6040516103039190611055565b60405180910390f35b61032660048036038101906103219190610cbc565b6109b9565b005b600a6020528060005260406000206000915090505481565b60096020528060005260406000206000915054906101000a900473ffffffffffffffffffffffffffffffffffffffff1681565b6000600880549050905090565b610388610b62565b73ffffffffffffffffffffffffffffffffffffffff166103a66104ba565b73ffffffffffffffffffffffffffffffffffffffff16146103fc576040517f08c379a00000000000000000000000000000000000000000000000000000000081526004016103f390611035565b60405180910390fd5b600073ffffffffffffffffffffffffffffffffffffffff1660008054906101000a900473ffffffffffffffffffffffffffffffffffffffff1673ffffffffffffffffffffffffffffffffffffffff167f8be0079c531659141344cd1fd0a4f28419497f9722a3daafe3b4186f6b6457e060405160405180910390a360008060006101000a81548173ffffffffffffffffffffffffffffffffffffffff021916908373ffffffffffffffffffffffffffffffffffffffff160217905550565b60008060009054906101000a900473ffffffffffffffffffffffffffffffffffffffff16905090565b600c602052816000526040600020602052806000526040600020600091509150505481565b600d6020528160005260406000206020528060005260406000206000915091509054906101000a900460ff1681565b60045481565b600b602052816000526040600020602052806000526040600020600091509150505481565b60035481565b6008818154811061057857600080fd5b90600052602060002090600702016000915090508060000160009054906101000a900473ffffffffffffffffffffffffffffffffffffffff16908060010180546105c190611257565b80601f01602080910402602001604051908101604052809291908181526020018280546105ed90611257565b801561063a5780601f1061060f5761010080835404028352916020019161063a565b820191906000526020600020905b81548152906001019060200180831161061d57829003601f168201915b50505050509080600201805461064f90611257565b80601f016020809104026020016040519081016040528092919081815260200182805461067b90611257565b80156106c85780601f1061069d576101008083540402835291602001916106c8565b820191906000526020600020905b8154815290600101906020018083116106ab57829003601f168201915b5050505050908060030180546106dd90611257565b80601f016020809104026020016040519081016040528092919081815260200182805461070990611257565b80156107565780601f1061072b57610100808354040283529160200191610756565b820191906000526020600020905b81548152906001019060200180831161073957829003601f168201915b5050505050908060040160009054906101000a900460ff16908060050154908060060154905087565b60025481565b60086040518060e001604052808673ffffffffffffffffffffffffffffffffffffffff168152602001858152602001848152602001838152602001600015158152602001600081526020016000815250908060018154018082558091505060019003906000526020600020906007020160009091909190915060008201518160000160006101000a81548173ffffffffffffffffffffffffffffffffffffffff021916908373ffffffffffffffffffffffffffffffffffffffff1602179055506020820151816001019080519060200190610861929190610b6a565b50604082015181600201908051906020019061087e929190610b6a565b50606082015181600301908051906020019061089b929190610b6a565b5060808201518160040160006101000a81548160ff02191690831515021790555060a0820151816005015560c082015181600601555050600060016008805490506108e69190611175565b9050846009600083815260200190815260200160002060006101000a81548173ffffffffffffffffffffffffffffffffffffffff021916908373ffffffffffffffffffffffffffffffffffffffff1602179055506000600a6000838152602001908152602001600020819055507f3ef624c0f3fb7ad40b94c02078ea3e3a797dbfc21e921ee4bd2b8ad0ca6aa11381868686866000806000604051610992989796959493929190611070565b60405180910390a15050505050565b600e6020528060005260406000206000915090505481565b6109c1610b62565b73ffffffffffffffffffffffffffffffffffffffff166109df6104ba565b73ffffffffffffffffffffffffffffffffffffffff1614610a35576040517f08c379a0000000000000000000000000000000000000000000000000000000008152600401610a2c90611035565b60405180910390fd5b600073ffffffffffffffffffffffffffffffffffffffff168173ffffffffffffffffffffffffffffffffffffffff161415610aa5576040517f08c379a0000000000000000000000000000000000000000000000000000000008152600401610a9c90611015565b60405180910390fd5b8073ffffffffffffffffffffffffffffffffffffffff1660008054906101000a900473ffffffffffffffffffffffffffffffffffffffff1673ffffffffffffffffffffffffffffffffffffffff167f8be0079c531659141344cd1fd0a4f28419497f9722a3daafe3b4186f6b6457e060405160405180910390a3806000806101000a81548173ffffffffffffffffffffffffffffffffffffffff021916908373ffffffffffffffffffffffffffffffffffffffff16021790555050565b600033905090565b828054610b7690611257565b90600052602060002090601f016020900481019282610b985760008555610bdf565b82601f10610bb157805160ff1916838001178555610bdf565b82800160010185558215610bdf579182015b82811115610bde578251825591602001919060010190610bc3565b5b509050610bec9190610bf0565b5090565b5b80821115610c09576000816000905550600101610bf1565b5090565b6000610c20610c1b84611128565b611103565b905082815260208101848484011115610c3c57610c3b61134c565b5b610c47848285611215565b509392505050565b600081359050610c5e816113e4565b92915050565b600081359050610c73816113fb565b92915050565b600082601f830112610c8e57610c8d611347565b5b8135610c9e848260208601610c0d565b91505092915050565b600081359050610cb681611412565b92915050565b600060208284031215610cd257610cd1611356565b5b6000610ce084828501610c4f565b91505092915050565b60008060008060808587031215610d0357610d02611356565b5b6000610d1187828801610c64565b945050602085013567ffffffffffffffff811115610d3257610d31611351565b5b610d3e87828801610c79565b935050604085013567ffffffffffffffff811115610d5f57610d5e611351565b5b610d6b87828801610c79565b925050606085013567ffffffffffffffff811115610d8c57610d8b611351565b5b610d9887828801610c79565b91505092959194509250565b60008060408385031215610dbb57610dba611356565b5b6000610dc985828601610c4f565b9250506020610dda85828601610c4f565b9150509250929050565b60008060408385031215610dfb57610dfa611356565b5b6000610e0985828601610c4f565b9250506020610e1a85828601610ca7565b9150509250929050565b600060208284031215610e3a57610e39611356565b5b6000610e4884828501610ca7565b91505092915050565b60008060408385031215610e6857610e67611356565b5b6000610e7685828601610ca7565b9250506020610e8785828601610c4f565b9150509250929050565b610e9a816111bb565b82525050565b610ea9816111a9565b82525050565b610eb8816111cd565b82525050565b610ec781611203565b82525050565b6000610ed882611159565b610ee28185611164565b9350610ef2818560208601611224565b610efb8161135b565b840191505092915050565b6000610f13602683611164565b9150610f1e8261136c565b604082019050919050565b6000610f36602083611164565b9150610f41826113bb565b602082019050919050565b610f55816111f9565b82525050565b6000602082019050610f706000830184610ea0565b92915050565b600060e082019050610f8b600083018a610e91565b8181036020830152610f9d8189610ecd565b90508181036040830152610fb18188610ecd565b90508181036060830152610fc58187610ecd565b9050610fd46080830186610eaf565b610fe160a0830185610f4c565b610fee60c0830184610f4c565b98975050505050505050565b600060208201905061100f6000830184610eaf565b92915050565b6000602082019050818103600083015261102e81610f06565b9050919050565b6000602082019050818103600083015261104e81610f29565b9050919050565b600060208201905061106a6000830184610f4c565b92915050565b600061010082019050611086600083018b610f4c565b611093602083018a610e91565b81810360408301526110a58189610ecd565b905081810360608301526110b98188610ecd565b905081810360808301526110cd8187610ecd565b90506110dc60a0830186610eaf565b6110e960c0830185610ebe565b6110f660e0830184610ebe565b9998505050505050505050565b600061110d61111e565b90506111198282611289565b919050565b6000604051905090565b600067ffffffffffffffff82111561114357611142611318565b5b61114c8261135b565b9050602081019050919050565b600081519050919050565b600082825260208201905092915050565b6000611180826111f9565b915061118b836111f9565b92508282101561119e5761119d6112ba565b5b828203905092915050565b60006111b4826111d9565b9050919050565b60006111c6826111d9565b9050919050565b60008115159050919050565b600073ffffffffffffffffffffffffffffffffffffffff82169050919050565b6000819050919050565b600061120e826111f9565b9050919050565b82818337600083830152505050565b60005b83811015611242578082015181840152602081019050611227565b83811115611251576000848401525b50505050565b6000600282049050600182168061126f57607f821691505b60208210811415611283576112826112e9565b5b50919050565b6112928261135b565b810181811067ffffffffffffffff821117156112b1576112b0611318565b5b80604052505050565b7f4e487b7100000000000000000000000000000000000000000000000000000000600052601160045260246000fd5b7f4e487b7100000000000000000000000000000000000000000000000000000000600052602260045260246000fd5b7f4e487b7100000000000000000000000000000000000000000000000000000000600052604160045260246000fd5b600080fd5b600080fd5b600080fd5b600080fd5b6000601f19601f8301169050919050565b7f4f776e61626c653a206e6577206f776e657220697320746865207a65726f206160008201527f6464726573730000000000000000000000000000000000000000000000000000602082015250565b7f4f776e61626c653a2063616c6c6572206973206e6f7420746865206f776e6572600082015250565b6113ed816111a9565b81146113f857600080fd5b50565b611404816111bb565b811461140f57600080fd5b50565b61141b816111f9565b811461142657600080fd5b5056fea26469706673582212204a447b1f18bfaeead819c90c74d00e4d641df09964a2fd4bd85d0f72a61305d764736f6c63430008060033",
  "immutableReferences": {},
  "source": "// SPDX-License-Identifier: MIT\npragma solidity ^0.8.0;\n\nimport \"@openzeppelin/contracts/access/Ownable.sol\";\n\n/// @title A contract generating Creator Tokens, as well as relevant attributes and mappings\n/// @author Kamil Alizai Sadik\ncontract CreatorTokenFactory is Ownable {\n\n\t// Event that fires whenever a new CreatorToken is created\n\tevent NewCreatorToken(uint tokenId, address payable creatorAddress, string name, string symbol, string description, bool verified, uint outstanding, uint maxSupply);\n\n\t// Pay-on-top style platform fee on each transaction\n\tuint platformFee = 1; // e.g., if platformFee == 1, the platform earns 1% of each transaction's value\n\t// Variable to track total platform fees generated\n\tuint public totalPlatformFees = 0;\n\t// Variable to track platform fees owed, but not yet paid to owner\n\tuint public platformFeesOwed = 0;\n\t// Variable to track number of unique creator tokens\n\tuint public numCreatorTokens = 0;\n\n\t// Profit margin (percentage of total revenue) directed toward creator\n\tuint profitMargin = 20;\n\n\t// Slope of buy price function\n\tuint mNumerator = 9000000000000;\n\tuint mDenominator = 185;\n\n\t// Struct containing CreatorToken attributes\n\tstruct CreatorToken {\n\t\taddress payable creatorAddress;\n\t\tstring name;\n\t\tstring symbol;\n\t\tstring description;\n\t\tbool verified;\n\t\tuint outstanding;\n\t\tuint maxSupply;\n\t}\n\n\t// Array of all CreatorTokens\n\tCreatorToken[] public creatorTokens;\n\n\t// Mapping from tokenId to creatorAddress\n\tmapping (uint => address) public tokenToCreator;\n\t// Mapping from tokenId to token value transferred to creator\n\tmapping (uint => uint) public tokenValueTransferred;\n\t// Mapping from tokenId to mapping from address to quantity of tokenId held\n\tmapping(uint256 => mapping(address => uint256)) public tokenHoldership;\n\t// Mapping from user to mapping from tokenId to quantity of that token the user owns (to show a user's portfolio without having to iterate through tokenHoldership)\n\tmapping(address => mapping(uint256 => uint256)) public userToHoldings;\n\t// Mapping from account to operator approvals\n\tmapping(address => mapping(address => bool)) public approvals;\n\t// Mapping from token to total value locked\n\tmapping (uint => uint) public totalValueLocked;\n\n\t/// @dev Creates a new creator token\n\t/// @param _creatorAddress Address of the creator of the token\n\t/// @param _name Name chosen by the creator of the token\n\t/// @param _symbol Ticker symbol chosen by the creator of the token\n\t/// @param _description chosen by the creator of the tokens\n\tfunction createCreatorToken(address payable _creatorAddress, string memory _name, string memory _symbol, string memory _description) public {\n\t\t// Add token to creatorTokens array\n\t\tcreatorTokens.push(CreatorToken(_creatorAddress, _name, _symbol, _description, false, 0, 0));\n\t\t// Create token id\n\t\tuint id = creatorTokens.length - 1;\n\t\t// Update number of creator tokens\n\t\t//numCreatorTokens = id+1;\n\t\t// Map from token id to creator's address\n\t\ttokenToCreator[id] = _creatorAddress;\n\t\t// Map from token id to amount of value transferred (0 at inception)\n\t\ttokenValueTransferred[id] = 0;\n\t\t// Emit token creation event\n\t\temit NewCreatorToken(id, _creatorAddress, _name, _symbol, _description, false, 0, 0);\n\t}\n\n\t/// @dev Returns the current length of the creatorTokens array\n\t/// @return uint representing number of unique Creator Tokens\n\tfunction getCreatorTokenCount() external view returns (uint) {\n\t\t// Return length of creatorTokens array\n\t\treturn creatorTokens.length;\n\t}\n}",
  "sourcePath": "/Users/kamilalizaisadik/DeFi/Dynamic Automated Market Maker/CreatorTokenExchange/contracts/creatortokenfactory.sol",
  "compiler": {
    "name": "solc",
    "version": "0.8.6+commit.11564f7e.Emscripten.clang"
  },
  "schemaVersion": "3.4.1",
  "updatedAt": "2021-08-11T01:04:08.957Z",
  "devdoc": {
    "author": "Kamil Alizai Sadik",
    "kind": "dev",
    "methods": {
      "createCreatorToken(address,string,string,string)": {
        "details": "Creates a new creator token",
        "params": {
          "_creatorAddress": "Address of the creator of the token",
          "_description": "chosen by the creator of the tokens",
          "_name": "Name chosen by the creator of the token",
          "_symbol": "Ticker symbol chosen by the creator of the token"
        }
      },
      "getCreatorTokenCount()": {
        "details": "Returns the current length of the creatorTokens array",
        "returns": {
          "_0": "uint representing number of unique Creator Tokens"
        }
      },
      "owner()": {
        "details": "Returns the address of the current owner."
      },
      "renounceOwnership()": {
        "details": "Leaves the contract without owner. It will not be possible to call `onlyOwner` functions anymore. Can only be called by the current owner. NOTE: Renouncing ownership will leave the contract without an owner, thereby removing any functionality that is only available to the owner."
      },
      "transferOwnership(address)": {
        "details": "Transfers ownership of the contract to a new account (`newOwner`). Can only be called by the current owner."
      }
    },
    "title": "A contract generating Creator Tokens, as well as relevant attributes and mappings",
    "version": 1
  },
  "userdoc": {
    "kind": "user",
    "methods": {},
    "version": 1
  }
}