{
  "contractName": "CreatorTokenExchange",
  "abi": [
    {
      "inputs": [
        {
          "internalType": "string",
          "name": "uri",
          "type": "string"
        }
      ],
      "stateMutability": "nonpayable",
      "type": "constructor"
    },
    {
      "anonymous": false,
      "inputs": [
        {
          "indexed": true,
          "internalType": "address",
          "name": "account",
          "type": "address"
        },
        {
          "indexed": true,
          "internalType": "address",
          "name": "operator",
          "type": "address"
        },
        {
          "indexed": false,
          "internalType": "bool",
          "name": "approved",
          "type": "bool"
        }
      ],
      "name": "ApprovalForAll",
      "type": "event"
    },
    {
      "anonymous": false,
      "inputs": [
        {
          "indexed": false,
          "internalType": "uint256",
          "name": "tokenId",
          "type": "uint256"
        },
        {
          "indexed": false,
          "internalType": "address payable",
          "name": "creatorAddress",
          "type": "address"
        },
        {
          "indexed": false,
          "internalType": "string",
          "name": "name",
          "type": "string"
        },
        {
          "indexed": false,
          "internalType": "string",
          "name": "symbol",
          "type": "string"
        },
        {
          "indexed": false,
          "internalType": "string",
          "name": "description",
          "type": "string"
        },
        {
          "indexed": false,
          "internalType": "bool",
          "name": "verified",
          "type": "bool"
        },
        {
          "indexed": false,
          "internalType": "uint256",
          "name": "outstanding",
          "type": "uint256"
        },
        {
          "indexed": false,
          "internalType": "uint256",
          "name": "maxSupply",
          "type": "uint256"
        }
      ],
      "name": "NewCreatorToken",
      "type": "event"
    },
    {
      "anonymous": false,
      "inputs": [
        {
          "indexed": true,
          "internalType": "address",
          "name": "account",
          "type": "address"
        },
        {
          "indexed": false,
          "internalType": "uint256",
          "name": "amount",
          "type": "uint256"
        },
        {
          "indexed": false,
          "internalType": "string",
          "name": "transactionType",
          "type": "string"
        },
        {
          "indexed": false,
          "internalType": "uint256",
          "name": "tokenId",
          "type": "uint256"
        },
        {
          "indexed": false,
          "internalType": "string",
          "name": "name",
          "type": "string"
        },
        {
          "indexed": false,
          "internalType": "string",
          "name": "symbol",
          "type": "string"
        }
      ],
      "name": "NewTransaction",
      "type": "event"
    },
    {
      "anonymous": false,
      "inputs": [
        {
          "indexed": true,
          "internalType": "address",
          "name": "previousOwner",
          "type": "address"
        },
        {
          "indexed": true,
          "internalType": "address",
          "name": "newOwner",
          "type": "address"
        }
      ],
      "name": "OwnershipTransferred",
      "type": "event"
    },
    {
      "anonymous": false,
      "inputs": [
        {
          "indexed": false,
          "internalType": "address",
          "name": "account",
          "type": "address"
        }
      ],
      "name": "Paused",
      "type": "event"
    },
    {
      "anonymous": false,
      "inputs": [
        {
          "indexed": true,
          "internalType": "bytes32",
          "name": "role",
          "type": "bytes32"
        },
        {
          "indexed": true,
          "internalType": "bytes32",
          "name": "previousAdminRole",
          "type": "bytes32"
        },
        {
          "indexed": true,
          "internalType": "bytes32",
          "name": "newAdminRole",
          "type": "bytes32"
        }
      ],
      "name": "RoleAdminChanged",
      "type": "event"
    },
    {
      "anonymous": false,
      "inputs": [
        {
          "indexed": true,
          "internalType": "bytes32",
          "name": "role",
          "type": "bytes32"
        },
        {
          "indexed": true,
          "internalType": "address",
          "name": "account",
          "type": "address"
        },
        {
          "indexed": true,
          "internalType": "address",
          "name": "sender",
          "type": "address"
        }
      ],
      "name": "RoleGranted",
      "type": "event"
    },
    {
      "anonymous": false,
      "inputs": [
        {
          "indexed": true,
          "internalType": "bytes32",
          "name": "role",
          "type": "bytes32"
        },
        {
          "indexed": true,
          "internalType": "address",
          "name": "account",
          "type": "address"
        },
        {
          "indexed": true,
          "internalType": "address",
          "name": "sender",
          "type": "address"
        }
      ],
      "name": "RoleRevoked",
      "type": "event"
    },
    {
      "anonymous": false,
      "inputs": [
        {
          "indexed": true,
          "internalType": "address",
          "name": "operator",
          "type": "address"
        },
        {
          "indexed": true,
          "internalType": "address",
          "name": "from",
          "type": "address"
        },
        {
          "indexed": true,
          "internalType": "address",
          "name": "to",
          "type": "address"
        },
        {
          "indexed": false,
          "internalType": "uint256[]",
          "name": "ids",
          "type": "uint256[]"
        },
        {
          "indexed": false,
          "internalType": "uint256[]",
          "name": "values",
          "type": "uint256[]"
        }
      ],
      "name": "TransferBatch",
      "type": "event"
    },
    {
      "anonymous": false,
      "inputs": [
        {
          "indexed": true,
          "internalType": "address",
          "name": "operator",
          "type": "address"
        },
        {
          "indexed": true,
          "internalType": "address",
          "name": "from",
          "type": "address"
        },
        {
          "indexed": true,
          "internalType": "address",
          "name": "to",
          "type": "address"
        },
        {
          "indexed": false,
          "internalType": "uint256",
          "name": "id",
          "type": "uint256"
        },
        {
          "indexed": false,
          "internalType": "uint256",
          "name": "value",
          "type": "uint256"
        }
      ],
      "name": "TransferSingle",
      "type": "event"
    },
    {
      "anonymous": false,
      "inputs": [
        {
          "indexed": false,
          "internalType": "string",
          "name": "value",
          "type": "string"
        },
        {
          "indexed": true,
          "internalType": "uint256",
          "name": "id",
          "type": "uint256"
        }
      ],
      "name": "URI",
      "type": "event"
    },
    {
      "anonymous": false,
      "inputs": [
        {
          "indexed": false,
          "internalType": "address",
          "name": "account",
          "type": "address"
        }
      ],
      "name": "Unpaused",
      "type": "event"
    },
    {
      "inputs": [],
      "name": "DEFAULT_ADMIN_ROLE",
      "outputs": [
        {
          "internalType": "bytes32",
          "name": "",
          "type": "bytes32"
        }
      ],
      "stateMutability": "view",
      "type": "function"
    },
    {
      "inputs": [],
      "name": "MINTER_ROLE",
      "outputs": [
        {
          "internalType": "bytes32",
          "name": "",
          "type": "bytes32"
        }
      ],
      "stateMutability": "view",
      "type": "function"
    },
    {
      "inputs": [],
      "name": "PAUSER_ROLE",
      "outputs": [
        {
          "internalType": "bytes32",
          "name": "",
          "type": "bytes32"
        }
      ],
      "stateMutability": "view",
      "type": "function"
    },
    {
      "inputs": [
        {
          "internalType": "uint256",
          "name": "_tokenId",
          "type": "uint256"
        },
        {
          "internalType": "uint256",
          "name": "_amount",
          "type": "uint256"
        }
      ],
      "name": "_buyProceeds",
      "outputs": [
        {
          "internalType": "uint256",
          "name": "",
          "type": "uint256"
        }
      ],
      "stateMutability": "view",
      "type": "function"
    },
    {
      "inputs": [
        {
          "internalType": "uint256",
          "name": "_proceedsRequired",
          "type": "uint256"
        }
      ],
      "name": "_feeProceeds",
      "outputs": [
        {
          "internalType": "uint256",
          "name": "",
          "type": "uint256"
        }
      ],
      "stateMutability": "view",
      "type": "function"
    },
    {
      "inputs": [
        {
          "internalType": "uint256",
          "name": "_tokenId",
          "type": "uint256"
        },
        {
          "internalType": "uint256",
          "name": "_amount",
          "type": "uint256"
        }
      ],
      "name": "_totalProceeds",
      "outputs": [
        {
          "internalType": "uint256[3]",
          "name": "",
          "type": "uint256[3]"
        }
      ],
      "stateMutability": "nonpayable",
      "type": "function"
    },
    {
      "inputs": [
        {
          "internalType": "address",
          "name": "_account",
          "type": "address"
        },
        {
          "internalType": "uint256",
          "name": "_id",
          "type": "uint256"
        }
      ],
      "name": "balanceOf",
      "outputs": [
        {
          "internalType": "uint256",
          "name": "",
          "type": "uint256"
        }
      ],
      "stateMutability": "view",
      "type": "function"
    },
    {
      "inputs": [
        {
          "internalType": "address[]",
          "name": "_accounts",
          "type": "address[]"
        },
        {
          "internalType": "uint256[]",
          "name": "_ids",
          "type": "uint256[]"
        }
      ],
      "name": "balanceOfBatch",
      "outputs": [
        {
          "internalType": "uint256[]",
          "name": "",
          "type": "uint256[]"
        }
      ],
      "stateMutability": "view",
      "type": "function"
    },
    {
      "inputs": [
        {
          "internalType": "address",
          "name": "_account",
          "type": "address"
        },
        {
          "internalType": "uint256",
          "name": "_id",
          "type": "uint256"
        },
        {
          "internalType": "uint256",
          "name": "_amount",
          "type": "uint256"
        }
      ],
      "name": "burn",
      "outputs": [],
      "stateMutability": "nonpayable",
      "type": "function"
    },
    {
      "inputs": [
        {
          "internalType": "address",
          "name": "_account",
          "type": "address"
        },
        {
          "internalType": "uint256[]",
          "name": "_ids",
          "type": "uint256[]"
        },
        {
          "internalType": "uint256[]",
          "name": "_amounts",
          "type": "uint256[]"
        }
      ],
      "name": "burnBatch",
      "outputs": [],
      "stateMutability": "nonpayable",
      "type": "function"
    },
    {
      "inputs": [
        {
          "internalType": "uint256",
          "name": "_tokenId",
          "type": "uint256"
        },
        {
          "internalType": "address payable",
          "name": "_newCreatorAddress",
          "type": "address"
        }
      ],
      "name": "changeAddress",
      "outputs": [],
      "stateMutability": "nonpayable",
      "type": "function"
    },
    {
      "inputs": [
        {
          "internalType": "uint256",
          "name": "_tokenId",
          "type": "uint256"
        },
        {
          "internalType": "string",
          "name": "_newDescription",
          "type": "string"
        }
      ],
      "name": "changeDescription",
      "outputs": [],
      "stateMutability": "nonpayable",
      "type": "function"
    },
    {
      "inputs": [
        {
          "internalType": "uint256",
          "name": "_tokenId",
          "type": "uint256"
        },
        {
          "internalType": "string",
          "name": "_newName",
          "type": "string"
        }
      ],
      "name": "changeName",
      "outputs": [],
      "stateMutability": "nonpayable",
      "type": "function"
    },
    {
      "inputs": [
        {
          "internalType": "uint256",
          "name": "_newPlatformFee",
          "type": "uint256"
        }
      ],
      "name": "changePlatformFee",
      "outputs": [],
      "stateMutability": "nonpayable",
      "type": "function"
    },
    {
      "inputs": [
        {
          "internalType": "uint256",
          "name": "_newProfitMargin",
          "type": "uint256"
        }
      ],
      "name": "changeProfitMargin",
      "outputs": [],
      "stateMutability": "nonpayable",
      "type": "function"
    },
    {
      "inputs": [
        {
          "internalType": "uint256",
          "name": "_tokenId",
          "type": "uint256"
        },
        {
          "internalType": "string",
          "name": "_newSymbol",
          "type": "string"
        }
      ],
      "name": "changeSymbol",
      "outputs": [],
      "stateMutability": "nonpayable",
      "type": "function"
    },
    {
      "inputs": [
        {
          "internalType": "uint256",
          "name": "_tokenId",
          "type": "uint256"
        },
        {
          "internalType": "bool",
          "name": "_verified",
          "type": "bool"
        }
      ],
      "name": "changeVerification",
      "outputs": [],
      "stateMutability": "nonpayable",
      "type": "function"
    },
    {
      "inputs": [
        {
          "internalType": "address payable",
          "name": "_creatorAddress",
          "type": "address"
        },
        {
          "internalType": "string",
          "name": "_name",
          "type": "string"
        },
        {
          "internalType": "string",
          "name": "_symbol",
          "type": "string"
        },
        {
          "internalType": "string",
          "name": "_description",
          "type": "string"
        }
      ],
      "name": "createCreatorToken",
      "outputs": [],
      "stateMutability": "nonpayable",
      "type": "function"
    },
    {
      "inputs": [
        {
          "internalType": "uint256",
          "name": "",
          "type": "uint256"
        }
      ],
      "name": "creatorTokens",
      "outputs": [
        {
          "internalType": "address payable",
          "name": "creatorAddress",
          "type": "address"
        },
        {
          "internalType": "string",
          "name": "name",
          "type": "string"
        },
        {
          "internalType": "string",
          "name": "symbol",
          "type": "string"
        },
        {
          "internalType": "string",
          "name": "description",
          "type": "string"
        },
        {
          "internalType": "bool",
          "name": "verified",
          "type": "bool"
        },
        {
          "internalType": "uint256",
          "name": "outstanding",
          "type": "uint256"
        },
        {
          "internalType": "uint256",
          "name": "maxSupply",
          "type": "uint256"
        }
      ],
      "stateMutability": "view",
      "type": "function"
    },
    {
      "inputs": [
        {
          "internalType": "bytes32",
          "name": "role",
          "type": "bytes32"
        }
      ],
      "name": "getRoleAdmin",
      "outputs": [
        {
          "internalType": "bytes32",
          "name": "",
          "type": "bytes32"
        }
      ],
      "stateMutability": "view",
      "type": "function"
    },
    {
      "inputs": [
        {
          "internalType": "bytes32",
          "name": "role",
          "type": "bytes32"
        },
        {
          "internalType": "uint256",
          "name": "index",
          "type": "uint256"
        }
      ],
      "name": "getRoleMember",
      "outputs": [
        {
          "internalType": "address",
          "name": "",
          "type": "address"
        }
      ],
      "stateMutability": "view",
      "type": "function"
    },
    {
      "inputs": [
        {
          "internalType": "bytes32",
          "name": "role",
          "type": "bytes32"
        }
      ],
      "name": "getRoleMemberCount",
      "outputs": [
        {
          "internalType": "uint256",
          "name": "",
          "type": "uint256"
        }
      ],
      "stateMutability": "view",
      "type": "function"
    },
    {
      "inputs": [
        {
          "internalType": "bytes32",
          "name": "role",
          "type": "bytes32"
        },
        {
          "internalType": "address",
          "name": "account",
          "type": "address"
        }
      ],
      "name": "grantRole",
      "outputs": [],
      "stateMutability": "nonpayable",
      "type": "function"
    },
    {
      "inputs": [
        {
          "internalType": "bytes32",
          "name": "role",
          "type": "bytes32"
        },
        {
          "internalType": "address",
          "name": "account",
          "type": "address"
        }
      ],
      "name": "hasRole",
      "outputs": [
        {
          "internalType": "bool",
          "name": "",
          "type": "bool"
        }
      ],
      "stateMutability": "view",
      "type": "function"
    },
    {
      "inputs": [
        {
          "internalType": "address",
          "name": "_account",
          "type": "address"
        },
        {
          "internalType": "address",
          "name": "_operator",
          "type": "address"
        }
      ],
      "name": "isApprovedForAll",
      "outputs": [
        {
          "internalType": "bool",
          "name": "",
          "type": "bool"
        }
      ],
      "stateMutability": "view",
      "type": "function"
    },
    {
      "inputs": [
        {
          "internalType": "address",
          "name": "_to",
          "type": "address"
        },
        {
          "internalType": "uint256",
          "name": "_id",
          "type": "uint256"
        },
        {
          "internalType": "uint256",
          "name": "_amount",
          "type": "uint256"
        },
        {
          "internalType": "bytes",
          "name": "_data",
          "type": "bytes"
        }
      ],
      "name": "mint",
      "outputs": [],
      "stateMutability": "nonpayable",
      "type": "function"
    },
    {
      "inputs": [
        {
          "internalType": "address",
          "name": "_to",
          "type": "address"
        },
        {
          "internalType": "uint256[]",
          "name": "_ids",
          "type": "uint256[]"
        },
        {
          "internalType": "uint256[]",
          "name": "_amounts",
          "type": "uint256[]"
        },
        {
          "internalType": "bytes",
          "name": "data",
          "type": "bytes"
        }
      ],
      "name": "mintBatch",
      "outputs": [],
      "stateMutability": "nonpayable",
      "type": "function"
    },
    {
      "inputs": [],
      "name": "owner",
      "outputs": [
        {
          "internalType": "address",
          "name": "",
          "type": "address"
        }
      ],
      "stateMutability": "view",
      "type": "function"
    },
    {
      "inputs": [],
      "name": "pause",
      "outputs": [],
      "stateMutability": "nonpayable",
      "type": "function"
    },
    {
      "inputs": [],
      "name": "paused",
      "outputs": [
        {
          "internalType": "bool",
          "name": "",
          "type": "bool"
        }
      ],
      "stateMutability": "view",
      "type": "function"
    },
    {
      "inputs": [
        {
          "internalType": "address payable",
          "name": "_owner",
          "type": "address"
        }
      ],
      "name": "payoutPlatformFees",
      "outputs": [],
      "stateMutability": "nonpayable",
      "type": "function"
    },
    {
      "inputs": [],
      "name": "renounceOwnership",
      "outputs": [],
      "stateMutability": "nonpayable",
      "type": "function"
    },
    {
      "inputs": [
        {
          "internalType": "bytes32",
          "name": "role",
          "type": "bytes32"
        },
        {
          "internalType": "address",
          "name": "account",
          "type": "address"
        }
      ],
      "name": "renounceRole",
      "outputs": [],
      "stateMutability": "nonpayable",
      "type": "function"
    },
    {
      "inputs": [
        {
          "internalType": "bytes32",
          "name": "role",
          "type": "bytes32"
        },
        {
          "internalType": "address",
          "name": "account",
          "type": "address"
        }
      ],
      "name": "revokeRole",
      "outputs": [],
      "stateMutability": "nonpayable",
      "type": "function"
    },
    {
      "inputs": [
        {
          "internalType": "address",
          "name": "_from",
          "type": "address"
        },
        {
          "internalType": "address",
          "name": "_to",
          "type": "address"
        },
        {
          "internalType": "uint256[]",
          "name": "_ids",
          "type": "uint256[]"
        },
        {
          "internalType": "uint256[]",
          "name": "_amounts",
          "type": "uint256[]"
        },
        {
          "internalType": "bytes",
          "name": "data",
          "type": "bytes"
        }
      ],
      "name": "safeBatchTransferFrom",
      "outputs": [],
      "stateMutability": "nonpayable",
      "type": "function"
    },
    {
      "inputs": [
        {
          "internalType": "address",
          "name": "_from",
          "type": "address"
        },
        {
          "internalType": "address",
          "name": "_to",
          "type": "address"
        },
        {
          "internalType": "uint256",
          "name": "_id",
          "type": "uint256"
        },
        {
          "internalType": "uint256",
          "name": "_amount",
          "type": "uint256"
        },
        {
          "internalType": "bytes",
          "name": "_data",
          "type": "bytes"
        }
      ],
      "name": "safeTransferFrom",
      "outputs": [],
      "stateMutability": "nonpayable",
      "type": "function"
    },
    {
      "inputs": [
        {
          "internalType": "address",
          "name": "_operator",
          "type": "address"
        },
        {
          "internalType": "bool",
          "name": "_approved",
          "type": "bool"
        }
      ],
      "name": "setApprovalForAll",
      "outputs": [],
      "stateMutability": "nonpayable",
      "type": "function"
    },
    {
      "inputs": [
        {
          "internalType": "bytes4",
          "name": "interfaceId",
          "type": "bytes4"
        }
      ],
      "name": "supportsInterface",
      "outputs": [
        {
          "internalType": "bool",
          "name": "",
          "type": "bool"
        }
      ],
      "stateMutability": "view",
      "type": "function"
    },
    {
      "inputs": [
        {
          "internalType": "uint256",
          "name": "",
          "type": "uint256"
        },
        {
          "internalType": "address",
          "name": "",
          "type": "address"
        }
      ],
      "name": "tokenHoldership",
      "outputs": [
        {
          "internalType": "uint256",
          "name": "",
          "type": "uint256"
        }
      ],
      "stateMutability": "view",
      "type": "function"
    },
    {
      "inputs": [
        {
          "internalType": "uint256",
          "name": "",
          "type": "uint256"
        }
      ],
      "name": "tokenToCreator",
      "outputs": [
        {
          "internalType": "address",
          "name": "",
          "type": "address"
        }
      ],
      "stateMutability": "view",
      "type": "function"
    },
    {
      "inputs": [
        {
          "internalType": "address",
          "name": "newOwner",
          "type": "address"
        }
      ],
      "name": "transferOwnership",
      "outputs": [],
      "stateMutability": "nonpayable",
      "type": "function"
    },
    {
      "inputs": [],
      "name": "unpause",
      "outputs": [],
      "stateMutability": "nonpayable",
      "type": "function"
    },
    {
      "inputs": [
        {
          "internalType": "uint256",
          "name": "",
          "type": "uint256"
        }
      ],
      "name": "uri",
      "outputs": [
        {
          "internalType": "string",
          "name": "",
          "type": "string"
        }
      ],
      "stateMutability": "view",
      "type": "function"
    },
    {
      "inputs": [
        {
          "internalType": "address",
          "name": "",
          "type": "address"
        },
        {
          "internalType": "uint256",
          "name": "",
          "type": "uint256"
        }
      ],
      "name": "userToHoldings",
      "outputs": [
        {
          "internalType": "uint256",
          "name": "",
          "type": "uint256"
        }
      ],
      "stateMutability": "view",
      "type": "function"
    },
    {
      "inputs": [
        {
          "internalType": "address payable",
          "name": "_owner",
          "type": "address"
        }
      ],
      "name": "withdraw",
      "outputs": [],
      "stateMutability": "nonpayable",
      "type": "function"
    },
    {
      "inputs": [
        {
          "internalType": "uint256",
          "name": "_tokenId",
          "type": "uint256"
        },
        {
          "internalType": "uint256",
          "name": "_amount",
          "type": "uint256"
        }
      ],
      "name": "buyCreatorToken",
      "outputs": [],
      "stateMutability": "payable",
      "type": "function"
    },
    {
      "inputs": [
        {
          "internalType": "uint256",
          "name": "_tokenId",
          "type": "uint256"
        },
        {
          "internalType": "uint256",
          "name": "_amount",
          "type": "uint256"
        },
        {
          "internalType": "address payable",
          "name": "_seller",
          "type": "address"
        }
      ],
      "name": "sellCreatorToken",
      "outputs": [],
      "stateMutability": "payable",
      "type": "function"
    }
  ],
  "bytecode": "0x60806040526001805560006002556000600355601460045565082f79cd900060055560b96006553480156200003357600080fd5b5060405162006811380380620068118339818101604052810190620000599190620005cc565b8080808060006200006f620001ea60201b60201c565b9050806000806101000a81548173ffffffffffffffffffffffffffffffffffffffff021916908373ffffffffffffffffffffffffffffffffffffffff1602179055508073ffffffffffffffffffffffffffffffffffffffff16600073ffffffffffffffffffffffffffffffffffffffff167f8be0079c531659141344cd1fd0a4f28419497f9722a3daafe3b4186f6b6457e060405160405180910390a3506200011e81620001f260201b60201c565b506000601260006101000a81548160ff0219169083151502179055506200015e6000801b62000152620001ea60201b60201c565b6200020e60201b60201c565b6200019f7f9f2df0fed2c77648de5860a4cc508cd0818c85b8b8a1ab4ceeef8d981c8956a662000193620001ea60201b60201c565b6200020e60201b60201c565b620001e07f65d7a28e3265b37a6474929f336521b332c1681b933f6cb9f3376673440d862a620001d4620001ea60201b60201c565b6200020e60201b60201c565b50505050620007a1565b600033905090565b80601190805190602001906200020a9291906200049e565b5050565b6200022582826200025660201b620030a81760201c565b6200025181600e60008581526020019081526020016000206200026c60201b620030b61790919060201c565b505050565b620002688282620002a460201b60201c565b5050565b60006200029c836000018373ffffffffffffffffffffffffffffffffffffffff1660001b6200039660201b60201c565b905092915050565b620002b682826200041060201b60201c565b62000392576001600d600084815260200190815260200160002060000160008373ffffffffffffffffffffffffffffffffffffffff1673ffffffffffffffffffffffffffffffffffffffff16815260200190815260200160002060006101000a81548160ff02191690831515021790555062000337620001ea60201b60201c565b73ffffffffffffffffffffffffffffffffffffffff168173ffffffffffffffffffffffffffffffffffffffff16837f2f8788117e7eff1d82e926ec794901d17c78024a50270940304540a733656f0d60405160405180910390a45b5050565b6000620003aa83836200047b60201b60201c565b620004055782600001829080600181540180825580915050600190039060005260206000200160009091909190915055826000018054905083600101600084815260200190815260200160002081905550600190506200040a565b600090505b92915050565b6000600d600084815260200190815260200160002060000160008373ffffffffffffffffffffffffffffffffffffffff1673ffffffffffffffffffffffffffffffffffffffff16815260200190815260200160002060009054906101000a900460ff16905092915050565b600080836001016000848152602001908152602001600020541415905092915050565b828054620004ac90620006b2565b90600052602060002090601f016020900481019282620004d057600085556200051c565b82601f10620004eb57805160ff19168380011785556200051c565b828001600101855582156200051c579182015b828111156200051b578251825591602001919060010190620004fe565b5b5090506200052b91906200052f565b5090565b5b808211156200054a57600081600090555060010162000530565b5090565b6000620005656200055f8462000646565b6200061d565b90508281526020810184848401111562000584576200058362000781565b5b620005918482856200067c565b509392505050565b600082601f830112620005b157620005b06200077c565b5b8151620005c38482602086016200054e565b91505092915050565b600060208284031215620005e557620005e46200078b565b5b600082015167ffffffffffffffff81111562000606576200060562000786565b5b620006148482850162000599565b91505092915050565b6000620006296200063c565b9050620006378282620006e8565b919050565b6000604051905090565b600067ffffffffffffffff8211156200066457620006636200074d565b5b6200066f8262000790565b9050602081019050919050565b60005b838110156200069c5780820151818401526020810190506200067f565b83811115620006ac576000848401525b50505050565b60006002820490506001821680620006cb57607f821691505b60208210811415620006e257620006e16200071e565b5b50919050565b620006f38262000790565b810181811067ffffffffffffffff821117156200071557620007146200074d565b5b80604052505050565b7f4e487b7100000000000000000000000000000000000000000000000000000000600052602260045260246000fd5b7f4e487b7100000000000000000000000000000000000000000000000000000000600052604160045260246000fd5b600080fd5b600080fd5b600080fd5b600080fd5b6000601f19601f8301169050919050565b61606080620007b16000396000f3fe6080604052600436106102875760003560e01c80639010d07c1161015a578063d547741f116100c1578063eb8417591161007a578063eb84175914610a2a578063f242432a14610a53578063f2fde38b14610a7c578063f5298aca14610aa5578063f7374e2e14610ace578063fffae94114610af757610287565b8063d547741f1461091e578063d56b72c714610947578063d7a5791a14610970578063de6a06ed14610999578063e63ab1e9146109c2578063e985e9c5146109ed57610287565b8063bfb48c9c11610113578063bfb48c9c146107e4578063c39cbef114610821578063c539c3171461084a578063ca15c87314610873578063ce901d8a146108b0578063d5391393146108f357610287565b80639010d07c1461069c57806391d14854146106d957806392724afa14610716578063a217fddf14610753578063a22cb4651461077e578063ba111a05146107a757610287565b806335a8ae21116101fe5780635c975abb116101b75780635c975abb146105c65780636b20c454146105f1578063715018a61461061a578063731133e9146106315780638456cb591461065a5780638da5cb5b1461067157610287565b806335a8ae21146104a657806336568abe146104e35780633f4ba83a1461050c5780634e1273f4146105235780634fe477d81461056057806351cff8d91461059d57610287565b80631d5ad18b116102505780631d5ad18b146103a95780631f7fdffa146103d2578063248a9ca3146103fb5780632dcfdaf7146104385780632eb2c2d6146104545780632f2ff15d1461047d57610287565b8062fdd58e1461028c57806301ffc9a7146102c957806306e320f5146103065780630e89341c1461032f57806318892ae81461036c575b600080fd5b34801561029857600080fd5b506102b360048036038101906102ae9190614ac0565b610b13565b6040516102c091906155bd565b60405180910390f35b3480156102d557600080fd5b506102f060048036038101906102eb9190614d04565b610b6e565b6040516102fd9190615445565b60405180910390f35b34801561031257600080fd5b5061032d60048036038101906103289190614e1e565b610b80565b005b34801561033b57600080fd5b5061035660048036038101906103519190614d31565b610c27565b604051610363919061547b565b60405180910390f35b34801561037857600080fd5b50610393600480360381019061038e9190614d31565b610cbb565b6040516103a09190615332565b60405180910390f35b3480156103b557600080fd5b506103d060048036038101906103cb9190614d9e565b610cee565b005b3480156103de57600080fd5b506103f960048036038101906103f491906149c5565b610dc3565b005b34801561040757600080fd5b50610422600480360381019061041d9190614c57565b61100e565b60405161042f9190615460565b60405180910390f35b610452600480360381019061044d9190614ebe565b61102e565b005b34801561046057600080fd5b5061047b600480360381019061047691906147d4565b6111f7565b005b34801561048957600080fd5b506104a4600480360381019061049f9190614c84565b6113d2565b005b3480156104b257600080fd5b506104cd60048036038101906104c89190614e7e565b611406565b6040516104da91906153d1565b60405180910390f35b3480156104ef57600080fd5b5061050a60048036038101906105059190614c84565b611468565b005b34801561051857600080fd5b5061052161149c565b005b34801561052f57600080fd5b5061054a60048036038101906105459190614bd6565b611516565b60405161055791906153ec565b60405180910390f35b34801561056c57600080fd5b5061058760048036038101906105829190614e7e565b611646565b60405161059491906155bd565b60405180910390f35b3480156105a957600080fd5b506105c460048036038101906105bf91906146ac565b611853565b005b3480156105d257600080fd5b506105db611919565b6040516105e89190615445565b60405180910390f35b3480156105fd57600080fd5b506106186004803603810190610613919061493a565b611930565b005b34801561062657600080fd5b5061062f611b7a565b005b34801561063d57600080fd5b5061065860048036038101906106539190614b53565b611cb4565b005b34801561066657600080fd5b5061066f611e43565b005b34801561067d57600080fd5b50610686611ebd565b6040516106939190615332565b60405180910390f35b3480156106a857600080fd5b506106c360048036038101906106be9190614cc4565b611ee6565b6040516106d09190615332565b60405180910390f35b3480156106e557600080fd5b5061070060048036038101906106fb9190614c84565b611f15565b60405161070d9190615445565b60405180910390f35b34801561072257600080fd5b5061073d60048036038101906107389190614ac0565b611f80565b60405161074a91906155bd565b60405180910390f35b34801561075f57600080fd5b50610768611fa5565b6040516107759190615460565b60405180910390f35b34801561078a57600080fd5b506107a560048036038101906107a09190614a80565b611fac565b005b3480156107b357600080fd5b506107ce60048036038101906107c99190614d31565b6120a9565b6040516107db91906155bd565b60405180910390f35b3480156107f057600080fd5b5061080b60048036038101906108069190614d5e565b6120cc565b60405161081891906155bd565b60405180910390f35b34801561082d57600080fd5b5061084860048036038101906108439190614e1e565b6120f1565b005b34801561085657600080fd5b50610871600480360381019061086c9190614d31565b612198565b005b34801561087f57600080fd5b5061089a60048036038101906108959190614c57565b61221e565b6040516108a791906155bd565b60405180910390f35b3480156108bc57600080fd5b506108d760048036038101906108d29190614d31565b612242565b6040516108ea979695949392919061534d565b60405180910390f35b3480156108ff57600080fd5b50610908612459565b6040516109159190615460565b60405180910390f35b34801561092a57600080fd5b5061094560048036038101906109409190614c84565b61247d565b005b34801561095357600080fd5b5061096e600480360381019061096991906146d9565b6124b1565b005b34801561097c57600080fd5b5061099760048036038101906109929190614d31565b6126cd565b005b3480156109a557600080fd5b506109c060048036038101906109bb9190614e1e565b612753565b005b3480156109ce57600080fd5b506109d76127fa565b6040516109e49190615460565b60405180910390f35b3480156109f957600080fd5b50610a146004803603810190610a0f9190614794565b61281e565b604051610a219190615445565b60405180910390f35b348015610a3657600080fd5b50610a516004803603810190610a4c91906146ac565b6128b2565b005b348015610a5f57600080fd5b50610a7a6004803603810190610a7591906148a3565b612982565b005b348015610a8857600080fd5b50610aa36004803603810190610a9e919061467f565b612ad5565b005b348015610ab157600080fd5b50610acc6004803603810190610ac79190614b00565b612c7e565b005b348015610ada57600080fd5b50610af56004803603810190610af09190614dde565b612e0c565b005b610b116004803603810190610b0c9190614e7e565b612ec9565b005b6000600a600083815260200190815260200160002060008473ffffffffffffffffffffffffffffffffffffffff1673ffffffffffffffffffffffffffffffffffffffff16815260200190815260200160002054905092915050565b6000610b79826130e6565b9050919050565b826008600082815260200190815260200160002060009054906101000a900473ffffffffffffffffffffffffffffffffffffffff1673ffffffffffffffffffffffffffffffffffffffff163373ffffffffffffffffffffffffffffffffffffffff1614610bec57600080fd5b828260078681548110610c0257610c01615c40565b5b90600052602060002090600702016002019190610c20929190614236565b5050505050565b606060118054610c3690615ad8565b80601f0160208091040260200160405190810160405280929190818152602001828054610c6290615ad8565b8015610caf5780601f10610c8457610100808354040283529160200191610caf565b820191906000526020600020905b815481529060010190602001808311610c9257829003601f168201915b50505050509050919050565b60086020528060005260406000206000915054906101000a900473ffffffffffffffffffffffffffffffffffffffff1681565b816008600082815260200190815260200160002060009054906101000a900473ffffffffffffffffffffffffffffffffffffffff1673ffffffffffffffffffffffffffffffffffffffff163373ffffffffffffffffffffffffffffffffffffffff1614610d5a57600080fd5b8160078481548110610d6f57610d6e615c40565b5b906000526020600020906007020160000160006101000a81548173ffffffffffffffffffffffffffffffffffffffff021916908373ffffffffffffffffffffffffffffffffffffffff160217905550505050565b60005b8351811015610f8857828181518110610de257610de1615c40565b5b6020026020010151600a6000868481518110610e0157610e00615c40565b5b6020026020010151815260200190815260200160002060008773ffffffffffffffffffffffffffffffffffffffff1673ffffffffffffffffffffffffffffffffffffffff1681526020019081526020016000206000828254610e6391906158b5565b92505081905550828181518110610e7d57610e7c615c40565b5b6020026020010151600b60008773ffffffffffffffffffffffffffffffffffffffff1673ffffffffffffffffffffffffffffffffffffffff1681526020019081526020016000206000868481518110610ed957610ed8615c40565b5b602002602001015181526020019081526020016000206000828254610efe91906158b5565b92505081905550828181518110610f1857610f17615c40565b5b60200260200101516007858381518110610f3557610f34615c40565b5b602002602001015181548110610f4e57610f4d615c40565b5b90600052602060002090600702016005016000828254610f6e91906158b5565b925050819055508080610f8090615b3b565b915050610dc6565b508373ffffffffffffffffffffffffffffffffffffffff16600073ffffffffffffffffffffffffffffffffffffffff163373ffffffffffffffffffffffffffffffffffffffff167f4a39dc06d4c0dbc64b70af90fd698a233a518aa5d07e595d983b8c0526c8f7fb868660405161100092919061540e565b60405180910390a450505050565b6000600d6000838152602001908152602001600020600101549050919050565b3373ffffffffffffffffffffffffffffffffffffffff168173ffffffffffffffffffffffffffffffffffffffff161461106657600080fd5b6000806007858154811061107d5761107c615c40565b5b90600052602060002090600702016005015490506110ca818560055460065460078a815481106110b0576110af615c40565b5b9060005260206000209060070201600601546004546131c8565b915060006064600154846110de919061593c565b6110e8919061590b565b905080836110f69190615996565b9250611103848787612c7e565b8373ffffffffffffffffffffffffffffffffffffffff166108fc849081150290604051600060405180830381858888f19350505050158015611149573d6000803e3d6000fd5b5061115381613241565b3373ffffffffffffffffffffffffffffffffffffffff167f1ebb537d8231cf8a6b1b0d1684d85dfd83872c030ffc75f500f0729eaf674d82868860078a815481106111a1576111a0615c40565b5b906000526020600020906007020160010160078b815481106111c6576111c5615c40565b5b90600052602060002090600702016002016040516111e794939291906156d1565b60405180910390a2505050505050565b60005b835181101561134c5782818151811061121657611215615c40565b5b6020026020010151600a600086848151811061123557611234615c40565b5b6020026020010151815260200190815260200160002060008873ffffffffffffffffffffffffffffffffffffffff1673ffffffffffffffffffffffffffffffffffffffff16815260200190815260200160002060008282546112979190615996565b925050819055508281815181106112b1576112b0615c40565b5b6020026020010151600a60008684815181106112d0576112cf615c40565b5b6020026020010151815260200190815260200160002060008773ffffffffffffffffffffffffffffffffffffffff1673ffffffffffffffffffffffffffffffffffffffff168152602001908152602001600020600082825461133291906158b5565b92505081905550808061134490615b3b565b9150506111fa565b508373ffffffffffffffffffffffffffffffffffffffff168573ffffffffffffffffffffffffffffffffffffffff163373ffffffffffffffffffffffffffffffffffffffff167f4a39dc06d4c0dbc64b70af90fd698a233a518aa5d07e595d983b8c0526c8f7fb86866040516113c392919061540e565b60405180910390a45050505050565b6113dc8282613276565b61140181600e60008581526020019081526020016000206130b690919063ffffffff16565b505050565b61140e6142bc565b600061141a8484611646565b90506000611427826120a9565b905061143281613241565b6000818361144091906158b5565b9050604051806060016040528084815260200183815260200182815250935050505092915050565b611472828261329f565b61149781600e600085815260200190815260200160002061332290919063ffffffff16565b505050565b6114cd7f65d7a28e3265b37a6474929f336521b332c1681b933f6cb9f3376673440d862a6114c8613352565b611f15565b61150c576040517f08c379a00000000000000000000000000000000000000000000000000000000081526004016115039061555d565b60405180910390fd5b61151461335a565b565b606060008585905067ffffffffffffffff81111561153757611536615c6f565b5b6040519080825280602002602001820160405280156115655781602001602082028036833780820191505090505b50905060005b8686905081101561163957600a600086868481811061158d5761158c615c40565b5b90506020020135815260200190815260200160002060008888848181106115b7576115b6615c40565b5b90506020020160208101906115cc919061467f565b73ffffffffffffffffffffffffffffffffffffffff1673ffffffffffffffffffffffffffffffffffffffff1681526020019081526020016000205482828151811061161a57611619615c40565b5b602002602001018181525050808061163190615b3b565b91505061156b565b5080915050949350505050565b6000806000905060006007858154811061166357611662615c40565b5b90600052602060002090600702016005015490506000848261168591906158b5565b90506007868154811061169b5761169a615c40565b5b9060005260206000209060070201600601548110156116f4576116ed828660055460065460078b815481106116d3576116d2615c40565b5b9060005260206000209060070201600601546004546131c8565b9250611847565b6007868154811061170857611707615c40565b5b906000526020600020906007020160060154821015611833576117af6007878154811061173857611737615c40565b5b906000526020600020906007020160060154836007898154811061175f5761175e615c40565b5b90600052602060002090600702016006015461177b9190615996565b60055460065460078b8154811061179557611794615c40565b5b9060005260206000209060070201600601546004546131c8565b9250611821600787815481106117c8576117c7615c40565b5b90600052602060002090600702016006015483600789815481106117ef576117ee615c40565b5b90600052602060002090600702016006015461180b9190615996565b876118169190615996565b6005546006546133fc565b8361182c91906158b5565b9250611846565b61184382866005546006546133fc565b92505b5b82935050505092915050565b61185b613352565b73ffffffffffffffffffffffffffffffffffffffff16611879611ebd565b73ffffffffffffffffffffffffffffffffffffffff16146118cf576040517f08c379a00000000000000000000000000000000000000000000000000000000081526004016118c69061553d565b60405180910390fd5b8073ffffffffffffffffffffffffffffffffffffffff166108fc479081150290604051600060405180830381858888f19350505050158015611915573d6000803e3d6000fd5b5050565b6000601260009054906101000a900460ff16905090565b60005b8251811015611af55781818151811061194f5761194e615c40565b5b6020026020010151600a600085848151811061196e5761196d615c40565b5b6020026020010151815260200190815260200160002060008673ffffffffffffffffffffffffffffffffffffffff1673ffffffffffffffffffffffffffffffffffffffff16815260200190815260200160002060008282546119d09190615996565b925050819055508181815181106119ea576119e9615c40565b5b6020026020010151600b60008673ffffffffffffffffffffffffffffffffffffffff1673ffffffffffffffffffffffffffffffffffffffff1681526020019081526020016000206000858481518110611a4657611a45615c40565b5b602002602001015181526020019081526020016000206000828254611a6b9190615996565b92505081905550818181518110611a8557611a84615c40565b5b60200260200101516007848381518110611aa257611aa1615c40565b5b602002602001015181548110611abb57611aba615c40565b5b90600052602060002090600702016005016000828254611adb9190615996565b925050819055508080611aed90615b3b565b915050611933565b50600073ffffffffffffffffffffffffffffffffffffffff168373ffffffffffffffffffffffffffffffffffffffff163373ffffffffffffffffffffffffffffffffffffffff167f4a39dc06d4c0dbc64b70af90fd698a233a518aa5d07e595d983b8c0526c8f7fb8585604051611b6d92919061540e565b60405180910390a4505050565b611b82613352565b73ffffffffffffffffffffffffffffffffffffffff16611ba0611ebd565b73ffffffffffffffffffffffffffffffffffffffff1614611bf6576040517f08c379a0000000000000000000000000000000000000000000000000000000008152600401611bed9061553d565b60405180910390fd5b600073ffffffffffffffffffffffffffffffffffffffff1660008054906101000a900473ffffffffffffffffffffffffffffffffffffffff1673ffffffffffffffffffffffffffffffffffffffff167f8be0079c531659141344cd1fd0a4f28419497f9722a3daafe3b4186f6b6457e060405160405180910390a360008060006101000a81548173ffffffffffffffffffffffffffffffffffffffff021916908373ffffffffffffffffffffffffffffffffffffffff160217905550565b81600a600085815260200190815260200160002060008673ffffffffffffffffffffffffffffffffffffffff1673ffffffffffffffffffffffffffffffffffffffff1681526020019081526020016000206000828254611d1491906158b5565b9250508190555081600b60008673ffffffffffffffffffffffffffffffffffffffff1673ffffffffffffffffffffffffffffffffffffffff16815260200190815260200160002060008581526020019081526020016000206000828254611d7b91906158b5565b925050819055508160078481548110611d9757611d96615c40565b5b90600052602060002090600702016005016000828254611db791906158b5565b925050819055508373ffffffffffffffffffffffffffffffffffffffff16600073ffffffffffffffffffffffffffffffffffffffff163373ffffffffffffffffffffffffffffffffffffffff167fc3d58168c5ae7397731d063d5bbf3d657854427343f4c083240f7aacaa2d0f628686604051611e35929190615737565b60405180910390a450505050565b611e747f65d7a28e3265b37a6474929f336521b332c1681b933f6cb9f3376673440d862a611e6f613352565b611f15565b611eb3576040517f08c379a0000000000000000000000000000000000000000000000000000000008152600401611eaa9061557d565b60405180910390fd5b611ebb61348a565b565b60008060009054906101000a900473ffffffffffffffffffffffffffffffffffffffff16905090565b6000611f0d82600e600086815260200190815260200160002061352d90919063ffffffff16565b905092915050565b6000600d600084815260200190815260200160002060000160008373ffffffffffffffffffffffffffffffffffffffff1673ffffffffffffffffffffffffffffffffffffffff16815260200190815260200160002060009054906101000a900460ff16905092915050565b600b602052816000526040600020602052806000526040600020600091509150505481565b6000801b81565b80600c60003373ffffffffffffffffffffffffffffffffffffffff1673ffffffffffffffffffffffffffffffffffffffff16815260200190815260200160002060008473ffffffffffffffffffffffffffffffffffffffff1673ffffffffffffffffffffffffffffffffffffffff16815260200190815260200160002060006101000a81548160ff0219169083151502179055508173ffffffffffffffffffffffffffffffffffffffff163373ffffffffffffffffffffffffffffffffffffffff167f17307eab39ab6107e8899845ad3d59bd9653f200f220920489ca2b5937696c318360405161209d9190615445565b60405180910390a35050565b60006064600154836120bb919061593c565b6120c5919061590b565b9050919050565b600a602052816000526040600020602052806000526040600020600091509150505481565b826008600082815260200190815260200160002060009054906101000a900473ffffffffffffffffffffffffffffffffffffffff1673ffffffffffffffffffffffffffffffffffffffff163373ffffffffffffffffffffffffffffffffffffffff161461215d57600080fd5b82826007868154811061217357612172615c40565b5b90600052602060002090600702016001019190612191929190614236565b5050505050565b6121a0613352565b73ffffffffffffffffffffffffffffffffffffffff166121be611ebd565b73ffffffffffffffffffffffffffffffffffffffff1614612214576040517f08c379a000000000000000000000000000000000000000000000000000000000815260040161220b9061553d565b60405180910390fd5b8060048190555050565b600061223b600e6000848152602001908152602001600020613547565b9050919050565b6007818154811061225257600080fd5b90600052602060002090600702016000915090508060000160009054906101000a900473ffffffffffffffffffffffffffffffffffffffff169080600101805461229b90615ad8565b80601f01602080910402602001604051908101604052809291908181526020018280546122c790615ad8565b80156123145780601f106122e957610100808354040283529160200191612314565b820191906000526020600020905b8154815290600101906020018083116122f757829003601f168201915b50505050509080600201805461232990615ad8565b80601f016020809104026020016040519081016040528092919081815260200182805461235590615ad8565b80156123a25780601f10612377576101008083540402835291602001916123a2565b820191906000526020600020905b81548152906001019060200180831161238557829003601f168201915b5050505050908060030180546123b790615ad8565b80601f01602080910402602001604051908101604052809291908181526020018280546123e390615ad8565b80156124305780601f1061240557610100808354040283529160200191612430565b820191906000526020600020905b81548152906001019060200180831161241357829003601f168201915b5050505050908060040160009054906101000a900460ff16908060050154908060060154905087565b7f9f2df0fed2c77648de5860a4cc508cd0818c85b8b8a1ab4ceeef8d981c8956a681565b612487828261355c565b6124ac81600e600085815260200190815260200160002061332290919063ffffffff16565b505050565b60076040518060e001604052808673ffffffffffffffffffffffffffffffffffffffff168152602001858152602001848152602001838152602001600015158152602001600081526020016000815250908060018154018082558091505060019003906000526020600020906007020160009091909190915060008201518160000160006101000a81548173ffffffffffffffffffffffffffffffffffffffff021916908373ffffffffffffffffffffffffffffffffffffffff160217905550602082015181600101908051906020019061258d9291906142de565b5060408201518160020190805190602001906125aa9291906142de565b5060608201518160030190805190602001906125c79291906142de565b5060808201518160040160006101000a81548160ff02191690831515021790555060a0820151816005015560c082015181600601555050600060016007805490506126129190615996565b9050846008600083815260200190815260200160002060006101000a81548173ffffffffffffffffffffffffffffffffffffffff021916908373ffffffffffffffffffffffffffffffffffffffff160217905550600060096000838152602001908152602001600020819055507f3ef624c0f3fb7ad40b94c02078ea3e3a797dbfc21e921ee4bd2b8ad0ca6aa113818686868660008060006040516126be9897969594939291906155d8565b60405180910390a15050505050565b6126d5613352565b73ffffffffffffffffffffffffffffffffffffffff166126f3611ebd565b73ffffffffffffffffffffffffffffffffffffffff1614612749576040517f08c379a00000000000000000000000000000000000000000000000000000000081526004016127409061553d565b60405180910390fd5b8060018190555050565b826008600082815260200190815260200160002060009054906101000a900473ffffffffffffffffffffffffffffffffffffffff1673ffffffffffffffffffffffffffffffffffffffff163373ffffffffffffffffffffffffffffffffffffffff16146127bf57600080fd5b8282600786815481106127d5576127d4615c40565b5b906000526020600020906007020160030191906127f3929190614236565b5050505050565b7f65d7a28e3265b37a6474929f336521b332c1681b933f6cb9f3376673440d862a81565b6000600c60008473ffffffffffffffffffffffffffffffffffffffff1673ffffffffffffffffffffffffffffffffffffffff16815260200190815260200160002060008373ffffffffffffffffffffffffffffffffffffffff1673ffffffffffffffffffffffffffffffffffffffff16815260200190815260200160002060009054906101000a900460ff16905092915050565b6128ba613352565b73ffffffffffffffffffffffffffffffffffffffff166128d8611ebd565b73ffffffffffffffffffffffffffffffffffffffff161461292e576040517f08c379a00000000000000000000000000000000000000000000000000000000081526004016129259061553d565b60405180910390fd5b8073ffffffffffffffffffffffffffffffffffffffff166108fc6003549081150290604051600060405180830381858888f19350505050158015612976573d6000803e3d6000fd5b50600060038190555050565b81600a600085815260200190815260200160002060008773ffffffffffffffffffffffffffffffffffffffff1673ffffffffffffffffffffffffffffffffffffffff16815260200190815260200160002060008282546129e29190615996565b9250508190555081600a600085815260200190815260200160002060008673ffffffffffffffffffffffffffffffffffffffff1673ffffffffffffffffffffffffffffffffffffffff1681526020019081526020016000206000828254612a4991906158b5565b925050819055508373ffffffffffffffffffffffffffffffffffffffff168573ffffffffffffffffffffffffffffffffffffffff163373ffffffffffffffffffffffffffffffffffffffff167fc3d58168c5ae7397731d063d5bbf3d657854427343f4c083240f7aacaa2d0f628686604051612ac6929190615737565b60405180910390a45050505050565b612add613352565b73ffffffffffffffffffffffffffffffffffffffff16612afb611ebd565b73ffffffffffffffffffffffffffffffffffffffff1614612b51576040517f08c379a0000000000000000000000000000000000000000000000000000000008152600401612b489061553d565b60405180910390fd5b600073ffffffffffffffffffffffffffffffffffffffff168173ffffffffffffffffffffffffffffffffffffffff161415612bc1576040517f08c379a0000000000000000000000000000000000000000000000000000000008152600401612bb8906154fd565b60405180910390fd5b8073ffffffffffffffffffffffffffffffffffffffff1660008054906101000a900473ffffffffffffffffffffffffffffffffffffffff1673ffffffffffffffffffffffffffffffffffffffff167f8be0079c531659141344cd1fd0a4f28419497f9722a3daafe3b4186f6b6457e060405160405180910390a3806000806101000a81548173ffffffffffffffffffffffffffffffffffffffff021916908373ffffffffffffffffffffffffffffffffffffffff16021790555050565b80600a600084815260200190815260200160002060008573ffffffffffffffffffffffffffffffffffffffff1673ffffffffffffffffffffffffffffffffffffffff1681526020019081526020016000206000828254612cde9190615996565b9250508190555080600b60008573ffffffffffffffffffffffffffffffffffffffff1673ffffffffffffffffffffffffffffffffffffffff16815260200190815260200160002060008481526020019081526020016000206000828254612d459190615996565b925050819055508060078381548110612d6157612d60615c40565b5b90600052602060002090600702016005016000828254612d819190615996565b92505081905550600073ffffffffffffffffffffffffffffffffffffffff168373ffffffffffffffffffffffffffffffffffffffff163373ffffffffffffffffffffffffffffffffffffffff167fc3d58168c5ae7397731d063d5bbf3d657854427343f4c083240f7aacaa2d0f628585604051612dff929190615737565b60405180910390a4505050565b612e14613352565b73ffffffffffffffffffffffffffffffffffffffff16612e32611ebd565b73ffffffffffffffffffffffffffffffffffffffff1614612e88576040517f08c379a0000000000000000000000000000000000000000000000000000000008152600401612e7f9061553d565b60405180910390fd5b8060078381548110612e9d57612e9c615c40565b5b906000526020600020906007020160040160006101000a81548160ff0219169083151502179055505050565b6000612ed58383611406565b600260038110612ee857612ee7615c40565b5b60200201519050803414612efb57600080fd5b612f1633848460405180602001604052806000815250611cb4565b3373ffffffffffffffffffffffffffffffffffffffff167f1ebb537d8231cf8a6b1b0d1684d85dfd83872c030ffc75f500f0729eaf674d82838560078781548110612f6457612f63615c40565b5b906000526020600020906007020160010160078881548110612f8957612f88615c40565b5b9060005260206000209060070201600201604051612faa949392919061566b565b60405180910390a260078381548110612fc657612fc5615c40565b5b90600052602060002090600702016006015460078481548110612fec57612feb615c40565b5b90600052602060002090600702016005015411156130a3576007838154811061301857613017615c40565b5b9060005260206000209060070201600501546007848154811061303e5761303d615c40565b5b9060005260206000209060070201600601819055506130a2836007858154811061306b5761306a615c40565b5b906000526020600020906007020160000160009054906101000a900473ffffffffffffffffffffffffffffffffffffffff16613585565b5b505050565b6130b282826136da565b5050565b60006130de836000018373ffffffffffffffffffffffffffffffffffffffff1660001b6137bb565b905092915050565b60007fd9b67a26000000000000000000000000000000000000000000000000000000007bffffffffffffffffffffffffffffffffffffffffffffffffffffffff1916827bffffffffffffffffffffffffffffffffffffffffffffffffffffffff191614806131b157507f0e89341c000000000000000000000000000000000000000000000000000000007bffffffffffffffffffffffffffffffffffffffffffffffffffffffff1916827bffffffffffffffffffffffffffffffffffffffffffffffffffffffff1916145b806131c157506131c08261382b565b5b9050919050565b6000806000806131dc8a8a8a8a8a8a6138a5565b9250925092506000838b10156131ff576131f884848d85613920565b9050613230565b8382101561321d5761321684848d858d8d8d6139c3565b905061322f565b61322c84848d858d8d8d613ae5565b90505b5b809450505050509695505050505050565b806002600082825461325391906158b5565b92505081905550806003600082825461326c91906158b5565b9250508190555050565b61327f8261100e565b6132908161328b613352565b613be3565b61329a83836136da565b505050565b6132a7613352565b73ffffffffffffffffffffffffffffffffffffffff168173ffffffffffffffffffffffffffffffffffffffff1614613314576040517f08c379a000000000000000000000000000000000000000000000000000000000815260040161330b9061559d565b60405180910390fd5b61331e8282613c80565b5050565b600061334a836000018373ffffffffffffffffffffffffffffffffffffffff1660001b613d62565b905092915050565b600033905090565b613362611919565b6133a1576040517f08c379a0000000000000000000000000000000000000000000000000000000008152600401613398906154dd565b60405180910390fd5b6000601260006101000a81548160ff0219169083151502179055507f5db9ee0a495bf2e6ff9c91a7834c1ba4fdd244a5e8aa4e537bd38aeae4b073aa6133e5613352565b6040516133f29190615332565b60405180910390a1565b600080848661340b91906158b5565b9050600083878661341c919061593c565b613426919061590b565b90506000848387613437919061593c565b613441919061590b565b9050600088846134519190615996565b90506000600282848661346491906158b5565b61346e919061593c565b613478919061590b565b90508095505050505050949350505050565b613492611919565b156134d2576040517f08c379a00000000000000000000000000000000000000000000000000000000081526004016134c99061551d565b60405180910390fd5b6001601260006101000a81548160ff0219169083151502179055507f62e78cea01bee320cd4e420270b5ea74000d11b0c9f74754ebdbfc544b05a258613516613352565b6040516135239190615332565b60405180910390a1565b600061353c8360000183613e6e565b60001c905092915050565b600061355582600001613ee2565b9050919050565b6135658261100e565b61357681613571613352565b613be3565b6135808383613c80565b505050565b6000600960008481526020019081526020016000205490506000613622600785815481106135b6576135b5615c40565b5b906000526020600020906007020160060154600786815481106135dc576135db615c40565b5b9060005260206000209060070201600601546005546006546007898154811061360857613607615c40565b5b9060005260206000209060070201600601546004546131c8565b61365860006007878154811061363b5761363a615c40565b5b9060005260206000209060070201600601546005546006546133fc565b6136629190615996565b9050600082826136729190615996565b90508373ffffffffffffffffffffffffffffffffffffffff166108fc829081150290604051600060405180830381858888f193505050501580156136ba573d6000803e3d6000fd5b508160096000878152602001908152602001600020819055505050505050565b6136e48282611f15565b6137b7576001600d600084815260200190815260200160002060000160008373ffffffffffffffffffffffffffffffffffffffff1673ffffffffffffffffffffffffffffffffffffffff16815260200190815260200160002060006101000a81548160ff02191690831515021790555061375c613352565b73ffffffffffffffffffffffffffffffffffffffff168173ffffffffffffffffffffffffffffffffffffffff16837f2f8788117e7eff1d82e926ec794901d17c78024a50270940304540a733656f0d60405160405180910390a45b5050565b60006137c78383613ef3565b613820578260000182908060018154018082558091505060019003906000526020600020016000909190919091505582600001805490508360010160008481526020019081526020016000208190555060019050613825565b600090505b92915050565b60007f5a05180f000000000000000000000000000000000000000000000000000000007bffffffffffffffffffffffffffffffffffffffffffffffffffffffff1916827bffffffffffffffffffffffffffffffffffffffffffffffffffffffff1916148061389e575061389d82613f16565b5b9050919050565b6000806000806002866138b8919061590b565b90506000878960648860326138cd9190615996565b8a6138d8919061593c565b6138e2919061590b565b6138ec919061593c565b6138f6919061590b565b905060008a8c6139069190615996565b905082828295509550955050505096509650969350505050565b600080828661392f9190615996565b868661393b919061590b565b613945919061593c565b856139509190615996565b9050600084876139609190615996565b878761396c919061590b565b613976919061593c565b866139819190615996565b9050600084866139919190615996565b905060028183856139a291906158b5565b6139ac919061593c565b6139b6919061590b565b9350505050949350505050565b60008085896139d29190615996565b89896139de919061590b565b6139e8919061593c565b886139f39190615996565b905060008890506000878b613a089190615996565b905060006002828486613a1b91906158b5565b613a25919061593c565b613a2f919061590b565b905060008b8d8c613a409190615996565b8e89613a4c9190615996565b8e8b8b8e613a5a919061593c565b613a64919061590b565b613a6e9190615996565b613a78919061590b565b613a82919061593c565b613a8c91906158b5565b905060008d8c613a9c9190615996565b905060006002828488613aaf91906158b5565b613ab9919061593c565b613ac3919061590b565b90508084613ad191906158b5565b975050505050505050979650505050505050565b600080878987613af59190615996565b8a85613b019190615996565b8a87878a613b0f919061593c565b613b19919061590b565b613b239190615996565b613b2d919061590b565b613b37919061593c565b613b4191906158b5565b90506000888a89613b529190615996565b8b86613b5e9190615996565b8b88888b613b6c919061593c565b613b76919061590b565b613b809190615996565b613b8a919061590b565b613b94919061593c565b613b9e91906158b5565b905060008789613bae9190615996565b90506002818385613bbf91906158b5565b613bc9919061593c565b613bd3919061590b565b9350505050979650505050505050565b613bed8282611f15565b613c7c57613c128173ffffffffffffffffffffffffffffffffffffffff166014613f90565b613c208360001c6020613f90565b604051602001613c319291906152f8565b6040516020818303038152906040526040517f08c379a0000000000000000000000000000000000000000000000000000000008152600401613c73919061547b565b60405180910390fd5b5050565b613c8a8282611f15565b15613d5e576000600d600084815260200190815260200160002060000160008373ffffffffffffffffffffffffffffffffffffffff1673ffffffffffffffffffffffffffffffffffffffff16815260200190815260200160002060006101000a81548160ff021916908315150217905550613d03613352565b73ffffffffffffffffffffffffffffffffffffffff168173ffffffffffffffffffffffffffffffffffffffff16837ff6391f5c32d9c69d2a47ea670b442974b53935d1edc7fd64eb21e047a839171b60405160405180910390a45b5050565b60008083600101600084815260200190815260200160002054905060008114613e62576000600182613d949190615996565b9050600060018660000180549050613dac9190615996565b90506000866000018281548110613dc657613dc5615c40565b5b9060005260206000200154905080876000018481548110613dea57613de9615c40565b5b9060005260206000200181905550838760010160008381526020019081526020016000208190555086600001805480613e2657613e25615c11565b5b60019003818190600052602060002001600090559055866001016000878152602001908152602001600020600090556001945050505050613e68565b60009150505b92915050565b600081836000018054905011613eb9576040517f08c379a0000000000000000000000000000000000000000000000000000000008152600401613eb09061549d565b60405180910390fd5b826000018281548110613ecf57613ece615c40565b5b9060005260206000200154905092915050565b600081600001805490509050919050565b600080836001016000848152602001908152602001600020541415905092915050565b60007f7965db0b000000000000000000000000000000000000000000000000000000007bffffffffffffffffffffffffffffffffffffffffffffffffffffffff1916827bffffffffffffffffffffffffffffffffffffffffffffffffffffffff19161480613f895750613f88826141cc565b5b9050919050565b606060006002836002613fa3919061593c565b613fad91906158b5565b67ffffffffffffffff811115613fc657613fc5615c6f565b5b6040519080825280601f01601f191660200182016040528015613ff85781602001600182028036833780820191505090505b5090507f3000000000000000000000000000000000000000000000000000000000000000816000815181106140305761402f615c40565b5b60200101907effffffffffffffffffffffffffffffffffffffffffffffffffffffffffffff1916908160001a9053507f78000000000000000000000000000000000000000000000000000000000000008160018151811061409457614093615c40565b5b60200101907effffffffffffffffffffffffffffffffffffffffffffffffffffffffffffff1916908160001a905350600060018460026140d4919061593c565b6140de91906158b5565b90505b600181111561417e577f3031323334353637383961626364656600000000000000000000000000000000600f8616601081106141205761411f615c40565b5b1a60f81b82828151811061413757614136615c40565b5b60200101907effffffffffffffffffffffffffffffffffffffffffffffffffffffffffffff1916908160001a905350600485901c94508061417790615aae565b90506140e1565b50600084146141c2576040517f08c379a00000000000000000000000000000000000000000000000000000000081526004016141b9906154bd565b60405180910390fd5b8091505092915050565b60007f01ffc9a7000000000000000000000000000000000000000000000000000000007bffffffffffffffffffffffffffffffffffffffffffffffffffffffff1916827bffffffffffffffffffffffffffffffffffffffffffffffffffffffff1916149050919050565b82805461424290615ad8565b90600052602060002090601f01602090048101928261426457600085556142ab565b82601f1061427d57803560ff19168380011785556142ab565b828001600101855582156142ab579182015b828111156142aa57823582559160200191906001019061428f565b5b5090506142b89190614364565b5090565b6040518060600160405280600390602082028036833780820191505090505090565b8280546142ea90615ad8565b90600052602060002090601f01602090048101928261430c5760008555614353565b82601f1061432557805160ff1916838001178555614353565b82800160010185558215614353579182015b82811115614352578251825591602001919060010190614337565b5b5090506143609190614364565b5090565b5b8082111561437d576000816000905550600101614365565b5090565b600061439461438f84615785565b615760565b905080838252602082019050828560208602820111156143b7576143b6615ca8565b5b60005b858110156143e757816143cd888261466a565b8452602084019350602083019250506001810190506143ba565b5050509392505050565b60006144046143ff846157b1565b615760565b9050828152602081018484840111156144205761441f615cad565b5b61442b848285615a6c565b509392505050565b6000614446614441846157e2565b615760565b90508281526020810184848401111561446257614461615cad565b5b61446d848285615a6c565b509392505050565b60008135905061448481615fa0565b92915050565b60008135905061449981615fb7565b92915050565b60008083601f8401126144b5576144b4615ca3565b5b8235905067ffffffffffffffff8111156144d2576144d1615c9e565b5b6020830191508360208202830111156144ee576144ed615ca8565b5b9250929050565b60008083601f84011261450b5761450a615ca3565b5b8235905067ffffffffffffffff81111561452857614527615c9e565b5b60208301915083602082028301111561454457614543615ca8565b5b9250929050565b600082601f8301126145605761455f615ca3565b5b8135614570848260208601614381565b91505092915050565b60008135905061458881615fce565b92915050565b60008135905061459d81615fe5565b92915050565b6000813590506145b281615ffc565b92915050565b600082601f8301126145cd576145cc615ca3565b5b81356145dd8482602086016143f1565b91505092915050565b60008083601f8401126145fc576145fb615ca3565b5b8235905067ffffffffffffffff81111561461957614618615c9e565b5b60208301915083600182028301111561463557614634615ca8565b5b9250929050565b600082601f83011261465157614650615ca3565b5b8135614661848260208601614433565b91505092915050565b60008135905061467981616013565b92915050565b60006020828403121561469557614694615cb7565b5b60006146a384828501614475565b91505092915050565b6000602082840312156146c2576146c1615cb7565b5b60006146d08482850161448a565b91505092915050565b600080600080608085870312156146f3576146f2615cb7565b5b60006147018782880161448a565b945050602085013567ffffffffffffffff81111561472257614721615cb2565b5b61472e8782880161463c565b935050604085013567ffffffffffffffff81111561474f5761474e615cb2565b5b61475b8782880161463c565b925050606085013567ffffffffffffffff81111561477c5761477b615cb2565b5b6147888782880161463c565b91505092959194509250565b600080604083850312156147ab576147aa615cb7565b5b60006147b985828601614475565b92505060206147ca85828601614475565b9150509250929050565b600080600080600060a086880312156147f0576147ef615cb7565b5b60006147fe88828901614475565b955050602061480f88828901614475565b945050604086013567ffffffffffffffff8111156148305761482f615cb2565b5b61483c8882890161454b565b935050606086013567ffffffffffffffff81111561485d5761485c615cb2565b5b6148698882890161454b565b925050608086013567ffffffffffffffff81111561488a57614889615cb2565b5b614896888289016145b8565b9150509295509295909350565b600080600080600060a086880312156148bf576148be615cb7565b5b60006148cd88828901614475565b95505060206148de88828901614475565b94505060406148ef8882890161466a565b93505060606149008882890161466a565b925050608086013567ffffffffffffffff81111561492157614920615cb2565b5b61492d888289016145b8565b9150509295509295909350565b60008060006060848603121561495357614952615cb7565b5b600061496186828701614475565b935050602084013567ffffffffffffffff81111561498257614981615cb2565b5b61498e8682870161454b565b925050604084013567ffffffffffffffff8111156149af576149ae615cb2565b5b6149bb8682870161454b565b9150509250925092565b600080600080608085870312156149df576149de615cb7565b5b60006149ed87828801614475565b945050602085013567ffffffffffffffff811115614a0e57614a0d615cb2565b5b614a1a8782880161454b565b935050604085013567ffffffffffffffff811115614a3b57614a3a615cb2565b5b614a478782880161454b565b925050606085013567ffffffffffffffff811115614a6857614a67615cb2565b5b614a74878288016145b8565b91505092959194509250565b60008060408385031215614a9757614a96615cb7565b5b6000614aa585828601614475565b9250506020614ab685828601614579565b9150509250929050565b60008060408385031215614ad757614ad6615cb7565b5b6000614ae585828601614475565b9250506020614af68582860161466a565b9150509250929050565b600080600060608486031215614b1957614b18615cb7565b5b6000614b2786828701614475565b9350506020614b388682870161466a565b9250506040614b498682870161466a565b9150509250925092565b60008060008060808587031215614b6d57614b6c615cb7565b5b6000614b7b87828801614475565b9450506020614b8c8782880161466a565b9350506040614b9d8782880161466a565b925050606085013567ffffffffffffffff811115614bbe57614bbd615cb2565b5b614bca878288016145b8565b91505092959194509250565b60008060008060408587031215614bf057614bef615cb7565b5b600085013567ffffffffffffffff811115614c0e57614c0d615cb2565b5b614c1a8782880161449f565b9450945050602085013567ffffffffffffffff811115614c3d57614c3c615cb2565b5b614c49878288016144f5565b925092505092959194509250565b600060208284031215614c6d57614c6c615cb7565b5b6000614c7b8482850161458e565b91505092915050565b60008060408385031215614c9b57614c9a615cb7565b5b6000614ca98582860161458e565b9250506020614cba85828601614475565b9150509250929050565b60008060408385031215614cdb57614cda615cb7565b5b6000614ce98582860161458e565b9250506020614cfa8582860161466a565b9150509250929050565b600060208284031215614d1a57614d19615cb7565b5b6000614d28848285016145a3565b91505092915050565b600060208284031215614d4757614d46615cb7565b5b6000614d558482850161466a565b91505092915050565b60008060408385031215614d7557614d74615cb7565b5b6000614d838582860161466a565b9250506020614d9485828601614475565b9150509250929050565b60008060408385031215614db557614db4615cb7565b5b6000614dc38582860161466a565b9250506020614dd48582860161448a565b9150509250929050565b60008060408385031215614df557614df4615cb7565b5b6000614e038582860161466a565b9250506020614e1485828601614579565b9150509250929050565b600080600060408486031215614e3757614e36615cb7565b5b6000614e458682870161466a565b935050602084013567ffffffffffffffff811115614e6657614e65615cb2565b5b614e72868287016145e6565b92509250509250925092565b60008060408385031215614e9557614e94615cb7565b5b6000614ea38582860161466a565b9250506020614eb48582860161466a565b9150509250929050565b600080600060608486031215614ed757614ed6615cb7565b5b6000614ee58682870161466a565b9350506020614ef68682870161466a565b9250506040614f078682870161448a565b9150509250925092565b6000614f1d83836152da565b60208301905092915050565b614f32816159dc565b82525050565b614f41816159ca565b82525050565b614f5081615842565b614f5a818461587d565b9250614f6582615813565b8060005b83811015614f96578151614f7d8782614f11565b9650614f8883615863565b925050600181019050614f69565b505050505050565b6000614fa98261584d565b614fb38185615888565b9350614fbe8361581d565b8060005b83811015614fef578151614fd68882614f11565b9750614fe183615870565b925050600181019050614fc2565b5085935050505092915050565b615005816159ee565b82525050565b615014816159fa565b82525050565b61502381615a5a565b82525050565b600061503482615858565b61503e8185615899565b935061504e818560208601615a7b565b61505781615cbc565b840191505092915050565b600061506d82615858565b61507781856158aa565b9350615087818560208601615a7b565b80840191505092915050565b600081546150a081615ad8565b6150aa8186615899565b945060018216600081146150c557600181146150d75761510a565b60ff198316865260208601935061510a565b6150e08561582d565b60005b83811015615102578154818901526001820191506020810190506150e3565b808801955050505b50505092915050565b6000615120602283615899565b915061512b82615ccd565b604082019050919050565b6000615143602083615899565b915061514e82615d1c565b602082019050919050565b6000615166601483615899565b915061517182615d45565b602082019050919050565b6000615189602683615899565b915061519482615d6e565b604082019050919050565b60006151ac601083615899565b91506151b782615dbd565b602082019050919050565b60006151cf600383615899565b91506151da82615de6565b602082019050919050565b60006151f2602083615899565b91506151fd82615e0f565b602082019050919050565b6000615215603b83615899565b915061522082615e38565b604082019050919050565b6000615238603983615899565b915061524382615e87565b604082019050919050565b600061525b6017836158aa565b915061526682615ed6565b601782019050919050565b600061527e600483615899565b915061528982615eff565b602082019050919050565b60006152a16011836158aa565b91506152ac82615f28565b601182019050919050565b60006152c4602f83615899565b91506152cf82615f51565b604082019050919050565b6152e381615a50565b82525050565b6152f281615a50565b82525050565b60006153038261524e565b915061530f8285615062565b915061531a82615294565b91506153268284615062565b91508190509392505050565b60006020820190506153476000830184614f38565b92915050565b600060e082019050615362600083018a614f29565b81810360208301526153748189615029565b905081810360408301526153888188615029565b9050818103606083015261539c8187615029565b90506153ab6080830186614ffc565b6153b860a08301856152e9565b6153c560c08301846152e9565b98975050505050505050565b60006060820190506153e66000830184614f47565b92915050565b600060208201905081810360008301526154068184614f9e565b905092915050565b600060408201905081810360008301526154288185614f9e565b9050818103602083015261543c8184614f9e565b90509392505050565b600060208201905061545a6000830184614ffc565b92915050565b6000602082019050615475600083018461500b565b92915050565b600060208201905081810360008301526154958184615029565b905092915050565b600060208201905081810360008301526154b681615113565b9050919050565b600060208201905081810360008301526154d681615136565b9050919050565b600060208201905081810360008301526154f681615159565b9050919050565b600060208201905081810360008301526155168161517c565b9050919050565b600060208201905081810360008301526155368161519f565b9050919050565b60006020820190508181036000830152615556816151e5565b9050919050565b6000602082019050818103600083015261557681615208565b9050919050565b600060208201905081810360008301526155968161522b565b9050919050565b600060208201905081810360008301526155b6816152b7565b9050919050565b60006020820190506155d260008301846152e9565b92915050565b6000610100820190506155ee600083018b6152e9565b6155fb602083018a614f29565b818103604083015261560d8189615029565b905081810360608301526156218188615029565b905081810360808301526156358187615029565b905061564460a0830186614ffc565b61565160c083018561501a565b61565e60e083018461501a565b9998505050505050505050565b600060a08201905061568060008301876152e9565b8181036020830152615691816151c2565b90506156a060408301866152e9565b81810360608301526156b28185615093565b905081810360808301526156c68184615093565b905095945050505050565b600060a0820190506156e660008301876152e9565b81810360208301526156f781615271565b905061570660408301866152e9565b81810360608301526157188185615093565b9050818103608083015261572c8184615093565b905095945050505050565b600060408201905061574c60008301856152e9565b61575960208301846152e9565b9392505050565b600061576a61577b565b90506157768282615b0a565b919050565b6000604051905090565b600067ffffffffffffffff8211156157a05761579f615c6f565b5b602082029050602081019050919050565b600067ffffffffffffffff8211156157cc576157cb615c6f565b5b6157d582615cbc565b9050602081019050919050565b600067ffffffffffffffff8211156157fd576157fc615c6f565b5b61580682615cbc565b9050602081019050919050565b6000819050919050565b6000819050602082019050919050565b60008190508160005260206000209050919050565b600060039050919050565b600081519050919050565b600081519050919050565b6000602082019050919050565b6000602082019050919050565b600081905092915050565b600082825260208201905092915050565b600082825260208201905092915050565b600081905092915050565b60006158c082615a50565b91506158cb83615a50565b9250827fffffffffffffffffffffffffffffffffffffffffffffffffffffffffffffffff03821115615900576158ff615b84565b5b828201905092915050565b600061591682615a50565b915061592183615a50565b92508261593157615930615bb3565b5b828204905092915050565b600061594782615a50565b915061595283615a50565b9250817fffffffffffffffffffffffffffffffffffffffffffffffffffffffffffffffff048311821515161561598b5761598a615b84565b5b828202905092915050565b60006159a182615a50565b91506159ac83615a50565b9250828210156159bf576159be615b84565b5b828203905092915050565b60006159d582615a30565b9050919050565b60006159e782615a30565b9050919050565b60008115159050919050565b6000819050919050565b60007fffffffff0000000000000000000000000000000000000000000000000000000082169050919050565b600073ffffffffffffffffffffffffffffffffffffffff82169050919050565b6000819050919050565b6000615a6582615a50565b9050919050565b82818337600083830152505050565b60005b83811015615a99578082015181840152602081019050615a7e565b83811115615aa8576000848401525b50505050565b6000615ab982615a50565b91506000821415615acd57615acc615b84565b5b600182039050919050565b60006002820490506001821680615af057607f821691505b60208210811415615b0457615b03615be2565b5b50919050565b615b1382615cbc565b810181811067ffffffffffffffff82111715615b3257615b31615c6f565b5b80604052505050565b6000615b4682615a50565b91507fffffffffffffffffffffffffffffffffffffffffffffffffffffffffffffffff821415615b7957615b78615b84565b5b600182019050919050565b7f4e487b7100000000000000000000000000000000000000000000000000000000600052601160045260246000fd5b7f4e487b7100000000000000000000000000000000000000000000000000000000600052601260045260246000fd5b7f4e487b7100000000000000000000000000000000000000000000000000000000600052602260045260246000fd5b7f4e487b7100000000000000000000000000000000000000000000000000000000600052603160045260246000fd5b7f4e487b7100000000000000000000000000000000000000000000000000000000600052603260045260246000fd5b7f4e487b7100000000000000000000000000000000000000000000000000000000600052604160045260246000fd5b600080fd5b600080fd5b600080fd5b600080fd5b600080fd5b600080fd5b6000601f19601f8301169050919050565b7f456e756d657261626c655365743a20696e646578206f7574206f6620626f756e60008201527f6473000000000000000000000000000000000000000000000000000000000000602082015250565b7f537472696e67733a20686578206c656e67746820696e73756666696369656e74600082015250565b7f5061757361626c653a206e6f7420706175736564000000000000000000000000600082015250565b7f4f776e61626c653a206e6577206f776e657220697320746865207a65726f206160008201527f6464726573730000000000000000000000000000000000000000000000000000602082015250565b7f5061757361626c653a2070617573656400000000000000000000000000000000600082015250565b7f6275790000000000000000000000000000000000000000000000000000000000600082015250565b7f4f776e61626c653a2063616c6c6572206973206e6f7420746865206f776e6572600082015250565b7f455243313135355072657365744d696e7465725061757365723a206d7573742060008201527f686176652070617573657220726f6c6520746f20756e70617573650000000000602082015250565b7f455243313135355072657365744d696e7465725061757365723a206d7573742060008201527f686176652070617573657220726f6c6520746f20706175736500000000000000602082015250565b7f416363657373436f6e74726f6c3a206163636f756e7420000000000000000000600082015250565b7f73656c6c00000000000000000000000000000000000000000000000000000000600082015250565b7f206973206d697373696e6720726f6c6520000000000000000000000000000000600082015250565b7f416363657373436f6e74726f6c3a2063616e206f6e6c792072656e6f756e636560008201527f20726f6c657320666f722073656c660000000000000000000000000000000000602082015250565b615fa9816159ca565b8114615fb457600080fd5b50565b615fc0816159dc565b8114615fcb57600080fd5b50565b615fd7816159ee565b8114615fe257600080fd5b50565b615fee816159fa565b8114615ff957600080fd5b50565b61600581615a04565b811461601057600080fd5b50565b61601c81615a50565b811461602757600080fd5b5056fea2646970667358221220f76d78d66864735dd3d0b68c624deab2f68ef80ccd15da8f5fbba4378495eaaa64736f6c63430008060033",
  "immutableReferences": {},
  "source": "// SPDX-License-Identifier: MIT\npragma solidity ^0.8.0;\n\nimport \"./creatortokencomputation.sol\";\n\ncontract CreatorTokenExchange is CreatorTokenComputation {\n\n\tconstructor(string memory uri) CreatorTokenComputation(uri) { }\n\n\t// Event that fires when a new transaction occurs\n\tevent NewTransaction(address indexed account, uint amount, string transactionType, uint tokenId, string name, string symbol);\n\n\t// Allow user to buy a given CreatorToken from the platform\n\tfunction buyCreatorToken(uint _tokenId, uint _amount) external payable {\n\t\t// Calculate proceedsRequired (not including fee)\n\t\t//uint proceedsRequired = _buyProceeds(_tokenId, _amount);\n\t\t// Calculate fee\n\t\t//uint feeRequired = _feeProceeds(proceedsRequired);\n\t\t// Make sure that user sends proceedsRequired wei to cover the cost of _amount tokens, plus the platform fee\n\t\t//require(msg.value == _totalProceeds(proceedsRequired, feeRequired));//== 2000000000000000000);//\n\n\t\t// Compute total transactin proceeds required (inclusive of fee)\n\t\tuint totalProceeds = _totalProceeds(_tokenId, _amount)[2];\n\t\t// Require that user sends totalProceeds in order to transact\n\t\trequire(msg.value == totalProceeds);\n\n\t\t// Mint _amount tokens at the user's address (note this increases token amount outstanding)\n\t\tmint(msg.sender, _tokenId, _amount, \"\");\n\t\t// Emit new transaction event\n\t\temit NewTransaction(msg.sender, _amount, \"buy\", _tokenId, creatorTokens[_tokenId].name, creatorTokens[_tokenId].symbol);\n\t\t// Check if new outstanding amount of token is greater than maxSupply\n\t\tif (creatorTokens[_tokenId].outstanding > creatorTokens[_tokenId].maxSupply) {\n\t\t\t// Update maxSupply\n\t\t\tcreatorTokens[_tokenId].maxSupply = creatorTokens[_tokenId].outstanding;\n\t\t\t// Call _payout to transfer excess liquidity\n\t\t\t_payCreator(_tokenId, creatorTokens[_tokenId].creatorAddress);\n\t\t}\n\t}\n\n\t// Allow user to sell a given CreatorToken back to the platform\n\tfunction sellCreatorToken(uint _tokenId, uint _amount, address payable _seller) external payable {\n\t\t// Require that user calling function is selling own tokens\n\t\trequire(_seller == msg.sender);\n\t\t// Initialize proceeds required\n\t\tuint proceedsRequired = 0;\n\t\t// Initialize pre-transaction supply\n\t\tuint startingSupply = creatorTokens[_tokenId].outstanding;\n\t\t// Compute sale proceeds required\n\t\tproceedsRequired = _saleFunction(startingSupply, _amount, mNumerator, mDenominator, creatorTokens[_tokenId].maxSupply, profitMargin);\n\t\t// Compute fee\n\t\tuint fee = proceedsRequired*platformFee/100;\n\t\t// Add platform fee to obtain real proceedsRequired value\n\t\tproceedsRequired -= fee;\n\t\t// Burn _amount tokens from user's address (note this decreases token amount outstanding)\n\t\tburn(_seller, _tokenId, _amount);\n\t\t// Send user proceedsRequired wei (less the platform fee) in exchange for the burned tokens\n\t\t_seller.transfer(proceedsRequired); //1500000000000000000); //\n\t\t// Update platform fee total\n\t\t_platformFeeUpdater(fee);\n\t\t// Emit new transaction event\n\t\temit NewTransaction(msg.sender, _amount, \"sell\", _tokenId, creatorTokens[_tokenId].name, creatorTokens[_tokenId].symbol);\n\t}\n\n\t// Transfer excess liquidity (triggered only when a CreatorToken hits a new maxSupply)\n\tfunction _payCreator(uint _tokenId, address payable _creatorAddress) internal {\n\t\t// Create a variable showing excess liquidity that has already been transferred out of this token's liquidity pool\n\t\tuint alreadyTransferred = tokenValueTransferred[_tokenId];\n\t\t// Initialize totalProfit\n\t\tuint totalProfit = 0;\n\t\t// Calculate totalProfit (area between b(x) and s(x) from 0 to maxSupply)\n\t\ttotalProfit = _buyFunction(0, creatorTokens[_tokenId].maxSupply, mNumerator, mDenominator) - _saleFunction(creatorTokens[_tokenId].maxSupply, creatorTokens[_tokenId].maxSupply, mNumerator, mDenominator, creatorTokens[_tokenId].maxSupply, profitMargin);\n\t\t// Calculate creator's new profit created from new excess liquidity created\n\t\tuint newProfit = totalProfit - alreadyTransferred; //400000000000000000; // \n\t\t// Transfer newProfit wei to creator\n\t\t_creatorAddress.transfer(newProfit);\n\t\t// Update amount of value transferred to creator\n\t\ttokenValueTransferred[_tokenId] = totalProfit;\n\t}\n}\n",
  "sourcePath": "/Users/kamilalizaisadik/DeFi/Dynamic Automated Market Maker/damm_solidity/contracts/CreatorTokenExchange.sol",
  "compiler": {
    "name": "solc",
    "version": "0.8.6+commit.11564f7e.Emscripten.clang"
  },
  "schemaVersion": "3.4.1",
  "updatedAt": "2021-07-06T13:07:46.283Z",
  "devdoc": {
    "kind": "dev",
    "methods": {
      "getRoleAdmin(bytes32)": {
        "details": "Returns the admin role that controls `role`. See {grantRole} and {revokeRole}. To change a role's admin, use {_setRoleAdmin}."
      },
      "getRoleMember(bytes32,uint256)": {
        "details": "Returns one of the accounts that have `role`. `index` must be a value between 0 and {getRoleMemberCount}, non-inclusive. Role bearers are not sorted in any particular way, and their ordering may change at any point. WARNING: When using {getRoleMember} and {getRoleMemberCount}, make sure you perform all queries on the same block. See the following https://forum.openzeppelin.com/t/iterating-over-elements-on-enumerableset-in-openzeppelin-contracts/2296[forum post] for more information."
      },
      "getRoleMemberCount(bytes32)": {
        "details": "Returns the number of accounts that have `role`. Can be used together with {getRoleMember} to enumerate all bearers of a role."
      },
      "grantRole(bytes32,address)": {
        "details": "Overload {grantRole} to track enumerable memberships"
      },
      "hasRole(bytes32,address)": {
        "details": "Returns `true` if `account` has been granted `role`."
      },
      "owner()": {
        "details": "Returns the address of the current owner."
      },
      "pause()": {
        "details": "Pauses all token transfers. See {ERC1155Pausable} and {Pausable-_pause}. Requirements: - the caller must have the `PAUSER_ROLE`."
      },
      "paused()": {
        "details": "Returns true if the contract is paused, and false otherwise."
      },
      "renounceOwnership()": {
        "details": "Leaves the contract without owner. It will not be possible to call `onlyOwner` functions anymore. Can only be called by the current owner. NOTE: Renouncing ownership will leave the contract without an owner, thereby removing any functionality that is only available to the owner."
      },
      "renounceRole(bytes32,address)": {
        "details": "Overload {renounceRole} to track enumerable memberships"
      },
      "revokeRole(bytes32,address)": {
        "details": "Overload {revokeRole} to track enumerable memberships"
      },
      "supportsInterface(bytes4)": {
        "details": "See {IERC165-supportsInterface}."
      },
      "transferOwnership(address)": {
        "details": "Transfers ownership of the contract to a new account (`newOwner`). Can only be called by the current owner."
      },
      "unpause()": {
        "details": "Unpauses all token transfers. See {ERC1155Pausable} and {Pausable-_unpause}. Requirements: - the caller must have the `PAUSER_ROLE`."
      },
      "uri(uint256)": {
        "details": "See {IERC1155MetadataURI-uri}. This implementation returns the same URI for *all* token types. It relies on the token type ID substitution mechanism https://eips.ethereum.org/EIPS/eip-1155#metadata[defined in the EIP]. Clients calling this function must replace the `\\{id\\}` substring with the actual token type ID."
      }
    },
    "version": 1
  },
  "userdoc": {
    "kind": "user",
    "methods": {},
    "version": 1
  }
}