{
  "contractName": "CreatorTokenFees",
  "abi": [
    {
      "inputs": [
        {
          "internalType": "string",
          "name": "uri",
          "type": "string"
        }
      ],
      "stateMutability": "nonpayable",
      "type": "constructor"
    },
    {
      "anonymous": false,
      "inputs": [
        {
          "indexed": true,
          "internalType": "address",
          "name": "account",
          "type": "address"
        },
        {
          "indexed": true,
          "internalType": "address",
          "name": "operator",
          "type": "address"
        },
        {
          "indexed": false,
          "internalType": "bool",
          "name": "approved",
          "type": "bool"
        }
      ],
      "name": "ApprovalForAll",
      "type": "event"
    },
    {
      "anonymous": false,
      "inputs": [
        {
          "indexed": false,
          "internalType": "uint256",
          "name": "tokenId",
          "type": "uint256"
        },
        {
          "indexed": false,
          "internalType": "address payable",
          "name": "creatorAddress",
          "type": "address"
        },
        {
          "indexed": false,
          "internalType": "string",
          "name": "name",
          "type": "string"
        },
        {
          "indexed": false,
          "internalType": "string",
          "name": "symbol",
          "type": "string"
        },
        {
          "indexed": false,
          "internalType": "string",
          "name": "description",
          "type": "string"
        },
        {
          "indexed": false,
          "internalType": "bool",
          "name": "verified",
          "type": "bool"
        },
        {
          "indexed": false,
          "internalType": "uint256",
          "name": "outstanding",
          "type": "uint256"
        },
        {
          "indexed": false,
          "internalType": "uint256",
          "name": "maxSupply",
          "type": "uint256"
        }
      ],
      "name": "NewCreatorToken",
      "type": "event"
    },
    {
      "anonymous": false,
      "inputs": [
        {
          "indexed": true,
          "internalType": "address",
          "name": "previousOwner",
          "type": "address"
        },
        {
          "indexed": true,
          "internalType": "address",
          "name": "newOwner",
          "type": "address"
        }
      ],
      "name": "OwnershipTransferred",
      "type": "event"
    },
    {
      "anonymous": false,
      "inputs": [
        {
          "indexed": true,
          "internalType": "address",
          "name": "operator",
          "type": "address"
        },
        {
          "indexed": true,
          "internalType": "address",
          "name": "from",
          "type": "address"
        },
        {
          "indexed": true,
          "internalType": "address",
          "name": "to",
          "type": "address"
        },
        {
          "indexed": false,
          "internalType": "uint256[]",
          "name": "ids",
          "type": "uint256[]"
        },
        {
          "indexed": false,
          "internalType": "uint256[]",
          "name": "values",
          "type": "uint256[]"
        }
      ],
      "name": "TransferBatch",
      "type": "event"
    },
    {
      "anonymous": false,
      "inputs": [
        {
          "indexed": true,
          "internalType": "address",
          "name": "operator",
          "type": "address"
        },
        {
          "indexed": true,
          "internalType": "address",
          "name": "from",
          "type": "address"
        },
        {
          "indexed": true,
          "internalType": "address",
          "name": "to",
          "type": "address"
        },
        {
          "indexed": false,
          "internalType": "uint256",
          "name": "id",
          "type": "uint256"
        },
        {
          "indexed": false,
          "internalType": "uint256",
          "name": "value",
          "type": "uint256"
        }
      ],
      "name": "TransferSingle",
      "type": "event"
    },
    {
      "anonymous": false,
      "inputs": [
        {
          "indexed": false,
          "internalType": "string",
          "name": "value",
          "type": "string"
        },
        {
          "indexed": true,
          "internalType": "uint256",
          "name": "id",
          "type": "uint256"
        }
      ],
      "name": "URI",
      "type": "event"
    },
    {
      "inputs": [
        {
          "internalType": "uint256",
          "name": "_startingSupply",
          "type": "uint256"
        },
        {
          "internalType": "uint256",
          "name": "_amount",
          "type": "uint256"
        },
        {
          "internalType": "uint256",
          "name": "_mNumerator",
          "type": "uint256"
        },
        {
          "internalType": "uint256",
          "name": "_mDenominator",
          "type": "uint256"
        },
        {
          "internalType": "uint256",
          "name": "_maxSupply",
          "type": "uint256"
        },
        {
          "internalType": "uint256",
          "name": "_profitMargin",
          "type": "uint256"
        }
      ],
      "name": "_saleFunction",
      "outputs": [
        {
          "internalType": "uint256",
          "name": "",
          "type": "uint256"
        }
      ],
      "stateMutability": "pure",
      "type": "function"
    },
    {
      "inputs": [
        {
          "internalType": "address",
          "name": "",
          "type": "address"
        },
        {
          "internalType": "address",
          "name": "",
          "type": "address"
        }
      ],
      "name": "approvals",
      "outputs": [
        {
          "internalType": "bool",
          "name": "",
          "type": "bool"
        }
      ],
      "stateMutability": "view",
      "type": "function"
    },
    {
      "inputs": [
        {
          "internalType": "address",
          "name": "account",
          "type": "address"
        },
        {
          "internalType": "uint256",
          "name": "id",
          "type": "uint256"
        }
      ],
      "name": "balanceOf",
      "outputs": [
        {
          "internalType": "uint256",
          "name": "",
          "type": "uint256"
        }
      ],
      "stateMutability": "view",
      "type": "function"
    },
    {
      "inputs": [
        {
          "internalType": "address[]",
          "name": "accounts",
          "type": "address[]"
        },
        {
          "internalType": "uint256[]",
          "name": "ids",
          "type": "uint256[]"
        }
      ],
      "name": "balanceOfBatch",
      "outputs": [
        {
          "internalType": "uint256[]",
          "name": "",
          "type": "uint256[]"
        }
      ],
      "stateMutability": "view",
      "type": "function"
    },
    {
      "inputs": [
        {
          "internalType": "uint256",
          "name": "_tokenId",
          "type": "uint256"
        },
        {
          "internalType": "address payable",
          "name": "_newCreatorAddress",
          "type": "address"
        }
      ],
      "name": "changeAddress",
      "outputs": [],
      "stateMutability": "nonpayable",
      "type": "function"
    },
    {
      "inputs": [
        {
          "internalType": "uint256",
          "name": "_tokenId",
          "type": "uint256"
        },
        {
          "internalType": "string",
          "name": "_newDescription",
          "type": "string"
        }
      ],
      "name": "changeDescription",
      "outputs": [],
      "stateMutability": "nonpayable",
      "type": "function"
    },
    {
      "inputs": [
        {
          "internalType": "uint256",
          "name": "_tokenId",
          "type": "uint256"
        },
        {
          "internalType": "string",
          "name": "_newName",
          "type": "string"
        }
      ],
      "name": "changeName",
      "outputs": [],
      "stateMutability": "nonpayable",
      "type": "function"
    },
    {
      "inputs": [
        {
          "internalType": "uint256",
          "name": "_newPlatformFee",
          "type": "uint256"
        }
      ],
      "name": "changePlatformFee",
      "outputs": [],
      "stateMutability": "nonpayable",
      "type": "function"
    },
    {
      "inputs": [
        {
          "internalType": "uint256",
          "name": "_newProfitMargin",
          "type": "uint256"
        }
      ],
      "name": "changeProfitMargin",
      "outputs": [],
      "stateMutability": "nonpayable",
      "type": "function"
    },
    {
      "inputs": [
        {
          "internalType": "uint256",
          "name": "_tokenId",
          "type": "uint256"
        },
        {
          "internalType": "string",
          "name": "_newSymbol",
          "type": "string"
        }
      ],
      "name": "changeSymbol",
      "outputs": [],
      "stateMutability": "nonpayable",
      "type": "function"
    },
    {
      "inputs": [
        {
          "internalType": "uint256",
          "name": "_tokenId",
          "type": "uint256"
        },
        {
          "internalType": "bool",
          "name": "_verified",
          "type": "bool"
        }
      ],
      "name": "changeVerification",
      "outputs": [],
      "stateMutability": "nonpayable",
      "type": "function"
    },
    {
      "inputs": [
        {
          "internalType": "address payable",
          "name": "_creatorAddress",
          "type": "address"
        },
        {
          "internalType": "string",
          "name": "_name",
          "type": "string"
        },
        {
          "internalType": "string",
          "name": "_symbol",
          "type": "string"
        },
        {
          "internalType": "string",
          "name": "_description",
          "type": "string"
        }
      ],
      "name": "createCreatorToken",
      "outputs": [],
      "stateMutability": "nonpayable",
      "type": "function"
    },
    {
      "inputs": [
        {
          "internalType": "uint256",
          "name": "",
          "type": "uint256"
        }
      ],
      "name": "creatorTokens",
      "outputs": [
        {
          "internalType": "address payable",
          "name": "creatorAddress",
          "type": "address"
        },
        {
          "internalType": "string",
          "name": "name",
          "type": "string"
        },
        {
          "internalType": "string",
          "name": "symbol",
          "type": "string"
        },
        {
          "internalType": "string",
          "name": "description",
          "type": "string"
        },
        {
          "internalType": "bool",
          "name": "verified",
          "type": "bool"
        },
        {
          "internalType": "uint256",
          "name": "outstanding",
          "type": "uint256"
        },
        {
          "internalType": "uint256",
          "name": "maxSupply",
          "type": "uint256"
        }
      ],
      "stateMutability": "view",
      "type": "function"
    },
    {
      "inputs": [],
      "name": "getCreatorTokenCount",
      "outputs": [
        {
          "internalType": "uint256",
          "name": "",
          "type": "uint256"
        }
      ],
      "stateMutability": "view",
      "type": "function"
    },
    {
      "inputs": [
        {
          "internalType": "address",
          "name": "_account",
          "type": "address"
        },
        {
          "internalType": "address",
          "name": "_operator",
          "type": "address"
        }
      ],
      "name": "isApprovedForAll",
      "outputs": [
        {
          "internalType": "bool",
          "name": "",
          "type": "bool"
        }
      ],
      "stateMutability": "view",
      "type": "function"
    },
    {
      "inputs": [],
      "name": "numCreatorTokens",
      "outputs": [
        {
          "internalType": "uint256",
          "name": "",
          "type": "uint256"
        }
      ],
      "stateMutability": "view",
      "type": "function"
    },
    {
      "inputs": [],
      "name": "owner",
      "outputs": [
        {
          "internalType": "address",
          "name": "",
          "type": "address"
        }
      ],
      "stateMutability": "view",
      "type": "function"
    },
    {
      "inputs": [
        {
          "internalType": "address payable",
          "name": "_owner",
          "type": "address"
        }
      ],
      "name": "payoutPlatformFees",
      "outputs": [],
      "stateMutability": "nonpayable",
      "type": "function"
    },
    {
      "inputs": [],
      "name": "platformFeesOwed",
      "outputs": [
        {
          "internalType": "uint256",
          "name": "",
          "type": "uint256"
        }
      ],
      "stateMutability": "view",
      "type": "function"
    },
    {
      "inputs": [],
      "name": "renounceOwnership",
      "outputs": [],
      "stateMutability": "nonpayable",
      "type": "function"
    },
    {
      "inputs": [
        {
          "internalType": "address",
          "name": "_from",
          "type": "address"
        },
        {
          "internalType": "address",
          "name": "_to",
          "type": "address"
        },
        {
          "internalType": "uint256[]",
          "name": "_ids",
          "type": "uint256[]"
        },
        {
          "internalType": "uint256[]",
          "name": "_amounts",
          "type": "uint256[]"
        },
        {
          "internalType": "bytes",
          "name": "_data",
          "type": "bytes"
        }
      ],
      "name": "safeBatchTransferFrom",
      "outputs": [],
      "stateMutability": "nonpayable",
      "type": "function"
    },
    {
      "inputs": [
        {
          "internalType": "address",
          "name": "_from",
          "type": "address"
        },
        {
          "internalType": "address",
          "name": "_to",
          "type": "address"
        },
        {
          "internalType": "uint256",
          "name": "_id",
          "type": "uint256"
        },
        {
          "internalType": "uint256",
          "name": "_amount",
          "type": "uint256"
        },
        {
          "internalType": "bytes",
          "name": "_data",
          "type": "bytes"
        }
      ],
      "name": "safeTransferFrom",
      "outputs": [],
      "stateMutability": "nonpayable",
      "type": "function"
    },
    {
      "inputs": [
        {
          "internalType": "address",
          "name": "_operator",
          "type": "address"
        },
        {
          "internalType": "bool",
          "name": "_approved",
          "type": "bool"
        }
      ],
      "name": "setApprovalForAll",
      "outputs": [],
      "stateMutability": "nonpayable",
      "type": "function"
    },
    {
      "inputs": [
        {
          "internalType": "bytes4",
          "name": "interfaceId",
          "type": "bytes4"
        }
      ],
      "name": "supportsInterface",
      "outputs": [
        {
          "internalType": "bool",
          "name": "",
          "type": "bool"
        }
      ],
      "stateMutability": "view",
      "type": "function"
    },
    {
      "inputs": [
        {
          "internalType": "uint256",
          "name": "",
          "type": "uint256"
        },
        {
          "internalType": "address",
          "name": "",
          "type": "address"
        }
      ],
      "name": "tokenHoldership",
      "outputs": [
        {
          "internalType": "uint256",
          "name": "",
          "type": "uint256"
        }
      ],
      "stateMutability": "view",
      "type": "function"
    },
    {
      "inputs": [
        {
          "internalType": "uint256",
          "name": "",
          "type": "uint256"
        }
      ],
      "name": "tokenToCreator",
      "outputs": [
        {
          "internalType": "address",
          "name": "",
          "type": "address"
        }
      ],
      "stateMutability": "view",
      "type": "function"
    },
    {
      "inputs": [
        {
          "internalType": "uint256",
          "name": "",
          "type": "uint256"
        }
      ],
      "name": "tokenValueTransferred",
      "outputs": [
        {
          "internalType": "uint256",
          "name": "",
          "type": "uint256"
        }
      ],
      "stateMutability": "view",
      "type": "function"
    },
    {
      "inputs": [],
      "name": "totalPlatformFees",
      "outputs": [
        {
          "internalType": "uint256",
          "name": "",
          "type": "uint256"
        }
      ],
      "stateMutability": "view",
      "type": "function"
    },
    {
      "inputs": [
        {
          "internalType": "uint256",
          "name": "",
          "type": "uint256"
        }
      ],
      "name": "totalValueLocked",
      "outputs": [
        {
          "internalType": "uint256",
          "name": "",
          "type": "uint256"
        }
      ],
      "stateMutability": "view",
      "type": "function"
    },
    {
      "inputs": [
        {
          "internalType": "address",
          "name": "newOwner",
          "type": "address"
        }
      ],
      "name": "transferOwnership",
      "outputs": [],
      "stateMutability": "nonpayable",
      "type": "function"
    },
    {
      "inputs": [
        {
          "internalType": "uint256",
          "name": "",
          "type": "uint256"
        }
      ],
      "name": "uri",
      "outputs": [
        {
          "internalType": "string",
          "name": "",
          "type": "string"
        }
      ],
      "stateMutability": "view",
      "type": "function"
    },
    {
      "inputs": [
        {
          "internalType": "address",
          "name": "",
          "type": "address"
        },
        {
          "internalType": "uint256",
          "name": "",
          "type": "uint256"
        }
      ],
      "name": "userToHoldings",
      "outputs": [
        {
          "internalType": "uint256",
          "name": "",
          "type": "uint256"
        }
      ],
      "stateMutability": "view",
      "type": "function"
    },
    {
      "inputs": [
        {
          "internalType": "address payable",
          "name": "_owner",
          "type": "address"
        }
      ],
      "name": "withdraw",
      "outputs": [],
      "stateMutability": "nonpayable",
      "type": "function"
    },
    {
      "inputs": [
        {
          "internalType": "uint256",
          "name": "_proceedsRequired",
          "type": "uint256"
        }
      ],
      "name": "_feeProceeds",
      "outputs": [
        {
          "internalType": "uint256",
          "name": "",
          "type": "uint256"
        }
      ],
      "stateMutability": "view",
      "type": "function"
    }
  ],
  "bytecode": "0x608060405260018055600060025560006003556000600455601460055565082f79cd900060065560b96007553480156200003857600080fd5b5060405162003b5138038062003b5183398181016040528101906200005e91906200027e565b8080806000620000736200012c60201b60201c565b9050806000806101000a81548173ffffffffffffffffffffffffffffffffffffffff021916908373ffffffffffffffffffffffffffffffffffffffff1602179055508073ffffffffffffffffffffffffffffffffffffffff16600073ffffffffffffffffffffffffffffffffffffffff167f8be0079c531659141344cd1fd0a4f28419497f9722a3daafe3b4186f6b6457e060405160405180910390a35062000122816200013460201b60201c565b5050505062000453565b600033905090565b80601190805190602001906200014c92919062000150565b5050565b8280546200015e9062000364565b90600052602060002090601f016020900481019282620001825760008555620001ce565b82601f106200019d57805160ff1916838001178555620001ce565b82800160010185558215620001ce579182015b82811115620001cd578251825591602001919060010190620001b0565b5b509050620001dd9190620001e1565b5090565b5b80821115620001fc576000816000905550600101620001e2565b5090565b6000620002176200021184620002f8565b620002cf565b90508281526020810184848401111562000236576200023562000433565b5b620002438482856200032e565b509392505050565b600082601f8301126200026357620002626200042e565b5b81516200027584826020860162000200565b91505092915050565b6000602082840312156200029757620002966200043d565b5b600082015167ffffffffffffffff811115620002b857620002b762000438565b5b620002c6848285016200024b565b91505092915050565b6000620002db620002ee565b9050620002e982826200039a565b919050565b6000604051905090565b600067ffffffffffffffff821115620003165762000315620003ff565b5b620003218262000442565b9050602081019050919050565b60005b838110156200034e57808201518184015260208101905062000331565b838111156200035e576000848401525b50505050565b600060028204905060018216806200037d57607f821691505b60208210811415620003945762000393620003d0565b5b50919050565b620003a58262000442565b810181811067ffffffffffffffff82111715620003c757620003c6620003ff565b5b80604052505050565b7f4e487b7100000000000000000000000000000000000000000000000000000000600052602260045260246000fd5b7f4e487b7100000000000000000000000000000000000000000000000000000000600052604160045260246000fd5b600080fd5b600080fd5b600080fd5b600080fd5b6000601f19601f8301169050919050565b6136ee80620004636000396000f3fe608060405234801561001057600080fd5b50600436106102055760003560e01c8063ba111a051161011a578063d7a5791a116100ad578063e985e9c51161007c578063e985e9c514610638578063eb84175914610668578063f242432a14610684578063f2fde38b146106a0578063f7374e2e146106bc57610205565b8063d7a5791a146105a0578063d9bd3a40146105bc578063de6a06ed146105ec578063df3c00b11461060857610205565b8063c539c317116100e9578063c539c31714610514578063ce901d8a14610530578063d3631fa514610566578063d56b72c71461058457610205565b8063ba111a051461047a578063bfb48c9c146104aa578063c1d33049146104da578063c39cbef1146104f857610205565b80632eb2c2d61161019d5780638da5cb5b1161016c5780638da5cb5b146103c257806392724afa146103e0578063a22cb46514610410578063a32ce11e1461042c578063afb218321461045c57610205565b80632eb2c2d6146103505780634e1273f41461036c57806351cff8d91461039c578063715018a6146103b857610205565b806317bcaa08116101d957806317bcaa08146102b657806318892ae8146102e65780631d5ad18b146103165780632a2b237c1461033257610205565b8062fdd58e1461020a57806301ffc9a71461023a57806306e320f51461026a5780630e89341c14610286575b600080fd5b610224600480360381019061021f9190612966565b6106d8565b6040516102319190612f6f565b60405180910390f35b610254600480360381019061024f9190612a1e565b6107a2565b6040516102619190612eb2565b60405180910390f35b610284600480360381019061027f9190612b38565b610884565b005b6102a0600480360381019061029b9190612a4b565b61092b565b6040516102ad9190612ecd565b60405180910390f35b6102d060048036038101906102cb9190612a4b565b6109bf565b6040516102dd9190612f6f565b60405180910390f35b61030060048036038101906102fb9190612a4b565b6109d7565b60405161030d9190612dba565b60405180910390f35b610330600480360381019061032b9190612ab8565b610a0a565b005b61033a610adf565b6040516103479190612f6f565b60405180910390f35b61036a600480360381019061036591906127c0565b610aec565b005b610386600480360381019061038191906129a6565b610c58565b6040516103939190612e59565b60405180910390f35b6103b660048036038101906103b19190612698565b610d71565b005b6103c0610e37565b005b6103ca610f71565b6040516103d79190612dba565b60405180910390f35b6103fa60048036038101906103f59190612966565b610f9a565b6040516104079190612f6f565b60405180910390f35b61042a60048036038101906104259190612926565b610fbf565b005b61044660048036038101906104419190612780565b6110bc565b6040516104539190612eb2565b60405180910390f35b6104646110eb565b6040516104719190612f6f565b60405180910390f35b610494600480360381019061048f9190612a4b565b6110f1565b6040516104a19190612f6f565b60405180910390f35b6104c460048036038101906104bf9190612a78565b611114565b6040516104d19190612f6f565b60405180910390f35b6104e2611139565b6040516104ef9190612f6f565b60405180910390f35b610512600480360381019061050d9190612b38565b61113f565b005b61052e60048036038101906105299190612a4b565b6111e6565b005b61054a60048036038101906105459190612a4b565b61126c565b60405161055d9796959493929190612dd5565b60405180910390f35b61056e611483565b60405161057b9190612f6f565b60405180910390f35b61059e600480360381019061059991906126c5565b611489565b005b6105ba60048036038101906105b59190612a4b565b6116a5565b005b6105d660048036038101906105d19190612a4b565b61172b565b6040516105e39190612f6f565b60405180910390f35b61060660048036038101906106019190612b38565b611743565b005b610622600480360381019061061d9190612b98565b6117ea565b60405161062f9190612f6f565b60405180910390f35b610652600480360381019061064d9190612780565b611863565b60405161065f9190612eb2565b60405180910390f35b610682600480360381019061067d9190612698565b6118f7565b005b61069e6004803603810190610699919061288f565b6119c7565b005b6106ba60048036038101906106b5919061266b565b611aab565b005b6106d660048036038101906106d19190612af8565b611c54565b005b60008073ffffffffffffffffffffffffffffffffffffffff168373ffffffffffffffffffffffffffffffffffffffff161415610749576040517f08c379a000000000000000000000000000000000000000000000000000000000815260040161074090612eef565b60405180910390fd5b600f600083815260200190815260200160002060008473ffffffffffffffffffffffffffffffffffffffff1673ffffffffffffffffffffffffffffffffffffffff16815260200190815260200160002054905092915050565b60007fd9b67a26000000000000000000000000000000000000000000000000000000007bffffffffffffffffffffffffffffffffffffffffffffffffffffffff1916827bffffffffffffffffffffffffffffffffffffffffffffffffffffffff1916148061086d57507f0e89341c000000000000000000000000000000000000000000000000000000007bffffffffffffffffffffffffffffffffffffffffffffffffffffffff1916827bffffffffffffffffffffffffffffffffffffffffffffffffffffffff1916145b8061087d575061087c82611d11565b5b9050919050565b826009600082815260200190815260200160002060009054906101000a900473ffffffffffffffffffffffffffffffffffffffff1673ffffffffffffffffffffffffffffffffffffffff163373ffffffffffffffffffffffffffffffffffffffff16146108f057600080fd5b828260088681548110610906576109056134a2565b5b90600052602060002090600702016002019190610924929190612267565b5050505050565b60606011805461093a90613369565b80601f016020809104026020016040519081016040528092919081815260200182805461096690613369565b80156109b35780601f10610988576101008083540402835291602001916109b3565b820191906000526020600020905b81548152906001019060200180831161099657829003601f168201915b50505050509050919050565b600a6020528060005260406000206000915090505481565b60096020528060005260406000206000915054906101000a900473ffffffffffffffffffffffffffffffffffffffff1681565b816009600082815260200190815260200160002060009054906101000a900473ffffffffffffffffffffffffffffffffffffffff1673ffffffffffffffffffffffffffffffffffffffff163373ffffffffffffffffffffffffffffffffffffffff1614610a7657600080fd5b8160088481548110610a8b57610a8a6134a2565b5b906000526020600020906007020160000160006101000a81548173ffffffffffffffffffffffffffffffffffffffff021916908373ffffffffffffffffffffffffffffffffffffffff160217905550505050565b6000600880549050905090565b60005b8351811015610bd2578573ffffffffffffffffffffffffffffffffffffffff163373ffffffffffffffffffffffffffffffffffffffff161480610b385750610b378686611863565b5b610b4157600080fd5b610b8086858381518110610b5857610b576134a2565b5b6020026020010151858481518110610b7357610b726134a2565b5b6020026020010151611d7b565b610bbf85858381518110610b9757610b966134a2565b5b6020026020010151858481518110610bb257610bb16134a2565b5b6020026020010151611e4e565b8080610bca906133cc565b915050610aef565b508373ffffffffffffffffffffffffffffffffffffffff168573ffffffffffffffffffffffffffffffffffffffff163373ffffffffffffffffffffffffffffffffffffffff167f4a39dc06d4c0dbc64b70af90fd698a233a518aa5d07e595d983b8c0526c8f7fb8686604051610c49929190612e7b565b60405180910390a45050505050565b60608151835114610c9e576040517f08c379a0000000000000000000000000000000000000000000000000000000008152600401610c9590612f4f565b60405180910390fd5b6000835167ffffffffffffffff811115610cbb57610cba6134d1565b5b604051908082528060200260200182016040528015610ce95781602001602082028036833780820191505090505b50905060005b8451811015610d6657610d36858281518110610d0e57610d0d6134a2565b5b6020026020010151858381518110610d2957610d286134a2565b5b60200260200101516106d8565b828281518110610d4957610d486134a2565b5b60200260200101818152505080610d5f906133cc565b9050610cef565b508091505092915050565b610d79611f21565b73ffffffffffffffffffffffffffffffffffffffff16610d97610f71565b73ffffffffffffffffffffffffffffffffffffffff1614610ded576040517f08c379a0000000000000000000000000000000000000000000000000000000008152600401610de490612f2f565b60405180910390fd5b8073ffffffffffffffffffffffffffffffffffffffff166108fc479081150290604051600060405180830381858888f19350505050158015610e33573d6000803e3d6000fd5b5050565b610e3f611f21565b73ffffffffffffffffffffffffffffffffffffffff16610e5d610f71565b73ffffffffffffffffffffffffffffffffffffffff1614610eb3576040517f08c379a0000000000000000000000000000000000000000000000000000000008152600401610eaa90612f2f565b60405180910390fd5b600073ffffffffffffffffffffffffffffffffffffffff1660008054906101000a900473ffffffffffffffffffffffffffffffffffffffff1673ffffffffffffffffffffffffffffffffffffffff167f8be0079c531659141344cd1fd0a4f28419497f9722a3daafe3b4186f6b6457e060405160405180910390a360008060006101000a81548173ffffffffffffffffffffffffffffffffffffffff021916908373ffffffffffffffffffffffffffffffffffffffff160217905550565b60008060009054906101000a900473ffffffffffffffffffffffffffffffffffffffff16905090565b600c602052816000526040600020602052806000526040600020600091509150505481565b80600d60003373ffffffffffffffffffffffffffffffffffffffff1673ffffffffffffffffffffffffffffffffffffffff16815260200190815260200160002060008473ffffffffffffffffffffffffffffffffffffffff1673ffffffffffffffffffffffffffffffffffffffff16815260200190815260200160002060006101000a81548160ff0219169083151502179055508173ffffffffffffffffffffffffffffffffffffffff163373ffffffffffffffffffffffffffffffffffffffff167f17307eab39ab6107e8899845ad3d59bd9653f200f220920489ca2b5937696c31836040516110b09190612eb2565b60405180910390a35050565b600d6020528160005260406000206020528060005260406000206000915091509054906101000a900460ff1681565b60045481565b60006064600154836111039190613201565b61110d91906131d0565b9050919050565b600b602052816000526040600020602052806000526040600020600091509150505481565b60035481565b826009600082815260200190815260200160002060009054906101000a900473ffffffffffffffffffffffffffffffffffffffff1673ffffffffffffffffffffffffffffffffffffffff163373ffffffffffffffffffffffffffffffffffffffff16146111ab57600080fd5b8282600886815481106111c1576111c06134a2565b5b906000526020600020906007020160010191906111df929190612267565b5050505050565b6111ee611f21565b73ffffffffffffffffffffffffffffffffffffffff1661120c610f71565b73ffffffffffffffffffffffffffffffffffffffff1614611262576040517f08c379a000000000000000000000000000000000000000000000000000000000815260040161125990612f2f565b60405180910390fd5b8060058190555050565b6008818154811061127c57600080fd5b90600052602060002090600702016000915090508060000160009054906101000a900473ffffffffffffffffffffffffffffffffffffffff16908060010180546112c590613369565b80601f01602080910402602001604051908101604052809291908181526020018280546112f190613369565b801561133e5780601f106113135761010080835404028352916020019161133e565b820191906000526020600020905b81548152906001019060200180831161132157829003601f168201915b50505050509080600201805461135390613369565b80601f016020809104026020016040519081016040528092919081815260200182805461137f90613369565b80156113cc5780601f106113a1576101008083540402835291602001916113cc565b820191906000526020600020905b8154815290600101906020018083116113af57829003601f168201915b5050505050908060030180546113e190613369565b80601f016020809104026020016040519081016040528092919081815260200182805461140d90613369565b801561145a5780601f1061142f5761010080835404028352916020019161145a565b820191906000526020600020905b81548152906001019060200180831161143d57829003601f168201915b5050505050908060040160009054906101000a900460ff16908060050154908060060154905087565b60025481565b60086040518060e001604052808673ffffffffffffffffffffffffffffffffffffffff168152602001858152602001848152602001838152602001600015158152602001600081526020016000815250908060018154018082558091505060019003906000526020600020906007020160009091909190915060008201518160000160006101000a81548173ffffffffffffffffffffffffffffffffffffffff021916908373ffffffffffffffffffffffffffffffffffffffff16021790555060208201518160010190805190602001906115659291906122ed565b5060408201518160020190805190602001906115829291906122ed565b50606082015181600301908051906020019061159f9291906122ed565b5060808201518160040160006101000a81548160ff02191690831515021790555060a0820151816005015560c082015181600601555050600060016008805490506115ea919061325b565b9050846009600083815260200190815260200160002060006101000a81548173ffffffffffffffffffffffffffffffffffffffff021916908373ffffffffffffffffffffffffffffffffffffffff1602179055506000600a6000838152602001908152602001600020819055507f3ef624c0f3fb7ad40b94c02078ea3e3a797dbfc21e921ee4bd2b8ad0ca6aa11381868686866000806000604051611696989796959493929190612f8a565b60405180910390a15050505050565b6116ad611f21565b73ffffffffffffffffffffffffffffffffffffffff166116cb610f71565b73ffffffffffffffffffffffffffffffffffffffff1614611721576040517f08c379a000000000000000000000000000000000000000000000000000000000815260040161171890612f2f565b60405180910390fd5b8060018190555050565b600e6020528060005260406000206000915090505481565b826009600082815260200190815260200160002060009054906101000a900473ffffffffffffffffffffffffffffffffffffffff1673ffffffffffffffffffffffffffffffffffffffff163373ffffffffffffffffffffffffffffffffffffffff16146117af57600080fd5b8282600886815481106117c5576117c46134a2565b5b906000526020600020906007020160030191906117e3929190612267565b5050505050565b6000806000806117fe8a8a8a8a8a8a611f29565b9250925092506000838b10156118215761181a84848d85611fa4565b9050611852565b8382101561183f5761183884848d858d8d8d612047565b9050611851565b61184e84848d858d8d8d612169565b90505b5b809450505050509695505050505050565b6000600d60008473ffffffffffffffffffffffffffffffffffffffff1673ffffffffffffffffffffffffffffffffffffffff16815260200190815260200160002060008373ffffffffffffffffffffffffffffffffffffffff1673ffffffffffffffffffffffffffffffffffffffff16815260200190815260200160002060009054906101000a900460ff16905092915050565b6118ff611f21565b73ffffffffffffffffffffffffffffffffffffffff1661191d610f71565b73ffffffffffffffffffffffffffffffffffffffff1614611973576040517f08c379a000000000000000000000000000000000000000000000000000000000815260040161196a90612f2f565b60405180910390fd5b8073ffffffffffffffffffffffffffffffffffffffff166108fc6003549081150290604051600060405180830381858888f193505050501580156119bb573d6000803e3d6000fd5b50600060038190555050565b8473ffffffffffffffffffffffffffffffffffffffff163373ffffffffffffffffffffffffffffffffffffffff161480611a075750611a068585611863565b5b611a1057600080fd5b611a1b858484611d7b565b611a26848484611e4e565b8373ffffffffffffffffffffffffffffffffffffffff168573ffffffffffffffffffffffffffffffffffffffff163373ffffffffffffffffffffffffffffffffffffffff167fc3d58168c5ae7397731d063d5bbf3d657854427343f4c083240f7aacaa2d0f628686604051611a9c92919061301d565b60405180910390a45050505050565b611ab3611f21565b73ffffffffffffffffffffffffffffffffffffffff16611ad1610f71565b73ffffffffffffffffffffffffffffffffffffffff1614611b27576040517f08c379a0000000000000000000000000000000000000000000000000000000008152600401611b1e90612f2f565b60405180910390fd5b600073ffffffffffffffffffffffffffffffffffffffff168173ffffffffffffffffffffffffffffffffffffffff161415611b97576040517f08c379a0000000000000000000000000000000000000000000000000000000008152600401611b8e90612f0f565b60405180910390fd5b8073ffffffffffffffffffffffffffffffffffffffff1660008054906101000a900473ffffffffffffffffffffffffffffffffffffffff1673ffffffffffffffffffffffffffffffffffffffff167f8be0079c531659141344cd1fd0a4f28419497f9722a3daafe3b4186f6b6457e060405160405180910390a3806000806101000a81548173ffffffffffffffffffffffffffffffffffffffff021916908373ffffffffffffffffffffffffffffffffffffffff16021790555050565b611c5c611f21565b73ffffffffffffffffffffffffffffffffffffffff16611c7a610f71565b73ffffffffffffffffffffffffffffffffffffffff1614611cd0576040517f08c379a0000000000000000000000000000000000000000000000000000000008152600401611cc790612f2f565b60405180910390fd5b8060088381548110611ce557611ce46134a2565b5b906000526020600020906007020160040160006101000a81548160ff0219169083151502179055505050565b60007f01ffc9a7000000000000000000000000000000000000000000000000000000007bffffffffffffffffffffffffffffffffffffffffffffffffffffffff1916827bffffffffffffffffffffffffffffffffffffffffffffffffffffffff1916149050919050565b80600b600084815260200190815260200160002060008573ffffffffffffffffffffffffffffffffffffffff1673ffffffffffffffffffffffffffffffffffffffff1681526020019081526020016000206000828254611ddb919061325b565b9250508190555080600c60008573ffffffffffffffffffffffffffffffffffffffff1673ffffffffffffffffffffffffffffffffffffffff16815260200190815260200160002060008481526020019081526020016000206000828254611e42919061325b565b92505081905550505050565b80600b600084815260200190815260200160002060008573ffffffffffffffffffffffffffffffffffffffff1673ffffffffffffffffffffffffffffffffffffffff1681526020019081526020016000206000828254611eae919061317a565b9250508190555080600c60008573ffffffffffffffffffffffffffffffffffffffff1673ffffffffffffffffffffffffffffffffffffffff16815260200190815260200160002060008481526020019081526020016000206000828254611f15919061317a565b92505081905550505050565b600033905090565b600080600080600286611f3c91906131d0565b9050600087896064886032611f51919061325b565b8a611f5c9190613201565b611f6691906131d0565b611f709190613201565b611f7a91906131d0565b905060008a8c611f8a919061325b565b905082828295509550955050505096509650969350505050565b6000808286611fb3919061325b565b8686611fbf91906131d0565b611fc99190613201565b85611fd4919061325b565b905060008487611fe4919061325b565b8787611ff091906131d0565b611ffa9190613201565b86612005919061325b565b905060008486612015919061325b565b90506002818385612026919061317a565b6120309190613201565b61203a91906131d0565b9350505050949350505050565b6000808589612056919061325b565b898961206291906131d0565b61206c9190613201565b88612077919061325b565b905060008890506000878b61208c919061325b565b90506000600282848661209f919061317a565b6120a99190613201565b6120b391906131d0565b905060008b8d8c6120c4919061325b565b8e896120d0919061325b565b8e8b8b8e6120de9190613201565b6120e891906131d0565b6120f2919061325b565b6120fc91906131d0565b6121069190613201565b612110919061317a565b905060008d8c612120919061325b565b905060006002828488612133919061317a565b61213d9190613201565b61214791906131d0565b90508084612155919061317a565b975050505050505050979650505050505050565b600080878987612179919061325b565b8a85612185919061325b565b8a87878a6121939190613201565b61219d91906131d0565b6121a7919061325b565b6121b191906131d0565b6121bb9190613201565b6121c5919061317a565b90506000888a896121d6919061325b565b8b866121e2919061325b565b8b88888b6121f09190613201565b6121fa91906131d0565b612204919061325b565b61220e91906131d0565b6122189190613201565b612222919061317a565b905060008789612232919061325b565b90506002818385612243919061317a565b61224d9190613201565b61225791906131d0565b9350505050979650505050505050565b82805461227390613369565b90600052602060002090601f01602090048101928261229557600085556122dc565b82601f106122ae57803560ff19168380011785556122dc565b828001600101855582156122dc579182015b828111156122db5782358255916020019190600101906122c0565b5b5090506122e99190612373565b5090565b8280546122f990613369565b90600052602060002090601f01602090048101928261231b5760008555612362565b82601f1061233457805160ff1916838001178555612362565b82800160010185558215612362579182015b82811115612361578251825591602001919060010190612346565b5b50905061236f9190612373565b5090565b5b8082111561238c576000816000905550600101612374565b5090565b60006123a361239e8461306b565b613046565b905080838252602082019050828560208602820111156123c6576123c561350a565b5b60005b858110156123f657816123dc88826124f4565b8452602084019350602083019250506001810190506123c9565b5050509392505050565b600061241361240e84613097565b613046565b905080838252602082019050828560208602820111156124365761243561350a565b5b60005b85811015612466578161244c8882612656565b845260208401935060208301925050600181019050612439565b5050509392505050565b600061248361247e846130c3565b613046565b90508281526020810184848401111561249f5761249e61350f565b5b6124aa848285613327565b509392505050565b60006124c56124c0846130f4565b613046565b9050828152602081018484840111156124e1576124e061350f565b5b6124ec848285613327565b509392505050565b60008135905061250381613645565b92915050565b6000813590506125188161365c565b92915050565b600082601f83011261253357612532613505565b5b8135612543848260208601612390565b91505092915050565b600082601f83011261256157612560613505565b5b8135612571848260208601612400565b91505092915050565b60008135905061258981613673565b92915050565b60008135905061259e8161368a565b92915050565b600082601f8301126125b9576125b8613505565b5b81356125c9848260208601612470565b91505092915050565b60008083601f8401126125e8576125e7613505565b5b8235905067ffffffffffffffff81111561260557612604613500565b5b6020830191508360018202830111156126215761262061350a565b5b9250929050565b600082601f83011261263d5761263c613505565b5b813561264d8482602086016124b2565b91505092915050565b600081359050612665816136a1565b92915050565b60006020828403121561268157612680613519565b5b600061268f848285016124f4565b91505092915050565b6000602082840312156126ae576126ad613519565b5b60006126bc84828501612509565b91505092915050565b600080600080608085870312156126df576126de613519565b5b60006126ed87828801612509565b945050602085013567ffffffffffffffff81111561270e5761270d613514565b5b61271a87828801612628565b935050604085013567ffffffffffffffff81111561273b5761273a613514565b5b61274787828801612628565b925050606085013567ffffffffffffffff81111561276857612767613514565b5b61277487828801612628565b91505092959194509250565b6000806040838503121561279757612796613519565b5b60006127a5858286016124f4565b92505060206127b6858286016124f4565b9150509250929050565b600080600080600060a086880312156127dc576127db613519565b5b60006127ea888289016124f4565b95505060206127fb888289016124f4565b945050604086013567ffffffffffffffff81111561281c5761281b613514565b5b6128288882890161254c565b935050606086013567ffffffffffffffff81111561284957612848613514565b5b6128558882890161254c565b925050608086013567ffffffffffffffff81111561287657612875613514565b5b612882888289016125a4565b9150509295509295909350565b600080600080600060a086880312156128ab576128aa613519565b5b60006128b9888289016124f4565b95505060206128ca888289016124f4565b94505060406128db88828901612656565b93505060606128ec88828901612656565b925050608086013567ffffffffffffffff81111561290d5761290c613514565b5b612919888289016125a4565b9150509295509295909350565b6000806040838503121561293d5761293c613519565b5b600061294b858286016124f4565b925050602061295c8582860161257a565b9150509250929050565b6000806040838503121561297d5761297c613519565b5b600061298b858286016124f4565b925050602061299c85828601612656565b9150509250929050565b600080604083850312156129bd576129bc613519565b5b600083013567ffffffffffffffff8111156129db576129da613514565b5b6129e78582860161251e565b925050602083013567ffffffffffffffff811115612a0857612a07613514565b5b612a148582860161254c565b9150509250929050565b600060208284031215612a3457612a33613519565b5b6000612a428482850161258f565b91505092915050565b600060208284031215612a6157612a60613519565b5b6000612a6f84828501612656565b91505092915050565b60008060408385031215612a8f57612a8e613519565b5b6000612a9d85828601612656565b9250506020612aae858286016124f4565b9150509250929050565b60008060408385031215612acf57612ace613519565b5b6000612add85828601612656565b9250506020612aee85828601612509565b9150509250929050565b60008060408385031215612b0f57612b0e613519565b5b6000612b1d85828601612656565b9250506020612b2e8582860161257a565b9150509250929050565b600080600060408486031215612b5157612b50613519565b5b6000612b5f86828701612656565b935050602084013567ffffffffffffffff811115612b8057612b7f613514565b5b612b8c868287016125d2565b92509250509250925092565b60008060008060008060c08789031215612bb557612bb4613519565b5b6000612bc389828a01612656565b9650506020612bd489828a01612656565b9550506040612be589828a01612656565b9450506060612bf689828a01612656565b9350506080612c0789828a01612656565b92505060a0612c1889828a01612656565b9150509295509295509295565b6000612c318383612d9c565b60208301905092915050565b612c46816132a1565b82525050565b612c558161328f565b82525050565b6000612c6682613135565b612c708185613158565b9350612c7b83613125565b8060005b83811015612cac578151612c938882612c25565b9750612c9e8361314b565b925050600181019050612c7f565b5085935050505092915050565b612cc2816132b3565b82525050565b612cd181613315565b82525050565b6000612ce282613140565b612cec8185613169565b9350612cfc818560208601613336565b612d058161351e565b840191505092915050565b6000612d1d602b83613169565b9150612d288261352f565b604082019050919050565b6000612d40602683613169565b9150612d4b8261357e565b604082019050919050565b6000612d63602083613169565b9150612d6e826135cd565b602082019050919050565b6000612d86602983613169565b9150612d91826135f6565b604082019050919050565b612da58161330b565b82525050565b612db48161330b565b82525050565b6000602082019050612dcf6000830184612c4c565b92915050565b600060e082019050612dea600083018a612c3d565b8181036020830152612dfc8189612cd7565b90508181036040830152612e108188612cd7565b90508181036060830152612e248187612cd7565b9050612e336080830186612cb9565b612e4060a0830185612dab565b612e4d60c0830184612dab565b98975050505050505050565b60006020820190508181036000830152612e738184612c5b565b905092915050565b60006040820190508181036000830152612e958185612c5b565b90508181036020830152612ea98184612c5b565b90509392505050565b6000602082019050612ec76000830184612cb9565b92915050565b60006020820190508181036000830152612ee78184612cd7565b905092915050565b60006020820190508181036000830152612f0881612d10565b9050919050565b60006020820190508181036000830152612f2881612d33565b9050919050565b60006020820190508181036000830152612f4881612d56565b9050919050565b60006020820190508181036000830152612f6881612d79565b9050919050565b6000602082019050612f846000830184612dab565b92915050565b600061010082019050612fa0600083018b612dab565b612fad602083018a612c3d565b8181036040830152612fbf8189612cd7565b90508181036060830152612fd38188612cd7565b90508181036080830152612fe78187612cd7565b9050612ff660a0830186612cb9565b61300360c0830185612cc8565b61301060e0830184612cc8565b9998505050505050505050565b60006040820190506130326000830185612dab565b61303f6020830184612dab565b9392505050565b6000613050613061565b905061305c828261339b565b919050565b6000604051905090565b600067ffffffffffffffff821115613086576130856134d1565b5b602082029050602081019050919050565b600067ffffffffffffffff8211156130b2576130b16134d1565b5b602082029050602081019050919050565b600067ffffffffffffffff8211156130de576130dd6134d1565b5b6130e78261351e565b9050602081019050919050565b600067ffffffffffffffff82111561310f5761310e6134d1565b5b6131188261351e565b9050602081019050919050565b6000819050602082019050919050565b600081519050919050565b600081519050919050565b6000602082019050919050565b600082825260208201905092915050565b600082825260208201905092915050565b60006131858261330b565b91506131908361330b565b9250827fffffffffffffffffffffffffffffffffffffffffffffffffffffffffffffffff038211156131c5576131c4613415565b5b828201905092915050565b60006131db8261330b565b91506131e68361330b565b9250826131f6576131f5613444565b5b828204905092915050565b600061320c8261330b565b91506132178361330b565b9250817fffffffffffffffffffffffffffffffffffffffffffffffffffffffffffffffff04831182151516156132505761324f613415565b5b828202905092915050565b60006132668261330b565b91506132718361330b565b92508282101561328457613283613415565b5b828203905092915050565b600061329a826132eb565b9050919050565b60006132ac826132eb565b9050919050565b60008115159050919050565b60007fffffffff0000000000000000000000000000000000000000000000000000000082169050919050565b600073ffffffffffffffffffffffffffffffffffffffff82169050919050565b6000819050919050565b60006133208261330b565b9050919050565b82818337600083830152505050565b60005b83811015613354578082015181840152602081019050613339565b83811115613363576000848401525b50505050565b6000600282049050600182168061338157607f821691505b6020821081141561339557613394613473565b5b50919050565b6133a48261351e565b810181811067ffffffffffffffff821117156133c3576133c26134d1565b5b80604052505050565b60006133d78261330b565b91507fffffffffffffffffffffffffffffffffffffffffffffffffffffffffffffffff82141561340a57613409613415565b5b600182019050919050565b7f4e487b7100000000000000000000000000000000000000000000000000000000600052601160045260246000fd5b7f4e487b7100000000000000000000000000000000000000000000000000000000600052601260045260246000fd5b7f4e487b7100000000000000000000000000000000000000000000000000000000600052602260045260246000fd5b7f4e487b7100000000000000000000000000000000000000000000000000000000600052603260045260246000fd5b7f4e487b7100000000000000000000000000000000000000000000000000000000600052604160045260246000fd5b600080fd5b600080fd5b600080fd5b600080fd5b600080fd5b600080fd5b6000601f19601f8301169050919050565b7f455243313135353a2062616c616e636520717565727920666f7220746865207a60008201527f65726f2061646472657373000000000000000000000000000000000000000000602082015250565b7f4f776e61626c653a206e6577206f776e657220697320746865207a65726f206160008201527f6464726573730000000000000000000000000000000000000000000000000000602082015250565b7f4f776e61626c653a2063616c6c6572206973206e6f7420746865206f776e6572600082015250565b7f455243313135353a206163636f756e747320616e6420696473206c656e67746860008201527f206d69736d617463680000000000000000000000000000000000000000000000602082015250565b61364e8161328f565b811461365957600080fd5b50565b613665816132a1565b811461367057600080fd5b50565b61367c816132b3565b811461368757600080fd5b50565b613693816132bf565b811461369e57600080fd5b50565b6136aa8161330b565b81146136b557600080fd5b5056fea264697066735822122084da4a8987591684342e461c25263325a1947bccdd00ee4c5fa31f511e66647364736f6c63430008060033",
  "immutableReferences": {},
  "source": "// SPDX-License-Identifier: MIT\npragma solidity ^0.8.0;\n\nimport \"./creatortokenformulas.sol\";\n\n/// @title Computation of fees owed to platform, and payout of creator\n/// @author Kamil Alizai Sadik\ncontract CreatorTokenFees is CreatorTokenFormulas {\n\n\tconstructor(string memory uri) CreatorTokenFormulas(uri) { }\n\n\t/// @dev Calculates the fee associated with a buy transaction\n\t/// @param _proceedsRequired The proceeds required for the buy transaction (before addition of fees)\n\t/// @return Fee associated with transaction\n\tfunction _feeProceeds(uint _proceedsRequired) public view returns (uint256) {\n\t\treturn _proceedsRequired*platformFee/100;\n\t}\n\n\t/// @dev Updates platform fee tracker mappings\n\t/// @param _fee Fee being added to the tracker\n\tfunction _platformFeeUpdater(uint _fee) internal {\n\t\ttotalPlatformFees += _fee;\n\t\tplatformFeesOwed += _fee;\n\t}\n\n\t/// @dev Transfers excess liquidity to the creator (triggered only when a CreatorToken hits a new maxSupply)\n\t/// @param _tokenId ID of the token in question\n\t/// @param _creatorAddress Wallet address of the creator of the token\n\tfunction _payCreator(uint _tokenId, address payable _creatorAddress) internal {\n\t\t// Create a variable showing excess liquidity that has already been transferred out of this token's liquidity pool\n\t\tuint alreadyTransferred = tokenValueTransferred[_tokenId];\n\t\t// Initialize totalProfit\n\t\tuint totalProfit = 0;\n\t\t// Calculate totalProfit (area between b(x) and s(x) from 0 to maxSupply)\n\t\ttotalProfit = _buyFunction(0, creatorTokens[_tokenId].maxSupply, mNumerator, mDenominator) - _saleFunction(creatorTokens[_tokenId].maxSupply, creatorTokens[_tokenId].maxSupply, mNumerator, mDenominator, creatorTokens[_tokenId].maxSupply, profitMargin);\n\t\t// Calculate creator's new profit created from new excess liquidity created\n\t\tuint newProfit = totalProfit - alreadyTransferred;\n\t\t// Transfer newProfit wei to creator\n\t\t_creatorAddress.transfer(newProfit);\n\t\t// Update amount of value transferred to creator\n\t\ttokenValueTransferred[_tokenId] = totalProfit;\n\t}\n}",
  "sourcePath": "/Users/kamilalizaisadik/DeFi/Dynamic Automated Market Maker/CreatorTokenExchange/contracts/creatortokenfees.sol",
  "compiler": {
    "name": "solc",
    "version": "0.8.6+commit.11564f7e.Emscripten.clang"
  },
  "schemaVersion": "3.4.1",
  "updatedAt": "2021-07-31T20:33:35.662Z",
  "devdoc": {
    "author": "Kamil Alizai Sadik",
    "kind": "dev",
    "methods": {
      "_feeProceeds(uint256)": {
        "details": "Calculates the fee associated with a buy transaction",
        "params": {
          "_proceedsRequired": "The proceeds required for the buy transaction (before addition of fees)"
        },
        "returns": {
          "_0": "Fee associated with transaction"
        }
      },
      "_saleFunction(uint256,uint256,uint256,uint256,uint256,uint256)": {
        "details": "Calculates area under sale price function",
        "params": {
          "_amount": "Amount of token being transacted",
          "_mDenominator": "Denominator of the slope of the buy price function",
          "_mNumerator": "Numerator of the slope of the buy price function",
          "_maxSupply": "Peak level of supply of the token to date",
          "_profitMargin": "percentage of total revenue generated routed to creator",
          "_startingSupply": "Supply of token in circulation before the transaction"
        },
        "returns": {
          "_0": "Area under sale price function denoting total proceeds received when selling _amount tokens (before fees)"
        }
      },
      "balanceOf(address,uint256)": {
        "details": "See {IERC1155-balanceOf}. Requirements: - `account` cannot be the zero address."
      },
      "balanceOfBatch(address[],uint256[])": {
        "details": "See {IERC1155-balanceOfBatch}. Requirements: - `accounts` and `ids` must have the same length."
      },
      "changeAddress(uint256,address)": {
        "details": "Allows token creator to change their address",
        "params": {
          "_newCreatorAddress": "New creator address associated with the token",
          "_tokenId": "ID of the token in question"
        }
      },
      "changeDescription(uint256,string)": {
        "details": "Allows token creator to change the description of their token",
        "params": {
          "_newDescription": "New description associated with the token",
          "_tokenId": "ID of the token in question"
        }
      },
      "changeName(uint256,string)": {
        "details": "Allows token creator to change the name of their token",
        "params": {
          "_newName": "New name associated with the token",
          "_tokenId": "ID of the token in question"
        }
      },
      "changePlatformFee(uint256)": {
        "details": "Allows owner to change platformFee",
        "params": {
          "_newPlatformFee": "New platform fee"
        }
      },
      "changeProfitMargin(uint256)": {
        "details": "Allows owner to change profit_margin",
        "params": {
          "_newProfitMargin": "New profit margin"
        }
      },
      "changeSymbol(uint256,string)": {
        "details": "Allows token creator to change the symbol of their token",
        "params": {
          "_newSymbol": "New symbol associated with the token",
          "_tokenId": "ID of the token in question"
        }
      },
      "changeVerification(uint256,bool)": {
        "details": "Allows owner to verify (or undo verification) of a CreatorToken",
        "params": {
          "_tokenId": "ID of the token in question",
          "_verified": "Verification status of the token in question"
        }
      },
      "createCreatorToken(address,string,string,string)": {
        "details": "Creates a new creator token",
        "params": {
          "_creatorAddress": "Address of the creator of the token",
          "_description": "chosen by the creator of the tokens",
          "_name": "Name chosen by the creator of the token",
          "_symbol": "Ticker symbol chosen by the creator of the token"
        }
      },
      "getCreatorTokenCount()": {
        "details": "Returns the current length of the creatorTokens array",
        "returns": {
          "_0": "uint representing number of unique Creator Tokens"
        }
      },
      "isApprovedForAll(address,address)": {
        "details": "Denotes whether operator is approved to transfer account's tokens",
        "params": {
          "_account": "Wallet address holding tokens",
          "_operator": "Wallet address which is/isn't approved to transfer _account's tokens"
        },
        "returns": {
          "_0": "Boolean value indicating approval status"
        }
      },
      "owner()": {
        "details": "Returns the address of the current owner."
      },
      "payoutPlatformFees(address)": {
        "details": "Pays out platform fees owed to owner (might opt to call this daily)",
        "params": {
          "_owner": "Owner of the smart contract"
        }
      },
      "renounceOwnership()": {
        "details": "Leaves the contract without owner. It will not be possible to call `onlyOwner` functions anymore. Can only be called by the current owner. NOTE: Renouncing ownership will leave the contract without an owner, thereby removing any functionality that is only available to the owner."
      },
      "safeBatchTransferFrom(address,address,uint256[],uint256[],bytes)": {
        "details": "Transfers a batch of tokens",
        "params": {
          "_amounts": "Array of quantities of token to be transferred",
          "_data": "Data",
          "_from": "Address token is being transferred from",
          "_ids": "Array of IDs of tokens being transferred",
          "_to": "Address token is being transferred to"
        }
      },
      "safeTransferFrom(address,address,uint256,uint256,bytes)": {
        "details": "Transfers a token",
        "params": {
          "_amount": "Quantity of token to be transferred",
          "_data": "Data",
          "_from": "Address token is being transferred from",
          "_id": "ID of token being transferred",
          "_to": "Address token is being transferred to"
        }
      },
      "setApprovalForAll(address,bool)": {
        "details": "Gives operator permission to transfer caller's tokens",
        "params": {
          "_approved": "Boolean value indicating whether operator is approved",
          "_operator": "Wallet address being granted permission"
        }
      },
      "supportsInterface(bytes4)": {
        "details": "See {IERC165-supportsInterface}."
      },
      "transferOwnership(address)": {
        "details": "Transfers ownership of the contract to a new account (`newOwner`). Can only be called by the current owner."
      },
      "uri(uint256)": {
        "details": "See {IERC1155MetadataURI-uri}. This implementation returns the same URI for *all* token types. It relies on the token type ID substitution mechanism https://eips.ethereum.org/EIPS/eip-1155#metadata[defined in the EIP]. Clients calling this function must replace the `\\{id\\}` substring with the actual token type ID."
      },
      "withdraw(address)": {
        "details": "Ownable function allowing for withdrawal",
        "params": {
          "_owner": "Owner of the smart contract"
        }
      }
    },
    "title": "Computation of fees owed to platform, and payout of creator",
    "version": 1
  },
  "userdoc": {
    "kind": "user",
    "methods": {},
    "version": 1
  }
}