{
  "contractName": "CreatorTokenFees",
  "abi": [
    {
      "inputs": [
        {
          "internalType": "string",
          "name": "uri",
          "type": "string"
        }
      ],
      "stateMutability": "nonpayable",
      "type": "constructor"
    },
    {
      "anonymous": false,
      "inputs": [
        {
          "indexed": true,
          "internalType": "address",
          "name": "account",
          "type": "address"
        },
        {
          "indexed": true,
          "internalType": "address",
          "name": "operator",
          "type": "address"
        },
        {
          "indexed": false,
          "internalType": "bool",
          "name": "approved",
          "type": "bool"
        }
      ],
      "name": "ApprovalForAll",
      "type": "event"
    },
    {
      "anonymous": false,
      "inputs": [
        {
          "indexed": false,
          "internalType": "uint256",
          "name": "tokenId",
          "type": "uint256"
        },
        {
          "indexed": false,
          "internalType": "address payable",
          "name": "creatorAddress",
          "type": "address"
        },
        {
          "indexed": false,
          "internalType": "string",
          "name": "name",
          "type": "string"
        },
        {
          "indexed": false,
          "internalType": "string",
          "name": "symbol",
          "type": "string"
        },
        {
          "indexed": false,
          "internalType": "string",
          "name": "description",
          "type": "string"
        },
        {
          "indexed": false,
          "internalType": "bool",
          "name": "verified",
          "type": "bool"
        },
        {
          "indexed": false,
          "internalType": "uint256",
          "name": "outstanding",
          "type": "uint256"
        },
        {
          "indexed": false,
          "internalType": "uint256",
          "name": "maxSupply",
          "type": "uint256"
        }
      ],
      "name": "NewCreatorToken",
      "type": "event"
    },
    {
      "anonymous": false,
      "inputs": [
        {
          "indexed": true,
          "internalType": "address",
          "name": "previousOwner",
          "type": "address"
        },
        {
          "indexed": true,
          "internalType": "address",
          "name": "newOwner",
          "type": "address"
        }
      ],
      "name": "OwnershipTransferred",
      "type": "event"
    },
    {
      "anonymous": false,
      "inputs": [
        {
          "indexed": false,
          "internalType": "address",
          "name": "account",
          "type": "address"
        }
      ],
      "name": "Paused",
      "type": "event"
    },
    {
      "anonymous": false,
      "inputs": [
        {
          "indexed": true,
          "internalType": "bytes32",
          "name": "role",
          "type": "bytes32"
        },
        {
          "indexed": true,
          "internalType": "bytes32",
          "name": "previousAdminRole",
          "type": "bytes32"
        },
        {
          "indexed": true,
          "internalType": "bytes32",
          "name": "newAdminRole",
          "type": "bytes32"
        }
      ],
      "name": "RoleAdminChanged",
      "type": "event"
    },
    {
      "anonymous": false,
      "inputs": [
        {
          "indexed": true,
          "internalType": "bytes32",
          "name": "role",
          "type": "bytes32"
        },
        {
          "indexed": true,
          "internalType": "address",
          "name": "account",
          "type": "address"
        },
        {
          "indexed": true,
          "internalType": "address",
          "name": "sender",
          "type": "address"
        }
      ],
      "name": "RoleGranted",
      "type": "event"
    },
    {
      "anonymous": false,
      "inputs": [
        {
          "indexed": true,
          "internalType": "bytes32",
          "name": "role",
          "type": "bytes32"
        },
        {
          "indexed": true,
          "internalType": "address",
          "name": "account",
          "type": "address"
        },
        {
          "indexed": true,
          "internalType": "address",
          "name": "sender",
          "type": "address"
        }
      ],
      "name": "RoleRevoked",
      "type": "event"
    },
    {
      "anonymous": false,
      "inputs": [
        {
          "indexed": true,
          "internalType": "address",
          "name": "operator",
          "type": "address"
        },
        {
          "indexed": true,
          "internalType": "address",
          "name": "from",
          "type": "address"
        },
        {
          "indexed": true,
          "internalType": "address",
          "name": "to",
          "type": "address"
        },
        {
          "indexed": false,
          "internalType": "uint256[]",
          "name": "ids",
          "type": "uint256[]"
        },
        {
          "indexed": false,
          "internalType": "uint256[]",
          "name": "values",
          "type": "uint256[]"
        }
      ],
      "name": "TransferBatch",
      "type": "event"
    },
    {
      "anonymous": false,
      "inputs": [
        {
          "indexed": true,
          "internalType": "address",
          "name": "operator",
          "type": "address"
        },
        {
          "indexed": true,
          "internalType": "address",
          "name": "from",
          "type": "address"
        },
        {
          "indexed": true,
          "internalType": "address",
          "name": "to",
          "type": "address"
        },
        {
          "indexed": false,
          "internalType": "uint256",
          "name": "id",
          "type": "uint256"
        },
        {
          "indexed": false,
          "internalType": "uint256",
          "name": "value",
          "type": "uint256"
        }
      ],
      "name": "TransferSingle",
      "type": "event"
    },
    {
      "anonymous": false,
      "inputs": [
        {
          "indexed": false,
          "internalType": "string",
          "name": "value",
          "type": "string"
        },
        {
          "indexed": true,
          "internalType": "uint256",
          "name": "id",
          "type": "uint256"
        }
      ],
      "name": "URI",
      "type": "event"
    },
    {
      "anonymous": false,
      "inputs": [
        {
          "indexed": false,
          "internalType": "address",
          "name": "account",
          "type": "address"
        }
      ],
      "name": "Unpaused",
      "type": "event"
    },
    {
      "inputs": [],
      "name": "DEFAULT_ADMIN_ROLE",
      "outputs": [
        {
          "internalType": "bytes32",
          "name": "",
          "type": "bytes32"
        }
      ],
      "stateMutability": "view",
      "type": "function"
    },
    {
      "inputs": [],
      "name": "MINTER_ROLE",
      "outputs": [
        {
          "internalType": "bytes32",
          "name": "",
          "type": "bytes32"
        }
      ],
      "stateMutability": "view",
      "type": "function"
    },
    {
      "inputs": [],
      "name": "PAUSER_ROLE",
      "outputs": [
        {
          "internalType": "bytes32",
          "name": "",
          "type": "bytes32"
        }
      ],
      "stateMutability": "view",
      "type": "function"
    },
    {
      "inputs": [
        {
          "internalType": "address",
          "name": "_account",
          "type": "address"
        },
        {
          "internalType": "uint256",
          "name": "_id",
          "type": "uint256"
        }
      ],
      "name": "balanceOf",
      "outputs": [
        {
          "internalType": "uint256",
          "name": "",
          "type": "uint256"
        }
      ],
      "stateMutability": "view",
      "type": "function"
    },
    {
      "inputs": [
        {
          "internalType": "address[]",
          "name": "_accounts",
          "type": "address[]"
        },
        {
          "internalType": "uint256[]",
          "name": "_ids",
          "type": "uint256[]"
        }
      ],
      "name": "balanceOfBatch",
      "outputs": [
        {
          "internalType": "uint256[]",
          "name": "",
          "type": "uint256[]"
        }
      ],
      "stateMutability": "view",
      "type": "function"
    },
    {
      "inputs": [
        {
          "internalType": "address",
          "name": "_account",
          "type": "address"
        },
        {
          "internalType": "uint256",
          "name": "_id",
          "type": "uint256"
        },
        {
          "internalType": "uint256",
          "name": "_amount",
          "type": "uint256"
        }
      ],
      "name": "burn",
      "outputs": [],
      "stateMutability": "nonpayable",
      "type": "function"
    },
    {
      "inputs": [
        {
          "internalType": "address",
          "name": "_account",
          "type": "address"
        },
        {
          "internalType": "uint256[]",
          "name": "_ids",
          "type": "uint256[]"
        },
        {
          "internalType": "uint256[]",
          "name": "_amounts",
          "type": "uint256[]"
        }
      ],
      "name": "burnBatch",
      "outputs": [],
      "stateMutability": "nonpayable",
      "type": "function"
    },
    {
      "inputs": [
        {
          "internalType": "uint256",
          "name": "_tokenId",
          "type": "uint256"
        },
        {
          "internalType": "address payable",
          "name": "_newCreatorAddress",
          "type": "address"
        }
      ],
      "name": "changeAddress",
      "outputs": [],
      "stateMutability": "nonpayable",
      "type": "function"
    },
    {
      "inputs": [
        {
          "internalType": "uint256",
          "name": "_tokenId",
          "type": "uint256"
        },
        {
          "internalType": "string",
          "name": "_newDescription",
          "type": "string"
        }
      ],
      "name": "changeDescription",
      "outputs": [],
      "stateMutability": "nonpayable",
      "type": "function"
    },
    {
      "inputs": [
        {
          "internalType": "uint256",
          "name": "_tokenId",
          "type": "uint256"
        },
        {
          "internalType": "string",
          "name": "_newName",
          "type": "string"
        }
      ],
      "name": "changeName",
      "outputs": [],
      "stateMutability": "nonpayable",
      "type": "function"
    },
    {
      "inputs": [
        {
          "internalType": "uint256",
          "name": "_newPlatformFee",
          "type": "uint256"
        }
      ],
      "name": "changePlatformFee",
      "outputs": [],
      "stateMutability": "nonpayable",
      "type": "function"
    },
    {
      "inputs": [
        {
          "internalType": "uint256",
          "name": "_newProfitMargin",
          "type": "uint256"
        }
      ],
      "name": "changeProfitMargin",
      "outputs": [],
      "stateMutability": "nonpayable",
      "type": "function"
    },
    {
      "inputs": [
        {
          "internalType": "uint256",
          "name": "_tokenId",
          "type": "uint256"
        },
        {
          "internalType": "string",
          "name": "_newSymbol",
          "type": "string"
        }
      ],
      "name": "changeSymbol",
      "outputs": [],
      "stateMutability": "nonpayable",
      "type": "function"
    },
    {
      "inputs": [
        {
          "internalType": "uint256",
          "name": "_tokenId",
          "type": "uint256"
        },
        {
          "internalType": "bool",
          "name": "_verified",
          "type": "bool"
        }
      ],
      "name": "changeVerification",
      "outputs": [],
      "stateMutability": "nonpayable",
      "type": "function"
    },
    {
      "inputs": [
        {
          "internalType": "address payable",
          "name": "_creatorAddress",
          "type": "address"
        },
        {
          "internalType": "string",
          "name": "_name",
          "type": "string"
        },
        {
          "internalType": "string",
          "name": "_symbol",
          "type": "string"
        },
        {
          "internalType": "string",
          "name": "_description",
          "type": "string"
        }
      ],
      "name": "createCreatorToken",
      "outputs": [],
      "stateMutability": "nonpayable",
      "type": "function"
    },
    {
      "inputs": [
        {
          "internalType": "uint256",
          "name": "",
          "type": "uint256"
        }
      ],
      "name": "creatorTokens",
      "outputs": [
        {
          "internalType": "address payable",
          "name": "creatorAddress",
          "type": "address"
        },
        {
          "internalType": "string",
          "name": "name",
          "type": "string"
        },
        {
          "internalType": "string",
          "name": "symbol",
          "type": "string"
        },
        {
          "internalType": "string",
          "name": "description",
          "type": "string"
        },
        {
          "internalType": "bool",
          "name": "verified",
          "type": "bool"
        },
        {
          "internalType": "uint256",
          "name": "outstanding",
          "type": "uint256"
        },
        {
          "internalType": "uint256",
          "name": "maxSupply",
          "type": "uint256"
        }
      ],
      "stateMutability": "view",
      "type": "function"
    },
    {
      "inputs": [
        {
          "internalType": "bytes32",
          "name": "role",
          "type": "bytes32"
        }
      ],
      "name": "getRoleAdmin",
      "outputs": [
        {
          "internalType": "bytes32",
          "name": "",
          "type": "bytes32"
        }
      ],
      "stateMutability": "view",
      "type": "function"
    },
    {
      "inputs": [
        {
          "internalType": "bytes32",
          "name": "role",
          "type": "bytes32"
        },
        {
          "internalType": "uint256",
          "name": "index",
          "type": "uint256"
        }
      ],
      "name": "getRoleMember",
      "outputs": [
        {
          "internalType": "address",
          "name": "",
          "type": "address"
        }
      ],
      "stateMutability": "view",
      "type": "function"
    },
    {
      "inputs": [
        {
          "internalType": "bytes32",
          "name": "role",
          "type": "bytes32"
        }
      ],
      "name": "getRoleMemberCount",
      "outputs": [
        {
          "internalType": "uint256",
          "name": "",
          "type": "uint256"
        }
      ],
      "stateMutability": "view",
      "type": "function"
    },
    {
      "inputs": [
        {
          "internalType": "bytes32",
          "name": "role",
          "type": "bytes32"
        },
        {
          "internalType": "address",
          "name": "account",
          "type": "address"
        }
      ],
      "name": "grantRole",
      "outputs": [],
      "stateMutability": "nonpayable",
      "type": "function"
    },
    {
      "inputs": [
        {
          "internalType": "bytes32",
          "name": "role",
          "type": "bytes32"
        },
        {
          "internalType": "address",
          "name": "account",
          "type": "address"
        }
      ],
      "name": "hasRole",
      "outputs": [
        {
          "internalType": "bool",
          "name": "",
          "type": "bool"
        }
      ],
      "stateMutability": "view",
      "type": "function"
    },
    {
      "inputs": [
        {
          "internalType": "address",
          "name": "_account",
          "type": "address"
        },
        {
          "internalType": "address",
          "name": "_operator",
          "type": "address"
        }
      ],
      "name": "isApprovedForAll",
      "outputs": [
        {
          "internalType": "bool",
          "name": "",
          "type": "bool"
        }
      ],
      "stateMutability": "view",
      "type": "function"
    },
    {
      "inputs": [
        {
          "internalType": "address",
          "name": "_account",
          "type": "address"
        },
        {
          "internalType": "uint256",
          "name": "_id",
          "type": "uint256"
        },
        {
          "internalType": "uint256",
          "name": "_amount",
          "type": "uint256"
        }
      ],
      "name": "mappingDecrease",
      "outputs": [],
      "stateMutability": "nonpayable",
      "type": "function"
    },
    {
      "inputs": [
        {
          "internalType": "address",
          "name": "_account",
          "type": "address"
        },
        {
          "internalType": "uint256",
          "name": "_id",
          "type": "uint256"
        },
        {
          "internalType": "uint256",
          "name": "_amount",
          "type": "uint256"
        }
      ],
      "name": "mappingIncrease",
      "outputs": [],
      "stateMutability": "nonpayable",
      "type": "function"
    },
    {
      "inputs": [
        {
          "internalType": "address",
          "name": "_to",
          "type": "address"
        },
        {
          "internalType": "uint256",
          "name": "_id",
          "type": "uint256"
        },
        {
          "internalType": "uint256",
          "name": "_amount",
          "type": "uint256"
        },
        {
          "internalType": "bytes",
          "name": "_data",
          "type": "bytes"
        }
      ],
      "name": "mint",
      "outputs": [],
      "stateMutability": "nonpayable",
      "type": "function"
    },
    {
      "inputs": [
        {
          "internalType": "address",
          "name": "_to",
          "type": "address"
        },
        {
          "internalType": "uint256[]",
          "name": "_ids",
          "type": "uint256[]"
        },
        {
          "internalType": "uint256[]",
          "name": "_amounts",
          "type": "uint256[]"
        },
        {
          "internalType": "bytes",
          "name": "data",
          "type": "bytes"
        }
      ],
      "name": "mintBatch",
      "outputs": [],
      "stateMutability": "nonpayable",
      "type": "function"
    },
    {
      "inputs": [],
      "name": "owner",
      "outputs": [
        {
          "internalType": "address",
          "name": "",
          "type": "address"
        }
      ],
      "stateMutability": "view",
      "type": "function"
    },
    {
      "inputs": [],
      "name": "pause",
      "outputs": [],
      "stateMutability": "nonpayable",
      "type": "function"
    },
    {
      "inputs": [],
      "name": "paused",
      "outputs": [
        {
          "internalType": "bool",
          "name": "",
          "type": "bool"
        }
      ],
      "stateMutability": "view",
      "type": "function"
    },
    {
      "inputs": [
        {
          "internalType": "address payable",
          "name": "_owner",
          "type": "address"
        }
      ],
      "name": "payoutPlatformFees",
      "outputs": [],
      "stateMutability": "nonpayable",
      "type": "function"
    },
    {
      "inputs": [],
      "name": "renounceOwnership",
      "outputs": [],
      "stateMutability": "nonpayable",
      "type": "function"
    },
    {
      "inputs": [
        {
          "internalType": "bytes32",
          "name": "role",
          "type": "bytes32"
        },
        {
          "internalType": "address",
          "name": "account",
          "type": "address"
        }
      ],
      "name": "renounceRole",
      "outputs": [],
      "stateMutability": "nonpayable",
      "type": "function"
    },
    {
      "inputs": [
        {
          "internalType": "bytes32",
          "name": "role",
          "type": "bytes32"
        },
        {
          "internalType": "address",
          "name": "account",
          "type": "address"
        }
      ],
      "name": "revokeRole",
      "outputs": [],
      "stateMutability": "nonpayable",
      "type": "function"
    },
    {
      "inputs": [
        {
          "internalType": "address",
          "name": "_from",
          "type": "address"
        },
        {
          "internalType": "address",
          "name": "_to",
          "type": "address"
        },
        {
          "internalType": "uint256[]",
          "name": "_ids",
          "type": "uint256[]"
        },
        {
          "internalType": "uint256[]",
          "name": "_amounts",
          "type": "uint256[]"
        },
        {
          "internalType": "bytes",
          "name": "data",
          "type": "bytes"
        }
      ],
      "name": "safeBatchTransferFrom",
      "outputs": [],
      "stateMutability": "nonpayable",
      "type": "function"
    },
    {
      "inputs": [
        {
          "internalType": "address",
          "name": "_from",
          "type": "address"
        },
        {
          "internalType": "address",
          "name": "_to",
          "type": "address"
        },
        {
          "internalType": "uint256",
          "name": "_id",
          "type": "uint256"
        },
        {
          "internalType": "uint256",
          "name": "_amount",
          "type": "uint256"
        },
        {
          "internalType": "bytes",
          "name": "_data",
          "type": "bytes"
        }
      ],
      "name": "safeTransferFrom",
      "outputs": [],
      "stateMutability": "nonpayable",
      "type": "function"
    },
    {
      "inputs": [
        {
          "internalType": "address",
          "name": "_operator",
          "type": "address"
        },
        {
          "internalType": "bool",
          "name": "_approved",
          "type": "bool"
        }
      ],
      "name": "setApprovalForAll",
      "outputs": [],
      "stateMutability": "nonpayable",
      "type": "function"
    },
    {
      "inputs": [
        {
          "internalType": "bytes4",
          "name": "interfaceId",
          "type": "bytes4"
        }
      ],
      "name": "supportsInterface",
      "outputs": [
        {
          "internalType": "bool",
          "name": "",
          "type": "bool"
        }
      ],
      "stateMutability": "view",
      "type": "function"
    },
    {
      "inputs": [
        {
          "internalType": "uint256",
          "name": "",
          "type": "uint256"
        },
        {
          "internalType": "address",
          "name": "",
          "type": "address"
        }
      ],
      "name": "tokenHoldership",
      "outputs": [
        {
          "internalType": "uint256",
          "name": "",
          "type": "uint256"
        }
      ],
      "stateMutability": "view",
      "type": "function"
    },
    {
      "inputs": [
        {
          "internalType": "uint256",
          "name": "",
          "type": "uint256"
        }
      ],
      "name": "tokenToCreator",
      "outputs": [
        {
          "internalType": "address",
          "name": "",
          "type": "address"
        }
      ],
      "stateMutability": "view",
      "type": "function"
    },
    {
      "inputs": [
        {
          "internalType": "address",
          "name": "newOwner",
          "type": "address"
        }
      ],
      "name": "transferOwnership",
      "outputs": [],
      "stateMutability": "nonpayable",
      "type": "function"
    },
    {
      "inputs": [],
      "name": "unpause",
      "outputs": [],
      "stateMutability": "nonpayable",
      "type": "function"
    },
    {
      "inputs": [
        {
          "internalType": "uint256",
          "name": "",
          "type": "uint256"
        }
      ],
      "name": "uri",
      "outputs": [
        {
          "internalType": "string",
          "name": "",
          "type": "string"
        }
      ],
      "stateMutability": "view",
      "type": "function"
    },
    {
      "inputs": [
        {
          "internalType": "address",
          "name": "",
          "type": "address"
        },
        {
          "internalType": "uint256",
          "name": "",
          "type": "uint256"
        }
      ],
      "name": "userToHoldings",
      "outputs": [
        {
          "internalType": "uint256",
          "name": "",
          "type": "uint256"
        }
      ],
      "stateMutability": "view",
      "type": "function"
    },
    {
      "inputs": [
        {
          "internalType": "address payable",
          "name": "_owner",
          "type": "address"
        }
      ],
      "name": "withdraw",
      "outputs": [],
      "stateMutability": "nonpayable",
      "type": "function"
    },
    {
      "inputs": [
        {
          "internalType": "uint256",
          "name": "_proceedsRequired",
          "type": "uint256"
        }
      ],
      "name": "_feeProceeds",
      "outputs": [
        {
          "internalType": "uint256",
          "name": "",
          "type": "uint256"
        }
      ],
      "stateMutability": "view",
      "type": "function"
    }
  ],
  "bytecode": "0x60806040526001805560006002556000600355601460045565082f79cd900060055560b96006553480156200003357600080fd5b50604051620052ee380380620052ee8339818101604052810190620000599190620005cc565b8080808060006200006f620001ea60201b60201c565b9050806000806101000a81548173ffffffffffffffffffffffffffffffffffffffff021916908373ffffffffffffffffffffffffffffffffffffffff1602179055508073ffffffffffffffffffffffffffffffffffffffff16600073ffffffffffffffffffffffffffffffffffffffff167f8be0079c531659141344cd1fd0a4f28419497f9722a3daafe3b4186f6b6457e060405160405180910390a3506200011e81620001f260201b60201c565b506000601260006101000a81548160ff0219169083151502179055506200015e6000801b62000152620001ea60201b60201c565b6200020e60201b60201c565b6200019f7f9f2df0fed2c77648de5860a4cc508cd0818c85b8b8a1ab4ceeef8d981c8956a662000193620001ea60201b60201c565b6200020e60201b60201c565b620001e07f65d7a28e3265b37a6474929f336521b332c1681b933f6cb9f3376673440d862a620001d4620001ea60201b60201c565b6200020e60201b60201c565b50505050620007a1565b600033905090565b80601190805190602001906200020a9291906200049e565b5050565b6200022582826200025660201b620024a11760201c565b6200025181600e60008581526020019081526020016000206200026c60201b620024af1790919060201c565b505050565b620002688282620002a460201b60201c565b5050565b60006200029c836000018373ffffffffffffffffffffffffffffffffffffffff1660001b6200039660201b60201c565b905092915050565b620002b682826200041060201b60201c565b62000392576001600d600084815260200190815260200160002060000160008373ffffffffffffffffffffffffffffffffffffffff1673ffffffffffffffffffffffffffffffffffffffff16815260200190815260200160002060006101000a81548160ff02191690831515021790555062000337620001ea60201b60201c565b73ffffffffffffffffffffffffffffffffffffffff168173ffffffffffffffffffffffffffffffffffffffff16837f2f8788117e7eff1d82e926ec794901d17c78024a50270940304540a733656f0d60405160405180910390a45b5050565b6000620003aa83836200047b60201b60201c565b620004055782600001829080600181540180825580915050600190039060005260206000200160009091909190915055826000018054905083600101600084815260200190815260200160002081905550600190506200040a565b600090505b92915050565b6000600d600084815260200190815260200160002060000160008373ffffffffffffffffffffffffffffffffffffffff1673ffffffffffffffffffffffffffffffffffffffff16815260200190815260200160002060009054906101000a900460ff16905092915050565b600080836001016000848152602001908152602001600020541415905092915050565b828054620004ac90620006b2565b90600052602060002090601f016020900481019282620004d057600085556200051c565b82601f10620004eb57805160ff19168380011785556200051c565b828001600101855582156200051c579182015b828111156200051b578251825591602001919060010190620004fe565b5b5090506200052b91906200052f565b5090565b5b808211156200054a57600081600090555060010162000530565b5090565b6000620005656200055f8462000646565b6200061d565b90508281526020810184848401111562000584576200058362000781565b5b620005918482856200067c565b509392505050565b600082601f830112620005b157620005b06200077c565b5b8151620005c38482602086016200054e565b91505092915050565b600060208284031215620005e557620005e46200078b565b5b600082015167ffffffffffffffff81111562000606576200060562000786565b5b620006148482850162000599565b91505092915050565b6000620006296200063c565b9050620006378282620006e8565b919050565b6000604051905090565b600067ffffffffffffffff8211156200066457620006636200074d565b5b6200066f8262000790565b9050602081019050919050565b60005b838110156200069c5780820151818401526020810190506200067f565b83811115620006ac576000848401525b50505050565b60006002820490506001821680620006cb57607f821691505b60208210811415620006e257620006e16200071e565b5b50919050565b620006f38262000790565b810181811067ffffffffffffffff821117156200071557620007146200074d565b5b80604052505050565b7f4e487b7100000000000000000000000000000000000000000000000000000000600052602260045260246000fd5b7f4e487b7100000000000000000000000000000000000000000000000000000000600052604160045260246000fd5b600080fd5b600080fd5b600080fd5b600080fd5b6000601f19601f8301169050919050565b614b3d80620007b16000396000f3fe608060405234801561001057600080fd5b506004361061027e5760003560e01c806391d148541161015c578063d547741f116100ce578063eb84175911610087578063eb841759146107b9578063f242432a146107d5578063f2fde38b146107f1578063f5298aca1461080d578063f56e71b414610829578063f7374e2e146108455761027e565b8063d547741f146106fb578063d56b72c714610717578063d7a5791a14610733578063de6a06ed1461074f578063e63ab1e91461076b578063e985e9c5146107895761027e565b8063bfb48c9c11610120578063bfb48c9c1461060f578063c39cbef11461063f578063c539c3171461065b578063ca15c87314610677578063ce901d8a146106a7578063d5391393146106dd5761027e565b806391d148541461054557806392724afa14610575578063a217fddf146105a5578063a22cb465146105c3578063ba111a05146105df5761027e565b80633f4ba83a116101f55780636b20c454116101b95780636b20c454146104ab578063715018a6146104c7578063731133e9146104d15780638456cb59146104ed5780638da5cb5b146104f75780639010d07c146105155761027e565b80633f4ba83a1461041b5780634e1273f41461042557806351cff8d9146104555780635c975abb146104715780635d4222cd1461048f5761027e565b80631d5ad18b116102475780631d5ad18b1461035f5780631f7fdffa1461037b578063248a9ca3146103975780632eb2c2d6146103c75780632f2ff15d146103e357806336568abe146103ff5761027e565b8062fdd58e1461028357806301ffc9a7146102b357806306e320f5146102e35780630e89341c146102ff57806318892ae81461032f575b600080fd5b61029d600480360381019061029891906138c8565b610861565b6040516102aa91906141fa565b60405180910390f35b6102cd60048036038101906102c89190613b0c565b6108bc565b6040516102da9190614082565b60405180910390f35b6102fd60048036038101906102f89190613c26565b6108ce565b005b61031960048036038101906103149190613b39565b610975565b60405161032691906140b8565b60405180910390f35b61034960048036038101906103449190613b39565b610a09565b6040516103569190613f8a565b60405180910390f35b61037960048036038101906103749190613ba6565b610a3c565b005b610395600480360381019061039091906137cd565b610b11565b005b6103b160048036038101906103ac9190613a5f565b610c65565b6040516103be919061409d565b60405180910390f35b6103e160048036038101906103dc91906135dc565b610c85565b005b6103fd60048036038101906103f89190613a8c565b610da8565b005b61041960048036038101906104149190613a8c565b610ddc565b005b610423610e10565b005b61043f600480360381019061043a91906139de565b610e8a565b60405161044c9190614029565b60405180910390f35b61046f600480360381019061046a91906134b4565b610fba565b005b610479611080565b6040516104869190614082565b60405180910390f35b6104a960048036038101906104a49190613908565b611097565b005b6104c560048036038101906104c09190613742565b61116a565b005b6104cf6112bd565b005b6104eb60048036038101906104e6919061395b565b6113f7565b005b6104f56114c3565b005b6104ff61153d565b60405161050c9190613f8a565b60405180910390f35b61052f600480360381019061052a9190613acc565b611566565b60405161053c9190613f8a565b60405180910390f35b61055f600480360381019061055a9190613a8c565b611595565b60405161056c9190614082565b60405180910390f35b61058f600480360381019061058a91906138c8565b611600565b60405161059c91906141fa565b60405180910390f35b6105ad611625565b6040516105ba919061409d565b60405180910390f35b6105dd60048036038101906105d89190613888565b61162c565b005b6105f960048036038101906105f49190613b39565b611729565b60405161060691906141fa565b60405180910390f35b61062960048036038101906106249190613b66565b61174c565b60405161063691906141fa565b60405180910390f35b61065960048036038101906106549190613c26565b611771565b005b61067560048036038101906106709190613b39565b611818565b005b610691600480360381019061068c9190613a5f565b61189e565b60405161069e91906141fa565b60405180910390f35b6106c160048036038101906106bc9190613b39565b6118c2565b6040516106d49796959493929190613fa5565b60405180910390f35b6106e5611ad9565b6040516106f2919061409d565b60405180910390f35b61071560048036038101906107109190613a8c565b611afd565b005b610731600480360381019061072c91906134e1565b611b31565b005b61074d60048036038101906107489190613b39565b611d4d565b005b61076960048036038101906107649190613c26565b611dd3565b005b610773611e7a565b604051610780919061409d565b60405180910390f35b6107a3600480360381019061079e919061359c565b611e9e565b6040516107b09190614082565b60405180910390f35b6107d360048036038101906107ce91906134b4565b611f32565b005b6107ef60048036038101906107ea91906136ab565b612002565b005b61080b60048036038101906108069190613487565b61209d565b005b61082760048036038101906108229190613908565b612246565b005b610843600480360381019061083e9190613908565b612311565b005b61085f600480360381019061085a9190613be6565b6123e4565b005b6000600a600083815260200190815260200160002060008473ffffffffffffffffffffffffffffffffffffffff1673ffffffffffffffffffffffffffffffffffffffff16815260200190815260200160002054905092915050565b60006108c7826124df565b9050919050565b826008600082815260200190815260200160002060009054906101000a900473ffffffffffffffffffffffffffffffffffffffff1673ffffffffffffffffffffffffffffffffffffffff163373ffffffffffffffffffffffffffffffffffffffff161461093a57600080fd5b8282600786815481106109505761094f61476f565b5b9060005260206000209060070201600201919061096e929190613060565b5050505050565b60606011805461098490614607565b80601f01602080910402602001604051908101604052809291908181526020018280546109b090614607565b80156109fd5780601f106109d2576101008083540402835291602001916109fd565b820191906000526020600020905b8154815290600101906020018083116109e057829003601f168201915b50505050509050919050565b60086020528060005260406000206000915054906101000a900473ffffffffffffffffffffffffffffffffffffffff1681565b816008600082815260200190815260200160002060009054906101000a900473ffffffffffffffffffffffffffffffffffffffff1673ffffffffffffffffffffffffffffffffffffffff163373ffffffffffffffffffffffffffffffffffffffff1614610aa857600080fd5b8160078481548110610abd57610abc61476f565b5b906000526020600020906007020160000160006101000a81548173ffffffffffffffffffffffffffffffffffffffff021916908373ffffffffffffffffffffffffffffffffffffffff160217905550505050565b60005b8351811015610bdf57610b5c85858381518110610b3457610b3361476f565b5b6020026020010151858481518110610b4f57610b4e61476f565b5b6020026020010151611097565b828181518110610b6f57610b6e61476f565b5b60200260200101516007858381518110610b8c57610b8b61476f565b5b602002602001015181548110610ba557610ba461476f565b5b90600052602060002090600702016005016000828254610bc591906143e4565b925050819055508080610bd79061466a565b915050610b14565b508373ffffffffffffffffffffffffffffffffffffffff16600073ffffffffffffffffffffffffffffffffffffffff163373ffffffffffffffffffffffffffffffffffffffff167f4a39dc06d4c0dbc64b70af90fd698a233a518aa5d07e595d983b8c0526c8f7fb8686604051610c5792919061404b565b60405180910390a450505050565b6000600d6000838152602001908152602001600020600101549050919050565b60005b8351811015610d2257610cd086858381518110610ca857610ca761476f565b5b6020026020010151858481518110610cc357610cc261476f565b5b6020026020010151612311565b610d0f85858381518110610ce757610ce661476f565b5b6020026020010151858481518110610d0257610d0161476f565b5b6020026020010151611097565b8080610d1a9061466a565b915050610c88565b508373ffffffffffffffffffffffffffffffffffffffff168573ffffffffffffffffffffffffffffffffffffffff163373ffffffffffffffffffffffffffffffffffffffff167f4a39dc06d4c0dbc64b70af90fd698a233a518aa5d07e595d983b8c0526c8f7fb8686604051610d9992919061404b565b60405180910390a45050505050565b610db282826125c1565b610dd781600e60008581526020019081526020016000206124af90919063ffffffff16565b505050565b610de682826125ea565b610e0b81600e600085815260200190815260200160002061266d90919063ffffffff16565b505050565b610e417f65d7a28e3265b37a6474929f336521b332c1681b933f6cb9f3376673440d862a610e3c61269d565b611595565b610e80576040517f08c379a0000000000000000000000000000000000000000000000000000000008152600401610e779061419a565b60405180910390fd5b610e886126a5565b565b606060008585905067ffffffffffffffff811115610eab57610eaa61479e565b5b604051908082528060200260200182016040528015610ed95781602001602082028036833780820191505090505b50905060005b86869050811015610fad57600a6000868684818110610f0157610f0061476f565b5b9050602002013581526020019081526020016000206000888884818110610f2b57610f2a61476f565b5b9050602002016020810190610f409190613487565b73ffffffffffffffffffffffffffffffffffffffff1673ffffffffffffffffffffffffffffffffffffffff16815260200190815260200160002054828281518110610f8e57610f8d61476f565b5b6020026020010181815250508080610fa59061466a565b915050610edf565b5080915050949350505050565b610fc261269d565b73ffffffffffffffffffffffffffffffffffffffff16610fe061153d565b73ffffffffffffffffffffffffffffffffffffffff1614611036576040517f08c379a000000000000000000000000000000000000000000000000000000000815260040161102d9061417a565b60405180910390fd5b8073ffffffffffffffffffffffffffffffffffffffff166108fc479081150290604051600060405180830381858888f1935050505015801561107c573d6000803e3d6000fd5b5050565b6000601260009054906101000a900460ff16905090565b80600a600084815260200190815260200160002060008573ffffffffffffffffffffffffffffffffffffffff1673ffffffffffffffffffffffffffffffffffffffff16815260200190815260200160002060008282546110f791906143e4565b9250508190555080600b60008573ffffffffffffffffffffffffffffffffffffffff1673ffffffffffffffffffffffffffffffffffffffff1681526020019081526020016000206000848152602001908152602001600020600082825461115e91906143e4565b92505081905550505050565b60005b8251811015611238576111b58484838151811061118d5761118c61476f565b5b60200260200101518484815181106111a8576111a761476f565b5b6020026020010151612311565b8181815181106111c8576111c761476f565b5b602002602001015160078483815181106111e5576111e461476f565b5b6020026020010151815481106111fe576111fd61476f565b5b9060005260206000209060070201600501600082825461121e91906144c5565b9250508190555080806112309061466a565b91505061116d565b50600073ffffffffffffffffffffffffffffffffffffffff168373ffffffffffffffffffffffffffffffffffffffff163373ffffffffffffffffffffffffffffffffffffffff167f4a39dc06d4c0dbc64b70af90fd698a233a518aa5d07e595d983b8c0526c8f7fb85856040516112b092919061404b565b60405180910390a4505050565b6112c561269d565b73ffffffffffffffffffffffffffffffffffffffff166112e361153d565b73ffffffffffffffffffffffffffffffffffffffff1614611339576040517f08c379a00000000000000000000000000000000000000000000000000000000081526004016113309061417a565b60405180910390fd5b600073ffffffffffffffffffffffffffffffffffffffff1660008054906101000a900473ffffffffffffffffffffffffffffffffffffffff1673ffffffffffffffffffffffffffffffffffffffff167f8be0079c531659141344cd1fd0a4f28419497f9722a3daafe3b4186f6b6457e060405160405180910390a360008060006101000a81548173ffffffffffffffffffffffffffffffffffffffff021916908373ffffffffffffffffffffffffffffffffffffffff160217905550565b611402848484611097565b81600784815481106114175761141661476f565b5b9060005260206000209060070201600501600082825461143791906143e4565b925050819055508373ffffffffffffffffffffffffffffffffffffffff16600073ffffffffffffffffffffffffffffffffffffffff163373ffffffffffffffffffffffffffffffffffffffff167fc3d58168c5ae7397731d063d5bbf3d657854427343f4c083240f7aacaa2d0f6286866040516114b59291906142a8565b60405180910390a450505050565b6114f47f65d7a28e3265b37a6474929f336521b332c1681b933f6cb9f3376673440d862a6114ef61269d565b611595565b611533576040517f08c379a000000000000000000000000000000000000000000000000000000000815260040161152a906141ba565b60405180910390fd5b61153b612747565b565b60008060009054906101000a900473ffffffffffffffffffffffffffffffffffffffff16905090565b600061158d82600e60008681526020019081526020016000206127ea90919063ffffffff16565b905092915050565b6000600d600084815260200190815260200160002060000160008373ffffffffffffffffffffffffffffffffffffffff1673ffffffffffffffffffffffffffffffffffffffff16815260200190815260200160002060009054906101000a900460ff16905092915050565b600b602052816000526040600020602052806000526040600020600091509150505481565b6000801b81565b80600c60003373ffffffffffffffffffffffffffffffffffffffff1673ffffffffffffffffffffffffffffffffffffffff16815260200190815260200160002060008473ffffffffffffffffffffffffffffffffffffffff1673ffffffffffffffffffffffffffffffffffffffff16815260200190815260200160002060006101000a81548160ff0219169083151502179055508173ffffffffffffffffffffffffffffffffffffffff163373ffffffffffffffffffffffffffffffffffffffff167f17307eab39ab6107e8899845ad3d59bd9653f200f220920489ca2b5937696c318360405161171d9190614082565b60405180910390a35050565b600060646001548361173b919061446b565b611745919061443a565b9050919050565b600a602052816000526040600020602052806000526040600020600091509150505481565b826008600082815260200190815260200160002060009054906101000a900473ffffffffffffffffffffffffffffffffffffffff1673ffffffffffffffffffffffffffffffffffffffff163373ffffffffffffffffffffffffffffffffffffffff16146117dd57600080fd5b8282600786815481106117f3576117f261476f565b5b90600052602060002090600702016001019190611811929190613060565b5050505050565b61182061269d565b73ffffffffffffffffffffffffffffffffffffffff1661183e61153d565b73ffffffffffffffffffffffffffffffffffffffff1614611894576040517f08c379a000000000000000000000000000000000000000000000000000000000815260040161188b9061417a565b60405180910390fd5b8060048190555050565b60006118bb600e6000848152602001908152602001600020612804565b9050919050565b600781815481106118d257600080fd5b90600052602060002090600702016000915090508060000160009054906101000a900473ffffffffffffffffffffffffffffffffffffffff169080600101805461191b90614607565b80601f016020809104026020016040519081016040528092919081815260200182805461194790614607565b80156119945780601f1061196957610100808354040283529160200191611994565b820191906000526020600020905b81548152906001019060200180831161197757829003601f168201915b5050505050908060020180546119a990614607565b80601f01602080910402602001604051908101604052809291908181526020018280546119d590614607565b8015611a225780601f106119f757610100808354040283529160200191611a22565b820191906000526020600020905b815481529060010190602001808311611a0557829003601f168201915b505050505090806003018054611a3790614607565b80601f0160208091040260200160405190810160405280929190818152602001828054611a6390614607565b8015611ab05780601f10611a8557610100808354040283529160200191611ab0565b820191906000526020600020905b815481529060010190602001808311611a9357829003601f168201915b5050505050908060040160009054906101000a900460ff16908060050154908060060154905087565b7f9f2df0fed2c77648de5860a4cc508cd0818c85b8b8a1ab4ceeef8d981c8956a681565b611b078282612819565b611b2c81600e600085815260200190815260200160002061266d90919063ffffffff16565b505050565b60076040518060e001604052808673ffffffffffffffffffffffffffffffffffffffff168152602001858152602001848152602001838152602001600015158152602001600081526020016000815250908060018154018082558091505060019003906000526020600020906007020160009091909190915060008201518160000160006101000a81548173ffffffffffffffffffffffffffffffffffffffff021916908373ffffffffffffffffffffffffffffffffffffffff1602179055506020820151816001019080519060200190611c0d9291906130e6565b506040820151816002019080519060200190611c2a9291906130e6565b506060820151816003019080519060200190611c479291906130e6565b5060808201518160040160006101000a81548160ff02191690831515021790555060a0820151816005015560c08201518160060155505060006001600780549050611c9291906144c5565b9050846008600083815260200190815260200160002060006101000a81548173ffffffffffffffffffffffffffffffffffffffff021916908373ffffffffffffffffffffffffffffffffffffffff160217905550600060096000838152602001908152602001600020819055507f3ef624c0f3fb7ad40b94c02078ea3e3a797dbfc21e921ee4bd2b8ad0ca6aa11381868686866000806000604051611d3e989796959493929190614215565b60405180910390a15050505050565b611d5561269d565b73ffffffffffffffffffffffffffffffffffffffff16611d7361153d565b73ffffffffffffffffffffffffffffffffffffffff1614611dc9576040517f08c379a0000000000000000000000000000000000000000000000000000000008152600401611dc09061417a565b60405180910390fd5b8060018190555050565b826008600082815260200190815260200160002060009054906101000a900473ffffffffffffffffffffffffffffffffffffffff1673ffffffffffffffffffffffffffffffffffffffff163373ffffffffffffffffffffffffffffffffffffffff1614611e3f57600080fd5b828260078681548110611e5557611e5461476f565b5b90600052602060002090600702016003019190611e73929190613060565b5050505050565b7f65d7a28e3265b37a6474929f336521b332c1681b933f6cb9f3376673440d862a81565b6000600c60008473ffffffffffffffffffffffffffffffffffffffff1673ffffffffffffffffffffffffffffffffffffffff16815260200190815260200160002060008373ffffffffffffffffffffffffffffffffffffffff1673ffffffffffffffffffffffffffffffffffffffff16815260200190815260200160002060009054906101000a900460ff16905092915050565b611f3a61269d565b73ffffffffffffffffffffffffffffffffffffffff16611f5861153d565b73ffffffffffffffffffffffffffffffffffffffff1614611fae576040517f08c379a0000000000000000000000000000000000000000000000000000000008152600401611fa59061417a565b60405180910390fd5b8073ffffffffffffffffffffffffffffffffffffffff166108fc6003549081150290604051600060405180830381858888f19350505050158015611ff6573d6000803e3d6000fd5b50600060038190555050565b61200d858484612311565b612018848484611097565b8373ffffffffffffffffffffffffffffffffffffffff168573ffffffffffffffffffffffffffffffffffffffff163373ffffffffffffffffffffffffffffffffffffffff167fc3d58168c5ae7397731d063d5bbf3d657854427343f4c083240f7aacaa2d0f62868660405161208e9291906142a8565b60405180910390a45050505050565b6120a561269d565b73ffffffffffffffffffffffffffffffffffffffff166120c361153d565b73ffffffffffffffffffffffffffffffffffffffff1614612119576040517f08c379a00000000000000000000000000000000000000000000000000000000081526004016121109061417a565b60405180910390fd5b600073ffffffffffffffffffffffffffffffffffffffff168173ffffffffffffffffffffffffffffffffffffffff161415612189576040517f08c379a00000000000000000000000000000000000000000000000000000000081526004016121809061413a565b60405180910390fd5b8073ffffffffffffffffffffffffffffffffffffffff1660008054906101000a900473ffffffffffffffffffffffffffffffffffffffff1673ffffffffffffffffffffffffffffffffffffffff167f8be0079c531659141344cd1fd0a4f28419497f9722a3daafe3b4186f6b6457e060405160405180910390a3806000806101000a81548173ffffffffffffffffffffffffffffffffffffffff021916908373ffffffffffffffffffffffffffffffffffffffff16021790555050565b612251838383612311565b80600783815481106122665761226561476f565b5b9060005260206000209060070201600501600082825461228691906144c5565b92505081905550600073ffffffffffffffffffffffffffffffffffffffff168373ffffffffffffffffffffffffffffffffffffffff163373ffffffffffffffffffffffffffffffffffffffff167fc3d58168c5ae7397731d063d5bbf3d657854427343f4c083240f7aacaa2d0f6285856040516123049291906142a8565b60405180910390a4505050565b80600a600084815260200190815260200160002060008573ffffffffffffffffffffffffffffffffffffffff1673ffffffffffffffffffffffffffffffffffffffff168152602001908152602001600020600082825461237191906144c5565b9250508190555080600b60008573ffffffffffffffffffffffffffffffffffffffff1673ffffffffffffffffffffffffffffffffffffffff168152602001908152602001600020600084815260200190815260200160002060008282546123d891906144c5565b92505081905550505050565b6123ec61269d565b73ffffffffffffffffffffffffffffffffffffffff1661240a61153d565b73ffffffffffffffffffffffffffffffffffffffff1614612460576040517f08c379a00000000000000000000000000000000000000000000000000000000081526004016124579061417a565b60405180910390fd5b80600783815481106124755761247461476f565b5b906000526020600020906007020160040160006101000a81548160ff0219169083151502179055505050565b6124ab8282612842565b5050565b60006124d7836000018373ffffffffffffffffffffffffffffffffffffffff1660001b612923565b905092915050565b60007fd9b67a26000000000000000000000000000000000000000000000000000000007bffffffffffffffffffffffffffffffffffffffffffffffffffffffff1916827bffffffffffffffffffffffffffffffffffffffffffffffffffffffff191614806125aa57507f0e89341c000000000000000000000000000000000000000000000000000000007bffffffffffffffffffffffffffffffffffffffffffffffffffffffff1916827bffffffffffffffffffffffffffffffffffffffffffffffffffffffff1916145b806125ba57506125b982612993565b5b9050919050565b6125ca82610c65565b6125db816125d661269d565b612a0d565b6125e58383612842565b505050565b6125f261269d565b73ffffffffffffffffffffffffffffffffffffffff168173ffffffffffffffffffffffffffffffffffffffff161461265f576040517f08c379a0000000000000000000000000000000000000000000000000000000008152600401612656906141da565b60405180910390fd5b6126698282612aaa565b5050565b6000612695836000018373ffffffffffffffffffffffffffffffffffffffff1660001b612b8c565b905092915050565b600033905090565b6126ad611080565b6126ec576040517f08c379a00000000000000000000000000000000000000000000000000000000081526004016126e39061411a565b60405180910390fd5b6000601260006101000a81548160ff0219169083151502179055507f5db9ee0a495bf2e6ff9c91a7834c1ba4fdd244a5e8aa4e537bd38aeae4b073aa61273061269d565b60405161273d9190613f8a565b60405180910390a1565b61274f611080565b1561278f576040517f08c379a00000000000000000000000000000000000000000000000000000000081526004016127869061415a565b60405180910390fd5b6001601260006101000a81548160ff0219169083151502179055507f62e78cea01bee320cd4e420270b5ea74000d11b0c9f74754ebdbfc544b05a2586127d361269d565b6040516127e09190613f8a565b60405180910390a1565b60006127f98360000183612c98565b60001c905092915050565b600061281282600001612d0c565b9050919050565b61282282610c65565b6128338161282e61269d565b612a0d565b61283d8383612aaa565b505050565b61284c8282611595565b61291f576001600d600084815260200190815260200160002060000160008373ffffffffffffffffffffffffffffffffffffffff1673ffffffffffffffffffffffffffffffffffffffff16815260200190815260200160002060006101000a81548160ff0219169083151502179055506128c461269d565b73ffffffffffffffffffffffffffffffffffffffff168173ffffffffffffffffffffffffffffffffffffffff16837f2f8788117e7eff1d82e926ec794901d17c78024a50270940304540a733656f0d60405160405180910390a45b5050565b600061292f8383612d1d565b61298857826000018290806001815401808255809150506001900390600052602060002001600090919091909150558260000180549050836001016000848152602001908152602001600020819055506001905061298d565b600090505b92915050565b60007f5a05180f000000000000000000000000000000000000000000000000000000007bffffffffffffffffffffffffffffffffffffffffffffffffffffffff1916827bffffffffffffffffffffffffffffffffffffffffffffffffffffffff19161480612a065750612a0582612d40565b5b9050919050565b612a178282611595565b612aa657612a3c8173ffffffffffffffffffffffffffffffffffffffff166014612dba565b612a4a8360001c6020612dba565b604051602001612a5b929190613f50565b6040516020818303038152906040526040517f08c379a0000000000000000000000000000000000000000000000000000000008152600401612a9d91906140b8565b60405180910390fd5b5050565b612ab48282611595565b15612b88576000600d600084815260200190815260200160002060000160008373ffffffffffffffffffffffffffffffffffffffff1673ffffffffffffffffffffffffffffffffffffffff16815260200190815260200160002060006101000a81548160ff021916908315150217905550612b2d61269d565b73ffffffffffffffffffffffffffffffffffffffff168173ffffffffffffffffffffffffffffffffffffffff16837ff6391f5c32d9c69d2a47ea670b442974b53935d1edc7fd64eb21e047a839171b60405160405180910390a45b5050565b60008083600101600084815260200190815260200160002054905060008114612c8c576000600182612bbe91906144c5565b9050600060018660000180549050612bd691906144c5565b90506000866000018281548110612bf057612bef61476f565b5b9060005260206000200154905080876000018481548110612c1457612c1361476f565b5b9060005260206000200181905550838760010160008381526020019081526020016000208190555086600001805480612c5057612c4f614740565b5b60019003818190600052602060002001600090559055866001016000878152602001908152602001600020600090556001945050505050612c92565b60009150505b92915050565b600081836000018054905011612ce3576040517f08c379a0000000000000000000000000000000000000000000000000000000008152600401612cda906140da565b60405180910390fd5b826000018281548110612cf957612cf861476f565b5b9060005260206000200154905092915050565b600081600001805490509050919050565b600080836001016000848152602001908152602001600020541415905092915050565b60007f7965db0b000000000000000000000000000000000000000000000000000000007bffffffffffffffffffffffffffffffffffffffffffffffffffffffff1916827bffffffffffffffffffffffffffffffffffffffffffffffffffffffff19161480612db35750612db282612ff6565b5b9050919050565b606060006002836002612dcd919061446b565b612dd791906143e4565b67ffffffffffffffff811115612df057612def61479e565b5b6040519080825280601f01601f191660200182016040528015612e225781602001600182028036833780820191505090505b5090507f300000000000000000000000000000000000000000000000000000000000000081600081518110612e5a57612e5961476f565b5b60200101907effffffffffffffffffffffffffffffffffffffffffffffffffffffffffffff1916908160001a9053507f780000000000000000000000000000000000000000000000000000000000000081600181518110612ebe57612ebd61476f565b5b60200101907effffffffffffffffffffffffffffffffffffffffffffffffffffffffffffff1916908160001a90535060006001846002612efe919061446b565b612f0891906143e4565b90505b6001811115612fa8577f3031323334353637383961626364656600000000000000000000000000000000600f861660108110612f4a57612f4961476f565b5b1a60f81b828281518110612f6157612f6061476f565b5b60200101907effffffffffffffffffffffffffffffffffffffffffffffffffffffffffffff1916908160001a905350600485901c945080612fa1906145dd565b9050612f0b565b5060008414612fec576040517f08c379a0000000000000000000000000000000000000000000000000000000008152600401612fe3906140fa565b60405180910390fd5b8091505092915050565b60007f01ffc9a7000000000000000000000000000000000000000000000000000000007bffffffffffffffffffffffffffffffffffffffffffffffffffffffff1916827bffffffffffffffffffffffffffffffffffffffffffffffffffffffff1916149050919050565b82805461306c90614607565b90600052602060002090601f01602090048101928261308e57600085556130d5565b82601f106130a757803560ff19168380011785556130d5565b828001600101855582156130d5579182015b828111156130d45782358255916020019190600101906130b9565b5b5090506130e2919061316c565b5090565b8280546130f290614607565b90600052602060002090601f016020900481019282613114576000855561315b565b82601f1061312d57805160ff191683800117855561315b565b8280016001018555821561315b579182015b8281111561315a57825182559160200191906001019061313f565b5b509050613168919061316c565b5090565b5b8082111561318557600081600090555060010161316d565b5090565b600061319c613197846142f6565b6142d1565b905080838252602082019050828560208602820111156131bf576131be6147d7565b5b60005b858110156131ef57816131d58882613472565b8452602084019350602083019250506001810190506131c2565b5050509392505050565b600061320c61320784614322565b6142d1565b905082815260208101848484011115613228576132276147dc565b5b61323384828561459b565b509392505050565b600061324e61324984614353565b6142d1565b90508281526020810184848401111561326a576132696147dc565b5b61327584828561459b565b509392505050565b60008135905061328c81614a7d565b92915050565b6000813590506132a181614a94565b92915050565b60008083601f8401126132bd576132bc6147d2565b5b8235905067ffffffffffffffff8111156132da576132d96147cd565b5b6020830191508360208202830111156132f6576132f56147d7565b5b9250929050565b60008083601f840112613313576133126147d2565b5b8235905067ffffffffffffffff8111156133305761332f6147cd565b5b60208301915083602082028301111561334c5761334b6147d7565b5b9250929050565b600082601f830112613368576133676147d2565b5b8135613378848260208601613189565b91505092915050565b60008135905061339081614aab565b92915050565b6000813590506133a581614ac2565b92915050565b6000813590506133ba81614ad9565b92915050565b600082601f8301126133d5576133d46147d2565b5b81356133e58482602086016131f9565b91505092915050565b60008083601f840112613404576134036147d2565b5b8235905067ffffffffffffffff811115613421576134206147cd565b5b60208301915083600182028301111561343d5761343c6147d7565b5b9250929050565b600082601f830112613459576134586147d2565b5b813561346984826020860161323b565b91505092915050565b60008135905061348181614af0565b92915050565b60006020828403121561349d5761349c6147e6565b5b60006134ab8482850161327d565b91505092915050565b6000602082840312156134ca576134c96147e6565b5b60006134d884828501613292565b91505092915050565b600080600080608085870312156134fb576134fa6147e6565b5b600061350987828801613292565b945050602085013567ffffffffffffffff81111561352a576135296147e1565b5b61353687828801613444565b935050604085013567ffffffffffffffff811115613557576135566147e1565b5b61356387828801613444565b925050606085013567ffffffffffffffff811115613584576135836147e1565b5b61359087828801613444565b91505092959194509250565b600080604083850312156135b3576135b26147e6565b5b60006135c18582860161327d565b92505060206135d28582860161327d565b9150509250929050565b600080600080600060a086880312156135f8576135f76147e6565b5b60006136068882890161327d565b95505060206136178882890161327d565b945050604086013567ffffffffffffffff811115613638576136376147e1565b5b61364488828901613353565b935050606086013567ffffffffffffffff811115613665576136646147e1565b5b61367188828901613353565b925050608086013567ffffffffffffffff811115613692576136916147e1565b5b61369e888289016133c0565b9150509295509295909350565b600080600080600060a086880312156136c7576136c66147e6565b5b60006136d58882890161327d565b95505060206136e68882890161327d565b94505060406136f788828901613472565b935050606061370888828901613472565b925050608086013567ffffffffffffffff811115613729576137286147e1565b5b613735888289016133c0565b9150509295509295909350565b60008060006060848603121561375b5761375a6147e6565b5b60006137698682870161327d565b935050602084013567ffffffffffffffff81111561378a576137896147e1565b5b61379686828701613353565b925050604084013567ffffffffffffffff8111156137b7576137b66147e1565b5b6137c386828701613353565b9150509250925092565b600080600080608085870312156137e7576137e66147e6565b5b60006137f58782880161327d565b945050602085013567ffffffffffffffff811115613816576138156147e1565b5b61382287828801613353565b935050604085013567ffffffffffffffff811115613843576138426147e1565b5b61384f87828801613353565b925050606085013567ffffffffffffffff8111156138705761386f6147e1565b5b61387c878288016133c0565b91505092959194509250565b6000806040838503121561389f5761389e6147e6565b5b60006138ad8582860161327d565b92505060206138be85828601613381565b9150509250929050565b600080604083850312156138df576138de6147e6565b5b60006138ed8582860161327d565b92505060206138fe85828601613472565b9150509250929050565b600080600060608486031215613921576139206147e6565b5b600061392f8682870161327d565b935050602061394086828701613472565b925050604061395186828701613472565b9150509250925092565b60008060008060808587031215613975576139746147e6565b5b60006139838782880161327d565b945050602061399487828801613472565b93505060406139a587828801613472565b925050606085013567ffffffffffffffff8111156139c6576139c56147e1565b5b6139d2878288016133c0565b91505092959194509250565b600080600080604085870312156139f8576139f76147e6565b5b600085013567ffffffffffffffff811115613a1657613a156147e1565b5b613a22878288016132a7565b9450945050602085013567ffffffffffffffff811115613a4557613a446147e1565b5b613a51878288016132fd565b925092505092959194509250565b600060208284031215613a7557613a746147e6565b5b6000613a8384828501613396565b91505092915050565b60008060408385031215613aa357613aa26147e6565b5b6000613ab185828601613396565b9250506020613ac28582860161327d565b9150509250929050565b60008060408385031215613ae357613ae26147e6565b5b6000613af185828601613396565b9250506020613b0285828601613472565b9150509250929050565b600060208284031215613b2257613b216147e6565b5b6000613b30848285016133ab565b91505092915050565b600060208284031215613b4f57613b4e6147e6565b5b6000613b5d84828501613472565b91505092915050565b60008060408385031215613b7d57613b7c6147e6565b5b6000613b8b85828601613472565b9250506020613b9c8582860161327d565b9150509250929050565b60008060408385031215613bbd57613bbc6147e6565b5b6000613bcb85828601613472565b9250506020613bdc85828601613292565b9150509250929050565b60008060408385031215613bfd57613bfc6147e6565b5b6000613c0b85828601613472565b9250506020613c1c85828601613381565b9150509250929050565b600080600060408486031215613c3f57613c3e6147e6565b5b6000613c4d86828701613472565b935050602084013567ffffffffffffffff811115613c6e57613c6d6147e1565b5b613c7a868287016133ee565b92509250509250925092565b6000613c928383613f32565b60208301905092915050565b613ca78161450b565b82525050565b613cb6816144f9565b82525050565b6000613cc782614394565b613cd181856143b7565b9350613cdc83614384565b8060005b83811015613d0d578151613cf48882613c86565b9750613cff836143aa565b925050600181019050613ce0565b5085935050505092915050565b613d238161451d565b82525050565b613d3281614529565b82525050565b613d4181614589565b82525050565b6000613d528261439f565b613d5c81856143c8565b9350613d6c8185602086016145aa565b613d75816147eb565b840191505092915050565b6000613d8b8261439f565b613d9581856143d9565b9350613da58185602086016145aa565b80840191505092915050565b6000613dbe6022836143c8565b9150613dc9826147fc565b604082019050919050565b6000613de16020836143c8565b9150613dec8261484b565b602082019050919050565b6000613e046014836143c8565b9150613e0f82614874565b602082019050919050565b6000613e276026836143c8565b9150613e328261489d565b604082019050919050565b6000613e4a6010836143c8565b9150613e55826148ec565b602082019050919050565b6000613e6d6020836143c8565b9150613e7882614915565b602082019050919050565b6000613e90603b836143c8565b9150613e9b8261493e565b604082019050919050565b6000613eb36039836143c8565b9150613ebe8261498d565b604082019050919050565b6000613ed66017836143d9565b9150613ee1826149dc565b601782019050919050565b6000613ef96011836143d9565b9150613f0482614a05565b601182019050919050565b6000613f1c602f836143c8565b9150613f2782614a2e565b604082019050919050565b613f3b8161457f565b82525050565b613f4a8161457f565b82525050565b6000613f5b82613ec9565b9150613f678285613d80565b9150613f7282613eec565b9150613f7e8284613d80565b91508190509392505050565b6000602082019050613f9f6000830184613cad565b92915050565b600060e082019050613fba600083018a613c9e565b8181036020830152613fcc8189613d47565b90508181036040830152613fe08188613d47565b90508181036060830152613ff48187613d47565b90506140036080830186613d1a565b61401060a0830185613f41565b61401d60c0830184613f41565b98975050505050505050565b600060208201905081810360008301526140438184613cbc565b905092915050565b600060408201905081810360008301526140658185613cbc565b905081810360208301526140798184613cbc565b90509392505050565b60006020820190506140976000830184613d1a565b92915050565b60006020820190506140b26000830184613d29565b92915050565b600060208201905081810360008301526140d28184613d47565b905092915050565b600060208201905081810360008301526140f381613db1565b9050919050565b6000602082019050818103600083015261411381613dd4565b9050919050565b6000602082019050818103600083015261413381613df7565b9050919050565b6000602082019050818103600083015261415381613e1a565b9050919050565b6000602082019050818103600083015261417381613e3d565b9050919050565b6000602082019050818103600083015261419381613e60565b9050919050565b600060208201905081810360008301526141b381613e83565b9050919050565b600060208201905081810360008301526141d381613ea6565b9050919050565b600060208201905081810360008301526141f381613f0f565b9050919050565b600060208201905061420f6000830184613f41565b92915050565b60006101008201905061422b600083018b613f41565b614238602083018a613c9e565b818103604083015261424a8189613d47565b9050818103606083015261425e8188613d47565b905081810360808301526142728187613d47565b905061428160a0830186613d1a565b61428e60c0830185613d38565b61429b60e0830184613d38565b9998505050505050505050565b60006040820190506142bd6000830185613f41565b6142ca6020830184613f41565b9392505050565b60006142db6142ec565b90506142e78282614639565b919050565b6000604051905090565b600067ffffffffffffffff8211156143115761431061479e565b5b602082029050602081019050919050565b600067ffffffffffffffff82111561433d5761433c61479e565b5b614346826147eb565b9050602081019050919050565b600067ffffffffffffffff82111561436e5761436d61479e565b5b614377826147eb565b9050602081019050919050565b6000819050602082019050919050565b600081519050919050565b600081519050919050565b6000602082019050919050565b600082825260208201905092915050565b600082825260208201905092915050565b600081905092915050565b60006143ef8261457f565b91506143fa8361457f565b9250827fffffffffffffffffffffffffffffffffffffffffffffffffffffffffffffffff0382111561442f5761442e6146b3565b5b828201905092915050565b60006144458261457f565b91506144508361457f565b9250826144605761445f6146e2565b5b828204905092915050565b60006144768261457f565b91506144818361457f565b9250817fffffffffffffffffffffffffffffffffffffffffffffffffffffffffffffffff04831182151516156144ba576144b96146b3565b5b828202905092915050565b60006144d08261457f565b91506144db8361457f565b9250828210156144ee576144ed6146b3565b5b828203905092915050565b60006145048261455f565b9050919050565b60006145168261455f565b9050919050565b60008115159050919050565b6000819050919050565b60007fffffffff0000000000000000000000000000000000000000000000000000000082169050919050565b600073ffffffffffffffffffffffffffffffffffffffff82169050919050565b6000819050919050565b60006145948261457f565b9050919050565b82818337600083830152505050565b60005b838110156145c85780820151818401526020810190506145ad565b838111156145d7576000848401525b50505050565b60006145e88261457f565b915060008214156145fc576145fb6146b3565b5b600182039050919050565b6000600282049050600182168061461f57607f821691505b6020821081141561463357614632614711565b5b50919050565b614642826147eb565b810181811067ffffffffffffffff821117156146615761466061479e565b5b80604052505050565b60006146758261457f565b91507fffffffffffffffffffffffffffffffffffffffffffffffffffffffffffffffff8214156146a8576146a76146b3565b5b600182019050919050565b7f4e487b7100000000000000000000000000000000000000000000000000000000600052601160045260246000fd5b7f4e487b7100000000000000000000000000000000000000000000000000000000600052601260045260246000fd5b7f4e487b7100000000000000000000000000000000000000000000000000000000600052602260045260246000fd5b7f4e487b7100000000000000000000000000000000000000000000000000000000600052603160045260246000fd5b7f4e487b7100000000000000000000000000000000000000000000000000000000600052603260045260246000fd5b7f4e487b7100000000000000000000000000000000000000000000000000000000600052604160045260246000fd5b600080fd5b600080fd5b600080fd5b600080fd5b600080fd5b600080fd5b6000601f19601f8301169050919050565b7f456e756d657261626c655365743a20696e646578206f7574206f6620626f756e60008201527f6473000000000000000000000000000000000000000000000000000000000000602082015250565b7f537472696e67733a20686578206c656e67746820696e73756666696369656e74600082015250565b7f5061757361626c653a206e6f7420706175736564000000000000000000000000600082015250565b7f4f776e61626c653a206e6577206f776e657220697320746865207a65726f206160008201527f6464726573730000000000000000000000000000000000000000000000000000602082015250565b7f5061757361626c653a2070617573656400000000000000000000000000000000600082015250565b7f4f776e61626c653a2063616c6c6572206973206e6f7420746865206f776e6572600082015250565b7f455243313135355072657365744d696e7465725061757365723a206d7573742060008201527f686176652070617573657220726f6c6520746f20756e70617573650000000000602082015250565b7f455243313135355072657365744d696e7465725061757365723a206d7573742060008201527f686176652070617573657220726f6c6520746f20706175736500000000000000602082015250565b7f416363657373436f6e74726f6c3a206163636f756e7420000000000000000000600082015250565b7f206973206d697373696e6720726f6c6520000000000000000000000000000000600082015250565b7f416363657373436f6e74726f6c3a2063616e206f6e6c792072656e6f756e636560008201527f20726f6c657320666f722073656c660000000000000000000000000000000000602082015250565b614a86816144f9565b8114614a9157600080fd5b50565b614a9d8161450b565b8114614aa857600080fd5b50565b614ab48161451d565b8114614abf57600080fd5b50565b614acb81614529565b8114614ad657600080fd5b50565b614ae281614533565b8114614aed57600080fd5b50565b614af98161457f565b8114614b0457600080fd5b5056fea2646970667358221220ec0ac7c5cda7d09e1275cdacf0a3bb927255733b73f1a5a39652fe82a9d8a03064736f6c63430008060033",
  "immutableReferences": {},
  "source": "// SPDX-License-Identifier: MIT\npragma solidity ^0.8.0;\n\nimport \"./creatortokenformulas.sol\";\n\ncontract CreatorTokenFees is CreatorTokenFormulas {\n\n\tconstructor(string memory uri) CreatorTokenFormulas(uri) { }\n\n\t// Calculate fee associated with buy transaction\n\tfunction _feeProceeds(uint _proceedsRequired) public view returns (uint256) {\n\t\treturn _proceedsRequired*platformFee/100;\n\t}\n\n\t// Update platform fees tracker\n\tfunction _platformFeeUpdater(uint _fee) internal {\n\t\ttotalPlatformFees += _fee;\n\t\tplatformFeesOwed += _fee;\n\t}\n\n\t// Transfer excess liquidity (triggered only when a CreatorToken hits a new maxSupply)\n\tfunction _payCreator(uint _tokenId, address payable _creatorAddress) internal {\n\t\t// Create a variable showing excess liquidity that has already been transferred out of this token's liquidity pool\n\t\tuint alreadyTransferred = tokenValueTransferred[_tokenId];\n\t\t// Initialize totalProfit\n\t\tuint totalProfit = 0;\n\t\t// Calculate totalProfit (area between b(x) and s(x) from 0 to maxSupply)\n\t\ttotalProfit = _buyFunction(0, creatorTokens[_tokenId].maxSupply, mNumerator, mDenominator) - _saleFunction(creatorTokens[_tokenId].maxSupply, creatorTokens[_tokenId].maxSupply, mNumerator, mDenominator, creatorTokens[_tokenId].maxSupply, profitMargin);\n\t\t// Calculate creator's new profit created from new excess liquidity created\n\t\tuint newProfit = totalProfit - alreadyTransferred; //400000000000000000; // \n\t\t// Transfer newProfit wei to creator\n\t\t_creatorAddress.transfer(newProfit);\n\t\t// Update amount of value transferred to creator\n\t\ttokenValueTransferred[_tokenId] = totalProfit;\n\t}\n}",
  "sourcePath": "/Users/kamilalizaisadik/DeFi/Dynamic Automated Market Maker/damm_solidity/contracts/creatortokenfees.sol",
  "compiler": {
    "name": "solc",
    "version": "0.8.6+commit.11564f7e.Emscripten.clang"
  },
  "schemaVersion": "3.4.1",
  "updatedAt": "2021-07-07T22:54:50.941Z",
  "devdoc": {
    "kind": "dev",
    "methods": {
      "getRoleAdmin(bytes32)": {
        "details": "Returns the admin role that controls `role`. See {grantRole} and {revokeRole}. To change a role's admin, use {_setRoleAdmin}."
      },
      "getRoleMember(bytes32,uint256)": {
        "details": "Returns one of the accounts that have `role`. `index` must be a value between 0 and {getRoleMemberCount}, non-inclusive. Role bearers are not sorted in any particular way, and their ordering may change at any point. WARNING: When using {getRoleMember} and {getRoleMemberCount}, make sure you perform all queries on the same block. See the following https://forum.openzeppelin.com/t/iterating-over-elements-on-enumerableset-in-openzeppelin-contracts/2296[forum post] for more information."
      },
      "getRoleMemberCount(bytes32)": {
        "details": "Returns the number of accounts that have `role`. Can be used together with {getRoleMember} to enumerate all bearers of a role."
      },
      "grantRole(bytes32,address)": {
        "details": "Overload {grantRole} to track enumerable memberships"
      },
      "hasRole(bytes32,address)": {
        "details": "Returns `true` if `account` has been granted `role`."
      },
      "owner()": {
        "details": "Returns the address of the current owner."
      },
      "pause()": {
        "details": "Pauses all token transfers. See {ERC1155Pausable} and {Pausable-_pause}. Requirements: - the caller must have the `PAUSER_ROLE`."
      },
      "paused()": {
        "details": "Returns true if the contract is paused, and false otherwise."
      },
      "renounceOwnership()": {
        "details": "Leaves the contract without owner. It will not be possible to call `onlyOwner` functions anymore. Can only be called by the current owner. NOTE: Renouncing ownership will leave the contract without an owner, thereby removing any functionality that is only available to the owner."
      },
      "renounceRole(bytes32,address)": {
        "details": "Overload {renounceRole} to track enumerable memberships"
      },
      "revokeRole(bytes32,address)": {
        "details": "Overload {revokeRole} to track enumerable memberships"
      },
      "supportsInterface(bytes4)": {
        "details": "See {IERC165-supportsInterface}."
      },
      "transferOwnership(address)": {
        "details": "Transfers ownership of the contract to a new account (`newOwner`). Can only be called by the current owner."
      },
      "unpause()": {
        "details": "Unpauses all token transfers. See {ERC1155Pausable} and {Pausable-_unpause}. Requirements: - the caller must have the `PAUSER_ROLE`."
      },
      "uri(uint256)": {
        "details": "See {IERC1155MetadataURI-uri}. This implementation returns the same URI for *all* token types. It relies on the token type ID substitution mechanism https://eips.ethereum.org/EIPS/eip-1155#metadata[defined in the EIP]. Clients calling this function must replace the `\\{id\\}` substring with the actual token type ID."
      }
    },
    "version": 1
  },
  "userdoc": {
    "kind": "user",
    "methods": {},
    "version": 1
  }
}