{
  "contractName": "CreatorTokenComputation",
  "abi": [
    {
      "inputs": [
        {
          "internalType": "string",
          "name": "uri",
          "type": "string"
        }
      ],
      "stateMutability": "nonpayable",
      "type": "constructor"
    },
    {
      "anonymous": false,
      "inputs": [
        {
          "indexed": true,
          "internalType": "address",
          "name": "account",
          "type": "address"
        },
        {
          "indexed": true,
          "internalType": "address",
          "name": "operator",
          "type": "address"
        },
        {
          "indexed": false,
          "internalType": "bool",
          "name": "approved",
          "type": "bool"
        }
      ],
      "name": "ApprovalForAll",
      "type": "event"
    },
    {
      "anonymous": false,
      "inputs": [
        {
          "indexed": false,
          "internalType": "uint256",
          "name": "tokenId",
          "type": "uint256"
        },
        {
          "indexed": false,
          "internalType": "address payable",
          "name": "creatorAddress",
          "type": "address"
        },
        {
          "indexed": false,
          "internalType": "string",
          "name": "name",
          "type": "string"
        },
        {
          "indexed": false,
          "internalType": "string",
          "name": "symbol",
          "type": "string"
        },
        {
          "indexed": false,
          "internalType": "string",
          "name": "description",
          "type": "string"
        },
        {
          "indexed": false,
          "internalType": "bool",
          "name": "verified",
          "type": "bool"
        },
        {
          "indexed": false,
          "internalType": "uint256",
          "name": "outstanding",
          "type": "uint256"
        },
        {
          "indexed": false,
          "internalType": "uint256",
          "name": "maxSupply",
          "type": "uint256"
        }
      ],
      "name": "NewCreatorToken",
      "type": "event"
    },
    {
      "anonymous": false,
      "inputs": [
        {
          "indexed": true,
          "internalType": "address",
          "name": "previousOwner",
          "type": "address"
        },
        {
          "indexed": true,
          "internalType": "address",
          "name": "newOwner",
          "type": "address"
        }
      ],
      "name": "OwnershipTransferred",
      "type": "event"
    },
    {
      "anonymous": false,
      "inputs": [
        {
          "indexed": true,
          "internalType": "address",
          "name": "operator",
          "type": "address"
        },
        {
          "indexed": true,
          "internalType": "address",
          "name": "from",
          "type": "address"
        },
        {
          "indexed": true,
          "internalType": "address",
          "name": "to",
          "type": "address"
        },
        {
          "indexed": false,
          "internalType": "uint256[]",
          "name": "ids",
          "type": "uint256[]"
        },
        {
          "indexed": false,
          "internalType": "uint256[]",
          "name": "values",
          "type": "uint256[]"
        }
      ],
      "name": "TransferBatch",
      "type": "event"
    },
    {
      "anonymous": false,
      "inputs": [
        {
          "indexed": true,
          "internalType": "address",
          "name": "operator",
          "type": "address"
        },
        {
          "indexed": true,
          "internalType": "address",
          "name": "from",
          "type": "address"
        },
        {
          "indexed": true,
          "internalType": "address",
          "name": "to",
          "type": "address"
        },
        {
          "indexed": false,
          "internalType": "uint256",
          "name": "id",
          "type": "uint256"
        },
        {
          "indexed": false,
          "internalType": "uint256",
          "name": "value",
          "type": "uint256"
        }
      ],
      "name": "TransferSingle",
      "type": "event"
    },
    {
      "anonymous": false,
      "inputs": [
        {
          "indexed": false,
          "internalType": "string",
          "name": "value",
          "type": "string"
        },
        {
          "indexed": true,
          "internalType": "uint256",
          "name": "id",
          "type": "uint256"
        }
      ],
      "name": "URI",
      "type": "event"
    },
    {
      "inputs": [
        {
          "internalType": "uint256",
          "name": "_proceedsRequired",
          "type": "uint256"
        }
      ],
      "name": "_feeProceeds",
      "outputs": [
        {
          "internalType": "uint256",
          "name": "",
          "type": "uint256"
        }
      ],
      "stateMutability": "view",
      "type": "function"
    },
    {
      "inputs": [
        {
          "internalType": "address",
          "name": "account",
          "type": "address"
        },
        {
          "internalType": "uint256",
          "name": "id",
          "type": "uint256"
        }
      ],
      "name": "balanceOf",
      "outputs": [
        {
          "internalType": "uint256",
          "name": "",
          "type": "uint256"
        }
      ],
      "stateMutability": "view",
      "type": "function"
    },
    {
      "inputs": [
        {
          "internalType": "address[]",
          "name": "accounts",
          "type": "address[]"
        },
        {
          "internalType": "uint256[]",
          "name": "ids",
          "type": "uint256[]"
        }
      ],
      "name": "balanceOfBatch",
      "outputs": [
        {
          "internalType": "uint256[]",
          "name": "",
          "type": "uint256[]"
        }
      ],
      "stateMutability": "view",
      "type": "function"
    },
    {
      "inputs": [
        {
          "internalType": "uint256",
          "name": "_tokenId",
          "type": "uint256"
        },
        {
          "internalType": "address payable",
          "name": "_newCreatorAddress",
          "type": "address"
        }
      ],
      "name": "changeAddress",
      "outputs": [],
      "stateMutability": "nonpayable",
      "type": "function"
    },
    {
      "inputs": [
        {
          "internalType": "uint256",
          "name": "_tokenId",
          "type": "uint256"
        },
        {
          "internalType": "string",
          "name": "_newDescription",
          "type": "string"
        }
      ],
      "name": "changeDescription",
      "outputs": [],
      "stateMutability": "nonpayable",
      "type": "function"
    },
    {
      "inputs": [
        {
          "internalType": "uint256",
          "name": "_tokenId",
          "type": "uint256"
        },
        {
          "internalType": "string",
          "name": "_newName",
          "type": "string"
        }
      ],
      "name": "changeName",
      "outputs": [],
      "stateMutability": "nonpayable",
      "type": "function"
    },
    {
      "inputs": [
        {
          "internalType": "uint256",
          "name": "_newPlatformFee",
          "type": "uint256"
        }
      ],
      "name": "changePlatformFee",
      "outputs": [],
      "stateMutability": "nonpayable",
      "type": "function"
    },
    {
      "inputs": [
        {
          "internalType": "uint256",
          "name": "_newProfitMargin",
          "type": "uint256"
        }
      ],
      "name": "changeProfitMargin",
      "outputs": [],
      "stateMutability": "nonpayable",
      "type": "function"
    },
    {
      "inputs": [
        {
          "internalType": "uint256",
          "name": "_tokenId",
          "type": "uint256"
        },
        {
          "internalType": "string",
          "name": "_newSymbol",
          "type": "string"
        }
      ],
      "name": "changeSymbol",
      "outputs": [],
      "stateMutability": "nonpayable",
      "type": "function"
    },
    {
      "inputs": [
        {
          "internalType": "uint256",
          "name": "_tokenId",
          "type": "uint256"
        },
        {
          "internalType": "bool",
          "name": "_verified",
          "type": "bool"
        }
      ],
      "name": "changeVerification",
      "outputs": [],
      "stateMutability": "nonpayable",
      "type": "function"
    },
    {
      "inputs": [
        {
          "internalType": "address payable",
          "name": "_creatorAddress",
          "type": "address"
        },
        {
          "internalType": "string",
          "name": "_name",
          "type": "string"
        },
        {
          "internalType": "string",
          "name": "_symbol",
          "type": "string"
        },
        {
          "internalType": "string",
          "name": "_description",
          "type": "string"
        }
      ],
      "name": "createCreatorToken",
      "outputs": [],
      "stateMutability": "nonpayable",
      "type": "function"
    },
    {
      "inputs": [
        {
          "internalType": "uint256",
          "name": "",
          "type": "uint256"
        }
      ],
      "name": "creatorTokens",
      "outputs": [
        {
          "internalType": "address payable",
          "name": "creatorAddress",
          "type": "address"
        },
        {
          "internalType": "string",
          "name": "name",
          "type": "string"
        },
        {
          "internalType": "string",
          "name": "symbol",
          "type": "string"
        },
        {
          "internalType": "string",
          "name": "description",
          "type": "string"
        },
        {
          "internalType": "bool",
          "name": "verified",
          "type": "bool"
        },
        {
          "internalType": "uint256",
          "name": "outstanding",
          "type": "uint256"
        },
        {
          "internalType": "uint256",
          "name": "maxSupply",
          "type": "uint256"
        }
      ],
      "stateMutability": "view",
      "type": "function"
    },
    {
      "inputs": [
        {
          "internalType": "address",
          "name": "_account",
          "type": "address"
        },
        {
          "internalType": "address",
          "name": "_operator",
          "type": "address"
        }
      ],
      "name": "isApprovedForAll",
      "outputs": [
        {
          "internalType": "bool",
          "name": "",
          "type": "bool"
        }
      ],
      "stateMutability": "view",
      "type": "function"
    },
    {
      "inputs": [],
      "name": "owner",
      "outputs": [
        {
          "internalType": "address",
          "name": "",
          "type": "address"
        }
      ],
      "stateMutability": "view",
      "type": "function"
    },
    {
      "inputs": [
        {
          "internalType": "address payable",
          "name": "_owner",
          "type": "address"
        }
      ],
      "name": "payoutPlatformFees",
      "outputs": [],
      "stateMutability": "nonpayable",
      "type": "function"
    },
    {
      "inputs": [],
      "name": "platformFeesOwed",
      "outputs": [
        {
          "internalType": "uint256",
          "name": "",
          "type": "uint256"
        }
      ],
      "stateMutability": "view",
      "type": "function"
    },
    {
      "inputs": [],
      "name": "renounceOwnership",
      "outputs": [],
      "stateMutability": "nonpayable",
      "type": "function"
    },
    {
      "inputs": [
        {
          "internalType": "address",
          "name": "_from",
          "type": "address"
        },
        {
          "internalType": "address",
          "name": "_to",
          "type": "address"
        },
        {
          "internalType": "uint256[]",
          "name": "_ids",
          "type": "uint256[]"
        },
        {
          "internalType": "uint256[]",
          "name": "_amounts",
          "type": "uint256[]"
        },
        {
          "internalType": "bytes",
          "name": "_data",
          "type": "bytes"
        }
      ],
      "name": "safeBatchTransferFrom",
      "outputs": [],
      "stateMutability": "nonpayable",
      "type": "function"
    },
    {
      "inputs": [
        {
          "internalType": "address",
          "name": "_from",
          "type": "address"
        },
        {
          "internalType": "address",
          "name": "_to",
          "type": "address"
        },
        {
          "internalType": "uint256",
          "name": "_id",
          "type": "uint256"
        },
        {
          "internalType": "uint256",
          "name": "_amount",
          "type": "uint256"
        },
        {
          "internalType": "bytes",
          "name": "_data",
          "type": "bytes"
        }
      ],
      "name": "safeTransferFrom",
      "outputs": [],
      "stateMutability": "nonpayable",
      "type": "function"
    },
    {
      "inputs": [
        {
          "internalType": "address",
          "name": "_operator",
          "type": "address"
        },
        {
          "internalType": "bool",
          "name": "_approved",
          "type": "bool"
        }
      ],
      "name": "setApprovalForAll",
      "outputs": [],
      "stateMutability": "nonpayable",
      "type": "function"
    },
    {
      "inputs": [
        {
          "internalType": "bytes4",
          "name": "interfaceId",
          "type": "bytes4"
        }
      ],
      "name": "supportsInterface",
      "outputs": [
        {
          "internalType": "bool",
          "name": "",
          "type": "bool"
        }
      ],
      "stateMutability": "view",
      "type": "function"
    },
    {
      "inputs": [
        {
          "internalType": "uint256",
          "name": "",
          "type": "uint256"
        },
        {
          "internalType": "address",
          "name": "",
          "type": "address"
        }
      ],
      "name": "tokenHoldership",
      "outputs": [
        {
          "internalType": "uint256",
          "name": "",
          "type": "uint256"
        }
      ],
      "stateMutability": "view",
      "type": "function"
    },
    {
      "inputs": [
        {
          "internalType": "uint256",
          "name": "",
          "type": "uint256"
        }
      ],
      "name": "tokenToCreator",
      "outputs": [
        {
          "internalType": "address",
          "name": "",
          "type": "address"
        }
      ],
      "stateMutability": "view",
      "type": "function"
    },
    {
      "inputs": [],
      "name": "totalPlatformFees",
      "outputs": [
        {
          "internalType": "uint256",
          "name": "",
          "type": "uint256"
        }
      ],
      "stateMutability": "view",
      "type": "function"
    },
    {
      "inputs": [
        {
          "internalType": "address",
          "name": "newOwner",
          "type": "address"
        }
      ],
      "name": "transferOwnership",
      "outputs": [],
      "stateMutability": "nonpayable",
      "type": "function"
    },
    {
      "inputs": [
        {
          "internalType": "uint256",
          "name": "",
          "type": "uint256"
        }
      ],
      "name": "uri",
      "outputs": [
        {
          "internalType": "string",
          "name": "",
          "type": "string"
        }
      ],
      "stateMutability": "view",
      "type": "function"
    },
    {
      "inputs": [
        {
          "internalType": "address",
          "name": "",
          "type": "address"
        },
        {
          "internalType": "uint256",
          "name": "",
          "type": "uint256"
        }
      ],
      "name": "userToHoldings",
      "outputs": [
        {
          "internalType": "uint256",
          "name": "",
          "type": "uint256"
        }
      ],
      "stateMutability": "view",
      "type": "function"
    },
    {
      "inputs": [
        {
          "internalType": "address payable",
          "name": "_owner",
          "type": "address"
        }
      ],
      "name": "withdraw",
      "outputs": [],
      "stateMutability": "nonpayable",
      "type": "function"
    },
    {
      "inputs": [
        {
          "internalType": "uint256",
          "name": "_tokenId",
          "type": "uint256"
        },
        {
          "internalType": "uint256",
          "name": "_amount",
          "type": "uint256"
        }
      ],
      "name": "_totalProceeds",
      "outputs": [
        {
          "internalType": "uint256",
          "name": "",
          "type": "uint256"
        }
      ],
      "stateMutability": "view",
      "type": "function"
    },
    {
      "inputs": [
        {
          "internalType": "uint256",
          "name": "_tokenId",
          "type": "uint256"
        },
        {
          "internalType": "uint256",
          "name": "_amount",
          "type": "uint256"
        }
      ],
      "name": "_buyProceeds",
      "outputs": [
        {
          "internalType": "uint256",
          "name": "",
          "type": "uint256"
        }
      ],
      "stateMutability": "view",
      "type": "function"
    }
  ],
  "bytecode": "0x60806040526001805560006002556000600355601460045565082f79cd900060055560b96006553480156200003357600080fd5b5060405162003c9a38038062003c9a83398181016040528101906200005991906200027b565b8080808060006200006f6200012960201b60201c565b9050806000806101000a81548173ffffffffffffffffffffffffffffffffffffffff021916908373ffffffffffffffffffffffffffffffffffffffff1602179055508073ffffffffffffffffffffffffffffffffffffffff16600073ffffffffffffffffffffffffffffffffffffffff167f8be0079c531659141344cd1fd0a4f28419497f9722a3daafe3b4186f6b6457e060405160405180910390a3506200011e816200013160201b60201c565b505050505062000450565b600033905090565b80600f9080519060200190620001499291906200014d565b5050565b8280546200015b9062000361565b90600052602060002090601f0160209004810192826200017f5760008555620001cb565b82601f106200019a57805160ff1916838001178555620001cb565b82800160010185558215620001cb579182015b82811115620001ca578251825591602001919060010190620001ad565b5b509050620001da9190620001de565b5090565b5b80821115620001f9576000816000905550600101620001df565b5090565b6000620002146200020e84620002f5565b620002cc565b90508281526020810184848401111562000233576200023262000430565b5b620002408482856200032b565b509392505050565b600082601f83011262000260576200025f6200042b565b5b815162000272848260208601620001fd565b91505092915050565b6000602082840312156200029457620002936200043a565b5b600082015167ffffffffffffffff811115620002b557620002b462000435565b5b620002c38482850162000248565b91505092915050565b6000620002d8620002eb565b9050620002e6828262000397565b919050565b6000604051905090565b600067ffffffffffffffff821115620003135762000312620003fc565b5b6200031e826200043f565b9050602081019050919050565b60005b838110156200034b5780820151818401526020810190506200032e565b838111156200035b576000848401525b50505050565b600060028204905060018216806200037a57607f821691505b60208210811415620003915762000390620003cd565b5b50919050565b620003a2826200043f565b810181811067ffffffffffffffff82111715620003c457620003c3620003fc565b5b80604052505050565b7f4e487b7100000000000000000000000000000000000000000000000000000000600052602260045260246000fd5b7f4e487b7100000000000000000000000000000000000000000000000000000000600052604160045260246000fd5b600080fd5b600080fd5b600080fd5b600080fd5b6000601f19601f8301169050919050565b61383a80620004606000396000f3fe608060405234801561001057600080fd5b50600436106101d95760003560e01c8063ba111a0511610104578063d56b72c7116100a2578063eb84175911610071578063eb841759146105a0578063f242432a146105bc578063f2fde38b146105d8578063f7374e2e146105f4576101d9565b8063d56b72c71461051c578063d7a5791a14610538578063de6a06ed14610554578063e985e9c514610570576101d9565b8063c39cbef1116100de578063c39cbef114610490578063c539c317146104ac578063ce901d8a146104c8578063d3631fa5146104fe576101d9565b8063ba111a0514610412578063bfb48c9c14610442578063c1d3304914610472576101d9565b806335a8ae211161017c578063715018a61161014b578063715018a61461039e5780638da5cb5b146103a857806392724afa146103c6578063a22cb465146103f6576101d9565b806335a8ae21146102f25780634e1273f4146103225780634fe477d81461035257806351cff8d914610382576101d9565b80630e89341c116101b85780630e89341c1461025a57806318892ae81461028a5780631d5ad18b146102ba5780632eb2c2d6146102d6576101d9565b8062fdd58e146101de57806301ffc9a71461020e57806306e320f51461023e575b600080fd5b6101f860048036038101906101f39190612aff565b610610565b60405161020591906130bb565b60405180910390f35b61022860048036038101906102239190612bb7565b6106da565b6040516102359190612ffe565b60405180910390f35b61025860048036038101906102539190612cd1565b6107bc565b005b610274600480360381019061026f9190612be4565b610863565b6040516102819190613019565b60405180910390f35b6102a4600480360381019061029f9190612be4565b6108f7565b6040516102b19190612f06565b60405180910390f35b6102d460048036038101906102cf9190612c51565b61092a565b005b6102f060048036038101906102eb9190612959565b6109ff565b005b61030c60048036038101906103079190612d31565b610b6b565b60405161031991906130bb565b60405180910390f35b61033c60048036038101906103379190612b3f565b610ba3565b6040516103499190612fa5565b60405180910390f35b61036c60048036038101906103679190612d31565b610cbc565b60405161037991906130bb565b60405180910390f35b61039c60048036038101906103979190612831565b610ec9565b005b6103a6610f8f565b005b6103b06110c9565b6040516103bd9190612f06565b60405180910390f35b6103e060048036038101906103db9190612aff565b6110f2565b6040516103ed91906130bb565b60405180910390f35b610410600480360381019061040b9190612abf565b611117565b005b61042c60048036038101906104279190612be4565b611214565b60405161043991906130bb565b60405180910390f35b61045c60048036038101906104579190612c11565b611237565b60405161046991906130bb565b60405180910390f35b61047a61125c565b60405161048791906130bb565b60405180910390f35b6104aa60048036038101906104a59190612cd1565b611262565b005b6104c660048036038101906104c19190612be4565b611309565b005b6104e260048036038101906104dd9190612be4565b61138f565b6040516104f59796959493929190612f21565b60405180910390f35b6105066115a6565b60405161051391906130bb565b60405180910390f35b6105366004803603810190610531919061285e565b6115ac565b005b610552600480360381019061054d9190612be4565b6117c8565b005b61056e60048036038101906105699190612cd1565b61184e565b005b61058a60048036038101906105859190612919565b6118f5565b6040516105979190612ffe565b60405180910390f35b6105ba60048036038101906105b59190612831565b611989565b005b6105d660048036038101906105d19190612a28565b611a59565b005b6105f260048036038101906105ed9190612804565b611b3d565b005b61060e60048036038101906106099190612c91565b611ce6565b005b60008073ffffffffffffffffffffffffffffffffffffffff168373ffffffffffffffffffffffffffffffffffffffff161415610681576040517f08c379a00000000000000000000000000000000000000000000000000000000081526004016106789061303b565b60405180910390fd5b600d600083815260200190815260200160002060008473ffffffffffffffffffffffffffffffffffffffff1673ffffffffffffffffffffffffffffffffffffffff16815260200190815260200160002054905092915050565b60007fd9b67a26000000000000000000000000000000000000000000000000000000007bffffffffffffffffffffffffffffffffffffffffffffffffffffffff1916827bffffffffffffffffffffffffffffffffffffffffffffffffffffffff191614806107a557507f0e89341c000000000000000000000000000000000000000000000000000000007bffffffffffffffffffffffffffffffffffffffffffffffffffffffff1916827bffffffffffffffffffffffffffffffffffffffffffffffffffffffff1916145b806107b557506107b482611da3565b5b9050919050565b826008600082815260200190815260200160002060009054906101000a900473ffffffffffffffffffffffffffffffffffffffff1673ffffffffffffffffffffffffffffffffffffffff163373ffffffffffffffffffffffffffffffffffffffff161461082857600080fd5b82826007868154811061083e5761083d6135ee565b5b9060005260206000209060070201600201919061085c929190612400565b5050505050565b6060600f8054610872906134b5565b80601f016020809104026020016040519081016040528092919081815260200182805461089e906134b5565b80156108eb5780601f106108c0576101008083540402835291602001916108eb565b820191906000526020600020905b8154815290600101906020018083116108ce57829003601f168201915b50505050509050919050565b60086020528060005260406000206000915054906101000a900473ffffffffffffffffffffffffffffffffffffffff1681565b816008600082815260200190815260200160002060009054906101000a900473ffffffffffffffffffffffffffffffffffffffff1673ffffffffffffffffffffffffffffffffffffffff163373ffffffffffffffffffffffffffffffffffffffff161461099657600080fd5b81600784815481106109ab576109aa6135ee565b5b906000526020600020906007020160000160006101000a81548173ffffffffffffffffffffffffffffffffffffffff021916908373ffffffffffffffffffffffffffffffffffffffff160217905550505050565b60005b8351811015610ae5578573ffffffffffffffffffffffffffffffffffffffff163373ffffffffffffffffffffffffffffffffffffffff161480610a4b5750610a4a86866118f5565b5b610a5457600080fd5b610a9386858381518110610a6b57610a6a6135ee565b5b6020026020010151858481518110610a8657610a856135ee565b5b6020026020010151611e0d565b610ad285858381518110610aaa57610aa96135ee565b5b6020026020010151858481518110610ac557610ac46135ee565b5b6020026020010151611ee0565b8080610add90613518565b915050610a02565b508373ffffffffffffffffffffffffffffffffffffffff168573ffffffffffffffffffffffffffffffffffffffff163373ffffffffffffffffffffffffffffffffffffffff167f4a39dc06d4c0dbc64b70af90fd698a233a518aa5d07e595d983b8c0526c8f7fb8686604051610b5c929190612fc7565b60405180910390a45050505050565b600080610b788484610cbc565b90506000610b8582611214565b905060008183610b9591906132c6565b905080935050505092915050565b60608151835114610be9576040517f08c379a0000000000000000000000000000000000000000000000000000000008152600401610be09061309b565b60405180910390fd5b6000835167ffffffffffffffff811115610c0657610c0561361d565b5b604051908082528060200260200182016040528015610c345781602001602082028036833780820191505090505b50905060005b8451811015610cb157610c81858281518110610c5957610c586135ee565b5b6020026020010151858381518110610c7457610c736135ee565b5b6020026020010151610610565b828281518110610c9457610c936135ee565b5b60200260200101818152505080610caa90613518565b9050610c3a565b508091505092915050565b60008060009050600060078581548110610cd957610cd86135ee565b5b906000526020600020906007020160050154905060008482610cfb91906132c6565b905060078681548110610d1157610d106135ee565b5b906000526020600020906007020160060154811015610d6a57610d63818660055460065460078b81548110610d4957610d486135ee565b5b906000526020600020906007020160060154600454611fb3565b9250610ebd565b60078681548110610d7e57610d7d6135ee565b5b906000526020600020906007020160060154821015610ea957610e2560078781548110610dae57610dad6135ee565b5b9060005260206000209060070201600601548360078981548110610dd557610dd46135ee565b5b906000526020600020906007020160060154610df191906133a7565b60055460065460078b81548110610e0b57610e0a6135ee565b5b906000526020600020906007020160060154600454611fb3565b9250610e9760078781548110610e3e57610e3d6135ee565b5b9060005260206000209060070201600601548360078981548110610e6557610e646135ee565b5b906000526020600020906007020160060154610e8191906133a7565b87610e8c91906133a7565b60055460065461202c565b83610ea291906132c6565b9250610ebc565b610eb9828660055460065461202c565b92505b5b82935050505092915050565b610ed16120ba565b73ffffffffffffffffffffffffffffffffffffffff16610eef6110c9565b73ffffffffffffffffffffffffffffffffffffffff1614610f45576040517f08c379a0000000000000000000000000000000000000000000000000000000008152600401610f3c9061307b565b60405180910390fd5b8073ffffffffffffffffffffffffffffffffffffffff166108fc479081150290604051600060405180830381858888f19350505050158015610f8b573d6000803e3d6000fd5b5050565b610f976120ba565b73ffffffffffffffffffffffffffffffffffffffff16610fb56110c9565b73ffffffffffffffffffffffffffffffffffffffff161461100b576040517f08c379a00000000000000000000000000000000000000000000000000000000081526004016110029061307b565b60405180910390fd5b600073ffffffffffffffffffffffffffffffffffffffff1660008054906101000a900473ffffffffffffffffffffffffffffffffffffffff1673ffffffffffffffffffffffffffffffffffffffff167f8be0079c531659141344cd1fd0a4f28419497f9722a3daafe3b4186f6b6457e060405160405180910390a360008060006101000a81548173ffffffffffffffffffffffffffffffffffffffff021916908373ffffffffffffffffffffffffffffffffffffffff160217905550565b60008060009054906101000a900473ffffffffffffffffffffffffffffffffffffffff16905090565b600b602052816000526040600020602052806000526040600020600091509150505481565b80600c60003373ffffffffffffffffffffffffffffffffffffffff1673ffffffffffffffffffffffffffffffffffffffff16815260200190815260200160002060008473ffffffffffffffffffffffffffffffffffffffff1673ffffffffffffffffffffffffffffffffffffffff16815260200190815260200160002060006101000a81548160ff0219169083151502179055508173ffffffffffffffffffffffffffffffffffffffff163373ffffffffffffffffffffffffffffffffffffffff167f17307eab39ab6107e8899845ad3d59bd9653f200f220920489ca2b5937696c31836040516112089190612ffe565b60405180910390a35050565b6000606460015483611226919061334d565b611230919061331c565b9050919050565b600a602052816000526040600020602052806000526040600020600091509150505481565b60035481565b826008600082815260200190815260200160002060009054906101000a900473ffffffffffffffffffffffffffffffffffffffff1673ffffffffffffffffffffffffffffffffffffffff163373ffffffffffffffffffffffffffffffffffffffff16146112ce57600080fd5b8282600786815481106112e4576112e36135ee565b5b90600052602060002090600702016001019190611302929190612400565b5050505050565b6113116120ba565b73ffffffffffffffffffffffffffffffffffffffff1661132f6110c9565b73ffffffffffffffffffffffffffffffffffffffff1614611385576040517f08c379a000000000000000000000000000000000000000000000000000000000815260040161137c9061307b565b60405180910390fd5b8060048190555050565b6007818154811061139f57600080fd5b90600052602060002090600702016000915090508060000160009054906101000a900473ffffffffffffffffffffffffffffffffffffffff16908060010180546113e8906134b5565b80601f0160208091040260200160405190810160405280929190818152602001828054611414906134b5565b80156114615780601f1061143657610100808354040283529160200191611461565b820191906000526020600020905b81548152906001019060200180831161144457829003601f168201915b505050505090806002018054611476906134b5565b80601f01602080910402602001604051908101604052809291908181526020018280546114a2906134b5565b80156114ef5780601f106114c4576101008083540402835291602001916114ef565b820191906000526020600020905b8154815290600101906020018083116114d257829003601f168201915b505050505090806003018054611504906134b5565b80601f0160208091040260200160405190810160405280929190818152602001828054611530906134b5565b801561157d5780601f106115525761010080835404028352916020019161157d565b820191906000526020600020905b81548152906001019060200180831161156057829003601f168201915b5050505050908060040160009054906101000a900460ff16908060050154908060060154905087565b60025481565b60076040518060e001604052808673ffffffffffffffffffffffffffffffffffffffff168152602001858152602001848152602001838152602001600015158152602001600081526020016000815250908060018154018082558091505060019003906000526020600020906007020160009091909190915060008201518160000160006101000a81548173ffffffffffffffffffffffffffffffffffffffff021916908373ffffffffffffffffffffffffffffffffffffffff1602179055506020820151816001019080519060200190611688929190612486565b5060408201518160020190805190602001906116a5929190612486565b5060608201518160030190805190602001906116c2929190612486565b5060808201518160040160006101000a81548160ff02191690831515021790555060a0820151816005015560c0820151816006015550506000600160078054905061170d91906133a7565b9050846008600083815260200190815260200160002060006101000a81548173ffffffffffffffffffffffffffffffffffffffff021916908373ffffffffffffffffffffffffffffffffffffffff160217905550600060096000838152602001908152602001600020819055507f3ef624c0f3fb7ad40b94c02078ea3e3a797dbfc21e921ee4bd2b8ad0ca6aa113818686868660008060006040516117b99897969594939291906130d6565b60405180910390a15050505050565b6117d06120ba565b73ffffffffffffffffffffffffffffffffffffffff166117ee6110c9565b73ffffffffffffffffffffffffffffffffffffffff1614611844576040517f08c379a000000000000000000000000000000000000000000000000000000000815260040161183b9061307b565b60405180910390fd5b8060018190555050565b826008600082815260200190815260200160002060009054906101000a900473ffffffffffffffffffffffffffffffffffffffff1673ffffffffffffffffffffffffffffffffffffffff163373ffffffffffffffffffffffffffffffffffffffff16146118ba57600080fd5b8282600786815481106118d0576118cf6135ee565b5b906000526020600020906007020160030191906118ee929190612400565b5050505050565b6000600c60008473ffffffffffffffffffffffffffffffffffffffff1673ffffffffffffffffffffffffffffffffffffffff16815260200190815260200160002060008373ffffffffffffffffffffffffffffffffffffffff1673ffffffffffffffffffffffffffffffffffffffff16815260200190815260200160002060009054906101000a900460ff16905092915050565b6119916120ba565b73ffffffffffffffffffffffffffffffffffffffff166119af6110c9565b73ffffffffffffffffffffffffffffffffffffffff1614611a05576040517f08c379a00000000000000000000000000000000000000000000000000000000081526004016119fc9061307b565b60405180910390fd5b8073ffffffffffffffffffffffffffffffffffffffff166108fc6003549081150290604051600060405180830381858888f19350505050158015611a4d573d6000803e3d6000fd5b50600060038190555050565b8473ffffffffffffffffffffffffffffffffffffffff163373ffffffffffffffffffffffffffffffffffffffff161480611a995750611a9885856118f5565b5b611aa257600080fd5b611aad858484611e0d565b611ab8848484611ee0565b8373ffffffffffffffffffffffffffffffffffffffff168573ffffffffffffffffffffffffffffffffffffffff163373ffffffffffffffffffffffffffffffffffffffff167fc3d58168c5ae7397731d063d5bbf3d657854427343f4c083240f7aacaa2d0f628686604051611b2e929190613169565b60405180910390a45050505050565b611b456120ba565b73ffffffffffffffffffffffffffffffffffffffff16611b636110c9565b73ffffffffffffffffffffffffffffffffffffffff1614611bb9576040517f08c379a0000000000000000000000000000000000000000000000000000000008152600401611bb09061307b565b60405180910390fd5b600073ffffffffffffffffffffffffffffffffffffffff168173ffffffffffffffffffffffffffffffffffffffff161415611c29576040517f08c379a0000000000000000000000000000000000000000000000000000000008152600401611c209061305b565b60405180910390fd5b8073ffffffffffffffffffffffffffffffffffffffff1660008054906101000a900473ffffffffffffffffffffffffffffffffffffffff1673ffffffffffffffffffffffffffffffffffffffff167f8be0079c531659141344cd1fd0a4f28419497f9722a3daafe3b4186f6b6457e060405160405180910390a3806000806101000a81548173ffffffffffffffffffffffffffffffffffffffff021916908373ffffffffffffffffffffffffffffffffffffffff16021790555050565b611cee6120ba565b73ffffffffffffffffffffffffffffffffffffffff16611d0c6110c9565b73ffffffffffffffffffffffffffffffffffffffff1614611d62576040517f08c379a0000000000000000000000000000000000000000000000000000000008152600401611d599061307b565b60405180910390fd5b8060078381548110611d7757611d766135ee565b5b906000526020600020906007020160040160006101000a81548160ff0219169083151502179055505050565b60007f01ffc9a7000000000000000000000000000000000000000000000000000000007bffffffffffffffffffffffffffffffffffffffffffffffffffffffff1916827bffffffffffffffffffffffffffffffffffffffffffffffffffffffff1916149050919050565b80600a600084815260200190815260200160002060008573ffffffffffffffffffffffffffffffffffffffff1673ffffffffffffffffffffffffffffffffffffffff1681526020019081526020016000206000828254611e6d91906133a7565b9250508190555080600b60008573ffffffffffffffffffffffffffffffffffffffff1673ffffffffffffffffffffffffffffffffffffffff16815260200190815260200160002060008481526020019081526020016000206000828254611ed491906133a7565b92505081905550505050565b80600a600084815260200190815260200160002060008573ffffffffffffffffffffffffffffffffffffffff1673ffffffffffffffffffffffffffffffffffffffff1681526020019081526020016000206000828254611f4091906132c6565b9250508190555080600b60008573ffffffffffffffffffffffffffffffffffffffff1673ffffffffffffffffffffffffffffffffffffffff16815260200190815260200160002060008481526020019081526020016000206000828254611fa791906132c6565b92505081905550505050565b600080600080611fc78a8a8a8a8a8a6120c2565b9250925092506000838b1015611fea57611fe384848d8561213d565b905061201b565b838210156120085761200184848d858d8d8d6121e0565b905061201a565b61201784848d858d8d8d612302565b90505b5b809450505050509695505050505050565b600080848661203b91906132c6565b9050600083878661204c919061334d565b612056919061331c565b90506000848387612067919061334d565b612071919061331c565b90506000888461208191906133a7565b90506000600282848661209491906132c6565b61209e919061334d565b6120a8919061331c565b90508095505050505050949350505050565b600033905090565b6000806000806002866120d5919061331c565b90506000878960648860326120ea91906133a7565b8a6120f5919061334d565b6120ff919061331c565b612109919061334d565b612113919061331c565b905060008a8c61212391906133a7565b905082828295509550955050505096509650969350505050565b600080828661214c91906133a7565b8686612158919061331c565b612162919061334d565b8561216d91906133a7565b90506000848761217d91906133a7565b8787612189919061331c565b612193919061334d565b8661219e91906133a7565b9050600084866121ae91906133a7565b905060028183856121bf91906132c6565b6121c9919061334d565b6121d3919061331c565b9350505050949350505050565b60008085896121ef91906133a7565b89896121fb919061331c565b612205919061334d565b8861221091906133a7565b905060008890506000878b61222591906133a7565b90506000600282848661223891906132c6565b612242919061334d565b61224c919061331c565b905060008b8d8c61225d91906133a7565b8e8961226991906133a7565b8e8b8b8e612277919061334d565b612281919061331c565b61228b91906133a7565b612295919061331c565b61229f919061334d565b6122a991906132c6565b905060008d8c6122b991906133a7565b9050600060028284886122cc91906132c6565b6122d6919061334d565b6122e0919061331c565b905080846122ee91906132c6565b975050505050505050979650505050505050565b60008087898761231291906133a7565b8a8561231e91906133a7565b8a87878a61232c919061334d565b612336919061331c565b61234091906133a7565b61234a919061331c565b612354919061334d565b61235e91906132c6565b90506000888a8961236f91906133a7565b8b8661237b91906133a7565b8b88888b612389919061334d565b612393919061331c565b61239d91906133a7565b6123a7919061331c565b6123b1919061334d565b6123bb91906132c6565b9050600087896123cb91906133a7565b905060028183856123dc91906132c6565b6123e6919061334d565b6123f0919061331c565b9350505050979650505050505050565b82805461240c906134b5565b90600052602060002090601f01602090048101928261242e5760008555612475565b82601f1061244757803560ff1916838001178555612475565b82800160010185558215612475579182015b82811115612474578235825591602001919060010190612459565b5b509050612482919061250c565b5090565b828054612492906134b5565b90600052602060002090601f0160209004810192826124b457600085556124fb565b82601f106124cd57805160ff19168380011785556124fb565b828001600101855582156124fb579182015b828111156124fa5782518255916020019190600101906124df565b5b509050612508919061250c565b5090565b5b8082111561252557600081600090555060010161250d565b5090565b600061253c612537846131b7565b613192565b9050808382526020820190508285602086028201111561255f5761255e613656565b5b60005b8581101561258f5781612575888261268d565b845260208401935060208301925050600181019050612562565b5050509392505050565b60006125ac6125a7846131e3565b613192565b905080838252602082019050828560208602820111156125cf576125ce613656565b5b60005b858110156125ff57816125e588826127ef565b8452602084019350602083019250506001810190506125d2565b5050509392505050565b600061261c6126178461320f565b613192565b9050828152602081018484840111156126385761263761365b565b5b612643848285613473565b509392505050565b600061265e61265984613240565b613192565b90508281526020810184848401111561267a5761267961365b565b5b612685848285613473565b509392505050565b60008135905061269c81613791565b92915050565b6000813590506126b1816137a8565b92915050565b600082601f8301126126cc576126cb613651565b5b81356126dc848260208601612529565b91505092915050565b600082601f8301126126fa576126f9613651565b5b813561270a848260208601612599565b91505092915050565b600081359050612722816137bf565b92915050565b600081359050612737816137d6565b92915050565b600082601f83011261275257612751613651565b5b8135612762848260208601612609565b91505092915050565b60008083601f84011261278157612780613651565b5b8235905067ffffffffffffffff81111561279e5761279d61364c565b5b6020830191508360018202830111156127ba576127b9613656565b5b9250929050565b600082601f8301126127d6576127d5613651565b5b81356127e684826020860161264b565b91505092915050565b6000813590506127fe816137ed565b92915050565b60006020828403121561281a57612819613665565b5b60006128288482850161268d565b91505092915050565b60006020828403121561284757612846613665565b5b6000612855848285016126a2565b91505092915050565b6000806000806080858703121561287857612877613665565b5b6000612886878288016126a2565b945050602085013567ffffffffffffffff8111156128a7576128a6613660565b5b6128b3878288016127c1565b935050604085013567ffffffffffffffff8111156128d4576128d3613660565b5b6128e0878288016127c1565b925050606085013567ffffffffffffffff81111561290157612900613660565b5b61290d878288016127c1565b91505092959194509250565b600080604083850312156129305761292f613665565b5b600061293e8582860161268d565b925050602061294f8582860161268d565b9150509250929050565b600080600080600060a0868803121561297557612974613665565b5b60006129838882890161268d565b95505060206129948882890161268d565b945050604086013567ffffffffffffffff8111156129b5576129b4613660565b5b6129c1888289016126e5565b935050606086013567ffffffffffffffff8111156129e2576129e1613660565b5b6129ee888289016126e5565b925050608086013567ffffffffffffffff811115612a0f57612a0e613660565b5b612a1b8882890161273d565b9150509295509295909350565b600080600080600060a08688031215612a4457612a43613665565b5b6000612a528882890161268d565b9550506020612a638882890161268d565b9450506040612a74888289016127ef565b9350506060612a85888289016127ef565b925050608086013567ffffffffffffffff811115612aa657612aa5613660565b5b612ab28882890161273d565b9150509295509295909350565b60008060408385031215612ad657612ad5613665565b5b6000612ae48582860161268d565b9250506020612af585828601612713565b9150509250929050565b60008060408385031215612b1657612b15613665565b5b6000612b248582860161268d565b9250506020612b35858286016127ef565b9150509250929050565b60008060408385031215612b5657612b55613665565b5b600083013567ffffffffffffffff811115612b7457612b73613660565b5b612b80858286016126b7565b925050602083013567ffffffffffffffff811115612ba157612ba0613660565b5b612bad858286016126e5565b9150509250929050565b600060208284031215612bcd57612bcc613665565b5b6000612bdb84828501612728565b91505092915050565b600060208284031215612bfa57612bf9613665565b5b6000612c08848285016127ef565b91505092915050565b60008060408385031215612c2857612c27613665565b5b6000612c36858286016127ef565b9250506020612c478582860161268d565b9150509250929050565b60008060408385031215612c6857612c67613665565b5b6000612c76858286016127ef565b9250506020612c87858286016126a2565b9150509250929050565b60008060408385031215612ca857612ca7613665565b5b6000612cb6858286016127ef565b9250506020612cc785828601612713565b9150509250929050565b600080600060408486031215612cea57612ce9613665565b5b6000612cf8868287016127ef565b935050602084013567ffffffffffffffff811115612d1957612d18613660565b5b612d258682870161276b565b92509250509250925092565b60008060408385031215612d4857612d47613665565b5b6000612d56858286016127ef565b9250506020612d67858286016127ef565b9150509250929050565b6000612d7d8383612ee8565b60208301905092915050565b612d92816133ed565b82525050565b612da1816133db565b82525050565b6000612db282613281565b612dbc81856132a4565b9350612dc783613271565b8060005b83811015612df8578151612ddf8882612d71565b9750612dea83613297565b925050600181019050612dcb565b5085935050505092915050565b612e0e816133ff565b82525050565b612e1d81613461565b82525050565b6000612e2e8261328c565b612e3881856132b5565b9350612e48818560208601613482565b612e518161366a565b840191505092915050565b6000612e69602b836132b5565b9150612e748261367b565b604082019050919050565b6000612e8c6026836132b5565b9150612e97826136ca565b604082019050919050565b6000612eaf6020836132b5565b9150612eba82613719565b602082019050919050565b6000612ed26029836132b5565b9150612edd82613742565b604082019050919050565b612ef181613457565b82525050565b612f0081613457565b82525050565b6000602082019050612f1b6000830184612d98565b92915050565b600060e082019050612f36600083018a612d89565b8181036020830152612f488189612e23565b90508181036040830152612f5c8188612e23565b90508181036060830152612f708187612e23565b9050612f7f6080830186612e05565b612f8c60a0830185612ef7565b612f9960c0830184612ef7565b98975050505050505050565b60006020820190508181036000830152612fbf8184612da7565b905092915050565b60006040820190508181036000830152612fe18185612da7565b90508181036020830152612ff58184612da7565b90509392505050565b60006020820190506130136000830184612e05565b92915050565b600060208201905081810360008301526130338184612e23565b905092915050565b6000602082019050818103600083015261305481612e5c565b9050919050565b6000602082019050818103600083015261307481612e7f565b9050919050565b6000602082019050818103600083015261309481612ea2565b9050919050565b600060208201905081810360008301526130b481612ec5565b9050919050565b60006020820190506130d06000830184612ef7565b92915050565b6000610100820190506130ec600083018b612ef7565b6130f9602083018a612d89565b818103604083015261310b8189612e23565b9050818103606083015261311f8188612e23565b905081810360808301526131338187612e23565b905061314260a0830186612e05565b61314f60c0830185612e14565b61315c60e0830184612e14565b9998505050505050505050565b600060408201905061317e6000830185612ef7565b61318b6020830184612ef7565b9392505050565b600061319c6131ad565b90506131a882826134e7565b919050565b6000604051905090565b600067ffffffffffffffff8211156131d2576131d161361d565b5b602082029050602081019050919050565b600067ffffffffffffffff8211156131fe576131fd61361d565b5b602082029050602081019050919050565b600067ffffffffffffffff82111561322a5761322961361d565b5b6132338261366a565b9050602081019050919050565b600067ffffffffffffffff82111561325b5761325a61361d565b5b6132648261366a565b9050602081019050919050565b6000819050602082019050919050565b600081519050919050565b600081519050919050565b6000602082019050919050565b600082825260208201905092915050565b600082825260208201905092915050565b60006132d182613457565b91506132dc83613457565b9250827fffffffffffffffffffffffffffffffffffffffffffffffffffffffffffffffff0382111561331157613310613561565b5b828201905092915050565b600061332782613457565b915061333283613457565b92508261334257613341613590565b5b828204905092915050565b600061335882613457565b915061336383613457565b9250817fffffffffffffffffffffffffffffffffffffffffffffffffffffffffffffffff048311821515161561339c5761339b613561565b5b828202905092915050565b60006133b282613457565b91506133bd83613457565b9250828210156133d0576133cf613561565b5b828203905092915050565b60006133e682613437565b9050919050565b60006133f882613437565b9050919050565b60008115159050919050565b60007fffffffff0000000000000000000000000000000000000000000000000000000082169050919050565b600073ffffffffffffffffffffffffffffffffffffffff82169050919050565b6000819050919050565b600061346c82613457565b9050919050565b82818337600083830152505050565b60005b838110156134a0578082015181840152602081019050613485565b838111156134af576000848401525b50505050565b600060028204905060018216806134cd57607f821691505b602082108114156134e1576134e06135bf565b5b50919050565b6134f08261366a565b810181811067ffffffffffffffff8211171561350f5761350e61361d565b5b80604052505050565b600061352382613457565b91507fffffffffffffffffffffffffffffffffffffffffffffffffffffffffffffffff82141561355657613555613561565b5b600182019050919050565b7f4e487b7100000000000000000000000000000000000000000000000000000000600052601160045260246000fd5b7f4e487b7100000000000000000000000000000000000000000000000000000000600052601260045260246000fd5b7f4e487b7100000000000000000000000000000000000000000000000000000000600052602260045260246000fd5b7f4e487b7100000000000000000000000000000000000000000000000000000000600052603260045260246000fd5b7f4e487b7100000000000000000000000000000000000000000000000000000000600052604160045260246000fd5b600080fd5b600080fd5b600080fd5b600080fd5b600080fd5b600080fd5b6000601f19601f8301169050919050565b7f455243313135353a2062616c616e636520717565727920666f7220746865207a60008201527f65726f2061646472657373000000000000000000000000000000000000000000602082015250565b7f4f776e61626c653a206e6577206f776e657220697320746865207a65726f206160008201527f6464726573730000000000000000000000000000000000000000000000000000602082015250565b7f4f776e61626c653a2063616c6c6572206973206e6f7420746865206f776e6572600082015250565b7f455243313135353a206163636f756e747320616e6420696473206c656e67746860008201527f206d69736d617463680000000000000000000000000000000000000000000000602082015250565b61379a816133db565b81146137a557600080fd5b50565b6137b1816133ed565b81146137bc57600080fd5b50565b6137c8816133ff565b81146137d357600080fd5b50565b6137df8161340b565b81146137ea57600080fd5b50565b6137f681613457565b811461380157600080fd5b5056fea26469706673582212202db4527abc8d603fe00f033ce83903155608396e6942416b6bb3d0ccec2d7a9264736f6c63430008060033",
  "immutableReferences": {},
  "source": "// SPDX-License-Identifier: MIT\npragma solidity ^0.8.0;\n\nimport \"./creatortokenfees.sol\";\n\n/// @title Computes buy proceeds and total proceeds associated with a buy transaction\n/// @author Kamil Alizai Sadik\ncontract CreatorTokenComputation is CreatorTokenFees {\n\n\tconstructor(string memory uri) CreatorTokenFees(uri) { }\n\n\t/// @dev Calculates total transaction proceeds\n\t/// @param _tokenId ID of the token being transacted\n\t/// @param _amount Quantity of the token being transacted\n\t/// @return Total proceeds required in transaction\n\tfunction _totalProceeds(uint _tokenId, uint _amount) public view returns (uint256) {//, uint256, uint256) {//[3] memory) {\n\t\t// Compute proceedsRequired (ex-fees)\n\t\tuint proceedsRequired = _buyProceeds(_tokenId, _amount);\n\t\t// Compute feeRequired\n\t\tuint feeRequired = _feeProceeds(proceedsRequired);\n\t\t// Compute total proceeds required\n\t\tuint totalProceeds = proceedsRequired + feeRequired;\n\t\treturn totalProceeds;\n\t}\n\n\t/// @dev Calculates proceeds required for a given buy transaction (not including fees)\n\t/// @param _tokenId ID of the token being transacted\n\t/// @param _amount Quantity of the token being transacted\n\t/// @return Proceeds required in the transaction (before fees)\n\tfunction _buyProceeds(uint _tokenId, uint _amount) public view returns (uint256) {\n\t\t// Initialize proceeds required;\n\t\tuint proceedsRequired = 0;\n\t\t// Initialize pre-transaction supply\n\t\tuint startingSupply = creatorTokens[_tokenId].outstanding;\n\t\t// Compute post-transaction supply\n\t\tuint endSupply = startingSupply + _amount;\n\t\t// Compute buy proceeds\n\t\t// Check if endSupply <= maxSupply\n\t\tif (endSupply < creatorTokens[_tokenId].maxSupply) {\n\t\t\t// Scenario in which entire transaction takes place below maxSupply\n\t\t\t// Just call s(x)\n\t\t\t//proceedsRequired = _saleFunction(startingSupply, _amount, mNumerator, mDenominator, creatorTokens[_tokenId].maxSupply, profitMargin);\n\t\t\tproceedsRequired = _saleFunction(endSupply, _amount, mNumerator, mDenominator, creatorTokens[_tokenId].maxSupply, profitMargin);\n\t\t} else if (startingSupply < creatorTokens[_tokenId].maxSupply){\n\t\t\t// Scenario in which supply begins below maxSupply and ends above pre-transaction maxSupply\n\t\t\t// Use s(x) from startingSupply to maxSupply\n\t\t\tproceedsRequired = _saleFunction(creatorTokens[_tokenId].maxSupply, creatorTokens[_tokenId].maxSupply - startingSupply, mNumerator, mDenominator, creatorTokens[_tokenId].maxSupply, profitMargin);\n\t\t\t// Use b(x) from maxSupply to endSupply\n\t\t\tproceedsRequired += _buyFunction(creatorTokens[_tokenId].maxSupply, _amount - (creatorTokens[_tokenId].maxSupply - startingSupply), mNumerator, mDenominator);\n\t\t} else {\n\t\t\t// Scenario in which transaction begins at maxSupply\n\t\t\t// Just call b(x)\n\t\t\tproceedsRequired = _buyFunction(startingSupply, _amount, mNumerator, mDenominator);\n\t\t}\n\t\t// Return proceeds required\n\t\treturn proceedsRequired;\n\t}\n}",
  "sourcePath": "/Users/kamilalizaisadik/DeFi/Dynamic Automated Market Maker/CreatorTokenExchange/contracts/creatortokencomputation.sol",
  "compiler": {
    "name": "solc",
    "version": "0.8.6+commit.11564f7e.Emscripten.clang"
  },
  "schemaVersion": "3.4.1",
  "updatedAt": "2021-07-12T23:45:16.852Z",
  "devdoc": {
    "author": "Kamil Alizai Sadik",
    "kind": "dev",
    "methods": {
      "_buyProceeds(uint256,uint256)": {
        "details": "Calculates proceeds required for a given buy transaction (not including fees)",
        "params": {
          "_amount": "Quantity of the token being transacted",
          "_tokenId": "ID of the token being transacted"
        },
        "returns": {
          "_0": "Proceeds required in the transaction (before fees)"
        }
      },
      "_feeProceeds(uint256)": {
        "details": "Calculates the fee associated with a buy transaction",
        "params": {
          "_proceedsRequired": "The proceeds required for the buy transaction (before addition of fees)"
        },
        "returns": {
          "_0": "Fee associated with transaction"
        }
      },
      "_totalProceeds(uint256,uint256)": {
        "details": "Calculates total transaction proceeds",
        "params": {
          "_amount": "Quantity of the token being transacted",
          "_tokenId": "ID of the token being transacted"
        },
        "returns": {
          "_0": "Total proceeds required in transaction"
        }
      },
      "balanceOf(address,uint256)": {
        "details": "See {IERC1155-balanceOf}. Requirements: - `account` cannot be the zero address."
      },
      "balanceOfBatch(address[],uint256[])": {
        "details": "See {IERC1155-balanceOfBatch}. Requirements: - `accounts` and `ids` must have the same length."
      },
      "changeAddress(uint256,address)": {
        "details": "Allows token creator to change their address",
        "params": {
          "_newCreatorAddress": "New creator address associated with the token",
          "_tokenId": "ID of the token in question"
        }
      },
      "changeDescription(uint256,string)": {
        "details": "Allows token creator to change the description of their token",
        "params": {
          "_newDescription": "New description associated with the token",
          "_tokenId": "ID of the token in question"
        }
      },
      "changeName(uint256,string)": {
        "details": "Allows token creator to change the name of their token",
        "params": {
          "_newName": "New name associated with the token",
          "_tokenId": "ID of the token in question"
        }
      },
      "changePlatformFee(uint256)": {
        "details": "Allows owner to change platformFee",
        "params": {
          "_newPlatformFee": "New platform fee"
        }
      },
      "changeProfitMargin(uint256)": {
        "details": "Allows owner to change profit_margin",
        "params": {
          "_newProfitMargin": "New profit margin"
        }
      },
      "changeSymbol(uint256,string)": {
        "details": "Allows token creator to change the symbol of their token",
        "params": {
          "_newSymbol": "New symbol associated with the token",
          "_tokenId": "ID of the token in question"
        }
      },
      "changeVerification(uint256,bool)": {
        "details": "Allows owner to verify (or undo verification) of a CreatorToken",
        "params": {
          "_tokenId": "ID of the token in question",
          "_verified": "Verification status of the token in question"
        }
      },
      "createCreatorToken(address,string,string,string)": {
        "details": "Creates a new creator token",
        "params": {
          "_creatorAddress": "Address of the creator of the token",
          "_description": "chosen by the creator of the tokens",
          "_name": "Name chosen by the creator of the token",
          "_symbol": "Ticker symbol chosen by the creator of the token"
        }
      },
      "isApprovedForAll(address,address)": {
        "details": "Denotes whether operator is approved to transfer account's tokens",
        "params": {
          "_account": "Wallet address holding tokens",
          "_operator": "Wallet address which is/isn't approved to transfer _account's tokens"
        },
        "returns": {
          "_0": "Boolean value indicating approval status"
        }
      },
      "owner()": {
        "details": "Returns the address of the current owner."
      },
      "payoutPlatformFees(address)": {
        "details": "Pays out platform fees owed to owner (might opt to call this daily)",
        "params": {
          "_owner": "Owner of the smart contract"
        }
      },
      "renounceOwnership()": {
        "details": "Leaves the contract without owner. It will not be possible to call `onlyOwner` functions anymore. Can only be called by the current owner. NOTE: Renouncing ownership will leave the contract without an owner, thereby removing any functionality that is only available to the owner."
      },
      "safeBatchTransferFrom(address,address,uint256[],uint256[],bytes)": {
        "details": "Transfers a batch of tokens",
        "params": {
          "_amounts": "Array of quantities of token to be transferred",
          "_data": "Data",
          "_from": "Address token is being transferred from",
          "_ids": "Array of IDs of tokens being transferred",
          "_to": "Address token is being transferred to"
        }
      },
      "safeTransferFrom(address,address,uint256,uint256,bytes)": {
        "details": "Transfers a token",
        "params": {
          "_amount": "Quantity of token to be transferred",
          "_data": "Data",
          "_from": "Address token is being transferred from",
          "_id": "ID of token being transferred",
          "_to": "Address token is being transferred to"
        }
      },
      "setApprovalForAll(address,bool)": {
        "details": "Gives operator permission to transfer caller's tokens",
        "params": {
          "_approved": "Boolean value indicating whether operator is approved",
          "_operator": "Wallet address being granted permission"
        }
      },
      "supportsInterface(bytes4)": {
        "details": "See {IERC165-supportsInterface}."
      },
      "transferOwnership(address)": {
        "details": "Transfers ownership of the contract to a new account (`newOwner`). Can only be called by the current owner."
      },
      "uri(uint256)": {
        "details": "See {IERC1155MetadataURI-uri}. This implementation returns the same URI for *all* token types. It relies on the token type ID substitution mechanism https://eips.ethereum.org/EIPS/eip-1155#metadata[defined in the EIP]. Clients calling this function must replace the `\\{id\\}` substring with the actual token type ID."
      },
      "withdraw(address)": {
        "details": "Ownable function allowing for withdrawal",
        "params": {
          "_owner": "Owner of the smart contract"
        }
      }
    },
    "title": "Computes buy proceeds and total proceeds associated with a buy transaction",
    "version": 1
  },
  "userdoc": {
    "kind": "user",
    "methods": {},
    "version": 1
  }
}