{
  "contractName": "CreatorTokenHelper",
  "abi": [
    {
      "anonymous": false,
      "inputs": [
        {
          "indexed": false,
          "internalType": "uint256",
          "name": "tokenId",
          "type": "uint256"
        },
        {
          "indexed": false,
          "internalType": "address payable",
          "name": "creatorAddress",
          "type": "address"
        },
        {
          "indexed": false,
          "internalType": "string",
          "name": "name",
          "type": "string"
        },
        {
          "indexed": false,
          "internalType": "string",
          "name": "symbol",
          "type": "string"
        },
        {
          "indexed": false,
          "internalType": "string",
          "name": "description",
          "type": "string"
        },
        {
          "indexed": false,
          "internalType": "bool",
          "name": "verified",
          "type": "bool"
        },
        {
          "indexed": false,
          "internalType": "uint256",
          "name": "outstanding",
          "type": "uint256"
        },
        {
          "indexed": false,
          "internalType": "uint256",
          "name": "maxSupply",
          "type": "uint256"
        }
      ],
      "name": "NewCreatorToken",
      "type": "event"
    },
    {
      "anonymous": false,
      "inputs": [
        {
          "indexed": true,
          "internalType": "address",
          "name": "previousOwner",
          "type": "address"
        },
        {
          "indexed": true,
          "internalType": "address",
          "name": "newOwner",
          "type": "address"
        }
      ],
      "name": "OwnershipTransferred",
      "type": "event"
    },
    {
      "inputs": [
        {
          "internalType": "address payable",
          "name": "_creatorAddress",
          "type": "address"
        },
        {
          "internalType": "string",
          "name": "_name",
          "type": "string"
        },
        {
          "internalType": "string",
          "name": "_symbol",
          "type": "string"
        },
        {
          "internalType": "string",
          "name": "_description",
          "type": "string"
        }
      ],
      "name": "createCreatorToken",
      "outputs": [],
      "stateMutability": "nonpayable",
      "type": "function"
    },
    {
      "inputs": [
        {
          "internalType": "uint256",
          "name": "",
          "type": "uint256"
        }
      ],
      "name": "creatorTokens",
      "outputs": [
        {
          "internalType": "address payable",
          "name": "creatorAddress",
          "type": "address"
        },
        {
          "internalType": "string",
          "name": "name",
          "type": "string"
        },
        {
          "internalType": "string",
          "name": "symbol",
          "type": "string"
        },
        {
          "internalType": "string",
          "name": "description",
          "type": "string"
        },
        {
          "internalType": "bool",
          "name": "verified",
          "type": "bool"
        },
        {
          "internalType": "uint256",
          "name": "outstanding",
          "type": "uint256"
        },
        {
          "internalType": "uint256",
          "name": "maxSupply",
          "type": "uint256"
        }
      ],
      "stateMutability": "view",
      "type": "function"
    },
    {
      "inputs": [
        {
          "internalType": "uint256",
          "name": "_id",
          "type": "uint256"
        }
      ],
      "name": "getOutstanding",
      "outputs": [
        {
          "internalType": "uint256",
          "name": "",
          "type": "uint256"
        }
      ],
      "stateMutability": "view",
      "type": "function"
    },
    {
      "inputs": [],
      "name": "owner",
      "outputs": [
        {
          "internalType": "address",
          "name": "",
          "type": "address"
        }
      ],
      "stateMutability": "view",
      "type": "function"
    },
    {
      "inputs": [],
      "name": "renounceOwnership",
      "outputs": [],
      "stateMutability": "nonpayable",
      "type": "function"
    },
    {
      "inputs": [
        {
          "internalType": "uint256",
          "name": "",
          "type": "uint256"
        },
        {
          "internalType": "address",
          "name": "",
          "type": "address"
        }
      ],
      "name": "tokenHoldership",
      "outputs": [
        {
          "internalType": "uint256",
          "name": "",
          "type": "uint256"
        }
      ],
      "stateMutability": "view",
      "type": "function"
    },
    {
      "inputs": [
        {
          "internalType": "uint256",
          "name": "",
          "type": "uint256"
        }
      ],
      "name": "tokenToCreator",
      "outputs": [
        {
          "internalType": "address",
          "name": "",
          "type": "address"
        }
      ],
      "stateMutability": "view",
      "type": "function"
    },
    {
      "inputs": [
        {
          "internalType": "address",
          "name": "newOwner",
          "type": "address"
        }
      ],
      "name": "transferOwnership",
      "outputs": [],
      "stateMutability": "nonpayable",
      "type": "function"
    },
    {
      "inputs": [
        {
          "internalType": "address",
          "name": "",
          "type": "address"
        },
        {
          "internalType": "uint256",
          "name": "",
          "type": "uint256"
        }
      ],
      "name": "userToHoldings",
      "outputs": [
        {
          "internalType": "uint256",
          "name": "",
          "type": "uint256"
        }
      ],
      "stateMutability": "view",
      "type": "function"
    },
    {
      "inputs": [
        {
          "internalType": "address payable",
          "name": "_owner",
          "type": "address"
        }
      ],
      "name": "withdraw",
      "outputs": [],
      "stateMutability": "nonpayable",
      "type": "function"
    },
    {
      "inputs": [
        {
          "internalType": "address payable",
          "name": "_owner",
          "type": "address"
        }
      ],
      "name": "payoutPlatformFees",
      "outputs": [],
      "stateMutability": "nonpayable",
      "type": "function"
    },
    {
      "inputs": [
        {
          "internalType": "uint256",
          "name": "_newPlatformFee",
          "type": "uint256"
        }
      ],
      "name": "changePlatformFee",
      "outputs": [],
      "stateMutability": "nonpayable",
      "type": "function"
    },
    {
      "inputs": [
        {
          "internalType": "uint256",
          "name": "_newProfitMargin",
          "type": "uint256"
        }
      ],
      "name": "changeProfitMargin",
      "outputs": [],
      "stateMutability": "nonpayable",
      "type": "function"
    },
    {
      "inputs": [
        {
          "internalType": "uint256",
          "name": "_tokenId",
          "type": "uint256"
        },
        {
          "internalType": "bool",
          "name": "_verified",
          "type": "bool"
        }
      ],
      "name": "changeVerification",
      "outputs": [],
      "stateMutability": "nonpayable",
      "type": "function"
    },
    {
      "inputs": [
        {
          "internalType": "uint256",
          "name": "_tokenId",
          "type": "uint256"
        },
        {
          "internalType": "address payable",
          "name": "_newCreatorAddress",
          "type": "address"
        }
      ],
      "name": "changeAddress",
      "outputs": [],
      "stateMutability": "nonpayable",
      "type": "function"
    },
    {
      "inputs": [
        {
          "internalType": "uint256",
          "name": "_tokenId",
          "type": "uint256"
        },
        {
          "internalType": "string",
          "name": "_newName",
          "type": "string"
        }
      ],
      "name": "changeName",
      "outputs": [],
      "stateMutability": "nonpayable",
      "type": "function"
    },
    {
      "inputs": [
        {
          "internalType": "uint256",
          "name": "_tokenId",
          "type": "uint256"
        },
        {
          "internalType": "string",
          "name": "_newSymbol",
          "type": "string"
        }
      ],
      "name": "changeSymbol",
      "outputs": [],
      "stateMutability": "nonpayable",
      "type": "function"
    },
    {
      "inputs": [
        {
          "internalType": "uint256",
          "name": "_tokenId",
          "type": "uint256"
        },
        {
          "internalType": "string",
          "name": "_newDescription",
          "type": "string"
        }
      ],
      "name": "changeDescription",
      "outputs": [],
      "stateMutability": "nonpayable",
      "type": "function"
    }
  ],
  "bytecode": "0x60806040526001805560006002556000600355601460045565082f79cd900060055560b960065534801561003257600080fd5b5060006100436100e660201b60201c565b9050806000806101000a81548173ffffffffffffffffffffffffffffffffffffffff021916908373ffffffffffffffffffffffffffffffffffffffff1602179055508073ffffffffffffffffffffffffffffffffffffffff16600073ffffffffffffffffffffffffffffffffffffffff167f8be0079c531659141344cd1fd0a4f28419497f9722a3daafe3b4186f6b6457e060405160405180910390a3506100ee565b600033905090565b611c71806100fd6000396000f3fe608060405234801561001057600080fd5b50600436106101165760003560e01c8063c539c317116100a2578063de6a06ed11610071578063de6a06ed146102cd578063eb841759146102e9578063f1d0ef8114610305578063f2fde38b14610335578063f7374e2e1461035157610116565b8063c539c31714610243578063ce901d8a1461025f578063d56b72c714610295578063d7a5791a146102b157610116565b8063715018a6116100e9578063715018a61461019f5780638da5cb5b146101a957806392724afa146101c7578063bfb48c9c146101f7578063c39cbef11461022757610116565b806306e320f51461011b57806318892ae8146101375780631d5ad18b1461016757806351cff8d914610183575b600080fd5b6101356004803603810190610130919061160e565b61036d565b005b610151600480360381019061014c9190611521565b610414565b60405161015e9190611738565b60405180910390f35b610181600480360381019061017c919061158e565b610447565b005b61019d600480360381019061019891906113f9565b61051c565b005b6101a76105e2565b005b6101b161071c565b6040516101be9190611738565b60405180910390f35b6101e160048036038101906101dc91906114e1565b610745565b6040516101ee9190611817565b60405180910390f35b610211600480360381019061020c919061154e565b61076a565b60405161021e9190611817565b60405180910390f35b610241600480360381019061023c919061160e565b61078f565b005b61025d60048036038101906102589190611521565b610836565b005b61027960048036038101906102749190611521565b6108bc565b60405161028c9796959493929190611753565b60405180910390f35b6102af60048036038101906102aa9190611426565b610ad3565b005b6102cb60048036038101906102c69190611521565b610cef565b005b6102e760048036038101906102e2919061160e565b610d75565b005b61030360048036038101906102fe91906113f9565b610e1c565b005b61031f600480360381019061031a9190611521565b610eec565b60405161032c9190611817565b60405180910390f35b61034f600480360381019061034a91906113cc565b610f1b565b005b61036b600480360381019061036691906115ce565b6110c4565b005b826008600082815260200190815260200160002060009054906101000a900473ffffffffffffffffffffffffffffffffffffffff1673ffffffffffffffffffffffffffffffffffffffff163373ffffffffffffffffffffffffffffffffffffffff16146103d957600080fd5b8282600786815481106103ef576103ee611ada565b5b9060005260206000209060070201600201919061040d929190611189565b5050505050565b60086020528060005260406000206000915054906101000a900473ffffffffffffffffffffffffffffffffffffffff1681565b816008600082815260200190815260200160002060009054906101000a900473ffffffffffffffffffffffffffffffffffffffff1673ffffffffffffffffffffffffffffffffffffffff163373ffffffffffffffffffffffffffffffffffffffff16146104b357600080fd5b81600784815481106104c8576104c7611ada565b5b906000526020600020906007020160000160006101000a81548173ffffffffffffffffffffffffffffffffffffffff021916908373ffffffffffffffffffffffffffffffffffffffff160217905550505050565b610524611181565b73ffffffffffffffffffffffffffffffffffffffff1661054261071c565b73ffffffffffffffffffffffffffffffffffffffff1614610598576040517f08c379a000000000000000000000000000000000000000000000000000000000815260040161058f906117f7565b60405180910390fd5b8073ffffffffffffffffffffffffffffffffffffffff166108fc479081150290604051600060405180830381858888f193505050501580156105de573d6000803e3d6000fd5b5050565b6105ea611181565b73ffffffffffffffffffffffffffffffffffffffff1661060861071c565b73ffffffffffffffffffffffffffffffffffffffff161461065e576040517f08c379a0000000000000000000000000000000000000000000000000000000008152600401610655906117f7565b60405180910390fd5b600073ffffffffffffffffffffffffffffffffffffffff1660008054906101000a900473ffffffffffffffffffffffffffffffffffffffff1673ffffffffffffffffffffffffffffffffffffffff167f8be0079c531659141344cd1fd0a4f28419497f9722a3daafe3b4186f6b6457e060405160405180910390a360008060006101000a81548173ffffffffffffffffffffffffffffffffffffffff021916908373ffffffffffffffffffffffffffffffffffffffff160217905550565b60008060009054906101000a900473ffffffffffffffffffffffffffffffffffffffff16905090565b600b602052816000526040600020602052806000526040600020600091509150505481565b600a602052816000526040600020602052806000526040600020600091509150505481565b826008600082815260200190815260200160002060009054906101000a900473ffffffffffffffffffffffffffffffffffffffff1673ffffffffffffffffffffffffffffffffffffffff163373ffffffffffffffffffffffffffffffffffffffff16146107fb57600080fd5b82826007868154811061081157610810611ada565b5b9060005260206000209060070201600101919061082f929190611189565b5050505050565b61083e611181565b73ffffffffffffffffffffffffffffffffffffffff1661085c61071c565b73ffffffffffffffffffffffffffffffffffffffff16146108b2576040517f08c379a00000000000000000000000000000000000000000000000000000000081526004016108a9906117f7565b60405180910390fd5b8060048190555050565b600781815481106108cc57600080fd5b90600052602060002090600702016000915090508060000160009054906101000a900473ffffffffffffffffffffffffffffffffffffffff169080600101805461091590611a19565b80601f016020809104026020016040519081016040528092919081815260200182805461094190611a19565b801561098e5780601f106109635761010080835404028352916020019161098e565b820191906000526020600020905b81548152906001019060200180831161097157829003601f168201915b5050505050908060020180546109a390611a19565b80601f01602080910402602001604051908101604052809291908181526020018280546109cf90611a19565b8015610a1c5780601f106109f157610100808354040283529160200191610a1c565b820191906000526020600020905b8154815290600101906020018083116109ff57829003601f168201915b505050505090806003018054610a3190611a19565b80601f0160208091040260200160405190810160405280929190818152602001828054610a5d90611a19565b8015610aaa5780601f10610a7f57610100808354040283529160200191610aaa565b820191906000526020600020905b815481529060010190602001808311610a8d57829003601f168201915b5050505050908060040160009054906101000a900460ff16908060050154908060060154905087565b60076040518060e001604052808673ffffffffffffffffffffffffffffffffffffffff168152602001858152602001848152602001838152602001600015158152602001600081526020016000815250908060018154018082558091505060019003906000526020600020906007020160009091909190915060008201518160000160006101000a81548173ffffffffffffffffffffffffffffffffffffffff021916908373ffffffffffffffffffffffffffffffffffffffff1602179055506020820151816001019080519060200190610baf92919061120f565b506040820151816002019080519060200190610bcc92919061120f565b506060820151816003019080519060200190610be992919061120f565b5060808201518160040160006101000a81548160ff02191690831515021790555060a0820151816005015560c08201518160060155505060006001600780549050610c349190611937565b9050846008600083815260200190815260200160002060006101000a81548173ffffffffffffffffffffffffffffffffffffffff021916908373ffffffffffffffffffffffffffffffffffffffff160217905550600060096000838152602001908152602001600020819055507f3ef624c0f3fb7ad40b94c02078ea3e3a797dbfc21e921ee4bd2b8ad0ca6aa11381868686866000806000604051610ce0989796959493929190611832565b60405180910390a15050505050565b610cf7611181565b73ffffffffffffffffffffffffffffffffffffffff16610d1561071c565b73ffffffffffffffffffffffffffffffffffffffff1614610d6b576040517f08c379a0000000000000000000000000000000000000000000000000000000008152600401610d62906117f7565b60405180910390fd5b8060018190555050565b826008600082815260200190815260200160002060009054906101000a900473ffffffffffffffffffffffffffffffffffffffff1673ffffffffffffffffffffffffffffffffffffffff163373ffffffffffffffffffffffffffffffffffffffff1614610de157600080fd5b828260078681548110610df757610df6611ada565b5b90600052602060002090600702016003019190610e15929190611189565b5050505050565b610e24611181565b73ffffffffffffffffffffffffffffffffffffffff16610e4261071c565b73ffffffffffffffffffffffffffffffffffffffff1614610e98576040517f08c379a0000000000000000000000000000000000000000000000000000000008152600401610e8f906117f7565b60405180910390fd5b8073ffffffffffffffffffffffffffffffffffffffff166108fc6003549081150290604051600060405180830381858888f19350505050158015610ee0573d6000803e3d6000fd5b50600060038190555050565b600060078281548110610f0257610f01611ada565b5b9060005260206000209060070201600501549050919050565b610f23611181565b73ffffffffffffffffffffffffffffffffffffffff16610f4161071c565b73ffffffffffffffffffffffffffffffffffffffff1614610f97576040517f08c379a0000000000000000000000000000000000000000000000000000000008152600401610f8e906117f7565b60405180910390fd5b600073ffffffffffffffffffffffffffffffffffffffff168173ffffffffffffffffffffffffffffffffffffffff161415611007576040517f08c379a0000000000000000000000000000000000000000000000000000000008152600401610ffe906117d7565b60405180910390fd5b8073ffffffffffffffffffffffffffffffffffffffff1660008054906101000a900473ffffffffffffffffffffffffffffffffffffffff1673ffffffffffffffffffffffffffffffffffffffff167f8be0079c531659141344cd1fd0a4f28419497f9722a3daafe3b4186f6b6457e060405160405180910390a3806000806101000a81548173ffffffffffffffffffffffffffffffffffffffff021916908373ffffffffffffffffffffffffffffffffffffffff16021790555050565b6110cc611181565b73ffffffffffffffffffffffffffffffffffffffff166110ea61071c565b73ffffffffffffffffffffffffffffffffffffffff1614611140576040517f08c379a0000000000000000000000000000000000000000000000000000000008152600401611137906117f7565b60405180910390fd5b806007838154811061115557611154611ada565b5b906000526020600020906007020160040160006101000a81548160ff0219169083151502179055505050565b600033905090565b82805461119590611a19565b90600052602060002090601f0160209004810192826111b757600085556111fe565b82601f106111d057803560ff19168380011785556111fe565b828001600101855582156111fe579182015b828111156111fd5782358255916020019190600101906111e2565b5b50905061120b9190611295565b5090565b82805461121b90611a19565b90600052602060002090601f01602090048101928261123d5760008555611284565b82601f1061125657805160ff1916838001178555611284565b82800160010185558215611284579182015b82811115611283578251825591602001919060010190611268565b5b5090506112919190611295565b5090565b5b808211156112ae576000816000905550600101611296565b5090565b60006112c56112c0846118ea565b6118c5565b9050828152602081018484840111156112e1576112e0611b47565b5b6112ec8482856119d7565b509392505050565b60008135905061130381611bdf565b92915050565b60008135905061131881611bf6565b92915050565b60008135905061132d81611c0d565b92915050565b60008083601f84011261134957611348611b3d565b5b8235905067ffffffffffffffff81111561136657611365611b38565b5b60208301915083600182028301111561138257611381611b42565b5b9250929050565b600082601f83011261139e5761139d611b3d565b5b81356113ae8482602086016112b2565b91505092915050565b6000813590506113c681611c24565b92915050565b6000602082840312156113e2576113e1611b51565b5b60006113f0848285016112f4565b91505092915050565b60006020828403121561140f5761140e611b51565b5b600061141d84828501611309565b91505092915050565b600080600080608085870312156114405761143f611b51565b5b600061144e87828801611309565b945050602085013567ffffffffffffffff81111561146f5761146e611b4c565b5b61147b87828801611389565b935050604085013567ffffffffffffffff81111561149c5761149b611b4c565b5b6114a887828801611389565b925050606085013567ffffffffffffffff8111156114c9576114c8611b4c565b5b6114d587828801611389565b91505092959194509250565b600080604083850312156114f8576114f7611b51565b5b6000611506858286016112f4565b9250506020611517858286016113b7565b9150509250929050565b60006020828403121561153757611536611b51565b5b6000611545848285016113b7565b91505092915050565b6000806040838503121561156557611564611b51565b5b6000611573858286016113b7565b9250506020611584858286016112f4565b9150509250929050565b600080604083850312156115a5576115a4611b51565b5b60006115b3858286016113b7565b92505060206115c485828601611309565b9150509250929050565b600080604083850312156115e5576115e4611b51565b5b60006115f3858286016113b7565b92505060206116048582860161131e565b9150509250929050565b60008060006040848603121561162757611626611b51565b5b6000611635868287016113b7565b935050602084013567ffffffffffffffff81111561165657611655611b4c565b5b61166286828701611333565b92509250509250925092565b6116778161197d565b82525050565b6116868161196b565b82525050565b6116958161198f565b82525050565b6116a4816119c5565b82525050565b60006116b58261191b565b6116bf8185611926565b93506116cf8185602086016119e6565b6116d881611b56565b840191505092915050565b60006116f0602683611926565b91506116fb82611b67565b604082019050919050565b6000611713602083611926565b915061171e82611bb6565b602082019050919050565b611732816119bb565b82525050565b600060208201905061174d600083018461167d565b92915050565b600060e082019050611768600083018a61166e565b818103602083015261177a81896116aa565b9050818103604083015261178e81886116aa565b905081810360608301526117a281876116aa565b90506117b1608083018661168c565b6117be60a0830185611729565b6117cb60c0830184611729565b98975050505050505050565b600060208201905081810360008301526117f0816116e3565b9050919050565b6000602082019050818103600083015261181081611706565b9050919050565b600060208201905061182c6000830184611729565b92915050565b600061010082019050611848600083018b611729565b611855602083018a61166e565b818103604083015261186781896116aa565b9050818103606083015261187b81886116aa565b9050818103608083015261188f81876116aa565b905061189e60a083018661168c565b6118ab60c083018561169b565b6118b860e083018461169b565b9998505050505050505050565b60006118cf6118e0565b90506118db8282611a4b565b919050565b6000604051905090565b600067ffffffffffffffff82111561190557611904611b09565b5b61190e82611b56565b9050602081019050919050565b600081519050919050565b600082825260208201905092915050565b6000611942826119bb565b915061194d836119bb565b9250828210156119605761195f611a7c565b5b828203905092915050565b60006119768261199b565b9050919050565b60006119888261199b565b9050919050565b60008115159050919050565b600073ffffffffffffffffffffffffffffffffffffffff82169050919050565b6000819050919050565b60006119d0826119bb565b9050919050565b82818337600083830152505050565b60005b83811015611a045780820151818401526020810190506119e9565b83811115611a13576000848401525b50505050565b60006002820490506001821680611a3157607f821691505b60208210811415611a4557611a44611aab565b5b50919050565b611a5482611b56565b810181811067ffffffffffffffff82111715611a7357611a72611b09565b5b80604052505050565b7f4e487b7100000000000000000000000000000000000000000000000000000000600052601160045260246000fd5b7f4e487b7100000000000000000000000000000000000000000000000000000000600052602260045260246000fd5b7f4e487b7100000000000000000000000000000000000000000000000000000000600052603260045260246000fd5b7f4e487b7100000000000000000000000000000000000000000000000000000000600052604160045260246000fd5b600080fd5b600080fd5b600080fd5b600080fd5b600080fd5b600080fd5b6000601f19601f8301169050919050565b7f4f776e61626c653a206e6577206f776e657220697320746865207a65726f206160008201527f6464726573730000000000000000000000000000000000000000000000000000602082015250565b7f4f776e61626c653a2063616c6c6572206973206e6f7420746865206f776e6572600082015250565b611be88161196b565b8114611bf357600080fd5b50565b611bff8161197d565b8114611c0a57600080fd5b50565b611c168161198f565b8114611c2157600080fd5b50565b611c2d816119bb565b8114611c3857600080fd5b5056fea264697066735822122067fba961e941bcdef44ffe2251d1f836e6f8fa62ee413faa585c2acd9e757a3764736f6c63430008060033",
  "immutableReferences": {},
  "source": "// SPDX-License-Identifier: MIT\npragma solidity ^0.8.0;\n\nimport \"./creatortokenfactory.sol\";\n\ncontract CreatorTokenHelper is CreatorTokenFactory {\n\n\t// Modifier checking whether user is creator of the token\n\tmodifier onlyCreatorOf(uint _tokenId) {\n\t\trequire(msg.sender == tokenToCreator[_tokenId]);\n\t\t_;\n\t}\n\n\t// Ownable function allowing for withdrawal\n\tfunction withdraw(address payable _owner) external onlyOwner {\n\t  _owner.transfer(address(this).balance);\n\t}\n\n\t// Payout platform fees owed to owner (might opt to call this daily)\n\tfunction payoutPlatformFees(address payable _owner) external onlyOwner {\n\t\t_owner.transfer(platformFeesOwed);\n\t\t// Reset platformFeesOwed to zero after payout\n\t\tplatformFeesOwed = 0;\n\t}\n\n\t// Allow owner to change platformFee\n\tfunction changePlatformFee(uint _newPlatformFee) external onlyOwner {\n\t\tplatformFee = _newPlatformFee;\n\t}\n\n\t// Allow owner to change profit_margin\n\tfunction changeProfitMargin(uint _newProfitMargin) external onlyOwner {\n\t\tprofitMargin = _newProfitMargin;\n\t}\n\n\t// Allow owner to verify (or undo verification) of a CreatorToken\n\tfunction changeVerification(uint _tokenId, bool _verified) external onlyOwner {\n\t\tcreatorTokens[_tokenId].verified = _verified;\n\t}\n\n\t// Allow token creator to change their address\n\tfunction changeAddress(uint _tokenId, address payable _newCreatorAddress) external onlyCreatorOf(_tokenId) {\n\t\tcreatorTokens[_tokenId].creatorAddress = _newCreatorAddress;\n\t}\n\n\t// Allow token creator to change the name of their token\n\tfunction changeName(uint _tokenId, string calldata _newName) external onlyCreatorOf(_tokenId) {\n\t\tcreatorTokens[_tokenId].name = _newName;\n\t}\n\n\t// Allow token creator to change the symbol of their token\n\tfunction changeSymbol(uint _tokenId, string calldata _newSymbol) external onlyCreatorOf(_tokenId) {\n\t\tcreatorTokens[_tokenId].symbol = _newSymbol;\n\t}\n\n\t// Allow token creator to change the description of their token\n\tfunction changeDescription(uint _tokenId, string calldata _newDescription) external onlyCreatorOf(_tokenId) {\n\t\tcreatorTokens[_tokenId].description = _newDescription;\n\t}\n}",
  "sourcePath": "/Users/kamilalizaisadik/DeFi/Dynamic Automated Market Maker/damm_solidity/contracts/creatortokenhelper.sol",
  "compiler": {
    "name": "solc",
    "version": "0.8.6+commit.11564f7e.Emscripten.clang"
  },
  "schemaVersion": "3.4.1",
  "updatedAt": "2021-07-10T12:51:31.069Z",
  "devdoc": {
    "kind": "dev",
    "methods": {
      "owner()": {
        "details": "Returns the address of the current owner."
      },
      "renounceOwnership()": {
        "details": "Leaves the contract without owner. It will not be possible to call `onlyOwner` functions anymore. Can only be called by the current owner. NOTE: Renouncing ownership will leave the contract without an owner, thereby removing any functionality that is only available to the owner."
      },
      "transferOwnership(address)": {
        "details": "Transfers ownership of the contract to a new account (`newOwner`). Can only be called by the current owner."
      }
    },
    "version": 1
  },
  "userdoc": {
    "kind": "user",
    "methods": {},
    "version": 1
  }
}