{
  "contractName": "CreatorTokenComputation",
  "abi": [
    {
      "inputs": [
        {
          "internalType": "string",
          "name": "uri",
          "type": "string"
        }
      ],
      "stateMutability": "nonpayable",
      "type": "constructor"
    },
    {
      "anonymous": false,
      "inputs": [
        {
          "indexed": true,
          "internalType": "address",
          "name": "account",
          "type": "address"
        },
        {
          "indexed": true,
          "internalType": "address",
          "name": "operator",
          "type": "address"
        },
        {
          "indexed": false,
          "internalType": "bool",
          "name": "approved",
          "type": "bool"
        }
      ],
      "name": "ApprovalForAll",
      "type": "event"
    },
    {
      "anonymous": false,
      "inputs": [
        {
          "indexed": false,
          "internalType": "uint256",
          "name": "tokenId",
          "type": "uint256"
        },
        {
          "indexed": false,
          "internalType": "address payable",
          "name": "creatorAddress",
          "type": "address"
        },
        {
          "indexed": false,
          "internalType": "string",
          "name": "name",
          "type": "string"
        },
        {
          "indexed": false,
          "internalType": "string",
          "name": "symbol",
          "type": "string"
        },
        {
          "indexed": false,
          "internalType": "string",
          "name": "description",
          "type": "string"
        },
        {
          "indexed": false,
          "internalType": "bool",
          "name": "verified",
          "type": "bool"
        },
        {
          "indexed": false,
          "internalType": "uint256",
          "name": "outstanding",
          "type": "uint256"
        },
        {
          "indexed": false,
          "internalType": "uint256",
          "name": "maxSupply",
          "type": "uint256"
        }
      ],
      "name": "NewCreatorToken",
      "type": "event"
    },
    {
      "anonymous": false,
      "inputs": [
        {
          "indexed": true,
          "internalType": "address",
          "name": "previousOwner",
          "type": "address"
        },
        {
          "indexed": true,
          "internalType": "address",
          "name": "newOwner",
          "type": "address"
        }
      ],
      "name": "OwnershipTransferred",
      "type": "event"
    },
    {
      "anonymous": false,
      "inputs": [
        {
          "indexed": false,
          "internalType": "address",
          "name": "account",
          "type": "address"
        }
      ],
      "name": "Paused",
      "type": "event"
    },
    {
      "anonymous": false,
      "inputs": [
        {
          "indexed": true,
          "internalType": "bytes32",
          "name": "role",
          "type": "bytes32"
        },
        {
          "indexed": true,
          "internalType": "bytes32",
          "name": "previousAdminRole",
          "type": "bytes32"
        },
        {
          "indexed": true,
          "internalType": "bytes32",
          "name": "newAdminRole",
          "type": "bytes32"
        }
      ],
      "name": "RoleAdminChanged",
      "type": "event"
    },
    {
      "anonymous": false,
      "inputs": [
        {
          "indexed": true,
          "internalType": "bytes32",
          "name": "role",
          "type": "bytes32"
        },
        {
          "indexed": true,
          "internalType": "address",
          "name": "account",
          "type": "address"
        },
        {
          "indexed": true,
          "internalType": "address",
          "name": "sender",
          "type": "address"
        }
      ],
      "name": "RoleGranted",
      "type": "event"
    },
    {
      "anonymous": false,
      "inputs": [
        {
          "indexed": true,
          "internalType": "bytes32",
          "name": "role",
          "type": "bytes32"
        },
        {
          "indexed": true,
          "internalType": "address",
          "name": "account",
          "type": "address"
        },
        {
          "indexed": true,
          "internalType": "address",
          "name": "sender",
          "type": "address"
        }
      ],
      "name": "RoleRevoked",
      "type": "event"
    },
    {
      "anonymous": false,
      "inputs": [
        {
          "indexed": true,
          "internalType": "address",
          "name": "operator",
          "type": "address"
        },
        {
          "indexed": true,
          "internalType": "address",
          "name": "from",
          "type": "address"
        },
        {
          "indexed": true,
          "internalType": "address",
          "name": "to",
          "type": "address"
        },
        {
          "indexed": false,
          "internalType": "uint256[]",
          "name": "ids",
          "type": "uint256[]"
        },
        {
          "indexed": false,
          "internalType": "uint256[]",
          "name": "values",
          "type": "uint256[]"
        }
      ],
      "name": "TransferBatch",
      "type": "event"
    },
    {
      "anonymous": false,
      "inputs": [
        {
          "indexed": true,
          "internalType": "address",
          "name": "operator",
          "type": "address"
        },
        {
          "indexed": true,
          "internalType": "address",
          "name": "from",
          "type": "address"
        },
        {
          "indexed": true,
          "internalType": "address",
          "name": "to",
          "type": "address"
        },
        {
          "indexed": false,
          "internalType": "uint256",
          "name": "id",
          "type": "uint256"
        },
        {
          "indexed": false,
          "internalType": "uint256",
          "name": "value",
          "type": "uint256"
        }
      ],
      "name": "TransferSingle",
      "type": "event"
    },
    {
      "anonymous": false,
      "inputs": [
        {
          "indexed": false,
          "internalType": "string",
          "name": "value",
          "type": "string"
        },
        {
          "indexed": true,
          "internalType": "uint256",
          "name": "id",
          "type": "uint256"
        }
      ],
      "name": "URI",
      "type": "event"
    },
    {
      "anonymous": false,
      "inputs": [
        {
          "indexed": false,
          "internalType": "address",
          "name": "account",
          "type": "address"
        }
      ],
      "name": "Unpaused",
      "type": "event"
    },
    {
      "inputs": [],
      "name": "DEFAULT_ADMIN_ROLE",
      "outputs": [
        {
          "internalType": "bytes32",
          "name": "",
          "type": "bytes32"
        }
      ],
      "stateMutability": "view",
      "type": "function"
    },
    {
      "inputs": [],
      "name": "MINTER_ROLE",
      "outputs": [
        {
          "internalType": "bytes32",
          "name": "",
          "type": "bytes32"
        }
      ],
      "stateMutability": "view",
      "type": "function"
    },
    {
      "inputs": [],
      "name": "PAUSER_ROLE",
      "outputs": [
        {
          "internalType": "bytes32",
          "name": "",
          "type": "bytes32"
        }
      ],
      "stateMutability": "view",
      "type": "function"
    },
    {
      "inputs": [
        {
          "internalType": "uint256",
          "name": "_proceedsRequired",
          "type": "uint256"
        }
      ],
      "name": "_feeProceeds",
      "outputs": [
        {
          "internalType": "uint256",
          "name": "",
          "type": "uint256"
        }
      ],
      "stateMutability": "view",
      "type": "function"
    },
    {
      "inputs": [
        {
          "internalType": "address",
          "name": "_account",
          "type": "address"
        },
        {
          "internalType": "uint256",
          "name": "_id",
          "type": "uint256"
        }
      ],
      "name": "balanceOf",
      "outputs": [
        {
          "internalType": "uint256",
          "name": "",
          "type": "uint256"
        }
      ],
      "stateMutability": "view",
      "type": "function"
    },
    {
      "inputs": [
        {
          "internalType": "address[]",
          "name": "_accounts",
          "type": "address[]"
        },
        {
          "internalType": "uint256[]",
          "name": "_ids",
          "type": "uint256[]"
        }
      ],
      "name": "balanceOfBatch",
      "outputs": [
        {
          "internalType": "uint256[]",
          "name": "",
          "type": "uint256[]"
        }
      ],
      "stateMutability": "view",
      "type": "function"
    },
    {
      "inputs": [
        {
          "internalType": "address",
          "name": "_account",
          "type": "address"
        },
        {
          "internalType": "uint256",
          "name": "_id",
          "type": "uint256"
        },
        {
          "internalType": "uint256",
          "name": "_amount",
          "type": "uint256"
        }
      ],
      "name": "burn",
      "outputs": [],
      "stateMutability": "nonpayable",
      "type": "function"
    },
    {
      "inputs": [
        {
          "internalType": "address",
          "name": "_account",
          "type": "address"
        },
        {
          "internalType": "uint256[]",
          "name": "_ids",
          "type": "uint256[]"
        },
        {
          "internalType": "uint256[]",
          "name": "_amounts",
          "type": "uint256[]"
        }
      ],
      "name": "burnBatch",
      "outputs": [],
      "stateMutability": "nonpayable",
      "type": "function"
    },
    {
      "inputs": [
        {
          "internalType": "uint256",
          "name": "_tokenId",
          "type": "uint256"
        },
        {
          "internalType": "address payable",
          "name": "_newCreatorAddress",
          "type": "address"
        }
      ],
      "name": "changeAddress",
      "outputs": [],
      "stateMutability": "nonpayable",
      "type": "function"
    },
    {
      "inputs": [
        {
          "internalType": "uint256",
          "name": "_tokenId",
          "type": "uint256"
        },
        {
          "internalType": "string",
          "name": "_newDescription",
          "type": "string"
        }
      ],
      "name": "changeDescription",
      "outputs": [],
      "stateMutability": "nonpayable",
      "type": "function"
    },
    {
      "inputs": [
        {
          "internalType": "uint256",
          "name": "_tokenId",
          "type": "uint256"
        },
        {
          "internalType": "string",
          "name": "_newName",
          "type": "string"
        }
      ],
      "name": "changeName",
      "outputs": [],
      "stateMutability": "nonpayable",
      "type": "function"
    },
    {
      "inputs": [
        {
          "internalType": "uint256",
          "name": "_newPlatformFee",
          "type": "uint256"
        }
      ],
      "name": "changePlatformFee",
      "outputs": [],
      "stateMutability": "nonpayable",
      "type": "function"
    },
    {
      "inputs": [
        {
          "internalType": "uint256",
          "name": "_newProfitMargin",
          "type": "uint256"
        }
      ],
      "name": "changeProfitMargin",
      "outputs": [],
      "stateMutability": "nonpayable",
      "type": "function"
    },
    {
      "inputs": [
        {
          "internalType": "uint256",
          "name": "_tokenId",
          "type": "uint256"
        },
        {
          "internalType": "string",
          "name": "_newSymbol",
          "type": "string"
        }
      ],
      "name": "changeSymbol",
      "outputs": [],
      "stateMutability": "nonpayable",
      "type": "function"
    },
    {
      "inputs": [
        {
          "internalType": "uint256",
          "name": "_tokenId",
          "type": "uint256"
        },
        {
          "internalType": "bool",
          "name": "_verified",
          "type": "bool"
        }
      ],
      "name": "changeVerification",
      "outputs": [],
      "stateMutability": "nonpayable",
      "type": "function"
    },
    {
      "inputs": [
        {
          "internalType": "address payable",
          "name": "_creatorAddress",
          "type": "address"
        },
        {
          "internalType": "string",
          "name": "_name",
          "type": "string"
        },
        {
          "internalType": "string",
          "name": "_symbol",
          "type": "string"
        },
        {
          "internalType": "string",
          "name": "_description",
          "type": "string"
        }
      ],
      "name": "createCreatorToken",
      "outputs": [],
      "stateMutability": "nonpayable",
      "type": "function"
    },
    {
      "inputs": [
        {
          "internalType": "uint256",
          "name": "",
          "type": "uint256"
        }
      ],
      "name": "creatorTokens",
      "outputs": [
        {
          "internalType": "address payable",
          "name": "creatorAddress",
          "type": "address"
        },
        {
          "internalType": "string",
          "name": "name",
          "type": "string"
        },
        {
          "internalType": "string",
          "name": "symbol",
          "type": "string"
        },
        {
          "internalType": "string",
          "name": "description",
          "type": "string"
        },
        {
          "internalType": "bool",
          "name": "verified",
          "type": "bool"
        },
        {
          "internalType": "uint256",
          "name": "outstanding",
          "type": "uint256"
        },
        {
          "internalType": "uint256",
          "name": "maxSupply",
          "type": "uint256"
        }
      ],
      "stateMutability": "view",
      "type": "function"
    },
    {
      "inputs": [
        {
          "internalType": "bytes32",
          "name": "role",
          "type": "bytes32"
        }
      ],
      "name": "getRoleAdmin",
      "outputs": [
        {
          "internalType": "bytes32",
          "name": "",
          "type": "bytes32"
        }
      ],
      "stateMutability": "view",
      "type": "function"
    },
    {
      "inputs": [
        {
          "internalType": "bytes32",
          "name": "role",
          "type": "bytes32"
        },
        {
          "internalType": "uint256",
          "name": "index",
          "type": "uint256"
        }
      ],
      "name": "getRoleMember",
      "outputs": [
        {
          "internalType": "address",
          "name": "",
          "type": "address"
        }
      ],
      "stateMutability": "view",
      "type": "function"
    },
    {
      "inputs": [
        {
          "internalType": "bytes32",
          "name": "role",
          "type": "bytes32"
        }
      ],
      "name": "getRoleMemberCount",
      "outputs": [
        {
          "internalType": "uint256",
          "name": "",
          "type": "uint256"
        }
      ],
      "stateMutability": "view",
      "type": "function"
    },
    {
      "inputs": [
        {
          "internalType": "bytes32",
          "name": "role",
          "type": "bytes32"
        },
        {
          "internalType": "address",
          "name": "account",
          "type": "address"
        }
      ],
      "name": "grantRole",
      "outputs": [],
      "stateMutability": "nonpayable",
      "type": "function"
    },
    {
      "inputs": [
        {
          "internalType": "bytes32",
          "name": "role",
          "type": "bytes32"
        },
        {
          "internalType": "address",
          "name": "account",
          "type": "address"
        }
      ],
      "name": "hasRole",
      "outputs": [
        {
          "internalType": "bool",
          "name": "",
          "type": "bool"
        }
      ],
      "stateMutability": "view",
      "type": "function"
    },
    {
      "inputs": [
        {
          "internalType": "address",
          "name": "_account",
          "type": "address"
        },
        {
          "internalType": "address",
          "name": "_operator",
          "type": "address"
        }
      ],
      "name": "isApprovedForAll",
      "outputs": [
        {
          "internalType": "bool",
          "name": "",
          "type": "bool"
        }
      ],
      "stateMutability": "view",
      "type": "function"
    },
    {
      "inputs": [
        {
          "internalType": "address",
          "name": "_to",
          "type": "address"
        },
        {
          "internalType": "uint256",
          "name": "_id",
          "type": "uint256"
        },
        {
          "internalType": "uint256",
          "name": "_amount",
          "type": "uint256"
        },
        {
          "internalType": "bytes",
          "name": "_data",
          "type": "bytes"
        }
      ],
      "name": "mint",
      "outputs": [],
      "stateMutability": "nonpayable",
      "type": "function"
    },
    {
      "inputs": [
        {
          "internalType": "address",
          "name": "_to",
          "type": "address"
        },
        {
          "internalType": "uint256[]",
          "name": "_ids",
          "type": "uint256[]"
        },
        {
          "internalType": "uint256[]",
          "name": "_amounts",
          "type": "uint256[]"
        },
        {
          "internalType": "bytes",
          "name": "data",
          "type": "bytes"
        }
      ],
      "name": "mintBatch",
      "outputs": [],
      "stateMutability": "nonpayable",
      "type": "function"
    },
    {
      "inputs": [],
      "name": "owner",
      "outputs": [
        {
          "internalType": "address",
          "name": "",
          "type": "address"
        }
      ],
      "stateMutability": "view",
      "type": "function"
    },
    {
      "inputs": [],
      "name": "pause",
      "outputs": [],
      "stateMutability": "nonpayable",
      "type": "function"
    },
    {
      "inputs": [],
      "name": "paused",
      "outputs": [
        {
          "internalType": "bool",
          "name": "",
          "type": "bool"
        }
      ],
      "stateMutability": "view",
      "type": "function"
    },
    {
      "inputs": [
        {
          "internalType": "address payable",
          "name": "_owner",
          "type": "address"
        }
      ],
      "name": "payoutPlatformFees",
      "outputs": [],
      "stateMutability": "nonpayable",
      "type": "function"
    },
    {
      "inputs": [],
      "name": "renounceOwnership",
      "outputs": [],
      "stateMutability": "nonpayable",
      "type": "function"
    },
    {
      "inputs": [
        {
          "internalType": "bytes32",
          "name": "role",
          "type": "bytes32"
        },
        {
          "internalType": "address",
          "name": "account",
          "type": "address"
        }
      ],
      "name": "renounceRole",
      "outputs": [],
      "stateMutability": "nonpayable",
      "type": "function"
    },
    {
      "inputs": [
        {
          "internalType": "bytes32",
          "name": "role",
          "type": "bytes32"
        },
        {
          "internalType": "address",
          "name": "account",
          "type": "address"
        }
      ],
      "name": "revokeRole",
      "outputs": [],
      "stateMutability": "nonpayable",
      "type": "function"
    },
    {
      "inputs": [
        {
          "internalType": "address",
          "name": "_from",
          "type": "address"
        },
        {
          "internalType": "address",
          "name": "_to",
          "type": "address"
        },
        {
          "internalType": "uint256[]",
          "name": "_ids",
          "type": "uint256[]"
        },
        {
          "internalType": "uint256[]",
          "name": "_amounts",
          "type": "uint256[]"
        },
        {
          "internalType": "bytes",
          "name": "data",
          "type": "bytes"
        }
      ],
      "name": "safeBatchTransferFrom",
      "outputs": [],
      "stateMutability": "nonpayable",
      "type": "function"
    },
    {
      "inputs": [
        {
          "internalType": "address",
          "name": "_from",
          "type": "address"
        },
        {
          "internalType": "address",
          "name": "_to",
          "type": "address"
        },
        {
          "internalType": "uint256",
          "name": "_id",
          "type": "uint256"
        },
        {
          "internalType": "uint256",
          "name": "_amount",
          "type": "uint256"
        },
        {
          "internalType": "bytes",
          "name": "_data",
          "type": "bytes"
        }
      ],
      "name": "safeTransferFrom",
      "outputs": [],
      "stateMutability": "nonpayable",
      "type": "function"
    },
    {
      "inputs": [
        {
          "internalType": "address",
          "name": "_operator",
          "type": "address"
        },
        {
          "internalType": "bool",
          "name": "_approved",
          "type": "bool"
        }
      ],
      "name": "setApprovalForAll",
      "outputs": [],
      "stateMutability": "nonpayable",
      "type": "function"
    },
    {
      "inputs": [
        {
          "internalType": "bytes4",
          "name": "interfaceId",
          "type": "bytes4"
        }
      ],
      "name": "supportsInterface",
      "outputs": [
        {
          "internalType": "bool",
          "name": "",
          "type": "bool"
        }
      ],
      "stateMutability": "view",
      "type": "function"
    },
    {
      "inputs": [
        {
          "internalType": "uint256",
          "name": "",
          "type": "uint256"
        },
        {
          "internalType": "address",
          "name": "",
          "type": "address"
        }
      ],
      "name": "tokenHoldership",
      "outputs": [
        {
          "internalType": "uint256",
          "name": "",
          "type": "uint256"
        }
      ],
      "stateMutability": "view",
      "type": "function"
    },
    {
      "inputs": [
        {
          "internalType": "uint256",
          "name": "",
          "type": "uint256"
        }
      ],
      "name": "tokenToCreator",
      "outputs": [
        {
          "internalType": "address",
          "name": "",
          "type": "address"
        }
      ],
      "stateMutability": "view",
      "type": "function"
    },
    {
      "inputs": [
        {
          "internalType": "address",
          "name": "newOwner",
          "type": "address"
        }
      ],
      "name": "transferOwnership",
      "outputs": [],
      "stateMutability": "nonpayable",
      "type": "function"
    },
    {
      "inputs": [],
      "name": "unpause",
      "outputs": [],
      "stateMutability": "nonpayable",
      "type": "function"
    },
    {
      "inputs": [
        {
          "internalType": "uint256",
          "name": "",
          "type": "uint256"
        }
      ],
      "name": "uri",
      "outputs": [
        {
          "internalType": "string",
          "name": "",
          "type": "string"
        }
      ],
      "stateMutability": "view",
      "type": "function"
    },
    {
      "inputs": [
        {
          "internalType": "address",
          "name": "",
          "type": "address"
        },
        {
          "internalType": "uint256",
          "name": "",
          "type": "uint256"
        }
      ],
      "name": "userToHoldings",
      "outputs": [
        {
          "internalType": "uint256",
          "name": "",
          "type": "uint256"
        }
      ],
      "stateMutability": "view",
      "type": "function"
    },
    {
      "inputs": [
        {
          "internalType": "address payable",
          "name": "_owner",
          "type": "address"
        }
      ],
      "name": "withdraw",
      "outputs": [],
      "stateMutability": "nonpayable",
      "type": "function"
    },
    {
      "inputs": [
        {
          "internalType": "uint256",
          "name": "_tokenId",
          "type": "uint256"
        },
        {
          "internalType": "uint256",
          "name": "_amount",
          "type": "uint256"
        }
      ],
      "name": "_totalProceeds",
      "outputs": [
        {
          "internalType": "uint256",
          "name": "",
          "type": "uint256"
        }
      ],
      "stateMutability": "view",
      "type": "function"
    },
    {
      "inputs": [
        {
          "internalType": "uint256",
          "name": "_tokenId",
          "type": "uint256"
        },
        {
          "internalType": "uint256",
          "name": "_amount",
          "type": "uint256"
        }
      ],
      "name": "_buyProceeds",
      "outputs": [
        {
          "internalType": "uint256",
          "name": "",
          "type": "uint256"
        }
      ],
      "stateMutability": "view",
      "type": "function"
    }
  ],
  "bytecode": "0x60806040526001805560006002556000600355601460045565082f79cd900060055560b96006553480156200003357600080fd5b5060405162005d2038038062005d208339818101604052810190620000599190620005ce565b8080808080600062000070620001ec60201b60201c565b9050806000806101000a81548173ffffffffffffffffffffffffffffffffffffffff021916908373ffffffffffffffffffffffffffffffffffffffff1602179055508073ffffffffffffffffffffffffffffffffffffffff16600073ffffffffffffffffffffffffffffffffffffffff167f8be0079c531659141344cd1fd0a4f28419497f9722a3daafe3b4186f6b6457e060405160405180910390a3506200011f81620001f460201b60201c565b506000601260006101000a81548160ff0219169083151502179055506200015f6000801b62000153620001ec60201b60201c565b6200021060201b60201c565b620001a07f9f2df0fed2c77648de5860a4cc508cd0818c85b8b8a1ab4ceeef8d981c8956a662000194620001ec60201b60201c565b6200021060201b60201c565b620001e17f65d7a28e3265b37a6474929f336521b332c1681b933f6cb9f3376673440d862a620001d5620001ec60201b60201c565b6200021060201b60201c565b5050505050620007a3565b600033905090565b80601190805190602001906200020c929190620004a0565b5050565b6200022782826200025860201b62002a4c1760201c565b6200025381600e60008581526020019081526020016000206200026e60201b62002a5a1790919060201c565b505050565b6200026a8282620002a660201b60201c565b5050565b60006200029e836000018373ffffffffffffffffffffffffffffffffffffffff1660001b6200039860201b60201c565b905092915050565b620002b882826200041260201b60201c565b62000394576001600d600084815260200190815260200160002060000160008373ffffffffffffffffffffffffffffffffffffffff1673ffffffffffffffffffffffffffffffffffffffff16815260200190815260200160002060006101000a81548160ff02191690831515021790555062000339620001ec60201b60201c565b73ffffffffffffffffffffffffffffffffffffffff168173ffffffffffffffffffffffffffffffffffffffff16837f2f8788117e7eff1d82e926ec794901d17c78024a50270940304540a733656f0d60405160405180910390a45b5050565b6000620003ac83836200047d60201b60201c565b620004075782600001829080600181540180825580915050600190039060005260206000200160009091909190915055826000018054905083600101600084815260200190815260200160002081905550600190506200040c565b600090505b92915050565b6000600d600084815260200190815260200160002060000160008373ffffffffffffffffffffffffffffffffffffffff1673ffffffffffffffffffffffffffffffffffffffff16815260200190815260200160002060009054906101000a900460ff16905092915050565b600080836001016000848152602001908152602001600020541415905092915050565b828054620004ae90620006b4565b90600052602060002090601f016020900481019282620004d257600085556200051e565b82601f10620004ed57805160ff19168380011785556200051e565b828001600101855582156200051e579182015b828111156200051d57825182559160200191906001019062000500565b5b5090506200052d919062000531565b5090565b5b808211156200054c57600081600090555060010162000532565b5090565b600062000567620005618462000648565b6200061f565b90508281526020810184848401111562000586576200058562000783565b5b620005938482856200067e565b509392505050565b600082601f830112620005b357620005b26200077e565b5b8151620005c584826020860162000550565b91505092915050565b600060208284031215620005e757620005e66200078d565b5b600082015167ffffffffffffffff81111562000608576200060762000788565b5b62000616848285016200059b565b91505092915050565b60006200062b6200063e565b9050620006398282620006ea565b919050565b6000604051905090565b600067ffffffffffffffff8211156200066657620006656200074f565b5b620006718262000792565b9050602081019050919050565b60005b838110156200069e57808201518184015260208101905062000681565b83811115620006ae576000848401525b50505050565b60006002820490506001821680620006cd57607f821691505b60208210811415620006e457620006e362000720565b5b50919050565b620006f58262000792565b810181811067ffffffffffffffff821117156200071757620007166200074f565b5b80604052505050565b7f4e487b7100000000000000000000000000000000000000000000000000000000600052602260045260246000fd5b7f4e487b7100000000000000000000000000000000000000000000000000000000600052604160045260246000fd5b600080fd5b600080fd5b600080fd5b600080fd5b6000601f19601f8301169050919050565b61556d80620007b36000396000f3fe608060405234801561001057600080fd5b506004361061027e5760003560e01c80639010d07c1161015c578063d5391393116100ce578063e985e9c511610087578063e985e9c5146107cd578063eb841759146107fd578063f242432a14610819578063f2fde38b14610835578063f5298aca14610851578063f7374e2e1461086d5761027e565b8063d539139314610721578063d547741f1461073f578063d56b72c71461075b578063d7a5791a14610777578063de6a06ed14610793578063e63ab1e9146107af5761027e565b8063ba111a0511610120578063ba111a0514610623578063bfb48c9c14610653578063c39cbef114610683578063c539c3171461069f578063ca15c873146106bb578063ce901d8a146106eb5761027e565b80639010d07c1461055957806391d148541461058957806392724afa146105b9578063a217fddf146105e9578063a22cb465146106075761027e565b806336568abe116101f55780635c975abb116101b95780635c975abb146104d15780636b20c454146104ef578063715018a61461050b578063731133e9146105155780638456cb59146105315780638da5cb5b1461053b5761027e565b806336568abe1461042f5780633f4ba83a1461044b5780634e1273f4146104555780634fe477d81461048557806351cff8d9146104b55761027e565b80631d5ad18b116102475780631d5ad18b1461035f5780631f7fdffa1461037b578063248a9ca3146103975780632eb2c2d6146103c75780632f2ff15d146103e357806335a8ae21146103ff5761027e565b8062fdd58e1461028357806301ffc9a7146102b357806306e320f5146102e35780630e89341c146102ff57806318892ae81461032f575b600080fd5b61029d600480360381019061029891906142b8565b610889565b6040516102aa9190614c2a565b60405180910390f35b6102cd60048036038101906102c891906144fc565b6108e4565b6040516102da9190614ab2565b60405180910390f35b6102fd60048036038101906102f89190614616565b6108f6565b005b61031960048036038101906103149190614529565b61099d565b6040516103269190614ae8565b60405180910390f35b61034960048036038101906103449190614529565b610a31565b60405161035691906149ba565b60405180910390f35b61037960048036038101906103749190614596565b610a64565b005b610395600480360381019061039091906141bd565b610b39565b005b6103b160048036038101906103ac919061444f565b610d84565b6040516103be9190614acd565b60405180910390f35b6103e160048036038101906103dc9190613fcc565b610da4565b005b6103fd60048036038101906103f8919061447c565b610f7f565b005b61041960048036038101906104149190614676565b610fb3565b6040516104269190614c2a565b60405180910390f35b6104496004803603810190610444919061447c565b610feb565b005b61045361101f565b005b61046f600480360381019061046a91906143ce565b611099565b60405161047c9190614a59565b60405180910390f35b61049f600480360381019061049a9190614676565b6111c9565b6040516104ac9190614c2a565b60405180910390f35b6104cf60048036038101906104ca9190613ea4565b6113d6565b005b6104d961149c565b6040516104e69190614ab2565b60405180910390f35b61050960048036038101906105049190614132565b6114b3565b005b6105136116fd565b005b61052f600480360381019061052a919061434b565b611837565b005b6105396119c6565b005b610543611a40565b60405161055091906149ba565b60405180910390f35b610573600480360381019061056e91906144bc565b611a69565b60405161058091906149ba565b60405180910390f35b6105a3600480360381019061059e919061447c565b611a98565b6040516105b09190614ab2565b60405180910390f35b6105d360048036038101906105ce91906142b8565b611b03565b6040516105e09190614c2a565b60405180910390f35b6105f1611b28565b6040516105fe9190614acd565b60405180910390f35b610621600480360381019061061c9190614278565b611b2f565b005b61063d60048036038101906106389190614529565b611c2c565b60405161064a9190614c2a565b60405180910390f35b61066d60048036038101906106689190614556565b611c4f565b60405161067a9190614c2a565b60405180910390f35b61069d60048036038101906106989190614616565b611c74565b005b6106b960048036038101906106b49190614529565b611d1b565b005b6106d560048036038101906106d0919061444f565b611da1565b6040516106e29190614c2a565b60405180910390f35b61070560048036038101906107009190614529565b611dc5565b60405161071897969594939291906149d5565b60405180910390f35b610729611fdc565b6040516107369190614acd565b60405180910390f35b6107596004803603810190610754919061447c565b612000565b005b61077560048036038101906107709190613ed1565b612034565b005b610791600480360381019061078c9190614529565b612250565b005b6107ad60048036038101906107a89190614616565b6122d6565b005b6107b761237d565b6040516107c49190614acd565b60405180910390f35b6107e760048036038101906107e29190613f8c565b6123a1565b6040516107f49190614ab2565b60405180910390f35b61081760048036038101906108129190613ea4565b612435565b005b610833600480360381019061082e919061409b565b612505565b005b61084f600480360381019061084a9190613e77565b612658565b005b61086b600480360381019061086691906142f8565b612801565b005b610887600480360381019061088291906145d6565b61298f565b005b6000600a600083815260200190815260200160002060008473ffffffffffffffffffffffffffffffffffffffff1673ffffffffffffffffffffffffffffffffffffffff16815260200190815260200160002054905092915050565b60006108ef82612a8a565b9050919050565b826008600082815260200190815260200160002060009054906101000a900473ffffffffffffffffffffffffffffffffffffffff1673ffffffffffffffffffffffffffffffffffffffff163373ffffffffffffffffffffffffffffffffffffffff161461096257600080fd5b8282600786815481106109785761097761519f565b5b90600052602060002090600702016002019190610996929190613a50565b5050505050565b6060601180546109ac90615037565b80601f01602080910402602001604051908101604052809291908181526020018280546109d890615037565b8015610a255780601f106109fa57610100808354040283529160200191610a25565b820191906000526020600020905b815481529060010190602001808311610a0857829003601f168201915b50505050509050919050565b60086020528060005260406000206000915054906101000a900473ffffffffffffffffffffffffffffffffffffffff1681565b816008600082815260200190815260200160002060009054906101000a900473ffffffffffffffffffffffffffffffffffffffff1673ffffffffffffffffffffffffffffffffffffffff163373ffffffffffffffffffffffffffffffffffffffff1614610ad057600080fd5b8160078481548110610ae557610ae461519f565b5b906000526020600020906007020160000160006101000a81548173ffffffffffffffffffffffffffffffffffffffff021916908373ffffffffffffffffffffffffffffffffffffffff160217905550505050565b60005b8351811015610cfe57828181518110610b5857610b5761519f565b5b6020026020010151600a6000868481518110610b7757610b7661519f565b5b6020026020010151815260200190815260200160002060008773ffffffffffffffffffffffffffffffffffffffff1673ffffffffffffffffffffffffffffffffffffffff1681526020019081526020016000206000828254610bd99190614e14565b92505081905550828181518110610bf357610bf261519f565b5b6020026020010151600b60008773ffffffffffffffffffffffffffffffffffffffff1673ffffffffffffffffffffffffffffffffffffffff1681526020019081526020016000206000868481518110610c4f57610c4e61519f565b5b602002602001015181526020019081526020016000206000828254610c749190614e14565b92505081905550828181518110610c8e57610c8d61519f565b5b60200260200101516007858381518110610cab57610caa61519f565b5b602002602001015181548110610cc457610cc361519f565b5b90600052602060002090600702016005016000828254610ce49190614e14565b925050819055508080610cf69061509a565b915050610b3c565b508373ffffffffffffffffffffffffffffffffffffffff16600073ffffffffffffffffffffffffffffffffffffffff163373ffffffffffffffffffffffffffffffffffffffff167f4a39dc06d4c0dbc64b70af90fd698a233a518aa5d07e595d983b8c0526c8f7fb8686604051610d76929190614a7b565b60405180910390a450505050565b6000600d6000838152602001908152602001600020600101549050919050565b60005b8351811015610ef957828181518110610dc357610dc261519f565b5b6020026020010151600a6000868481518110610de257610de161519f565b5b6020026020010151815260200190815260200160002060008873ffffffffffffffffffffffffffffffffffffffff1673ffffffffffffffffffffffffffffffffffffffff1681526020019081526020016000206000828254610e449190614ef5565b92505081905550828181518110610e5e57610e5d61519f565b5b6020026020010151600a6000868481518110610e7d57610e7c61519f565b5b6020026020010151815260200190815260200160002060008773ffffffffffffffffffffffffffffffffffffffff1673ffffffffffffffffffffffffffffffffffffffff1681526020019081526020016000206000828254610edf9190614e14565b925050819055508080610ef19061509a565b915050610da7565b508373ffffffffffffffffffffffffffffffffffffffff168573ffffffffffffffffffffffffffffffffffffffff163373ffffffffffffffffffffffffffffffffffffffff167f4a39dc06d4c0dbc64b70af90fd698a233a518aa5d07e595d983b8c0526c8f7fb8686604051610f70929190614a7b565b60405180910390a45050505050565b610f898282612b6c565b610fae81600e6000858152602001908152602001600020612a5a90919063ffffffff16565b505050565b600080610fc084846111c9565b90506000610fcd82611c2c565b905060008183610fdd9190614e14565b905080935050505092915050565b610ff58282612b95565b61101a81600e6000858152602001908152602001600020612c1890919063ffffffff16565b505050565b6110507f65d7a28e3265b37a6474929f336521b332c1681b933f6cb9f3376673440d862a61104b612c48565b611a98565b61108f576040517f08c379a000000000000000000000000000000000000000000000000000000000815260040161108690614bca565b60405180910390fd5b611097612c50565b565b606060008585905067ffffffffffffffff8111156110ba576110b96151ce565b5b6040519080825280602002602001820160405280156110e85781602001602082028036833780820191505090505b50905060005b868690508110156111bc57600a60008686848181106111105761110f61519f565b5b905060200201358152602001908152602001600020600088888481811061113a5761113961519f565b5b905060200201602081019061114f9190613e77565b73ffffffffffffffffffffffffffffffffffffffff1673ffffffffffffffffffffffffffffffffffffffff1681526020019081526020016000205482828151811061119d5761119c61519f565b5b60200260200101818152505080806111b49061509a565b9150506110ee565b5080915050949350505050565b600080600090506000600785815481106111e6576111e561519f565b5b9060005260206000209060070201600501549050600084826112089190614e14565b90506007868154811061121e5761121d61519f565b5b90600052602060002090600702016006015481101561127757611270828660055460065460078b815481106112565761125561519f565b5b906000526020600020906007020160060154600454612cf2565b92506113ca565b6007868154811061128b5761128a61519f565b5b9060005260206000209060070201600601548210156113b657611332600787815481106112bb576112ba61519f565b5b90600052602060002090600702016006015483600789815481106112e2576112e161519f565b5b9060005260206000209060070201600601546112fe9190614ef5565b60055460065460078b815481106113185761131761519f565b5b906000526020600020906007020160060154600454612cf2565b92506113a46007878154811061134b5761134a61519f565b5b90600052602060002090600702016006015483600789815481106113725761137161519f565b5b90600052602060002090600702016006015461138e9190614ef5565b876113999190614ef5565b600554600654612d6b565b836113af9190614e14565b92506113c9565b6113c68286600554600654612d6b565b92505b5b82935050505092915050565b6113de612c48565b73ffffffffffffffffffffffffffffffffffffffff166113fc611a40565b73ffffffffffffffffffffffffffffffffffffffff1614611452576040517f08c379a000000000000000000000000000000000000000000000000000000000815260040161144990614baa565b60405180910390fd5b8073ffffffffffffffffffffffffffffffffffffffff166108fc479081150290604051600060405180830381858888f19350505050158015611498573d6000803e3d6000fd5b5050565b6000601260009054906101000a900460ff16905090565b60005b8251811015611678578181815181106114d2576114d161519f565b5b6020026020010151600a60008584815181106114f1576114f061519f565b5b6020026020010151815260200190815260200160002060008673ffffffffffffffffffffffffffffffffffffffff1673ffffffffffffffffffffffffffffffffffffffff16815260200190815260200160002060008282546115539190614ef5565b9250508190555081818151811061156d5761156c61519f565b5b6020026020010151600b60008673ffffffffffffffffffffffffffffffffffffffff1673ffffffffffffffffffffffffffffffffffffffff16815260200190815260200160002060008584815181106115c9576115c861519f565b5b6020026020010151815260200190815260200160002060008282546115ee9190614ef5565b925050819055508181815181106116085761160761519f565b5b602002602001015160078483815181106116255761162461519f565b5b60200260200101518154811061163e5761163d61519f565b5b9060005260206000209060070201600501600082825461165e9190614ef5565b9250508190555080806116709061509a565b9150506114b6565b50600073ffffffffffffffffffffffffffffffffffffffff168373ffffffffffffffffffffffffffffffffffffffff163373ffffffffffffffffffffffffffffffffffffffff167f4a39dc06d4c0dbc64b70af90fd698a233a518aa5d07e595d983b8c0526c8f7fb85856040516116f0929190614a7b565b60405180910390a4505050565b611705612c48565b73ffffffffffffffffffffffffffffffffffffffff16611723611a40565b73ffffffffffffffffffffffffffffffffffffffff1614611779576040517f08c379a000000000000000000000000000000000000000000000000000000000815260040161177090614baa565b60405180910390fd5b600073ffffffffffffffffffffffffffffffffffffffff1660008054906101000a900473ffffffffffffffffffffffffffffffffffffffff1673ffffffffffffffffffffffffffffffffffffffff167f8be0079c531659141344cd1fd0a4f28419497f9722a3daafe3b4186f6b6457e060405160405180910390a360008060006101000a81548173ffffffffffffffffffffffffffffffffffffffff021916908373ffffffffffffffffffffffffffffffffffffffff160217905550565b81600a600085815260200190815260200160002060008673ffffffffffffffffffffffffffffffffffffffff1673ffffffffffffffffffffffffffffffffffffffff16815260200190815260200160002060008282546118979190614e14565b9250508190555081600b60008673ffffffffffffffffffffffffffffffffffffffff1673ffffffffffffffffffffffffffffffffffffffff168152602001908152602001600020600085815260200190815260200160002060008282546118fe9190614e14565b92505081905550816007848154811061191a5761191961519f565b5b9060005260206000209060070201600501600082825461193a9190614e14565b925050819055508373ffffffffffffffffffffffffffffffffffffffff16600073ffffffffffffffffffffffffffffffffffffffff163373ffffffffffffffffffffffffffffffffffffffff167fc3d58168c5ae7397731d063d5bbf3d657854427343f4c083240f7aacaa2d0f6286866040516119b8929190614cd8565b60405180910390a450505050565b6119f77f65d7a28e3265b37a6474929f336521b332c1681b933f6cb9f3376673440d862a6119f2612c48565b611a98565b611a36576040517f08c379a0000000000000000000000000000000000000000000000000000000008152600401611a2d90614bea565b60405180910390fd5b611a3e612df9565b565b60008060009054906101000a900473ffffffffffffffffffffffffffffffffffffffff16905090565b6000611a9082600e6000868152602001908152602001600020612e9c90919063ffffffff16565b905092915050565b6000600d600084815260200190815260200160002060000160008373ffffffffffffffffffffffffffffffffffffffff1673ffffffffffffffffffffffffffffffffffffffff16815260200190815260200160002060009054906101000a900460ff16905092915050565b600b602052816000526040600020602052806000526040600020600091509150505481565b6000801b81565b80600c60003373ffffffffffffffffffffffffffffffffffffffff1673ffffffffffffffffffffffffffffffffffffffff16815260200190815260200160002060008473ffffffffffffffffffffffffffffffffffffffff1673ffffffffffffffffffffffffffffffffffffffff16815260200190815260200160002060006101000a81548160ff0219169083151502179055508173ffffffffffffffffffffffffffffffffffffffff163373ffffffffffffffffffffffffffffffffffffffff167f17307eab39ab6107e8899845ad3d59bd9653f200f220920489ca2b5937696c3183604051611c209190614ab2565b60405180910390a35050565b6000606460015483611c3e9190614e9b565b611c489190614e6a565b9050919050565b600a602052816000526040600020602052806000526040600020600091509150505481565b826008600082815260200190815260200160002060009054906101000a900473ffffffffffffffffffffffffffffffffffffffff1673ffffffffffffffffffffffffffffffffffffffff163373ffffffffffffffffffffffffffffffffffffffff1614611ce057600080fd5b828260078681548110611cf657611cf561519f565b5b90600052602060002090600702016001019190611d14929190613a50565b5050505050565b611d23612c48565b73ffffffffffffffffffffffffffffffffffffffff16611d41611a40565b73ffffffffffffffffffffffffffffffffffffffff1614611d97576040517f08c379a0000000000000000000000000000000000000000000000000000000008152600401611d8e90614baa565b60405180910390fd5b8060048190555050565b6000611dbe600e6000848152602001908152602001600020612eb6565b9050919050565b60078181548110611dd557600080fd5b90600052602060002090600702016000915090508060000160009054906101000a900473ffffffffffffffffffffffffffffffffffffffff1690806001018054611e1e90615037565b80601f0160208091040260200160405190810160405280929190818152602001828054611e4a90615037565b8015611e975780601f10611e6c57610100808354040283529160200191611e97565b820191906000526020600020905b815481529060010190602001808311611e7a57829003601f168201915b505050505090806002018054611eac90615037565b80601f0160208091040260200160405190810160405280929190818152602001828054611ed890615037565b8015611f255780601f10611efa57610100808354040283529160200191611f25565b820191906000526020600020905b815481529060010190602001808311611f0857829003601f168201915b505050505090806003018054611f3a90615037565b80601f0160208091040260200160405190810160405280929190818152602001828054611f6690615037565b8015611fb35780601f10611f8857610100808354040283529160200191611fb3565b820191906000526020600020905b815481529060010190602001808311611f9657829003601f168201915b5050505050908060040160009054906101000a900460ff16908060050154908060060154905087565b7f9f2df0fed2c77648de5860a4cc508cd0818c85b8b8a1ab4ceeef8d981c8956a681565b61200a8282612ecb565b61202f81600e6000858152602001908152602001600020612c1890919063ffffffff16565b505050565b60076040518060e001604052808673ffffffffffffffffffffffffffffffffffffffff168152602001858152602001848152602001838152602001600015158152602001600081526020016000815250908060018154018082558091505060019003906000526020600020906007020160009091909190915060008201518160000160006101000a81548173ffffffffffffffffffffffffffffffffffffffff021916908373ffffffffffffffffffffffffffffffffffffffff1602179055506020820151816001019080519060200190612110929190613ad6565b50604082015181600201908051906020019061212d929190613ad6565b50606082015181600301908051906020019061214a929190613ad6565b5060808201518160040160006101000a81548160ff02191690831515021790555060a0820151816005015560c082015181600601555050600060016007805490506121959190614ef5565b9050846008600083815260200190815260200160002060006101000a81548173ffffffffffffffffffffffffffffffffffffffff021916908373ffffffffffffffffffffffffffffffffffffffff160217905550600060096000838152602001908152602001600020819055507f3ef624c0f3fb7ad40b94c02078ea3e3a797dbfc21e921ee4bd2b8ad0ca6aa11381868686866000806000604051612241989796959493929190614c45565b60405180910390a15050505050565b612258612c48565b73ffffffffffffffffffffffffffffffffffffffff16612276611a40565b73ffffffffffffffffffffffffffffffffffffffff16146122cc576040517f08c379a00000000000000000000000000000000000000000000000000000000081526004016122c390614baa565b60405180910390fd5b8060018190555050565b826008600082815260200190815260200160002060009054906101000a900473ffffffffffffffffffffffffffffffffffffffff1673ffffffffffffffffffffffffffffffffffffffff163373ffffffffffffffffffffffffffffffffffffffff161461234257600080fd5b8282600786815481106123585761235761519f565b5b90600052602060002090600702016003019190612376929190613a50565b5050505050565b7f65d7a28e3265b37a6474929f336521b332c1681b933f6cb9f3376673440d862a81565b6000600c60008473ffffffffffffffffffffffffffffffffffffffff1673ffffffffffffffffffffffffffffffffffffffff16815260200190815260200160002060008373ffffffffffffffffffffffffffffffffffffffff1673ffffffffffffffffffffffffffffffffffffffff16815260200190815260200160002060009054906101000a900460ff16905092915050565b61243d612c48565b73ffffffffffffffffffffffffffffffffffffffff1661245b611a40565b73ffffffffffffffffffffffffffffffffffffffff16146124b1576040517f08c379a00000000000000000000000000000000000000000000000000000000081526004016124a890614baa565b60405180910390fd5b8073ffffffffffffffffffffffffffffffffffffffff166108fc6003549081150290604051600060405180830381858888f193505050501580156124f9573d6000803e3d6000fd5b50600060038190555050565b81600a600085815260200190815260200160002060008773ffffffffffffffffffffffffffffffffffffffff1673ffffffffffffffffffffffffffffffffffffffff16815260200190815260200160002060008282546125659190614ef5565b9250508190555081600a600085815260200190815260200160002060008673ffffffffffffffffffffffffffffffffffffffff1673ffffffffffffffffffffffffffffffffffffffff16815260200190815260200160002060008282546125cc9190614e14565b925050819055508373ffffffffffffffffffffffffffffffffffffffff168573ffffffffffffffffffffffffffffffffffffffff163373ffffffffffffffffffffffffffffffffffffffff167fc3d58168c5ae7397731d063d5bbf3d657854427343f4c083240f7aacaa2d0f628686604051612649929190614cd8565b60405180910390a45050505050565b612660612c48565b73ffffffffffffffffffffffffffffffffffffffff1661267e611a40565b73ffffffffffffffffffffffffffffffffffffffff16146126d4576040517f08c379a00000000000000000000000000000000000000000000000000000000081526004016126cb90614baa565b60405180910390fd5b600073ffffffffffffffffffffffffffffffffffffffff168173ffffffffffffffffffffffffffffffffffffffff161415612744576040517f08c379a000000000000000000000000000000000000000000000000000000000815260040161273b90614b6a565b60405180910390fd5b8073ffffffffffffffffffffffffffffffffffffffff1660008054906101000a900473ffffffffffffffffffffffffffffffffffffffff1673ffffffffffffffffffffffffffffffffffffffff167f8be0079c531659141344cd1fd0a4f28419497f9722a3daafe3b4186f6b6457e060405160405180910390a3806000806101000a81548173ffffffffffffffffffffffffffffffffffffffff021916908373ffffffffffffffffffffffffffffffffffffffff16021790555050565b80600a600084815260200190815260200160002060008573ffffffffffffffffffffffffffffffffffffffff1673ffffffffffffffffffffffffffffffffffffffff16815260200190815260200160002060008282546128619190614ef5565b9250508190555080600b60008573ffffffffffffffffffffffffffffffffffffffff1673ffffffffffffffffffffffffffffffffffffffff168152602001908152602001600020600084815260200190815260200160002060008282546128c89190614ef5565b9250508190555080600783815481106128e4576128e361519f565b5b906000526020600020906007020160050160008282546129049190614ef5565b92505081905550600073ffffffffffffffffffffffffffffffffffffffff168373ffffffffffffffffffffffffffffffffffffffff163373ffffffffffffffffffffffffffffffffffffffff167fc3d58168c5ae7397731d063d5bbf3d657854427343f4c083240f7aacaa2d0f628585604051612982929190614cd8565b60405180910390a4505050565b612997612c48565b73ffffffffffffffffffffffffffffffffffffffff166129b5611a40565b73ffffffffffffffffffffffffffffffffffffffff1614612a0b576040517f08c379a0000000000000000000000000000000000000000000000000000000008152600401612a0290614baa565b60405180910390fd5b8060078381548110612a2057612a1f61519f565b5b906000526020600020906007020160040160006101000a81548160ff0219169083151502179055505050565b612a568282612ef4565b5050565b6000612a82836000018373ffffffffffffffffffffffffffffffffffffffff1660001b612fd5565b905092915050565b60007fd9b67a26000000000000000000000000000000000000000000000000000000007bffffffffffffffffffffffffffffffffffffffffffffffffffffffff1916827bffffffffffffffffffffffffffffffffffffffffffffffffffffffff19161480612b5557507f0e89341c000000000000000000000000000000000000000000000000000000007bffffffffffffffffffffffffffffffffffffffffffffffffffffffff1916827bffffffffffffffffffffffffffffffffffffffffffffffffffffffff1916145b80612b655750612b6482613045565b5b9050919050565b612b7582610d84565b612b8681612b81612c48565b6130bf565b612b908383612ef4565b505050565b612b9d612c48565b73ffffffffffffffffffffffffffffffffffffffff168173ffffffffffffffffffffffffffffffffffffffff1614612c0a576040517f08c379a0000000000000000000000000000000000000000000000000000000008152600401612c0190614c0a565b60405180910390fd5b612c14828261315c565b5050565b6000612c40836000018373ffffffffffffffffffffffffffffffffffffffff1660001b61323e565b905092915050565b600033905090565b612c5861149c565b612c97576040517f08c379a0000000000000000000000000000000000000000000000000000000008152600401612c8e90614b4a565b60405180910390fd5b6000601260006101000a81548160ff0219169083151502179055507f5db9ee0a495bf2e6ff9c91a7834c1ba4fdd244a5e8aa4e537bd38aeae4b073aa612cdb612c48565b604051612ce891906149ba565b60405180910390a1565b600080600080612d068a8a8a8a8a8a61334a565b9250925092506000838b1015612d2957612d2284848d856133c5565b9050612d5a565b83821015612d4757612d4084848d858d8d8d613468565b9050612d59565b612d5684848d858d8d8d61358a565b90505b5b809450505050509695505050505050565b6000808486612d7a9190614e14565b90506000838786612d8b9190614e9b565b612d959190614e6a565b90506000848387612da69190614e9b565b612db09190614e6a565b905060008884612dc09190614ef5565b905060006002828486612dd39190614e14565b612ddd9190614e9b565b612de79190614e6a565b90508095505050505050949350505050565b612e0161149c565b15612e41576040517f08c379a0000000000000000000000000000000000000000000000000000000008152600401612e3890614b8a565b60405180910390fd5b6001601260006101000a81548160ff0219169083151502179055507f62e78cea01bee320cd4e420270b5ea74000d11b0c9f74754ebdbfc544b05a258612e85612c48565b604051612e9291906149ba565b60405180910390a1565b6000612eab8360000183613688565b60001c905092915050565b6000612ec4826000016136fc565b9050919050565b612ed482610d84565b612ee581612ee0612c48565b6130bf565b612eef838361315c565b505050565b612efe8282611a98565b612fd1576001600d600084815260200190815260200160002060000160008373ffffffffffffffffffffffffffffffffffffffff1673ffffffffffffffffffffffffffffffffffffffff16815260200190815260200160002060006101000a81548160ff021916908315150217905550612f76612c48565b73ffffffffffffffffffffffffffffffffffffffff168173ffffffffffffffffffffffffffffffffffffffff16837f2f8788117e7eff1d82e926ec794901d17c78024a50270940304540a733656f0d60405160405180910390a45b5050565b6000612fe1838361370d565b61303a57826000018290806001815401808255809150506001900390600052602060002001600090919091909150558260000180549050836001016000848152602001908152602001600020819055506001905061303f565b600090505b92915050565b60007f5a05180f000000000000000000000000000000000000000000000000000000007bffffffffffffffffffffffffffffffffffffffffffffffffffffffff1916827bffffffffffffffffffffffffffffffffffffffffffffffffffffffff191614806130b857506130b782613730565b5b9050919050565b6130c98282611a98565b613158576130ee8173ffffffffffffffffffffffffffffffffffffffff1660146137aa565b6130fc8360001c60206137aa565b60405160200161310d929190614980565b6040516020818303038152906040526040517f08c379a000000000000000000000000000000000000000000000000000000000815260040161314f9190614ae8565b60405180910390fd5b5050565b6131668282611a98565b1561323a576000600d600084815260200190815260200160002060000160008373ffffffffffffffffffffffffffffffffffffffff1673ffffffffffffffffffffffffffffffffffffffff16815260200190815260200160002060006101000a81548160ff0219169083151502179055506131df612c48565b73ffffffffffffffffffffffffffffffffffffffff168173ffffffffffffffffffffffffffffffffffffffff16837ff6391f5c32d9c69d2a47ea670b442974b53935d1edc7fd64eb21e047a839171b60405160405180910390a45b5050565b6000808360010160008481526020019081526020016000205490506000811461333e5760006001826132709190614ef5565b90506000600186600001805490506132889190614ef5565b905060008660000182815481106132a2576132a161519f565b5b90600052602060002001549050808760000184815481106132c6576132c561519f565b5b906000526020600020018190555083876001016000838152602001908152602001600020819055508660000180548061330257613301615170565b5b60019003818190600052602060002001600090559055866001016000878152602001908152602001600020600090556001945050505050613344565b60009150505b92915050565b60008060008060028661335d9190614e6a565b90506000878960648860326133729190614ef5565b8a61337d9190614e9b565b6133879190614e6a565b6133919190614e9b565b61339b9190614e6a565b905060008a8c6133ab9190614ef5565b905082828295509550955050505096509650969350505050565b60008082866133d49190614ef5565b86866133e09190614e6a565b6133ea9190614e9b565b856133f59190614ef5565b9050600084876134059190614ef5565b87876134119190614e6a565b61341b9190614e9b565b866134269190614ef5565b9050600084866134369190614ef5565b905060028183856134479190614e14565b6134519190614e9b565b61345b9190614e6a565b9350505050949350505050565b60008085896134779190614ef5565b89896134839190614e6a565b61348d9190614e9b565b886134989190614ef5565b905060008890506000878b6134ad9190614ef5565b9050600060028284866134c09190614e14565b6134ca9190614e9b565b6134d49190614e6a565b905060008b8d8c6134e59190614ef5565b8e896134f19190614ef5565b8e8b8b8e6134ff9190614e9b565b6135099190614e6a565b6135139190614ef5565b61351d9190614e6a565b6135279190614e9b565b6135319190614e14565b905060008d8c6135419190614ef5565b9050600060028284886135549190614e14565b61355e9190614e9b565b6135689190614e6a565b905080846135769190614e14565b975050505050505050979650505050505050565b60008087898761359a9190614ef5565b8a856135a69190614ef5565b8a87878a6135b49190614e9b565b6135be9190614e6a565b6135c89190614ef5565b6135d29190614e6a565b6135dc9190614e9b565b6135e69190614e14565b90506000888a896135f79190614ef5565b8b866136039190614ef5565b8b88888b6136119190614e9b565b61361b9190614e6a565b6136259190614ef5565b61362f9190614e6a565b6136399190614e9b565b6136439190614e14565b9050600087896136539190614ef5565b905060028183856136649190614e14565b61366e9190614e9b565b6136789190614e6a565b9350505050979650505050505050565b6000818360000180549050116136d3576040517f08c379a00000000000000000000000000000000000000000000000000000000081526004016136ca90614b0a565b60405180910390fd5b8260000182815481106136e9576136e861519f565b5b9060005260206000200154905092915050565b600081600001805490509050919050565b600080836001016000848152602001908152602001600020541415905092915050565b60007f7965db0b000000000000000000000000000000000000000000000000000000007bffffffffffffffffffffffffffffffffffffffffffffffffffffffff1916827bffffffffffffffffffffffffffffffffffffffffffffffffffffffff191614806137a357506137a2826139e6565b5b9050919050565b6060600060028360026137bd9190614e9b565b6137c79190614e14565b67ffffffffffffffff8111156137e0576137df6151ce565b5b6040519080825280601f01601f1916602001820160405280156138125781602001600182028036833780820191505090505b5090507f30000000000000000000000000000000000000000000000000000000000000008160008151811061384a5761384961519f565b5b60200101907effffffffffffffffffffffffffffffffffffffffffffffffffffffffffffff1916908160001a9053507f7800000000000000000000000000000000000000000000000000000000000000816001815181106138ae576138ad61519f565b5b60200101907effffffffffffffffffffffffffffffffffffffffffffffffffffffffffffff1916908160001a905350600060018460026138ee9190614e9b565b6138f89190614e14565b90505b6001811115613998577f3031323334353637383961626364656600000000000000000000000000000000600f86166010811061393a5761393961519f565b5b1a60f81b8282815181106139515761395061519f565b5b60200101907effffffffffffffffffffffffffffffffffffffffffffffffffffffffffffff1916908160001a905350600485901c9450806139919061500d565b90506138fb565b50600084146139dc576040517f08c379a00000000000000000000000000000000000000000000000000000000081526004016139d390614b2a565b60405180910390fd5b8091505092915050565b60007f01ffc9a7000000000000000000000000000000000000000000000000000000007bffffffffffffffffffffffffffffffffffffffffffffffffffffffff1916827bffffffffffffffffffffffffffffffffffffffffffffffffffffffff1916149050919050565b828054613a5c90615037565b90600052602060002090601f016020900481019282613a7e5760008555613ac5565b82601f10613a9757803560ff1916838001178555613ac5565b82800160010185558215613ac5579182015b82811115613ac4578235825591602001919060010190613aa9565b5b509050613ad29190613b5c565b5090565b828054613ae290615037565b90600052602060002090601f016020900481019282613b045760008555613b4b565b82601f10613b1d57805160ff1916838001178555613b4b565b82800160010185558215613b4b579182015b82811115613b4a578251825591602001919060010190613b2f565b5b509050613b589190613b5c565b5090565b5b80821115613b75576000816000905550600101613b5d565b5090565b6000613b8c613b8784614d26565b614d01565b90508083825260208201905082856020860282011115613baf57613bae615207565b5b60005b85811015613bdf5781613bc58882613e62565b845260208401935060208301925050600181019050613bb2565b5050509392505050565b6000613bfc613bf784614d52565b614d01565b905082815260208101848484011115613c1857613c1761520c565b5b613c23848285614fcb565b509392505050565b6000613c3e613c3984614d83565b614d01565b905082815260208101848484011115613c5a57613c5961520c565b5b613c65848285614fcb565b509392505050565b600081359050613c7c816154ad565b92915050565b600081359050613c91816154c4565b92915050565b60008083601f840112613cad57613cac615202565b5b8235905067ffffffffffffffff811115613cca57613cc96151fd565b5b602083019150836020820283011115613ce657613ce5615207565b5b9250929050565b60008083601f840112613d0357613d02615202565b5b8235905067ffffffffffffffff811115613d2057613d1f6151fd565b5b602083019150836020820283011115613d3c57613d3b615207565b5b9250929050565b600082601f830112613d5857613d57615202565b5b8135613d68848260208601613b79565b91505092915050565b600081359050613d80816154db565b92915050565b600081359050613d95816154f2565b92915050565b600081359050613daa81615509565b92915050565b600082601f830112613dc557613dc4615202565b5b8135613dd5848260208601613be9565b91505092915050565b60008083601f840112613df457613df3615202565b5b8235905067ffffffffffffffff811115613e1157613e106151fd565b5b602083019150836001820283011115613e2d57613e2c615207565b5b9250929050565b600082601f830112613e4957613e48615202565b5b8135613e59848260208601613c2b565b91505092915050565b600081359050613e7181615520565b92915050565b600060208284031215613e8d57613e8c615216565b5b6000613e9b84828501613c6d565b91505092915050565b600060208284031215613eba57613eb9615216565b5b6000613ec884828501613c82565b91505092915050565b60008060008060808587031215613eeb57613eea615216565b5b6000613ef987828801613c82565b945050602085013567ffffffffffffffff811115613f1a57613f19615211565b5b613f2687828801613e34565b935050604085013567ffffffffffffffff811115613f4757613f46615211565b5b613f5387828801613e34565b925050606085013567ffffffffffffffff811115613f7457613f73615211565b5b613f8087828801613e34565b91505092959194509250565b60008060408385031215613fa357613fa2615216565b5b6000613fb185828601613c6d565b9250506020613fc285828601613c6d565b9150509250929050565b600080600080600060a08688031215613fe857613fe7615216565b5b6000613ff688828901613c6d565b955050602061400788828901613c6d565b945050604086013567ffffffffffffffff81111561402857614027615211565b5b61403488828901613d43565b935050606086013567ffffffffffffffff81111561405557614054615211565b5b61406188828901613d43565b925050608086013567ffffffffffffffff81111561408257614081615211565b5b61408e88828901613db0565b9150509295509295909350565b600080600080600060a086880312156140b7576140b6615216565b5b60006140c588828901613c6d565b95505060206140d688828901613c6d565b94505060406140e788828901613e62565b93505060606140f888828901613e62565b925050608086013567ffffffffffffffff81111561411957614118615211565b5b61412588828901613db0565b9150509295509295909350565b60008060006060848603121561414b5761414a615216565b5b600061415986828701613c6d565b935050602084013567ffffffffffffffff81111561417a57614179615211565b5b61418686828701613d43565b925050604084013567ffffffffffffffff8111156141a7576141a6615211565b5b6141b386828701613d43565b9150509250925092565b600080600080608085870312156141d7576141d6615216565b5b60006141e587828801613c6d565b945050602085013567ffffffffffffffff81111561420657614205615211565b5b61421287828801613d43565b935050604085013567ffffffffffffffff81111561423357614232615211565b5b61423f87828801613d43565b925050606085013567ffffffffffffffff8111156142605761425f615211565b5b61426c87828801613db0565b91505092959194509250565b6000806040838503121561428f5761428e615216565b5b600061429d85828601613c6d565b92505060206142ae85828601613d71565b9150509250929050565b600080604083850312156142cf576142ce615216565b5b60006142dd85828601613c6d565b92505060206142ee85828601613e62565b9150509250929050565b60008060006060848603121561431157614310615216565b5b600061431f86828701613c6d565b935050602061433086828701613e62565b925050604061434186828701613e62565b9150509250925092565b6000806000806080858703121561436557614364615216565b5b600061437387828801613c6d565b945050602061438487828801613e62565b935050604061439587828801613e62565b925050606085013567ffffffffffffffff8111156143b6576143b5615211565b5b6143c287828801613db0565b91505092959194509250565b600080600080604085870312156143e8576143e7615216565b5b600085013567ffffffffffffffff81111561440657614405615211565b5b61441287828801613c97565b9450945050602085013567ffffffffffffffff81111561443557614434615211565b5b61444187828801613ced565b925092505092959194509250565b60006020828403121561446557614464615216565b5b600061447384828501613d86565b91505092915050565b6000806040838503121561449357614492615216565b5b60006144a185828601613d86565b92505060206144b285828601613c6d565b9150509250929050565b600080604083850312156144d3576144d2615216565b5b60006144e185828601613d86565b92505060206144f285828601613e62565b9150509250929050565b60006020828403121561451257614511615216565b5b600061452084828501613d9b565b91505092915050565b60006020828403121561453f5761453e615216565b5b600061454d84828501613e62565b91505092915050565b6000806040838503121561456d5761456c615216565b5b600061457b85828601613e62565b925050602061458c85828601613c6d565b9150509250929050565b600080604083850312156145ad576145ac615216565b5b60006145bb85828601613e62565b92505060206145cc85828601613c82565b9150509250929050565b600080604083850312156145ed576145ec615216565b5b60006145fb85828601613e62565b925050602061460c85828601613d71565b9150509250929050565b60008060006040848603121561462f5761462e615216565b5b600061463d86828701613e62565b935050602084013567ffffffffffffffff81111561465e5761465d615211565b5b61466a86828701613dde565b92509250509250925092565b6000806040838503121561468d5761468c615216565b5b600061469b85828601613e62565b92505060206146ac85828601613e62565b9150509250929050565b60006146c28383614962565b60208301905092915050565b6146d781614f3b565b82525050565b6146e681614f29565b82525050565b60006146f782614dc4565b6147018185614de7565b935061470c83614db4565b8060005b8381101561473d57815161472488826146b6565b975061472f83614dda565b925050600181019050614710565b5085935050505092915050565b61475381614f4d565b82525050565b61476281614f59565b82525050565b61477181614fb9565b82525050565b600061478282614dcf565b61478c8185614df8565b935061479c818560208601614fda565b6147a58161521b565b840191505092915050565b60006147bb82614dcf565b6147c58185614e09565b93506147d5818560208601614fda565b80840191505092915050565b60006147ee602283614df8565b91506147f98261522c565b604082019050919050565b6000614811602083614df8565b915061481c8261527b565b602082019050919050565b6000614834601483614df8565b915061483f826152a4565b602082019050919050565b6000614857602683614df8565b9150614862826152cd565b604082019050919050565b600061487a601083614df8565b91506148858261531c565b602082019050919050565b600061489d602083614df8565b91506148a882615345565b602082019050919050565b60006148c0603b83614df8565b91506148cb8261536e565b604082019050919050565b60006148e3603983614df8565b91506148ee826153bd565b604082019050919050565b6000614906601783614e09565b91506149118261540c565b601782019050919050565b6000614929601183614e09565b915061493482615435565b601182019050919050565b600061494c602f83614df8565b91506149578261545e565b604082019050919050565b61496b81614faf565b82525050565b61497a81614faf565b82525050565b600061498b826148f9565b915061499782856147b0565b91506149a28261491c565b91506149ae82846147b0565b91508190509392505050565b60006020820190506149cf60008301846146dd565b92915050565b600060e0820190506149ea600083018a6146ce565b81810360208301526149fc8189614777565b90508181036040830152614a108188614777565b90508181036060830152614a248187614777565b9050614a33608083018661474a565b614a4060a0830185614971565b614a4d60c0830184614971565b98975050505050505050565b60006020820190508181036000830152614a7381846146ec565b905092915050565b60006040820190508181036000830152614a9581856146ec565b90508181036020830152614aa981846146ec565b90509392505050565b6000602082019050614ac7600083018461474a565b92915050565b6000602082019050614ae26000830184614759565b92915050565b60006020820190508181036000830152614b028184614777565b905092915050565b60006020820190508181036000830152614b23816147e1565b9050919050565b60006020820190508181036000830152614b4381614804565b9050919050565b60006020820190508181036000830152614b6381614827565b9050919050565b60006020820190508181036000830152614b838161484a565b9050919050565b60006020820190508181036000830152614ba38161486d565b9050919050565b60006020820190508181036000830152614bc381614890565b9050919050565b60006020820190508181036000830152614be3816148b3565b9050919050565b60006020820190508181036000830152614c03816148d6565b9050919050565b60006020820190508181036000830152614c238161493f565b9050919050565b6000602082019050614c3f6000830184614971565b92915050565b600061010082019050614c5b600083018b614971565b614c68602083018a6146ce565b8181036040830152614c7a8189614777565b90508181036060830152614c8e8188614777565b90508181036080830152614ca28187614777565b9050614cb160a083018661474a565b614cbe60c0830185614768565b614ccb60e0830184614768565b9998505050505050505050565b6000604082019050614ced6000830185614971565b614cfa6020830184614971565b9392505050565b6000614d0b614d1c565b9050614d178282615069565b919050565b6000604051905090565b600067ffffffffffffffff821115614d4157614d406151ce565b5b602082029050602081019050919050565b600067ffffffffffffffff821115614d6d57614d6c6151ce565b5b614d768261521b565b9050602081019050919050565b600067ffffffffffffffff821115614d9e57614d9d6151ce565b5b614da78261521b565b9050602081019050919050565b6000819050602082019050919050565b600081519050919050565b600081519050919050565b6000602082019050919050565b600082825260208201905092915050565b600082825260208201905092915050565b600081905092915050565b6000614e1f82614faf565b9150614e2a83614faf565b9250827fffffffffffffffffffffffffffffffffffffffffffffffffffffffffffffffff03821115614e5f57614e5e6150e3565b5b828201905092915050565b6000614e7582614faf565b9150614e8083614faf565b925082614e9057614e8f615112565b5b828204905092915050565b6000614ea682614faf565b9150614eb183614faf565b9250817fffffffffffffffffffffffffffffffffffffffffffffffffffffffffffffffff0483118215151615614eea57614ee96150e3565b5b828202905092915050565b6000614f0082614faf565b9150614f0b83614faf565b925082821015614f1e57614f1d6150e3565b5b828203905092915050565b6000614f3482614f8f565b9050919050565b6000614f4682614f8f565b9050919050565b60008115159050919050565b6000819050919050565b60007fffffffff0000000000000000000000000000000000000000000000000000000082169050919050565b600073ffffffffffffffffffffffffffffffffffffffff82169050919050565b6000819050919050565b6000614fc482614faf565b9050919050565b82818337600083830152505050565b60005b83811015614ff8578082015181840152602081019050614fdd565b83811115615007576000848401525b50505050565b600061501882614faf565b9150600082141561502c5761502b6150e3565b5b600182039050919050565b6000600282049050600182168061504f57607f821691505b6020821081141561506357615062615141565b5b50919050565b6150728261521b565b810181811067ffffffffffffffff82111715615091576150906151ce565b5b80604052505050565b60006150a582614faf565b91507fffffffffffffffffffffffffffffffffffffffffffffffffffffffffffffffff8214156150d8576150d76150e3565b5b600182019050919050565b7f4e487b7100000000000000000000000000000000000000000000000000000000600052601160045260246000fd5b7f4e487b7100000000000000000000000000000000000000000000000000000000600052601260045260246000fd5b7f4e487b7100000000000000000000000000000000000000000000000000000000600052602260045260246000fd5b7f4e487b7100000000000000000000000000000000000000000000000000000000600052603160045260246000fd5b7f4e487b7100000000000000000000000000000000000000000000000000000000600052603260045260246000fd5b7f4e487b7100000000000000000000000000000000000000000000000000000000600052604160045260246000fd5b600080fd5b600080fd5b600080fd5b600080fd5b600080fd5b600080fd5b6000601f19601f8301169050919050565b7f456e756d657261626c655365743a20696e646578206f7574206f6620626f756e60008201527f6473000000000000000000000000000000000000000000000000000000000000602082015250565b7f537472696e67733a20686578206c656e67746820696e73756666696369656e74600082015250565b7f5061757361626c653a206e6f7420706175736564000000000000000000000000600082015250565b7f4f776e61626c653a206e6577206f776e657220697320746865207a65726f206160008201527f6464726573730000000000000000000000000000000000000000000000000000602082015250565b7f5061757361626c653a2070617573656400000000000000000000000000000000600082015250565b7f4f776e61626c653a2063616c6c6572206973206e6f7420746865206f776e6572600082015250565b7f455243313135355072657365744d696e7465725061757365723a206d7573742060008201527f686176652070617573657220726f6c6520746f20756e70617573650000000000602082015250565b7f455243313135355072657365744d696e7465725061757365723a206d7573742060008201527f686176652070617573657220726f6c6520746f20706175736500000000000000602082015250565b7f416363657373436f6e74726f6c3a206163636f756e7420000000000000000000600082015250565b7f206973206d697373696e6720726f6c6520000000000000000000000000000000600082015250565b7f416363657373436f6e74726f6c3a2063616e206f6e6c792072656e6f756e636560008201527f20726f6c657320666f722073656c660000000000000000000000000000000000602082015250565b6154b681614f29565b81146154c157600080fd5b50565b6154cd81614f3b565b81146154d857600080fd5b50565b6154e481614f4d565b81146154ef57600080fd5b50565b6154fb81614f59565b811461550657600080fd5b50565b61551281614f63565b811461551d57600080fd5b50565b61552981614faf565b811461553457600080fd5b5056fea2646970667358221220b380a842912f070c1d01f022df0565288784b7b0b77cada155caa7b41846e77864736f6c63430008060033",
  "immutableReferences": {},
  "source": "// SPDX-License-Identifier: MIT\npragma solidity ^0.8.0;\n\nimport \"./creatortokenfees.sol\";\n\ncontract CreatorTokenComputation is CreatorTokenFees {\n\n\tconstructor(string memory uri) CreatorTokenFees(uri) { }\n\n\t// Calculate total transaction proceeds\n\tfunction _totalProceeds(uint _tokenId, uint _amount) public view returns (uint256) {//, uint256, uint256) {//[3] memory) {\n\t\t// Compute proceedsRequired (ex-fees)\n\t\tuint proceedsRequired = _buyProceeds(_tokenId, _amount);\n\t\t// Compute feeRequired\n\t\tuint feeRequired = _feeProceeds(proceedsRequired);\n\t\t// Compute total proceeds required\n\t\tuint totalProceeds = proceedsRequired + feeRequired;\n\t\treturn totalProceeds;\n\t}\n\n\t// Calculate proceedsRequired to for a given buy transaction (not including fees)\n\tfunction _buyProceeds(uint _tokenId, uint _amount) public view returns (uint256) {\n\t\t// Initialize proceeds required;\n\t\tuint proceedsRequired = 0;\n\t\t// Initialize pre-transaction supply\n\t\tuint startingSupply = creatorTokens[_tokenId].outstanding;\n\t\t// Compute post-transaction supply\n\t\tuint endSupply = startingSupply + _amount;\n\t\t// Compute buy proceeds\n\t\t// Check if endSupply <= maxSupply\n\t\tif (endSupply < creatorTokens[_tokenId].maxSupply) {\n\t\t\t// Scenario in which entire transaction takes place below maxSupply\n\t\t\t// Just call s(x)\n\t\t\tproceedsRequired = _saleFunction(startingSupply, _amount, mNumerator, mDenominator, creatorTokens[_tokenId].maxSupply, profitMargin);\n\t\t} else if (startingSupply < creatorTokens[_tokenId].maxSupply){\n\t\t\t// Scenario in which supply begins below maxSupply and ends above pre-transaction maxSupply\n\t\t\t// Use s(x) from startingSupply to maxSupply\n\t\t\tproceedsRequired = _saleFunction(creatorTokens[_tokenId].maxSupply, creatorTokens[_tokenId].maxSupply - startingSupply, mNumerator, mDenominator, creatorTokens[_tokenId].maxSupply, profitMargin);\n\t\t\t// Use b(x) from maxSupply to endSupply\n\t\t\tproceedsRequired += _buyFunction(creatorTokens[_tokenId].maxSupply, _amount - (creatorTokens[_tokenId].maxSupply - startingSupply), mNumerator, mDenominator);\n\t\t} else {\n\t\t\t// Scenario in which transaction begins at maxSupply\n\t\t\t// Just call b(x)\n\t\t\tproceedsRequired = _buyFunction(startingSupply, _amount, mNumerator, mDenominator);\n\t\t}\n\t\t// Return proceeds required\n\t\treturn proceedsRequired;\n\t}\n}",
  "sourcePath": "/Users/kamilalizaisadik/DeFi/Dynamic Automated Market Maker/damm_solidity/contracts/creatortokencomputation.sol",
  "compiler": {
    "name": "solc",
    "version": "0.8.6+commit.11564f7e.Emscripten.clang"
  },
  "schemaVersion": "3.4.1",
  "updatedAt": "2021-07-07T22:20:45.611Z",
  "devdoc": {
    "kind": "dev",
    "methods": {
      "getRoleAdmin(bytes32)": {
        "details": "Returns the admin role that controls `role`. See {grantRole} and {revokeRole}. To change a role's admin, use {_setRoleAdmin}."
      },
      "getRoleMember(bytes32,uint256)": {
        "details": "Returns one of the accounts that have `role`. `index` must be a value between 0 and {getRoleMemberCount}, non-inclusive. Role bearers are not sorted in any particular way, and their ordering may change at any point. WARNING: When using {getRoleMember} and {getRoleMemberCount}, make sure you perform all queries on the same block. See the following https://forum.openzeppelin.com/t/iterating-over-elements-on-enumerableset-in-openzeppelin-contracts/2296[forum post] for more information."
      },
      "getRoleMemberCount(bytes32)": {
        "details": "Returns the number of accounts that have `role`. Can be used together with {getRoleMember} to enumerate all bearers of a role."
      },
      "grantRole(bytes32,address)": {
        "details": "Overload {grantRole} to track enumerable memberships"
      },
      "hasRole(bytes32,address)": {
        "details": "Returns `true` if `account` has been granted `role`."
      },
      "owner()": {
        "details": "Returns the address of the current owner."
      },
      "pause()": {
        "details": "Pauses all token transfers. See {ERC1155Pausable} and {Pausable-_pause}. Requirements: - the caller must have the `PAUSER_ROLE`."
      },
      "paused()": {
        "details": "Returns true if the contract is paused, and false otherwise."
      },
      "renounceOwnership()": {
        "details": "Leaves the contract without owner. It will not be possible to call `onlyOwner` functions anymore. Can only be called by the current owner. NOTE: Renouncing ownership will leave the contract without an owner, thereby removing any functionality that is only available to the owner."
      },
      "renounceRole(bytes32,address)": {
        "details": "Overload {renounceRole} to track enumerable memberships"
      },
      "revokeRole(bytes32,address)": {
        "details": "Overload {revokeRole} to track enumerable memberships"
      },
      "supportsInterface(bytes4)": {
        "details": "See {IERC165-supportsInterface}."
      },
      "transferOwnership(address)": {
        "details": "Transfers ownership of the contract to a new account (`newOwner`). Can only be called by the current owner."
      },
      "unpause()": {
        "details": "Unpauses all token transfers. See {ERC1155Pausable} and {Pausable-_unpause}. Requirements: - the caller must have the `PAUSER_ROLE`."
      },
      "uri(uint256)": {
        "details": "See {IERC1155MetadataURI-uri}. This implementation returns the same URI for *all* token types. It relies on the token type ID substitution mechanism https://eips.ethereum.org/EIPS/eip-1155#metadata[defined in the EIP]. Clients calling this function must replace the `\\{id\\}` substring with the actual token type ID."
      }
    },
    "version": 1
  },
  "userdoc": {
    "kind": "user",
    "methods": {},
    "version": 1
  }
}