{
  "contractName": "CreatorTokenExchange",
  "abi": [
    {
      "inputs": [
        {
          "internalType": "string",
          "name": "uri",
          "type": "string"
        }
      ],
      "stateMutability": "nonpayable",
      "type": "constructor"
    },
    {
      "anonymous": false,
      "inputs": [
        {
          "indexed": true,
          "internalType": "address",
          "name": "account",
          "type": "address"
        },
        {
          "indexed": true,
          "internalType": "address",
          "name": "operator",
          "type": "address"
        },
        {
          "indexed": false,
          "internalType": "bool",
          "name": "approved",
          "type": "bool"
        }
      ],
      "name": "ApprovalForAll",
      "type": "event"
    },
    {
      "anonymous": false,
      "inputs": [
        {
          "indexed": false,
          "internalType": "uint256",
          "name": "tokenId",
          "type": "uint256"
        },
        {
          "indexed": false,
          "internalType": "address payable",
          "name": "creatorAddress",
          "type": "address"
        },
        {
          "indexed": false,
          "internalType": "string",
          "name": "name",
          "type": "string"
        },
        {
          "indexed": false,
          "internalType": "string",
          "name": "symbol",
          "type": "string"
        },
        {
          "indexed": false,
          "internalType": "string",
          "name": "description",
          "type": "string"
        },
        {
          "indexed": false,
          "internalType": "bool",
          "name": "verified",
          "type": "bool"
        },
        {
          "indexed": false,
          "internalType": "uint256",
          "name": "outstanding",
          "type": "uint256"
        },
        {
          "indexed": false,
          "internalType": "uint256",
          "name": "maxSupply",
          "type": "uint256"
        }
      ],
      "name": "NewCreatorToken",
      "type": "event"
    },
    {
      "anonymous": false,
      "inputs": [
        {
          "indexed": true,
          "internalType": "address",
          "name": "account",
          "type": "address"
        },
        {
          "indexed": false,
          "internalType": "uint256",
          "name": "amount",
          "type": "uint256"
        },
        {
          "indexed": false,
          "internalType": "string",
          "name": "transactionType",
          "type": "string"
        },
        {
          "indexed": false,
          "internalType": "uint256",
          "name": "tokenId",
          "type": "uint256"
        },
        {
          "indexed": false,
          "internalType": "string",
          "name": "name",
          "type": "string"
        },
        {
          "indexed": false,
          "internalType": "string",
          "name": "symbol",
          "type": "string"
        }
      ],
      "name": "NewTransaction",
      "type": "event"
    },
    {
      "anonymous": false,
      "inputs": [
        {
          "indexed": true,
          "internalType": "address",
          "name": "previousOwner",
          "type": "address"
        },
        {
          "indexed": true,
          "internalType": "address",
          "name": "newOwner",
          "type": "address"
        }
      ],
      "name": "OwnershipTransferred",
      "type": "event"
    },
    {
      "anonymous": false,
      "inputs": [
        {
          "indexed": false,
          "internalType": "address",
          "name": "account",
          "type": "address"
        }
      ],
      "name": "Paused",
      "type": "event"
    },
    {
      "anonymous": false,
      "inputs": [
        {
          "indexed": true,
          "internalType": "bytes32",
          "name": "role",
          "type": "bytes32"
        },
        {
          "indexed": true,
          "internalType": "bytes32",
          "name": "previousAdminRole",
          "type": "bytes32"
        },
        {
          "indexed": true,
          "internalType": "bytes32",
          "name": "newAdminRole",
          "type": "bytes32"
        }
      ],
      "name": "RoleAdminChanged",
      "type": "event"
    },
    {
      "anonymous": false,
      "inputs": [
        {
          "indexed": true,
          "internalType": "bytes32",
          "name": "role",
          "type": "bytes32"
        },
        {
          "indexed": true,
          "internalType": "address",
          "name": "account",
          "type": "address"
        },
        {
          "indexed": true,
          "internalType": "address",
          "name": "sender",
          "type": "address"
        }
      ],
      "name": "RoleGranted",
      "type": "event"
    },
    {
      "anonymous": false,
      "inputs": [
        {
          "indexed": true,
          "internalType": "bytes32",
          "name": "role",
          "type": "bytes32"
        },
        {
          "indexed": true,
          "internalType": "address",
          "name": "account",
          "type": "address"
        },
        {
          "indexed": true,
          "internalType": "address",
          "name": "sender",
          "type": "address"
        }
      ],
      "name": "RoleRevoked",
      "type": "event"
    },
    {
      "anonymous": false,
      "inputs": [
        {
          "indexed": true,
          "internalType": "address",
          "name": "operator",
          "type": "address"
        },
        {
          "indexed": true,
          "internalType": "address",
          "name": "from",
          "type": "address"
        },
        {
          "indexed": true,
          "internalType": "address",
          "name": "to",
          "type": "address"
        },
        {
          "indexed": false,
          "internalType": "uint256[]",
          "name": "ids",
          "type": "uint256[]"
        },
        {
          "indexed": false,
          "internalType": "uint256[]",
          "name": "values",
          "type": "uint256[]"
        }
      ],
      "name": "TransferBatch",
      "type": "event"
    },
    {
      "anonymous": false,
      "inputs": [
        {
          "indexed": true,
          "internalType": "address",
          "name": "operator",
          "type": "address"
        },
        {
          "indexed": true,
          "internalType": "address",
          "name": "from",
          "type": "address"
        },
        {
          "indexed": true,
          "internalType": "address",
          "name": "to",
          "type": "address"
        },
        {
          "indexed": false,
          "internalType": "uint256",
          "name": "id",
          "type": "uint256"
        },
        {
          "indexed": false,
          "internalType": "uint256",
          "name": "value",
          "type": "uint256"
        }
      ],
      "name": "TransferSingle",
      "type": "event"
    },
    {
      "anonymous": false,
      "inputs": [
        {
          "indexed": false,
          "internalType": "string",
          "name": "value",
          "type": "string"
        },
        {
          "indexed": true,
          "internalType": "uint256",
          "name": "id",
          "type": "uint256"
        }
      ],
      "name": "URI",
      "type": "event"
    },
    {
      "anonymous": false,
      "inputs": [
        {
          "indexed": false,
          "internalType": "address",
          "name": "account",
          "type": "address"
        }
      ],
      "name": "Unpaused",
      "type": "event"
    },
    {
      "inputs": [],
      "name": "DEFAULT_ADMIN_ROLE",
      "outputs": [
        {
          "internalType": "bytes32",
          "name": "",
          "type": "bytes32"
        }
      ],
      "stateMutability": "view",
      "type": "function"
    },
    {
      "inputs": [],
      "name": "MINTER_ROLE",
      "outputs": [
        {
          "internalType": "bytes32",
          "name": "",
          "type": "bytes32"
        }
      ],
      "stateMutability": "view",
      "type": "function"
    },
    {
      "inputs": [],
      "name": "PAUSER_ROLE",
      "outputs": [
        {
          "internalType": "bytes32",
          "name": "",
          "type": "bytes32"
        }
      ],
      "stateMutability": "view",
      "type": "function"
    },
    {
      "inputs": [
        {
          "internalType": "uint256",
          "name": "_tokenId",
          "type": "uint256"
        },
        {
          "internalType": "uint256",
          "name": "_amount",
          "type": "uint256"
        }
      ],
      "name": "_buyProceeds",
      "outputs": [
        {
          "internalType": "uint256",
          "name": "",
          "type": "uint256"
        }
      ],
      "stateMutability": "view",
      "type": "function"
    },
    {
      "inputs": [
        {
          "internalType": "uint256",
          "name": "_proceedsRequired",
          "type": "uint256"
        }
      ],
      "name": "_feeProceeds",
      "outputs": [
        {
          "internalType": "uint256",
          "name": "",
          "type": "uint256"
        }
      ],
      "stateMutability": "view",
      "type": "function"
    },
    {
      "inputs": [
        {
          "internalType": "uint256",
          "name": "_tokenId",
          "type": "uint256"
        },
        {
          "internalType": "uint256",
          "name": "_amount",
          "type": "uint256"
        }
      ],
      "name": "_totalProceeds",
      "outputs": [
        {
          "internalType": "uint256[3]",
          "name": "",
          "type": "uint256[3]"
        }
      ],
      "stateMutability": "nonpayable",
      "type": "function"
    },
    {
      "inputs": [
        {
          "internalType": "address",
          "name": "_account",
          "type": "address"
        },
        {
          "internalType": "uint256",
          "name": "_id",
          "type": "uint256"
        }
      ],
      "name": "balanceOf",
      "outputs": [
        {
          "internalType": "uint256",
          "name": "",
          "type": "uint256"
        }
      ],
      "stateMutability": "view",
      "type": "function"
    },
    {
      "inputs": [
        {
          "internalType": "address[]",
          "name": "_accounts",
          "type": "address[]"
        },
        {
          "internalType": "uint256[]",
          "name": "_ids",
          "type": "uint256[]"
        }
      ],
      "name": "balanceOfBatch",
      "outputs": [
        {
          "internalType": "uint256[]",
          "name": "",
          "type": "uint256[]"
        }
      ],
      "stateMutability": "view",
      "type": "function"
    },
    {
      "inputs": [
        {
          "internalType": "address",
          "name": "_account",
          "type": "address"
        },
        {
          "internalType": "uint256",
          "name": "_id",
          "type": "uint256"
        },
        {
          "internalType": "uint256",
          "name": "_amount",
          "type": "uint256"
        }
      ],
      "name": "burn",
      "outputs": [],
      "stateMutability": "nonpayable",
      "type": "function"
    },
    {
      "inputs": [
        {
          "internalType": "address",
          "name": "_account",
          "type": "address"
        },
        {
          "internalType": "uint256[]",
          "name": "_ids",
          "type": "uint256[]"
        },
        {
          "internalType": "uint256[]",
          "name": "_amounts",
          "type": "uint256[]"
        }
      ],
      "name": "burnBatch",
      "outputs": [],
      "stateMutability": "nonpayable",
      "type": "function"
    },
    {
      "inputs": [
        {
          "internalType": "uint256",
          "name": "_tokenId",
          "type": "uint256"
        },
        {
          "internalType": "address payable",
          "name": "_newCreatorAddress",
          "type": "address"
        }
      ],
      "name": "changeAddress",
      "outputs": [],
      "stateMutability": "nonpayable",
      "type": "function"
    },
    {
      "inputs": [
        {
          "internalType": "uint256",
          "name": "_tokenId",
          "type": "uint256"
        },
        {
          "internalType": "string",
          "name": "_newDescription",
          "type": "string"
        }
      ],
      "name": "changeDescription",
      "outputs": [],
      "stateMutability": "nonpayable",
      "type": "function"
    },
    {
      "inputs": [
        {
          "internalType": "uint256",
          "name": "_tokenId",
          "type": "uint256"
        },
        {
          "internalType": "string",
          "name": "_newName",
          "type": "string"
        }
      ],
      "name": "changeName",
      "outputs": [],
      "stateMutability": "nonpayable",
      "type": "function"
    },
    {
      "inputs": [
        {
          "internalType": "uint256",
          "name": "_newPlatformFee",
          "type": "uint256"
        }
      ],
      "name": "changePlatformFee",
      "outputs": [],
      "stateMutability": "nonpayable",
      "type": "function"
    },
    {
      "inputs": [
        {
          "internalType": "uint256",
          "name": "_newProfitMargin",
          "type": "uint256"
        }
      ],
      "name": "changeProfitMargin",
      "outputs": [],
      "stateMutability": "nonpayable",
      "type": "function"
    },
    {
      "inputs": [
        {
          "internalType": "uint256",
          "name": "_tokenId",
          "type": "uint256"
        },
        {
          "internalType": "string",
          "name": "_newSymbol",
          "type": "string"
        }
      ],
      "name": "changeSymbol",
      "outputs": [],
      "stateMutability": "nonpayable",
      "type": "function"
    },
    {
      "inputs": [
        {
          "internalType": "uint256",
          "name": "_tokenId",
          "type": "uint256"
        },
        {
          "internalType": "bool",
          "name": "_verified",
          "type": "bool"
        }
      ],
      "name": "changeVerification",
      "outputs": [],
      "stateMutability": "nonpayable",
      "type": "function"
    },
    {
      "inputs": [
        {
          "internalType": "address payable",
          "name": "_creatorAddress",
          "type": "address"
        },
        {
          "internalType": "string",
          "name": "_name",
          "type": "string"
        },
        {
          "internalType": "string",
          "name": "_symbol",
          "type": "string"
        },
        {
          "internalType": "string",
          "name": "_description",
          "type": "string"
        }
      ],
      "name": "createCreatorToken",
      "outputs": [],
      "stateMutability": "nonpayable",
      "type": "function"
    },
    {
      "inputs": [
        {
          "internalType": "uint256",
          "name": "",
          "type": "uint256"
        }
      ],
      "name": "creatorTokens",
      "outputs": [
        {
          "internalType": "address payable",
          "name": "creatorAddress",
          "type": "address"
        },
        {
          "internalType": "string",
          "name": "name",
          "type": "string"
        },
        {
          "internalType": "string",
          "name": "symbol",
          "type": "string"
        },
        {
          "internalType": "string",
          "name": "description",
          "type": "string"
        },
        {
          "internalType": "bool",
          "name": "verified",
          "type": "bool"
        },
        {
          "internalType": "uint256",
          "name": "outstanding",
          "type": "uint256"
        },
        {
          "internalType": "uint256",
          "name": "maxSupply",
          "type": "uint256"
        }
      ],
      "stateMutability": "view",
      "type": "function"
    },
    {
      "inputs": [
        {
          "internalType": "bytes32",
          "name": "role",
          "type": "bytes32"
        }
      ],
      "name": "getRoleAdmin",
      "outputs": [
        {
          "internalType": "bytes32",
          "name": "",
          "type": "bytes32"
        }
      ],
      "stateMutability": "view",
      "type": "function"
    },
    {
      "inputs": [
        {
          "internalType": "bytes32",
          "name": "role",
          "type": "bytes32"
        },
        {
          "internalType": "uint256",
          "name": "index",
          "type": "uint256"
        }
      ],
      "name": "getRoleMember",
      "outputs": [
        {
          "internalType": "address",
          "name": "",
          "type": "address"
        }
      ],
      "stateMutability": "view",
      "type": "function"
    },
    {
      "inputs": [
        {
          "internalType": "bytes32",
          "name": "role",
          "type": "bytes32"
        }
      ],
      "name": "getRoleMemberCount",
      "outputs": [
        {
          "internalType": "uint256",
          "name": "",
          "type": "uint256"
        }
      ],
      "stateMutability": "view",
      "type": "function"
    },
    {
      "inputs": [
        {
          "internalType": "bytes32",
          "name": "role",
          "type": "bytes32"
        },
        {
          "internalType": "address",
          "name": "account",
          "type": "address"
        }
      ],
      "name": "grantRole",
      "outputs": [],
      "stateMutability": "nonpayable",
      "type": "function"
    },
    {
      "inputs": [
        {
          "internalType": "bytes32",
          "name": "role",
          "type": "bytes32"
        },
        {
          "internalType": "address",
          "name": "account",
          "type": "address"
        }
      ],
      "name": "hasRole",
      "outputs": [
        {
          "internalType": "bool",
          "name": "",
          "type": "bool"
        }
      ],
      "stateMutability": "view",
      "type": "function"
    },
    {
      "inputs": [
        {
          "internalType": "address",
          "name": "_account",
          "type": "address"
        },
        {
          "internalType": "address",
          "name": "_operator",
          "type": "address"
        }
      ],
      "name": "isApprovedForAll",
      "outputs": [
        {
          "internalType": "bool",
          "name": "",
          "type": "bool"
        }
      ],
      "stateMutability": "view",
      "type": "function"
    },
    {
      "inputs": [
        {
          "internalType": "address",
          "name": "_to",
          "type": "address"
        },
        {
          "internalType": "uint256",
          "name": "_id",
          "type": "uint256"
        },
        {
          "internalType": "uint256",
          "name": "_amount",
          "type": "uint256"
        },
        {
          "internalType": "bytes",
          "name": "_data",
          "type": "bytes"
        }
      ],
      "name": "mint",
      "outputs": [],
      "stateMutability": "nonpayable",
      "type": "function"
    },
    {
      "inputs": [
        {
          "internalType": "address",
          "name": "_to",
          "type": "address"
        },
        {
          "internalType": "uint256[]",
          "name": "_ids",
          "type": "uint256[]"
        },
        {
          "internalType": "uint256[]",
          "name": "_amounts",
          "type": "uint256[]"
        },
        {
          "internalType": "bytes",
          "name": "data",
          "type": "bytes"
        }
      ],
      "name": "mintBatch",
      "outputs": [],
      "stateMutability": "nonpayable",
      "type": "function"
    },
    {
      "inputs": [],
      "name": "owner",
      "outputs": [
        {
          "internalType": "address",
          "name": "",
          "type": "address"
        }
      ],
      "stateMutability": "view",
      "type": "function"
    },
    {
      "inputs": [],
      "name": "pause",
      "outputs": [],
      "stateMutability": "nonpayable",
      "type": "function"
    },
    {
      "inputs": [],
      "name": "paused",
      "outputs": [
        {
          "internalType": "bool",
          "name": "",
          "type": "bool"
        }
      ],
      "stateMutability": "view",
      "type": "function"
    },
    {
      "inputs": [
        {
          "internalType": "address payable",
          "name": "_owner",
          "type": "address"
        }
      ],
      "name": "payoutPlatformFees",
      "outputs": [],
      "stateMutability": "nonpayable",
      "type": "function"
    },
    {
      "inputs": [],
      "name": "renounceOwnership",
      "outputs": [],
      "stateMutability": "nonpayable",
      "type": "function"
    },
    {
      "inputs": [
        {
          "internalType": "bytes32",
          "name": "role",
          "type": "bytes32"
        },
        {
          "internalType": "address",
          "name": "account",
          "type": "address"
        }
      ],
      "name": "renounceRole",
      "outputs": [],
      "stateMutability": "nonpayable",
      "type": "function"
    },
    {
      "inputs": [
        {
          "internalType": "bytes32",
          "name": "role",
          "type": "bytes32"
        },
        {
          "internalType": "address",
          "name": "account",
          "type": "address"
        }
      ],
      "name": "revokeRole",
      "outputs": [],
      "stateMutability": "nonpayable",
      "type": "function"
    },
    {
      "inputs": [
        {
          "internalType": "address",
          "name": "_from",
          "type": "address"
        },
        {
          "internalType": "address",
          "name": "_to",
          "type": "address"
        },
        {
          "internalType": "uint256[]",
          "name": "_ids",
          "type": "uint256[]"
        },
        {
          "internalType": "uint256[]",
          "name": "_amounts",
          "type": "uint256[]"
        },
        {
          "internalType": "bytes",
          "name": "data",
          "type": "bytes"
        }
      ],
      "name": "safeBatchTransferFrom",
      "outputs": [],
      "stateMutability": "nonpayable",
      "type": "function"
    },
    {
      "inputs": [
        {
          "internalType": "address",
          "name": "_from",
          "type": "address"
        },
        {
          "internalType": "address",
          "name": "_to",
          "type": "address"
        },
        {
          "internalType": "uint256",
          "name": "_id",
          "type": "uint256"
        },
        {
          "internalType": "uint256",
          "name": "_amount",
          "type": "uint256"
        },
        {
          "internalType": "bytes",
          "name": "_data",
          "type": "bytes"
        }
      ],
      "name": "safeTransferFrom",
      "outputs": [],
      "stateMutability": "nonpayable",
      "type": "function"
    },
    {
      "inputs": [
        {
          "internalType": "address",
          "name": "_operator",
          "type": "address"
        },
        {
          "internalType": "bool",
          "name": "_approved",
          "type": "bool"
        }
      ],
      "name": "setApprovalForAll",
      "outputs": [],
      "stateMutability": "nonpayable",
      "type": "function"
    },
    {
      "inputs": [
        {
          "internalType": "bytes4",
          "name": "interfaceId",
          "type": "bytes4"
        }
      ],
      "name": "supportsInterface",
      "outputs": [
        {
          "internalType": "bool",
          "name": "",
          "type": "bool"
        }
      ],
      "stateMutability": "view",
      "type": "function"
    },
    {
      "inputs": [
        {
          "internalType": "uint256",
          "name": "",
          "type": "uint256"
        },
        {
          "internalType": "address",
          "name": "",
          "type": "address"
        }
      ],
      "name": "tokenHoldership",
      "outputs": [
        {
          "internalType": "uint256",
          "name": "",
          "type": "uint256"
        }
      ],
      "stateMutability": "view",
      "type": "function"
    },
    {
      "inputs": [
        {
          "internalType": "uint256",
          "name": "",
          "type": "uint256"
        }
      ],
      "name": "tokenToCreator",
      "outputs": [
        {
          "internalType": "address",
          "name": "",
          "type": "address"
        }
      ],
      "stateMutability": "view",
      "type": "function"
    },
    {
      "inputs": [
        {
          "internalType": "address",
          "name": "newOwner",
          "type": "address"
        }
      ],
      "name": "transferOwnership",
      "outputs": [],
      "stateMutability": "nonpayable",
      "type": "function"
    },
    {
      "inputs": [],
      "name": "unpause",
      "outputs": [],
      "stateMutability": "nonpayable",
      "type": "function"
    },
    {
      "inputs": [
        {
          "internalType": "uint256",
          "name": "",
          "type": "uint256"
        }
      ],
      "name": "uri",
      "outputs": [
        {
          "internalType": "string",
          "name": "",
          "type": "string"
        }
      ],
      "stateMutability": "view",
      "type": "function"
    },
    {
      "inputs": [
        {
          "internalType": "address",
          "name": "",
          "type": "address"
        },
        {
          "internalType": "uint256",
          "name": "",
          "type": "uint256"
        }
      ],
      "name": "userToHoldings",
      "outputs": [
        {
          "internalType": "uint256",
          "name": "",
          "type": "uint256"
        }
      ],
      "stateMutability": "view",
      "type": "function"
    },
    {
      "inputs": [
        {
          "internalType": "address payable",
          "name": "_owner",
          "type": "address"
        }
      ],
      "name": "withdraw",
      "outputs": [],
      "stateMutability": "nonpayable",
      "type": "function"
    },
    {
      "inputs": [
        {
          "internalType": "uint256",
          "name": "_tokenId",
          "type": "uint256"
        },
        {
          "internalType": "uint256",
          "name": "_amount",
          "type": "uint256"
        }
      ],
      "name": "buyCreatorToken",
      "outputs": [],
      "stateMutability": "payable",
      "type": "function"
    },
    {
      "inputs": [
        {
          "internalType": "uint256",
          "name": "_tokenId",
          "type": "uint256"
        },
        {
          "internalType": "uint256",
          "name": "_amount",
          "type": "uint256"
        },
        {
          "internalType": "address payable",
          "name": "_seller",
          "type": "address"
        }
      ],
      "name": "sellCreatorToken",
      "outputs": [],
      "stateMutability": "payable",
      "type": "function"
    }
  ],
  "bytecode": "0x60806040526001805560006002556000600355601460045565082f79cd900060055560b96006553480156200003357600080fd5b5060405162006835380380620068358339818101604052810190620000599190620005ce565b8080808080600062000070620001ec60201b60201c565b9050806000806101000a81548173ffffffffffffffffffffffffffffffffffffffff021916908373ffffffffffffffffffffffffffffffffffffffff1602179055508073ffffffffffffffffffffffffffffffffffffffff16600073ffffffffffffffffffffffffffffffffffffffff167f8be0079c531659141344cd1fd0a4f28419497f9722a3daafe3b4186f6b6457e060405160405180910390a3506200011f81620001f460201b60201c565b506000601260006101000a81548160ff0219169083151502179055506200015f6000801b62000153620001ec60201b60201c565b6200021060201b60201c565b620001a07f9f2df0fed2c77648de5860a4cc508cd0818c85b8b8a1ab4ceeef8d981c8956a662000194620001ec60201b60201c565b6200021060201b60201c565b620001e17f65d7a28e3265b37a6474929f336521b332c1681b933f6cb9f3376673440d862a620001d5620001ec60201b60201c565b6200021060201b60201c565b5050505050620007a3565b600033905090565b80601190805190602001906200020c929190620004a0565b5050565b6200022782826200025860201b620030ca1760201c565b6200025381600e60008581526020019081526020016000206200026e60201b620030d81790919060201c565b505050565b6200026a8282620002a660201b60201c565b5050565b60006200029e836000018373ffffffffffffffffffffffffffffffffffffffff1660001b6200039860201b60201c565b905092915050565b620002b882826200041260201b60201c565b62000394576001600d600084815260200190815260200160002060000160008373ffffffffffffffffffffffffffffffffffffffff1673ffffffffffffffffffffffffffffffffffffffff16815260200190815260200160002060006101000a81548160ff02191690831515021790555062000339620001ec60201b60201c565b73ffffffffffffffffffffffffffffffffffffffff168173ffffffffffffffffffffffffffffffffffffffff16837f2f8788117e7eff1d82e926ec794901d17c78024a50270940304540a733656f0d60405160405180910390a45b5050565b6000620003ac83836200047d60201b60201c565b620004075782600001829080600181540180825580915050600190039060005260206000200160009091909190915055826000018054905083600101600084815260200190815260200160002081905550600190506200040c565b600090505b92915050565b6000600d600084815260200190815260200160002060000160008373ffffffffffffffffffffffffffffffffffffffff1673ffffffffffffffffffffffffffffffffffffffff16815260200190815260200160002060009054906101000a900460ff16905092915050565b600080836001016000848152602001908152602001600020541415905092915050565b828054620004ae90620006b4565b90600052602060002090601f016020900481019282620004d257600085556200051e565b82601f10620004ed57805160ff19168380011785556200051e565b828001600101855582156200051e579182015b828111156200051d57825182559160200191906001019062000500565b5b5090506200052d919062000531565b5090565b5b808211156200054c57600081600090555060010162000532565b5090565b600062000567620005618462000648565b6200061f565b90508281526020810184848401111562000586576200058562000783565b5b620005938482856200067e565b509392505050565b600082601f830112620005b357620005b26200077e565b5b8151620005c584826020860162000550565b91505092915050565b600060208284031215620005e757620005e66200078d565b5b600082015167ffffffffffffffff81111562000608576200060762000788565b5b62000616848285016200059b565b91505092915050565b60006200062b6200063e565b9050620006398282620006ea565b919050565b6000604051905090565b600067ffffffffffffffff8211156200066657620006656200074f565b5b620006718262000792565b9050602081019050919050565b60005b838110156200069e57808201518184015260208101905062000681565b83811115620006ae576000848401525b50505050565b60006002820490506001821680620006cd57607f821691505b60208210811415620006e457620006e362000720565b5b50919050565b620006f58262000792565b810181811067ffffffffffffffff821117156200071757620007166200074f565b5b80604052505050565b7f4e487b7100000000000000000000000000000000000000000000000000000000600052602260045260246000fd5b7f4e487b7100000000000000000000000000000000000000000000000000000000600052604160045260246000fd5b600080fd5b600080fd5b600080fd5b600080fd5b6000601f19601f8301169050919050565b61608280620007b36000396000f3fe6080604052600436106102875760003560e01c80639010d07c1161015a578063d547741f116100c1578063eb8417591161007a578063eb84175914610a2a578063f242432a14610a53578063f2fde38b14610a7c578063f5298aca14610aa5578063f7374e2e14610ace578063fffae94114610af757610287565b8063d547741f1461091e578063d56b72c714610947578063d7a5791a14610970578063de6a06ed14610999578063e63ab1e9146109c2578063e985e9c5146109ed57610287565b8063bfb48c9c11610113578063bfb48c9c146107e4578063c39cbef114610821578063c539c3171461084a578063ca15c87314610873578063ce901d8a146108b0578063d5391393146108f357610287565b80639010d07c1461069c57806391d14854146106d957806392724afa14610716578063a217fddf14610753578063a22cb4651461077e578063ba111a05146107a757610287565b806335a8ae21116101fe5780635c975abb116101b75780635c975abb146105c65780636b20c454146105f1578063715018a61461061a578063731133e9146106315780638456cb591461065a5780638da5cb5b1461067157610287565b806335a8ae21146104a657806336568abe146104e35780633f4ba83a1461050c5780634e1273f4146105235780634fe477d81461056057806351cff8d91461059d57610287565b80631d5ad18b116102505780631d5ad18b146103a95780631f7fdffa146103d2578063248a9ca3146103fb5780632dcfdaf7146104385780632eb2c2d6146104545780632f2ff15d1461047d57610287565b8062fdd58e1461028c57806301ffc9a7146102c957806306e320f5146103065780630e89341c1461032f57806318892ae81461036c575b600080fd5b34801561029857600080fd5b506102b360048036038101906102ae9190614ae2565b610b13565b6040516102c091906155df565b60405180910390f35b3480156102d557600080fd5b506102f060048036038101906102eb9190614d26565b610b6e565b6040516102fd9190615467565b60405180910390f35b34801561031257600080fd5b5061032d60048036038101906103289190614e40565b610b80565b005b34801561033b57600080fd5b5061035660048036038101906103519190614d53565b610c27565b604051610363919061549d565b60405180910390f35b34801561037857600080fd5b50610393600480360381019061038e9190614d53565b610cbb565b6040516103a09190615354565b60405180910390f35b3480156103b557600080fd5b506103d060048036038101906103cb9190614dc0565b610cee565b005b3480156103de57600080fd5b506103f960048036038101906103f491906149e7565b610dc3565b005b34801561040757600080fd5b50610422600480360381019061041d9190614c79565b61100e565b60405161042f9190615482565b60405180910390f35b610452600480360381019061044d9190614ee0565b61102e565b005b34801561046057600080fd5b5061047b600480360381019061047691906147f6565b6111f8565b005b34801561048957600080fd5b506104a4600480360381019061049f9190614ca6565b6113d3565b005b3480156104b257600080fd5b506104cd60048036038101906104c89190614ea0565b611407565b6040516104da91906153f3565b60405180910390f35b3480156104ef57600080fd5b5061050a60048036038101906105059190614ca6565b611460565b005b34801561051857600080fd5b50610521611494565b005b34801561052f57600080fd5b5061054a60048036038101906105459190614bf8565b61150e565b604051610557919061540e565b60405180910390f35b34801561056c57600080fd5b5061058760048036038101906105829190614ea0565b61163e565b60405161059491906155df565b60405180910390f35b3480156105a957600080fd5b506105c460048036038101906105bf91906146ce565b61184b565b005b3480156105d257600080fd5b506105db611911565b6040516105e89190615467565b60405180910390f35b3480156105fd57600080fd5b506106186004803603810190610613919061495c565b611928565b005b34801561062657600080fd5b5061062f611b72565b005b34801561063d57600080fd5b5061065860048036038101906106539190614b75565b611cac565b005b34801561066657600080fd5b5061066f611e3b565b005b34801561067d57600080fd5b50610686611eb5565b6040516106939190615354565b60405180910390f35b3480156106a857600080fd5b506106c360048036038101906106be9190614ce6565b611ede565b6040516106d09190615354565b60405180910390f35b3480156106e557600080fd5b5061070060048036038101906106fb9190614ca6565b611f0d565b60405161070d9190615467565b60405180910390f35b34801561072257600080fd5b5061073d60048036038101906107389190614ae2565b611f78565b60405161074a91906155df565b60405180910390f35b34801561075f57600080fd5b50610768611f9d565b6040516107759190615482565b60405180910390f35b34801561078a57600080fd5b506107a560048036038101906107a09190614aa2565b611fa4565b005b3480156107b357600080fd5b506107ce60048036038101906107c99190614d53565b6120a1565b6040516107db91906155df565b60405180910390f35b3480156107f057600080fd5b5061080b60048036038101906108069190614d80565b6120c4565b60405161081891906155df565b60405180910390f35b34801561082d57600080fd5b5061084860048036038101906108439190614e40565b6120e9565b005b34801561085657600080fd5b50610871600480360381019061086c9190614d53565b612190565b005b34801561087f57600080fd5b5061089a60048036038101906108959190614c79565b612216565b6040516108a791906155df565b60405180910390f35b3480156108bc57600080fd5b506108d760048036038101906108d29190614d53565b61223a565b6040516108ea979695949392919061536f565b60405180910390f35b3480156108ff57600080fd5b50610908612451565b6040516109159190615482565b60405180910390f35b34801561092a57600080fd5b5061094560048036038101906109409190614ca6565b612475565b005b34801561095357600080fd5b5061096e600480360381019061096991906146fb565b6124a9565b005b34801561097c57600080fd5b5061099760048036038101906109929190614d53565b6126c5565b005b3480156109a557600080fd5b506109c060048036038101906109bb9190614e40565b61274b565b005b3480156109ce57600080fd5b506109d76127f2565b6040516109e49190615482565b60405180910390f35b3480156109f957600080fd5b50610a146004803603810190610a0f91906147b6565b612816565b604051610a219190615467565b60405180910390f35b348015610a3657600080fd5b50610a516004803603810190610a4c91906146ce565b6128aa565b005b348015610a5f57600080fd5b50610a7a6004803603810190610a7591906148c5565b61297a565b005b348015610a8857600080fd5b50610aa36004803603810190610a9e91906146a1565b612acd565b005b348015610ab157600080fd5b50610acc6004803603810190610ac79190614b22565b612c76565b005b348015610ada57600080fd5b50610af56004803603810190610af09190614e00565b612e04565b005b610b116004803603810190610b0c9190614ea0565b612ec1565b005b6000600a600083815260200190815260200160002060008473ffffffffffffffffffffffffffffffffffffffff1673ffffffffffffffffffffffffffffffffffffffff16815260200190815260200160002054905092915050565b6000610b7982613108565b9050919050565b826008600082815260200190815260200160002060009054906101000a900473ffffffffffffffffffffffffffffffffffffffff1673ffffffffffffffffffffffffffffffffffffffff163373ffffffffffffffffffffffffffffffffffffffff1614610bec57600080fd5b828260078681548110610c0257610c01615c62565b5b90600052602060002090600702016002019190610c20929190614258565b5050505050565b606060118054610c3690615afa565b80601f0160208091040260200160405190810160405280929190818152602001828054610c6290615afa565b8015610caf5780601f10610c8457610100808354040283529160200191610caf565b820191906000526020600020905b815481529060010190602001808311610c9257829003601f168201915b50505050509050919050565b60086020528060005260406000206000915054906101000a900473ffffffffffffffffffffffffffffffffffffffff1681565b816008600082815260200190815260200160002060009054906101000a900473ffffffffffffffffffffffffffffffffffffffff1673ffffffffffffffffffffffffffffffffffffffff163373ffffffffffffffffffffffffffffffffffffffff1614610d5a57600080fd5b8160078481548110610d6f57610d6e615c62565b5b906000526020600020906007020160000160006101000a81548173ffffffffffffffffffffffffffffffffffffffff021916908373ffffffffffffffffffffffffffffffffffffffff160217905550505050565b60005b8351811015610f8857828181518110610de257610de1615c62565b5b6020026020010151600a6000868481518110610e0157610e00615c62565b5b6020026020010151815260200190815260200160002060008773ffffffffffffffffffffffffffffffffffffffff1673ffffffffffffffffffffffffffffffffffffffff1681526020019081526020016000206000828254610e6391906158d7565b92505081905550828181518110610e7d57610e7c615c62565b5b6020026020010151600b60008773ffffffffffffffffffffffffffffffffffffffff1673ffffffffffffffffffffffffffffffffffffffff1681526020019081526020016000206000868481518110610ed957610ed8615c62565b5b602002602001015181526020019081526020016000206000828254610efe91906158d7565b92505081905550828181518110610f1857610f17615c62565b5b60200260200101516007858381518110610f3557610f34615c62565b5b602002602001015181548110610f4e57610f4d615c62565b5b90600052602060002090600702016005016000828254610f6e91906158d7565b925050819055508080610f8090615b5d565b915050610dc6565b508373ffffffffffffffffffffffffffffffffffffffff16600073ffffffffffffffffffffffffffffffffffffffff163373ffffffffffffffffffffffffffffffffffffffff167f4a39dc06d4c0dbc64b70af90fd698a233a518aa5d07e595d983b8c0526c8f7fb8686604051611000929190615430565b60405180910390a450505050565b6000600d6000838152602001908152602001600020600101549050919050565b3373ffffffffffffffffffffffffffffffffffffffff168173ffffffffffffffffffffffffffffffffffffffff161461106657600080fd5b60006007848154811061107c5761107b615c62565b5b906000526020600020906007020160050154905060006110cb828560055460065460078a815481106110b1576110b0615c62565b5b9060005260206000209060070201600601546004546131ea565b905060006064600154836110df919061595e565b6110e9919061592d565b905080826110f791906159b8565b9150611104848787612c76565b8373ffffffffffffffffffffffffffffffffffffffff166108fc839081150290604051600060405180830381858888f1935050505015801561114a573d6000803e3d6000fd5b5061115481613263565b3373ffffffffffffffffffffffffffffffffffffffff167f1ebb537d8231cf8a6b1b0d1684d85dfd83872c030ffc75f500f0729eaf674d82868860078a815481106111a2576111a1615c62565b5b906000526020600020906007020160010160078b815481106111c7576111c6615c62565b5b90600052602060002090600702016002016040516111e894939291906156f3565b60405180910390a2505050505050565b60005b835181101561134d5782818151811061121757611216615c62565b5b6020026020010151600a600086848151811061123657611235615c62565b5b6020026020010151815260200190815260200160002060008873ffffffffffffffffffffffffffffffffffffffff1673ffffffffffffffffffffffffffffffffffffffff168152602001908152602001600020600082825461129891906159b8565b925050819055508281815181106112b2576112b1615c62565b5b6020026020010151600a60008684815181106112d1576112d0615c62565b5b6020026020010151815260200190815260200160002060008773ffffffffffffffffffffffffffffffffffffffff1673ffffffffffffffffffffffffffffffffffffffff168152602001908152602001600020600082825461133391906158d7565b92505081905550808061134590615b5d565b9150506111fb565b508373ffffffffffffffffffffffffffffffffffffffff168573ffffffffffffffffffffffffffffffffffffffff163373ffffffffffffffffffffffffffffffffffffffff167f4a39dc06d4c0dbc64b70af90fd698a233a518aa5d07e595d983b8c0526c8f7fb86866040516113c4929190615430565b60405180910390a45050505050565b6113dd8282613298565b61140281600e60008581526020019081526020016000206130d890919063ffffffff16565b505050565b61140f6142de565b600061141b848461163e565b90506000611428826120a1565b90506000818361143891906158d7565b9050604051806060016040528084815260200183815260200182815250935050505092915050565b61146a82826132c1565b61148f81600e600085815260200190815260200160002061334490919063ffffffff16565b505050565b6114c57f65d7a28e3265b37a6474929f336521b332c1681b933f6cb9f3376673440d862a6114c0613374565b611f0d565b611504576040517f08c379a00000000000000000000000000000000000000000000000000000000081526004016114fb9061557f565b60405180910390fd5b61150c61337c565b565b606060008585905067ffffffffffffffff81111561152f5761152e615c91565b5b60405190808252806020026020018201604052801561155d5781602001602082028036833780820191505090505b50905060005b8686905081101561163157600a600086868481811061158557611584615c62565b5b90506020020135815260200190815260200160002060008888848181106115af576115ae615c62565b5b90506020020160208101906115c491906146a1565b73ffffffffffffffffffffffffffffffffffffffff1673ffffffffffffffffffffffffffffffffffffffff1681526020019081526020016000205482828151811061161257611611615c62565b5b602002602001018181525050808061162990615b5d565b915050611563565b5080915050949350505050565b6000806000905060006007858154811061165b5761165a615c62565b5b90600052602060002090600702016005015490506000848261167d91906158d7565b90506007868154811061169357611692615c62565b5b9060005260206000209060070201600601548110156116ec576116e5828660055460065460078b815481106116cb576116ca615c62565b5b9060005260206000209060070201600601546004546131ea565b925061183f565b60078681548110611700576116ff615c62565b5b90600052602060002090600702016006015482101561182b576117a7600787815481106117305761172f615c62565b5b906000526020600020906007020160060154836007898154811061175757611756615c62565b5b90600052602060002090600702016006015461177391906159b8565b60055460065460078b8154811061178d5761178c615c62565b5b9060005260206000209060070201600601546004546131ea565b9250611819600787815481106117c0576117bf615c62565b5b90600052602060002090600702016006015483600789815481106117e7576117e6615c62565b5b90600052602060002090600702016006015461180391906159b8565b8761180e91906159b8565b60055460065461341e565b8361182491906158d7565b925061183e565b61183b828660055460065461341e565b92505b5b82935050505092915050565b611853613374565b73ffffffffffffffffffffffffffffffffffffffff16611871611eb5565b73ffffffffffffffffffffffffffffffffffffffff16146118c7576040517f08c379a00000000000000000000000000000000000000000000000000000000081526004016118be9061555f565b60405180910390fd5b8073ffffffffffffffffffffffffffffffffffffffff166108fc479081150290604051600060405180830381858888f1935050505015801561190d573d6000803e3d6000fd5b5050565b6000601260009054906101000a900460ff16905090565b60005b8251811015611aed5781818151811061194757611946615c62565b5b6020026020010151600a600085848151811061196657611965615c62565b5b6020026020010151815260200190815260200160002060008673ffffffffffffffffffffffffffffffffffffffff1673ffffffffffffffffffffffffffffffffffffffff16815260200190815260200160002060008282546119c891906159b8565b925050819055508181815181106119e2576119e1615c62565b5b6020026020010151600b60008673ffffffffffffffffffffffffffffffffffffffff1673ffffffffffffffffffffffffffffffffffffffff1681526020019081526020016000206000858481518110611a3e57611a3d615c62565b5b602002602001015181526020019081526020016000206000828254611a6391906159b8565b92505081905550818181518110611a7d57611a7c615c62565b5b60200260200101516007848381518110611a9a57611a99615c62565b5b602002602001015181548110611ab357611ab2615c62565b5b90600052602060002090600702016005016000828254611ad391906159b8565b925050819055508080611ae590615b5d565b91505061192b565b50600073ffffffffffffffffffffffffffffffffffffffff168373ffffffffffffffffffffffffffffffffffffffff163373ffffffffffffffffffffffffffffffffffffffff167f4a39dc06d4c0dbc64b70af90fd698a233a518aa5d07e595d983b8c0526c8f7fb8585604051611b65929190615430565b60405180910390a4505050565b611b7a613374565b73ffffffffffffffffffffffffffffffffffffffff16611b98611eb5565b73ffffffffffffffffffffffffffffffffffffffff1614611bee576040517f08c379a0000000000000000000000000000000000000000000000000000000008152600401611be59061555f565b60405180910390fd5b600073ffffffffffffffffffffffffffffffffffffffff1660008054906101000a900473ffffffffffffffffffffffffffffffffffffffff1673ffffffffffffffffffffffffffffffffffffffff167f8be0079c531659141344cd1fd0a4f28419497f9722a3daafe3b4186f6b6457e060405160405180910390a360008060006101000a81548173ffffffffffffffffffffffffffffffffffffffff021916908373ffffffffffffffffffffffffffffffffffffffff160217905550565b81600a600085815260200190815260200160002060008673ffffffffffffffffffffffffffffffffffffffff1673ffffffffffffffffffffffffffffffffffffffff1681526020019081526020016000206000828254611d0c91906158d7565b9250508190555081600b60008673ffffffffffffffffffffffffffffffffffffffff1673ffffffffffffffffffffffffffffffffffffffff16815260200190815260200160002060008581526020019081526020016000206000828254611d7391906158d7565b925050819055508160078481548110611d8f57611d8e615c62565b5b90600052602060002090600702016005016000828254611daf91906158d7565b925050819055508373ffffffffffffffffffffffffffffffffffffffff16600073ffffffffffffffffffffffffffffffffffffffff163373ffffffffffffffffffffffffffffffffffffffff167fc3d58168c5ae7397731d063d5bbf3d657854427343f4c083240f7aacaa2d0f628686604051611e2d929190615759565b60405180910390a450505050565b611e6c7f65d7a28e3265b37a6474929f336521b332c1681b933f6cb9f3376673440d862a611e67613374565b611f0d565b611eab576040517f08c379a0000000000000000000000000000000000000000000000000000000008152600401611ea29061559f565b60405180910390fd5b611eb36134ac565b565b60008060009054906101000a900473ffffffffffffffffffffffffffffffffffffffff16905090565b6000611f0582600e600086815260200190815260200160002061354f90919063ffffffff16565b905092915050565b6000600d600084815260200190815260200160002060000160008373ffffffffffffffffffffffffffffffffffffffff1673ffffffffffffffffffffffffffffffffffffffff16815260200190815260200160002060009054906101000a900460ff16905092915050565b600b602052816000526040600020602052806000526040600020600091509150505481565b6000801b81565b80600c60003373ffffffffffffffffffffffffffffffffffffffff1673ffffffffffffffffffffffffffffffffffffffff16815260200190815260200160002060008473ffffffffffffffffffffffffffffffffffffffff1673ffffffffffffffffffffffffffffffffffffffff16815260200190815260200160002060006101000a81548160ff0219169083151502179055508173ffffffffffffffffffffffffffffffffffffffff163373ffffffffffffffffffffffffffffffffffffffff167f17307eab39ab6107e8899845ad3d59bd9653f200f220920489ca2b5937696c31836040516120959190615467565b60405180910390a35050565b60006064600154836120b3919061595e565b6120bd919061592d565b9050919050565b600a602052816000526040600020602052806000526040600020600091509150505481565b826008600082815260200190815260200160002060009054906101000a900473ffffffffffffffffffffffffffffffffffffffff1673ffffffffffffffffffffffffffffffffffffffff163373ffffffffffffffffffffffffffffffffffffffff161461215557600080fd5b82826007868154811061216b5761216a615c62565b5b90600052602060002090600702016001019190612189929190614258565b5050505050565b612198613374565b73ffffffffffffffffffffffffffffffffffffffff166121b6611eb5565b73ffffffffffffffffffffffffffffffffffffffff161461220c576040517f08c379a00000000000000000000000000000000000000000000000000000000081526004016122039061555f565b60405180910390fd5b8060048190555050565b6000612233600e6000848152602001908152602001600020613569565b9050919050565b6007818154811061224a57600080fd5b90600052602060002090600702016000915090508060000160009054906101000a900473ffffffffffffffffffffffffffffffffffffffff169080600101805461229390615afa565b80601f01602080910402602001604051908101604052809291908181526020018280546122bf90615afa565b801561230c5780601f106122e15761010080835404028352916020019161230c565b820191906000526020600020905b8154815290600101906020018083116122ef57829003601f168201915b50505050509080600201805461232190615afa565b80601f016020809104026020016040519081016040528092919081815260200182805461234d90615afa565b801561239a5780601f1061236f5761010080835404028352916020019161239a565b820191906000526020600020905b81548152906001019060200180831161237d57829003601f168201915b5050505050908060030180546123af90615afa565b80601f01602080910402602001604051908101604052809291908181526020018280546123db90615afa565b80156124285780601f106123fd57610100808354040283529160200191612428565b820191906000526020600020905b81548152906001019060200180831161240b57829003601f168201915b5050505050908060040160009054906101000a900460ff16908060050154908060060154905087565b7f9f2df0fed2c77648de5860a4cc508cd0818c85b8b8a1ab4ceeef8d981c8956a681565b61247f828261357e565b6124a481600e600085815260200190815260200160002061334490919063ffffffff16565b505050565b60076040518060e001604052808673ffffffffffffffffffffffffffffffffffffffff168152602001858152602001848152602001838152602001600015158152602001600081526020016000815250908060018154018082558091505060019003906000526020600020906007020160009091909190915060008201518160000160006101000a81548173ffffffffffffffffffffffffffffffffffffffff021916908373ffffffffffffffffffffffffffffffffffffffff1602179055506020820151816001019080519060200190612585929190614300565b5060408201518160020190805190602001906125a2929190614300565b5060608201518160030190805190602001906125bf929190614300565b5060808201518160040160006101000a81548160ff02191690831515021790555060a0820151816005015560c0820151816006015550506000600160078054905061260a91906159b8565b9050846008600083815260200190815260200160002060006101000a81548173ffffffffffffffffffffffffffffffffffffffff021916908373ffffffffffffffffffffffffffffffffffffffff160217905550600060096000838152602001908152602001600020819055507f3ef624c0f3fb7ad40b94c02078ea3e3a797dbfc21e921ee4bd2b8ad0ca6aa113818686868660008060006040516126b69897969594939291906155fa565b60405180910390a15050505050565b6126cd613374565b73ffffffffffffffffffffffffffffffffffffffff166126eb611eb5565b73ffffffffffffffffffffffffffffffffffffffff1614612741576040517f08c379a00000000000000000000000000000000000000000000000000000000081526004016127389061555f565b60405180910390fd5b8060018190555050565b826008600082815260200190815260200160002060009054906101000a900473ffffffffffffffffffffffffffffffffffffffff1673ffffffffffffffffffffffffffffffffffffffff163373ffffffffffffffffffffffffffffffffffffffff16146127b757600080fd5b8282600786815481106127cd576127cc615c62565b5b906000526020600020906007020160030191906127eb929190614258565b5050505050565b7f65d7a28e3265b37a6474929f336521b332c1681b933f6cb9f3376673440d862a81565b6000600c60008473ffffffffffffffffffffffffffffffffffffffff1673ffffffffffffffffffffffffffffffffffffffff16815260200190815260200160002060008373ffffffffffffffffffffffffffffffffffffffff1673ffffffffffffffffffffffffffffffffffffffff16815260200190815260200160002060009054906101000a900460ff16905092915050565b6128b2613374565b73ffffffffffffffffffffffffffffffffffffffff166128d0611eb5565b73ffffffffffffffffffffffffffffffffffffffff1614612926576040517f08c379a000000000000000000000000000000000000000000000000000000000815260040161291d9061555f565b60405180910390fd5b8073ffffffffffffffffffffffffffffffffffffffff166108fc6003549081150290604051600060405180830381858888f1935050505015801561296e573d6000803e3d6000fd5b50600060038190555050565b81600a600085815260200190815260200160002060008773ffffffffffffffffffffffffffffffffffffffff1673ffffffffffffffffffffffffffffffffffffffff16815260200190815260200160002060008282546129da91906159b8565b9250508190555081600a600085815260200190815260200160002060008673ffffffffffffffffffffffffffffffffffffffff1673ffffffffffffffffffffffffffffffffffffffff1681526020019081526020016000206000828254612a4191906158d7565b925050819055508373ffffffffffffffffffffffffffffffffffffffff168573ffffffffffffffffffffffffffffffffffffffff163373ffffffffffffffffffffffffffffffffffffffff167fc3d58168c5ae7397731d063d5bbf3d657854427343f4c083240f7aacaa2d0f628686604051612abe929190615759565b60405180910390a45050505050565b612ad5613374565b73ffffffffffffffffffffffffffffffffffffffff16612af3611eb5565b73ffffffffffffffffffffffffffffffffffffffff1614612b49576040517f08c379a0000000000000000000000000000000000000000000000000000000008152600401612b409061555f565b60405180910390fd5b600073ffffffffffffffffffffffffffffffffffffffff168173ffffffffffffffffffffffffffffffffffffffff161415612bb9576040517f08c379a0000000000000000000000000000000000000000000000000000000008152600401612bb09061551f565b60405180910390fd5b8073ffffffffffffffffffffffffffffffffffffffff1660008054906101000a900473ffffffffffffffffffffffffffffffffffffffff1673ffffffffffffffffffffffffffffffffffffffff167f8be0079c531659141344cd1fd0a4f28419497f9722a3daafe3b4186f6b6457e060405160405180910390a3806000806101000a81548173ffffffffffffffffffffffffffffffffffffffff021916908373ffffffffffffffffffffffffffffffffffffffff16021790555050565b80600a600084815260200190815260200160002060008573ffffffffffffffffffffffffffffffffffffffff1673ffffffffffffffffffffffffffffffffffffffff1681526020019081526020016000206000828254612cd691906159b8565b9250508190555080600b60008573ffffffffffffffffffffffffffffffffffffffff1673ffffffffffffffffffffffffffffffffffffffff16815260200190815260200160002060008481526020019081526020016000206000828254612d3d91906159b8565b925050819055508060078381548110612d5957612d58615c62565b5b90600052602060002090600702016005016000828254612d7991906159b8565b92505081905550600073ffffffffffffffffffffffffffffffffffffffff168373ffffffffffffffffffffffffffffffffffffffff163373ffffffffffffffffffffffffffffffffffffffff167fc3d58168c5ae7397731d063d5bbf3d657854427343f4c083240f7aacaa2d0f628585604051612df7929190615759565b60405180910390a4505050565b612e0c613374565b73ffffffffffffffffffffffffffffffffffffffff16612e2a611eb5565b73ffffffffffffffffffffffffffffffffffffffff1614612e80576040517f08c379a0000000000000000000000000000000000000000000000000000000008152600401612e779061555f565b60405180910390fd5b8060078381548110612e9557612e94615c62565b5b906000526020600020906007020160040160006101000a81548160ff0219169083151502179055505050565b6000612ecd8383611407565b600260038110612ee057612edf615c62565b5b60200201519050803414612ef357600080fd5b612f1d612f008484611407565b600160038110612f1357612f12615c62565b5b6020020151613263565b612f3833848460405180602001604052806000815250611cac565b3373ffffffffffffffffffffffffffffffffffffffff167f1ebb537d8231cf8a6b1b0d1684d85dfd83872c030ffc75f500f0729eaf674d82838560078781548110612f8657612f85615c62565b5b906000526020600020906007020160010160078881548110612fab57612faa615c62565b5b9060005260206000209060070201600201604051612fcc949392919061568d565b60405180910390a260078381548110612fe857612fe7615c62565b5b9060005260206000209060070201600601546007848154811061300e5761300d615c62565b5b90600052602060002090600702016005015411156130c5576007838154811061303a57613039615c62565b5b906000526020600020906007020160050154600784815481106130605761305f615c62565b5b9060005260206000209060070201600601819055506130c4836007858154811061308d5761308c615c62565b5b906000526020600020906007020160000160009054906101000a900473ffffffffffffffffffffffffffffffffffffffff166135a7565b5b505050565b6130d482826136fc565b5050565b6000613100836000018373ffffffffffffffffffffffffffffffffffffffff1660001b6137dd565b905092915050565b60007fd9b67a26000000000000000000000000000000000000000000000000000000007bffffffffffffffffffffffffffffffffffffffffffffffffffffffff1916827bffffffffffffffffffffffffffffffffffffffffffffffffffffffff191614806131d357507f0e89341c000000000000000000000000000000000000000000000000000000007bffffffffffffffffffffffffffffffffffffffffffffffffffffffff1916827bffffffffffffffffffffffffffffffffffffffffffffffffffffffff1916145b806131e357506131e28261384d565b5b9050919050565b6000806000806131fe8a8a8a8a8a8a6138c7565b9250925092506000838b10156132215761321a84848d85613942565b9050613252565b8382101561323f5761323884848d858d8d8d6139e5565b9050613251565b61324e84848d858d8d8d613b07565b90505b5b809450505050509695505050505050565b806002600082825461327591906158d7565b92505081905550806003600082825461328e91906158d7565b9250508190555050565b6132a18261100e565b6132b2816132ad613374565b613c05565b6132bc83836136fc565b505050565b6132c9613374565b73ffffffffffffffffffffffffffffffffffffffff168173ffffffffffffffffffffffffffffffffffffffff1614613336576040517f08c379a000000000000000000000000000000000000000000000000000000000815260040161332d906155bf565b60405180910390fd5b6133408282613ca2565b5050565b600061336c836000018373ffffffffffffffffffffffffffffffffffffffff1660001b613d84565b905092915050565b600033905090565b613384611911565b6133c3576040517f08c379a00000000000000000000000000000000000000000000000000000000081526004016133ba906154ff565b60405180910390fd5b6000601260006101000a81548160ff0219169083151502179055507f5db9ee0a495bf2e6ff9c91a7834c1ba4fdd244a5e8aa4e537bd38aeae4b073aa613407613374565b6040516134149190615354565b60405180910390a1565b600080848661342d91906158d7565b9050600083878661343e919061595e565b613448919061592d565b90506000848387613459919061595e565b613463919061592d565b90506000888461347391906159b8565b90506000600282848661348691906158d7565b613490919061595e565b61349a919061592d565b90508095505050505050949350505050565b6134b4611911565b156134f4576040517f08c379a00000000000000000000000000000000000000000000000000000000081526004016134eb9061553f565b60405180910390fd5b6001601260006101000a81548160ff0219169083151502179055507f62e78cea01bee320cd4e420270b5ea74000d11b0c9f74754ebdbfc544b05a258613538613374565b6040516135459190615354565b60405180910390a1565b600061355e8360000183613e90565b60001c905092915050565b600061357782600001613f04565b9050919050565b6135878261100e565b61359881613593613374565b613c05565b6135a28383613ca2565b505050565b6000600960008481526020019081526020016000205490506000613644600785815481106135d8576135d7615c62565b5b906000526020600020906007020160060154600786815481106135fe576135fd615c62565b5b9060005260206000209060070201600601546005546006546007898154811061362a57613629615c62565b5b9060005260206000209060070201600601546004546131ea565b61367a60006007878154811061365d5761365c615c62565b5b90600052602060002090600702016006015460055460065461341e565b61368491906159b8565b90506000828261369491906159b8565b90508373ffffffffffffffffffffffffffffffffffffffff166108fc829081150290604051600060405180830381858888f193505050501580156136dc573d6000803e3d6000fd5b508160096000878152602001908152602001600020819055505050505050565b6137068282611f0d565b6137d9576001600d600084815260200190815260200160002060000160008373ffffffffffffffffffffffffffffffffffffffff1673ffffffffffffffffffffffffffffffffffffffff16815260200190815260200160002060006101000a81548160ff02191690831515021790555061377e613374565b73ffffffffffffffffffffffffffffffffffffffff168173ffffffffffffffffffffffffffffffffffffffff16837f2f8788117e7eff1d82e926ec794901d17c78024a50270940304540a733656f0d60405160405180910390a45b5050565b60006137e98383613f15565b613842578260000182908060018154018082558091505060019003906000526020600020016000909190919091505582600001805490508360010160008481526020019081526020016000208190555060019050613847565b600090505b92915050565b60007f5a05180f000000000000000000000000000000000000000000000000000000007bffffffffffffffffffffffffffffffffffffffffffffffffffffffff1916827bffffffffffffffffffffffffffffffffffffffffffffffffffffffff191614806138c057506138bf82613f38565b5b9050919050565b6000806000806002866138da919061592d565b90506000878960648860326138ef91906159b8565b8a6138fa919061595e565b613904919061592d565b61390e919061595e565b613918919061592d565b905060008a8c61392891906159b8565b905082828295509550955050505096509650969350505050565b600080828661395191906159b8565b868661395d919061592d565b613967919061595e565b8561397291906159b8565b90506000848761398291906159b8565b878761398e919061592d565b613998919061595e565b866139a391906159b8565b9050600084866139b391906159b8565b905060028183856139c491906158d7565b6139ce919061595e565b6139d8919061592d565b9350505050949350505050565b60008085896139f491906159b8565b8989613a00919061592d565b613a0a919061595e565b88613a1591906159b8565b905060008890506000878b613a2a91906159b8565b905060006002828486613a3d91906158d7565b613a47919061595e565b613a51919061592d565b905060008b8d8c613a6291906159b8565b8e89613a6e91906159b8565b8e8b8b8e613a7c919061595e565b613a86919061592d565b613a9091906159b8565b613a9a919061592d565b613aa4919061595e565b613aae91906158d7565b905060008d8c613abe91906159b8565b905060006002828488613ad191906158d7565b613adb919061595e565b613ae5919061592d565b90508084613af391906158d7565b975050505050505050979650505050505050565b600080878987613b1791906159b8565b8a85613b2391906159b8565b8a87878a613b31919061595e565b613b3b919061592d565b613b4591906159b8565b613b4f919061592d565b613b59919061595e565b613b6391906158d7565b90506000888a89613b7491906159b8565b8b86613b8091906159b8565b8b88888b613b8e919061595e565b613b98919061592d565b613ba291906159b8565b613bac919061592d565b613bb6919061595e565b613bc091906158d7565b905060008789613bd091906159b8565b90506002818385613be191906158d7565b613beb919061595e565b613bf5919061592d565b9350505050979650505050505050565b613c0f8282611f0d565b613c9e57613c348173ffffffffffffffffffffffffffffffffffffffff166014613fb2565b613c428360001c6020613fb2565b604051602001613c5392919061531a565b6040516020818303038152906040526040517f08c379a0000000000000000000000000000000000000000000000000000000008152600401613c95919061549d565b60405180910390fd5b5050565b613cac8282611f0d565b15613d80576000600d600084815260200190815260200160002060000160008373ffffffffffffffffffffffffffffffffffffffff1673ffffffffffffffffffffffffffffffffffffffff16815260200190815260200160002060006101000a81548160ff021916908315150217905550613d25613374565b73ffffffffffffffffffffffffffffffffffffffff168173ffffffffffffffffffffffffffffffffffffffff16837ff6391f5c32d9c69d2a47ea670b442974b53935d1edc7fd64eb21e047a839171b60405160405180910390a45b5050565b60008083600101600084815260200190815260200160002054905060008114613e84576000600182613db691906159b8565b9050600060018660000180549050613dce91906159b8565b90506000866000018281548110613de857613de7615c62565b5b9060005260206000200154905080876000018481548110613e0c57613e0b615c62565b5b9060005260206000200181905550838760010160008381526020019081526020016000208190555086600001805480613e4857613e47615c33565b5b60019003818190600052602060002001600090559055866001016000878152602001908152602001600020600090556001945050505050613e8a565b60009150505b92915050565b600081836000018054905011613edb576040517f08c379a0000000000000000000000000000000000000000000000000000000008152600401613ed2906154bf565b60405180910390fd5b826000018281548110613ef157613ef0615c62565b5b9060005260206000200154905092915050565b600081600001805490509050919050565b600080836001016000848152602001908152602001600020541415905092915050565b60007f7965db0b000000000000000000000000000000000000000000000000000000007bffffffffffffffffffffffffffffffffffffffffffffffffffffffff1916827bffffffffffffffffffffffffffffffffffffffffffffffffffffffff19161480613fab5750613faa826141ee565b5b9050919050565b606060006002836002613fc5919061595e565b613fcf91906158d7565b67ffffffffffffffff811115613fe857613fe7615c91565b5b6040519080825280601f01601f19166020018201604052801561401a5781602001600182028036833780820191505090505b5090507f30000000000000000000000000000000000000000000000000000000000000008160008151811061405257614051615c62565b5b60200101907effffffffffffffffffffffffffffffffffffffffffffffffffffffffffffff1916908160001a9053507f7800000000000000000000000000000000000000000000000000000000000000816001815181106140b6576140b5615c62565b5b60200101907effffffffffffffffffffffffffffffffffffffffffffffffffffffffffffff1916908160001a905350600060018460026140f6919061595e565b61410091906158d7565b90505b60018111156141a0577f3031323334353637383961626364656600000000000000000000000000000000600f86166010811061414257614141615c62565b5b1a60f81b82828151811061415957614158615c62565b5b60200101907effffffffffffffffffffffffffffffffffffffffffffffffffffffffffffff1916908160001a905350600485901c94508061419990615ad0565b9050614103565b50600084146141e4576040517f08c379a00000000000000000000000000000000000000000000000000000000081526004016141db906154df565b60405180910390fd5b8091505092915050565b60007f01ffc9a7000000000000000000000000000000000000000000000000000000007bffffffffffffffffffffffffffffffffffffffffffffffffffffffff1916827bffffffffffffffffffffffffffffffffffffffffffffffffffffffff1916149050919050565b82805461426490615afa565b90600052602060002090601f01602090048101928261428657600085556142cd565b82601f1061429f57803560ff19168380011785556142cd565b828001600101855582156142cd579182015b828111156142cc5782358255916020019190600101906142b1565b5b5090506142da9190614386565b5090565b6040518060600160405280600390602082028036833780820191505090505090565b82805461430c90615afa565b90600052602060002090601f01602090048101928261432e5760008555614375565b82601f1061434757805160ff1916838001178555614375565b82800160010185558215614375579182015b82811115614374578251825591602001919060010190614359565b5b5090506143829190614386565b5090565b5b8082111561439f576000816000905550600101614387565b5090565b60006143b66143b1846157a7565b615782565b905080838252602082019050828560208602820111156143d9576143d8615cca565b5b60005b8581101561440957816143ef888261468c565b8452602084019350602083019250506001810190506143dc565b5050509392505050565b6000614426614421846157d3565b615782565b90508281526020810184848401111561444257614441615ccf565b5b61444d848285615a8e565b509392505050565b600061446861446384615804565b615782565b90508281526020810184848401111561448457614483615ccf565b5b61448f848285615a8e565b509392505050565b6000813590506144a681615fc2565b92915050565b6000813590506144bb81615fd9565b92915050565b60008083601f8401126144d7576144d6615cc5565b5b8235905067ffffffffffffffff8111156144f4576144f3615cc0565b5b6020830191508360208202830111156145105761450f615cca565b5b9250929050565b60008083601f84011261452d5761452c615cc5565b5b8235905067ffffffffffffffff81111561454a57614549615cc0565b5b60208301915083602082028301111561456657614565615cca565b5b9250929050565b600082601f83011261458257614581615cc5565b5b81356145928482602086016143a3565b91505092915050565b6000813590506145aa81615ff0565b92915050565b6000813590506145bf81616007565b92915050565b6000813590506145d48161601e565b92915050565b600082601f8301126145ef576145ee615cc5565b5b81356145ff848260208601614413565b91505092915050565b60008083601f84011261461e5761461d615cc5565b5b8235905067ffffffffffffffff81111561463b5761463a615cc0565b5b60208301915083600182028301111561465757614656615cca565b5b9250929050565b600082601f83011261467357614672615cc5565b5b8135614683848260208601614455565b91505092915050565b60008135905061469b81616035565b92915050565b6000602082840312156146b7576146b6615cd9565b5b60006146c584828501614497565b91505092915050565b6000602082840312156146e4576146e3615cd9565b5b60006146f2848285016144ac565b91505092915050565b6000806000806080858703121561471557614714615cd9565b5b6000614723878288016144ac565b945050602085013567ffffffffffffffff81111561474457614743615cd4565b5b6147508782880161465e565b935050604085013567ffffffffffffffff81111561477157614770615cd4565b5b61477d8782880161465e565b925050606085013567ffffffffffffffff81111561479e5761479d615cd4565b5b6147aa8782880161465e565b91505092959194509250565b600080604083850312156147cd576147cc615cd9565b5b60006147db85828601614497565b92505060206147ec85828601614497565b9150509250929050565b600080600080600060a0868803121561481257614811615cd9565b5b600061482088828901614497565b955050602061483188828901614497565b945050604086013567ffffffffffffffff81111561485257614851615cd4565b5b61485e8882890161456d565b935050606086013567ffffffffffffffff81111561487f5761487e615cd4565b5b61488b8882890161456d565b925050608086013567ffffffffffffffff8111156148ac576148ab615cd4565b5b6148b8888289016145da565b9150509295509295909350565b600080600080600060a086880312156148e1576148e0615cd9565b5b60006148ef88828901614497565b955050602061490088828901614497565b94505060406149118882890161468c565b93505060606149228882890161468c565b925050608086013567ffffffffffffffff81111561494357614942615cd4565b5b61494f888289016145da565b9150509295509295909350565b60008060006060848603121561497557614974615cd9565b5b600061498386828701614497565b935050602084013567ffffffffffffffff8111156149a4576149a3615cd4565b5b6149b08682870161456d565b925050604084013567ffffffffffffffff8111156149d1576149d0615cd4565b5b6149dd8682870161456d565b9150509250925092565b60008060008060808587031215614a0157614a00615cd9565b5b6000614a0f87828801614497565b945050602085013567ffffffffffffffff811115614a3057614a2f615cd4565b5b614a3c8782880161456d565b935050604085013567ffffffffffffffff811115614a5d57614a5c615cd4565b5b614a698782880161456d565b925050606085013567ffffffffffffffff811115614a8a57614a89615cd4565b5b614a96878288016145da565b91505092959194509250565b60008060408385031215614ab957614ab8615cd9565b5b6000614ac785828601614497565b9250506020614ad88582860161459b565b9150509250929050565b60008060408385031215614af957614af8615cd9565b5b6000614b0785828601614497565b9250506020614b188582860161468c565b9150509250929050565b600080600060608486031215614b3b57614b3a615cd9565b5b6000614b4986828701614497565b9350506020614b5a8682870161468c565b9250506040614b6b8682870161468c565b9150509250925092565b60008060008060808587031215614b8f57614b8e615cd9565b5b6000614b9d87828801614497565b9450506020614bae8782880161468c565b9350506040614bbf8782880161468c565b925050606085013567ffffffffffffffff811115614be057614bdf615cd4565b5b614bec878288016145da565b91505092959194509250565b60008060008060408587031215614c1257614c11615cd9565b5b600085013567ffffffffffffffff811115614c3057614c2f615cd4565b5b614c3c878288016144c1565b9450945050602085013567ffffffffffffffff811115614c5f57614c5e615cd4565b5b614c6b87828801614517565b925092505092959194509250565b600060208284031215614c8f57614c8e615cd9565b5b6000614c9d848285016145b0565b91505092915050565b60008060408385031215614cbd57614cbc615cd9565b5b6000614ccb858286016145b0565b9250506020614cdc85828601614497565b9150509250929050565b60008060408385031215614cfd57614cfc615cd9565b5b6000614d0b858286016145b0565b9250506020614d1c8582860161468c565b9150509250929050565b600060208284031215614d3c57614d3b615cd9565b5b6000614d4a848285016145c5565b91505092915050565b600060208284031215614d6957614d68615cd9565b5b6000614d778482850161468c565b91505092915050565b60008060408385031215614d9757614d96615cd9565b5b6000614da58582860161468c565b9250506020614db685828601614497565b9150509250929050565b60008060408385031215614dd757614dd6615cd9565b5b6000614de58582860161468c565b9250506020614df6858286016144ac565b9150509250929050565b60008060408385031215614e1757614e16615cd9565b5b6000614e258582860161468c565b9250506020614e368582860161459b565b9150509250929050565b600080600060408486031215614e5957614e58615cd9565b5b6000614e678682870161468c565b935050602084013567ffffffffffffffff811115614e8857614e87615cd4565b5b614e9486828701614608565b92509250509250925092565b60008060408385031215614eb757614eb6615cd9565b5b6000614ec58582860161468c565b9250506020614ed68582860161468c565b9150509250929050565b600080600060608486031215614ef957614ef8615cd9565b5b6000614f078682870161468c565b9350506020614f188682870161468c565b9250506040614f29868287016144ac565b9150509250925092565b6000614f3f83836152fc565b60208301905092915050565b614f54816159fe565b82525050565b614f63816159ec565b82525050565b614f7281615864565b614f7c818461589f565b9250614f8782615835565b8060005b83811015614fb8578151614f9f8782614f33565b9650614faa83615885565b925050600181019050614f8b565b505050505050565b6000614fcb8261586f565b614fd581856158aa565b9350614fe08361583f565b8060005b83811015615011578151614ff88882614f33565b975061500383615892565b925050600181019050614fe4565b5085935050505092915050565b61502781615a10565b82525050565b61503681615a1c565b82525050565b61504581615a7c565b82525050565b60006150568261587a565b61506081856158bb565b9350615070818560208601615a9d565b61507981615cde565b840191505092915050565b600061508f8261587a565b61509981856158cc565b93506150a9818560208601615a9d565b80840191505092915050565b600081546150c281615afa565b6150cc81866158bb565b945060018216600081146150e757600181146150f95761512c565b60ff198316865260208601935061512c565b6151028561584f565b60005b8381101561512457815481890152600182019150602081019050615105565b808801955050505b50505092915050565b60006151426022836158bb565b915061514d82615cef565b604082019050919050565b60006151656020836158bb565b915061517082615d3e565b602082019050919050565b60006151886014836158bb565b915061519382615d67565b602082019050919050565b60006151ab6026836158bb565b91506151b682615d90565b604082019050919050565b60006151ce6010836158bb565b91506151d982615ddf565b602082019050919050565b60006151f16003836158bb565b91506151fc82615e08565b602082019050919050565b60006152146020836158bb565b915061521f82615e31565b602082019050919050565b6000615237603b836158bb565b915061524282615e5a565b604082019050919050565b600061525a6039836158bb565b915061526582615ea9565b604082019050919050565b600061527d6017836158cc565b915061528882615ef8565b601782019050919050565b60006152a06004836158bb565b91506152ab82615f21565b602082019050919050565b60006152c36011836158cc565b91506152ce82615f4a565b601182019050919050565b60006152e6602f836158bb565b91506152f182615f73565b604082019050919050565b61530581615a72565b82525050565b61531481615a72565b82525050565b600061532582615270565b91506153318285615084565b915061533c826152b6565b91506153488284615084565b91508190509392505050565b60006020820190506153696000830184614f5a565b92915050565b600060e082019050615384600083018a614f4b565b8181036020830152615396818961504b565b905081810360408301526153aa818861504b565b905081810360608301526153be818761504b565b90506153cd608083018661501e565b6153da60a083018561530b565b6153e760c083018461530b565b98975050505050505050565b60006060820190506154086000830184614f69565b92915050565b600060208201905081810360008301526154288184614fc0565b905092915050565b6000604082019050818103600083015261544a8185614fc0565b9050818103602083015261545e8184614fc0565b90509392505050565b600060208201905061547c600083018461501e565b92915050565b6000602082019050615497600083018461502d565b92915050565b600060208201905081810360008301526154b7818461504b565b905092915050565b600060208201905081810360008301526154d881615135565b9050919050565b600060208201905081810360008301526154f881615158565b9050919050565b600060208201905081810360008301526155188161517b565b9050919050565b600060208201905081810360008301526155388161519e565b9050919050565b60006020820190508181036000830152615558816151c1565b9050919050565b6000602082019050818103600083015261557881615207565b9050919050565b600060208201905081810360008301526155988161522a565b9050919050565b600060208201905081810360008301526155b88161524d565b9050919050565b600060208201905081810360008301526155d8816152d9565b9050919050565b60006020820190506155f4600083018461530b565b92915050565b600061010082019050615610600083018b61530b565b61561d602083018a614f4b565b818103604083015261562f818961504b565b90508181036060830152615643818861504b565b90508181036080830152615657818761504b565b905061566660a083018661501e565b61567360c083018561503c565b61568060e083018461503c565b9998505050505050505050565b600060a0820190506156a2600083018761530b565b81810360208301526156b3816151e4565b90506156c2604083018661530b565b81810360608301526156d481856150b5565b905081810360808301526156e881846150b5565b905095945050505050565b600060a082019050615708600083018761530b565b818103602083015261571981615293565b9050615728604083018661530b565b818103606083015261573a81856150b5565b9050818103608083015261574e81846150b5565b905095945050505050565b600060408201905061576e600083018561530b565b61577b602083018461530b565b9392505050565b600061578c61579d565b90506157988282615b2c565b919050565b6000604051905090565b600067ffffffffffffffff8211156157c2576157c1615c91565b5b602082029050602081019050919050565b600067ffffffffffffffff8211156157ee576157ed615c91565b5b6157f782615cde565b9050602081019050919050565b600067ffffffffffffffff82111561581f5761581e615c91565b5b61582882615cde565b9050602081019050919050565b6000819050919050565b6000819050602082019050919050565b60008190508160005260206000209050919050565b600060039050919050565b600081519050919050565b600081519050919050565b6000602082019050919050565b6000602082019050919050565b600081905092915050565b600082825260208201905092915050565b600082825260208201905092915050565b600081905092915050565b60006158e282615a72565b91506158ed83615a72565b9250827fffffffffffffffffffffffffffffffffffffffffffffffffffffffffffffffff0382111561592257615921615ba6565b5b828201905092915050565b600061593882615a72565b915061594383615a72565b92508261595357615952615bd5565b5b828204905092915050565b600061596982615a72565b915061597483615a72565b9250817fffffffffffffffffffffffffffffffffffffffffffffffffffffffffffffffff04831182151516156159ad576159ac615ba6565b5b828202905092915050565b60006159c382615a72565b91506159ce83615a72565b9250828210156159e1576159e0615ba6565b5b828203905092915050565b60006159f782615a52565b9050919050565b6000615a0982615a52565b9050919050565b60008115159050919050565b6000819050919050565b60007fffffffff0000000000000000000000000000000000000000000000000000000082169050919050565b600073ffffffffffffffffffffffffffffffffffffffff82169050919050565b6000819050919050565b6000615a8782615a72565b9050919050565b82818337600083830152505050565b60005b83811015615abb578082015181840152602081019050615aa0565b83811115615aca576000848401525b50505050565b6000615adb82615a72565b91506000821415615aef57615aee615ba6565b5b600182039050919050565b60006002820490506001821680615b1257607f821691505b60208210811415615b2657615b25615c04565b5b50919050565b615b3582615cde565b810181811067ffffffffffffffff82111715615b5457615b53615c91565b5b80604052505050565b6000615b6882615a72565b91507fffffffffffffffffffffffffffffffffffffffffffffffffffffffffffffffff821415615b9b57615b9a615ba6565b5b600182019050919050565b7f4e487b7100000000000000000000000000000000000000000000000000000000600052601160045260246000fd5b7f4e487b7100000000000000000000000000000000000000000000000000000000600052601260045260246000fd5b7f4e487b7100000000000000000000000000000000000000000000000000000000600052602260045260246000fd5b7f4e487b7100000000000000000000000000000000000000000000000000000000600052603160045260246000fd5b7f4e487b7100000000000000000000000000000000000000000000000000000000600052603260045260246000fd5b7f4e487b7100000000000000000000000000000000000000000000000000000000600052604160045260246000fd5b600080fd5b600080fd5b600080fd5b600080fd5b600080fd5b600080fd5b6000601f19601f8301169050919050565b7f456e756d657261626c655365743a20696e646578206f7574206f6620626f756e60008201527f6473000000000000000000000000000000000000000000000000000000000000602082015250565b7f537472696e67733a20686578206c656e67746820696e73756666696369656e74600082015250565b7f5061757361626c653a206e6f7420706175736564000000000000000000000000600082015250565b7f4f776e61626c653a206e6577206f776e657220697320746865207a65726f206160008201527f6464726573730000000000000000000000000000000000000000000000000000602082015250565b7f5061757361626c653a2070617573656400000000000000000000000000000000600082015250565b7f6275790000000000000000000000000000000000000000000000000000000000600082015250565b7f4f776e61626c653a2063616c6c6572206973206e6f7420746865206f776e6572600082015250565b7f455243313135355072657365744d696e7465725061757365723a206d7573742060008201527f686176652070617573657220726f6c6520746f20756e70617573650000000000602082015250565b7f455243313135355072657365744d696e7465725061757365723a206d7573742060008201527f686176652070617573657220726f6c6520746f20706175736500000000000000602082015250565b7f416363657373436f6e74726f6c3a206163636f756e7420000000000000000000600082015250565b7f73656c6c00000000000000000000000000000000000000000000000000000000600082015250565b7f206973206d697373696e6720726f6c6520000000000000000000000000000000600082015250565b7f416363657373436f6e74726f6c3a2063616e206f6e6c792072656e6f756e636560008201527f20726f6c657320666f722073656c660000000000000000000000000000000000602082015250565b615fcb816159ec565b8114615fd657600080fd5b50565b615fe2816159fe565b8114615fed57600080fd5b50565b615ff981615a10565b811461600457600080fd5b50565b61601081615a1c565b811461601b57600080fd5b50565b61602781615a26565b811461603257600080fd5b50565b61603e81615a72565b811461604957600080fd5b5056fea2646970667358221220aa49067ddc109c3b9a33da027ff24559880c000cf6dea189e49a0c983bad33ca64736f6c63430008060033",
  "immutableReferences": {},
  "source": "// SPDX-License-Identifier: MIT\npragma solidity ^0.8.0;\n\nimport \"./creatortokencomputation.sol\";\n\ncontract CreatorTokenExchange is CreatorTokenComputation {\n\n\tconstructor(string memory uri) CreatorTokenComputation(uri) { }\n\n\t// Event that fires when a new transaction occurs\n\tevent NewTransaction(address indexed account, uint amount, string transactionType, uint tokenId, string name, string symbol);\n\n\t// Allow user to buy a given CreatorToken from the platform\n\tfunction buyCreatorToken(uint _tokenId, uint _amount) external payable {\n\t\t// Compute total transaction proceeds required (inclusive of fee)\n\t\tuint totalProceeds = _totalProceeds(_tokenId, _amount)[2];\n\t\t// Require that user sends totalProceeds in order to transact\n\t\trequire(msg.value == totalProceeds);\n\t\t// Update platform fee total\n\t\t_platformFeeUpdater(_totalProceeds(_tokenId, _amount)[1]);\n\t\t// Mint _amount tokens at the user's address (note this increases token amount outstanding)\n\t\tmint(msg.sender, _tokenId, _amount, \"\");\n\t\t// Emit new transaction event\n\t\temit NewTransaction(msg.sender, _amount, \"buy\", _tokenId, creatorTokens[_tokenId].name, creatorTokens[_tokenId].symbol);\n\t\t// Check if new outstanding amount of token is greater than maxSupply\n\t\tif (creatorTokens[_tokenId].outstanding > creatorTokens[_tokenId].maxSupply) {\n\t\t\t// Update maxSupply\n\t\t\tcreatorTokens[_tokenId].maxSupply = creatorTokens[_tokenId].outstanding;\n\t\t\t// Call _payout to transfer excess liquidity\n\t\t\t_payCreator(_tokenId, creatorTokens[_tokenId].creatorAddress);\n\t\t}\n\t}\n\n\t// Allow user to sell a given CreatorToken back to the platform\n\tfunction sellCreatorToken(uint _tokenId, uint _amount, address payable _seller) external payable {\n\t\t// Require that user calling function is selling own tokens\n\t\trequire(_seller == msg.sender);\n\t\t// Initialize pre-transaction supply\n\t\tuint startingSupply = creatorTokens[_tokenId].outstanding;\n\t\t// Compute sale proceeds required\n\t\tuint proceedsRequired = _saleFunction(startingSupply, _amount, mNumerator, mDenominator, creatorTokens[_tokenId].maxSupply, profitMargin);\n\t\t// Compute fee\n\t\tuint fee = proceedsRequired*platformFee/100;\n\t\t// Add platform fee to obtain real proceedsRequired value\n\t\tproceedsRequired -= fee;\n\t\t// Burn _amount tokens from user's address (note this decreases token amount outstanding)\n\t\tburn(_seller, _tokenId, _amount);\n\t\t// Send user proceedsRequired wei (less the platform fee) in exchange for the burned tokens\n\t\t_seller.transfer(proceedsRequired); //1500000000000000000); //\n\t\t// Update platform fee total\n\t\t_platformFeeUpdater(fee);\n\t\t// Emit new transaction event\n\t\temit NewTransaction(msg.sender, _amount, \"sell\", _tokenId, creatorTokens[_tokenId].name, creatorTokens[_tokenId].symbol);\n\t}\n}\n",
  "sourcePath": "/Users/kamilalizaisadik/DeFi/Dynamic Automated Market Maker/damm_solidity/contracts/CreatorTokenExchange.sol",
  "compiler": {
    "name": "solc",
    "version": "0.8.6+commit.11564f7e.Emscripten.clang"
  },
  "schemaVersion": "3.4.1",
  "updatedAt": "2021-07-06T14:01:21.961Z",
  "devdoc": {
    "kind": "dev",
    "methods": {
      "getRoleAdmin(bytes32)": {
        "details": "Returns the admin role that controls `role`. See {grantRole} and {revokeRole}. To change a role's admin, use {_setRoleAdmin}."
      },
      "getRoleMember(bytes32,uint256)": {
        "details": "Returns one of the accounts that have `role`. `index` must be a value between 0 and {getRoleMemberCount}, non-inclusive. Role bearers are not sorted in any particular way, and their ordering may change at any point. WARNING: When using {getRoleMember} and {getRoleMemberCount}, make sure you perform all queries on the same block. See the following https://forum.openzeppelin.com/t/iterating-over-elements-on-enumerableset-in-openzeppelin-contracts/2296[forum post] for more information."
      },
      "getRoleMemberCount(bytes32)": {
        "details": "Returns the number of accounts that have `role`. Can be used together with {getRoleMember} to enumerate all bearers of a role."
      },
      "grantRole(bytes32,address)": {
        "details": "Overload {grantRole} to track enumerable memberships"
      },
      "hasRole(bytes32,address)": {
        "details": "Returns `true` if `account` has been granted `role`."
      },
      "owner()": {
        "details": "Returns the address of the current owner."
      },
      "pause()": {
        "details": "Pauses all token transfers. See {ERC1155Pausable} and {Pausable-_pause}. Requirements: - the caller must have the `PAUSER_ROLE`."
      },
      "paused()": {
        "details": "Returns true if the contract is paused, and false otherwise."
      },
      "renounceOwnership()": {
        "details": "Leaves the contract without owner. It will not be possible to call `onlyOwner` functions anymore. Can only be called by the current owner. NOTE: Renouncing ownership will leave the contract without an owner, thereby removing any functionality that is only available to the owner."
      },
      "renounceRole(bytes32,address)": {
        "details": "Overload {renounceRole} to track enumerable memberships"
      },
      "revokeRole(bytes32,address)": {
        "details": "Overload {revokeRole} to track enumerable memberships"
      },
      "supportsInterface(bytes4)": {
        "details": "See {IERC165-supportsInterface}."
      },
      "transferOwnership(address)": {
        "details": "Transfers ownership of the contract to a new account (`newOwner`). Can only be called by the current owner."
      },
      "unpause()": {
        "details": "Unpauses all token transfers. See {ERC1155Pausable} and {Pausable-_unpause}. Requirements: - the caller must have the `PAUSER_ROLE`."
      },
      "uri(uint256)": {
        "details": "See {IERC1155MetadataURI-uri}. This implementation returns the same URI for *all* token types. It relies on the token type ID substitution mechanism https://eips.ethereum.org/EIPS/eip-1155#metadata[defined in the EIP]. Clients calling this function must replace the `\\{id\\}` substring with the actual token type ID."
      }
    },
    "version": 1
  },
  "userdoc": {
    "kind": "user",
    "methods": {},
    "version": 1
  }
}