{
  "contractName": "CreatorTokenFees",
  "abi": [
    {
      "inputs": [
        {
          "internalType": "string",
          "name": "uri",
          "type": "string"
        }
      ],
      "stateMutability": "nonpayable",
      "type": "constructor"
    },
    {
      "anonymous": false,
      "inputs": [
        {
          "indexed": true,
          "internalType": "address",
          "name": "account",
          "type": "address"
        },
        {
          "indexed": true,
          "internalType": "address",
          "name": "operator",
          "type": "address"
        },
        {
          "indexed": false,
          "internalType": "bool",
          "name": "approved",
          "type": "bool"
        }
      ],
      "name": "ApprovalForAll",
      "type": "event"
    },
    {
      "anonymous": false,
      "inputs": [
        {
          "indexed": false,
          "internalType": "uint256",
          "name": "tokenId",
          "type": "uint256"
        },
        {
          "indexed": false,
          "internalType": "address payable",
          "name": "creatorAddress",
          "type": "address"
        },
        {
          "indexed": false,
          "internalType": "string",
          "name": "name",
          "type": "string"
        },
        {
          "indexed": false,
          "internalType": "string",
          "name": "symbol",
          "type": "string"
        },
        {
          "indexed": false,
          "internalType": "string",
          "name": "description",
          "type": "string"
        },
        {
          "indexed": false,
          "internalType": "bool",
          "name": "verified",
          "type": "bool"
        },
        {
          "indexed": false,
          "internalType": "uint256",
          "name": "outstanding",
          "type": "uint256"
        },
        {
          "indexed": false,
          "internalType": "uint256",
          "name": "maxSupply",
          "type": "uint256"
        }
      ],
      "name": "NewCreatorToken",
      "type": "event"
    },
    {
      "anonymous": false,
      "inputs": [
        {
          "indexed": true,
          "internalType": "address",
          "name": "previousOwner",
          "type": "address"
        },
        {
          "indexed": true,
          "internalType": "address",
          "name": "newOwner",
          "type": "address"
        }
      ],
      "name": "OwnershipTransferred",
      "type": "event"
    },
    {
      "anonymous": false,
      "inputs": [
        {
          "indexed": true,
          "internalType": "address",
          "name": "operator",
          "type": "address"
        },
        {
          "indexed": true,
          "internalType": "address",
          "name": "from",
          "type": "address"
        },
        {
          "indexed": true,
          "internalType": "address",
          "name": "to",
          "type": "address"
        },
        {
          "indexed": false,
          "internalType": "uint256[]",
          "name": "ids",
          "type": "uint256[]"
        },
        {
          "indexed": false,
          "internalType": "uint256[]",
          "name": "values",
          "type": "uint256[]"
        }
      ],
      "name": "TransferBatch",
      "type": "event"
    },
    {
      "anonymous": false,
      "inputs": [
        {
          "indexed": true,
          "internalType": "address",
          "name": "operator",
          "type": "address"
        },
        {
          "indexed": true,
          "internalType": "address",
          "name": "from",
          "type": "address"
        },
        {
          "indexed": true,
          "internalType": "address",
          "name": "to",
          "type": "address"
        },
        {
          "indexed": false,
          "internalType": "uint256",
          "name": "id",
          "type": "uint256"
        },
        {
          "indexed": false,
          "internalType": "uint256",
          "name": "value",
          "type": "uint256"
        }
      ],
      "name": "TransferSingle",
      "type": "event"
    },
    {
      "anonymous": false,
      "inputs": [
        {
          "indexed": false,
          "internalType": "string",
          "name": "value",
          "type": "string"
        },
        {
          "indexed": true,
          "internalType": "uint256",
          "name": "id",
          "type": "uint256"
        }
      ],
      "name": "URI",
      "type": "event"
    },
    {
      "inputs": [
        {
          "internalType": "address",
          "name": "account",
          "type": "address"
        },
        {
          "internalType": "uint256",
          "name": "id",
          "type": "uint256"
        }
      ],
      "name": "balanceOf",
      "outputs": [
        {
          "internalType": "uint256",
          "name": "",
          "type": "uint256"
        }
      ],
      "stateMutability": "view",
      "type": "function"
    },
    {
      "inputs": [
        {
          "internalType": "address[]",
          "name": "accounts",
          "type": "address[]"
        },
        {
          "internalType": "uint256[]",
          "name": "ids",
          "type": "uint256[]"
        }
      ],
      "name": "balanceOfBatch",
      "outputs": [
        {
          "internalType": "uint256[]",
          "name": "",
          "type": "uint256[]"
        }
      ],
      "stateMutability": "view",
      "type": "function"
    },
    {
      "inputs": [
        {
          "internalType": "uint256",
          "name": "_tokenId",
          "type": "uint256"
        },
        {
          "internalType": "address payable",
          "name": "_newCreatorAddress",
          "type": "address"
        }
      ],
      "name": "changeAddress",
      "outputs": [],
      "stateMutability": "nonpayable",
      "type": "function"
    },
    {
      "inputs": [
        {
          "internalType": "uint256",
          "name": "_tokenId",
          "type": "uint256"
        },
        {
          "internalType": "string",
          "name": "_newDescription",
          "type": "string"
        }
      ],
      "name": "changeDescription",
      "outputs": [],
      "stateMutability": "nonpayable",
      "type": "function"
    },
    {
      "inputs": [
        {
          "internalType": "uint256",
          "name": "_tokenId",
          "type": "uint256"
        },
        {
          "internalType": "string",
          "name": "_newName",
          "type": "string"
        }
      ],
      "name": "changeName",
      "outputs": [],
      "stateMutability": "nonpayable",
      "type": "function"
    },
    {
      "inputs": [
        {
          "internalType": "uint256",
          "name": "_newPlatformFee",
          "type": "uint256"
        }
      ],
      "name": "changePlatformFee",
      "outputs": [],
      "stateMutability": "nonpayable",
      "type": "function"
    },
    {
      "inputs": [
        {
          "internalType": "uint256",
          "name": "_newProfitMargin",
          "type": "uint256"
        }
      ],
      "name": "changeProfitMargin",
      "outputs": [],
      "stateMutability": "nonpayable",
      "type": "function"
    },
    {
      "inputs": [
        {
          "internalType": "uint256",
          "name": "_tokenId",
          "type": "uint256"
        },
        {
          "internalType": "string",
          "name": "_newSymbol",
          "type": "string"
        }
      ],
      "name": "changeSymbol",
      "outputs": [],
      "stateMutability": "nonpayable",
      "type": "function"
    },
    {
      "inputs": [
        {
          "internalType": "uint256",
          "name": "_tokenId",
          "type": "uint256"
        },
        {
          "internalType": "bool",
          "name": "_verified",
          "type": "bool"
        }
      ],
      "name": "changeVerification",
      "outputs": [],
      "stateMutability": "nonpayable",
      "type": "function"
    },
    {
      "inputs": [
        {
          "internalType": "address payable",
          "name": "_creatorAddress",
          "type": "address"
        },
        {
          "internalType": "string",
          "name": "_name",
          "type": "string"
        },
        {
          "internalType": "string",
          "name": "_symbol",
          "type": "string"
        },
        {
          "internalType": "string",
          "name": "_description",
          "type": "string"
        }
      ],
      "name": "createCreatorToken",
      "outputs": [],
      "stateMutability": "nonpayable",
      "type": "function"
    },
    {
      "inputs": [
        {
          "internalType": "uint256",
          "name": "",
          "type": "uint256"
        }
      ],
      "name": "creatorTokens",
      "outputs": [
        {
          "internalType": "address payable",
          "name": "creatorAddress",
          "type": "address"
        },
        {
          "internalType": "string",
          "name": "name",
          "type": "string"
        },
        {
          "internalType": "string",
          "name": "symbol",
          "type": "string"
        },
        {
          "internalType": "string",
          "name": "description",
          "type": "string"
        },
        {
          "internalType": "bool",
          "name": "verified",
          "type": "bool"
        },
        {
          "internalType": "uint256",
          "name": "outstanding",
          "type": "uint256"
        },
        {
          "internalType": "uint256",
          "name": "maxSupply",
          "type": "uint256"
        }
      ],
      "stateMutability": "view",
      "type": "function"
    },
    {
      "inputs": [
        {
          "internalType": "address",
          "name": "_account",
          "type": "address"
        },
        {
          "internalType": "address",
          "name": "_operator",
          "type": "address"
        }
      ],
      "name": "isApprovedForAll",
      "outputs": [
        {
          "internalType": "bool",
          "name": "",
          "type": "bool"
        }
      ],
      "stateMutability": "view",
      "type": "function"
    },
    {
      "inputs": [],
      "name": "owner",
      "outputs": [
        {
          "internalType": "address",
          "name": "",
          "type": "address"
        }
      ],
      "stateMutability": "view",
      "type": "function"
    },
    {
      "inputs": [
        {
          "internalType": "address payable",
          "name": "_owner",
          "type": "address"
        }
      ],
      "name": "payoutPlatformFees",
      "outputs": [],
      "stateMutability": "nonpayable",
      "type": "function"
    },
    {
      "inputs": [],
      "name": "platformFeesOwed",
      "outputs": [
        {
          "internalType": "uint256",
          "name": "",
          "type": "uint256"
        }
      ],
      "stateMutability": "view",
      "type": "function"
    },
    {
      "inputs": [],
      "name": "renounceOwnership",
      "outputs": [],
      "stateMutability": "nonpayable",
      "type": "function"
    },
    {
      "inputs": [
        {
          "internalType": "address",
          "name": "_from",
          "type": "address"
        },
        {
          "internalType": "address",
          "name": "_to",
          "type": "address"
        },
        {
          "internalType": "uint256[]",
          "name": "_ids",
          "type": "uint256[]"
        },
        {
          "internalType": "uint256[]",
          "name": "_amounts",
          "type": "uint256[]"
        },
        {
          "internalType": "bytes",
          "name": "_data",
          "type": "bytes"
        }
      ],
      "name": "safeBatchTransferFrom",
      "outputs": [],
      "stateMutability": "nonpayable",
      "type": "function"
    },
    {
      "inputs": [
        {
          "internalType": "address",
          "name": "_from",
          "type": "address"
        },
        {
          "internalType": "address",
          "name": "_to",
          "type": "address"
        },
        {
          "internalType": "uint256",
          "name": "_id",
          "type": "uint256"
        },
        {
          "internalType": "uint256",
          "name": "_amount",
          "type": "uint256"
        },
        {
          "internalType": "bytes",
          "name": "_data",
          "type": "bytes"
        }
      ],
      "name": "safeTransferFrom",
      "outputs": [],
      "stateMutability": "nonpayable",
      "type": "function"
    },
    {
      "inputs": [
        {
          "internalType": "address",
          "name": "_operator",
          "type": "address"
        },
        {
          "internalType": "bool",
          "name": "_approved",
          "type": "bool"
        }
      ],
      "name": "setApprovalForAll",
      "outputs": [],
      "stateMutability": "nonpayable",
      "type": "function"
    },
    {
      "inputs": [
        {
          "internalType": "bytes4",
          "name": "interfaceId",
          "type": "bytes4"
        }
      ],
      "name": "supportsInterface",
      "outputs": [
        {
          "internalType": "bool",
          "name": "",
          "type": "bool"
        }
      ],
      "stateMutability": "view",
      "type": "function"
    },
    {
      "inputs": [
        {
          "internalType": "uint256",
          "name": "",
          "type": "uint256"
        },
        {
          "internalType": "address",
          "name": "",
          "type": "address"
        }
      ],
      "name": "tokenHoldership",
      "outputs": [
        {
          "internalType": "uint256",
          "name": "",
          "type": "uint256"
        }
      ],
      "stateMutability": "view",
      "type": "function"
    },
    {
      "inputs": [
        {
          "internalType": "uint256",
          "name": "",
          "type": "uint256"
        }
      ],
      "name": "tokenToCreator",
      "outputs": [
        {
          "internalType": "address",
          "name": "",
          "type": "address"
        }
      ],
      "stateMutability": "view",
      "type": "function"
    },
    {
      "inputs": [],
      "name": "totalPlatformFees",
      "outputs": [
        {
          "internalType": "uint256",
          "name": "",
          "type": "uint256"
        }
      ],
      "stateMutability": "view",
      "type": "function"
    },
    {
      "inputs": [
        {
          "internalType": "address",
          "name": "newOwner",
          "type": "address"
        }
      ],
      "name": "transferOwnership",
      "outputs": [],
      "stateMutability": "nonpayable",
      "type": "function"
    },
    {
      "inputs": [
        {
          "internalType": "uint256",
          "name": "",
          "type": "uint256"
        }
      ],
      "name": "uri",
      "outputs": [
        {
          "internalType": "string",
          "name": "",
          "type": "string"
        }
      ],
      "stateMutability": "view",
      "type": "function"
    },
    {
      "inputs": [
        {
          "internalType": "address",
          "name": "",
          "type": "address"
        },
        {
          "internalType": "uint256",
          "name": "",
          "type": "uint256"
        }
      ],
      "name": "userToHoldings",
      "outputs": [
        {
          "internalType": "uint256",
          "name": "",
          "type": "uint256"
        }
      ],
      "stateMutability": "view",
      "type": "function"
    },
    {
      "inputs": [
        {
          "internalType": "address payable",
          "name": "_owner",
          "type": "address"
        }
      ],
      "name": "withdraw",
      "outputs": [],
      "stateMutability": "nonpayable",
      "type": "function"
    },
    {
      "inputs": [
        {
          "internalType": "uint256",
          "name": "_proceedsRequired",
          "type": "uint256"
        }
      ],
      "name": "_feeProceeds",
      "outputs": [
        {
          "internalType": "uint256",
          "name": "",
          "type": "uint256"
        }
      ],
      "stateMutability": "view",
      "type": "function"
    }
  ],
  "bytecode": "0x60806040526001805560006002556000600355601460045565082f79cd900060055560b96006553480156200003357600080fd5b506040516200355838038062003558833981810160405281019062000059919062000279565b80808060006200006e6200012760201b60201c565b9050806000806101000a81548173ffffffffffffffffffffffffffffffffffffffff021916908373ffffffffffffffffffffffffffffffffffffffff1602179055508073ffffffffffffffffffffffffffffffffffffffff16600073ffffffffffffffffffffffffffffffffffffffff167f8be0079c531659141344cd1fd0a4f28419497f9722a3daafe3b4186f6b6457e060405160405180910390a3506200011d816200012f60201b60201c565b505050506200044e565b600033905090565b80600f9080519060200190620001479291906200014b565b5050565b82805462000159906200035f565b90600052602060002090601f0160209004810192826200017d5760008555620001c9565b82601f106200019857805160ff1916838001178555620001c9565b82800160010185558215620001c9579182015b82811115620001c8578251825591602001919060010190620001ab565b5b509050620001d89190620001dc565b5090565b5b80821115620001f7576000816000905550600101620001dd565b5090565b6000620002126200020c84620002f3565b620002ca565b9050828152602081018484840111156200023157620002306200042e565b5b6200023e84828562000329565b509392505050565b600082601f8301126200025e576200025d62000429565b5b815162000270848260208601620001fb565b91505092915050565b60006020828403121562000292576200029162000438565b5b600082015167ffffffffffffffff811115620002b357620002b262000433565b5b620002c18482850162000246565b91505092915050565b6000620002d6620002e9565b9050620002e4828262000395565b919050565b6000604051905090565b600067ffffffffffffffff821115620003115762000310620003fa565b5b6200031c826200043d565b9050602081019050919050565b60005b83811015620003495780820151818401526020810190506200032c565b8381111562000359576000848401525b50505050565b600060028204905060018216806200037857607f821691505b602082108114156200038f576200038e620003cb565b5b50919050565b620003a0826200043d565b810181811067ffffffffffffffff82111715620003c257620003c1620003fa565b5b80604052505050565b7f4e487b7100000000000000000000000000000000000000000000000000000000600052602260045260246000fd5b7f4e487b7100000000000000000000000000000000000000000000000000000000600052604160045260246000fd5b600080fd5b600080fd5b600080fd5b600080fd5b6000601f19601f8301169050919050565b6130fa806200045e6000396000f3fe608060405234801561001057600080fd5b50600436106101c35760003560e01c8063bfb48c9c116100f9578063d7a5791a11610097578063eb84175911610071578063eb8417591461052a578063f242432a14610546578063f2fde38b14610562578063f7374e2e1461057e576101c3565b8063d7a5791a146104c2578063de6a06ed146104de578063e985e9c5146104fa576101c3565b8063c539c317116100d3578063c539c31714610436578063ce901d8a14610452578063d3631fa514610488578063d56b72c7146104a6576101c3565b8063bfb48c9c146103cc578063c1d33049146103fc578063c39cbef11461041a576101c3565b80634e1273f4116101665780638da5cb5b116101405780638da5cb5b1461033257806392724afa14610350578063a22cb46514610380578063ba111a051461039c576101c3565b80634e1273f4146102dc57806351cff8d91461030c578063715018a614610328576101c3565b80630e89341c116101a25780630e89341c1461024457806318892ae8146102745780631d5ad18b146102a45780632eb2c2d6146102c0576101c3565b8062fdd58e146101c857806301ffc9a7146101f857806306e320f514610228575b600080fd5b6101e260048036038101906101dd91906123ff565b61059a565b6040516101ef919061297b565b60405180910390f35b610212600480360381019061020d91906124b7565b610664565b60405161021f91906128be565b60405180910390f35b610242600480360381019061023d91906125d1565b610746565b005b61025e600480360381019061025991906124e4565b6107ed565b60405161026b91906128d9565b60405180910390f35b61028e600480360381019061028991906124e4565b610881565b60405161029b91906127c6565b60405180910390f35b6102be60048036038101906102b99190612551565b6108b4565b005b6102da60048036038101906102d59190612259565b610989565b005b6102f660048036038101906102f1919061243f565b610af5565b6040516103039190612865565b60405180910390f35b61032660048036038101906103219190612131565b610c0e565b005b610330610cd4565b005b61033a610e0e565b60405161034791906127c6565b60405180910390f35b61036a600480360381019061036591906123ff565b610e37565b604051610377919061297b565b60405180910390f35b61039a600480360381019061039591906123bf565b610e5c565b005b6103b660048036038101906103b191906124e4565b610f59565b6040516103c3919061297b565b60405180910390f35b6103e660048036038101906103e19190612511565b610f7c565b6040516103f3919061297b565b60405180910390f35b610404610fa1565b604051610411919061297b565b60405180910390f35b610434600480360381019061042f91906125d1565b610fa7565b005b610450600480360381019061044b91906124e4565b61104e565b005b61046c600480360381019061046791906124e4565b6110d4565b60405161047f97969594939291906127e1565b60405180910390f35b6104906112eb565b60405161049d919061297b565b60405180910390f35b6104c060048036038101906104bb919061215e565b6112f1565b005b6104dc60048036038101906104d791906124e4565b61150d565b005b6104f860048036038101906104f391906125d1565b611593565b005b610514600480360381019061050f9190612219565b61163a565b60405161052191906128be565b60405180910390f35b610544600480360381019061053f9190612131565b6116ce565b005b610560600480360381019061055b9190612328565b61179e565b005b61057c60048036038101906105779190612104565b611882565b005b61059860048036038101906105939190612591565b611a2b565b005b60008073ffffffffffffffffffffffffffffffffffffffff168373ffffffffffffffffffffffffffffffffffffffff16141561060b576040517f08c379a0000000000000000000000000000000000000000000000000000000008152600401610602906128fb565b60405180910390fd5b600d600083815260200190815260200160002060008473ffffffffffffffffffffffffffffffffffffffff1673ffffffffffffffffffffffffffffffffffffffff16815260200190815260200160002054905092915050565b60007fd9b67a26000000000000000000000000000000000000000000000000000000007bffffffffffffffffffffffffffffffffffffffffffffffffffffffff1916827bffffffffffffffffffffffffffffffffffffffffffffffffffffffff1916148061072f57507f0e89341c000000000000000000000000000000000000000000000000000000007bffffffffffffffffffffffffffffffffffffffffffffffffffffffff1916827bffffffffffffffffffffffffffffffffffffffffffffffffffffffff1916145b8061073f575061073e82611ae8565b5b9050919050565b826008600082815260200190815260200160002060009054906101000a900473ffffffffffffffffffffffffffffffffffffffff1673ffffffffffffffffffffffffffffffffffffffff163373ffffffffffffffffffffffffffffffffffffffff16146107b257600080fd5b8282600786815481106107c8576107c7612eae565b5b906000526020600020906007020160020191906107e6929190611d00565b5050505050565b6060600f80546107fc90612d75565b80601f016020809104026020016040519081016040528092919081815260200182805461082890612d75565b80156108755780601f1061084a57610100808354040283529160200191610875565b820191906000526020600020905b81548152906001019060200180831161085857829003601f168201915b50505050509050919050565b60086020528060005260406000206000915054906101000a900473ffffffffffffffffffffffffffffffffffffffff1681565b816008600082815260200190815260200160002060009054906101000a900473ffffffffffffffffffffffffffffffffffffffff1673ffffffffffffffffffffffffffffffffffffffff163373ffffffffffffffffffffffffffffffffffffffff161461092057600080fd5b816007848154811061093557610934612eae565b5b906000526020600020906007020160000160006101000a81548173ffffffffffffffffffffffffffffffffffffffff021916908373ffffffffffffffffffffffffffffffffffffffff160217905550505050565b60005b8351811015610a6f578573ffffffffffffffffffffffffffffffffffffffff163373ffffffffffffffffffffffffffffffffffffffff1614806109d557506109d4868661163a565b5b6109de57600080fd5b610a1d868583815181106109f5576109f4612eae565b5b6020026020010151858481518110610a1057610a0f612eae565b5b6020026020010151611b52565b610a5c85858381518110610a3457610a33612eae565b5b6020026020010151858481518110610a4f57610a4e612eae565b5b6020026020010151611c25565b8080610a6790612dd8565b91505061098c565b508373ffffffffffffffffffffffffffffffffffffffff168573ffffffffffffffffffffffffffffffffffffffff163373ffffffffffffffffffffffffffffffffffffffff167f4a39dc06d4c0dbc64b70af90fd698a233a518aa5d07e595d983b8c0526c8f7fb8686604051610ae6929190612887565b60405180910390a45050505050565b60608151835114610b3b576040517f08c379a0000000000000000000000000000000000000000000000000000000008152600401610b329061295b565b60405180910390fd5b6000835167ffffffffffffffff811115610b5857610b57612edd565b5b604051908082528060200260200182016040528015610b865781602001602082028036833780820191505090505b50905060005b8451811015610c0357610bd3858281518110610bab57610baa612eae565b5b6020026020010151858381518110610bc657610bc5612eae565b5b602002602001015161059a565b828281518110610be657610be5612eae565b5b60200260200101818152505080610bfc90612dd8565b9050610b8c565b508091505092915050565b610c16611cf8565b73ffffffffffffffffffffffffffffffffffffffff16610c34610e0e565b73ffffffffffffffffffffffffffffffffffffffff1614610c8a576040517f08c379a0000000000000000000000000000000000000000000000000000000008152600401610c819061293b565b60405180910390fd5b8073ffffffffffffffffffffffffffffffffffffffff166108fc479081150290604051600060405180830381858888f19350505050158015610cd0573d6000803e3d6000fd5b5050565b610cdc611cf8565b73ffffffffffffffffffffffffffffffffffffffff16610cfa610e0e565b73ffffffffffffffffffffffffffffffffffffffff1614610d50576040517f08c379a0000000000000000000000000000000000000000000000000000000008152600401610d479061293b565b60405180910390fd5b600073ffffffffffffffffffffffffffffffffffffffff1660008054906101000a900473ffffffffffffffffffffffffffffffffffffffff1673ffffffffffffffffffffffffffffffffffffffff167f8be0079c531659141344cd1fd0a4f28419497f9722a3daafe3b4186f6b6457e060405160405180910390a360008060006101000a81548173ffffffffffffffffffffffffffffffffffffffff021916908373ffffffffffffffffffffffffffffffffffffffff160217905550565b60008060009054906101000a900473ffffffffffffffffffffffffffffffffffffffff16905090565b600b602052816000526040600020602052806000526040600020600091509150505481565b80600c60003373ffffffffffffffffffffffffffffffffffffffff1673ffffffffffffffffffffffffffffffffffffffff16815260200190815260200160002060008473ffffffffffffffffffffffffffffffffffffffff1673ffffffffffffffffffffffffffffffffffffffff16815260200190815260200160002060006101000a81548160ff0219169083151502179055508173ffffffffffffffffffffffffffffffffffffffff163373ffffffffffffffffffffffffffffffffffffffff167f17307eab39ab6107e8899845ad3d59bd9653f200f220920489ca2b5937696c3183604051610f4d91906128be565b60405180910390a35050565b6000606460015483610f6b9190612c0d565b610f759190612bdc565b9050919050565b600a602052816000526040600020602052806000526040600020600091509150505481565b60035481565b826008600082815260200190815260200160002060009054906101000a900473ffffffffffffffffffffffffffffffffffffffff1673ffffffffffffffffffffffffffffffffffffffff163373ffffffffffffffffffffffffffffffffffffffff161461101357600080fd5b82826007868154811061102957611028612eae565b5b90600052602060002090600702016001019190611047929190611d00565b5050505050565b611056611cf8565b73ffffffffffffffffffffffffffffffffffffffff16611074610e0e565b73ffffffffffffffffffffffffffffffffffffffff16146110ca576040517f08c379a00000000000000000000000000000000000000000000000000000000081526004016110c19061293b565b60405180910390fd5b8060048190555050565b600781815481106110e457600080fd5b90600052602060002090600702016000915090508060000160009054906101000a900473ffffffffffffffffffffffffffffffffffffffff169080600101805461112d90612d75565b80601f016020809104026020016040519081016040528092919081815260200182805461115990612d75565b80156111a65780601f1061117b576101008083540402835291602001916111a6565b820191906000526020600020905b81548152906001019060200180831161118957829003601f168201915b5050505050908060020180546111bb90612d75565b80601f01602080910402602001604051908101604052809291908181526020018280546111e790612d75565b80156112345780601f1061120957610100808354040283529160200191611234565b820191906000526020600020905b81548152906001019060200180831161121757829003601f168201915b50505050509080600301805461124990612d75565b80601f016020809104026020016040519081016040528092919081815260200182805461127590612d75565b80156112c25780601f10611297576101008083540402835291602001916112c2565b820191906000526020600020905b8154815290600101906020018083116112a557829003601f168201915b5050505050908060040160009054906101000a900460ff16908060050154908060060154905087565b60025481565b60076040518060e001604052808673ffffffffffffffffffffffffffffffffffffffff168152602001858152602001848152602001838152602001600015158152602001600081526020016000815250908060018154018082558091505060019003906000526020600020906007020160009091909190915060008201518160000160006101000a81548173ffffffffffffffffffffffffffffffffffffffff021916908373ffffffffffffffffffffffffffffffffffffffff16021790555060208201518160010190805190602001906113cd929190611d86565b5060408201518160020190805190602001906113ea929190611d86565b506060820151816003019080519060200190611407929190611d86565b5060808201518160040160006101000a81548160ff02191690831515021790555060a0820151816005015560c082015181600601555050600060016007805490506114529190612c67565b9050846008600083815260200190815260200160002060006101000a81548173ffffffffffffffffffffffffffffffffffffffff021916908373ffffffffffffffffffffffffffffffffffffffff160217905550600060096000838152602001908152602001600020819055507f3ef624c0f3fb7ad40b94c02078ea3e3a797dbfc21e921ee4bd2b8ad0ca6aa113818686868660008060006040516114fe989796959493929190612996565b60405180910390a15050505050565b611515611cf8565b73ffffffffffffffffffffffffffffffffffffffff16611533610e0e565b73ffffffffffffffffffffffffffffffffffffffff1614611589576040517f08c379a00000000000000000000000000000000000000000000000000000000081526004016115809061293b565b60405180910390fd5b8060018190555050565b826008600082815260200190815260200160002060009054906101000a900473ffffffffffffffffffffffffffffffffffffffff1673ffffffffffffffffffffffffffffffffffffffff163373ffffffffffffffffffffffffffffffffffffffff16146115ff57600080fd5b82826007868154811061161557611614612eae565b5b90600052602060002090600702016003019190611633929190611d00565b5050505050565b6000600c60008473ffffffffffffffffffffffffffffffffffffffff1673ffffffffffffffffffffffffffffffffffffffff16815260200190815260200160002060008373ffffffffffffffffffffffffffffffffffffffff1673ffffffffffffffffffffffffffffffffffffffff16815260200190815260200160002060009054906101000a900460ff16905092915050565b6116d6611cf8565b73ffffffffffffffffffffffffffffffffffffffff166116f4610e0e565b73ffffffffffffffffffffffffffffffffffffffff161461174a576040517f08c379a00000000000000000000000000000000000000000000000000000000081526004016117419061293b565b60405180910390fd5b8073ffffffffffffffffffffffffffffffffffffffff166108fc6003549081150290604051600060405180830381858888f19350505050158015611792573d6000803e3d6000fd5b50600060038190555050565b8473ffffffffffffffffffffffffffffffffffffffff163373ffffffffffffffffffffffffffffffffffffffff1614806117de57506117dd858561163a565b5b6117e757600080fd5b6117f2858484611b52565b6117fd848484611c25565b8373ffffffffffffffffffffffffffffffffffffffff168573ffffffffffffffffffffffffffffffffffffffff163373ffffffffffffffffffffffffffffffffffffffff167fc3d58168c5ae7397731d063d5bbf3d657854427343f4c083240f7aacaa2d0f628686604051611873929190612a29565b60405180910390a45050505050565b61188a611cf8565b73ffffffffffffffffffffffffffffffffffffffff166118a8610e0e565b73ffffffffffffffffffffffffffffffffffffffff16146118fe576040517f08c379a00000000000000000000000000000000000000000000000000000000081526004016118f59061293b565b60405180910390fd5b600073ffffffffffffffffffffffffffffffffffffffff168173ffffffffffffffffffffffffffffffffffffffff16141561196e576040517f08c379a00000000000000000000000000000000000000000000000000000000081526004016119659061291b565b60405180910390fd5b8073ffffffffffffffffffffffffffffffffffffffff1660008054906101000a900473ffffffffffffffffffffffffffffffffffffffff1673ffffffffffffffffffffffffffffffffffffffff167f8be0079c531659141344cd1fd0a4f28419497f9722a3daafe3b4186f6b6457e060405160405180910390a3806000806101000a81548173ffffffffffffffffffffffffffffffffffffffff021916908373ffffffffffffffffffffffffffffffffffffffff16021790555050565b611a33611cf8565b73ffffffffffffffffffffffffffffffffffffffff16611a51610e0e565b73ffffffffffffffffffffffffffffffffffffffff1614611aa7576040517f08c379a0000000000000000000000000000000000000000000000000000000008152600401611a9e9061293b565b60405180910390fd5b8060078381548110611abc57611abb612eae565b5b906000526020600020906007020160040160006101000a81548160ff0219169083151502179055505050565b60007f01ffc9a7000000000000000000000000000000000000000000000000000000007bffffffffffffffffffffffffffffffffffffffffffffffffffffffff1916827bffffffffffffffffffffffffffffffffffffffffffffffffffffffff1916149050919050565b80600a600084815260200190815260200160002060008573ffffffffffffffffffffffffffffffffffffffff1673ffffffffffffffffffffffffffffffffffffffff1681526020019081526020016000206000828254611bb29190612c67565b9250508190555080600b60008573ffffffffffffffffffffffffffffffffffffffff1673ffffffffffffffffffffffffffffffffffffffff16815260200190815260200160002060008481526020019081526020016000206000828254611c199190612c67565b92505081905550505050565b80600a600084815260200190815260200160002060008573ffffffffffffffffffffffffffffffffffffffff1673ffffffffffffffffffffffffffffffffffffffff1681526020019081526020016000206000828254611c859190612b86565b9250508190555080600b60008573ffffffffffffffffffffffffffffffffffffffff1673ffffffffffffffffffffffffffffffffffffffff16815260200190815260200160002060008481526020019081526020016000206000828254611cec9190612b86565b92505081905550505050565b600033905090565b828054611d0c90612d75565b90600052602060002090601f016020900481019282611d2e5760008555611d75565b82601f10611d4757803560ff1916838001178555611d75565b82800160010185558215611d75579182015b82811115611d74578235825591602001919060010190611d59565b5b509050611d829190611e0c565b5090565b828054611d9290612d75565b90600052602060002090601f016020900481019282611db45760008555611dfb565b82601f10611dcd57805160ff1916838001178555611dfb565b82800160010185558215611dfb579182015b82811115611dfa578251825591602001919060010190611ddf565b5b509050611e089190611e0c565b5090565b5b80821115611e25576000816000905550600101611e0d565b5090565b6000611e3c611e3784612a77565b612a52565b90508083825260208201905082856020860282011115611e5f57611e5e612f16565b5b60005b85811015611e8f5781611e758882611f8d565b845260208401935060208301925050600181019050611e62565b5050509392505050565b6000611eac611ea784612aa3565b612a52565b90508083825260208201905082856020860282011115611ecf57611ece612f16565b5b60005b85811015611eff5781611ee588826120ef565b845260208401935060208301925050600181019050611ed2565b5050509392505050565b6000611f1c611f1784612acf565b612a52565b905082815260208101848484011115611f3857611f37612f1b565b5b611f43848285612d33565b509392505050565b6000611f5e611f5984612b00565b612a52565b905082815260208101848484011115611f7a57611f79612f1b565b5b611f85848285612d33565b509392505050565b600081359050611f9c81613051565b92915050565b600081359050611fb181613068565b92915050565b600082601f830112611fcc57611fcb612f11565b5b8135611fdc848260208601611e29565b91505092915050565b600082601f830112611ffa57611ff9612f11565b5b813561200a848260208601611e99565b91505092915050565b6000813590506120228161307f565b92915050565b60008135905061203781613096565b92915050565b600082601f83011261205257612051612f11565b5b8135612062848260208601611f09565b91505092915050565b60008083601f84011261208157612080612f11565b5b8235905067ffffffffffffffff81111561209e5761209d612f0c565b5b6020830191508360018202830111156120ba576120b9612f16565b5b9250929050565b600082601f8301126120d6576120d5612f11565b5b81356120e6848260208601611f4b565b91505092915050565b6000813590506120fe816130ad565b92915050565b60006020828403121561211a57612119612f25565b5b600061212884828501611f8d565b91505092915050565b60006020828403121561214757612146612f25565b5b600061215584828501611fa2565b91505092915050565b6000806000806080858703121561217857612177612f25565b5b600061218687828801611fa2565b945050602085013567ffffffffffffffff8111156121a7576121a6612f20565b5b6121b3878288016120c1565b935050604085013567ffffffffffffffff8111156121d4576121d3612f20565b5b6121e0878288016120c1565b925050606085013567ffffffffffffffff81111561220157612200612f20565b5b61220d878288016120c1565b91505092959194509250565b600080604083850312156122305761222f612f25565b5b600061223e85828601611f8d565b925050602061224f85828601611f8d565b9150509250929050565b600080600080600060a0868803121561227557612274612f25565b5b600061228388828901611f8d565b955050602061229488828901611f8d565b945050604086013567ffffffffffffffff8111156122b5576122b4612f20565b5b6122c188828901611fe5565b935050606086013567ffffffffffffffff8111156122e2576122e1612f20565b5b6122ee88828901611fe5565b925050608086013567ffffffffffffffff81111561230f5761230e612f20565b5b61231b8882890161203d565b9150509295509295909350565b600080600080600060a0868803121561234457612343612f25565b5b600061235288828901611f8d565b955050602061236388828901611f8d565b9450506040612374888289016120ef565b9350506060612385888289016120ef565b925050608086013567ffffffffffffffff8111156123a6576123a5612f20565b5b6123b28882890161203d565b9150509295509295909350565b600080604083850312156123d6576123d5612f25565b5b60006123e485828601611f8d565b92505060206123f585828601612013565b9150509250929050565b6000806040838503121561241657612415612f25565b5b600061242485828601611f8d565b9250506020612435858286016120ef565b9150509250929050565b6000806040838503121561245657612455612f25565b5b600083013567ffffffffffffffff81111561247457612473612f20565b5b61248085828601611fb7565b925050602083013567ffffffffffffffff8111156124a1576124a0612f20565b5b6124ad85828601611fe5565b9150509250929050565b6000602082840312156124cd576124cc612f25565b5b60006124db84828501612028565b91505092915050565b6000602082840312156124fa576124f9612f25565b5b6000612508848285016120ef565b91505092915050565b6000806040838503121561252857612527612f25565b5b6000612536858286016120ef565b925050602061254785828601611f8d565b9150509250929050565b6000806040838503121561256857612567612f25565b5b6000612576858286016120ef565b925050602061258785828601611fa2565b9150509250929050565b600080604083850312156125a8576125a7612f25565b5b60006125b6858286016120ef565b92505060206125c785828601612013565b9150509250929050565b6000806000604084860312156125ea576125e9612f25565b5b60006125f8868287016120ef565b935050602084013567ffffffffffffffff81111561261957612618612f20565b5b6126258682870161206b565b92509250509250925092565b600061263d83836127a8565b60208301905092915050565b61265281612cad565b82525050565b61266181612c9b565b82525050565b600061267282612b41565b61267c8185612b64565b935061268783612b31565b8060005b838110156126b857815161269f8882612631565b97506126aa83612b57565b92505060018101905061268b565b5085935050505092915050565b6126ce81612cbf565b82525050565b6126dd81612d21565b82525050565b60006126ee82612b4c565b6126f88185612b75565b9350612708818560208601612d42565b61271181612f2a565b840191505092915050565b6000612729602b83612b75565b915061273482612f3b565b604082019050919050565b600061274c602683612b75565b915061275782612f8a565b604082019050919050565b600061276f602083612b75565b915061277a82612fd9565b602082019050919050565b6000612792602983612b75565b915061279d82613002565b604082019050919050565b6127b181612d17565b82525050565b6127c081612d17565b82525050565b60006020820190506127db6000830184612658565b92915050565b600060e0820190506127f6600083018a612649565b818103602083015261280881896126e3565b9050818103604083015261281c81886126e3565b9050818103606083015261283081876126e3565b905061283f60808301866126c5565b61284c60a08301856127b7565b61285960c08301846127b7565b98975050505050505050565b6000602082019050818103600083015261287f8184612667565b905092915050565b600060408201905081810360008301526128a18185612667565b905081810360208301526128b58184612667565b90509392505050565b60006020820190506128d360008301846126c5565b92915050565b600060208201905081810360008301526128f381846126e3565b905092915050565b600060208201905081810360008301526129148161271c565b9050919050565b600060208201905081810360008301526129348161273f565b9050919050565b6000602082019050818103600083015261295481612762565b9050919050565b6000602082019050818103600083015261297481612785565b9050919050565b600060208201905061299060008301846127b7565b92915050565b6000610100820190506129ac600083018b6127b7565b6129b9602083018a612649565b81810360408301526129cb81896126e3565b905081810360608301526129df81886126e3565b905081810360808301526129f381876126e3565b9050612a0260a08301866126c5565b612a0f60c08301856126d4565b612a1c60e08301846126d4565b9998505050505050505050565b6000604082019050612a3e60008301856127b7565b612a4b60208301846127b7565b9392505050565b6000612a5c612a6d565b9050612a688282612da7565b919050565b6000604051905090565b600067ffffffffffffffff821115612a9257612a91612edd565b5b602082029050602081019050919050565b600067ffffffffffffffff821115612abe57612abd612edd565b5b602082029050602081019050919050565b600067ffffffffffffffff821115612aea57612ae9612edd565b5b612af382612f2a565b9050602081019050919050565b600067ffffffffffffffff821115612b1b57612b1a612edd565b5b612b2482612f2a565b9050602081019050919050565b6000819050602082019050919050565b600081519050919050565b600081519050919050565b6000602082019050919050565b600082825260208201905092915050565b600082825260208201905092915050565b6000612b9182612d17565b9150612b9c83612d17565b9250827fffffffffffffffffffffffffffffffffffffffffffffffffffffffffffffffff03821115612bd157612bd0612e21565b5b828201905092915050565b6000612be782612d17565b9150612bf283612d17565b925082612c0257612c01612e50565b5b828204905092915050565b6000612c1882612d17565b9150612c2383612d17565b9250817fffffffffffffffffffffffffffffffffffffffffffffffffffffffffffffffff0483118215151615612c5c57612c5b612e21565b5b828202905092915050565b6000612c7282612d17565b9150612c7d83612d17565b925082821015612c9057612c8f612e21565b5b828203905092915050565b6000612ca682612cf7565b9050919050565b6000612cb882612cf7565b9050919050565b60008115159050919050565b60007fffffffff0000000000000000000000000000000000000000000000000000000082169050919050565b600073ffffffffffffffffffffffffffffffffffffffff82169050919050565b6000819050919050565b6000612d2c82612d17565b9050919050565b82818337600083830152505050565b60005b83811015612d60578082015181840152602081019050612d45565b83811115612d6f576000848401525b50505050565b60006002820490506001821680612d8d57607f821691505b60208210811415612da157612da0612e7f565b5b50919050565b612db082612f2a565b810181811067ffffffffffffffff82111715612dcf57612dce612edd565b5b80604052505050565b6000612de382612d17565b91507fffffffffffffffffffffffffffffffffffffffffffffffffffffffffffffffff821415612e1657612e15612e21565b5b600182019050919050565b7f4e487b7100000000000000000000000000000000000000000000000000000000600052601160045260246000fd5b7f4e487b7100000000000000000000000000000000000000000000000000000000600052601260045260246000fd5b7f4e487b7100000000000000000000000000000000000000000000000000000000600052602260045260246000fd5b7f4e487b7100000000000000000000000000000000000000000000000000000000600052603260045260246000fd5b7f4e487b7100000000000000000000000000000000000000000000000000000000600052604160045260246000fd5b600080fd5b600080fd5b600080fd5b600080fd5b600080fd5b600080fd5b6000601f19601f8301169050919050565b7f455243313135353a2062616c616e636520717565727920666f7220746865207a60008201527f65726f2061646472657373000000000000000000000000000000000000000000602082015250565b7f4f776e61626c653a206e6577206f776e657220697320746865207a65726f206160008201527f6464726573730000000000000000000000000000000000000000000000000000602082015250565b7f4f776e61626c653a2063616c6c6572206973206e6f7420746865206f776e6572600082015250565b7f455243313135353a206163636f756e747320616e6420696473206c656e67746860008201527f206d69736d617463680000000000000000000000000000000000000000000000602082015250565b61305a81612c9b565b811461306557600080fd5b50565b61307181612cad565b811461307c57600080fd5b50565b61308881612cbf565b811461309357600080fd5b50565b61309f81612ccb565b81146130aa57600080fd5b50565b6130b681612d17565b81146130c157600080fd5b5056fea2646970667358221220c0f3ce9cf32a32b36c62dbac3bc8e3b1d7d8fa10cc25f2a42c80a7bc2a6c763e64736f6c63430008060033",
  "immutableReferences": {},
  "source": "// SPDX-License-Identifier: MIT\npragma solidity ^0.8.0;\n\nimport \"./creatortokenformulas.sol\";\n\n/// @title Computation of fees owed to platform, and payout of creator\n/// @author Kamil Alizai Sadik\ncontract CreatorTokenFees is CreatorTokenFormulas {\n\n\tconstructor(string memory uri) CreatorTokenFormulas(uri) { }\n\n\t/// @dev Calculates the fee associated with a buy transaction\n\t/// @param _proceedsRequired The proceeds required for the buy transaction (before addition of fees)\n\t/// @return Fee associated with transaction\n\tfunction _feeProceeds(uint _proceedsRequired) public view returns (uint256) {\n\t\treturn _proceedsRequired*platformFee/100;\n\t}\n\n\t/// @dev Updates platform fee tracker mappings\n\t/// @param _fee Fee being added to the tracker\n\tfunction _platformFeeUpdater(uint _fee) internal {\n\t\ttotalPlatformFees += _fee;\n\t\tplatformFeesOwed += _fee;\n\t}\n\n\t/// @dev Transfers excess liquidity to the creator (triggered only when a CreatorToken hits a new maxSupply)\n\t/// @param _tokenId ID of the token in question\n\t/// @param _creatorAddress Wallet address of the creator of the token\n\tfunction _payCreator(uint _tokenId, address payable _creatorAddress) internal {\n\t\t// Create a variable showing excess liquidity that has already been transferred out of this token's liquidity pool\n\t\tuint alreadyTransferred = tokenValueTransferred[_tokenId];\n\t\t// Initialize totalProfit\n\t\tuint totalProfit = 0;\n\t\t// Calculate totalProfit (area between b(x) and s(x) from 0 to maxSupply)\n\t\ttotalProfit = _buyFunction(0, creatorTokens[_tokenId].maxSupply, mNumerator, mDenominator) - _saleFunction(creatorTokens[_tokenId].maxSupply, creatorTokens[_tokenId].maxSupply, mNumerator, mDenominator, creatorTokens[_tokenId].maxSupply, profitMargin);\n\t\t// Calculate creator's new profit created from new excess liquidity created\n\t\tuint newProfit = totalProfit - alreadyTransferred;\n\t\t// Transfer newProfit wei to creator\n\t\t_creatorAddress.transfer(newProfit);\n\t\t// Update amount of value transferred to creator\n\t\ttokenValueTransferred[_tokenId] = totalProfit;\n\t}\n}",
  "sourcePath": "/Users/kamilalizaisadik/DeFi/Dynamic Automated Market Maker/CreatorTokenExchange/contracts/creatortokenfees.sol",
  "compiler": {
    "name": "solc",
    "version": "0.8.6+commit.11564f7e.Emscripten.clang"
  },
  "schemaVersion": "3.4.1",
  "updatedAt": "2021-07-12T23:45:16.873Z",
  "devdoc": {
    "author": "Kamil Alizai Sadik",
    "kind": "dev",
    "methods": {
      "_feeProceeds(uint256)": {
        "details": "Calculates the fee associated with a buy transaction",
        "params": {
          "_proceedsRequired": "The proceeds required for the buy transaction (before addition of fees)"
        },
        "returns": {
          "_0": "Fee associated with transaction"
        }
      },
      "balanceOf(address,uint256)": {
        "details": "See {IERC1155-balanceOf}. Requirements: - `account` cannot be the zero address."
      },
      "balanceOfBatch(address[],uint256[])": {
        "details": "See {IERC1155-balanceOfBatch}. Requirements: - `accounts` and `ids` must have the same length."
      },
      "changeAddress(uint256,address)": {
        "details": "Allows token creator to change their address",
        "params": {
          "_newCreatorAddress": "New creator address associated with the token",
          "_tokenId": "ID of the token in question"
        }
      },
      "changeDescription(uint256,string)": {
        "details": "Allows token creator to change the description of their token",
        "params": {
          "_newDescription": "New description associated with the token",
          "_tokenId": "ID of the token in question"
        }
      },
      "changeName(uint256,string)": {
        "details": "Allows token creator to change the name of their token",
        "params": {
          "_newName": "New name associated with the token",
          "_tokenId": "ID of the token in question"
        }
      },
      "changePlatformFee(uint256)": {
        "details": "Allows owner to change platformFee",
        "params": {
          "_newPlatformFee": "New platform fee"
        }
      },
      "changeProfitMargin(uint256)": {
        "details": "Allows owner to change profit_margin",
        "params": {
          "_newProfitMargin": "New profit margin"
        }
      },
      "changeSymbol(uint256,string)": {
        "details": "Allows token creator to change the symbol of their token",
        "params": {
          "_newSymbol": "New symbol associated with the token",
          "_tokenId": "ID of the token in question"
        }
      },
      "changeVerification(uint256,bool)": {
        "details": "Allows owner to verify (or undo verification) of a CreatorToken",
        "params": {
          "_tokenId": "ID of the token in question",
          "_verified": "Verification status of the token in question"
        }
      },
      "createCreatorToken(address,string,string,string)": {
        "details": "Creates a new creator token",
        "params": {
          "_creatorAddress": "Address of the creator of the token",
          "_description": "chosen by the creator of the tokens",
          "_name": "Name chosen by the creator of the token",
          "_symbol": "Ticker symbol chosen by the creator of the token"
        }
      },
      "isApprovedForAll(address,address)": {
        "details": "Denotes whether operator is approved to transfer account's tokens",
        "params": {
          "_account": "Wallet address holding tokens",
          "_operator": "Wallet address which is/isn't approved to transfer _account's tokens"
        },
        "returns": {
          "_0": "Boolean value indicating approval status"
        }
      },
      "owner()": {
        "details": "Returns the address of the current owner."
      },
      "payoutPlatformFees(address)": {
        "details": "Pays out platform fees owed to owner (might opt to call this daily)",
        "params": {
          "_owner": "Owner of the smart contract"
        }
      },
      "renounceOwnership()": {
        "details": "Leaves the contract without owner. It will not be possible to call `onlyOwner` functions anymore. Can only be called by the current owner. NOTE: Renouncing ownership will leave the contract without an owner, thereby removing any functionality that is only available to the owner."
      },
      "safeBatchTransferFrom(address,address,uint256[],uint256[],bytes)": {
        "details": "Transfers a batch of tokens",
        "params": {
          "_amounts": "Array of quantities of token to be transferred",
          "_data": "Data",
          "_from": "Address token is being transferred from",
          "_ids": "Array of IDs of tokens being transferred",
          "_to": "Address token is being transferred to"
        }
      },
      "safeTransferFrom(address,address,uint256,uint256,bytes)": {
        "details": "Transfers a token",
        "params": {
          "_amount": "Quantity of token to be transferred",
          "_data": "Data",
          "_from": "Address token is being transferred from",
          "_id": "ID of token being transferred",
          "_to": "Address token is being transferred to"
        }
      },
      "setApprovalForAll(address,bool)": {
        "details": "Gives operator permission to transfer caller's tokens",
        "params": {
          "_approved": "Boolean value indicating whether operator is approved",
          "_operator": "Wallet address being granted permission"
        }
      },
      "supportsInterface(bytes4)": {
        "details": "See {IERC165-supportsInterface}."
      },
      "transferOwnership(address)": {
        "details": "Transfers ownership of the contract to a new account (`newOwner`). Can only be called by the current owner."
      },
      "uri(uint256)": {
        "details": "See {IERC1155MetadataURI-uri}. This implementation returns the same URI for *all* token types. It relies on the token type ID substitution mechanism https://eips.ethereum.org/EIPS/eip-1155#metadata[defined in the EIP]. Clients calling this function must replace the `\\{id\\}` substring with the actual token type ID."
      },
      "withdraw(address)": {
        "details": "Ownable function allowing for withdrawal",
        "params": {
          "_owner": "Owner of the smart contract"
        }
      }
    },
    "title": "Computation of fees owed to platform, and payout of creator",
    "version": 1
  },
  "userdoc": {
    "kind": "user",
    "methods": {},
    "version": 1
  }
}