{
  "contractName": "CreatorTokenExchange",
  "abi": [
    {
      "inputs": [
        {
          "internalType": "string",
          "name": "uri",
          "type": "string"
        }
      ],
      "stateMutability": "nonpayable",
      "type": "constructor"
    },
    {
      "anonymous": false,
      "inputs": [
        {
          "indexed": true,
          "internalType": "address",
          "name": "account",
          "type": "address"
        },
        {
          "indexed": true,
          "internalType": "address",
          "name": "operator",
          "type": "address"
        },
        {
          "indexed": false,
          "internalType": "bool",
          "name": "approved",
          "type": "bool"
        }
      ],
      "name": "ApprovalForAll",
      "type": "event"
    },
    {
      "anonymous": false,
      "inputs": [
        {
          "indexed": false,
          "internalType": "uint256",
          "name": "tokenId",
          "type": "uint256"
        },
        {
          "indexed": false,
          "internalType": "address payable",
          "name": "creatorAddress",
          "type": "address"
        },
        {
          "indexed": false,
          "internalType": "string",
          "name": "name",
          "type": "string"
        },
        {
          "indexed": false,
          "internalType": "string",
          "name": "symbol",
          "type": "string"
        },
        {
          "indexed": false,
          "internalType": "string",
          "name": "description",
          "type": "string"
        },
        {
          "indexed": false,
          "internalType": "bool",
          "name": "verified",
          "type": "bool"
        },
        {
          "indexed": false,
          "internalType": "uint256",
          "name": "outstanding",
          "type": "uint256"
        },
        {
          "indexed": false,
          "internalType": "uint256",
          "name": "maxSupply",
          "type": "uint256"
        }
      ],
      "name": "NewCreatorToken",
      "type": "event"
    },
    {
      "anonymous": false,
      "inputs": [
        {
          "indexed": true,
          "internalType": "address",
          "name": "account",
          "type": "address"
        },
        {
          "indexed": false,
          "internalType": "uint256",
          "name": "amount",
          "type": "uint256"
        },
        {
          "indexed": false,
          "internalType": "string",
          "name": "transactionType",
          "type": "string"
        },
        {
          "indexed": false,
          "internalType": "uint256",
          "name": "tokenId",
          "type": "uint256"
        },
        {
          "indexed": false,
          "internalType": "string",
          "name": "name",
          "type": "string"
        },
        {
          "indexed": false,
          "internalType": "string",
          "name": "symbol",
          "type": "string"
        }
      ],
      "name": "NewTransaction",
      "type": "event"
    },
    {
      "anonymous": false,
      "inputs": [
        {
          "indexed": true,
          "internalType": "address",
          "name": "previousOwner",
          "type": "address"
        },
        {
          "indexed": true,
          "internalType": "address",
          "name": "newOwner",
          "type": "address"
        }
      ],
      "name": "OwnershipTransferred",
      "type": "event"
    },
    {
      "anonymous": false,
      "inputs": [
        {
          "indexed": true,
          "internalType": "address",
          "name": "operator",
          "type": "address"
        },
        {
          "indexed": true,
          "internalType": "address",
          "name": "from",
          "type": "address"
        },
        {
          "indexed": true,
          "internalType": "address",
          "name": "to",
          "type": "address"
        },
        {
          "indexed": false,
          "internalType": "uint256[]",
          "name": "ids",
          "type": "uint256[]"
        },
        {
          "indexed": false,
          "internalType": "uint256[]",
          "name": "values",
          "type": "uint256[]"
        }
      ],
      "name": "TransferBatch",
      "type": "event"
    },
    {
      "anonymous": false,
      "inputs": [
        {
          "indexed": true,
          "internalType": "address",
          "name": "operator",
          "type": "address"
        },
        {
          "indexed": true,
          "internalType": "address",
          "name": "from",
          "type": "address"
        },
        {
          "indexed": true,
          "internalType": "address",
          "name": "to",
          "type": "address"
        },
        {
          "indexed": false,
          "internalType": "uint256",
          "name": "id",
          "type": "uint256"
        },
        {
          "indexed": false,
          "internalType": "uint256",
          "name": "value",
          "type": "uint256"
        }
      ],
      "name": "TransferSingle",
      "type": "event"
    },
    {
      "anonymous": false,
      "inputs": [
        {
          "indexed": false,
          "internalType": "string",
          "name": "value",
          "type": "string"
        },
        {
          "indexed": true,
          "internalType": "uint256",
          "name": "id",
          "type": "uint256"
        }
      ],
      "name": "URI",
      "type": "event"
    },
    {
      "inputs": [
        {
          "internalType": "uint256",
          "name": "_tokenId",
          "type": "uint256"
        },
        {
          "internalType": "uint256",
          "name": "_amount",
          "type": "uint256"
        }
      ],
      "name": "_buyProceeds",
      "outputs": [
        {
          "internalType": "uint256",
          "name": "",
          "type": "uint256"
        }
      ],
      "stateMutability": "view",
      "type": "function",
      "constant": true
    },
    {
      "inputs": [
        {
          "internalType": "uint256",
          "name": "_proceedsRequired",
          "type": "uint256"
        }
      ],
      "name": "_feeProceeds",
      "outputs": [
        {
          "internalType": "uint256",
          "name": "",
          "type": "uint256"
        }
      ],
      "stateMutability": "view",
      "type": "function",
      "constant": true
    },
    {
      "inputs": [
        {
          "internalType": "uint256",
          "name": "_tokenId",
          "type": "uint256"
        },
        {
          "internalType": "uint256",
          "name": "_amount",
          "type": "uint256"
        }
      ],
      "name": "_totalProceeds",
      "outputs": [
        {
          "internalType": "uint256",
          "name": "",
          "type": "uint256"
        }
      ],
      "stateMutability": "view",
      "type": "function",
      "constant": true
    },
    {
      "inputs": [
        {
          "internalType": "address",
          "name": "account",
          "type": "address"
        },
        {
          "internalType": "uint256",
          "name": "id",
          "type": "uint256"
        }
      ],
      "name": "balanceOf",
      "outputs": [
        {
          "internalType": "uint256",
          "name": "",
          "type": "uint256"
        }
      ],
      "stateMutability": "view",
      "type": "function",
      "constant": true
    },
    {
      "inputs": [
        {
          "internalType": "address[]",
          "name": "accounts",
          "type": "address[]"
        },
        {
          "internalType": "uint256[]",
          "name": "ids",
          "type": "uint256[]"
        }
      ],
      "name": "balanceOfBatch",
      "outputs": [
        {
          "internalType": "uint256[]",
          "name": "",
          "type": "uint256[]"
        }
      ],
      "stateMutability": "view",
      "type": "function",
      "constant": true
    },
    {
      "inputs": [
        {
          "internalType": "uint256",
          "name": "_tokenId",
          "type": "uint256"
        },
        {
          "internalType": "address payable",
          "name": "_newCreatorAddress",
          "type": "address"
        }
      ],
      "name": "changeAddress",
      "outputs": [],
      "stateMutability": "nonpayable",
      "type": "function"
    },
    {
      "inputs": [
        {
          "internalType": "uint256",
          "name": "_tokenId",
          "type": "uint256"
        },
        {
          "internalType": "string",
          "name": "_newDescription",
          "type": "string"
        }
      ],
      "name": "changeDescription",
      "outputs": [],
      "stateMutability": "nonpayable",
      "type": "function"
    },
    {
      "inputs": [
        {
          "internalType": "uint256",
          "name": "_tokenId",
          "type": "uint256"
        },
        {
          "internalType": "string",
          "name": "_newName",
          "type": "string"
        }
      ],
      "name": "changeName",
      "outputs": [],
      "stateMutability": "nonpayable",
      "type": "function"
    },
    {
      "inputs": [
        {
          "internalType": "uint256",
          "name": "_newPlatformFee",
          "type": "uint256"
        }
      ],
      "name": "changePlatformFee",
      "outputs": [],
      "stateMutability": "nonpayable",
      "type": "function"
    },
    {
      "inputs": [
        {
          "internalType": "uint256",
          "name": "_newProfitMargin",
          "type": "uint256"
        }
      ],
      "name": "changeProfitMargin",
      "outputs": [],
      "stateMutability": "nonpayable",
      "type": "function"
    },
    {
      "inputs": [
        {
          "internalType": "uint256",
          "name": "_tokenId",
          "type": "uint256"
        },
        {
          "internalType": "string",
          "name": "_newSymbol",
          "type": "string"
        }
      ],
      "name": "changeSymbol",
      "outputs": [],
      "stateMutability": "nonpayable",
      "type": "function"
    },
    {
      "inputs": [
        {
          "internalType": "uint256",
          "name": "_tokenId",
          "type": "uint256"
        },
        {
          "internalType": "bool",
          "name": "_verified",
          "type": "bool"
        }
      ],
      "name": "changeVerification",
      "outputs": [],
      "stateMutability": "nonpayable",
      "type": "function"
    },
    {
      "inputs": [
        {
          "internalType": "address payable",
          "name": "_creatorAddress",
          "type": "address"
        },
        {
          "internalType": "string",
          "name": "_name",
          "type": "string"
        },
        {
          "internalType": "string",
          "name": "_symbol",
          "type": "string"
        },
        {
          "internalType": "string",
          "name": "_description",
          "type": "string"
        }
      ],
      "name": "createCreatorToken",
      "outputs": [],
      "stateMutability": "nonpayable",
      "type": "function"
    },
    {
      "inputs": [
        {
          "internalType": "uint256",
          "name": "",
          "type": "uint256"
        }
      ],
      "name": "creatorTokens",
      "outputs": [
        {
          "internalType": "address payable",
          "name": "creatorAddress",
          "type": "address"
        },
        {
          "internalType": "string",
          "name": "name",
          "type": "string"
        },
        {
          "internalType": "string",
          "name": "symbol",
          "type": "string"
        },
        {
          "internalType": "string",
          "name": "description",
          "type": "string"
        },
        {
          "internalType": "bool",
          "name": "verified",
          "type": "bool"
        },
        {
          "internalType": "uint256",
          "name": "outstanding",
          "type": "uint256"
        },
        {
          "internalType": "uint256",
          "name": "maxSupply",
          "type": "uint256"
        }
      ],
      "stateMutability": "view",
      "type": "function",
      "constant": true
    },
    {
      "inputs": [
        {
          "internalType": "address",
          "name": "_account",
          "type": "address"
        },
        {
          "internalType": "address",
          "name": "_operator",
          "type": "address"
        }
      ],
      "name": "isApprovedForAll",
      "outputs": [
        {
          "internalType": "bool",
          "name": "",
          "type": "bool"
        }
      ],
      "stateMutability": "view",
      "type": "function",
      "constant": true
    },
    {
      "inputs": [
        {
          "internalType": "address",
          "name": "_account",
          "type": "address"
        },
        {
          "internalType": "uint256",
          "name": "_id",
          "type": "uint256"
        },
        {
          "internalType": "uint256",
          "name": "_amount",
          "type": "uint256"
        }
      ],
      "name": "mappingDecrease",
      "outputs": [],
      "stateMutability": "nonpayable",
      "type": "function"
    },
    {
      "inputs": [
        {
          "internalType": "address",
          "name": "_account",
          "type": "address"
        },
        {
          "internalType": "uint256",
          "name": "_id",
          "type": "uint256"
        },
        {
          "internalType": "uint256",
          "name": "_amount",
          "type": "uint256"
        }
      ],
      "name": "mappingIncrease",
      "outputs": [],
      "stateMutability": "nonpayable",
      "type": "function"
    },
    {
      "inputs": [],
      "name": "owner",
      "outputs": [
        {
          "internalType": "address",
          "name": "",
          "type": "address"
        }
      ],
      "stateMutability": "view",
      "type": "function",
      "constant": true
    },
    {
      "inputs": [
        {
          "internalType": "address payable",
          "name": "_owner",
          "type": "address"
        }
      ],
      "name": "payoutPlatformFees",
      "outputs": [],
      "stateMutability": "nonpayable",
      "type": "function"
    },
    {
      "inputs": [],
      "name": "renounceOwnership",
      "outputs": [],
      "stateMutability": "nonpayable",
      "type": "function"
    },
    {
      "inputs": [
        {
          "internalType": "address",
          "name": "_from",
          "type": "address"
        },
        {
          "internalType": "address",
          "name": "_to",
          "type": "address"
        },
        {
          "internalType": "uint256[]",
          "name": "_ids",
          "type": "uint256[]"
        },
        {
          "internalType": "uint256[]",
          "name": "_amounts",
          "type": "uint256[]"
        },
        {
          "internalType": "bytes",
          "name": "data",
          "type": "bytes"
        }
      ],
      "name": "safeBatchTransferFrom",
      "outputs": [],
      "stateMutability": "nonpayable",
      "type": "function"
    },
    {
      "inputs": [
        {
          "internalType": "address",
          "name": "_from",
          "type": "address"
        },
        {
          "internalType": "address",
          "name": "_to",
          "type": "address"
        },
        {
          "internalType": "uint256",
          "name": "_id",
          "type": "uint256"
        },
        {
          "internalType": "uint256",
          "name": "_amount",
          "type": "uint256"
        },
        {
          "internalType": "bytes",
          "name": "_data",
          "type": "bytes"
        }
      ],
      "name": "safeTransferFrom",
      "outputs": [],
      "stateMutability": "nonpayable",
      "type": "function"
    },
    {
      "inputs": [
        {
          "internalType": "address",
          "name": "_operator",
          "type": "address"
        },
        {
          "internalType": "bool",
          "name": "_approved",
          "type": "bool"
        }
      ],
      "name": "setApprovalForAll",
      "outputs": [],
      "stateMutability": "nonpayable",
      "type": "function"
    },
    {
      "inputs": [
        {
          "internalType": "bytes4",
          "name": "interfaceId",
          "type": "bytes4"
        }
      ],
      "name": "supportsInterface",
      "outputs": [
        {
          "internalType": "bool",
          "name": "",
          "type": "bool"
        }
      ],
      "stateMutability": "view",
      "type": "function",
      "constant": true
    },
    {
      "inputs": [
        {
          "internalType": "uint256",
          "name": "",
          "type": "uint256"
        },
        {
          "internalType": "address",
          "name": "",
          "type": "address"
        }
      ],
      "name": "tokenHoldership",
      "outputs": [
        {
          "internalType": "uint256",
          "name": "",
          "type": "uint256"
        }
      ],
      "stateMutability": "view",
      "type": "function",
      "constant": true
    },
    {
      "inputs": [
        {
          "internalType": "uint256",
          "name": "",
          "type": "uint256"
        }
      ],
      "name": "tokenToCreator",
      "outputs": [
        {
          "internalType": "address",
          "name": "",
          "type": "address"
        }
      ],
      "stateMutability": "view",
      "type": "function",
      "constant": true
    },
    {
      "inputs": [
        {
          "internalType": "address",
          "name": "newOwner",
          "type": "address"
        }
      ],
      "name": "transferOwnership",
      "outputs": [],
      "stateMutability": "nonpayable",
      "type": "function"
    },
    {
      "inputs": [
        {
          "internalType": "uint256",
          "name": "",
          "type": "uint256"
        }
      ],
      "name": "uri",
      "outputs": [
        {
          "internalType": "string",
          "name": "",
          "type": "string"
        }
      ],
      "stateMutability": "view",
      "type": "function",
      "constant": true
    },
    {
      "inputs": [
        {
          "internalType": "address",
          "name": "",
          "type": "address"
        },
        {
          "internalType": "uint256",
          "name": "",
          "type": "uint256"
        }
      ],
      "name": "userToHoldings",
      "outputs": [
        {
          "internalType": "uint256",
          "name": "",
          "type": "uint256"
        }
      ],
      "stateMutability": "view",
      "type": "function",
      "constant": true
    },
    {
      "inputs": [
        {
          "internalType": "address payable",
          "name": "_owner",
          "type": "address"
        }
      ],
      "name": "withdraw",
      "outputs": [],
      "stateMutability": "nonpayable",
      "type": "function"
    },
    {
      "inputs": [
        {
          "internalType": "uint256",
          "name": "_tokenId",
          "type": "uint256"
        },
        {
          "internalType": "uint256",
          "name": "_amount",
          "type": "uint256"
        }
      ],
      "name": "buyCreatorToken",
      "outputs": [],
      "stateMutability": "payable",
      "type": "function",
      "payable": true
    },
    {
      "inputs": [
        {
          "internalType": "uint256",
          "name": "_tokenId",
          "type": "uint256"
        },
        {
          "internalType": "uint256",
          "name": "_amount",
          "type": "uint256"
        },
        {
          "internalType": "address payable",
          "name": "_seller",
          "type": "address"
        }
      ],
      "name": "sellCreatorToken",
      "outputs": [],
      "stateMutability": "payable",
      "type": "function",
      "payable": true
    }
  ],
  "bytecode": "0x60806040526001805560006002556000600355601460045565082f79cd900060055560b96006553480156200003357600080fd5b50604051620047f0380380620047f083398181016040528101906200005991906200027d565b80808080806000620000706200012b60201b60201c565b9050806000806101000a81548173ffffffffffffffffffffffffffffffffffffffff021916908373ffffffffffffffffffffffffffffffffffffffff1602179055508073ffffffffffffffffffffffffffffffffffffffff16600073ffffffffffffffffffffffffffffffffffffffff167f8be0079c531659141344cd1fd0a4f28419497f9722a3daafe3b4186f6b6457e060405160405180910390a3506200011f816200013360201b60201c565b50505050505062000452565b600033905090565b80600f90805190602001906200014b9291906200014f565b5050565b8280546200015d9062000363565b90600052602060002090601f016020900481019282620001815760008555620001cd565b82601f106200019c57805160ff1916838001178555620001cd565b82800160010185558215620001cd579182015b82811115620001cc578251825591602001919060010190620001af565b5b509050620001dc9190620001e0565b5090565b5b80821115620001fb576000816000905550600101620001e1565b5090565b6000620002166200021084620002f7565b620002ce565b90508281526020810184848401111562000235576200023462000432565b5b620002428482856200032d565b509392505050565b600082601f8301126200026257620002616200042d565b5b815162000274848260208601620001ff565b91505092915050565b6000602082840312156200029657620002956200043c565b5b600082015167ffffffffffffffff811115620002b757620002b662000437565b5b620002c5848285016200024a565b91505092915050565b6000620002da620002ed565b9050620002e8828262000399565b919050565b6000604051905090565b600067ffffffffffffffff821115620003155762000314620003fe565b5b620003208262000441565b9050602081019050919050565b60005b838110156200034d57808201518184015260208101905062000330565b838111156200035d576000848401525b50505050565b600060028204905060018216806200037c57607f821691505b60208210811415620003935762000392620003cf565b5b50919050565b620003a48262000441565b810181811067ffffffffffffffff82111715620003c657620003c5620003fe565b5b80604052505050565b7f4e487b7100000000000000000000000000000000000000000000000000000000600052602260045260246000fd5b7f4e487b7100000000000000000000000000000000000000000000000000000000600052604160045260246000fd5b600080fd5b600080fd5b600080fd5b600080fd5b6000601f19601f8301169050919050565b61438e80620004626000396000f3fe6080604052600436106101e25760003560e01c8063a22cb46511610102578063de6a06ed11610095578063f2fde38b11610064578063f2fde38b1461073c578063f56e71b414610765578063f7374e2e1461078e578063fffae941146107b7576101e2565b8063de6a06ed14610684578063e985e9c5146106ad578063eb841759146106ea578063f242432a14610713576101e2565b8063c539c317116100d1578063c539c317146105c6578063ce901d8a146105ef578063d56b72c714610632578063d7a5791a1461065b576101e2565b8063a22cb465146104fa578063ba111a0514610523578063bfb48c9c14610560578063c39cbef11461059d576101e2565b806335a8ae211161017a5780635d4222cd116101495780635d4222cd14610452578063715018a61461047b5780638da5cb5b1461049257806392724afa146104bd576101e2565b806335a8ae21146103725780634e1273f4146103af5780634fe477d8146103ec57806351cff8d914610429576101e2565b806318892ae8116101b657806318892ae8146102c75780631d5ad18b146103045780632dcfdaf71461032d5780632eb2c2d614610349576101e2565b8062fdd58e146101e757806301ffc9a71461022457806306e320f5146102615780630e89341c1461028a575b600080fd5b3480156101f357600080fd5b5061020e600480360381019061020991906133b4565b6107d3565b60405161021b9190613adc565b60405180910390f35b34801561023057600080fd5b5061024b600480360381019061024691906134bf565b61089d565b6040516102589190613a1f565b60405180910390f35b34801561026d57600080fd5b50610288600480360381019061028391906135d9565b61097f565b005b34801561029657600080fd5b506102b160048036038101906102ac91906134ec565b610a26565b6040516102be9190613a3a565b60405180910390f35b3480156102d357600080fd5b506102ee60048036038101906102e991906134ec565b610aba565b6040516102fb9190613927565b60405180910390f35b34801561031057600080fd5b5061032b60048036038101906103269190613559565b610aed565b005b61034760048036038101906103429190613679565b610bc2565b005b34801561035557600080fd5b50610370600480360381019061036b919061320e565b610d86565b005b34801561037e57600080fd5b5061039960048036038101906103949190613639565b610ef2565b6040516103a69190613adc565b60405180910390f35b3480156103bb57600080fd5b506103d660048036038101906103d19190613447565b610f2a565b6040516103e391906139c6565b60405180910390f35b3480156103f857600080fd5b50610413600480360381019061040e9190613639565b611043565b6040516104209190613adc565b60405180910390f35b34801561043557600080fd5b50610450600480360381019061044b91906130e6565b611250565b005b34801561045e57600080fd5b50610479600480360381019061047491906133f4565b611316565b005b34801561048757600080fd5b506104906113e9565b005b34801561049e57600080fd5b506104a7611523565b6040516104b49190613927565b60405180910390f35b3480156104c957600080fd5b506104e460048036038101906104df91906133b4565b61154c565b6040516104f19190613adc565b60405180910390f35b34801561050657600080fd5b50610521600480360381019061051c9190613374565b611571565b005b34801561052f57600080fd5b5061054a600480360381019061054591906134ec565b61166e565b6040516105579190613adc565b60405180910390f35b34801561056c57600080fd5b5061058760048036038101906105829190613519565b611691565b6040516105949190613adc565b60405180910390f35b3480156105a957600080fd5b506105c460048036038101906105bf91906135d9565b6116b6565b005b3480156105d257600080fd5b506105ed60048036038101906105e891906134ec565b61175d565b005b3480156105fb57600080fd5b50610616600480360381019061061191906134ec565b6117e3565b6040516106299796959493929190613942565b60405180910390f35b34801561063e57600080fd5b5061065960048036038101906106549190613113565b6119fa565b005b34801561066757600080fd5b50610682600480360381019061067d91906134ec565b611c16565b005b34801561069057600080fd5b506106ab60048036038101906106a691906135d9565b611c9c565b005b3480156106b957600080fd5b506106d460048036038101906106cf91906131ce565b611d43565b6040516106e19190613a1f565b60405180910390f35b3480156106f657600080fd5b50610711600480360381019061070c91906130e6565b611dd7565b005b34801561071f57600080fd5b5061073a600480360381019061073591906132dd565b611ea7565b005b34801561074857600080fd5b50610763600480360381019061075e91906130b9565b611f8b565b005b34801561077157600080fd5b5061078c600480360381019061078791906133f4565b612134565b005b34801561079a57600080fd5b506107b560048036038101906107b09190613599565b612207565b005b6107d160048036038101906107cc9190613639565b6122c4565b005b60008073ffffffffffffffffffffffffffffffffffffffff168373ffffffffffffffffffffffffffffffffffffffff161415610844576040517f08c379a000000000000000000000000000000000000000000000000000000000815260040161083b90613a5c565b60405180910390fd5b600d600083815260200190815260200160002060008473ffffffffffffffffffffffffffffffffffffffff1673ffffffffffffffffffffffffffffffffffffffff16815260200190815260200160002054905092915050565b60007fd9b67a26000000000000000000000000000000000000000000000000000000007bffffffffffffffffffffffffffffffffffffffffffffffffffffffff1916827bffffffffffffffffffffffffffffffffffffffffffffffffffffffff1916148061096857507f0e89341c000000000000000000000000000000000000000000000000000000007bffffffffffffffffffffffffffffffffffffffffffffffffffffffff1916827bffffffffffffffffffffffffffffffffffffffffffffffffffffffff1916145b806109785750610977826124a5565b5b9050919050565b826008600082815260200190815260200160002060009054906101000a900473ffffffffffffffffffffffffffffffffffffffff1673ffffffffffffffffffffffffffffffffffffffff163373ffffffffffffffffffffffffffffffffffffffff16146109eb57600080fd5b828260078681548110610a0157610a006140f0565b5b90600052602060002090600702016002019190610a1f929190612cb5565b5050505050565b6060600f8054610a3590613fb7565b80601f0160208091040260200160405190810160405280929190818152602001828054610a6190613fb7565b8015610aae5780601f10610a8357610100808354040283529160200191610aae565b820191906000526020600020905b815481529060010190602001808311610a9157829003601f168201915b50505050509050919050565b60086020528060005260406000206000915054906101000a900473ffffffffffffffffffffffffffffffffffffffff1681565b816008600082815260200190815260200160002060009054906101000a900473ffffffffffffffffffffffffffffffffffffffff1673ffffffffffffffffffffffffffffffffffffffff163373ffffffffffffffffffffffffffffffffffffffff1614610b5957600080fd5b8160078481548110610b6e57610b6d6140f0565b5b906000526020600020906007020160000160006101000a81548173ffffffffffffffffffffffffffffffffffffffff021916908373ffffffffffffffffffffffffffffffffffffffff160217905550505050565b3373ffffffffffffffffffffffffffffffffffffffff168173ffffffffffffffffffffffffffffffffffffffff1614610bfa57600080fd5b6000610c5a60078581548110610c1357610c126140f0565b5b9060005260206000209060070201600501548460055460065460078981548110610c4057610c3f6140f0565b5b90600052602060002090600702016006015460045461250f565b90506000606460015483610c6e9190613e4f565b610c789190613e1e565b90508082610c869190613ea9565b9150610c93838686612588565b8273ffffffffffffffffffffffffffffffffffffffff166108fc839081150290604051600060405180830381858888f19350505050158015610cd9573d6000803e3d6000fd5b50610ce38161268b565b3373ffffffffffffffffffffffffffffffffffffffff167f1ebb537d8231cf8a6b1b0d1684d85dfd83872c030ffc75f500f0729eaf674d82858760078981548110610d3157610d306140f0565b5b906000526020600020906007020160010160078a81548110610d5657610d556140f0565b5b9060005260206000209060070201600201604051610d779493929190613bf0565b60405180910390a25050505050565b60005b8351811015610e6c578573ffffffffffffffffffffffffffffffffffffffff163373ffffffffffffffffffffffffffffffffffffffff161480610dd25750610dd18686611d43565b5b610ddb57600080fd5b610e1a86858381518110610df257610df16140f0565b5b6020026020010151858481518110610e0d57610e0c6140f0565b5b6020026020010151612134565b610e5985858381518110610e3157610e306140f0565b5b6020026020010151858481518110610e4c57610e4b6140f0565b5b6020026020010151611316565b8080610e649061401a565b915050610d89565b508373ffffffffffffffffffffffffffffffffffffffff168573ffffffffffffffffffffffffffffffffffffffff163373ffffffffffffffffffffffffffffffffffffffff167f4a39dc06d4c0dbc64b70af90fd698a233a518aa5d07e595d983b8c0526c8f7fb8686604051610ee39291906139e8565b60405180910390a45050505050565b600080610eff8484611043565b90506000610f0c8261166e565b905060008183610f1c9190613dc8565b905080935050505092915050565b60608151835114610f70576040517f08c379a0000000000000000000000000000000000000000000000000000000008152600401610f6790613abc565b60405180910390fd5b6000835167ffffffffffffffff811115610f8d57610f8c61411f565b5b604051908082528060200260200182016040528015610fbb5781602001602082028036833780820191505090505b50905060005b845181101561103857611008858281518110610fe057610fdf6140f0565b5b6020026020010151858381518110610ffb57610ffa6140f0565b5b60200260200101516107d3565b82828151811061101b5761101a6140f0565b5b602002602001018181525050806110319061401a565b9050610fc1565b508091505092915050565b600080600090506000600785815481106110605761105f6140f0565b5b9060005260206000209060070201600501549050600084826110829190613dc8565b905060078681548110611098576110976140f0565b5b9060005260206000209060070201600601548110156110f1576110ea818660055460065460078b815481106110d0576110cf6140f0565b5b90600052602060002090600702016006015460045461250f565b9250611244565b60078681548110611105576111046140f0565b5b906000526020600020906007020160060154821015611230576111ac60078781548110611135576111346140f0565b5b906000526020600020906007020160060154836007898154811061115c5761115b6140f0565b5b9060005260206000209060070201600601546111789190613ea9565b60055460065460078b81548110611192576111916140f0565b5b90600052602060002090600702016006015460045461250f565b925061121e600787815481106111c5576111c46140f0565b5b90600052602060002090600702016006015483600789815481106111ec576111eb6140f0565b5b9060005260206000209060070201600601546112089190613ea9565b876112139190613ea9565b6005546006546126c0565b836112299190613dc8565b9250611243565b61124082866005546006546126c0565b92505b5b82935050505092915050565b61125861274e565b73ffffffffffffffffffffffffffffffffffffffff16611276611523565b73ffffffffffffffffffffffffffffffffffffffff16146112cc576040517f08c379a00000000000000000000000000000000000000000000000000000000081526004016112c390613a9c565b60405180910390fd5b8073ffffffffffffffffffffffffffffffffffffffff166108fc479081150290604051600060405180830381858888f19350505050158015611312573d6000803e3d6000fd5b5050565b80600a600084815260200190815260200160002060008573ffffffffffffffffffffffffffffffffffffffff1673ffffffffffffffffffffffffffffffffffffffff16815260200190815260200160002060008282546113769190613dc8565b9250508190555080600b60008573ffffffffffffffffffffffffffffffffffffffff1673ffffffffffffffffffffffffffffffffffffffff168152602001908152602001600020600084815260200190815260200160002060008282546113dd9190613dc8565b92505081905550505050565b6113f161274e565b73ffffffffffffffffffffffffffffffffffffffff1661140f611523565b73ffffffffffffffffffffffffffffffffffffffff1614611465576040517f08c379a000000000000000000000000000000000000000000000000000000000815260040161145c90613a9c565b60405180910390fd5b600073ffffffffffffffffffffffffffffffffffffffff1660008054906101000a900473ffffffffffffffffffffffffffffffffffffffff1673ffffffffffffffffffffffffffffffffffffffff167f8be0079c531659141344cd1fd0a4f28419497f9722a3daafe3b4186f6b6457e060405160405180910390a360008060006101000a81548173ffffffffffffffffffffffffffffffffffffffff021916908373ffffffffffffffffffffffffffffffffffffffff160217905550565b60008060009054906101000a900473ffffffffffffffffffffffffffffffffffffffff16905090565b600b602052816000526040600020602052806000526040600020600091509150505481565b80600c60003373ffffffffffffffffffffffffffffffffffffffff1673ffffffffffffffffffffffffffffffffffffffff16815260200190815260200160002060008473ffffffffffffffffffffffffffffffffffffffff1673ffffffffffffffffffffffffffffffffffffffff16815260200190815260200160002060006101000a81548160ff0219169083151502179055508173ffffffffffffffffffffffffffffffffffffffff163373ffffffffffffffffffffffffffffffffffffffff167f17307eab39ab6107e8899845ad3d59bd9653f200f220920489ca2b5937696c31836040516116629190613a1f565b60405180910390a35050565b60006064600154836116809190613e4f565b61168a9190613e1e565b9050919050565b600a602052816000526040600020602052806000526040600020600091509150505481565b826008600082815260200190815260200160002060009054906101000a900473ffffffffffffffffffffffffffffffffffffffff1673ffffffffffffffffffffffffffffffffffffffff163373ffffffffffffffffffffffffffffffffffffffff161461172257600080fd5b828260078681548110611738576117376140f0565b5b90600052602060002090600702016001019190611756929190612cb5565b5050505050565b61176561274e565b73ffffffffffffffffffffffffffffffffffffffff16611783611523565b73ffffffffffffffffffffffffffffffffffffffff16146117d9576040517f08c379a00000000000000000000000000000000000000000000000000000000081526004016117d090613a9c565b60405180910390fd5b8060048190555050565b600781815481106117f357600080fd5b90600052602060002090600702016000915090508060000160009054906101000a900473ffffffffffffffffffffffffffffffffffffffff169080600101805461183c90613fb7565b80601f016020809104026020016040519081016040528092919081815260200182805461186890613fb7565b80156118b55780601f1061188a576101008083540402835291602001916118b5565b820191906000526020600020905b81548152906001019060200180831161189857829003601f168201915b5050505050908060020180546118ca90613fb7565b80601f01602080910402602001604051908101604052809291908181526020018280546118f690613fb7565b80156119435780601f1061191857610100808354040283529160200191611943565b820191906000526020600020905b81548152906001019060200180831161192657829003601f168201915b50505050509080600301805461195890613fb7565b80601f016020809104026020016040519081016040528092919081815260200182805461198490613fb7565b80156119d15780601f106119a6576101008083540402835291602001916119d1565b820191906000526020600020905b8154815290600101906020018083116119b457829003601f168201915b5050505050908060040160009054906101000a900460ff16908060050154908060060154905087565b60076040518060e001604052808673ffffffffffffffffffffffffffffffffffffffff168152602001858152602001848152602001838152602001600015158152602001600081526020016000815250908060018154018082558091505060019003906000526020600020906007020160009091909190915060008201518160000160006101000a81548173ffffffffffffffffffffffffffffffffffffffff021916908373ffffffffffffffffffffffffffffffffffffffff1602179055506020820151816001019080519060200190611ad6929190612d3b565b506040820151816002019080519060200190611af3929190612d3b565b506060820151816003019080519060200190611b10929190612d3b565b5060808201518160040160006101000a81548160ff02191690831515021790555060a0820151816005015560c08201518160060155505060006001600780549050611b5b9190613ea9565b9050846008600083815260200190815260200160002060006101000a81548173ffffffffffffffffffffffffffffffffffffffff021916908373ffffffffffffffffffffffffffffffffffffffff160217905550600060096000838152602001908152602001600020819055507f3ef624c0f3fb7ad40b94c02078ea3e3a797dbfc21e921ee4bd2b8ad0ca6aa11381868686866000806000604051611c07989796959493929190613af7565b60405180910390a15050505050565b611c1e61274e565b73ffffffffffffffffffffffffffffffffffffffff16611c3c611523565b73ffffffffffffffffffffffffffffffffffffffff1614611c92576040517f08c379a0000000000000000000000000000000000000000000000000000000008152600401611c8990613a9c565b60405180910390fd5b8060018190555050565b826008600082815260200190815260200160002060009054906101000a900473ffffffffffffffffffffffffffffffffffffffff1673ffffffffffffffffffffffffffffffffffffffff163373ffffffffffffffffffffffffffffffffffffffff1614611d0857600080fd5b828260078681548110611d1e57611d1d6140f0565b5b90600052602060002090600702016003019190611d3c929190612cb5565b5050505050565b6000600c60008473ffffffffffffffffffffffffffffffffffffffff1673ffffffffffffffffffffffffffffffffffffffff16815260200190815260200160002060008373ffffffffffffffffffffffffffffffffffffffff1673ffffffffffffffffffffffffffffffffffffffff16815260200190815260200160002060009054906101000a900460ff16905092915050565b611ddf61274e565b73ffffffffffffffffffffffffffffffffffffffff16611dfd611523565b73ffffffffffffffffffffffffffffffffffffffff1614611e53576040517f08c379a0000000000000000000000000000000000000000000000000000000008152600401611e4a90613a9c565b60405180910390fd5b8073ffffffffffffffffffffffffffffffffffffffff166108fc6003549081150290604051600060405180830381858888f19350505050158015611e9b573d6000803e3d6000fd5b50600060038190555050565b8473ffffffffffffffffffffffffffffffffffffffff163373ffffffffffffffffffffffffffffffffffffffff161480611ee75750611ee68585611d43565b5b611ef057600080fd5b611efb858484612134565b611f06848484611316565b8373ffffffffffffffffffffffffffffffffffffffff168573ffffffffffffffffffffffffffffffffffffffff163373ffffffffffffffffffffffffffffffffffffffff167fc3d58168c5ae7397731d063d5bbf3d657854427343f4c083240f7aacaa2d0f628686604051611f7c929190613c56565b60405180910390a45050505050565b611f9361274e565b73ffffffffffffffffffffffffffffffffffffffff16611fb1611523565b73ffffffffffffffffffffffffffffffffffffffff1614612007576040517f08c379a0000000000000000000000000000000000000000000000000000000008152600401611ffe90613a9c565b60405180910390fd5b600073ffffffffffffffffffffffffffffffffffffffff168173ffffffffffffffffffffffffffffffffffffffff161415612077576040517f08c379a000000000000000000000000000000000000000000000000000000000815260040161206e90613a7c565b60405180910390fd5b8073ffffffffffffffffffffffffffffffffffffffff1660008054906101000a900473ffffffffffffffffffffffffffffffffffffffff1673ffffffffffffffffffffffffffffffffffffffff167f8be0079c531659141344cd1fd0a4f28419497f9722a3daafe3b4186f6b6457e060405160405180910390a3806000806101000a81548173ffffffffffffffffffffffffffffffffffffffff021916908373ffffffffffffffffffffffffffffffffffffffff16021790555050565b80600a600084815260200190815260200160002060008573ffffffffffffffffffffffffffffffffffffffff1673ffffffffffffffffffffffffffffffffffffffff16815260200190815260200160002060008282546121949190613ea9565b9250508190555080600b60008573ffffffffffffffffffffffffffffffffffffffff1673ffffffffffffffffffffffffffffffffffffffff168152602001908152602001600020600084815260200190815260200160002060008282546121fb9190613ea9565b92505081905550505050565b61220f61274e565b73ffffffffffffffffffffffffffffffffffffffff1661222d611523565b73ffffffffffffffffffffffffffffffffffffffff1614612283576040517f08c379a000000000000000000000000000000000000000000000000000000000815260040161227a90613a9c565b60405180910390fd5b8060078381548110612298576122976140f0565b5b906000526020600020906007020160040160006101000a81548160ff0219169083151502179055505050565b60006122d08383610ef2565b90508034146122de57600080fd5b6122f86122f36122ee8585611043565b61166e565b61268b565b61231333848460405180602001604052806000815250612756565b3373ffffffffffffffffffffffffffffffffffffffff167f1ebb537d8231cf8a6b1b0d1684d85dfd83872c030ffc75f500f0729eaf674d82838560078781548110612361576123606140f0565b5b906000526020600020906007020160010160078881548110612386576123856140f0565b5b90600052602060002090600702016002016040516123a79493929190613b8a565b60405180910390a2600783815481106123c3576123c26140f0565b5b906000526020600020906007020160060154600784815481106123e9576123e86140f0565b5b90600052602060002090600702016005015411156124a05760078381548110612415576124146140f0565b5b9060005260206000209060070201600501546007848154811061243b5761243a6140f0565b5b90600052602060002090600702016006018190555061249f8360078581548110612468576124676140f0565b5b906000526020600020906007020160000160009054906101000a900473ffffffffffffffffffffffffffffffffffffffff16612822565b5b505050565b60007f01ffc9a7000000000000000000000000000000000000000000000000000000007bffffffffffffffffffffffffffffffffffffffffffffffffffffffff1916827bffffffffffffffffffffffffffffffffffffffffffffffffffffffff1916149050919050565b6000806000806125238a8a8a8a8a8a612977565b9250925092506000838b10156125465761253f84848d856129f2565b9050612577565b838210156125645761255d84848d858d8d8d612a95565b9050612576565b61257384848d858d8d8d612bb7565b90505b5b809450505050509695505050505050565b8273ffffffffffffffffffffffffffffffffffffffff163373ffffffffffffffffffffffffffffffffffffffff16146125c057600080fd5b6125cb838383612134565b80600783815481106125e0576125df6140f0565b5b906000526020600020906007020160050160008282546126009190613ea9565b92505081905550600073ffffffffffffffffffffffffffffffffffffffff168373ffffffffffffffffffffffffffffffffffffffff163373ffffffffffffffffffffffffffffffffffffffff167fc3d58168c5ae7397731d063d5bbf3d657854427343f4c083240f7aacaa2d0f62858560405161267e929190613c56565b60405180910390a4505050565b806002600082825461269d9190613dc8565b9250508190555080600360008282546126b69190613dc8565b9250508190555050565b60008084866126cf9190613dc8565b905060008387866126e09190613e4f565b6126ea9190613e1e565b905060008483876126fb9190613e4f565b6127059190613e1e565b9050600088846127159190613ea9565b9050600060028284866127289190613dc8565b6127329190613e4f565b61273c9190613e1e565b90508095505050505050949350505050565b600033905090565b612761848484611316565b8160078481548110612776576127756140f0565b5b906000526020600020906007020160050160008282546127969190613dc8565b925050819055508373ffffffffffffffffffffffffffffffffffffffff16600073ffffffffffffffffffffffffffffffffffffffff163373ffffffffffffffffffffffffffffffffffffffff167fc3d58168c5ae7397731d063d5bbf3d657854427343f4c083240f7aacaa2d0f628686604051612814929190613c56565b60405180910390a450505050565b60006009600084815260200190815260200160002054905060006128bf60078581548110612853576128526140f0565b5b90600052602060002090600702016006015460078681548110612879576128786140f0565b5b906000526020600020906007020160060154600554600654600789815481106128a5576128a46140f0565b5b90600052602060002090600702016006015460045461250f565b6128f56000600787815481106128d8576128d76140f0565b5b9060005260206000209060070201600601546005546006546126c0565b6128ff9190613ea9565b90506000828261290f9190613ea9565b90508373ffffffffffffffffffffffffffffffffffffffff166108fc829081150290604051600060405180830381858888f19350505050158015612957573d6000803e3d6000fd5b508160096000878152602001908152602001600020819055505050505050565b60008060008060028661298a9190613e1e565b905060008789606488603261299f9190613ea9565b8a6129aa9190613e4f565b6129b49190613e1e565b6129be9190613e4f565b6129c89190613e1e565b905060008a8c6129d89190613ea9565b905082828295509550955050505096509650969350505050565b6000808286612a019190613ea9565b8686612a0d9190613e1e565b612a179190613e4f565b85612a229190613ea9565b905060008487612a329190613ea9565b8787612a3e9190613e1e565b612a489190613e4f565b86612a539190613ea9565b905060008486612a639190613ea9565b90506002818385612a749190613dc8565b612a7e9190613e4f565b612a889190613e1e565b9350505050949350505050565b6000808589612aa49190613ea9565b8989612ab09190613e1e565b612aba9190613e4f565b88612ac59190613ea9565b905060008890506000878b612ada9190613ea9565b905060006002828486612aed9190613dc8565b612af79190613e4f565b612b019190613e1e565b905060008b8d8c612b129190613ea9565b8e89612b1e9190613ea9565b8e8b8b8e612b2c9190613e4f565b612b369190613e1e565b612b409190613ea9565b612b4a9190613e1e565b612b549190613e4f565b612b5e9190613dc8565b905060008d8c612b6e9190613ea9565b905060006002828488612b819190613dc8565b612b8b9190613e4f565b612b959190613e1e565b90508084612ba39190613dc8565b975050505050505050979650505050505050565b600080878987612bc79190613ea9565b8a85612bd39190613ea9565b8a87878a612be19190613e4f565b612beb9190613e1e565b612bf59190613ea9565b612bff9190613e1e565b612c099190613e4f565b612c139190613dc8565b90506000888a89612c249190613ea9565b8b86612c309190613ea9565b8b88888b612c3e9190613e4f565b612c489190613e1e565b612c529190613ea9565b612c5c9190613e1e565b612c669190613e4f565b612c709190613dc8565b905060008789612c809190613ea9565b90506002818385612c919190613dc8565b612c9b9190613e4f565b612ca59190613e1e565b9350505050979650505050505050565b828054612cc190613fb7565b90600052602060002090601f016020900481019282612ce35760008555612d2a565b82601f10612cfc57803560ff1916838001178555612d2a565b82800160010185558215612d2a579182015b82811115612d29578235825591602001919060010190612d0e565b5b509050612d379190612dc1565b5090565b828054612d4790613fb7565b90600052602060002090601f016020900481019282612d695760008555612db0565b82601f10612d8257805160ff1916838001178555612db0565b82800160010185558215612db0579182015b82811115612daf578251825591602001919060010190612d94565b5b509050612dbd9190612dc1565b5090565b5b80821115612dda576000816000905550600101612dc2565b5090565b6000612df1612dec84613ca4565b613c7f565b90508083825260208201905082856020860282011115612e1457612e13614158565b5b60005b85811015612e445781612e2a8882612f42565b845260208401935060208301925050600181019050612e17565b5050509392505050565b6000612e61612e5c84613cd0565b613c7f565b90508083825260208201905082856020860282011115612e8457612e83614158565b5b60005b85811015612eb45781612e9a88826130a4565b845260208401935060208301925050600181019050612e87565b5050509392505050565b6000612ed1612ecc84613cfc565b613c7f565b905082815260208101848484011115612eed57612eec61415d565b5b612ef8848285613f75565b509392505050565b6000612f13612f0e84613d2d565b613c7f565b905082815260208101848484011115612f2f57612f2e61415d565b5b612f3a848285613f75565b509392505050565b600081359050612f51816142e5565b92915050565b600081359050612f66816142fc565b92915050565b600082601f830112612f8157612f80614153565b5b8135612f91848260208601612dde565b91505092915050565b600082601f830112612faf57612fae614153565b5b8135612fbf848260208601612e4e565b91505092915050565b600081359050612fd781614313565b92915050565b600081359050612fec8161432a565b92915050565b600082601f83011261300757613006614153565b5b8135613017848260208601612ebe565b91505092915050565b60008083601f84011261303657613035614153565b5b8235905067ffffffffffffffff8111156130535761305261414e565b5b60208301915083600182028301111561306f5761306e614158565b5b9250929050565b600082601f83011261308b5761308a614153565b5b813561309b848260208601612f00565b91505092915050565b6000813590506130b381614341565b92915050565b6000602082840312156130cf576130ce614167565b5b60006130dd84828501612f42565b91505092915050565b6000602082840312156130fc576130fb614167565b5b600061310a84828501612f57565b91505092915050565b6000806000806080858703121561312d5761312c614167565b5b600061313b87828801612f57565b945050602085013567ffffffffffffffff81111561315c5761315b614162565b5b61316887828801613076565b935050604085013567ffffffffffffffff81111561318957613188614162565b5b61319587828801613076565b925050606085013567ffffffffffffffff8111156131b6576131b5614162565b5b6131c287828801613076565b91505092959194509250565b600080604083850312156131e5576131e4614167565b5b60006131f385828601612f42565b925050602061320485828601612f42565b9150509250929050565b600080600080600060a0868803121561322a57613229614167565b5b600061323888828901612f42565b955050602061324988828901612f42565b945050604086013567ffffffffffffffff81111561326a57613269614162565b5b61327688828901612f9a565b935050606086013567ffffffffffffffff81111561329757613296614162565b5b6132a388828901612f9a565b925050608086013567ffffffffffffffff8111156132c4576132c3614162565b5b6132d088828901612ff2565b9150509295509295909350565b600080600080600060a086880312156132f9576132f8614167565b5b600061330788828901612f42565b955050602061331888828901612f42565b9450506040613329888289016130a4565b935050606061333a888289016130a4565b925050608086013567ffffffffffffffff81111561335b5761335a614162565b5b61336788828901612ff2565b9150509295509295909350565b6000806040838503121561338b5761338a614167565b5b600061339985828601612f42565b92505060206133aa85828601612fc8565b9150509250929050565b600080604083850312156133cb576133ca614167565b5b60006133d985828601612f42565b92505060206133ea858286016130a4565b9150509250929050565b60008060006060848603121561340d5761340c614167565b5b600061341b86828701612f42565b935050602061342c868287016130a4565b925050604061343d868287016130a4565b9150509250925092565b6000806040838503121561345e5761345d614167565b5b600083013567ffffffffffffffff81111561347c5761347b614162565b5b61348885828601612f6c565b925050602083013567ffffffffffffffff8111156134a9576134a8614162565b5b6134b585828601612f9a565b9150509250929050565b6000602082840312156134d5576134d4614167565b5b60006134e384828501612fdd565b91505092915050565b60006020828403121561350257613501614167565b5b6000613510848285016130a4565b91505092915050565b600080604083850312156135305761352f614167565b5b600061353e858286016130a4565b925050602061354f85828601612f42565b9150509250929050565b600080604083850312156135705761356f614167565b5b600061357e858286016130a4565b925050602061358f85828601612f57565b9150509250929050565b600080604083850312156135b0576135af614167565b5b60006135be858286016130a4565b92505060206135cf85828601612fc8565b9150509250929050565b6000806000604084860312156135f2576135f1614167565b5b6000613600868287016130a4565b935050602084013567ffffffffffffffff81111561362157613620614162565b5b61362d86828701613020565b92509250509250925092565b600080604083850312156136505761364f614167565b5b600061365e858286016130a4565b925050602061366f858286016130a4565b9150509250929050565b60008060006060848603121561369257613691614167565b5b60006136a0868287016130a4565b93505060206136b1868287016130a4565b92505060406136c286828701612f57565b9150509250925092565b60006136d88383613909565b60208301905092915050565b6136ed81613eef565b82525050565b6136fc81613edd565b82525050565b600061370d82613d83565b6137178185613da6565b935061372283613d5e565b8060005b8381101561375357815161373a88826136cc565b975061374583613d99565b925050600181019050613726565b5085935050505092915050565b61376981613f01565b82525050565b61377881613f63565b82525050565b600061378982613d8e565b6137938185613db7565b93506137a3818560208601613f84565b6137ac8161416c565b840191505092915050565b600081546137c481613fb7565b6137ce8186613db7565b945060018216600081146137e957600181146137fb5761382e565b60ff198316865260208601935061382e565b61380485613d6e565b60005b8381101561382657815481890152600182019150602081019050613807565b808801955050505b50505092915050565b6000613844602b83613db7565b915061384f8261417d565b604082019050919050565b6000613867602683613db7565b9150613872826141cc565b604082019050919050565b600061388a600383613db7565b91506138958261421b565b602082019050919050565b60006138ad602083613db7565b91506138b882614244565b602082019050919050565b60006138d0602983613db7565b91506138db8261426d565b604082019050919050565b60006138f3600483613db7565b91506138fe826142bc565b602082019050919050565b61391281613f59565b82525050565b61392181613f59565b82525050565b600060208201905061393c60008301846136f3565b92915050565b600060e082019050613957600083018a6136e4565b8181036020830152613969818961377e565b9050818103604083015261397d818861377e565b90508181036060830152613991818761377e565b90506139a06080830186613760565b6139ad60a0830185613918565b6139ba60c0830184613918565b98975050505050505050565b600060208201905081810360008301526139e08184613702565b905092915050565b60006040820190508181036000830152613a028185613702565b90508181036020830152613a168184613702565b90509392505050565b6000602082019050613a346000830184613760565b92915050565b60006020820190508181036000830152613a54818461377e565b905092915050565b60006020820190508181036000830152613a7581613837565b9050919050565b60006020820190508181036000830152613a958161385a565b9050919050565b60006020820190508181036000830152613ab5816138a0565b9050919050565b60006020820190508181036000830152613ad5816138c3565b9050919050565b6000602082019050613af16000830184613918565b92915050565b600061010082019050613b0d600083018b613918565b613b1a602083018a6136e4565b8181036040830152613b2c818961377e565b90508181036060830152613b40818861377e565b90508181036080830152613b54818761377e565b9050613b6360a0830186613760565b613b7060c083018561376f565b613b7d60e083018461376f565b9998505050505050505050565b600060a082019050613b9f6000830187613918565b8181036020830152613bb08161387d565b9050613bbf6040830186613918565b8181036060830152613bd181856137b7565b90508181036080830152613be581846137b7565b905095945050505050565b600060a082019050613c056000830187613918565b8181036020830152613c16816138e6565b9050613c256040830186613918565b8181036060830152613c3781856137b7565b90508181036080830152613c4b81846137b7565b905095945050505050565b6000604082019050613c6b6000830185613918565b613c786020830184613918565b9392505050565b6000613c89613c9a565b9050613c958282613fe9565b919050565b6000604051905090565b600067ffffffffffffffff821115613cbf57613cbe61411f565b5b602082029050602081019050919050565b600067ffffffffffffffff821115613ceb57613cea61411f565b5b602082029050602081019050919050565b600067ffffffffffffffff821115613d1757613d1661411f565b5b613d208261416c565b9050602081019050919050565b600067ffffffffffffffff821115613d4857613d4761411f565b5b613d518261416c565b9050602081019050919050565b6000819050602082019050919050565b60008190508160005260206000209050919050565b600081519050919050565b600081519050919050565b6000602082019050919050565b600082825260208201905092915050565b600082825260208201905092915050565b6000613dd382613f59565b9150613dde83613f59565b9250827fffffffffffffffffffffffffffffffffffffffffffffffffffffffffffffffff03821115613e1357613e12614063565b5b828201905092915050565b6000613e2982613f59565b9150613e3483613f59565b925082613e4457613e43614092565b5b828204905092915050565b6000613e5a82613f59565b9150613e6583613f59565b9250817fffffffffffffffffffffffffffffffffffffffffffffffffffffffffffffffff0483118215151615613e9e57613e9d614063565b5b828202905092915050565b6000613eb482613f59565b9150613ebf83613f59565b925082821015613ed257613ed1614063565b5b828203905092915050565b6000613ee882613f39565b9050919050565b6000613efa82613f39565b9050919050565b60008115159050919050565b60007fffffffff0000000000000000000000000000000000000000000000000000000082169050919050565b600073ffffffffffffffffffffffffffffffffffffffff82169050919050565b6000819050919050565b6000613f6e82613f59565b9050919050565b82818337600083830152505050565b60005b83811015613fa2578082015181840152602081019050613f87565b83811115613fb1576000848401525b50505050565b60006002820490506001821680613fcf57607f821691505b60208210811415613fe357613fe26140c1565b5b50919050565b613ff28261416c565b810181811067ffffffffffffffff821117156140115761401061411f565b5b80604052505050565b600061402582613f59565b91507fffffffffffffffffffffffffffffffffffffffffffffffffffffffffffffffff82141561405857614057614063565b5b600182019050919050565b7f4e487b7100000000000000000000000000000000000000000000000000000000600052601160045260246000fd5b7f4e487b7100000000000000000000000000000000000000000000000000000000600052601260045260246000fd5b7f4e487b7100000000000000000000000000000000000000000000000000000000600052602260045260246000fd5b7f4e487b7100000000000000000000000000000000000000000000000000000000600052603260045260246000fd5b7f4e487b7100000000000000000000000000000000000000000000000000000000600052604160045260246000fd5b600080fd5b600080fd5b600080fd5b600080fd5b600080fd5b600080fd5b6000601f19601f8301169050919050565b7f455243313135353a2062616c616e636520717565727920666f7220746865207a60008201527f65726f2061646472657373000000000000000000000000000000000000000000602082015250565b7f4f776e61626c653a206e6577206f776e657220697320746865207a65726f206160008201527f6464726573730000000000000000000000000000000000000000000000000000602082015250565b7f6275790000000000000000000000000000000000000000000000000000000000600082015250565b7f4f776e61626c653a2063616c6c6572206973206e6f7420746865206f776e6572600082015250565b7f455243313135353a206163636f756e747320616e6420696473206c656e67746860008201527f206d69736d617463680000000000000000000000000000000000000000000000602082015250565b7f73656c6c00000000000000000000000000000000000000000000000000000000600082015250565b6142ee81613edd565b81146142f957600080fd5b50565b61430581613eef565b811461431057600080fd5b50565b61431c81613f01565b811461432757600080fd5b50565b61433381613f0d565b811461433e57600080fd5b50565b61434a81613f59565b811461435557600080fd5b5056fea26469706673582212202e596a3190650bb8035136019ed82d9a94db528a7ef82535b93ca6b06ab6167a64736f6c63430008060033",
  "immutableReferences": {},
  "source": "// SPDX-License-Identifier: MIT\npragma solidity ^0.8.0;\n\nimport \"./creatortokencomputation.sol\";\n\ncontract CreatorTokenExchange is CreatorTokenComputation {\n\n\tconstructor(string memory uri) CreatorTokenComputation(uri) { }\n\n\t// Event that fires when a new transaction occurs\n\tevent NewTransaction(address indexed account, uint amount, string transactionType, uint tokenId, string name, string symbol);\n\n\t// Allow user to buy a given CreatorToken from the platform\n\tfunction buyCreatorToken(uint _tokenId, uint _amount) external payable {\n\t\t// Compute total transaction proceeds required (inclusive of fee)\n\t\tuint totalProceeds = _totalProceeds(_tokenId, _amount);\n\t\t// Require that user sends totalProceeds in order to transact\n\t\trequire(msg.value == totalProceeds);\n\t\t// Update platform fee total\n\t\t_platformFeeUpdater(_feeProceeds(_buyProceeds(_tokenId, _amount)));\n\t\t// Mint _amount tokens at the user's address (note this increases token amount outstanding)\n\t\t_mint(msg.sender, _tokenId, _amount, \"\");\n\t\t// Emit new transaction event\n\t\temit NewTransaction(msg.sender, _amount, \"buy\", _tokenId, creatorTokens[_tokenId].name, creatorTokens[_tokenId].symbol);\n\t\t// Check if new outstanding amount of token is greater than maxSupply\n\t\tif (creatorTokens[_tokenId].outstanding > creatorTokens[_tokenId].maxSupply) {\n\t\t\t// Update maxSupply\n\t\t\tcreatorTokens[_tokenId].maxSupply = creatorTokens[_tokenId].outstanding;\n\t\t\t// Call _payout to transfer excess liquidity\n\t\t\t_payCreator(_tokenId, creatorTokens[_tokenId].creatorAddress);\n\t\t}\n\t}\n\n\t// Allow user to sell a given CreatorToken back to the platform\n\tfunction sellCreatorToken(uint _tokenId, uint _amount, address payable _seller) external payable {\n\t\t// Require that user calling function is selling own tokens\n\t\trequire(_seller == msg.sender);\n\t\t// Compute sale proceeds required\n\t\tuint proceedsRequired = _saleFunction(creatorTokens[_tokenId].outstanding, _amount, mNumerator, mDenominator, creatorTokens[_tokenId].maxSupply, profitMargin);\n\t\t// Compute fee\n\t\tuint fee = proceedsRequired*platformFee/100;\n\t\t// Add platform fee to obtain real proceedsRequired value\n\t\tproceedsRequired -= fee;\n\t\t// Burn _amount tokens from user's address (note this decreases token amount outstanding)\n\t\t_burn(_seller, _tokenId, _amount);\n\t\t// Send user proceedsRequired wei (less the platform fee) in exchange for the burned tokens\n\t\t_seller.transfer(proceedsRequired); //1500000000000000000); //\n\t\t// Update platform fee total\n\t\t_platformFeeUpdater(fee);\n\t\t// Emit new transaction event\n\t\temit NewTransaction(msg.sender, _amount, \"sell\", _tokenId, creatorTokens[_tokenId].name, creatorTokens[_tokenId].symbol);\n\t}\n}\n",
  "sourcePath": "/Users/kamilalizaisadik/DeFi/Dynamic Automated Market Maker/damm_solidity/contracts/CreatorTokenExchange.sol",
  "compiler": {
    "name": "solc",
    "version": "0.8.6+commit.11564f7e.Emscripten.clang"
  },
  "schemaVersion": "3.4.1",
  "updatedAt": "2021-07-10T11:50:51.468Z",
  "networkType": "ethereum",
  "devdoc": {
    "kind": "dev",
    "methods": {
      "balanceOf(address,uint256)": {
        "details": "See {IERC1155-balanceOf}. Requirements: - `account` cannot be the zero address."
      },
      "balanceOfBatch(address[],uint256[])": {
        "details": "See {IERC1155-balanceOfBatch}. Requirements: - `accounts` and `ids` must have the same length."
      },
      "owner()": {
        "details": "Returns the address of the current owner."
      },
      "renounceOwnership()": {
        "details": "Leaves the contract without owner. It will not be possible to call `onlyOwner` functions anymore. Can only be called by the current owner. NOTE: Renouncing ownership will leave the contract without an owner, thereby removing any functionality that is only available to the owner."
      },
      "supportsInterface(bytes4)": {
        "details": "See {IERC165-supportsInterface}."
      },
      "transferOwnership(address)": {
        "details": "Transfers ownership of the contract to a new account (`newOwner`). Can only be called by the current owner."
      },
      "uri(uint256)": {
        "details": "See {IERC1155MetadataURI-uri}. This implementation returns the same URI for *all* token types. It relies on the token type ID substitution mechanism https://eips.ethereum.org/EIPS/eip-1155#metadata[defined in the EIP]. Clients calling this function must replace the `\\{id\\}` substring with the actual token type ID."
      }
    },
    "version": 1
  },
  "userdoc": {
    "kind": "user",
    "methods": {},
    "version": 1
  }
}