{
  "contractName": "CreatorTokenExchange",
  "abi": [
    {
      "inputs": [
        {
          "internalType": "string",
          "name": "uri",
          "type": "string"
        }
      ],
      "stateMutability": "nonpayable",
      "type": "constructor"
    },
    {
      "anonymous": false,
      "inputs": [
        {
          "indexed": true,
          "internalType": "address",
          "name": "account",
          "type": "address"
        },
        {
          "indexed": true,
          "internalType": "address",
          "name": "operator",
          "type": "address"
        },
        {
          "indexed": false,
          "internalType": "bool",
          "name": "approved",
          "type": "bool"
        }
      ],
      "name": "ApprovalForAll",
      "type": "event"
    },
    {
      "anonymous": false,
      "inputs": [
        {
          "indexed": false,
          "internalType": "uint256",
          "name": "tokenId",
          "type": "uint256"
        },
        {
          "indexed": false,
          "internalType": "address payable",
          "name": "creatorAddress",
          "type": "address"
        },
        {
          "indexed": false,
          "internalType": "string",
          "name": "name",
          "type": "string"
        },
        {
          "indexed": false,
          "internalType": "string",
          "name": "symbol",
          "type": "string"
        },
        {
          "indexed": false,
          "internalType": "string",
          "name": "description",
          "type": "string"
        },
        {
          "indexed": false,
          "internalType": "bool",
          "name": "verified",
          "type": "bool"
        },
        {
          "indexed": false,
          "internalType": "uint256",
          "name": "outstanding",
          "type": "uint256"
        },
        {
          "indexed": false,
          "internalType": "uint256",
          "name": "maxSupply",
          "type": "uint256"
        }
      ],
      "name": "NewCreatorToken",
      "type": "event"
    },
    {
      "anonymous": false,
      "inputs": [
        {
          "indexed": true,
          "internalType": "address",
          "name": "account",
          "type": "address"
        },
        {
          "indexed": false,
          "internalType": "uint256",
          "name": "amount",
          "type": "uint256"
        },
        {
          "indexed": false,
          "internalType": "string",
          "name": "transactionType",
          "type": "string"
        },
        {
          "indexed": false,
          "internalType": "uint256",
          "name": "tokenId",
          "type": "uint256"
        },
        {
          "indexed": false,
          "internalType": "string",
          "name": "name",
          "type": "string"
        },
        {
          "indexed": false,
          "internalType": "string",
          "name": "symbol",
          "type": "string"
        }
      ],
      "name": "NewTransaction",
      "type": "event"
    },
    {
      "anonymous": false,
      "inputs": [
        {
          "indexed": true,
          "internalType": "address",
          "name": "previousOwner",
          "type": "address"
        },
        {
          "indexed": true,
          "internalType": "address",
          "name": "newOwner",
          "type": "address"
        }
      ],
      "name": "OwnershipTransferred",
      "type": "event"
    },
    {
      "anonymous": false,
      "inputs": [
        {
          "indexed": false,
          "internalType": "address",
          "name": "account",
          "type": "address"
        }
      ],
      "name": "Paused",
      "type": "event"
    },
    {
      "anonymous": false,
      "inputs": [
        {
          "indexed": true,
          "internalType": "bytes32",
          "name": "role",
          "type": "bytes32"
        },
        {
          "indexed": true,
          "internalType": "bytes32",
          "name": "previousAdminRole",
          "type": "bytes32"
        },
        {
          "indexed": true,
          "internalType": "bytes32",
          "name": "newAdminRole",
          "type": "bytes32"
        }
      ],
      "name": "RoleAdminChanged",
      "type": "event"
    },
    {
      "anonymous": false,
      "inputs": [
        {
          "indexed": true,
          "internalType": "bytes32",
          "name": "role",
          "type": "bytes32"
        },
        {
          "indexed": true,
          "internalType": "address",
          "name": "account",
          "type": "address"
        },
        {
          "indexed": true,
          "internalType": "address",
          "name": "sender",
          "type": "address"
        }
      ],
      "name": "RoleGranted",
      "type": "event"
    },
    {
      "anonymous": false,
      "inputs": [
        {
          "indexed": true,
          "internalType": "bytes32",
          "name": "role",
          "type": "bytes32"
        },
        {
          "indexed": true,
          "internalType": "address",
          "name": "account",
          "type": "address"
        },
        {
          "indexed": true,
          "internalType": "address",
          "name": "sender",
          "type": "address"
        }
      ],
      "name": "RoleRevoked",
      "type": "event"
    },
    {
      "anonymous": false,
      "inputs": [
        {
          "indexed": true,
          "internalType": "address",
          "name": "operator",
          "type": "address"
        },
        {
          "indexed": true,
          "internalType": "address",
          "name": "from",
          "type": "address"
        },
        {
          "indexed": true,
          "internalType": "address",
          "name": "to",
          "type": "address"
        },
        {
          "indexed": false,
          "internalType": "uint256[]",
          "name": "ids",
          "type": "uint256[]"
        },
        {
          "indexed": false,
          "internalType": "uint256[]",
          "name": "values",
          "type": "uint256[]"
        }
      ],
      "name": "TransferBatch",
      "type": "event"
    },
    {
      "anonymous": false,
      "inputs": [
        {
          "indexed": true,
          "internalType": "address",
          "name": "operator",
          "type": "address"
        },
        {
          "indexed": true,
          "internalType": "address",
          "name": "from",
          "type": "address"
        },
        {
          "indexed": true,
          "internalType": "address",
          "name": "to",
          "type": "address"
        },
        {
          "indexed": false,
          "internalType": "uint256",
          "name": "id",
          "type": "uint256"
        },
        {
          "indexed": false,
          "internalType": "uint256",
          "name": "value",
          "type": "uint256"
        }
      ],
      "name": "TransferSingle",
      "type": "event"
    },
    {
      "anonymous": false,
      "inputs": [
        {
          "indexed": false,
          "internalType": "string",
          "name": "value",
          "type": "string"
        },
        {
          "indexed": true,
          "internalType": "uint256",
          "name": "id",
          "type": "uint256"
        }
      ],
      "name": "URI",
      "type": "event"
    },
    {
      "anonymous": false,
      "inputs": [
        {
          "indexed": false,
          "internalType": "address",
          "name": "account",
          "type": "address"
        }
      ],
      "name": "Unpaused",
      "type": "event"
    },
    {
      "inputs": [],
      "name": "DEFAULT_ADMIN_ROLE",
      "outputs": [
        {
          "internalType": "bytes32",
          "name": "",
          "type": "bytes32"
        }
      ],
      "stateMutability": "view",
      "type": "function"
    },
    {
      "inputs": [],
      "name": "MINTER_ROLE",
      "outputs": [
        {
          "internalType": "bytes32",
          "name": "",
          "type": "bytes32"
        }
      ],
      "stateMutability": "view",
      "type": "function"
    },
    {
      "inputs": [],
      "name": "PAUSER_ROLE",
      "outputs": [
        {
          "internalType": "bytes32",
          "name": "",
          "type": "bytes32"
        }
      ],
      "stateMutability": "view",
      "type": "function"
    },
    {
      "inputs": [
        {
          "internalType": "uint256",
          "name": "_tokenId",
          "type": "uint256"
        },
        {
          "internalType": "uint256",
          "name": "_amount",
          "type": "uint256"
        }
      ],
      "name": "_buyProceeds",
      "outputs": [
        {
          "internalType": "uint256",
          "name": "",
          "type": "uint256"
        }
      ],
      "stateMutability": "view",
      "type": "function"
    },
    {
      "inputs": [
        {
          "internalType": "uint256",
          "name": "_proceedsRequired",
          "type": "uint256"
        }
      ],
      "name": "_feeProceeds",
      "outputs": [
        {
          "internalType": "uint256",
          "name": "",
          "type": "uint256"
        }
      ],
      "stateMutability": "view",
      "type": "function"
    },
    {
      "inputs": [
        {
          "internalType": "uint256",
          "name": "_tokenId",
          "type": "uint256"
        },
        {
          "internalType": "uint256",
          "name": "_amount",
          "type": "uint256"
        }
      ],
      "name": "_totalProceeds",
      "outputs": [
        {
          "internalType": "uint256",
          "name": "",
          "type": "uint256"
        }
      ],
      "stateMutability": "view",
      "type": "function"
    },
    {
      "inputs": [
        {
          "internalType": "address",
          "name": "account",
          "type": "address"
        },
        {
          "internalType": "uint256",
          "name": "id",
          "type": "uint256"
        }
      ],
      "name": "balanceOf",
      "outputs": [
        {
          "internalType": "uint256",
          "name": "",
          "type": "uint256"
        }
      ],
      "stateMutability": "view",
      "type": "function"
    },
    {
      "inputs": [
        {
          "internalType": "address[]",
          "name": "accounts",
          "type": "address[]"
        },
        {
          "internalType": "uint256[]",
          "name": "ids",
          "type": "uint256[]"
        }
      ],
      "name": "balanceOfBatch",
      "outputs": [
        {
          "internalType": "uint256[]",
          "name": "",
          "type": "uint256[]"
        }
      ],
      "stateMutability": "view",
      "type": "function"
    },
    {
      "inputs": [
        {
          "internalType": "address",
          "name": "_account",
          "type": "address"
        },
        {
          "internalType": "uint256",
          "name": "_id",
          "type": "uint256"
        },
        {
          "internalType": "uint256",
          "name": "_amount",
          "type": "uint256"
        }
      ],
      "name": "burn",
      "outputs": [],
      "stateMutability": "nonpayable",
      "type": "function"
    },
    {
      "inputs": [
        {
          "internalType": "address",
          "name": "_account",
          "type": "address"
        },
        {
          "internalType": "uint256[]",
          "name": "_ids",
          "type": "uint256[]"
        },
        {
          "internalType": "uint256[]",
          "name": "_amounts",
          "type": "uint256[]"
        }
      ],
      "name": "burnBatch",
      "outputs": [],
      "stateMutability": "nonpayable",
      "type": "function"
    },
    {
      "inputs": [
        {
          "internalType": "uint256",
          "name": "_tokenId",
          "type": "uint256"
        },
        {
          "internalType": "address payable",
          "name": "_newCreatorAddress",
          "type": "address"
        }
      ],
      "name": "changeAddress",
      "outputs": [],
      "stateMutability": "nonpayable",
      "type": "function"
    },
    {
      "inputs": [
        {
          "internalType": "uint256",
          "name": "_tokenId",
          "type": "uint256"
        },
        {
          "internalType": "string",
          "name": "_newDescription",
          "type": "string"
        }
      ],
      "name": "changeDescription",
      "outputs": [],
      "stateMutability": "nonpayable",
      "type": "function"
    },
    {
      "inputs": [
        {
          "internalType": "uint256",
          "name": "_tokenId",
          "type": "uint256"
        },
        {
          "internalType": "string",
          "name": "_newName",
          "type": "string"
        }
      ],
      "name": "changeName",
      "outputs": [],
      "stateMutability": "nonpayable",
      "type": "function"
    },
    {
      "inputs": [
        {
          "internalType": "uint256",
          "name": "_newPlatformFee",
          "type": "uint256"
        }
      ],
      "name": "changePlatformFee",
      "outputs": [],
      "stateMutability": "nonpayable",
      "type": "function"
    },
    {
      "inputs": [
        {
          "internalType": "uint256",
          "name": "_newProfitMargin",
          "type": "uint256"
        }
      ],
      "name": "changeProfitMargin",
      "outputs": [],
      "stateMutability": "nonpayable",
      "type": "function"
    },
    {
      "inputs": [
        {
          "internalType": "uint256",
          "name": "_tokenId",
          "type": "uint256"
        },
        {
          "internalType": "string",
          "name": "_newSymbol",
          "type": "string"
        }
      ],
      "name": "changeSymbol",
      "outputs": [],
      "stateMutability": "nonpayable",
      "type": "function"
    },
    {
      "inputs": [
        {
          "internalType": "uint256",
          "name": "_tokenId",
          "type": "uint256"
        },
        {
          "internalType": "bool",
          "name": "_verified",
          "type": "bool"
        }
      ],
      "name": "changeVerification",
      "outputs": [],
      "stateMutability": "nonpayable",
      "type": "function"
    },
    {
      "inputs": [
        {
          "internalType": "address payable",
          "name": "_creatorAddress",
          "type": "address"
        },
        {
          "internalType": "string",
          "name": "_name",
          "type": "string"
        },
        {
          "internalType": "string",
          "name": "_symbol",
          "type": "string"
        },
        {
          "internalType": "string",
          "name": "_description",
          "type": "string"
        }
      ],
      "name": "createCreatorToken",
      "outputs": [],
      "stateMutability": "nonpayable",
      "type": "function"
    },
    {
      "inputs": [
        {
          "internalType": "uint256",
          "name": "",
          "type": "uint256"
        }
      ],
      "name": "creatorTokens",
      "outputs": [
        {
          "internalType": "address payable",
          "name": "creatorAddress",
          "type": "address"
        },
        {
          "internalType": "string",
          "name": "name",
          "type": "string"
        },
        {
          "internalType": "string",
          "name": "symbol",
          "type": "string"
        },
        {
          "internalType": "string",
          "name": "description",
          "type": "string"
        },
        {
          "internalType": "bool",
          "name": "verified",
          "type": "bool"
        },
        {
          "internalType": "uint256",
          "name": "outstanding",
          "type": "uint256"
        },
        {
          "internalType": "uint256",
          "name": "maxSupply",
          "type": "uint256"
        }
      ],
      "stateMutability": "view",
      "type": "function"
    },
    {
      "inputs": [
        {
          "internalType": "bytes32",
          "name": "role",
          "type": "bytes32"
        }
      ],
      "name": "getRoleAdmin",
      "outputs": [
        {
          "internalType": "bytes32",
          "name": "",
          "type": "bytes32"
        }
      ],
      "stateMutability": "view",
      "type": "function"
    },
    {
      "inputs": [
        {
          "internalType": "bytes32",
          "name": "role",
          "type": "bytes32"
        },
        {
          "internalType": "uint256",
          "name": "index",
          "type": "uint256"
        }
      ],
      "name": "getRoleMember",
      "outputs": [
        {
          "internalType": "address",
          "name": "",
          "type": "address"
        }
      ],
      "stateMutability": "view",
      "type": "function"
    },
    {
      "inputs": [
        {
          "internalType": "bytes32",
          "name": "role",
          "type": "bytes32"
        }
      ],
      "name": "getRoleMemberCount",
      "outputs": [
        {
          "internalType": "uint256",
          "name": "",
          "type": "uint256"
        }
      ],
      "stateMutability": "view",
      "type": "function"
    },
    {
      "inputs": [
        {
          "internalType": "bytes32",
          "name": "role",
          "type": "bytes32"
        },
        {
          "internalType": "address",
          "name": "account",
          "type": "address"
        }
      ],
      "name": "grantRole",
      "outputs": [],
      "stateMutability": "nonpayable",
      "type": "function"
    },
    {
      "inputs": [
        {
          "internalType": "bytes32",
          "name": "role",
          "type": "bytes32"
        },
        {
          "internalType": "address",
          "name": "account",
          "type": "address"
        }
      ],
      "name": "hasRole",
      "outputs": [
        {
          "internalType": "bool",
          "name": "",
          "type": "bool"
        }
      ],
      "stateMutability": "view",
      "type": "function"
    },
    {
      "inputs": [
        {
          "internalType": "address",
          "name": "_account",
          "type": "address"
        },
        {
          "internalType": "address",
          "name": "_operator",
          "type": "address"
        }
      ],
      "name": "isApprovedForAll",
      "outputs": [
        {
          "internalType": "bool",
          "name": "",
          "type": "bool"
        }
      ],
      "stateMutability": "view",
      "type": "function"
    },
    {
      "inputs": [
        {
          "internalType": "address",
          "name": "_account",
          "type": "address"
        },
        {
          "internalType": "uint256",
          "name": "_id",
          "type": "uint256"
        },
        {
          "internalType": "uint256",
          "name": "_amount",
          "type": "uint256"
        }
      ],
      "name": "mappingDecrease",
      "outputs": [],
      "stateMutability": "nonpayable",
      "type": "function"
    },
    {
      "inputs": [
        {
          "internalType": "address",
          "name": "_account",
          "type": "address"
        },
        {
          "internalType": "uint256",
          "name": "_id",
          "type": "uint256"
        },
        {
          "internalType": "uint256",
          "name": "_amount",
          "type": "uint256"
        }
      ],
      "name": "mappingIncrease",
      "outputs": [],
      "stateMutability": "nonpayable",
      "type": "function"
    },
    {
      "inputs": [
        {
          "internalType": "address",
          "name": "_to",
          "type": "address"
        },
        {
          "internalType": "uint256",
          "name": "_id",
          "type": "uint256"
        },
        {
          "internalType": "uint256",
          "name": "_amount",
          "type": "uint256"
        },
        {
          "internalType": "bytes",
          "name": "_data",
          "type": "bytes"
        }
      ],
      "name": "mint",
      "outputs": [],
      "stateMutability": "nonpayable",
      "type": "function"
    },
    {
      "inputs": [
        {
          "internalType": "address",
          "name": "_to",
          "type": "address"
        },
        {
          "internalType": "uint256[]",
          "name": "_ids",
          "type": "uint256[]"
        },
        {
          "internalType": "uint256[]",
          "name": "_amounts",
          "type": "uint256[]"
        },
        {
          "internalType": "bytes",
          "name": "data",
          "type": "bytes"
        }
      ],
      "name": "mintBatch",
      "outputs": [],
      "stateMutability": "nonpayable",
      "type": "function"
    },
    {
      "inputs": [],
      "name": "owner",
      "outputs": [
        {
          "internalType": "address",
          "name": "",
          "type": "address"
        }
      ],
      "stateMutability": "view",
      "type": "function"
    },
    {
      "inputs": [],
      "name": "pause",
      "outputs": [],
      "stateMutability": "nonpayable",
      "type": "function"
    },
    {
      "inputs": [],
      "name": "paused",
      "outputs": [
        {
          "internalType": "bool",
          "name": "",
          "type": "bool"
        }
      ],
      "stateMutability": "view",
      "type": "function"
    },
    {
      "inputs": [
        {
          "internalType": "address payable",
          "name": "_owner",
          "type": "address"
        }
      ],
      "name": "payoutPlatformFees",
      "outputs": [],
      "stateMutability": "nonpayable",
      "type": "function"
    },
    {
      "inputs": [],
      "name": "renounceOwnership",
      "outputs": [],
      "stateMutability": "nonpayable",
      "type": "function"
    },
    {
      "inputs": [
        {
          "internalType": "bytes32",
          "name": "role",
          "type": "bytes32"
        },
        {
          "internalType": "address",
          "name": "account",
          "type": "address"
        }
      ],
      "name": "renounceRole",
      "outputs": [],
      "stateMutability": "nonpayable",
      "type": "function"
    },
    {
      "inputs": [
        {
          "internalType": "bytes32",
          "name": "role",
          "type": "bytes32"
        },
        {
          "internalType": "address",
          "name": "account",
          "type": "address"
        }
      ],
      "name": "revokeRole",
      "outputs": [],
      "stateMutability": "nonpayable",
      "type": "function"
    },
    {
      "inputs": [
        {
          "internalType": "address",
          "name": "_from",
          "type": "address"
        },
        {
          "internalType": "address",
          "name": "_to",
          "type": "address"
        },
        {
          "internalType": "uint256[]",
          "name": "_ids",
          "type": "uint256[]"
        },
        {
          "internalType": "uint256[]",
          "name": "_amounts",
          "type": "uint256[]"
        },
        {
          "internalType": "bytes",
          "name": "data",
          "type": "bytes"
        }
      ],
      "name": "safeBatchTransferFrom",
      "outputs": [],
      "stateMutability": "nonpayable",
      "type": "function"
    },
    {
      "inputs": [
        {
          "internalType": "address",
          "name": "_from",
          "type": "address"
        },
        {
          "internalType": "address",
          "name": "_to",
          "type": "address"
        },
        {
          "internalType": "uint256",
          "name": "_id",
          "type": "uint256"
        },
        {
          "internalType": "uint256",
          "name": "_amount",
          "type": "uint256"
        },
        {
          "internalType": "bytes",
          "name": "_data",
          "type": "bytes"
        }
      ],
      "name": "safeTransferFrom",
      "outputs": [],
      "stateMutability": "nonpayable",
      "type": "function"
    },
    {
      "inputs": [
        {
          "internalType": "address",
          "name": "_operator",
          "type": "address"
        },
        {
          "internalType": "bool",
          "name": "_approved",
          "type": "bool"
        }
      ],
      "name": "setApprovalForAll",
      "outputs": [],
      "stateMutability": "nonpayable",
      "type": "function"
    },
    {
      "inputs": [
        {
          "internalType": "bytes4",
          "name": "interfaceId",
          "type": "bytes4"
        }
      ],
      "name": "supportsInterface",
      "outputs": [
        {
          "internalType": "bool",
          "name": "",
          "type": "bool"
        }
      ],
      "stateMutability": "view",
      "type": "function"
    },
    {
      "inputs": [
        {
          "internalType": "uint256",
          "name": "",
          "type": "uint256"
        },
        {
          "internalType": "address",
          "name": "",
          "type": "address"
        }
      ],
      "name": "tokenHoldership",
      "outputs": [
        {
          "internalType": "uint256",
          "name": "",
          "type": "uint256"
        }
      ],
      "stateMutability": "view",
      "type": "function"
    },
    {
      "inputs": [
        {
          "internalType": "uint256",
          "name": "",
          "type": "uint256"
        }
      ],
      "name": "tokenToCreator",
      "outputs": [
        {
          "internalType": "address",
          "name": "",
          "type": "address"
        }
      ],
      "stateMutability": "view",
      "type": "function"
    },
    {
      "inputs": [
        {
          "internalType": "address",
          "name": "newOwner",
          "type": "address"
        }
      ],
      "name": "transferOwnership",
      "outputs": [],
      "stateMutability": "nonpayable",
      "type": "function"
    },
    {
      "inputs": [],
      "name": "unpause",
      "outputs": [],
      "stateMutability": "nonpayable",
      "type": "function"
    },
    {
      "inputs": [
        {
          "internalType": "uint256",
          "name": "",
          "type": "uint256"
        }
      ],
      "name": "uri",
      "outputs": [
        {
          "internalType": "string",
          "name": "",
          "type": "string"
        }
      ],
      "stateMutability": "view",
      "type": "function"
    },
    {
      "inputs": [
        {
          "internalType": "address",
          "name": "",
          "type": "address"
        },
        {
          "internalType": "uint256",
          "name": "",
          "type": "uint256"
        }
      ],
      "name": "userToHoldings",
      "outputs": [
        {
          "internalType": "uint256",
          "name": "",
          "type": "uint256"
        }
      ],
      "stateMutability": "view",
      "type": "function"
    },
    {
      "inputs": [
        {
          "internalType": "address payable",
          "name": "_owner",
          "type": "address"
        }
      ],
      "name": "withdraw",
      "outputs": [],
      "stateMutability": "nonpayable",
      "type": "function"
    },
    {
      "inputs": [
        {
          "internalType": "uint256",
          "name": "_tokenId",
          "type": "uint256"
        },
        {
          "internalType": "uint256",
          "name": "_amount",
          "type": "uint256"
        }
      ],
      "name": "buyCreatorToken",
      "outputs": [],
      "stateMutability": "payable",
      "type": "function"
    },
    {
      "inputs": [
        {
          "internalType": "uint256",
          "name": "_tokenId",
          "type": "uint256"
        },
        {
          "internalType": "uint256",
          "name": "_amount",
          "type": "uint256"
        },
        {
          "internalType": "address payable",
          "name": "_seller",
          "type": "address"
        }
      ],
      "name": "sellCreatorToken",
      "outputs": [],
      "stateMutability": "payable",
      "type": "function"
    }
  ],
  "bytecode": "0x60806040526001805560006002556000600355601460045565082f79cd900060055560b96006553480156200003357600080fd5b50604051620066f4380380620066f48339818101604052810190620000599190620005d0565b808080808080600062000071620001ee60201b60201c565b9050806000806101000a81548173ffffffffffffffffffffffffffffffffffffffff021916908373ffffffffffffffffffffffffffffffffffffffff1602179055508073ffffffffffffffffffffffffffffffffffffffff16600073ffffffffffffffffffffffffffffffffffffffff167f8be0079c531659141344cd1fd0a4f28419497f9722a3daafe3b4186f6b6457e060405160405180910390a3506200012081620001f660201b60201c565b506000601260006101000a81548160ff021916908315150217905550620001606000801b62000154620001ee60201b60201c565b6200021260201b60201c565b620001a17f9f2df0fed2c77648de5860a4cc508cd0818c85b8b8a1ab4ceeef8d981c8956a662000195620001ee60201b60201c565b6200021260201b60201c565b620001e27f65d7a28e3265b37a6474929f336521b332c1681b933f6cb9f3376673440d862a620001d6620001ee60201b60201c565b6200021260201b60201c565b505050505050620007a5565b600033905090565b80601190805190602001906200020e929190620004a2565b5050565b6200022982826200025a60201b62002f0f1760201c565b6200025581600e60008581526020019081526020016000206200027060201b62002f1d1790919060201c565b505050565b6200026c8282620002a860201b60201c565b5050565b6000620002a0836000018373ffffffffffffffffffffffffffffffffffffffff1660001b6200039a60201b60201c565b905092915050565b620002ba82826200041460201b60201c565b62000396576001600d600084815260200190815260200160002060000160008373ffffffffffffffffffffffffffffffffffffffff1673ffffffffffffffffffffffffffffffffffffffff16815260200190815260200160002060006101000a81548160ff0219169083151502179055506200033b620001ee60201b60201c565b73ffffffffffffffffffffffffffffffffffffffff168173ffffffffffffffffffffffffffffffffffffffff16837f2f8788117e7eff1d82e926ec794901d17c78024a50270940304540a733656f0d60405160405180910390a45b5050565b6000620003ae83836200047f60201b60201c565b620004095782600001829080600181540180825580915050600190039060005260206000200160009091909190915055826000018054905083600101600084815260200190815260200160002081905550600190506200040e565b600090505b92915050565b6000600d600084815260200190815260200160002060000160008373ffffffffffffffffffffffffffffffffffffffff1673ffffffffffffffffffffffffffffffffffffffff16815260200190815260200160002060009054906101000a900460ff16905092915050565b600080836001016000848152602001908152602001600020541415905092915050565b828054620004b090620006b6565b90600052602060002090601f016020900481019282620004d4576000855562000520565b82601f10620004ef57805160ff191683800117855562000520565b8280016001018555821562000520579182015b828111156200051f57825182559160200191906001019062000502565b5b5090506200052f919062000533565b5090565b5b808211156200054e57600081600090555060010162000534565b5090565b60006200056962000563846200064a565b62000621565b90508281526020810184848401111562000588576200058762000785565b5b6200059584828562000680565b509392505050565b600082601f830112620005b557620005b462000780565b5b8151620005c784826020860162000552565b91505092915050565b600060208284031215620005e957620005e86200078f565b5b600082015167ffffffffffffffff8111156200060a57620006096200078a565b5b62000618848285016200059d565b91505092915050565b60006200062d62000640565b90506200063b8282620006ec565b919050565b6000604051905090565b600067ffffffffffffffff82111562000668576200066762000751565b5b620006738262000794565b9050602081019050919050565b60005b83811015620006a057808201518184015260208101905062000683565b83811115620006b0576000848401525b50505050565b60006002820490506001821680620006cf57607f821691505b60208210811415620006e657620006e562000722565b5b50919050565b620006f78262000794565b810181811067ffffffffffffffff8211171562000719576200071862000751565b5b80604052505050565b7f4e487b7100000000000000000000000000000000000000000000000000000000600052602260045260246000fd5b7f4e487b7100000000000000000000000000000000000000000000000000000000600052604160045260246000fd5b600080fd5b600080fd5b600080fd5b600080fd5b6000601f19601f8301169050919050565b615f3f80620007b56000396000f3fe6080604052600436106102ad5760003560e01c80639010d07c11610175578063d547741f116100dc578063eb84175911610095578063f5298aca1161006f578063f5298aca14610af4578063f56e71b414610b1d578063f7374e2e14610b46578063fffae94114610b6f576102ad565b8063eb84175914610a79578063f242432a14610aa2578063f2fde38b14610acb576102ad565b8063d547741f1461096d578063d56b72c714610996578063d7a5791a146109bf578063de6a06ed146109e8578063e63ab1e914610a11578063e985e9c514610a3c576102ad565b8063bfb48c9c1161012e578063bfb48c9c14610833578063c39cbef114610870578063c539c31714610899578063ca15c873146108c2578063ce901d8a146108ff578063d539139314610942576102ad565b80639010d07c146106eb57806391d148541461072857806392724afa14610765578063a217fddf146107a2578063a22cb465146107cd578063ba111a05146107f6576102ad565b806336568abe116102195780635d4222cd116101d25780635d4222cd146106175780636b20c45414610640578063715018a614610669578063731133e9146106805780638456cb59146106a95780638da5cb5b146106c0576102ad565b806336568abe146105095780633f4ba83a146105325780634e1273f4146105495780634fe477d81461058657806351cff8d9146105c35780635c975abb146105ec576102ad565b80631f7fdffa1161026b5780631f7fdffa146103f8578063248a9ca3146104215780632dcfdaf71461045e5780632eb2c2d61461047a5780632f2ff15d146104a357806335a8ae21146104cc576102ad565b8062fdd58e146102b257806301ffc9a7146102ef57806306e320f51461032c5780630e89341c1461035557806318892ae8146103925780631d5ad18b146103cf575b600080fd5b3480156102be57600080fd5b506102d960048036038101906102d491906148f7565b610b8b565b6040516102e691906153ff565b60405180910390f35b3480156102fb57600080fd5b5061031660048036038101906103119190614b32565b610c55565b6040516103239190615247565b60405180910390f35b34801561033857600080fd5b50610353600480360381019061034e9190614c4c565b610c67565b005b34801561036157600080fd5b5061037c60048036038101906103779190614b5f565b610d0e565b604051610389919061527d565b60405180910390f35b34801561039e57600080fd5b506103b960048036038101906103b49190614b5f565b610da2565b6040516103c6919061514f565b60405180910390f35b3480156103db57600080fd5b506103f660048036038101906103f19190614bcc565b610dd5565b005b34801561040457600080fd5b5061041f600480360381019061041a91906147fc565b610eaa565b005b34801561042d57600080fd5b5061044860048036038101906104439190614a85565b610ffe565b6040516104559190615262565b60405180910390f35b61047860048036038101906104739190614cec565b61101e565b005b34801561048657600080fd5b506104a1600480360381019061049c919061460b565b6111e2565b005b3480156104af57600080fd5b506104ca60048036038101906104c59190614ab2565b61134e565b005b3480156104d857600080fd5b506104f360048036038101906104ee9190614cac565b611382565b60405161050091906153ff565b60405180910390f35b34801561051557600080fd5b50610530600480360381019061052b9190614ab2565b6113ba565b005b34801561053e57600080fd5b506105476113ee565b005b34801561055557600080fd5b50610570600480360381019061056b9190614a0d565b611468565b60405161057d91906151ee565b60405180910390f35b34801561059257600080fd5b506105ad60048036038101906105a89190614cac565b611581565b6040516105ba91906153ff565b60405180910390f35b3480156105cf57600080fd5b506105ea60048036038101906105e591906144e3565b61178e565b005b3480156105f857600080fd5b50610601611854565b60405161060e9190615247565b60405180910390f35b34801561062357600080fd5b5061063e60048036038101906106399190614937565b61186b565b005b34801561064c57600080fd5b5061066760048036038101906106629190614771565b61193e565b005b34801561067557600080fd5b5061067e611ac9565b005b34801561068c57600080fd5b506106a760048036038101906106a2919061498a565b611c03565b005b3480156106b557600080fd5b506106be611ccf565b005b3480156106cc57600080fd5b506106d5611d49565b6040516106e2919061514f565b60405180910390f35b3480156106f757600080fd5b50610712600480360381019061070d9190614af2565b611d72565b60405161071f919061514f565b60405180910390f35b34801561073457600080fd5b5061074f600480360381019061074a9190614ab2565b611da1565b60405161075c9190615247565b60405180910390f35b34801561077157600080fd5b5061078c600480360381019061078791906148f7565b611e0c565b60405161079991906153ff565b60405180910390f35b3480156107ae57600080fd5b506107b7611e31565b6040516107c49190615262565b60405180910390f35b3480156107d957600080fd5b506107f460048036038101906107ef91906148b7565b611e38565b005b34801561080257600080fd5b5061081d60048036038101906108189190614b5f565b611f35565b60405161082a91906153ff565b60405180910390f35b34801561083f57600080fd5b5061085a60048036038101906108559190614b8c565b611f58565b60405161086791906153ff565b60405180910390f35b34801561087c57600080fd5b5061089760048036038101906108929190614c4c565b611f7d565b005b3480156108a557600080fd5b506108c060048036038101906108bb9190614b5f565b612024565b005b3480156108ce57600080fd5b506108e960048036038101906108e49190614a85565b6120aa565b6040516108f691906153ff565b60405180910390f35b34801561090b57600080fd5b5061092660048036038101906109219190614b5f565b6120ce565b604051610939979695949392919061516a565b60405180910390f35b34801561094e57600080fd5b506109576122e5565b6040516109649190615262565b60405180910390f35b34801561097957600080fd5b50610994600480360381019061098f9190614ab2565b612309565b005b3480156109a257600080fd5b506109bd60048036038101906109b89190614510565b61233d565b005b3480156109cb57600080fd5b506109e660048036038101906109e19190614b5f565b612559565b005b3480156109f457600080fd5b50610a0f6004803603810190610a0a9190614c4c565b6125df565b005b348015610a1d57600080fd5b50610a26612686565b604051610a339190615262565b60405180910390f35b348015610a4857600080fd5b50610a636004803603810190610a5e91906145cb565b6126aa565b604051610a709190615247565b60405180910390f35b348015610a8557600080fd5b50610aa06004803603810190610a9b91906144e3565b61273e565b005b348015610aae57600080fd5b50610ac96004803603810190610ac491906146da565b61280e565b005b348015610ad757600080fd5b50610af26004803603810190610aed91906144b6565b6128f2565b005b348015610b0057600080fd5b50610b1b6004803603810190610b169190614937565b612a9b565b005b348015610b2957600080fd5b50610b446004803603810190610b3f9190614937565b612b9e565b005b348015610b5257600080fd5b50610b6d6004803603810190610b689190614c0c565b612c71565b005b610b896004803603810190610b849190614cac565b612d2e565b005b60008073ffffffffffffffffffffffffffffffffffffffff168373ffffffffffffffffffffffffffffffffffffffff161415610bfc576040517f08c379a0000000000000000000000000000000000000000000000000000000008152600401610bf3906152ff565b60405180910390fd5b600f600083815260200190815260200160002060008473ffffffffffffffffffffffffffffffffffffffff1673ffffffffffffffffffffffffffffffffffffffff16815260200190815260200160002054905092915050565b6000610c6082612f4d565b9050919050565b826008600082815260200190815260200160002060009054906101000a900473ffffffffffffffffffffffffffffffffffffffff1673ffffffffffffffffffffffffffffffffffffffff163373ffffffffffffffffffffffffffffffffffffffff1614610cd357600080fd5b828260078681548110610ce957610ce8615a81565b5b90600052602060002090600702016002019190610d0792919061409d565b5050505050565b606060118054610d1d90615919565b80601f0160208091040260200160405190810160405280929190818152602001828054610d4990615919565b8015610d965780601f10610d6b57610100808354040283529160200191610d96565b820191906000526020600020905b815481529060010190602001808311610d7957829003601f168201915b50505050509050919050565b60086020528060005260406000206000915054906101000a900473ffffffffffffffffffffffffffffffffffffffff1681565b816008600082815260200190815260200160002060009054906101000a900473ffffffffffffffffffffffffffffffffffffffff1673ffffffffffffffffffffffffffffffffffffffff163373ffffffffffffffffffffffffffffffffffffffff1614610e4157600080fd5b8160078481548110610e5657610e55615a81565b5b906000526020600020906007020160000160006101000a81548173ffffffffffffffffffffffffffffffffffffffff021916908373ffffffffffffffffffffffffffffffffffffffff160217905550505050565b60005b8351811015610f7857610ef585858381518110610ecd57610ecc615a81565b5b6020026020010151858481518110610ee857610ee7615a81565b5b602002602001015161186b565b828181518110610f0857610f07615a81565b5b60200260200101516007858381518110610f2557610f24615a81565b5b602002602001015181548110610f3e57610f3d615a81565b5b90600052602060002090600702016005016000828254610f5e91906156f6565b925050819055508080610f709061597c565b915050610ead565b508373ffffffffffffffffffffffffffffffffffffffff16600073ffffffffffffffffffffffffffffffffffffffff163373ffffffffffffffffffffffffffffffffffffffff167f4a39dc06d4c0dbc64b70af90fd698a233a518aa5d07e595d983b8c0526c8f7fb8686604051610ff0929190615210565b60405180910390a450505050565b6000600d6000838152602001908152602001600020600101549050919050565b3373ffffffffffffffffffffffffffffffffffffffff168173ffffffffffffffffffffffffffffffffffffffff161461105657600080fd5b60006110b66007858154811061106f5761106e615a81565b5b906000526020600020906007020160050154846005546006546007898154811061109c5761109b615a81565b5b90600052602060002090600702016006015460045461302f565b905060006064600154836110ca919061577d565b6110d4919061574c565b905080826110e291906157d7565b91506110ef838686612a9b565b8273ffffffffffffffffffffffffffffffffffffffff166108fc839081150290604051600060405180830381858888f19350505050158015611135573d6000803e3d6000fd5b5061113f816130a8565b3373ffffffffffffffffffffffffffffffffffffffff167f1ebb537d8231cf8a6b1b0d1684d85dfd83872c030ffc75f500f0729eaf674d8285876007898154811061118d5761118c615a81565b5b906000526020600020906007020160010160078a815481106111b2576111b1615a81565b5b90600052602060002090600702016002016040516111d39493929190615513565b60405180910390a25050505050565b60005b83518110156112c8578573ffffffffffffffffffffffffffffffffffffffff163373ffffffffffffffffffffffffffffffffffffffff16148061122e575061122d86866126aa565b5b61123757600080fd5b6112768685838151811061124e5761124d615a81565b5b602002602001015185848151811061126957611268615a81565b5b6020026020010151612b9e565b6112b58585838151811061128d5761128c615a81565b5b60200260200101518584815181106112a8576112a7615a81565b5b602002602001015161186b565b80806112c09061597c565b9150506111e5565b508373ffffffffffffffffffffffffffffffffffffffff168573ffffffffffffffffffffffffffffffffffffffff163373ffffffffffffffffffffffffffffffffffffffff167f4a39dc06d4c0dbc64b70af90fd698a233a518aa5d07e595d983b8c0526c8f7fb868660405161133f929190615210565b60405180910390a45050505050565b61135882826130dd565b61137d81600e6000858152602001908152602001600020612f1d90919063ffffffff16565b505050565b60008061138f8484611581565b9050600061139c82611f35565b9050600081836113ac91906156f6565b905080935050505092915050565b6113c48282613106565b6113e981600e600085815260200190815260200160002061318990919063ffffffff16565b505050565b61141f7f65d7a28e3265b37a6474929f336521b332c1681b933f6cb9f3376673440d862a61141a6131b9565b611da1565b61145e576040517f08c379a00000000000000000000000000000000000000000000000000000000081526004016114559061537f565b60405180910390fd5b6114666131c1565b565b606081518351146114ae576040517f08c379a00000000000000000000000000000000000000000000000000000000081526004016114a5906153bf565b60405180910390fd5b6000835167ffffffffffffffff8111156114cb576114ca615ab0565b5b6040519080825280602002602001820160405280156114f95781602001602082028036833780820191505090505b50905060005b84518110156115765761154685828151811061151e5761151d615a81565b5b602002602001015185838151811061153957611538615a81565b5b6020026020010151610b8b565b82828151811061155957611558615a81565b5b6020026020010181815250508061156f9061597c565b90506114ff565b508091505092915050565b6000806000905060006007858154811061159e5761159d615a81565b5b9060005260206000209060070201600501549050600084826115c091906156f6565b9050600786815481106115d6576115d5615a81565b5b90600052602060002090600702016006015481101561162f57611628818660055460065460078b8154811061160e5761160d615a81565b5b90600052602060002090600702016006015460045461302f565b9250611782565b6007868154811061164357611642615a81565b5b90600052602060002090600702016006015482101561176e576116ea6007878154811061167357611672615a81565b5b906000526020600020906007020160060154836007898154811061169a57611699615a81565b5b9060005260206000209060070201600601546116b691906157d7565b60055460065460078b815481106116d0576116cf615a81565b5b90600052602060002090600702016006015460045461302f565b925061175c6007878154811061170357611702615a81565b5b906000526020600020906007020160060154836007898154811061172a57611729615a81565b5b90600052602060002090600702016006015461174691906157d7565b8761175191906157d7565b600554600654613263565b8361176791906156f6565b9250611781565b61177e8286600554600654613263565b92505b5b82935050505092915050565b6117966131b9565b73ffffffffffffffffffffffffffffffffffffffff166117b4611d49565b73ffffffffffffffffffffffffffffffffffffffff161461180a576040517f08c379a00000000000000000000000000000000000000000000000000000000081526004016118019061535f565b60405180910390fd5b8073ffffffffffffffffffffffffffffffffffffffff166108fc479081150290604051600060405180830381858888f19350505050158015611850573d6000803e3d6000fd5b5050565b6000601260009054906101000a900460ff16905090565b80600a600084815260200190815260200160002060008573ffffffffffffffffffffffffffffffffffffffff1673ffffffffffffffffffffffffffffffffffffffff16815260200190815260200160002060008282546118cb91906156f6565b9250508190555080600b60008573ffffffffffffffffffffffffffffffffffffffff1673ffffffffffffffffffffffffffffffffffffffff1681526020019081526020016000206000848152602001908152602001600020600082825461193291906156f6565b92505081905550505050565b8273ffffffffffffffffffffffffffffffffffffffff163373ffffffffffffffffffffffffffffffffffffffff161461197657600080fd5b60005b8251811015611a44576119c18484838151811061199957611998615a81565b5b60200260200101518484815181106119b4576119b3615a81565b5b6020026020010151612b9e565b8181815181106119d4576119d3615a81565b5b602002602001015160078483815181106119f1576119f0615a81565b5b602002602001015181548110611a0a57611a09615a81565b5b90600052602060002090600702016005016000828254611a2a91906157d7565b925050819055508080611a3c9061597c565b915050611979565b50600073ffffffffffffffffffffffffffffffffffffffff168373ffffffffffffffffffffffffffffffffffffffff163373ffffffffffffffffffffffffffffffffffffffff167f4a39dc06d4c0dbc64b70af90fd698a233a518aa5d07e595d983b8c0526c8f7fb8585604051611abc929190615210565b60405180910390a4505050565b611ad16131b9565b73ffffffffffffffffffffffffffffffffffffffff16611aef611d49565b73ffffffffffffffffffffffffffffffffffffffff1614611b45576040517f08c379a0000000000000000000000000000000000000000000000000000000008152600401611b3c9061535f565b60405180910390fd5b600073ffffffffffffffffffffffffffffffffffffffff1660008054906101000a900473ffffffffffffffffffffffffffffffffffffffff1673ffffffffffffffffffffffffffffffffffffffff167f8be0079c531659141344cd1fd0a4f28419497f9722a3daafe3b4186f6b6457e060405160405180910390a360008060006101000a81548173ffffffffffffffffffffffffffffffffffffffff021916908373ffffffffffffffffffffffffffffffffffffffff160217905550565b611c0e84848461186b565b8160078481548110611c2357611c22615a81565b5b90600052602060002090600702016005016000828254611c4391906156f6565b925050819055508373ffffffffffffffffffffffffffffffffffffffff16600073ffffffffffffffffffffffffffffffffffffffff163373ffffffffffffffffffffffffffffffffffffffff167fc3d58168c5ae7397731d063d5bbf3d657854427343f4c083240f7aacaa2d0f628686604051611cc1929190615579565b60405180910390a450505050565b611d007f65d7a28e3265b37a6474929f336521b332c1681b933f6cb9f3376673440d862a611cfb6131b9565b611da1565b611d3f576040517f08c379a0000000000000000000000000000000000000000000000000000000008152600401611d369061539f565b60405180910390fd5b611d476132f1565b565b60008060009054906101000a900473ffffffffffffffffffffffffffffffffffffffff16905090565b6000611d9982600e600086815260200190815260200160002061339490919063ffffffff16565b905092915050565b6000600d600084815260200190815260200160002060000160008373ffffffffffffffffffffffffffffffffffffffff1673ffffffffffffffffffffffffffffffffffffffff16815260200190815260200160002060009054906101000a900460ff16905092915050565b600b602052816000526040600020602052806000526040600020600091509150505481565b6000801b81565b80600c60003373ffffffffffffffffffffffffffffffffffffffff1673ffffffffffffffffffffffffffffffffffffffff16815260200190815260200160002060008473ffffffffffffffffffffffffffffffffffffffff1673ffffffffffffffffffffffffffffffffffffffff16815260200190815260200160002060006101000a81548160ff0219169083151502179055508173ffffffffffffffffffffffffffffffffffffffff163373ffffffffffffffffffffffffffffffffffffffff167f17307eab39ab6107e8899845ad3d59bd9653f200f220920489ca2b5937696c3183604051611f299190615247565b60405180910390a35050565b6000606460015483611f47919061577d565b611f51919061574c565b9050919050565b600a602052816000526040600020602052806000526040600020600091509150505481565b826008600082815260200190815260200160002060009054906101000a900473ffffffffffffffffffffffffffffffffffffffff1673ffffffffffffffffffffffffffffffffffffffff163373ffffffffffffffffffffffffffffffffffffffff1614611fe957600080fd5b828260078681548110611fff57611ffe615a81565b5b9060005260206000209060070201600101919061201d92919061409d565b5050505050565b61202c6131b9565b73ffffffffffffffffffffffffffffffffffffffff1661204a611d49565b73ffffffffffffffffffffffffffffffffffffffff16146120a0576040517f08c379a00000000000000000000000000000000000000000000000000000000081526004016120979061535f565b60405180910390fd5b8060048190555050565b60006120c7600e60008481526020019081526020016000206133ae565b9050919050565b600781815481106120de57600080fd5b90600052602060002090600702016000915090508060000160009054906101000a900473ffffffffffffffffffffffffffffffffffffffff169080600101805461212790615919565b80601f016020809104026020016040519081016040528092919081815260200182805461215390615919565b80156121a05780601f10612175576101008083540402835291602001916121a0565b820191906000526020600020905b81548152906001019060200180831161218357829003601f168201915b5050505050908060020180546121b590615919565b80601f01602080910402602001604051908101604052809291908181526020018280546121e190615919565b801561222e5780601f106122035761010080835404028352916020019161222e565b820191906000526020600020905b81548152906001019060200180831161221157829003601f168201915b50505050509080600301805461224390615919565b80601f016020809104026020016040519081016040528092919081815260200182805461226f90615919565b80156122bc5780601f10612291576101008083540402835291602001916122bc565b820191906000526020600020905b81548152906001019060200180831161229f57829003601f168201915b5050505050908060040160009054906101000a900460ff16908060050154908060060154905087565b7f9f2df0fed2c77648de5860a4cc508cd0818c85b8b8a1ab4ceeef8d981c8956a681565b61231382826133c3565b61233881600e600085815260200190815260200160002061318990919063ffffffff16565b505050565b60076040518060e001604052808673ffffffffffffffffffffffffffffffffffffffff168152602001858152602001848152602001838152602001600015158152602001600081526020016000815250908060018154018082558091505060019003906000526020600020906007020160009091909190915060008201518160000160006101000a81548173ffffffffffffffffffffffffffffffffffffffff021916908373ffffffffffffffffffffffffffffffffffffffff1602179055506020820151816001019080519060200190612419929190614123565b506040820151816002019080519060200190612436929190614123565b506060820151816003019080519060200190612453929190614123565b5060808201518160040160006101000a81548160ff02191690831515021790555060a0820151816005015560c0820151816006015550506000600160078054905061249e91906157d7565b9050846008600083815260200190815260200160002060006101000a81548173ffffffffffffffffffffffffffffffffffffffff021916908373ffffffffffffffffffffffffffffffffffffffff160217905550600060096000838152602001908152602001600020819055507f3ef624c0f3fb7ad40b94c02078ea3e3a797dbfc21e921ee4bd2b8ad0ca6aa1138186868686600080600060405161254a98979695949392919061541a565b60405180910390a15050505050565b6125616131b9565b73ffffffffffffffffffffffffffffffffffffffff1661257f611d49565b73ffffffffffffffffffffffffffffffffffffffff16146125d5576040517f08c379a00000000000000000000000000000000000000000000000000000000081526004016125cc9061535f565b60405180910390fd5b8060018190555050565b826008600082815260200190815260200160002060009054906101000a900473ffffffffffffffffffffffffffffffffffffffff1673ffffffffffffffffffffffffffffffffffffffff163373ffffffffffffffffffffffffffffffffffffffff161461264b57600080fd5b82826007868154811061266157612660615a81565b5b9060005260206000209060070201600301919061267f92919061409d565b5050505050565b7f65d7a28e3265b37a6474929f336521b332c1681b933f6cb9f3376673440d862a81565b6000600c60008473ffffffffffffffffffffffffffffffffffffffff1673ffffffffffffffffffffffffffffffffffffffff16815260200190815260200160002060008373ffffffffffffffffffffffffffffffffffffffff1673ffffffffffffffffffffffffffffffffffffffff16815260200190815260200160002060009054906101000a900460ff16905092915050565b6127466131b9565b73ffffffffffffffffffffffffffffffffffffffff16612764611d49565b73ffffffffffffffffffffffffffffffffffffffff16146127ba576040517f08c379a00000000000000000000000000000000000000000000000000000000081526004016127b19061535f565b60405180910390fd5b8073ffffffffffffffffffffffffffffffffffffffff166108fc6003549081150290604051600060405180830381858888f19350505050158015612802573d6000803e3d6000fd5b50600060038190555050565b8473ffffffffffffffffffffffffffffffffffffffff163373ffffffffffffffffffffffffffffffffffffffff16148061284e575061284d85856126aa565b5b61285757600080fd5b612862858484612b9e565b61286d84848461186b565b8373ffffffffffffffffffffffffffffffffffffffff168573ffffffffffffffffffffffffffffffffffffffff163373ffffffffffffffffffffffffffffffffffffffff167fc3d58168c5ae7397731d063d5bbf3d657854427343f4c083240f7aacaa2d0f6286866040516128e3929190615579565b60405180910390a45050505050565b6128fa6131b9565b73ffffffffffffffffffffffffffffffffffffffff16612918611d49565b73ffffffffffffffffffffffffffffffffffffffff161461296e576040517f08c379a00000000000000000000000000000000000000000000000000000000081526004016129659061535f565b60405180910390fd5b600073ffffffffffffffffffffffffffffffffffffffff168173ffffffffffffffffffffffffffffffffffffffff1614156129de576040517f08c379a00000000000000000000000000000000000000000000000000000000081526004016129d59061531f565b60405180910390fd5b8073ffffffffffffffffffffffffffffffffffffffff1660008054906101000a900473ffffffffffffffffffffffffffffffffffffffff1673ffffffffffffffffffffffffffffffffffffffff167f8be0079c531659141344cd1fd0a4f28419497f9722a3daafe3b4186f6b6457e060405160405180910390a3806000806101000a81548173ffffffffffffffffffffffffffffffffffffffff021916908373ffffffffffffffffffffffffffffffffffffffff16021790555050565b8273ffffffffffffffffffffffffffffffffffffffff163373ffffffffffffffffffffffffffffffffffffffff1614612ad357600080fd5b612ade838383612b9e565b8060078381548110612af357612af2615a81565b5b90600052602060002090600702016005016000828254612b1391906157d7565b92505081905550600073ffffffffffffffffffffffffffffffffffffffff168373ffffffffffffffffffffffffffffffffffffffff163373ffffffffffffffffffffffffffffffffffffffff167fc3d58168c5ae7397731d063d5bbf3d657854427343f4c083240f7aacaa2d0f628585604051612b91929190615579565b60405180910390a4505050565b80600a600084815260200190815260200160002060008573ffffffffffffffffffffffffffffffffffffffff1673ffffffffffffffffffffffffffffffffffffffff1681526020019081526020016000206000828254612bfe91906157d7565b9250508190555080600b60008573ffffffffffffffffffffffffffffffffffffffff1673ffffffffffffffffffffffffffffffffffffffff16815260200190815260200160002060008481526020019081526020016000206000828254612c6591906157d7565b92505081905550505050565b612c796131b9565b73ffffffffffffffffffffffffffffffffffffffff16612c97611d49565b73ffffffffffffffffffffffffffffffffffffffff1614612ced576040517f08c379a0000000000000000000000000000000000000000000000000000000008152600401612ce49061535f565b60405180910390fd5b8060078381548110612d0257612d01615a81565b5b906000526020600020906007020160040160006101000a81548160ff0219169083151502179055505050565b6000612d3a8383611382565b9050803414612d4857600080fd5b612d62612d5d612d588585611581565b611f35565b6130a8565b612d7d33848460405180602001604052806000815250611c03565b3373ffffffffffffffffffffffffffffffffffffffff167f1ebb537d8231cf8a6b1b0d1684d85dfd83872c030ffc75f500f0729eaf674d82838560078781548110612dcb57612dca615a81565b5b906000526020600020906007020160010160078881548110612df057612def615a81565b5b9060005260206000209060070201600201604051612e1194939291906154ad565b60405180910390a260078381548110612e2d57612e2c615a81565b5b90600052602060002090600702016006015460078481548110612e5357612e52615a81565b5b9060005260206000209060070201600501541115612f0a5760078381548110612e7f57612e7e615a81565b5b90600052602060002090600702016005015460078481548110612ea557612ea4615a81565b5b906000526020600020906007020160060181905550612f098360078581548110612ed257612ed1615a81565b5b906000526020600020906007020160000160009054906101000a900473ffffffffffffffffffffffffffffffffffffffff166133ec565b5b505050565b612f198282613541565b5050565b6000612f45836000018373ffffffffffffffffffffffffffffffffffffffff1660001b613622565b905092915050565b60007fd9b67a26000000000000000000000000000000000000000000000000000000007bffffffffffffffffffffffffffffffffffffffffffffffffffffffff1916827bffffffffffffffffffffffffffffffffffffffffffffffffffffffff1916148061301857507f0e89341c000000000000000000000000000000000000000000000000000000007bffffffffffffffffffffffffffffffffffffffffffffffffffffffff1916827bffffffffffffffffffffffffffffffffffffffffffffffffffffffff1916145b80613028575061302782613692565b5b9050919050565b6000806000806130438a8a8a8a8a8a61370c565b9250925092506000838b10156130665761305f84848d85613787565b9050613097565b838210156130845761307d84848d858d8d8d61382a565b9050613096565b61309384848d858d8d8d61394c565b90505b5b809450505050509695505050505050565b80600260008282546130ba91906156f6565b9250508190555080600360008282546130d391906156f6565b9250508190555050565b6130e682610ffe565b6130f7816130f26131b9565b613a4a565b6131018383613541565b505050565b61310e6131b9565b73ffffffffffffffffffffffffffffffffffffffff168173ffffffffffffffffffffffffffffffffffffffff161461317b576040517f08c379a0000000000000000000000000000000000000000000000000000000008152600401613172906153df565b60405180910390fd5b6131858282613ae7565b5050565b60006131b1836000018373ffffffffffffffffffffffffffffffffffffffff1660001b613bc9565b905092915050565b600033905090565b6131c9611854565b613208576040517f08c379a00000000000000000000000000000000000000000000000000000000081526004016131ff906152df565b60405180910390fd5b6000601260006101000a81548160ff0219169083151502179055507f5db9ee0a495bf2e6ff9c91a7834c1ba4fdd244a5e8aa4e537bd38aeae4b073aa61324c6131b9565b604051613259919061514f565b60405180910390a1565b600080848661327291906156f6565b90506000838786613283919061577d565b61328d919061574c565b9050600084838761329e919061577d565b6132a8919061574c565b9050600088846132b891906157d7565b9050600060028284866132cb91906156f6565b6132d5919061577d565b6132df919061574c565b90508095505050505050949350505050565b6132f9611854565b15613339576040517f08c379a00000000000000000000000000000000000000000000000000000000081526004016133309061533f565b60405180910390fd5b6001601260006101000a81548160ff0219169083151502179055507f62e78cea01bee320cd4e420270b5ea74000d11b0c9f74754ebdbfc544b05a25861337d6131b9565b60405161338a919061514f565b60405180910390a1565b60006133a38360000183613cd5565b60001c905092915050565b60006133bc82600001613d49565b9050919050565b6133cc82610ffe565b6133dd816133d86131b9565b613a4a565b6133e78383613ae7565b505050565b60006009600084815260200190815260200160002054905060006134896007858154811061341d5761341c615a81565b5b9060005260206000209060070201600601546007868154811061344357613442615a81565b5b9060005260206000209060070201600601546005546006546007898154811061346f5761346e615a81565b5b90600052602060002090600702016006015460045461302f565b6134bf6000600787815481106134a2576134a1615a81565b5b906000526020600020906007020160060154600554600654613263565b6134c991906157d7565b9050600082826134d991906157d7565b90508373ffffffffffffffffffffffffffffffffffffffff166108fc829081150290604051600060405180830381858888f19350505050158015613521573d6000803e3d6000fd5b508160096000878152602001908152602001600020819055505050505050565b61354b8282611da1565b61361e576001600d600084815260200190815260200160002060000160008373ffffffffffffffffffffffffffffffffffffffff1673ffffffffffffffffffffffffffffffffffffffff16815260200190815260200160002060006101000a81548160ff0219169083151502179055506135c36131b9565b73ffffffffffffffffffffffffffffffffffffffff168173ffffffffffffffffffffffffffffffffffffffff16837f2f8788117e7eff1d82e926ec794901d17c78024a50270940304540a733656f0d60405160405180910390a45b5050565b600061362e8383613d5a565b61368757826000018290806001815401808255809150506001900390600052602060002001600090919091909150558260000180549050836001016000848152602001908152602001600020819055506001905061368c565b600090505b92915050565b60007f5a05180f000000000000000000000000000000000000000000000000000000007bffffffffffffffffffffffffffffffffffffffffffffffffffffffff1916827bffffffffffffffffffffffffffffffffffffffffffffffffffffffff19161480613705575061370482613d7d565b5b9050919050565b60008060008060028661371f919061574c565b905060008789606488603261373491906157d7565b8a61373f919061577d565b613749919061574c565b613753919061577d565b61375d919061574c565b905060008a8c61376d91906157d7565b905082828295509550955050505096509650969350505050565b600080828661379691906157d7565b86866137a2919061574c565b6137ac919061577d565b856137b791906157d7565b9050600084876137c791906157d7565b87876137d3919061574c565b6137dd919061577d565b866137e891906157d7565b9050600084866137f891906157d7565b9050600281838561380991906156f6565b613813919061577d565b61381d919061574c565b9350505050949350505050565b600080858961383991906157d7565b8989613845919061574c565b61384f919061577d565b8861385a91906157d7565b905060008890506000878b61386f91906157d7565b90506000600282848661388291906156f6565b61388c919061577d565b613896919061574c565b905060008b8d8c6138a791906157d7565b8e896138b391906157d7565b8e8b8b8e6138c1919061577d565b6138cb919061574c565b6138d591906157d7565b6138df919061574c565b6138e9919061577d565b6138f391906156f6565b905060008d8c61390391906157d7565b90506000600282848861391691906156f6565b613920919061577d565b61392a919061574c565b9050808461393891906156f6565b975050505050505050979650505050505050565b60008087898761395c91906157d7565b8a8561396891906157d7565b8a87878a613976919061577d565b613980919061574c565b61398a91906157d7565b613994919061574c565b61399e919061577d565b6139a891906156f6565b90506000888a896139b991906157d7565b8b866139c591906157d7565b8b88888b6139d3919061577d565b6139dd919061574c565b6139e791906157d7565b6139f1919061574c565b6139fb919061577d565b613a0591906156f6565b905060008789613a1591906157d7565b90506002818385613a2691906156f6565b613a30919061577d565b613a3a919061574c565b9350505050979650505050505050565b613a548282611da1565b613ae357613a798173ffffffffffffffffffffffffffffffffffffffff166014613df7565b613a878360001c6020613df7565b604051602001613a98929190615115565b6040516020818303038152906040526040517f08c379a0000000000000000000000000000000000000000000000000000000008152600401613ada919061527d565b60405180910390fd5b5050565b613af18282611da1565b15613bc5576000600d600084815260200190815260200160002060000160008373ffffffffffffffffffffffffffffffffffffffff1673ffffffffffffffffffffffffffffffffffffffff16815260200190815260200160002060006101000a81548160ff021916908315150217905550613b6a6131b9565b73ffffffffffffffffffffffffffffffffffffffff168173ffffffffffffffffffffffffffffffffffffffff16837ff6391f5c32d9c69d2a47ea670b442974b53935d1edc7fd64eb21e047a839171b60405160405180910390a45b5050565b60008083600101600084815260200190815260200160002054905060008114613cc9576000600182613bfb91906157d7565b9050600060018660000180549050613c1391906157d7565b90506000866000018281548110613c2d57613c2c615a81565b5b9060005260206000200154905080876000018481548110613c5157613c50615a81565b5b9060005260206000200181905550838760010160008381526020019081526020016000208190555086600001805480613c8d57613c8c615a52565b5b60019003818190600052602060002001600090559055866001016000878152602001908152602001600020600090556001945050505050613ccf565b60009150505b92915050565b600081836000018054905011613d20576040517f08c379a0000000000000000000000000000000000000000000000000000000008152600401613d179061529f565b60405180910390fd5b826000018281548110613d3657613d35615a81565b5b9060005260206000200154905092915050565b600081600001805490509050919050565b600080836001016000848152602001908152602001600020541415905092915050565b60007f7965db0b000000000000000000000000000000000000000000000000000000007bffffffffffffffffffffffffffffffffffffffffffffffffffffffff1916827bffffffffffffffffffffffffffffffffffffffffffffffffffffffff19161480613df05750613def82614033565b5b9050919050565b606060006002836002613e0a919061577d565b613e1491906156f6565b67ffffffffffffffff811115613e2d57613e2c615ab0565b5b6040519080825280601f01601f191660200182016040528015613e5f5781602001600182028036833780820191505090505b5090507f300000000000000000000000000000000000000000000000000000000000000081600081518110613e9757613e96615a81565b5b60200101907effffffffffffffffffffffffffffffffffffffffffffffffffffffffffffff1916908160001a9053507f780000000000000000000000000000000000000000000000000000000000000081600181518110613efb57613efa615a81565b5b60200101907effffffffffffffffffffffffffffffffffffffffffffffffffffffffffffff1916908160001a90535060006001846002613f3b919061577d565b613f4591906156f6565b90505b6001811115613fe5577f3031323334353637383961626364656600000000000000000000000000000000600f861660108110613f8757613f86615a81565b5b1a60f81b828281518110613f9e57613f9d615a81565b5b60200101907effffffffffffffffffffffffffffffffffffffffffffffffffffffffffffff1916908160001a905350600485901c945080613fde906158ef565b9050613f48565b5060008414614029576040517f08c379a0000000000000000000000000000000000000000000000000000000008152600401614020906152bf565b60405180910390fd5b8091505092915050565b60007f01ffc9a7000000000000000000000000000000000000000000000000000000007bffffffffffffffffffffffffffffffffffffffffffffffffffffffff1916827bffffffffffffffffffffffffffffffffffffffffffffffffffffffff1916149050919050565b8280546140a990615919565b90600052602060002090601f0160209004810192826140cb5760008555614112565b82601f106140e457803560ff1916838001178555614112565b82800160010185558215614112579182015b828111156141115782358255916020019190600101906140f6565b5b50905061411f91906141a9565b5090565b82805461412f90615919565b90600052602060002090601f0160209004810192826141515760008555614198565b82601f1061416a57805160ff1916838001178555614198565b82800160010185558215614198579182015b8281111561419757825182559160200191906001019061417c565b5b5090506141a591906141a9565b5090565b5b808211156141c25760008160009055506001016141aa565b5090565b60006141d96141d4846155c7565b6155a2565b905080838252602082019050828560208602820111156141fc576141fb615ae9565b5b60005b8581101561422c5781614212888261432a565b8452602084019350602083019250506001810190506141ff565b5050509392505050565b6000614249614244846155f3565b6155a2565b9050808382526020820190508285602086028201111561426c5761426b615ae9565b5b60005b8581101561429c578161428288826144a1565b84526020840193506020830192505060018101905061426f565b5050509392505050565b60006142b96142b48461561f565b6155a2565b9050828152602081018484840111156142d5576142d4615aee565b5b6142e08482856158ad565b509392505050565b60006142fb6142f684615650565b6155a2565b90508281526020810184848401111561431757614316615aee565b5b6143228482856158ad565b509392505050565b60008135905061433981615e7f565b92915050565b60008135905061434e81615e96565b92915050565b600082601f83011261436957614368615ae4565b5b81356143798482602086016141c6565b91505092915050565b600082601f83011261439757614396615ae4565b5b81356143a7848260208601614236565b91505092915050565b6000813590506143bf81615ead565b92915050565b6000813590506143d481615ec4565b92915050565b6000813590506143e981615edb565b92915050565b600082601f83011261440457614403615ae4565b5b81356144148482602086016142a6565b91505092915050565b60008083601f84011261443357614432615ae4565b5b8235905067ffffffffffffffff8111156144505761444f615adf565b5b60208301915083600182028301111561446c5761446b615ae9565b5b9250929050565b600082601f83011261448857614487615ae4565b5b81356144988482602086016142e8565b91505092915050565b6000813590506144b081615ef2565b92915050565b6000602082840312156144cc576144cb615af8565b5b60006144da8482850161432a565b91505092915050565b6000602082840312156144f9576144f8615af8565b5b60006145078482850161433f565b91505092915050565b6000806000806080858703121561452a57614529615af8565b5b60006145388782880161433f565b945050602085013567ffffffffffffffff81111561455957614558615af3565b5b61456587828801614473565b935050604085013567ffffffffffffffff81111561458657614585615af3565b5b61459287828801614473565b925050606085013567ffffffffffffffff8111156145b3576145b2615af3565b5b6145bf87828801614473565b91505092959194509250565b600080604083850312156145e2576145e1615af8565b5b60006145f08582860161432a565b92505060206146018582860161432a565b9150509250929050565b600080600080600060a0868803121561462757614626615af8565b5b60006146358882890161432a565b95505060206146468882890161432a565b945050604086013567ffffffffffffffff81111561466757614666615af3565b5b61467388828901614382565b935050606086013567ffffffffffffffff81111561469457614693615af3565b5b6146a088828901614382565b925050608086013567ffffffffffffffff8111156146c1576146c0615af3565b5b6146cd888289016143ef565b9150509295509295909350565b600080600080600060a086880312156146f6576146f5615af8565b5b60006147048882890161432a565b95505060206147158882890161432a565b9450506040614726888289016144a1565b9350506060614737888289016144a1565b925050608086013567ffffffffffffffff81111561475857614757615af3565b5b614764888289016143ef565b9150509295509295909350565b60008060006060848603121561478a57614789615af8565b5b60006147988682870161432a565b935050602084013567ffffffffffffffff8111156147b9576147b8615af3565b5b6147c586828701614382565b925050604084013567ffffffffffffffff8111156147e6576147e5615af3565b5b6147f286828701614382565b9150509250925092565b6000806000806080858703121561481657614815615af8565b5b60006148248782880161432a565b945050602085013567ffffffffffffffff81111561484557614844615af3565b5b61485187828801614382565b935050604085013567ffffffffffffffff81111561487257614871615af3565b5b61487e87828801614382565b925050606085013567ffffffffffffffff81111561489f5761489e615af3565b5b6148ab878288016143ef565b91505092959194509250565b600080604083850312156148ce576148cd615af8565b5b60006148dc8582860161432a565b92505060206148ed858286016143b0565b9150509250929050565b6000806040838503121561490e5761490d615af8565b5b600061491c8582860161432a565b925050602061492d858286016144a1565b9150509250929050565b6000806000606084860312156149505761494f615af8565b5b600061495e8682870161432a565b935050602061496f868287016144a1565b9250506040614980868287016144a1565b9150509250925092565b600080600080608085870312156149a4576149a3615af8565b5b60006149b28782880161432a565b94505060206149c3878288016144a1565b93505060406149d4878288016144a1565b925050606085013567ffffffffffffffff8111156149f5576149f4615af3565b5b614a01878288016143ef565b91505092959194509250565b60008060408385031215614a2457614a23615af8565b5b600083013567ffffffffffffffff811115614a4257614a41615af3565b5b614a4e85828601614354565b925050602083013567ffffffffffffffff811115614a6f57614a6e615af3565b5b614a7b85828601614382565b9150509250929050565b600060208284031215614a9b57614a9a615af8565b5b6000614aa9848285016143c5565b91505092915050565b60008060408385031215614ac957614ac8615af8565b5b6000614ad7858286016143c5565b9250506020614ae88582860161432a565b9150509250929050565b60008060408385031215614b0957614b08615af8565b5b6000614b17858286016143c5565b9250506020614b28858286016144a1565b9150509250929050565b600060208284031215614b4857614b47615af8565b5b6000614b56848285016143da565b91505092915050565b600060208284031215614b7557614b74615af8565b5b6000614b83848285016144a1565b91505092915050565b60008060408385031215614ba357614ba2615af8565b5b6000614bb1858286016144a1565b9250506020614bc28582860161432a565b9150509250929050565b60008060408385031215614be357614be2615af8565b5b6000614bf1858286016144a1565b9250506020614c028582860161433f565b9150509250929050565b60008060408385031215614c2357614c22615af8565b5b6000614c31858286016144a1565b9250506020614c42858286016143b0565b9150509250929050565b600080600060408486031215614c6557614c64615af8565b5b6000614c73868287016144a1565b935050602084013567ffffffffffffffff811115614c9457614c93615af3565b5b614ca08682870161441d565b92509250509250925092565b60008060408385031215614cc357614cc2615af8565b5b6000614cd1858286016144a1565b9250506020614ce2858286016144a1565b9150509250929050565b600080600060608486031215614d0557614d04615af8565b5b6000614d13868287016144a1565b9350506020614d24868287016144a1565b9250506040614d358682870161433f565b9150509250925092565b6000614d4b83836150f7565b60208301905092915050565b614d608161581d565b82525050565b614d6f8161580b565b82525050565b6000614d80826156a6565b614d8a81856156c9565b9350614d9583615681565b8060005b83811015614dc6578151614dad8882614d3f565b9750614db8836156bc565b925050600181019050614d99565b5085935050505092915050565b614ddc8161582f565b82525050565b614deb8161583b565b82525050565b614dfa8161589b565b82525050565b6000614e0b826156b1565b614e1581856156da565b9350614e258185602086016158bc565b614e2e81615afd565b840191505092915050565b6000614e44826156b1565b614e4e81856156eb565b9350614e5e8185602086016158bc565b80840191505092915050565b60008154614e7781615919565b614e8181866156da565b94506001821660008114614e9c5760018114614eae57614ee1565b60ff1983168652602086019350614ee1565b614eb785615691565b60005b83811015614ed957815481890152600182019150602081019050614eba565b808801955050505b50505092915050565b6000614ef76022836156da565b9150614f0282615b0e565b604082019050919050565b6000614f1a6020836156da565b9150614f2582615b5d565b602082019050919050565b6000614f3d6014836156da565b9150614f4882615b86565b602082019050919050565b6000614f60602b836156da565b9150614f6b82615baf565b604082019050919050565b6000614f836026836156da565b9150614f8e82615bfe565b604082019050919050565b6000614fa66010836156da565b9150614fb182615c4d565b602082019050919050565b6000614fc96003836156da565b9150614fd482615c76565b602082019050919050565b6000614fec6020836156da565b9150614ff782615c9f565b602082019050919050565b600061500f603b836156da565b915061501a82615cc8565b604082019050919050565b60006150326039836156da565b915061503d82615d17565b604082019050919050565b60006150556017836156eb565b915061506082615d66565b601782019050919050565b60006150786029836156da565b915061508382615d8f565b604082019050919050565b600061509b6004836156da565b91506150a682615dde565b602082019050919050565b60006150be6011836156eb565b91506150c982615e07565b601182019050919050565b60006150e1602f836156da565b91506150ec82615e30565b604082019050919050565b61510081615891565b82525050565b61510f81615891565b82525050565b600061512082615048565b915061512c8285614e39565b9150615137826150b1565b91506151438284614e39565b91508190509392505050565b60006020820190506151646000830184614d66565b92915050565b600060e08201905061517f600083018a614d57565b81810360208301526151918189614e00565b905081810360408301526151a58188614e00565b905081810360608301526151b98187614e00565b90506151c86080830186614dd3565b6151d560a0830185615106565b6151e260c0830184615106565b98975050505050505050565b600060208201905081810360008301526152088184614d75565b905092915050565b6000604082019050818103600083015261522a8185614d75565b9050818103602083015261523e8184614d75565b90509392505050565b600060208201905061525c6000830184614dd3565b92915050565b60006020820190506152776000830184614de2565b92915050565b600060208201905081810360008301526152978184614e00565b905092915050565b600060208201905081810360008301526152b881614eea565b9050919050565b600060208201905081810360008301526152d881614f0d565b9050919050565b600060208201905081810360008301526152f881614f30565b9050919050565b6000602082019050818103600083015261531881614f53565b9050919050565b6000602082019050818103600083015261533881614f76565b9050919050565b6000602082019050818103600083015261535881614f99565b9050919050565b6000602082019050818103600083015261537881614fdf565b9050919050565b6000602082019050818103600083015261539881615002565b9050919050565b600060208201905081810360008301526153b881615025565b9050919050565b600060208201905081810360008301526153d88161506b565b9050919050565b600060208201905081810360008301526153f8816150d4565b9050919050565b60006020820190506154146000830184615106565b92915050565b600061010082019050615430600083018b615106565b61543d602083018a614d57565b818103604083015261544f8189614e00565b905081810360608301526154638188614e00565b905081810360808301526154778187614e00565b905061548660a0830186614dd3565b61549360c0830185614df1565b6154a060e0830184614df1565b9998505050505050505050565b600060a0820190506154c26000830187615106565b81810360208301526154d381614fbc565b90506154e26040830186615106565b81810360608301526154f48185614e6a565b905081810360808301526155088184614e6a565b905095945050505050565b600060a0820190506155286000830187615106565b81810360208301526155398161508e565b90506155486040830186615106565b818103606083015261555a8185614e6a565b9050818103608083015261556e8184614e6a565b905095945050505050565b600060408201905061558e6000830185615106565b61559b6020830184615106565b9392505050565b60006155ac6155bd565b90506155b8828261594b565b919050565b6000604051905090565b600067ffffffffffffffff8211156155e2576155e1615ab0565b5b602082029050602081019050919050565b600067ffffffffffffffff82111561560e5761560d615ab0565b5b602082029050602081019050919050565b600067ffffffffffffffff82111561563a57615639615ab0565b5b61564382615afd565b9050602081019050919050565b600067ffffffffffffffff82111561566b5761566a615ab0565b5b61567482615afd565b9050602081019050919050565b6000819050602082019050919050565b60008190508160005260206000209050919050565b600081519050919050565b600081519050919050565b6000602082019050919050565b600082825260208201905092915050565b600082825260208201905092915050565b600081905092915050565b600061570182615891565b915061570c83615891565b9250827fffffffffffffffffffffffffffffffffffffffffffffffffffffffffffffffff03821115615741576157406159c5565b5b828201905092915050565b600061575782615891565b915061576283615891565b925082615772576157716159f4565b5b828204905092915050565b600061578882615891565b915061579383615891565b9250817fffffffffffffffffffffffffffffffffffffffffffffffffffffffffffffffff04831182151516156157cc576157cb6159c5565b5b828202905092915050565b60006157e282615891565b91506157ed83615891565b925082821015615800576157ff6159c5565b5b828203905092915050565b600061581682615871565b9050919050565b600061582882615871565b9050919050565b60008115159050919050565b6000819050919050565b60007fffffffff0000000000000000000000000000000000000000000000000000000082169050919050565b600073ffffffffffffffffffffffffffffffffffffffff82169050919050565b6000819050919050565b60006158a682615891565b9050919050565b82818337600083830152505050565b60005b838110156158da5780820151818401526020810190506158bf565b838111156158e9576000848401525b50505050565b60006158fa82615891565b9150600082141561590e5761590d6159c5565b5b600182039050919050565b6000600282049050600182168061593157607f821691505b6020821081141561594557615944615a23565b5b50919050565b61595482615afd565b810181811067ffffffffffffffff8211171561597357615972615ab0565b5b80604052505050565b600061598782615891565b91507fffffffffffffffffffffffffffffffffffffffffffffffffffffffffffffffff8214156159ba576159b96159c5565b5b600182019050919050565b7f4e487b7100000000000000000000000000000000000000000000000000000000600052601160045260246000fd5b7f4e487b7100000000000000000000000000000000000000000000000000000000600052601260045260246000fd5b7f4e487b7100000000000000000000000000000000000000000000000000000000600052602260045260246000fd5b7f4e487b7100000000000000000000000000000000000000000000000000000000600052603160045260246000fd5b7f4e487b7100000000000000000000000000000000000000000000000000000000600052603260045260246000fd5b7f4e487b7100000000000000000000000000000000000000000000000000000000600052604160045260246000fd5b600080fd5b600080fd5b600080fd5b600080fd5b600080fd5b600080fd5b6000601f19601f8301169050919050565b7f456e756d657261626c655365743a20696e646578206f7574206f6620626f756e60008201527f6473000000000000000000000000000000000000000000000000000000000000602082015250565b7f537472696e67733a20686578206c656e67746820696e73756666696369656e74600082015250565b7f5061757361626c653a206e6f7420706175736564000000000000000000000000600082015250565b7f455243313135353a2062616c616e636520717565727920666f7220746865207a60008201527f65726f2061646472657373000000000000000000000000000000000000000000602082015250565b7f4f776e61626c653a206e6577206f776e657220697320746865207a65726f206160008201527f6464726573730000000000000000000000000000000000000000000000000000602082015250565b7f5061757361626c653a2070617573656400000000000000000000000000000000600082015250565b7f6275790000000000000000000000000000000000000000000000000000000000600082015250565b7f4f776e61626c653a2063616c6c6572206973206e6f7420746865206f776e6572600082015250565b7f455243313135355072657365744d696e7465725061757365723a206d7573742060008201527f686176652070617573657220726f6c6520746f20756e70617573650000000000602082015250565b7f455243313135355072657365744d696e7465725061757365723a206d7573742060008201527f686176652070617573657220726f6c6520746f20706175736500000000000000602082015250565b7f416363657373436f6e74726f6c3a206163636f756e7420000000000000000000600082015250565b7f455243313135353a206163636f756e747320616e6420696473206c656e67746860008201527f206d69736d617463680000000000000000000000000000000000000000000000602082015250565b7f73656c6c00000000000000000000000000000000000000000000000000000000600082015250565b7f206973206d697373696e6720726f6c6520000000000000000000000000000000600082015250565b7f416363657373436f6e74726f6c3a2063616e206f6e6c792072656e6f756e636560008201527f20726f6c657320666f722073656c660000000000000000000000000000000000602082015250565b615e888161580b565b8114615e9357600080fd5b50565b615e9f8161581d565b8114615eaa57600080fd5b50565b615eb68161582f565b8114615ec157600080fd5b50565b615ecd8161583b565b8114615ed857600080fd5b50565b615ee481615845565b8114615eef57600080fd5b50565b615efb81615891565b8114615f0657600080fd5b5056fea2646970667358221220ca31227c691f8472971c1510c6b335724c660991f71f8b14810d18d31e63506164736f6c63430008060033",
  "immutableReferences": {},
  "source": "// SPDX-License-Identifier: MIT\npragma solidity ^0.8.0;\n\nimport \"./creatortokencomputation.sol\";\n\ncontract CreatorTokenExchange is CreatorTokenComputation {\n\n\tconstructor(string memory uri) CreatorTokenComputation(uri) { }\n\n\t// Event that fires when a new transaction occurs\n\tevent NewTransaction(address indexed account, uint amount, string transactionType, uint tokenId, string name, string symbol);\n\n\t// Allow user to buy a given CreatorToken from the platform\n\tfunction buyCreatorToken(uint _tokenId, uint _amount) external payable {\n\t\t// Compute total transaction proceeds required (inclusive of fee)\n\t\tuint totalProceeds = _totalProceeds(_tokenId, _amount);\n\t\t// Require that user sends totalProceeds in order to transact\n\t\trequire(msg.value == totalProceeds);\n\t\t// Update platform fee total\n\t\t_platformFeeUpdater(_feeProceeds(_buyProceeds(_tokenId, _amount)));\n\t\t// Mint _amount tokens at the user's address (note this increases token amount outstanding)\n\t\tmint(msg.sender, _tokenId, _amount, \"\");\n\t\t// Emit new transaction event\n\t\temit NewTransaction(msg.sender, _amount, \"buy\", _tokenId, creatorTokens[_tokenId].name, creatorTokens[_tokenId].symbol);\n\t\t// Check if new outstanding amount of token is greater than maxSupply\n\t\tif (creatorTokens[_tokenId].outstanding > creatorTokens[_tokenId].maxSupply) {\n\t\t\t// Update maxSupply\n\t\t\tcreatorTokens[_tokenId].maxSupply = creatorTokens[_tokenId].outstanding;\n\t\t\t// Call _payout to transfer excess liquidity\n\t\t\t_payCreator(_tokenId, creatorTokens[_tokenId].creatorAddress);\n\t\t}\n\t}\n\n\t// Allow user to sell a given CreatorToken back to the platform\n\tfunction sellCreatorToken(uint _tokenId, uint _amount, address payable _seller) external payable {\n\t\t// Require that user calling function is selling own tokens\n\t\trequire(_seller == msg.sender);\n\t\t// Compute sale proceeds required\n\t\tuint proceedsRequired = _saleFunction(creatorTokens[_tokenId].outstanding, _amount, mNumerator, mDenominator, creatorTokens[_tokenId].maxSupply, profitMargin);\n\t\t// Compute fee\n\t\tuint fee = proceedsRequired*platformFee/100;\n\t\t// Add platform fee to obtain real proceedsRequired value\n\t\tproceedsRequired -= fee;\n\t\t// Burn _amount tokens from user's address (note this decreases token amount outstanding)\n\t\tburn(_seller, _tokenId, _amount);\n\t\t// Send user proceedsRequired wei (less the platform fee) in exchange for the burned tokens\n\t\t_seller.transfer(proceedsRequired); //1500000000000000000); //\n\t\t// Update platform fee total\n\t\t_platformFeeUpdater(fee);\n\t\t// Emit new transaction event\n\t\temit NewTransaction(msg.sender, _amount, \"sell\", _tokenId, creatorTokens[_tokenId].name, creatorTokens[_tokenId].symbol);\n\t}\n}\n",
  "sourcePath": "/Users/kamilalizaisadik/DeFi/Dynamic Automated Market Maker/damm_solidity/contracts/CreatorTokenExchange.sol",
  "compiler": {
    "name": "solc",
    "version": "0.8.6+commit.11564f7e.Emscripten.clang"
  },
  "schemaVersion": "3.4.1",
  "updatedAt": "2021-07-09T16:58:51.462Z",
  "devdoc": {
    "kind": "dev",
    "methods": {
      "balanceOf(address,uint256)": {
        "details": "See {IERC1155-balanceOf}. Requirements: - `account` cannot be the zero address."
      },
      "balanceOfBatch(address[],uint256[])": {
        "details": "See {IERC1155-balanceOfBatch}. Requirements: - `accounts` and `ids` must have the same length."
      },
      "getRoleAdmin(bytes32)": {
        "details": "Returns the admin role that controls `role`. See {grantRole} and {revokeRole}. To change a role's admin, use {_setRoleAdmin}."
      },
      "getRoleMember(bytes32,uint256)": {
        "details": "Returns one of the accounts that have `role`. `index` must be a value between 0 and {getRoleMemberCount}, non-inclusive. Role bearers are not sorted in any particular way, and their ordering may change at any point. WARNING: When using {getRoleMember} and {getRoleMemberCount}, make sure you perform all queries on the same block. See the following https://forum.openzeppelin.com/t/iterating-over-elements-on-enumerableset-in-openzeppelin-contracts/2296[forum post] for more information."
      },
      "getRoleMemberCount(bytes32)": {
        "details": "Returns the number of accounts that have `role`. Can be used together with {getRoleMember} to enumerate all bearers of a role."
      },
      "grantRole(bytes32,address)": {
        "details": "Overload {grantRole} to track enumerable memberships"
      },
      "hasRole(bytes32,address)": {
        "details": "Returns `true` if `account` has been granted `role`."
      },
      "owner()": {
        "details": "Returns the address of the current owner."
      },
      "pause()": {
        "details": "Pauses all token transfers. See {ERC1155Pausable} and {Pausable-_pause}. Requirements: - the caller must have the `PAUSER_ROLE`."
      },
      "paused()": {
        "details": "Returns true if the contract is paused, and false otherwise."
      },
      "renounceOwnership()": {
        "details": "Leaves the contract without owner. It will not be possible to call `onlyOwner` functions anymore. Can only be called by the current owner. NOTE: Renouncing ownership will leave the contract without an owner, thereby removing any functionality that is only available to the owner."
      },
      "renounceRole(bytes32,address)": {
        "details": "Overload {renounceRole} to track enumerable memberships"
      },
      "revokeRole(bytes32,address)": {
        "details": "Overload {revokeRole} to track enumerable memberships"
      },
      "supportsInterface(bytes4)": {
        "details": "See {IERC165-supportsInterface}."
      },
      "transferOwnership(address)": {
        "details": "Transfers ownership of the contract to a new account (`newOwner`). Can only be called by the current owner."
      },
      "unpause()": {
        "details": "Unpauses all token transfers. See {ERC1155Pausable} and {Pausable-_unpause}. Requirements: - the caller must have the `PAUSER_ROLE`."
      },
      "uri(uint256)": {
        "details": "See {IERC1155MetadataURI-uri}. This implementation returns the same URI for *all* token types. It relies on the token type ID substitution mechanism https://eips.ethereum.org/EIPS/eip-1155#metadata[defined in the EIP]. Clients calling this function must replace the `\\{id\\}` substring with the actual token type ID."
      }
    },
    "version": 1
  },
  "userdoc": {
    "kind": "user",
    "methods": {},
    "version": 1
  }
}