{
  "contractName": "CreatorTokenComputation",
  "abi": [
    {
      "inputs": [
        {
          "internalType": "string",
          "name": "uri",
          "type": "string"
        }
      ],
      "stateMutability": "nonpayable",
      "type": "constructor"
    },
    {
      "anonymous": false,
      "inputs": [
        {
          "indexed": true,
          "internalType": "address",
          "name": "account",
          "type": "address"
        },
        {
          "indexed": true,
          "internalType": "address",
          "name": "operator",
          "type": "address"
        },
        {
          "indexed": false,
          "internalType": "bool",
          "name": "approved",
          "type": "bool"
        }
      ],
      "name": "ApprovalForAll",
      "type": "event"
    },
    {
      "anonymous": false,
      "inputs": [
        {
          "indexed": false,
          "internalType": "uint256",
          "name": "tokenId",
          "type": "uint256"
        },
        {
          "indexed": false,
          "internalType": "address payable",
          "name": "creatorAddress",
          "type": "address"
        },
        {
          "indexed": false,
          "internalType": "string",
          "name": "name",
          "type": "string"
        },
        {
          "indexed": false,
          "internalType": "string",
          "name": "symbol",
          "type": "string"
        },
        {
          "indexed": false,
          "internalType": "string",
          "name": "description",
          "type": "string"
        },
        {
          "indexed": false,
          "internalType": "bool",
          "name": "verified",
          "type": "bool"
        },
        {
          "indexed": false,
          "internalType": "uint256",
          "name": "outstanding",
          "type": "uint256"
        },
        {
          "indexed": false,
          "internalType": "uint256",
          "name": "maxSupply",
          "type": "uint256"
        }
      ],
      "name": "NewCreatorToken",
      "type": "event"
    },
    {
      "anonymous": false,
      "inputs": [
        {
          "indexed": true,
          "internalType": "address",
          "name": "previousOwner",
          "type": "address"
        },
        {
          "indexed": true,
          "internalType": "address",
          "name": "newOwner",
          "type": "address"
        }
      ],
      "name": "OwnershipTransferred",
      "type": "event"
    },
    {
      "anonymous": false,
      "inputs": [
        {
          "indexed": false,
          "internalType": "address",
          "name": "account",
          "type": "address"
        }
      ],
      "name": "Paused",
      "type": "event"
    },
    {
      "anonymous": false,
      "inputs": [
        {
          "indexed": true,
          "internalType": "bytes32",
          "name": "role",
          "type": "bytes32"
        },
        {
          "indexed": true,
          "internalType": "bytes32",
          "name": "previousAdminRole",
          "type": "bytes32"
        },
        {
          "indexed": true,
          "internalType": "bytes32",
          "name": "newAdminRole",
          "type": "bytes32"
        }
      ],
      "name": "RoleAdminChanged",
      "type": "event"
    },
    {
      "anonymous": false,
      "inputs": [
        {
          "indexed": true,
          "internalType": "bytes32",
          "name": "role",
          "type": "bytes32"
        },
        {
          "indexed": true,
          "internalType": "address",
          "name": "account",
          "type": "address"
        },
        {
          "indexed": true,
          "internalType": "address",
          "name": "sender",
          "type": "address"
        }
      ],
      "name": "RoleGranted",
      "type": "event"
    },
    {
      "anonymous": false,
      "inputs": [
        {
          "indexed": true,
          "internalType": "bytes32",
          "name": "role",
          "type": "bytes32"
        },
        {
          "indexed": true,
          "internalType": "address",
          "name": "account",
          "type": "address"
        },
        {
          "indexed": true,
          "internalType": "address",
          "name": "sender",
          "type": "address"
        }
      ],
      "name": "RoleRevoked",
      "type": "event"
    },
    {
      "anonymous": false,
      "inputs": [
        {
          "indexed": true,
          "internalType": "address",
          "name": "operator",
          "type": "address"
        },
        {
          "indexed": true,
          "internalType": "address",
          "name": "from",
          "type": "address"
        },
        {
          "indexed": true,
          "internalType": "address",
          "name": "to",
          "type": "address"
        },
        {
          "indexed": false,
          "internalType": "uint256[]",
          "name": "ids",
          "type": "uint256[]"
        },
        {
          "indexed": false,
          "internalType": "uint256[]",
          "name": "values",
          "type": "uint256[]"
        }
      ],
      "name": "TransferBatch",
      "type": "event"
    },
    {
      "anonymous": false,
      "inputs": [
        {
          "indexed": true,
          "internalType": "address",
          "name": "operator",
          "type": "address"
        },
        {
          "indexed": true,
          "internalType": "address",
          "name": "from",
          "type": "address"
        },
        {
          "indexed": true,
          "internalType": "address",
          "name": "to",
          "type": "address"
        },
        {
          "indexed": false,
          "internalType": "uint256",
          "name": "id",
          "type": "uint256"
        },
        {
          "indexed": false,
          "internalType": "uint256",
          "name": "value",
          "type": "uint256"
        }
      ],
      "name": "TransferSingle",
      "type": "event"
    },
    {
      "anonymous": false,
      "inputs": [
        {
          "indexed": false,
          "internalType": "string",
          "name": "value",
          "type": "string"
        },
        {
          "indexed": true,
          "internalType": "uint256",
          "name": "id",
          "type": "uint256"
        }
      ],
      "name": "URI",
      "type": "event"
    },
    {
      "anonymous": false,
      "inputs": [
        {
          "indexed": false,
          "internalType": "address",
          "name": "account",
          "type": "address"
        }
      ],
      "name": "Unpaused",
      "type": "event"
    },
    {
      "inputs": [],
      "name": "DEFAULT_ADMIN_ROLE",
      "outputs": [
        {
          "internalType": "bytes32",
          "name": "",
          "type": "bytes32"
        }
      ],
      "stateMutability": "view",
      "type": "function"
    },
    {
      "inputs": [],
      "name": "MINTER_ROLE",
      "outputs": [
        {
          "internalType": "bytes32",
          "name": "",
          "type": "bytes32"
        }
      ],
      "stateMutability": "view",
      "type": "function"
    },
    {
      "inputs": [],
      "name": "PAUSER_ROLE",
      "outputs": [
        {
          "internalType": "bytes32",
          "name": "",
          "type": "bytes32"
        }
      ],
      "stateMutability": "view",
      "type": "function"
    },
    {
      "inputs": [
        {
          "internalType": "address",
          "name": "_account",
          "type": "address"
        },
        {
          "internalType": "uint256",
          "name": "_id",
          "type": "uint256"
        }
      ],
      "name": "balanceOf",
      "outputs": [
        {
          "internalType": "uint256",
          "name": "",
          "type": "uint256"
        }
      ],
      "stateMutability": "view",
      "type": "function"
    },
    {
      "inputs": [
        {
          "internalType": "address[]",
          "name": "_accounts",
          "type": "address[]"
        },
        {
          "internalType": "uint256[]",
          "name": "_ids",
          "type": "uint256[]"
        }
      ],
      "name": "balanceOfBatch",
      "outputs": [
        {
          "internalType": "uint256[]",
          "name": "",
          "type": "uint256[]"
        }
      ],
      "stateMutability": "view",
      "type": "function"
    },
    {
      "inputs": [
        {
          "internalType": "address",
          "name": "_account",
          "type": "address"
        },
        {
          "internalType": "uint256",
          "name": "_id",
          "type": "uint256"
        },
        {
          "internalType": "uint256",
          "name": "_amount",
          "type": "uint256"
        }
      ],
      "name": "burn",
      "outputs": [],
      "stateMutability": "nonpayable",
      "type": "function"
    },
    {
      "inputs": [
        {
          "internalType": "address",
          "name": "_account",
          "type": "address"
        },
        {
          "internalType": "uint256[]",
          "name": "_ids",
          "type": "uint256[]"
        },
        {
          "internalType": "uint256[]",
          "name": "_amounts",
          "type": "uint256[]"
        }
      ],
      "name": "burnBatch",
      "outputs": [],
      "stateMutability": "nonpayable",
      "type": "function"
    },
    {
      "inputs": [
        {
          "internalType": "uint256",
          "name": "_tokenId",
          "type": "uint256"
        },
        {
          "internalType": "address payable",
          "name": "_newCreatorAddress",
          "type": "address"
        }
      ],
      "name": "changeAddress",
      "outputs": [],
      "stateMutability": "nonpayable",
      "type": "function"
    },
    {
      "inputs": [
        {
          "internalType": "uint256",
          "name": "_tokenId",
          "type": "uint256"
        },
        {
          "internalType": "string",
          "name": "_newDescription",
          "type": "string"
        }
      ],
      "name": "changeDescription",
      "outputs": [],
      "stateMutability": "nonpayable",
      "type": "function"
    },
    {
      "inputs": [
        {
          "internalType": "uint256",
          "name": "_tokenId",
          "type": "uint256"
        },
        {
          "internalType": "string",
          "name": "_newName",
          "type": "string"
        }
      ],
      "name": "changeName",
      "outputs": [],
      "stateMutability": "nonpayable",
      "type": "function"
    },
    {
      "inputs": [
        {
          "internalType": "uint256",
          "name": "_newPlatformFee",
          "type": "uint256"
        }
      ],
      "name": "changePlatformFee",
      "outputs": [],
      "stateMutability": "nonpayable",
      "type": "function"
    },
    {
      "inputs": [
        {
          "internalType": "uint256",
          "name": "_newProfitMargin",
          "type": "uint256"
        }
      ],
      "name": "changeProfitMargin",
      "outputs": [],
      "stateMutability": "nonpayable",
      "type": "function"
    },
    {
      "inputs": [
        {
          "internalType": "uint256",
          "name": "_tokenId",
          "type": "uint256"
        },
        {
          "internalType": "string",
          "name": "_newSymbol",
          "type": "string"
        }
      ],
      "name": "changeSymbol",
      "outputs": [],
      "stateMutability": "nonpayable",
      "type": "function"
    },
    {
      "inputs": [
        {
          "internalType": "uint256",
          "name": "_tokenId",
          "type": "uint256"
        },
        {
          "internalType": "bool",
          "name": "_verified",
          "type": "bool"
        }
      ],
      "name": "changeVerification",
      "outputs": [],
      "stateMutability": "nonpayable",
      "type": "function"
    },
    {
      "inputs": [
        {
          "internalType": "address payable",
          "name": "_creatorAddress",
          "type": "address"
        },
        {
          "internalType": "string",
          "name": "_name",
          "type": "string"
        },
        {
          "internalType": "string",
          "name": "_symbol",
          "type": "string"
        },
        {
          "internalType": "string",
          "name": "_description",
          "type": "string"
        }
      ],
      "name": "createCreatorToken",
      "outputs": [],
      "stateMutability": "nonpayable",
      "type": "function"
    },
    {
      "inputs": [
        {
          "internalType": "uint256",
          "name": "",
          "type": "uint256"
        }
      ],
      "name": "creatorTokens",
      "outputs": [
        {
          "internalType": "address payable",
          "name": "creatorAddress",
          "type": "address"
        },
        {
          "internalType": "string",
          "name": "name",
          "type": "string"
        },
        {
          "internalType": "string",
          "name": "symbol",
          "type": "string"
        },
        {
          "internalType": "string",
          "name": "description",
          "type": "string"
        },
        {
          "internalType": "bool",
          "name": "verified",
          "type": "bool"
        },
        {
          "internalType": "uint256",
          "name": "outstanding",
          "type": "uint256"
        },
        {
          "internalType": "uint256",
          "name": "maxSupply",
          "type": "uint256"
        }
      ],
      "stateMutability": "view",
      "type": "function"
    },
    {
      "inputs": [
        {
          "internalType": "bytes32",
          "name": "role",
          "type": "bytes32"
        }
      ],
      "name": "getRoleAdmin",
      "outputs": [
        {
          "internalType": "bytes32",
          "name": "",
          "type": "bytes32"
        }
      ],
      "stateMutability": "view",
      "type": "function"
    },
    {
      "inputs": [
        {
          "internalType": "bytes32",
          "name": "role",
          "type": "bytes32"
        },
        {
          "internalType": "uint256",
          "name": "index",
          "type": "uint256"
        }
      ],
      "name": "getRoleMember",
      "outputs": [
        {
          "internalType": "address",
          "name": "",
          "type": "address"
        }
      ],
      "stateMutability": "view",
      "type": "function"
    },
    {
      "inputs": [
        {
          "internalType": "bytes32",
          "name": "role",
          "type": "bytes32"
        }
      ],
      "name": "getRoleMemberCount",
      "outputs": [
        {
          "internalType": "uint256",
          "name": "",
          "type": "uint256"
        }
      ],
      "stateMutability": "view",
      "type": "function"
    },
    {
      "inputs": [
        {
          "internalType": "bytes32",
          "name": "role",
          "type": "bytes32"
        },
        {
          "internalType": "address",
          "name": "account",
          "type": "address"
        }
      ],
      "name": "grantRole",
      "outputs": [],
      "stateMutability": "nonpayable",
      "type": "function"
    },
    {
      "inputs": [
        {
          "internalType": "bytes32",
          "name": "role",
          "type": "bytes32"
        },
        {
          "internalType": "address",
          "name": "account",
          "type": "address"
        }
      ],
      "name": "hasRole",
      "outputs": [
        {
          "internalType": "bool",
          "name": "",
          "type": "bool"
        }
      ],
      "stateMutability": "view",
      "type": "function"
    },
    {
      "inputs": [
        {
          "internalType": "address",
          "name": "_account",
          "type": "address"
        },
        {
          "internalType": "address",
          "name": "_operator",
          "type": "address"
        }
      ],
      "name": "isApprovedForAll",
      "outputs": [
        {
          "internalType": "bool",
          "name": "",
          "type": "bool"
        }
      ],
      "stateMutability": "view",
      "type": "function"
    },
    {
      "inputs": [
        {
          "internalType": "address",
          "name": "_to",
          "type": "address"
        },
        {
          "internalType": "uint256",
          "name": "_id",
          "type": "uint256"
        },
        {
          "internalType": "uint256",
          "name": "_amount",
          "type": "uint256"
        },
        {
          "internalType": "bytes",
          "name": "_data",
          "type": "bytes"
        }
      ],
      "name": "mint",
      "outputs": [],
      "stateMutability": "nonpayable",
      "type": "function"
    },
    {
      "inputs": [
        {
          "internalType": "address",
          "name": "_to",
          "type": "address"
        },
        {
          "internalType": "uint256[]",
          "name": "_ids",
          "type": "uint256[]"
        },
        {
          "internalType": "uint256[]",
          "name": "_amounts",
          "type": "uint256[]"
        },
        {
          "internalType": "bytes",
          "name": "data",
          "type": "bytes"
        }
      ],
      "name": "mintBatch",
      "outputs": [],
      "stateMutability": "nonpayable",
      "type": "function"
    },
    {
      "inputs": [],
      "name": "owner",
      "outputs": [
        {
          "internalType": "address",
          "name": "",
          "type": "address"
        }
      ],
      "stateMutability": "view",
      "type": "function"
    },
    {
      "inputs": [],
      "name": "pause",
      "outputs": [],
      "stateMutability": "nonpayable",
      "type": "function"
    },
    {
      "inputs": [],
      "name": "paused",
      "outputs": [
        {
          "internalType": "bool",
          "name": "",
          "type": "bool"
        }
      ],
      "stateMutability": "view",
      "type": "function"
    },
    {
      "inputs": [
        {
          "internalType": "address payable",
          "name": "_owner",
          "type": "address"
        }
      ],
      "name": "payoutPlatformFees",
      "outputs": [],
      "stateMutability": "nonpayable",
      "type": "function"
    },
    {
      "inputs": [],
      "name": "renounceOwnership",
      "outputs": [],
      "stateMutability": "nonpayable",
      "type": "function"
    },
    {
      "inputs": [
        {
          "internalType": "bytes32",
          "name": "role",
          "type": "bytes32"
        },
        {
          "internalType": "address",
          "name": "account",
          "type": "address"
        }
      ],
      "name": "renounceRole",
      "outputs": [],
      "stateMutability": "nonpayable",
      "type": "function"
    },
    {
      "inputs": [
        {
          "internalType": "bytes32",
          "name": "role",
          "type": "bytes32"
        },
        {
          "internalType": "address",
          "name": "account",
          "type": "address"
        }
      ],
      "name": "revokeRole",
      "outputs": [],
      "stateMutability": "nonpayable",
      "type": "function"
    },
    {
      "inputs": [
        {
          "internalType": "address",
          "name": "_from",
          "type": "address"
        },
        {
          "internalType": "address",
          "name": "_to",
          "type": "address"
        },
        {
          "internalType": "uint256[]",
          "name": "_ids",
          "type": "uint256[]"
        },
        {
          "internalType": "uint256[]",
          "name": "_amounts",
          "type": "uint256[]"
        },
        {
          "internalType": "bytes",
          "name": "data",
          "type": "bytes"
        }
      ],
      "name": "safeBatchTransferFrom",
      "outputs": [],
      "stateMutability": "nonpayable",
      "type": "function"
    },
    {
      "inputs": [
        {
          "internalType": "address",
          "name": "_from",
          "type": "address"
        },
        {
          "internalType": "address",
          "name": "_to",
          "type": "address"
        },
        {
          "internalType": "uint256",
          "name": "_id",
          "type": "uint256"
        },
        {
          "internalType": "uint256",
          "name": "_amount",
          "type": "uint256"
        },
        {
          "internalType": "bytes",
          "name": "_data",
          "type": "bytes"
        }
      ],
      "name": "safeTransferFrom",
      "outputs": [],
      "stateMutability": "nonpayable",
      "type": "function"
    },
    {
      "inputs": [
        {
          "internalType": "address",
          "name": "_operator",
          "type": "address"
        },
        {
          "internalType": "bool",
          "name": "_approved",
          "type": "bool"
        }
      ],
      "name": "setApprovalForAll",
      "outputs": [],
      "stateMutability": "nonpayable",
      "type": "function"
    },
    {
      "inputs": [
        {
          "internalType": "bytes4",
          "name": "interfaceId",
          "type": "bytes4"
        }
      ],
      "name": "supportsInterface",
      "outputs": [
        {
          "internalType": "bool",
          "name": "",
          "type": "bool"
        }
      ],
      "stateMutability": "view",
      "type": "function"
    },
    {
      "inputs": [
        {
          "internalType": "uint256",
          "name": "",
          "type": "uint256"
        },
        {
          "internalType": "address",
          "name": "",
          "type": "address"
        }
      ],
      "name": "tokenHoldership",
      "outputs": [
        {
          "internalType": "uint256",
          "name": "",
          "type": "uint256"
        }
      ],
      "stateMutability": "view",
      "type": "function"
    },
    {
      "inputs": [
        {
          "internalType": "uint256",
          "name": "",
          "type": "uint256"
        }
      ],
      "name": "tokenToCreator",
      "outputs": [
        {
          "internalType": "address",
          "name": "",
          "type": "address"
        }
      ],
      "stateMutability": "view",
      "type": "function"
    },
    {
      "inputs": [
        {
          "internalType": "address",
          "name": "newOwner",
          "type": "address"
        }
      ],
      "name": "transferOwnership",
      "outputs": [],
      "stateMutability": "nonpayable",
      "type": "function"
    },
    {
      "inputs": [],
      "name": "unpause",
      "outputs": [],
      "stateMutability": "nonpayable",
      "type": "function"
    },
    {
      "inputs": [
        {
          "internalType": "uint256",
          "name": "",
          "type": "uint256"
        }
      ],
      "name": "uri",
      "outputs": [
        {
          "internalType": "string",
          "name": "",
          "type": "string"
        }
      ],
      "stateMutability": "view",
      "type": "function"
    },
    {
      "inputs": [
        {
          "internalType": "address",
          "name": "",
          "type": "address"
        },
        {
          "internalType": "uint256",
          "name": "",
          "type": "uint256"
        }
      ],
      "name": "userToHoldings",
      "outputs": [
        {
          "internalType": "uint256",
          "name": "",
          "type": "uint256"
        }
      ],
      "stateMutability": "view",
      "type": "function"
    },
    {
      "inputs": [
        {
          "internalType": "address payable",
          "name": "_owner",
          "type": "address"
        }
      ],
      "name": "withdraw",
      "outputs": [],
      "stateMutability": "nonpayable",
      "type": "function"
    },
    {
      "inputs": [
        {
          "internalType": "uint256",
          "name": "_tokenId",
          "type": "uint256"
        },
        {
          "internalType": "uint256",
          "name": "_amount",
          "type": "uint256"
        }
      ],
      "name": "_totalProceeds",
      "outputs": [
        {
          "internalType": "uint256[3]",
          "name": "",
          "type": "uint256[3]"
        }
      ],
      "stateMutability": "nonpayable",
      "type": "function"
    },
    {
      "inputs": [
        {
          "internalType": "uint256",
          "name": "_tokenId",
          "type": "uint256"
        },
        {
          "internalType": "uint256",
          "name": "_amount",
          "type": "uint256"
        }
      ],
      "name": "_buyProceeds",
      "outputs": [
        {
          "internalType": "uint256",
          "name": "",
          "type": "uint256"
        }
      ],
      "stateMutability": "view",
      "type": "function"
    },
    {
      "inputs": [
        {
          "internalType": "uint256",
          "name": "_proceedsRequired",
          "type": "uint256"
        }
      ],
      "name": "_feeProceeds",
      "outputs": [
        {
          "internalType": "uint256",
          "name": "",
          "type": "uint256"
        }
      ],
      "stateMutability": "view",
      "type": "function"
    }
  ],
  "bytecode": "0x60806040526001805560006002556000600355601460045565082f79cd900060055560b96006553480156200003357600080fd5b5060405162005e3c38038062005e3c8339818101604052810190620000599190620005ca565b80808060006200006e620001e860201b60201c565b9050806000806101000a81548173ffffffffffffffffffffffffffffffffffffffff021916908373ffffffffffffffffffffffffffffffffffffffff1602179055508073ffffffffffffffffffffffffffffffffffffffff16600073ffffffffffffffffffffffffffffffffffffffff167f8be0079c531659141344cd1fd0a4f28419497f9722a3daafe3b4186f6b6457e060405160405180910390a3506200011d81620001f060201b60201c565b506000601260006101000a81548160ff0219169083151502179055506200015d6000801b62000151620001e860201b60201c565b6200020c60201b60201c565b6200019e7f9f2df0fed2c77648de5860a4cc508cd0818c85b8b8a1ab4ceeef8d981c8956a662000192620001e860201b60201c565b6200020c60201b60201c565b620001df7f65d7a28e3265b37a6474929f336521b332c1681b933f6cb9f3376673440d862a620001d3620001e860201b60201c565b6200020c60201b60201c565b5050506200079f565b600033905090565b8060119080519060200190620002089291906200049c565b5050565b6200022382826200025460201b62002a761760201c565b6200024f81600e60008581526020019081526020016000206200026a60201b62002a841790919060201c565b505050565b620002668282620002a260201b60201c565b5050565b60006200029a836000018373ffffffffffffffffffffffffffffffffffffffff1660001b6200039460201b60201c565b905092915050565b620002b482826200040e60201b60201c565b62000390576001600d600084815260200190815260200160002060000160008373ffffffffffffffffffffffffffffffffffffffff1673ffffffffffffffffffffffffffffffffffffffff16815260200190815260200160002060006101000a81548160ff02191690831515021790555062000335620001e860201b60201c565b73ffffffffffffffffffffffffffffffffffffffff168173ffffffffffffffffffffffffffffffffffffffff16837f2f8788117e7eff1d82e926ec794901d17c78024a50270940304540a733656f0d60405160405180910390a45b5050565b6000620003a883836200047960201b60201c565b6200040357826000018290806001815401808255809150506001900390600052602060002001600090919091909150558260000180549050836001016000848152602001908152602001600020819055506001905062000408565b600090505b92915050565b6000600d600084815260200190815260200160002060000160008373ffffffffffffffffffffffffffffffffffffffff1673ffffffffffffffffffffffffffffffffffffffff16815260200190815260200160002060009054906101000a900460ff16905092915050565b600080836001016000848152602001908152602001600020541415905092915050565b828054620004aa90620006b0565b90600052602060002090601f016020900481019282620004ce57600085556200051a565b82601f10620004e957805160ff19168380011785556200051a565b828001600101855582156200051a579182015b8281111562000519578251825591602001919060010190620004fc565b5b5090506200052991906200052d565b5090565b5b80821115620005485760008160009055506001016200052e565b5090565b6000620005636200055d8462000644565b6200061b565b9050828152602081018484840111156200058257620005816200077f565b5b6200058f8482856200067a565b509392505050565b600082601f830112620005af57620005ae6200077a565b5b8151620005c18482602086016200054c565b91505092915050565b600060208284031215620005e357620005e262000789565b5b600082015167ffffffffffffffff81111562000604576200060362000784565b5b620006128482850162000597565b91505092915050565b6000620006276200063a565b9050620006358282620006e6565b919050565b6000604051905090565b600067ffffffffffffffff8211156200066257620006616200074b565b5b6200066d826200078e565b9050602081019050919050565b60005b838110156200069a5780820151818401526020810190506200067d565b83811115620006aa576000848401525b50505050565b60006002820490506001821680620006c957607f821691505b60208210811415620006e057620006df6200071c565b5b50919050565b620006f1826200078e565b810181811067ffffffffffffffff821117156200071357620007126200074b565b5b80604052505050565b7f4e487b7100000000000000000000000000000000000000000000000000000000600052602260045260246000fd5b7f4e487b7100000000000000000000000000000000000000000000000000000000600052604160045260246000fd5b600080fd5b600080fd5b600080fd5b600080fd5b6000601f19601f8301169050919050565b61568d80620007af6000396000f3fe608060405234801561001057600080fd5b506004361061027e5760003560e01c80639010d07c1161015c578063d5391393116100ce578063e985e9c511610087578063e985e9c5146107cd578063eb841759146107fd578063f242432a14610819578063f2fde38b14610835578063f5298aca14610851578063f7374e2e1461086d5761027e565b8063d539139314610721578063d547741f1461073f578063d56b72c71461075b578063d7a5791a14610777578063de6a06ed14610793578063e63ab1e9146107af5761027e565b8063ba111a0511610120578063ba111a0514610623578063bfb48c9c14610653578063c39cbef114610683578063c539c3171461069f578063ca15c873146106bb578063ce901d8a146106eb5761027e565b80639010d07c1461055957806391d148541461058957806392724afa146105b9578063a217fddf146105e9578063a22cb465146106075761027e565b806336568abe116101f55780635c975abb116101b95780635c975abb146104d15780636b20c454146104ef578063715018a61461050b578063731133e9146105155780638456cb59146105315780638da5cb5b1461053b5761027e565b806336568abe1461042f5780633f4ba83a1461044b5780634e1273f4146104555780634fe477d81461048557806351cff8d9146104b55761027e565b80631d5ad18b116102475780631d5ad18b1461035f5780631f7fdffa1461037b578063248a9ca3146103975780632eb2c2d6146103c75780632f2ff15d146103e357806335a8ae21146103ff5761027e565b8062fdd58e1461028357806301ffc9a7146102b357806306e320f5146102e35780630e89341c146102ff57806318892ae81461032f575b600080fd5b61029d60048036038101906102989190614339565b610889565b6040516102aa9190614d1d565b60405180910390f35b6102cd60048036038101906102c8919061457d565b6108e4565b6040516102da9190614ba5565b60405180910390f35b6102fd60048036038101906102f89190614697565b6108f6565b005b610319600480360381019061031491906145aa565b61099d565b6040516103269190614bdb565b60405180910390f35b610349600480360381019061034491906145aa565b610a31565b6040516103569190614a92565b60405180910390f35b61037960048036038101906103749190614617565b610a64565b005b6103956004803603810190610390919061423e565b610b39565b005b6103b160048036038101906103ac91906144d0565b610d84565b6040516103be9190614bc0565b60405180910390f35b6103e160048036038101906103dc919061404d565b610da4565b005b6103fd60048036038101906103f891906144fd565b610f7f565b005b610419600480360381019061041491906146f7565b610fb3565b6040516104269190614b31565b60405180910390f35b610449600480360381019061044491906144fd565b611015565b005b610453611049565b005b61046f600480360381019061046a919061444f565b6110c3565b60405161047c9190614b4c565b60405180910390f35b61049f600480360381019061049a91906146f7565b6111f3565b6040516104ac9190614d1d565b60405180910390f35b6104cf60048036038101906104ca9190613f25565b611400565b005b6104d96114c6565b6040516104e69190614ba5565b60405180910390f35b610509600480360381019061050491906141b3565b6114dd565b005b610513611727565b005b61052f600480360381019061052a91906143cc565b611861565b005b6105396119f0565b005b610543611a6a565b6040516105509190614a92565b60405180910390f35b610573600480360381019061056e919061453d565b611a93565b6040516105809190614a92565b60405180910390f35b6105a3600480360381019061059e91906144fd565b611ac2565b6040516105b09190614ba5565b60405180910390f35b6105d360048036038101906105ce9190614339565b611b2d565b6040516105e09190614d1d565b60405180910390f35b6105f1611b52565b6040516105fe9190614bc0565b60405180910390f35b610621600480360381019061061c91906142f9565b611b59565b005b61063d600480360381019061063891906145aa565b611c56565b60405161064a9190614d1d565b60405180910390f35b61066d600480360381019061066891906145d7565b611c79565b60405161067a9190614d1d565b60405180910390f35b61069d60048036038101906106989190614697565b611c9e565b005b6106b960048036038101906106b491906145aa565b611d45565b005b6106d560048036038101906106d091906144d0565b611dcb565b6040516106e29190614d1d565b60405180910390f35b610705600480360381019061070091906145aa565b611def565b6040516107189796959493929190614aad565b60405180910390f35b610729612006565b6040516107369190614bc0565b60405180910390f35b610759600480360381019061075491906144fd565b61202a565b005b61077560048036038101906107709190613f52565b61205e565b005b610791600480360381019061078c91906145aa565b61227a565b005b6107ad60048036038101906107a89190614697565b612300565b005b6107b76123a7565b6040516107c49190614bc0565b60405180910390f35b6107e760048036038101906107e2919061400d565b6123cb565b6040516107f49190614ba5565b60405180910390f35b61081760048036038101906108129190613f25565b61245f565b005b610833600480360381019061082e919061411c565b61252f565b005b61084f600480360381019061084a9190613ef8565b612682565b005b61086b60048036038101906108669190614379565b61282b565b005b61088760048036038101906108829190614657565b6129b9565b005b6000600a600083815260200190815260200160002060008473ffffffffffffffffffffffffffffffffffffffff1673ffffffffffffffffffffffffffffffffffffffff16815260200190815260200160002054905092915050565b60006108ef82612ab4565b9050919050565b826008600082815260200190815260200160002060009054906101000a900473ffffffffffffffffffffffffffffffffffffffff1673ffffffffffffffffffffffffffffffffffffffff163373ffffffffffffffffffffffffffffffffffffffff161461096257600080fd5b828260078681548110610978576109776152bf565b5b90600052602060002090600702016002019190610996929190613aaf565b5050505050565b6060601180546109ac90615157565b80601f01602080910402602001604051908101604052809291908181526020018280546109d890615157565b8015610a255780601f106109fa57610100808354040283529160200191610a25565b820191906000526020600020905b815481529060010190602001808311610a0857829003601f168201915b50505050509050919050565b60086020528060005260406000206000915054906101000a900473ffffffffffffffffffffffffffffffffffffffff1681565b816008600082815260200190815260200160002060009054906101000a900473ffffffffffffffffffffffffffffffffffffffff1673ffffffffffffffffffffffffffffffffffffffff163373ffffffffffffffffffffffffffffffffffffffff1614610ad057600080fd5b8160078481548110610ae557610ae46152bf565b5b906000526020600020906007020160000160006101000a81548173ffffffffffffffffffffffffffffffffffffffff021916908373ffffffffffffffffffffffffffffffffffffffff160217905550505050565b60005b8351811015610cfe57828181518110610b5857610b576152bf565b5b6020026020010151600a6000868481518110610b7757610b766152bf565b5b6020026020010151815260200190815260200160002060008773ffffffffffffffffffffffffffffffffffffffff1673ffffffffffffffffffffffffffffffffffffffff1681526020019081526020016000206000828254610bd99190614f34565b92505081905550828181518110610bf357610bf26152bf565b5b6020026020010151600b60008773ffffffffffffffffffffffffffffffffffffffff1673ffffffffffffffffffffffffffffffffffffffff1681526020019081526020016000206000868481518110610c4f57610c4e6152bf565b5b602002602001015181526020019081526020016000206000828254610c749190614f34565b92505081905550828181518110610c8e57610c8d6152bf565b5b60200260200101516007858381518110610cab57610caa6152bf565b5b602002602001015181548110610cc457610cc36152bf565b5b90600052602060002090600702016005016000828254610ce49190614f34565b925050819055508080610cf6906151ba565b915050610b3c565b508373ffffffffffffffffffffffffffffffffffffffff16600073ffffffffffffffffffffffffffffffffffffffff163373ffffffffffffffffffffffffffffffffffffffff167f4a39dc06d4c0dbc64b70af90fd698a233a518aa5d07e595d983b8c0526c8f7fb8686604051610d76929190614b6e565b60405180910390a450505050565b6000600d6000838152602001908152602001600020600101549050919050565b60005b8351811015610ef957828181518110610dc357610dc26152bf565b5b6020026020010151600a6000868481518110610de257610de16152bf565b5b6020026020010151815260200190815260200160002060008873ffffffffffffffffffffffffffffffffffffffff1673ffffffffffffffffffffffffffffffffffffffff1681526020019081526020016000206000828254610e449190615015565b92505081905550828181518110610e5e57610e5d6152bf565b5b6020026020010151600a6000868481518110610e7d57610e7c6152bf565b5b6020026020010151815260200190815260200160002060008773ffffffffffffffffffffffffffffffffffffffff1673ffffffffffffffffffffffffffffffffffffffff1681526020019081526020016000206000828254610edf9190614f34565b925050819055508080610ef1906151ba565b915050610da7565b508373ffffffffffffffffffffffffffffffffffffffff168573ffffffffffffffffffffffffffffffffffffffff163373ffffffffffffffffffffffffffffffffffffffff167f4a39dc06d4c0dbc64b70af90fd698a233a518aa5d07e595d983b8c0526c8f7fb8686604051610f70929190614b6e565b60405180910390a45050505050565b610f898282612b96565b610fae81600e6000858152602001908152602001600020612a8490919063ffffffff16565b505050565b610fbb613b35565b6000610fc784846111f3565b90506000610fd482611c56565b9050610fdf81612bbf565b60008183610fed9190614f34565b9050604051806060016040528084815260200183815260200182815250935050505092915050565b61101f8282612bf4565b61104481600e6000858152602001908152602001600020612c7790919063ffffffff16565b505050565b61107a7f65d7a28e3265b37a6474929f336521b332c1681b933f6cb9f3376673440d862a611075612ca7565b611ac2565b6110b9576040517f08c379a00000000000000000000000000000000000000000000000000000000081526004016110b090614cbd565b60405180910390fd5b6110c1612caf565b565b606060008585905067ffffffffffffffff8111156110e4576110e36152ee565b5b6040519080825280602002602001820160405280156111125781602001602082028036833780820191505090505b50905060005b868690508110156111e657600a600086868481811061113a576111396152bf565b5b9050602002013581526020019081526020016000206000888884818110611164576111636152bf565b5b90506020020160208101906111799190613ef8565b73ffffffffffffffffffffffffffffffffffffffff1673ffffffffffffffffffffffffffffffffffffffff168152602001908152602001600020548282815181106111c7576111c66152bf565b5b60200260200101818152505080806111de906151ba565b915050611118565b5080915050949350505050565b600080600090506000600785815481106112105761120f6152bf565b5b9060005260206000209060070201600501549050600084826112329190614f34565b905060078681548110611248576112476152bf565b5b9060005260206000209060070201600601548110156112a15761129a828660055460065460078b815481106112805761127f6152bf565b5b906000526020600020906007020160060154600454612d51565b92506113f4565b600786815481106112b5576112b46152bf565b5b9060005260206000209060070201600601548210156113e05761135c600787815481106112e5576112e46152bf565b5b906000526020600020906007020160060154836007898154811061130c5761130b6152bf565b5b9060005260206000209060070201600601546113289190615015565b60055460065460078b81548110611342576113416152bf565b5b906000526020600020906007020160060154600454612d51565b92506113ce60078781548110611375576113746152bf565b5b906000526020600020906007020160060154836007898154811061139c5761139b6152bf565b5b9060005260206000209060070201600601546113b89190615015565b876113c39190615015565b600554600654612dca565b836113d99190614f34565b92506113f3565b6113f08286600554600654612dca565b92505b5b82935050505092915050565b611408612ca7565b73ffffffffffffffffffffffffffffffffffffffff16611426611a6a565b73ffffffffffffffffffffffffffffffffffffffff161461147c576040517f08c379a000000000000000000000000000000000000000000000000000000000815260040161147390614c9d565b60405180910390fd5b8073ffffffffffffffffffffffffffffffffffffffff166108fc479081150290604051600060405180830381858888f193505050501580156114c2573d6000803e3d6000fd5b5050565b6000601260009054906101000a900460ff16905090565b60005b82518110156116a2578181815181106114fc576114fb6152bf565b5b6020026020010151600a600085848151811061151b5761151a6152bf565b5b6020026020010151815260200190815260200160002060008673ffffffffffffffffffffffffffffffffffffffff1673ffffffffffffffffffffffffffffffffffffffff168152602001908152602001600020600082825461157d9190615015565b92505081905550818181518110611597576115966152bf565b5b6020026020010151600b60008673ffffffffffffffffffffffffffffffffffffffff1673ffffffffffffffffffffffffffffffffffffffff16815260200190815260200160002060008584815181106115f3576115f26152bf565b5b6020026020010151815260200190815260200160002060008282546116189190615015565b92505081905550818181518110611632576116316152bf565b5b6020026020010151600784838151811061164f5761164e6152bf565b5b602002602001015181548110611668576116676152bf565b5b906000526020600020906007020160050160008282546116889190615015565b92505081905550808061169a906151ba565b9150506114e0565b50600073ffffffffffffffffffffffffffffffffffffffff168373ffffffffffffffffffffffffffffffffffffffff163373ffffffffffffffffffffffffffffffffffffffff167f4a39dc06d4c0dbc64b70af90fd698a233a518aa5d07e595d983b8c0526c8f7fb858560405161171a929190614b6e565b60405180910390a4505050565b61172f612ca7565b73ffffffffffffffffffffffffffffffffffffffff1661174d611a6a565b73ffffffffffffffffffffffffffffffffffffffff16146117a3576040517f08c379a000000000000000000000000000000000000000000000000000000000815260040161179a90614c9d565b60405180910390fd5b600073ffffffffffffffffffffffffffffffffffffffff1660008054906101000a900473ffffffffffffffffffffffffffffffffffffffff1673ffffffffffffffffffffffffffffffffffffffff167f8be0079c531659141344cd1fd0a4f28419497f9722a3daafe3b4186f6b6457e060405160405180910390a360008060006101000a81548173ffffffffffffffffffffffffffffffffffffffff021916908373ffffffffffffffffffffffffffffffffffffffff160217905550565b81600a600085815260200190815260200160002060008673ffffffffffffffffffffffffffffffffffffffff1673ffffffffffffffffffffffffffffffffffffffff16815260200190815260200160002060008282546118c19190614f34565b9250508190555081600b60008673ffffffffffffffffffffffffffffffffffffffff1673ffffffffffffffffffffffffffffffffffffffff168152602001908152602001600020600085815260200190815260200160002060008282546119289190614f34565b925050819055508160078481548110611944576119436152bf565b5b906000526020600020906007020160050160008282546119649190614f34565b925050819055508373ffffffffffffffffffffffffffffffffffffffff16600073ffffffffffffffffffffffffffffffffffffffff163373ffffffffffffffffffffffffffffffffffffffff167fc3d58168c5ae7397731d063d5bbf3d657854427343f4c083240f7aacaa2d0f6286866040516119e2929190614dcb565b60405180910390a450505050565b611a217f65d7a28e3265b37a6474929f336521b332c1681b933f6cb9f3376673440d862a611a1c612ca7565b611ac2565b611a60576040517f08c379a0000000000000000000000000000000000000000000000000000000008152600401611a5790614cdd565b60405180910390fd5b611a68612e58565b565b60008060009054906101000a900473ffffffffffffffffffffffffffffffffffffffff16905090565b6000611aba82600e6000868152602001908152602001600020612efb90919063ffffffff16565b905092915050565b6000600d600084815260200190815260200160002060000160008373ffffffffffffffffffffffffffffffffffffffff1673ffffffffffffffffffffffffffffffffffffffff16815260200190815260200160002060009054906101000a900460ff16905092915050565b600b602052816000526040600020602052806000526040600020600091509150505481565b6000801b81565b80600c60003373ffffffffffffffffffffffffffffffffffffffff1673ffffffffffffffffffffffffffffffffffffffff16815260200190815260200160002060008473ffffffffffffffffffffffffffffffffffffffff1673ffffffffffffffffffffffffffffffffffffffff16815260200190815260200160002060006101000a81548160ff0219169083151502179055508173ffffffffffffffffffffffffffffffffffffffff163373ffffffffffffffffffffffffffffffffffffffff167f17307eab39ab6107e8899845ad3d59bd9653f200f220920489ca2b5937696c3183604051611c4a9190614ba5565b60405180910390a35050565b6000606460015483611c689190614fbb565b611c729190614f8a565b9050919050565b600a602052816000526040600020602052806000526040600020600091509150505481565b826008600082815260200190815260200160002060009054906101000a900473ffffffffffffffffffffffffffffffffffffffff1673ffffffffffffffffffffffffffffffffffffffff163373ffffffffffffffffffffffffffffffffffffffff1614611d0a57600080fd5b828260078681548110611d2057611d1f6152bf565b5b90600052602060002090600702016001019190611d3e929190613aaf565b5050505050565b611d4d612ca7565b73ffffffffffffffffffffffffffffffffffffffff16611d6b611a6a565b73ffffffffffffffffffffffffffffffffffffffff1614611dc1576040517f08c379a0000000000000000000000000000000000000000000000000000000008152600401611db890614c9d565b60405180910390fd5b8060048190555050565b6000611de8600e6000848152602001908152602001600020612f15565b9050919050565b60078181548110611dff57600080fd5b90600052602060002090600702016000915090508060000160009054906101000a900473ffffffffffffffffffffffffffffffffffffffff1690806001018054611e4890615157565b80601f0160208091040260200160405190810160405280929190818152602001828054611e7490615157565b8015611ec15780601f10611e9657610100808354040283529160200191611ec1565b820191906000526020600020905b815481529060010190602001808311611ea457829003601f168201915b505050505090806002018054611ed690615157565b80601f0160208091040260200160405190810160405280929190818152602001828054611f0290615157565b8015611f4f5780601f10611f2457610100808354040283529160200191611f4f565b820191906000526020600020905b815481529060010190602001808311611f3257829003601f168201915b505050505090806003018054611f6490615157565b80601f0160208091040260200160405190810160405280929190818152602001828054611f9090615157565b8015611fdd5780601f10611fb257610100808354040283529160200191611fdd565b820191906000526020600020905b815481529060010190602001808311611fc057829003601f168201915b5050505050908060040160009054906101000a900460ff16908060050154908060060154905087565b7f9f2df0fed2c77648de5860a4cc508cd0818c85b8b8a1ab4ceeef8d981c8956a681565b6120348282612f2a565b61205981600e6000858152602001908152602001600020612c7790919063ffffffff16565b505050565b60076040518060e001604052808673ffffffffffffffffffffffffffffffffffffffff168152602001858152602001848152602001838152602001600015158152602001600081526020016000815250908060018154018082558091505060019003906000526020600020906007020160009091909190915060008201518160000160006101000a81548173ffffffffffffffffffffffffffffffffffffffff021916908373ffffffffffffffffffffffffffffffffffffffff160217905550602082015181600101908051906020019061213a929190613b57565b506040820151816002019080519060200190612157929190613b57565b506060820151816003019080519060200190612174929190613b57565b5060808201518160040160006101000a81548160ff02191690831515021790555060a0820151816005015560c082015181600601555050600060016007805490506121bf9190615015565b9050846008600083815260200190815260200160002060006101000a81548173ffffffffffffffffffffffffffffffffffffffff021916908373ffffffffffffffffffffffffffffffffffffffff160217905550600060096000838152602001908152602001600020819055507f3ef624c0f3fb7ad40b94c02078ea3e3a797dbfc21e921ee4bd2b8ad0ca6aa1138186868686600080600060405161226b989796959493929190614d38565b60405180910390a15050505050565b612282612ca7565b73ffffffffffffffffffffffffffffffffffffffff166122a0611a6a565b73ffffffffffffffffffffffffffffffffffffffff16146122f6576040517f08c379a00000000000000000000000000000000000000000000000000000000081526004016122ed90614c9d565b60405180910390fd5b8060018190555050565b826008600082815260200190815260200160002060009054906101000a900473ffffffffffffffffffffffffffffffffffffffff1673ffffffffffffffffffffffffffffffffffffffff163373ffffffffffffffffffffffffffffffffffffffff161461236c57600080fd5b828260078681548110612382576123816152bf565b5b906000526020600020906007020160030191906123a0929190613aaf565b5050505050565b7f65d7a28e3265b37a6474929f336521b332c1681b933f6cb9f3376673440d862a81565b6000600c60008473ffffffffffffffffffffffffffffffffffffffff1673ffffffffffffffffffffffffffffffffffffffff16815260200190815260200160002060008373ffffffffffffffffffffffffffffffffffffffff1673ffffffffffffffffffffffffffffffffffffffff16815260200190815260200160002060009054906101000a900460ff16905092915050565b612467612ca7565b73ffffffffffffffffffffffffffffffffffffffff16612485611a6a565b73ffffffffffffffffffffffffffffffffffffffff16146124db576040517f08c379a00000000000000000000000000000000000000000000000000000000081526004016124d290614c9d565b60405180910390fd5b8073ffffffffffffffffffffffffffffffffffffffff166108fc6003549081150290604051600060405180830381858888f19350505050158015612523573d6000803e3d6000fd5b50600060038190555050565b81600a600085815260200190815260200160002060008773ffffffffffffffffffffffffffffffffffffffff1673ffffffffffffffffffffffffffffffffffffffff168152602001908152602001600020600082825461258f9190615015565b9250508190555081600a600085815260200190815260200160002060008673ffffffffffffffffffffffffffffffffffffffff1673ffffffffffffffffffffffffffffffffffffffff16815260200190815260200160002060008282546125f69190614f34565b925050819055508373ffffffffffffffffffffffffffffffffffffffff168573ffffffffffffffffffffffffffffffffffffffff163373ffffffffffffffffffffffffffffffffffffffff167fc3d58168c5ae7397731d063d5bbf3d657854427343f4c083240f7aacaa2d0f628686604051612673929190614dcb565b60405180910390a45050505050565b61268a612ca7565b73ffffffffffffffffffffffffffffffffffffffff166126a8611a6a565b73ffffffffffffffffffffffffffffffffffffffff16146126fe576040517f08c379a00000000000000000000000000000000000000000000000000000000081526004016126f590614c9d565b60405180910390fd5b600073ffffffffffffffffffffffffffffffffffffffff168173ffffffffffffffffffffffffffffffffffffffff16141561276e576040517f08c379a000000000000000000000000000000000000000000000000000000000815260040161276590614c5d565b60405180910390fd5b8073ffffffffffffffffffffffffffffffffffffffff1660008054906101000a900473ffffffffffffffffffffffffffffffffffffffff1673ffffffffffffffffffffffffffffffffffffffff167f8be0079c531659141344cd1fd0a4f28419497f9722a3daafe3b4186f6b6457e060405160405180910390a3806000806101000a81548173ffffffffffffffffffffffffffffffffffffffff021916908373ffffffffffffffffffffffffffffffffffffffff16021790555050565b80600a600084815260200190815260200160002060008573ffffffffffffffffffffffffffffffffffffffff1673ffffffffffffffffffffffffffffffffffffffff168152602001908152602001600020600082825461288b9190615015565b9250508190555080600b60008573ffffffffffffffffffffffffffffffffffffffff1673ffffffffffffffffffffffffffffffffffffffff168152602001908152602001600020600084815260200190815260200160002060008282546128f29190615015565b92505081905550806007838154811061290e5761290d6152bf565b5b9060005260206000209060070201600501600082825461292e9190615015565b92505081905550600073ffffffffffffffffffffffffffffffffffffffff168373ffffffffffffffffffffffffffffffffffffffff163373ffffffffffffffffffffffffffffffffffffffff167fc3d58168c5ae7397731d063d5bbf3d657854427343f4c083240f7aacaa2d0f6285856040516129ac929190614dcb565b60405180910390a4505050565b6129c1612ca7565b73ffffffffffffffffffffffffffffffffffffffff166129df611a6a565b73ffffffffffffffffffffffffffffffffffffffff1614612a35576040517f08c379a0000000000000000000000000000000000000000000000000000000008152600401612a2c90614c9d565b60405180910390fd5b8060078381548110612a4a57612a496152bf565b5b906000526020600020906007020160040160006101000a81548160ff0219169083151502179055505050565b612a808282612f53565b5050565b6000612aac836000018373ffffffffffffffffffffffffffffffffffffffff1660001b613034565b905092915050565b60007fd9b67a26000000000000000000000000000000000000000000000000000000007bffffffffffffffffffffffffffffffffffffffffffffffffffffffff1916827bffffffffffffffffffffffffffffffffffffffffffffffffffffffff19161480612b7f57507f0e89341c000000000000000000000000000000000000000000000000000000007bffffffffffffffffffffffffffffffffffffffffffffffffffffffff1916827bffffffffffffffffffffffffffffffffffffffffffffffffffffffff1916145b80612b8f5750612b8e826130a4565b5b9050919050565b612b9f82610d84565b612bb081612bab612ca7565b61311e565b612bba8383612f53565b505050565b8060026000828254612bd19190614f34565b925050819055508060036000828254612bea9190614f34565b9250508190555050565b612bfc612ca7565b73ffffffffffffffffffffffffffffffffffffffff168173ffffffffffffffffffffffffffffffffffffffff1614612c69576040517f08c379a0000000000000000000000000000000000000000000000000000000008152600401612c6090614cfd565b60405180910390fd5b612c7382826131bb565b5050565b6000612c9f836000018373ffffffffffffffffffffffffffffffffffffffff1660001b61329d565b905092915050565b600033905090565b612cb76114c6565b612cf6576040517f08c379a0000000000000000000000000000000000000000000000000000000008152600401612ced90614c3d565b60405180910390fd5b6000601260006101000a81548160ff0219169083151502179055507f5db9ee0a495bf2e6ff9c91a7834c1ba4fdd244a5e8aa4e537bd38aeae4b073aa612d3a612ca7565b604051612d479190614a92565b60405180910390a1565b600080600080612d658a8a8a8a8a8a6133a9565b9250925092506000838b1015612d8857612d8184848d85613424565b9050612db9565b83821015612da657612d9f84848d858d8d8d6134c7565b9050612db8565b612db584848d858d8d8d6135e9565b90505b5b809450505050509695505050505050565b6000808486612dd99190614f34565b90506000838786612dea9190614fbb565b612df49190614f8a565b90506000848387612e059190614fbb565b612e0f9190614f8a565b905060008884612e1f9190615015565b905060006002828486612e329190614f34565b612e3c9190614fbb565b612e469190614f8a565b90508095505050505050949350505050565b612e606114c6565b15612ea0576040517f08c379a0000000000000000000000000000000000000000000000000000000008152600401612e9790614c7d565b60405180910390fd5b6001601260006101000a81548160ff0219169083151502179055507f62e78cea01bee320cd4e420270b5ea74000d11b0c9f74754ebdbfc544b05a258612ee4612ca7565b604051612ef19190614a92565b60405180910390a1565b6000612f0a83600001836136e7565b60001c905092915050565b6000612f238260000161375b565b9050919050565b612f3382610d84565b612f4481612f3f612ca7565b61311e565b612f4e83836131bb565b505050565b612f5d8282611ac2565b613030576001600d600084815260200190815260200160002060000160008373ffffffffffffffffffffffffffffffffffffffff1673ffffffffffffffffffffffffffffffffffffffff16815260200190815260200160002060006101000a81548160ff021916908315150217905550612fd5612ca7565b73ffffffffffffffffffffffffffffffffffffffff168173ffffffffffffffffffffffffffffffffffffffff16837f2f8788117e7eff1d82e926ec794901d17c78024a50270940304540a733656f0d60405160405180910390a45b5050565b6000613040838361376c565b61309957826000018290806001815401808255809150506001900390600052602060002001600090919091909150558260000180549050836001016000848152602001908152602001600020819055506001905061309e565b600090505b92915050565b60007f5a05180f000000000000000000000000000000000000000000000000000000007bffffffffffffffffffffffffffffffffffffffffffffffffffffffff1916827bffffffffffffffffffffffffffffffffffffffffffffffffffffffff1916148061311757506131168261378f565b5b9050919050565b6131288282611ac2565b6131b75761314d8173ffffffffffffffffffffffffffffffffffffffff166014613809565b61315b8360001c6020613809565b60405160200161316c929190614a58565b6040516020818303038152906040526040517f08c379a00000000000000000000000000000000000000000000000000000000081526004016131ae9190614bdb565b60405180910390fd5b5050565b6131c58282611ac2565b15613299576000600d600084815260200190815260200160002060000160008373ffffffffffffffffffffffffffffffffffffffff1673ffffffffffffffffffffffffffffffffffffffff16815260200190815260200160002060006101000a81548160ff02191690831515021790555061323e612ca7565b73ffffffffffffffffffffffffffffffffffffffff168173ffffffffffffffffffffffffffffffffffffffff16837ff6391f5c32d9c69d2a47ea670b442974b53935d1edc7fd64eb21e047a839171b60405160405180910390a45b5050565b6000808360010160008481526020019081526020016000205490506000811461339d5760006001826132cf9190615015565b90506000600186600001805490506132e79190615015565b90506000866000018281548110613301576133006152bf565b5b9060005260206000200154905080876000018481548110613325576133246152bf565b5b906000526020600020018190555083876001016000838152602001908152602001600020819055508660000180548061336157613360615290565b5b600190038181906000526020600020016000905590558660010160008781526020019081526020016000206000905560019450505050506133a3565b60009150505b92915050565b6000806000806002866133bc9190614f8a565b90506000878960648860326133d19190615015565b8a6133dc9190614fbb565b6133e69190614f8a565b6133f09190614fbb565b6133fa9190614f8a565b905060008a8c61340a9190615015565b905082828295509550955050505096509650969350505050565b60008082866134339190615015565b868661343f9190614f8a565b6134499190614fbb565b856134549190615015565b9050600084876134649190615015565b87876134709190614f8a565b61347a9190614fbb565b866134859190615015565b9050600084866134959190615015565b905060028183856134a69190614f34565b6134b09190614fbb565b6134ba9190614f8a565b9350505050949350505050565b60008085896134d69190615015565b89896134e29190614f8a565b6134ec9190614fbb565b886134f79190615015565b905060008890506000878b61350c9190615015565b90506000600282848661351f9190614f34565b6135299190614fbb565b6135339190614f8a565b905060008b8d8c6135449190615015565b8e896135509190615015565b8e8b8b8e61355e9190614fbb565b6135689190614f8a565b6135729190615015565b61357c9190614f8a565b6135869190614fbb565b6135909190614f34565b905060008d8c6135a09190615015565b9050600060028284886135b39190614f34565b6135bd9190614fbb565b6135c79190614f8a565b905080846135d59190614f34565b975050505050505050979650505050505050565b6000808789876135f99190615015565b8a856136059190615015565b8a87878a6136139190614fbb565b61361d9190614f8a565b6136279190615015565b6136319190614f8a565b61363b9190614fbb565b6136459190614f34565b90506000888a896136569190615015565b8b866136629190615015565b8b88888b6136709190614fbb565b61367a9190614f8a565b6136849190615015565b61368e9190614f8a565b6136989190614fbb565b6136a29190614f34565b9050600087896136b29190615015565b905060028183856136c39190614f34565b6136cd9190614fbb565b6136d79190614f8a565b9350505050979650505050505050565b600081836000018054905011613732576040517f08c379a000000000000000000000000000000000000000000000000000000000815260040161372990614bfd565b60405180910390fd5b826000018281548110613748576137476152bf565b5b9060005260206000200154905092915050565b600081600001805490509050919050565b600080836001016000848152602001908152602001600020541415905092915050565b60007f7965db0b000000000000000000000000000000000000000000000000000000007bffffffffffffffffffffffffffffffffffffffffffffffffffffffff1916827bffffffffffffffffffffffffffffffffffffffffffffffffffffffff19161480613802575061380182613a45565b5b9050919050565b60606000600283600261381c9190614fbb565b6138269190614f34565b67ffffffffffffffff81111561383f5761383e6152ee565b5b6040519080825280601f01601f1916602001820160405280156138715781602001600182028036833780820191505090505b5090507f3000000000000000000000000000000000000000000000000000000000000000816000815181106138a9576138a86152bf565b5b60200101907effffffffffffffffffffffffffffffffffffffffffffffffffffffffffffff1916908160001a9053507f78000000000000000000000000000000000000000000000000000000000000008160018151811061390d5761390c6152bf565b5b60200101907effffffffffffffffffffffffffffffffffffffffffffffffffffffffffffff1916908160001a9053506000600184600261394d9190614fbb565b6139579190614f34565b90505b60018111156139f7577f3031323334353637383961626364656600000000000000000000000000000000600f861660108110613999576139986152bf565b5b1a60f81b8282815181106139b0576139af6152bf565b5b60200101907effffffffffffffffffffffffffffffffffffffffffffffffffffffffffffff1916908160001a905350600485901c9450806139f09061512d565b905061395a565b5060008414613a3b576040517f08c379a0000000000000000000000000000000000000000000000000000000008152600401613a3290614c1d565b60405180910390fd5b8091505092915050565b60007f01ffc9a7000000000000000000000000000000000000000000000000000000007bffffffffffffffffffffffffffffffffffffffffffffffffffffffff1916827bffffffffffffffffffffffffffffffffffffffffffffffffffffffff1916149050919050565b828054613abb90615157565b90600052602060002090601f016020900481019282613add5760008555613b24565b82601f10613af657803560ff1916838001178555613b24565b82800160010185558215613b24579182015b82811115613b23578235825591602001919060010190613b08565b5b509050613b319190613bdd565b5090565b6040518060600160405280600390602082028036833780820191505090505090565b828054613b6390615157565b90600052602060002090601f016020900481019282613b855760008555613bcc565b82601f10613b9e57805160ff1916838001178555613bcc565b82800160010185558215613bcc579182015b82811115613bcb578251825591602001919060010190613bb0565b5b509050613bd99190613bdd565b5090565b5b80821115613bf6576000816000905550600101613bde565b5090565b6000613c0d613c0884614e19565b614df4565b90508083825260208201905082856020860282011115613c3057613c2f615327565b5b60005b85811015613c605781613c468882613ee3565b845260208401935060208301925050600181019050613c33565b5050509392505050565b6000613c7d613c7884614e45565b614df4565b905082815260208101848484011115613c9957613c9861532c565b5b613ca48482856150eb565b509392505050565b6000613cbf613cba84614e76565b614df4565b905082815260208101848484011115613cdb57613cda61532c565b5b613ce68482856150eb565b509392505050565b600081359050613cfd816155cd565b92915050565b600081359050613d12816155e4565b92915050565b60008083601f840112613d2e57613d2d615322565b5b8235905067ffffffffffffffff811115613d4b57613d4a61531d565b5b602083019150836020820283011115613d6757613d66615327565b5b9250929050565b60008083601f840112613d8457613d83615322565b5b8235905067ffffffffffffffff811115613da157613da061531d565b5b602083019150836020820283011115613dbd57613dbc615327565b5b9250929050565b600082601f830112613dd957613dd8615322565b5b8135613de9848260208601613bfa565b91505092915050565b600081359050613e01816155fb565b92915050565b600081359050613e1681615612565b92915050565b600081359050613e2b81615629565b92915050565b600082601f830112613e4657613e45615322565b5b8135613e56848260208601613c6a565b91505092915050565b60008083601f840112613e7557613e74615322565b5b8235905067ffffffffffffffff811115613e9257613e9161531d565b5b602083019150836001820283011115613eae57613ead615327565b5b9250929050565b600082601f830112613eca57613ec9615322565b5b8135613eda848260208601613cac565b91505092915050565b600081359050613ef281615640565b92915050565b600060208284031215613f0e57613f0d615336565b5b6000613f1c84828501613cee565b91505092915050565b600060208284031215613f3b57613f3a615336565b5b6000613f4984828501613d03565b91505092915050565b60008060008060808587031215613f6c57613f6b615336565b5b6000613f7a87828801613d03565b945050602085013567ffffffffffffffff811115613f9b57613f9a615331565b5b613fa787828801613eb5565b935050604085013567ffffffffffffffff811115613fc857613fc7615331565b5b613fd487828801613eb5565b925050606085013567ffffffffffffffff811115613ff557613ff4615331565b5b61400187828801613eb5565b91505092959194509250565b6000806040838503121561402457614023615336565b5b600061403285828601613cee565b925050602061404385828601613cee565b9150509250929050565b600080600080600060a0868803121561406957614068615336565b5b600061407788828901613cee565b955050602061408888828901613cee565b945050604086013567ffffffffffffffff8111156140a9576140a8615331565b5b6140b588828901613dc4565b935050606086013567ffffffffffffffff8111156140d6576140d5615331565b5b6140e288828901613dc4565b925050608086013567ffffffffffffffff81111561410357614102615331565b5b61410f88828901613e31565b9150509295509295909350565b600080600080600060a0868803121561413857614137615336565b5b600061414688828901613cee565b955050602061415788828901613cee565b945050604061416888828901613ee3565b935050606061417988828901613ee3565b925050608086013567ffffffffffffffff81111561419a57614199615331565b5b6141a688828901613e31565b9150509295509295909350565b6000806000606084860312156141cc576141cb615336565b5b60006141da86828701613cee565b935050602084013567ffffffffffffffff8111156141fb576141fa615331565b5b61420786828701613dc4565b925050604084013567ffffffffffffffff81111561422857614227615331565b5b61423486828701613dc4565b9150509250925092565b6000806000806080858703121561425857614257615336565b5b600061426687828801613cee565b945050602085013567ffffffffffffffff81111561428757614286615331565b5b61429387828801613dc4565b935050604085013567ffffffffffffffff8111156142b4576142b3615331565b5b6142c087828801613dc4565b925050606085013567ffffffffffffffff8111156142e1576142e0615331565b5b6142ed87828801613e31565b91505092959194509250565b600080604083850312156143105761430f615336565b5b600061431e85828601613cee565b925050602061432f85828601613df2565b9150509250929050565b600080604083850312156143505761434f615336565b5b600061435e85828601613cee565b925050602061436f85828601613ee3565b9150509250929050565b60008060006060848603121561439257614391615336565b5b60006143a086828701613cee565b93505060206143b186828701613ee3565b92505060406143c286828701613ee3565b9150509250925092565b600080600080608085870312156143e6576143e5615336565b5b60006143f487828801613cee565b945050602061440587828801613ee3565b935050604061441687828801613ee3565b925050606085013567ffffffffffffffff81111561443757614436615331565b5b61444387828801613e31565b91505092959194509250565b6000806000806040858703121561446957614468615336565b5b600085013567ffffffffffffffff81111561448757614486615331565b5b61449387828801613d18565b9450945050602085013567ffffffffffffffff8111156144b6576144b5615331565b5b6144c287828801613d6e565b925092505092959194509250565b6000602082840312156144e6576144e5615336565b5b60006144f484828501613e07565b91505092915050565b6000806040838503121561451457614513615336565b5b600061452285828601613e07565b925050602061453385828601613cee565b9150509250929050565b6000806040838503121561455457614553615336565b5b600061456285828601613e07565b925050602061457385828601613ee3565b9150509250929050565b60006020828403121561459357614592615336565b5b60006145a184828501613e1c565b91505092915050565b6000602082840312156145c0576145bf615336565b5b60006145ce84828501613ee3565b91505092915050565b600080604083850312156145ee576145ed615336565b5b60006145fc85828601613ee3565b925050602061460d85828601613cee565b9150509250929050565b6000806040838503121561462e5761462d615336565b5b600061463c85828601613ee3565b925050602061464d85828601613d03565b9150509250929050565b6000806040838503121561466e5761466d615336565b5b600061467c85828601613ee3565b925050602061468d85828601613df2565b9150509250929050565b6000806000604084860312156146b0576146af615336565b5b60006146be86828701613ee3565b935050602084013567ffffffffffffffff8111156146df576146de615331565b5b6146eb86828701613e5f565b92509250509250925092565b6000806040838503121561470e5761470d615336565b5b600061471c85828601613ee3565b925050602061472d85828601613ee3565b9150509250929050565b60006147438383614a3a565b60208301905092915050565b6147588161505b565b82525050565b61476781615049565b82525050565b61477681614ec1565b6147808184614efc565b925061478b82614ea7565b8060005b838110156147bc5781516147a38782614737565b96506147ae83614ee2565b92505060018101905061478f565b505050505050565b60006147cf82614ecc565b6147d98185614f07565b93506147e483614eb1565b8060005b838110156148155781516147fc8882614737565b975061480783614eef565b9250506001810190506147e8565b5085935050505092915050565b61482b8161506d565b82525050565b61483a81615079565b82525050565b614849816150d9565b82525050565b600061485a82614ed7565b6148648185614f18565b93506148748185602086016150fa565b61487d8161533b565b840191505092915050565b600061489382614ed7565b61489d8185614f29565b93506148ad8185602086016150fa565b80840191505092915050565b60006148c6602283614f18565b91506148d18261534c565b604082019050919050565b60006148e9602083614f18565b91506148f48261539b565b602082019050919050565b600061490c601483614f18565b9150614917826153c4565b602082019050919050565b600061492f602683614f18565b915061493a826153ed565b604082019050919050565b6000614952601083614f18565b915061495d8261543c565b602082019050919050565b6000614975602083614f18565b915061498082615465565b602082019050919050565b6000614998603b83614f18565b91506149a38261548e565b604082019050919050565b60006149bb603983614f18565b91506149c6826154dd565b604082019050919050565b60006149de601783614f29565b91506149e98261552c565b601782019050919050565b6000614a01601183614f29565b9150614a0c82615555565b601182019050919050565b6000614a24602f83614f18565b9150614a2f8261557e565b604082019050919050565b614a43816150cf565b82525050565b614a52816150cf565b82525050565b6000614a63826149d1565b9150614a6f8285614888565b9150614a7a826149f4565b9150614a868284614888565b91508190509392505050565b6000602082019050614aa7600083018461475e565b92915050565b600060e082019050614ac2600083018a61474f565b8181036020830152614ad4818961484f565b90508181036040830152614ae8818861484f565b90508181036060830152614afc818761484f565b9050614b0b6080830186614822565b614b1860a0830185614a49565b614b2560c0830184614a49565b98975050505050505050565b6000606082019050614b46600083018461476d565b92915050565b60006020820190508181036000830152614b6681846147c4565b905092915050565b60006040820190508181036000830152614b8881856147c4565b90508181036020830152614b9c81846147c4565b90509392505050565b6000602082019050614bba6000830184614822565b92915050565b6000602082019050614bd56000830184614831565b92915050565b60006020820190508181036000830152614bf5818461484f565b905092915050565b60006020820190508181036000830152614c16816148b9565b9050919050565b60006020820190508181036000830152614c36816148dc565b9050919050565b60006020820190508181036000830152614c56816148ff565b9050919050565b60006020820190508181036000830152614c7681614922565b9050919050565b60006020820190508181036000830152614c9681614945565b9050919050565b60006020820190508181036000830152614cb681614968565b9050919050565b60006020820190508181036000830152614cd68161498b565b9050919050565b60006020820190508181036000830152614cf6816149ae565b9050919050565b60006020820190508181036000830152614d1681614a17565b9050919050565b6000602082019050614d326000830184614a49565b92915050565b600061010082019050614d4e600083018b614a49565b614d5b602083018a61474f565b8181036040830152614d6d818961484f565b90508181036060830152614d81818861484f565b90508181036080830152614d95818761484f565b9050614da460a0830186614822565b614db160c0830185614840565b614dbe60e0830184614840565b9998505050505050505050565b6000604082019050614de06000830185614a49565b614ded6020830184614a49565b9392505050565b6000614dfe614e0f565b9050614e0a8282615189565b919050565b6000604051905090565b600067ffffffffffffffff821115614e3457614e336152ee565b5b602082029050602081019050919050565b600067ffffffffffffffff821115614e6057614e5f6152ee565b5b614e698261533b565b9050602081019050919050565b600067ffffffffffffffff821115614e9157614e906152ee565b5b614e9a8261533b565b9050602081019050919050565b6000819050919050565b6000819050602082019050919050565b600060039050919050565b600081519050919050565b600081519050919050565b6000602082019050919050565b6000602082019050919050565b600081905092915050565b600082825260208201905092915050565b600082825260208201905092915050565b600081905092915050565b6000614f3f826150cf565b9150614f4a836150cf565b9250827fffffffffffffffffffffffffffffffffffffffffffffffffffffffffffffffff03821115614f7f57614f7e615203565b5b828201905092915050565b6000614f95826150cf565b9150614fa0836150cf565b925082614fb057614faf615232565b5b828204905092915050565b6000614fc6826150cf565b9150614fd1836150cf565b9250817fffffffffffffffffffffffffffffffffffffffffffffffffffffffffffffffff048311821515161561500a57615009615203565b5b828202905092915050565b6000615020826150cf565b915061502b836150cf565b92508282101561503e5761503d615203565b5b828203905092915050565b6000615054826150af565b9050919050565b6000615066826150af565b9050919050565b60008115159050919050565b6000819050919050565b60007fffffffff0000000000000000000000000000000000000000000000000000000082169050919050565b600073ffffffffffffffffffffffffffffffffffffffff82169050919050565b6000819050919050565b60006150e4826150cf565b9050919050565b82818337600083830152505050565b60005b838110156151185780820151818401526020810190506150fd565b83811115615127576000848401525b50505050565b6000615138826150cf565b9150600082141561514c5761514b615203565b5b600182039050919050565b6000600282049050600182168061516f57607f821691505b6020821081141561518357615182615261565b5b50919050565b6151928261533b565b810181811067ffffffffffffffff821117156151b1576151b06152ee565b5b80604052505050565b60006151c5826150cf565b91507fffffffffffffffffffffffffffffffffffffffffffffffffffffffffffffffff8214156151f8576151f7615203565b5b600182019050919050565b7f4e487b7100000000000000000000000000000000000000000000000000000000600052601160045260246000fd5b7f4e487b7100000000000000000000000000000000000000000000000000000000600052601260045260246000fd5b7f4e487b7100000000000000000000000000000000000000000000000000000000600052602260045260246000fd5b7f4e487b7100000000000000000000000000000000000000000000000000000000600052603160045260246000fd5b7f4e487b7100000000000000000000000000000000000000000000000000000000600052603260045260246000fd5b7f4e487b7100000000000000000000000000000000000000000000000000000000600052604160045260246000fd5b600080fd5b600080fd5b600080fd5b600080fd5b600080fd5b600080fd5b6000601f19601f8301169050919050565b7f456e756d657261626c655365743a20696e646578206f7574206f6620626f756e60008201527f6473000000000000000000000000000000000000000000000000000000000000602082015250565b7f537472696e67733a20686578206c656e67746820696e73756666696369656e74600082015250565b7f5061757361626c653a206e6f7420706175736564000000000000000000000000600082015250565b7f4f776e61626c653a206e6577206f776e657220697320746865207a65726f206160008201527f6464726573730000000000000000000000000000000000000000000000000000602082015250565b7f5061757361626c653a2070617573656400000000000000000000000000000000600082015250565b7f4f776e61626c653a2063616c6c6572206973206e6f7420746865206f776e6572600082015250565b7f455243313135355072657365744d696e7465725061757365723a206d7573742060008201527f686176652070617573657220726f6c6520746f20756e70617573650000000000602082015250565b7f455243313135355072657365744d696e7465725061757365723a206d7573742060008201527f686176652070617573657220726f6c6520746f20706175736500000000000000602082015250565b7f416363657373436f6e74726f6c3a206163636f756e7420000000000000000000600082015250565b7f206973206d697373696e6720726f6c6520000000000000000000000000000000600082015250565b7f416363657373436f6e74726f6c3a2063616e206f6e6c792072656e6f756e636560008201527f20726f6c657320666f722073656c660000000000000000000000000000000000602082015250565b6155d681615049565b81146155e157600080fd5b50565b6155ed8161505b565b81146155f857600080fd5b50565b6156048161506d565b811461560f57600080fd5b50565b61561b81615079565b811461562657600080fd5b50565b61563281615083565b811461563d57600080fd5b50565b615649816150cf565b811461565457600080fd5b5056fea2646970667358221220cec2818226b595c3041f183c1d51e6d99b43db4c554018889a079b88e87a8ef364736f6c63430008060033",
  "immutableReferences": {},
  "source": "// SPDX-License-Identifier: MIT\npragma solidity ^0.8.0;\n\nimport \"./creatortokenownership.sol\";\n\ncontract CreatorTokenComputation is CreatorTokenOwnership {\n\n\tconstructor(string memory uri) CreatorTokenOwnership(uri) { }\n\n\t// Calculate total transaction proceeds\n\tfunction _totalProceeds(uint _tokenId, uint _amount) public returns (uint256[3] memory) {\n\t\t// Compute proceedsRequired (ex-fees)\n\t\tuint proceedsRequired = _buyProceeds(_tokenId, _amount);\n\t\t// Compute feeRequired\n\t\tuint feeRequired = _feeProceeds(proceedsRequired);\n\t\t// Update platform fee total\n\t\t_platformFeeUpdater(feeRequired);\n\t\t// Compute total proceeds required\n\t\tuint totalProceeds = proceedsRequired + feeRequired;\n\t\treturn [proceedsRequired, feeRequired, totalProceeds];\n\t}\n\n\t// Calculate proceedsRequired to for a given buy transaction (not including fees)\n\tfunction _buyProceeds(uint _tokenId, uint _amount) public view returns (uint256) {\n\t\t// Initialize proceeds required;\n\t\tuint proceedsRequired = 0;\n\t\t// Initialize pre-transaction supply\n\t\tuint startingSupply = creatorTokens[_tokenId].outstanding;\n\t\t// Compute post-transaction supply\n\t\tuint endSupply = startingSupply + _amount;\n\t\t// Compute buy proceeds\n\t\t// Check if endSupply <= maxSupply\n\t\tif (endSupply < creatorTokens[_tokenId].maxSupply) {\n\t\t\t// Scenario in which entire transaction takes place below maxSupply\n\t\t\t// Just call s(x)\n\t\t\tproceedsRequired = _saleFunction(startingSupply, _amount, mNumerator, mDenominator, creatorTokens[_tokenId].maxSupply, profitMargin);\n\t\t} else if (startingSupply < creatorTokens[_tokenId].maxSupply){\n\t\t\t// Scenario in which supply begins below maxSupply and ends above pre-transaction maxSupply\n\t\t\t// Use s(x) from startingSupply to maxSupply\n\t\t\tproceedsRequired = _saleFunction(creatorTokens[_tokenId].maxSupply, creatorTokens[_tokenId].maxSupply - startingSupply, mNumerator, mDenominator, creatorTokens[_tokenId].maxSupply, profitMargin);\n\t\t\t// Use b(x) from maxSupply to endSupply\n\t\t\tproceedsRequired += _buyFunction(creatorTokens[_tokenId].maxSupply, _amount - (creatorTokens[_tokenId].maxSupply - startingSupply), mNumerator, mDenominator);\n\t\t} else {\n\t\t\t// Scenario in which transaction begins at maxSupply\n\t\t\t// Just call b(x)\n\t\t\tproceedsRequired = _buyFunction(startingSupply, _amount, mNumerator, mDenominator);\n\t\t}\n\t\t// Return proceeds required\n\t\treturn proceedsRequired;\n\t}\n\n\t// Calculate fee associated with buy transaction\n\tfunction _feeProceeds(uint _proceedsRequired) public view returns (uint256) {\n\t\treturn _proceedsRequired*platformFee/100;\n\t}\n\t\n\t// Calculate area under buy price function\n\tfunction _buyFunction(uint _startingSupply, uint _amount, uint _mNumerator, uint _mDenominator) internal pure returns (uint256) {\n\t\t// b(x) = m*x\n\t\tuint endSupply = _startingSupply + _amount;\n\t\tuint base1 = _mNumerator*_startingSupply/_mDenominator;\n\t\tuint base2 = _mNumerator*endSupply/_mDenominator;\n\t\tuint height = endSupply-_startingSupply;\n\t\tuint area = (base1 + base2) * height / 2;\n\t\treturn area;\n\t}\n\n\t// Calculate area under sale price function\n\tfunction _saleFunction(uint _startingSupply, uint _amount, uint _mNumerator, uint _mDenominator, uint _maxSupply, uint _profitMargin) internal pure returns (uint256) {\n\t\t// Calculate breakpoint and endSupply\n\t\t(uint a, uint b, uint endSupply) = _breakpoint(_startingSupply, _amount, _mNumerator, _mDenominator, _maxSupply, _profitMargin);\n\t\t// Initialize area under curve\n\t\tuint area = 0;\n\t\t// Check where _startingSupply is relative to the breakpoint\n\t\tif (_startingSupply < a) {\n\t\t\t// Just need trapezoidal area of partial entirely left of the breakpoint\n\t\t\tarea = _leftArea(a, b, _startingSupply, endSupply);\n\t\t} else if (endSupply < a) {\n\t\t\t// Scenario in which _startingSupply >= a, and endSupply < a\n\t\t\t// There, need trapezoidal area of components both to right and left of breakpoint\n\t\t\tarea = _bothArea(a, b, _startingSupply, endSupply, _mNumerator, _mDenominator, _maxSupply);\n\t\t} else {\n\t\t\t// Scenario in which entire sale occurs to right of breakpoint\n\t\t\t// Just need trapezoidal area of partial entirely right of the breakpoint\n\t\t\tarea = _rightArea(a, b, _startingSupply, endSupply, _mNumerator, _mDenominator, _maxSupply);\n\t\t}\n\t\treturn area;\n\t}\n\n\t// Calculate breakpoint and other key inputs into _saleFunction\n\tfunction _breakpoint(uint _startingSupply, uint _amount, uint _mNumerator, uint _mDenominator, uint _maxSupply, uint _profitMargin) internal pure returns (uint, uint, uint) {\n\t\t// Define breakpoint (a,b) chosen s.t. area under sale price function is (1-profitMargin) times area under buy price function\n\t\tuint a = _maxSupply/2;\n\t\tuint b = _maxSupply*(50-_profitMargin)/100*_mNumerator/_mDenominator;\n\t\tuint endSupply = _startingSupply - _amount;\n\t\treturn (a, b, endSupply);\n\t}\n\n\t// _saleFunction scenario in which entire transaction occurs left of breakpoint\n\tfunction _leftArea(uint _a, uint _b, uint _startingSupply, uint _endSupply) internal pure returns (uint256) {\n\t\t\t//uint base1 = ((_b/_a)*(_a-_endSupply)+_b);\n\t\t\t//uint base1 = ((_b/_a)*(_endSupply-_a)+_b);\n\t\t\tuint base1 = (_b-(_b/_a)*(_a-_endSupply));\n\t\t\t//uint base2 = ((_b/_a)*(_a-_startingSupply)+_b);\n\t\t\t//uint base2 = ((_b/_a)*(_startingSupply-_a)+_b);\n\t\t\tuint base2 = (_b-(_b/_a)*(_a-_startingSupply));\n\t\t\tuint height = _startingSupply-_endSupply;\n\t\t\treturn (base1 + base2) * height / 2;\n\t}\n\n\t// _saleFunction scenario in which transaction crosses breakpoint\n\tfunction _bothArea(uint _a, uint _b, uint _startingSupply, uint _endSupply, uint _mNumerator, uint _mDenominator, uint _maxSupply) internal pure returns (uint256) {\n\t\t//uint leftBase1 = ((_b/_a)*(_a-_endSupply)+_b);\n\t\t//uint leftBase1 = ((_b/_a)*(_endSupply-_a)+_b);\n\t\tuint leftBase1 = (_b-(_b/_a)*(_a-_endSupply));\n\t\tuint sharedBase = _b;\n\t\tuint leftHeight = _a-_endSupply;\n\t\tuint leftArea = (leftBase1 + sharedBase) * leftHeight / 2;\n\t\tuint rightBase2 = (_mNumerator*_maxSupply/_mDenominator-_b)/(_maxSupply-_a)*(_startingSupply-_a)+_b;\n\t\tuint rightHeight = _startingSupply-_a;\n\t\tuint rightArea = (sharedBase + rightBase2) * rightHeight / 2;\n\t\treturn leftArea + rightArea;\n\t}\n\n\t// _saleFunction scneario in which entire transaction occurs right of breakpoint\n\tfunction _rightArea(uint _a, uint _b, uint _startingSupply, uint _endSupply, uint _mNumerator, uint _mDenominator, uint _maxSupply) internal pure returns (uint256) {\n\t\tuint base1 = (((_mNumerator*_maxSupply/_mDenominator-_b)/(_maxSupply-_a))*(_endSupply-_a)+_b);\n\t\tuint base2 = (((_mNumerator*_maxSupply/_mDenominator-_b)/(_maxSupply-_a))*(_startingSupply-_a)+_b);\n\t\tuint height = _startingSupply-_endSupply;\n\t\treturn (base1 + base2) * height / 2;\n\t}\n\n\t// Update platform fees tracker\n\tfunction _platformFeeUpdater(uint _fee) internal {\n\t\ttotalPlatformFees += _fee;\n\t\tplatformFeesOwed += _fee;\n\t}\n}",
  "sourcePath": "/Users/kamilalizaisadik/DeFi/Dynamic Automated Market Maker/damm_solidity/contracts/creatortokencomputation.sol",
  "compiler": {
    "name": "solc",
    "version": "0.8.6+commit.11564f7e.Emscripten.clang"
  },
  "schemaVersion": "3.4.1",
  "updatedAt": "2021-07-06T13:04:14.217Z",
  "devdoc": {
    "kind": "dev",
    "methods": {
      "getRoleAdmin(bytes32)": {
        "details": "Returns the admin role that controls `role`. See {grantRole} and {revokeRole}. To change a role's admin, use {_setRoleAdmin}."
      },
      "getRoleMember(bytes32,uint256)": {
        "details": "Returns one of the accounts that have `role`. `index` must be a value between 0 and {getRoleMemberCount}, non-inclusive. Role bearers are not sorted in any particular way, and their ordering may change at any point. WARNING: When using {getRoleMember} and {getRoleMemberCount}, make sure you perform all queries on the same block. See the following https://forum.openzeppelin.com/t/iterating-over-elements-on-enumerableset-in-openzeppelin-contracts/2296[forum post] for more information."
      },
      "getRoleMemberCount(bytes32)": {
        "details": "Returns the number of accounts that have `role`. Can be used together with {getRoleMember} to enumerate all bearers of a role."
      },
      "grantRole(bytes32,address)": {
        "details": "Overload {grantRole} to track enumerable memberships"
      },
      "hasRole(bytes32,address)": {
        "details": "Returns `true` if `account` has been granted `role`."
      },
      "owner()": {
        "details": "Returns the address of the current owner."
      },
      "pause()": {
        "details": "Pauses all token transfers. See {ERC1155Pausable} and {Pausable-_pause}. Requirements: - the caller must have the `PAUSER_ROLE`."
      },
      "paused()": {
        "details": "Returns true if the contract is paused, and false otherwise."
      },
      "renounceOwnership()": {
        "details": "Leaves the contract without owner. It will not be possible to call `onlyOwner` functions anymore. Can only be called by the current owner. NOTE: Renouncing ownership will leave the contract without an owner, thereby removing any functionality that is only available to the owner."
      },
      "renounceRole(bytes32,address)": {
        "details": "Overload {renounceRole} to track enumerable memberships"
      },
      "revokeRole(bytes32,address)": {
        "details": "Overload {revokeRole} to track enumerable memberships"
      },
      "supportsInterface(bytes4)": {
        "details": "See {IERC165-supportsInterface}."
      },
      "transferOwnership(address)": {
        "details": "Transfers ownership of the contract to a new account (`newOwner`). Can only be called by the current owner."
      },
      "unpause()": {
        "details": "Unpauses all token transfers. See {ERC1155Pausable} and {Pausable-_unpause}. Requirements: - the caller must have the `PAUSER_ROLE`."
      },
      "uri(uint256)": {
        "details": "See {IERC1155MetadataURI-uri}. This implementation returns the same URI for *all* token types. It relies on the token type ID substitution mechanism https://eips.ethereum.org/EIPS/eip-1155#metadata[defined in the EIP]. Clients calling this function must replace the `\\{id\\}` substring with the actual token type ID."
      }
    },
    "version": 1
  },
  "userdoc": {
    "kind": "user",
    "methods": {},
    "version": 1
  }
}