{
  "contractName": "CreatorTokenFactory",
  "abi": [
    {
      "anonymous": false,
      "inputs": [
        {
          "indexed": false,
          "internalType": "uint256",
          "name": "tokenId",
          "type": "uint256"
        },
        {
          "indexed": false,
          "internalType": "address payable",
          "name": "creatorAddress",
          "type": "address"
        },
        {
          "indexed": false,
          "internalType": "string",
          "name": "name",
          "type": "string"
        },
        {
          "indexed": false,
          "internalType": "string",
          "name": "symbol",
          "type": "string"
        },
        {
          "indexed": false,
          "internalType": "string",
          "name": "description",
          "type": "string"
        },
        {
          "indexed": false,
          "internalType": "bool",
          "name": "verified",
          "type": "bool"
        },
        {
          "indexed": false,
          "internalType": "uint256",
          "name": "outstanding",
          "type": "uint256"
        },
        {
          "indexed": false,
          "internalType": "uint256",
          "name": "maxSupply",
          "type": "uint256"
        }
      ],
      "name": "NewCreatorToken",
      "type": "event"
    },
    {
      "anonymous": false,
      "inputs": [
        {
          "indexed": true,
          "internalType": "address",
          "name": "previousOwner",
          "type": "address"
        },
        {
          "indexed": true,
          "internalType": "address",
          "name": "newOwner",
          "type": "address"
        }
      ],
      "name": "OwnershipTransferred",
      "type": "event"
    },
    {
      "inputs": [
        {
          "internalType": "address",
          "name": "",
          "type": "address"
        },
        {
          "internalType": "address",
          "name": "",
          "type": "address"
        }
      ],
      "name": "approvals",
      "outputs": [
        {
          "internalType": "bool",
          "name": "",
          "type": "bool"
        }
      ],
      "stateMutability": "view",
      "type": "function"
    },
    {
      "inputs": [
        {
          "internalType": "uint256",
          "name": "",
          "type": "uint256"
        }
      ],
      "name": "creatorTokens",
      "outputs": [
        {
          "internalType": "address payable",
          "name": "creatorAddress",
          "type": "address"
        },
        {
          "internalType": "string",
          "name": "name",
          "type": "string"
        },
        {
          "internalType": "string",
          "name": "symbol",
          "type": "string"
        },
        {
          "internalType": "string",
          "name": "description",
          "type": "string"
        },
        {
          "internalType": "bool",
          "name": "verified",
          "type": "bool"
        },
        {
          "internalType": "uint256",
          "name": "outstanding",
          "type": "uint256"
        },
        {
          "internalType": "uint256",
          "name": "maxSupply",
          "type": "uint256"
        },
        {
          "internalType": "uint256",
          "name": "tokenId",
          "type": "uint256"
        }
      ],
      "stateMutability": "view",
      "type": "function"
    },
    {
      "inputs": [],
      "name": "numCreatorTokens",
      "outputs": [
        {
          "internalType": "uint256",
          "name": "",
          "type": "uint256"
        }
      ],
      "stateMutability": "view",
      "type": "function"
    },
    {
      "inputs": [],
      "name": "owner",
      "outputs": [
        {
          "internalType": "address",
          "name": "",
          "type": "address"
        }
      ],
      "stateMutability": "view",
      "type": "function"
    },
    {
      "inputs": [],
      "name": "platformFeesOwed",
      "outputs": [
        {
          "internalType": "uint256",
          "name": "",
          "type": "uint256"
        }
      ],
      "stateMutability": "view",
      "type": "function"
    },
    {
      "inputs": [],
      "name": "renounceOwnership",
      "outputs": [],
      "stateMutability": "nonpayable",
      "type": "function"
    },
    {
      "inputs": [
        {
          "internalType": "uint256",
          "name": "",
          "type": "uint256"
        },
        {
          "internalType": "address",
          "name": "",
          "type": "address"
        }
      ],
      "name": "tokenHoldership",
      "outputs": [
        {
          "internalType": "uint256",
          "name": "",
          "type": "uint256"
        }
      ],
      "stateMutability": "view",
      "type": "function"
    },
    {
      "inputs": [
        {
          "internalType": "uint256",
          "name": "",
          "type": "uint256"
        }
      ],
      "name": "tokenToCreator",
      "outputs": [
        {
          "internalType": "address",
          "name": "",
          "type": "address"
        }
      ],
      "stateMutability": "view",
      "type": "function"
    },
    {
      "inputs": [
        {
          "internalType": "uint256",
          "name": "",
          "type": "uint256"
        }
      ],
      "name": "tokenValueTransferred",
      "outputs": [
        {
          "internalType": "uint256",
          "name": "",
          "type": "uint256"
        }
      ],
      "stateMutability": "view",
      "type": "function"
    },
    {
      "inputs": [],
      "name": "totalPlatformFees",
      "outputs": [
        {
          "internalType": "uint256",
          "name": "",
          "type": "uint256"
        }
      ],
      "stateMutability": "view",
      "type": "function"
    },
    {
      "inputs": [
        {
          "internalType": "uint256",
          "name": "",
          "type": "uint256"
        }
      ],
      "name": "totalValueLocked",
      "outputs": [
        {
          "internalType": "uint256",
          "name": "",
          "type": "uint256"
        }
      ],
      "stateMutability": "view",
      "type": "function"
    },
    {
      "inputs": [
        {
          "internalType": "address",
          "name": "newOwner",
          "type": "address"
        }
      ],
      "name": "transferOwnership",
      "outputs": [],
      "stateMutability": "nonpayable",
      "type": "function"
    },
    {
      "inputs": [
        {
          "internalType": "address",
          "name": "",
          "type": "address"
        },
        {
          "internalType": "uint256",
          "name": "",
          "type": "uint256"
        }
      ],
      "name": "userToHoldings",
      "outputs": [
        {
          "internalType": "uint256",
          "name": "",
          "type": "uint256"
        }
      ],
      "stateMutability": "view",
      "type": "function"
    },
    {
      "inputs": [
        {
          "internalType": "address payable",
          "name": "_creatorAddress",
          "type": "address"
        },
        {
          "internalType": "string",
          "name": "_name",
          "type": "string"
        },
        {
          "internalType": "string",
          "name": "_symbol",
          "type": "string"
        },
        {
          "internalType": "string",
          "name": "_description",
          "type": "string"
        }
      ],
      "name": "createCreatorToken",
      "outputs": [],
      "stateMutability": "nonpayable",
      "type": "function"
    },
    {
      "inputs": [],
      "name": "getCreatorTokenCount",
      "outputs": [
        {
          "internalType": "uint256",
          "name": "",
          "type": "uint256"
        }
      ],
      "stateMutability": "view",
      "type": "function"
    }
  ],
  "bytecode": "0x608060405260018055600060025560006003556000600455601460055565082f79cd900060065560b960075534801561003757600080fd5b5060006100486100eb60201b60201c565b9050806000806101000a81548173ffffffffffffffffffffffffffffffffffffffff021916908373ffffffffffffffffffffffffffffffffffffffff1602179055508073ffffffffffffffffffffffffffffffffffffffff16600073ffffffffffffffffffffffffffffffffffffffff167f8be0079c531659141344cd1fd0a4f28419497f9722a3daafe3b4186f6b6457e060405160405180910390a3506100f3565b600033905090565b611417806101026000396000f3fe608060405234801561001057600080fd5b50600436106100f55760003560e01c8063afb2183211610097578063d3631fa511610066578063d3631fa5146102a3578063d56b72c7146102c1578063d9bd3a40146102dd578063f2fde38b1461030d576100f5565b8063afb2183214610200578063bfb48c9c1461021e578063c1d330491461024e578063ce901d8a1461026c576100f5565b8063715018a6116100d3578063715018a6146101785780638da5cb5b1461018257806392724afa146101a0578063a32ce11e146101d0576100f5565b806317bcaa08146100fa57806318892ae81461012a5780632a2b237c1461015a575b600080fd5b610114600480360381019061010f9190610e30565b610329565b6040516101219190611070565b60405180910390f35b610144600480360381019061013f9190610e30565b610341565b6040516101519190610f67565b60405180910390f35b610162610374565b60405161016f9190611070565b60405180910390f35b610180610381565b005b61018a6104bb565b6040516101979190610f67565b60405180910390f35b6101ba60048036038101906101b59190610df0565b6104e4565b6040516101c79190611070565b60405180910390f35b6101ea60048036038101906101e59190610db0565b610509565b6040516101f79190611015565b60405180910390f35b610208610538565b6040516102159190611070565b60405180910390f35b61023860048036038101906102339190610e5d565b61053e565b6040516102459190611070565b60405180910390f35b610256610563565b6040516102639190611070565b60405180910390f35b61028660048036038101906102819190610e30565b610569565b60405161029a989796959493929190610f82565b60405180910390f35b6102ab610786565b6040516102b89190611070565b60405180910390f35b6102db60048036038101906102d69190610cf5565b61078c565b005b6102f760048036038101906102f29190610e30565b6109ad565b6040516103049190611070565b60405180910390f35b61032760048036038101906103229190610cc8565b6109c5565b005b600a6020528060005260406000206000915090505481565b60096020528060005260406000206000915054906101000a900473ffffffffffffffffffffffffffffffffffffffff1681565b6000600880549050905090565b610389610b6e565b73ffffffffffffffffffffffffffffffffffffffff166103a76104bb565b73ffffffffffffffffffffffffffffffffffffffff16146103fd576040517f08c379a00000000000000000000000000000000000000000000000000000000081526004016103f490611050565b60405180910390fd5b600073ffffffffffffffffffffffffffffffffffffffff1660008054906101000a900473ffffffffffffffffffffffffffffffffffffffff1673ffffffffffffffffffffffffffffffffffffffff167f8be0079c531659141344cd1fd0a4f28419497f9722a3daafe3b4186f6b6457e060405160405180910390a360008060006101000a81548173ffffffffffffffffffffffffffffffffffffffff021916908373ffffffffffffffffffffffffffffffffffffffff160217905550565b60008060009054906101000a900473ffffffffffffffffffffffffffffffffffffffff16905090565b600c602052816000526040600020602052806000526040600020600091509150505481565b600d6020528160005260406000206020528060005260406000206000915091509054906101000a900460ff1681565b60045481565b600b602052816000526040600020602052806000526040600020600091509150505481565b60035481565b6008818154811061057957600080fd5b90600052602060002090600802016000915090508060000160009054906101000a900473ffffffffffffffffffffffffffffffffffffffff16908060010180546105c29061123e565b80601f01602080910402602001604051908101604052809291908181526020018280546105ee9061123e565b801561063b5780601f106106105761010080835404028352916020019161063b565b820191906000526020600020905b81548152906001019060200180831161061e57829003601f168201915b5050505050908060020180546106509061123e565b80601f016020809104026020016040519081016040528092919081815260200182805461067c9061123e565b80156106c95780601f1061069e576101008083540402835291602001916106c9565b820191906000526020600020905b8154815290600101906020018083116106ac57829003601f168201915b5050505050908060030180546106de9061123e565b80601f016020809104026020016040519081016040528092919081815260200182805461070a9061123e565b80156107575780601f1061072c57610100808354040283529160200191610757565b820191906000526020600020905b81548152906001019060200180831161073a57829003601f168201915b5050505050908060040160009054906101000a900460ff16908060050154908060060154908060070154905088565b60025481565b6000600880549050905060086040518061010001604052808773ffffffffffffffffffffffffffffffffffffffff168152602001868152602001858152602001848152602001600015158152602001600081526020016000815260200183815250908060018154018082558091505060019003906000526020600020906008020160009091909190915060008201518160000160006101000a81548173ffffffffffffffffffffffffffffffffffffffff021916908373ffffffffffffffffffffffffffffffffffffffff1602179055506020820151816001019080519060200190610879929190610b76565b506040820151816002019080519060200190610896929190610b76565b5060608201518160030190805190602001906108b3929190610b76565b5060808201518160040160006101000a81548160ff02191690831515021790555060a0820151816005015560c0820151816006015560e082015181600701555050846009600083815260200190815260200160002060006101000a81548173ffffffffffffffffffffffffffffffffffffffff021916908373ffffffffffffffffffffffffffffffffffffffff1602179055506000600a6000838152602001908152602001600020819055507f3ef624c0f3fb7ad40b94c02078ea3e3a797dbfc21e921ee4bd2b8ad0ca6aa1138186868686600080600060405161099e98979695949392919061108b565b60405180910390a15050505050565b600e6020528060005260406000206000915090505481565b6109cd610b6e565b73ffffffffffffffffffffffffffffffffffffffff166109eb6104bb565b73ffffffffffffffffffffffffffffffffffffffff1614610a41576040517f08c379a0000000000000000000000000000000000000000000000000000000008152600401610a3890611050565b60405180910390fd5b600073ffffffffffffffffffffffffffffffffffffffff168173ffffffffffffffffffffffffffffffffffffffff161415610ab1576040517f08c379a0000000000000000000000000000000000000000000000000000000008152600401610aa890611030565b60405180910390fd5b8073ffffffffffffffffffffffffffffffffffffffff1660008054906101000a900473ffffffffffffffffffffffffffffffffffffffff1673ffffffffffffffffffffffffffffffffffffffff167f8be0079c531659141344cd1fd0a4f28419497f9722a3daafe3b4186f6b6457e060405160405180910390a3806000806101000a81548173ffffffffffffffffffffffffffffffffffffffff021916908373ffffffffffffffffffffffffffffffffffffffff16021790555050565b600033905090565b828054610b829061123e565b90600052602060002090601f016020900481019282610ba45760008555610beb565b82601f10610bbd57805160ff1916838001178555610beb565b82800160010185558215610beb579182015b82811115610bea578251825591602001919060010190610bcf565b5b509050610bf89190610bfc565b5090565b5b80821115610c15576000816000905550600101610bfd565b5090565b6000610c2c610c2784611143565b61111e565b905082815260208101848484011115610c4857610c47611304565b5b610c538482856111fc565b509392505050565b600081359050610c6a8161139c565b92915050565b600081359050610c7f816113b3565b92915050565b600082601f830112610c9a57610c996112ff565b5b8135610caa848260208601610c19565b91505092915050565b600081359050610cc2816113ca565b92915050565b600060208284031215610cde57610cdd61130e565b5b6000610cec84828501610c5b565b91505092915050565b60008060008060808587031215610d0f57610d0e61130e565b5b6000610d1d87828801610c70565b945050602085013567ffffffffffffffff811115610d3e57610d3d611309565b5b610d4a87828801610c85565b935050604085013567ffffffffffffffff811115610d6b57610d6a611309565b5b610d7787828801610c85565b925050606085013567ffffffffffffffff811115610d9857610d97611309565b5b610da487828801610c85565b91505092959194509250565b60008060408385031215610dc757610dc661130e565b5b6000610dd585828601610c5b565b9250506020610de685828601610c5b565b9150509250929050565b60008060408385031215610e0757610e0661130e565b5b6000610e1585828601610c5b565b9250506020610e2685828601610cb3565b9150509250929050565b600060208284031215610e4657610e4561130e565b5b6000610e5484828501610cb3565b91505092915050565b60008060408385031215610e7457610e7361130e565b5b6000610e8285828601610cb3565b9250506020610e9385828601610c5b565b9150509250929050565b610ea6816111a2565b82525050565b610eb581611190565b82525050565b610ec4816111b4565b82525050565b610ed3816111ea565b82525050565b6000610ee482611174565b610eee818561117f565b9350610efe81856020860161120b565b610f0781611313565b840191505092915050565b6000610f1f60268361117f565b9150610f2a82611324565b604082019050919050565b6000610f4260208361117f565b9150610f4d82611373565b602082019050919050565b610f61816111e0565b82525050565b6000602082019050610f7c6000830184610eac565b92915050565b600061010082019050610f98600083018b610e9d565b8181036020830152610faa818a610ed9565b90508181036040830152610fbe8189610ed9565b90508181036060830152610fd28188610ed9565b9050610fe16080830187610ebb565b610fee60a0830186610f58565b610ffb60c0830185610f58565b61100860e0830184610f58565b9998505050505050505050565b600060208201905061102a6000830184610ebb565b92915050565b6000602082019050818103600083015261104981610f12565b9050919050565b6000602082019050818103600083015261106981610f35565b9050919050565b60006020820190506110856000830184610f58565b92915050565b6000610100820190506110a1600083018b610f58565b6110ae602083018a610e9d565b81810360408301526110c08189610ed9565b905081810360608301526110d48188610ed9565b905081810360808301526110e88187610ed9565b90506110f760a0830186610ebb565b61110460c0830185610eca565b61111160e0830184610eca565b9998505050505050505050565b6000611128611139565b90506111348282611270565b919050565b6000604051905090565b600067ffffffffffffffff82111561115e5761115d6112d0565b5b61116782611313565b9050602081019050919050565b600081519050919050565b600082825260208201905092915050565b600061119b826111c0565b9050919050565b60006111ad826111c0565b9050919050565b60008115159050919050565b600073ffffffffffffffffffffffffffffffffffffffff82169050919050565b6000819050919050565b60006111f5826111e0565b9050919050565b82818337600083830152505050565b60005b8381101561122957808201518184015260208101905061120e565b83811115611238576000848401525b50505050565b6000600282049050600182168061125657607f821691505b6020821081141561126a576112696112a1565b5b50919050565b61127982611313565b810181811067ffffffffffffffff82111715611298576112976112d0565b5b80604052505050565b7f4e487b7100000000000000000000000000000000000000000000000000000000600052602260045260246000fd5b7f4e487b7100000000000000000000000000000000000000000000000000000000600052604160045260246000fd5b600080fd5b600080fd5b600080fd5b600080fd5b6000601f19601f8301169050919050565b7f4f776e61626c653a206e6577206f776e657220697320746865207a65726f206160008201527f6464726573730000000000000000000000000000000000000000000000000000602082015250565b7f4f776e61626c653a2063616c6c6572206973206e6f7420746865206f776e6572600082015250565b6113a581611190565b81146113b057600080fd5b50565b6113bc816111a2565b81146113c757600080fd5b50565b6113d3816111e0565b81146113de57600080fd5b5056fea26469706673582212202f30e3e4885b16be7a57f6eecd0eaad9d67a1d845af70a4fb612f5d3711bdaeb64736f6c63430008070033",
  "immutableReferences": {},
  "source": "// SPDX-License-Identifier: MIT\npragma solidity ^0.8.0;\n\nimport \"@openzeppelin/contracts/access/Ownable.sol\";\n\n/// @title A contract generating Creator Tokens, as well as relevant attributes and mappings\n/// @author Kamil Alizai Sadik\ncontract CreatorTokenFactory is Ownable {\n\n\t// Event that fires whenever a new CreatorToken is created\n\tevent NewCreatorToken(uint tokenId, address payable creatorAddress, string name, string symbol, string description, bool verified, uint outstanding, uint maxSupply);\n\n\t// Pay-on-top style platform fee on each transaction\n\tuint platformFee = 1; // e.g., if platformFee == 1, the platform earns 1% of each transaction's value\n\t// Variable to track total platform fees generated\n\tuint public totalPlatformFees = 0;\n\t// Variable to track platform fees owed, but not yet paid to owner\n\tuint public platformFeesOwed = 0;\n\t// Variable to track number of unique creator tokens\n\tuint public numCreatorTokens = 0;\n\n\t// Profit margin (percentage of total revenue) directed toward creator\n\tuint profitMargin = 20;\n\n\t// Slope of buy price function\n\tuint mNumerator = 9000000000000;\n\tuint mDenominator = 185;\n\n\t// Struct containing CreatorToken attributes\n\tstruct CreatorToken {\n\t\taddress payable creatorAddress;\n\t\tstring name;\n\t\tstring symbol;\n\t\tstring description;\n\t\tbool verified;\n\t\tuint outstanding;\n\t\tuint maxSupply;\n\t\tuint tokenId;\n\t}\n\n\t// Array of all CreatorTokens\n\tCreatorToken[] public creatorTokens;\n\n\t// Mapping from tokenId to creatorAddress\n\tmapping (uint => address) public tokenToCreator;\n\t// Mapping from tokenId to token value transferred to creator\n\tmapping (uint => uint) public tokenValueTransferred;\n\t// Mapping from tokenId to mapping from address to quantity of tokenId held\n\tmapping(uint256 => mapping(address => uint256)) public tokenHoldership;\n\t// Mapping from user to mapping from tokenId to quantity of that token the user owns (to show a user's portfolio without having to iterate through tokenHoldership)\n\tmapping(address => mapping(uint256 => uint256)) public userToHoldings;\n\t// Mapping from account to operator approvals\n\tmapping(address => mapping(address => bool)) public approvals;\n\t// Mapping from token to total value locked\n\tmapping (uint => uint) public totalValueLocked;\n\n\t/// @dev Creates a new creator token\n\t/// @param _creatorAddress Address of the creator of the token\n\t/// @param _name Name chosen by the creator of the token\n\t/// @param _symbol Ticker symbol chosen by the creator of the token\n\t/// @param _description chosen by the creator of the tokens\n\tfunction createCreatorToken(address payable _creatorAddress, string memory _name, string memory _symbol, string memory _description) public {\n\t\t// Create token id\n\t\tuint id = creatorTokens.length;\n\t\t// Add token to creatorTokens array\n\t\tcreatorTokens.push(CreatorToken(_creatorAddress, _name, _symbol, _description, false, 0, 0, id));\n\t\t// Update number of creator tokens\n\t\t//numCreatorTokens = id+1;\n\t\t// Map from token id to creator's address\n\t\ttokenToCreator[id] = _creatorAddress;\n\t\t// Map from token id to amount of value transferred (0 at inception)\n\t\ttokenValueTransferred[id] = 0;\n\t\t// Emit token creation event\n\t\temit NewCreatorToken(id, _creatorAddress, _name, _symbol, _description, false, 0, 0);\n\t}\n\n\t/// @dev Returns the current length of the creatorTokens array\n\t/// @return uint representing number of unique Creator Tokens\n\tfunction getCreatorTokenCount() external view returns (uint) {\n\t\t// Return length of creatorTokens array\n\t\treturn creatorTokens.length;\n\t}\n}",
  "sourcePath": "/Users/kamilalizaisadik/DeFi/Dynamic Automated Market Maker/CreatorTokenExchange/contracts/creatortokenfactory.sol",
  "compiler": {
    "name": "solc",
    "version": "0.8.7+commit.e28d00a7.Emscripten.clang"
  },
  "schemaVersion": "3.4.1",
  "updatedAt": "2021-08-12T01:06:54.447Z",
  "devdoc": {
    "author": "Kamil Alizai Sadik",
    "kind": "dev",
    "methods": {
      "createCreatorToken(address,string,string,string)": {
        "details": "Creates a new creator token",
        "params": {
          "_creatorAddress": "Address of the creator of the token",
          "_description": "chosen by the creator of the tokens",
          "_name": "Name chosen by the creator of the token",
          "_symbol": "Ticker symbol chosen by the creator of the token"
        }
      },
      "getCreatorTokenCount()": {
        "details": "Returns the current length of the creatorTokens array",
        "returns": {
          "_0": "uint representing number of unique Creator Tokens"
        }
      },
      "owner()": {
        "details": "Returns the address of the current owner."
      },
      "renounceOwnership()": {
        "details": "Leaves the contract without owner. It will not be possible to call `onlyOwner` functions anymore. Can only be called by the current owner. NOTE: Renouncing ownership will leave the contract without an owner, thereby removing any functionality that is only available to the owner."
      },
      "transferOwnership(address)": {
        "details": "Transfers ownership of the contract to a new account (`newOwner`). Can only be called by the current owner."
      }
    },
    "title": "A contract generating Creator Tokens, as well as relevant attributes and mappings",
    "version": 1
  },
  "userdoc": {
    "kind": "user",
    "methods": {},
    "version": 1
  }
}