{
  "contractName": "CreatorTokenOwnership",
  "abi": [
    {
      "inputs": [
        {
          "internalType": "string",
          "name": "uri",
          "type": "string"
        }
      ],
      "stateMutability": "nonpayable",
      "type": "constructor"
    },
    {
      "anonymous": false,
      "inputs": [
        {
          "indexed": true,
          "internalType": "address",
          "name": "account",
          "type": "address"
        },
        {
          "indexed": true,
          "internalType": "address",
          "name": "operator",
          "type": "address"
        },
        {
          "indexed": false,
          "internalType": "bool",
          "name": "approved",
          "type": "bool"
        }
      ],
      "name": "ApprovalForAll",
      "type": "event"
    },
    {
      "anonymous": false,
      "inputs": [
        {
          "indexed": false,
          "internalType": "uint256",
          "name": "tokenId",
          "type": "uint256"
        },
        {
          "indexed": false,
          "internalType": "address payable",
          "name": "creatorAddress",
          "type": "address"
        },
        {
          "indexed": false,
          "internalType": "string",
          "name": "name",
          "type": "string"
        },
        {
          "indexed": false,
          "internalType": "string",
          "name": "symbol",
          "type": "string"
        },
        {
          "indexed": false,
          "internalType": "string",
          "name": "description",
          "type": "string"
        },
        {
          "indexed": false,
          "internalType": "bool",
          "name": "verified",
          "type": "bool"
        },
        {
          "indexed": false,
          "internalType": "uint256",
          "name": "outstanding",
          "type": "uint256"
        },
        {
          "indexed": false,
          "internalType": "uint256",
          "name": "maxSupply",
          "type": "uint256"
        }
      ],
      "name": "NewCreatorToken",
      "type": "event"
    },
    {
      "anonymous": false,
      "inputs": [
        {
          "indexed": true,
          "internalType": "address",
          "name": "previousOwner",
          "type": "address"
        },
        {
          "indexed": true,
          "internalType": "address",
          "name": "newOwner",
          "type": "address"
        }
      ],
      "name": "OwnershipTransferred",
      "type": "event"
    },
    {
      "anonymous": false,
      "inputs": [
        {
          "indexed": true,
          "internalType": "address",
          "name": "operator",
          "type": "address"
        },
        {
          "indexed": true,
          "internalType": "address",
          "name": "from",
          "type": "address"
        },
        {
          "indexed": true,
          "internalType": "address",
          "name": "to",
          "type": "address"
        },
        {
          "indexed": false,
          "internalType": "uint256[]",
          "name": "ids",
          "type": "uint256[]"
        },
        {
          "indexed": false,
          "internalType": "uint256[]",
          "name": "values",
          "type": "uint256[]"
        }
      ],
      "name": "TransferBatch",
      "type": "event"
    },
    {
      "anonymous": false,
      "inputs": [
        {
          "indexed": true,
          "internalType": "address",
          "name": "operator",
          "type": "address"
        },
        {
          "indexed": true,
          "internalType": "address",
          "name": "from",
          "type": "address"
        },
        {
          "indexed": true,
          "internalType": "address",
          "name": "to",
          "type": "address"
        },
        {
          "indexed": false,
          "internalType": "uint256",
          "name": "id",
          "type": "uint256"
        },
        {
          "indexed": false,
          "internalType": "uint256",
          "name": "value",
          "type": "uint256"
        }
      ],
      "name": "TransferSingle",
      "type": "event"
    },
    {
      "anonymous": false,
      "inputs": [
        {
          "indexed": false,
          "internalType": "string",
          "name": "value",
          "type": "string"
        },
        {
          "indexed": true,
          "internalType": "uint256",
          "name": "id",
          "type": "uint256"
        }
      ],
      "name": "URI",
      "type": "event"
    },
    {
      "inputs": [
        {
          "internalType": "address",
          "name": "",
          "type": "address"
        },
        {
          "internalType": "address",
          "name": "",
          "type": "address"
        }
      ],
      "name": "approvals",
      "outputs": [
        {
          "internalType": "bool",
          "name": "",
          "type": "bool"
        }
      ],
      "stateMutability": "view",
      "type": "function"
    },
    {
      "inputs": [
        {
          "internalType": "address",
          "name": "account",
          "type": "address"
        },
        {
          "internalType": "uint256",
          "name": "id",
          "type": "uint256"
        }
      ],
      "name": "balanceOf",
      "outputs": [
        {
          "internalType": "uint256",
          "name": "",
          "type": "uint256"
        }
      ],
      "stateMutability": "view",
      "type": "function"
    },
    {
      "inputs": [
        {
          "internalType": "address[]",
          "name": "accounts",
          "type": "address[]"
        },
        {
          "internalType": "uint256[]",
          "name": "ids",
          "type": "uint256[]"
        }
      ],
      "name": "balanceOfBatch",
      "outputs": [
        {
          "internalType": "uint256[]",
          "name": "",
          "type": "uint256[]"
        }
      ],
      "stateMutability": "view",
      "type": "function"
    },
    {
      "inputs": [
        {
          "internalType": "uint256",
          "name": "_tokenId",
          "type": "uint256"
        },
        {
          "internalType": "address payable",
          "name": "_newCreatorAddress",
          "type": "address"
        }
      ],
      "name": "changeAddress",
      "outputs": [],
      "stateMutability": "nonpayable",
      "type": "function"
    },
    {
      "inputs": [
        {
          "internalType": "uint256",
          "name": "_tokenId",
          "type": "uint256"
        },
        {
          "internalType": "string",
          "name": "_newDescription",
          "type": "string"
        }
      ],
      "name": "changeDescription",
      "outputs": [],
      "stateMutability": "nonpayable",
      "type": "function"
    },
    {
      "inputs": [
        {
          "internalType": "uint256",
          "name": "_tokenId",
          "type": "uint256"
        },
        {
          "internalType": "string",
          "name": "_newName",
          "type": "string"
        }
      ],
      "name": "changeName",
      "outputs": [],
      "stateMutability": "nonpayable",
      "type": "function"
    },
    {
      "inputs": [
        {
          "internalType": "uint256",
          "name": "_newPlatformFee",
          "type": "uint256"
        }
      ],
      "name": "changePlatformFee",
      "outputs": [],
      "stateMutability": "nonpayable",
      "type": "function"
    },
    {
      "inputs": [
        {
          "internalType": "uint256",
          "name": "_newProfitMargin",
          "type": "uint256"
        }
      ],
      "name": "changeProfitMargin",
      "outputs": [],
      "stateMutability": "nonpayable",
      "type": "function"
    },
    {
      "inputs": [
        {
          "internalType": "uint256",
          "name": "_tokenId",
          "type": "uint256"
        },
        {
          "internalType": "string",
          "name": "_newSymbol",
          "type": "string"
        }
      ],
      "name": "changeSymbol",
      "outputs": [],
      "stateMutability": "nonpayable",
      "type": "function"
    },
    {
      "inputs": [
        {
          "internalType": "uint256",
          "name": "_tokenId",
          "type": "uint256"
        },
        {
          "internalType": "bool",
          "name": "_verified",
          "type": "bool"
        }
      ],
      "name": "changeVerification",
      "outputs": [],
      "stateMutability": "nonpayable",
      "type": "function"
    },
    {
      "inputs": [
        {
          "internalType": "address payable",
          "name": "_creatorAddress",
          "type": "address"
        },
        {
          "internalType": "string",
          "name": "_name",
          "type": "string"
        },
        {
          "internalType": "string",
          "name": "_symbol",
          "type": "string"
        },
        {
          "internalType": "string",
          "name": "_description",
          "type": "string"
        }
      ],
      "name": "createCreatorToken",
      "outputs": [],
      "stateMutability": "nonpayable",
      "type": "function"
    },
    {
      "inputs": [
        {
          "internalType": "uint256",
          "name": "",
          "type": "uint256"
        }
      ],
      "name": "creatorTokens",
      "outputs": [
        {
          "internalType": "address payable",
          "name": "creatorAddress",
          "type": "address"
        },
        {
          "internalType": "string",
          "name": "name",
          "type": "string"
        },
        {
          "internalType": "string",
          "name": "symbol",
          "type": "string"
        },
        {
          "internalType": "string",
          "name": "description",
          "type": "string"
        },
        {
          "internalType": "bool",
          "name": "verified",
          "type": "bool"
        },
        {
          "internalType": "uint256",
          "name": "outstanding",
          "type": "uint256"
        },
        {
          "internalType": "uint256",
          "name": "maxSupply",
          "type": "uint256"
        }
      ],
      "stateMutability": "view",
      "type": "function"
    },
    {
      "inputs": [],
      "name": "getCreatorTokenCount",
      "outputs": [
        {
          "internalType": "uint256",
          "name": "",
          "type": "uint256"
        }
      ],
      "stateMutability": "view",
      "type": "function"
    },
    {
      "inputs": [],
      "name": "getCreatorTokens",
      "outputs": [
        {
          "components": [
            {
              "internalType": "address payable",
              "name": "creatorAddress",
              "type": "address"
            },
            {
              "internalType": "string",
              "name": "name",
              "type": "string"
            },
            {
              "internalType": "string",
              "name": "symbol",
              "type": "string"
            },
            {
              "internalType": "string",
              "name": "description",
              "type": "string"
            },
            {
              "internalType": "bool",
              "name": "verified",
              "type": "bool"
            },
            {
              "internalType": "uint256",
              "name": "outstanding",
              "type": "uint256"
            },
            {
              "internalType": "uint256",
              "name": "maxSupply",
              "type": "uint256"
            }
          ],
          "internalType": "struct CreatorTokenFactory.CreatorToken[]",
          "name": "",
          "type": "tuple[]"
        }
      ],
      "stateMutability": "view",
      "type": "function"
    },
    {
      "inputs": [
        {
          "internalType": "uint256",
          "name": "_id",
          "type": "uint256"
        }
      ],
      "name": "getToken",
      "outputs": [
        {
          "components": [
            {
              "internalType": "address payable",
              "name": "creatorAddress",
              "type": "address"
            },
            {
              "internalType": "string",
              "name": "name",
              "type": "string"
            },
            {
              "internalType": "string",
              "name": "symbol",
              "type": "string"
            },
            {
              "internalType": "string",
              "name": "description",
              "type": "string"
            },
            {
              "internalType": "bool",
              "name": "verified",
              "type": "bool"
            },
            {
              "internalType": "uint256",
              "name": "outstanding",
              "type": "uint256"
            },
            {
              "internalType": "uint256",
              "name": "maxSupply",
              "type": "uint256"
            }
          ],
          "internalType": "struct CreatorTokenFactory.CreatorToken",
          "name": "",
          "type": "tuple"
        }
      ],
      "stateMutability": "view",
      "type": "function"
    },
    {
      "inputs": [],
      "name": "numCreatorTokens",
      "outputs": [
        {
          "internalType": "uint256",
          "name": "",
          "type": "uint256"
        }
      ],
      "stateMutability": "view",
      "type": "function"
    },
    {
      "inputs": [],
      "name": "owner",
      "outputs": [
        {
          "internalType": "address",
          "name": "",
          "type": "address"
        }
      ],
      "stateMutability": "view",
      "type": "function"
    },
    {
      "inputs": [
        {
          "internalType": "address payable",
          "name": "_owner",
          "type": "address"
        }
      ],
      "name": "payoutPlatformFees",
      "outputs": [],
      "stateMutability": "nonpayable",
      "type": "function"
    },
    {
      "inputs": [],
      "name": "platformFeesOwed",
      "outputs": [
        {
          "internalType": "uint256",
          "name": "",
          "type": "uint256"
        }
      ],
      "stateMutability": "view",
      "type": "function"
    },
    {
      "inputs": [],
      "name": "renounceOwnership",
      "outputs": [],
      "stateMutability": "nonpayable",
      "type": "function"
    },
    {
      "inputs": [
        {
          "internalType": "bytes4",
          "name": "interfaceId",
          "type": "bytes4"
        }
      ],
      "name": "supportsInterface",
      "outputs": [
        {
          "internalType": "bool",
          "name": "",
          "type": "bool"
        }
      ],
      "stateMutability": "view",
      "type": "function"
    },
    {
      "inputs": [
        {
          "internalType": "uint256",
          "name": "",
          "type": "uint256"
        },
        {
          "internalType": "address",
          "name": "",
          "type": "address"
        }
      ],
      "name": "tokenHoldership",
      "outputs": [
        {
          "internalType": "uint256",
          "name": "",
          "type": "uint256"
        }
      ],
      "stateMutability": "view",
      "type": "function"
    },
    {
      "inputs": [
        {
          "internalType": "uint256",
          "name": "",
          "type": "uint256"
        }
      ],
      "name": "tokenToCreator",
      "outputs": [
        {
          "internalType": "address",
          "name": "",
          "type": "address"
        }
      ],
      "stateMutability": "view",
      "type": "function"
    },
    {
      "inputs": [
        {
          "internalType": "uint256",
          "name": "",
          "type": "uint256"
        }
      ],
      "name": "tokenValueTransferred",
      "outputs": [
        {
          "internalType": "uint256",
          "name": "",
          "type": "uint256"
        }
      ],
      "stateMutability": "view",
      "type": "function"
    },
    {
      "inputs": [],
      "name": "totalPlatformFees",
      "outputs": [
        {
          "internalType": "uint256",
          "name": "",
          "type": "uint256"
        }
      ],
      "stateMutability": "view",
      "type": "function"
    },
    {
      "inputs": [
        {
          "internalType": "uint256",
          "name": "",
          "type": "uint256"
        }
      ],
      "name": "totalValueLocked",
      "outputs": [
        {
          "internalType": "uint256",
          "name": "",
          "type": "uint256"
        }
      ],
      "stateMutability": "view",
      "type": "function"
    },
    {
      "inputs": [
        {
          "internalType": "address",
          "name": "newOwner",
          "type": "address"
        }
      ],
      "name": "transferOwnership",
      "outputs": [],
      "stateMutability": "nonpayable",
      "type": "function"
    },
    {
      "inputs": [
        {
          "internalType": "uint256",
          "name": "",
          "type": "uint256"
        }
      ],
      "name": "uri",
      "outputs": [
        {
          "internalType": "string",
          "name": "",
          "type": "string"
        }
      ],
      "stateMutability": "view",
      "type": "function"
    },
    {
      "inputs": [
        {
          "internalType": "address",
          "name": "",
          "type": "address"
        },
        {
          "internalType": "uint256",
          "name": "",
          "type": "uint256"
        }
      ],
      "name": "userToHoldings",
      "outputs": [
        {
          "internalType": "uint256",
          "name": "",
          "type": "uint256"
        }
      ],
      "stateMutability": "view",
      "type": "function"
    },
    {
      "inputs": [
        {
          "internalType": "address payable",
          "name": "_owner",
          "type": "address"
        }
      ],
      "name": "withdraw",
      "outputs": [],
      "stateMutability": "nonpayable",
      "type": "function"
    },
    {
      "inputs": [
        {
          "internalType": "address",
          "name": "_from",
          "type": "address"
        },
        {
          "internalType": "address",
          "name": "_to",
          "type": "address"
        },
        {
          "internalType": "uint256",
          "name": "_id",
          "type": "uint256"
        },
        {
          "internalType": "uint256",
          "name": "_amount",
          "type": "uint256"
        },
        {
          "internalType": "bytes",
          "name": "_data",
          "type": "bytes"
        }
      ],
      "name": "safeTransferFrom",
      "outputs": [],
      "stateMutability": "nonpayable",
      "type": "function"
    },
    {
      "inputs": [
        {
          "internalType": "address",
          "name": "_from",
          "type": "address"
        },
        {
          "internalType": "address",
          "name": "_to",
          "type": "address"
        },
        {
          "internalType": "uint256[]",
          "name": "_ids",
          "type": "uint256[]"
        },
        {
          "internalType": "uint256[]",
          "name": "_amounts",
          "type": "uint256[]"
        },
        {
          "internalType": "bytes",
          "name": "_data",
          "type": "bytes"
        }
      ],
      "name": "safeBatchTransferFrom",
      "outputs": [],
      "stateMutability": "nonpayable",
      "type": "function"
    },
    {
      "inputs": [
        {
          "internalType": "address",
          "name": "_operator",
          "type": "address"
        },
        {
          "internalType": "bool",
          "name": "_approved",
          "type": "bool"
        }
      ],
      "name": "setApprovalForAll",
      "outputs": [],
      "stateMutability": "nonpayable",
      "type": "function"
    },
    {
      "inputs": [
        {
          "internalType": "address",
          "name": "_account",
          "type": "address"
        },
        {
          "internalType": "address",
          "name": "_operator",
          "type": "address"
        }
      ],
      "name": "isApprovedForAll",
      "outputs": [
        {
          "internalType": "bool",
          "name": "",
          "type": "bool"
        }
      ],
      "stateMutability": "view",
      "type": "function"
    }
  ],
  "bytecode": "0x60806040526001805560006002556000600355601460045565082f79cd900060055560b9600655600780549050600e553480156200003c57600080fd5b5060405162003e4638038062003e4683398181016040528101906200006291906200027e565b806000620000756200012c60201b60201c565b9050806000806101000a81548173ffffffffffffffffffffffffffffffffffffffff021916908373ffffffffffffffffffffffffffffffffffffffff1602179055508073ffffffffffffffffffffffffffffffffffffffff16600073ffffffffffffffffffffffffffffffffffffffff167f8be0079c531659141344cd1fd0a4f28419497f9722a3daafe3b4186f6b6457e060405160405180910390a35062000124816200013460201b60201c565b505062000453565b600033905090565b80601190805190602001906200014c92919062000150565b5050565b8280546200015e9062000364565b90600052602060002090601f016020900481019282620001825760008555620001ce565b82601f106200019d57805160ff1916838001178555620001ce565b82800160010185558215620001ce579182015b82811115620001cd578251825591602001919060010190620001b0565b5b509050620001dd9190620001e1565b5090565b5b80821115620001fc576000816000905550600101620001e2565b5090565b6000620002176200021184620002f8565b620002cf565b90508281526020810184848401111562000236576200023562000433565b5b620002438482856200032e565b509392505050565b600082601f8301126200026357620002626200042e565b5b81516200027584826020860162000200565b91505092915050565b6000602082840312156200029757620002966200043d565b5b600082015167ffffffffffffffff811115620002b857620002b762000438565b5b620002c6848285016200024b565b91505092915050565b6000620002db620002ee565b9050620002e982826200039a565b919050565b6000604051905090565b600067ffffffffffffffff821115620003165762000315620003ff565b5b620003218262000442565b9050602081019050919050565b60005b838110156200034e57808201518184015260208101905062000331565b838111156200035e576000848401525b50505050565b600060028204905060018216806200037d57607f821691505b60208210811415620003945762000393620003d0565b5b50919050565b620003a58262000442565b810181811067ffffffffffffffff82111715620003c757620003c6620003ff565b5b80604052505050565b7f4e487b7100000000000000000000000000000000000000000000000000000000600052602260045260246000fd5b7f4e487b7100000000000000000000000000000000000000000000000000000000600052604160045260246000fd5b600080fd5b600080fd5b600080fd5b600080fd5b6000601f19601f8301169050919050565b6139e380620004636000396000f3fe608060405234801561001057600080fd5b50600436106102055760003560e01c8063afb218321161011a578063d7a5791a116100ad578063e985e9c51161007c578063e985e9c514610626578063eb84175914610656578063f242432a14610672578063f2fde38b1461068e578063f7374e2e146106aa57610205565b8063d7a5791a1461058e578063d9bd3a40146105aa578063de6a06ed146105da578063e4b50cb8146105f657610205565b8063c539c317116100e9578063c539c31714610502578063ce901d8a1461051e578063d3631fa514610554578063d56b72c71461057257610205565b8063afb218321461047a578063bfb48c9c14610498578063c1d33049146104c8578063c39cbef1146104e657610205565b80632eb2c2d61161019d5780638d8168111161016c5780638d816811146103c25780638da5cb5b146103e057806392724afa146103fe578063a22cb4651461042e578063a32ce11e1461044a57610205565b80632eb2c2d6146103505780634e1273f41461036c57806351cff8d91461039c578063715018a6146103b857610205565b806317bcaa08116101d957806317bcaa08146102b657806318892ae8146102e65780631d5ad18b146103165780632a2b237c1461033257610205565b8062fdd58e1461020a57806301ffc9a71461023a57806306e320f51461026a5780630e89341c14610286575b600080fd5b610224600480360381019061021f9190612ae0565b6106c6565b60405161023191906132d4565b60405180910390f35b610254600480360381019061024f9190612b98565b610790565b60405161026191906131f5565b60405180910390f35b610284600480360381019061027f9190612cb2565b610872565b005b6102a0600480360381019061029b9190612bc5565b610919565b6040516102ad9190613210565b60405180910390f35b6102d060048036038101906102cb9190612bc5565b6109ad565b6040516102dd91906132d4565b60405180910390f35b61030060048036038101906102fb9190612bc5565b6109c5565b60405161030d91906130db565b60405180910390f35b610330600480360381019061032b9190612c32565b6109f8565b005b61033a610acd565b60405161034791906132d4565b60405180910390f35b61036a6004803603810190610365919061293a565b610ada565b005b61038660048036038101906103819190612b20565b610c46565b604051610393919061319c565b60405180910390f35b6103b660048036038101906103b19190612812565b610d5f565b005b6103c0610e25565b005b6103ca610f5f565b6040516103d7919061317a565b60405180910390f35b6103e86111f9565b6040516103f591906130db565b60405180910390f35b61041860048036038101906104139190612ae0565b611222565b60405161042591906132d4565b60405180910390f35b61044860048036038101906104439190612aa0565b611247565b005b610464600480360381019061045f91906128fa565b611344565b60405161047191906131f5565b60405180910390f35b610482611373565b60405161048f91906132d4565b60405180910390f35b6104b260048036038101906104ad9190612bf2565b611379565b6040516104bf91906132d4565b60405180910390f35b6104d061139e565b6040516104dd91906132d4565b60405180910390f35b61050060048036038101906104fb9190612cb2565b6113a4565b005b61051c60048036038101906105179190612bc5565b61144b565b005b61053860048036038101906105339190612bc5565b6114d1565b60405161054b97969594939291906130f6565b60405180910390f35b61055c6116e8565b60405161056991906132d4565b60405180910390f35b61058c6004803603810190610587919061283f565b6116ee565b005b6105a860048036038101906105a39190612bc5565b61190a565b005b6105c460048036038101906105bf9190612bc5565b611990565b6040516105d191906132d4565b60405180910390f35b6105f460048036038101906105ef9190612cb2565b6119a8565b005b610610600480360381019061060b9190612bc5565b611a4f565b60405161061d91906132b2565b60405180910390f35b610640600480360381019061063b91906128fa565b611cc6565b60405161064d91906131f5565b60405180910390f35b610670600480360381019061066b9190612812565b611d5a565b005b61068c60048036038101906106879190612a09565b611e2a565b005b6106a860048036038101906106a391906127e5565b611f0e565b005b6106c460048036038101906106bf9190612c72565b6120b7565b005b60008073ffffffffffffffffffffffffffffffffffffffff168373ffffffffffffffffffffffffffffffffffffffff161415610737576040517f08c379a000000000000000000000000000000000000000000000000000000000815260040161072e90613232565b60405180910390fd5b600f600083815260200190815260200160002060008473ffffffffffffffffffffffffffffffffffffffff1673ffffffffffffffffffffffffffffffffffffffff16815260200190815260200160002054905092915050565b60007fd9b67a26000000000000000000000000000000000000000000000000000000007bffffffffffffffffffffffffffffffffffffffffffffffffffffffff1916827bffffffffffffffffffffffffffffffffffffffffffffffffffffffff1916148061085b57507f0e89341c000000000000000000000000000000000000000000000000000000007bffffffffffffffffffffffffffffffffffffffffffffffffffffffff1916827bffffffffffffffffffffffffffffffffffffffffffffffffffffffff1916145b8061086b575061086a82612174565b5b9050919050565b826008600082815260200190815260200160002060009054906101000a900473ffffffffffffffffffffffffffffffffffffffff1673ffffffffffffffffffffffffffffffffffffffff163373ffffffffffffffffffffffffffffffffffffffff16146108de57600080fd5b8282600786815481106108f4576108f3613797565b5b9060005260206000209060070201600201919061091292919061238c565b5050505050565b6060601180546109289061368d565b80601f01602080910402602001604051908101604052809291908181526020018280546109549061368d565b80156109a15780601f10610976576101008083540402835291602001916109a1565b820191906000526020600020905b81548152906001019060200180831161098457829003601f168201915b50505050509050919050565b60096020528060005260406000206000915090505481565b60086020528060005260406000206000915054906101000a900473ffffffffffffffffffffffffffffffffffffffff1681565b816008600082815260200190815260200160002060009054906101000a900473ffffffffffffffffffffffffffffffffffffffff1673ffffffffffffffffffffffffffffffffffffffff163373ffffffffffffffffffffffffffffffffffffffff1614610a6457600080fd5b8160078481548110610a7957610a78613797565b5b906000526020600020906007020160000160006101000a81548173ffffffffffffffffffffffffffffffffffffffff021916908373ffffffffffffffffffffffffffffffffffffffff160217905550505050565b6000600780549050905090565b60005b8351811015610bc0578573ffffffffffffffffffffffffffffffffffffffff163373ffffffffffffffffffffffffffffffffffffffff161480610b265750610b258686611cc6565b5b610b2f57600080fd5b610b6e86858381518110610b4657610b45613797565b5b6020026020010151858481518110610b6157610b60613797565b5b60200260200101516121de565b610bad85858381518110610b8557610b84613797565b5b6020026020010151858481518110610ba057610b9f613797565b5b60200260200101516122b1565b8080610bb8906136f0565b915050610add565b508373ffffffffffffffffffffffffffffffffffffffff168573ffffffffffffffffffffffffffffffffffffffff163373ffffffffffffffffffffffffffffffffffffffff167f4a39dc06d4c0dbc64b70af90fd698a233a518aa5d07e595d983b8c0526c8f7fb8686604051610c379291906131be565b60405180910390a45050505050565b60608151835114610c8c576040517f08c379a0000000000000000000000000000000000000000000000000000000008152600401610c8390613292565b60405180910390fd5b6000835167ffffffffffffffff811115610ca957610ca86137c6565b5b604051908082528060200260200182016040528015610cd75781602001602082028036833780820191505090505b50905060005b8451811015610d5457610d24858281518110610cfc57610cfb613797565b5b6020026020010151858381518110610d1757610d16613797565b5b60200260200101516106c6565b828281518110610d3757610d36613797565b5b60200260200101818152505080610d4d906136f0565b9050610cdd565b508091505092915050565b610d67612384565b73ffffffffffffffffffffffffffffffffffffffff16610d856111f9565b73ffffffffffffffffffffffffffffffffffffffff1614610ddb576040517f08c379a0000000000000000000000000000000000000000000000000000000008152600401610dd290613272565b60405180910390fd5b8073ffffffffffffffffffffffffffffffffffffffff166108fc479081150290604051600060405180830381858888f19350505050158015610e21573d6000803e3d6000fd5b5050565b610e2d612384565b73ffffffffffffffffffffffffffffffffffffffff16610e4b6111f9565b73ffffffffffffffffffffffffffffffffffffffff1614610ea1576040517f08c379a0000000000000000000000000000000000000000000000000000000008152600401610e9890613272565b60405180910390fd5b600073ffffffffffffffffffffffffffffffffffffffff1660008054906101000a900473ffffffffffffffffffffffffffffffffffffffff1673ffffffffffffffffffffffffffffffffffffffff167f8be0079c531659141344cd1fd0a4f28419497f9722a3daafe3b4186f6b6457e060405160405180910390a360008060006101000a81548173ffffffffffffffffffffffffffffffffffffffff021916908373ffffffffffffffffffffffffffffffffffffffff160217905550565b60606007805480602002602001604051908101604052809291908181526020016000905b828210156111f057838290600052602060002090600702016040518060e00160405290816000820160009054906101000a900473ffffffffffffffffffffffffffffffffffffffff1673ffffffffffffffffffffffffffffffffffffffff1673ffffffffffffffffffffffffffffffffffffffff16815260200160018201805461100c9061368d565b80601f01602080910402602001604051908101604052809291908181526020018280546110389061368d565b80156110855780601f1061105a57610100808354040283529160200191611085565b820191906000526020600020905b81548152906001019060200180831161106857829003601f168201915b5050505050815260200160028201805461109e9061368d565b80601f01602080910402602001604051908101604052809291908181526020018280546110ca9061368d565b80156111175780601f106110ec57610100808354040283529160200191611117565b820191906000526020600020905b8154815290600101906020018083116110fa57829003601f168201915b505050505081526020016003820180546111309061368d565b80601f016020809104026020016040519081016040528092919081815260200182805461115c9061368d565b80156111a95780601f1061117e576101008083540402835291602001916111a9565b820191906000526020600020905b81548152906001019060200180831161118c57829003601f168201915b505050505081526020016004820160009054906101000a900460ff161515151581526020016005820154815260200160068201548152505081526020019060010190610f83565b50505050905090565b60008060009054906101000a900473ffffffffffffffffffffffffffffffffffffffff16905090565b600b602052816000526040600020602052806000526040600020600091509150505481565b80600c60003373ffffffffffffffffffffffffffffffffffffffff1673ffffffffffffffffffffffffffffffffffffffff16815260200190815260200160002060008473ffffffffffffffffffffffffffffffffffffffff1673ffffffffffffffffffffffffffffffffffffffff16815260200190815260200160002060006101000a81548160ff0219169083151502179055508173ffffffffffffffffffffffffffffffffffffffff163373ffffffffffffffffffffffffffffffffffffffff167f17307eab39ab6107e8899845ad3d59bd9653f200f220920489ca2b5937696c318360405161133891906131f5565b60405180910390a35050565b600c6020528160005260406000206020528060005260406000206000915091509054906101000a900460ff1681565b600e5481565b600a602052816000526040600020602052806000526040600020600091509150505481565b60035481565b826008600082815260200190815260200160002060009054906101000a900473ffffffffffffffffffffffffffffffffffffffff1673ffffffffffffffffffffffffffffffffffffffff163373ffffffffffffffffffffffffffffffffffffffff161461141057600080fd5b82826007868154811061142657611425613797565b5b9060005260206000209060070201600101919061144492919061238c565b5050505050565b611453612384565b73ffffffffffffffffffffffffffffffffffffffff166114716111f9565b73ffffffffffffffffffffffffffffffffffffffff16146114c7576040517f08c379a00000000000000000000000000000000000000000000000000000000081526004016114be90613272565b60405180910390fd5b8060048190555050565b600781815481106114e157600080fd5b90600052602060002090600702016000915090508060000160009054906101000a900473ffffffffffffffffffffffffffffffffffffffff169080600101805461152a9061368d565b80601f01602080910402602001604051908101604052809291908181526020018280546115569061368d565b80156115a35780601f10611578576101008083540402835291602001916115a3565b820191906000526020600020905b81548152906001019060200180831161158657829003601f168201915b5050505050908060020180546115b89061368d565b80601f01602080910402602001604051908101604052809291908181526020018280546115e49061368d565b80156116315780601f1061160657610100808354040283529160200191611631565b820191906000526020600020905b81548152906001019060200180831161161457829003601f168201915b5050505050908060030180546116469061368d565b80601f01602080910402602001604051908101604052809291908181526020018280546116729061368d565b80156116bf5780601f10611694576101008083540402835291602001916116bf565b820191906000526020600020905b8154815290600101906020018083116116a257829003601f168201915b5050505050908060040160009054906101000a900460ff16908060050154908060060154905087565b60025481565b60076040518060e001604052808673ffffffffffffffffffffffffffffffffffffffff168152602001858152602001848152602001838152602001600015158152602001600081526020016000815250908060018154018082558091505060019003906000526020600020906007020160009091909190915060008201518160000160006101000a81548173ffffffffffffffffffffffffffffffffffffffff021916908373ffffffffffffffffffffffffffffffffffffffff16021790555060208201518160010190805190602001906117ca929190612412565b5060408201518160020190805190602001906117e7929190612412565b506060820151816003019080519060200190611804929190612412565b5060808201518160040160006101000a81548160ff02191690831515021790555060a0820151816005015560c0820151816006015550506000600160078054905061184f919061357f565b9050846008600083815260200190815260200160002060006101000a81548173ffffffffffffffffffffffffffffffffffffffff021916908373ffffffffffffffffffffffffffffffffffffffff160217905550600060096000838152602001908152602001600020819055507f3ef624c0f3fb7ad40b94c02078ea3e3a797dbfc21e921ee4bd2b8ad0ca6aa113818686868660008060006040516118fb9897969594939291906132ef565b60405180910390a15050505050565b611912612384565b73ffffffffffffffffffffffffffffffffffffffff166119306111f9565b73ffffffffffffffffffffffffffffffffffffffff1614611986576040517f08c379a000000000000000000000000000000000000000000000000000000000815260040161197d90613272565b60405180910390fd5b8060018190555050565b600d6020528060005260406000206000915090505481565b826008600082815260200190815260200160002060009054906101000a900473ffffffffffffffffffffffffffffffffffffffff1673ffffffffffffffffffffffffffffffffffffffff163373ffffffffffffffffffffffffffffffffffffffff1614611a1457600080fd5b828260078681548110611a2a57611a29613797565b5b90600052602060002090600702016003019190611a4892919061238c565b5050505050565b611a57612498565b60078281548110611a6b57611a6a613797565b5b90600052602060002090600702016040518060e00160405290816000820160009054906101000a900473ffffffffffffffffffffffffffffffffffffffff1673ffffffffffffffffffffffffffffffffffffffff1673ffffffffffffffffffffffffffffffffffffffff168152602001600182018054611aea9061368d565b80601f0160208091040260200160405190810160405280929190818152602001828054611b169061368d565b8015611b635780601f10611b3857610100808354040283529160200191611b63565b820191906000526020600020905b815481529060010190602001808311611b4657829003601f168201915b50505050508152602001600282018054611b7c9061368d565b80601f0160208091040260200160405190810160405280929190818152602001828054611ba89061368d565b8015611bf55780601f10611bca57610100808354040283529160200191611bf5565b820191906000526020600020905b815481529060010190602001808311611bd857829003601f168201915b50505050508152602001600382018054611c0e9061368d565b80601f0160208091040260200160405190810160405280929190818152602001828054611c3a9061368d565b8015611c875780601f10611c5c57610100808354040283529160200191611c87565b820191906000526020600020905b815481529060010190602001808311611c6a57829003601f168201915b505050505081526020016004820160009054906101000a900460ff16151515158152602001600582015481526020016006820154815250509050919050565b6000600c60008473ffffffffffffffffffffffffffffffffffffffff1673ffffffffffffffffffffffffffffffffffffffff16815260200190815260200160002060008373ffffffffffffffffffffffffffffffffffffffff1673ffffffffffffffffffffffffffffffffffffffff16815260200190815260200160002060009054906101000a900460ff16905092915050565b611d62612384565b73ffffffffffffffffffffffffffffffffffffffff16611d806111f9565b73ffffffffffffffffffffffffffffffffffffffff1614611dd6576040517f08c379a0000000000000000000000000000000000000000000000000000000008152600401611dcd90613272565b60405180910390fd5b8073ffffffffffffffffffffffffffffffffffffffff166108fc6003549081150290604051600060405180830381858888f19350505050158015611e1e573d6000803e3d6000fd5b50600060038190555050565b8473ffffffffffffffffffffffffffffffffffffffff163373ffffffffffffffffffffffffffffffffffffffff161480611e6a5750611e698585611cc6565b5b611e7357600080fd5b611e7e8584846121de565b611e898484846122b1565b8373ffffffffffffffffffffffffffffffffffffffff168573ffffffffffffffffffffffffffffffffffffffff163373ffffffffffffffffffffffffffffffffffffffff167fc3d58168c5ae7397731d063d5bbf3d657854427343f4c083240f7aacaa2d0f628686604051611eff929190613382565b60405180910390a45050505050565b611f16612384565b73ffffffffffffffffffffffffffffffffffffffff16611f346111f9565b73ffffffffffffffffffffffffffffffffffffffff1614611f8a576040517f08c379a0000000000000000000000000000000000000000000000000000000008152600401611f8190613272565b60405180910390fd5b600073ffffffffffffffffffffffffffffffffffffffff168173ffffffffffffffffffffffffffffffffffffffff161415611ffa576040517f08c379a0000000000000000000000000000000000000000000000000000000008152600401611ff190613252565b60405180910390fd5b8073ffffffffffffffffffffffffffffffffffffffff1660008054906101000a900473ffffffffffffffffffffffffffffffffffffffff1673ffffffffffffffffffffffffffffffffffffffff167f8be0079c531659141344cd1fd0a4f28419497f9722a3daafe3b4186f6b6457e060405160405180910390a3806000806101000a81548173ffffffffffffffffffffffffffffffffffffffff021916908373ffffffffffffffffffffffffffffffffffffffff16021790555050565b6120bf612384565b73ffffffffffffffffffffffffffffffffffffffff166120dd6111f9565b73ffffffffffffffffffffffffffffffffffffffff1614612133576040517f08c379a000000000000000000000000000000000000000000000000000000000815260040161212a90613272565b60405180910390fd5b806007838154811061214857612147613797565b5b906000526020600020906007020160040160006101000a81548160ff0219169083151502179055505050565b60007f01ffc9a7000000000000000000000000000000000000000000000000000000007bffffffffffffffffffffffffffffffffffffffffffffffffffffffff1916827bffffffffffffffffffffffffffffffffffffffffffffffffffffffff1916149050919050565b80600a600084815260200190815260200160002060008573ffffffffffffffffffffffffffffffffffffffff1673ffffffffffffffffffffffffffffffffffffffff168152602001908152602001600020600082825461223e919061357f565b9250508190555080600b60008573ffffffffffffffffffffffffffffffffffffffff1673ffffffffffffffffffffffffffffffffffffffff168152602001908152602001600020600084815260200190815260200160002060008282546122a5919061357f565b92505081905550505050565b80600a600084815260200190815260200160002060008573ffffffffffffffffffffffffffffffffffffffff1673ffffffffffffffffffffffffffffffffffffffff16815260200190815260200160002060008282546123119190613529565b9250508190555080600b60008573ffffffffffffffffffffffffffffffffffffffff1673ffffffffffffffffffffffffffffffffffffffff168152602001908152602001600020600084815260200190815260200160002060008282546123789190613529565b92505081905550505050565b600033905090565b8280546123989061368d565b90600052602060002090601f0160209004810192826123ba5760008555612401565b82601f106123d357803560ff1916838001178555612401565b82800160010185558215612401579182015b828111156124005782358255916020019190600101906123e5565b5b50905061240e91906124ed565b5090565b82805461241e9061368d565b90600052602060002090601f0160209004810192826124405760008555612487565b82601f1061245957805160ff1916838001178555612487565b82800160010185558215612487579182015b8281111561248657825182559160200191906001019061246b565b5b50905061249491906124ed565b5090565b6040518060e00160405280600073ffffffffffffffffffffffffffffffffffffffff16815260200160608152602001606081526020016060815260200160001515815260200160008152602001600081525090565b5b808211156125065760008160009055506001016124ee565b5090565b600061251d612518846133d0565b6133ab565b905080838252602082019050828560208602820111156125405761253f6137ff565b5b60005b858110156125705781612556888261266e565b845260208401935060208301925050600181019050612543565b5050509392505050565b600061258d612588846133fc565b6133ab565b905080838252602082019050828560208602820111156125b0576125af6137ff565b5b60005b858110156125e057816125c688826127d0565b8452602084019350602083019250506001810190506125b3565b5050509392505050565b60006125fd6125f884613428565b6133ab565b90508281526020810184848401111561261957612618613804565b5b61262484828561364b565b509392505050565b600061263f61263a84613459565b6133ab565b90508281526020810184848401111561265b5761265a613804565b5b61266684828561364b565b509392505050565b60008135905061267d8161393a565b92915050565b60008135905061269281613951565b92915050565b600082601f8301126126ad576126ac6137fa565b5b81356126bd84826020860161250a565b91505092915050565b600082601f8301126126db576126da6137fa565b5b81356126eb84826020860161257a565b91505092915050565b60008135905061270381613968565b92915050565b6000813590506127188161397f565b92915050565b600082601f830112612733576127326137fa565b5b81356127438482602086016125ea565b91505092915050565b60008083601f840112612762576127616137fa565b5b8235905067ffffffffffffffff81111561277f5761277e6137f5565b5b60208301915083600182028301111561279b5761279a6137ff565b5b9250929050565b600082601f8301126127b7576127b66137fa565b5b81356127c784826020860161262c565b91505092915050565b6000813590506127df81613996565b92915050565b6000602082840312156127fb576127fa61380e565b5b60006128098482850161266e565b91505092915050565b6000602082840312156128285761282761380e565b5b600061283684828501612683565b91505092915050565b600080600080608085870312156128595761285861380e565b5b600061286787828801612683565b945050602085013567ffffffffffffffff81111561288857612887613809565b5b612894878288016127a2565b935050604085013567ffffffffffffffff8111156128b5576128b4613809565b5b6128c1878288016127a2565b925050606085013567ffffffffffffffff8111156128e2576128e1613809565b5b6128ee878288016127a2565b91505092959194509250565b600080604083850312156129115761291061380e565b5b600061291f8582860161266e565b92505060206129308582860161266e565b9150509250929050565b600080600080600060a086880312156129565761295561380e565b5b60006129648882890161266e565b95505060206129758882890161266e565b945050604086013567ffffffffffffffff81111561299657612995613809565b5b6129a2888289016126c6565b935050606086013567ffffffffffffffff8111156129c3576129c2613809565b5b6129cf888289016126c6565b925050608086013567ffffffffffffffff8111156129f0576129ef613809565b5b6129fc8882890161271e565b9150509295509295909350565b600080600080600060a08688031215612a2557612a2461380e565b5b6000612a338882890161266e565b9550506020612a448882890161266e565b9450506040612a55888289016127d0565b9350506060612a66888289016127d0565b925050608086013567ffffffffffffffff811115612a8757612a86613809565b5b612a938882890161271e565b9150509295509295909350565b60008060408385031215612ab757612ab661380e565b5b6000612ac58582860161266e565b9250506020612ad6858286016126f4565b9150509250929050565b60008060408385031215612af757612af661380e565b5b6000612b058582860161266e565b9250506020612b16858286016127d0565b9150509250929050565b60008060408385031215612b3757612b3661380e565b5b600083013567ffffffffffffffff811115612b5557612b54613809565b5b612b6185828601612698565b925050602083013567ffffffffffffffff811115612b8257612b81613809565b5b612b8e858286016126c6565b9150509250929050565b600060208284031215612bae57612bad61380e565b5b6000612bbc84828501612709565b91505092915050565b600060208284031215612bdb57612bda61380e565b5b6000612be9848285016127d0565b91505092915050565b60008060408385031215612c0957612c0861380e565b5b6000612c17858286016127d0565b9250506020612c288582860161266e565b9150509250929050565b60008060408385031215612c4957612c4861380e565b5b6000612c57858286016127d0565b9250506020612c6885828601612683565b9150509250929050565b60008060408385031215612c8957612c8861380e565b5b6000612c97858286016127d0565b9250506020612ca8858286016126f4565b9150509250929050565b600080600060408486031215612ccb57612cca61380e565b5b6000612cd9868287016127d0565b935050602084013567ffffffffffffffff811115612cfa57612cf9613809565b5b612d068682870161274c565b92509250509250925092565b6000612d1e8383612f69565b905092915050565b6000612d3283836130bd565b60208301905092915050565b612d47816135c5565b82525050565b612d56816135c5565b82525050565b612d65816135b3565b82525050565b6000612d76826134aa565b612d8081856134e5565b935083602082028501612d928561348a565b8060005b85811015612dce5784840389528151612daf8582612d12565b9450612dba836134cb565b925060208a01995050600181019050612d96565b50829750879550505050505092915050565b6000612deb826134b5565b612df581856134f6565b9350612e008361349a565b8060005b83811015612e31578151612e188882612d26565b9750612e23836134d8565b925050600181019050612e04565b5085935050505092915050565b612e47816135d7565b82525050565b612e56816135d7565b82525050565b612e6581613639565b82525050565b6000612e76826134c0565b612e808185613507565b9350612e9081856020860161365a565b612e9981613813565b840191505092915050565b6000612eaf826134c0565b612eb98185613518565b9350612ec981856020860161365a565b612ed281613813565b840191505092915050565b6000612eea602b83613518565b9150612ef582613824565b604082019050919050565b6000612f0d602683613518565b9150612f1882613873565b604082019050919050565b6000612f30602083613518565b9150612f3b826138c2565b602082019050919050565b6000612f53602983613518565b9150612f5e826138eb565b604082019050919050565b600060e083016000830151612f816000860182612d3e565b5060208301518482036020860152612f998282612e6b565b91505060408301518482036040860152612fb38282612e6b565b91505060608301518482036060860152612fcd8282612e6b565b9150506080830151612fe26080860182612e3e565b5060a0830151612ff560a08601826130bd565b5060c083015161300860c08601826130bd565b508091505092915050565b600060e08301600083015161302b6000860182612d3e565b50602083015184820360208601526130438282612e6b565b9150506040830151848203604086015261305d8282612e6b565b915050606083015184820360608601526130778282612e6b565b915050608083015161308c6080860182612e3e565b5060a083015161309f60a08601826130bd565b5060c08301516130b260c08601826130bd565b508091505092915050565b6130c68161362f565b82525050565b6130d58161362f565b82525050565b60006020820190506130f06000830184612d5c565b92915050565b600060e08201905061310b600083018a612d4d565b818103602083015261311d8189612ea4565b905081810360408301526131318188612ea4565b905081810360608301526131458187612ea4565b90506131546080830186612e4d565b61316160a08301856130cc565b61316e60c08301846130cc565b98975050505050505050565b600060208201905081810360008301526131948184612d6b565b905092915050565b600060208201905081810360008301526131b68184612de0565b905092915050565b600060408201905081810360008301526131d88185612de0565b905081810360208301526131ec8184612de0565b90509392505050565b600060208201905061320a6000830184612e4d565b92915050565b6000602082019050818103600083015261322a8184612ea4565b905092915050565b6000602082019050818103600083015261324b81612edd565b9050919050565b6000602082019050818103600083015261326b81612f00565b9050919050565b6000602082019050818103600083015261328b81612f23565b9050919050565b600060208201905081810360008301526132ab81612f46565b9050919050565b600060208201905081810360008301526132cc8184613013565b905092915050565b60006020820190506132e960008301846130cc565b92915050565b600061010082019050613305600083018b6130cc565b613312602083018a612d4d565b81810360408301526133248189612ea4565b905081810360608301526133388188612ea4565b9050818103608083015261334c8187612ea4565b905061335b60a0830186612e4d565b61336860c0830185612e5c565b61337560e0830184612e5c565b9998505050505050505050565b600060408201905061339760008301856130cc565b6133a460208301846130cc565b9392505050565b60006133b56133c6565b90506133c182826136bf565b919050565b6000604051905090565b600067ffffffffffffffff8211156133eb576133ea6137c6565b5b602082029050602081019050919050565b600067ffffffffffffffff821115613417576134166137c6565b5b602082029050602081019050919050565b600067ffffffffffffffff821115613443576134426137c6565b5b61344c82613813565b9050602081019050919050565b600067ffffffffffffffff821115613474576134736137c6565b5b61347d82613813565b9050602081019050919050565b6000819050602082019050919050565b6000819050602082019050919050565b600081519050919050565b600081519050919050565b600081519050919050565b6000602082019050919050565b6000602082019050919050565b600082825260208201905092915050565b600082825260208201905092915050565b600082825260208201905092915050565b600082825260208201905092915050565b60006135348261362f565b915061353f8361362f565b9250827fffffffffffffffffffffffffffffffffffffffffffffffffffffffffffffffff0382111561357457613573613739565b5b828201905092915050565b600061358a8261362f565b91506135958361362f565b9250828210156135a8576135a7613739565b5b828203905092915050565b60006135be8261360f565b9050919050565b60006135d08261360f565b9050919050565b60008115159050919050565b60007fffffffff0000000000000000000000000000000000000000000000000000000082169050919050565b600073ffffffffffffffffffffffffffffffffffffffff82169050919050565b6000819050919050565b60006136448261362f565b9050919050565b82818337600083830152505050565b60005b8381101561367857808201518184015260208101905061365d565b83811115613687576000848401525b50505050565b600060028204905060018216806136a557607f821691505b602082108114156136b9576136b8613768565b5b50919050565b6136c882613813565b810181811067ffffffffffffffff821117156136e7576136e66137c6565b5b80604052505050565b60006136fb8261362f565b91507fffffffffffffffffffffffffffffffffffffffffffffffffffffffffffffffff82141561372e5761372d613739565b5b600182019050919050565b7f4e487b7100000000000000000000000000000000000000000000000000000000600052601160045260246000fd5b7f4e487b7100000000000000000000000000000000000000000000000000000000600052602260045260246000fd5b7f4e487b7100000000000000000000000000000000000000000000000000000000600052603260045260246000fd5b7f4e487b7100000000000000000000000000000000000000000000000000000000600052604160045260246000fd5b600080fd5b600080fd5b600080fd5b600080fd5b600080fd5b600080fd5b6000601f19601f8301169050919050565b7f455243313135353a2062616c616e636520717565727920666f7220746865207a60008201527f65726f2061646472657373000000000000000000000000000000000000000000602082015250565b7f4f776e61626c653a206e6577206f776e657220697320746865207a65726f206160008201527f6464726573730000000000000000000000000000000000000000000000000000602082015250565b7f4f776e61626c653a2063616c6c6572206973206e6f7420746865206f776e6572600082015250565b7f455243313135353a206163636f756e747320616e6420696473206c656e67746860008201527f206d69736d617463680000000000000000000000000000000000000000000000602082015250565b613943816135b3565b811461394e57600080fd5b50565b61395a816135c5565b811461396557600080fd5b50565b613971816135d7565b811461397c57600080fd5b50565b613988816135e3565b811461399357600080fd5b50565b61399f8161362f565b81146139aa57600080fd5b5056fea26469706673582212208454a898526f503d41421eaf82efd2bac3a382c19f691de04cfc162485a7f0e964736f6c63430008060033",
  "immutableReferences": {},
  "source": "// SPDX-License-Identifier: MIT\npragma solidity ^0.8.0;\n\nimport \"./creatortokenhelper.sol\";\nimport \"@openzeppelin/contracts/token/ERC1155/ERC1155.sol\";\n\n/// @title Contract inheriting from the ERC1155 standard\n/// @author Kamil Alizai Sadik\ncontract CreatorTokenOwnership is CreatorTokenHelper, ERC1155 {\n\n\tconstructor(string memory uri) ERC1155(uri) { }\n\n\t/// @dev Increases holdership stats of a given token\n\t/// @param _account Wallet address whose holdership is being updated\n\t/// @param _id ID of the token whose holdership is being updated\n\t/// @param _amount Amount of the change in token holdership\n\tfunction mappingIncrease(address _account, uint256 _id, uint256 _amount) internal {\n\t\ttokenHoldership[_id][_account] += _amount;\n\t\tuserToHoldings[_account][_id] += _amount;\n\t}\n\n\t/// @dev Decreases holdership stats of a given token\n\t/// @param _account Wallet address whose holdership is being updated\n\t/// @param _id ID of the token whose holdership is being updated\n\t/// @param _amount Amount of the change in token holdership\n\tfunction mappingDecrease(address _account, uint256 _id, uint256 _amount) internal {\n\t\ttokenHoldership[_id][_account] -= _amount;\n\t\tuserToHoldings[_account][_id] -= _amount;\n\t}\n\n\t/// @dev Mints a token\n\t/// @param _to Wallet address the newly minted token is assigned to\n\t/// @param _id ID of the newly minted token\n\t/// @param _amount Quantity of token to be minted\n\t/// @param _data Data\n\tfunction _mint(address _to, uint256 _id, uint256 _amount, bytes memory _data) internal override {\n\t\t//require(hasRole(MINTER_ROLE, msg.sender));\n\t\t// Update tokenHoldership mapping\n\t\tmappingIncrease(_to, _id, _amount);\n\t\t// Increase token amount outstanding\n\t\tcreatorTokens[_id].outstanding += _amount;\n\t\t// Emit single transfer event\n\t\temit TransferSingle(msg.sender, address(0), _to, _id, _amount);\n\t}\n\n\t/// @dev Mints a batch of tokens\n\t/// @param _to Wallet address the newly minted token is assigned to\n\t/// @param _ids Array of IDs of tokens to be minted\n\t/// @param _amounts Array of quantities of tokens to be minted\n\t/// @param _data Data\n\tfunction _mintBatch(address _to, uint256[] memory _ids, uint256[] memory _amounts, bytes memory _data) internal override {\n\t\t//require(hasRole(MINTER_ROLE, msg.sender));\n\t\t// Iterate through _ids\n\t\tfor (uint256 i=0; i<_ids.length; i++) {\n\t\t\t// Update tokenHoldership mapping\n\t\t\tmappingIncrease(_to, _ids[i], _amounts[i]);\n\t\t\t// Increase token amount outstanding\n\t\t\tcreatorTokens[_ids[i]].outstanding += _amounts[i];\n\t\t}\n\t\t// Emit batch transfer event\n\t\temit TransferBatch(msg.sender, address(0), _to, _ids, _amounts);\n\t}\n\n\t/// @dev Burns a token\n\t/// @param _account Account whose tokens are being burned\n\t/// @param _id ID of the token being burned\n\t/// @param _amount Quantity of the token to be burned\n\tfunction _burn(address _account, uint256 _id, uint256 _amount) internal override {\n\t\trequire(msg.sender == _account);\n\t\t// Update tokenHoldership mapping\n\t\tmappingDecrease(_account, _id, _amount);\n\t\t// Decrease token amount outstanding\n\t\tcreatorTokens[_id].outstanding -= _amount;\n\t\t// Emit single transfer event\n\t\temit TransferSingle(msg.sender, _account, address(0), _id, _amount);\n\t}\n\n\t/// @dev Burns a batch of tokens\n\t/// @param _account Account whose tokens are being burned\n\t/// @param _ids Array of IDs of the tokens being burned\n\t/// @param _amounts Array of quantities of the tokens to be burned\n\tfunction _burnBatch(address _account, uint256[] memory _ids, uint256[] memory _amounts) internal override {\n\t\trequire(msg.sender == _account);\n\t\t// Iterate through _ids\n\t\tfor (uint256 i=0; i<_ids.length; i++) {\n\t\t\t// Update tokenHoldership mapping\n\t\t\tmappingDecrease(_account, _ids[i], _amounts[i]);\n\t\t\t// Decrease token amount outstanding\n\t\t\tcreatorTokens[_ids[i]].outstanding -= _amounts[i];\n\t\t}\n\t\t// Emit batch transfer event\n\t\temit TransferBatch(msg.sender, _account, address(0), _ids, _amounts);\n\t}\n\n\t/// @dev Transfers a token\n\t/// @param _from Address token is being transferred from\n\t/// @param _to Address token is being transferred to\n\t/// @param _id ID of token being transferred\n\t/// @param _amount Quantity of token to be transferred\n\t/// @param _data Data\n\tfunction safeTransferFrom(address _from, address _to, uint256 _id, uint256 _amount, bytes memory _data) public override {\n\t\t// Require that msg.sender == _from, or that approvals[_from][_to] == true\n\t\trequire(msg.sender == _from || isApprovedForAll(_from, _to));\n\t\t// Reduce tokenHoldership holdings of _from\n\t\tmappingDecrease(_from, _id, _amount);\n\t\t// Increase tokenHoldership holdings of _to\n\t\tmappingIncrease(_to, _id, _amount);\n\t\t// Emit single transfer event\n\t\temit TransferSingle(msg.sender, _from, _to, _id, _amount);\n\t}\n\n\t/// @dev Transfers a batch of tokens\n\t/// @param _from Address token is being transferred from\n\t/// @param _to Address token is being transferred to\n\t/// @param _ids Array of IDs of tokens being transferred\n\t/// @param _amounts Array of quantities of token to be transferred\n\t/// @param _data Data\n\tfunction safeBatchTransferFrom(address _from, address _to, uint256[] memory _ids, uint256[] memory _amounts, bytes memory _data) public override {\n\t\t// Iterate through _ids\n\t\tfor (uint256 i=0; i<_ids.length; i++) {\n\t\t\t// Require that msg.sender == _from, or that approvals[_from][_to] == true\n\t\t\trequire(msg.sender == _from || isApprovedForAll(_from, _to));\n\t\t\t// Reduce tokenHoldership holdings of _from\n\t\t\tmappingDecrease(_from, _ids[i], _amounts[i]);\n\t\t\t// Increase tokenHoldership holdings of _to\n\t\t\tmappingIncrease(_to, _ids[i], _amounts[i]);\n\t\t}\n\t\t// Emit batch transfer event\n\t\temit TransferBatch(msg.sender, _from, _to, _ids, _amounts);\n\t}\n\n\t/// @dev Gives operator permission to transfer caller's tokens\n\t/// @param _operator Wallet address being granted permission\n\t/// @param _approved Boolean value indicating whether operator is approved\n\tfunction setApprovalForAll(address _operator, bool _approved) public override {\n\t\t// Update approvals mapping\n\t\tapprovals[msg.sender][_operator] = _approved;\n\t\t// Emit Approval event\n\t\temit ApprovalForAll(msg.sender, _operator, _approved);\n\t}\n\n\t/// @dev Denotes whether operator is approved to transfer account's tokens\n\t/// @param _account Wallet address holding tokens\n\t/// @param _operator Wallet address which is/isn't approved to transfer _account's tokens\n\t/// @return Boolean value indicating approval status\n\tfunction isApprovedForAll(address _account, address _operator) public view override returns (bool) {\n\t\t// Look up approvals mapping\n\t\treturn approvals[_account][_operator];\n\t}\n\n\t/// @dev Returns balance of a given token at a given address. Commented this out since this info is visible in tokenHoldership and userToHoldings mappings.\n\t/// @param _account Account in question\n\t/// @param _id ID of token whose balance we wish to find\n\t/// @return Quantity of token _id in _account\n\t//function balanceOf(address _account, uint256 _id) public view override returns (uint256) {\n\t\t// Look up _account's holdings of _id in tokenHoldership\n\t//\treturn tokenHoldership[_id][_account];\n\t//}\n\n\t/// @dev Returns balance of a batch of tokens. Commented this out since this info is visible in tokenHoldership and userToHoldings mappings.\n\t/// @param _accounts Array of accounts in question\n\t/// @param _ids Array of IDs of token whose balances we wish to find\n\t/// @return Array of quantities of tokens _ids in _accounts\n\t//function balanceOfBatch(address[] calldata _accounts, uint256[] calldata _ids) public view override returns (uint256[] memory) {\n\t//\t// Initialize output array\n\t//\tuint256[] memory batchBalances = new uint256[](_accounts.length);\n\t//\t// Iterate through _accounts\n\t//\tfor (uint256 i = 0; i < _accounts.length; i++) {\n\t//\t\t// Look up _account's holdings of _id in tokenHoldership\n\t//\t\tbatchBalances[i] = tokenHoldership[_ids[i]][_accounts[i]];\n\t//\t}\n\t//\t// Return output array\n\t//\treturn batchBalances;\n\t//}\n}",
  "sourcePath": "/Users/kamilalizaisadik/DeFi/Dynamic Automated Market Maker/CreatorTokenExchange/contracts/creatortokenownership.sol",
  "compiler": {
    "name": "solc",
    "version": "0.8.6+commit.11564f7e.Emscripten.clang"
  },
  "schemaVersion": "3.4.1",
  "updatedAt": "2021-07-31T15:41:24.845Z",
  "devdoc": {
    "author": "Kamil Alizai Sadik",
    "kind": "dev",
    "methods": {
      "balanceOf(address,uint256)": {
        "details": "See {IERC1155-balanceOf}. Requirements: - `account` cannot be the zero address."
      },
      "balanceOfBatch(address[],uint256[])": {
        "details": "See {IERC1155-balanceOfBatch}. Requirements: - `accounts` and `ids` must have the same length."
      },
      "changeAddress(uint256,address)": {
        "details": "Allows token creator to change their address",
        "params": {
          "_newCreatorAddress": "New creator address associated with the token",
          "_tokenId": "ID of the token in question"
        }
      },
      "changeDescription(uint256,string)": {
        "details": "Allows token creator to change the description of their token",
        "params": {
          "_newDescription": "New description associated with the token",
          "_tokenId": "ID of the token in question"
        }
      },
      "changeName(uint256,string)": {
        "details": "Allows token creator to change the name of their token",
        "params": {
          "_newName": "New name associated with the token",
          "_tokenId": "ID of the token in question"
        }
      },
      "changePlatformFee(uint256)": {
        "details": "Allows owner to change platformFee",
        "params": {
          "_newPlatformFee": "New platform fee"
        }
      },
      "changeProfitMargin(uint256)": {
        "details": "Allows owner to change profit_margin",
        "params": {
          "_newProfitMargin": "New profit margin"
        }
      },
      "changeSymbol(uint256,string)": {
        "details": "Allows token creator to change the symbol of their token",
        "params": {
          "_newSymbol": "New symbol associated with the token",
          "_tokenId": "ID of the token in question"
        }
      },
      "changeVerification(uint256,bool)": {
        "details": "Allows owner to verify (or undo verification) of a CreatorToken",
        "params": {
          "_tokenId": "ID of the token in question",
          "_verified": "Verification status of the token in question"
        }
      },
      "createCreatorToken(address,string,string,string)": {
        "details": "Creates a new creator token",
        "params": {
          "_creatorAddress": "Address of the creator of the token",
          "_description": "chosen by the creator of the tokens",
          "_name": "Name chosen by the creator of the token",
          "_symbol": "Ticker symbol chosen by the creator of the token"
        }
      },
      "getCreatorTokenCount()": {
        "details": "Returns the current length of the creatorTokens array",
        "returns": {
          "_0": "uint representing number of unique Creator Tokens"
        }
      },
      "getCreatorTokens()": {
        "details": "Returns entire array of tokens",
        "returns": {
          "_0": "CreatorToken[]"
        }
      },
      "getToken(uint256)": {
        "details": "Returns token with a particular id",
        "params": {
          "_id": "Id of desired token"
        },
        "returns": {
          "_0": "CreatorToken"
        }
      },
      "isApprovedForAll(address,address)": {
        "details": "Denotes whether operator is approved to transfer account's tokens",
        "params": {
          "_account": "Wallet address holding tokens",
          "_operator": "Wallet address which is/isn't approved to transfer _account's tokens"
        },
        "returns": {
          "_0": "Boolean value indicating approval status"
        }
      },
      "owner()": {
        "details": "Returns the address of the current owner."
      },
      "payoutPlatformFees(address)": {
        "details": "Pays out platform fees owed to owner (might opt to call this daily)",
        "params": {
          "_owner": "Owner of the smart contract"
        }
      },
      "renounceOwnership()": {
        "details": "Leaves the contract without owner. It will not be possible to call `onlyOwner` functions anymore. Can only be called by the current owner. NOTE: Renouncing ownership will leave the contract without an owner, thereby removing any functionality that is only available to the owner."
      },
      "safeBatchTransferFrom(address,address,uint256[],uint256[],bytes)": {
        "details": "Transfers a batch of tokens",
        "params": {
          "_amounts": "Array of quantities of token to be transferred",
          "_data": "Data",
          "_from": "Address token is being transferred from",
          "_ids": "Array of IDs of tokens being transferred",
          "_to": "Address token is being transferred to"
        }
      },
      "safeTransferFrom(address,address,uint256,uint256,bytes)": {
        "details": "Transfers a token",
        "params": {
          "_amount": "Quantity of token to be transferred",
          "_data": "Data",
          "_from": "Address token is being transferred from",
          "_id": "ID of token being transferred",
          "_to": "Address token is being transferred to"
        }
      },
      "setApprovalForAll(address,bool)": {
        "details": "Gives operator permission to transfer caller's tokens",
        "params": {
          "_approved": "Boolean value indicating whether operator is approved",
          "_operator": "Wallet address being granted permission"
        }
      },
      "supportsInterface(bytes4)": {
        "details": "See {IERC165-supportsInterface}."
      },
      "transferOwnership(address)": {
        "details": "Transfers ownership of the contract to a new account (`newOwner`). Can only be called by the current owner."
      },
      "uri(uint256)": {
        "details": "See {IERC1155MetadataURI-uri}. This implementation returns the same URI for *all* token types. It relies on the token type ID substitution mechanism https://eips.ethereum.org/EIPS/eip-1155#metadata[defined in the EIP]. Clients calling this function must replace the `\\{id\\}` substring with the actual token type ID."
      },
      "withdraw(address)": {
        "details": "Ownable function allowing for withdrawal",
        "params": {
          "_owner": "Owner of the smart contract"
        }
      }
    },
    "title": "Contract inheriting from the ERC1155 standard",
    "version": 1
  },
  "userdoc": {
    "kind": "user",
    "methods": {},
    "version": 1
  }
}