{
  "contractName": "CreatorTokenExchange",
  "abi": [
    {
      "inputs": [
        {
          "internalType": "string",
          "name": "uri",
          "type": "string"
        }
      ],
      "stateMutability": "nonpayable",
      "type": "constructor"
    },
    {
      "anonymous": false,
      "inputs": [
        {
          "indexed": true,
          "internalType": "address",
          "name": "account",
          "type": "address"
        },
        {
          "indexed": true,
          "internalType": "address",
          "name": "operator",
          "type": "address"
        },
        {
          "indexed": false,
          "internalType": "bool",
          "name": "approved",
          "type": "bool"
        }
      ],
      "name": "ApprovalForAll",
      "type": "event"
    },
    {
      "anonymous": false,
      "inputs": [
        {
          "indexed": false,
          "internalType": "uint256",
          "name": "tokenId",
          "type": "uint256"
        },
        {
          "indexed": false,
          "internalType": "address payable",
          "name": "creatorAddress",
          "type": "address"
        },
        {
          "indexed": false,
          "internalType": "string",
          "name": "name",
          "type": "string"
        },
        {
          "indexed": false,
          "internalType": "string",
          "name": "symbol",
          "type": "string"
        },
        {
          "indexed": false,
          "internalType": "string",
          "name": "description",
          "type": "string"
        },
        {
          "indexed": false,
          "internalType": "bool",
          "name": "verified",
          "type": "bool"
        },
        {
          "indexed": false,
          "internalType": "uint256",
          "name": "outstanding",
          "type": "uint256"
        },
        {
          "indexed": false,
          "internalType": "uint256",
          "name": "maxSupply",
          "type": "uint256"
        }
      ],
      "name": "NewCreatorToken",
      "type": "event"
    },
    {
      "anonymous": false,
      "inputs": [
        {
          "indexed": true,
          "internalType": "address",
          "name": "account",
          "type": "address"
        },
        {
          "indexed": false,
          "internalType": "uint256",
          "name": "amount",
          "type": "uint256"
        },
        {
          "indexed": false,
          "internalType": "string",
          "name": "transactionType",
          "type": "string"
        },
        {
          "indexed": false,
          "internalType": "uint256",
          "name": "tokenId",
          "type": "uint256"
        },
        {
          "indexed": false,
          "internalType": "string",
          "name": "name",
          "type": "string"
        },
        {
          "indexed": false,
          "internalType": "string",
          "name": "symbol",
          "type": "string"
        }
      ],
      "name": "NewTransaction",
      "type": "event"
    },
    {
      "anonymous": false,
      "inputs": [
        {
          "indexed": true,
          "internalType": "address",
          "name": "previousOwner",
          "type": "address"
        },
        {
          "indexed": true,
          "internalType": "address",
          "name": "newOwner",
          "type": "address"
        }
      ],
      "name": "OwnershipTransferred",
      "type": "event"
    },
    {
      "anonymous": false,
      "inputs": [
        {
          "indexed": true,
          "internalType": "address",
          "name": "operator",
          "type": "address"
        },
        {
          "indexed": true,
          "internalType": "address",
          "name": "from",
          "type": "address"
        },
        {
          "indexed": true,
          "internalType": "address",
          "name": "to",
          "type": "address"
        },
        {
          "indexed": false,
          "internalType": "uint256[]",
          "name": "ids",
          "type": "uint256[]"
        },
        {
          "indexed": false,
          "internalType": "uint256[]",
          "name": "values",
          "type": "uint256[]"
        }
      ],
      "name": "TransferBatch",
      "type": "event"
    },
    {
      "anonymous": false,
      "inputs": [
        {
          "indexed": true,
          "internalType": "address",
          "name": "operator",
          "type": "address"
        },
        {
          "indexed": true,
          "internalType": "address",
          "name": "from",
          "type": "address"
        },
        {
          "indexed": true,
          "internalType": "address",
          "name": "to",
          "type": "address"
        },
        {
          "indexed": false,
          "internalType": "uint256",
          "name": "id",
          "type": "uint256"
        },
        {
          "indexed": false,
          "internalType": "uint256",
          "name": "value",
          "type": "uint256"
        }
      ],
      "name": "TransferSingle",
      "type": "event"
    },
    {
      "anonymous": false,
      "inputs": [
        {
          "indexed": false,
          "internalType": "string",
          "name": "value",
          "type": "string"
        },
        {
          "indexed": true,
          "internalType": "uint256",
          "name": "id",
          "type": "uint256"
        }
      ],
      "name": "URI",
      "type": "event"
    },
    {
      "inputs": [
        {
          "internalType": "uint256",
          "name": "_tokenId",
          "type": "uint256"
        },
        {
          "internalType": "uint256",
          "name": "_amount",
          "type": "uint256"
        }
      ],
      "name": "_buyProceeds",
      "outputs": [
        {
          "internalType": "uint256",
          "name": "",
          "type": "uint256"
        }
      ],
      "stateMutability": "view",
      "type": "function",
      "constant": true
    },
    {
      "inputs": [
        {
          "internalType": "uint256",
          "name": "_proceedsRequired",
          "type": "uint256"
        }
      ],
      "name": "_feeProceeds",
      "outputs": [
        {
          "internalType": "uint256",
          "name": "",
          "type": "uint256"
        }
      ],
      "stateMutability": "view",
      "type": "function",
      "constant": true
    },
    {
      "inputs": [
        {
          "internalType": "uint256",
          "name": "_tokenId",
          "type": "uint256"
        },
        {
          "internalType": "uint256",
          "name": "_amount",
          "type": "uint256"
        }
      ],
      "name": "_totalProceeds",
      "outputs": [
        {
          "internalType": "uint256",
          "name": "",
          "type": "uint256"
        }
      ],
      "stateMutability": "view",
      "type": "function",
      "constant": true
    },
    {
      "inputs": [
        {
          "internalType": "address",
          "name": "account",
          "type": "address"
        },
        {
          "internalType": "uint256",
          "name": "id",
          "type": "uint256"
        }
      ],
      "name": "balanceOf",
      "outputs": [
        {
          "internalType": "uint256",
          "name": "",
          "type": "uint256"
        }
      ],
      "stateMutability": "view",
      "type": "function",
      "constant": true
    },
    {
      "inputs": [
        {
          "internalType": "address[]",
          "name": "accounts",
          "type": "address[]"
        },
        {
          "internalType": "uint256[]",
          "name": "ids",
          "type": "uint256[]"
        }
      ],
      "name": "balanceOfBatch",
      "outputs": [
        {
          "internalType": "uint256[]",
          "name": "",
          "type": "uint256[]"
        }
      ],
      "stateMutability": "view",
      "type": "function",
      "constant": true
    },
    {
      "inputs": [
        {
          "internalType": "uint256",
          "name": "_tokenId",
          "type": "uint256"
        },
        {
          "internalType": "address payable",
          "name": "_newCreatorAddress",
          "type": "address"
        }
      ],
      "name": "changeAddress",
      "outputs": [],
      "stateMutability": "nonpayable",
      "type": "function"
    },
    {
      "inputs": [
        {
          "internalType": "uint256",
          "name": "_tokenId",
          "type": "uint256"
        },
        {
          "internalType": "string",
          "name": "_newDescription",
          "type": "string"
        }
      ],
      "name": "changeDescription",
      "outputs": [],
      "stateMutability": "nonpayable",
      "type": "function"
    },
    {
      "inputs": [
        {
          "internalType": "uint256",
          "name": "_tokenId",
          "type": "uint256"
        },
        {
          "internalType": "string",
          "name": "_newName",
          "type": "string"
        }
      ],
      "name": "changeName",
      "outputs": [],
      "stateMutability": "nonpayable",
      "type": "function"
    },
    {
      "inputs": [
        {
          "internalType": "uint256",
          "name": "_newPlatformFee",
          "type": "uint256"
        }
      ],
      "name": "changePlatformFee",
      "outputs": [],
      "stateMutability": "nonpayable",
      "type": "function"
    },
    {
      "inputs": [
        {
          "internalType": "uint256",
          "name": "_newProfitMargin",
          "type": "uint256"
        }
      ],
      "name": "changeProfitMargin",
      "outputs": [],
      "stateMutability": "nonpayable",
      "type": "function"
    },
    {
      "inputs": [
        {
          "internalType": "uint256",
          "name": "_tokenId",
          "type": "uint256"
        },
        {
          "internalType": "string",
          "name": "_newSymbol",
          "type": "string"
        }
      ],
      "name": "changeSymbol",
      "outputs": [],
      "stateMutability": "nonpayable",
      "type": "function"
    },
    {
      "inputs": [
        {
          "internalType": "uint256",
          "name": "_tokenId",
          "type": "uint256"
        },
        {
          "internalType": "bool",
          "name": "_verified",
          "type": "bool"
        }
      ],
      "name": "changeVerification",
      "outputs": [],
      "stateMutability": "nonpayable",
      "type": "function"
    },
    {
      "inputs": [
        {
          "internalType": "address payable",
          "name": "_creatorAddress",
          "type": "address"
        },
        {
          "internalType": "string",
          "name": "_name",
          "type": "string"
        },
        {
          "internalType": "string",
          "name": "_symbol",
          "type": "string"
        },
        {
          "internalType": "string",
          "name": "_description",
          "type": "string"
        }
      ],
      "name": "createCreatorToken",
      "outputs": [],
      "stateMutability": "nonpayable",
      "type": "function"
    },
    {
      "inputs": [
        {
          "internalType": "uint256",
          "name": "",
          "type": "uint256"
        }
      ],
      "name": "creatorTokens",
      "outputs": [
        {
          "internalType": "address payable",
          "name": "creatorAddress",
          "type": "address"
        },
        {
          "internalType": "string",
          "name": "name",
          "type": "string"
        },
        {
          "internalType": "string",
          "name": "symbol",
          "type": "string"
        },
        {
          "internalType": "string",
          "name": "description",
          "type": "string"
        },
        {
          "internalType": "bool",
          "name": "verified",
          "type": "bool"
        },
        {
          "internalType": "uint256",
          "name": "outstanding",
          "type": "uint256"
        },
        {
          "internalType": "uint256",
          "name": "maxSupply",
          "type": "uint256"
        }
      ],
      "stateMutability": "view",
      "type": "function",
      "constant": true
    },
    {
      "inputs": [
        {
          "internalType": "address",
          "name": "_account",
          "type": "address"
        },
        {
          "internalType": "address",
          "name": "_operator",
          "type": "address"
        }
      ],
      "name": "isApprovedForAll",
      "outputs": [
        {
          "internalType": "bool",
          "name": "",
          "type": "bool"
        }
      ],
      "stateMutability": "view",
      "type": "function",
      "constant": true
    },
    {
      "inputs": [],
      "name": "owner",
      "outputs": [
        {
          "internalType": "address",
          "name": "",
          "type": "address"
        }
      ],
      "stateMutability": "view",
      "type": "function",
      "constant": true
    },
    {
      "inputs": [
        {
          "internalType": "address payable",
          "name": "_owner",
          "type": "address"
        }
      ],
      "name": "payoutPlatformFees",
      "outputs": [],
      "stateMutability": "nonpayable",
      "type": "function"
    },
    {
      "inputs": [],
      "name": "platformFeesOwed",
      "outputs": [
        {
          "internalType": "uint256",
          "name": "",
          "type": "uint256"
        }
      ],
      "stateMutability": "view",
      "type": "function",
      "constant": true
    },
    {
      "inputs": [],
      "name": "renounceOwnership",
      "outputs": [],
      "stateMutability": "nonpayable",
      "type": "function"
    },
    {
      "inputs": [
        {
          "internalType": "address",
          "name": "_from",
          "type": "address"
        },
        {
          "internalType": "address",
          "name": "_to",
          "type": "address"
        },
        {
          "internalType": "uint256[]",
          "name": "_ids",
          "type": "uint256[]"
        },
        {
          "internalType": "uint256[]",
          "name": "_amounts",
          "type": "uint256[]"
        },
        {
          "internalType": "bytes",
          "name": "data",
          "type": "bytes"
        }
      ],
      "name": "safeBatchTransferFrom",
      "outputs": [],
      "stateMutability": "nonpayable",
      "type": "function"
    },
    {
      "inputs": [
        {
          "internalType": "address",
          "name": "_from",
          "type": "address"
        },
        {
          "internalType": "address",
          "name": "_to",
          "type": "address"
        },
        {
          "internalType": "uint256",
          "name": "_id",
          "type": "uint256"
        },
        {
          "internalType": "uint256",
          "name": "_amount",
          "type": "uint256"
        },
        {
          "internalType": "bytes",
          "name": "_data",
          "type": "bytes"
        }
      ],
      "name": "safeTransferFrom",
      "outputs": [],
      "stateMutability": "nonpayable",
      "type": "function"
    },
    {
      "inputs": [
        {
          "internalType": "address",
          "name": "_operator",
          "type": "address"
        },
        {
          "internalType": "bool",
          "name": "_approved",
          "type": "bool"
        }
      ],
      "name": "setApprovalForAll",
      "outputs": [],
      "stateMutability": "nonpayable",
      "type": "function"
    },
    {
      "inputs": [
        {
          "internalType": "bytes4",
          "name": "interfaceId",
          "type": "bytes4"
        }
      ],
      "name": "supportsInterface",
      "outputs": [
        {
          "internalType": "bool",
          "name": "",
          "type": "bool"
        }
      ],
      "stateMutability": "view",
      "type": "function",
      "constant": true
    },
    {
      "inputs": [
        {
          "internalType": "uint256",
          "name": "",
          "type": "uint256"
        },
        {
          "internalType": "address",
          "name": "",
          "type": "address"
        }
      ],
      "name": "tokenHoldership",
      "outputs": [
        {
          "internalType": "uint256",
          "name": "",
          "type": "uint256"
        }
      ],
      "stateMutability": "view",
      "type": "function",
      "constant": true
    },
    {
      "inputs": [
        {
          "internalType": "uint256",
          "name": "",
          "type": "uint256"
        }
      ],
      "name": "tokenToCreator",
      "outputs": [
        {
          "internalType": "address",
          "name": "",
          "type": "address"
        }
      ],
      "stateMutability": "view",
      "type": "function",
      "constant": true
    },
    {
      "inputs": [],
      "name": "totalPlatformFees",
      "outputs": [
        {
          "internalType": "uint256",
          "name": "",
          "type": "uint256"
        }
      ],
      "stateMutability": "view",
      "type": "function",
      "constant": true
    },
    {
      "inputs": [
        {
          "internalType": "address",
          "name": "newOwner",
          "type": "address"
        }
      ],
      "name": "transferOwnership",
      "outputs": [],
      "stateMutability": "nonpayable",
      "type": "function"
    },
    {
      "inputs": [
        {
          "internalType": "uint256",
          "name": "",
          "type": "uint256"
        }
      ],
      "name": "uri",
      "outputs": [
        {
          "internalType": "string",
          "name": "",
          "type": "string"
        }
      ],
      "stateMutability": "view",
      "type": "function",
      "constant": true
    },
    {
      "inputs": [
        {
          "internalType": "address",
          "name": "",
          "type": "address"
        },
        {
          "internalType": "uint256",
          "name": "",
          "type": "uint256"
        }
      ],
      "name": "userToHoldings",
      "outputs": [
        {
          "internalType": "uint256",
          "name": "",
          "type": "uint256"
        }
      ],
      "stateMutability": "view",
      "type": "function",
      "constant": true
    },
    {
      "inputs": [
        {
          "internalType": "address payable",
          "name": "_owner",
          "type": "address"
        }
      ],
      "name": "withdraw",
      "outputs": [],
      "stateMutability": "nonpayable",
      "type": "function"
    },
    {
      "inputs": [
        {
          "internalType": "uint256",
          "name": "_tokenId",
          "type": "uint256"
        },
        {
          "internalType": "uint256",
          "name": "_amount",
          "type": "uint256"
        }
      ],
      "name": "buyCreatorToken",
      "outputs": [],
      "stateMutability": "payable",
      "type": "function",
      "payable": true
    },
    {
      "inputs": [
        {
          "internalType": "uint256",
          "name": "_tokenId",
          "type": "uint256"
        },
        {
          "internalType": "uint256",
          "name": "_amount",
          "type": "uint256"
        },
        {
          "internalType": "address payable",
          "name": "_seller",
          "type": "address"
        }
      ],
      "name": "sellCreatorToken",
      "outputs": [],
      "stateMutability": "payable",
      "type": "function",
      "payable": true
    }
  ],
  "bytecode": "0x60806040526001805560006002556000600355601460045565082f79cd900060055560b96006553480156200003357600080fd5b50604051620047ad380380620047ad83398181016040528101906200005991906200027d565b80808080806000620000706200012b60201b60201c565b9050806000806101000a81548173ffffffffffffffffffffffffffffffffffffffff021916908373ffffffffffffffffffffffffffffffffffffffff1602179055508073ffffffffffffffffffffffffffffffffffffffff16600073ffffffffffffffffffffffffffffffffffffffff167f8be0079c531659141344cd1fd0a4f28419497f9722a3daafe3b4186f6b6457e060405160405180910390a3506200011f816200013360201b60201c565b50505050505062000452565b600033905090565b80600f90805190602001906200014b9291906200014f565b5050565b8280546200015d9062000363565b90600052602060002090601f016020900481019282620001815760008555620001cd565b82601f106200019c57805160ff1916838001178555620001cd565b82800160010185558215620001cd579182015b82811115620001cc578251825591602001919060010190620001af565b5b509050620001dc9190620001e0565b5090565b5b80821115620001fb576000816000905550600101620001e1565b5090565b6000620002166200021084620002f7565b620002ce565b90508281526020810184848401111562000235576200023462000432565b5b620002428482856200032d565b509392505050565b600082601f8301126200026257620002616200042d565b5b815162000274848260208601620001ff565b91505092915050565b6000602082840312156200029657620002956200043c565b5b600082015167ffffffffffffffff811115620002b757620002b662000437565b5b620002c5848285016200024a565b91505092915050565b6000620002da620002ed565b9050620002e8828262000399565b919050565b6000604051905090565b600067ffffffffffffffff821115620003155762000314620003fe565b5b620003208262000441565b9050602081019050919050565b60005b838110156200034d57808201518184015260208101905062000330565b838111156200035d576000848401525b50505050565b600060028204905060018216806200037c57607f821691505b60208210811415620003935762000392620003cf565b5b50919050565b620003a48262000441565b810181811067ffffffffffffffff82111715620003c657620003c5620003fe565b5b80604052505050565b7f4e487b7100000000000000000000000000000000000000000000000000000000600052602260045260246000fd5b7f4e487b7100000000000000000000000000000000000000000000000000000000600052604160045260246000fd5b600080fd5b600080fd5b600080fd5b600080fd5b6000601f19601f8301169050919050565b61434b80620004626000396000f3fe6080604052600436106101e25760003560e01c8063ba111a0511610102578063d7a5791a11610095578063f242432a11610064578063f242432a14610740578063f2fde38b14610769578063f7374e2e14610792578063fffae941146107bb576101e2565b8063d7a5791a14610688578063de6a06ed146106b1578063e985e9c5146106da578063eb84175914610717576101e2565b8063c539c317116100d1578063c539c317146105c8578063ce901d8a146105f1578063d3631fa514610634578063d56b72c71461065f576101e2565b8063ba111a05146104fa578063bfb48c9c14610537578063c1d3304914610574578063c39cbef11461059f576101e2565b806335a8ae211161017a578063715018a611610149578063715018a6146104525780638da5cb5b1461046957806392724afa14610494578063a22cb465146104d1576101e2565b806335a8ae21146103725780634e1273f4146103af5780634fe477d8146103ec57806351cff8d914610429576101e2565b806318892ae8116101b657806318892ae8146102c75780631d5ad18b146103045780632dcfdaf71461032d5780632eb2c2d614610349576101e2565b8062fdd58e146101e757806301ffc9a71461022457806306e320f5146102615780630e89341c1461028a575b600080fd5b3480156101f357600080fd5b5061020e600480360381019061020991906133c4565b6107d7565b60405161021b9190613a99565b60405180910390f35b34801561023057600080fd5b5061024b6004803603810190610246919061347c565b6108a1565b60405161025891906139dc565b60405180910390f35b34801561026d57600080fd5b5061028860048036038101906102839190613596565b610983565b005b34801561029657600080fd5b506102b160048036038101906102ac91906134a9565b610a2a565b6040516102be91906139f7565b60405180910390f35b3480156102d357600080fd5b506102ee60048036038101906102e991906134a9565b610abe565b6040516102fb91906138e4565b60405180910390f35b34801561031057600080fd5b5061032b60048036038101906103269190613516565b610af1565b005b61034760048036038101906103429190613636565b610bc6565b005b34801561035557600080fd5b50610370600480360381019061036b919061321e565b610d8a565b005b34801561037e57600080fd5b50610399600480360381019061039491906135f6565b610ef6565b6040516103a69190613a99565b60405180910390f35b3480156103bb57600080fd5b506103d660048036038101906103d19190613404565b610f2e565b6040516103e39190613983565b60405180910390f35b3480156103f857600080fd5b50610413600480360381019061040e91906135f6565b611047565b6040516104209190613a99565b60405180910390f35b34801561043557600080fd5b50610450600480360381019061044b91906130f6565b611254565b005b34801561045e57600080fd5b5061046761131a565b005b34801561047557600080fd5b5061047e611454565b60405161048b91906138e4565b60405180910390f35b3480156104a057600080fd5b506104bb60048036038101906104b691906133c4565b61147d565b6040516104c89190613a99565b60405180910390f35b3480156104dd57600080fd5b506104f860048036038101906104f39190613384565b6114a2565b005b34801561050657600080fd5b50610521600480360381019061051c91906134a9565b61159f565b60405161052e9190613a99565b60405180910390f35b34801561054357600080fd5b5061055e600480360381019061055991906134d6565b6115c2565b60405161056b9190613a99565b60405180910390f35b34801561058057600080fd5b506105896115e7565b6040516105969190613a99565b60405180910390f35b3480156105ab57600080fd5b506105c660048036038101906105c19190613596565b6115ed565b005b3480156105d457600080fd5b506105ef60048036038101906105ea91906134a9565b611694565b005b3480156105fd57600080fd5b50610618600480360381019061061391906134a9565b61171a565b60405161062b97969594939291906138ff565b60405180910390f35b34801561064057600080fd5b50610649611931565b6040516106569190613a99565b60405180910390f35b34801561066b57600080fd5b5061068660048036038101906106819190613123565b611937565b005b34801561069457600080fd5b506106af60048036038101906106aa91906134a9565b611b53565b005b3480156106bd57600080fd5b506106d860048036038101906106d39190613596565b611bd9565b005b3480156106e657600080fd5b5061070160048036038101906106fc91906131de565b611c80565b60405161070e91906139dc565b60405180910390f35b34801561072357600080fd5b5061073e600480360381019061073991906130f6565b611d14565b005b34801561074c57600080fd5b50610767600480360381019061076291906132ed565b611de4565b005b34801561077557600080fd5b50610790600480360381019061078b91906130c9565b611ec8565b005b34801561079e57600080fd5b506107b960048036038101906107b49190613556565b612071565b005b6107d560048036038101906107d091906135f6565b61212e565b005b60008073ffffffffffffffffffffffffffffffffffffffff168373ffffffffffffffffffffffffffffffffffffffff161415610848576040517f08c379a000000000000000000000000000000000000000000000000000000000815260040161083f90613a19565b60405180910390fd5b600d600083815260200190815260200160002060008473ffffffffffffffffffffffffffffffffffffffff1673ffffffffffffffffffffffffffffffffffffffff16815260200190815260200160002054905092915050565b60007fd9b67a26000000000000000000000000000000000000000000000000000000007bffffffffffffffffffffffffffffffffffffffffffffffffffffffff1916827bffffffffffffffffffffffffffffffffffffffffffffffffffffffff1916148061096c57507f0e89341c000000000000000000000000000000000000000000000000000000007bffffffffffffffffffffffffffffffffffffffffffffffffffffffff1916827bffffffffffffffffffffffffffffffffffffffffffffffffffffffff1916145b8061097c575061097b8261230f565b5b9050919050565b826008600082815260200190815260200160002060009054906101000a900473ffffffffffffffffffffffffffffffffffffffff1673ffffffffffffffffffffffffffffffffffffffff163373ffffffffffffffffffffffffffffffffffffffff16146109ef57600080fd5b828260078681548110610a0557610a046140ad565b5b90600052602060002090600702016002019190610a23929190612cc5565b5050505050565b6060600f8054610a3990613f74565b80601f0160208091040260200160405190810160405280929190818152602001828054610a6590613f74565b8015610ab25780601f10610a8757610100808354040283529160200191610ab2565b820191906000526020600020905b815481529060010190602001808311610a9557829003601f168201915b50505050509050919050565b60086020528060005260406000206000915054906101000a900473ffffffffffffffffffffffffffffffffffffffff1681565b816008600082815260200190815260200160002060009054906101000a900473ffffffffffffffffffffffffffffffffffffffff1673ffffffffffffffffffffffffffffffffffffffff163373ffffffffffffffffffffffffffffffffffffffff1614610b5d57600080fd5b8160078481548110610b7257610b716140ad565b5b906000526020600020906007020160000160006101000a81548173ffffffffffffffffffffffffffffffffffffffff021916908373ffffffffffffffffffffffffffffffffffffffff160217905550505050565b3373ffffffffffffffffffffffffffffffffffffffff168173ffffffffffffffffffffffffffffffffffffffff1614610bfe57600080fd5b6000610c5e60078581548110610c1757610c166140ad565b5b9060005260206000209060070201600501548460055460065460078981548110610c4457610c436140ad565b5b906000526020600020906007020160060154600454612379565b90506000606460015483610c729190613e0c565b610c7c9190613ddb565b90508082610c8a9190613e66565b9150610c978386866123f2565b8273ffffffffffffffffffffffffffffffffffffffff166108fc839081150290604051600060405180830381858888f19350505050158015610cdd573d6000803e3d6000fd5b50610ce7816124f5565b3373ffffffffffffffffffffffffffffffffffffffff167f1ebb537d8231cf8a6b1b0d1684d85dfd83872c030ffc75f500f0729eaf674d82858760078981548110610d3557610d346140ad565b5b906000526020600020906007020160010160078a81548110610d5a57610d596140ad565b5b9060005260206000209060070201600201604051610d7b9493929190613bad565b60405180910390a25050505050565b60005b8351811015610e70578573ffffffffffffffffffffffffffffffffffffffff163373ffffffffffffffffffffffffffffffffffffffff161480610dd65750610dd58686611c80565b5b610ddf57600080fd5b610e1e86858381518110610df657610df56140ad565b5b6020026020010151858481518110610e1157610e106140ad565b5b602002602001015161252a565b610e5d85858381518110610e3557610e346140ad565b5b6020026020010151858481518110610e5057610e4f6140ad565b5b60200260200101516125fd565b8080610e6890613fd7565b915050610d8d565b508373ffffffffffffffffffffffffffffffffffffffff168573ffffffffffffffffffffffffffffffffffffffff163373ffffffffffffffffffffffffffffffffffffffff167f4a39dc06d4c0dbc64b70af90fd698a233a518aa5d07e595d983b8c0526c8f7fb8686604051610ee79291906139a5565b60405180910390a45050505050565b600080610f038484611047565b90506000610f108261159f565b905060008183610f209190613d85565b905080935050505092915050565b60608151835114610f74576040517f08c379a0000000000000000000000000000000000000000000000000000000008152600401610f6b90613a79565b60405180910390fd5b6000835167ffffffffffffffff811115610f9157610f906140dc565b5b604051908082528060200260200182016040528015610fbf5781602001602082028036833780820191505090505b50905060005b845181101561103c5761100c858281518110610fe457610fe36140ad565b5b6020026020010151858381518110610fff57610ffe6140ad565b5b60200260200101516107d7565b82828151811061101f5761101e6140ad565b5b6020026020010181815250508061103590613fd7565b9050610fc5565b508091505092915050565b60008060009050600060078581548110611064576110636140ad565b5b9060005260206000209060070201600501549050600084826110869190613d85565b90506007868154811061109c5761109b6140ad565b5b9060005260206000209060070201600601548110156110f5576110ee818660055460065460078b815481106110d4576110d36140ad565b5b906000526020600020906007020160060154600454612379565b9250611248565b60078681548110611109576111086140ad565b5b906000526020600020906007020160060154821015611234576111b060078781548110611139576111386140ad565b5b90600052602060002090600702016006015483600789815481106111605761115f6140ad565b5b90600052602060002090600702016006015461117c9190613e66565b60055460065460078b81548110611196576111956140ad565b5b906000526020600020906007020160060154600454612379565b9250611222600787815481106111c9576111c86140ad565b5b90600052602060002090600702016006015483600789815481106111f0576111ef6140ad565b5b90600052602060002090600702016006015461120c9190613e66565b876112179190613e66565b6005546006546126d0565b8361122d9190613d85565b9250611247565b61124482866005546006546126d0565b92505b5b82935050505092915050565b61125c61275e565b73ffffffffffffffffffffffffffffffffffffffff1661127a611454565b73ffffffffffffffffffffffffffffffffffffffff16146112d0576040517f08c379a00000000000000000000000000000000000000000000000000000000081526004016112c790613a59565b60405180910390fd5b8073ffffffffffffffffffffffffffffffffffffffff166108fc479081150290604051600060405180830381858888f19350505050158015611316573d6000803e3d6000fd5b5050565b61132261275e565b73ffffffffffffffffffffffffffffffffffffffff16611340611454565b73ffffffffffffffffffffffffffffffffffffffff1614611396576040517f08c379a000000000000000000000000000000000000000000000000000000000815260040161138d90613a59565b60405180910390fd5b600073ffffffffffffffffffffffffffffffffffffffff1660008054906101000a900473ffffffffffffffffffffffffffffffffffffffff1673ffffffffffffffffffffffffffffffffffffffff167f8be0079c531659141344cd1fd0a4f28419497f9722a3daafe3b4186f6b6457e060405160405180910390a360008060006101000a81548173ffffffffffffffffffffffffffffffffffffffff021916908373ffffffffffffffffffffffffffffffffffffffff160217905550565b60008060009054906101000a900473ffffffffffffffffffffffffffffffffffffffff16905090565b600b602052816000526040600020602052806000526040600020600091509150505481565b80600c60003373ffffffffffffffffffffffffffffffffffffffff1673ffffffffffffffffffffffffffffffffffffffff16815260200190815260200160002060008473ffffffffffffffffffffffffffffffffffffffff1673ffffffffffffffffffffffffffffffffffffffff16815260200190815260200160002060006101000a81548160ff0219169083151502179055508173ffffffffffffffffffffffffffffffffffffffff163373ffffffffffffffffffffffffffffffffffffffff167f17307eab39ab6107e8899845ad3d59bd9653f200f220920489ca2b5937696c318360405161159391906139dc565b60405180910390a35050565b60006064600154836115b19190613e0c565b6115bb9190613ddb565b9050919050565b600a602052816000526040600020602052806000526040600020600091509150505481565b60035481565b826008600082815260200190815260200160002060009054906101000a900473ffffffffffffffffffffffffffffffffffffffff1673ffffffffffffffffffffffffffffffffffffffff163373ffffffffffffffffffffffffffffffffffffffff161461165957600080fd5b82826007868154811061166f5761166e6140ad565b5b9060005260206000209060070201600101919061168d929190612cc5565b5050505050565b61169c61275e565b73ffffffffffffffffffffffffffffffffffffffff166116ba611454565b73ffffffffffffffffffffffffffffffffffffffff1614611710576040517f08c379a000000000000000000000000000000000000000000000000000000000815260040161170790613a59565b60405180910390fd5b8060048190555050565b6007818154811061172a57600080fd5b90600052602060002090600702016000915090508060000160009054906101000a900473ffffffffffffffffffffffffffffffffffffffff169080600101805461177390613f74565b80601f016020809104026020016040519081016040528092919081815260200182805461179f90613f74565b80156117ec5780601f106117c1576101008083540402835291602001916117ec565b820191906000526020600020905b8154815290600101906020018083116117cf57829003601f168201915b50505050509080600201805461180190613f74565b80601f016020809104026020016040519081016040528092919081815260200182805461182d90613f74565b801561187a5780601f1061184f5761010080835404028352916020019161187a565b820191906000526020600020905b81548152906001019060200180831161185d57829003601f168201915b50505050509080600301805461188f90613f74565b80601f01602080910402602001604051908101604052809291908181526020018280546118bb90613f74565b80156119085780601f106118dd57610100808354040283529160200191611908565b820191906000526020600020905b8154815290600101906020018083116118eb57829003601f168201915b5050505050908060040160009054906101000a900460ff16908060050154908060060154905087565b60025481565b60076040518060e001604052808673ffffffffffffffffffffffffffffffffffffffff168152602001858152602001848152602001838152602001600015158152602001600081526020016000815250908060018154018082558091505060019003906000526020600020906007020160009091909190915060008201518160000160006101000a81548173ffffffffffffffffffffffffffffffffffffffff021916908373ffffffffffffffffffffffffffffffffffffffff1602179055506020820151816001019080519060200190611a13929190612d4b565b506040820151816002019080519060200190611a30929190612d4b565b506060820151816003019080519060200190611a4d929190612d4b565b5060808201518160040160006101000a81548160ff02191690831515021790555060a0820151816005015560c08201518160060155505060006001600780549050611a989190613e66565b9050846008600083815260200190815260200160002060006101000a81548173ffffffffffffffffffffffffffffffffffffffff021916908373ffffffffffffffffffffffffffffffffffffffff160217905550600060096000838152602001908152602001600020819055507f3ef624c0f3fb7ad40b94c02078ea3e3a797dbfc21e921ee4bd2b8ad0ca6aa11381868686866000806000604051611b44989796959493929190613ab4565b60405180910390a15050505050565b611b5b61275e565b73ffffffffffffffffffffffffffffffffffffffff16611b79611454565b73ffffffffffffffffffffffffffffffffffffffff1614611bcf576040517f08c379a0000000000000000000000000000000000000000000000000000000008152600401611bc690613a59565b60405180910390fd5b8060018190555050565b826008600082815260200190815260200160002060009054906101000a900473ffffffffffffffffffffffffffffffffffffffff1673ffffffffffffffffffffffffffffffffffffffff163373ffffffffffffffffffffffffffffffffffffffff1614611c4557600080fd5b828260078681548110611c5b57611c5a6140ad565b5b90600052602060002090600702016003019190611c79929190612cc5565b5050505050565b6000600c60008473ffffffffffffffffffffffffffffffffffffffff1673ffffffffffffffffffffffffffffffffffffffff16815260200190815260200160002060008373ffffffffffffffffffffffffffffffffffffffff1673ffffffffffffffffffffffffffffffffffffffff16815260200190815260200160002060009054906101000a900460ff16905092915050565b611d1c61275e565b73ffffffffffffffffffffffffffffffffffffffff16611d3a611454565b73ffffffffffffffffffffffffffffffffffffffff1614611d90576040517f08c379a0000000000000000000000000000000000000000000000000000000008152600401611d8790613a59565b60405180910390fd5b8073ffffffffffffffffffffffffffffffffffffffff166108fc6003549081150290604051600060405180830381858888f19350505050158015611dd8573d6000803e3d6000fd5b50600060038190555050565b8473ffffffffffffffffffffffffffffffffffffffff163373ffffffffffffffffffffffffffffffffffffffff161480611e245750611e238585611c80565b5b611e2d57600080fd5b611e3885848461252a565b611e438484846125fd565b8373ffffffffffffffffffffffffffffffffffffffff168573ffffffffffffffffffffffffffffffffffffffff163373ffffffffffffffffffffffffffffffffffffffff167fc3d58168c5ae7397731d063d5bbf3d657854427343f4c083240f7aacaa2d0f628686604051611eb9929190613c13565b60405180910390a45050505050565b611ed061275e565b73ffffffffffffffffffffffffffffffffffffffff16611eee611454565b73ffffffffffffffffffffffffffffffffffffffff1614611f44576040517f08c379a0000000000000000000000000000000000000000000000000000000008152600401611f3b90613a59565b60405180910390fd5b600073ffffffffffffffffffffffffffffffffffffffff168173ffffffffffffffffffffffffffffffffffffffff161415611fb4576040517f08c379a0000000000000000000000000000000000000000000000000000000008152600401611fab90613a39565b60405180910390fd5b8073ffffffffffffffffffffffffffffffffffffffff1660008054906101000a900473ffffffffffffffffffffffffffffffffffffffff1673ffffffffffffffffffffffffffffffffffffffff167f8be0079c531659141344cd1fd0a4f28419497f9722a3daafe3b4186f6b6457e060405160405180910390a3806000806101000a81548173ffffffffffffffffffffffffffffffffffffffff021916908373ffffffffffffffffffffffffffffffffffffffff16021790555050565b61207961275e565b73ffffffffffffffffffffffffffffffffffffffff16612097611454565b73ffffffffffffffffffffffffffffffffffffffff16146120ed576040517f08c379a00000000000000000000000000000000000000000000000000000000081526004016120e490613a59565b60405180910390fd5b8060078381548110612102576121016140ad565b5b906000526020600020906007020160040160006101000a81548160ff0219169083151502179055505050565b600061213a8383610ef6565b905080341461214857600080fd5b61216261215d6121588585611047565b61159f565b6124f5565b61217d33848460405180602001604052806000815250612766565b3373ffffffffffffffffffffffffffffffffffffffff167f1ebb537d8231cf8a6b1b0d1684d85dfd83872c030ffc75f500f0729eaf674d828385600787815481106121cb576121ca6140ad565b5b9060005260206000209060070201600101600788815481106121f0576121ef6140ad565b5b90600052602060002090600702016002016040516122119493929190613b47565b60405180910390a26007838154811061222d5761222c6140ad565b5b90600052602060002090600702016006015460078481548110612253576122526140ad565b5b906000526020600020906007020160050154111561230a576007838154811061227f5761227e6140ad565b5b906000526020600020906007020160050154600784815481106122a5576122a46140ad565b5b90600052602060002090600702016006018190555061230983600785815481106122d2576122d16140ad565b5b906000526020600020906007020160000160009054906101000a900473ffffffffffffffffffffffffffffffffffffffff16612832565b5b505050565b60007f01ffc9a7000000000000000000000000000000000000000000000000000000007bffffffffffffffffffffffffffffffffffffffffffffffffffffffff1916827bffffffffffffffffffffffffffffffffffffffffffffffffffffffff1916149050919050565b60008060008061238d8a8a8a8a8a8a612987565b9250925092506000838b10156123b0576123a984848d85612a02565b90506123e1565b838210156123ce576123c784848d858d8d8d612aa5565b90506123e0565b6123dd84848d858d8d8d612bc7565b90505b5b809450505050509695505050505050565b8273ffffffffffffffffffffffffffffffffffffffff163373ffffffffffffffffffffffffffffffffffffffff161461242a57600080fd5b61243583838361252a565b806007838154811061244a576124496140ad565b5b9060005260206000209060070201600501600082825461246a9190613e66565b92505081905550600073ffffffffffffffffffffffffffffffffffffffff168373ffffffffffffffffffffffffffffffffffffffff163373ffffffffffffffffffffffffffffffffffffffff167fc3d58168c5ae7397731d063d5bbf3d657854427343f4c083240f7aacaa2d0f6285856040516124e8929190613c13565b60405180910390a4505050565b80600260008282546125079190613d85565b9250508190555080600360008282546125209190613d85565b9250508190555050565b80600a600084815260200190815260200160002060008573ffffffffffffffffffffffffffffffffffffffff1673ffffffffffffffffffffffffffffffffffffffff168152602001908152602001600020600082825461258a9190613e66565b9250508190555080600b60008573ffffffffffffffffffffffffffffffffffffffff1673ffffffffffffffffffffffffffffffffffffffff168152602001908152602001600020600084815260200190815260200160002060008282546125f19190613e66565b92505081905550505050565b80600a600084815260200190815260200160002060008573ffffffffffffffffffffffffffffffffffffffff1673ffffffffffffffffffffffffffffffffffffffff168152602001908152602001600020600082825461265d9190613d85565b9250508190555080600b60008573ffffffffffffffffffffffffffffffffffffffff1673ffffffffffffffffffffffffffffffffffffffff168152602001908152602001600020600084815260200190815260200160002060008282546126c49190613d85565b92505081905550505050565b60008084866126df9190613d85565b905060008387866126f09190613e0c565b6126fa9190613ddb565b9050600084838761270b9190613e0c565b6127159190613ddb565b9050600088846127259190613e66565b9050600060028284866127389190613d85565b6127429190613e0c565b61274c9190613ddb565b90508095505050505050949350505050565b600033905090565b6127718484846125fd565b8160078481548110612786576127856140ad565b5b906000526020600020906007020160050160008282546127a69190613d85565b925050819055508373ffffffffffffffffffffffffffffffffffffffff16600073ffffffffffffffffffffffffffffffffffffffff163373ffffffffffffffffffffffffffffffffffffffff167fc3d58168c5ae7397731d063d5bbf3d657854427343f4c083240f7aacaa2d0f628686604051612824929190613c13565b60405180910390a450505050565b60006009600084815260200190815260200160002054905060006128cf60078581548110612863576128626140ad565b5b90600052602060002090600702016006015460078681548110612889576128886140ad565b5b906000526020600020906007020160060154600554600654600789815481106128b5576128b46140ad565b5b906000526020600020906007020160060154600454612379565b6129056000600787815481106128e8576128e76140ad565b5b9060005260206000209060070201600601546005546006546126d0565b61290f9190613e66565b90506000828261291f9190613e66565b90508373ffffffffffffffffffffffffffffffffffffffff166108fc829081150290604051600060405180830381858888f19350505050158015612967573d6000803e3d6000fd5b508160096000878152602001908152602001600020819055505050505050565b60008060008060028661299a9190613ddb565b90506000878960648860326129af9190613e66565b8a6129ba9190613e0c565b6129c49190613ddb565b6129ce9190613e0c565b6129d89190613ddb565b905060008a8c6129e89190613e66565b905082828295509550955050505096509650969350505050565b6000808286612a119190613e66565b8686612a1d9190613ddb565b612a279190613e0c565b85612a329190613e66565b905060008487612a429190613e66565b8787612a4e9190613ddb565b612a589190613e0c565b86612a639190613e66565b905060008486612a739190613e66565b90506002818385612a849190613d85565b612a8e9190613e0c565b612a989190613ddb565b9350505050949350505050565b6000808589612ab49190613e66565b8989612ac09190613ddb565b612aca9190613e0c565b88612ad59190613e66565b905060008890506000878b612aea9190613e66565b905060006002828486612afd9190613d85565b612b079190613e0c565b612b119190613ddb565b905060008b8d8c612b229190613e66565b8e89612b2e9190613e66565b8e8b8b8e612b3c9190613e0c565b612b469190613ddb565b612b509190613e66565b612b5a9190613ddb565b612b649190613e0c565b612b6e9190613d85565b905060008d8c612b7e9190613e66565b905060006002828488612b919190613d85565b612b9b9190613e0c565b612ba59190613ddb565b90508084612bb39190613d85565b975050505050505050979650505050505050565b600080878987612bd79190613e66565b8a85612be39190613e66565b8a87878a612bf19190613e0c565b612bfb9190613ddb565b612c059190613e66565b612c0f9190613ddb565b612c199190613e0c565b612c239190613d85565b90506000888a89612c349190613e66565b8b86612c409190613e66565b8b88888b612c4e9190613e0c565b612c589190613ddb565b612c629190613e66565b612c6c9190613ddb565b612c769190613e0c565b612c809190613d85565b905060008789612c909190613e66565b90506002818385612ca19190613d85565b612cab9190613e0c565b612cb59190613ddb565b9350505050979650505050505050565b828054612cd190613f74565b90600052602060002090601f016020900481019282612cf35760008555612d3a565b82601f10612d0c57803560ff1916838001178555612d3a565b82800160010185558215612d3a579182015b82811115612d39578235825591602001919060010190612d1e565b5b509050612d479190612dd1565b5090565b828054612d5790613f74565b90600052602060002090601f016020900481019282612d795760008555612dc0565b82601f10612d9257805160ff1916838001178555612dc0565b82800160010185558215612dc0579182015b82811115612dbf578251825591602001919060010190612da4565b5b509050612dcd9190612dd1565b5090565b5b80821115612dea576000816000905550600101612dd2565b5090565b6000612e01612dfc84613c61565b613c3c565b90508083825260208201905082856020860282011115612e2457612e23614115565b5b60005b85811015612e545781612e3a8882612f52565b845260208401935060208301925050600181019050612e27565b5050509392505050565b6000612e71612e6c84613c8d565b613c3c565b90508083825260208201905082856020860282011115612e9457612e93614115565b5b60005b85811015612ec45781612eaa88826130b4565b845260208401935060208301925050600181019050612e97565b5050509392505050565b6000612ee1612edc84613cb9565b613c3c565b905082815260208101848484011115612efd57612efc61411a565b5b612f08848285613f32565b509392505050565b6000612f23612f1e84613cea565b613c3c565b905082815260208101848484011115612f3f57612f3e61411a565b5b612f4a848285613f32565b509392505050565b600081359050612f61816142a2565b92915050565b600081359050612f76816142b9565b92915050565b600082601f830112612f9157612f90614110565b5b8135612fa1848260208601612dee565b91505092915050565b600082601f830112612fbf57612fbe614110565b5b8135612fcf848260208601612e5e565b91505092915050565b600081359050612fe7816142d0565b92915050565b600081359050612ffc816142e7565b92915050565b600082601f83011261301757613016614110565b5b8135613027848260208601612ece565b91505092915050565b60008083601f84011261304657613045614110565b5b8235905067ffffffffffffffff8111156130635761306261410b565b5b60208301915083600182028301111561307f5761307e614115565b5b9250929050565b600082601f83011261309b5761309a614110565b5b81356130ab848260208601612f10565b91505092915050565b6000813590506130c3816142fe565b92915050565b6000602082840312156130df576130de614124565b5b60006130ed84828501612f52565b91505092915050565b60006020828403121561310c5761310b614124565b5b600061311a84828501612f67565b91505092915050565b6000806000806080858703121561313d5761313c614124565b5b600061314b87828801612f67565b945050602085013567ffffffffffffffff81111561316c5761316b61411f565b5b61317887828801613086565b935050604085013567ffffffffffffffff8111156131995761319861411f565b5b6131a587828801613086565b925050606085013567ffffffffffffffff8111156131c6576131c561411f565b5b6131d287828801613086565b91505092959194509250565b600080604083850312156131f5576131f4614124565b5b600061320385828601612f52565b925050602061321485828601612f52565b9150509250929050565b600080600080600060a0868803121561323a57613239614124565b5b600061324888828901612f52565b955050602061325988828901612f52565b945050604086013567ffffffffffffffff81111561327a5761327961411f565b5b61328688828901612faa565b935050606086013567ffffffffffffffff8111156132a7576132a661411f565b5b6132b388828901612faa565b925050608086013567ffffffffffffffff8111156132d4576132d361411f565b5b6132e088828901613002565b9150509295509295909350565b600080600080600060a0868803121561330957613308614124565b5b600061331788828901612f52565b955050602061332888828901612f52565b9450506040613339888289016130b4565b935050606061334a888289016130b4565b925050608086013567ffffffffffffffff81111561336b5761336a61411f565b5b61337788828901613002565b9150509295509295909350565b6000806040838503121561339b5761339a614124565b5b60006133a985828601612f52565b92505060206133ba85828601612fd8565b9150509250929050565b600080604083850312156133db576133da614124565b5b60006133e985828601612f52565b92505060206133fa858286016130b4565b9150509250929050565b6000806040838503121561341b5761341a614124565b5b600083013567ffffffffffffffff8111156134395761343861411f565b5b61344585828601612f7c565b925050602083013567ffffffffffffffff8111156134665761346561411f565b5b61347285828601612faa565b9150509250929050565b60006020828403121561349257613491614124565b5b60006134a084828501612fed565b91505092915050565b6000602082840312156134bf576134be614124565b5b60006134cd848285016130b4565b91505092915050565b600080604083850312156134ed576134ec614124565b5b60006134fb858286016130b4565b925050602061350c85828601612f52565b9150509250929050565b6000806040838503121561352d5761352c614124565b5b600061353b858286016130b4565b925050602061354c85828601612f67565b9150509250929050565b6000806040838503121561356d5761356c614124565b5b600061357b858286016130b4565b925050602061358c85828601612fd8565b9150509250929050565b6000806000604084860312156135af576135ae614124565b5b60006135bd868287016130b4565b935050602084013567ffffffffffffffff8111156135de576135dd61411f565b5b6135ea86828701613030565b92509250509250925092565b6000806040838503121561360d5761360c614124565b5b600061361b858286016130b4565b925050602061362c858286016130b4565b9150509250929050565b60008060006060848603121561364f5761364e614124565b5b600061365d868287016130b4565b935050602061366e868287016130b4565b925050604061367f86828701612f67565b9150509250925092565b600061369583836138c6565b60208301905092915050565b6136aa81613eac565b82525050565b6136b981613e9a565b82525050565b60006136ca82613d40565b6136d48185613d63565b93506136df83613d1b565b8060005b838110156137105781516136f78882613689565b975061370283613d56565b9250506001810190506136e3565b5085935050505092915050565b61372681613ebe565b82525050565b61373581613f20565b82525050565b600061374682613d4b565b6137508185613d74565b9350613760818560208601613f41565b61376981614129565b840191505092915050565b6000815461378181613f74565b61378b8186613d74565b945060018216600081146137a657600181146137b8576137eb565b60ff19831686526020860193506137eb565b6137c185613d2b565b60005b838110156137e3578154818901526001820191506020810190506137c4565b808801955050505b50505092915050565b6000613801602b83613d74565b915061380c8261413a565b604082019050919050565b6000613824602683613d74565b915061382f82614189565b604082019050919050565b6000613847600383613d74565b9150613852826141d8565b602082019050919050565b600061386a602083613d74565b915061387582614201565b602082019050919050565b600061388d602983613d74565b91506138988261422a565b604082019050919050565b60006138b0600483613d74565b91506138bb82614279565b602082019050919050565b6138cf81613f16565b82525050565b6138de81613f16565b82525050565b60006020820190506138f960008301846136b0565b92915050565b600060e082019050613914600083018a6136a1565b8181036020830152613926818961373b565b9050818103604083015261393a818861373b565b9050818103606083015261394e818761373b565b905061395d608083018661371d565b61396a60a08301856138d5565b61397760c08301846138d5565b98975050505050505050565b6000602082019050818103600083015261399d81846136bf565b905092915050565b600060408201905081810360008301526139bf81856136bf565b905081810360208301526139d381846136bf565b90509392505050565b60006020820190506139f1600083018461371d565b92915050565b60006020820190508181036000830152613a11818461373b565b905092915050565b60006020820190508181036000830152613a32816137f4565b9050919050565b60006020820190508181036000830152613a5281613817565b9050919050565b60006020820190508181036000830152613a728161385d565b9050919050565b60006020820190508181036000830152613a9281613880565b9050919050565b6000602082019050613aae60008301846138d5565b92915050565b600061010082019050613aca600083018b6138d5565b613ad7602083018a6136a1565b8181036040830152613ae9818961373b565b90508181036060830152613afd818861373b565b90508181036080830152613b11818761373b565b9050613b2060a083018661371d565b613b2d60c083018561372c565b613b3a60e083018461372c565b9998505050505050505050565b600060a082019050613b5c60008301876138d5565b8181036020830152613b6d8161383a565b9050613b7c60408301866138d5565b8181036060830152613b8e8185613774565b90508181036080830152613ba28184613774565b905095945050505050565b600060a082019050613bc260008301876138d5565b8181036020830152613bd3816138a3565b9050613be260408301866138d5565b8181036060830152613bf48185613774565b90508181036080830152613c088184613774565b905095945050505050565b6000604082019050613c2860008301856138d5565b613c3560208301846138d5565b9392505050565b6000613c46613c57565b9050613c528282613fa6565b919050565b6000604051905090565b600067ffffffffffffffff821115613c7c57613c7b6140dc565b5b602082029050602081019050919050565b600067ffffffffffffffff821115613ca857613ca76140dc565b5b602082029050602081019050919050565b600067ffffffffffffffff821115613cd457613cd36140dc565b5b613cdd82614129565b9050602081019050919050565b600067ffffffffffffffff821115613d0557613d046140dc565b5b613d0e82614129565b9050602081019050919050565b6000819050602082019050919050565b60008190508160005260206000209050919050565b600081519050919050565b600081519050919050565b6000602082019050919050565b600082825260208201905092915050565b600082825260208201905092915050565b6000613d9082613f16565b9150613d9b83613f16565b9250827fffffffffffffffffffffffffffffffffffffffffffffffffffffffffffffffff03821115613dd057613dcf614020565b5b828201905092915050565b6000613de682613f16565b9150613df183613f16565b925082613e0157613e0061404f565b5b828204905092915050565b6000613e1782613f16565b9150613e2283613f16565b9250817fffffffffffffffffffffffffffffffffffffffffffffffffffffffffffffffff0483118215151615613e5b57613e5a614020565b5b828202905092915050565b6000613e7182613f16565b9150613e7c83613f16565b925082821015613e8f57613e8e614020565b5b828203905092915050565b6000613ea582613ef6565b9050919050565b6000613eb782613ef6565b9050919050565b60008115159050919050565b60007fffffffff0000000000000000000000000000000000000000000000000000000082169050919050565b600073ffffffffffffffffffffffffffffffffffffffff82169050919050565b6000819050919050565b6000613f2b82613f16565b9050919050565b82818337600083830152505050565b60005b83811015613f5f578082015181840152602081019050613f44565b83811115613f6e576000848401525b50505050565b60006002820490506001821680613f8c57607f821691505b60208210811415613fa057613f9f61407e565b5b50919050565b613faf82614129565b810181811067ffffffffffffffff82111715613fce57613fcd6140dc565b5b80604052505050565b6000613fe282613f16565b91507fffffffffffffffffffffffffffffffffffffffffffffffffffffffffffffffff82141561401557614014614020565b5b600182019050919050565b7f4e487b7100000000000000000000000000000000000000000000000000000000600052601160045260246000fd5b7f4e487b7100000000000000000000000000000000000000000000000000000000600052601260045260246000fd5b7f4e487b7100000000000000000000000000000000000000000000000000000000600052602260045260246000fd5b7f4e487b7100000000000000000000000000000000000000000000000000000000600052603260045260246000fd5b7f4e487b7100000000000000000000000000000000000000000000000000000000600052604160045260246000fd5b600080fd5b600080fd5b600080fd5b600080fd5b600080fd5b600080fd5b6000601f19601f8301169050919050565b7f455243313135353a2062616c616e636520717565727920666f7220746865207a60008201527f65726f2061646472657373000000000000000000000000000000000000000000602082015250565b7f4f776e61626c653a206e6577206f776e657220697320746865207a65726f206160008201527f6464726573730000000000000000000000000000000000000000000000000000602082015250565b7f6275790000000000000000000000000000000000000000000000000000000000600082015250565b7f4f776e61626c653a2063616c6c6572206973206e6f7420746865206f776e6572600082015250565b7f455243313135353a206163636f756e747320616e6420696473206c656e67746860008201527f206d69736d617463680000000000000000000000000000000000000000000000602082015250565b7f73656c6c00000000000000000000000000000000000000000000000000000000600082015250565b6142ab81613e9a565b81146142b657600080fd5b50565b6142c281613eac565b81146142cd57600080fd5b50565b6142d981613ebe565b81146142e457600080fd5b50565b6142f081613eca565b81146142fb57600080fd5b50565b61430781613f16565b811461431257600080fd5b5056fea2646970667358221220a896887f97d65b6f3a6307c1e28b4fed9429877432707ebd7c014697d8716cac64736f6c63430008060033",
  "immutableReferences": {},
  "source": "// SPDX-License-Identifier: MIT\npragma solidity ^0.8.0;\n\nimport \"./creatortokencomputation.sol\";\n\ncontract CreatorTokenExchange is CreatorTokenComputation {\n\n\tconstructor(string memory uri) CreatorTokenComputation(uri) { }\n\n\t// Event that fires when a new transaction occurs\n\tevent NewTransaction(address indexed account, uint amount, string transactionType, uint tokenId, string name, string symbol);\n\n\t// Allow user to buy a given CreatorToken from the platform\n\tfunction buyCreatorToken(uint _tokenId, uint _amount) external payable {\n\t\t// Compute total transaction proceeds required (inclusive of fee)\n\t\tuint totalProceeds = _totalProceeds(_tokenId, _amount);\n\t\t// Require that user sends totalProceeds in order to transact\n\t\trequire(msg.value == totalProceeds);\n\t\t// Update platform fee total\n\t\t_platformFeeUpdater(_feeProceeds(_buyProceeds(_tokenId, _amount)));\n\t\t// Mint _amount tokens at the user's address (note this increases token amount outstanding)\n\t\t_mint(msg.sender, _tokenId, _amount, \"\");\n\t\t// Emit new transaction event\n\t\temit NewTransaction(msg.sender, _amount, \"buy\", _tokenId, creatorTokens[_tokenId].name, creatorTokens[_tokenId].symbol);\n\t\t// Check if new outstanding amount of token is greater than maxSupply\n\t\tif (creatorTokens[_tokenId].outstanding > creatorTokens[_tokenId].maxSupply) {\n\t\t\t// Update maxSupply\n\t\t\tcreatorTokens[_tokenId].maxSupply = creatorTokens[_tokenId].outstanding;\n\t\t\t// Call _payout to transfer excess liquidity\n\t\t\t_payCreator(_tokenId, creatorTokens[_tokenId].creatorAddress);\n\t\t}\n\t}\n\n\t// Allow user to sell a given CreatorToken back to the platform\n\tfunction sellCreatorToken(uint _tokenId, uint _amount, address payable _seller) external payable {\n\t\t// Require that user calling function is selling own tokens\n\t\trequire(_seller == msg.sender);\n\t\t// Compute sale proceeds required\n\t\tuint proceedsRequired = _saleFunction(creatorTokens[_tokenId].outstanding, _amount, mNumerator, mDenominator, creatorTokens[_tokenId].maxSupply, profitMargin);\n\t\t// Compute fee\n\t\tuint fee = proceedsRequired*platformFee/100;\n\t\t// Add platform fee to obtain real proceedsRequired value\n\t\tproceedsRequired -= fee;\n\t\t// Burn _amount tokens from user's address (note this decreases token amount outstanding)\n\t\t_burn(_seller, _tokenId, _amount);\n\t\t// Send user proceedsRequired wei (less the platform fee) in exchange for the burned tokens\n\t\t_seller.transfer(proceedsRequired); //1500000000000000000); //\n\t\t// Update platform fee total\n\t\t_platformFeeUpdater(fee);\n\t\t// Emit new transaction event\n\t\temit NewTransaction(msg.sender, _amount, \"sell\", _tokenId, creatorTokens[_tokenId].name, creatorTokens[_tokenId].symbol);\n\t}\n}\n",
  "sourcePath": "/Users/kamilalizaisadik/DeFi/Dynamic Automated Market Maker/CreatorTokenExchange/contracts/CreatorTokenExchange.sol",
  "compiler": {
    "name": "solc",
    "version": "0.8.6+commit.11564f7e.Emscripten.clang"
  },
  "schemaVersion": "3.4.1",
  "updatedAt": "2021-07-11T23:47:01.884Z",
  "networkType": "ethereum",
  "devdoc": {
    "kind": "dev",
    "methods": {
      "balanceOf(address,uint256)": {
        "details": "See {IERC1155-balanceOf}. Requirements: - `account` cannot be the zero address."
      },
      "balanceOfBatch(address[],uint256[])": {
        "details": "See {IERC1155-balanceOfBatch}. Requirements: - `accounts` and `ids` must have the same length."
      },
      "owner()": {
        "details": "Returns the address of the current owner."
      },
      "renounceOwnership()": {
        "details": "Leaves the contract without owner. It will not be possible to call `onlyOwner` functions anymore. Can only be called by the current owner. NOTE: Renouncing ownership will leave the contract without an owner, thereby removing any functionality that is only available to the owner."
      },
      "supportsInterface(bytes4)": {
        "details": "See {IERC165-supportsInterface}."
      },
      "transferOwnership(address)": {
        "details": "Transfers ownership of the contract to a new account (`newOwner`). Can only be called by the current owner."
      },
      "uri(uint256)": {
        "details": "See {IERC1155MetadataURI-uri}. This implementation returns the same URI for *all* token types. It relies on the token type ID substitution mechanism https://eips.ethereum.org/EIPS/eip-1155#metadata[defined in the EIP]. Clients calling this function must replace the `\\{id\\}` substring with the actual token type ID."
      }
    },
    "version": 1
  },
  "userdoc": {
    "kind": "user",
    "methods": {},
    "version": 1
  }
}