{
  "contractName": "CreatorTokenFactory",
  "abi": [
    {
      "anonymous": false,
      "inputs": [
        {
          "indexed": false,
          "internalType": "uint256",
          "name": "tokenId",
          "type": "uint256"
        },
        {
          "indexed": false,
          "internalType": "address payable",
          "name": "creatorAddress",
          "type": "address"
        },
        {
          "indexed": false,
          "internalType": "string",
          "name": "name",
          "type": "string"
        },
        {
          "indexed": false,
          "internalType": "string",
          "name": "symbol",
          "type": "string"
        },
        {
          "indexed": false,
          "internalType": "string",
          "name": "description",
          "type": "string"
        },
        {
          "indexed": false,
          "internalType": "bool",
          "name": "verified",
          "type": "bool"
        },
        {
          "indexed": false,
          "internalType": "uint256",
          "name": "outstanding",
          "type": "uint256"
        },
        {
          "indexed": false,
          "internalType": "uint256",
          "name": "maxSupply",
          "type": "uint256"
        }
      ],
      "name": "NewCreatorToken",
      "type": "event"
    },
    {
      "anonymous": false,
      "inputs": [
        {
          "indexed": true,
          "internalType": "address",
          "name": "previousOwner",
          "type": "address"
        },
        {
          "indexed": true,
          "internalType": "address",
          "name": "newOwner",
          "type": "address"
        }
      ],
      "name": "OwnershipTransferred",
      "type": "event"
    },
    {
      "inputs": [
        {
          "internalType": "address",
          "name": "",
          "type": "address"
        },
        {
          "internalType": "address",
          "name": "",
          "type": "address"
        }
      ],
      "name": "approvals",
      "outputs": [
        {
          "internalType": "bool",
          "name": "",
          "type": "bool"
        }
      ],
      "stateMutability": "view",
      "type": "function"
    },
    {
      "inputs": [
        {
          "internalType": "uint256",
          "name": "",
          "type": "uint256"
        }
      ],
      "name": "creatorTokens",
      "outputs": [
        {
          "internalType": "address payable",
          "name": "creatorAddress",
          "type": "address"
        },
        {
          "internalType": "string",
          "name": "name",
          "type": "string"
        },
        {
          "internalType": "string",
          "name": "symbol",
          "type": "string"
        },
        {
          "internalType": "string",
          "name": "description",
          "type": "string"
        },
        {
          "internalType": "bool",
          "name": "verified",
          "type": "bool"
        },
        {
          "internalType": "uint256",
          "name": "outstanding",
          "type": "uint256"
        },
        {
          "internalType": "uint256",
          "name": "maxSupply",
          "type": "uint256"
        }
      ],
      "stateMutability": "view",
      "type": "function"
    },
    {
      "inputs": [],
      "name": "numCreatorTokens",
      "outputs": [
        {
          "internalType": "uint256",
          "name": "",
          "type": "uint256"
        }
      ],
      "stateMutability": "view",
      "type": "function"
    },
    {
      "inputs": [],
      "name": "owner",
      "outputs": [
        {
          "internalType": "address",
          "name": "",
          "type": "address"
        }
      ],
      "stateMutability": "view",
      "type": "function"
    },
    {
      "inputs": [],
      "name": "platformFeesOwed",
      "outputs": [
        {
          "internalType": "uint256",
          "name": "",
          "type": "uint256"
        }
      ],
      "stateMutability": "view",
      "type": "function"
    },
    {
      "inputs": [],
      "name": "renounceOwnership",
      "outputs": [],
      "stateMutability": "nonpayable",
      "type": "function"
    },
    {
      "inputs": [
        {
          "internalType": "uint256",
          "name": "",
          "type": "uint256"
        },
        {
          "internalType": "address",
          "name": "",
          "type": "address"
        }
      ],
      "name": "tokenHoldership",
      "outputs": [
        {
          "internalType": "uint256",
          "name": "",
          "type": "uint256"
        }
      ],
      "stateMutability": "view",
      "type": "function"
    },
    {
      "inputs": [
        {
          "internalType": "uint256",
          "name": "",
          "type": "uint256"
        }
      ],
      "name": "tokenToCreator",
      "outputs": [
        {
          "internalType": "address",
          "name": "",
          "type": "address"
        }
      ],
      "stateMutability": "view",
      "type": "function"
    },
    {
      "inputs": [
        {
          "internalType": "uint256",
          "name": "",
          "type": "uint256"
        }
      ],
      "name": "tokenValueTransferred",
      "outputs": [
        {
          "internalType": "uint256",
          "name": "",
          "type": "uint256"
        }
      ],
      "stateMutability": "view",
      "type": "function"
    },
    {
      "inputs": [],
      "name": "totalPlatformFees",
      "outputs": [
        {
          "internalType": "uint256",
          "name": "",
          "type": "uint256"
        }
      ],
      "stateMutability": "view",
      "type": "function"
    },
    {
      "inputs": [
        {
          "internalType": "uint256",
          "name": "",
          "type": "uint256"
        }
      ],
      "name": "totalValueLocked",
      "outputs": [
        {
          "internalType": "uint256",
          "name": "",
          "type": "uint256"
        }
      ],
      "stateMutability": "view",
      "type": "function"
    },
    {
      "inputs": [
        {
          "internalType": "address",
          "name": "newOwner",
          "type": "address"
        }
      ],
      "name": "transferOwnership",
      "outputs": [],
      "stateMutability": "nonpayable",
      "type": "function"
    },
    {
      "inputs": [
        {
          "internalType": "address",
          "name": "",
          "type": "address"
        },
        {
          "internalType": "uint256",
          "name": "",
          "type": "uint256"
        }
      ],
      "name": "userToHoldings",
      "outputs": [
        {
          "internalType": "uint256",
          "name": "",
          "type": "uint256"
        }
      ],
      "stateMutability": "view",
      "type": "function"
    },
    {
      "inputs": [
        {
          "internalType": "address payable",
          "name": "_creatorAddress",
          "type": "address"
        },
        {
          "internalType": "string",
          "name": "_name",
          "type": "string"
        },
        {
          "internalType": "string",
          "name": "_symbol",
          "type": "string"
        },
        {
          "internalType": "string",
          "name": "_description",
          "type": "string"
        }
      ],
      "name": "createCreatorToken",
      "outputs": [],
      "stateMutability": "nonpayable",
      "type": "function"
    },
    {
      "inputs": [],
      "name": "getCreatorTokenCount",
      "outputs": [
        {
          "internalType": "uint256",
          "name": "",
          "type": "uint256"
        }
      ],
      "stateMutability": "view",
      "type": "function"
    },
    {
      "inputs": [
        {
          "internalType": "uint256",
          "name": "_id",
          "type": "uint256"
        }
      ],
      "name": "getToken",
      "outputs": [
        {
          "components": [
            {
              "internalType": "address payable",
              "name": "creatorAddress",
              "type": "address"
            },
            {
              "internalType": "string",
              "name": "name",
              "type": "string"
            },
            {
              "internalType": "string",
              "name": "symbol",
              "type": "string"
            },
            {
              "internalType": "string",
              "name": "description",
              "type": "string"
            },
            {
              "internalType": "bool",
              "name": "verified",
              "type": "bool"
            },
            {
              "internalType": "uint256",
              "name": "outstanding",
              "type": "uint256"
            },
            {
              "internalType": "uint256",
              "name": "maxSupply",
              "type": "uint256"
            }
          ],
          "internalType": "struct CreatorTokenFactory.CreatorToken",
          "name": "",
          "type": "tuple"
        }
      ],
      "stateMutability": "view",
      "type": "function"
    },
    {
      "inputs": [],
      "name": "getCreatorTokens",
      "outputs": [
        {
          "components": [
            {
              "internalType": "address payable",
              "name": "creatorAddress",
              "type": "address"
            },
            {
              "internalType": "string",
              "name": "name",
              "type": "string"
            },
            {
              "internalType": "string",
              "name": "symbol",
              "type": "string"
            },
            {
              "internalType": "string",
              "name": "description",
              "type": "string"
            },
            {
              "internalType": "bool",
              "name": "verified",
              "type": "bool"
            },
            {
              "internalType": "uint256",
              "name": "outstanding",
              "type": "uint256"
            },
            {
              "internalType": "uint256",
              "name": "maxSupply",
              "type": "uint256"
            }
          ],
          "internalType": "struct CreatorTokenFactory.CreatorToken[]",
          "name": "",
          "type": "tuple[]"
        }
      ],
      "stateMutability": "view",
      "type": "function"
    }
  ],
  "bytecode": "0x60806040526001805560006002556000600355601460045565082f79cd900060055560b9600655600780549050600e5534801561003b57600080fd5b50600061004c6100ef60201b60201c565b9050806000806101000a81548173ffffffffffffffffffffffffffffffffffffffff021916908373ffffffffffffffffffffffffffffffffffffffff1602179055508073ffffffffffffffffffffffffffffffffffffffff16600073ffffffffffffffffffffffffffffffffffffffff167f8be0079c531659141344cd1fd0a4f28419497f9722a3daafe3b4186f6b6457e060405160405180910390a3506100f7565b600033905090565b611d29806101066000396000f3fe608060405234801561001057600080fd5b506004361061010b5760003560e01c8063afb21832116100a2578063d3631fa511610071578063d3631fa5146102d6578063d56b72c7146102f4578063d9bd3a4014610310578063e4b50cb814610340578063f2fde38b146103705761010b565b8063afb2183214610234578063bfb48c9c14610252578063c1d3304914610282578063ce901d8a146102a05761010b565b80638d816811116100de5780638d816811146101985780638da5cb5b146101b657806392724afa146101d4578063a32ce11e146102045761010b565b806317bcaa081461011057806318892ae8146101405780632a2b237c14610170578063715018a61461018e575b600080fd5b61012a600480360381019061012591906113ee565b61038c565b60405161013791906118a6565b60405180910390f35b61015a600480360381019061015591906113ee565b6103a4565b6040516101679190611768565b60405180910390f35b6101786103d7565b60405161018591906118a6565b60405180910390f35b6101966103e4565b005b6101a061051e565b6040516101ad9190611807565b60405180910390f35b6101be6107b8565b6040516101cb9190611768565b60405180910390f35b6101ee60048036038101906101e991906113ae565b6107e1565b6040516101fb91906118a6565b60405180910390f35b61021e6004803603810190610219919061136e565b610806565b60405161022b9190611829565b60405180910390f35b61023c610835565b60405161024991906118a6565b60405180910390f35b61026c6004803603810190610267919061141b565b61083b565b60405161027991906118a6565b60405180910390f35b61028a610860565b60405161029791906118a6565b60405180910390f35b6102ba60048036038101906102b591906113ee565b610866565b6040516102cd9796959493929190611783565b60405180910390f35b6102de610a7d565b6040516102eb91906118a6565b60405180910390f35b61030e600480360381019061030991906112b3565b610a83565b005b61032a600480360381019061032591906113ee565b610c9f565b60405161033791906118a6565b60405180910390f35b61035a600480360381019061035591906113ee565b610cb7565b6040516103679190611884565b60405180910390f35b61038a60048036038101906103859190611286565b610f2e565b005b60096020528060005260406000206000915090505481565b60086020528060005260406000206000915054906101000a900473ffffffffffffffffffffffffffffffffffffffff1681565b6000600780549050905090565b6103ec6110d7565b73ffffffffffffffffffffffffffffffffffffffff1661040a6107b8565b73ffffffffffffffffffffffffffffffffffffffff1614610460576040517f08c379a000000000000000000000000000000000000000000000000000000000815260040161045790611864565b60405180910390fd5b600073ffffffffffffffffffffffffffffffffffffffff1660008054906101000a900473ffffffffffffffffffffffffffffffffffffffff1673ffffffffffffffffffffffffffffffffffffffff167f8be0079c531659141344cd1fd0a4f28419497f9722a3daafe3b4186f6b6457e060405160405180910390a360008060006101000a81548173ffffffffffffffffffffffffffffffffffffffff021916908373ffffffffffffffffffffffffffffffffffffffff160217905550565b60606007805480602002602001604051908101604052809291908181526020016000905b828210156107af57838290600052602060002090600702016040518060e00160405290816000820160009054906101000a900473ffffffffffffffffffffffffffffffffffffffff1673ffffffffffffffffffffffffffffffffffffffff1673ffffffffffffffffffffffffffffffffffffffff1681526020016001820180546105cb90611af2565b80601f01602080910402602001604051908101604052809291908181526020018280546105f790611af2565b80156106445780601f1061061957610100808354040283529160200191610644565b820191906000526020600020905b81548152906001019060200180831161062757829003601f168201915b5050505050815260200160028201805461065d90611af2565b80601f016020809104026020016040519081016040528092919081815260200182805461068990611af2565b80156106d65780601f106106ab576101008083540402835291602001916106d6565b820191906000526020600020905b8154815290600101906020018083116106b957829003601f168201915b505050505081526020016003820180546106ef90611af2565b80601f016020809104026020016040519081016040528092919081815260200182805461071b90611af2565b80156107685780601f1061073d57610100808354040283529160200191610768565b820191906000526020600020905b81548152906001019060200180831161074b57829003601f168201915b505050505081526020016004820160009054906101000a900460ff161515151581526020016005820154815260200160068201548152505081526020019060010190610542565b50505050905090565b60008060009054906101000a900473ffffffffffffffffffffffffffffffffffffffff16905090565b600b602052816000526040600020602052806000526040600020600091509150505481565b600c6020528160005260406000206020528060005260406000206000915091509054906101000a900460ff1681565b600e5481565b600a602052816000526040600020602052806000526040600020600091509150505481565b60035481565b6007818154811061087657600080fd5b90600052602060002090600702016000915090508060000160009054906101000a900473ffffffffffffffffffffffffffffffffffffffff16908060010180546108bf90611af2565b80601f01602080910402602001604051908101604052809291908181526020018280546108eb90611af2565b80156109385780601f1061090d57610100808354040283529160200191610938565b820191906000526020600020905b81548152906001019060200180831161091b57829003601f168201915b50505050509080600201805461094d90611af2565b80601f016020809104026020016040519081016040528092919081815260200182805461097990611af2565b80156109c65780601f1061099b576101008083540402835291602001916109c6565b820191906000526020600020905b8154815290600101906020018083116109a957829003601f168201915b5050505050908060030180546109db90611af2565b80601f0160208091040260200160405190810160405280929190818152602001828054610a0790611af2565b8015610a545780601f10610a2957610100808354040283529160200191610a54565b820191906000526020600020905b815481529060010190602001808311610a3757829003601f168201915b5050505050908060040160009054906101000a900460ff16908060050154908060060154905087565b60025481565b60076040518060e001604052808673ffffffffffffffffffffffffffffffffffffffff168152602001858152602001848152602001838152602001600015158152602001600081526020016000815250908060018154018082558091505060019003906000526020600020906007020160009091909190915060008201518160000160006101000a81548173ffffffffffffffffffffffffffffffffffffffff021916908373ffffffffffffffffffffffffffffffffffffffff1602179055506020820151816001019080519060200190610b5f9291906110df565b506040820151816002019080519060200190610b7c9291906110df565b506060820151816003019080519060200190610b999291906110df565b5060808201518160040160006101000a81548160ff02191690831515021790555060a0820151816005015560c08201518160060155505060006001600780549050610be49190611a10565b9050846008600083815260200190815260200160002060006101000a81548173ffffffffffffffffffffffffffffffffffffffff021916908373ffffffffffffffffffffffffffffffffffffffff160217905550600060096000838152602001908152602001600020819055507f3ef624c0f3fb7ad40b94c02078ea3e3a797dbfc21e921ee4bd2b8ad0ca6aa11381868686866000806000604051610c909897969594939291906118c1565b60405180910390a15050505050565b600d6020528060005260406000206000915090505481565b610cbf611165565b60078281548110610cd357610cd2611bb3565b5b90600052602060002090600702016040518060e00160405290816000820160009054906101000a900473ffffffffffffffffffffffffffffffffffffffff1673ffffffffffffffffffffffffffffffffffffffff1673ffffffffffffffffffffffffffffffffffffffff168152602001600182018054610d5290611af2565b80601f0160208091040260200160405190810160405280929190818152602001828054610d7e90611af2565b8015610dcb5780601f10610da057610100808354040283529160200191610dcb565b820191906000526020600020905b815481529060010190602001808311610dae57829003601f168201915b50505050508152602001600282018054610de490611af2565b80601f0160208091040260200160405190810160405280929190818152602001828054610e1090611af2565b8015610e5d5780601f10610e3257610100808354040283529160200191610e5d565b820191906000526020600020905b815481529060010190602001808311610e4057829003601f168201915b50505050508152602001600382018054610e7690611af2565b80601f0160208091040260200160405190810160405280929190818152602001828054610ea290611af2565b8015610eef5780601f10610ec457610100808354040283529160200191610eef565b820191906000526020600020905b815481529060010190602001808311610ed257829003601f168201915b505050505081526020016004820160009054906101000a900460ff16151515158152602001600582015481526020016006820154815250509050919050565b610f366110d7565b73ffffffffffffffffffffffffffffffffffffffff16610f546107b8565b73ffffffffffffffffffffffffffffffffffffffff1614610faa576040517f08c379a0000000000000000000000000000000000000000000000000000000008152600401610fa190611864565b60405180910390fd5b600073ffffffffffffffffffffffffffffffffffffffff168173ffffffffffffffffffffffffffffffffffffffff16141561101a576040517f08c379a000000000000000000000000000000000000000000000000000000000815260040161101190611844565b60405180910390fd5b8073ffffffffffffffffffffffffffffffffffffffff1660008054906101000a900473ffffffffffffffffffffffffffffffffffffffff1673ffffffffffffffffffffffffffffffffffffffff167f8be0079c531659141344cd1fd0a4f28419497f9722a3daafe3b4186f6b6457e060405160405180910390a3806000806101000a81548173ffffffffffffffffffffffffffffffffffffffff021916908373ffffffffffffffffffffffffffffffffffffffff16021790555050565b600033905090565b8280546110eb90611af2565b90600052602060002090601f01602090048101928261110d5760008555611154565b82601f1061112657805160ff1916838001178555611154565b82800160010185558215611154579182015b82811115611153578251825591602001919060010190611138565b5b50905061116191906111ba565b5090565b6040518060e00160405280600073ffffffffffffffffffffffffffffffffffffffff16815260200160608152602001606081526020016060815260200160001515815260200160008152602001600081525090565b5b808211156111d35760008160009055506001016111bb565b5090565b60006111ea6111e584611979565b611954565b90508281526020810184848401111561120657611205611c16565b5b611211848285611ab0565b509392505050565b60008135905061122881611cae565b92915050565b60008135905061123d81611cc5565b92915050565b600082601f83011261125857611257611c11565b5b81356112688482602086016111d7565b91505092915050565b60008135905061128081611cdc565b92915050565b60006020828403121561129c5761129b611c20565b5b60006112aa84828501611219565b91505092915050565b600080600080608085870312156112cd576112cc611c20565b5b60006112db8782880161122e565b945050602085013567ffffffffffffffff8111156112fc576112fb611c1b565b5b61130887828801611243565b935050604085013567ffffffffffffffff81111561132957611328611c1b565b5b61133587828801611243565b925050606085013567ffffffffffffffff81111561135657611355611c1b565b5b61136287828801611243565b91505092959194509250565b6000806040838503121561138557611384611c20565b5b600061139385828601611219565b92505060206113a485828601611219565b9150509250929050565b600080604083850312156113c5576113c4611c20565b5b60006113d385828601611219565b92505060206113e485828601611271565b9150509250929050565b60006020828403121561140457611403611c20565b5b600061141284828501611271565b91505092915050565b6000806040838503121561143257611431611c20565b5b600061144085828601611271565b925050602061145185828601611219565b9150509250929050565b600061146783836115f6565b905092915050565b61147881611a56565b82525050565b61148781611a56565b82525050565b61149681611a44565b82525050565b60006114a7826119ba565b6114b181856119dd565b9350836020820285016114c3856119aa565b8060005b858110156114ff57848403895281516114e0858261145b565b94506114eb836119d0565b925060208a019950506001810190506114c7565b50829750879550505050505092915050565b61151a81611a68565b82525050565b61152981611a68565b82525050565b61153881611a9e565b82525050565b6000611549826119c5565b61155381856119ee565b9350611563818560208601611abf565b61156c81611c25565b840191505092915050565b6000611582826119c5565b61158c81856119ff565b935061159c818560208601611abf565b6115a581611c25565b840191505092915050565b60006115bd6026836119ff565b91506115c882611c36565b604082019050919050565b60006115e06020836119ff565b91506115eb82611c85565b602082019050919050565b600060e08301600083015161160e600086018261146f565b5060208301518482036020860152611626828261153e565b91505060408301518482036040860152611640828261153e565b9150506060830151848203606086015261165a828261153e565b915050608083015161166f6080860182611511565b5060a083015161168260a086018261174a565b5060c083015161169560c086018261174a565b508091505092915050565b600060e0830160008301516116b8600086018261146f565b50602083015184820360208601526116d0828261153e565b915050604083015184820360408601526116ea828261153e565b91505060608301518482036060860152611704828261153e565b91505060808301516117196080860182611511565b5060a083015161172c60a086018261174a565b5060c083015161173f60c086018261174a565b508091505092915050565b61175381611a94565b82525050565b61176281611a94565b82525050565b600060208201905061177d600083018461148d565b92915050565b600060e082019050611798600083018a61147e565b81810360208301526117aa8189611577565b905081810360408301526117be8188611577565b905081810360608301526117d28187611577565b90506117e16080830186611520565b6117ee60a0830185611759565b6117fb60c0830184611759565b98975050505050505050565b60006020820190508181036000830152611821818461149c565b905092915050565b600060208201905061183e6000830184611520565b92915050565b6000602082019050818103600083015261185d816115b0565b9050919050565b6000602082019050818103600083015261187d816115d3565b9050919050565b6000602082019050818103600083015261189e81846116a0565b905092915050565b60006020820190506118bb6000830184611759565b92915050565b6000610100820190506118d7600083018b611759565b6118e4602083018a61147e565b81810360408301526118f68189611577565b9050818103606083015261190a8188611577565b9050818103608083015261191e8187611577565b905061192d60a0830186611520565b61193a60c083018561152f565b61194760e083018461152f565b9998505050505050505050565b600061195e61196f565b905061196a8282611b24565b919050565b6000604051905090565b600067ffffffffffffffff82111561199457611993611be2565b5b61199d82611c25565b9050602081019050919050565b6000819050602082019050919050565b600081519050919050565b600081519050919050565b6000602082019050919050565b600082825260208201905092915050565b600082825260208201905092915050565b600082825260208201905092915050565b6000611a1b82611a94565b9150611a2683611a94565b925082821015611a3957611a38611b55565b5b828203905092915050565b6000611a4f82611a74565b9050919050565b6000611a6182611a74565b9050919050565b60008115159050919050565b600073ffffffffffffffffffffffffffffffffffffffff82169050919050565b6000819050919050565b6000611aa982611a94565b9050919050565b82818337600083830152505050565b60005b83811015611add578082015181840152602081019050611ac2565b83811115611aec576000848401525b50505050565b60006002820490506001821680611b0a57607f821691505b60208210811415611b1e57611b1d611b84565b5b50919050565b611b2d82611c25565b810181811067ffffffffffffffff82111715611b4c57611b4b611be2565b5b80604052505050565b7f4e487b7100000000000000000000000000000000000000000000000000000000600052601160045260246000fd5b7f4e487b7100000000000000000000000000000000000000000000000000000000600052602260045260246000fd5b7f4e487b7100000000000000000000000000000000000000000000000000000000600052603260045260246000fd5b7f4e487b7100000000000000000000000000000000000000000000000000000000600052604160045260246000fd5b600080fd5b600080fd5b600080fd5b600080fd5b6000601f19601f8301169050919050565b7f4f776e61626c653a206e6577206f776e657220697320746865207a65726f206160008201527f6464726573730000000000000000000000000000000000000000000000000000602082015250565b7f4f776e61626c653a2063616c6c6572206973206e6f7420746865206f776e6572600082015250565b611cb781611a44565b8114611cc257600080fd5b50565b611cce81611a56565b8114611cd957600080fd5b50565b611ce581611a94565b8114611cf057600080fd5b5056fea2646970667358221220c626381a3137607ed5f0dd5e329157a76b3278318324c5eb10493b761665a65a64736f6c63430008060033",
  "immutableReferences": {},
  "source": "// SPDX-License-Identifier: MIT\npragma solidity ^0.8.0;\n\nimport \"@openzeppelin/contracts/access/Ownable.sol\";\n\n/// @title A contract generating Creator Tokens, as well as relevant attributes and mappings\n/// @author Kamil Alizai Sadik\ncontract CreatorTokenFactory is Ownable {\n\n\t// Event that fires whenever a new CreatorToken is created\n\tevent NewCreatorToken(uint tokenId, address payable creatorAddress, string name, string symbol, string description, bool verified, uint outstanding, uint maxSupply);\n\n\t// Pay-on-top style platform fee on each transaction\n\tuint platformFee = 1; // e.g., if platformFee == 1, the platform earns 1% of each transaction's value\n\t// Variable to track total platform fees generated\n\tuint public totalPlatformFees = 0;\n\t// Variable to track platform fees owed, but not yet paid to owner\n\tuint public platformFeesOwed = 0;\n\n\t// Profit margin (percentage of total revenue) directed toward creator\n\tuint profitMargin = 20;\n\n\t// Slope of buy price function\n\tuint mNumerator = 9000000000000;\n\tuint mDenominator = 185;\n\n\t// Struct containing CreatorToken attributes\n\tstruct CreatorToken {\n\t\taddress payable creatorAddress;\n\t\tstring name;\n\t\tstring symbol;\n\t\tstring description;\n\t\tbool verified;\n\t\tuint outstanding;\n\t\tuint maxSupply;\n\t}\n\n\t// Array of all CreatorTokens\n\tCreatorToken[] public creatorTokens;\n\n\t// Mapping from tokenId to creatorAddress\n\tmapping (uint => address) public tokenToCreator;\n\t// Mapping from tokenId to token value transferred to creator\n\tmapping (uint => uint) public tokenValueTransferred;\n\t// Mapping from tokenId to mapping from address to quantity of tokenId held\n\tmapping(uint256 => mapping(address => uint256)) public tokenHoldership;\n\t// Mapping from user to mapping from tokenId to quantity of that token the user owns (to show a user's portfolio without having to iterate through tokenHoldership)\n\tmapping(address => mapping(uint256 => uint256)) public userToHoldings;\n\t// Mapping from account to operator approvals\n\tmapping(address => mapping(address => bool)) public approvals;\n\t// Mapping from token to total value locked\n\tmapping (uint => uint) public totalValueLocked;\n\n\t/// @dev Creates a new creator token\n\t/// @param _creatorAddress Address of the creator of the token\n\t/// @param _name Name chosen by the creator of the token\n\t/// @param _symbol Ticker symbol chosen by the creator of the token\n\t/// @param _description chosen by the creator of the tokens\n\tfunction createCreatorToken(address payable _creatorAddress, string memory _name, string memory _symbol, string memory _description) public {\n\t\t// Add token to creatorTokens array\n\t\tcreatorTokens.push(CreatorToken(_creatorAddress, _name, _symbol, _description, false, 0, 0));\n\t\t// Create token id\n\t\tuint id = creatorTokens.length - 1;\n\t\t// Map from token id to creator's address\n\t\ttokenToCreator[id] = _creatorAddress;\n\t\t// Map from token id to amount of value transferred (0 at inception)\n\t\ttokenValueTransferred[id] = 0;\n\t\t// Emit token creation event\n\t\temit NewCreatorToken(id, _creatorAddress, _name, _symbol, _description, false, 0, 0);\n\t}\n\n\tuint public numCreatorTokens = creatorTokens.length;\n\n\t/// @dev Returns the current length of the creatorTokens array\n\t/// @return uint representing number of unique Creator Tokens\n\tfunction getCreatorTokenCount() external view returns (uint) {\n\t\t// Return length of creatorTokens array\n\t\treturn creatorTokens.length;\n\t}\n\n\t/// @dev Returns token with a particular id\n\t/// @param _id Id of desired token\n\t/// @return CreatorToken\n\tfunction getToken(uint _id) external view returns (CreatorToken memory) {\n\t\treturn creatorTokens[_id];\n\t}\n\n\t/// @dev Returns entire array of tokens\n\t/// @return CreatorToken[]\n\tfunction getCreatorTokens() external view returns (CreatorToken[] memory) {\n\t\treturn creatorTokens;\n\t}\n}",
  "sourcePath": "/Users/kamilalizaisadik/DeFi/Dynamic Automated Market Maker/CreatorTokenExchange/contracts/creatortokenfactory.sol",
  "compiler": {
    "name": "solc",
    "version": "0.8.6+commit.11564f7e.Emscripten.clang"
  },
  "schemaVersion": "3.4.1",
  "updatedAt": "2021-07-31T15:41:24.766Z",
  "devdoc": {
    "author": "Kamil Alizai Sadik",
    "kind": "dev",
    "methods": {
      "createCreatorToken(address,string,string,string)": {
        "details": "Creates a new creator token",
        "params": {
          "_creatorAddress": "Address of the creator of the token",
          "_description": "chosen by the creator of the tokens",
          "_name": "Name chosen by the creator of the token",
          "_symbol": "Ticker symbol chosen by the creator of the token"
        }
      },
      "getCreatorTokenCount()": {
        "details": "Returns the current length of the creatorTokens array",
        "returns": {
          "_0": "uint representing number of unique Creator Tokens"
        }
      },
      "getCreatorTokens()": {
        "details": "Returns entire array of tokens",
        "returns": {
          "_0": "CreatorToken[]"
        }
      },
      "getToken(uint256)": {
        "details": "Returns token with a particular id",
        "params": {
          "_id": "Id of desired token"
        },
        "returns": {
          "_0": "CreatorToken"
        }
      },
      "owner()": {
        "details": "Returns the address of the current owner."
      },
      "renounceOwnership()": {
        "details": "Leaves the contract without owner. It will not be possible to call `onlyOwner` functions anymore. Can only be called by the current owner. NOTE: Renouncing ownership will leave the contract without an owner, thereby removing any functionality that is only available to the owner."
      },
      "transferOwnership(address)": {
        "details": "Transfers ownership of the contract to a new account (`newOwner`). Can only be called by the current owner."
      }
    },
    "title": "A contract generating Creator Tokens, as well as relevant attributes and mappings",
    "version": 1
  },
  "userdoc": {
    "kind": "user",
    "methods": {},
    "version": 1
  }
}