{
  "contractName": "CreatorTokenFormulas",
  "abi": [
    {
      "inputs": [
        {
          "internalType": "string",
          "name": "uri",
          "type": "string"
        }
      ],
      "stateMutability": "nonpayable",
      "type": "constructor"
    },
    {
      "anonymous": false,
      "inputs": [
        {
          "indexed": true,
          "internalType": "address",
          "name": "account",
          "type": "address"
        },
        {
          "indexed": true,
          "internalType": "address",
          "name": "operator",
          "type": "address"
        },
        {
          "indexed": false,
          "internalType": "bool",
          "name": "approved",
          "type": "bool"
        }
      ],
      "name": "ApprovalForAll",
      "type": "event"
    },
    {
      "anonymous": false,
      "inputs": [
        {
          "indexed": false,
          "internalType": "uint256",
          "name": "tokenId",
          "type": "uint256"
        },
        {
          "indexed": false,
          "internalType": "address payable",
          "name": "creatorAddress",
          "type": "address"
        },
        {
          "indexed": false,
          "internalType": "string",
          "name": "name",
          "type": "string"
        },
        {
          "indexed": false,
          "internalType": "string",
          "name": "symbol",
          "type": "string"
        },
        {
          "indexed": false,
          "internalType": "string",
          "name": "description",
          "type": "string"
        },
        {
          "indexed": false,
          "internalType": "bool",
          "name": "verified",
          "type": "bool"
        },
        {
          "indexed": false,
          "internalType": "uint256",
          "name": "outstanding",
          "type": "uint256"
        },
        {
          "indexed": false,
          "internalType": "uint256",
          "name": "maxSupply",
          "type": "uint256"
        }
      ],
      "name": "NewCreatorToken",
      "type": "event"
    },
    {
      "anonymous": false,
      "inputs": [
        {
          "indexed": true,
          "internalType": "address",
          "name": "previousOwner",
          "type": "address"
        },
        {
          "indexed": true,
          "internalType": "address",
          "name": "newOwner",
          "type": "address"
        }
      ],
      "name": "OwnershipTransferred",
      "type": "event"
    },
    {
      "anonymous": false,
      "inputs": [
        {
          "indexed": true,
          "internalType": "address",
          "name": "operator",
          "type": "address"
        },
        {
          "indexed": true,
          "internalType": "address",
          "name": "from",
          "type": "address"
        },
        {
          "indexed": true,
          "internalType": "address",
          "name": "to",
          "type": "address"
        },
        {
          "indexed": false,
          "internalType": "uint256[]",
          "name": "ids",
          "type": "uint256[]"
        },
        {
          "indexed": false,
          "internalType": "uint256[]",
          "name": "values",
          "type": "uint256[]"
        }
      ],
      "name": "TransferBatch",
      "type": "event"
    },
    {
      "anonymous": false,
      "inputs": [
        {
          "indexed": true,
          "internalType": "address",
          "name": "operator",
          "type": "address"
        },
        {
          "indexed": true,
          "internalType": "address",
          "name": "from",
          "type": "address"
        },
        {
          "indexed": true,
          "internalType": "address",
          "name": "to",
          "type": "address"
        },
        {
          "indexed": false,
          "internalType": "uint256",
          "name": "id",
          "type": "uint256"
        },
        {
          "indexed": false,
          "internalType": "uint256",
          "name": "value",
          "type": "uint256"
        }
      ],
      "name": "TransferSingle",
      "type": "event"
    },
    {
      "anonymous": false,
      "inputs": [
        {
          "indexed": false,
          "internalType": "string",
          "name": "value",
          "type": "string"
        },
        {
          "indexed": true,
          "internalType": "uint256",
          "name": "id",
          "type": "uint256"
        }
      ],
      "name": "URI",
      "type": "event"
    },
    {
      "inputs": [
        {
          "internalType": "address",
          "name": "",
          "type": "address"
        },
        {
          "internalType": "address",
          "name": "",
          "type": "address"
        }
      ],
      "name": "approvals",
      "outputs": [
        {
          "internalType": "bool",
          "name": "",
          "type": "bool"
        }
      ],
      "stateMutability": "view",
      "type": "function"
    },
    {
      "inputs": [
        {
          "internalType": "address",
          "name": "account",
          "type": "address"
        },
        {
          "internalType": "uint256",
          "name": "id",
          "type": "uint256"
        }
      ],
      "name": "balanceOf",
      "outputs": [
        {
          "internalType": "uint256",
          "name": "",
          "type": "uint256"
        }
      ],
      "stateMutability": "view",
      "type": "function"
    },
    {
      "inputs": [
        {
          "internalType": "address[]",
          "name": "accounts",
          "type": "address[]"
        },
        {
          "internalType": "uint256[]",
          "name": "ids",
          "type": "uint256[]"
        }
      ],
      "name": "balanceOfBatch",
      "outputs": [
        {
          "internalType": "uint256[]",
          "name": "",
          "type": "uint256[]"
        }
      ],
      "stateMutability": "view",
      "type": "function"
    },
    {
      "inputs": [
        {
          "internalType": "uint256",
          "name": "_tokenId",
          "type": "uint256"
        },
        {
          "internalType": "address payable",
          "name": "_newCreatorAddress",
          "type": "address"
        }
      ],
      "name": "changeAddress",
      "outputs": [],
      "stateMutability": "nonpayable",
      "type": "function"
    },
    {
      "inputs": [
        {
          "internalType": "uint256",
          "name": "_tokenId",
          "type": "uint256"
        },
        {
          "internalType": "string",
          "name": "_newDescription",
          "type": "string"
        }
      ],
      "name": "changeDescription",
      "outputs": [],
      "stateMutability": "nonpayable",
      "type": "function"
    },
    {
      "inputs": [
        {
          "internalType": "uint256",
          "name": "_tokenId",
          "type": "uint256"
        },
        {
          "internalType": "string",
          "name": "_newName",
          "type": "string"
        }
      ],
      "name": "changeName",
      "outputs": [],
      "stateMutability": "nonpayable",
      "type": "function"
    },
    {
      "inputs": [
        {
          "internalType": "uint256",
          "name": "_newPlatformFee",
          "type": "uint256"
        }
      ],
      "name": "changePlatformFee",
      "outputs": [],
      "stateMutability": "nonpayable",
      "type": "function"
    },
    {
      "inputs": [
        {
          "internalType": "uint256",
          "name": "_newProfitMargin",
          "type": "uint256"
        }
      ],
      "name": "changeProfitMargin",
      "outputs": [],
      "stateMutability": "nonpayable",
      "type": "function"
    },
    {
      "inputs": [
        {
          "internalType": "uint256",
          "name": "_tokenId",
          "type": "uint256"
        },
        {
          "internalType": "string",
          "name": "_newSymbol",
          "type": "string"
        }
      ],
      "name": "changeSymbol",
      "outputs": [],
      "stateMutability": "nonpayable",
      "type": "function"
    },
    {
      "inputs": [
        {
          "internalType": "uint256",
          "name": "_tokenId",
          "type": "uint256"
        },
        {
          "internalType": "bool",
          "name": "_verified",
          "type": "bool"
        }
      ],
      "name": "changeVerification",
      "outputs": [],
      "stateMutability": "nonpayable",
      "type": "function"
    },
    {
      "inputs": [
        {
          "internalType": "address payable",
          "name": "_creatorAddress",
          "type": "address"
        },
        {
          "internalType": "string",
          "name": "_name",
          "type": "string"
        },
        {
          "internalType": "string",
          "name": "_symbol",
          "type": "string"
        },
        {
          "internalType": "string",
          "name": "_description",
          "type": "string"
        }
      ],
      "name": "createCreatorToken",
      "outputs": [],
      "stateMutability": "nonpayable",
      "type": "function"
    },
    {
      "inputs": [
        {
          "internalType": "uint256",
          "name": "",
          "type": "uint256"
        }
      ],
      "name": "creatorTokens",
      "outputs": [
        {
          "internalType": "address payable",
          "name": "creatorAddress",
          "type": "address"
        },
        {
          "internalType": "string",
          "name": "name",
          "type": "string"
        },
        {
          "internalType": "string",
          "name": "symbol",
          "type": "string"
        },
        {
          "internalType": "string",
          "name": "description",
          "type": "string"
        },
        {
          "internalType": "bool",
          "name": "verified",
          "type": "bool"
        },
        {
          "internalType": "uint256",
          "name": "outstanding",
          "type": "uint256"
        },
        {
          "internalType": "uint256",
          "name": "maxSupply",
          "type": "uint256"
        }
      ],
      "stateMutability": "view",
      "type": "function"
    },
    {
      "inputs": [],
      "name": "getCreatorTokenCount",
      "outputs": [
        {
          "internalType": "uint256",
          "name": "",
          "type": "uint256"
        }
      ],
      "stateMutability": "view",
      "type": "function"
    },
    {
      "inputs": [],
      "name": "getCreatorTokens",
      "outputs": [
        {
          "components": [
            {
              "internalType": "address payable",
              "name": "creatorAddress",
              "type": "address"
            },
            {
              "internalType": "string",
              "name": "name",
              "type": "string"
            },
            {
              "internalType": "string",
              "name": "symbol",
              "type": "string"
            },
            {
              "internalType": "string",
              "name": "description",
              "type": "string"
            },
            {
              "internalType": "bool",
              "name": "verified",
              "type": "bool"
            },
            {
              "internalType": "uint256",
              "name": "outstanding",
              "type": "uint256"
            },
            {
              "internalType": "uint256",
              "name": "maxSupply",
              "type": "uint256"
            }
          ],
          "internalType": "struct CreatorTokenFactory.CreatorToken[]",
          "name": "",
          "type": "tuple[]"
        }
      ],
      "stateMutability": "view",
      "type": "function"
    },
    {
      "inputs": [
        {
          "internalType": "uint256",
          "name": "_id",
          "type": "uint256"
        }
      ],
      "name": "getToken",
      "outputs": [
        {
          "components": [
            {
              "internalType": "address payable",
              "name": "creatorAddress",
              "type": "address"
            },
            {
              "internalType": "string",
              "name": "name",
              "type": "string"
            },
            {
              "internalType": "string",
              "name": "symbol",
              "type": "string"
            },
            {
              "internalType": "string",
              "name": "description",
              "type": "string"
            },
            {
              "internalType": "bool",
              "name": "verified",
              "type": "bool"
            },
            {
              "internalType": "uint256",
              "name": "outstanding",
              "type": "uint256"
            },
            {
              "internalType": "uint256",
              "name": "maxSupply",
              "type": "uint256"
            }
          ],
          "internalType": "struct CreatorTokenFactory.CreatorToken",
          "name": "",
          "type": "tuple"
        }
      ],
      "stateMutability": "view",
      "type": "function"
    },
    {
      "inputs": [
        {
          "internalType": "address",
          "name": "_account",
          "type": "address"
        },
        {
          "internalType": "address",
          "name": "_operator",
          "type": "address"
        }
      ],
      "name": "isApprovedForAll",
      "outputs": [
        {
          "internalType": "bool",
          "name": "",
          "type": "bool"
        }
      ],
      "stateMutability": "view",
      "type": "function"
    },
    {
      "inputs": [],
      "name": "numCreatorTokens",
      "outputs": [
        {
          "internalType": "uint256",
          "name": "",
          "type": "uint256"
        }
      ],
      "stateMutability": "view",
      "type": "function"
    },
    {
      "inputs": [],
      "name": "owner",
      "outputs": [
        {
          "internalType": "address",
          "name": "",
          "type": "address"
        }
      ],
      "stateMutability": "view",
      "type": "function"
    },
    {
      "inputs": [
        {
          "internalType": "address payable",
          "name": "_owner",
          "type": "address"
        }
      ],
      "name": "payoutPlatformFees",
      "outputs": [],
      "stateMutability": "nonpayable",
      "type": "function"
    },
    {
      "inputs": [],
      "name": "platformFeesOwed",
      "outputs": [
        {
          "internalType": "uint256",
          "name": "",
          "type": "uint256"
        }
      ],
      "stateMutability": "view",
      "type": "function"
    },
    {
      "inputs": [],
      "name": "renounceOwnership",
      "outputs": [],
      "stateMutability": "nonpayable",
      "type": "function"
    },
    {
      "inputs": [
        {
          "internalType": "address",
          "name": "_from",
          "type": "address"
        },
        {
          "internalType": "address",
          "name": "_to",
          "type": "address"
        },
        {
          "internalType": "uint256[]",
          "name": "_ids",
          "type": "uint256[]"
        },
        {
          "internalType": "uint256[]",
          "name": "_amounts",
          "type": "uint256[]"
        },
        {
          "internalType": "bytes",
          "name": "_data",
          "type": "bytes"
        }
      ],
      "name": "safeBatchTransferFrom",
      "outputs": [],
      "stateMutability": "nonpayable",
      "type": "function"
    },
    {
      "inputs": [
        {
          "internalType": "address",
          "name": "_from",
          "type": "address"
        },
        {
          "internalType": "address",
          "name": "_to",
          "type": "address"
        },
        {
          "internalType": "uint256",
          "name": "_id",
          "type": "uint256"
        },
        {
          "internalType": "uint256",
          "name": "_amount",
          "type": "uint256"
        },
        {
          "internalType": "bytes",
          "name": "_data",
          "type": "bytes"
        }
      ],
      "name": "safeTransferFrom",
      "outputs": [],
      "stateMutability": "nonpayable",
      "type": "function"
    },
    {
      "inputs": [
        {
          "internalType": "address",
          "name": "_operator",
          "type": "address"
        },
        {
          "internalType": "bool",
          "name": "_approved",
          "type": "bool"
        }
      ],
      "name": "setApprovalForAll",
      "outputs": [],
      "stateMutability": "nonpayable",
      "type": "function"
    },
    {
      "inputs": [
        {
          "internalType": "bytes4",
          "name": "interfaceId",
          "type": "bytes4"
        }
      ],
      "name": "supportsInterface",
      "outputs": [
        {
          "internalType": "bool",
          "name": "",
          "type": "bool"
        }
      ],
      "stateMutability": "view",
      "type": "function"
    },
    {
      "inputs": [
        {
          "internalType": "uint256",
          "name": "",
          "type": "uint256"
        },
        {
          "internalType": "address",
          "name": "",
          "type": "address"
        }
      ],
      "name": "tokenHoldership",
      "outputs": [
        {
          "internalType": "uint256",
          "name": "",
          "type": "uint256"
        }
      ],
      "stateMutability": "view",
      "type": "function"
    },
    {
      "inputs": [
        {
          "internalType": "uint256",
          "name": "",
          "type": "uint256"
        }
      ],
      "name": "tokenToCreator",
      "outputs": [
        {
          "internalType": "address",
          "name": "",
          "type": "address"
        }
      ],
      "stateMutability": "view",
      "type": "function"
    },
    {
      "inputs": [
        {
          "internalType": "uint256",
          "name": "",
          "type": "uint256"
        }
      ],
      "name": "tokenValueTransferred",
      "outputs": [
        {
          "internalType": "uint256",
          "name": "",
          "type": "uint256"
        }
      ],
      "stateMutability": "view",
      "type": "function"
    },
    {
      "inputs": [],
      "name": "totalPlatformFees",
      "outputs": [
        {
          "internalType": "uint256",
          "name": "",
          "type": "uint256"
        }
      ],
      "stateMutability": "view",
      "type": "function"
    },
    {
      "inputs": [
        {
          "internalType": "uint256",
          "name": "",
          "type": "uint256"
        }
      ],
      "name": "totalValueLocked",
      "outputs": [
        {
          "internalType": "uint256",
          "name": "",
          "type": "uint256"
        }
      ],
      "stateMutability": "view",
      "type": "function"
    },
    {
      "inputs": [
        {
          "internalType": "address",
          "name": "newOwner",
          "type": "address"
        }
      ],
      "name": "transferOwnership",
      "outputs": [],
      "stateMutability": "nonpayable",
      "type": "function"
    },
    {
      "inputs": [
        {
          "internalType": "uint256",
          "name": "",
          "type": "uint256"
        }
      ],
      "name": "uri",
      "outputs": [
        {
          "internalType": "string",
          "name": "",
          "type": "string"
        }
      ],
      "stateMutability": "view",
      "type": "function"
    },
    {
      "inputs": [
        {
          "internalType": "address",
          "name": "",
          "type": "address"
        },
        {
          "internalType": "uint256",
          "name": "",
          "type": "uint256"
        }
      ],
      "name": "userToHoldings",
      "outputs": [
        {
          "internalType": "uint256",
          "name": "",
          "type": "uint256"
        }
      ],
      "stateMutability": "view",
      "type": "function"
    },
    {
      "inputs": [
        {
          "internalType": "address payable",
          "name": "_owner",
          "type": "address"
        }
      ],
      "name": "withdraw",
      "outputs": [],
      "stateMutability": "nonpayable",
      "type": "function"
    },
    {
      "inputs": [
        {
          "internalType": "uint256",
          "name": "_startingSupply",
          "type": "uint256"
        },
        {
          "internalType": "uint256",
          "name": "_amount",
          "type": "uint256"
        },
        {
          "internalType": "uint256",
          "name": "_mNumerator",
          "type": "uint256"
        },
        {
          "internalType": "uint256",
          "name": "_mDenominator",
          "type": "uint256"
        },
        {
          "internalType": "uint256",
          "name": "_maxSupply",
          "type": "uint256"
        },
        {
          "internalType": "uint256",
          "name": "_profitMargin",
          "type": "uint256"
        }
      ],
      "name": "_saleFunction",
      "outputs": [
        {
          "internalType": "uint256",
          "name": "",
          "type": "uint256"
        }
      ],
      "stateMutability": "pure",
      "type": "function"
    }
  ],
  "bytecode": "0x60806040526001805560006002556000600355601460045565082f79cd900060055560b9600655600780549050600e553480156200003c57600080fd5b506040516200438138038062004381833981810160405281019062000062919062000280565b80806000620000766200012e60201b60201c565b9050806000806101000a81548173ffffffffffffffffffffffffffffffffffffffff021916908373ffffffffffffffffffffffffffffffffffffffff1602179055508073ffffffffffffffffffffffffffffffffffffffff16600073ffffffffffffffffffffffffffffffffffffffff167f8be0079c531659141344cd1fd0a4f28419497f9722a3daafe3b4186f6b6457e060405160405180910390a35062000125816200013660201b60201c565b50505062000455565b600033905090565b80601190805190602001906200014e92919062000152565b5050565b828054620001609062000366565b90600052602060002090601f016020900481019282620001845760008555620001d0565b82601f106200019f57805160ff1916838001178555620001d0565b82800160010185558215620001d0579182015b82811115620001cf578251825591602001919060010190620001b2565b5b509050620001df9190620001e3565b5090565b5b80821115620001fe576000816000905550600101620001e4565b5090565b6000620002196200021384620002fa565b620002d1565b90508281526020810184848401111562000238576200023762000435565b5b6200024584828562000330565b509392505050565b600082601f83011262000265576200026462000430565b5b81516200027784826020860162000202565b91505092915050565b6000602082840312156200029957620002986200043f565b5b600082015167ffffffffffffffff811115620002ba57620002b96200043a565b5b620002c8848285016200024d565b91505092915050565b6000620002dd620002f0565b9050620002eb82826200039c565b919050565b6000604051905090565b600067ffffffffffffffff82111562000318576200031762000401565b5b620003238262000444565b9050602081019050919050565b60005b838110156200035057808201518184015260208101905062000333565b8381111562000360576000848401525b50505050565b600060028204905060018216806200037f57607f821691505b60208210811415620003965762000395620003d2565b5b50919050565b620003a78262000444565b810181811067ffffffffffffffff82111715620003c957620003c862000401565b5b80604052505050565b7f4e487b7100000000000000000000000000000000000000000000000000000000600052602260045260246000fd5b7f4e487b7100000000000000000000000000000000000000000000000000000000600052604160045260246000fd5b600080fd5b600080fd5b600080fd5b600080fd5b6000601f19601f8301169050919050565b613f1c80620004656000396000f3fe608060405234801561001057600080fd5b50600436106102105760003560e01c8063afb2183211610125578063d9bd3a40116100ad578063e985e9c51161007c578063e985e9c514610661578063eb84175914610691578063f242432a146106ad578063f2fde38b146106c9578063f7374e2e146106e557610210565b8063d9bd3a40146105b5578063de6a06ed146105e5578063df3c00b114610601578063e4b50cb81461063157610210565b8063c539c317116100f4578063c539c3171461050d578063ce901d8a14610529578063d3631fa51461055f578063d56b72c71461057d578063d7a5791a1461059957610210565b8063afb2183214610485578063bfb48c9c146104a3578063c1d33049146104d3578063c39cbef1146104f157610210565b80632eb2c2d6116101a85780638d816811116101775780638d816811146103cd5780638da5cb5b146103eb57806392724afa14610409578063a22cb46514610439578063a32ce11e1461045557610210565b80632eb2c2d61461035b5780634e1273f41461037757806351cff8d9146103a7578063715018a6146103c357610210565b806317bcaa08116101e457806317bcaa08146102c157806318892ae8146102f15780631d5ad18b146103215780632a2b237c1461033d57610210565b8062fdd58e1461021557806301ffc9a71461024557806306e320f5146102755780630e89341c14610291575b600080fd5b61022f600480360381019061022a9190612ed2565b610701565b60405161023c9190613753565b60405180910390f35b61025f600480360381019061025a9190612f8a565b6107cb565b60405161026c9190613674565b60405180910390f35b61028f600480360381019061028a91906130a4565b6108ad565b005b6102ab60048036038101906102a69190612fb7565b610954565b6040516102b8919061368f565b60405180910390f35b6102db60048036038101906102d69190612fb7565b6109e8565b6040516102e89190613753565b60405180910390f35b61030b60048036038101906103069190612fb7565b610a00565b604051610318919061355a565b60405180910390f35b61033b60048036038101906103369190613024565b610a33565b005b610345610b08565b6040516103529190613753565b60405180910390f35b61037560048036038101906103709190612d2c565b610b15565b005b610391600480360381019061038c9190612f12565b610c81565b60405161039e919061361b565b60405180910390f35b6103c160048036038101906103bc9190612c04565b610d9a565b005b6103cb610e60565b005b6103d5610f9a565b6040516103e291906135f9565b60405180910390f35b6103f3611234565b604051610400919061355a565b60405180910390f35b610423600480360381019061041e9190612ed2565b61125d565b6040516104309190613753565b60405180910390f35b610453600480360381019061044e9190612e92565b611282565b005b61046f600480360381019061046a9190612cec565b61137f565b60405161047c9190613674565b60405180910390f35b61048d6113ae565b60405161049a9190613753565b60405180910390f35b6104bd60048036038101906104b89190612fe4565b6113b4565b6040516104ca9190613753565b60405180910390f35b6104db6113d9565b6040516104e89190613753565b60405180910390f35b61050b600480360381019061050691906130a4565b6113df565b005b61052760048036038101906105229190612fb7565b611486565b005b610543600480360381019061053e9190612fb7565b61150c565b6040516105569796959493929190613575565b60405180910390f35b610567611723565b6040516105749190613753565b60405180910390f35b61059760048036038101906105929190612c31565b611729565b005b6105b360048036038101906105ae9190612fb7565b611945565b005b6105cf60048036038101906105ca9190612fb7565b6119cb565b6040516105dc9190613753565b60405180910390f35b6105ff60048036038101906105fa91906130a4565b6119e3565b005b61061b60048036038101906106169190613104565b611a8a565b6040516106289190613753565b60405180910390f35b61064b60048036038101906106469190612fb7565b611b03565b6040516106589190613731565b60405180910390f35b61067b60048036038101906106769190612cec565b611d7a565b6040516106889190613674565b60405180910390f35b6106ab60048036038101906106a69190612c04565b611e0e565b005b6106c760048036038101906106c29190612dfb565b611ede565b005b6106e360048036038101906106de9190612bd7565b611fc2565b005b6106ff60048036038101906106fa9190613064565b61216b565b005b60008073ffffffffffffffffffffffffffffffffffffffff168373ffffffffffffffffffffffffffffffffffffffff161415610772576040517f08c379a0000000000000000000000000000000000000000000000000000000008152600401610769906136b1565b60405180910390fd5b600f600083815260200190815260200160002060008473ffffffffffffffffffffffffffffffffffffffff1673ffffffffffffffffffffffffffffffffffffffff16815260200190815260200160002054905092915050565b60007fd9b67a26000000000000000000000000000000000000000000000000000000007bffffffffffffffffffffffffffffffffffffffffffffffffffffffff1916827bffffffffffffffffffffffffffffffffffffffffffffffffffffffff1916148061089657507f0e89341c000000000000000000000000000000000000000000000000000000007bffffffffffffffffffffffffffffffffffffffffffffffffffffffff1916827bffffffffffffffffffffffffffffffffffffffffffffffffffffffff1916145b806108a657506108a582612228565b5b9050919050565b826008600082815260200190815260200160002060009054906101000a900473ffffffffffffffffffffffffffffffffffffffff1673ffffffffffffffffffffffffffffffffffffffff163373ffffffffffffffffffffffffffffffffffffffff161461091957600080fd5b82826007868154811061092f5761092e613cd0565b5b9060005260206000209060070201600201919061094d92919061277e565b5050505050565b60606011805461096390613b97565b80601f016020809104026020016040519081016040528092919081815260200182805461098f90613b97565b80156109dc5780601f106109b1576101008083540402835291602001916109dc565b820191906000526020600020905b8154815290600101906020018083116109bf57829003601f168201915b50505050509050919050565b60096020528060005260406000206000915090505481565b60086020528060005260406000206000915054906101000a900473ffffffffffffffffffffffffffffffffffffffff1681565b816008600082815260200190815260200160002060009054906101000a900473ffffffffffffffffffffffffffffffffffffffff1673ffffffffffffffffffffffffffffffffffffffff163373ffffffffffffffffffffffffffffffffffffffff1614610a9f57600080fd5b8160078481548110610ab457610ab3613cd0565b5b906000526020600020906007020160000160006101000a81548173ffffffffffffffffffffffffffffffffffffffff021916908373ffffffffffffffffffffffffffffffffffffffff160217905550505050565b6000600780549050905090565b60005b8351811015610bfb578573ffffffffffffffffffffffffffffffffffffffff163373ffffffffffffffffffffffffffffffffffffffff161480610b615750610b608686611d7a565b5b610b6a57600080fd5b610ba986858381518110610b8157610b80613cd0565b5b6020026020010151858481518110610b9c57610b9b613cd0565b5b6020026020010151612292565b610be885858381518110610bc057610bbf613cd0565b5b6020026020010151858481518110610bdb57610bda613cd0565b5b6020026020010151612365565b8080610bf390613bfa565b915050610b18565b508373ffffffffffffffffffffffffffffffffffffffff168573ffffffffffffffffffffffffffffffffffffffff163373ffffffffffffffffffffffffffffffffffffffff167f4a39dc06d4c0dbc64b70af90fd698a233a518aa5d07e595d983b8c0526c8f7fb8686604051610c7292919061363d565b60405180910390a45050505050565b60608151835114610cc7576040517f08c379a0000000000000000000000000000000000000000000000000000000008152600401610cbe90613711565b60405180910390fd5b6000835167ffffffffffffffff811115610ce457610ce3613cff565b5b604051908082528060200260200182016040528015610d125781602001602082028036833780820191505090505b50905060005b8451811015610d8f57610d5f858281518110610d3757610d36613cd0565b5b6020026020010151858381518110610d5257610d51613cd0565b5b6020026020010151610701565b828281518110610d7257610d71613cd0565b5b60200260200101818152505080610d8890613bfa565b9050610d18565b508091505092915050565b610da2612438565b73ffffffffffffffffffffffffffffffffffffffff16610dc0611234565b73ffffffffffffffffffffffffffffffffffffffff1614610e16576040517f08c379a0000000000000000000000000000000000000000000000000000000008152600401610e0d906136f1565b60405180910390fd5b8073ffffffffffffffffffffffffffffffffffffffff166108fc479081150290604051600060405180830381858888f19350505050158015610e5c573d6000803e3d6000fd5b5050565b610e68612438565b73ffffffffffffffffffffffffffffffffffffffff16610e86611234565b73ffffffffffffffffffffffffffffffffffffffff1614610edc576040517f08c379a0000000000000000000000000000000000000000000000000000000008152600401610ed3906136f1565b60405180910390fd5b600073ffffffffffffffffffffffffffffffffffffffff1660008054906101000a900473ffffffffffffffffffffffffffffffffffffffff1673ffffffffffffffffffffffffffffffffffffffff167f8be0079c531659141344cd1fd0a4f28419497f9722a3daafe3b4186f6b6457e060405160405180910390a360008060006101000a81548173ffffffffffffffffffffffffffffffffffffffff021916908373ffffffffffffffffffffffffffffffffffffffff160217905550565b60606007805480602002602001604051908101604052809291908181526020016000905b8282101561122b57838290600052602060002090600702016040518060e00160405290816000820160009054906101000a900473ffffffffffffffffffffffffffffffffffffffff1673ffffffffffffffffffffffffffffffffffffffff1673ffffffffffffffffffffffffffffffffffffffff16815260200160018201805461104790613b97565b80601f016020809104026020016040519081016040528092919081815260200182805461107390613b97565b80156110c05780601f10611095576101008083540402835291602001916110c0565b820191906000526020600020905b8154815290600101906020018083116110a357829003601f168201915b505050505081526020016002820180546110d990613b97565b80601f016020809104026020016040519081016040528092919081815260200182805461110590613b97565b80156111525780601f1061112757610100808354040283529160200191611152565b820191906000526020600020905b81548152906001019060200180831161113557829003601f168201915b5050505050815260200160038201805461116b90613b97565b80601f016020809104026020016040519081016040528092919081815260200182805461119790613b97565b80156111e45780601f106111b9576101008083540402835291602001916111e4565b820191906000526020600020905b8154815290600101906020018083116111c757829003601f168201915b505050505081526020016004820160009054906101000a900460ff161515151581526020016005820154815260200160068201548152505081526020019060010190610fbe565b50505050905090565b60008060009054906101000a900473ffffffffffffffffffffffffffffffffffffffff16905090565b600b602052816000526040600020602052806000526040600020600091509150505481565b80600c60003373ffffffffffffffffffffffffffffffffffffffff1673ffffffffffffffffffffffffffffffffffffffff16815260200190815260200160002060008473ffffffffffffffffffffffffffffffffffffffff1673ffffffffffffffffffffffffffffffffffffffff16815260200190815260200160002060006101000a81548160ff0219169083151502179055508173ffffffffffffffffffffffffffffffffffffffff163373ffffffffffffffffffffffffffffffffffffffff167f17307eab39ab6107e8899845ad3d59bd9653f200f220920489ca2b5937696c31836040516113739190613674565b60405180910390a35050565b600c6020528160005260406000206020528060005260406000206000915091509054906101000a900460ff1681565b600e5481565b600a602052816000526040600020602052806000526040600020600091509150505481565b60035481565b826008600082815260200190815260200160002060009054906101000a900473ffffffffffffffffffffffffffffffffffffffff1673ffffffffffffffffffffffffffffffffffffffff163373ffffffffffffffffffffffffffffffffffffffff161461144b57600080fd5b82826007868154811061146157611460613cd0565b5b9060005260206000209060070201600101919061147f92919061277e565b5050505050565b61148e612438565b73ffffffffffffffffffffffffffffffffffffffff166114ac611234565b73ffffffffffffffffffffffffffffffffffffffff1614611502576040517f08c379a00000000000000000000000000000000000000000000000000000000081526004016114f9906136f1565b60405180910390fd5b8060048190555050565b6007818154811061151c57600080fd5b90600052602060002090600702016000915090508060000160009054906101000a900473ffffffffffffffffffffffffffffffffffffffff169080600101805461156590613b97565b80601f016020809104026020016040519081016040528092919081815260200182805461159190613b97565b80156115de5780601f106115b3576101008083540402835291602001916115de565b820191906000526020600020905b8154815290600101906020018083116115c157829003601f168201915b5050505050908060020180546115f390613b97565b80601f016020809104026020016040519081016040528092919081815260200182805461161f90613b97565b801561166c5780601f106116415761010080835404028352916020019161166c565b820191906000526020600020905b81548152906001019060200180831161164f57829003601f168201915b50505050509080600301805461168190613b97565b80601f01602080910402602001604051908101604052809291908181526020018280546116ad90613b97565b80156116fa5780601f106116cf576101008083540402835291602001916116fa565b820191906000526020600020905b8154815290600101906020018083116116dd57829003601f168201915b5050505050908060040160009054906101000a900460ff16908060050154908060060154905087565b60025481565b60076040518060e001604052808673ffffffffffffffffffffffffffffffffffffffff168152602001858152602001848152602001838152602001600015158152602001600081526020016000815250908060018154018082558091505060019003906000526020600020906007020160009091909190915060008201518160000160006101000a81548173ffffffffffffffffffffffffffffffffffffffff021916908373ffffffffffffffffffffffffffffffffffffffff1602179055506020820151816001019080519060200190611805929190612804565b506040820151816002019080519060200190611822929190612804565b50606082015181600301908051906020019061183f929190612804565b5060808201518160040160006101000a81548160ff02191690831515021790555060a0820151816005015560c0820151816006015550506000600160078054905061188a9190613a89565b9050846008600083815260200190815260200160002060006101000a81548173ffffffffffffffffffffffffffffffffffffffff021916908373ffffffffffffffffffffffffffffffffffffffff160217905550600060096000838152602001908152602001600020819055507f3ef624c0f3fb7ad40b94c02078ea3e3a797dbfc21e921ee4bd2b8ad0ca6aa1138186868686600080600060405161193698979695949392919061376e565b60405180910390a15050505050565b61194d612438565b73ffffffffffffffffffffffffffffffffffffffff1661196b611234565b73ffffffffffffffffffffffffffffffffffffffff16146119c1576040517f08c379a00000000000000000000000000000000000000000000000000000000081526004016119b8906136f1565b60405180910390fd5b8060018190555050565b600d6020528060005260406000206000915090505481565b826008600082815260200190815260200160002060009054906101000a900473ffffffffffffffffffffffffffffffffffffffff1673ffffffffffffffffffffffffffffffffffffffff163373ffffffffffffffffffffffffffffffffffffffff1614611a4f57600080fd5b828260078681548110611a6557611a64613cd0565b5b90600052602060002090600702016003019190611a8392919061277e565b5050505050565b600080600080611a9e8a8a8a8a8a8a612440565b9250925092506000838b1015611ac157611aba84848d856124bb565b9050611af2565b83821015611adf57611ad884848d858d8d8d61255e565b9050611af1565b611aee84848d858d8d8d612680565b90505b5b809450505050509695505050505050565b611b0b61288a565b60078281548110611b1f57611b1e613cd0565b5b90600052602060002090600702016040518060e00160405290816000820160009054906101000a900473ffffffffffffffffffffffffffffffffffffffff1673ffffffffffffffffffffffffffffffffffffffff1673ffffffffffffffffffffffffffffffffffffffff168152602001600182018054611b9e90613b97565b80601f0160208091040260200160405190810160405280929190818152602001828054611bca90613b97565b8015611c175780601f10611bec57610100808354040283529160200191611c17565b820191906000526020600020905b815481529060010190602001808311611bfa57829003601f168201915b50505050508152602001600282018054611c3090613b97565b80601f0160208091040260200160405190810160405280929190818152602001828054611c5c90613b97565b8015611ca95780601f10611c7e57610100808354040283529160200191611ca9565b820191906000526020600020905b815481529060010190602001808311611c8c57829003601f168201915b50505050508152602001600382018054611cc290613b97565b80601f0160208091040260200160405190810160405280929190818152602001828054611cee90613b97565b8015611d3b5780601f10611d1057610100808354040283529160200191611d3b565b820191906000526020600020905b815481529060010190602001808311611d1e57829003601f168201915b505050505081526020016004820160009054906101000a900460ff16151515158152602001600582015481526020016006820154815250509050919050565b6000600c60008473ffffffffffffffffffffffffffffffffffffffff1673ffffffffffffffffffffffffffffffffffffffff16815260200190815260200160002060008373ffffffffffffffffffffffffffffffffffffffff1673ffffffffffffffffffffffffffffffffffffffff16815260200190815260200160002060009054906101000a900460ff16905092915050565b611e16612438565b73ffffffffffffffffffffffffffffffffffffffff16611e34611234565b73ffffffffffffffffffffffffffffffffffffffff1614611e8a576040517f08c379a0000000000000000000000000000000000000000000000000000000008152600401611e81906136f1565b60405180910390fd5b8073ffffffffffffffffffffffffffffffffffffffff166108fc6003549081150290604051600060405180830381858888f19350505050158015611ed2573d6000803e3d6000fd5b50600060038190555050565b8473ffffffffffffffffffffffffffffffffffffffff163373ffffffffffffffffffffffffffffffffffffffff161480611f1e5750611f1d8585611d7a565b5b611f2757600080fd5b611f32858484612292565b611f3d848484612365565b8373ffffffffffffffffffffffffffffffffffffffff168573ffffffffffffffffffffffffffffffffffffffff163373ffffffffffffffffffffffffffffffffffffffff167fc3d58168c5ae7397731d063d5bbf3d657854427343f4c083240f7aacaa2d0f628686604051611fb3929190613801565b60405180910390a45050505050565b611fca612438565b73ffffffffffffffffffffffffffffffffffffffff16611fe8611234565b73ffffffffffffffffffffffffffffffffffffffff161461203e576040517f08c379a0000000000000000000000000000000000000000000000000000000008152600401612035906136f1565b60405180910390fd5b600073ffffffffffffffffffffffffffffffffffffffff168173ffffffffffffffffffffffffffffffffffffffff1614156120ae576040517f08c379a00000000000000000000000000000000000000000000000000000000081526004016120a5906136d1565b60405180910390fd5b8073ffffffffffffffffffffffffffffffffffffffff1660008054906101000a900473ffffffffffffffffffffffffffffffffffffffff1673ffffffffffffffffffffffffffffffffffffffff167f8be0079c531659141344cd1fd0a4f28419497f9722a3daafe3b4186f6b6457e060405160405180910390a3806000806101000a81548173ffffffffffffffffffffffffffffffffffffffff021916908373ffffffffffffffffffffffffffffffffffffffff16021790555050565b612173612438565b73ffffffffffffffffffffffffffffffffffffffff16612191611234565b73ffffffffffffffffffffffffffffffffffffffff16146121e7576040517f08c379a00000000000000000000000000000000000000000000000000000000081526004016121de906136f1565b60405180910390fd5b80600783815481106121fc576121fb613cd0565b5b906000526020600020906007020160040160006101000a81548160ff0219169083151502179055505050565b60007f01ffc9a7000000000000000000000000000000000000000000000000000000007bffffffffffffffffffffffffffffffffffffffffffffffffffffffff1916827bffffffffffffffffffffffffffffffffffffffffffffffffffffffff1916149050919050565b80600a600084815260200190815260200160002060008573ffffffffffffffffffffffffffffffffffffffff1673ffffffffffffffffffffffffffffffffffffffff16815260200190815260200160002060008282546122f29190613a89565b9250508190555080600b60008573ffffffffffffffffffffffffffffffffffffffff1673ffffffffffffffffffffffffffffffffffffffff168152602001908152602001600020600084815260200190815260200160002060008282546123599190613a89565b92505081905550505050565b80600a600084815260200190815260200160002060008573ffffffffffffffffffffffffffffffffffffffff1673ffffffffffffffffffffffffffffffffffffffff16815260200190815260200160002060008282546123c591906139a8565b9250508190555080600b60008573ffffffffffffffffffffffffffffffffffffffff1673ffffffffffffffffffffffffffffffffffffffff1681526020019081526020016000206000848152602001908152602001600020600082825461242c91906139a8565b92505081905550505050565b600033905090565b60008060008060028661245391906139fe565b90506000878960648860326124689190613a89565b8a6124739190613a2f565b61247d91906139fe565b6124879190613a2f565b61249191906139fe565b905060008a8c6124a19190613a89565b905082828295509550955050505096509650969350505050565b60008082866124ca9190613a89565b86866124d691906139fe565b6124e09190613a2f565b856124eb9190613a89565b9050600084876124fb9190613a89565b878761250791906139fe565b6125119190613a2f565b8661251c9190613a89565b90506000848661252c9190613a89565b9050600281838561253d91906139a8565b6125479190613a2f565b61255191906139fe565b9350505050949350505050565b600080858961256d9190613a89565b898961257991906139fe565b6125839190613a2f565b8861258e9190613a89565b905060008890506000878b6125a39190613a89565b9050600060028284866125b691906139a8565b6125c09190613a2f565b6125ca91906139fe565b905060008b8d8c6125db9190613a89565b8e896125e79190613a89565b8e8b8b8e6125f59190613a2f565b6125ff91906139fe565b6126099190613a89565b61261391906139fe565b61261d9190613a2f565b61262791906139a8565b905060008d8c6126379190613a89565b90506000600282848861264a91906139a8565b6126549190613a2f565b61265e91906139fe565b9050808461266c91906139a8565b975050505050505050979650505050505050565b6000808789876126909190613a89565b8a8561269c9190613a89565b8a87878a6126aa9190613a2f565b6126b491906139fe565b6126be9190613a89565b6126c891906139fe565b6126d29190613a2f565b6126dc91906139a8565b90506000888a896126ed9190613a89565b8b866126f99190613a89565b8b88888b6127079190613a2f565b61271191906139fe565b61271b9190613a89565b61272591906139fe565b61272f9190613a2f565b61273991906139a8565b9050600087896127499190613a89565b9050600281838561275a91906139a8565b6127649190613a2f565b61276e91906139fe565b9350505050979650505050505050565b82805461278a90613b97565b90600052602060002090601f0160209004810192826127ac57600085556127f3565b82601f106127c557803560ff19168380011785556127f3565b828001600101855582156127f3579182015b828111156127f25782358255916020019190600101906127d7565b5b50905061280091906128df565b5090565b82805461281090613b97565b90600052602060002090601f0160209004810192826128325760008555612879565b82601f1061284b57805160ff1916838001178555612879565b82800160010185558215612879579182015b8281111561287857825182559160200191906001019061285d565b5b50905061288691906128df565b5090565b6040518060e00160405280600073ffffffffffffffffffffffffffffffffffffffff16815260200160608152602001606081526020016060815260200160001515815260200160008152602001600081525090565b5b808211156128f85760008160009055506001016128e0565b5090565b600061290f61290a8461384f565b61382a565b9050808382526020820190508285602086028201111561293257612931613d38565b5b60005b8581101561296257816129488882612a60565b845260208401935060208301925050600181019050612935565b5050509392505050565b600061297f61297a8461387b565b61382a565b905080838252602082019050828560208602820111156129a2576129a1613d38565b5b60005b858110156129d257816129b88882612bc2565b8452602084019350602083019250506001810190506129a5565b5050509392505050565b60006129ef6129ea846138a7565b61382a565b905082815260208101848484011115612a0b57612a0a613d3d565b5b612a16848285613b55565b509392505050565b6000612a31612a2c846138d8565b61382a565b905082815260208101848484011115612a4d57612a4c613d3d565b5b612a58848285613b55565b509392505050565b600081359050612a6f81613e73565b92915050565b600081359050612a8481613e8a565b92915050565b600082601f830112612a9f57612a9e613d33565b5b8135612aaf8482602086016128fc565b91505092915050565b600082601f830112612acd57612acc613d33565b5b8135612add84826020860161296c565b91505092915050565b600081359050612af581613ea1565b92915050565b600081359050612b0a81613eb8565b92915050565b600082601f830112612b2557612b24613d33565b5b8135612b358482602086016129dc565b91505092915050565b60008083601f840112612b5457612b53613d33565b5b8235905067ffffffffffffffff811115612b7157612b70613d2e565b5b602083019150836001820283011115612b8d57612b8c613d38565b5b9250929050565b600082601f830112612ba957612ba8613d33565b5b8135612bb9848260208601612a1e565b91505092915050565b600081359050612bd181613ecf565b92915050565b600060208284031215612bed57612bec613d47565b5b6000612bfb84828501612a60565b91505092915050565b600060208284031215612c1a57612c19613d47565b5b6000612c2884828501612a75565b91505092915050565b60008060008060808587031215612c4b57612c4a613d47565b5b6000612c5987828801612a75565b945050602085013567ffffffffffffffff811115612c7a57612c79613d42565b5b612c8687828801612b94565b935050604085013567ffffffffffffffff811115612ca757612ca6613d42565b5b612cb387828801612b94565b925050606085013567ffffffffffffffff811115612cd457612cd3613d42565b5b612ce087828801612b94565b91505092959194509250565b60008060408385031215612d0357612d02613d47565b5b6000612d1185828601612a60565b9250506020612d2285828601612a60565b9150509250929050565b600080600080600060a08688031215612d4857612d47613d47565b5b6000612d5688828901612a60565b9550506020612d6788828901612a60565b945050604086013567ffffffffffffffff811115612d8857612d87613d42565b5b612d9488828901612ab8565b935050606086013567ffffffffffffffff811115612db557612db4613d42565b5b612dc188828901612ab8565b925050608086013567ffffffffffffffff811115612de257612de1613d42565b5b612dee88828901612b10565b9150509295509295909350565b600080600080600060a08688031215612e1757612e16613d47565b5b6000612e2588828901612a60565b9550506020612e3688828901612a60565b9450506040612e4788828901612bc2565b9350506060612e5888828901612bc2565b925050608086013567ffffffffffffffff811115612e7957612e78613d42565b5b612e8588828901612b10565b9150509295509295909350565b60008060408385031215612ea957612ea8613d47565b5b6000612eb785828601612a60565b9250506020612ec885828601612ae6565b9150509250929050565b60008060408385031215612ee957612ee8613d47565b5b6000612ef785828601612a60565b9250506020612f0885828601612bc2565b9150509250929050565b60008060408385031215612f2957612f28613d47565b5b600083013567ffffffffffffffff811115612f4757612f46613d42565b5b612f5385828601612a8a565b925050602083013567ffffffffffffffff811115612f7457612f73613d42565b5b612f8085828601612ab8565b9150509250929050565b600060208284031215612fa057612f9f613d47565b5b6000612fae84828501612afb565b91505092915050565b600060208284031215612fcd57612fcc613d47565b5b6000612fdb84828501612bc2565b91505092915050565b60008060408385031215612ffb57612ffa613d47565b5b600061300985828601612bc2565b925050602061301a85828601612a60565b9150509250929050565b6000806040838503121561303b5761303a613d47565b5b600061304985828601612bc2565b925050602061305a85828601612a75565b9150509250929050565b6000806040838503121561307b5761307a613d47565b5b600061308985828601612bc2565b925050602061309a85828601612ae6565b9150509250929050565b6000806000604084860312156130bd576130bc613d47565b5b60006130cb86828701612bc2565b935050602084013567ffffffffffffffff8111156130ec576130eb613d42565b5b6130f886828701612b3e565b92509250509250925092565b60008060008060008060c0878903121561312157613120613d47565b5b600061312f89828a01612bc2565b965050602061314089828a01612bc2565b955050604061315189828a01612bc2565b945050606061316289828a01612bc2565b935050608061317389828a01612bc2565b92505060a061318489828a01612bc2565b9150509295509295509295565b600061319d83836133e8565b905092915050565b60006131b1838361353c565b60208301905092915050565b6131c681613acf565b82525050565b6131d581613acf565b82525050565b6131e481613abd565b82525050565b60006131f582613929565b6131ff8185613964565b93508360208202850161321185613909565b8060005b8581101561324d578484038952815161322e8582613191565b94506132398361394a565b925060208a01995050600181019050613215565b50829750879550505050505092915050565b600061326a82613934565b6132748185613975565b935061327f83613919565b8060005b838110156132b057815161329788826131a5565b97506132a283613957565b925050600181019050613283565b5085935050505092915050565b6132c681613ae1565b82525050565b6132d581613ae1565b82525050565b6132e481613b43565b82525050565b60006132f58261393f565b6132ff8185613986565b935061330f818560208601613b64565b61331881613d4c565b840191505092915050565b600061332e8261393f565b6133388185613997565b9350613348818560208601613b64565b61335181613d4c565b840191505092915050565b6000613369602b83613997565b915061337482613d5d565b604082019050919050565b600061338c602683613997565b915061339782613dac565b604082019050919050565b60006133af602083613997565b91506133ba82613dfb565b602082019050919050565b60006133d2602983613997565b91506133dd82613e24565b604082019050919050565b600060e08301600083015161340060008601826131bd565b506020830151848203602086015261341882826132ea565b9150506040830151848203604086015261343282826132ea565b9150506060830151848203606086015261344c82826132ea565b915050608083015161346160808601826132bd565b5060a083015161347460a086018261353c565b5060c083015161348760c086018261353c565b508091505092915050565b600060e0830160008301516134aa60008601826131bd565b50602083015184820360208601526134c282826132ea565b915050604083015184820360408601526134dc82826132ea565b915050606083015184820360608601526134f682826132ea565b915050608083015161350b60808601826132bd565b5060a083015161351e60a086018261353c565b5060c083015161353160c086018261353c565b508091505092915050565b61354581613b39565b82525050565b61355481613b39565b82525050565b600060208201905061356f60008301846131db565b92915050565b600060e08201905061358a600083018a6131cc565b818103602083015261359c8189613323565b905081810360408301526135b08188613323565b905081810360608301526135c48187613323565b90506135d360808301866132cc565b6135e060a083018561354b565b6135ed60c083018461354b565b98975050505050505050565b6000602082019050818103600083015261361381846131ea565b905092915050565b60006020820190508181036000830152613635818461325f565b905092915050565b60006040820190508181036000830152613657818561325f565b9050818103602083015261366b818461325f565b90509392505050565b600060208201905061368960008301846132cc565b92915050565b600060208201905081810360008301526136a98184613323565b905092915050565b600060208201905081810360008301526136ca8161335c565b9050919050565b600060208201905081810360008301526136ea8161337f565b9050919050565b6000602082019050818103600083015261370a816133a2565b9050919050565b6000602082019050818103600083015261372a816133c5565b9050919050565b6000602082019050818103600083015261374b8184613492565b905092915050565b6000602082019050613768600083018461354b565b92915050565b600061010082019050613784600083018b61354b565b613791602083018a6131cc565b81810360408301526137a38189613323565b905081810360608301526137b78188613323565b905081810360808301526137cb8187613323565b90506137da60a08301866132cc565b6137e760c08301856132db565b6137f460e08301846132db565b9998505050505050505050565b6000604082019050613816600083018561354b565b613823602083018461354b565b9392505050565b6000613834613845565b90506138408282613bc9565b919050565b6000604051905090565b600067ffffffffffffffff82111561386a57613869613cff565b5b602082029050602081019050919050565b600067ffffffffffffffff82111561389657613895613cff565b5b602082029050602081019050919050565b600067ffffffffffffffff8211156138c2576138c1613cff565b5b6138cb82613d4c565b9050602081019050919050565b600067ffffffffffffffff8211156138f3576138f2613cff565b5b6138fc82613d4c565b9050602081019050919050565b6000819050602082019050919050565b6000819050602082019050919050565b600081519050919050565b600081519050919050565b600081519050919050565b6000602082019050919050565b6000602082019050919050565b600082825260208201905092915050565b600082825260208201905092915050565b600082825260208201905092915050565b600082825260208201905092915050565b60006139b382613b39565b91506139be83613b39565b9250827fffffffffffffffffffffffffffffffffffffffffffffffffffffffffffffffff038211156139f3576139f2613c43565b5b828201905092915050565b6000613a0982613b39565b9150613a1483613b39565b925082613a2457613a23613c72565b5b828204905092915050565b6000613a3a82613b39565b9150613a4583613b39565b9250817fffffffffffffffffffffffffffffffffffffffffffffffffffffffffffffffff0483118215151615613a7e57613a7d613c43565b5b828202905092915050565b6000613a9482613b39565b9150613a9f83613b39565b925082821015613ab257613ab1613c43565b5b828203905092915050565b6000613ac882613b19565b9050919050565b6000613ada82613b19565b9050919050565b60008115159050919050565b60007fffffffff0000000000000000000000000000000000000000000000000000000082169050919050565b600073ffffffffffffffffffffffffffffffffffffffff82169050919050565b6000819050919050565b6000613b4e82613b39565b9050919050565b82818337600083830152505050565b60005b83811015613b82578082015181840152602081019050613b67565b83811115613b91576000848401525b50505050565b60006002820490506001821680613baf57607f821691505b60208210811415613bc357613bc2613ca1565b5b50919050565b613bd282613d4c565b810181811067ffffffffffffffff82111715613bf157613bf0613cff565b5b80604052505050565b6000613c0582613b39565b91507fffffffffffffffffffffffffffffffffffffffffffffffffffffffffffffffff821415613c3857613c37613c43565b5b600182019050919050565b7f4e487b7100000000000000000000000000000000000000000000000000000000600052601160045260246000fd5b7f4e487b7100000000000000000000000000000000000000000000000000000000600052601260045260246000fd5b7f4e487b7100000000000000000000000000000000000000000000000000000000600052602260045260246000fd5b7f4e487b7100000000000000000000000000000000000000000000000000000000600052603260045260246000fd5b7f4e487b7100000000000000000000000000000000000000000000000000000000600052604160045260246000fd5b600080fd5b600080fd5b600080fd5b600080fd5b600080fd5b600080fd5b6000601f19601f8301169050919050565b7f455243313135353a2062616c616e636520717565727920666f7220746865207a60008201527f65726f2061646472657373000000000000000000000000000000000000000000602082015250565b7f4f776e61626c653a206e6577206f776e657220697320746865207a65726f206160008201527f6464726573730000000000000000000000000000000000000000000000000000602082015250565b7f4f776e61626c653a2063616c6c6572206973206e6f7420746865206f776e6572600082015250565b7f455243313135353a206163636f756e747320616e6420696473206c656e67746860008201527f206d69736d617463680000000000000000000000000000000000000000000000602082015250565b613e7c81613abd565b8114613e8757600080fd5b50565b613e9381613acf565b8114613e9e57600080fd5b50565b613eaa81613ae1565b8114613eb557600080fd5b50565b613ec181613aed565b8114613ecc57600080fd5b50565b613ed881613b39565b8114613ee357600080fd5b5056fea2646970667358221220afbc1ac3346ccd0e990e758b344048fb77ee4fa518e7914fd2341c312c19371864736f6c63430008060033",
  "immutableReferences": {},
  "source": "// SPDX-License-Identifier: MIT\npragma solidity ^0.8.0;\n\nimport \"./creatortokenownership.sol\";\n\n/// @title Formulas representing the buy and sale price functions, as well as helper functions to efficiently calculate area under the curve\n/// @author Kamil Alizai Sadik\ncontract CreatorTokenFormulas is CreatorTokenOwnership {\n\n\tconstructor(string memory uri) CreatorTokenOwnership(uri) { }\n\n\t/// @dev Calculates area under buy price function\n\t/// @param _startingSupply Supply of token in circulation before the transaction\n\t/// @param _amount Amount of token being purchased\n\t/// @param _mNumerator Numerator of the slope of the buy price function\n\t/// @param _mDenominator Denominator of the slope of the buy price function\n\t/// @return Area under buy price function denoting total proceeds required to buy _amount tokens (before fees)\n\tfunction _buyFunction(uint _startingSupply, uint _amount, uint _mNumerator, uint _mDenominator) internal pure returns (uint256) {\n\t\t// b(x) = m*x\n\t\tuint endSupply = _startingSupply + _amount;\n\t\tuint base1 = _mNumerator*_startingSupply/_mDenominator;\n\t\tuint base2 = _mNumerator*endSupply/_mDenominator;\n\t\tuint height = endSupply-_startingSupply;\n\t\tuint area = (base1 + base2) * height / 2;\n\t\treturn area;\n\t}\n\n\t/// @dev Calculates area under sale price function\n\t/// @param _startingSupply Supply of token in circulation before the transaction\n\t/// @param _amount Amount of token being transacted\n\t/// @param _mNumerator Numerator of the slope of the buy price function\n\t/// @param _mDenominator Denominator of the slope of the buy price function\n\t/// @param _maxSupply Peak level of supply of the token to date\n\t/// @param _profitMargin percentage of total revenue generated routed to creator\n\t/// @return Area under sale price function denoting total proceeds received when selling _amount tokens (before fees)\n\tfunction _saleFunction(uint _startingSupply, uint _amount, uint _mNumerator, uint _mDenominator, uint _maxSupply, uint _profitMargin) public pure returns (uint256) {\n\t\t// Calculate breakpoint and endSupply\n\t\t(uint a, uint b, uint endSupply) = _breakpoint(_startingSupply, _amount, _mNumerator, _mDenominator, _maxSupply, _profitMargin);\n\t\t// Initialize area under curve\n\t\tuint area = 0;\n\t\t// Check where _startingSupply is relative to the breakpoint\n\t\tif (_startingSupply < a) {\n\t\t\t// Just need trapezoidal area of partial entirely left of the breakpoint\n\t\t\tarea = _leftArea(a, b, _startingSupply, endSupply);\n\t\t} else if (endSupply < a) {\n\t\t\t// Scenario in which _startingSupply >= a, and endSupply < a\n\t\t\t// There, need trapezoidal area of components both to right and left of breakpoint\n\t\t\tarea = _bothArea(a, b, _startingSupply, endSupply, _mNumerator, _mDenominator, _maxSupply);\n\t\t} else {\n\t\t\t// Scenario in which entire sale occurs to right of breakpoint\n\t\t\t// Just need trapezoidal area of partial entirely right of the breakpoint\n\t\t\tarea = _rightArea(a, b, _startingSupply, endSupply, _mNumerator, _mDenominator, _maxSupply);\n\t\t}\n\t\treturn area;\n\t}\n\n\t/// @dev Calculates breakpoint and other key inputs into _saleFunction\n\t/// @param _startingSupply Supply of token in circulation before the transaction\n\t/// @param _amount Amount of token being transacted\n\t/// @param _mNumerator Numerator of the slope of the buy price function\n\t/// @param _mDenominator Denominator of the slope of the buy price function\n\t/// @param _maxSupply Peak level of supply of the token to date\n\t/// @param _profitMargin percentage of total revenue generated routed to creator\n\t/// @return x-coordinate of breakpoint, y-coordinate of breakpoint, supply of token after the transaction\n\tfunction _breakpoint(uint _startingSupply, uint _amount, uint _mNumerator, uint _mDenominator, uint _maxSupply, uint _profitMargin) internal pure returns (uint, uint, uint) {\n\t\t// Define breakpoint (a,b) chosen s.t. area under sale price function is (1-profitMargin) times area under buy price function\n\t\tuint a = _maxSupply/2;\n\t\tuint b = _maxSupply*(50-_profitMargin)/100*_mNumerator/_mDenominator;\n\t\tuint endSupply = _startingSupply - _amount;\n\t\treturn (a, b, endSupply);\n\t}\n\n\t/// @dev Computes _saleFunction scenario in which entire transaction occurs left of breakpoint\n\t/// @param _a x-coordinate of breakpoint\n\t/// @param _b y-coordinate of breakpoint\n\t/// @param _startingSupply Supply of token in circulation before the transaction\n\t/// @param _endSupply Supply of token in circulation after the transaction\n\t/// @return Area under the sale price function in this scenario\n\tfunction _leftArea(uint _a, uint _b, uint _startingSupply, uint _endSupply) internal pure returns (uint256) {\n\t\t\t//uint base1 = ((_b/_a)*(_a-_endSupply)+_b);\n\t\t\t//uint base1 = ((_b/_a)*(_endSupply-_a)+_b);\n\t\t\tuint base1 = (_b-(_b/_a)*(_a-_endSupply));\n\t\t\t//uint base2 = ((_b/_a)*(_a-_startingSupply)+_b);\n\t\t\t//uint base2 = ((_b/_a)*(_startingSupply-_a)+_b);\n\t\t\tuint base2 = (_b-(_b/_a)*(_a-_startingSupply));\n\t\t\tuint height = _startingSupply-_endSupply;\n\t\t\treturn (base1 + base2) * height / 2;\n\t}\n\n\t/// @dev Computes _saleFunction scenario in which transaction crosses breakpoint\n\t/// @param _a x-coordinate of breakpoint\n\t/// @param _b y-coordinate of breakpoint\n\t/// @param _startingSupply Supply of token in circulation before the transaction\n\t/// @param _endSupply Supply of token in circulation after the transaction\n\t/// @param _mNumerator Numerator of the slope of the buy price function\n\t/// @param _mDenominator Denominator of the slope of the buy price function\n\t/// @param _maxSupply Peak level of supply of the token to date\n\t/// @return Area under the sale price function in this scenario\n\tfunction _bothArea(uint _a, uint _b, uint _startingSupply, uint _endSupply, uint _mNumerator, uint _mDenominator, uint _maxSupply) internal pure returns (uint256) {\n\t\t//uint leftBase1 = ((_b/_a)*(_a-_endSupply)+_b);\n\t\t//uint leftBase1 = ((_b/_a)*(_endSupply-_a)+_b);\n\t\tuint leftBase1 = (_b-(_b/_a)*(_a-_endSupply));\n\t\tuint sharedBase = _b;\n\t\tuint leftHeight = _a-_endSupply;\n\t\tuint leftArea = (leftBase1 + sharedBase) * leftHeight / 2;\n\t\tuint rightBase2 = (_mNumerator*_maxSupply/_mDenominator-_b)/(_maxSupply-_a)*(_startingSupply-_a)+_b;\n\t\tuint rightHeight = _startingSupply-_a;\n\t\tuint rightArea = (sharedBase + rightBase2) * rightHeight / 2;\n\t\treturn leftArea + rightArea;\n\t}\n\n\t/// @dev Computes _saleFunction scneario in which entire transaction occurs right of breakpoint\n\t/// @param _a x-coordinate of breakpoint\n\t/// @param _b y-coordinate of breakpoint\n\t/// @param _startingSupply Supply of token in circulation before the transaction\n\t/// @param _endSupply Supply of token in circulation after the transaction\n\t/// @param _mNumerator Numerator of the slope of the buy price function\n\t/// @param _mDenominator Denominator of the slope of the buy price function\n\t/// @param _maxSupply Peak level of supply of the token to date\n\t/// @return Area under the sale price function in this scenario\n\tfunction _rightArea(uint _a, uint _b, uint _startingSupply, uint _endSupply, uint _mNumerator, uint _mDenominator, uint _maxSupply) internal pure returns (uint256) {\n\t\tuint base1 = (((_mNumerator*_maxSupply/_mDenominator-_b)/(_maxSupply-_a))*(_endSupply-_a)+_b);\n\t\tuint base2 = (((_mNumerator*_maxSupply/_mDenominator-_b)/(_maxSupply-_a))*(_startingSupply-_a)+_b);\n\t\tuint height = _startingSupply-_endSupply;\n\t\treturn (base1 + base2) * height / 2;\n\t}\n}",
  "sourcePath": "/Users/kamilalizaisadik/DeFi/Dynamic Automated Market Maker/CreatorTokenExchange/contracts/creatortokenformulas.sol",
  "compiler": {
    "name": "solc",
    "version": "0.8.6+commit.11564f7e.Emscripten.clang"
  },
  "schemaVersion": "3.4.1",
  "updatedAt": "2021-07-31T15:41:24.801Z",
  "devdoc": {
    "author": "Kamil Alizai Sadik",
    "kind": "dev",
    "methods": {
      "_saleFunction(uint256,uint256,uint256,uint256,uint256,uint256)": {
        "details": "Calculates area under sale price function",
        "params": {
          "_amount": "Amount of token being transacted",
          "_mDenominator": "Denominator of the slope of the buy price function",
          "_mNumerator": "Numerator of the slope of the buy price function",
          "_maxSupply": "Peak level of supply of the token to date",
          "_profitMargin": "percentage of total revenue generated routed to creator",
          "_startingSupply": "Supply of token in circulation before the transaction"
        },
        "returns": {
          "_0": "Area under sale price function denoting total proceeds received when selling _amount tokens (before fees)"
        }
      },
      "balanceOf(address,uint256)": {
        "details": "See {IERC1155-balanceOf}. Requirements: - `account` cannot be the zero address."
      },
      "balanceOfBatch(address[],uint256[])": {
        "details": "See {IERC1155-balanceOfBatch}. Requirements: - `accounts` and `ids` must have the same length."
      },
      "changeAddress(uint256,address)": {
        "details": "Allows token creator to change their address",
        "params": {
          "_newCreatorAddress": "New creator address associated with the token",
          "_tokenId": "ID of the token in question"
        }
      },
      "changeDescription(uint256,string)": {
        "details": "Allows token creator to change the description of their token",
        "params": {
          "_newDescription": "New description associated with the token",
          "_tokenId": "ID of the token in question"
        }
      },
      "changeName(uint256,string)": {
        "details": "Allows token creator to change the name of their token",
        "params": {
          "_newName": "New name associated with the token",
          "_tokenId": "ID of the token in question"
        }
      },
      "changePlatformFee(uint256)": {
        "details": "Allows owner to change platformFee",
        "params": {
          "_newPlatformFee": "New platform fee"
        }
      },
      "changeProfitMargin(uint256)": {
        "details": "Allows owner to change profit_margin",
        "params": {
          "_newProfitMargin": "New profit margin"
        }
      },
      "changeSymbol(uint256,string)": {
        "details": "Allows token creator to change the symbol of their token",
        "params": {
          "_newSymbol": "New symbol associated with the token",
          "_tokenId": "ID of the token in question"
        }
      },
      "changeVerification(uint256,bool)": {
        "details": "Allows owner to verify (or undo verification) of a CreatorToken",
        "params": {
          "_tokenId": "ID of the token in question",
          "_verified": "Verification status of the token in question"
        }
      },
      "createCreatorToken(address,string,string,string)": {
        "details": "Creates a new creator token",
        "params": {
          "_creatorAddress": "Address of the creator of the token",
          "_description": "chosen by the creator of the tokens",
          "_name": "Name chosen by the creator of the token",
          "_symbol": "Ticker symbol chosen by the creator of the token"
        }
      },
      "getCreatorTokenCount()": {
        "details": "Returns the current length of the creatorTokens array",
        "returns": {
          "_0": "uint representing number of unique Creator Tokens"
        }
      },
      "getCreatorTokens()": {
        "details": "Returns entire array of tokens",
        "returns": {
          "_0": "CreatorToken[]"
        }
      },
      "getToken(uint256)": {
        "details": "Returns token with a particular id",
        "params": {
          "_id": "Id of desired token"
        },
        "returns": {
          "_0": "CreatorToken"
        }
      },
      "isApprovedForAll(address,address)": {
        "details": "Denotes whether operator is approved to transfer account's tokens",
        "params": {
          "_account": "Wallet address holding tokens",
          "_operator": "Wallet address which is/isn't approved to transfer _account's tokens"
        },
        "returns": {
          "_0": "Boolean value indicating approval status"
        }
      },
      "owner()": {
        "details": "Returns the address of the current owner."
      },
      "payoutPlatformFees(address)": {
        "details": "Pays out platform fees owed to owner (might opt to call this daily)",
        "params": {
          "_owner": "Owner of the smart contract"
        }
      },
      "renounceOwnership()": {
        "details": "Leaves the contract without owner. It will not be possible to call `onlyOwner` functions anymore. Can only be called by the current owner. NOTE: Renouncing ownership will leave the contract without an owner, thereby removing any functionality that is only available to the owner."
      },
      "safeBatchTransferFrom(address,address,uint256[],uint256[],bytes)": {
        "details": "Transfers a batch of tokens",
        "params": {
          "_amounts": "Array of quantities of token to be transferred",
          "_data": "Data",
          "_from": "Address token is being transferred from",
          "_ids": "Array of IDs of tokens being transferred",
          "_to": "Address token is being transferred to"
        }
      },
      "safeTransferFrom(address,address,uint256,uint256,bytes)": {
        "details": "Transfers a token",
        "params": {
          "_amount": "Quantity of token to be transferred",
          "_data": "Data",
          "_from": "Address token is being transferred from",
          "_id": "ID of token being transferred",
          "_to": "Address token is being transferred to"
        }
      },
      "setApprovalForAll(address,bool)": {
        "details": "Gives operator permission to transfer caller's tokens",
        "params": {
          "_approved": "Boolean value indicating whether operator is approved",
          "_operator": "Wallet address being granted permission"
        }
      },
      "supportsInterface(bytes4)": {
        "details": "See {IERC165-supportsInterface}."
      },
      "transferOwnership(address)": {
        "details": "Transfers ownership of the contract to a new account (`newOwner`). Can only be called by the current owner."
      },
      "uri(uint256)": {
        "details": "See {IERC1155MetadataURI-uri}. This implementation returns the same URI for *all* token types. It relies on the token type ID substitution mechanism https://eips.ethereum.org/EIPS/eip-1155#metadata[defined in the EIP]. Clients calling this function must replace the `\\{id\\}` substring with the actual token type ID."
      },
      "withdraw(address)": {
        "details": "Ownable function allowing for withdrawal",
        "params": {
          "_owner": "Owner of the smart contract"
        }
      }
    },
    "title": "Formulas representing the buy and sale price functions, as well as helper functions to efficiently calculate area under the curve",
    "version": 1
  },
  "userdoc": {
    "kind": "user",
    "methods": {},
    "version": 1
  }
}