{
  "contractName": "CreatorTokenFees",
  "abi": [
    {
      "inputs": [
        {
          "internalType": "string",
          "name": "uri",
          "type": "string"
        }
      ],
      "stateMutability": "nonpayable",
      "type": "constructor"
    },
    {
      "anonymous": false,
      "inputs": [
        {
          "indexed": true,
          "internalType": "address",
          "name": "account",
          "type": "address"
        },
        {
          "indexed": true,
          "internalType": "address",
          "name": "operator",
          "type": "address"
        },
        {
          "indexed": false,
          "internalType": "bool",
          "name": "approved",
          "type": "bool"
        }
      ],
      "name": "ApprovalForAll",
      "type": "event"
    },
    {
      "anonymous": false,
      "inputs": [
        {
          "indexed": false,
          "internalType": "uint256",
          "name": "tokenId",
          "type": "uint256"
        },
        {
          "indexed": false,
          "internalType": "address payable",
          "name": "creatorAddress",
          "type": "address"
        },
        {
          "indexed": false,
          "internalType": "string",
          "name": "name",
          "type": "string"
        },
        {
          "indexed": false,
          "internalType": "string",
          "name": "symbol",
          "type": "string"
        },
        {
          "indexed": false,
          "internalType": "string",
          "name": "description",
          "type": "string"
        },
        {
          "indexed": false,
          "internalType": "bool",
          "name": "verified",
          "type": "bool"
        },
        {
          "indexed": false,
          "internalType": "uint256",
          "name": "outstanding",
          "type": "uint256"
        },
        {
          "indexed": false,
          "internalType": "uint256",
          "name": "maxSupply",
          "type": "uint256"
        }
      ],
      "name": "NewCreatorToken",
      "type": "event"
    },
    {
      "anonymous": false,
      "inputs": [
        {
          "indexed": true,
          "internalType": "address",
          "name": "previousOwner",
          "type": "address"
        },
        {
          "indexed": true,
          "internalType": "address",
          "name": "newOwner",
          "type": "address"
        }
      ],
      "name": "OwnershipTransferred",
      "type": "event"
    },
    {
      "anonymous": false,
      "inputs": [
        {
          "indexed": true,
          "internalType": "address",
          "name": "operator",
          "type": "address"
        },
        {
          "indexed": true,
          "internalType": "address",
          "name": "from",
          "type": "address"
        },
        {
          "indexed": true,
          "internalType": "address",
          "name": "to",
          "type": "address"
        },
        {
          "indexed": false,
          "internalType": "uint256[]",
          "name": "ids",
          "type": "uint256[]"
        },
        {
          "indexed": false,
          "internalType": "uint256[]",
          "name": "values",
          "type": "uint256[]"
        }
      ],
      "name": "TransferBatch",
      "type": "event"
    },
    {
      "anonymous": false,
      "inputs": [
        {
          "indexed": true,
          "internalType": "address",
          "name": "operator",
          "type": "address"
        },
        {
          "indexed": true,
          "internalType": "address",
          "name": "from",
          "type": "address"
        },
        {
          "indexed": true,
          "internalType": "address",
          "name": "to",
          "type": "address"
        },
        {
          "indexed": false,
          "internalType": "uint256",
          "name": "id",
          "type": "uint256"
        },
        {
          "indexed": false,
          "internalType": "uint256",
          "name": "value",
          "type": "uint256"
        }
      ],
      "name": "TransferSingle",
      "type": "event"
    },
    {
      "anonymous": false,
      "inputs": [
        {
          "indexed": false,
          "internalType": "string",
          "name": "value",
          "type": "string"
        },
        {
          "indexed": true,
          "internalType": "uint256",
          "name": "id",
          "type": "uint256"
        }
      ],
      "name": "URI",
      "type": "event"
    },
    {
      "inputs": [
        {
          "internalType": "uint256",
          "name": "_startingSupply",
          "type": "uint256"
        },
        {
          "internalType": "uint256",
          "name": "_amount",
          "type": "uint256"
        },
        {
          "internalType": "uint256",
          "name": "_mNumerator",
          "type": "uint256"
        },
        {
          "internalType": "uint256",
          "name": "_mDenominator",
          "type": "uint256"
        },
        {
          "internalType": "uint256",
          "name": "_maxSupply",
          "type": "uint256"
        },
        {
          "internalType": "uint256",
          "name": "_profitMargin",
          "type": "uint256"
        }
      ],
      "name": "_saleFunction",
      "outputs": [
        {
          "internalType": "uint256",
          "name": "",
          "type": "uint256"
        }
      ],
      "stateMutability": "pure",
      "type": "function"
    },
    {
      "inputs": [
        {
          "internalType": "address",
          "name": "account",
          "type": "address"
        },
        {
          "internalType": "uint256",
          "name": "id",
          "type": "uint256"
        }
      ],
      "name": "balanceOf",
      "outputs": [
        {
          "internalType": "uint256",
          "name": "",
          "type": "uint256"
        }
      ],
      "stateMutability": "view",
      "type": "function"
    },
    {
      "inputs": [
        {
          "internalType": "address[]",
          "name": "accounts",
          "type": "address[]"
        },
        {
          "internalType": "uint256[]",
          "name": "ids",
          "type": "uint256[]"
        }
      ],
      "name": "balanceOfBatch",
      "outputs": [
        {
          "internalType": "uint256[]",
          "name": "",
          "type": "uint256[]"
        }
      ],
      "stateMutability": "view",
      "type": "function"
    },
    {
      "inputs": [
        {
          "internalType": "uint256",
          "name": "_tokenId",
          "type": "uint256"
        },
        {
          "internalType": "address payable",
          "name": "_newCreatorAddress",
          "type": "address"
        }
      ],
      "name": "changeAddress",
      "outputs": [],
      "stateMutability": "nonpayable",
      "type": "function"
    },
    {
      "inputs": [
        {
          "internalType": "uint256",
          "name": "_tokenId",
          "type": "uint256"
        },
        {
          "internalType": "string",
          "name": "_newDescription",
          "type": "string"
        }
      ],
      "name": "changeDescription",
      "outputs": [],
      "stateMutability": "nonpayable",
      "type": "function"
    },
    {
      "inputs": [
        {
          "internalType": "uint256",
          "name": "_tokenId",
          "type": "uint256"
        },
        {
          "internalType": "string",
          "name": "_newName",
          "type": "string"
        }
      ],
      "name": "changeName",
      "outputs": [],
      "stateMutability": "nonpayable",
      "type": "function"
    },
    {
      "inputs": [
        {
          "internalType": "uint256",
          "name": "_newPlatformFee",
          "type": "uint256"
        }
      ],
      "name": "changePlatformFee",
      "outputs": [],
      "stateMutability": "nonpayable",
      "type": "function"
    },
    {
      "inputs": [
        {
          "internalType": "uint256",
          "name": "_newProfitMargin",
          "type": "uint256"
        }
      ],
      "name": "changeProfitMargin",
      "outputs": [],
      "stateMutability": "nonpayable",
      "type": "function"
    },
    {
      "inputs": [
        {
          "internalType": "uint256",
          "name": "_tokenId",
          "type": "uint256"
        },
        {
          "internalType": "string",
          "name": "_newSymbol",
          "type": "string"
        }
      ],
      "name": "changeSymbol",
      "outputs": [],
      "stateMutability": "nonpayable",
      "type": "function"
    },
    {
      "inputs": [
        {
          "internalType": "uint256",
          "name": "_tokenId",
          "type": "uint256"
        },
        {
          "internalType": "bool",
          "name": "_verified",
          "type": "bool"
        }
      ],
      "name": "changeVerification",
      "outputs": [],
      "stateMutability": "nonpayable",
      "type": "function"
    },
    {
      "inputs": [
        {
          "internalType": "address payable",
          "name": "_creatorAddress",
          "type": "address"
        },
        {
          "internalType": "string",
          "name": "_name",
          "type": "string"
        },
        {
          "internalType": "string",
          "name": "_symbol",
          "type": "string"
        },
        {
          "internalType": "string",
          "name": "_description",
          "type": "string"
        }
      ],
      "name": "createCreatorToken",
      "outputs": [],
      "stateMutability": "nonpayable",
      "type": "function"
    },
    {
      "inputs": [
        {
          "internalType": "uint256",
          "name": "",
          "type": "uint256"
        }
      ],
      "name": "creatorTokens",
      "outputs": [
        {
          "internalType": "address payable",
          "name": "creatorAddress",
          "type": "address"
        },
        {
          "internalType": "string",
          "name": "name",
          "type": "string"
        },
        {
          "internalType": "string",
          "name": "symbol",
          "type": "string"
        },
        {
          "internalType": "string",
          "name": "description",
          "type": "string"
        },
        {
          "internalType": "bool",
          "name": "verified",
          "type": "bool"
        },
        {
          "internalType": "uint256",
          "name": "outstanding",
          "type": "uint256"
        },
        {
          "internalType": "uint256",
          "name": "maxSupply",
          "type": "uint256"
        }
      ],
      "stateMutability": "view",
      "type": "function"
    },
    {
      "inputs": [],
      "name": "getCreatorTokenCount",
      "outputs": [
        {
          "internalType": "uint256",
          "name": "",
          "type": "uint256"
        }
      ],
      "stateMutability": "view",
      "type": "function"
    },
    {
      "inputs": [
        {
          "internalType": "address",
          "name": "_account",
          "type": "address"
        },
        {
          "internalType": "address",
          "name": "_operator",
          "type": "address"
        }
      ],
      "name": "isApprovedForAll",
      "outputs": [
        {
          "internalType": "bool",
          "name": "",
          "type": "bool"
        }
      ],
      "stateMutability": "view",
      "type": "function"
    },
    {
      "inputs": [],
      "name": "owner",
      "outputs": [
        {
          "internalType": "address",
          "name": "",
          "type": "address"
        }
      ],
      "stateMutability": "view",
      "type": "function"
    },
    {
      "inputs": [
        {
          "internalType": "address payable",
          "name": "_owner",
          "type": "address"
        }
      ],
      "name": "payoutPlatformFees",
      "outputs": [],
      "stateMutability": "nonpayable",
      "type": "function"
    },
    {
      "inputs": [],
      "name": "platformFeesOwed",
      "outputs": [
        {
          "internalType": "uint256",
          "name": "",
          "type": "uint256"
        }
      ],
      "stateMutability": "view",
      "type": "function"
    },
    {
      "inputs": [],
      "name": "renounceOwnership",
      "outputs": [],
      "stateMutability": "nonpayable",
      "type": "function"
    },
    {
      "inputs": [
        {
          "internalType": "address",
          "name": "_from",
          "type": "address"
        },
        {
          "internalType": "address",
          "name": "_to",
          "type": "address"
        },
        {
          "internalType": "uint256[]",
          "name": "_ids",
          "type": "uint256[]"
        },
        {
          "internalType": "uint256[]",
          "name": "_amounts",
          "type": "uint256[]"
        },
        {
          "internalType": "bytes",
          "name": "_data",
          "type": "bytes"
        }
      ],
      "name": "safeBatchTransferFrom",
      "outputs": [],
      "stateMutability": "nonpayable",
      "type": "function"
    },
    {
      "inputs": [
        {
          "internalType": "address",
          "name": "_from",
          "type": "address"
        },
        {
          "internalType": "address",
          "name": "_to",
          "type": "address"
        },
        {
          "internalType": "uint256",
          "name": "_id",
          "type": "uint256"
        },
        {
          "internalType": "uint256",
          "name": "_amount",
          "type": "uint256"
        },
        {
          "internalType": "bytes",
          "name": "_data",
          "type": "bytes"
        }
      ],
      "name": "safeTransferFrom",
      "outputs": [],
      "stateMutability": "nonpayable",
      "type": "function"
    },
    {
      "inputs": [
        {
          "internalType": "address",
          "name": "_operator",
          "type": "address"
        },
        {
          "internalType": "bool",
          "name": "_approved",
          "type": "bool"
        }
      ],
      "name": "setApprovalForAll",
      "outputs": [],
      "stateMutability": "nonpayable",
      "type": "function"
    },
    {
      "inputs": [
        {
          "internalType": "bytes4",
          "name": "interfaceId",
          "type": "bytes4"
        }
      ],
      "name": "supportsInterface",
      "outputs": [
        {
          "internalType": "bool",
          "name": "",
          "type": "bool"
        }
      ],
      "stateMutability": "view",
      "type": "function"
    },
    {
      "inputs": [
        {
          "internalType": "uint256",
          "name": "",
          "type": "uint256"
        },
        {
          "internalType": "address",
          "name": "",
          "type": "address"
        }
      ],
      "name": "tokenHoldership",
      "outputs": [
        {
          "internalType": "uint256",
          "name": "",
          "type": "uint256"
        }
      ],
      "stateMutability": "view",
      "type": "function"
    },
    {
      "inputs": [
        {
          "internalType": "uint256",
          "name": "",
          "type": "uint256"
        }
      ],
      "name": "tokenToCreator",
      "outputs": [
        {
          "internalType": "address",
          "name": "",
          "type": "address"
        }
      ],
      "stateMutability": "view",
      "type": "function"
    },
    {
      "inputs": [],
      "name": "totalPlatformFees",
      "outputs": [
        {
          "internalType": "uint256",
          "name": "",
          "type": "uint256"
        }
      ],
      "stateMutability": "view",
      "type": "function"
    },
    {
      "inputs": [
        {
          "internalType": "uint256",
          "name": "",
          "type": "uint256"
        }
      ],
      "name": "totalValueLocked",
      "outputs": [
        {
          "internalType": "uint256",
          "name": "",
          "type": "uint256"
        }
      ],
      "stateMutability": "view",
      "type": "function"
    },
    {
      "inputs": [
        {
          "internalType": "address",
          "name": "newOwner",
          "type": "address"
        }
      ],
      "name": "transferOwnership",
      "outputs": [],
      "stateMutability": "nonpayable",
      "type": "function"
    },
    {
      "inputs": [
        {
          "internalType": "uint256",
          "name": "",
          "type": "uint256"
        }
      ],
      "name": "uri",
      "outputs": [
        {
          "internalType": "string",
          "name": "",
          "type": "string"
        }
      ],
      "stateMutability": "view",
      "type": "function"
    },
    {
      "inputs": [
        {
          "internalType": "address",
          "name": "",
          "type": "address"
        },
        {
          "internalType": "uint256",
          "name": "",
          "type": "uint256"
        }
      ],
      "name": "userToHoldings",
      "outputs": [
        {
          "internalType": "uint256",
          "name": "",
          "type": "uint256"
        }
      ],
      "stateMutability": "view",
      "type": "function"
    },
    {
      "inputs": [
        {
          "internalType": "address payable",
          "name": "_owner",
          "type": "address"
        }
      ],
      "name": "withdraw",
      "outputs": [],
      "stateMutability": "nonpayable",
      "type": "function"
    },
    {
      "inputs": [
        {
          "internalType": "uint256",
          "name": "_proceedsRequired",
          "type": "uint256"
        }
      ],
      "name": "_feeProceeds",
      "outputs": [
        {
          "internalType": "uint256",
          "name": "",
          "type": "uint256"
        }
      ],
      "stateMutability": "view",
      "type": "function"
    }
  ],
  "bytecode": "0x60806040526001805560006002556000600355601460045565082f79cd900060055560b96006553480156200003357600080fd5b5060405162003a6038038062003a60833981810160405281019062000059919062000279565b80808060006200006e6200012760201b60201c565b9050806000806101000a81548173ffffffffffffffffffffffffffffffffffffffff021916908373ffffffffffffffffffffffffffffffffffffffff1602179055508073ffffffffffffffffffffffffffffffffffffffff16600073ffffffffffffffffffffffffffffffffffffffff167f8be0079c531659141344cd1fd0a4f28419497f9722a3daafe3b4186f6b6457e060405160405180910390a3506200011d816200012f60201b60201c565b505050506200044e565b600033905090565b8060109080519060200190620001479291906200014b565b5050565b82805462000159906200035f565b90600052602060002090601f0160209004810192826200017d5760008555620001c9565b82601f106200019857805160ff1916838001178555620001c9565b82800160010185558215620001c9579182015b82811115620001c8578251825591602001919060010190620001ab565b5b509050620001d89190620001dc565b5090565b5b80821115620001f7576000816000905550600101620001dd565b5090565b6000620002126200020c84620002f3565b620002ca565b9050828152602081018484840111156200023157620002306200042e565b5b6200023e84828562000329565b509392505050565b600082601f8301126200025e576200025d62000429565b5b815162000270848260208601620001fb565b91505092915050565b60006020828403121562000292576200029162000438565b5b600082015167ffffffffffffffff811115620002b357620002b262000433565b5b620002c18482850162000246565b91505092915050565b6000620002d6620002e9565b9050620002e4828262000395565b919050565b6000604051905090565b600067ffffffffffffffff821115620003115762000310620003fa565b5b6200031c826200043d565b9050602081019050919050565b60005b83811015620003495780820151818401526020810190506200032c565b8381111562000359576000848401525b50505050565b600060028204905060018216806200037857607f821691505b602082108114156200038f576200038e620003cb565b5b50919050565b620003a0826200043d565b810181811067ffffffffffffffff82111715620003c257620003c1620003fa565b5b80604052505050565b7f4e487b7100000000000000000000000000000000000000000000000000000000600052602260045260246000fd5b7f4e487b7100000000000000000000000000000000000000000000000000000000600052604160045260246000fd5b600080fd5b600080fd5b600080fd5b600080fd5b6000601f19601f8301169050919050565b613602806200045e6000396000f3fe608060405234801561001057600080fd5b50600436106101e45760003560e01c8063bfb48c9c1161010f578063d9bd3a40116100a2578063eb84175911610071578063eb841759146105c9578063f242432a146105e5578063f2fde38b14610601578063f7374e2e1461061d576101e4565b8063d9bd3a401461051d578063de6a06ed1461054d578063df3c00b114610569578063e985e9c514610599576101e4565b8063ce901d8a116100de578063ce901d8a14610491578063d3631fa5146104c7578063d56b72c7146104e5578063d7a5791a14610501576101e4565b8063bfb48c9c1461040b578063c1d330491461043b578063c39cbef114610459578063c539c31714610475576101e4565b80632eb2c2d6116101875780638da5cb5b116101565780638da5cb5b1461037157806392724afa1461038f578063a22cb465146103bf578063ba111a05146103db576101e4565b80632eb2c2d6146102ff5780634e1273f41461031b57806351cff8d91461034b578063715018a614610367576101e4565b80630e89341c116101c35780630e89341c1461026557806318892ae8146102955780631d5ad18b146102c55780632a2b237c146102e1576101e4565b8062fdd58e146101e957806301ffc9a71461021957806306e320f514610249575b600080fd5b61020360048036038101906101fe919061287a565b610639565b6040516102109190612e83565b60405180910390f35b610233600480360381019061022e9190612932565b610703565b6040516102409190612dc6565b60405180910390f35b610263600480360381019061025e9190612a4c565b6107e5565b005b61027f600480360381019061027a919061295f565b61088c565b60405161028c9190612de1565b60405180910390f35b6102af60048036038101906102aa919061295f565b610920565b6040516102bc9190612cce565b60405180910390f35b6102df60048036038101906102da91906129cc565b610953565b005b6102e9610a28565b6040516102f69190612e83565b60405180910390f35b610319600480360381019061031491906126d4565b610a35565b005b610335600480360381019061033091906128ba565b610ba1565b6040516103429190612d6d565b60405180910390f35b610365600480360381019061036091906125ac565b610cba565b005b61036f610d80565b005b610379610eba565b6040516103869190612cce565b60405180910390f35b6103a960048036038101906103a4919061287a565b610ee3565b6040516103b69190612e83565b60405180910390f35b6103d960048036038101906103d4919061283a565b610f08565b005b6103f560048036038101906103f0919061295f565b611005565b6040516104029190612e83565b60405180910390f35b6104256004803603810190610420919061298c565b611028565b6040516104329190612e83565b60405180910390f35b61044361104d565b6040516104509190612e83565b60405180910390f35b610473600480360381019061046e9190612a4c565b611053565b005b61048f600480360381019061048a919061295f565b6110fa565b005b6104ab60048036038101906104a6919061295f565b611180565b6040516104be9796959493929190612ce9565b60405180910390f35b6104cf611397565b6040516104dc9190612e83565b60405180910390f35b6104ff60048036038101906104fa91906125d9565b61139d565b005b61051b6004803603810190610516919061295f565b6115b9565b005b6105376004803603810190610532919061295f565b61163f565b6040516105449190612e83565b60405180910390f35b61056760048036038101906105629190612a4c565b611657565b005b610583600480360381019061057e9190612aac565b6116fe565b6040516105909190612e83565b60405180910390f35b6105b360048036038101906105ae9190612694565b611777565b6040516105c09190612dc6565b60405180910390f35b6105e360048036038101906105de91906125ac565b61180b565b005b6105ff60048036038101906105fa91906127a3565b6118db565b005b61061b6004803603810190610616919061257f565b6119bf565b005b61063760048036038101906106329190612a0c565b611b68565b005b60008073ffffffffffffffffffffffffffffffffffffffff168373ffffffffffffffffffffffffffffffffffffffff1614156106aa576040517f08c379a00000000000000000000000000000000000000000000000000000000081526004016106a190612e03565b60405180910390fd5b600e600083815260200190815260200160002060008473ffffffffffffffffffffffffffffffffffffffff1673ffffffffffffffffffffffffffffffffffffffff16815260200190815260200160002054905092915050565b60007fd9b67a26000000000000000000000000000000000000000000000000000000007bffffffffffffffffffffffffffffffffffffffffffffffffffffffff1916827bffffffffffffffffffffffffffffffffffffffffffffffffffffffff191614806107ce57507f0e89341c000000000000000000000000000000000000000000000000000000007bffffffffffffffffffffffffffffffffffffffffffffffffffffffff1916827bffffffffffffffffffffffffffffffffffffffffffffffffffffffff1916145b806107de57506107dd82611c25565b5b9050919050565b826008600082815260200190815260200160002060009054906101000a900473ffffffffffffffffffffffffffffffffffffffff1673ffffffffffffffffffffffffffffffffffffffff163373ffffffffffffffffffffffffffffffffffffffff161461085157600080fd5b828260078681548110610867576108666133b6565b5b9060005260206000209060070201600201919061088592919061217b565b5050505050565b60606010805461089b9061327d565b80601f01602080910402602001604051908101604052809291908181526020018280546108c79061327d565b80156109145780601f106108e957610100808354040283529160200191610914565b820191906000526020600020905b8154815290600101906020018083116108f757829003601f168201915b50505050509050919050565b60086020528060005260406000206000915054906101000a900473ffffffffffffffffffffffffffffffffffffffff1681565b816008600082815260200190815260200160002060009054906101000a900473ffffffffffffffffffffffffffffffffffffffff1673ffffffffffffffffffffffffffffffffffffffff163373ffffffffffffffffffffffffffffffffffffffff16146109bf57600080fd5b81600784815481106109d4576109d36133b6565b5b906000526020600020906007020160000160006101000a81548173ffffffffffffffffffffffffffffffffffffffff021916908373ffffffffffffffffffffffffffffffffffffffff160217905550505050565b6000600780549050905090565b60005b8351811015610b1b578573ffffffffffffffffffffffffffffffffffffffff163373ffffffffffffffffffffffffffffffffffffffff161480610a815750610a808686611777565b5b610a8a57600080fd5b610ac986858381518110610aa157610aa06133b6565b5b6020026020010151858481518110610abc57610abb6133b6565b5b6020026020010151611c8f565b610b0885858381518110610ae057610adf6133b6565b5b6020026020010151858481518110610afb57610afa6133b6565b5b6020026020010151611d62565b8080610b13906132e0565b915050610a38565b508373ffffffffffffffffffffffffffffffffffffffff168573ffffffffffffffffffffffffffffffffffffffff163373ffffffffffffffffffffffffffffffffffffffff167f4a39dc06d4c0dbc64b70af90fd698a233a518aa5d07e595d983b8c0526c8f7fb8686604051610b92929190612d8f565b60405180910390a45050505050565b60608151835114610be7576040517f08c379a0000000000000000000000000000000000000000000000000000000008152600401610bde90612e63565b60405180910390fd5b6000835167ffffffffffffffff811115610c0457610c036133e5565b5b604051908082528060200260200182016040528015610c325781602001602082028036833780820191505090505b50905060005b8451811015610caf57610c7f858281518110610c5757610c566133b6565b5b6020026020010151858381518110610c7257610c716133b6565b5b6020026020010151610639565b828281518110610c9257610c916133b6565b5b60200260200101818152505080610ca8906132e0565b9050610c38565b508091505092915050565b610cc2611e35565b73ffffffffffffffffffffffffffffffffffffffff16610ce0610eba565b73ffffffffffffffffffffffffffffffffffffffff1614610d36576040517f08c379a0000000000000000000000000000000000000000000000000000000008152600401610d2d90612e43565b60405180910390fd5b8073ffffffffffffffffffffffffffffffffffffffff166108fc479081150290604051600060405180830381858888f19350505050158015610d7c573d6000803e3d6000fd5b5050565b610d88611e35565b73ffffffffffffffffffffffffffffffffffffffff16610da6610eba565b73ffffffffffffffffffffffffffffffffffffffff1614610dfc576040517f08c379a0000000000000000000000000000000000000000000000000000000008152600401610df390612e43565b60405180910390fd5b600073ffffffffffffffffffffffffffffffffffffffff1660008054906101000a900473ffffffffffffffffffffffffffffffffffffffff1673ffffffffffffffffffffffffffffffffffffffff167f8be0079c531659141344cd1fd0a4f28419497f9722a3daafe3b4186f6b6457e060405160405180910390a360008060006101000a81548173ffffffffffffffffffffffffffffffffffffffff021916908373ffffffffffffffffffffffffffffffffffffffff160217905550565b60008060009054906101000a900473ffffffffffffffffffffffffffffffffffffffff16905090565b600b602052816000526040600020602052806000526040600020600091509150505481565b80600c60003373ffffffffffffffffffffffffffffffffffffffff1673ffffffffffffffffffffffffffffffffffffffff16815260200190815260200160002060008473ffffffffffffffffffffffffffffffffffffffff1673ffffffffffffffffffffffffffffffffffffffff16815260200190815260200160002060006101000a81548160ff0219169083151502179055508173ffffffffffffffffffffffffffffffffffffffff163373ffffffffffffffffffffffffffffffffffffffff167f17307eab39ab6107e8899845ad3d59bd9653f200f220920489ca2b5937696c3183604051610ff99190612dc6565b60405180910390a35050565b60006064600154836110179190613115565b61102191906130e4565b9050919050565b600a602052816000526040600020602052806000526040600020600091509150505481565b60035481565b826008600082815260200190815260200160002060009054906101000a900473ffffffffffffffffffffffffffffffffffffffff1673ffffffffffffffffffffffffffffffffffffffff163373ffffffffffffffffffffffffffffffffffffffff16146110bf57600080fd5b8282600786815481106110d5576110d46133b6565b5b906000526020600020906007020160010191906110f392919061217b565b5050505050565b611102611e35565b73ffffffffffffffffffffffffffffffffffffffff16611120610eba565b73ffffffffffffffffffffffffffffffffffffffff1614611176576040517f08c379a000000000000000000000000000000000000000000000000000000000815260040161116d90612e43565b60405180910390fd5b8060048190555050565b6007818154811061119057600080fd5b90600052602060002090600702016000915090508060000160009054906101000a900473ffffffffffffffffffffffffffffffffffffffff16908060010180546111d99061327d565b80601f01602080910402602001604051908101604052809291908181526020018280546112059061327d565b80156112525780601f1061122757610100808354040283529160200191611252565b820191906000526020600020905b81548152906001019060200180831161123557829003601f168201915b5050505050908060020180546112679061327d565b80601f01602080910402602001604051908101604052809291908181526020018280546112939061327d565b80156112e05780601f106112b5576101008083540402835291602001916112e0565b820191906000526020600020905b8154815290600101906020018083116112c357829003601f168201915b5050505050908060030180546112f59061327d565b80601f01602080910402602001604051908101604052809291908181526020018280546113219061327d565b801561136e5780601f106113435761010080835404028352916020019161136e565b820191906000526020600020905b81548152906001019060200180831161135157829003601f168201915b5050505050908060040160009054906101000a900460ff16908060050154908060060154905087565b60025481565b60076040518060e001604052808673ffffffffffffffffffffffffffffffffffffffff168152602001858152602001848152602001838152602001600015158152602001600081526020016000815250908060018154018082558091505060019003906000526020600020906007020160009091909190915060008201518160000160006101000a81548173ffffffffffffffffffffffffffffffffffffffff021916908373ffffffffffffffffffffffffffffffffffffffff1602179055506020820151816001019080519060200190611479929190612201565b506040820151816002019080519060200190611496929190612201565b5060608201518160030190805190602001906114b3929190612201565b5060808201518160040160006101000a81548160ff02191690831515021790555060a0820151816005015560c082015181600601555050600060016007805490506114fe919061316f565b9050846008600083815260200190815260200160002060006101000a81548173ffffffffffffffffffffffffffffffffffffffff021916908373ffffffffffffffffffffffffffffffffffffffff160217905550600060096000838152602001908152602001600020819055507f3ef624c0f3fb7ad40b94c02078ea3e3a797dbfc21e921ee4bd2b8ad0ca6aa113818686868660008060006040516115aa989796959493929190612e9e565b60405180910390a15050505050565b6115c1611e35565b73ffffffffffffffffffffffffffffffffffffffff166115df610eba565b73ffffffffffffffffffffffffffffffffffffffff1614611635576040517f08c379a000000000000000000000000000000000000000000000000000000000815260040161162c90612e43565b60405180910390fd5b8060018190555050565b600d6020528060005260406000206000915090505481565b826008600082815260200190815260200160002060009054906101000a900473ffffffffffffffffffffffffffffffffffffffff1673ffffffffffffffffffffffffffffffffffffffff163373ffffffffffffffffffffffffffffffffffffffff16146116c357600080fd5b8282600786815481106116d9576116d86133b6565b5b906000526020600020906007020160030191906116f792919061217b565b5050505050565b6000806000806117128a8a8a8a8a8a611e3d565b9250925092506000838b10156117355761172e84848d85611eb8565b9050611766565b838210156117535761174c84848d858d8d8d611f5b565b9050611765565b61176284848d858d8d8d61207d565b90505b5b809450505050509695505050505050565b6000600c60008473ffffffffffffffffffffffffffffffffffffffff1673ffffffffffffffffffffffffffffffffffffffff16815260200190815260200160002060008373ffffffffffffffffffffffffffffffffffffffff1673ffffffffffffffffffffffffffffffffffffffff16815260200190815260200160002060009054906101000a900460ff16905092915050565b611813611e35565b73ffffffffffffffffffffffffffffffffffffffff16611831610eba565b73ffffffffffffffffffffffffffffffffffffffff1614611887576040517f08c379a000000000000000000000000000000000000000000000000000000000815260040161187e90612e43565b60405180910390fd5b8073ffffffffffffffffffffffffffffffffffffffff166108fc6003549081150290604051600060405180830381858888f193505050501580156118cf573d6000803e3d6000fd5b50600060038190555050565b8473ffffffffffffffffffffffffffffffffffffffff163373ffffffffffffffffffffffffffffffffffffffff16148061191b575061191a8585611777565b5b61192457600080fd5b61192f858484611c8f565b61193a848484611d62565b8373ffffffffffffffffffffffffffffffffffffffff168573ffffffffffffffffffffffffffffffffffffffff163373ffffffffffffffffffffffffffffffffffffffff167fc3d58168c5ae7397731d063d5bbf3d657854427343f4c083240f7aacaa2d0f6286866040516119b0929190612f31565b60405180910390a45050505050565b6119c7611e35565b73ffffffffffffffffffffffffffffffffffffffff166119e5610eba565b73ffffffffffffffffffffffffffffffffffffffff1614611a3b576040517f08c379a0000000000000000000000000000000000000000000000000000000008152600401611a3290612e43565b60405180910390fd5b600073ffffffffffffffffffffffffffffffffffffffff168173ffffffffffffffffffffffffffffffffffffffff161415611aab576040517f08c379a0000000000000000000000000000000000000000000000000000000008152600401611aa290612e23565b60405180910390fd5b8073ffffffffffffffffffffffffffffffffffffffff1660008054906101000a900473ffffffffffffffffffffffffffffffffffffffff1673ffffffffffffffffffffffffffffffffffffffff167f8be0079c531659141344cd1fd0a4f28419497f9722a3daafe3b4186f6b6457e060405160405180910390a3806000806101000a81548173ffffffffffffffffffffffffffffffffffffffff021916908373ffffffffffffffffffffffffffffffffffffffff16021790555050565b611b70611e35565b73ffffffffffffffffffffffffffffffffffffffff16611b8e610eba565b73ffffffffffffffffffffffffffffffffffffffff1614611be4576040517f08c379a0000000000000000000000000000000000000000000000000000000008152600401611bdb90612e43565b60405180910390fd5b8060078381548110611bf957611bf86133b6565b5b906000526020600020906007020160040160006101000a81548160ff0219169083151502179055505050565b60007f01ffc9a7000000000000000000000000000000000000000000000000000000007bffffffffffffffffffffffffffffffffffffffffffffffffffffffff1916827bffffffffffffffffffffffffffffffffffffffffffffffffffffffff1916149050919050565b80600a600084815260200190815260200160002060008573ffffffffffffffffffffffffffffffffffffffff1673ffffffffffffffffffffffffffffffffffffffff1681526020019081526020016000206000828254611cef919061316f565b9250508190555080600b60008573ffffffffffffffffffffffffffffffffffffffff1673ffffffffffffffffffffffffffffffffffffffff16815260200190815260200160002060008481526020019081526020016000206000828254611d56919061316f565b92505081905550505050565b80600a600084815260200190815260200160002060008573ffffffffffffffffffffffffffffffffffffffff1673ffffffffffffffffffffffffffffffffffffffff1681526020019081526020016000206000828254611dc2919061308e565b9250508190555080600b60008573ffffffffffffffffffffffffffffffffffffffff1673ffffffffffffffffffffffffffffffffffffffff16815260200190815260200160002060008481526020019081526020016000206000828254611e29919061308e565b92505081905550505050565b600033905090565b600080600080600286611e5091906130e4565b9050600087896064886032611e65919061316f565b8a611e709190613115565b611e7a91906130e4565b611e849190613115565b611e8e91906130e4565b905060008a8c611e9e919061316f565b905082828295509550955050505096509650969350505050565b6000808286611ec7919061316f565b8686611ed391906130e4565b611edd9190613115565b85611ee8919061316f565b905060008487611ef8919061316f565b8787611f0491906130e4565b611f0e9190613115565b86611f19919061316f565b905060008486611f29919061316f565b90506002818385611f3a919061308e565b611f449190613115565b611f4e91906130e4565b9350505050949350505050565b6000808589611f6a919061316f565b8989611f7691906130e4565b611f809190613115565b88611f8b919061316f565b905060008890506000878b611fa0919061316f565b905060006002828486611fb3919061308e565b611fbd9190613115565b611fc791906130e4565b905060008b8d8c611fd8919061316f565b8e89611fe4919061316f565b8e8b8b8e611ff29190613115565b611ffc91906130e4565b612006919061316f565b61201091906130e4565b61201a9190613115565b612024919061308e565b905060008d8c612034919061316f565b905060006002828488612047919061308e565b6120519190613115565b61205b91906130e4565b90508084612069919061308e565b975050505050505050979650505050505050565b60008087898761208d919061316f565b8a85612099919061316f565b8a87878a6120a79190613115565b6120b191906130e4565b6120bb919061316f565b6120c591906130e4565b6120cf9190613115565b6120d9919061308e565b90506000888a896120ea919061316f565b8b866120f6919061316f565b8b88888b6121049190613115565b61210e91906130e4565b612118919061316f565b61212291906130e4565b61212c9190613115565b612136919061308e565b905060008789612146919061316f565b90506002818385612157919061308e565b6121619190613115565b61216b91906130e4565b9350505050979650505050505050565b8280546121879061327d565b90600052602060002090601f0160209004810192826121a957600085556121f0565b82601f106121c257803560ff19168380011785556121f0565b828001600101855582156121f0579182015b828111156121ef5782358255916020019190600101906121d4565b5b5090506121fd9190612287565b5090565b82805461220d9061327d565b90600052602060002090601f01602090048101928261222f5760008555612276565b82601f1061224857805160ff1916838001178555612276565b82800160010185558215612276579182015b8281111561227557825182559160200191906001019061225a565b5b5090506122839190612287565b5090565b5b808211156122a0576000816000905550600101612288565b5090565b60006122b76122b284612f7f565b612f5a565b905080838252602082019050828560208602820111156122da576122d961341e565b5b60005b8581101561230a57816122f08882612408565b8452602084019350602083019250506001810190506122dd565b5050509392505050565b600061232761232284612fab565b612f5a565b9050808382526020820190508285602086028201111561234a5761234961341e565b5b60005b8581101561237a5781612360888261256a565b84526020840193506020830192505060018101905061234d565b5050509392505050565b600061239761239284612fd7565b612f5a565b9050828152602081018484840111156123b3576123b2613423565b5b6123be84828561323b565b509392505050565b60006123d96123d484613008565b612f5a565b9050828152602081018484840111156123f5576123f4613423565b5b61240084828561323b565b509392505050565b60008135905061241781613559565b92915050565b60008135905061242c81613570565b92915050565b600082601f83011261244757612446613419565b5b81356124578482602086016122a4565b91505092915050565b600082601f83011261247557612474613419565b5b8135612485848260208601612314565b91505092915050565b60008135905061249d81613587565b92915050565b6000813590506124b28161359e565b92915050565b600082601f8301126124cd576124cc613419565b5b81356124dd848260208601612384565b91505092915050565b60008083601f8401126124fc576124fb613419565b5b8235905067ffffffffffffffff81111561251957612518613414565b5b6020830191508360018202830111156125355761253461341e565b5b9250929050565b600082601f83011261255157612550613419565b5b81356125618482602086016123c6565b91505092915050565b600081359050612579816135b5565b92915050565b6000602082840312156125955761259461342d565b5b60006125a384828501612408565b91505092915050565b6000602082840312156125c2576125c161342d565b5b60006125d08482850161241d565b91505092915050565b600080600080608085870312156125f3576125f261342d565b5b60006126018782880161241d565b945050602085013567ffffffffffffffff81111561262257612621613428565b5b61262e8782880161253c565b935050604085013567ffffffffffffffff81111561264f5761264e613428565b5b61265b8782880161253c565b925050606085013567ffffffffffffffff81111561267c5761267b613428565b5b6126888782880161253c565b91505092959194509250565b600080604083850312156126ab576126aa61342d565b5b60006126b985828601612408565b92505060206126ca85828601612408565b9150509250929050565b600080600080600060a086880312156126f0576126ef61342d565b5b60006126fe88828901612408565b955050602061270f88828901612408565b945050604086013567ffffffffffffffff8111156127305761272f613428565b5b61273c88828901612460565b935050606086013567ffffffffffffffff81111561275d5761275c613428565b5b61276988828901612460565b925050608086013567ffffffffffffffff81111561278a57612789613428565b5b612796888289016124b8565b9150509295509295909350565b600080600080600060a086880312156127bf576127be61342d565b5b60006127cd88828901612408565b95505060206127de88828901612408565b94505060406127ef8882890161256a565b93505060606128008882890161256a565b925050608086013567ffffffffffffffff81111561282157612820613428565b5b61282d888289016124b8565b9150509295509295909350565b600080604083850312156128515761285061342d565b5b600061285f85828601612408565b92505060206128708582860161248e565b9150509250929050565b600080604083850312156128915761289061342d565b5b600061289f85828601612408565b92505060206128b08582860161256a565b9150509250929050565b600080604083850312156128d1576128d061342d565b5b600083013567ffffffffffffffff8111156128ef576128ee613428565b5b6128fb85828601612432565b925050602083013567ffffffffffffffff81111561291c5761291b613428565b5b61292885828601612460565b9150509250929050565b6000602082840312156129485761294761342d565b5b6000612956848285016124a3565b91505092915050565b6000602082840312156129755761297461342d565b5b60006129838482850161256a565b91505092915050565b600080604083850312156129a3576129a261342d565b5b60006129b18582860161256a565b92505060206129c285828601612408565b9150509250929050565b600080604083850312156129e3576129e261342d565b5b60006129f18582860161256a565b9250506020612a028582860161241d565b9150509250929050565b60008060408385031215612a2357612a2261342d565b5b6000612a318582860161256a565b9250506020612a428582860161248e565b9150509250929050565b600080600060408486031215612a6557612a6461342d565b5b6000612a738682870161256a565b935050602084013567ffffffffffffffff811115612a9457612a93613428565b5b612aa0868287016124e6565b92509250509250925092565b60008060008060008060c08789031215612ac957612ac861342d565b5b6000612ad789828a0161256a565b9650506020612ae889828a0161256a565b9550506040612af989828a0161256a565b9450506060612b0a89828a0161256a565b9350506080612b1b89828a0161256a565b92505060a0612b2c89828a0161256a565b9150509295509295509295565b6000612b458383612cb0565b60208301905092915050565b612b5a816131b5565b82525050565b612b69816131a3565b82525050565b6000612b7a82613049565b612b84818561306c565b9350612b8f83613039565b8060005b83811015612bc0578151612ba78882612b39565b9750612bb28361305f565b925050600181019050612b93565b5085935050505092915050565b612bd6816131c7565b82525050565b612be581613229565b82525050565b6000612bf682613054565b612c00818561307d565b9350612c1081856020860161324a565b612c1981613432565b840191505092915050565b6000612c31602b8361307d565b9150612c3c82613443565b604082019050919050565b6000612c5460268361307d565b9150612c5f82613492565b604082019050919050565b6000612c7760208361307d565b9150612c82826134e1565b602082019050919050565b6000612c9a60298361307d565b9150612ca58261350a565b604082019050919050565b612cb98161321f565b82525050565b612cc88161321f565b82525050565b6000602082019050612ce36000830184612b60565b92915050565b600060e082019050612cfe600083018a612b51565b8181036020830152612d108189612beb565b90508181036040830152612d248188612beb565b90508181036060830152612d388187612beb565b9050612d476080830186612bcd565b612d5460a0830185612cbf565b612d6160c0830184612cbf565b98975050505050505050565b60006020820190508181036000830152612d878184612b6f565b905092915050565b60006040820190508181036000830152612da98185612b6f565b90508181036020830152612dbd8184612b6f565b90509392505050565b6000602082019050612ddb6000830184612bcd565b92915050565b60006020820190508181036000830152612dfb8184612beb565b905092915050565b60006020820190508181036000830152612e1c81612c24565b9050919050565b60006020820190508181036000830152612e3c81612c47565b9050919050565b60006020820190508181036000830152612e5c81612c6a565b9050919050565b60006020820190508181036000830152612e7c81612c8d565b9050919050565b6000602082019050612e986000830184612cbf565b92915050565b600061010082019050612eb4600083018b612cbf565b612ec1602083018a612b51565b8181036040830152612ed38189612beb565b90508181036060830152612ee78188612beb565b90508181036080830152612efb8187612beb565b9050612f0a60a0830186612bcd565b612f1760c0830185612bdc565b612f2460e0830184612bdc565b9998505050505050505050565b6000604082019050612f466000830185612cbf565b612f536020830184612cbf565b9392505050565b6000612f64612f75565b9050612f7082826132af565b919050565b6000604051905090565b600067ffffffffffffffff821115612f9a57612f996133e5565b5b602082029050602081019050919050565b600067ffffffffffffffff821115612fc657612fc56133e5565b5b602082029050602081019050919050565b600067ffffffffffffffff821115612ff257612ff16133e5565b5b612ffb82613432565b9050602081019050919050565b600067ffffffffffffffff821115613023576130226133e5565b5b61302c82613432565b9050602081019050919050565b6000819050602082019050919050565b600081519050919050565b600081519050919050565b6000602082019050919050565b600082825260208201905092915050565b600082825260208201905092915050565b60006130998261321f565b91506130a48361321f565b9250827fffffffffffffffffffffffffffffffffffffffffffffffffffffffffffffffff038211156130d9576130d8613329565b5b828201905092915050565b60006130ef8261321f565b91506130fa8361321f565b92508261310a57613109613358565b5b828204905092915050565b60006131208261321f565b915061312b8361321f565b9250817fffffffffffffffffffffffffffffffffffffffffffffffffffffffffffffffff048311821515161561316457613163613329565b5b828202905092915050565b600061317a8261321f565b91506131858361321f565b92508282101561319857613197613329565b5b828203905092915050565b60006131ae826131ff565b9050919050565b60006131c0826131ff565b9050919050565b60008115159050919050565b60007fffffffff0000000000000000000000000000000000000000000000000000000082169050919050565b600073ffffffffffffffffffffffffffffffffffffffff82169050919050565b6000819050919050565b60006132348261321f565b9050919050565b82818337600083830152505050565b60005b8381101561326857808201518184015260208101905061324d565b83811115613277576000848401525b50505050565b6000600282049050600182168061329557607f821691505b602082108114156132a9576132a8613387565b5b50919050565b6132b882613432565b810181811067ffffffffffffffff821117156132d7576132d66133e5565b5b80604052505050565b60006132eb8261321f565b91507fffffffffffffffffffffffffffffffffffffffffffffffffffffffffffffffff82141561331e5761331d613329565b5b600182019050919050565b7f4e487b7100000000000000000000000000000000000000000000000000000000600052601160045260246000fd5b7f4e487b7100000000000000000000000000000000000000000000000000000000600052601260045260246000fd5b7f4e487b7100000000000000000000000000000000000000000000000000000000600052602260045260246000fd5b7f4e487b7100000000000000000000000000000000000000000000000000000000600052603260045260246000fd5b7f4e487b7100000000000000000000000000000000000000000000000000000000600052604160045260246000fd5b600080fd5b600080fd5b600080fd5b600080fd5b600080fd5b600080fd5b6000601f19601f8301169050919050565b7f455243313135353a2062616c616e636520717565727920666f7220746865207a60008201527f65726f2061646472657373000000000000000000000000000000000000000000602082015250565b7f4f776e61626c653a206e6577206f776e657220697320746865207a65726f206160008201527f6464726573730000000000000000000000000000000000000000000000000000602082015250565b7f4f776e61626c653a2063616c6c6572206973206e6f7420746865206f776e6572600082015250565b7f455243313135353a206163636f756e747320616e6420696473206c656e67746860008201527f206d69736d617463680000000000000000000000000000000000000000000000602082015250565b613562816131a3565b811461356d57600080fd5b50565b613579816131b5565b811461358457600080fd5b50565b613590816131c7565b811461359b57600080fd5b50565b6135a7816131d3565b81146135b257600080fd5b50565b6135be8161321f565b81146135c957600080fd5b5056fea26469706673582212202f5b4653d23039688fb6fbb17a7f5a81f16f93bd85f9c422d7c416c273b6961c64736f6c63430008060033",
  "immutableReferences": {},
  "source": "// SPDX-License-Identifier: MIT\npragma solidity ^0.8.0;\n\nimport \"./creatortokenformulas.sol\";\n\n/// @title Computation of fees owed to platform, and payout of creator\n/// @author Kamil Alizai Sadik\ncontract CreatorTokenFees is CreatorTokenFormulas {\n\n\tconstructor(string memory uri) CreatorTokenFormulas(uri) { }\n\n\t/// @dev Calculates the fee associated with a buy transaction\n\t/// @param _proceedsRequired The proceeds required for the buy transaction (before addition of fees)\n\t/// @return Fee associated with transaction\n\tfunction _feeProceeds(uint _proceedsRequired) public view returns (uint256) {\n\t\treturn _proceedsRequired*platformFee/100;\n\t}\n\n\t/// @dev Updates platform fee tracker mappings\n\t/// @param _fee Fee being added to the tracker\n\tfunction _platformFeeUpdater(uint _fee) internal {\n\t\ttotalPlatformFees += _fee;\n\t\tplatformFeesOwed += _fee;\n\t}\n\n\t/// @dev Transfers excess liquidity to the creator (triggered only when a CreatorToken hits a new maxSupply)\n\t/// @param _tokenId ID of the token in question\n\t/// @param _creatorAddress Wallet address of the creator of the token\n\tfunction _payCreator(uint _tokenId, address payable _creatorAddress) internal {\n\t\t// Create a variable showing excess liquidity that has already been transferred out of this token's liquidity pool\n\t\tuint alreadyTransferred = tokenValueTransferred[_tokenId];\n\t\t// Initialize totalProfit\n\t\tuint totalProfit = 0;\n\t\t// Calculate totalProfit (area between b(x) and s(x) from 0 to maxSupply)\n\t\ttotalProfit = _buyFunction(0, creatorTokens[_tokenId].maxSupply, mNumerator, mDenominator) - _saleFunction(creatorTokens[_tokenId].maxSupply, creatorTokens[_tokenId].maxSupply, mNumerator, mDenominator, creatorTokens[_tokenId].maxSupply, profitMargin);\n\t\t// Calculate creator's new profit created from new excess liquidity created\n\t\tuint newProfit = totalProfit - alreadyTransferred;\n\t\t// Transfer newProfit wei to creator\n\t\t_creatorAddress.transfer(newProfit);\n\t\t// Update amount of value transferred to creator\n\t\ttokenValueTransferred[_tokenId] = totalProfit;\n\t}\n}",
  "sourcePath": "/Users/kamilalizaisadik/DeFi/Dynamic Automated Market Maker/CreatorTokenExchange/contracts/creatortokenfees.sol",
  "compiler": {
    "name": "solc",
    "version": "0.8.6+commit.11564f7e.Emscripten.clang"
  },
  "schemaVersion": "3.4.1",
  "updatedAt": "2021-07-25T14:25:59.981Z",
  "devdoc": {
    "author": "Kamil Alizai Sadik",
    "kind": "dev",
    "methods": {
      "_feeProceeds(uint256)": {
        "details": "Calculates the fee associated with a buy transaction",
        "params": {
          "_proceedsRequired": "The proceeds required for the buy transaction (before addition of fees)"
        },
        "returns": {
          "_0": "Fee associated with transaction"
        }
      },
      "_saleFunction(uint256,uint256,uint256,uint256,uint256,uint256)": {
        "details": "Calculates area under sale price function",
        "params": {
          "_amount": "Amount of token being transacted",
          "_mDenominator": "Denominator of the slope of the buy price function",
          "_mNumerator": "Numerator of the slope of the buy price function",
          "_maxSupply": "Peak level of supply of the token to date",
          "_profitMargin": "percentage of total revenue generated routed to creator",
          "_startingSupply": "Supply of token in circulation before the transaction"
        },
        "returns": {
          "_0": "Area under sale price function denoting total proceeds received when selling _amount tokens (before fees)"
        }
      },
      "balanceOf(address,uint256)": {
        "details": "See {IERC1155-balanceOf}. Requirements: - `account` cannot be the zero address."
      },
      "balanceOfBatch(address[],uint256[])": {
        "details": "See {IERC1155-balanceOfBatch}. Requirements: - `accounts` and `ids` must have the same length."
      },
      "changeAddress(uint256,address)": {
        "details": "Allows token creator to change their address",
        "params": {
          "_newCreatorAddress": "New creator address associated with the token",
          "_tokenId": "ID of the token in question"
        }
      },
      "changeDescription(uint256,string)": {
        "details": "Allows token creator to change the description of their token",
        "params": {
          "_newDescription": "New description associated with the token",
          "_tokenId": "ID of the token in question"
        }
      },
      "changeName(uint256,string)": {
        "details": "Allows token creator to change the name of their token",
        "params": {
          "_newName": "New name associated with the token",
          "_tokenId": "ID of the token in question"
        }
      },
      "changePlatformFee(uint256)": {
        "details": "Allows owner to change platformFee",
        "params": {
          "_newPlatformFee": "New platform fee"
        }
      },
      "changeProfitMargin(uint256)": {
        "details": "Allows owner to change profit_margin",
        "params": {
          "_newProfitMargin": "New profit margin"
        }
      },
      "changeSymbol(uint256,string)": {
        "details": "Allows token creator to change the symbol of their token",
        "params": {
          "_newSymbol": "New symbol associated with the token",
          "_tokenId": "ID of the token in question"
        }
      },
      "changeVerification(uint256,bool)": {
        "details": "Allows owner to verify (or undo verification) of a CreatorToken",
        "params": {
          "_tokenId": "ID of the token in question",
          "_verified": "Verification status of the token in question"
        }
      },
      "createCreatorToken(address,string,string,string)": {
        "details": "Creates a new creator token",
        "params": {
          "_creatorAddress": "Address of the creator of the token",
          "_description": "chosen by the creator of the tokens",
          "_name": "Name chosen by the creator of the token",
          "_symbol": "Ticker symbol chosen by the creator of the token"
        }
      },
      "getCreatorTokenCount()": {
        "details": "Returns the current length of the creatorTokens array",
        "returns": {
          "_0": "uint representing number of unique Creator Tokens"
        }
      },
      "isApprovedForAll(address,address)": {
        "details": "Denotes whether operator is approved to transfer account's tokens",
        "params": {
          "_account": "Wallet address holding tokens",
          "_operator": "Wallet address which is/isn't approved to transfer _account's tokens"
        },
        "returns": {
          "_0": "Boolean value indicating approval status"
        }
      },
      "owner()": {
        "details": "Returns the address of the current owner."
      },
      "payoutPlatformFees(address)": {
        "details": "Pays out platform fees owed to owner (might opt to call this daily)",
        "params": {
          "_owner": "Owner of the smart contract"
        }
      },
      "renounceOwnership()": {
        "details": "Leaves the contract without owner. It will not be possible to call `onlyOwner` functions anymore. Can only be called by the current owner. NOTE: Renouncing ownership will leave the contract without an owner, thereby removing any functionality that is only available to the owner."
      },
      "safeBatchTransferFrom(address,address,uint256[],uint256[],bytes)": {
        "details": "Transfers a batch of tokens",
        "params": {
          "_amounts": "Array of quantities of token to be transferred",
          "_data": "Data",
          "_from": "Address token is being transferred from",
          "_ids": "Array of IDs of tokens being transferred",
          "_to": "Address token is being transferred to"
        }
      },
      "safeTransferFrom(address,address,uint256,uint256,bytes)": {
        "details": "Transfers a token",
        "params": {
          "_amount": "Quantity of token to be transferred",
          "_data": "Data",
          "_from": "Address token is being transferred from",
          "_id": "ID of token being transferred",
          "_to": "Address token is being transferred to"
        }
      },
      "setApprovalForAll(address,bool)": {
        "details": "Gives operator permission to transfer caller's tokens",
        "params": {
          "_approved": "Boolean value indicating whether operator is approved",
          "_operator": "Wallet address being granted permission"
        }
      },
      "supportsInterface(bytes4)": {
        "details": "See {IERC165-supportsInterface}."
      },
      "transferOwnership(address)": {
        "details": "Transfers ownership of the contract to a new account (`newOwner`). Can only be called by the current owner."
      },
      "uri(uint256)": {
        "details": "See {IERC1155MetadataURI-uri}. This implementation returns the same URI for *all* token types. It relies on the token type ID substitution mechanism https://eips.ethereum.org/EIPS/eip-1155#metadata[defined in the EIP]. Clients calling this function must replace the `\\{id\\}` substring with the actual token type ID."
      },
      "withdraw(address)": {
        "details": "Ownable function allowing for withdrawal",
        "params": {
          "_owner": "Owner of the smart contract"
        }
      }
    },
    "title": "Computation of fees owed to platform, and payout of creator",
    "version": 1
  },
  "userdoc": {
    "kind": "user",
    "methods": {},
    "version": 1
  }
}