{
  "contractName": "CreatorTokenExchange",
  "abi": [
    {
      "inputs": [
        {
          "internalType": "string",
          "name": "uri",
          "type": "string"
        }
      ],
      "stateMutability": "nonpayable",
      "type": "constructor"
    },
    {
      "anonymous": false,
      "inputs": [
        {
          "indexed": true,
          "internalType": "address",
          "name": "account",
          "type": "address"
        },
        {
          "indexed": true,
          "internalType": "address",
          "name": "operator",
          "type": "address"
        },
        {
          "indexed": false,
          "internalType": "bool",
          "name": "approved",
          "type": "bool"
        }
      ],
      "name": "ApprovalForAll",
      "type": "event"
    },
    {
      "anonymous": false,
      "inputs": [
        {
          "indexed": false,
          "internalType": "uint256",
          "name": "tokenId",
          "type": "uint256"
        },
        {
          "indexed": false,
          "internalType": "address payable",
          "name": "creatorAddress",
          "type": "address"
        },
        {
          "indexed": false,
          "internalType": "string",
          "name": "name",
          "type": "string"
        },
        {
          "indexed": false,
          "internalType": "string",
          "name": "symbol",
          "type": "string"
        },
        {
          "indexed": false,
          "internalType": "string",
          "name": "description",
          "type": "string"
        },
        {
          "indexed": false,
          "internalType": "bool",
          "name": "verified",
          "type": "bool"
        },
        {
          "indexed": false,
          "internalType": "uint256",
          "name": "outstanding",
          "type": "uint256"
        },
        {
          "indexed": false,
          "internalType": "uint256",
          "name": "maxSupply",
          "type": "uint256"
        }
      ],
      "name": "NewCreatorToken",
      "type": "event"
    },
    {
      "anonymous": false,
      "inputs": [
        {
          "indexed": true,
          "internalType": "address",
          "name": "account",
          "type": "address"
        },
        {
          "indexed": false,
          "internalType": "uint256",
          "name": "amount",
          "type": "uint256"
        },
        {
          "indexed": false,
          "internalType": "string",
          "name": "transactionType",
          "type": "string"
        },
        {
          "indexed": false,
          "internalType": "uint256",
          "name": "tokenId",
          "type": "uint256"
        },
        {
          "indexed": false,
          "internalType": "string",
          "name": "name",
          "type": "string"
        },
        {
          "indexed": false,
          "internalType": "string",
          "name": "symbol",
          "type": "string"
        }
      ],
      "name": "NewTransaction",
      "type": "event"
    },
    {
      "anonymous": false,
      "inputs": [
        {
          "indexed": true,
          "internalType": "address",
          "name": "previousOwner",
          "type": "address"
        },
        {
          "indexed": true,
          "internalType": "address",
          "name": "newOwner",
          "type": "address"
        }
      ],
      "name": "OwnershipTransferred",
      "type": "event"
    },
    {
      "anonymous": false,
      "inputs": [
        {
          "indexed": false,
          "internalType": "address",
          "name": "account",
          "type": "address"
        }
      ],
      "name": "Paused",
      "type": "event"
    },
    {
      "anonymous": false,
      "inputs": [
        {
          "indexed": true,
          "internalType": "bytes32",
          "name": "role",
          "type": "bytes32"
        },
        {
          "indexed": true,
          "internalType": "bytes32",
          "name": "previousAdminRole",
          "type": "bytes32"
        },
        {
          "indexed": true,
          "internalType": "bytes32",
          "name": "newAdminRole",
          "type": "bytes32"
        }
      ],
      "name": "RoleAdminChanged",
      "type": "event"
    },
    {
      "anonymous": false,
      "inputs": [
        {
          "indexed": true,
          "internalType": "bytes32",
          "name": "role",
          "type": "bytes32"
        },
        {
          "indexed": true,
          "internalType": "address",
          "name": "account",
          "type": "address"
        },
        {
          "indexed": true,
          "internalType": "address",
          "name": "sender",
          "type": "address"
        }
      ],
      "name": "RoleGranted",
      "type": "event"
    },
    {
      "anonymous": false,
      "inputs": [
        {
          "indexed": true,
          "internalType": "bytes32",
          "name": "role",
          "type": "bytes32"
        },
        {
          "indexed": true,
          "internalType": "address",
          "name": "account",
          "type": "address"
        },
        {
          "indexed": true,
          "internalType": "address",
          "name": "sender",
          "type": "address"
        }
      ],
      "name": "RoleRevoked",
      "type": "event"
    },
    {
      "anonymous": false,
      "inputs": [
        {
          "indexed": true,
          "internalType": "address",
          "name": "operator",
          "type": "address"
        },
        {
          "indexed": true,
          "internalType": "address",
          "name": "from",
          "type": "address"
        },
        {
          "indexed": true,
          "internalType": "address",
          "name": "to",
          "type": "address"
        },
        {
          "indexed": false,
          "internalType": "uint256[]",
          "name": "ids",
          "type": "uint256[]"
        },
        {
          "indexed": false,
          "internalType": "uint256[]",
          "name": "values",
          "type": "uint256[]"
        }
      ],
      "name": "TransferBatch",
      "type": "event"
    },
    {
      "anonymous": false,
      "inputs": [
        {
          "indexed": true,
          "internalType": "address",
          "name": "operator",
          "type": "address"
        },
        {
          "indexed": true,
          "internalType": "address",
          "name": "from",
          "type": "address"
        },
        {
          "indexed": true,
          "internalType": "address",
          "name": "to",
          "type": "address"
        },
        {
          "indexed": false,
          "internalType": "uint256",
          "name": "id",
          "type": "uint256"
        },
        {
          "indexed": false,
          "internalType": "uint256",
          "name": "value",
          "type": "uint256"
        }
      ],
      "name": "TransferSingle",
      "type": "event"
    },
    {
      "anonymous": false,
      "inputs": [
        {
          "indexed": false,
          "internalType": "string",
          "name": "value",
          "type": "string"
        },
        {
          "indexed": true,
          "internalType": "uint256",
          "name": "id",
          "type": "uint256"
        }
      ],
      "name": "URI",
      "type": "event"
    },
    {
      "anonymous": false,
      "inputs": [
        {
          "indexed": false,
          "internalType": "address",
          "name": "account",
          "type": "address"
        }
      ],
      "name": "Unpaused",
      "type": "event"
    },
    {
      "inputs": [],
      "name": "DEFAULT_ADMIN_ROLE",
      "outputs": [
        {
          "internalType": "bytes32",
          "name": "",
          "type": "bytes32"
        }
      ],
      "stateMutability": "view",
      "type": "function"
    },
    {
      "inputs": [],
      "name": "MINTER_ROLE",
      "outputs": [
        {
          "internalType": "bytes32",
          "name": "",
          "type": "bytes32"
        }
      ],
      "stateMutability": "view",
      "type": "function"
    },
    {
      "inputs": [],
      "name": "PAUSER_ROLE",
      "outputs": [
        {
          "internalType": "bytes32",
          "name": "",
          "type": "bytes32"
        }
      ],
      "stateMutability": "view",
      "type": "function"
    },
    {
      "inputs": [
        {
          "internalType": "address",
          "name": "_account",
          "type": "address"
        },
        {
          "internalType": "uint256",
          "name": "_id",
          "type": "uint256"
        }
      ],
      "name": "balanceOf",
      "outputs": [
        {
          "internalType": "uint256",
          "name": "",
          "type": "uint256"
        }
      ],
      "stateMutability": "view",
      "type": "function"
    },
    {
      "inputs": [
        {
          "internalType": "address[]",
          "name": "_accounts",
          "type": "address[]"
        },
        {
          "internalType": "uint256[]",
          "name": "_ids",
          "type": "uint256[]"
        }
      ],
      "name": "balanceOfBatch",
      "outputs": [
        {
          "internalType": "uint256[]",
          "name": "",
          "type": "uint256[]"
        }
      ],
      "stateMutability": "view",
      "type": "function"
    },
    {
      "inputs": [
        {
          "internalType": "address",
          "name": "_account",
          "type": "address"
        },
        {
          "internalType": "uint256",
          "name": "_id",
          "type": "uint256"
        },
        {
          "internalType": "uint256",
          "name": "_amount",
          "type": "uint256"
        }
      ],
      "name": "burn",
      "outputs": [],
      "stateMutability": "nonpayable",
      "type": "function"
    },
    {
      "inputs": [
        {
          "internalType": "address",
          "name": "_account",
          "type": "address"
        },
        {
          "internalType": "uint256[]",
          "name": "_ids",
          "type": "uint256[]"
        },
        {
          "internalType": "uint256[]",
          "name": "_amounts",
          "type": "uint256[]"
        }
      ],
      "name": "burnBatch",
      "outputs": [],
      "stateMutability": "nonpayable",
      "type": "function"
    },
    {
      "inputs": [
        {
          "internalType": "uint256",
          "name": "_tokenId",
          "type": "uint256"
        },
        {
          "internalType": "address payable",
          "name": "_newCreatorAddress",
          "type": "address"
        }
      ],
      "name": "changeAddress",
      "outputs": [],
      "stateMutability": "nonpayable",
      "type": "function"
    },
    {
      "inputs": [
        {
          "internalType": "uint256",
          "name": "_tokenId",
          "type": "uint256"
        },
        {
          "internalType": "string",
          "name": "_newDescription",
          "type": "string"
        }
      ],
      "name": "changeDescription",
      "outputs": [],
      "stateMutability": "nonpayable",
      "type": "function"
    },
    {
      "inputs": [
        {
          "internalType": "uint256",
          "name": "_tokenId",
          "type": "uint256"
        },
        {
          "internalType": "string",
          "name": "_newName",
          "type": "string"
        }
      ],
      "name": "changeName",
      "outputs": [],
      "stateMutability": "nonpayable",
      "type": "function"
    },
    {
      "inputs": [
        {
          "internalType": "uint256",
          "name": "_newPlatformFee",
          "type": "uint256"
        }
      ],
      "name": "changePlatformFee",
      "outputs": [],
      "stateMutability": "nonpayable",
      "type": "function"
    },
    {
      "inputs": [
        {
          "internalType": "uint256",
          "name": "_newProfitMargin",
          "type": "uint256"
        }
      ],
      "name": "changeProfitMargin",
      "outputs": [],
      "stateMutability": "nonpayable",
      "type": "function"
    },
    {
      "inputs": [
        {
          "internalType": "uint256",
          "name": "_tokenId",
          "type": "uint256"
        },
        {
          "internalType": "string",
          "name": "_newSymbol",
          "type": "string"
        }
      ],
      "name": "changeSymbol",
      "outputs": [],
      "stateMutability": "nonpayable",
      "type": "function"
    },
    {
      "inputs": [
        {
          "internalType": "uint256",
          "name": "_tokenId",
          "type": "uint256"
        },
        {
          "internalType": "bool",
          "name": "_verified",
          "type": "bool"
        }
      ],
      "name": "changeVerification",
      "outputs": [],
      "stateMutability": "nonpayable",
      "type": "function"
    },
    {
      "inputs": [
        {
          "internalType": "address payable",
          "name": "_creatorAddress",
          "type": "address"
        },
        {
          "internalType": "string",
          "name": "_name",
          "type": "string"
        },
        {
          "internalType": "string",
          "name": "_symbol",
          "type": "string"
        },
        {
          "internalType": "string",
          "name": "_description",
          "type": "string"
        }
      ],
      "name": "createCreatorToken",
      "outputs": [],
      "stateMutability": "nonpayable",
      "type": "function"
    },
    {
      "inputs": [
        {
          "internalType": "uint256",
          "name": "",
          "type": "uint256"
        }
      ],
      "name": "creatorTokens",
      "outputs": [
        {
          "internalType": "address payable",
          "name": "creatorAddress",
          "type": "address"
        },
        {
          "internalType": "string",
          "name": "name",
          "type": "string"
        },
        {
          "internalType": "string",
          "name": "symbol",
          "type": "string"
        },
        {
          "internalType": "string",
          "name": "description",
          "type": "string"
        },
        {
          "internalType": "bool",
          "name": "verified",
          "type": "bool"
        },
        {
          "internalType": "uint256",
          "name": "outstanding",
          "type": "uint256"
        },
        {
          "internalType": "uint256",
          "name": "maxSupply",
          "type": "uint256"
        }
      ],
      "stateMutability": "view",
      "type": "function"
    },
    {
      "inputs": [
        {
          "internalType": "bytes32",
          "name": "role",
          "type": "bytes32"
        }
      ],
      "name": "getRoleAdmin",
      "outputs": [
        {
          "internalType": "bytes32",
          "name": "",
          "type": "bytes32"
        }
      ],
      "stateMutability": "view",
      "type": "function"
    },
    {
      "inputs": [
        {
          "internalType": "bytes32",
          "name": "role",
          "type": "bytes32"
        },
        {
          "internalType": "uint256",
          "name": "index",
          "type": "uint256"
        }
      ],
      "name": "getRoleMember",
      "outputs": [
        {
          "internalType": "address",
          "name": "",
          "type": "address"
        }
      ],
      "stateMutability": "view",
      "type": "function"
    },
    {
      "inputs": [
        {
          "internalType": "bytes32",
          "name": "role",
          "type": "bytes32"
        }
      ],
      "name": "getRoleMemberCount",
      "outputs": [
        {
          "internalType": "uint256",
          "name": "",
          "type": "uint256"
        }
      ],
      "stateMutability": "view",
      "type": "function"
    },
    {
      "inputs": [
        {
          "internalType": "bytes32",
          "name": "role",
          "type": "bytes32"
        },
        {
          "internalType": "address",
          "name": "account",
          "type": "address"
        }
      ],
      "name": "grantRole",
      "outputs": [],
      "stateMutability": "nonpayable",
      "type": "function"
    },
    {
      "inputs": [
        {
          "internalType": "bytes32",
          "name": "role",
          "type": "bytes32"
        },
        {
          "internalType": "address",
          "name": "account",
          "type": "address"
        }
      ],
      "name": "hasRole",
      "outputs": [
        {
          "internalType": "bool",
          "name": "",
          "type": "bool"
        }
      ],
      "stateMutability": "view",
      "type": "function"
    },
    {
      "inputs": [
        {
          "internalType": "address",
          "name": "_account",
          "type": "address"
        },
        {
          "internalType": "address",
          "name": "_operator",
          "type": "address"
        }
      ],
      "name": "isApprovedForAll",
      "outputs": [
        {
          "internalType": "bool",
          "name": "",
          "type": "bool"
        }
      ],
      "stateMutability": "view",
      "type": "function"
    },
    {
      "inputs": [
        {
          "internalType": "address",
          "name": "_to",
          "type": "address"
        },
        {
          "internalType": "uint256",
          "name": "_id",
          "type": "uint256"
        },
        {
          "internalType": "uint256",
          "name": "_amount",
          "type": "uint256"
        },
        {
          "internalType": "bytes",
          "name": "_data",
          "type": "bytes"
        }
      ],
      "name": "mint",
      "outputs": [],
      "stateMutability": "nonpayable",
      "type": "function"
    },
    {
      "inputs": [
        {
          "internalType": "address",
          "name": "_to",
          "type": "address"
        },
        {
          "internalType": "uint256[]",
          "name": "_ids",
          "type": "uint256[]"
        },
        {
          "internalType": "uint256[]",
          "name": "_amounts",
          "type": "uint256[]"
        },
        {
          "internalType": "bytes",
          "name": "data",
          "type": "bytes"
        }
      ],
      "name": "mintBatch",
      "outputs": [],
      "stateMutability": "nonpayable",
      "type": "function"
    },
    {
      "inputs": [],
      "name": "owner",
      "outputs": [
        {
          "internalType": "address",
          "name": "",
          "type": "address"
        }
      ],
      "stateMutability": "view",
      "type": "function"
    },
    {
      "inputs": [],
      "name": "pause",
      "outputs": [],
      "stateMutability": "nonpayable",
      "type": "function"
    },
    {
      "inputs": [],
      "name": "paused",
      "outputs": [
        {
          "internalType": "bool",
          "name": "",
          "type": "bool"
        }
      ],
      "stateMutability": "view",
      "type": "function"
    },
    {
      "inputs": [
        {
          "internalType": "address payable",
          "name": "_owner",
          "type": "address"
        }
      ],
      "name": "payoutPlatformFees",
      "outputs": [],
      "stateMutability": "nonpayable",
      "type": "function"
    },
    {
      "inputs": [],
      "name": "renounceOwnership",
      "outputs": [],
      "stateMutability": "nonpayable",
      "type": "function"
    },
    {
      "inputs": [
        {
          "internalType": "bytes32",
          "name": "role",
          "type": "bytes32"
        },
        {
          "internalType": "address",
          "name": "account",
          "type": "address"
        }
      ],
      "name": "renounceRole",
      "outputs": [],
      "stateMutability": "nonpayable",
      "type": "function"
    },
    {
      "inputs": [
        {
          "internalType": "bytes32",
          "name": "role",
          "type": "bytes32"
        },
        {
          "internalType": "address",
          "name": "account",
          "type": "address"
        }
      ],
      "name": "revokeRole",
      "outputs": [],
      "stateMutability": "nonpayable",
      "type": "function"
    },
    {
      "inputs": [
        {
          "internalType": "address",
          "name": "_from",
          "type": "address"
        },
        {
          "internalType": "address",
          "name": "_to",
          "type": "address"
        },
        {
          "internalType": "uint256[]",
          "name": "_ids",
          "type": "uint256[]"
        },
        {
          "internalType": "uint256[]",
          "name": "_amounts",
          "type": "uint256[]"
        },
        {
          "internalType": "bytes",
          "name": "data",
          "type": "bytes"
        }
      ],
      "name": "safeBatchTransferFrom",
      "outputs": [],
      "stateMutability": "nonpayable",
      "type": "function"
    },
    {
      "inputs": [
        {
          "internalType": "address",
          "name": "_from",
          "type": "address"
        },
        {
          "internalType": "address",
          "name": "_to",
          "type": "address"
        },
        {
          "internalType": "uint256",
          "name": "_id",
          "type": "uint256"
        },
        {
          "internalType": "uint256",
          "name": "_amount",
          "type": "uint256"
        },
        {
          "internalType": "bytes",
          "name": "_data",
          "type": "bytes"
        }
      ],
      "name": "safeTransferFrom",
      "outputs": [],
      "stateMutability": "nonpayable",
      "type": "function"
    },
    {
      "inputs": [
        {
          "internalType": "address",
          "name": "_operator",
          "type": "address"
        },
        {
          "internalType": "bool",
          "name": "_approved",
          "type": "bool"
        }
      ],
      "name": "setApprovalForAll",
      "outputs": [],
      "stateMutability": "nonpayable",
      "type": "function"
    },
    {
      "inputs": [
        {
          "internalType": "bytes4",
          "name": "interfaceId",
          "type": "bytes4"
        }
      ],
      "name": "supportsInterface",
      "outputs": [
        {
          "internalType": "bool",
          "name": "",
          "type": "bool"
        }
      ],
      "stateMutability": "view",
      "type": "function"
    },
    {
      "inputs": [
        {
          "internalType": "uint256",
          "name": "",
          "type": "uint256"
        },
        {
          "internalType": "address",
          "name": "",
          "type": "address"
        }
      ],
      "name": "tokenHoldership",
      "outputs": [
        {
          "internalType": "uint256",
          "name": "",
          "type": "uint256"
        }
      ],
      "stateMutability": "view",
      "type": "function"
    },
    {
      "inputs": [
        {
          "internalType": "uint256",
          "name": "",
          "type": "uint256"
        }
      ],
      "name": "tokenToCreator",
      "outputs": [
        {
          "internalType": "address",
          "name": "",
          "type": "address"
        }
      ],
      "stateMutability": "view",
      "type": "function"
    },
    {
      "inputs": [
        {
          "internalType": "address",
          "name": "newOwner",
          "type": "address"
        }
      ],
      "name": "transferOwnership",
      "outputs": [],
      "stateMutability": "nonpayable",
      "type": "function"
    },
    {
      "inputs": [],
      "name": "unpause",
      "outputs": [],
      "stateMutability": "nonpayable",
      "type": "function"
    },
    {
      "inputs": [
        {
          "internalType": "uint256",
          "name": "",
          "type": "uint256"
        }
      ],
      "name": "uri",
      "outputs": [
        {
          "internalType": "string",
          "name": "",
          "type": "string"
        }
      ],
      "stateMutability": "view",
      "type": "function"
    },
    {
      "inputs": [
        {
          "internalType": "address",
          "name": "",
          "type": "address"
        },
        {
          "internalType": "uint256",
          "name": "",
          "type": "uint256"
        }
      ],
      "name": "userToHoldings",
      "outputs": [
        {
          "internalType": "uint256",
          "name": "",
          "type": "uint256"
        }
      ],
      "stateMutability": "view",
      "type": "function"
    },
    {
      "inputs": [
        {
          "internalType": "address payable",
          "name": "_owner",
          "type": "address"
        }
      ],
      "name": "withdraw",
      "outputs": [],
      "stateMutability": "nonpayable",
      "type": "function"
    },
    {
      "inputs": [
        {
          "internalType": "uint256",
          "name": "_tokenId",
          "type": "uint256"
        },
        {
          "internalType": "uint256",
          "name": "_amount",
          "type": "uint256"
        }
      ],
      "name": "buyCreatorToken",
      "outputs": [],
      "stateMutability": "payable",
      "type": "function"
    },
    {
      "inputs": [
        {
          "internalType": "uint256",
          "name": "_tokenId",
          "type": "uint256"
        },
        {
          "internalType": "uint256",
          "name": "_amount",
          "type": "uint256"
        }
      ],
      "name": "_buyProceeds",
      "outputs": [
        {
          "internalType": "uint256",
          "name": "",
          "type": "uint256"
        }
      ],
      "stateMutability": "view",
      "type": "function"
    },
    {
      "inputs": [
        {
          "internalType": "uint256",
          "name": "_tokenId",
          "type": "uint256"
        },
        {
          "internalType": "uint256",
          "name": "_amount",
          "type": "uint256"
        },
        {
          "internalType": "address payable",
          "name": "_seller",
          "type": "address"
        }
      ],
      "name": "sellCreatorToken",
      "outputs": [],
      "stateMutability": "payable",
      "type": "function"
    }
  ],
  "bytecode": "0x60806040526001805560006002556000600355601460045565082f79cd900060055560b96006553480156200003357600080fd5b506040516200665f3803806200665f8339818101604052810190620000599190620005ca565b80808060006200006e620001e860201b60201c565b9050806000806101000a81548173ffffffffffffffffffffffffffffffffffffffff021916908373ffffffffffffffffffffffffffffffffffffffff1602179055508073ffffffffffffffffffffffffffffffffffffffff16600073ffffffffffffffffffffffffffffffffffffffff167f8be0079c531659141344cd1fd0a4f28419497f9722a3daafe3b4186f6b6457e060405160405180910390a3506200011d81620001f060201b60201c565b506000601260006101000a81548160ff0219169083151502179055506200015d6000801b62000151620001e860201b60201c565b6200020c60201b60201c565b6200019e7f9f2df0fed2c77648de5860a4cc508cd0818c85b8b8a1ab4ceeef8d981c8956a662000192620001e860201b60201c565b6200020c60201b60201c565b620001df7f65d7a28e3265b37a6474929f336521b332c1681b933f6cb9f3376673440d862a620001d3620001e860201b60201c565b6200020c60201b60201c565b5050506200079f565b600033905090565b8060119080519060200190620002089291906200049c565b5050565b6200022382826200025460201b62002fb91760201c565b6200024f81600e60008581526020019081526020016000206200026a60201b62002fc71790919060201c565b505050565b620002668282620002a260201b60201c565b5050565b60006200029a836000018373ffffffffffffffffffffffffffffffffffffffff1660001b6200039460201b60201c565b905092915050565b620002b482826200040e60201b60201c565b62000390576001600d600084815260200190815260200160002060000160008373ffffffffffffffffffffffffffffffffffffffff1673ffffffffffffffffffffffffffffffffffffffff16815260200190815260200160002060006101000a81548160ff02191690831515021790555062000335620001e860201b60201c565b73ffffffffffffffffffffffffffffffffffffffff168173ffffffffffffffffffffffffffffffffffffffff16837f2f8788117e7eff1d82e926ec794901d17c78024a50270940304540a733656f0d60405160405180910390a45b5050565b6000620003a883836200047960201b60201c565b6200040357826000018290806001815401808255809150506001900390600052602060002001600090919091909150558260000180549050836001016000848152602001908152602001600020819055506001905062000408565b600090505b92915050565b6000600d600084815260200190815260200160002060000160008373ffffffffffffffffffffffffffffffffffffffff1673ffffffffffffffffffffffffffffffffffffffff16815260200190815260200160002060009054906101000a900460ff16905092915050565b600080836001016000848152602001908152602001600020541415905092915050565b828054620004aa90620006b0565b90600052602060002090601f016020900481019282620004ce57600085556200051a565b82601f10620004e957805160ff19168380011785556200051a565b828001600101855582156200051a579182015b8281111562000519578251825591602001919060010190620004fc565b5b5090506200052991906200052d565b5090565b5b80821115620005485760008160009055506001016200052e565b5090565b6000620005636200055d8462000644565b6200061b565b9050828152602081018484840111156200058257620005816200077f565b5b6200058f8482856200067a565b509392505050565b600082601f830112620005af57620005ae6200077a565b5b8151620005c18482602086016200054c565b91505092915050565b600060208284031215620005e357620005e262000789565b5b600082015167ffffffffffffffff81111562000604576200060362000784565b5b620006128482850162000597565b91505092915050565b6000620006276200063a565b9050620006358282620006e6565b919050565b6000604051905090565b600067ffffffffffffffff8211156200066257620006616200074b565b5b6200066d826200078e565b9050602081019050919050565b60005b838110156200069a5780820151818401526020810190506200067d565b83811115620006aa576000848401525b50505050565b60006002820490506001821680620006c957607f821691505b60208210811415620006e057620006df6200071c565b5b50919050565b620006f1826200078e565b810181811067ffffffffffffffff821117156200071357620007126200074b565b5b80604052505050565b7f4e487b7100000000000000000000000000000000000000000000000000000000600052602260045260246000fd5b7f4e487b7100000000000000000000000000000000000000000000000000000000600052604160045260246000fd5b600080fd5b600080fd5b600080fd5b600080fd5b6000601f19601f8301169050919050565b615eb080620007af6000396000f3fe6080604052600436106102715760003560e01c80639010d07c1161014f578063d547741f116100c1578063eb8417591161007a578063eb8417591461099a578063f242432a146109c3578063f2fde38b146109ec578063f5298aca14610a15578063f7374e2e14610a3e578063fffae94114610a6757610271565b8063d547741f1461088e578063d56b72c7146108b7578063d7a5791a146108e0578063de6a06ed14610909578063e63ab1e914610932578063e985e9c51461095d57610271565b8063bfb48c9c11610113578063bfb48c9c14610754578063c39cbef114610791578063c539c317146107ba578063ca15c873146107e3578063ce901d8a14610820578063d53913931461086357610271565b80639010d07c1461064957806391d148541461068657806392724afa146106c3578063a217fddf14610700578063a22cb4651461072b57610271565b806336568abe116101e85780635c975abb116101ac5780635c975abb146105735780636b20c4541461059e578063715018a6146105c7578063731133e9146105de5780638456cb59146106075780638da5cb5b1461061e57610271565b806336568abe146104905780633f4ba83a146104b95780634e1273f4146104d05780634fe477d81461050d57806351cff8d91461054a57610271565b80631d5ad18b1161023a5780631d5ad18b146103935780631f7fdffa146103bc578063248a9ca3146103e55780632dcfdaf7146104225780632eb2c2d61461043e5780632f2ff15d1461046757610271565b8062fdd58e1461027657806301ffc9a7146102b357806306e320f5146102f05780630e89341c1461031957806318892ae814610356575b600080fd5b34801561028257600080fd5b5061029d600480360381019061029891906149af565b610a83565b6040516102aa919061543a565b60405180910390f35b3480156102bf57600080fd5b506102da60048036038101906102d59190614bf3565b610ade565b6040516102e791906152c2565b60405180910390f35b3480156102fc57600080fd5b5061031760048036038101906103129190614d0d565b610af0565b005b34801561032557600080fd5b50610340600480360381019061033b9190614c20565b610b97565b60405161034d91906152f8565b60405180910390f35b34801561036257600080fd5b5061037d60048036038101906103789190614c20565b610c2b565b60405161038a91906151ca565b60405180910390f35b34801561039f57600080fd5b506103ba60048036038101906103b59190614c8d565b610c5e565b005b3480156103c857600080fd5b506103e360048036038101906103de91906148b4565b610d33565b005b3480156103f157600080fd5b5061040c60048036038101906104079190614b46565b610f7e565b60405161041991906152dd565b60405180910390f35b61043c60048036038101906104379190614dad565b610f9e565b005b34801561044a57600080fd5b50610465600480360381019061046091906146c3565b611167565b005b34801561047357600080fd5b5061048e60048036038101906104899190614b73565b611342565b005b34801561049c57600080fd5b506104b760048036038101906104b29190614b73565b611376565b005b3480156104c557600080fd5b506104ce6113aa565b005b3480156104dc57600080fd5b506104f760048036038101906104f29190614ac5565b611424565b6040516105049190615269565b60405180910390f35b34801561051957600080fd5b50610534600480360381019061052f9190614d6d565b611554565b604051610541919061543a565b60405180910390f35b34801561055657600080fd5b50610571600480360381019061056c919061459b565b61177d565b005b34801561057f57600080fd5b50610588611843565b60405161059591906152c2565b60405180910390f35b3480156105aa57600080fd5b506105c560048036038101906105c09190614829565b61185a565b005b3480156105d357600080fd5b506105dc611aa4565b005b3480156105ea57600080fd5b5061060560048036038101906106009190614a42565b611bde565b005b34801561061357600080fd5b5061061c611d6d565b005b34801561062a57600080fd5b50610633611de7565b60405161064091906151ca565b60405180910390f35b34801561065557600080fd5b50610670600480360381019061066b9190614bb3565b611e10565b60405161067d91906151ca565b60405180910390f35b34801561069257600080fd5b506106ad60048036038101906106a89190614b73565b611e3f565b6040516106ba91906152c2565b60405180910390f35b3480156106cf57600080fd5b506106ea60048036038101906106e591906149af565b611eaa565b6040516106f7919061543a565b60405180910390f35b34801561070c57600080fd5b50610715611ecf565b60405161072291906152dd565b60405180910390f35b34801561073757600080fd5b50610752600480360381019061074d919061496f565b611ed6565b005b34801561076057600080fd5b5061077b60048036038101906107769190614c4d565b611fd3565b604051610788919061543a565b60405180910390f35b34801561079d57600080fd5b506107b860048036038101906107b39190614d0d565b611ff8565b005b3480156107c657600080fd5b506107e160048036038101906107dc9190614c20565b61209f565b005b3480156107ef57600080fd5b5061080a60048036038101906108059190614b46565b612125565b604051610817919061543a565b60405180910390f35b34801561082c57600080fd5b5061084760048036038101906108429190614c20565b612149565b60405161085a97969594939291906151e5565b60405180910390f35b34801561086f57600080fd5b50610878612360565b60405161088591906152dd565b60405180910390f35b34801561089a57600080fd5b506108b560048036038101906108b09190614b73565b612384565b005b3480156108c357600080fd5b506108de60048036038101906108d991906145c8565b6123b8565b005b3480156108ec57600080fd5b5061090760048036038101906109029190614c20565b6125d4565b005b34801561091557600080fd5b50610930600480360381019061092b9190614d0d565b61265a565b005b34801561093e57600080fd5b50610947612701565b60405161095491906152dd565b60405180910390f35b34801561096957600080fd5b50610984600480360381019061097f9190614683565b612725565b60405161099191906152c2565b60405180910390f35b3480156109a657600080fd5b506109c160048036038101906109bc919061459b565b6127b9565b005b3480156109cf57600080fd5b506109ea60048036038101906109e59190614792565b612889565b005b3480156109f857600080fd5b50610a136004803603810190610a0e919061456e565b6129dc565b005b348015610a2157600080fd5b50610a3c6004803603810190610a3791906149ef565b612b85565b005b348015610a4a57600080fd5b50610a656004803603810190610a609190614ccd565b612d13565b005b610a816004803603810190610a7c9190614d6d565b612dd0565b005b6000600a600083815260200190815260200160002060008473ffffffffffffffffffffffffffffffffffffffff1673ffffffffffffffffffffffffffffffffffffffff16815260200190815260200160002054905092915050565b6000610ae982612ff7565b9050919050565b826008600082815260200190815260200160002060009054906101000a900473ffffffffffffffffffffffffffffffffffffffff1673ffffffffffffffffffffffffffffffffffffffff163373ffffffffffffffffffffffffffffffffffffffff1614610b5c57600080fd5b828260078681548110610b7257610b71615a90565b5b90600052602060002090600702016002019190610b90929190614147565b5050505050565b606060118054610ba690615928565b80601f0160208091040260200160405190810160405280929190818152602001828054610bd290615928565b8015610c1f5780601f10610bf457610100808354040283529160200191610c1f565b820191906000526020600020905b815481529060010190602001808311610c0257829003601f168201915b50505050509050919050565b60086020528060005260406000206000915054906101000a900473ffffffffffffffffffffffffffffffffffffffff1681565b816008600082815260200190815260200160002060009054906101000a900473ffffffffffffffffffffffffffffffffffffffff1673ffffffffffffffffffffffffffffffffffffffff163373ffffffffffffffffffffffffffffffffffffffff1614610cca57600080fd5b8160078481548110610cdf57610cde615a90565b5b906000526020600020906007020160000160006101000a81548173ffffffffffffffffffffffffffffffffffffffff021916908373ffffffffffffffffffffffffffffffffffffffff160217905550505050565b60005b8351811015610ef857828181518110610d5257610d51615a90565b5b6020026020010151600a6000868481518110610d7157610d70615a90565b5b6020026020010151815260200190815260200160002060008773ffffffffffffffffffffffffffffffffffffffff1673ffffffffffffffffffffffffffffffffffffffff1681526020019081526020016000206000828254610dd39190615705565b92505081905550828181518110610ded57610dec615a90565b5b6020026020010151600b60008773ffffffffffffffffffffffffffffffffffffffff1673ffffffffffffffffffffffffffffffffffffffff1681526020019081526020016000206000868481518110610e4957610e48615a90565b5b602002602001015181526020019081526020016000206000828254610e6e9190615705565b92505081905550828181518110610e8857610e87615a90565b5b60200260200101516007858381518110610ea557610ea4615a90565b5b602002602001015181548110610ebe57610ebd615a90565b5b90600052602060002090600702016005016000828254610ede9190615705565b925050819055508080610ef09061598b565b915050610d36565b508373ffffffffffffffffffffffffffffffffffffffff16600073ffffffffffffffffffffffffffffffffffffffff163373ffffffffffffffffffffffffffffffffffffffff167f4a39dc06d4c0dbc64b70af90fd698a233a518aa5d07e595d983b8c0526c8f7fb8686604051610f7092919061528b565b60405180910390a450505050565b6000600d6000838152602001908152602001600020600101549050919050565b3373ffffffffffffffffffffffffffffffffffffffff168173ffffffffffffffffffffffffffffffffffffffff1614610fd657600080fd5b60008060078581548110610fed57610fec615a90565b5b906000526020600020906007020160050154905061103a818560055460065460078a815481106110205761101f615a90565b5b9060005260206000209060070201600601546004546130d9565b9150600060646001548461104e919061578c565b611058919061575b565b9050808361106691906157e6565b9250611073848787612b85565b8373ffffffffffffffffffffffffffffffffffffffff166108fc849081150290604051600060405180830381858888f193505050501580156110b9573d6000803e3d6000fd5b506110c381613152565b3373ffffffffffffffffffffffffffffffffffffffff167f1ebb537d8231cf8a6b1b0d1684d85dfd83872c030ffc75f500f0729eaf674d82868860078a8154811061111157611110615a90565b5b906000526020600020906007020160010160078b8154811061113657611135615a90565b5b9060005260206000209060070201600201604051611157949392919061554e565b60405180910390a2505050505050565b60005b83518110156112bc5782818151811061118657611185615a90565b5b6020026020010151600a60008684815181106111a5576111a4615a90565b5b6020026020010151815260200190815260200160002060008873ffffffffffffffffffffffffffffffffffffffff1673ffffffffffffffffffffffffffffffffffffffff168152602001908152602001600020600082825461120791906157e6565b9250508190555082818151811061122157611220615a90565b5b6020026020010151600a60008684815181106112405761123f615a90565b5b6020026020010151815260200190815260200160002060008773ffffffffffffffffffffffffffffffffffffffff1673ffffffffffffffffffffffffffffffffffffffff16815260200190815260200160002060008282546112a29190615705565b9250508190555080806112b49061598b565b91505061116a565b508373ffffffffffffffffffffffffffffffffffffffff168573ffffffffffffffffffffffffffffffffffffffff163373ffffffffffffffffffffffffffffffffffffffff167f4a39dc06d4c0dbc64b70af90fd698a233a518aa5d07e595d983b8c0526c8f7fb868660405161133392919061528b565b60405180910390a45050505050565b61134c8282613187565b61137181600e6000858152602001908152602001600020612fc790919063ffffffff16565b505050565b61138082826131b0565b6113a581600e600085815260200190815260200160002061323390919063ffffffff16565b505050565b6113db7f65d7a28e3265b37a6474929f336521b332c1681b933f6cb9f3376673440d862a6113d6613263565b611e3f565b61141a576040517f08c379a0000000000000000000000000000000000000000000000000000000008152600401611411906153da565b60405180910390fd5b61142261326b565b565b606060008585905067ffffffffffffffff81111561144557611444615abf565b5b6040519080825280602002602001820160405280156114735781602001602082028036833780820191505090505b50905060005b8686905081101561154757600a600086868481811061149b5761149a615a90565b5b90506020020135815260200190815260200160002060008888848181106114c5576114c4615a90565b5b90506020020160208101906114da919061456e565b73ffffffffffffffffffffffffffffffffffffffff1673ffffffffffffffffffffffffffffffffffffffff1681526020019081526020016000205482828151811061152857611527615a90565b5b602002602001018181525050808061153f9061598b565b915050611479565b5080915050949350505050565b6000806000905060006007858154811061157157611570615a90565b5b9060005260206000209060070201600501549050600084826115939190615705565b9050600786815481106115a9576115a8615a90565b5b906000526020600020906007020160060154811015611602576115fb828660055460065460078b815481106115e1576115e0615a90565b5b9060005260206000209060070201600601546004546130d9565b9250611755565b6007868154811061161657611615615a90565b5b906000526020600020906007020160060154821015611741576116bd6007878154811061164657611645615a90565b5b906000526020600020906007020160060154836007898154811061166d5761166c615a90565b5b90600052602060002090600702016006015461168991906157e6565b60055460065460078b815481106116a3576116a2615a90565b5b9060005260206000209060070201600601546004546130d9565b925061172f600787815481106116d6576116d5615a90565b5b90600052602060002090600702016006015483600789815481106116fd576116fc615a90565b5b90600052602060002090600702016006015461171991906157e6565b8761172491906157e6565b60055460065461330d565b8361173a9190615705565b9250611754565b611751828660055460065461330d565b92505b5b6064600154611764919061575b565b8361176f9190615705565b925082935050505092915050565b611785613263565b73ffffffffffffffffffffffffffffffffffffffff166117a3611de7565b73ffffffffffffffffffffffffffffffffffffffff16146117f9576040517f08c379a00000000000000000000000000000000000000000000000000000000081526004016117f0906153ba565b60405180910390fd5b8073ffffffffffffffffffffffffffffffffffffffff166108fc479081150290604051600060405180830381858888f1935050505015801561183f573d6000803e3d6000fd5b5050565b6000601260009054906101000a900460ff16905090565b60005b8251811015611a1f5781818151811061187957611878615a90565b5b6020026020010151600a600085848151811061189857611897615a90565b5b6020026020010151815260200190815260200160002060008673ffffffffffffffffffffffffffffffffffffffff1673ffffffffffffffffffffffffffffffffffffffff16815260200190815260200160002060008282546118fa91906157e6565b9250508190555081818151811061191457611913615a90565b5b6020026020010151600b60008673ffffffffffffffffffffffffffffffffffffffff1673ffffffffffffffffffffffffffffffffffffffff16815260200190815260200160002060008584815181106119705761196f615a90565b5b60200260200101518152602001908152602001600020600082825461199591906157e6565b925050819055508181815181106119af576119ae615a90565b5b602002602001015160078483815181106119cc576119cb615a90565b5b6020026020010151815481106119e5576119e4615a90565b5b90600052602060002090600702016005016000828254611a0591906157e6565b925050819055508080611a179061598b565b91505061185d565b50600073ffffffffffffffffffffffffffffffffffffffff168373ffffffffffffffffffffffffffffffffffffffff163373ffffffffffffffffffffffffffffffffffffffff167f4a39dc06d4c0dbc64b70af90fd698a233a518aa5d07e595d983b8c0526c8f7fb8585604051611a9792919061528b565b60405180910390a4505050565b611aac613263565b73ffffffffffffffffffffffffffffffffffffffff16611aca611de7565b73ffffffffffffffffffffffffffffffffffffffff1614611b20576040517f08c379a0000000000000000000000000000000000000000000000000000000008152600401611b17906153ba565b60405180910390fd5b600073ffffffffffffffffffffffffffffffffffffffff1660008054906101000a900473ffffffffffffffffffffffffffffffffffffffff1673ffffffffffffffffffffffffffffffffffffffff167f8be0079c531659141344cd1fd0a4f28419497f9722a3daafe3b4186f6b6457e060405160405180910390a360008060006101000a81548173ffffffffffffffffffffffffffffffffffffffff021916908373ffffffffffffffffffffffffffffffffffffffff160217905550565b81600a600085815260200190815260200160002060008673ffffffffffffffffffffffffffffffffffffffff1673ffffffffffffffffffffffffffffffffffffffff1681526020019081526020016000206000828254611c3e9190615705565b9250508190555081600b60008673ffffffffffffffffffffffffffffffffffffffff1673ffffffffffffffffffffffffffffffffffffffff16815260200190815260200160002060008581526020019081526020016000206000828254611ca59190615705565b925050819055508160078481548110611cc157611cc0615a90565b5b90600052602060002090600702016005016000828254611ce19190615705565b925050819055508373ffffffffffffffffffffffffffffffffffffffff16600073ffffffffffffffffffffffffffffffffffffffff163373ffffffffffffffffffffffffffffffffffffffff167fc3d58168c5ae7397731d063d5bbf3d657854427343f4c083240f7aacaa2d0f628686604051611d5f9291906155b4565b60405180910390a450505050565b611d9e7f65d7a28e3265b37a6474929f336521b332c1681b933f6cb9f3376673440d862a611d99613263565b611e3f565b611ddd576040517f08c379a0000000000000000000000000000000000000000000000000000000008152600401611dd4906153fa565b60405180910390fd5b611de561339b565b565b60008060009054906101000a900473ffffffffffffffffffffffffffffffffffffffff16905090565b6000611e3782600e600086815260200190815260200160002061343e90919063ffffffff16565b905092915050565b6000600d600084815260200190815260200160002060000160008373ffffffffffffffffffffffffffffffffffffffff1673ffffffffffffffffffffffffffffffffffffffff16815260200190815260200160002060009054906101000a900460ff16905092915050565b600b602052816000526040600020602052806000526040600020600091509150505481565b6000801b81565b80600c60003373ffffffffffffffffffffffffffffffffffffffff1673ffffffffffffffffffffffffffffffffffffffff16815260200190815260200160002060008473ffffffffffffffffffffffffffffffffffffffff1673ffffffffffffffffffffffffffffffffffffffff16815260200190815260200160002060006101000a81548160ff0219169083151502179055508173ffffffffffffffffffffffffffffffffffffffff163373ffffffffffffffffffffffffffffffffffffffff167f17307eab39ab6107e8899845ad3d59bd9653f200f220920489ca2b5937696c3183604051611fc791906152c2565b60405180910390a35050565b600a602052816000526040600020602052806000526040600020600091509150505481565b826008600082815260200190815260200160002060009054906101000a900473ffffffffffffffffffffffffffffffffffffffff1673ffffffffffffffffffffffffffffffffffffffff163373ffffffffffffffffffffffffffffffffffffffff161461206457600080fd5b82826007868154811061207a57612079615a90565b5b90600052602060002090600702016001019190612098929190614147565b5050505050565b6120a7613263565b73ffffffffffffffffffffffffffffffffffffffff166120c5611de7565b73ffffffffffffffffffffffffffffffffffffffff161461211b576040517f08c379a0000000000000000000000000000000000000000000000000000000008152600401612112906153ba565b60405180910390fd5b8060048190555050565b6000612142600e6000848152602001908152602001600020613458565b9050919050565b6007818154811061215957600080fd5b90600052602060002090600702016000915090508060000160009054906101000a900473ffffffffffffffffffffffffffffffffffffffff16908060010180546121a290615928565b80601f01602080910402602001604051908101604052809291908181526020018280546121ce90615928565b801561221b5780601f106121f05761010080835404028352916020019161221b565b820191906000526020600020905b8154815290600101906020018083116121fe57829003601f168201915b50505050509080600201805461223090615928565b80601f016020809104026020016040519081016040528092919081815260200182805461225c90615928565b80156122a95780601f1061227e576101008083540402835291602001916122a9565b820191906000526020600020905b81548152906001019060200180831161228c57829003601f168201915b5050505050908060030180546122be90615928565b80601f01602080910402602001604051908101604052809291908181526020018280546122ea90615928565b80156123375780601f1061230c57610100808354040283529160200191612337565b820191906000526020600020905b81548152906001019060200180831161231a57829003601f168201915b5050505050908060040160009054906101000a900460ff16908060050154908060060154905087565b7f9f2df0fed2c77648de5860a4cc508cd0818c85b8b8a1ab4ceeef8d981c8956a681565b61238e828261346d565b6123b381600e600085815260200190815260200160002061323390919063ffffffff16565b505050565b60076040518060e001604052808673ffffffffffffffffffffffffffffffffffffffff168152602001858152602001848152602001838152602001600015158152602001600081526020016000815250908060018154018082558091505060019003906000526020600020906007020160009091909190915060008201518160000160006101000a81548173ffffffffffffffffffffffffffffffffffffffff021916908373ffffffffffffffffffffffffffffffffffffffff16021790555060208201518160010190805190602001906124949291906141cd565b5060408201518160020190805190602001906124b19291906141cd565b5060608201518160030190805190602001906124ce9291906141cd565b5060808201518160040160006101000a81548160ff02191690831515021790555060a0820151816005015560c0820151816006015550506000600160078054905061251991906157e6565b9050846008600083815260200190815260200160002060006101000a81548173ffffffffffffffffffffffffffffffffffffffff021916908373ffffffffffffffffffffffffffffffffffffffff160217905550600060096000838152602001908152602001600020819055507f3ef624c0f3fb7ad40b94c02078ea3e3a797dbfc21e921ee4bd2b8ad0ca6aa113818686868660008060006040516125c5989796959493929190615455565b60405180910390a15050505050565b6125dc613263565b73ffffffffffffffffffffffffffffffffffffffff166125fa611de7565b73ffffffffffffffffffffffffffffffffffffffff1614612650576040517f08c379a0000000000000000000000000000000000000000000000000000000008152600401612647906153ba565b60405180910390fd5b8060018190555050565b826008600082815260200190815260200160002060009054906101000a900473ffffffffffffffffffffffffffffffffffffffff1673ffffffffffffffffffffffffffffffffffffffff163373ffffffffffffffffffffffffffffffffffffffff16146126c657600080fd5b8282600786815481106126dc576126db615a90565b5b906000526020600020906007020160030191906126fa929190614147565b5050505050565b7f65d7a28e3265b37a6474929f336521b332c1681b933f6cb9f3376673440d862a81565b6000600c60008473ffffffffffffffffffffffffffffffffffffffff1673ffffffffffffffffffffffffffffffffffffffff16815260200190815260200160002060008373ffffffffffffffffffffffffffffffffffffffff1673ffffffffffffffffffffffffffffffffffffffff16815260200190815260200160002060009054906101000a900460ff16905092915050565b6127c1613263565b73ffffffffffffffffffffffffffffffffffffffff166127df611de7565b73ffffffffffffffffffffffffffffffffffffffff1614612835576040517f08c379a000000000000000000000000000000000000000000000000000000000815260040161282c906153ba565b60405180910390fd5b8073ffffffffffffffffffffffffffffffffffffffff166108fc6003549081150290604051600060405180830381858888f1935050505015801561287d573d6000803e3d6000fd5b50600060038190555050565b81600a600085815260200190815260200160002060008773ffffffffffffffffffffffffffffffffffffffff1673ffffffffffffffffffffffffffffffffffffffff16815260200190815260200160002060008282546128e991906157e6565b9250508190555081600a600085815260200190815260200160002060008673ffffffffffffffffffffffffffffffffffffffff1673ffffffffffffffffffffffffffffffffffffffff16815260200190815260200160002060008282546129509190615705565b925050819055508373ffffffffffffffffffffffffffffffffffffffff168573ffffffffffffffffffffffffffffffffffffffff163373ffffffffffffffffffffffffffffffffffffffff167fc3d58168c5ae7397731d063d5bbf3d657854427343f4c083240f7aacaa2d0f6286866040516129cd9291906155b4565b60405180910390a45050505050565b6129e4613263565b73ffffffffffffffffffffffffffffffffffffffff16612a02611de7565b73ffffffffffffffffffffffffffffffffffffffff1614612a58576040517f08c379a0000000000000000000000000000000000000000000000000000000008152600401612a4f906153ba565b60405180910390fd5b600073ffffffffffffffffffffffffffffffffffffffff168173ffffffffffffffffffffffffffffffffffffffff161415612ac8576040517f08c379a0000000000000000000000000000000000000000000000000000000008152600401612abf9061537a565b60405180910390fd5b8073ffffffffffffffffffffffffffffffffffffffff1660008054906101000a900473ffffffffffffffffffffffffffffffffffffffff1673ffffffffffffffffffffffffffffffffffffffff167f8be0079c531659141344cd1fd0a4f28419497f9722a3daafe3b4186f6b6457e060405160405180910390a3806000806101000a81548173ffffffffffffffffffffffffffffffffffffffff021916908373ffffffffffffffffffffffffffffffffffffffff16021790555050565b80600a600084815260200190815260200160002060008573ffffffffffffffffffffffffffffffffffffffff1673ffffffffffffffffffffffffffffffffffffffff1681526020019081526020016000206000828254612be591906157e6565b9250508190555080600b60008573ffffffffffffffffffffffffffffffffffffffff1673ffffffffffffffffffffffffffffffffffffffff16815260200190815260200160002060008481526020019081526020016000206000828254612c4c91906157e6565b925050819055508060078381548110612c6857612c67615a90565b5b90600052602060002090600702016005016000828254612c8891906157e6565b92505081905550600073ffffffffffffffffffffffffffffffffffffffff168373ffffffffffffffffffffffffffffffffffffffff163373ffffffffffffffffffffffffffffffffffffffff167fc3d58168c5ae7397731d063d5bbf3d657854427343f4c083240f7aacaa2d0f628585604051612d069291906155b4565b60405180910390a4505050565b612d1b613263565b73ffffffffffffffffffffffffffffffffffffffff16612d39611de7565b73ffffffffffffffffffffffffffffffffffffffff1614612d8f576040517f08c379a0000000000000000000000000000000000000000000000000000000008152600401612d86906153ba565b60405180910390fd5b8060078381548110612da457612da3615a90565b5b906000526020600020906007020160040160006101000a81548160ff0219169083151502179055505050565b6000612ddc8383611554565b9050803414612dea57600080fd5b612e0c6001546064612dfc9190615705565b82612e07919061575b565b613152565b612e2733848460405180602001604052806000815250611bde565b3373ffffffffffffffffffffffffffffffffffffffff167f1ebb537d8231cf8a6b1b0d1684d85dfd83872c030ffc75f500f0729eaf674d82838560078781548110612e7557612e74615a90565b5b906000526020600020906007020160010160078881548110612e9a57612e99615a90565b5b9060005260206000209060070201600201604051612ebb94939291906154e8565b60405180910390a260078381548110612ed757612ed6615a90565b5b90600052602060002090600702016006015460078481548110612efd57612efc615a90565b5b9060005260206000209060070201600501541115612fb45760078381548110612f2957612f28615a90565b5b90600052602060002090600702016005015460078481548110612f4f57612f4e615a90565b5b906000526020600020906007020160060181905550612fb38360078581548110612f7c57612f7b615a90565b5b906000526020600020906007020160000160009054906101000a900473ffffffffffffffffffffffffffffffffffffffff16613496565b5b505050565b612fc382826135eb565b5050565b6000612fef836000018373ffffffffffffffffffffffffffffffffffffffff1660001b6136cc565b905092915050565b60007fd9b67a26000000000000000000000000000000000000000000000000000000007bffffffffffffffffffffffffffffffffffffffffffffffffffffffff1916827bffffffffffffffffffffffffffffffffffffffffffffffffffffffff191614806130c257507f0e89341c000000000000000000000000000000000000000000000000000000007bffffffffffffffffffffffffffffffffffffffffffffffffffffffff1916827bffffffffffffffffffffffffffffffffffffffffffffffffffffffff1916145b806130d257506130d18261373c565b5b9050919050565b6000806000806130ed8a8a8a8a8a8a6137b6565b9250925092506000838b10156131105761310984848d85613831565b9050613141565b8382101561312e5761312784848d858d8d8d6138d4565b9050613140565b61313d84848d858d8d8d6139f6565b90505b5b809450505050509695505050505050565b80600260008282546131649190615705565b92505081905550806003600082825461317d9190615705565b9250508190555050565b61319082610f7e565b6131a18161319c613263565b613af4565b6131ab83836135eb565b505050565b6131b8613263565b73ffffffffffffffffffffffffffffffffffffffff168173ffffffffffffffffffffffffffffffffffffffff1614613225576040517f08c379a000000000000000000000000000000000000000000000000000000000815260040161321c9061541a565b60405180910390fd5b61322f8282613b91565b5050565b600061325b836000018373ffffffffffffffffffffffffffffffffffffffff1660001b613c73565b905092915050565b600033905090565b613273611843565b6132b2576040517f08c379a00000000000000000000000000000000000000000000000000000000081526004016132a99061535a565b60405180910390fd5b6000601260006101000a81548160ff0219169083151502179055507f5db9ee0a495bf2e6ff9c91a7834c1ba4fdd244a5e8aa4e537bd38aeae4b073aa6132f6613263565b60405161330391906151ca565b60405180910390a1565b600080848661331c9190615705565b9050600083878661332d919061578c565b613337919061575b565b90506000848387613348919061578c565b613352919061575b565b90506000888461336291906157e6565b9050600060028284866133759190615705565b61337f919061578c565b613389919061575b565b90508095505050505050949350505050565b6133a3611843565b156133e3576040517f08c379a00000000000000000000000000000000000000000000000000000000081526004016133da9061539a565b60405180910390fd5b6001601260006101000a81548160ff0219169083151502179055507f62e78cea01bee320cd4e420270b5ea74000d11b0c9f74754ebdbfc544b05a258613427613263565b60405161343491906151ca565b60405180910390a1565b600061344d8360000183613d7f565b60001c905092915050565b600061346682600001613df3565b9050919050565b61347682610f7e565b61348781613482613263565b613af4565b6134918383613b91565b505050565b6000600960008481526020019081526020016000205490506000613533600785815481106134c7576134c6615a90565b5b906000526020600020906007020160060154600786815481106134ed576134ec615a90565b5b9060005260206000209060070201600601546005546006546007898154811061351957613518615a90565b5b9060005260206000209060070201600601546004546130d9565b61356960006007878154811061354c5761354b615a90565b5b90600052602060002090600702016006015460055460065461330d565b61357391906157e6565b90506000828261358391906157e6565b90508373ffffffffffffffffffffffffffffffffffffffff166108fc829081150290604051600060405180830381858888f193505050501580156135cb573d6000803e3d6000fd5b508160096000878152602001908152602001600020819055505050505050565b6135f58282611e3f565b6136c8576001600d600084815260200190815260200160002060000160008373ffffffffffffffffffffffffffffffffffffffff1673ffffffffffffffffffffffffffffffffffffffff16815260200190815260200160002060006101000a81548160ff02191690831515021790555061366d613263565b73ffffffffffffffffffffffffffffffffffffffff168173ffffffffffffffffffffffffffffffffffffffff16837f2f8788117e7eff1d82e926ec794901d17c78024a50270940304540a733656f0d60405160405180910390a45b5050565b60006136d88383613e04565b613731578260000182908060018154018082558091505060019003906000526020600020016000909190919091505582600001805490508360010160008481526020019081526020016000208190555060019050613736565b600090505b92915050565b60007f5a05180f000000000000000000000000000000000000000000000000000000007bffffffffffffffffffffffffffffffffffffffffffffffffffffffff1916827bffffffffffffffffffffffffffffffffffffffffffffffffffffffff191614806137af57506137ae82613e27565b5b9050919050565b6000806000806002866137c9919061575b565b90506000878960648860326137de91906157e6565b8a6137e9919061578c565b6137f3919061575b565b6137fd919061578c565b613807919061575b565b905060008a8c61381791906157e6565b905082828295509550955050505096509650969350505050565b600080828661384091906157e6565b868661384c919061575b565b613856919061578c565b8561386191906157e6565b90506000848761387191906157e6565b878761387d919061575b565b613887919061578c565b8661389291906157e6565b9050600084866138a291906157e6565b905060028183856138b39190615705565b6138bd919061578c565b6138c7919061575b565b9350505050949350505050565b60008085896138e391906157e6565b89896138ef919061575b565b6138f9919061578c565b8861390491906157e6565b905060008890506000878b61391991906157e6565b90506000600282848661392c9190615705565b613936919061578c565b613940919061575b565b905060008b8d8c61395191906157e6565b8e8961395d91906157e6565b8e8b8b8e61396b919061578c565b613975919061575b565b61397f91906157e6565b613989919061575b565b613993919061578c565b61399d9190615705565b905060008d8c6139ad91906157e6565b9050600060028284886139c09190615705565b6139ca919061578c565b6139d4919061575b565b905080846139e29190615705565b975050505050505050979650505050505050565b600080878987613a0691906157e6565b8a85613a1291906157e6565b8a87878a613a20919061578c565b613a2a919061575b565b613a3491906157e6565b613a3e919061575b565b613a48919061578c565b613a529190615705565b90506000888a89613a6391906157e6565b8b86613a6f91906157e6565b8b88888b613a7d919061578c565b613a87919061575b565b613a9191906157e6565b613a9b919061575b565b613aa5919061578c565b613aaf9190615705565b905060008789613abf91906157e6565b90506002818385613ad09190615705565b613ada919061578c565b613ae4919061575b565b9350505050979650505050505050565b613afe8282611e3f565b613b8d57613b238173ffffffffffffffffffffffffffffffffffffffff166014613ea1565b613b318360001c6020613ea1565b604051602001613b42929190615190565b6040516020818303038152906040526040517f08c379a0000000000000000000000000000000000000000000000000000000008152600401613b8491906152f8565b60405180910390fd5b5050565b613b9b8282611e3f565b15613c6f576000600d600084815260200190815260200160002060000160008373ffffffffffffffffffffffffffffffffffffffff1673ffffffffffffffffffffffffffffffffffffffff16815260200190815260200160002060006101000a81548160ff021916908315150217905550613c14613263565b73ffffffffffffffffffffffffffffffffffffffff168173ffffffffffffffffffffffffffffffffffffffff16837ff6391f5c32d9c69d2a47ea670b442974b53935d1edc7fd64eb21e047a839171b60405160405180910390a45b5050565b60008083600101600084815260200190815260200160002054905060008114613d73576000600182613ca591906157e6565b9050600060018660000180549050613cbd91906157e6565b90506000866000018281548110613cd757613cd6615a90565b5b9060005260206000200154905080876000018481548110613cfb57613cfa615a90565b5b9060005260206000200181905550838760010160008381526020019081526020016000208190555086600001805480613d3757613d36615a61565b5b60019003818190600052602060002001600090559055866001016000878152602001908152602001600020600090556001945050505050613d79565b60009150505b92915050565b600081836000018054905011613dca576040517f08c379a0000000000000000000000000000000000000000000000000000000008152600401613dc19061531a565b60405180910390fd5b826000018281548110613de057613ddf615a90565b5b9060005260206000200154905092915050565b600081600001805490509050919050565b600080836001016000848152602001908152602001600020541415905092915050565b60007f7965db0b000000000000000000000000000000000000000000000000000000007bffffffffffffffffffffffffffffffffffffffffffffffffffffffff1916827bffffffffffffffffffffffffffffffffffffffffffffffffffffffff19161480613e9a5750613e99826140dd565b5b9050919050565b606060006002836002613eb4919061578c565b613ebe9190615705565b67ffffffffffffffff811115613ed757613ed6615abf565b5b6040519080825280601f01601f191660200182016040528015613f095781602001600182028036833780820191505090505b5090507f300000000000000000000000000000000000000000000000000000000000000081600081518110613f4157613f40615a90565b5b60200101907effffffffffffffffffffffffffffffffffffffffffffffffffffffffffffff1916908160001a9053507f780000000000000000000000000000000000000000000000000000000000000081600181518110613fa557613fa4615a90565b5b60200101907effffffffffffffffffffffffffffffffffffffffffffffffffffffffffffff1916908160001a90535060006001846002613fe5919061578c565b613fef9190615705565b90505b600181111561408f577f3031323334353637383961626364656600000000000000000000000000000000600f86166010811061403157614030615a90565b5b1a60f81b82828151811061404857614047615a90565b5b60200101907effffffffffffffffffffffffffffffffffffffffffffffffffffffffffffff1916908160001a905350600485901c945080614088906158fe565b9050613ff2565b50600084146140d3576040517f08c379a00000000000000000000000000000000000000000000000000000000081526004016140ca9061533a565b60405180910390fd5b8091505092915050565b60007f01ffc9a7000000000000000000000000000000000000000000000000000000007bffffffffffffffffffffffffffffffffffffffffffffffffffffffff1916827bffffffffffffffffffffffffffffffffffffffffffffffffffffffff1916149050919050565b82805461415390615928565b90600052602060002090601f01602090048101928261417557600085556141bc565b82601f1061418e57803560ff19168380011785556141bc565b828001600101855582156141bc579182015b828111156141bb5782358255916020019190600101906141a0565b5b5090506141c99190614253565b5090565b8280546141d990615928565b90600052602060002090601f0160209004810192826141fb5760008555614242565b82601f1061421457805160ff1916838001178555614242565b82800160010185558215614242579182015b82811115614241578251825591602001919060010190614226565b5b50905061424f9190614253565b5090565b5b8082111561426c576000816000905550600101614254565b5090565b600061428361427e84615602565b6155dd565b905080838252602082019050828560208602820111156142a6576142a5615af8565b5b60005b858110156142d657816142bc8882614559565b8452602084019350602083019250506001810190506142a9565b5050509392505050565b60006142f36142ee8461562e565b6155dd565b90508281526020810184848401111561430f5761430e615afd565b5b61431a8482856158bc565b509392505050565b60006143356143308461565f565b6155dd565b90508281526020810184848401111561435157614350615afd565b5b61435c8482856158bc565b509392505050565b60008135905061437381615df0565b92915050565b60008135905061438881615e07565b92915050565b60008083601f8401126143a4576143a3615af3565b5b8235905067ffffffffffffffff8111156143c1576143c0615aee565b5b6020830191508360208202830111156143dd576143dc615af8565b5b9250929050565b60008083601f8401126143fa576143f9615af3565b5b8235905067ffffffffffffffff81111561441757614416615aee565b5b60208301915083602082028301111561443357614432615af8565b5b9250929050565b600082601f83011261444f5761444e615af3565b5b813561445f848260208601614270565b91505092915050565b60008135905061447781615e1e565b92915050565b60008135905061448c81615e35565b92915050565b6000813590506144a181615e4c565b92915050565b600082601f8301126144bc576144bb615af3565b5b81356144cc8482602086016142e0565b91505092915050565b60008083601f8401126144eb576144ea615af3565b5b8235905067ffffffffffffffff81111561450857614507615aee565b5b60208301915083600182028301111561452457614523615af8565b5b9250929050565b600082601f8301126145405761453f615af3565b5b8135614550848260208601614322565b91505092915050565b60008135905061456881615e63565b92915050565b60006020828403121561458457614583615b07565b5b600061459284828501614364565b91505092915050565b6000602082840312156145b1576145b0615b07565b5b60006145bf84828501614379565b91505092915050565b600080600080608085870312156145e2576145e1615b07565b5b60006145f087828801614379565b945050602085013567ffffffffffffffff81111561461157614610615b02565b5b61461d8782880161452b565b935050604085013567ffffffffffffffff81111561463e5761463d615b02565b5b61464a8782880161452b565b925050606085013567ffffffffffffffff81111561466b5761466a615b02565b5b6146778782880161452b565b91505092959194509250565b6000806040838503121561469a57614699615b07565b5b60006146a885828601614364565b92505060206146b985828601614364565b9150509250929050565b600080600080600060a086880312156146df576146de615b07565b5b60006146ed88828901614364565b95505060206146fe88828901614364565b945050604086013567ffffffffffffffff81111561471f5761471e615b02565b5b61472b8882890161443a565b935050606086013567ffffffffffffffff81111561474c5761474b615b02565b5b6147588882890161443a565b925050608086013567ffffffffffffffff81111561477957614778615b02565b5b614785888289016144a7565b9150509295509295909350565b600080600080600060a086880312156147ae576147ad615b07565b5b60006147bc88828901614364565b95505060206147cd88828901614364565b94505060406147de88828901614559565b93505060606147ef88828901614559565b925050608086013567ffffffffffffffff8111156148105761480f615b02565b5b61481c888289016144a7565b9150509295509295909350565b60008060006060848603121561484257614841615b07565b5b600061485086828701614364565b935050602084013567ffffffffffffffff81111561487157614870615b02565b5b61487d8682870161443a565b925050604084013567ffffffffffffffff81111561489e5761489d615b02565b5b6148aa8682870161443a565b9150509250925092565b600080600080608085870312156148ce576148cd615b07565b5b60006148dc87828801614364565b945050602085013567ffffffffffffffff8111156148fd576148fc615b02565b5b6149098782880161443a565b935050604085013567ffffffffffffffff81111561492a57614929615b02565b5b6149368782880161443a565b925050606085013567ffffffffffffffff81111561495757614956615b02565b5b614963878288016144a7565b91505092959194509250565b6000806040838503121561498657614985615b07565b5b600061499485828601614364565b92505060206149a585828601614468565b9150509250929050565b600080604083850312156149c6576149c5615b07565b5b60006149d485828601614364565b92505060206149e585828601614559565b9150509250929050565b600080600060608486031215614a0857614a07615b07565b5b6000614a1686828701614364565b9350506020614a2786828701614559565b9250506040614a3886828701614559565b9150509250925092565b60008060008060808587031215614a5c57614a5b615b07565b5b6000614a6a87828801614364565b9450506020614a7b87828801614559565b9350506040614a8c87828801614559565b925050606085013567ffffffffffffffff811115614aad57614aac615b02565b5b614ab9878288016144a7565b91505092959194509250565b60008060008060408587031215614adf57614ade615b07565b5b600085013567ffffffffffffffff811115614afd57614afc615b02565b5b614b098782880161438e565b9450945050602085013567ffffffffffffffff811115614b2c57614b2b615b02565b5b614b38878288016143e4565b925092505092959194509250565b600060208284031215614b5c57614b5b615b07565b5b6000614b6a8482850161447d565b91505092915050565b60008060408385031215614b8a57614b89615b07565b5b6000614b988582860161447d565b9250506020614ba985828601614364565b9150509250929050565b60008060408385031215614bca57614bc9615b07565b5b6000614bd88582860161447d565b9250506020614be985828601614559565b9150509250929050565b600060208284031215614c0957614c08615b07565b5b6000614c1784828501614492565b91505092915050565b600060208284031215614c3657614c35615b07565b5b6000614c4484828501614559565b91505092915050565b60008060408385031215614c6457614c63615b07565b5b6000614c7285828601614559565b9250506020614c8385828601614364565b9150509250929050565b60008060408385031215614ca457614ca3615b07565b5b6000614cb285828601614559565b9250506020614cc385828601614379565b9150509250929050565b60008060408385031215614ce457614ce3615b07565b5b6000614cf285828601614559565b9250506020614d0385828601614468565b9150509250929050565b600080600060408486031215614d2657614d25615b07565b5b6000614d3486828701614559565b935050602084013567ffffffffffffffff811115614d5557614d54615b02565b5b614d61868287016144d5565b92509250509250925092565b60008060408385031215614d8457614d83615b07565b5b6000614d9285828601614559565b9250506020614da385828601614559565b9150509250929050565b600080600060608486031215614dc657614dc5615b07565b5b6000614dd486828701614559565b9350506020614de586828701614559565b9250506040614df686828701614379565b9150509250925092565b6000614e0c8383615172565b60208301905092915050565b614e218161582c565b82525050565b614e308161581a565b82525050565b6000614e41826156b5565b614e4b81856156d8565b9350614e5683615690565b8060005b83811015614e87578151614e6e8882614e00565b9750614e79836156cb565b925050600181019050614e5a565b5085935050505092915050565b614e9d8161583e565b82525050565b614eac8161584a565b82525050565b614ebb816158aa565b82525050565b6000614ecc826156c0565b614ed681856156e9565b9350614ee68185602086016158cb565b614eef81615b0c565b840191505092915050565b6000614f05826156c0565b614f0f81856156fa565b9350614f1f8185602086016158cb565b80840191505092915050565b60008154614f3881615928565b614f4281866156e9565b94506001821660008114614f5d5760018114614f6f57614fa2565b60ff1983168652602086019350614fa2565b614f78856156a0565b60005b83811015614f9a57815481890152600182019150602081019050614f7b565b808801955050505b50505092915050565b6000614fb86022836156e9565b9150614fc382615b1d565b604082019050919050565b6000614fdb6020836156e9565b9150614fe682615b6c565b602082019050919050565b6000614ffe6014836156e9565b915061500982615b95565b602082019050919050565b60006150216026836156e9565b915061502c82615bbe565b604082019050919050565b60006150446010836156e9565b915061504f82615c0d565b602082019050919050565b60006150676003836156e9565b915061507282615c36565b602082019050919050565b600061508a6020836156e9565b915061509582615c5f565b602082019050919050565b60006150ad603b836156e9565b91506150b882615c88565b604082019050919050565b60006150d06039836156e9565b91506150db82615cd7565b604082019050919050565b60006150f36017836156fa565b91506150fe82615d26565b601782019050919050565b60006151166004836156e9565b915061512182615d4f565b602082019050919050565b60006151396011836156fa565b915061514482615d78565b601182019050919050565b600061515c602f836156e9565b915061516782615da1565b604082019050919050565b61517b816158a0565b82525050565b61518a816158a0565b82525050565b600061519b826150e6565b91506151a78285614efa565b91506151b28261512c565b91506151be8284614efa565b91508190509392505050565b60006020820190506151df6000830184614e27565b92915050565b600060e0820190506151fa600083018a614e18565b818103602083015261520c8189614ec1565b905081810360408301526152208188614ec1565b905081810360608301526152348187614ec1565b90506152436080830186614e94565b61525060a0830185615181565b61525d60c0830184615181565b98975050505050505050565b600060208201905081810360008301526152838184614e36565b905092915050565b600060408201905081810360008301526152a58185614e36565b905081810360208301526152b98184614e36565b90509392505050565b60006020820190506152d76000830184614e94565b92915050565b60006020820190506152f26000830184614ea3565b92915050565b600060208201905081810360008301526153128184614ec1565b905092915050565b6000602082019050818103600083015261533381614fab565b9050919050565b6000602082019050818103600083015261535381614fce565b9050919050565b6000602082019050818103600083015261537381614ff1565b9050919050565b6000602082019050818103600083015261539381615014565b9050919050565b600060208201905081810360008301526153b381615037565b9050919050565b600060208201905081810360008301526153d38161507d565b9050919050565b600060208201905081810360008301526153f3816150a0565b9050919050565b60006020820190508181036000830152615413816150c3565b9050919050565b600060208201905081810360008301526154338161514f565b9050919050565b600060208201905061544f6000830184615181565b92915050565b60006101008201905061546b600083018b615181565b615478602083018a614e18565b818103604083015261548a8189614ec1565b9050818103606083015261549e8188614ec1565b905081810360808301526154b28187614ec1565b90506154c160a0830186614e94565b6154ce60c0830185614eb2565b6154db60e0830184614eb2565b9998505050505050505050565b600060a0820190506154fd6000830187615181565b818103602083015261550e8161505a565b905061551d6040830186615181565b818103606083015261552f8185614f2b565b905081810360808301526155438184614f2b565b905095945050505050565b600060a0820190506155636000830187615181565b818103602083015261557481615109565b90506155836040830186615181565b81810360608301526155958185614f2b565b905081810360808301526155a98184614f2b565b905095945050505050565b60006040820190506155c96000830185615181565b6155d66020830184615181565b9392505050565b60006155e76155f8565b90506155f3828261595a565b919050565b6000604051905090565b600067ffffffffffffffff82111561561d5761561c615abf565b5b602082029050602081019050919050565b600067ffffffffffffffff82111561564957615648615abf565b5b61565282615b0c565b9050602081019050919050565b600067ffffffffffffffff82111561567a57615679615abf565b5b61568382615b0c565b9050602081019050919050565b6000819050602082019050919050565b60008190508160005260206000209050919050565b600081519050919050565b600081519050919050565b6000602082019050919050565b600082825260208201905092915050565b600082825260208201905092915050565b600081905092915050565b6000615710826158a0565b915061571b836158a0565b9250827fffffffffffffffffffffffffffffffffffffffffffffffffffffffffffffffff038211156157505761574f6159d4565b5b828201905092915050565b6000615766826158a0565b9150615771836158a0565b92508261578157615780615a03565b5b828204905092915050565b6000615797826158a0565b91506157a2836158a0565b9250817fffffffffffffffffffffffffffffffffffffffffffffffffffffffffffffffff04831182151516156157db576157da6159d4565b5b828202905092915050565b60006157f1826158a0565b91506157fc836158a0565b92508282101561580f5761580e6159d4565b5b828203905092915050565b600061582582615880565b9050919050565b600061583782615880565b9050919050565b60008115159050919050565b6000819050919050565b60007fffffffff0000000000000000000000000000000000000000000000000000000082169050919050565b600073ffffffffffffffffffffffffffffffffffffffff82169050919050565b6000819050919050565b60006158b5826158a0565b9050919050565b82818337600083830152505050565b60005b838110156158e95780820151818401526020810190506158ce565b838111156158f8576000848401525b50505050565b6000615909826158a0565b9150600082141561591d5761591c6159d4565b5b600182039050919050565b6000600282049050600182168061594057607f821691505b6020821081141561595457615953615a32565b5b50919050565b61596382615b0c565b810181811067ffffffffffffffff8211171561598257615981615abf565b5b80604052505050565b6000615996826158a0565b91507fffffffffffffffffffffffffffffffffffffffffffffffffffffffffffffffff8214156159c9576159c86159d4565b5b600182019050919050565b7f4e487b7100000000000000000000000000000000000000000000000000000000600052601160045260246000fd5b7f4e487b7100000000000000000000000000000000000000000000000000000000600052601260045260246000fd5b7f4e487b7100000000000000000000000000000000000000000000000000000000600052602260045260246000fd5b7f4e487b7100000000000000000000000000000000000000000000000000000000600052603160045260246000fd5b7f4e487b7100000000000000000000000000000000000000000000000000000000600052603260045260246000fd5b7f4e487b7100000000000000000000000000000000000000000000000000000000600052604160045260246000fd5b600080fd5b600080fd5b600080fd5b600080fd5b600080fd5b600080fd5b6000601f19601f8301169050919050565b7f456e756d657261626c655365743a20696e646578206f7574206f6620626f756e60008201527f6473000000000000000000000000000000000000000000000000000000000000602082015250565b7f537472696e67733a20686578206c656e67746820696e73756666696369656e74600082015250565b7f5061757361626c653a206e6f7420706175736564000000000000000000000000600082015250565b7f4f776e61626c653a206e6577206f776e657220697320746865207a65726f206160008201527f6464726573730000000000000000000000000000000000000000000000000000602082015250565b7f5061757361626c653a2070617573656400000000000000000000000000000000600082015250565b7f6275790000000000000000000000000000000000000000000000000000000000600082015250565b7f4f776e61626c653a2063616c6c6572206973206e6f7420746865206f776e6572600082015250565b7f455243313135355072657365744d696e7465725061757365723a206d7573742060008201527f686176652070617573657220726f6c6520746f20756e70617573650000000000602082015250565b7f455243313135355072657365744d696e7465725061757365723a206d7573742060008201527f686176652070617573657220726f6c6520746f20706175736500000000000000602082015250565b7f416363657373436f6e74726f6c3a206163636f756e7420000000000000000000600082015250565b7f73656c6c00000000000000000000000000000000000000000000000000000000600082015250565b7f206973206d697373696e6720726f6c6520000000000000000000000000000000600082015250565b7f416363657373436f6e74726f6c3a2063616e206f6e6c792072656e6f756e636560008201527f20726f6c657320666f722073656c660000000000000000000000000000000000602082015250565b615df98161581a565b8114615e0457600080fd5b50565b615e108161582c565b8114615e1b57600080fd5b50565b615e278161583e565b8114615e3257600080fd5b50565b615e3e8161584a565b8114615e4957600080fd5b50565b615e5581615854565b8114615e6057600080fd5b50565b615e6c816158a0565b8114615e7757600080fd5b5056fea264697066735822122010d0bbf9c65632e851841c1ddfca154fd7c437dc1233ca4a099eaf9ee026144c64736f6c63430008060033",
  "immutableReferences": {},
  "source": "// SPDX-License-Identifier: MIT\npragma solidity ^0.8.0;\n\nimport \"./creatortokenownership.sol\";\n\ncontract CreatorTokenExchange is CreatorTokenOwnership {\n\n\tconstructor(string memory uri) CreatorTokenOwnership(uri) { }\n\n\t// Event that fires when a new transaction occurs\n\tevent NewTransaction(address indexed account, uint amount, string transactionType, uint tokenId, string name, string symbol);\n\n\t// Allow user to buy a given CreatorToken from the platform\n\tfunction buyCreatorToken(uint _tokenId, uint _amount) external payable {\n\t\t// Calculate proceedsRequired (inclusive of fee) and fee in isolation\n\t\tuint proceedsRequired = _buyProceeds(_tokenId, _amount);\n\t\t// Make sure that user sends proceedsRequired wei to cover the cost of _amount tokens, plus the platform fee\n\t\trequire(msg.value == proceedsRequired);//== 2000000000000000000);//\n\t\t// Update platform fee total\n\t\t_platformFeeUpdater(proceedsRequired/(100+platformFee));\n\t\t// Mint _amount tokens at the user's address (note this increases token amount outstanding)\n\t\tmint(msg.sender, _tokenId, _amount, \"\");\n\t\t// Emit new transaction event\n\t\temit NewTransaction(msg.sender, _amount, \"buy\", _tokenId, creatorTokens[_tokenId].name, creatorTokens[_tokenId].symbol);\n\t\t// Check if new outstanding amount of token is greater than maxSupply\n\t\tif (creatorTokens[_tokenId].outstanding > creatorTokens[_tokenId].maxSupply) {\n\t\t\t// Update maxSupply\n\t\t\tcreatorTokens[_tokenId].maxSupply = creatorTokens[_tokenId].outstanding;\n\t\t\t// Call _payout to transfer excess liquidity\n\t\t\t_payCreator(_tokenId, creatorTokens[_tokenId].creatorAddress);\n\t\t}\n\t}\n\n\t// Calculate proceedsRequired to for a given buy transaction\n\tfunction _buyProceeds(uint _tokenId, uint _amount) public view returns (uint256) {\n\t\t// Initialize proceeds required;\n\t\tuint proceedsRequired = 0;\n\t\t// Initialize pre-transaction supply\n\t\tuint startingSupply = creatorTokens[_tokenId].outstanding;\n\t\t// Compute post-transaction supply\n\t\tuint endSupply = startingSupply + _amount;\n\t\t// Compute buy proceeds\n\t\t// Check if endSupply <= maxSupply\n\t\tif (endSupply < creatorTokens[_tokenId].maxSupply) {\n\t\t\t// Scenario in which entire transaction takes place below maxSupply\n\t\t\t// Just call s(x)\n\t\t\tproceedsRequired = _saleFunction(startingSupply, _amount, mNumerator, mDenominator, creatorTokens[_tokenId].maxSupply, profitMargin);\n\t\t} else if (startingSupply < creatorTokens[_tokenId].maxSupply){\n\t\t\t// Scenario in which supply begins below maxSupply and ends above pre-transaction maxSupply\n\t\t\t// Use s(x) from startingSupply to maxSupply\n\t\t\tproceedsRequired = _saleFunction(creatorTokens[_tokenId].maxSupply, creatorTokens[_tokenId].maxSupply - startingSupply, mNumerator, mDenominator, creatorTokens[_tokenId].maxSupply, profitMargin);\n\t\t\t// Use b(x) from maxSupply to endSupply\n\t\t\tproceedsRequired += _buyFunction(creatorTokens[_tokenId].maxSupply, _amount - (creatorTokens[_tokenId].maxSupply - startingSupply), mNumerator, mDenominator);\n\t\t} else {\n\t\t\t// Scenario in which transaction begins at maxSupply\n\t\t\t// Just call b(x)\n\t\t\tproceedsRequired = _buyFunction(startingSupply, _amount, mNumerator, mDenominator);\n\t\t}\n\t\t// Add platform fee to obtain total transaction proceeds required\n\t\tproceedsRequired = proceedsRequired + platformFee/100; //proceedsRequired*\n\t\t// Return total proceeds required\n\t\treturn proceedsRequired;\n\t}\n\t\n\t// Calculate area under buy price function\n\tfunction _buyFunction(uint _startingSupply, uint _amount, uint _mNumerator, uint _mDenominator) private pure returns (uint256) {\n\t\t// b(x) = m*x\n\t\tuint endSupply = _startingSupply + _amount;\n\t\tuint base1 = _mNumerator*_startingSupply/_mDenominator;\n\t\tuint base2 = _mNumerator*endSupply/_mDenominator;\n\t\tuint height = endSupply-_startingSupply;\n\t\tuint area = (base1 + base2) * height / 2;\n\t\treturn area;\n\t}\n\n\t// Allow user to sell a given CreatorToken back to the platform\n\tfunction sellCreatorToken(uint _tokenId, uint _amount, address payable _seller) external payable {\n\t\t// Require that user calling function is selling own tokens\n\t\trequire(_seller == msg.sender);\n\t\t// Initialize proceeds required\n\t\tuint proceedsRequired = 0;\n\t\t// Initialize pre-transaction supply\n\t\tuint startingSupply = creatorTokens[_tokenId].outstanding;\n\t\t// Compute sale proceeds required\n\t\tproceedsRequired = _saleFunction(startingSupply, _amount, mNumerator, mDenominator, creatorTokens[_tokenId].maxSupply, profitMargin);\n\t\t// Compute fee\n\t\tuint fee = proceedsRequired*platformFee/100;\n\t\t// Add platform fee to obtain real proceedsRequired value\n\t\tproceedsRequired -= fee;\n\t\t// Burn _amount tokens from user's address (note this decreases token amount outstanding)\n\t\tburn(_seller, _tokenId, _amount);\n\t\t// Send user proceedsRequired wei (less the platform fee) in exchange for the burned tokens\n\t\t_seller.transfer(proceedsRequired); //1500000000000000000); //\n\t\t// Update platform fee total\n\t\t_platformFeeUpdater(fee);\n\t\t// Emit new transaction event\n\t\temit NewTransaction(msg.sender, _amount, \"sell\", _tokenId, creatorTokens[_tokenId].name, creatorTokens[_tokenId].symbol);\n\t}\n\n\t// Calculate area under sale price function\n\tfunction _saleFunction(uint _startingSupply, uint _amount, uint _mNumerator, uint _mDenominator, uint _maxSupply, uint _profitMargin) private pure returns (uint256) {\n\t\t// Calculate breakpoint and endSupply\n\t\t(uint a, uint b, uint endSupply) = _breakpoint(_startingSupply, _amount, _mNumerator, _mDenominator, _maxSupply, _profitMargin);\n\t\t// Initialize area under curve\n\t\tuint area = 0;\n\t\t// Check where _startingSupply is relative to the breakpoint\n\t\tif (_startingSupply < a) {\n\t\t\t// Just need trapezoidal area of partial entirely left of the breakpoint\n\t\t\tarea = _leftArea(a, b, _startingSupply, endSupply);\n\t\t} else if (endSupply < a) {\n\t\t\t// Scenario in which _startingSupply >= a, and endSupply < a\n\t\t\t// There, need trapezoidal area of components both to right and left of breakpoint\n\t\t\tarea = _bothArea(a, b, _startingSupply, endSupply, _mNumerator, _mDenominator, _maxSupply);\n\t\t} else {\n\t\t\t// Scenario in which entire sale occurs to right of breakpoint\n\t\t\t// Just need trapezoidal area of partial entirely right of the breakpoint\n\t\t\tarea = _rightArea(a, b, _startingSupply, endSupply, _mNumerator, _mDenominator, _maxSupply);\n\t\t}\n\t\treturn area;\n\t}\n\n\t// Calculate breakpoint and other key inputs into _saleFunction\n\tfunction _breakpoint(uint _startingSupply, uint _amount, uint _mNumerator, uint _mDenominator, uint _maxSupply, uint _profitMargin) private pure returns (uint, uint, uint) {\n\t\t// Define breakpoint (a,b) chosen s.t. area under sale price function is (1-profitMargin) times area under buy price function\n\t\tuint a = _maxSupply/2;\n\t\tuint b = _maxSupply*(50-_profitMargin)/100*_mNumerator/_mDenominator;\n\t\tuint endSupply = _startingSupply - _amount;\n\t\treturn (a, b, endSupply);\n\t}\n\n\t// _saleFunction scenario in which entire transaction occurs left of breakpoint\n\tfunction _leftArea(uint _a, uint _b, uint _startingSupply, uint _endSupply) private pure returns (uint256) {\n\t\t\t//uint base1 = ((_b/_a)*(_a-_endSupply)+_b);\n\t\t\t//uint base1 = ((_b/_a)*(_endSupply-_a)+_b);\n\t\t\tuint base1 = (_b-(_b/_a)*(_a-_endSupply));\n\t\t\t//uint base2 = ((_b/_a)*(_a-_startingSupply)+_b);\n\t\t\t//uint base2 = ((_b/_a)*(_startingSupply-_a)+_b);\n\t\t\tuint base2 = (_b-(_b/_a)*(_a-_startingSupply));\n\t\t\tuint height = _startingSupply-_endSupply;\n\t\t\treturn (base1 + base2) * height / 2;\n\t}\n\n\t// _saleFunction scenario in which transaction crosses breakpoint\n\tfunction _bothArea(uint _a, uint _b, uint _startingSupply, uint _endSupply, uint _mNumerator, uint _mDenominator, uint _maxSupply) private pure returns (uint256) {\n\t\t//uint leftBase1 = ((_b/_a)*(_a-_endSupply)+_b);\n\t\t//uint leftBase1 = ((_b/_a)*(_endSupply-_a)+_b);\n\t\tuint leftBase1 = (_b-(_b/_a)*(_a-_endSupply));\n\t\tuint sharedBase = _b;\n\t\tuint leftHeight = _a-_endSupply;\n\t\tuint leftArea = (leftBase1 + sharedBase) * leftHeight / 2;\n\t\tuint rightBase2 = (_mNumerator*_maxSupply/_mDenominator-_b)/(_maxSupply-_a)*(_startingSupply-_a)+_b;\n\t\tuint rightHeight = _startingSupply-_a;\n\t\tuint rightArea = (sharedBase + rightBase2) * rightHeight / 2;\n\t\treturn leftArea + rightArea;\n\t}\n\n\t// _saleFunction scneario in which entire transaction occurs right of breakpoint\n\tfunction _rightArea(uint _a, uint _b, uint _startingSupply, uint _endSupply, uint _mNumerator, uint _mDenominator, uint _maxSupply) private pure returns (uint256) {\n\t\tuint base1 = (((_mNumerator*_maxSupply/_mDenominator-_b)/(_maxSupply-_a))*(_endSupply-_a)+_b);\n\t\tuint base2 = (((_mNumerator*_maxSupply/_mDenominator-_b)/(_maxSupply-_a))*(_startingSupply-_a)+_b);\n\t\tuint height = _startingSupply-_endSupply;\n\t\treturn (base1 + base2) * height / 2;\n\t}\n\n\t// Transfer excess liquidity (triggered only when a CreatorToken hits a new maxSupply)\n\tfunction _payCreator(uint _tokenId, address payable _creatorAddress) internal {\n\t\t// Create a variable showing excess liquidity that has already been transferred out of this token's liquidity pool\n\t\tuint alreadyTransferred = tokenValueTransferred[_tokenId];\n\t\t// Initialize totalProfit\n\t\tuint totalProfit = 0;\n\t\t// Calculate totalProfit (area between b(x) and s(x) from 0 to maxSupply)\n\t\ttotalProfit = _buyFunction(0, creatorTokens[_tokenId].maxSupply, mNumerator, mDenominator) - _saleFunction(creatorTokens[_tokenId].maxSupply, creatorTokens[_tokenId].maxSupply, mNumerator, mDenominator, creatorTokens[_tokenId].maxSupply, profitMargin);\n\t\t// Calculate creator's new profit created from new excess liquidity created\n\t\tuint newProfit = totalProfit - alreadyTransferred; //400000000000000000; // \n\t\t// Transfer newProfit wei to creator\n\t\t_creatorAddress.transfer(newProfit);\n\t\t// Update amount of value transferred to creator\n\t\ttokenValueTransferred[_tokenId] = totalProfit;\n\t}\n\n\t// Update platform fees tracker\n\tfunction _platformFeeUpdater(uint _fee) internal {\n\t\ttotalPlatformFees += _fee;\n\t\tplatformFeesOwed += _fee;\n\t}\n}\n",
  "sourcePath": "/Users/kamilalizaisadik/DeFi/Dynamic Automated Market Maker/damm_solidity/contracts/CreatorTokenExchange.sol",
  "compiler": {
    "name": "solc",
    "version": "0.8.6+commit.11564f7e.Emscripten.clang"
  },
  "schemaVersion": "3.4.1",
  "updatedAt": "2021-07-02T22:08:00.910Z",
  "devdoc": {
    "kind": "dev",
    "methods": {
      "getRoleAdmin(bytes32)": {
        "details": "Returns the admin role that controls `role`. See {grantRole} and {revokeRole}. To change a role's admin, use {_setRoleAdmin}."
      },
      "getRoleMember(bytes32,uint256)": {
        "details": "Returns one of the accounts that have `role`. `index` must be a value between 0 and {getRoleMemberCount}, non-inclusive. Role bearers are not sorted in any particular way, and their ordering may change at any point. WARNING: When using {getRoleMember} and {getRoleMemberCount}, make sure you perform all queries on the same block. See the following https://forum.openzeppelin.com/t/iterating-over-elements-on-enumerableset-in-openzeppelin-contracts/2296[forum post] for more information."
      },
      "getRoleMemberCount(bytes32)": {
        "details": "Returns the number of accounts that have `role`. Can be used together with {getRoleMember} to enumerate all bearers of a role."
      },
      "grantRole(bytes32,address)": {
        "details": "Overload {grantRole} to track enumerable memberships"
      },
      "hasRole(bytes32,address)": {
        "details": "Returns `true` if `account` has been granted `role`."
      },
      "owner()": {
        "details": "Returns the address of the current owner."
      },
      "pause()": {
        "details": "Pauses all token transfers. See {ERC1155Pausable} and {Pausable-_pause}. Requirements: - the caller must have the `PAUSER_ROLE`."
      },
      "paused()": {
        "details": "Returns true if the contract is paused, and false otherwise."
      },
      "renounceOwnership()": {
        "details": "Leaves the contract without owner. It will not be possible to call `onlyOwner` functions anymore. Can only be called by the current owner. NOTE: Renouncing ownership will leave the contract without an owner, thereby removing any functionality that is only available to the owner."
      },
      "renounceRole(bytes32,address)": {
        "details": "Overload {renounceRole} to track enumerable memberships"
      },
      "revokeRole(bytes32,address)": {
        "details": "Overload {revokeRole} to track enumerable memberships"
      },
      "supportsInterface(bytes4)": {
        "details": "See {IERC165-supportsInterface}."
      },
      "transferOwnership(address)": {
        "details": "Transfers ownership of the contract to a new account (`newOwner`). Can only be called by the current owner."
      },
      "unpause()": {
        "details": "Unpauses all token transfers. See {ERC1155Pausable} and {Pausable-_unpause}. Requirements: - the caller must have the `PAUSER_ROLE`."
      },
      "uri(uint256)": {
        "details": "See {IERC1155MetadataURI-uri}. This implementation returns the same URI for *all* token types. It relies on the token type ID substitution mechanism https://eips.ethereum.org/EIPS/eip-1155#metadata[defined in the EIP]. Clients calling this function must replace the `\\{id\\}` substring with the actual token type ID."
      }
    },
    "version": 1
  },
  "userdoc": {
    "kind": "user",
    "methods": {},
    "version": 1
  }
}