{
  "contractName": "CreatorTokenFactory",
  "abi": [
    {
      "anonymous": false,
      "inputs": [
        {
          "indexed": false,
          "internalType": "uint256",
          "name": "tokenId",
          "type": "uint256"
        },
        {
          "indexed": false,
          "internalType": "string",
          "name": "name",
          "type": "string"
        },
        {
          "indexed": false,
          "internalType": "string",
          "name": "symbol",
          "type": "string"
        }
      ],
      "name": "NewCreatorToken",
      "type": "event"
    },
    {
      "anonymous": false,
      "inputs": [
        {
          "indexed": true,
          "internalType": "address",
          "name": "previousOwner",
          "type": "address"
        },
        {
          "indexed": true,
          "internalType": "address",
          "name": "newOwner",
          "type": "address"
        }
      ],
      "name": "OwnershipTransferred",
      "type": "event"
    },
    {
      "inputs": [
        {
          "internalType": "uint256",
          "name": "",
          "type": "uint256"
        }
      ],
      "name": "creatorTokens",
      "outputs": [
        {
          "internalType": "address payable",
          "name": "creatorAddress",
          "type": "address"
        },
        {
          "internalType": "string",
          "name": "name",
          "type": "string"
        },
        {
          "internalType": "string",
          "name": "symbol",
          "type": "string"
        },
        {
          "internalType": "string",
          "name": "description",
          "type": "string"
        },
        {
          "internalType": "bool",
          "name": "verified",
          "type": "bool"
        },
        {
          "internalType": "uint256",
          "name": "outstanding",
          "type": "uint256"
        },
        {
          "internalType": "uint256",
          "name": "maxSupply",
          "type": "uint256"
        }
      ],
      "stateMutability": "view",
      "type": "function"
    },
    {
      "inputs": [],
      "name": "owner",
      "outputs": [
        {
          "internalType": "address",
          "name": "",
          "type": "address"
        }
      ],
      "stateMutability": "view",
      "type": "function"
    },
    {
      "inputs": [],
      "name": "renounceOwnership",
      "outputs": [],
      "stateMutability": "nonpayable",
      "type": "function"
    },
    {
      "inputs": [
        {
          "internalType": "uint256",
          "name": "",
          "type": "uint256"
        }
      ],
      "name": "tokenToCreator",
      "outputs": [
        {
          "internalType": "address",
          "name": "",
          "type": "address"
        }
      ],
      "stateMutability": "view",
      "type": "function"
    },
    {
      "inputs": [
        {
          "internalType": "address",
          "name": "newOwner",
          "type": "address"
        }
      ],
      "name": "transferOwnership",
      "outputs": [],
      "stateMutability": "nonpayable",
      "type": "function"
    },
    {
      "inputs": [
        {
          "internalType": "address payable",
          "name": "_creatorAddress",
          "type": "address"
        },
        {
          "internalType": "string",
          "name": "_name",
          "type": "string"
        },
        {
          "internalType": "string",
          "name": "_symbol",
          "type": "string"
        },
        {
          "internalType": "string",
          "name": "_description",
          "type": "string"
        }
      ],
      "name": "createCreatorToken",
      "outputs": [],
      "stateMutability": "nonpayable",
      "type": "function"
    }
  ],
  "bytecode": "0x6080604052600180556000600255600060035560146004556009600555620186a060065560065460055461003391906100fe565b60075534801561004257600080fd5b5060006100536100f660201b60201c565b9050806000806101000a81548173ffffffffffffffffffffffffffffffffffffffff021916908373ffffffffffffffffffffffffffffffffffffffff1602179055508073ffffffffffffffffffffffffffffffffffffffff16600073ffffffffffffffffffffffffffffffffffffffff167f8be0079c531659141344cd1fd0a4f28419497f9722a3daafe3b4186f6b6457e060405160405180910390a350610168565b600033905090565b60006101098261012f565b91506101148361012f565b92508261012457610123610139565b5b828204905092915050565b6000819050919050565b7f4e487b7100000000000000000000000000000000000000000000000000000000600052601260045260246000fd5b61102b806101776000396000f3fe608060405234801561001057600080fd5b50600436106100625760003560e01c806318892ae814610067578063715018a6146100975780638da5cb5b146100a1578063ce901d8a146100bf578063d56b72c7146100f5578063f2fde38b14610111575b600080fd5b610081600480360381019061007c9190610ad5565b61012d565b60405161008e9190610bbd565b60405180910390f35b61009f610160565b005b6100a961029a565b6040516100b69190610bbd565b60405180910390f35b6100d960048036038101906100d49190610ad5565b6102c3565b6040516100ec9796959493929190610bd8565b60405180910390f35b61010f600480360381019061010a9190610a1a565b6104da565b005b61012b600480360381019061012691906109ed565b6106ea565b005b60096020528060005260406000206000915054906101000a900473ffffffffffffffffffffffffffffffffffffffff1681565b610168610893565b73ffffffffffffffffffffffffffffffffffffffff1661018661029a565b73ffffffffffffffffffffffffffffffffffffffff16146101dc576040517f08c379a00000000000000000000000000000000000000000000000000000000081526004016101d390610c7c565b60405180910390fd5b600073ffffffffffffffffffffffffffffffffffffffff1660008054906101000a900473ffffffffffffffffffffffffffffffffffffffff1673ffffffffffffffffffffffffffffffffffffffff167f8be0079c531659141344cd1fd0a4f28419497f9722a3daafe3b4186f6b6457e060405160405180910390a360008060006101000a81548173ffffffffffffffffffffffffffffffffffffffff021916908373ffffffffffffffffffffffffffffffffffffffff160217905550565b60008060009054906101000a900473ffffffffffffffffffffffffffffffffffffffff16905090565b600881815481106102d357600080fd5b90600052602060002090600702016000915090508060000160009054906101000a900473ffffffffffffffffffffffffffffffffffffffff169080600101805461031c90610e23565b80601f016020809104026020016040519081016040528092919081815260200182805461034890610e23565b80156103955780601f1061036a57610100808354040283529160200191610395565b820191906000526020600020905b81548152906001019060200180831161037857829003601f168201915b5050505050908060020180546103aa90610e23565b80601f01602080910402602001604051908101604052809291908181526020018280546103d690610e23565b80156104235780601f106103f857610100808354040283529160200191610423565b820191906000526020600020905b81548152906001019060200180831161040657829003601f168201915b50505050509080600301805461043890610e23565b80601f016020809104026020016040519081016040528092919081815260200182805461046490610e23565b80156104b15780601f10610486576101008083540402835291602001916104b1565b820191906000526020600020905b81548152906001019060200180831161049457829003601f168201915b5050505050908060040160009054906101000a900460ff16908060050154908060060154905087565b60086040518060e001604052808673ffffffffffffffffffffffffffffffffffffffff168152602001858152602001848152602001838152602001600015158152602001600081526020016000815250908060018154018082558091505060019003906000526020600020906007020160009091909190915060008201518160000160006101000a81548173ffffffffffffffffffffffffffffffffffffffff021916908373ffffffffffffffffffffffffffffffffffffffff16021790555060208201518160010190805190602001906105b692919061089b565b5060408201518160020190805190602001906105d392919061089b565b5060608201518160030190805190602001906105f092919061089b565b5060808201518160040160006101000a81548160ff02191690831515021790555060a0820151816005015560c0820151816006015550506000600160088054905061063b9190610d53565b9050846009600083815260200190815260200160002060006101000a81548173ffffffffffffffffffffffffffffffffffffffff021916908373ffffffffffffffffffffffffffffffffffffffff1602179055506000600a6000838152602001908152602001600020819055507f01e9d0e2208938b5d6a39db5244c8dca0b77eb386bf3705fe751005e7e0ca16c8185856040516106db93929190610c9c565b60405180910390a15050505050565b6106f2610893565b73ffffffffffffffffffffffffffffffffffffffff1661071061029a565b73ffffffffffffffffffffffffffffffffffffffff1614610766576040517f08c379a000000000000000000000000000000000000000000000000000000000815260040161075d90610c7c565b60405180910390fd5b600073ffffffffffffffffffffffffffffffffffffffff168173ffffffffffffffffffffffffffffffffffffffff1614156107d6576040517f08c379a00000000000000000000000000000000000000000000000000000000081526004016107cd90610c5c565b60405180910390fd5b8073ffffffffffffffffffffffffffffffffffffffff1660008054906101000a900473ffffffffffffffffffffffffffffffffffffffff1673ffffffffffffffffffffffffffffffffffffffff167f8be0079c531659141344cd1fd0a4f28419497f9722a3daafe3b4186f6b6457e060405160405180910390a3806000806101000a81548173ffffffffffffffffffffffffffffffffffffffff021916908373ffffffffffffffffffffffffffffffffffffffff16021790555050565b600033905090565b8280546108a790610e23565b90600052602060002090601f0160209004810192826108c95760008555610910565b82601f106108e257805160ff1916838001178555610910565b82800160010185558215610910579182015b8281111561090f5782518255916020019190600101906108f4565b5b50905061091d9190610921565b5090565b5b8082111561093a576000816000905550600101610922565b5090565b600061095161094c84610d06565b610ce1565b90508281526020810184848401111561096d5761096c610f18565b5b610978848285610de1565b509392505050565b60008135905061098f81610fb0565b92915050565b6000813590506109a481610fc7565b92915050565b600082601f8301126109bf576109be610f13565b5b81356109cf84826020860161093e565b91505092915050565b6000813590506109e781610fde565b92915050565b600060208284031215610a0357610a02610f22565b5b6000610a1184828501610980565b91505092915050565b60008060008060808587031215610a3457610a33610f22565b5b6000610a4287828801610995565b945050602085013567ffffffffffffffff811115610a6357610a62610f1d565b5b610a6f878288016109aa565b935050604085013567ffffffffffffffff811115610a9057610a8f610f1d565b5b610a9c878288016109aa565b925050606085013567ffffffffffffffff811115610abd57610abc610f1d565b5b610ac9878288016109aa565b91505092959194509250565b600060208284031215610aeb57610aea610f22565b5b6000610af9848285016109d8565b91505092915050565b610b0b81610d99565b82525050565b610b1a81610d87565b82525050565b610b2981610dab565b82525050565b6000610b3a82610d37565b610b448185610d42565b9350610b54818560208601610df0565b610b5d81610f27565b840191505092915050565b6000610b75602683610d42565b9150610b8082610f38565b604082019050919050565b6000610b98602083610d42565b9150610ba382610f87565b602082019050919050565b610bb781610dd7565b82525050565b6000602082019050610bd26000830184610b11565b92915050565b600060e082019050610bed600083018a610b02565b8181036020830152610bff8189610b2f565b90508181036040830152610c138188610b2f565b90508181036060830152610c278187610b2f565b9050610c366080830186610b20565b610c4360a0830185610bae565b610c5060c0830184610bae565b98975050505050505050565b60006020820190508181036000830152610c7581610b68565b9050919050565b60006020820190508181036000830152610c9581610b8b565b9050919050565b6000606082019050610cb16000830186610bae565b8181036020830152610cc38185610b2f565b90508181036040830152610cd78184610b2f565b9050949350505050565b6000610ceb610cfc565b9050610cf78282610e55565b919050565b6000604051905090565b600067ffffffffffffffff821115610d2157610d20610ee4565b5b610d2a82610f27565b9050602081019050919050565b600081519050919050565b600082825260208201905092915050565b6000610d5e82610dd7565b9150610d6983610dd7565b925082821015610d7c57610d7b610e86565b5b828203905092915050565b6000610d9282610db7565b9050919050565b6000610da482610db7565b9050919050565b60008115159050919050565b600073ffffffffffffffffffffffffffffffffffffffff82169050919050565b6000819050919050565b82818337600083830152505050565b60005b83811015610e0e578082015181840152602081019050610df3565b83811115610e1d576000848401525b50505050565b60006002820490506001821680610e3b57607f821691505b60208210811415610e4f57610e4e610eb5565b5b50919050565b610e5e82610f27565b810181811067ffffffffffffffff82111715610e7d57610e7c610ee4565b5b80604052505050565b7f4e487b7100000000000000000000000000000000000000000000000000000000600052601160045260246000fd5b7f4e487b7100000000000000000000000000000000000000000000000000000000600052602260045260246000fd5b7f4e487b7100000000000000000000000000000000000000000000000000000000600052604160045260246000fd5b600080fd5b600080fd5b600080fd5b600080fd5b6000601f19601f8301169050919050565b7f4f776e61626c653a206e6577206f776e657220697320746865207a65726f206160008201527f6464726573730000000000000000000000000000000000000000000000000000602082015250565b7f4f776e61626c653a2063616c6c6572206973206e6f7420746865206f776e6572600082015250565b610fb981610d87565b8114610fc457600080fd5b50565b610fd081610d99565b8114610fdb57600080fd5b50565b610fe781610dd7565b8114610ff257600080fd5b5056fea26469706673582212207530686dcf5db1085a4e078a386903c0612a131d097387189350e69c18f4d42a64736f6c63430008050033",
  "immutableReferences": {},
  "source": "// SPDX-License-Identifier: MIT\npragma solidity ^0.8.0;\n\nimport \"@openzeppelin/contracts/access/Ownable.sol\";\n\ncontract CreatorTokenFactory is Ownable {\n\n\t// Event that fires whenever a new CreatorToken is created\n\tevent NewCreatorToken(uint tokenId, string name, string symbol);\n\n\t// Pay-on-top style platform fee on each transaction\n\tuint platformFee = 1; // e.g., if platformFee == 1/, the platform earns 1% of each transaction's value\n\t// Variable to track total platform fees generated\n\tuint totalPlatformFees = 0 ether;\n\t// Variable to track platform fees owed, but not yet paid to owner\n\tuint platformFeesOwed = 0 ether;\n\n\t// Profit margin (percentage of total revenue) directed toward creator\n\tuint profitMargin = 20;\n\n\t// Slope of buy price function\n\tuint m_numerator = 9;\n\tuint m_denominator = 100000;\n\tuint m = m_numerator/m_denominator;\n\n\tstruct CreatorToken {\n\t\taddress payable creatorAddress;\n\t\tstring name;\n\t\tstring symbol;\n\t\tstring description;\n\t\tbool verified;\n\t\tuint outstanding;\n\t\tuint maxSupply;\n\t}\n\n\t// Array of all CreatorTokens\n\tCreatorToken[] public creatorTokens;\n\n\t// Mapping from tokenId to creatorAddress\n\tmapping (uint => address) public tokenToCreator;\n\t// Mapping from tokenId to token value transferred (to creator/platform)\n\tmapping (uint => uint) internal tokenValueTransferred;\n\t// Mapping from tokenId to mapping from address to quantity of tokenId held\n\tmapping(uint256 => mapping(address => uint256)) internal tokenHoldership;\n\t// Mapping from account to operator approvals\n\tmapping(address => mapping(address => bool)) internal approvals;\n\n\t// Create a new CreatorToken\n\tfunction createCreatorToken(address payable _creatorAddress, string memory _name, string memory _symbol, string memory _description) public {\n\t\t// Add token to creatorTokens array\n\t\tcreatorTokens.push(CreatorToken(_creatorAddress, _name, _symbol, _description, false, 0, 0));\n\t\t// Create token id\n\t\tuint id = creatorTokens.length - 1;\n\t\t// Map from token id to creator's address\n\t\ttokenToCreator[id] = _creatorAddress;\n\t\t// Map from token id to amount of value transferred (0 at inception)\n\t\ttokenValueTransferred[id] = 0;\n\t\t// Emit token creation event\n\t\temit NewCreatorToken(id, _name, _symbol);\n\t}\n\n\n}",
  "sourcePath": "/Users/kamilalizaisadik/DeFi/Dynamic Automated Market Maker/damm_solidity/contracts/creatortokenfactory.sol",
  "compiler": {
    "name": "solc",
    "version": "0.8.5+commit.a4f2e591.Emscripten.clang"
  },
  "schemaVersion": "3.4.1",
  "updatedAt": "2021-06-16T00:49:20.566Z",
  "devdoc": {
    "kind": "dev",
    "methods": {
      "owner()": {
        "details": "Returns the address of the current owner."
      },
      "renounceOwnership()": {
        "details": "Leaves the contract without owner. It will not be possible to call `onlyOwner` functions anymore. Can only be called by the current owner. NOTE: Renouncing ownership will leave the contract without an owner, thereby removing any functionality that is only available to the owner."
      },
      "transferOwnership(address)": {
        "details": "Transfers ownership of the contract to a new account (`newOwner`). Can only be called by the current owner."
      }
    },
    "version": 1
  },
  "userdoc": {
    "kind": "user",
    "methods": {},
    "version": 1
  }
}