{
  "contractName": "CreatorTokenComputation",
  "abi": [
    {
      "inputs": [
        {
          "internalType": "string",
          "name": "uri",
          "type": "string"
        }
      ],
      "stateMutability": "nonpayable",
      "type": "constructor"
    },
    {
      "anonymous": false,
      "inputs": [
        {
          "indexed": true,
          "internalType": "address",
          "name": "account",
          "type": "address"
        },
        {
          "indexed": true,
          "internalType": "address",
          "name": "operator",
          "type": "address"
        },
        {
          "indexed": false,
          "internalType": "bool",
          "name": "approved",
          "type": "bool"
        }
      ],
      "name": "ApprovalForAll",
      "type": "event"
    },
    {
      "anonymous": false,
      "inputs": [
        {
          "indexed": false,
          "internalType": "uint256",
          "name": "tokenId",
          "type": "uint256"
        },
        {
          "indexed": false,
          "internalType": "address payable",
          "name": "creatorAddress",
          "type": "address"
        },
        {
          "indexed": false,
          "internalType": "string",
          "name": "name",
          "type": "string"
        },
        {
          "indexed": false,
          "internalType": "string",
          "name": "symbol",
          "type": "string"
        },
        {
          "indexed": false,
          "internalType": "string",
          "name": "description",
          "type": "string"
        },
        {
          "indexed": false,
          "internalType": "bool",
          "name": "verified",
          "type": "bool"
        },
        {
          "indexed": false,
          "internalType": "uint256",
          "name": "outstanding",
          "type": "uint256"
        },
        {
          "indexed": false,
          "internalType": "uint256",
          "name": "maxSupply",
          "type": "uint256"
        }
      ],
      "name": "NewCreatorToken",
      "type": "event"
    },
    {
      "anonymous": false,
      "inputs": [
        {
          "indexed": true,
          "internalType": "address",
          "name": "previousOwner",
          "type": "address"
        },
        {
          "indexed": true,
          "internalType": "address",
          "name": "newOwner",
          "type": "address"
        }
      ],
      "name": "OwnershipTransferred",
      "type": "event"
    },
    {
      "anonymous": false,
      "inputs": [
        {
          "indexed": true,
          "internalType": "address",
          "name": "operator",
          "type": "address"
        },
        {
          "indexed": true,
          "internalType": "address",
          "name": "from",
          "type": "address"
        },
        {
          "indexed": true,
          "internalType": "address",
          "name": "to",
          "type": "address"
        },
        {
          "indexed": false,
          "internalType": "uint256[]",
          "name": "ids",
          "type": "uint256[]"
        },
        {
          "indexed": false,
          "internalType": "uint256[]",
          "name": "values",
          "type": "uint256[]"
        }
      ],
      "name": "TransferBatch",
      "type": "event"
    },
    {
      "anonymous": false,
      "inputs": [
        {
          "indexed": true,
          "internalType": "address",
          "name": "operator",
          "type": "address"
        },
        {
          "indexed": true,
          "internalType": "address",
          "name": "from",
          "type": "address"
        },
        {
          "indexed": true,
          "internalType": "address",
          "name": "to",
          "type": "address"
        },
        {
          "indexed": false,
          "internalType": "uint256",
          "name": "id",
          "type": "uint256"
        },
        {
          "indexed": false,
          "internalType": "uint256",
          "name": "value",
          "type": "uint256"
        }
      ],
      "name": "TransferSingle",
      "type": "event"
    },
    {
      "anonymous": false,
      "inputs": [
        {
          "indexed": false,
          "internalType": "string",
          "name": "value",
          "type": "string"
        },
        {
          "indexed": true,
          "internalType": "uint256",
          "name": "id",
          "type": "uint256"
        }
      ],
      "name": "URI",
      "type": "event"
    },
    {
      "inputs": [
        {
          "internalType": "uint256",
          "name": "_proceedsRequired",
          "type": "uint256"
        }
      ],
      "name": "_feeProceeds",
      "outputs": [
        {
          "internalType": "uint256",
          "name": "",
          "type": "uint256"
        }
      ],
      "stateMutability": "view",
      "type": "function"
    },
    {
      "inputs": [
        {
          "internalType": "uint256",
          "name": "_startingSupply",
          "type": "uint256"
        },
        {
          "internalType": "uint256",
          "name": "_amount",
          "type": "uint256"
        },
        {
          "internalType": "uint256",
          "name": "_mNumerator",
          "type": "uint256"
        },
        {
          "internalType": "uint256",
          "name": "_mDenominator",
          "type": "uint256"
        },
        {
          "internalType": "uint256",
          "name": "_maxSupply",
          "type": "uint256"
        },
        {
          "internalType": "uint256",
          "name": "_profitMargin",
          "type": "uint256"
        }
      ],
      "name": "_saleFunction",
      "outputs": [
        {
          "internalType": "uint256",
          "name": "",
          "type": "uint256"
        }
      ],
      "stateMutability": "pure",
      "type": "function"
    },
    {
      "inputs": [
        {
          "internalType": "address",
          "name": "",
          "type": "address"
        },
        {
          "internalType": "address",
          "name": "",
          "type": "address"
        }
      ],
      "name": "approvals",
      "outputs": [
        {
          "internalType": "bool",
          "name": "",
          "type": "bool"
        }
      ],
      "stateMutability": "view",
      "type": "function"
    },
    {
      "inputs": [
        {
          "internalType": "address",
          "name": "account",
          "type": "address"
        },
        {
          "internalType": "uint256",
          "name": "id",
          "type": "uint256"
        }
      ],
      "name": "balanceOf",
      "outputs": [
        {
          "internalType": "uint256",
          "name": "",
          "type": "uint256"
        }
      ],
      "stateMutability": "view",
      "type": "function"
    },
    {
      "inputs": [
        {
          "internalType": "address[]",
          "name": "accounts",
          "type": "address[]"
        },
        {
          "internalType": "uint256[]",
          "name": "ids",
          "type": "uint256[]"
        }
      ],
      "name": "balanceOfBatch",
      "outputs": [
        {
          "internalType": "uint256[]",
          "name": "",
          "type": "uint256[]"
        }
      ],
      "stateMutability": "view",
      "type": "function"
    },
    {
      "inputs": [
        {
          "internalType": "uint256",
          "name": "_tokenId",
          "type": "uint256"
        },
        {
          "internalType": "address payable",
          "name": "_newCreatorAddress",
          "type": "address"
        }
      ],
      "name": "changeAddress",
      "outputs": [],
      "stateMutability": "nonpayable",
      "type": "function"
    },
    {
      "inputs": [
        {
          "internalType": "uint256",
          "name": "_tokenId",
          "type": "uint256"
        },
        {
          "internalType": "string",
          "name": "_newDescription",
          "type": "string"
        }
      ],
      "name": "changeDescription",
      "outputs": [],
      "stateMutability": "nonpayable",
      "type": "function"
    },
    {
      "inputs": [
        {
          "internalType": "uint256",
          "name": "_tokenId",
          "type": "uint256"
        },
        {
          "internalType": "string",
          "name": "_newName",
          "type": "string"
        }
      ],
      "name": "changeName",
      "outputs": [],
      "stateMutability": "nonpayable",
      "type": "function"
    },
    {
      "inputs": [
        {
          "internalType": "uint256",
          "name": "_newPlatformFee",
          "type": "uint256"
        }
      ],
      "name": "changePlatformFee",
      "outputs": [],
      "stateMutability": "nonpayable",
      "type": "function"
    },
    {
      "inputs": [
        {
          "internalType": "uint256",
          "name": "_newProfitMargin",
          "type": "uint256"
        }
      ],
      "name": "changeProfitMargin",
      "outputs": [],
      "stateMutability": "nonpayable",
      "type": "function"
    },
    {
      "inputs": [
        {
          "internalType": "uint256",
          "name": "_tokenId",
          "type": "uint256"
        },
        {
          "internalType": "string",
          "name": "_newSymbol",
          "type": "string"
        }
      ],
      "name": "changeSymbol",
      "outputs": [],
      "stateMutability": "nonpayable",
      "type": "function"
    },
    {
      "inputs": [
        {
          "internalType": "uint256",
          "name": "_tokenId",
          "type": "uint256"
        },
        {
          "internalType": "bool",
          "name": "_verified",
          "type": "bool"
        }
      ],
      "name": "changeVerification",
      "outputs": [],
      "stateMutability": "nonpayable",
      "type": "function"
    },
    {
      "inputs": [
        {
          "internalType": "address payable",
          "name": "_creatorAddress",
          "type": "address"
        },
        {
          "internalType": "string",
          "name": "_name",
          "type": "string"
        },
        {
          "internalType": "string",
          "name": "_symbol",
          "type": "string"
        },
        {
          "internalType": "string",
          "name": "_description",
          "type": "string"
        }
      ],
      "name": "createCreatorToken",
      "outputs": [],
      "stateMutability": "nonpayable",
      "type": "function"
    },
    {
      "inputs": [
        {
          "internalType": "uint256",
          "name": "",
          "type": "uint256"
        }
      ],
      "name": "creatorTokens",
      "outputs": [
        {
          "internalType": "address payable",
          "name": "creatorAddress",
          "type": "address"
        },
        {
          "internalType": "string",
          "name": "name",
          "type": "string"
        },
        {
          "internalType": "string",
          "name": "symbol",
          "type": "string"
        },
        {
          "internalType": "string",
          "name": "description",
          "type": "string"
        },
        {
          "internalType": "bool",
          "name": "verified",
          "type": "bool"
        },
        {
          "internalType": "uint256",
          "name": "outstanding",
          "type": "uint256"
        },
        {
          "internalType": "uint256",
          "name": "maxSupply",
          "type": "uint256"
        }
      ],
      "stateMutability": "view",
      "type": "function"
    },
    {
      "inputs": [],
      "name": "getCreatorTokenCount",
      "outputs": [
        {
          "internalType": "uint256",
          "name": "",
          "type": "uint256"
        }
      ],
      "stateMutability": "view",
      "type": "function"
    },
    {
      "inputs": [
        {
          "internalType": "uint256",
          "name": "_id",
          "type": "uint256"
        }
      ],
      "name": "getToken",
      "outputs": [
        {
          "components": [
            {
              "internalType": "address payable",
              "name": "creatorAddress",
              "type": "address"
            },
            {
              "internalType": "string",
              "name": "name",
              "type": "string"
            },
            {
              "internalType": "string",
              "name": "symbol",
              "type": "string"
            },
            {
              "internalType": "string",
              "name": "description",
              "type": "string"
            },
            {
              "internalType": "bool",
              "name": "verified",
              "type": "bool"
            },
            {
              "internalType": "uint256",
              "name": "outstanding",
              "type": "uint256"
            },
            {
              "internalType": "uint256",
              "name": "maxSupply",
              "type": "uint256"
            }
          ],
          "internalType": "struct CreatorTokenFactory.CreatorToken",
          "name": "",
          "type": "tuple"
        }
      ],
      "stateMutability": "view",
      "type": "function"
    },
    {
      "inputs": [
        {
          "internalType": "address",
          "name": "_account",
          "type": "address"
        },
        {
          "internalType": "address",
          "name": "_operator",
          "type": "address"
        }
      ],
      "name": "isApprovedForAll",
      "outputs": [
        {
          "internalType": "bool",
          "name": "",
          "type": "bool"
        }
      ],
      "stateMutability": "view",
      "type": "function"
    },
    {
      "inputs": [],
      "name": "owner",
      "outputs": [
        {
          "internalType": "address",
          "name": "",
          "type": "address"
        }
      ],
      "stateMutability": "view",
      "type": "function"
    },
    {
      "inputs": [
        {
          "internalType": "address payable",
          "name": "_owner",
          "type": "address"
        }
      ],
      "name": "payoutPlatformFees",
      "outputs": [],
      "stateMutability": "nonpayable",
      "type": "function"
    },
    {
      "inputs": [],
      "name": "platformFeesOwed",
      "outputs": [
        {
          "internalType": "uint256",
          "name": "",
          "type": "uint256"
        }
      ],
      "stateMutability": "view",
      "type": "function"
    },
    {
      "inputs": [],
      "name": "renounceOwnership",
      "outputs": [],
      "stateMutability": "nonpayable",
      "type": "function"
    },
    {
      "inputs": [
        {
          "internalType": "address",
          "name": "_from",
          "type": "address"
        },
        {
          "internalType": "address",
          "name": "_to",
          "type": "address"
        },
        {
          "internalType": "uint256[]",
          "name": "_ids",
          "type": "uint256[]"
        },
        {
          "internalType": "uint256[]",
          "name": "_amounts",
          "type": "uint256[]"
        },
        {
          "internalType": "bytes",
          "name": "_data",
          "type": "bytes"
        }
      ],
      "name": "safeBatchTransferFrom",
      "outputs": [],
      "stateMutability": "nonpayable",
      "type": "function"
    },
    {
      "inputs": [
        {
          "internalType": "address",
          "name": "_from",
          "type": "address"
        },
        {
          "internalType": "address",
          "name": "_to",
          "type": "address"
        },
        {
          "internalType": "uint256",
          "name": "_id",
          "type": "uint256"
        },
        {
          "internalType": "uint256",
          "name": "_amount",
          "type": "uint256"
        },
        {
          "internalType": "bytes",
          "name": "_data",
          "type": "bytes"
        }
      ],
      "name": "safeTransferFrom",
      "outputs": [],
      "stateMutability": "nonpayable",
      "type": "function"
    },
    {
      "inputs": [
        {
          "internalType": "address",
          "name": "_operator",
          "type": "address"
        },
        {
          "internalType": "bool",
          "name": "_approved",
          "type": "bool"
        }
      ],
      "name": "setApprovalForAll",
      "outputs": [],
      "stateMutability": "nonpayable",
      "type": "function"
    },
    {
      "inputs": [
        {
          "internalType": "bytes4",
          "name": "interfaceId",
          "type": "bytes4"
        }
      ],
      "name": "supportsInterface",
      "outputs": [
        {
          "internalType": "bool",
          "name": "",
          "type": "bool"
        }
      ],
      "stateMutability": "view",
      "type": "function"
    },
    {
      "inputs": [
        {
          "internalType": "uint256",
          "name": "",
          "type": "uint256"
        },
        {
          "internalType": "address",
          "name": "",
          "type": "address"
        }
      ],
      "name": "tokenHoldership",
      "outputs": [
        {
          "internalType": "uint256",
          "name": "",
          "type": "uint256"
        }
      ],
      "stateMutability": "view",
      "type": "function"
    },
    {
      "inputs": [
        {
          "internalType": "uint256",
          "name": "",
          "type": "uint256"
        }
      ],
      "name": "tokenToCreator",
      "outputs": [
        {
          "internalType": "address",
          "name": "",
          "type": "address"
        }
      ],
      "stateMutability": "view",
      "type": "function"
    },
    {
      "inputs": [
        {
          "internalType": "uint256",
          "name": "",
          "type": "uint256"
        }
      ],
      "name": "tokenValueTransferred",
      "outputs": [
        {
          "internalType": "uint256",
          "name": "",
          "type": "uint256"
        }
      ],
      "stateMutability": "view",
      "type": "function"
    },
    {
      "inputs": [],
      "name": "totalPlatformFees",
      "outputs": [
        {
          "internalType": "uint256",
          "name": "",
          "type": "uint256"
        }
      ],
      "stateMutability": "view",
      "type": "function"
    },
    {
      "inputs": [
        {
          "internalType": "uint256",
          "name": "",
          "type": "uint256"
        }
      ],
      "name": "totalValueLocked",
      "outputs": [
        {
          "internalType": "uint256",
          "name": "",
          "type": "uint256"
        }
      ],
      "stateMutability": "view",
      "type": "function"
    },
    {
      "inputs": [
        {
          "internalType": "address",
          "name": "newOwner",
          "type": "address"
        }
      ],
      "name": "transferOwnership",
      "outputs": [],
      "stateMutability": "nonpayable",
      "type": "function"
    },
    {
      "inputs": [
        {
          "internalType": "uint256",
          "name": "",
          "type": "uint256"
        }
      ],
      "name": "uri",
      "outputs": [
        {
          "internalType": "string",
          "name": "",
          "type": "string"
        }
      ],
      "stateMutability": "view",
      "type": "function"
    },
    {
      "inputs": [
        {
          "internalType": "address",
          "name": "",
          "type": "address"
        },
        {
          "internalType": "uint256",
          "name": "",
          "type": "uint256"
        }
      ],
      "name": "userToHoldings",
      "outputs": [
        {
          "internalType": "uint256",
          "name": "",
          "type": "uint256"
        }
      ],
      "stateMutability": "view",
      "type": "function"
    },
    {
      "inputs": [
        {
          "internalType": "address payable",
          "name": "_owner",
          "type": "address"
        }
      ],
      "name": "withdraw",
      "outputs": [],
      "stateMutability": "nonpayable",
      "type": "function"
    },
    {
      "inputs": [
        {
          "internalType": "uint256",
          "name": "_tokenId",
          "type": "uint256"
        },
        {
          "internalType": "uint256",
          "name": "_amount",
          "type": "uint256"
        }
      ],
      "name": "_totalProceeds",
      "outputs": [
        {
          "internalType": "uint256",
          "name": "",
          "type": "uint256"
        }
      ],
      "stateMutability": "view",
      "type": "function"
    },
    {
      "inputs": [
        {
          "internalType": "uint256",
          "name": "_tokenId",
          "type": "uint256"
        },
        {
          "internalType": "uint256",
          "name": "_amount",
          "type": "uint256"
        }
      ],
      "name": "_buyProceeds",
      "outputs": [
        {
          "internalType": "uint256",
          "name": "",
          "type": "uint256"
        }
      ],
      "stateMutability": "view",
      "type": "function"
    }
  ],
  "bytecode": "0x60806040526001805560006002556000600355601460045565082f79cd900060055560b96006553480156200003357600080fd5b50604051620042e3380380620042e383398181016040528101906200005991906200027b565b8080808060006200006f6200012960201b60201c565b9050806000806101000a81548173ffffffffffffffffffffffffffffffffffffffff021916908373ffffffffffffffffffffffffffffffffffffffff1602179055508073ffffffffffffffffffffffffffffffffffffffff16600073ffffffffffffffffffffffffffffffffffffffff167f8be0079c531659141344cd1fd0a4f28419497f9722a3daafe3b4186f6b6457e060405160405180910390a3506200011e816200013160201b60201c565b505050505062000450565b600033905090565b8060109080519060200190620001499291906200014d565b5050565b8280546200015b9062000361565b90600052602060002090601f0160209004810192826200017f5760008555620001cb565b82601f106200019a57805160ff1916838001178555620001cb565b82800160010185558215620001cb579182015b82811115620001ca578251825591602001919060010190620001ad565b5b509050620001da9190620001de565b5090565b5b80821115620001f9576000816000905550600101620001df565b5090565b6000620002146200020e84620002f5565b620002cc565b90508281526020810184848401111562000233576200023262000430565b5b620002408482856200032b565b509392505050565b600082601f83011262000260576200025f6200042b565b5b815162000272848260208601620001fd565b91505092915050565b6000602082840312156200029457620002936200043a565b5b600082015167ffffffffffffffff811115620002b557620002b462000435565b5b620002c38482850162000248565b91505092915050565b6000620002d8620002eb565b9050620002e6828262000397565b919050565b6000604051905090565b600067ffffffffffffffff821115620003135762000312620003fc565b5b6200031e826200043f565b9050602081019050919050565b60005b838110156200034b5780820151818401526020810190506200032e565b838111156200035b576000848401525b50505050565b600060028204905060018216806200037a57607f821691505b60208210811415620003915762000390620003cd565b5b50919050565b620003a2826200043f565b810181811067ffffffffffffffff82111715620003c457620003c3620003fc565b5b80604052505050565b7f4e487b7100000000000000000000000000000000000000000000000000000000600052602260045260246000fd5b7f4e487b7100000000000000000000000000000000000000000000000000000000600052604160045260246000fd5b600080fd5b600080fd5b600080fd5b600080fd5b6000601f19601f8301169050919050565b613e8380620004606000396000f3fe608060405234801561001057600080fd5b506004361061021b5760003560e01c8063ba111a0511610125578063d9bd3a40116100ad578063e985e9c51161007c578063e985e9c5146106c0578063eb841759146106f0578063f242432a1461070c578063f2fde38b14610728578063f7374e2e146107445761021b565b8063d9bd3a4014610614578063de6a06ed14610644578063df3c00b114610660578063e4b50cb8146106905761021b565b8063c539c317116100f4578063c539c3171461056c578063ce901d8a14610588578063d3631fa5146105be578063d56b72c7146105dc578063d7a5791a146105f85761021b565b8063ba111a05146104d2578063bfb48c9c14610502578063c1d3304914610532578063c39cbef1146105505761021b565b806335a8ae21116101a8578063715018a611610177578063715018a61461042e5780638da5cb5b1461043857806392724afa14610456578063a22cb46514610486578063a32ce11e146104a25761021b565b806335a8ae21146103825780634e1273f4146103b25780634fe477d8146103e257806351cff8d9146104125761021b565b806317bcaa08116101ef57806317bcaa08146102cc57806318892ae8146102fc5780631d5ad18b1461032c5780632a2b237c146103485780632eb2c2d6146103665761021b565b8062fdd58e1461022057806301ffc9a71461025057806306e320f5146102805780630e89341c1461029c575b600080fd5b61023a60048036038101906102359190612f87565b610760565b60405161024791906136f3565b60405180910390f35b61026a6004803603810190610265919061303f565b61082a565b6040516102779190613614565b60405180910390f35b61029a60048036038101906102959190613159565b61090c565b005b6102b660048036038101906102b1919061306c565b6109b3565b6040516102c3919061362f565b60405180910390f35b6102e660048036038101906102e1919061306c565b610a47565b6040516102f391906136f3565b60405180910390f35b6103166004803603810190610311919061306c565b610a5f565b604051610323919061351c565b60405180910390f35b610346600480360381019061034191906130d9565b610a92565b005b610350610b67565b60405161035d91906136f3565b60405180910390f35b610380600480360381019061037b9190612de1565b610b74565b005b61039c600480360381019061039791906131b9565b610ce0565b6040516103a991906136f3565b60405180910390f35b6103cc60048036038101906103c79190612fc7565b610d18565b6040516103d991906135bb565b60405180910390f35b6103fc60048036038101906103f791906131b9565b610e31565b60405161040991906136f3565b60405180910390f35b61042c60048036038101906104279190612cb9565b61103e565b005b610436611104565b005b61044061123e565b60405161044d919061351c565b60405180910390f35b610470600480360381019061046b9190612f87565b611267565b60405161047d91906136f3565b60405180910390f35b6104a0600480360381019061049b9190612f47565b61128c565b005b6104bc60048036038101906104b79190612da1565b611389565b6040516104c99190613614565b60405180910390f35b6104ec60048036038101906104e7919061306c565b6113b8565b6040516104f991906136f3565b60405180910390f35b61051c60048036038101906105179190613099565b6113db565b60405161052991906136f3565b60405180910390f35b61053a611400565b60405161054791906136f3565b60405180910390f35b61056a60048036038101906105659190613159565b611406565b005b6105866004803603810190610581919061306c565b6114ad565b005b6105a2600480360381019061059d919061306c565b611533565b6040516105b59796959493929190613537565b60405180910390f35b6105c661174a565b6040516105d391906136f3565b60405180910390f35b6105f660048036038101906105f19190612ce6565b611750565b005b610612600480360381019061060d919061306c565b61196c565b005b61062e6004803603810190610629919061306c565b6119f2565b60405161063b91906136f3565b60405180910390f35b61065e60048036038101906106599190613159565b611a0a565b005b61067a600480360381019061067591906131f9565b611ab1565b60405161068791906136f3565b60405180910390f35b6106aa60048036038101906106a5919061306c565b611b2a565b6040516106b791906136d1565b60405180910390f35b6106da60048036038101906106d59190612da1565b611da1565b6040516106e79190613614565b60405180910390f35b61070a60048036038101906107059190612cb9565b611e35565b005b61072660048036038101906107219190612eb0565b611f05565b005b610742600480360381019061073d9190612c8c565b611fe9565b005b61075e60048036038101906107599190613119565b612192565b005b60008073ffffffffffffffffffffffffffffffffffffffff168373ffffffffffffffffffffffffffffffffffffffff1614156107d1576040517f08c379a00000000000000000000000000000000000000000000000000000000081526004016107c890613651565b60405180910390fd5b600e600083815260200190815260200160002060008473ffffffffffffffffffffffffffffffffffffffff1673ffffffffffffffffffffffffffffffffffffffff16815260200190815260200160002054905092915050565b60007fd9b67a26000000000000000000000000000000000000000000000000000000007bffffffffffffffffffffffffffffffffffffffffffffffffffffffff1916827bffffffffffffffffffffffffffffffffffffffffffffffffffffffff191614806108f557507f0e89341c000000000000000000000000000000000000000000000000000000007bffffffffffffffffffffffffffffffffffffffffffffffffffffffff1916827bffffffffffffffffffffffffffffffffffffffffffffffffffffffff1916145b8061090557506109048261224f565b5b9050919050565b826008600082815260200190815260200160002060009054906101000a900473ffffffffffffffffffffffffffffffffffffffff1673ffffffffffffffffffffffffffffffffffffffff163373ffffffffffffffffffffffffffffffffffffffff161461097857600080fd5b82826007868154811061098e5761098d613c37565b5b906000526020600020906007020160020191906109ac929190612833565b5050505050565b6060601080546109c290613afe565b80601f01602080910402602001604051908101604052809291908181526020018280546109ee90613afe565b8015610a3b5780601f10610a1057610100808354040283529160200191610a3b565b820191906000526020600020905b815481529060010190602001808311610a1e57829003601f168201915b50505050509050919050565b60096020528060005260406000206000915090505481565b60086020528060005260406000206000915054906101000a900473ffffffffffffffffffffffffffffffffffffffff1681565b816008600082815260200190815260200160002060009054906101000a900473ffffffffffffffffffffffffffffffffffffffff1673ffffffffffffffffffffffffffffffffffffffff163373ffffffffffffffffffffffffffffffffffffffff1614610afe57600080fd5b8160078481548110610b1357610b12613c37565b5b906000526020600020906007020160000160006101000a81548173ffffffffffffffffffffffffffffffffffffffff021916908373ffffffffffffffffffffffffffffffffffffffff160217905550505050565b6000600780549050905090565b60005b8351811015610c5a578573ffffffffffffffffffffffffffffffffffffffff163373ffffffffffffffffffffffffffffffffffffffff161480610bc05750610bbf8686611da1565b5b610bc957600080fd5b610c0886858381518110610be057610bdf613c37565b5b6020026020010151858481518110610bfb57610bfa613c37565b5b60200260200101516122b9565b610c4785858381518110610c1f57610c1e613c37565b5b6020026020010151858481518110610c3a57610c39613c37565b5b602002602001015161238c565b8080610c5290613b61565b915050610b77565b508373ffffffffffffffffffffffffffffffffffffffff168573ffffffffffffffffffffffffffffffffffffffff163373ffffffffffffffffffffffffffffffffffffffff167f4a39dc06d4c0dbc64b70af90fd698a233a518aa5d07e595d983b8c0526c8f7fb8686604051610cd19291906135dd565b60405180910390a45050505050565b600080610ced8484610e31565b90506000610cfa826113b8565b905060008183610d0a919061390f565b905080935050505092915050565b60608151835114610d5e576040517f08c379a0000000000000000000000000000000000000000000000000000000008152600401610d55906136b1565b60405180910390fd5b6000835167ffffffffffffffff811115610d7b57610d7a613c66565b5b604051908082528060200260200182016040528015610da95781602001602082028036833780820191505090505b50905060005b8451811015610e2657610df6858281518110610dce57610dcd613c37565b5b6020026020010151858381518110610de957610de8613c37565b5b6020026020010151610760565b828281518110610e0957610e08613c37565b5b60200260200101818152505080610e1f90613b61565b9050610daf565b508091505092915050565b60008060009050600060078581548110610e4e57610e4d613c37565b5b906000526020600020906007020160050154905060008482610e70919061390f565b905060078681548110610e8657610e85613c37565b5b906000526020600020906007020160060154811015610edf57610ed8818660055460065460078b81548110610ebe57610ebd613c37565b5b906000526020600020906007020160060154600454611ab1565b9250611032565b60078681548110610ef357610ef2613c37565b5b90600052602060002090600702016006015482101561101e57610f9a60078781548110610f2357610f22613c37565b5b9060005260206000209060070201600601548360078981548110610f4a57610f49613c37565b5b906000526020600020906007020160060154610f6691906139f0565b60055460065460078b81548110610f8057610f7f613c37565b5b906000526020600020906007020160060154600454611ab1565b925061100c60078781548110610fb357610fb2613c37565b5b9060005260206000209060070201600601548360078981548110610fda57610fd9613c37565b5b906000526020600020906007020160060154610ff691906139f0565b8761100191906139f0565b60055460065461245f565b83611017919061390f565b9250611031565b61102e828660055460065461245f565b92505b5b82935050505092915050565b6110466124ed565b73ffffffffffffffffffffffffffffffffffffffff1661106461123e565b73ffffffffffffffffffffffffffffffffffffffff16146110ba576040517f08c379a00000000000000000000000000000000000000000000000000000000081526004016110b190613691565b60405180910390fd5b8073ffffffffffffffffffffffffffffffffffffffff166108fc479081150290604051600060405180830381858888f19350505050158015611100573d6000803e3d6000fd5b5050565b61110c6124ed565b73ffffffffffffffffffffffffffffffffffffffff1661112a61123e565b73ffffffffffffffffffffffffffffffffffffffff1614611180576040517f08c379a000000000000000000000000000000000000000000000000000000000815260040161117790613691565b60405180910390fd5b600073ffffffffffffffffffffffffffffffffffffffff1660008054906101000a900473ffffffffffffffffffffffffffffffffffffffff1673ffffffffffffffffffffffffffffffffffffffff167f8be0079c531659141344cd1fd0a4f28419497f9722a3daafe3b4186f6b6457e060405160405180910390a360008060006101000a81548173ffffffffffffffffffffffffffffffffffffffff021916908373ffffffffffffffffffffffffffffffffffffffff160217905550565b60008060009054906101000a900473ffffffffffffffffffffffffffffffffffffffff16905090565b600b602052816000526040600020602052806000526040600020600091509150505481565b80600c60003373ffffffffffffffffffffffffffffffffffffffff1673ffffffffffffffffffffffffffffffffffffffff16815260200190815260200160002060008473ffffffffffffffffffffffffffffffffffffffff1673ffffffffffffffffffffffffffffffffffffffff16815260200190815260200160002060006101000a81548160ff0219169083151502179055508173ffffffffffffffffffffffffffffffffffffffff163373ffffffffffffffffffffffffffffffffffffffff167f17307eab39ab6107e8899845ad3d59bd9653f200f220920489ca2b5937696c318360405161137d9190613614565b60405180910390a35050565b600c6020528160005260406000206020528060005260406000206000915091509054906101000a900460ff1681565b60006064600154836113ca9190613996565b6113d49190613965565b9050919050565b600a602052816000526040600020602052806000526040600020600091509150505481565b60035481565b826008600082815260200190815260200160002060009054906101000a900473ffffffffffffffffffffffffffffffffffffffff1673ffffffffffffffffffffffffffffffffffffffff163373ffffffffffffffffffffffffffffffffffffffff161461147257600080fd5b82826007868154811061148857611487613c37565b5b906000526020600020906007020160010191906114a6929190612833565b5050505050565b6114b56124ed565b73ffffffffffffffffffffffffffffffffffffffff166114d361123e565b73ffffffffffffffffffffffffffffffffffffffff1614611529576040517f08c379a000000000000000000000000000000000000000000000000000000000815260040161152090613691565b60405180910390fd5b8060048190555050565b6007818154811061154357600080fd5b90600052602060002090600702016000915090508060000160009054906101000a900473ffffffffffffffffffffffffffffffffffffffff169080600101805461158c90613afe565b80601f01602080910402602001604051908101604052809291908181526020018280546115b890613afe565b80156116055780601f106115da57610100808354040283529160200191611605565b820191906000526020600020905b8154815290600101906020018083116115e857829003601f168201915b50505050509080600201805461161a90613afe565b80601f016020809104026020016040519081016040528092919081815260200182805461164690613afe565b80156116935780601f1061166857610100808354040283529160200191611693565b820191906000526020600020905b81548152906001019060200180831161167657829003601f168201915b5050505050908060030180546116a890613afe565b80601f01602080910402602001604051908101604052809291908181526020018280546116d490613afe565b80156117215780601f106116f657610100808354040283529160200191611721565b820191906000526020600020905b81548152906001019060200180831161170457829003601f168201915b5050505050908060040160009054906101000a900460ff16908060050154908060060154905087565b60025481565b60076040518060e001604052808673ffffffffffffffffffffffffffffffffffffffff168152602001858152602001848152602001838152602001600015158152602001600081526020016000815250908060018154018082558091505060019003906000526020600020906007020160009091909190915060008201518160000160006101000a81548173ffffffffffffffffffffffffffffffffffffffff021916908373ffffffffffffffffffffffffffffffffffffffff160217905550602082015181600101908051906020019061182c9291906128b9565b5060408201518160020190805190602001906118499291906128b9565b5060608201518160030190805190602001906118669291906128b9565b5060808201518160040160006101000a81548160ff02191690831515021790555060a0820151816005015560c082015181600601555050600060016007805490506118b191906139f0565b9050846008600083815260200190815260200160002060006101000a81548173ffffffffffffffffffffffffffffffffffffffff021916908373ffffffffffffffffffffffffffffffffffffffff160217905550600060096000838152602001908152602001600020819055507f3ef624c0f3fb7ad40b94c02078ea3e3a797dbfc21e921ee4bd2b8ad0ca6aa1138186868686600080600060405161195d98979695949392919061370e565b60405180910390a15050505050565b6119746124ed565b73ffffffffffffffffffffffffffffffffffffffff1661199261123e565b73ffffffffffffffffffffffffffffffffffffffff16146119e8576040517f08c379a00000000000000000000000000000000000000000000000000000000081526004016119df90613691565b60405180910390fd5b8060018190555050565b600d6020528060005260406000206000915090505481565b826008600082815260200190815260200160002060009054906101000a900473ffffffffffffffffffffffffffffffffffffffff1673ffffffffffffffffffffffffffffffffffffffff163373ffffffffffffffffffffffffffffffffffffffff1614611a7657600080fd5b828260078681548110611a8c57611a8b613c37565b5b90600052602060002090600702016003019190611aaa929190612833565b5050505050565b600080600080611ac58a8a8a8a8a8a6124f5565b9250925092506000838b1015611ae857611ae184848d85612570565b9050611b19565b83821015611b0657611aff84848d858d8d8d612613565b9050611b18565b611b1584848d858d8d8d612735565b90505b5b809450505050509695505050505050565b611b3261293f565b60078281548110611b4657611b45613c37565b5b90600052602060002090600702016040518060e00160405290816000820160009054906101000a900473ffffffffffffffffffffffffffffffffffffffff1673ffffffffffffffffffffffffffffffffffffffff1673ffffffffffffffffffffffffffffffffffffffff168152602001600182018054611bc590613afe565b80601f0160208091040260200160405190810160405280929190818152602001828054611bf190613afe565b8015611c3e5780601f10611c1357610100808354040283529160200191611c3e565b820191906000526020600020905b815481529060010190602001808311611c2157829003601f168201915b50505050508152602001600282018054611c5790613afe565b80601f0160208091040260200160405190810160405280929190818152602001828054611c8390613afe565b8015611cd05780601f10611ca557610100808354040283529160200191611cd0565b820191906000526020600020905b815481529060010190602001808311611cb357829003601f168201915b50505050508152602001600382018054611ce990613afe565b80601f0160208091040260200160405190810160405280929190818152602001828054611d1590613afe565b8015611d625780601f10611d3757610100808354040283529160200191611d62565b820191906000526020600020905b815481529060010190602001808311611d4557829003601f168201915b505050505081526020016004820160009054906101000a900460ff16151515158152602001600582015481526020016006820154815250509050919050565b6000600c60008473ffffffffffffffffffffffffffffffffffffffff1673ffffffffffffffffffffffffffffffffffffffff16815260200190815260200160002060008373ffffffffffffffffffffffffffffffffffffffff1673ffffffffffffffffffffffffffffffffffffffff16815260200190815260200160002060009054906101000a900460ff16905092915050565b611e3d6124ed565b73ffffffffffffffffffffffffffffffffffffffff16611e5b61123e565b73ffffffffffffffffffffffffffffffffffffffff1614611eb1576040517f08c379a0000000000000000000000000000000000000000000000000000000008152600401611ea890613691565b60405180910390fd5b8073ffffffffffffffffffffffffffffffffffffffff166108fc6003549081150290604051600060405180830381858888f19350505050158015611ef9573d6000803e3d6000fd5b50600060038190555050565b8473ffffffffffffffffffffffffffffffffffffffff163373ffffffffffffffffffffffffffffffffffffffff161480611f455750611f448585611da1565b5b611f4e57600080fd5b611f598584846122b9565b611f6484848461238c565b8373ffffffffffffffffffffffffffffffffffffffff168573ffffffffffffffffffffffffffffffffffffffff163373ffffffffffffffffffffffffffffffffffffffff167fc3d58168c5ae7397731d063d5bbf3d657854427343f4c083240f7aacaa2d0f628686604051611fda9291906137a1565b60405180910390a45050505050565b611ff16124ed565b73ffffffffffffffffffffffffffffffffffffffff1661200f61123e565b73ffffffffffffffffffffffffffffffffffffffff1614612065576040517f08c379a000000000000000000000000000000000000000000000000000000000815260040161205c90613691565b60405180910390fd5b600073ffffffffffffffffffffffffffffffffffffffff168173ffffffffffffffffffffffffffffffffffffffff1614156120d5576040517f08c379a00000000000000000000000000000000000000000000000000000000081526004016120cc90613671565b60405180910390fd5b8073ffffffffffffffffffffffffffffffffffffffff1660008054906101000a900473ffffffffffffffffffffffffffffffffffffffff1673ffffffffffffffffffffffffffffffffffffffff167f8be0079c531659141344cd1fd0a4f28419497f9722a3daafe3b4186f6b6457e060405160405180910390a3806000806101000a81548173ffffffffffffffffffffffffffffffffffffffff021916908373ffffffffffffffffffffffffffffffffffffffff16021790555050565b61219a6124ed565b73ffffffffffffffffffffffffffffffffffffffff166121b861123e565b73ffffffffffffffffffffffffffffffffffffffff161461220e576040517f08c379a000000000000000000000000000000000000000000000000000000000815260040161220590613691565b60405180910390fd5b806007838154811061222357612222613c37565b5b906000526020600020906007020160040160006101000a81548160ff0219169083151502179055505050565b60007f01ffc9a7000000000000000000000000000000000000000000000000000000007bffffffffffffffffffffffffffffffffffffffffffffffffffffffff1916827bffffffffffffffffffffffffffffffffffffffffffffffffffffffff1916149050919050565b80600a600084815260200190815260200160002060008573ffffffffffffffffffffffffffffffffffffffff1673ffffffffffffffffffffffffffffffffffffffff168152602001908152602001600020600082825461231991906139f0565b9250508190555080600b60008573ffffffffffffffffffffffffffffffffffffffff1673ffffffffffffffffffffffffffffffffffffffff1681526020019081526020016000206000848152602001908152602001600020600082825461238091906139f0565b92505081905550505050565b80600a600084815260200190815260200160002060008573ffffffffffffffffffffffffffffffffffffffff1673ffffffffffffffffffffffffffffffffffffffff16815260200190815260200160002060008282546123ec919061390f565b9250508190555080600b60008573ffffffffffffffffffffffffffffffffffffffff1673ffffffffffffffffffffffffffffffffffffffff16815260200190815260200160002060008481526020019081526020016000206000828254612453919061390f565b92505081905550505050565b600080848661246e919061390f565b9050600083878661247f9190613996565b6124899190613965565b9050600084838761249a9190613996565b6124a49190613965565b9050600088846124b491906139f0565b9050600060028284866124c7919061390f565b6124d19190613996565b6124db9190613965565b90508095505050505050949350505050565b600033905090565b6000806000806002866125089190613965565b905060008789606488603261251d91906139f0565b8a6125289190613996565b6125329190613965565b61253c9190613996565b6125469190613965565b905060008a8c61255691906139f0565b905082828295509550955050505096509650969350505050565b600080828661257f91906139f0565b868661258b9190613965565b6125959190613996565b856125a091906139f0565b9050600084876125b091906139f0565b87876125bc9190613965565b6125c69190613996565b866125d191906139f0565b9050600084866125e191906139f0565b905060028183856125f2919061390f565b6125fc9190613996565b6126069190613965565b9350505050949350505050565b600080858961262291906139f0565b898961262e9190613965565b6126389190613996565b8861264391906139f0565b905060008890506000878b61265891906139f0565b90506000600282848661266b919061390f565b6126759190613996565b61267f9190613965565b905060008b8d8c61269091906139f0565b8e8961269c91906139f0565b8e8b8b8e6126aa9190613996565b6126b49190613965565b6126be91906139f0565b6126c89190613965565b6126d29190613996565b6126dc919061390f565b905060008d8c6126ec91906139f0565b9050600060028284886126ff919061390f565b6127099190613996565b6127139190613965565b90508084612721919061390f565b975050505050505050979650505050505050565b60008087898761274591906139f0565b8a8561275191906139f0565b8a87878a61275f9190613996565b6127699190613965565b61277391906139f0565b61277d9190613965565b6127879190613996565b612791919061390f565b90506000888a896127a291906139f0565b8b866127ae91906139f0565b8b88888b6127bc9190613996565b6127c69190613965565b6127d091906139f0565b6127da9190613965565b6127e49190613996565b6127ee919061390f565b9050600087896127fe91906139f0565b9050600281838561280f919061390f565b6128199190613996565b6128239190613965565b9350505050979650505050505050565b82805461283f90613afe565b90600052602060002090601f01602090048101928261286157600085556128a8565b82601f1061287a57803560ff19168380011785556128a8565b828001600101855582156128a8579182015b828111156128a757823582559160200191906001019061288c565b5b5090506128b59190612994565b5090565b8280546128c590613afe565b90600052602060002090601f0160209004810192826128e7576000855561292e565b82601f1061290057805160ff191683800117855561292e565b8280016001018555821561292e579182015b8281111561292d578251825591602001919060010190612912565b5b50905061293b9190612994565b5090565b6040518060e00160405280600073ffffffffffffffffffffffffffffffffffffffff16815260200160608152602001606081526020016060815260200160001515815260200160008152602001600081525090565b5b808211156129ad576000816000905550600101612995565b5090565b60006129c46129bf846137ef565b6137ca565b905080838252602082019050828560208602820111156129e7576129e6613c9f565b5b60005b85811015612a1757816129fd8882612b15565b8452602084019350602083019250506001810190506129ea565b5050509392505050565b6000612a34612a2f8461381b565b6137ca565b90508083825260208201905082856020860282011115612a5757612a56613c9f565b5b60005b85811015612a875781612a6d8882612c77565b845260208401935060208301925050600181019050612a5a565b5050509392505050565b6000612aa4612a9f84613847565b6137ca565b905082815260208101848484011115612ac057612abf613ca4565b5b612acb848285613abc565b509392505050565b6000612ae6612ae184613878565b6137ca565b905082815260208101848484011115612b0257612b01613ca4565b5b612b0d848285613abc565b509392505050565b600081359050612b2481613dda565b92915050565b600081359050612b3981613df1565b92915050565b600082601f830112612b5457612b53613c9a565b5b8135612b648482602086016129b1565b91505092915050565b600082601f830112612b8257612b81613c9a565b5b8135612b92848260208601612a21565b91505092915050565b600081359050612baa81613e08565b92915050565b600081359050612bbf81613e1f565b92915050565b600082601f830112612bda57612bd9613c9a565b5b8135612bea848260208601612a91565b91505092915050565b60008083601f840112612c0957612c08613c9a565b5b8235905067ffffffffffffffff811115612c2657612c25613c95565b5b602083019150836001820283011115612c4257612c41613c9f565b5b9250929050565b600082601f830112612c5e57612c5d613c9a565b5b8135612c6e848260208601612ad3565b91505092915050565b600081359050612c8681613e36565b92915050565b600060208284031215612ca257612ca1613cae565b5b6000612cb084828501612b15565b91505092915050565b600060208284031215612ccf57612cce613cae565b5b6000612cdd84828501612b2a565b91505092915050565b60008060008060808587031215612d0057612cff613cae565b5b6000612d0e87828801612b2a565b945050602085013567ffffffffffffffff811115612d2f57612d2e613ca9565b5b612d3b87828801612c49565b935050604085013567ffffffffffffffff811115612d5c57612d5b613ca9565b5b612d6887828801612c49565b925050606085013567ffffffffffffffff811115612d8957612d88613ca9565b5b612d9587828801612c49565b91505092959194509250565b60008060408385031215612db857612db7613cae565b5b6000612dc685828601612b15565b9250506020612dd785828601612b15565b9150509250929050565b600080600080600060a08688031215612dfd57612dfc613cae565b5b6000612e0b88828901612b15565b9550506020612e1c88828901612b15565b945050604086013567ffffffffffffffff811115612e3d57612e3c613ca9565b5b612e4988828901612b6d565b935050606086013567ffffffffffffffff811115612e6a57612e69613ca9565b5b612e7688828901612b6d565b925050608086013567ffffffffffffffff811115612e9757612e96613ca9565b5b612ea388828901612bc5565b9150509295509295909350565b600080600080600060a08688031215612ecc57612ecb613cae565b5b6000612eda88828901612b15565b9550506020612eeb88828901612b15565b9450506040612efc88828901612c77565b9350506060612f0d88828901612c77565b925050608086013567ffffffffffffffff811115612f2e57612f2d613ca9565b5b612f3a88828901612bc5565b9150509295509295909350565b60008060408385031215612f5e57612f5d613cae565b5b6000612f6c85828601612b15565b9250506020612f7d85828601612b9b565b9150509250929050565b60008060408385031215612f9e57612f9d613cae565b5b6000612fac85828601612b15565b9250506020612fbd85828601612c77565b9150509250929050565b60008060408385031215612fde57612fdd613cae565b5b600083013567ffffffffffffffff811115612ffc57612ffb613ca9565b5b61300885828601612b3f565b925050602083013567ffffffffffffffff81111561302957613028613ca9565b5b61303585828601612b6d565b9150509250929050565b60006020828403121561305557613054613cae565b5b600061306384828501612bb0565b91505092915050565b60006020828403121561308257613081613cae565b5b600061309084828501612c77565b91505092915050565b600080604083850312156130b0576130af613cae565b5b60006130be85828601612c77565b92505060206130cf85828601612b15565b9150509250929050565b600080604083850312156130f0576130ef613cae565b5b60006130fe85828601612c77565b925050602061310f85828601612b2a565b9150509250929050565b600080604083850312156131305761312f613cae565b5b600061313e85828601612c77565b925050602061314f85828601612b9b565b9150509250929050565b60008060006040848603121561317257613171613cae565b5b600061318086828701612c77565b935050602084013567ffffffffffffffff8111156131a1576131a0613ca9565b5b6131ad86828701612bf3565b92509250509250925092565b600080604083850312156131d0576131cf613cae565b5b60006131de85828601612c77565b92505060206131ef85828601612c77565b9150509250929050565b60008060008060008060c0878903121561321657613215613cae565b5b600061322489828a01612c77565b965050602061323589828a01612c77565b955050604061324689828a01612c77565b945050606061325789828a01612c77565b935050608061326889828a01612c77565b92505060a061327989828a01612c77565b9150509295509295509295565b600061329283836134fe565b60208301905092915050565b6132a781613a36565b82525050565b6132b681613a36565b82525050565b6132c581613a24565b82525050565b60006132d6826138b9565b6132e081856138dc565b93506132eb836138a9565b8060005b8381101561331c5781516133038882613286565b975061330e836138cf565b9250506001810190506132ef565b5085935050505092915050565b61333281613a48565b82525050565b61334181613a48565b82525050565b61335081613aaa565b82525050565b6000613361826138c4565b61336b81856138ed565b935061337b818560208601613acb565b61338481613cb3565b840191505092915050565b600061339a826138c4565b6133a481856138fe565b93506133b4818560208601613acb565b6133bd81613cb3565b840191505092915050565b60006133d5602b836138fe565b91506133e082613cc4565b604082019050919050565b60006133f86026836138fe565b915061340382613d13565b604082019050919050565b600061341b6020836138fe565b915061342682613d62565b602082019050919050565b600061343e6029836138fe565b915061344982613d8b565b604082019050919050565b600060e08301600083015161346c600086018261329e565b50602083015184820360208601526134848282613356565b9150506040830151848203604086015261349e8282613356565b915050606083015184820360608601526134b88282613356565b91505060808301516134cd6080860182613329565b5060a08301516134e060a08601826134fe565b5060c08301516134f360c08601826134fe565b508091505092915050565b61350781613aa0565b82525050565b61351681613aa0565b82525050565b600060208201905061353160008301846132bc565b92915050565b600060e08201905061354c600083018a6132ad565b818103602083015261355e818961338f565b90508181036040830152613572818861338f565b90508181036060830152613586818761338f565b90506135956080830186613338565b6135a260a083018561350d565b6135af60c083018461350d565b98975050505050505050565b600060208201905081810360008301526135d581846132cb565b905092915050565b600060408201905081810360008301526135f781856132cb565b9050818103602083015261360b81846132cb565b90509392505050565b60006020820190506136296000830184613338565b92915050565b60006020820190508181036000830152613649818461338f565b905092915050565b6000602082019050818103600083015261366a816133c8565b9050919050565b6000602082019050818103600083015261368a816133eb565b9050919050565b600060208201905081810360008301526136aa8161340e565b9050919050565b600060208201905081810360008301526136ca81613431565b9050919050565b600060208201905081810360008301526136eb8184613454565b905092915050565b6000602082019050613708600083018461350d565b92915050565b600061010082019050613724600083018b61350d565b613731602083018a6132ad565b8181036040830152613743818961338f565b90508181036060830152613757818861338f565b9050818103608083015261376b818761338f565b905061377a60a0830186613338565b61378760c0830185613347565b61379460e0830184613347565b9998505050505050505050565b60006040820190506137b6600083018561350d565b6137c3602083018461350d565b9392505050565b60006137d46137e5565b90506137e08282613b30565b919050565b6000604051905090565b600067ffffffffffffffff82111561380a57613809613c66565b5b602082029050602081019050919050565b600067ffffffffffffffff82111561383657613835613c66565b5b602082029050602081019050919050565b600067ffffffffffffffff82111561386257613861613c66565b5b61386b82613cb3565b9050602081019050919050565b600067ffffffffffffffff82111561389357613892613c66565b5b61389c82613cb3565b9050602081019050919050565b6000819050602082019050919050565b600081519050919050565b600081519050919050565b6000602082019050919050565b600082825260208201905092915050565b600082825260208201905092915050565b600082825260208201905092915050565b600061391a82613aa0565b915061392583613aa0565b9250827fffffffffffffffffffffffffffffffffffffffffffffffffffffffffffffffff0382111561395a57613959613baa565b5b828201905092915050565b600061397082613aa0565b915061397b83613aa0565b92508261398b5761398a613bd9565b5b828204905092915050565b60006139a182613aa0565b91506139ac83613aa0565b9250817fffffffffffffffffffffffffffffffffffffffffffffffffffffffffffffffff04831182151516156139e5576139e4613baa565b5b828202905092915050565b60006139fb82613aa0565b9150613a0683613aa0565b925082821015613a1957613a18613baa565b5b828203905092915050565b6000613a2f82613a80565b9050919050565b6000613a4182613a80565b9050919050565b60008115159050919050565b60007fffffffff0000000000000000000000000000000000000000000000000000000082169050919050565b600073ffffffffffffffffffffffffffffffffffffffff82169050919050565b6000819050919050565b6000613ab582613aa0565b9050919050565b82818337600083830152505050565b60005b83811015613ae9578082015181840152602081019050613ace565b83811115613af8576000848401525b50505050565b60006002820490506001821680613b1657607f821691505b60208210811415613b2a57613b29613c08565b5b50919050565b613b3982613cb3565b810181811067ffffffffffffffff82111715613b5857613b57613c66565b5b80604052505050565b6000613b6c82613aa0565b91507fffffffffffffffffffffffffffffffffffffffffffffffffffffffffffffffff821415613b9f57613b9e613baa565b5b600182019050919050565b7f4e487b7100000000000000000000000000000000000000000000000000000000600052601160045260246000fd5b7f4e487b7100000000000000000000000000000000000000000000000000000000600052601260045260246000fd5b7f4e487b7100000000000000000000000000000000000000000000000000000000600052602260045260246000fd5b7f4e487b7100000000000000000000000000000000000000000000000000000000600052603260045260246000fd5b7f4e487b7100000000000000000000000000000000000000000000000000000000600052604160045260246000fd5b600080fd5b600080fd5b600080fd5b600080fd5b600080fd5b600080fd5b6000601f19601f8301169050919050565b7f455243313135353a2062616c616e636520717565727920666f7220746865207a60008201527f65726f2061646472657373000000000000000000000000000000000000000000602082015250565b7f4f776e61626c653a206e6577206f776e657220697320746865207a65726f206160008201527f6464726573730000000000000000000000000000000000000000000000000000602082015250565b7f4f776e61626c653a2063616c6c6572206973206e6f7420746865206f776e6572600082015250565b7f455243313135353a206163636f756e747320616e6420696473206c656e67746860008201527f206d69736d617463680000000000000000000000000000000000000000000000602082015250565b613de381613a24565b8114613dee57600080fd5b50565b613dfa81613a36565b8114613e0557600080fd5b50565b613e1181613a48565b8114613e1c57600080fd5b50565b613e2881613a54565b8114613e3357600080fd5b50565b613e3f81613aa0565b8114613e4a57600080fd5b5056fea264697066735822122027711f316ed58ac0aab08f19d84fd9d22fff2eabac8ac94b5f8e46c7a81a380164736f6c63430008060033",
  "immutableReferences": {},
  "source": "// SPDX-License-Identifier: MIT\npragma solidity ^0.8.0;\n\nimport \"./creatortokenfees.sol\";\n\n/// @title Computes buy proceeds and total proceeds associated with a buy transaction\n/// @author Kamil Alizai Sadik\ncontract CreatorTokenComputation is CreatorTokenFees {\n\n\tconstructor(string memory uri) CreatorTokenFees(uri) { }\n\n\t/// @dev Calculates total transaction proceeds\n\t/// @param _tokenId ID of the token being transacted\n\t/// @param _amount Quantity of the token being transacted\n\t/// @return Total proceeds required in transaction\n\tfunction _totalProceeds(uint _tokenId, uint _amount) public view returns (uint256) {//, uint256, uint256) {//[3] memory) {\n\t\t// Compute proceedsRequired (ex-fees)\n\t\tuint proceedsRequired = _buyProceeds(_tokenId, _amount);\n\t\t// Compute feeRequired\n\t\tuint feeRequired = _feeProceeds(proceedsRequired);\n\t\t// Compute total proceeds required\n\t\tuint totalProceeds = proceedsRequired + feeRequired;\n\t\treturn totalProceeds;\n\t}\n\n\t/// @dev Calculates proceeds required for a given buy transaction (not including fees)\n\t/// @param _tokenId ID of the token being transacted\n\t/// @param _amount Quantity of the token being transacted\n\t/// @return Proceeds required in the transaction (before fees)\n\tfunction _buyProceeds(uint _tokenId, uint _amount) public view returns (uint256) {\n\t\t// Initialize proceeds required;\n\t\tuint proceedsRequired = 0;\n\t\t// Initialize pre-transaction supply\n\t\tuint startingSupply = creatorTokens[_tokenId].outstanding;\n\t\t// Compute post-transaction supply\n\t\tuint endSupply = startingSupply + _amount;\n\t\t// Compute buy proceeds\n\t\t// Check if endSupply <= maxSupply\n\t\tif (endSupply < creatorTokens[_tokenId].maxSupply) {\n\t\t\t// Scenario in which entire transaction takes place below maxSupply\n\t\t\t// Just call s(x)\n\t\t\t//proceedsRequired = _saleFunction(startingSupply, _amount, mNumerator, mDenominator, creatorTokens[_tokenId].maxSupply, profitMargin);\n\t\t\tproceedsRequired = _saleFunction(endSupply, _amount, mNumerator, mDenominator, creatorTokens[_tokenId].maxSupply, profitMargin);\n\t\t} else if (startingSupply < creatorTokens[_tokenId].maxSupply){\n\t\t\t// Scenario in which supply begins below maxSupply and ends above pre-transaction maxSupply\n\t\t\t// Use s(x) from startingSupply to maxSupply\n\t\t\tproceedsRequired = _saleFunction(creatorTokens[_tokenId].maxSupply, creatorTokens[_tokenId].maxSupply - startingSupply, mNumerator, mDenominator, creatorTokens[_tokenId].maxSupply, profitMargin);\n\t\t\t// Use b(x) from maxSupply to endSupply\n\t\t\tproceedsRequired += _buyFunction(creatorTokens[_tokenId].maxSupply, _amount - (creatorTokens[_tokenId].maxSupply - startingSupply), mNumerator, mDenominator);\n\t\t} else {\n\t\t\t// Scenario in which transaction begins at maxSupply\n\t\t\t// Just call b(x)\n\t\t\tproceedsRequired = _buyFunction(startingSupply, _amount, mNumerator, mDenominator);\n\t\t}\n\t\t// Return proceeds required\n\t\treturn proceedsRequired;\n\t}\n}",
  "sourcePath": "/Users/kamilalizaisadik/DeFi/Dynamic Automated Market Maker/CreatorTokenExchange/contracts/creatortokencomputation.sol",
  "compiler": {
    "name": "solc",
    "version": "0.8.6+commit.11564f7e.Emscripten.clang"
  },
  "schemaVersion": "3.4.1",
  "updatedAt": "2021-07-29T00:15:16.569Z",
  "devdoc": {
    "author": "Kamil Alizai Sadik",
    "kind": "dev",
    "methods": {
      "_buyProceeds(uint256,uint256)": {
        "details": "Calculates proceeds required for a given buy transaction (not including fees)",
        "params": {
          "_amount": "Quantity of the token being transacted",
          "_tokenId": "ID of the token being transacted"
        },
        "returns": {
          "_0": "Proceeds required in the transaction (before fees)"
        }
      },
      "_feeProceeds(uint256)": {
        "details": "Calculates the fee associated with a buy transaction",
        "params": {
          "_proceedsRequired": "The proceeds required for the buy transaction (before addition of fees)"
        },
        "returns": {
          "_0": "Fee associated with transaction"
        }
      },
      "_saleFunction(uint256,uint256,uint256,uint256,uint256,uint256)": {
        "details": "Calculates area under sale price function",
        "params": {
          "_amount": "Amount of token being transacted",
          "_mDenominator": "Denominator of the slope of the buy price function",
          "_mNumerator": "Numerator of the slope of the buy price function",
          "_maxSupply": "Peak level of supply of the token to date",
          "_profitMargin": "percentage of total revenue generated routed to creator",
          "_startingSupply": "Supply of token in circulation before the transaction"
        },
        "returns": {
          "_0": "Area under sale price function denoting total proceeds received when selling _amount tokens (before fees)"
        }
      },
      "_totalProceeds(uint256,uint256)": {
        "details": "Calculates total transaction proceeds",
        "params": {
          "_amount": "Quantity of the token being transacted",
          "_tokenId": "ID of the token being transacted"
        },
        "returns": {
          "_0": "Total proceeds required in transaction"
        }
      },
      "balanceOf(address,uint256)": {
        "details": "See {IERC1155-balanceOf}. Requirements: - `account` cannot be the zero address."
      },
      "balanceOfBatch(address[],uint256[])": {
        "details": "See {IERC1155-balanceOfBatch}. Requirements: - `accounts` and `ids` must have the same length."
      },
      "changeAddress(uint256,address)": {
        "details": "Allows token creator to change their address",
        "params": {
          "_newCreatorAddress": "New creator address associated with the token",
          "_tokenId": "ID of the token in question"
        }
      },
      "changeDescription(uint256,string)": {
        "details": "Allows token creator to change the description of their token",
        "params": {
          "_newDescription": "New description associated with the token",
          "_tokenId": "ID of the token in question"
        }
      },
      "changeName(uint256,string)": {
        "details": "Allows token creator to change the name of their token",
        "params": {
          "_newName": "New name associated with the token",
          "_tokenId": "ID of the token in question"
        }
      },
      "changePlatformFee(uint256)": {
        "details": "Allows owner to change platformFee",
        "params": {
          "_newPlatformFee": "New platform fee"
        }
      },
      "changeProfitMargin(uint256)": {
        "details": "Allows owner to change profit_margin",
        "params": {
          "_newProfitMargin": "New profit margin"
        }
      },
      "changeSymbol(uint256,string)": {
        "details": "Allows token creator to change the symbol of their token",
        "params": {
          "_newSymbol": "New symbol associated with the token",
          "_tokenId": "ID of the token in question"
        }
      },
      "changeVerification(uint256,bool)": {
        "details": "Allows owner to verify (or undo verification) of a CreatorToken",
        "params": {
          "_tokenId": "ID of the token in question",
          "_verified": "Verification status of the token in question"
        }
      },
      "createCreatorToken(address,string,string,string)": {
        "details": "Creates a new creator token",
        "params": {
          "_creatorAddress": "Address of the creator of the token",
          "_description": "chosen by the creator of the tokens",
          "_name": "Name chosen by the creator of the token",
          "_symbol": "Ticker symbol chosen by the creator of the token"
        }
      },
      "getCreatorTokenCount()": {
        "details": "Returns the current length of the creatorTokens array",
        "returns": {
          "_0": "uint representing number of unique Creator Tokens"
        }
      },
      "getToken(uint256)": {
        "details": "Returns token with a particular id",
        "params": {
          "_id": "Id of desired token"
        },
        "returns": {
          "_0": "CreatorToken"
        }
      },
      "isApprovedForAll(address,address)": {
        "details": "Denotes whether operator is approved to transfer account's tokens",
        "params": {
          "_account": "Wallet address holding tokens",
          "_operator": "Wallet address which is/isn't approved to transfer _account's tokens"
        },
        "returns": {
          "_0": "Boolean value indicating approval status"
        }
      },
      "owner()": {
        "details": "Returns the address of the current owner."
      },
      "payoutPlatformFees(address)": {
        "details": "Pays out platform fees owed to owner (might opt to call this daily)",
        "params": {
          "_owner": "Owner of the smart contract"
        }
      },
      "renounceOwnership()": {
        "details": "Leaves the contract without owner. It will not be possible to call `onlyOwner` functions anymore. Can only be called by the current owner. NOTE: Renouncing ownership will leave the contract without an owner, thereby removing any functionality that is only available to the owner."
      },
      "safeBatchTransferFrom(address,address,uint256[],uint256[],bytes)": {
        "details": "Transfers a batch of tokens",
        "params": {
          "_amounts": "Array of quantities of token to be transferred",
          "_data": "Data",
          "_from": "Address token is being transferred from",
          "_ids": "Array of IDs of tokens being transferred",
          "_to": "Address token is being transferred to"
        }
      },
      "safeTransferFrom(address,address,uint256,uint256,bytes)": {
        "details": "Transfers a token",
        "params": {
          "_amount": "Quantity of token to be transferred",
          "_data": "Data",
          "_from": "Address token is being transferred from",
          "_id": "ID of token being transferred",
          "_to": "Address token is being transferred to"
        }
      },
      "setApprovalForAll(address,bool)": {
        "details": "Gives operator permission to transfer caller's tokens",
        "params": {
          "_approved": "Boolean value indicating whether operator is approved",
          "_operator": "Wallet address being granted permission"
        }
      },
      "supportsInterface(bytes4)": {
        "details": "See {IERC165-supportsInterface}."
      },
      "transferOwnership(address)": {
        "details": "Transfers ownership of the contract to a new account (`newOwner`). Can only be called by the current owner."
      },
      "uri(uint256)": {
        "details": "See {IERC1155MetadataURI-uri}. This implementation returns the same URI for *all* token types. It relies on the token type ID substitution mechanism https://eips.ethereum.org/EIPS/eip-1155#metadata[defined in the EIP]. Clients calling this function must replace the `\\{id\\}` substring with the actual token type ID."
      },
      "withdraw(address)": {
        "details": "Ownable function allowing for withdrawal",
        "params": {
          "_owner": "Owner of the smart contract"
        }
      }
    },
    "title": "Computes buy proceeds and total proceeds associated with a buy transaction",
    "version": 1
  },
  "userdoc": {
    "kind": "user",
    "methods": {},
    "version": 1
  }
}