{
  "contractName": "CreatorTokenComputation",
  "abi": [
    {
      "inputs": [
        {
          "internalType": "string",
          "name": "uri",
          "type": "string"
        }
      ],
      "stateMutability": "nonpayable",
      "type": "constructor"
    },
    {
      "anonymous": false,
      "inputs": [
        {
          "indexed": true,
          "internalType": "address",
          "name": "account",
          "type": "address"
        },
        {
          "indexed": true,
          "internalType": "address",
          "name": "operator",
          "type": "address"
        },
        {
          "indexed": false,
          "internalType": "bool",
          "name": "approved",
          "type": "bool"
        }
      ],
      "name": "ApprovalForAll",
      "type": "event"
    },
    {
      "anonymous": false,
      "inputs": [
        {
          "indexed": false,
          "internalType": "uint256",
          "name": "tokenId",
          "type": "uint256"
        },
        {
          "indexed": false,
          "internalType": "address payable",
          "name": "creatorAddress",
          "type": "address"
        },
        {
          "indexed": false,
          "internalType": "string",
          "name": "name",
          "type": "string"
        },
        {
          "indexed": false,
          "internalType": "string",
          "name": "symbol",
          "type": "string"
        },
        {
          "indexed": false,
          "internalType": "string",
          "name": "description",
          "type": "string"
        },
        {
          "indexed": false,
          "internalType": "bool",
          "name": "verified",
          "type": "bool"
        },
        {
          "indexed": false,
          "internalType": "uint256",
          "name": "outstanding",
          "type": "uint256"
        },
        {
          "indexed": false,
          "internalType": "uint256",
          "name": "maxSupply",
          "type": "uint256"
        }
      ],
      "name": "NewCreatorToken",
      "type": "event"
    },
    {
      "anonymous": false,
      "inputs": [
        {
          "indexed": true,
          "internalType": "address",
          "name": "previousOwner",
          "type": "address"
        },
        {
          "indexed": true,
          "internalType": "address",
          "name": "newOwner",
          "type": "address"
        }
      ],
      "name": "OwnershipTransferred",
      "type": "event"
    },
    {
      "anonymous": false,
      "inputs": [
        {
          "indexed": false,
          "internalType": "address",
          "name": "account",
          "type": "address"
        }
      ],
      "name": "Paused",
      "type": "event"
    },
    {
      "anonymous": false,
      "inputs": [
        {
          "indexed": true,
          "internalType": "bytes32",
          "name": "role",
          "type": "bytes32"
        },
        {
          "indexed": true,
          "internalType": "bytes32",
          "name": "previousAdminRole",
          "type": "bytes32"
        },
        {
          "indexed": true,
          "internalType": "bytes32",
          "name": "newAdminRole",
          "type": "bytes32"
        }
      ],
      "name": "RoleAdminChanged",
      "type": "event"
    },
    {
      "anonymous": false,
      "inputs": [
        {
          "indexed": true,
          "internalType": "bytes32",
          "name": "role",
          "type": "bytes32"
        },
        {
          "indexed": true,
          "internalType": "address",
          "name": "account",
          "type": "address"
        },
        {
          "indexed": true,
          "internalType": "address",
          "name": "sender",
          "type": "address"
        }
      ],
      "name": "RoleGranted",
      "type": "event"
    },
    {
      "anonymous": false,
      "inputs": [
        {
          "indexed": true,
          "internalType": "bytes32",
          "name": "role",
          "type": "bytes32"
        },
        {
          "indexed": true,
          "internalType": "address",
          "name": "account",
          "type": "address"
        },
        {
          "indexed": true,
          "internalType": "address",
          "name": "sender",
          "type": "address"
        }
      ],
      "name": "RoleRevoked",
      "type": "event"
    },
    {
      "anonymous": false,
      "inputs": [
        {
          "indexed": true,
          "internalType": "address",
          "name": "operator",
          "type": "address"
        },
        {
          "indexed": true,
          "internalType": "address",
          "name": "from",
          "type": "address"
        },
        {
          "indexed": true,
          "internalType": "address",
          "name": "to",
          "type": "address"
        },
        {
          "indexed": false,
          "internalType": "uint256[]",
          "name": "ids",
          "type": "uint256[]"
        },
        {
          "indexed": false,
          "internalType": "uint256[]",
          "name": "values",
          "type": "uint256[]"
        }
      ],
      "name": "TransferBatch",
      "type": "event"
    },
    {
      "anonymous": false,
      "inputs": [
        {
          "indexed": true,
          "internalType": "address",
          "name": "operator",
          "type": "address"
        },
        {
          "indexed": true,
          "internalType": "address",
          "name": "from",
          "type": "address"
        },
        {
          "indexed": true,
          "internalType": "address",
          "name": "to",
          "type": "address"
        },
        {
          "indexed": false,
          "internalType": "uint256",
          "name": "id",
          "type": "uint256"
        },
        {
          "indexed": false,
          "internalType": "uint256",
          "name": "value",
          "type": "uint256"
        }
      ],
      "name": "TransferSingle",
      "type": "event"
    },
    {
      "anonymous": false,
      "inputs": [
        {
          "indexed": false,
          "internalType": "string",
          "name": "value",
          "type": "string"
        },
        {
          "indexed": true,
          "internalType": "uint256",
          "name": "id",
          "type": "uint256"
        }
      ],
      "name": "URI",
      "type": "event"
    },
    {
      "anonymous": false,
      "inputs": [
        {
          "indexed": false,
          "internalType": "address",
          "name": "account",
          "type": "address"
        }
      ],
      "name": "Unpaused",
      "type": "event"
    },
    {
      "inputs": [],
      "name": "DEFAULT_ADMIN_ROLE",
      "outputs": [
        {
          "internalType": "bytes32",
          "name": "",
          "type": "bytes32"
        }
      ],
      "stateMutability": "view",
      "type": "function"
    },
    {
      "inputs": [],
      "name": "MINTER_ROLE",
      "outputs": [
        {
          "internalType": "bytes32",
          "name": "",
          "type": "bytes32"
        }
      ],
      "stateMutability": "view",
      "type": "function"
    },
    {
      "inputs": [],
      "name": "PAUSER_ROLE",
      "outputs": [
        {
          "internalType": "bytes32",
          "name": "",
          "type": "bytes32"
        }
      ],
      "stateMutability": "view",
      "type": "function"
    },
    {
      "inputs": [
        {
          "internalType": "uint256",
          "name": "_proceedsRequired",
          "type": "uint256"
        }
      ],
      "name": "_feeProceeds",
      "outputs": [
        {
          "internalType": "uint256",
          "name": "",
          "type": "uint256"
        }
      ],
      "stateMutability": "view",
      "type": "function"
    },
    {
      "inputs": [
        {
          "internalType": "address",
          "name": "_account",
          "type": "address"
        },
        {
          "internalType": "uint256",
          "name": "_id",
          "type": "uint256"
        }
      ],
      "name": "balanceOf",
      "outputs": [
        {
          "internalType": "uint256",
          "name": "",
          "type": "uint256"
        }
      ],
      "stateMutability": "view",
      "type": "function"
    },
    {
      "inputs": [
        {
          "internalType": "address[]",
          "name": "_accounts",
          "type": "address[]"
        },
        {
          "internalType": "uint256[]",
          "name": "_ids",
          "type": "uint256[]"
        }
      ],
      "name": "balanceOfBatch",
      "outputs": [
        {
          "internalType": "uint256[]",
          "name": "",
          "type": "uint256[]"
        }
      ],
      "stateMutability": "view",
      "type": "function"
    },
    {
      "inputs": [
        {
          "internalType": "address",
          "name": "_account",
          "type": "address"
        },
        {
          "internalType": "uint256",
          "name": "_id",
          "type": "uint256"
        },
        {
          "internalType": "uint256",
          "name": "_amount",
          "type": "uint256"
        }
      ],
      "name": "burn",
      "outputs": [],
      "stateMutability": "nonpayable",
      "type": "function"
    },
    {
      "inputs": [
        {
          "internalType": "address",
          "name": "_account",
          "type": "address"
        },
        {
          "internalType": "uint256[]",
          "name": "_ids",
          "type": "uint256[]"
        },
        {
          "internalType": "uint256[]",
          "name": "_amounts",
          "type": "uint256[]"
        }
      ],
      "name": "burnBatch",
      "outputs": [],
      "stateMutability": "nonpayable",
      "type": "function"
    },
    {
      "inputs": [
        {
          "internalType": "uint256",
          "name": "_tokenId",
          "type": "uint256"
        },
        {
          "internalType": "address payable",
          "name": "_newCreatorAddress",
          "type": "address"
        }
      ],
      "name": "changeAddress",
      "outputs": [],
      "stateMutability": "nonpayable",
      "type": "function"
    },
    {
      "inputs": [
        {
          "internalType": "uint256",
          "name": "_tokenId",
          "type": "uint256"
        },
        {
          "internalType": "string",
          "name": "_newDescription",
          "type": "string"
        }
      ],
      "name": "changeDescription",
      "outputs": [],
      "stateMutability": "nonpayable",
      "type": "function"
    },
    {
      "inputs": [
        {
          "internalType": "uint256",
          "name": "_tokenId",
          "type": "uint256"
        },
        {
          "internalType": "string",
          "name": "_newName",
          "type": "string"
        }
      ],
      "name": "changeName",
      "outputs": [],
      "stateMutability": "nonpayable",
      "type": "function"
    },
    {
      "inputs": [
        {
          "internalType": "uint256",
          "name": "_newPlatformFee",
          "type": "uint256"
        }
      ],
      "name": "changePlatformFee",
      "outputs": [],
      "stateMutability": "nonpayable",
      "type": "function"
    },
    {
      "inputs": [
        {
          "internalType": "uint256",
          "name": "_newProfitMargin",
          "type": "uint256"
        }
      ],
      "name": "changeProfitMargin",
      "outputs": [],
      "stateMutability": "nonpayable",
      "type": "function"
    },
    {
      "inputs": [
        {
          "internalType": "uint256",
          "name": "_tokenId",
          "type": "uint256"
        },
        {
          "internalType": "string",
          "name": "_newSymbol",
          "type": "string"
        }
      ],
      "name": "changeSymbol",
      "outputs": [],
      "stateMutability": "nonpayable",
      "type": "function"
    },
    {
      "inputs": [
        {
          "internalType": "uint256",
          "name": "_tokenId",
          "type": "uint256"
        },
        {
          "internalType": "bool",
          "name": "_verified",
          "type": "bool"
        }
      ],
      "name": "changeVerification",
      "outputs": [],
      "stateMutability": "nonpayable",
      "type": "function"
    },
    {
      "inputs": [
        {
          "internalType": "address payable",
          "name": "_creatorAddress",
          "type": "address"
        },
        {
          "internalType": "string",
          "name": "_name",
          "type": "string"
        },
        {
          "internalType": "string",
          "name": "_symbol",
          "type": "string"
        },
        {
          "internalType": "string",
          "name": "_description",
          "type": "string"
        }
      ],
      "name": "createCreatorToken",
      "outputs": [],
      "stateMutability": "nonpayable",
      "type": "function"
    },
    {
      "inputs": [
        {
          "internalType": "uint256",
          "name": "",
          "type": "uint256"
        }
      ],
      "name": "creatorTokens",
      "outputs": [
        {
          "internalType": "address payable",
          "name": "creatorAddress",
          "type": "address"
        },
        {
          "internalType": "string",
          "name": "name",
          "type": "string"
        },
        {
          "internalType": "string",
          "name": "symbol",
          "type": "string"
        },
        {
          "internalType": "string",
          "name": "description",
          "type": "string"
        },
        {
          "internalType": "bool",
          "name": "verified",
          "type": "bool"
        },
        {
          "internalType": "uint256",
          "name": "outstanding",
          "type": "uint256"
        },
        {
          "internalType": "uint256",
          "name": "maxSupply",
          "type": "uint256"
        }
      ],
      "stateMutability": "view",
      "type": "function"
    },
    {
      "inputs": [
        {
          "internalType": "bytes32",
          "name": "role",
          "type": "bytes32"
        }
      ],
      "name": "getRoleAdmin",
      "outputs": [
        {
          "internalType": "bytes32",
          "name": "",
          "type": "bytes32"
        }
      ],
      "stateMutability": "view",
      "type": "function"
    },
    {
      "inputs": [
        {
          "internalType": "bytes32",
          "name": "role",
          "type": "bytes32"
        },
        {
          "internalType": "uint256",
          "name": "index",
          "type": "uint256"
        }
      ],
      "name": "getRoleMember",
      "outputs": [
        {
          "internalType": "address",
          "name": "",
          "type": "address"
        }
      ],
      "stateMutability": "view",
      "type": "function"
    },
    {
      "inputs": [
        {
          "internalType": "bytes32",
          "name": "role",
          "type": "bytes32"
        }
      ],
      "name": "getRoleMemberCount",
      "outputs": [
        {
          "internalType": "uint256",
          "name": "",
          "type": "uint256"
        }
      ],
      "stateMutability": "view",
      "type": "function"
    },
    {
      "inputs": [
        {
          "internalType": "bytes32",
          "name": "role",
          "type": "bytes32"
        },
        {
          "internalType": "address",
          "name": "account",
          "type": "address"
        }
      ],
      "name": "grantRole",
      "outputs": [],
      "stateMutability": "nonpayable",
      "type": "function"
    },
    {
      "inputs": [
        {
          "internalType": "bytes32",
          "name": "role",
          "type": "bytes32"
        },
        {
          "internalType": "address",
          "name": "account",
          "type": "address"
        }
      ],
      "name": "hasRole",
      "outputs": [
        {
          "internalType": "bool",
          "name": "",
          "type": "bool"
        }
      ],
      "stateMutability": "view",
      "type": "function"
    },
    {
      "inputs": [
        {
          "internalType": "address",
          "name": "_account",
          "type": "address"
        },
        {
          "internalType": "address",
          "name": "_operator",
          "type": "address"
        }
      ],
      "name": "isApprovedForAll",
      "outputs": [
        {
          "internalType": "bool",
          "name": "",
          "type": "bool"
        }
      ],
      "stateMutability": "view",
      "type": "function"
    },
    {
      "inputs": [
        {
          "internalType": "address",
          "name": "_account",
          "type": "address"
        },
        {
          "internalType": "uint256",
          "name": "_id",
          "type": "uint256"
        },
        {
          "internalType": "uint256",
          "name": "_amount",
          "type": "uint256"
        }
      ],
      "name": "mappingDecrease",
      "outputs": [],
      "stateMutability": "nonpayable",
      "type": "function"
    },
    {
      "inputs": [
        {
          "internalType": "address",
          "name": "_account",
          "type": "address"
        },
        {
          "internalType": "uint256",
          "name": "_id",
          "type": "uint256"
        },
        {
          "internalType": "uint256",
          "name": "_amount",
          "type": "uint256"
        }
      ],
      "name": "mappingIncrease",
      "outputs": [],
      "stateMutability": "nonpayable",
      "type": "function"
    },
    {
      "inputs": [
        {
          "internalType": "address",
          "name": "_to",
          "type": "address"
        },
        {
          "internalType": "uint256",
          "name": "_id",
          "type": "uint256"
        },
        {
          "internalType": "uint256",
          "name": "_amount",
          "type": "uint256"
        },
        {
          "internalType": "bytes",
          "name": "_data",
          "type": "bytes"
        }
      ],
      "name": "mint",
      "outputs": [],
      "stateMutability": "nonpayable",
      "type": "function"
    },
    {
      "inputs": [
        {
          "internalType": "address",
          "name": "_to",
          "type": "address"
        },
        {
          "internalType": "uint256[]",
          "name": "_ids",
          "type": "uint256[]"
        },
        {
          "internalType": "uint256[]",
          "name": "_amounts",
          "type": "uint256[]"
        },
        {
          "internalType": "bytes",
          "name": "data",
          "type": "bytes"
        }
      ],
      "name": "mintBatch",
      "outputs": [],
      "stateMutability": "nonpayable",
      "type": "function"
    },
    {
      "inputs": [],
      "name": "owner",
      "outputs": [
        {
          "internalType": "address",
          "name": "",
          "type": "address"
        }
      ],
      "stateMutability": "view",
      "type": "function"
    },
    {
      "inputs": [],
      "name": "pause",
      "outputs": [],
      "stateMutability": "nonpayable",
      "type": "function"
    },
    {
      "inputs": [],
      "name": "paused",
      "outputs": [
        {
          "internalType": "bool",
          "name": "",
          "type": "bool"
        }
      ],
      "stateMutability": "view",
      "type": "function"
    },
    {
      "inputs": [
        {
          "internalType": "address payable",
          "name": "_owner",
          "type": "address"
        }
      ],
      "name": "payoutPlatformFees",
      "outputs": [],
      "stateMutability": "nonpayable",
      "type": "function"
    },
    {
      "inputs": [],
      "name": "renounceOwnership",
      "outputs": [],
      "stateMutability": "nonpayable",
      "type": "function"
    },
    {
      "inputs": [
        {
          "internalType": "bytes32",
          "name": "role",
          "type": "bytes32"
        },
        {
          "internalType": "address",
          "name": "account",
          "type": "address"
        }
      ],
      "name": "renounceRole",
      "outputs": [],
      "stateMutability": "nonpayable",
      "type": "function"
    },
    {
      "inputs": [
        {
          "internalType": "bytes32",
          "name": "role",
          "type": "bytes32"
        },
        {
          "internalType": "address",
          "name": "account",
          "type": "address"
        }
      ],
      "name": "revokeRole",
      "outputs": [],
      "stateMutability": "nonpayable",
      "type": "function"
    },
    {
      "inputs": [
        {
          "internalType": "address",
          "name": "_from",
          "type": "address"
        },
        {
          "internalType": "address",
          "name": "_to",
          "type": "address"
        },
        {
          "internalType": "uint256[]",
          "name": "_ids",
          "type": "uint256[]"
        },
        {
          "internalType": "uint256[]",
          "name": "_amounts",
          "type": "uint256[]"
        },
        {
          "internalType": "bytes",
          "name": "data",
          "type": "bytes"
        }
      ],
      "name": "safeBatchTransferFrom",
      "outputs": [],
      "stateMutability": "nonpayable",
      "type": "function"
    },
    {
      "inputs": [
        {
          "internalType": "address",
          "name": "_from",
          "type": "address"
        },
        {
          "internalType": "address",
          "name": "_to",
          "type": "address"
        },
        {
          "internalType": "uint256",
          "name": "_id",
          "type": "uint256"
        },
        {
          "internalType": "uint256",
          "name": "_amount",
          "type": "uint256"
        },
        {
          "internalType": "bytes",
          "name": "_data",
          "type": "bytes"
        }
      ],
      "name": "safeTransferFrom",
      "outputs": [],
      "stateMutability": "nonpayable",
      "type": "function"
    },
    {
      "inputs": [
        {
          "internalType": "address",
          "name": "_operator",
          "type": "address"
        },
        {
          "internalType": "bool",
          "name": "_approved",
          "type": "bool"
        }
      ],
      "name": "setApprovalForAll",
      "outputs": [],
      "stateMutability": "nonpayable",
      "type": "function"
    },
    {
      "inputs": [
        {
          "internalType": "bytes4",
          "name": "interfaceId",
          "type": "bytes4"
        }
      ],
      "name": "supportsInterface",
      "outputs": [
        {
          "internalType": "bool",
          "name": "",
          "type": "bool"
        }
      ],
      "stateMutability": "view",
      "type": "function"
    },
    {
      "inputs": [
        {
          "internalType": "uint256",
          "name": "",
          "type": "uint256"
        },
        {
          "internalType": "address",
          "name": "",
          "type": "address"
        }
      ],
      "name": "tokenHoldership",
      "outputs": [
        {
          "internalType": "uint256",
          "name": "",
          "type": "uint256"
        }
      ],
      "stateMutability": "view",
      "type": "function"
    },
    {
      "inputs": [
        {
          "internalType": "uint256",
          "name": "",
          "type": "uint256"
        }
      ],
      "name": "tokenToCreator",
      "outputs": [
        {
          "internalType": "address",
          "name": "",
          "type": "address"
        }
      ],
      "stateMutability": "view",
      "type": "function"
    },
    {
      "inputs": [
        {
          "internalType": "address",
          "name": "newOwner",
          "type": "address"
        }
      ],
      "name": "transferOwnership",
      "outputs": [],
      "stateMutability": "nonpayable",
      "type": "function"
    },
    {
      "inputs": [],
      "name": "unpause",
      "outputs": [],
      "stateMutability": "nonpayable",
      "type": "function"
    },
    {
      "inputs": [
        {
          "internalType": "uint256",
          "name": "",
          "type": "uint256"
        }
      ],
      "name": "uri",
      "outputs": [
        {
          "internalType": "string",
          "name": "",
          "type": "string"
        }
      ],
      "stateMutability": "view",
      "type": "function"
    },
    {
      "inputs": [
        {
          "internalType": "address",
          "name": "",
          "type": "address"
        },
        {
          "internalType": "uint256",
          "name": "",
          "type": "uint256"
        }
      ],
      "name": "userToHoldings",
      "outputs": [
        {
          "internalType": "uint256",
          "name": "",
          "type": "uint256"
        }
      ],
      "stateMutability": "view",
      "type": "function"
    },
    {
      "inputs": [
        {
          "internalType": "address payable",
          "name": "_owner",
          "type": "address"
        }
      ],
      "name": "withdraw",
      "outputs": [],
      "stateMutability": "nonpayable",
      "type": "function"
    },
    {
      "inputs": [
        {
          "internalType": "uint256",
          "name": "_tokenId",
          "type": "uint256"
        },
        {
          "internalType": "uint256",
          "name": "_amount",
          "type": "uint256"
        }
      ],
      "name": "_totalProceeds",
      "outputs": [
        {
          "internalType": "uint256",
          "name": "",
          "type": "uint256"
        }
      ],
      "stateMutability": "view",
      "type": "function"
    },
    {
      "inputs": [
        {
          "internalType": "uint256",
          "name": "_tokenId",
          "type": "uint256"
        },
        {
          "internalType": "uint256",
          "name": "_amount",
          "type": "uint256"
        }
      ],
      "name": "_buyProceeds",
      "outputs": [
        {
          "internalType": "uint256",
          "name": "",
          "type": "uint256"
        }
      ],
      "stateMutability": "view",
      "type": "function"
    }
  ],
  "bytecode": "0x60806040526001805560006002556000600355601460045565082f79cd900060055560b96006553480156200003357600080fd5b5060405162005a3038038062005a308339818101604052810190620000599190620005ce565b8080808080600062000070620001ec60201b60201c565b9050806000806101000a81548173ffffffffffffffffffffffffffffffffffffffff021916908373ffffffffffffffffffffffffffffffffffffffff1602179055508073ffffffffffffffffffffffffffffffffffffffff16600073ffffffffffffffffffffffffffffffffffffffff167f8be0079c531659141344cd1fd0a4f28419497f9722a3daafe3b4186f6b6457e060405160405180910390a3506200011f81620001f460201b60201c565b506000601260006101000a81548160ff0219169083151502179055506200015f6000801b62000153620001ec60201b60201c565b6200021060201b60201c565b620001a07f9f2df0fed2c77648de5860a4cc508cd0818c85b8b8a1ab4ceeef8d981c8956a662000194620001ec60201b60201c565b6200021060201b60201c565b620001e17f65d7a28e3265b37a6474929f336521b332c1681b933f6cb9f3376673440d862a620001d5620001ec60201b60201c565b6200021060201b60201c565b5050505050620007a3565b600033905090565b80601190805190602001906200020c929190620004a0565b5050565b6200022782826200025860201b6200275c1760201c565b6200025381600e60008581526020019081526020016000206200026e60201b6200276a1790919060201c565b505050565b6200026a8282620002a660201b60201c565b5050565b60006200029e836000018373ffffffffffffffffffffffffffffffffffffffff1660001b6200039860201b60201c565b905092915050565b620002b882826200041260201b60201c565b62000394576001600d600084815260200190815260200160002060000160008373ffffffffffffffffffffffffffffffffffffffff1673ffffffffffffffffffffffffffffffffffffffff16815260200190815260200160002060006101000a81548160ff02191690831515021790555062000339620001ec60201b60201c565b73ffffffffffffffffffffffffffffffffffffffff168173ffffffffffffffffffffffffffffffffffffffff16837f2f8788117e7eff1d82e926ec794901d17c78024a50270940304540a733656f0d60405160405180910390a45b5050565b6000620003ac83836200047d60201b60201c565b620004075782600001829080600181540180825580915050600190039060005260206000200160009091909190915055826000018054905083600101600084815260200190815260200160002081905550600190506200040c565b600090505b92915050565b6000600d600084815260200190815260200160002060000160008373ffffffffffffffffffffffffffffffffffffffff1673ffffffffffffffffffffffffffffffffffffffff16815260200190815260200160002060009054906101000a900460ff16905092915050565b600080836001016000848152602001908152602001600020541415905092915050565b828054620004ae90620006b4565b90600052602060002090601f016020900481019282620004d257600085556200051e565b82601f10620004ed57805160ff19168380011785556200051e565b828001600101855582156200051e579182015b828111156200051d57825182559160200191906001019062000500565b5b5090506200052d919062000531565b5090565b5b808211156200054c57600081600090555060010162000532565b5090565b600062000567620005618462000648565b6200061f565b90508281526020810184848401111562000586576200058562000783565b5b620005938482856200067e565b509392505050565b600082601f830112620005b357620005b26200077e565b5b8151620005c584826020860162000550565b91505092915050565b600060208284031215620005e757620005e66200078d565b5b600082015167ffffffffffffffff81111562000608576200060762000788565b5b62000616848285016200059b565b91505092915050565b60006200062b6200063e565b9050620006398282620006ea565b919050565b6000604051905090565b600067ffffffffffffffff8211156200066657620006656200074f565b5b620006718262000792565b9050602081019050919050565b60005b838110156200069e57808201518184015260208101905062000681565b83811115620006ae576000848401525b50505050565b60006002820490506001821680620006cd57607f821691505b60208210811415620006e457620006e362000720565b5b50919050565b620006f58262000792565b810181811067ffffffffffffffff821117156200071757620007166200074f565b5b80604052505050565b7f4e487b7100000000000000000000000000000000000000000000000000000000600052602260045260246000fd5b7f4e487b7100000000000000000000000000000000000000000000000000000000600052604160045260246000fd5b600080fd5b600080fd5b600080fd5b600080fd5b6000601f19601f8301169050919050565b61527d80620007b36000396000f3fe608060405234801561001057600080fd5b50600436106102945760003560e01c80639010d07c11610167578063d547741f116100ce578063eb84175911610087578063eb8417591461082f578063f242432a1461084b578063f2fde38b14610867578063f5298aca14610883578063f56e71b41461089f578063f7374e2e146108bb57610294565b8063d547741f14610771578063d56b72c71461078d578063d7a5791a146107a9578063de6a06ed146107c5578063e63ab1e9146107e1578063e985e9c5146107ff57610294565b8063bfb48c9c11610120578063bfb48c9c14610685578063c39cbef1146106b5578063c539c317146106d1578063ca15c873146106ed578063ce901d8a1461071d578063d53913931461075357610294565b80639010d07c1461058b57806391d14854146105bb57806392724afa146105eb578063a217fddf1461061b578063a22cb46514610639578063ba111a051461065557610294565b806336568abe1161020b5780635d4222cd116101c45780635d4222cd146105055780636b20c45414610521578063715018a61461053d578063731133e9146105475780638456cb59146105635780638da5cb5b1461056d57610294565b806336568abe146104455780633f4ba83a146104615780634e1273f41461046b5780634fe477d81461049b57806351cff8d9146104cb5780635c975abb146104e757610294565b80631d5ad18b1161025d5780631d5ad18b146103755780631f7fdffa14610391578063248a9ca3146103ad5780632eb2c2d6146103dd5780632f2ff15d146103f957806335a8ae211461041557610294565b8062fdd58e1461029957806301ffc9a7146102c957806306e320f5146102f95780630e89341c1461031557806318892ae814610345575b600080fd5b6102b360048036038101906102ae9190613fc8565b6108d7565b6040516102c0919061493a565b60405180910390f35b6102e360048036038101906102de919061420c565b610932565b6040516102f091906147c2565b60405180910390f35b610313600480360381019061030e9190614326565b610944565b005b61032f600480360381019061032a9190614239565b6109eb565b60405161033c91906147f8565b60405180910390f35b61035f600480360381019061035a9190614239565b610a7f565b60405161036c91906146ca565b60405180910390f35b61038f600480360381019061038a91906142a6565b610ab2565b005b6103ab60048036038101906103a69190613ecd565b610b87565b005b6103c760048036038101906103c2919061415f565b610cdb565b6040516103d491906147dd565b60405180910390f35b6103f760048036038101906103f29190613cdc565b610cfb565b005b610413600480360381019061040e919061418c565b610e1e565b005b61042f600480360381019061042a9190614386565b610e52565b60405161043c919061493a565b60405180910390f35b61045f600480360381019061045a919061418c565b610e8a565b005b610469610ebe565b005b610485600480360381019061048091906140de565b610f38565b6040516104929190614769565b60405180910390f35b6104b560048036038101906104b09190614386565b611068565b6040516104c2919061493a565b60405180910390f35b6104e560048036038101906104e09190613bb4565b611275565b005b6104ef61133b565b6040516104fc91906147c2565b60405180910390f35b61051f600480360381019061051a9190614008565b611352565b005b61053b60048036038101906105369190613e42565b611425565b005b610545611578565b005b610561600480360381019061055c919061405b565b6116b2565b005b61056b61177e565b005b6105756117f8565b60405161058291906146ca565b60405180910390f35b6105a560048036038101906105a091906141cc565b611821565b6040516105b291906146ca565b60405180910390f35b6105d560048036038101906105d0919061418c565b611850565b6040516105e291906147c2565b60405180910390f35b61060560048036038101906106009190613fc8565b6118bb565b604051610612919061493a565b60405180910390f35b6106236118e0565b60405161063091906147dd565b60405180910390f35b610653600480360381019061064e9190613f88565b6118e7565b005b61066f600480360381019061066a9190614239565b6119e4565b60405161067c919061493a565b60405180910390f35b61069f600480360381019061069a9190614266565b611a07565b6040516106ac919061493a565b60405180910390f35b6106cf60048036038101906106ca9190614326565b611a2c565b005b6106eb60048036038101906106e69190614239565b611ad3565b005b6107076004803603810190610702919061415f565b611b59565b604051610714919061493a565b60405180910390f35b61073760048036038101906107329190614239565b611b7d565b60405161074a97969594939291906146e5565b60405180910390f35b61075b611d94565b60405161076891906147dd565b60405180910390f35b61078b6004803603810190610786919061418c565b611db8565b005b6107a760048036038101906107a29190613be1565b611dec565b005b6107c360048036038101906107be9190614239565b612008565b005b6107df60048036038101906107da9190614326565b61208e565b005b6107e9612135565b6040516107f691906147dd565b60405180910390f35b61081960048036038101906108149190613c9c565b612159565b60405161082691906147c2565b60405180910390f35b61084960048036038101906108449190613bb4565b6121ed565b005b61086560048036038101906108609190613dab565b6122bd565b005b610881600480360381019061087c9190613b87565b612358565b005b61089d60048036038101906108989190614008565b612501565b005b6108b960048036038101906108b49190614008565b6125cc565b005b6108d560048036038101906108d091906142e6565b61269f565b005b6000600a600083815260200190815260200160002060008473ffffffffffffffffffffffffffffffffffffffff1673ffffffffffffffffffffffffffffffffffffffff16815260200190815260200160002054905092915050565b600061093d8261279a565b9050919050565b826008600082815260200190815260200160002060009054906101000a900473ffffffffffffffffffffffffffffffffffffffff1673ffffffffffffffffffffffffffffffffffffffff163373ffffffffffffffffffffffffffffffffffffffff16146109b057600080fd5b8282600786815481106109c6576109c5614eaf565b5b906000526020600020906007020160020191906109e4929190613760565b5050505050565b6060601180546109fa90614d47565b80601f0160208091040260200160405190810160405280929190818152602001828054610a2690614d47565b8015610a735780601f10610a4857610100808354040283529160200191610a73565b820191906000526020600020905b815481529060010190602001808311610a5657829003601f168201915b50505050509050919050565b60086020528060005260406000206000915054906101000a900473ffffffffffffffffffffffffffffffffffffffff1681565b816008600082815260200190815260200160002060009054906101000a900473ffffffffffffffffffffffffffffffffffffffff1673ffffffffffffffffffffffffffffffffffffffff163373ffffffffffffffffffffffffffffffffffffffff1614610b1e57600080fd5b8160078481548110610b3357610b32614eaf565b5b906000526020600020906007020160000160006101000a81548173ffffffffffffffffffffffffffffffffffffffff021916908373ffffffffffffffffffffffffffffffffffffffff160217905550505050565b60005b8351811015610c5557610bd285858381518110610baa57610ba9614eaf565b5b6020026020010151858481518110610bc557610bc4614eaf565b5b6020026020010151611352565b828181518110610be557610be4614eaf565b5b60200260200101516007858381518110610c0257610c01614eaf565b5b602002602001015181548110610c1b57610c1a614eaf565b5b90600052602060002090600702016005016000828254610c3b9190614b24565b925050819055508080610c4d90614daa565b915050610b8a565b508373ffffffffffffffffffffffffffffffffffffffff16600073ffffffffffffffffffffffffffffffffffffffff163373ffffffffffffffffffffffffffffffffffffffff167f4a39dc06d4c0dbc64b70af90fd698a233a518aa5d07e595d983b8c0526c8f7fb8686604051610ccd92919061478b565b60405180910390a450505050565b6000600d6000838152602001908152602001600020600101549050919050565b60005b8351811015610d9857610d4686858381518110610d1e57610d1d614eaf565b5b6020026020010151858481518110610d3957610d38614eaf565b5b60200260200101516125cc565b610d8585858381518110610d5d57610d5c614eaf565b5b6020026020010151858481518110610d7857610d77614eaf565b5b6020026020010151611352565b8080610d9090614daa565b915050610cfe565b508373ffffffffffffffffffffffffffffffffffffffff168573ffffffffffffffffffffffffffffffffffffffff163373ffffffffffffffffffffffffffffffffffffffff167f4a39dc06d4c0dbc64b70af90fd698a233a518aa5d07e595d983b8c0526c8f7fb8686604051610e0f92919061478b565b60405180910390a45050505050565b610e28828261287c565b610e4d81600e600085815260200190815260200160002061276a90919063ffffffff16565b505050565b600080610e5f8484611068565b90506000610e6c826119e4565b905060008183610e7c9190614b24565b905080935050505092915050565b610e9482826128a5565b610eb981600e600085815260200190815260200160002061292890919063ffffffff16565b505050565b610eef7f65d7a28e3265b37a6474929f336521b332c1681b933f6cb9f3376673440d862a610eea612958565b611850565b610f2e576040517f08c379a0000000000000000000000000000000000000000000000000000000008152600401610f25906148da565b60405180910390fd5b610f36612960565b565b606060008585905067ffffffffffffffff811115610f5957610f58614ede565b5b604051908082528060200260200182016040528015610f875781602001602082028036833780820191505090505b50905060005b8686905081101561105b57600a6000868684818110610faf57610fae614eaf565b5b9050602002013581526020019081526020016000206000888884818110610fd957610fd8614eaf565b5b9050602002016020810190610fee9190613b87565b73ffffffffffffffffffffffffffffffffffffffff1673ffffffffffffffffffffffffffffffffffffffff1681526020019081526020016000205482828151811061103c5761103b614eaf565b5b602002602001018181525050808061105390614daa565b915050610f8d565b5080915050949350505050565b6000806000905060006007858154811061108557611084614eaf565b5b9060005260206000209060070201600501549050600084826110a79190614b24565b9050600786815481106110bd576110bc614eaf565b5b9060005260206000209060070201600601548110156111165761110f818660055460065460078b815481106110f5576110f4614eaf565b5b906000526020600020906007020160060154600454612a02565b9250611269565b6007868154811061112a57611129614eaf565b5b906000526020600020906007020160060154821015611255576111d16007878154811061115a57611159614eaf565b5b906000526020600020906007020160060154836007898154811061118157611180614eaf565b5b90600052602060002090600702016006015461119d9190614c05565b60055460065460078b815481106111b7576111b6614eaf565b5b906000526020600020906007020160060154600454612a02565b9250611243600787815481106111ea576111e9614eaf565b5b906000526020600020906007020160060154836007898154811061121157611210614eaf565b5b90600052602060002090600702016006015461122d9190614c05565b876112389190614c05565b600554600654612a7b565b8361124e9190614b24565b9250611268565b6112658286600554600654612a7b565b92505b5b82935050505092915050565b61127d612958565b73ffffffffffffffffffffffffffffffffffffffff1661129b6117f8565b73ffffffffffffffffffffffffffffffffffffffff16146112f1576040517f08c379a00000000000000000000000000000000000000000000000000000000081526004016112e8906148ba565b60405180910390fd5b8073ffffffffffffffffffffffffffffffffffffffff166108fc479081150290604051600060405180830381858888f19350505050158015611337573d6000803e3d6000fd5b5050565b6000601260009054906101000a900460ff16905090565b80600a600084815260200190815260200160002060008573ffffffffffffffffffffffffffffffffffffffff1673ffffffffffffffffffffffffffffffffffffffff16815260200190815260200160002060008282546113b29190614b24565b9250508190555080600b60008573ffffffffffffffffffffffffffffffffffffffff1673ffffffffffffffffffffffffffffffffffffffff168152602001908152602001600020600084815260200190815260200160002060008282546114199190614b24565b92505081905550505050565b60005b82518110156114f3576114708484838151811061144857611447614eaf565b5b602002602001015184848151811061146357611462614eaf565b5b60200260200101516125cc565b81818151811061148357611482614eaf565b5b602002602001015160078483815181106114a05761149f614eaf565b5b6020026020010151815481106114b9576114b8614eaf565b5b906000526020600020906007020160050160008282546114d99190614c05565b9250508190555080806114eb90614daa565b915050611428565b50600073ffffffffffffffffffffffffffffffffffffffff168373ffffffffffffffffffffffffffffffffffffffff163373ffffffffffffffffffffffffffffffffffffffff167f4a39dc06d4c0dbc64b70af90fd698a233a518aa5d07e595d983b8c0526c8f7fb858560405161156b92919061478b565b60405180910390a4505050565b611580612958565b73ffffffffffffffffffffffffffffffffffffffff1661159e6117f8565b73ffffffffffffffffffffffffffffffffffffffff16146115f4576040517f08c379a00000000000000000000000000000000000000000000000000000000081526004016115eb906148ba565b60405180910390fd5b600073ffffffffffffffffffffffffffffffffffffffff1660008054906101000a900473ffffffffffffffffffffffffffffffffffffffff1673ffffffffffffffffffffffffffffffffffffffff167f8be0079c531659141344cd1fd0a4f28419497f9722a3daafe3b4186f6b6457e060405160405180910390a360008060006101000a81548173ffffffffffffffffffffffffffffffffffffffff021916908373ffffffffffffffffffffffffffffffffffffffff160217905550565b6116bd848484611352565b81600784815481106116d2576116d1614eaf565b5b906000526020600020906007020160050160008282546116f29190614b24565b925050819055508373ffffffffffffffffffffffffffffffffffffffff16600073ffffffffffffffffffffffffffffffffffffffff163373ffffffffffffffffffffffffffffffffffffffff167fc3d58168c5ae7397731d063d5bbf3d657854427343f4c083240f7aacaa2d0f6286866040516117709291906149e8565b60405180910390a450505050565b6117af7f65d7a28e3265b37a6474929f336521b332c1681b933f6cb9f3376673440d862a6117aa612958565b611850565b6117ee576040517f08c379a00000000000000000000000000000000000000000000000000000000081526004016117e5906148fa565b60405180910390fd5b6117f6612b09565b565b60008060009054906101000a900473ffffffffffffffffffffffffffffffffffffffff16905090565b600061184882600e6000868152602001908152602001600020612bac90919063ffffffff16565b905092915050565b6000600d600084815260200190815260200160002060000160008373ffffffffffffffffffffffffffffffffffffffff1673ffffffffffffffffffffffffffffffffffffffff16815260200190815260200160002060009054906101000a900460ff16905092915050565b600b602052816000526040600020602052806000526040600020600091509150505481565b6000801b81565b80600c60003373ffffffffffffffffffffffffffffffffffffffff1673ffffffffffffffffffffffffffffffffffffffff16815260200190815260200160002060008473ffffffffffffffffffffffffffffffffffffffff1673ffffffffffffffffffffffffffffffffffffffff16815260200190815260200160002060006101000a81548160ff0219169083151502179055508173ffffffffffffffffffffffffffffffffffffffff163373ffffffffffffffffffffffffffffffffffffffff167f17307eab39ab6107e8899845ad3d59bd9653f200f220920489ca2b5937696c31836040516119d891906147c2565b60405180910390a35050565b60006064600154836119f69190614bab565b611a009190614b7a565b9050919050565b600a602052816000526040600020602052806000526040600020600091509150505481565b826008600082815260200190815260200160002060009054906101000a900473ffffffffffffffffffffffffffffffffffffffff1673ffffffffffffffffffffffffffffffffffffffff163373ffffffffffffffffffffffffffffffffffffffff1614611a9857600080fd5b828260078681548110611aae57611aad614eaf565b5b90600052602060002090600702016001019190611acc929190613760565b5050505050565b611adb612958565b73ffffffffffffffffffffffffffffffffffffffff16611af96117f8565b73ffffffffffffffffffffffffffffffffffffffff1614611b4f576040517f08c379a0000000000000000000000000000000000000000000000000000000008152600401611b46906148ba565b60405180910390fd5b8060048190555050565b6000611b76600e6000848152602001908152602001600020612bc6565b9050919050565b60078181548110611b8d57600080fd5b90600052602060002090600702016000915090508060000160009054906101000a900473ffffffffffffffffffffffffffffffffffffffff1690806001018054611bd690614d47565b80601f0160208091040260200160405190810160405280929190818152602001828054611c0290614d47565b8015611c4f5780601f10611c2457610100808354040283529160200191611c4f565b820191906000526020600020905b815481529060010190602001808311611c3257829003601f168201915b505050505090806002018054611c6490614d47565b80601f0160208091040260200160405190810160405280929190818152602001828054611c9090614d47565b8015611cdd5780601f10611cb257610100808354040283529160200191611cdd565b820191906000526020600020905b815481529060010190602001808311611cc057829003601f168201915b505050505090806003018054611cf290614d47565b80601f0160208091040260200160405190810160405280929190818152602001828054611d1e90614d47565b8015611d6b5780601f10611d4057610100808354040283529160200191611d6b565b820191906000526020600020905b815481529060010190602001808311611d4e57829003601f168201915b5050505050908060040160009054906101000a900460ff16908060050154908060060154905087565b7f9f2df0fed2c77648de5860a4cc508cd0818c85b8b8a1ab4ceeef8d981c8956a681565b611dc28282612bdb565b611de781600e600085815260200190815260200160002061292890919063ffffffff16565b505050565b60076040518060e001604052808673ffffffffffffffffffffffffffffffffffffffff168152602001858152602001848152602001838152602001600015158152602001600081526020016000815250908060018154018082558091505060019003906000526020600020906007020160009091909190915060008201518160000160006101000a81548173ffffffffffffffffffffffffffffffffffffffff021916908373ffffffffffffffffffffffffffffffffffffffff1602179055506020820151816001019080519060200190611ec89291906137e6565b506040820151816002019080519060200190611ee59291906137e6565b506060820151816003019080519060200190611f029291906137e6565b5060808201518160040160006101000a81548160ff02191690831515021790555060a0820151816005015560c08201518160060155505060006001600780549050611f4d9190614c05565b9050846008600083815260200190815260200160002060006101000a81548173ffffffffffffffffffffffffffffffffffffffff021916908373ffffffffffffffffffffffffffffffffffffffff160217905550600060096000838152602001908152602001600020819055507f3ef624c0f3fb7ad40b94c02078ea3e3a797dbfc21e921ee4bd2b8ad0ca6aa11381868686866000806000604051611ff9989796959493929190614955565b60405180910390a15050505050565b612010612958565b73ffffffffffffffffffffffffffffffffffffffff1661202e6117f8565b73ffffffffffffffffffffffffffffffffffffffff1614612084576040517f08c379a000000000000000000000000000000000000000000000000000000000815260040161207b906148ba565b60405180910390fd5b8060018190555050565b826008600082815260200190815260200160002060009054906101000a900473ffffffffffffffffffffffffffffffffffffffff1673ffffffffffffffffffffffffffffffffffffffff163373ffffffffffffffffffffffffffffffffffffffff16146120fa57600080fd5b8282600786815481106121105761210f614eaf565b5b9060005260206000209060070201600301919061212e929190613760565b5050505050565b7f65d7a28e3265b37a6474929f336521b332c1681b933f6cb9f3376673440d862a81565b6000600c60008473ffffffffffffffffffffffffffffffffffffffff1673ffffffffffffffffffffffffffffffffffffffff16815260200190815260200160002060008373ffffffffffffffffffffffffffffffffffffffff1673ffffffffffffffffffffffffffffffffffffffff16815260200190815260200160002060009054906101000a900460ff16905092915050565b6121f5612958565b73ffffffffffffffffffffffffffffffffffffffff166122136117f8565b73ffffffffffffffffffffffffffffffffffffffff1614612269576040517f08c379a0000000000000000000000000000000000000000000000000000000008152600401612260906148ba565b60405180910390fd5b8073ffffffffffffffffffffffffffffffffffffffff166108fc6003549081150290604051600060405180830381858888f193505050501580156122b1573d6000803e3d6000fd5b50600060038190555050565b6122c88584846125cc565b6122d3848484611352565b8373ffffffffffffffffffffffffffffffffffffffff168573ffffffffffffffffffffffffffffffffffffffff163373ffffffffffffffffffffffffffffffffffffffff167fc3d58168c5ae7397731d063d5bbf3d657854427343f4c083240f7aacaa2d0f6286866040516123499291906149e8565b60405180910390a45050505050565b612360612958565b73ffffffffffffffffffffffffffffffffffffffff1661237e6117f8565b73ffffffffffffffffffffffffffffffffffffffff16146123d4576040517f08c379a00000000000000000000000000000000000000000000000000000000081526004016123cb906148ba565b60405180910390fd5b600073ffffffffffffffffffffffffffffffffffffffff168173ffffffffffffffffffffffffffffffffffffffff161415612444576040517f08c379a000000000000000000000000000000000000000000000000000000000815260040161243b9061487a565b60405180910390fd5b8073ffffffffffffffffffffffffffffffffffffffff1660008054906101000a900473ffffffffffffffffffffffffffffffffffffffff1673ffffffffffffffffffffffffffffffffffffffff167f8be0079c531659141344cd1fd0a4f28419497f9722a3daafe3b4186f6b6457e060405160405180910390a3806000806101000a81548173ffffffffffffffffffffffffffffffffffffffff021916908373ffffffffffffffffffffffffffffffffffffffff16021790555050565b61250c8383836125cc565b806007838154811061252157612520614eaf565b5b906000526020600020906007020160050160008282546125419190614c05565b92505081905550600073ffffffffffffffffffffffffffffffffffffffff168373ffffffffffffffffffffffffffffffffffffffff163373ffffffffffffffffffffffffffffffffffffffff167fc3d58168c5ae7397731d063d5bbf3d657854427343f4c083240f7aacaa2d0f6285856040516125bf9291906149e8565b60405180910390a4505050565b80600a600084815260200190815260200160002060008573ffffffffffffffffffffffffffffffffffffffff1673ffffffffffffffffffffffffffffffffffffffff168152602001908152602001600020600082825461262c9190614c05565b9250508190555080600b60008573ffffffffffffffffffffffffffffffffffffffff1673ffffffffffffffffffffffffffffffffffffffff168152602001908152602001600020600084815260200190815260200160002060008282546126939190614c05565b92505081905550505050565b6126a7612958565b73ffffffffffffffffffffffffffffffffffffffff166126c56117f8565b73ffffffffffffffffffffffffffffffffffffffff161461271b576040517f08c379a0000000000000000000000000000000000000000000000000000000008152600401612712906148ba565b60405180910390fd5b80600783815481106127305761272f614eaf565b5b906000526020600020906007020160040160006101000a81548160ff0219169083151502179055505050565b6127668282612c04565b5050565b6000612792836000018373ffffffffffffffffffffffffffffffffffffffff1660001b612ce5565b905092915050565b60007fd9b67a26000000000000000000000000000000000000000000000000000000007bffffffffffffffffffffffffffffffffffffffffffffffffffffffff1916827bffffffffffffffffffffffffffffffffffffffffffffffffffffffff1916148061286557507f0e89341c000000000000000000000000000000000000000000000000000000007bffffffffffffffffffffffffffffffffffffffffffffffffffffffff1916827bffffffffffffffffffffffffffffffffffffffffffffffffffffffff1916145b80612875575061287482612d55565b5b9050919050565b61288582610cdb565b61289681612891612958565b612dcf565b6128a08383612c04565b505050565b6128ad612958565b73ffffffffffffffffffffffffffffffffffffffff168173ffffffffffffffffffffffffffffffffffffffff161461291a576040517f08c379a00000000000000000000000000000000000000000000000000000000081526004016129119061491a565b60405180910390fd5b6129248282612e6c565b5050565b6000612950836000018373ffffffffffffffffffffffffffffffffffffffff1660001b612f4e565b905092915050565b600033905090565b61296861133b565b6129a7576040517f08c379a000000000000000000000000000000000000000000000000000000000815260040161299e9061485a565b60405180910390fd5b6000601260006101000a81548160ff0219169083151502179055507f5db9ee0a495bf2e6ff9c91a7834c1ba4fdd244a5e8aa4e537bd38aeae4b073aa6129eb612958565b6040516129f891906146ca565b60405180910390a1565b600080600080612a168a8a8a8a8a8a61305a565b9250925092506000838b1015612a3957612a3284848d856130d5565b9050612a6a565b83821015612a5757612a5084848d858d8d8d613178565b9050612a69565b612a6684848d858d8d8d61329a565b90505b5b809450505050509695505050505050565b6000808486612a8a9190614b24565b90506000838786612a9b9190614bab565b612aa59190614b7a565b90506000848387612ab69190614bab565b612ac09190614b7a565b905060008884612ad09190614c05565b905060006002828486612ae39190614b24565b612aed9190614bab565b612af79190614b7a565b90508095505050505050949350505050565b612b1161133b565b15612b51576040517f08c379a0000000000000000000000000000000000000000000000000000000008152600401612b489061489a565b60405180910390fd5b6001601260006101000a81548160ff0219169083151502179055507f62e78cea01bee320cd4e420270b5ea74000d11b0c9f74754ebdbfc544b05a258612b95612958565b604051612ba291906146ca565b60405180910390a1565b6000612bbb8360000183613398565b60001c905092915050565b6000612bd48260000161340c565b9050919050565b612be482610cdb565b612bf581612bf0612958565b612dcf565b612bff8383612e6c565b505050565b612c0e8282611850565b612ce1576001600d600084815260200190815260200160002060000160008373ffffffffffffffffffffffffffffffffffffffff1673ffffffffffffffffffffffffffffffffffffffff16815260200190815260200160002060006101000a81548160ff021916908315150217905550612c86612958565b73ffffffffffffffffffffffffffffffffffffffff168173ffffffffffffffffffffffffffffffffffffffff16837f2f8788117e7eff1d82e926ec794901d17c78024a50270940304540a733656f0d60405160405180910390a45b5050565b6000612cf1838361341d565b612d4a578260000182908060018154018082558091505060019003906000526020600020016000909190919091505582600001805490508360010160008481526020019081526020016000208190555060019050612d4f565b600090505b92915050565b60007f5a05180f000000000000000000000000000000000000000000000000000000007bffffffffffffffffffffffffffffffffffffffffffffffffffffffff1916827bffffffffffffffffffffffffffffffffffffffffffffffffffffffff19161480612dc85750612dc782613440565b5b9050919050565b612dd98282611850565b612e6857612dfe8173ffffffffffffffffffffffffffffffffffffffff1660146134ba565b612e0c8360001c60206134ba565b604051602001612e1d929190614690565b6040516020818303038152906040526040517f08c379a0000000000000000000000000000000000000000000000000000000008152600401612e5f91906147f8565b60405180910390fd5b5050565b612e768282611850565b15612f4a576000600d600084815260200190815260200160002060000160008373ffffffffffffffffffffffffffffffffffffffff1673ffffffffffffffffffffffffffffffffffffffff16815260200190815260200160002060006101000a81548160ff021916908315150217905550612eef612958565b73ffffffffffffffffffffffffffffffffffffffff168173ffffffffffffffffffffffffffffffffffffffff16837ff6391f5c32d9c69d2a47ea670b442974b53935d1edc7fd64eb21e047a839171b60405160405180910390a45b5050565b6000808360010160008481526020019081526020016000205490506000811461304e576000600182612f809190614c05565b9050600060018660000180549050612f989190614c05565b90506000866000018281548110612fb257612fb1614eaf565b5b9060005260206000200154905080876000018481548110612fd657612fd5614eaf565b5b906000526020600020018190555083876001016000838152602001908152602001600020819055508660000180548061301257613011614e80565b5b60019003818190600052602060002001600090559055866001016000878152602001908152602001600020600090556001945050505050613054565b60009150505b92915050565b60008060008060028661306d9190614b7a565b90506000878960648860326130829190614c05565b8a61308d9190614bab565b6130979190614b7a565b6130a19190614bab565b6130ab9190614b7a565b905060008a8c6130bb9190614c05565b905082828295509550955050505096509650969350505050565b60008082866130e49190614c05565b86866130f09190614b7a565b6130fa9190614bab565b856131059190614c05565b9050600084876131159190614c05565b87876131219190614b7a565b61312b9190614bab565b866131369190614c05565b9050600084866131469190614c05565b905060028183856131579190614b24565b6131619190614bab565b61316b9190614b7a565b9350505050949350505050565b60008085896131879190614c05565b89896131939190614b7a565b61319d9190614bab565b886131a89190614c05565b905060008890506000878b6131bd9190614c05565b9050600060028284866131d09190614b24565b6131da9190614bab565b6131e49190614b7a565b905060008b8d8c6131f59190614c05565b8e896132019190614c05565b8e8b8b8e61320f9190614bab565b6132199190614b7a565b6132239190614c05565b61322d9190614b7a565b6132379190614bab565b6132419190614b24565b905060008d8c6132519190614c05565b9050600060028284886132649190614b24565b61326e9190614bab565b6132789190614b7a565b905080846132869190614b24565b975050505050505050979650505050505050565b6000808789876132aa9190614c05565b8a856132b69190614c05565b8a87878a6132c49190614bab565b6132ce9190614b7a565b6132d89190614c05565b6132e29190614b7a565b6132ec9190614bab565b6132f69190614b24565b90506000888a896133079190614c05565b8b866133139190614c05565b8b88888b6133219190614bab565b61332b9190614b7a565b6133359190614c05565b61333f9190614b7a565b6133499190614bab565b6133539190614b24565b9050600087896133639190614c05565b905060028183856133749190614b24565b61337e9190614bab565b6133889190614b7a565b9350505050979650505050505050565b6000818360000180549050116133e3576040517f08c379a00000000000000000000000000000000000000000000000000000000081526004016133da9061481a565b60405180910390fd5b8260000182815481106133f9576133f8614eaf565b5b9060005260206000200154905092915050565b600081600001805490509050919050565b600080836001016000848152602001908152602001600020541415905092915050565b60007f7965db0b000000000000000000000000000000000000000000000000000000007bffffffffffffffffffffffffffffffffffffffffffffffffffffffff1916827bffffffffffffffffffffffffffffffffffffffffffffffffffffffff191614806134b357506134b2826136f6565b5b9050919050565b6060600060028360026134cd9190614bab565b6134d79190614b24565b67ffffffffffffffff8111156134f0576134ef614ede565b5b6040519080825280601f01601f1916602001820160405280156135225781602001600182028036833780820191505090505b5090507f30000000000000000000000000000000000000000000000000000000000000008160008151811061355a57613559614eaf565b5b60200101907effffffffffffffffffffffffffffffffffffffffffffffffffffffffffffff1916908160001a9053507f7800000000000000000000000000000000000000000000000000000000000000816001815181106135be576135bd614eaf565b5b60200101907effffffffffffffffffffffffffffffffffffffffffffffffffffffffffffff1916908160001a905350600060018460026135fe9190614bab565b6136089190614b24565b90505b60018111156136a8577f3031323334353637383961626364656600000000000000000000000000000000600f86166010811061364a57613649614eaf565b5b1a60f81b82828151811061366157613660614eaf565b5b60200101907effffffffffffffffffffffffffffffffffffffffffffffffffffffffffffff1916908160001a905350600485901c9450806136a190614d1d565b905061360b565b50600084146136ec576040517f08c379a00000000000000000000000000000000000000000000000000000000081526004016136e39061483a565b60405180910390fd5b8091505092915050565b60007f01ffc9a7000000000000000000000000000000000000000000000000000000007bffffffffffffffffffffffffffffffffffffffffffffffffffffffff1916827bffffffffffffffffffffffffffffffffffffffffffffffffffffffff1916149050919050565b82805461376c90614d47565b90600052602060002090601f01602090048101928261378e57600085556137d5565b82601f106137a757803560ff19168380011785556137d5565b828001600101855582156137d5579182015b828111156137d45782358255916020019190600101906137b9565b5b5090506137e2919061386c565b5090565b8280546137f290614d47565b90600052602060002090601f016020900481019282613814576000855561385b565b82601f1061382d57805160ff191683800117855561385b565b8280016001018555821561385b579182015b8281111561385a57825182559160200191906001019061383f565b5b509050613868919061386c565b5090565b5b8082111561388557600081600090555060010161386d565b5090565b600061389c61389784614a36565b614a11565b905080838252602082019050828560208602820111156138bf576138be614f17565b5b60005b858110156138ef57816138d58882613b72565b8452602084019350602083019250506001810190506138c2565b5050509392505050565b600061390c61390784614a62565b614a11565b90508281526020810184848401111561392857613927614f1c565b5b613933848285614cdb565b509392505050565b600061394e61394984614a93565b614a11565b90508281526020810184848401111561396a57613969614f1c565b5b613975848285614cdb565b509392505050565b60008135905061398c816151bd565b92915050565b6000813590506139a1816151d4565b92915050565b60008083601f8401126139bd576139bc614f12565b5b8235905067ffffffffffffffff8111156139da576139d9614f0d565b5b6020830191508360208202830111156139f6576139f5614f17565b5b9250929050565b60008083601f840112613a1357613a12614f12565b5b8235905067ffffffffffffffff811115613a3057613a2f614f0d565b5b602083019150836020820283011115613a4c57613a4b614f17565b5b9250929050565b600082601f830112613a6857613a67614f12565b5b8135613a78848260208601613889565b91505092915050565b600081359050613a90816151eb565b92915050565b600081359050613aa581615202565b92915050565b600081359050613aba81615219565b92915050565b600082601f830112613ad557613ad4614f12565b5b8135613ae58482602086016138f9565b91505092915050565b60008083601f840112613b0457613b03614f12565b5b8235905067ffffffffffffffff811115613b2157613b20614f0d565b5b602083019150836001820283011115613b3d57613b3c614f17565b5b9250929050565b600082601f830112613b5957613b58614f12565b5b8135613b6984826020860161393b565b91505092915050565b600081359050613b8181615230565b92915050565b600060208284031215613b9d57613b9c614f26565b5b6000613bab8482850161397d565b91505092915050565b600060208284031215613bca57613bc9614f26565b5b6000613bd884828501613992565b91505092915050565b60008060008060808587031215613bfb57613bfa614f26565b5b6000613c0987828801613992565b945050602085013567ffffffffffffffff811115613c2a57613c29614f21565b5b613c3687828801613b44565b935050604085013567ffffffffffffffff811115613c5757613c56614f21565b5b613c6387828801613b44565b925050606085013567ffffffffffffffff811115613c8457613c83614f21565b5b613c9087828801613b44565b91505092959194509250565b60008060408385031215613cb357613cb2614f26565b5b6000613cc18582860161397d565b9250506020613cd28582860161397d565b9150509250929050565b600080600080600060a08688031215613cf857613cf7614f26565b5b6000613d068882890161397d565b9550506020613d178882890161397d565b945050604086013567ffffffffffffffff811115613d3857613d37614f21565b5b613d4488828901613a53565b935050606086013567ffffffffffffffff811115613d6557613d64614f21565b5b613d7188828901613a53565b925050608086013567ffffffffffffffff811115613d9257613d91614f21565b5b613d9e88828901613ac0565b9150509295509295909350565b600080600080600060a08688031215613dc757613dc6614f26565b5b6000613dd58882890161397d565b9550506020613de68882890161397d565b9450506040613df788828901613b72565b9350506060613e0888828901613b72565b925050608086013567ffffffffffffffff811115613e2957613e28614f21565b5b613e3588828901613ac0565b9150509295509295909350565b600080600060608486031215613e5b57613e5a614f26565b5b6000613e698682870161397d565b935050602084013567ffffffffffffffff811115613e8a57613e89614f21565b5b613e9686828701613a53565b925050604084013567ffffffffffffffff811115613eb757613eb6614f21565b5b613ec386828701613a53565b9150509250925092565b60008060008060808587031215613ee757613ee6614f26565b5b6000613ef58782880161397d565b945050602085013567ffffffffffffffff811115613f1657613f15614f21565b5b613f2287828801613a53565b935050604085013567ffffffffffffffff811115613f4357613f42614f21565b5b613f4f87828801613a53565b925050606085013567ffffffffffffffff811115613f7057613f6f614f21565b5b613f7c87828801613ac0565b91505092959194509250565b60008060408385031215613f9f57613f9e614f26565b5b6000613fad8582860161397d565b9250506020613fbe85828601613a81565b9150509250929050565b60008060408385031215613fdf57613fde614f26565b5b6000613fed8582860161397d565b9250506020613ffe85828601613b72565b9150509250929050565b60008060006060848603121561402157614020614f26565b5b600061402f8682870161397d565b935050602061404086828701613b72565b925050604061405186828701613b72565b9150509250925092565b6000806000806080858703121561407557614074614f26565b5b60006140838782880161397d565b945050602061409487828801613b72565b93505060406140a587828801613b72565b925050606085013567ffffffffffffffff8111156140c6576140c5614f21565b5b6140d287828801613ac0565b91505092959194509250565b600080600080604085870312156140f8576140f7614f26565b5b600085013567ffffffffffffffff81111561411657614115614f21565b5b614122878288016139a7565b9450945050602085013567ffffffffffffffff81111561414557614144614f21565b5b614151878288016139fd565b925092505092959194509250565b60006020828403121561417557614174614f26565b5b600061418384828501613a96565b91505092915050565b600080604083850312156141a3576141a2614f26565b5b60006141b185828601613a96565b92505060206141c28582860161397d565b9150509250929050565b600080604083850312156141e3576141e2614f26565b5b60006141f185828601613a96565b925050602061420285828601613b72565b9150509250929050565b60006020828403121561422257614221614f26565b5b600061423084828501613aab565b91505092915050565b60006020828403121561424f5761424e614f26565b5b600061425d84828501613b72565b91505092915050565b6000806040838503121561427d5761427c614f26565b5b600061428b85828601613b72565b925050602061429c8582860161397d565b9150509250929050565b600080604083850312156142bd576142bc614f26565b5b60006142cb85828601613b72565b92505060206142dc85828601613992565b9150509250929050565b600080604083850312156142fd576142fc614f26565b5b600061430b85828601613b72565b925050602061431c85828601613a81565b9150509250929050565b60008060006040848603121561433f5761433e614f26565b5b600061434d86828701613b72565b935050602084013567ffffffffffffffff81111561436e5761436d614f21565b5b61437a86828701613aee565b92509250509250925092565b6000806040838503121561439d5761439c614f26565b5b60006143ab85828601613b72565b92505060206143bc85828601613b72565b9150509250929050565b60006143d28383614672565b60208301905092915050565b6143e781614c4b565b82525050565b6143f681614c39565b82525050565b600061440782614ad4565b6144118185614af7565b935061441c83614ac4565b8060005b8381101561444d57815161443488826143c6565b975061443f83614aea565b925050600181019050614420565b5085935050505092915050565b61446381614c5d565b82525050565b61447281614c69565b82525050565b61448181614cc9565b82525050565b600061449282614adf565b61449c8185614b08565b93506144ac818560208601614cea565b6144b581614f2b565b840191505092915050565b60006144cb82614adf565b6144d58185614b19565b93506144e5818560208601614cea565b80840191505092915050565b60006144fe602283614b08565b915061450982614f3c565b604082019050919050565b6000614521602083614b08565b915061452c82614f8b565b602082019050919050565b6000614544601483614b08565b915061454f82614fb4565b602082019050919050565b6000614567602683614b08565b915061457282614fdd565b604082019050919050565b600061458a601083614b08565b91506145958261502c565b602082019050919050565b60006145ad602083614b08565b91506145b882615055565b602082019050919050565b60006145d0603b83614b08565b91506145db8261507e565b604082019050919050565b60006145f3603983614b08565b91506145fe826150cd565b604082019050919050565b6000614616601783614b19565b91506146218261511c565b601782019050919050565b6000614639601183614b19565b915061464482615145565b601182019050919050565b600061465c602f83614b08565b91506146678261516e565b604082019050919050565b61467b81614cbf565b82525050565b61468a81614cbf565b82525050565b600061469b82614609565b91506146a782856144c0565b91506146b28261462c565b91506146be82846144c0565b91508190509392505050565b60006020820190506146df60008301846143ed565b92915050565b600060e0820190506146fa600083018a6143de565b818103602083015261470c8189614487565b905081810360408301526147208188614487565b905081810360608301526147348187614487565b9050614743608083018661445a565b61475060a0830185614681565b61475d60c0830184614681565b98975050505050505050565b6000602082019050818103600083015261478381846143fc565b905092915050565b600060408201905081810360008301526147a581856143fc565b905081810360208301526147b981846143fc565b90509392505050565b60006020820190506147d7600083018461445a565b92915050565b60006020820190506147f26000830184614469565b92915050565b600060208201905081810360008301526148128184614487565b905092915050565b60006020820190508181036000830152614833816144f1565b9050919050565b6000602082019050818103600083015261485381614514565b9050919050565b6000602082019050818103600083015261487381614537565b9050919050565b600060208201905081810360008301526148938161455a565b9050919050565b600060208201905081810360008301526148b38161457d565b9050919050565b600060208201905081810360008301526148d3816145a0565b9050919050565b600060208201905081810360008301526148f3816145c3565b9050919050565b60006020820190508181036000830152614913816145e6565b9050919050565b600060208201905081810360008301526149338161464f565b9050919050565b600060208201905061494f6000830184614681565b92915050565b60006101008201905061496b600083018b614681565b614978602083018a6143de565b818103604083015261498a8189614487565b9050818103606083015261499e8188614487565b905081810360808301526149b28187614487565b90506149c160a083018661445a565b6149ce60c0830185614478565b6149db60e0830184614478565b9998505050505050505050565b60006040820190506149fd6000830185614681565b614a0a6020830184614681565b9392505050565b6000614a1b614a2c565b9050614a278282614d79565b919050565b6000604051905090565b600067ffffffffffffffff821115614a5157614a50614ede565b5b602082029050602081019050919050565b600067ffffffffffffffff821115614a7d57614a7c614ede565b5b614a8682614f2b565b9050602081019050919050565b600067ffffffffffffffff821115614aae57614aad614ede565b5b614ab782614f2b565b9050602081019050919050565b6000819050602082019050919050565b600081519050919050565b600081519050919050565b6000602082019050919050565b600082825260208201905092915050565b600082825260208201905092915050565b600081905092915050565b6000614b2f82614cbf565b9150614b3a83614cbf565b9250827fffffffffffffffffffffffffffffffffffffffffffffffffffffffffffffffff03821115614b6f57614b6e614df3565b5b828201905092915050565b6000614b8582614cbf565b9150614b9083614cbf565b925082614ba057614b9f614e22565b5b828204905092915050565b6000614bb682614cbf565b9150614bc183614cbf565b9250817fffffffffffffffffffffffffffffffffffffffffffffffffffffffffffffffff0483118215151615614bfa57614bf9614df3565b5b828202905092915050565b6000614c1082614cbf565b9150614c1b83614cbf565b925082821015614c2e57614c2d614df3565b5b828203905092915050565b6000614c4482614c9f565b9050919050565b6000614c5682614c9f565b9050919050565b60008115159050919050565b6000819050919050565b60007fffffffff0000000000000000000000000000000000000000000000000000000082169050919050565b600073ffffffffffffffffffffffffffffffffffffffff82169050919050565b6000819050919050565b6000614cd482614cbf565b9050919050565b82818337600083830152505050565b60005b83811015614d08578082015181840152602081019050614ced565b83811115614d17576000848401525b50505050565b6000614d2882614cbf565b91506000821415614d3c57614d3b614df3565b5b600182039050919050565b60006002820490506001821680614d5f57607f821691505b60208210811415614d7357614d72614e51565b5b50919050565b614d8282614f2b565b810181811067ffffffffffffffff82111715614da157614da0614ede565b5b80604052505050565b6000614db582614cbf565b91507fffffffffffffffffffffffffffffffffffffffffffffffffffffffffffffffff821415614de857614de7614df3565b5b600182019050919050565b7f4e487b7100000000000000000000000000000000000000000000000000000000600052601160045260246000fd5b7f4e487b7100000000000000000000000000000000000000000000000000000000600052601260045260246000fd5b7f4e487b7100000000000000000000000000000000000000000000000000000000600052602260045260246000fd5b7f4e487b7100000000000000000000000000000000000000000000000000000000600052603160045260246000fd5b7f4e487b7100000000000000000000000000000000000000000000000000000000600052603260045260246000fd5b7f4e487b7100000000000000000000000000000000000000000000000000000000600052604160045260246000fd5b600080fd5b600080fd5b600080fd5b600080fd5b600080fd5b600080fd5b6000601f19601f8301169050919050565b7f456e756d657261626c655365743a20696e646578206f7574206f6620626f756e60008201527f6473000000000000000000000000000000000000000000000000000000000000602082015250565b7f537472696e67733a20686578206c656e67746820696e73756666696369656e74600082015250565b7f5061757361626c653a206e6f7420706175736564000000000000000000000000600082015250565b7f4f776e61626c653a206e6577206f776e657220697320746865207a65726f206160008201527f6464726573730000000000000000000000000000000000000000000000000000602082015250565b7f5061757361626c653a2070617573656400000000000000000000000000000000600082015250565b7f4f776e61626c653a2063616c6c6572206973206e6f7420746865206f776e6572600082015250565b7f455243313135355072657365744d696e7465725061757365723a206d7573742060008201527f686176652070617573657220726f6c6520746f20756e70617573650000000000602082015250565b7f455243313135355072657365744d696e7465725061757365723a206d7573742060008201527f686176652070617573657220726f6c6520746f20706175736500000000000000602082015250565b7f416363657373436f6e74726f6c3a206163636f756e7420000000000000000000600082015250565b7f206973206d697373696e6720726f6c6520000000000000000000000000000000600082015250565b7f416363657373436f6e74726f6c3a2063616e206f6e6c792072656e6f756e636560008201527f20726f6c657320666f722073656c660000000000000000000000000000000000602082015250565b6151c681614c39565b81146151d157600080fd5b50565b6151dd81614c4b565b81146151e857600080fd5b50565b6151f481614c5d565b81146151ff57600080fd5b50565b61520b81614c69565b811461521657600080fd5b50565b61522281614c73565b811461522d57600080fd5b50565b61523981614cbf565b811461524457600080fd5b5056fea26469706673582212209f4f46746f21cec62d473bebbce9f239ce469404c888cfaf79df1a98ff5c12c464736f6c63430008060033",
  "immutableReferences": {},
  "source": "// SPDX-License-Identifier: MIT\npragma solidity ^0.8.0;\n\nimport \"./creatortokenfees.sol\";\n\ncontract CreatorTokenComputation is CreatorTokenFees {\n\n\tconstructor(string memory uri) CreatorTokenFees(uri) { }\n\n\t// Calculate total transaction proceeds\n\tfunction _totalProceeds(uint _tokenId, uint _amount) public view returns (uint256) {//, uint256, uint256) {//[3] memory) {\n\t\t// Compute proceedsRequired (ex-fees)\n\t\tuint proceedsRequired = _buyProceeds(_tokenId, _amount);\n\t\t// Compute feeRequired\n\t\tuint feeRequired = _feeProceeds(proceedsRequired);\n\t\t// Compute total proceeds required\n\t\tuint totalProceeds = proceedsRequired + feeRequired;\n\t\treturn totalProceeds;\n\t}\n\n\t// Calculate proceedsRequired to for a given buy transaction (not including fees)\n\tfunction _buyProceeds(uint _tokenId, uint _amount) public view returns (uint256) {\n\t\t// Initialize proceeds required;\n\t\tuint proceedsRequired = 0;\n\t\t// Initialize pre-transaction supply\n\t\tuint startingSupply = creatorTokens[_tokenId].outstanding;\n\t\t// Compute post-transaction supply\n\t\tuint endSupply = startingSupply + _amount;\n\t\t// Compute buy proceeds\n\t\t// Check if endSupply <= maxSupply\n\t\tif (endSupply < creatorTokens[_tokenId].maxSupply) {\n\t\t\t// Scenario in which entire transaction takes place below maxSupply\n\t\t\t// Just call s(x)\n\t\t\t//proceedsRequired = _saleFunction(startingSupply, _amount, mNumerator, mDenominator, creatorTokens[_tokenId].maxSupply, profitMargin);\n\t\t\tproceedsRequired = _saleFunction(endSupply, _amount, mNumerator, mDenominator, creatorTokens[_tokenId].maxSupply, profitMargin);\n\t\t} else if (startingSupply < creatorTokens[_tokenId].maxSupply){\n\t\t\t// Scenario in which supply begins below maxSupply and ends above pre-transaction maxSupply\n\t\t\t// Use s(x) from startingSupply to maxSupply\n\t\t\tproceedsRequired = _saleFunction(creatorTokens[_tokenId].maxSupply, creatorTokens[_tokenId].maxSupply - startingSupply, mNumerator, mDenominator, creatorTokens[_tokenId].maxSupply, profitMargin);\n\t\t\t// Use b(x) from maxSupply to endSupply\n\t\t\tproceedsRequired += _buyFunction(creatorTokens[_tokenId].maxSupply, _amount - (creatorTokens[_tokenId].maxSupply - startingSupply), mNumerator, mDenominator);\n\t\t} else {\n\t\t\t// Scenario in which transaction begins at maxSupply\n\t\t\t// Just call b(x)\n\t\t\tproceedsRequired = _buyFunction(startingSupply, _amount, mNumerator, mDenominator);\n\t\t}\n\t\t// Return proceeds required\n\t\treturn proceedsRequired;\n\t}\n}",
  "sourcePath": "/Users/kamilalizaisadik/DeFi/Dynamic Automated Market Maker/damm_solidity/contracts/creatortokencomputation.sol",
  "compiler": {
    "name": "solc",
    "version": "0.8.6+commit.11564f7e.Emscripten.clang"
  },
  "schemaVersion": "3.4.1",
  "updatedAt": "2021-07-08T19:47:32.102Z",
  "devdoc": {
    "kind": "dev",
    "methods": {
      "getRoleAdmin(bytes32)": {
        "details": "Returns the admin role that controls `role`. See {grantRole} and {revokeRole}. To change a role's admin, use {_setRoleAdmin}."
      },
      "getRoleMember(bytes32,uint256)": {
        "details": "Returns one of the accounts that have `role`. `index` must be a value between 0 and {getRoleMemberCount}, non-inclusive. Role bearers are not sorted in any particular way, and their ordering may change at any point. WARNING: When using {getRoleMember} and {getRoleMemberCount}, make sure you perform all queries on the same block. See the following https://forum.openzeppelin.com/t/iterating-over-elements-on-enumerableset-in-openzeppelin-contracts/2296[forum post] for more information."
      },
      "getRoleMemberCount(bytes32)": {
        "details": "Returns the number of accounts that have `role`. Can be used together with {getRoleMember} to enumerate all bearers of a role."
      },
      "grantRole(bytes32,address)": {
        "details": "Overload {grantRole} to track enumerable memberships"
      },
      "hasRole(bytes32,address)": {
        "details": "Returns `true` if `account` has been granted `role`."
      },
      "owner()": {
        "details": "Returns the address of the current owner."
      },
      "pause()": {
        "details": "Pauses all token transfers. See {ERC1155Pausable} and {Pausable-_pause}. Requirements: - the caller must have the `PAUSER_ROLE`."
      },
      "paused()": {
        "details": "Returns true if the contract is paused, and false otherwise."
      },
      "renounceOwnership()": {
        "details": "Leaves the contract without owner. It will not be possible to call `onlyOwner` functions anymore. Can only be called by the current owner. NOTE: Renouncing ownership will leave the contract without an owner, thereby removing any functionality that is only available to the owner."
      },
      "renounceRole(bytes32,address)": {
        "details": "Overload {renounceRole} to track enumerable memberships"
      },
      "revokeRole(bytes32,address)": {
        "details": "Overload {revokeRole} to track enumerable memberships"
      },
      "supportsInterface(bytes4)": {
        "details": "See {IERC165-supportsInterface}."
      },
      "transferOwnership(address)": {
        "details": "Transfers ownership of the contract to a new account (`newOwner`). Can only be called by the current owner."
      },
      "unpause()": {
        "details": "Unpauses all token transfers. See {ERC1155Pausable} and {Pausable-_unpause}. Requirements: - the caller must have the `PAUSER_ROLE`."
      },
      "uri(uint256)": {
        "details": "See {IERC1155MetadataURI-uri}. This implementation returns the same URI for *all* token types. It relies on the token type ID substitution mechanism https://eips.ethereum.org/EIPS/eip-1155#metadata[defined in the EIP]. Clients calling this function must replace the `\\{id\\}` substring with the actual token type ID."
      }
    },
    "version": 1
  },
  "userdoc": {
    "kind": "user",
    "methods": {},
    "version": 1
  }
}