{
  "contractName": "CreatorTokenFormulas",
  "abi": [
    {
      "inputs": [
        {
          "internalType": "string",
          "name": "uri",
          "type": "string"
        }
      ],
      "stateMutability": "nonpayable",
      "type": "constructor"
    },
    {
      "anonymous": false,
      "inputs": [
        {
          "indexed": true,
          "internalType": "address",
          "name": "account",
          "type": "address"
        },
        {
          "indexed": true,
          "internalType": "address",
          "name": "operator",
          "type": "address"
        },
        {
          "indexed": false,
          "internalType": "bool",
          "name": "approved",
          "type": "bool"
        }
      ],
      "name": "ApprovalForAll",
      "type": "event"
    },
    {
      "anonymous": false,
      "inputs": [
        {
          "indexed": false,
          "internalType": "uint256",
          "name": "tokenId",
          "type": "uint256"
        },
        {
          "indexed": false,
          "internalType": "address payable",
          "name": "creatorAddress",
          "type": "address"
        },
        {
          "indexed": false,
          "internalType": "string",
          "name": "name",
          "type": "string"
        },
        {
          "indexed": false,
          "internalType": "string",
          "name": "symbol",
          "type": "string"
        },
        {
          "indexed": false,
          "internalType": "string",
          "name": "description",
          "type": "string"
        },
        {
          "indexed": false,
          "internalType": "bool",
          "name": "verified",
          "type": "bool"
        },
        {
          "indexed": false,
          "internalType": "uint256",
          "name": "outstanding",
          "type": "uint256"
        },
        {
          "indexed": false,
          "internalType": "uint256",
          "name": "maxSupply",
          "type": "uint256"
        }
      ],
      "name": "NewCreatorToken",
      "type": "event"
    },
    {
      "anonymous": false,
      "inputs": [
        {
          "indexed": true,
          "internalType": "address",
          "name": "previousOwner",
          "type": "address"
        },
        {
          "indexed": true,
          "internalType": "address",
          "name": "newOwner",
          "type": "address"
        }
      ],
      "name": "OwnershipTransferred",
      "type": "event"
    },
    {
      "anonymous": false,
      "inputs": [
        {
          "indexed": true,
          "internalType": "address",
          "name": "operator",
          "type": "address"
        },
        {
          "indexed": true,
          "internalType": "address",
          "name": "from",
          "type": "address"
        },
        {
          "indexed": true,
          "internalType": "address",
          "name": "to",
          "type": "address"
        },
        {
          "indexed": false,
          "internalType": "uint256[]",
          "name": "ids",
          "type": "uint256[]"
        },
        {
          "indexed": false,
          "internalType": "uint256[]",
          "name": "values",
          "type": "uint256[]"
        }
      ],
      "name": "TransferBatch",
      "type": "event"
    },
    {
      "anonymous": false,
      "inputs": [
        {
          "indexed": true,
          "internalType": "address",
          "name": "operator",
          "type": "address"
        },
        {
          "indexed": true,
          "internalType": "address",
          "name": "from",
          "type": "address"
        },
        {
          "indexed": true,
          "internalType": "address",
          "name": "to",
          "type": "address"
        },
        {
          "indexed": false,
          "internalType": "uint256",
          "name": "id",
          "type": "uint256"
        },
        {
          "indexed": false,
          "internalType": "uint256",
          "name": "value",
          "type": "uint256"
        }
      ],
      "name": "TransferSingle",
      "type": "event"
    },
    {
      "anonymous": false,
      "inputs": [
        {
          "indexed": false,
          "internalType": "string",
          "name": "value",
          "type": "string"
        },
        {
          "indexed": true,
          "internalType": "uint256",
          "name": "id",
          "type": "uint256"
        }
      ],
      "name": "URI",
      "type": "event"
    },
    {
      "inputs": [
        {
          "internalType": "address",
          "name": "account",
          "type": "address"
        },
        {
          "internalType": "uint256",
          "name": "id",
          "type": "uint256"
        }
      ],
      "name": "balanceOf",
      "outputs": [
        {
          "internalType": "uint256",
          "name": "",
          "type": "uint256"
        }
      ],
      "stateMutability": "view",
      "type": "function"
    },
    {
      "inputs": [
        {
          "internalType": "address[]",
          "name": "accounts",
          "type": "address[]"
        },
        {
          "internalType": "uint256[]",
          "name": "ids",
          "type": "uint256[]"
        }
      ],
      "name": "balanceOfBatch",
      "outputs": [
        {
          "internalType": "uint256[]",
          "name": "",
          "type": "uint256[]"
        }
      ],
      "stateMutability": "view",
      "type": "function"
    },
    {
      "inputs": [
        {
          "internalType": "uint256",
          "name": "_tokenId",
          "type": "uint256"
        },
        {
          "internalType": "address payable",
          "name": "_newCreatorAddress",
          "type": "address"
        }
      ],
      "name": "changeAddress",
      "outputs": [],
      "stateMutability": "nonpayable",
      "type": "function"
    },
    {
      "inputs": [
        {
          "internalType": "uint256",
          "name": "_tokenId",
          "type": "uint256"
        },
        {
          "internalType": "string",
          "name": "_newDescription",
          "type": "string"
        }
      ],
      "name": "changeDescription",
      "outputs": [],
      "stateMutability": "nonpayable",
      "type": "function"
    },
    {
      "inputs": [
        {
          "internalType": "uint256",
          "name": "_tokenId",
          "type": "uint256"
        },
        {
          "internalType": "string",
          "name": "_newName",
          "type": "string"
        }
      ],
      "name": "changeName",
      "outputs": [],
      "stateMutability": "nonpayable",
      "type": "function"
    },
    {
      "inputs": [
        {
          "internalType": "uint256",
          "name": "_newPlatformFee",
          "type": "uint256"
        }
      ],
      "name": "changePlatformFee",
      "outputs": [],
      "stateMutability": "nonpayable",
      "type": "function"
    },
    {
      "inputs": [
        {
          "internalType": "uint256",
          "name": "_newProfitMargin",
          "type": "uint256"
        }
      ],
      "name": "changeProfitMargin",
      "outputs": [],
      "stateMutability": "nonpayable",
      "type": "function"
    },
    {
      "inputs": [
        {
          "internalType": "uint256",
          "name": "_tokenId",
          "type": "uint256"
        },
        {
          "internalType": "string",
          "name": "_newSymbol",
          "type": "string"
        }
      ],
      "name": "changeSymbol",
      "outputs": [],
      "stateMutability": "nonpayable",
      "type": "function"
    },
    {
      "inputs": [
        {
          "internalType": "uint256",
          "name": "_tokenId",
          "type": "uint256"
        },
        {
          "internalType": "bool",
          "name": "_verified",
          "type": "bool"
        }
      ],
      "name": "changeVerification",
      "outputs": [],
      "stateMutability": "nonpayable",
      "type": "function"
    },
    {
      "inputs": [
        {
          "internalType": "address payable",
          "name": "_creatorAddress",
          "type": "address"
        },
        {
          "internalType": "string",
          "name": "_name",
          "type": "string"
        },
        {
          "internalType": "string",
          "name": "_symbol",
          "type": "string"
        },
        {
          "internalType": "string",
          "name": "_description",
          "type": "string"
        }
      ],
      "name": "createCreatorToken",
      "outputs": [],
      "stateMutability": "nonpayable",
      "type": "function"
    },
    {
      "inputs": [
        {
          "internalType": "uint256",
          "name": "",
          "type": "uint256"
        }
      ],
      "name": "creatorTokens",
      "outputs": [
        {
          "internalType": "address payable",
          "name": "creatorAddress",
          "type": "address"
        },
        {
          "internalType": "string",
          "name": "name",
          "type": "string"
        },
        {
          "internalType": "string",
          "name": "symbol",
          "type": "string"
        },
        {
          "internalType": "string",
          "name": "description",
          "type": "string"
        },
        {
          "internalType": "bool",
          "name": "verified",
          "type": "bool"
        },
        {
          "internalType": "uint256",
          "name": "outstanding",
          "type": "uint256"
        },
        {
          "internalType": "uint256",
          "name": "maxSupply",
          "type": "uint256"
        }
      ],
      "stateMutability": "view",
      "type": "function"
    },
    {
      "inputs": [
        {
          "internalType": "address",
          "name": "_account",
          "type": "address"
        },
        {
          "internalType": "address",
          "name": "_operator",
          "type": "address"
        }
      ],
      "name": "isApprovedForAll",
      "outputs": [
        {
          "internalType": "bool",
          "name": "",
          "type": "bool"
        }
      ],
      "stateMutability": "view",
      "type": "function"
    },
    {
      "inputs": [
        {
          "internalType": "address",
          "name": "_account",
          "type": "address"
        },
        {
          "internalType": "uint256",
          "name": "_id",
          "type": "uint256"
        },
        {
          "internalType": "uint256",
          "name": "_amount",
          "type": "uint256"
        }
      ],
      "name": "mappingDecrease",
      "outputs": [],
      "stateMutability": "nonpayable",
      "type": "function"
    },
    {
      "inputs": [
        {
          "internalType": "address",
          "name": "_account",
          "type": "address"
        },
        {
          "internalType": "uint256",
          "name": "_id",
          "type": "uint256"
        },
        {
          "internalType": "uint256",
          "name": "_amount",
          "type": "uint256"
        }
      ],
      "name": "mappingIncrease",
      "outputs": [],
      "stateMutability": "nonpayable",
      "type": "function"
    },
    {
      "inputs": [],
      "name": "owner",
      "outputs": [
        {
          "internalType": "address",
          "name": "",
          "type": "address"
        }
      ],
      "stateMutability": "view",
      "type": "function"
    },
    {
      "inputs": [
        {
          "internalType": "address payable",
          "name": "_owner",
          "type": "address"
        }
      ],
      "name": "payoutPlatformFees",
      "outputs": [],
      "stateMutability": "nonpayable",
      "type": "function"
    },
    {
      "inputs": [],
      "name": "renounceOwnership",
      "outputs": [],
      "stateMutability": "nonpayable",
      "type": "function"
    },
    {
      "inputs": [
        {
          "internalType": "address",
          "name": "_from",
          "type": "address"
        },
        {
          "internalType": "address",
          "name": "_to",
          "type": "address"
        },
        {
          "internalType": "uint256[]",
          "name": "_ids",
          "type": "uint256[]"
        },
        {
          "internalType": "uint256[]",
          "name": "_amounts",
          "type": "uint256[]"
        },
        {
          "internalType": "bytes",
          "name": "data",
          "type": "bytes"
        }
      ],
      "name": "safeBatchTransferFrom",
      "outputs": [],
      "stateMutability": "nonpayable",
      "type": "function"
    },
    {
      "inputs": [
        {
          "internalType": "address",
          "name": "_from",
          "type": "address"
        },
        {
          "internalType": "address",
          "name": "_to",
          "type": "address"
        },
        {
          "internalType": "uint256",
          "name": "_id",
          "type": "uint256"
        },
        {
          "internalType": "uint256",
          "name": "_amount",
          "type": "uint256"
        },
        {
          "internalType": "bytes",
          "name": "_data",
          "type": "bytes"
        }
      ],
      "name": "safeTransferFrom",
      "outputs": [],
      "stateMutability": "nonpayable",
      "type": "function"
    },
    {
      "inputs": [
        {
          "internalType": "address",
          "name": "_operator",
          "type": "address"
        },
        {
          "internalType": "bool",
          "name": "_approved",
          "type": "bool"
        }
      ],
      "name": "setApprovalForAll",
      "outputs": [],
      "stateMutability": "nonpayable",
      "type": "function"
    },
    {
      "inputs": [
        {
          "internalType": "bytes4",
          "name": "interfaceId",
          "type": "bytes4"
        }
      ],
      "name": "supportsInterface",
      "outputs": [
        {
          "internalType": "bool",
          "name": "",
          "type": "bool"
        }
      ],
      "stateMutability": "view",
      "type": "function"
    },
    {
      "inputs": [
        {
          "internalType": "uint256",
          "name": "",
          "type": "uint256"
        },
        {
          "internalType": "address",
          "name": "",
          "type": "address"
        }
      ],
      "name": "tokenHoldership",
      "outputs": [
        {
          "internalType": "uint256",
          "name": "",
          "type": "uint256"
        }
      ],
      "stateMutability": "view",
      "type": "function"
    },
    {
      "inputs": [
        {
          "internalType": "uint256",
          "name": "",
          "type": "uint256"
        }
      ],
      "name": "tokenToCreator",
      "outputs": [
        {
          "internalType": "address",
          "name": "",
          "type": "address"
        }
      ],
      "stateMutability": "view",
      "type": "function"
    },
    {
      "inputs": [
        {
          "internalType": "address",
          "name": "newOwner",
          "type": "address"
        }
      ],
      "name": "transferOwnership",
      "outputs": [],
      "stateMutability": "nonpayable",
      "type": "function"
    },
    {
      "inputs": [
        {
          "internalType": "uint256",
          "name": "",
          "type": "uint256"
        }
      ],
      "name": "uri",
      "outputs": [
        {
          "internalType": "string",
          "name": "",
          "type": "string"
        }
      ],
      "stateMutability": "view",
      "type": "function"
    },
    {
      "inputs": [
        {
          "internalType": "address",
          "name": "",
          "type": "address"
        },
        {
          "internalType": "uint256",
          "name": "",
          "type": "uint256"
        }
      ],
      "name": "userToHoldings",
      "outputs": [
        {
          "internalType": "uint256",
          "name": "",
          "type": "uint256"
        }
      ],
      "stateMutability": "view",
      "type": "function"
    },
    {
      "inputs": [
        {
          "internalType": "address payable",
          "name": "_owner",
          "type": "address"
        }
      ],
      "name": "withdraw",
      "outputs": [],
      "stateMutability": "nonpayable",
      "type": "function"
    }
  ],
  "bytecode": "0x60806040526001805560006002556000600355601460045565082f79cd900060055560b96006553480156200003357600080fd5b506040516200347138038062003471833981810160405281019062000059919062000277565b808060006200006d6200012560201b60201c565b9050806000806101000a81548173ffffffffffffffffffffffffffffffffffffffff021916908373ffffffffffffffffffffffffffffffffffffffff1602179055508073ffffffffffffffffffffffffffffffffffffffff16600073ffffffffffffffffffffffffffffffffffffffff167f8be0079c531659141344cd1fd0a4f28419497f9722a3daafe3b4186f6b6457e060405160405180910390a3506200011c816200012d60201b60201c565b5050506200044c565b600033905090565b80600f90805190602001906200014592919062000149565b5050565b82805462000157906200035d565b90600052602060002090601f0160209004810192826200017b5760008555620001c7565b82601f106200019657805160ff1916838001178555620001c7565b82800160010185558215620001c7579182015b82811115620001c6578251825591602001919060010190620001a9565b5b509050620001d69190620001da565b5090565b5b80821115620001f5576000816000905550600101620001db565b5090565b6000620002106200020a84620002f1565b620002c8565b9050828152602081018484840111156200022f576200022e6200042c565b5b6200023c84828562000327565b509392505050565b600082601f8301126200025c576200025b62000427565b5b81516200026e848260208601620001f9565b91505092915050565b60006020828403121562000290576200028f62000436565b5b600082015167ffffffffffffffff811115620002b157620002b062000431565b5b620002bf8482850162000244565b91505092915050565b6000620002d4620002e7565b9050620002e2828262000393565b919050565b6000604051905090565b600067ffffffffffffffff8211156200030f576200030e620003f8565b5b6200031a826200043b565b9050602081019050919050565b60005b83811015620003475780820151818401526020810190506200032a565b8381111562000357576000848401525b50505050565b600060028204905060018216806200037657607f821691505b602082108114156200038d576200038c620003c9565b5b50919050565b6200039e826200043b565b810181811067ffffffffffffffff82111715620003c057620003bf620003f8565b5b80604052505050565b7f4e487b7100000000000000000000000000000000000000000000000000000000600052602260045260246000fd5b7f4e487b7100000000000000000000000000000000000000000000000000000000600052604160045260246000fd5b600080fd5b600080fd5b600080fd5b600080fd5b6000601f19601f8301169050919050565b613015806200045c6000396000f3fe608060405234801561001057600080fd5b50600436106101a85760003560e01c8063a22cb465116100f9578063de6a06ed11610097578063f242432a11610071578063f242432a146104db578063f2fde38b146104f7578063f56e71b414610513578063f7374e2e1461052f576101a8565b8063de6a06ed14610473578063e985e9c51461048f578063eb841759146104bf576101a8565b8063c539c317116100d3578063c539c317146103e9578063ce901d8a14610405578063d56b72c71461043b578063d7a5791a14610457576101a8565b8063a22cb46514610381578063bfb48c9c1461039d578063c39cbef1146103cd576101a8565b80632eb2c2d6116101665780635d4222cd116101405780635d4222cd1461030d578063715018a6146103295780638da5cb5b1461033357806392724afa14610351576101a8565b80632eb2c2d6146102a55780634e1273f4146102c157806351cff8d9146102f1576101a8565b8062fdd58e146101ad57806301ffc9a7146101dd57806306e320f51461020d5780630e89341c1461022957806318892ae8146102595780631d5ad18b14610289575b600080fd5b6101c760048036038101906101c29190612381565b61054b565b6040516101d49190612950565b60405180910390f35b6101f760048036038101906101f2919061248c565b610615565b6040516102049190612893565b60405180910390f35b610227600480360381019061022291906125a6565b6106f7565b005b610243600480360381019061023e91906124b9565b61079e565b60405161025091906128ae565b60405180910390f35b610273600480360381019061026e91906124b9565b610832565b604051610280919061279b565b60405180910390f35b6102a3600480360381019061029e9190612526565b610865565b005b6102bf60048036038101906102ba91906121db565b61093a565b005b6102db60048036038101906102d69190612414565b610aa6565b6040516102e8919061283a565b60405180910390f35b61030b600480360381019061030691906120b3565b610bbf565b005b610327600480360381019061032291906123c1565b610c85565b005b610331610d58565b005b61033b610e92565b604051610348919061279b565b60405180910390f35b61036b60048036038101906103669190612381565b610ebb565b6040516103789190612950565b60405180910390f35b61039b60048036038101906103969190612341565b610ee0565b005b6103b760048036038101906103b291906124e6565b610fdd565b6040516103c49190612950565b60405180910390f35b6103e760048036038101906103e291906125a6565b611002565b005b61040360048036038101906103fe91906124b9565b6110a9565b005b61041f600480360381019061041a91906124b9565b61112f565b60405161043297969594939291906127b6565b60405180910390f35b610455600480360381019061045091906120e0565b611346565b005b610471600480360381019061046c91906124b9565b611562565b005b61048d600480360381019061048891906125a6565b6115e8565b005b6104a960048036038101906104a4919061219b565b61168f565b6040516104b69190612893565b60405180910390f35b6104d960048036038101906104d491906120b3565b611723565b005b6104f560048036038101906104f091906122aa565b6117f3565b005b610511600480360381019061050c9190612086565b6118d7565b005b61052d600480360381019061052891906123c1565b611a80565b005b61054960048036038101906105449190612566565b611b53565b005b60008073ffffffffffffffffffffffffffffffffffffffff168373ffffffffffffffffffffffffffffffffffffffff1614156105bc576040517f08c379a00000000000000000000000000000000000000000000000000000000081526004016105b3906128d0565b60405180910390fd5b600d600083815260200190815260200160002060008473ffffffffffffffffffffffffffffffffffffffff1673ffffffffffffffffffffffffffffffffffffffff16815260200190815260200160002054905092915050565b60007fd9b67a26000000000000000000000000000000000000000000000000000000007bffffffffffffffffffffffffffffffffffffffffffffffffffffffff1916827bffffffffffffffffffffffffffffffffffffffffffffffffffffffff191614806106e057507f0e89341c000000000000000000000000000000000000000000000000000000007bffffffffffffffffffffffffffffffffffffffffffffffffffffffff1916827bffffffffffffffffffffffffffffffffffffffffffffffffffffffff1916145b806106f057506106ef82611c10565b5b9050919050565b826008600082815260200190815260200160002060009054906101000a900473ffffffffffffffffffffffffffffffffffffffff1673ffffffffffffffffffffffffffffffffffffffff163373ffffffffffffffffffffffffffffffffffffffff161461076357600080fd5b82826007868154811061077957610778612dc9565b5b90600052602060002090600702016002019190610797929190611c82565b5050505050565b6060600f80546107ad90612cbf565b80601f01602080910402602001604051908101604052809291908181526020018280546107d990612cbf565b80156108265780601f106107fb57610100808354040283529160200191610826565b820191906000526020600020905b81548152906001019060200180831161080957829003601f168201915b50505050509050919050565b60086020528060005260406000206000915054906101000a900473ffffffffffffffffffffffffffffffffffffffff1681565b816008600082815260200190815260200160002060009054906101000a900473ffffffffffffffffffffffffffffffffffffffff1673ffffffffffffffffffffffffffffffffffffffff163373ffffffffffffffffffffffffffffffffffffffff16146108d157600080fd5b81600784815481106108e6576108e5612dc9565b5b906000526020600020906007020160000160006101000a81548173ffffffffffffffffffffffffffffffffffffffff021916908373ffffffffffffffffffffffffffffffffffffffff160217905550505050565b60005b8351811015610a20578573ffffffffffffffffffffffffffffffffffffffff163373ffffffffffffffffffffffffffffffffffffffff1614806109865750610985868661168f565b5b61098f57600080fd5b6109ce868583815181106109a6576109a5612dc9565b5b60200260200101518584815181106109c1576109c0612dc9565b5b6020026020010151611a80565b610a0d858583815181106109e5576109e4612dc9565b5b6020026020010151858481518110610a00576109ff612dc9565b5b6020026020010151610c85565b8080610a1890612d22565b91505061093d565b508373ffffffffffffffffffffffffffffffffffffffff168573ffffffffffffffffffffffffffffffffffffffff163373ffffffffffffffffffffffffffffffffffffffff167f4a39dc06d4c0dbc64b70af90fd698a233a518aa5d07e595d983b8c0526c8f7fb8686604051610a9792919061285c565b60405180910390a45050505050565b60608151835114610aec576040517f08c379a0000000000000000000000000000000000000000000000000000000008152600401610ae390612930565b60405180910390fd5b6000835167ffffffffffffffff811115610b0957610b08612df8565b5b604051908082528060200260200182016040528015610b375781602001602082028036833780820191505090505b50905060005b8451811015610bb457610b84858281518110610b5c57610b5b612dc9565b5b6020026020010151858381518110610b7757610b76612dc9565b5b602002602001015161054b565b828281518110610b9757610b96612dc9565b5b60200260200101818152505080610bad90612d22565b9050610b3d565b508091505092915050565b610bc7611c7a565b73ffffffffffffffffffffffffffffffffffffffff16610be5610e92565b73ffffffffffffffffffffffffffffffffffffffff1614610c3b576040517f08c379a0000000000000000000000000000000000000000000000000000000008152600401610c3290612910565b60405180910390fd5b8073ffffffffffffffffffffffffffffffffffffffff166108fc479081150290604051600060405180830381858888f19350505050158015610c81573d6000803e3d6000fd5b5050565b80600a600084815260200190815260200160002060008573ffffffffffffffffffffffffffffffffffffffff1673ffffffffffffffffffffffffffffffffffffffff1681526020019081526020016000206000828254610ce59190612b5b565b9250508190555080600b60008573ffffffffffffffffffffffffffffffffffffffff1673ffffffffffffffffffffffffffffffffffffffff16815260200190815260200160002060008481526020019081526020016000206000828254610d4c9190612b5b565b92505081905550505050565b610d60611c7a565b73ffffffffffffffffffffffffffffffffffffffff16610d7e610e92565b73ffffffffffffffffffffffffffffffffffffffff1614610dd4576040517f08c379a0000000000000000000000000000000000000000000000000000000008152600401610dcb90612910565b60405180910390fd5b600073ffffffffffffffffffffffffffffffffffffffff1660008054906101000a900473ffffffffffffffffffffffffffffffffffffffff1673ffffffffffffffffffffffffffffffffffffffff167f8be0079c531659141344cd1fd0a4f28419497f9722a3daafe3b4186f6b6457e060405160405180910390a360008060006101000a81548173ffffffffffffffffffffffffffffffffffffffff021916908373ffffffffffffffffffffffffffffffffffffffff160217905550565b60008060009054906101000a900473ffffffffffffffffffffffffffffffffffffffff16905090565b600b602052816000526040600020602052806000526040600020600091509150505481565b80600c60003373ffffffffffffffffffffffffffffffffffffffff1673ffffffffffffffffffffffffffffffffffffffff16815260200190815260200160002060008473ffffffffffffffffffffffffffffffffffffffff1673ffffffffffffffffffffffffffffffffffffffff16815260200190815260200160002060006101000a81548160ff0219169083151502179055508173ffffffffffffffffffffffffffffffffffffffff163373ffffffffffffffffffffffffffffffffffffffff167f17307eab39ab6107e8899845ad3d59bd9653f200f220920489ca2b5937696c3183604051610fd19190612893565b60405180910390a35050565b600a602052816000526040600020602052806000526040600020600091509150505481565b826008600082815260200190815260200160002060009054906101000a900473ffffffffffffffffffffffffffffffffffffffff1673ffffffffffffffffffffffffffffffffffffffff163373ffffffffffffffffffffffffffffffffffffffff161461106e57600080fd5b82826007868154811061108457611083612dc9565b5b906000526020600020906007020160010191906110a2929190611c82565b5050505050565b6110b1611c7a565b73ffffffffffffffffffffffffffffffffffffffff166110cf610e92565b73ffffffffffffffffffffffffffffffffffffffff1614611125576040517f08c379a000000000000000000000000000000000000000000000000000000000815260040161111c90612910565b60405180910390fd5b8060048190555050565b6007818154811061113f57600080fd5b90600052602060002090600702016000915090508060000160009054906101000a900473ffffffffffffffffffffffffffffffffffffffff169080600101805461118890612cbf565b80601f01602080910402602001604051908101604052809291908181526020018280546111b490612cbf565b80156112015780601f106111d657610100808354040283529160200191611201565b820191906000526020600020905b8154815290600101906020018083116111e457829003601f168201915b50505050509080600201805461121690612cbf565b80601f016020809104026020016040519081016040528092919081815260200182805461124290612cbf565b801561128f5780601f106112645761010080835404028352916020019161128f565b820191906000526020600020905b81548152906001019060200180831161127257829003601f168201915b5050505050908060030180546112a490612cbf565b80601f01602080910402602001604051908101604052809291908181526020018280546112d090612cbf565b801561131d5780601f106112f25761010080835404028352916020019161131d565b820191906000526020600020905b81548152906001019060200180831161130057829003601f168201915b5050505050908060040160009054906101000a900460ff16908060050154908060060154905087565b60076040518060e001604052808673ffffffffffffffffffffffffffffffffffffffff168152602001858152602001848152602001838152602001600015158152602001600081526020016000815250908060018154018082558091505060019003906000526020600020906007020160009091909190915060008201518160000160006101000a81548173ffffffffffffffffffffffffffffffffffffffff021916908373ffffffffffffffffffffffffffffffffffffffff1602179055506020820151816001019080519060200190611422929190611d08565b50604082015181600201908051906020019061143f929190611d08565b50606082015181600301908051906020019061145c929190611d08565b5060808201518160040160006101000a81548160ff02191690831515021790555060a0820151816005015560c082015181600601555050600060016007805490506114a79190612bb1565b9050846008600083815260200190815260200160002060006101000a81548173ffffffffffffffffffffffffffffffffffffffff021916908373ffffffffffffffffffffffffffffffffffffffff160217905550600060096000838152602001908152602001600020819055507f3ef624c0f3fb7ad40b94c02078ea3e3a797dbfc21e921ee4bd2b8ad0ca6aa1138186868686600080600060405161155398979695949392919061296b565b60405180910390a15050505050565b61156a611c7a565b73ffffffffffffffffffffffffffffffffffffffff16611588610e92565b73ffffffffffffffffffffffffffffffffffffffff16146115de576040517f08c379a00000000000000000000000000000000000000000000000000000000081526004016115d590612910565b60405180910390fd5b8060018190555050565b826008600082815260200190815260200160002060009054906101000a900473ffffffffffffffffffffffffffffffffffffffff1673ffffffffffffffffffffffffffffffffffffffff163373ffffffffffffffffffffffffffffffffffffffff161461165457600080fd5b82826007868154811061166a57611669612dc9565b5b90600052602060002090600702016003019190611688929190611c82565b5050505050565b6000600c60008473ffffffffffffffffffffffffffffffffffffffff1673ffffffffffffffffffffffffffffffffffffffff16815260200190815260200160002060008373ffffffffffffffffffffffffffffffffffffffff1673ffffffffffffffffffffffffffffffffffffffff16815260200190815260200160002060009054906101000a900460ff16905092915050565b61172b611c7a565b73ffffffffffffffffffffffffffffffffffffffff16611749610e92565b73ffffffffffffffffffffffffffffffffffffffff161461179f576040517f08c379a000000000000000000000000000000000000000000000000000000000815260040161179690612910565b60405180910390fd5b8073ffffffffffffffffffffffffffffffffffffffff166108fc6003549081150290604051600060405180830381858888f193505050501580156117e7573d6000803e3d6000fd5b50600060038190555050565b8473ffffffffffffffffffffffffffffffffffffffff163373ffffffffffffffffffffffffffffffffffffffff1614806118335750611832858561168f565b5b61183c57600080fd5b611847858484611a80565b611852848484610c85565b8373ffffffffffffffffffffffffffffffffffffffff168573ffffffffffffffffffffffffffffffffffffffff163373ffffffffffffffffffffffffffffffffffffffff167fc3d58168c5ae7397731d063d5bbf3d657854427343f4c083240f7aacaa2d0f6286866040516118c89291906129fe565b60405180910390a45050505050565b6118df611c7a565b73ffffffffffffffffffffffffffffffffffffffff166118fd610e92565b73ffffffffffffffffffffffffffffffffffffffff1614611953576040517f08c379a000000000000000000000000000000000000000000000000000000000815260040161194a90612910565b60405180910390fd5b600073ffffffffffffffffffffffffffffffffffffffff168173ffffffffffffffffffffffffffffffffffffffff1614156119c3576040517f08c379a00000000000000000000000000000000000000000000000000000000081526004016119ba906128f0565b60405180910390fd5b8073ffffffffffffffffffffffffffffffffffffffff1660008054906101000a900473ffffffffffffffffffffffffffffffffffffffff1673ffffffffffffffffffffffffffffffffffffffff167f8be0079c531659141344cd1fd0a4f28419497f9722a3daafe3b4186f6b6457e060405160405180910390a3806000806101000a81548173ffffffffffffffffffffffffffffffffffffffff021916908373ffffffffffffffffffffffffffffffffffffffff16021790555050565b80600a600084815260200190815260200160002060008573ffffffffffffffffffffffffffffffffffffffff1673ffffffffffffffffffffffffffffffffffffffff1681526020019081526020016000206000828254611ae09190612bb1565b9250508190555080600b60008573ffffffffffffffffffffffffffffffffffffffff1673ffffffffffffffffffffffffffffffffffffffff16815260200190815260200160002060008481526020019081526020016000206000828254611b479190612bb1565b92505081905550505050565b611b5b611c7a565b73ffffffffffffffffffffffffffffffffffffffff16611b79610e92565b73ffffffffffffffffffffffffffffffffffffffff1614611bcf576040517f08c379a0000000000000000000000000000000000000000000000000000000008152600401611bc690612910565b60405180910390fd5b8060078381548110611be457611be3612dc9565b5b906000526020600020906007020160040160006101000a81548160ff0219169083151502179055505050565b60007f01ffc9a7000000000000000000000000000000000000000000000000000000007bffffffffffffffffffffffffffffffffffffffffffffffffffffffff1916827bffffffffffffffffffffffffffffffffffffffffffffffffffffffff1916149050919050565b600033905090565b828054611c8e90612cbf565b90600052602060002090601f016020900481019282611cb05760008555611cf7565b82601f10611cc957803560ff1916838001178555611cf7565b82800160010185558215611cf7579182015b82811115611cf6578235825591602001919060010190611cdb565b5b509050611d049190611d8e565b5090565b828054611d1490612cbf565b90600052602060002090601f016020900481019282611d365760008555611d7d565b82601f10611d4f57805160ff1916838001178555611d7d565b82800160010185558215611d7d579182015b82811115611d7c578251825591602001919060010190611d61565b5b509050611d8a9190611d8e565b5090565b5b80821115611da7576000816000905550600101611d8f565b5090565b6000611dbe611db984612a4c565b612a27565b90508083825260208201905082856020860282011115611de157611de0612e31565b5b60005b85811015611e115781611df78882611f0f565b845260208401935060208301925050600181019050611de4565b5050509392505050565b6000611e2e611e2984612a78565b612a27565b90508083825260208201905082856020860282011115611e5157611e50612e31565b5b60005b85811015611e815781611e678882612071565b845260208401935060208301925050600181019050611e54565b5050509392505050565b6000611e9e611e9984612aa4565b612a27565b905082815260208101848484011115611eba57611eb9612e36565b5b611ec5848285612c7d565b509392505050565b6000611ee0611edb84612ad5565b612a27565b905082815260208101848484011115611efc57611efb612e36565b5b611f07848285612c7d565b509392505050565b600081359050611f1e81612f6c565b92915050565b600081359050611f3381612f83565b92915050565b600082601f830112611f4e57611f4d612e2c565b5b8135611f5e848260208601611dab565b91505092915050565b600082601f830112611f7c57611f7b612e2c565b5b8135611f8c848260208601611e1b565b91505092915050565b600081359050611fa481612f9a565b92915050565b600081359050611fb981612fb1565b92915050565b600082601f830112611fd457611fd3612e2c565b5b8135611fe4848260208601611e8b565b91505092915050565b60008083601f84011261200357612002612e2c565b5b8235905067ffffffffffffffff8111156120205761201f612e27565b5b60208301915083600182028301111561203c5761203b612e31565b5b9250929050565b600082601f83011261205857612057612e2c565b5b8135612068848260208601611ecd565b91505092915050565b60008135905061208081612fc8565b92915050565b60006020828403121561209c5761209b612e40565b5b60006120aa84828501611f0f565b91505092915050565b6000602082840312156120c9576120c8612e40565b5b60006120d784828501611f24565b91505092915050565b600080600080608085870312156120fa576120f9612e40565b5b600061210887828801611f24565b945050602085013567ffffffffffffffff81111561212957612128612e3b565b5b61213587828801612043565b935050604085013567ffffffffffffffff81111561215657612155612e3b565b5b61216287828801612043565b925050606085013567ffffffffffffffff81111561218357612182612e3b565b5b61218f87828801612043565b91505092959194509250565b600080604083850312156121b2576121b1612e40565b5b60006121c085828601611f0f565b92505060206121d185828601611f0f565b9150509250929050565b600080600080600060a086880312156121f7576121f6612e40565b5b600061220588828901611f0f565b955050602061221688828901611f0f565b945050604086013567ffffffffffffffff81111561223757612236612e3b565b5b61224388828901611f67565b935050606086013567ffffffffffffffff81111561226457612263612e3b565b5b61227088828901611f67565b925050608086013567ffffffffffffffff81111561229157612290612e3b565b5b61229d88828901611fbf565b9150509295509295909350565b600080600080600060a086880312156122c6576122c5612e40565b5b60006122d488828901611f0f565b95505060206122e588828901611f0f565b94505060406122f688828901612071565b935050606061230788828901612071565b925050608086013567ffffffffffffffff81111561232857612327612e3b565b5b61233488828901611fbf565b9150509295509295909350565b6000806040838503121561235857612357612e40565b5b600061236685828601611f0f565b925050602061237785828601611f95565b9150509250929050565b6000806040838503121561239857612397612e40565b5b60006123a685828601611f0f565b92505060206123b785828601612071565b9150509250929050565b6000806000606084860312156123da576123d9612e40565b5b60006123e886828701611f0f565b93505060206123f986828701612071565b925050604061240a86828701612071565b9150509250925092565b6000806040838503121561242b5761242a612e40565b5b600083013567ffffffffffffffff81111561244957612448612e3b565b5b61245585828601611f39565b925050602083013567ffffffffffffffff81111561247657612475612e3b565b5b61248285828601611f67565b9150509250929050565b6000602082840312156124a2576124a1612e40565b5b60006124b084828501611faa565b91505092915050565b6000602082840312156124cf576124ce612e40565b5b60006124dd84828501612071565b91505092915050565b600080604083850312156124fd576124fc612e40565b5b600061250b85828601612071565b925050602061251c85828601611f0f565b9150509250929050565b6000806040838503121561253d5761253c612e40565b5b600061254b85828601612071565b925050602061255c85828601611f24565b9150509250929050565b6000806040838503121561257d5761257c612e40565b5b600061258b85828601612071565b925050602061259c85828601611f95565b9150509250929050565b6000806000604084860312156125bf576125be612e40565b5b60006125cd86828701612071565b935050602084013567ffffffffffffffff8111156125ee576125ed612e3b565b5b6125fa86828701611fed565b92509250509250925092565b6000612612838361277d565b60208301905092915050565b61262781612bf7565b82525050565b61263681612be5565b82525050565b600061264782612b16565b6126518185612b39565b935061265c83612b06565b8060005b8381101561268d5781516126748882612606565b975061267f83612b2c565b925050600181019050612660565b5085935050505092915050565b6126a381612c09565b82525050565b6126b281612c6b565b82525050565b60006126c382612b21565b6126cd8185612b4a565b93506126dd818560208601612c8c565b6126e681612e45565b840191505092915050565b60006126fe602b83612b4a565b915061270982612e56565b604082019050919050565b6000612721602683612b4a565b915061272c82612ea5565b604082019050919050565b6000612744602083612b4a565b915061274f82612ef4565b602082019050919050565b6000612767602983612b4a565b915061277282612f1d565b604082019050919050565b61278681612c61565b82525050565b61279581612c61565b82525050565b60006020820190506127b0600083018461262d565b92915050565b600060e0820190506127cb600083018a61261e565b81810360208301526127dd81896126b8565b905081810360408301526127f181886126b8565b9050818103606083015261280581876126b8565b9050612814608083018661269a565b61282160a083018561278c565b61282e60c083018461278c565b98975050505050505050565b60006020820190508181036000830152612854818461263c565b905092915050565b60006040820190508181036000830152612876818561263c565b9050818103602083015261288a818461263c565b90509392505050565b60006020820190506128a8600083018461269a565b92915050565b600060208201905081810360008301526128c881846126b8565b905092915050565b600060208201905081810360008301526128e9816126f1565b9050919050565b6000602082019050818103600083015261290981612714565b9050919050565b6000602082019050818103600083015261292981612737565b9050919050565b600060208201905081810360008301526129498161275a565b9050919050565b6000602082019050612965600083018461278c565b92915050565b600061010082019050612981600083018b61278c565b61298e602083018a61261e565b81810360408301526129a081896126b8565b905081810360608301526129b481886126b8565b905081810360808301526129c881876126b8565b90506129d760a083018661269a565b6129e460c08301856126a9565b6129f160e08301846126a9565b9998505050505050505050565b6000604082019050612a13600083018561278c565b612a20602083018461278c565b9392505050565b6000612a31612a42565b9050612a3d8282612cf1565b919050565b6000604051905090565b600067ffffffffffffffff821115612a6757612a66612df8565b5b602082029050602081019050919050565b600067ffffffffffffffff821115612a9357612a92612df8565b5b602082029050602081019050919050565b600067ffffffffffffffff821115612abf57612abe612df8565b5b612ac882612e45565b9050602081019050919050565b600067ffffffffffffffff821115612af057612aef612df8565b5b612af982612e45565b9050602081019050919050565b6000819050602082019050919050565b600081519050919050565b600081519050919050565b6000602082019050919050565b600082825260208201905092915050565b600082825260208201905092915050565b6000612b6682612c61565b9150612b7183612c61565b9250827fffffffffffffffffffffffffffffffffffffffffffffffffffffffffffffffff03821115612ba657612ba5612d6b565b5b828201905092915050565b6000612bbc82612c61565b9150612bc783612c61565b925082821015612bda57612bd9612d6b565b5b828203905092915050565b6000612bf082612c41565b9050919050565b6000612c0282612c41565b9050919050565b60008115159050919050565b60007fffffffff0000000000000000000000000000000000000000000000000000000082169050919050565b600073ffffffffffffffffffffffffffffffffffffffff82169050919050565b6000819050919050565b6000612c7682612c61565b9050919050565b82818337600083830152505050565b60005b83811015612caa578082015181840152602081019050612c8f565b83811115612cb9576000848401525b50505050565b60006002820490506001821680612cd757607f821691505b60208210811415612ceb57612cea612d9a565b5b50919050565b612cfa82612e45565b810181811067ffffffffffffffff82111715612d1957612d18612df8565b5b80604052505050565b6000612d2d82612c61565b91507fffffffffffffffffffffffffffffffffffffffffffffffffffffffffffffffff821415612d6057612d5f612d6b565b5b600182019050919050565b7f4e487b7100000000000000000000000000000000000000000000000000000000600052601160045260246000fd5b7f4e487b7100000000000000000000000000000000000000000000000000000000600052602260045260246000fd5b7f4e487b7100000000000000000000000000000000000000000000000000000000600052603260045260246000fd5b7f4e487b7100000000000000000000000000000000000000000000000000000000600052604160045260246000fd5b600080fd5b600080fd5b600080fd5b600080fd5b600080fd5b600080fd5b6000601f19601f8301169050919050565b7f455243313135353a2062616c616e636520717565727920666f7220746865207a60008201527f65726f2061646472657373000000000000000000000000000000000000000000602082015250565b7f4f776e61626c653a206e6577206f776e657220697320746865207a65726f206160008201527f6464726573730000000000000000000000000000000000000000000000000000602082015250565b7f4f776e61626c653a2063616c6c6572206973206e6f7420746865206f776e6572600082015250565b7f455243313135353a206163636f756e747320616e6420696473206c656e67746860008201527f206d69736d617463680000000000000000000000000000000000000000000000602082015250565b612f7581612be5565b8114612f8057600080fd5b50565b612f8c81612bf7565b8114612f9757600080fd5b50565b612fa381612c09565b8114612fae57600080fd5b50565b612fba81612c15565b8114612fc557600080fd5b50565b612fd181612c61565b8114612fdc57600080fd5b5056fea2646970667358221220a6260241530ebe8fb7bd2085a9949b5c5cf3f95bc60f34a6eceab9a05adea61564736f6c63430008060033",
  "immutableReferences": {},
  "source": "// SPDX-License-Identifier: MIT\npragma solidity ^0.8.0;\n\nimport \"./creatortokenownership.sol\";\n\ncontract CreatorTokenFormulas is CreatorTokenOwnership {\n\n\tconstructor(string memory uri) CreatorTokenOwnership(uri) { }\n\n\t// Calculate area under buy price function\n\tfunction _buyFunction(uint _startingSupply, uint _amount, uint _mNumerator, uint _mDenominator) internal pure returns (uint256) {\n\t\t// b(x) = m*x\n\t\tuint endSupply = _startingSupply + _amount;\n\t\tuint base1 = _mNumerator*_startingSupply/_mDenominator;\n\t\tuint base2 = _mNumerator*endSupply/_mDenominator;\n\t\tuint height = endSupply-_startingSupply;\n\t\tuint area = (base1 + base2) * height / 2;\n\t\treturn area;\n\t}\n\n\t// Calculate area under sale price function\n\tfunction _saleFunction(uint _startingSupply, uint _amount, uint _mNumerator, uint _mDenominator, uint _maxSupply, uint _profitMargin) internal pure returns (uint256) {\n\t\t// Calculate breakpoint and endSupply\n\t\t(uint a, uint b, uint endSupply) = _breakpoint(_startingSupply, _amount, _mNumerator, _mDenominator, _maxSupply, _profitMargin);\n\t\t// Initialize area under curve\n\t\tuint area = 0;\n\t\t// Check where _startingSupply is relative to the breakpoint\n\t\tif (_startingSupply < a) {\n\t\t\t// Just need trapezoidal area of partial entirely left of the breakpoint\n\t\t\tarea = _leftArea(a, b, _startingSupply, endSupply);\n\t\t} else if (endSupply < a) {\n\t\t\t// Scenario in which _startingSupply >= a, and endSupply < a\n\t\t\t// There, need trapezoidal area of components both to right and left of breakpoint\n\t\t\tarea = _bothArea(a, b, _startingSupply, endSupply, _mNumerator, _mDenominator, _maxSupply);\n\t\t} else {\n\t\t\t// Scenario in which entire sale occurs to right of breakpoint\n\t\t\t// Just need trapezoidal area of partial entirely right of the breakpoint\n\t\t\tarea = _rightArea(a, b, _startingSupply, endSupply, _mNumerator, _mDenominator, _maxSupply);\n\t\t}\n\t\treturn area;\n\t}\n\n\t// Calculate breakpoint and other key inputs into _saleFunction\n\tfunction _breakpoint(uint _startingSupply, uint _amount, uint _mNumerator, uint _mDenominator, uint _maxSupply, uint _profitMargin) internal pure returns (uint, uint, uint) {\n\t\t// Define breakpoint (a,b) chosen s.t. area under sale price function is (1-profitMargin) times area under buy price function\n\t\tuint a = _maxSupply/2;\n\t\tuint b = _maxSupply*(50-_profitMargin)/100*_mNumerator/_mDenominator;\n\t\tuint endSupply = _startingSupply - _amount;\n\t\treturn (a, b, endSupply);\n\t}\n\n\t// _saleFunction scenario in which entire transaction occurs left of breakpoint\n\tfunction _leftArea(uint _a, uint _b, uint _startingSupply, uint _endSupply) internal pure returns (uint256) {\n\t\t\t//uint base1 = ((_b/_a)*(_a-_endSupply)+_b);\n\t\t\t//uint base1 = ((_b/_a)*(_endSupply-_a)+_b);\n\t\t\tuint base1 = (_b-(_b/_a)*(_a-_endSupply));\n\t\t\t//uint base2 = ((_b/_a)*(_a-_startingSupply)+_b);\n\t\t\t//uint base2 = ((_b/_a)*(_startingSupply-_a)+_b);\n\t\t\tuint base2 = (_b-(_b/_a)*(_a-_startingSupply));\n\t\t\tuint height = _startingSupply-_endSupply;\n\t\t\treturn (base1 + base2) * height / 2;\n\t}\n\n\t// _saleFunction scenario in which transaction crosses breakpoint\n\tfunction _bothArea(uint _a, uint _b, uint _startingSupply, uint _endSupply, uint _mNumerator, uint _mDenominator, uint _maxSupply) internal pure returns (uint256) {\n\t\t//uint leftBase1 = ((_b/_a)*(_a-_endSupply)+_b);\n\t\t//uint leftBase1 = ((_b/_a)*(_endSupply-_a)+_b);\n\t\tuint leftBase1 = (_b-(_b/_a)*(_a-_endSupply));\n\t\tuint sharedBase = _b;\n\t\tuint leftHeight = _a-_endSupply;\n\t\tuint leftArea = (leftBase1 + sharedBase) * leftHeight / 2;\n\t\tuint rightBase2 = (_mNumerator*_maxSupply/_mDenominator-_b)/(_maxSupply-_a)*(_startingSupply-_a)+_b;\n\t\tuint rightHeight = _startingSupply-_a;\n\t\tuint rightArea = (sharedBase + rightBase2) * rightHeight / 2;\n\t\treturn leftArea + rightArea;\n\t}\n\n\t// _saleFunction scneario in which entire transaction occurs right of breakpoint\n\tfunction _rightArea(uint _a, uint _b, uint _startingSupply, uint _endSupply, uint _mNumerator, uint _mDenominator, uint _maxSupply) internal pure returns (uint256) {\n\t\tuint base1 = (((_mNumerator*_maxSupply/_mDenominator-_b)/(_maxSupply-_a))*(_endSupply-_a)+_b);\n\t\tuint base2 = (((_mNumerator*_maxSupply/_mDenominator-_b)/(_maxSupply-_a))*(_startingSupply-_a)+_b);\n\t\tuint height = _startingSupply-_endSupply;\n\t\treturn (base1 + base2) * height / 2;\n\t}\n}\n",
  "sourcePath": "/Users/kamilalizaisadik/DeFi/Dynamic Automated Market Maker/damm_solidity/contracts/creatortokenformulas.sol",
  "compiler": {
    "name": "solc",
    "version": "0.8.6+commit.11564f7e.Emscripten.clang"
  },
  "schemaVersion": "3.4.1",
  "updatedAt": "2021-07-10T11:50:50.462Z",
  "devdoc": {
    "kind": "dev",
    "methods": {
      "balanceOf(address,uint256)": {
        "details": "See {IERC1155-balanceOf}. Requirements: - `account` cannot be the zero address."
      },
      "balanceOfBatch(address[],uint256[])": {
        "details": "See {IERC1155-balanceOfBatch}. Requirements: - `accounts` and `ids` must have the same length."
      },
      "owner()": {
        "details": "Returns the address of the current owner."
      },
      "renounceOwnership()": {
        "details": "Leaves the contract without owner. It will not be possible to call `onlyOwner` functions anymore. Can only be called by the current owner. NOTE: Renouncing ownership will leave the contract without an owner, thereby removing any functionality that is only available to the owner."
      },
      "supportsInterface(bytes4)": {
        "details": "See {IERC165-supportsInterface}."
      },
      "transferOwnership(address)": {
        "details": "Transfers ownership of the contract to a new account (`newOwner`). Can only be called by the current owner."
      },
      "uri(uint256)": {
        "details": "See {IERC1155MetadataURI-uri}. This implementation returns the same URI for *all* token types. It relies on the token type ID substitution mechanism https://eips.ethereum.org/EIPS/eip-1155#metadata[defined in the EIP]. Clients calling this function must replace the `\\{id\\}` substring with the actual token type ID."
      }
    },
    "version": 1
  },
  "userdoc": {
    "kind": "user",
    "methods": {},
    "version": 1
  }
}