{
  "contractName": "CreatorTokenComputation",
  "abi": [
    {
      "inputs": [
        {
          "internalType": "string",
          "name": "uri",
          "type": "string"
        }
      ],
      "stateMutability": "nonpayable",
      "type": "constructor"
    },
    {
      "anonymous": false,
      "inputs": [
        {
          "indexed": true,
          "internalType": "address",
          "name": "account",
          "type": "address"
        },
        {
          "indexed": true,
          "internalType": "address",
          "name": "operator",
          "type": "address"
        },
        {
          "indexed": false,
          "internalType": "bool",
          "name": "approved",
          "type": "bool"
        }
      ],
      "name": "ApprovalForAll",
      "type": "event"
    },
    {
      "anonymous": false,
      "inputs": [
        {
          "indexed": false,
          "internalType": "uint256",
          "name": "tokenId",
          "type": "uint256"
        },
        {
          "indexed": false,
          "internalType": "address payable",
          "name": "creatorAddress",
          "type": "address"
        },
        {
          "indexed": false,
          "internalType": "string",
          "name": "name",
          "type": "string"
        },
        {
          "indexed": false,
          "internalType": "string",
          "name": "symbol",
          "type": "string"
        },
        {
          "indexed": false,
          "internalType": "string",
          "name": "description",
          "type": "string"
        },
        {
          "indexed": false,
          "internalType": "bool",
          "name": "verified",
          "type": "bool"
        },
        {
          "indexed": false,
          "internalType": "uint256",
          "name": "outstanding",
          "type": "uint256"
        },
        {
          "indexed": false,
          "internalType": "uint256",
          "name": "maxSupply",
          "type": "uint256"
        }
      ],
      "name": "NewCreatorToken",
      "type": "event"
    },
    {
      "anonymous": false,
      "inputs": [
        {
          "indexed": true,
          "internalType": "address",
          "name": "previousOwner",
          "type": "address"
        },
        {
          "indexed": true,
          "internalType": "address",
          "name": "newOwner",
          "type": "address"
        }
      ],
      "name": "OwnershipTransferred",
      "type": "event"
    },
    {
      "anonymous": false,
      "inputs": [
        {
          "indexed": true,
          "internalType": "address",
          "name": "operator",
          "type": "address"
        },
        {
          "indexed": true,
          "internalType": "address",
          "name": "from",
          "type": "address"
        },
        {
          "indexed": true,
          "internalType": "address",
          "name": "to",
          "type": "address"
        },
        {
          "indexed": false,
          "internalType": "uint256[]",
          "name": "ids",
          "type": "uint256[]"
        },
        {
          "indexed": false,
          "internalType": "uint256[]",
          "name": "values",
          "type": "uint256[]"
        }
      ],
      "name": "TransferBatch",
      "type": "event"
    },
    {
      "anonymous": false,
      "inputs": [
        {
          "indexed": true,
          "internalType": "address",
          "name": "operator",
          "type": "address"
        },
        {
          "indexed": true,
          "internalType": "address",
          "name": "from",
          "type": "address"
        },
        {
          "indexed": true,
          "internalType": "address",
          "name": "to",
          "type": "address"
        },
        {
          "indexed": false,
          "internalType": "uint256",
          "name": "id",
          "type": "uint256"
        },
        {
          "indexed": false,
          "internalType": "uint256",
          "name": "value",
          "type": "uint256"
        }
      ],
      "name": "TransferSingle",
      "type": "event"
    },
    {
      "anonymous": false,
      "inputs": [
        {
          "indexed": false,
          "internalType": "string",
          "name": "value",
          "type": "string"
        },
        {
          "indexed": true,
          "internalType": "uint256",
          "name": "id",
          "type": "uint256"
        }
      ],
      "name": "URI",
      "type": "event"
    },
    {
      "inputs": [
        {
          "internalType": "uint256",
          "name": "_proceedsRequired",
          "type": "uint256"
        }
      ],
      "name": "_feeProceeds",
      "outputs": [
        {
          "internalType": "uint256",
          "name": "",
          "type": "uint256"
        }
      ],
      "stateMutability": "view",
      "type": "function"
    },
    {
      "inputs": [
        {
          "internalType": "uint256",
          "name": "_startingSupply",
          "type": "uint256"
        },
        {
          "internalType": "uint256",
          "name": "_amount",
          "type": "uint256"
        },
        {
          "internalType": "uint256",
          "name": "_mNumerator",
          "type": "uint256"
        },
        {
          "internalType": "uint256",
          "name": "_mDenominator",
          "type": "uint256"
        },
        {
          "internalType": "uint256",
          "name": "_maxSupply",
          "type": "uint256"
        },
        {
          "internalType": "uint256",
          "name": "_profitMargin",
          "type": "uint256"
        }
      ],
      "name": "_saleFunction",
      "outputs": [
        {
          "internalType": "uint256",
          "name": "",
          "type": "uint256"
        }
      ],
      "stateMutability": "pure",
      "type": "function"
    },
    {
      "inputs": [
        {
          "internalType": "address",
          "name": "",
          "type": "address"
        },
        {
          "internalType": "address",
          "name": "",
          "type": "address"
        }
      ],
      "name": "approvals",
      "outputs": [
        {
          "internalType": "bool",
          "name": "",
          "type": "bool"
        }
      ],
      "stateMutability": "view",
      "type": "function"
    },
    {
      "inputs": [
        {
          "internalType": "address",
          "name": "account",
          "type": "address"
        },
        {
          "internalType": "uint256",
          "name": "id",
          "type": "uint256"
        }
      ],
      "name": "balanceOf",
      "outputs": [
        {
          "internalType": "uint256",
          "name": "",
          "type": "uint256"
        }
      ],
      "stateMutability": "view",
      "type": "function"
    },
    {
      "inputs": [
        {
          "internalType": "address[]",
          "name": "accounts",
          "type": "address[]"
        },
        {
          "internalType": "uint256[]",
          "name": "ids",
          "type": "uint256[]"
        }
      ],
      "name": "balanceOfBatch",
      "outputs": [
        {
          "internalType": "uint256[]",
          "name": "",
          "type": "uint256[]"
        }
      ],
      "stateMutability": "view",
      "type": "function"
    },
    {
      "inputs": [
        {
          "internalType": "uint256",
          "name": "_tokenId",
          "type": "uint256"
        },
        {
          "internalType": "address payable",
          "name": "_newCreatorAddress",
          "type": "address"
        }
      ],
      "name": "changeAddress",
      "outputs": [],
      "stateMutability": "nonpayable",
      "type": "function"
    },
    {
      "inputs": [
        {
          "internalType": "uint256",
          "name": "_tokenId",
          "type": "uint256"
        },
        {
          "internalType": "string",
          "name": "_newDescription",
          "type": "string"
        }
      ],
      "name": "changeDescription",
      "outputs": [],
      "stateMutability": "nonpayable",
      "type": "function"
    },
    {
      "inputs": [
        {
          "internalType": "uint256",
          "name": "_tokenId",
          "type": "uint256"
        },
        {
          "internalType": "string",
          "name": "_newName",
          "type": "string"
        }
      ],
      "name": "changeName",
      "outputs": [],
      "stateMutability": "nonpayable",
      "type": "function"
    },
    {
      "inputs": [
        {
          "internalType": "uint256",
          "name": "_newPlatformFee",
          "type": "uint256"
        }
      ],
      "name": "changePlatformFee",
      "outputs": [],
      "stateMutability": "nonpayable",
      "type": "function"
    },
    {
      "inputs": [
        {
          "internalType": "uint256",
          "name": "_newProfitMargin",
          "type": "uint256"
        }
      ],
      "name": "changeProfitMargin",
      "outputs": [],
      "stateMutability": "nonpayable",
      "type": "function"
    },
    {
      "inputs": [
        {
          "internalType": "uint256",
          "name": "_tokenId",
          "type": "uint256"
        },
        {
          "internalType": "string",
          "name": "_newSymbol",
          "type": "string"
        }
      ],
      "name": "changeSymbol",
      "outputs": [],
      "stateMutability": "nonpayable",
      "type": "function"
    },
    {
      "inputs": [
        {
          "internalType": "uint256",
          "name": "_tokenId",
          "type": "uint256"
        },
        {
          "internalType": "bool",
          "name": "_verified",
          "type": "bool"
        }
      ],
      "name": "changeVerification",
      "outputs": [],
      "stateMutability": "nonpayable",
      "type": "function"
    },
    {
      "inputs": [
        {
          "internalType": "address payable",
          "name": "_creatorAddress",
          "type": "address"
        },
        {
          "internalType": "string",
          "name": "_name",
          "type": "string"
        },
        {
          "internalType": "string",
          "name": "_symbol",
          "type": "string"
        },
        {
          "internalType": "string",
          "name": "_description",
          "type": "string"
        }
      ],
      "name": "createCreatorToken",
      "outputs": [],
      "stateMutability": "nonpayable",
      "type": "function"
    },
    {
      "inputs": [
        {
          "internalType": "uint256",
          "name": "",
          "type": "uint256"
        }
      ],
      "name": "creatorTokens",
      "outputs": [
        {
          "internalType": "address payable",
          "name": "creatorAddress",
          "type": "address"
        },
        {
          "internalType": "string",
          "name": "name",
          "type": "string"
        },
        {
          "internalType": "string",
          "name": "symbol",
          "type": "string"
        },
        {
          "internalType": "string",
          "name": "description",
          "type": "string"
        },
        {
          "internalType": "bool",
          "name": "verified",
          "type": "bool"
        },
        {
          "internalType": "uint256",
          "name": "outstanding",
          "type": "uint256"
        },
        {
          "internalType": "uint256",
          "name": "maxSupply",
          "type": "uint256"
        }
      ],
      "stateMutability": "view",
      "type": "function"
    },
    {
      "inputs": [],
      "name": "getCreatorTokenCount",
      "outputs": [
        {
          "internalType": "uint256",
          "name": "",
          "type": "uint256"
        }
      ],
      "stateMutability": "view",
      "type": "function"
    },
    {
      "inputs": [
        {
          "internalType": "address",
          "name": "_account",
          "type": "address"
        },
        {
          "internalType": "address",
          "name": "_operator",
          "type": "address"
        }
      ],
      "name": "isApprovedForAll",
      "outputs": [
        {
          "internalType": "bool",
          "name": "",
          "type": "bool"
        }
      ],
      "stateMutability": "view",
      "type": "function"
    },
    {
      "inputs": [],
      "name": "numCreatorTokens",
      "outputs": [
        {
          "internalType": "uint256",
          "name": "",
          "type": "uint256"
        }
      ],
      "stateMutability": "view",
      "type": "function"
    },
    {
      "inputs": [],
      "name": "owner",
      "outputs": [
        {
          "internalType": "address",
          "name": "",
          "type": "address"
        }
      ],
      "stateMutability": "view",
      "type": "function"
    },
    {
      "inputs": [
        {
          "internalType": "address payable",
          "name": "_owner",
          "type": "address"
        }
      ],
      "name": "payoutPlatformFees",
      "outputs": [],
      "stateMutability": "nonpayable",
      "type": "function"
    },
    {
      "inputs": [],
      "name": "platformFeesOwed",
      "outputs": [
        {
          "internalType": "uint256",
          "name": "",
          "type": "uint256"
        }
      ],
      "stateMutability": "view",
      "type": "function"
    },
    {
      "inputs": [],
      "name": "renounceOwnership",
      "outputs": [],
      "stateMutability": "nonpayable",
      "type": "function"
    },
    {
      "inputs": [
        {
          "internalType": "address",
          "name": "_from",
          "type": "address"
        },
        {
          "internalType": "address",
          "name": "_to",
          "type": "address"
        },
        {
          "internalType": "uint256[]",
          "name": "_ids",
          "type": "uint256[]"
        },
        {
          "internalType": "uint256[]",
          "name": "_amounts",
          "type": "uint256[]"
        },
        {
          "internalType": "bytes",
          "name": "_data",
          "type": "bytes"
        }
      ],
      "name": "safeBatchTransferFrom",
      "outputs": [],
      "stateMutability": "nonpayable",
      "type": "function"
    },
    {
      "inputs": [
        {
          "internalType": "address",
          "name": "_from",
          "type": "address"
        },
        {
          "internalType": "address",
          "name": "_to",
          "type": "address"
        },
        {
          "internalType": "uint256",
          "name": "_id",
          "type": "uint256"
        },
        {
          "internalType": "uint256",
          "name": "_amount",
          "type": "uint256"
        },
        {
          "internalType": "bytes",
          "name": "_data",
          "type": "bytes"
        }
      ],
      "name": "safeTransferFrom",
      "outputs": [],
      "stateMutability": "nonpayable",
      "type": "function"
    },
    {
      "inputs": [
        {
          "internalType": "address",
          "name": "_operator",
          "type": "address"
        },
        {
          "internalType": "bool",
          "name": "_approved",
          "type": "bool"
        }
      ],
      "name": "setApprovalForAll",
      "outputs": [],
      "stateMutability": "nonpayable",
      "type": "function"
    },
    {
      "inputs": [
        {
          "internalType": "bytes4",
          "name": "interfaceId",
          "type": "bytes4"
        }
      ],
      "name": "supportsInterface",
      "outputs": [
        {
          "internalType": "bool",
          "name": "",
          "type": "bool"
        }
      ],
      "stateMutability": "view",
      "type": "function"
    },
    {
      "inputs": [
        {
          "internalType": "uint256",
          "name": "",
          "type": "uint256"
        },
        {
          "internalType": "address",
          "name": "",
          "type": "address"
        }
      ],
      "name": "tokenHoldership",
      "outputs": [
        {
          "internalType": "uint256",
          "name": "",
          "type": "uint256"
        }
      ],
      "stateMutability": "view",
      "type": "function"
    },
    {
      "inputs": [
        {
          "internalType": "uint256",
          "name": "",
          "type": "uint256"
        }
      ],
      "name": "tokenToCreator",
      "outputs": [
        {
          "internalType": "address",
          "name": "",
          "type": "address"
        }
      ],
      "stateMutability": "view",
      "type": "function"
    },
    {
      "inputs": [
        {
          "internalType": "uint256",
          "name": "",
          "type": "uint256"
        }
      ],
      "name": "tokenValueTransferred",
      "outputs": [
        {
          "internalType": "uint256",
          "name": "",
          "type": "uint256"
        }
      ],
      "stateMutability": "view",
      "type": "function"
    },
    {
      "inputs": [],
      "name": "totalPlatformFees",
      "outputs": [
        {
          "internalType": "uint256",
          "name": "",
          "type": "uint256"
        }
      ],
      "stateMutability": "view",
      "type": "function"
    },
    {
      "inputs": [
        {
          "internalType": "uint256",
          "name": "",
          "type": "uint256"
        }
      ],
      "name": "totalValueLocked",
      "outputs": [
        {
          "internalType": "uint256",
          "name": "",
          "type": "uint256"
        }
      ],
      "stateMutability": "view",
      "type": "function"
    },
    {
      "inputs": [
        {
          "internalType": "address",
          "name": "newOwner",
          "type": "address"
        }
      ],
      "name": "transferOwnership",
      "outputs": [],
      "stateMutability": "nonpayable",
      "type": "function"
    },
    {
      "inputs": [
        {
          "internalType": "uint256",
          "name": "",
          "type": "uint256"
        }
      ],
      "name": "uri",
      "outputs": [
        {
          "internalType": "string",
          "name": "",
          "type": "string"
        }
      ],
      "stateMutability": "view",
      "type": "function"
    },
    {
      "inputs": [
        {
          "internalType": "address",
          "name": "",
          "type": "address"
        },
        {
          "internalType": "uint256",
          "name": "",
          "type": "uint256"
        }
      ],
      "name": "userToHoldings",
      "outputs": [
        {
          "internalType": "uint256",
          "name": "",
          "type": "uint256"
        }
      ],
      "stateMutability": "view",
      "type": "function"
    },
    {
      "inputs": [
        {
          "internalType": "address payable",
          "name": "_owner",
          "type": "address"
        }
      ],
      "name": "withdraw",
      "outputs": [],
      "stateMutability": "nonpayable",
      "type": "function"
    },
    {
      "inputs": [
        {
          "internalType": "uint256",
          "name": "_tokenId",
          "type": "uint256"
        },
        {
          "internalType": "uint256",
          "name": "_amount",
          "type": "uint256"
        }
      ],
      "name": "_totalProceeds",
      "outputs": [
        {
          "internalType": "uint256",
          "name": "",
          "type": "uint256"
        }
      ],
      "stateMutability": "view",
      "type": "function"
    },
    {
      "inputs": [
        {
          "internalType": "uint256",
          "name": "_tokenId",
          "type": "uint256"
        },
        {
          "internalType": "uint256",
          "name": "_amount",
          "type": "uint256"
        }
      ],
      "name": "_buyProceeds",
      "outputs": [
        {
          "internalType": "uint256",
          "name": "",
          "type": "uint256"
        }
      ],
      "stateMutability": "view",
      "type": "function"
    }
  ],
  "bytecode": "0x608060405260018055600060025560006003556000600455601460055565082f79cd900060065560b96007553480156200003857600080fd5b5060405162003edc38038062003edc83398181016040528101906200005e919062000280565b808080806000620000746200012e60201b60201c565b9050806000806101000a81548173ffffffffffffffffffffffffffffffffffffffff021916908373ffffffffffffffffffffffffffffffffffffffff1602179055508073ffffffffffffffffffffffffffffffffffffffff16600073ffffffffffffffffffffffffffffffffffffffff167f8be0079c531659141344cd1fd0a4f28419497f9722a3daafe3b4186f6b6457e060405160405180910390a35062000123816200013660201b60201c565b505050505062000455565b600033905090565b80601190805190602001906200014e92919062000152565b5050565b828054620001609062000366565b90600052602060002090601f016020900481019282620001845760008555620001d0565b82601f106200019f57805160ff1916838001178555620001d0565b82800160010185558215620001d0579182015b82811115620001cf578251825591602001919060010190620001b2565b5b509050620001df9190620001e3565b5090565b5b80821115620001fe576000816000905550600101620001e4565b5090565b6000620002196200021384620002fa565b620002d1565b90508281526020810184848401111562000238576200023762000435565b5b6200024584828562000330565b509392505050565b600082601f83011262000265576200026462000430565b5b81516200027784826020860162000202565b91505092915050565b6000602082840312156200029957620002986200043f565b5b600082015167ffffffffffffffff811115620002ba57620002b96200043a565b5b620002c8848285016200024d565b91505092915050565b6000620002dd620002f0565b9050620002eb82826200039c565b919050565b6000604051905090565b600067ffffffffffffffff82111562000318576200031762000401565b5b620003238262000444565b9050602081019050919050565b60005b838110156200035057808201518184015260208101905062000333565b8381111562000360576000848401525b50505050565b600060028204905060018216806200037f57607f821691505b60208210811415620003965762000395620003d2565b5b50919050565b620003a78262000444565b810181811067ffffffffffffffff82111715620003c957620003c862000401565b5b80604052505050565b7f4e487b7100000000000000000000000000000000000000000000000000000000600052602260045260246000fd5b7f4e487b7100000000000000000000000000000000000000000000000000000000600052604160045260246000fd5b600080fd5b600080fd5b600080fd5b600080fd5b6000601f19601f8301169050919050565b613a7780620004656000396000f3fe608060405234801561001057600080fd5b506004361061021b5760003560e01c8063afb2183211610125578063d7a5791a116100ad578063e985e9c51161007c578063e985e9c5146106ae578063eb841759146106de578063f242432a146106fa578063f2fde38b14610716578063f7374e2e146107325761021b565b8063d7a5791a14610616578063d9bd3a4014610632578063de6a06ed14610662578063df3c00b11461067e5761021b565b8063c39cbef1116100f4578063c39cbef11461056e578063c539c3171461058a578063ce901d8a146105a6578063d3631fa5146105dc578063d56b72c7146105fa5761021b565b8063afb21832146104d2578063ba111a05146104f0578063bfb48c9c14610520578063c1d33049146105505761021b565b806335a8ae21116101a8578063715018a611610177578063715018a61461042e5780638da5cb5b1461043857806392724afa14610456578063a22cb46514610486578063a32ce11e146104a25761021b565b806335a8ae21146103825780634e1273f4146103b25780634fe477d8146103e257806351cff8d9146104125761021b565b806317bcaa08116101ef57806317bcaa08146102cc57806318892ae8146102fc5780631d5ad18b1461032c5780632a2b237c146103485780632eb2c2d6146103665761021b565b8062fdd58e1461022057806301ffc9a71461025057806306e320f5146102805780630e89341c1461029c575b600080fd5b61023a60048036038101906102359190612caf565b61074e565b60405161024791906132f8565b60405180910390f35b61026a60048036038101906102659190612d67565b610818565b604051610277919061323b565b60405180910390f35b61029a60048036038101906102959190612e81565b6108fa565b005b6102b660048036038101906102b19190612d94565b6109a1565b6040516102c39190613256565b60405180910390f35b6102e660048036038101906102e19190612d94565b610a35565b6040516102f391906132f8565b60405180910390f35b61031660048036038101906103119190612d94565b610a4d565b6040516103239190613143565b60405180910390f35b61034660048036038101906103419190612e01565b610a80565b005b610350610b55565b60405161035d91906132f8565b60405180910390f35b610380600480360381019061037b9190612b09565b610b62565b005b61039c60048036038101906103979190612ee1565b610cce565b6040516103a991906132f8565b60405180910390f35b6103cc60048036038101906103c79190612cef565b610d06565b6040516103d991906131e2565b60405180910390f35b6103fc60048036038101906103f79190612ee1565b610e1f565b60405161040991906132f8565b60405180910390f35b61042c600480360381019061042791906129e1565b61102c565b005b6104366110f2565b005b61044061122c565b60405161044d9190613143565b60405180910390f35b610470600480360381019061046b9190612caf565b611255565b60405161047d91906132f8565b60405180910390f35b6104a0600480360381019061049b9190612c6f565b61127a565b005b6104bc60048036038101906104b79190612ac9565b611377565b6040516104c9919061323b565b60405180910390f35b6104da6113a6565b6040516104e791906132f8565b60405180910390f35b61050a60048036038101906105059190612d94565b6113ac565b60405161051791906132f8565b60405180910390f35b61053a60048036038101906105359190612dc1565b6113cf565b60405161054791906132f8565b60405180910390f35b6105586113f4565b60405161056591906132f8565b60405180910390f35b61058860048036038101906105839190612e81565b6113fa565b005b6105a4600480360381019061059f9190612d94565b6114a1565b005b6105c060048036038101906105bb9190612d94565b611527565b6040516105d3979695949392919061315e565b60405180910390f35b6105e461173e565b6040516105f191906132f8565b60405180910390f35b610614600480360381019061060f9190612a0e565b611744565b005b610630600480360381019061062b9190612d94565b611960565b005b61064c60048036038101906106479190612d94565b6119e6565b60405161065991906132f8565b60405180910390f35b61067c60048036038101906106779190612e81565b6119fe565b005b61069860048036038101906106939190612f21565b611aa5565b6040516106a591906132f8565b60405180910390f35b6106c860048036038101906106c39190612ac9565b611b1e565b6040516106d5919061323b565b60405180910390f35b6106f860048036038101906106f391906129e1565b611bb2565b005b610714600480360381019061070f9190612bd8565b611c82565b005b610730600480360381019061072b91906129b4565b611d66565b005b61074c60048036038101906107479190612e41565b611f0f565b005b60008073ffffffffffffffffffffffffffffffffffffffff168373ffffffffffffffffffffffffffffffffffffffff1614156107bf576040517f08c379a00000000000000000000000000000000000000000000000000000000081526004016107b690613278565b60405180910390fd5b600f600083815260200190815260200160002060008473ffffffffffffffffffffffffffffffffffffffff1673ffffffffffffffffffffffffffffffffffffffff16815260200190815260200160002054905092915050565b60007fd9b67a26000000000000000000000000000000000000000000000000000000007bffffffffffffffffffffffffffffffffffffffffffffffffffffffff1916827bffffffffffffffffffffffffffffffffffffffffffffffffffffffff191614806108e357507f0e89341c000000000000000000000000000000000000000000000000000000007bffffffffffffffffffffffffffffffffffffffffffffffffffffffff1916827bffffffffffffffffffffffffffffffffffffffffffffffffffffffff1916145b806108f357506108f282611fcc565b5b9050919050565b826009600082815260200190815260200160002060009054906101000a900473ffffffffffffffffffffffffffffffffffffffff1673ffffffffffffffffffffffffffffffffffffffff163373ffffffffffffffffffffffffffffffffffffffff161461096657600080fd5b82826008868154811061097c5761097b61382b565b5b9060005260206000209060070201600201919061099a9291906125b0565b5050505050565b6060601180546109b0906136f2565b80601f01602080910402602001604051908101604052809291908181526020018280546109dc906136f2565b8015610a295780601f106109fe57610100808354040283529160200191610a29565b820191906000526020600020905b815481529060010190602001808311610a0c57829003601f168201915b50505050509050919050565b600a6020528060005260406000206000915090505481565b60096020528060005260406000206000915054906101000a900473ffffffffffffffffffffffffffffffffffffffff1681565b816009600082815260200190815260200160002060009054906101000a900473ffffffffffffffffffffffffffffffffffffffff1673ffffffffffffffffffffffffffffffffffffffff163373ffffffffffffffffffffffffffffffffffffffff1614610aec57600080fd5b8160088481548110610b0157610b0061382b565b5b906000526020600020906007020160000160006101000a81548173ffffffffffffffffffffffffffffffffffffffff021916908373ffffffffffffffffffffffffffffffffffffffff160217905550505050565b6000600880549050905090565b60005b8351811015610c48578573ffffffffffffffffffffffffffffffffffffffff163373ffffffffffffffffffffffffffffffffffffffff161480610bae5750610bad8686611b1e565b5b610bb757600080fd5b610bf686858381518110610bce57610bcd61382b565b5b6020026020010151858481518110610be957610be861382b565b5b6020026020010151612036565b610c3585858381518110610c0d57610c0c61382b565b5b6020026020010151858481518110610c2857610c2761382b565b5b6020026020010151612109565b8080610c4090613755565b915050610b65565b508373ffffffffffffffffffffffffffffffffffffffff168573ffffffffffffffffffffffffffffffffffffffff163373ffffffffffffffffffffffffffffffffffffffff167f4a39dc06d4c0dbc64b70af90fd698a233a518aa5d07e595d983b8c0526c8f7fb8686604051610cbf929190613204565b60405180910390a45050505050565b600080610cdb8484610e1f565b90506000610ce8826113ac565b905060008183610cf89190613503565b905080935050505092915050565b60608151835114610d4c576040517f08c379a0000000000000000000000000000000000000000000000000000000008152600401610d43906132d8565b60405180910390fd5b6000835167ffffffffffffffff811115610d6957610d6861385a565b5b604051908082528060200260200182016040528015610d975781602001602082028036833780820191505090505b50905060005b8451811015610e1457610de4858281518110610dbc57610dbb61382b565b5b6020026020010151858381518110610dd757610dd661382b565b5b602002602001015161074e565b828281518110610df757610df661382b565b5b60200260200101818152505080610e0d90613755565b9050610d9d565b508091505092915050565b60008060009050600060088581548110610e3c57610e3b61382b565b5b906000526020600020906007020160050154905060008482610e5e9190613503565b905060088681548110610e7457610e7361382b565b5b906000526020600020906007020160060154811015610ecd57610ec6818660065460075460088b81548110610eac57610eab61382b565b5b906000526020600020906007020160060154600554611aa5565b9250611020565b60088681548110610ee157610ee061382b565b5b90600052602060002090600702016006015482101561100c57610f8860088781548110610f1157610f1061382b565b5b9060005260206000209060070201600601548360088981548110610f3857610f3761382b565b5b906000526020600020906007020160060154610f5491906135e4565b60065460075460088b81548110610f6e57610f6d61382b565b5b906000526020600020906007020160060154600554611aa5565b9250610ffa60088781548110610fa157610fa061382b565b5b9060005260206000209060070201600601548360088981548110610fc857610fc761382b565b5b906000526020600020906007020160060154610fe491906135e4565b87610fef91906135e4565b6006546007546121dc565b836110059190613503565b925061101f565b61101c82866006546007546121dc565b92505b5b82935050505092915050565b61103461226a565b73ffffffffffffffffffffffffffffffffffffffff1661105261122c565b73ffffffffffffffffffffffffffffffffffffffff16146110a8576040517f08c379a000000000000000000000000000000000000000000000000000000000815260040161109f906132b8565b60405180910390fd5b8073ffffffffffffffffffffffffffffffffffffffff166108fc479081150290604051600060405180830381858888f193505050501580156110ee573d6000803e3d6000fd5b5050565b6110fa61226a565b73ffffffffffffffffffffffffffffffffffffffff1661111861122c565b73ffffffffffffffffffffffffffffffffffffffff161461116e576040517f08c379a0000000000000000000000000000000000000000000000000000000008152600401611165906132b8565b60405180910390fd5b600073ffffffffffffffffffffffffffffffffffffffff1660008054906101000a900473ffffffffffffffffffffffffffffffffffffffff1673ffffffffffffffffffffffffffffffffffffffff167f8be0079c531659141344cd1fd0a4f28419497f9722a3daafe3b4186f6b6457e060405160405180910390a360008060006101000a81548173ffffffffffffffffffffffffffffffffffffffff021916908373ffffffffffffffffffffffffffffffffffffffff160217905550565b60008060009054906101000a900473ffffffffffffffffffffffffffffffffffffffff16905090565b600c602052816000526040600020602052806000526040600020600091509150505481565b80600d60003373ffffffffffffffffffffffffffffffffffffffff1673ffffffffffffffffffffffffffffffffffffffff16815260200190815260200160002060008473ffffffffffffffffffffffffffffffffffffffff1673ffffffffffffffffffffffffffffffffffffffff16815260200190815260200160002060006101000a81548160ff0219169083151502179055508173ffffffffffffffffffffffffffffffffffffffff163373ffffffffffffffffffffffffffffffffffffffff167f17307eab39ab6107e8899845ad3d59bd9653f200f220920489ca2b5937696c318360405161136b919061323b565b60405180910390a35050565b600d6020528160005260406000206020528060005260406000206000915091509054906101000a900460ff1681565b60045481565b60006064600154836113be919061358a565b6113c89190613559565b9050919050565b600b602052816000526040600020602052806000526040600020600091509150505481565b60035481565b826009600082815260200190815260200160002060009054906101000a900473ffffffffffffffffffffffffffffffffffffffff1673ffffffffffffffffffffffffffffffffffffffff163373ffffffffffffffffffffffffffffffffffffffff161461146657600080fd5b82826008868154811061147c5761147b61382b565b5b9060005260206000209060070201600101919061149a9291906125b0565b5050505050565b6114a961226a565b73ffffffffffffffffffffffffffffffffffffffff166114c761122c565b73ffffffffffffffffffffffffffffffffffffffff161461151d576040517f08c379a0000000000000000000000000000000000000000000000000000000008152600401611514906132b8565b60405180910390fd5b8060058190555050565b6008818154811061153757600080fd5b90600052602060002090600702016000915090508060000160009054906101000a900473ffffffffffffffffffffffffffffffffffffffff1690806001018054611580906136f2565b80601f01602080910402602001604051908101604052809291908181526020018280546115ac906136f2565b80156115f95780601f106115ce576101008083540402835291602001916115f9565b820191906000526020600020905b8154815290600101906020018083116115dc57829003601f168201915b50505050509080600201805461160e906136f2565b80601f016020809104026020016040519081016040528092919081815260200182805461163a906136f2565b80156116875780601f1061165c57610100808354040283529160200191611687565b820191906000526020600020905b81548152906001019060200180831161166a57829003601f168201915b50505050509080600301805461169c906136f2565b80601f01602080910402602001604051908101604052809291908181526020018280546116c8906136f2565b80156117155780601f106116ea57610100808354040283529160200191611715565b820191906000526020600020905b8154815290600101906020018083116116f857829003601f168201915b5050505050908060040160009054906101000a900460ff16908060050154908060060154905087565b60025481565b60086040518060e001604052808673ffffffffffffffffffffffffffffffffffffffff168152602001858152602001848152602001838152602001600015158152602001600081526020016000815250908060018154018082558091505060019003906000526020600020906007020160009091909190915060008201518160000160006101000a81548173ffffffffffffffffffffffffffffffffffffffff021916908373ffffffffffffffffffffffffffffffffffffffff1602179055506020820151816001019080519060200190611820929190612636565b50604082015181600201908051906020019061183d929190612636565b50606082015181600301908051906020019061185a929190612636565b5060808201518160040160006101000a81548160ff02191690831515021790555060a0820151816005015560c082015181600601555050600060016008805490506118a591906135e4565b9050846009600083815260200190815260200160002060006101000a81548173ffffffffffffffffffffffffffffffffffffffff021916908373ffffffffffffffffffffffffffffffffffffffff1602179055506000600a6000838152602001908152602001600020819055507f3ef624c0f3fb7ad40b94c02078ea3e3a797dbfc21e921ee4bd2b8ad0ca6aa11381868686866000806000604051611951989796959493929190613313565b60405180910390a15050505050565b61196861226a565b73ffffffffffffffffffffffffffffffffffffffff1661198661122c565b73ffffffffffffffffffffffffffffffffffffffff16146119dc576040517f08c379a00000000000000000000000000000000000000000000000000000000081526004016119d3906132b8565b60405180910390fd5b8060018190555050565b600e6020528060005260406000206000915090505481565b826009600082815260200190815260200160002060009054906101000a900473ffffffffffffffffffffffffffffffffffffffff1673ffffffffffffffffffffffffffffffffffffffff163373ffffffffffffffffffffffffffffffffffffffff1614611a6a57600080fd5b828260088681548110611a8057611a7f61382b565b5b90600052602060002090600702016003019190611a9e9291906125b0565b5050505050565b600080600080611ab98a8a8a8a8a8a612272565b9250925092506000838b1015611adc57611ad584848d856122ed565b9050611b0d565b83821015611afa57611af384848d858d8d8d612390565b9050611b0c565b611b0984848d858d8d8d6124b2565b90505b5b809450505050509695505050505050565b6000600d60008473ffffffffffffffffffffffffffffffffffffffff1673ffffffffffffffffffffffffffffffffffffffff16815260200190815260200160002060008373ffffffffffffffffffffffffffffffffffffffff1673ffffffffffffffffffffffffffffffffffffffff16815260200190815260200160002060009054906101000a900460ff16905092915050565b611bba61226a565b73ffffffffffffffffffffffffffffffffffffffff16611bd861122c565b73ffffffffffffffffffffffffffffffffffffffff1614611c2e576040517f08c379a0000000000000000000000000000000000000000000000000000000008152600401611c25906132b8565b60405180910390fd5b8073ffffffffffffffffffffffffffffffffffffffff166108fc6003549081150290604051600060405180830381858888f19350505050158015611c76573d6000803e3d6000fd5b50600060038190555050565b8473ffffffffffffffffffffffffffffffffffffffff163373ffffffffffffffffffffffffffffffffffffffff161480611cc25750611cc18585611b1e565b5b611ccb57600080fd5b611cd6858484612036565b611ce1848484612109565b8373ffffffffffffffffffffffffffffffffffffffff168573ffffffffffffffffffffffffffffffffffffffff163373ffffffffffffffffffffffffffffffffffffffff167fc3d58168c5ae7397731d063d5bbf3d657854427343f4c083240f7aacaa2d0f628686604051611d579291906133a6565b60405180910390a45050505050565b611d6e61226a565b73ffffffffffffffffffffffffffffffffffffffff16611d8c61122c565b73ffffffffffffffffffffffffffffffffffffffff1614611de2576040517f08c379a0000000000000000000000000000000000000000000000000000000008152600401611dd9906132b8565b60405180910390fd5b600073ffffffffffffffffffffffffffffffffffffffff168173ffffffffffffffffffffffffffffffffffffffff161415611e52576040517f08c379a0000000000000000000000000000000000000000000000000000000008152600401611e4990613298565b60405180910390fd5b8073ffffffffffffffffffffffffffffffffffffffff1660008054906101000a900473ffffffffffffffffffffffffffffffffffffffff1673ffffffffffffffffffffffffffffffffffffffff167f8be0079c531659141344cd1fd0a4f28419497f9722a3daafe3b4186f6b6457e060405160405180910390a3806000806101000a81548173ffffffffffffffffffffffffffffffffffffffff021916908373ffffffffffffffffffffffffffffffffffffffff16021790555050565b611f1761226a565b73ffffffffffffffffffffffffffffffffffffffff16611f3561122c565b73ffffffffffffffffffffffffffffffffffffffff1614611f8b576040517f08c379a0000000000000000000000000000000000000000000000000000000008152600401611f82906132b8565b60405180910390fd5b8060088381548110611fa057611f9f61382b565b5b906000526020600020906007020160040160006101000a81548160ff0219169083151502179055505050565b60007f01ffc9a7000000000000000000000000000000000000000000000000000000007bffffffffffffffffffffffffffffffffffffffffffffffffffffffff1916827bffffffffffffffffffffffffffffffffffffffffffffffffffffffff1916149050919050565b80600b600084815260200190815260200160002060008573ffffffffffffffffffffffffffffffffffffffff1673ffffffffffffffffffffffffffffffffffffffff168152602001908152602001600020600082825461209691906135e4565b9250508190555080600c60008573ffffffffffffffffffffffffffffffffffffffff1673ffffffffffffffffffffffffffffffffffffffff168152602001908152602001600020600084815260200190815260200160002060008282546120fd91906135e4565b92505081905550505050565b80600b600084815260200190815260200160002060008573ffffffffffffffffffffffffffffffffffffffff1673ffffffffffffffffffffffffffffffffffffffff16815260200190815260200160002060008282546121699190613503565b9250508190555080600c60008573ffffffffffffffffffffffffffffffffffffffff1673ffffffffffffffffffffffffffffffffffffffff168152602001908152602001600020600084815260200190815260200160002060008282546121d09190613503565b92505081905550505050565b60008084866121eb9190613503565b905060008387866121fc919061358a565b6122069190613559565b90506000848387612217919061358a565b6122219190613559565b90506000888461223191906135e4565b9050600060028284866122449190613503565b61224e919061358a565b6122589190613559565b90508095505050505050949350505050565b600033905090565b6000806000806002866122859190613559565b905060008789606488603261229a91906135e4565b8a6122a5919061358a565b6122af9190613559565b6122b9919061358a565b6122c39190613559565b905060008a8c6122d391906135e4565b905082828295509550955050505096509650969350505050565b60008082866122fc91906135e4565b86866123089190613559565b612312919061358a565b8561231d91906135e4565b90506000848761232d91906135e4565b87876123399190613559565b612343919061358a565b8661234e91906135e4565b90506000848661235e91906135e4565b9050600281838561236f9190613503565b612379919061358a565b6123839190613559565b9350505050949350505050565b600080858961239f91906135e4565b89896123ab9190613559565b6123b5919061358a565b886123c091906135e4565b905060008890506000878b6123d591906135e4565b9050600060028284866123e89190613503565b6123f2919061358a565b6123fc9190613559565b905060008b8d8c61240d91906135e4565b8e8961241991906135e4565b8e8b8b8e612427919061358a565b6124319190613559565b61243b91906135e4565b6124459190613559565b61244f919061358a565b6124599190613503565b905060008d8c61246991906135e4565b90506000600282848861247c9190613503565b612486919061358a565b6124909190613559565b9050808461249e9190613503565b975050505050505050979650505050505050565b6000808789876124c291906135e4565b8a856124ce91906135e4565b8a87878a6124dc919061358a565b6124e69190613559565b6124f091906135e4565b6124fa9190613559565b612504919061358a565b61250e9190613503565b90506000888a8961251f91906135e4565b8b8661252b91906135e4565b8b88888b612539919061358a565b6125439190613559565b61254d91906135e4565b6125579190613559565b612561919061358a565b61256b9190613503565b90506000878961257b91906135e4565b9050600281838561258c9190613503565b612596919061358a565b6125a09190613559565b9350505050979650505050505050565b8280546125bc906136f2565b90600052602060002090601f0160209004810192826125de5760008555612625565b82601f106125f757803560ff1916838001178555612625565b82800160010185558215612625579182015b82811115612624578235825591602001919060010190612609565b5b50905061263291906126bc565b5090565b828054612642906136f2565b90600052602060002090601f01602090048101928261266457600085556126ab565b82601f1061267d57805160ff19168380011785556126ab565b828001600101855582156126ab579182015b828111156126aa57825182559160200191906001019061268f565b5b5090506126b891906126bc565b5090565b5b808211156126d55760008160009055506001016126bd565b5090565b60006126ec6126e7846133f4565b6133cf565b9050808382526020820190508285602086028201111561270f5761270e613893565b5b60005b8581101561273f5781612725888261283d565b845260208401935060208301925050600181019050612712565b5050509392505050565b600061275c61275784613420565b6133cf565b9050808382526020820190508285602086028201111561277f5761277e613893565b5b60005b858110156127af5781612795888261299f565b845260208401935060208301925050600181019050612782565b5050509392505050565b60006127cc6127c78461344c565b6133cf565b9050828152602081018484840111156127e8576127e7613898565b5b6127f38482856136b0565b509392505050565b600061280e6128098461347d565b6133cf565b90508281526020810184848401111561282a57612829613898565b5b6128358482856136b0565b509392505050565b60008135905061284c816139ce565b92915050565b600081359050612861816139e5565b92915050565b600082601f83011261287c5761287b61388e565b5b813561288c8482602086016126d9565b91505092915050565b600082601f8301126128aa576128a961388e565b5b81356128ba848260208601612749565b91505092915050565b6000813590506128d2816139fc565b92915050565b6000813590506128e781613a13565b92915050565b600082601f8301126129025761290161388e565b5b81356129128482602086016127b9565b91505092915050565b60008083601f8401126129315761293061388e565b5b8235905067ffffffffffffffff81111561294e5761294d613889565b5b60208301915083600182028301111561296a57612969613893565b5b9250929050565b600082601f8301126129865761298561388e565b5b81356129968482602086016127fb565b91505092915050565b6000813590506129ae81613a2a565b92915050565b6000602082840312156129ca576129c96138a2565b5b60006129d88482850161283d565b91505092915050565b6000602082840312156129f7576129f66138a2565b5b6000612a0584828501612852565b91505092915050565b60008060008060808587031215612a2857612a276138a2565b5b6000612a3687828801612852565b945050602085013567ffffffffffffffff811115612a5757612a5661389d565b5b612a6387828801612971565b935050604085013567ffffffffffffffff811115612a8457612a8361389d565b5b612a9087828801612971565b925050606085013567ffffffffffffffff811115612ab157612ab061389d565b5b612abd87828801612971565b91505092959194509250565b60008060408385031215612ae057612adf6138a2565b5b6000612aee8582860161283d565b9250506020612aff8582860161283d565b9150509250929050565b600080600080600060a08688031215612b2557612b246138a2565b5b6000612b338882890161283d565b9550506020612b448882890161283d565b945050604086013567ffffffffffffffff811115612b6557612b6461389d565b5b612b7188828901612895565b935050606086013567ffffffffffffffff811115612b9257612b9161389d565b5b612b9e88828901612895565b925050608086013567ffffffffffffffff811115612bbf57612bbe61389d565b5b612bcb888289016128ed565b9150509295509295909350565b600080600080600060a08688031215612bf457612bf36138a2565b5b6000612c028882890161283d565b9550506020612c138882890161283d565b9450506040612c248882890161299f565b9350506060612c358882890161299f565b925050608086013567ffffffffffffffff811115612c5657612c5561389d565b5b612c62888289016128ed565b9150509295509295909350565b60008060408385031215612c8657612c856138a2565b5b6000612c948582860161283d565b9250506020612ca5858286016128c3565b9150509250929050565b60008060408385031215612cc657612cc56138a2565b5b6000612cd48582860161283d565b9250506020612ce58582860161299f565b9150509250929050565b60008060408385031215612d0657612d056138a2565b5b600083013567ffffffffffffffff811115612d2457612d2361389d565b5b612d3085828601612867565b925050602083013567ffffffffffffffff811115612d5157612d5061389d565b5b612d5d85828601612895565b9150509250929050565b600060208284031215612d7d57612d7c6138a2565b5b6000612d8b848285016128d8565b91505092915050565b600060208284031215612daa57612da96138a2565b5b6000612db88482850161299f565b91505092915050565b60008060408385031215612dd857612dd76138a2565b5b6000612de68582860161299f565b9250506020612df78582860161283d565b9150509250929050565b60008060408385031215612e1857612e176138a2565b5b6000612e268582860161299f565b9250506020612e3785828601612852565b9150509250929050565b60008060408385031215612e5857612e576138a2565b5b6000612e668582860161299f565b9250506020612e77858286016128c3565b9150509250929050565b600080600060408486031215612e9a57612e996138a2565b5b6000612ea88682870161299f565b935050602084013567ffffffffffffffff811115612ec957612ec861389d565b5b612ed58682870161291b565b92509250509250925092565b60008060408385031215612ef857612ef76138a2565b5b6000612f068582860161299f565b9250506020612f178582860161299f565b9150509250929050565b60008060008060008060c08789031215612f3e57612f3d6138a2565b5b6000612f4c89828a0161299f565b9650506020612f5d89828a0161299f565b9550506040612f6e89828a0161299f565b9450506060612f7f89828a0161299f565b9350506080612f9089828a0161299f565b92505060a0612fa189828a0161299f565b9150509295509295509295565b6000612fba8383613125565b60208301905092915050565b612fcf8161362a565b82525050565b612fde81613618565b82525050565b6000612fef826134be565b612ff981856134e1565b9350613004836134ae565b8060005b8381101561303557815161301c8882612fae565b9750613027836134d4565b925050600181019050613008565b5085935050505092915050565b61304b8161363c565b82525050565b61305a8161369e565b82525050565b600061306b826134c9565b61307581856134f2565b93506130858185602086016136bf565b61308e816138a7565b840191505092915050565b60006130a6602b836134f2565b91506130b1826138b8565b604082019050919050565b60006130c96026836134f2565b91506130d482613907565b604082019050919050565b60006130ec6020836134f2565b91506130f782613956565b602082019050919050565b600061310f6029836134f2565b915061311a8261397f565b604082019050919050565b61312e81613694565b82525050565b61313d81613694565b82525050565b60006020820190506131586000830184612fd5565b92915050565b600060e082019050613173600083018a612fc6565b81810360208301526131858189613060565b905081810360408301526131998188613060565b905081810360608301526131ad8187613060565b90506131bc6080830186613042565b6131c960a0830185613134565b6131d660c0830184613134565b98975050505050505050565b600060208201905081810360008301526131fc8184612fe4565b905092915050565b6000604082019050818103600083015261321e8185612fe4565b905081810360208301526132328184612fe4565b90509392505050565b60006020820190506132506000830184613042565b92915050565b600060208201905081810360008301526132708184613060565b905092915050565b6000602082019050818103600083015261329181613099565b9050919050565b600060208201905081810360008301526132b1816130bc565b9050919050565b600060208201905081810360008301526132d1816130df565b9050919050565b600060208201905081810360008301526132f181613102565b9050919050565b600060208201905061330d6000830184613134565b92915050565b600061010082019050613329600083018b613134565b613336602083018a612fc6565b81810360408301526133488189613060565b9050818103606083015261335c8188613060565b905081810360808301526133708187613060565b905061337f60a0830186613042565b61338c60c0830185613051565b61339960e0830184613051565b9998505050505050505050565b60006040820190506133bb6000830185613134565b6133c86020830184613134565b9392505050565b60006133d96133ea565b90506133e58282613724565b919050565b6000604051905090565b600067ffffffffffffffff82111561340f5761340e61385a565b5b602082029050602081019050919050565b600067ffffffffffffffff82111561343b5761343a61385a565b5b602082029050602081019050919050565b600067ffffffffffffffff8211156134675761346661385a565b5b613470826138a7565b9050602081019050919050565b600067ffffffffffffffff8211156134985761349761385a565b5b6134a1826138a7565b9050602081019050919050565b6000819050602082019050919050565b600081519050919050565b600081519050919050565b6000602082019050919050565b600082825260208201905092915050565b600082825260208201905092915050565b600061350e82613694565b915061351983613694565b9250827fffffffffffffffffffffffffffffffffffffffffffffffffffffffffffffffff0382111561354e5761354d61379e565b5b828201905092915050565b600061356482613694565b915061356f83613694565b92508261357f5761357e6137cd565b5b828204905092915050565b600061359582613694565b91506135a083613694565b9250817fffffffffffffffffffffffffffffffffffffffffffffffffffffffffffffffff04831182151516156135d9576135d861379e565b5b828202905092915050565b60006135ef82613694565b91506135fa83613694565b92508282101561360d5761360c61379e565b5b828203905092915050565b600061362382613674565b9050919050565b600061363582613674565b9050919050565b60008115159050919050565b60007fffffffff0000000000000000000000000000000000000000000000000000000082169050919050565b600073ffffffffffffffffffffffffffffffffffffffff82169050919050565b6000819050919050565b60006136a982613694565b9050919050565b82818337600083830152505050565b60005b838110156136dd5780820151818401526020810190506136c2565b838111156136ec576000848401525b50505050565b6000600282049050600182168061370a57607f821691505b6020821081141561371e5761371d6137fc565b5b50919050565b61372d826138a7565b810181811067ffffffffffffffff8211171561374c5761374b61385a565b5b80604052505050565b600061376082613694565b91507fffffffffffffffffffffffffffffffffffffffffffffffffffffffffffffffff8214156137935761379261379e565b5b600182019050919050565b7f4e487b7100000000000000000000000000000000000000000000000000000000600052601160045260246000fd5b7f4e487b7100000000000000000000000000000000000000000000000000000000600052601260045260246000fd5b7f4e487b7100000000000000000000000000000000000000000000000000000000600052602260045260246000fd5b7f4e487b7100000000000000000000000000000000000000000000000000000000600052603260045260246000fd5b7f4e487b7100000000000000000000000000000000000000000000000000000000600052604160045260246000fd5b600080fd5b600080fd5b600080fd5b600080fd5b600080fd5b600080fd5b6000601f19601f8301169050919050565b7f455243313135353a2062616c616e636520717565727920666f7220746865207a60008201527f65726f2061646472657373000000000000000000000000000000000000000000602082015250565b7f4f776e61626c653a206e6577206f776e657220697320746865207a65726f206160008201527f6464726573730000000000000000000000000000000000000000000000000000602082015250565b7f4f776e61626c653a2063616c6c6572206973206e6f7420746865206f776e6572600082015250565b7f455243313135353a206163636f756e747320616e6420696473206c656e67746860008201527f206d69736d617463680000000000000000000000000000000000000000000000602082015250565b6139d781613618565b81146139e257600080fd5b50565b6139ee8161362a565b81146139f957600080fd5b50565b613a058161363c565b8114613a1057600080fd5b50565b613a1c81613648565b8114613a2757600080fd5b50565b613a3381613694565b8114613a3e57600080fd5b5056fea26469706673582212202da7dff9d978d5410c95aa1758d162deb29597d4d2e6870716c81ff5d5d98eca64736f6c63430008070033",
  "immutableReferences": {},
  "source": "// SPDX-License-Identifier: MIT\npragma solidity ^0.8.0;\n\nimport \"./creatortokenfees.sol\";\n\n/// @title Computes buy proceeds and total proceeds associated with a buy transaction\n/// @author Kamil Alizai Sadik\ncontract CreatorTokenComputation is CreatorTokenFees {\n\n\tconstructor(string memory uri) CreatorTokenFees(uri) { }\n\n\t/// @dev Calculates total transaction proceeds\n\t/// @param _tokenId ID of the token being transacted\n\t/// @param _amount Quantity of the token being transacted\n\t/// @return Total proceeds required in transaction\n\tfunction _totalProceeds(uint _tokenId, uint _amount) public view returns (uint256) {//, uint256, uint256) {//[3] memory) {\n\t\t// Compute proceedsRequired (ex-fees)\n\t\tuint proceedsRequired = _buyProceeds(_tokenId, _amount);\n\t\t// Compute feeRequired\n\t\tuint feeRequired = _feeProceeds(proceedsRequired);\n\t\t// Compute total proceeds required\n\t\tuint totalProceeds = proceedsRequired + feeRequired;\n\t\treturn totalProceeds;\n\t}\n\n\t/// @dev Calculates proceeds required for a given buy transaction (not including fees)\n\t/// @param _tokenId ID of the token being transacted\n\t/// @param _amount Quantity of the token being transacted\n\t/// @return Proceeds required in the transaction (before fees)\n\tfunction _buyProceeds(uint _tokenId, uint _amount) public view returns (uint256) {\n\t\t// Initialize proceeds required;\n\t\tuint proceedsRequired = 0;\n\t\t// Initialize pre-transaction supply\n\t\tuint startingSupply = creatorTokens[_tokenId].outstanding;\n\t\t// Compute post-transaction supply\n\t\tuint endSupply = startingSupply + _amount;\n\t\t// Compute buy proceeds\n\t\t// Check if endSupply <= maxSupply\n\t\tif (endSupply < creatorTokens[_tokenId].maxSupply) {\n\t\t\t// Scenario in which entire transaction takes place below maxSupply\n\t\t\t// Just call s(x)\n\t\t\t//proceedsRequired = _saleFunction(startingSupply, _amount, mNumerator, mDenominator, creatorTokens[_tokenId].maxSupply, profitMargin);\n\t\t\tproceedsRequired = _saleFunction(endSupply, _amount, mNumerator, mDenominator, creatorTokens[_tokenId].maxSupply, profitMargin);\n\t\t} else if (startingSupply < creatorTokens[_tokenId].maxSupply){\n\t\t\t// Scenario in which supply begins below maxSupply and ends above pre-transaction maxSupply\n\t\t\t// Use s(x) from startingSupply to maxSupply\n\t\t\tproceedsRequired = _saleFunction(creatorTokens[_tokenId].maxSupply, creatorTokens[_tokenId].maxSupply - startingSupply, mNumerator, mDenominator, creatorTokens[_tokenId].maxSupply, profitMargin);\n\t\t\t// Use b(x) from maxSupply to endSupply\n\t\t\tproceedsRequired += _buyFunction(creatorTokens[_tokenId].maxSupply, _amount - (creatorTokens[_tokenId].maxSupply - startingSupply), mNumerator, mDenominator);\n\t\t} else {\n\t\t\t// Scenario in which transaction begins at maxSupply\n\t\t\t// Just call b(x)\n\t\t\tproceedsRequired = _buyFunction(startingSupply, _amount, mNumerator, mDenominator);\n\t\t}\n\t\t// Return proceeds required\n\t\treturn proceedsRequired;\n\t}\n}",
  "sourcePath": "/Users/kamilalizaisadik/DeFi/Dynamic Automated Market Maker/CreatorTokenExchange/contracts/creatortokencomputation.sol",
  "compiler": {
    "name": "solc",
    "version": "0.8.7+commit.e28d00a7.Emscripten.clang"
  },
  "schemaVersion": "3.4.1",
  "updatedAt": "2021-08-12T00:33:56.919Z",
  "devdoc": {
    "author": "Kamil Alizai Sadik",
    "kind": "dev",
    "methods": {
      "_buyProceeds(uint256,uint256)": {
        "details": "Calculates proceeds required for a given buy transaction (not including fees)",
        "params": {
          "_amount": "Quantity of the token being transacted",
          "_tokenId": "ID of the token being transacted"
        },
        "returns": {
          "_0": "Proceeds required in the transaction (before fees)"
        }
      },
      "_feeProceeds(uint256)": {
        "details": "Calculates the fee associated with a buy transaction",
        "params": {
          "_proceedsRequired": "The proceeds required for the buy transaction (before addition of fees)"
        },
        "returns": {
          "_0": "Fee associated with transaction"
        }
      },
      "_saleFunction(uint256,uint256,uint256,uint256,uint256,uint256)": {
        "details": "Calculates area under sale price function",
        "params": {
          "_amount": "Amount of token being transacted",
          "_mDenominator": "Denominator of the slope of the buy price function",
          "_mNumerator": "Numerator of the slope of the buy price function",
          "_maxSupply": "Peak level of supply of the token to date",
          "_profitMargin": "percentage of total revenue generated routed to creator",
          "_startingSupply": "Supply of token in circulation before the transaction"
        },
        "returns": {
          "_0": "Area under sale price function denoting total proceeds received when selling _amount tokens (before fees)"
        }
      },
      "_totalProceeds(uint256,uint256)": {
        "details": "Calculates total transaction proceeds",
        "params": {
          "_amount": "Quantity of the token being transacted",
          "_tokenId": "ID of the token being transacted"
        },
        "returns": {
          "_0": "Total proceeds required in transaction"
        }
      },
      "balanceOf(address,uint256)": {
        "details": "See {IERC1155-balanceOf}. Requirements: - `account` cannot be the zero address."
      },
      "balanceOfBatch(address[],uint256[])": {
        "details": "See {IERC1155-balanceOfBatch}. Requirements: - `accounts` and `ids` must have the same length."
      },
      "changeAddress(uint256,address)": {
        "details": "Allows token creator to change their address",
        "params": {
          "_newCreatorAddress": "New creator address associated with the token",
          "_tokenId": "ID of the token in question"
        }
      },
      "changeDescription(uint256,string)": {
        "details": "Allows token creator to change the description of their token",
        "params": {
          "_newDescription": "New description associated with the token",
          "_tokenId": "ID of the token in question"
        }
      },
      "changeName(uint256,string)": {
        "details": "Allows token creator to change the name of their token",
        "params": {
          "_newName": "New name associated with the token",
          "_tokenId": "ID of the token in question"
        }
      },
      "changePlatformFee(uint256)": {
        "details": "Allows owner to change platformFee",
        "params": {
          "_newPlatformFee": "New platform fee"
        }
      },
      "changeProfitMargin(uint256)": {
        "details": "Allows owner to change profit_margin",
        "params": {
          "_newProfitMargin": "New profit margin"
        }
      },
      "changeSymbol(uint256,string)": {
        "details": "Allows token creator to change the symbol of their token",
        "params": {
          "_newSymbol": "New symbol associated with the token",
          "_tokenId": "ID of the token in question"
        }
      },
      "changeVerification(uint256,bool)": {
        "details": "Allows owner to verify (or undo verification) of a CreatorToken",
        "params": {
          "_tokenId": "ID of the token in question",
          "_verified": "Verification status of the token in question"
        }
      },
      "createCreatorToken(address,string,string,string)": {
        "details": "Creates a new creator token",
        "params": {
          "_creatorAddress": "Address of the creator of the token",
          "_description": "chosen by the creator of the tokens",
          "_name": "Name chosen by the creator of the token",
          "_symbol": "Ticker symbol chosen by the creator of the token"
        }
      },
      "getCreatorTokenCount()": {
        "details": "Returns the current length of the creatorTokens array",
        "returns": {
          "_0": "uint representing number of unique Creator Tokens"
        }
      },
      "isApprovedForAll(address,address)": {
        "details": "Denotes whether operator is approved to transfer account's tokens",
        "params": {
          "_account": "Wallet address holding tokens",
          "_operator": "Wallet address which is/isn't approved to transfer _account's tokens"
        },
        "returns": {
          "_0": "Boolean value indicating approval status"
        }
      },
      "owner()": {
        "details": "Returns the address of the current owner."
      },
      "payoutPlatformFees(address)": {
        "details": "Pays out platform fees owed to owner (might opt to call this daily)",
        "params": {
          "_owner": "Owner of the smart contract"
        }
      },
      "renounceOwnership()": {
        "details": "Leaves the contract without owner. It will not be possible to call `onlyOwner` functions anymore. Can only be called by the current owner. NOTE: Renouncing ownership will leave the contract without an owner, thereby removing any functionality that is only available to the owner."
      },
      "safeBatchTransferFrom(address,address,uint256[],uint256[],bytes)": {
        "details": "Transfers a batch of tokens",
        "params": {
          "_amounts": "Array of quantities of token to be transferred",
          "_data": "Data",
          "_from": "Address token is being transferred from",
          "_ids": "Array of IDs of tokens being transferred",
          "_to": "Address token is being transferred to"
        }
      },
      "safeTransferFrom(address,address,uint256,uint256,bytes)": {
        "details": "Transfers a token",
        "params": {
          "_amount": "Quantity of token to be transferred",
          "_data": "Data",
          "_from": "Address token is being transferred from",
          "_id": "ID of token being transferred",
          "_to": "Address token is being transferred to"
        }
      },
      "setApprovalForAll(address,bool)": {
        "details": "Gives operator permission to transfer caller's tokens",
        "params": {
          "_approved": "Boolean value indicating whether operator is approved",
          "_operator": "Wallet address being granted permission"
        }
      },
      "supportsInterface(bytes4)": {
        "details": "See {IERC165-supportsInterface}."
      },
      "transferOwnership(address)": {
        "details": "Transfers ownership of the contract to a new account (`newOwner`). Can only be called by the current owner."
      },
      "uri(uint256)": {
        "details": "See {IERC1155MetadataURI-uri}. This implementation returns the same URI for *all* token types. It relies on the token type ID substitution mechanism https://eips.ethereum.org/EIPS/eip-1155#metadata[defined in the EIP]. Clients calling this function must replace the `\\{id\\}` substring with the actual token type ID."
      },
      "withdraw(address)": {
        "details": "Ownable function allowing for withdrawal",
        "params": {
          "_owner": "Owner of the smart contract"
        }
      }
    },
    "title": "Computes buy proceeds and total proceeds associated with a buy transaction",
    "version": 1
  },
  "userdoc": {
    "kind": "user",
    "methods": {},
    "version": 1
  }
}