{
  "contractName": "CreatorTokenOwnership",
  "abi": [
    {
      "inputs": [
        {
          "internalType": "string",
          "name": "uri",
          "type": "string"
        }
      ],
      "stateMutability": "nonpayable",
      "type": "constructor"
    },
    {
      "anonymous": false,
      "inputs": [
        {
          "indexed": true,
          "internalType": "address",
          "name": "account",
          "type": "address"
        },
        {
          "indexed": true,
          "internalType": "address",
          "name": "operator",
          "type": "address"
        },
        {
          "indexed": false,
          "internalType": "bool",
          "name": "approved",
          "type": "bool"
        }
      ],
      "name": "ApprovalForAll",
      "type": "event"
    },
    {
      "anonymous": false,
      "inputs": [
        {
          "indexed": false,
          "internalType": "uint256",
          "name": "tokenId",
          "type": "uint256"
        },
        {
          "indexed": false,
          "internalType": "address payable",
          "name": "creatorAddress",
          "type": "address"
        },
        {
          "indexed": false,
          "internalType": "string",
          "name": "name",
          "type": "string"
        },
        {
          "indexed": false,
          "internalType": "string",
          "name": "symbol",
          "type": "string"
        },
        {
          "indexed": false,
          "internalType": "string",
          "name": "description",
          "type": "string"
        },
        {
          "indexed": false,
          "internalType": "bool",
          "name": "verified",
          "type": "bool"
        },
        {
          "indexed": false,
          "internalType": "uint256",
          "name": "outstanding",
          "type": "uint256"
        },
        {
          "indexed": false,
          "internalType": "uint256",
          "name": "maxSupply",
          "type": "uint256"
        }
      ],
      "name": "NewCreatorToken",
      "type": "event"
    },
    {
      "anonymous": false,
      "inputs": [
        {
          "indexed": true,
          "internalType": "address",
          "name": "previousOwner",
          "type": "address"
        },
        {
          "indexed": true,
          "internalType": "address",
          "name": "newOwner",
          "type": "address"
        }
      ],
      "name": "OwnershipTransferred",
      "type": "event"
    },
    {
      "anonymous": false,
      "inputs": [
        {
          "indexed": false,
          "internalType": "address",
          "name": "account",
          "type": "address"
        }
      ],
      "name": "Paused",
      "type": "event"
    },
    {
      "anonymous": false,
      "inputs": [
        {
          "indexed": true,
          "internalType": "bytes32",
          "name": "role",
          "type": "bytes32"
        },
        {
          "indexed": true,
          "internalType": "bytes32",
          "name": "previousAdminRole",
          "type": "bytes32"
        },
        {
          "indexed": true,
          "internalType": "bytes32",
          "name": "newAdminRole",
          "type": "bytes32"
        }
      ],
      "name": "RoleAdminChanged",
      "type": "event"
    },
    {
      "anonymous": false,
      "inputs": [
        {
          "indexed": true,
          "internalType": "bytes32",
          "name": "role",
          "type": "bytes32"
        },
        {
          "indexed": true,
          "internalType": "address",
          "name": "account",
          "type": "address"
        },
        {
          "indexed": true,
          "internalType": "address",
          "name": "sender",
          "type": "address"
        }
      ],
      "name": "RoleGranted",
      "type": "event"
    },
    {
      "anonymous": false,
      "inputs": [
        {
          "indexed": true,
          "internalType": "bytes32",
          "name": "role",
          "type": "bytes32"
        },
        {
          "indexed": true,
          "internalType": "address",
          "name": "account",
          "type": "address"
        },
        {
          "indexed": true,
          "internalType": "address",
          "name": "sender",
          "type": "address"
        }
      ],
      "name": "RoleRevoked",
      "type": "event"
    },
    {
      "anonymous": false,
      "inputs": [
        {
          "indexed": true,
          "internalType": "address",
          "name": "operator",
          "type": "address"
        },
        {
          "indexed": true,
          "internalType": "address",
          "name": "from",
          "type": "address"
        },
        {
          "indexed": true,
          "internalType": "address",
          "name": "to",
          "type": "address"
        },
        {
          "indexed": false,
          "internalType": "uint256[]",
          "name": "ids",
          "type": "uint256[]"
        },
        {
          "indexed": false,
          "internalType": "uint256[]",
          "name": "values",
          "type": "uint256[]"
        }
      ],
      "name": "TransferBatch",
      "type": "event"
    },
    {
      "anonymous": false,
      "inputs": [
        {
          "indexed": true,
          "internalType": "address",
          "name": "operator",
          "type": "address"
        },
        {
          "indexed": true,
          "internalType": "address",
          "name": "from",
          "type": "address"
        },
        {
          "indexed": true,
          "internalType": "address",
          "name": "to",
          "type": "address"
        },
        {
          "indexed": false,
          "internalType": "uint256",
          "name": "id",
          "type": "uint256"
        },
        {
          "indexed": false,
          "internalType": "uint256",
          "name": "value",
          "type": "uint256"
        }
      ],
      "name": "TransferSingle",
      "type": "event"
    },
    {
      "anonymous": false,
      "inputs": [
        {
          "indexed": false,
          "internalType": "string",
          "name": "value",
          "type": "string"
        },
        {
          "indexed": true,
          "internalType": "uint256",
          "name": "id",
          "type": "uint256"
        }
      ],
      "name": "URI",
      "type": "event"
    },
    {
      "anonymous": false,
      "inputs": [
        {
          "indexed": false,
          "internalType": "address",
          "name": "account",
          "type": "address"
        }
      ],
      "name": "Unpaused",
      "type": "event"
    },
    {
      "inputs": [],
      "name": "DEFAULT_ADMIN_ROLE",
      "outputs": [
        {
          "internalType": "bytes32",
          "name": "",
          "type": "bytes32"
        }
      ],
      "stateMutability": "view",
      "type": "function"
    },
    {
      "inputs": [],
      "name": "MINTER_ROLE",
      "outputs": [
        {
          "internalType": "bytes32",
          "name": "",
          "type": "bytes32"
        }
      ],
      "stateMutability": "view",
      "type": "function"
    },
    {
      "inputs": [],
      "name": "PAUSER_ROLE",
      "outputs": [
        {
          "internalType": "bytes32",
          "name": "",
          "type": "bytes32"
        }
      ],
      "stateMutability": "view",
      "type": "function"
    },
    {
      "inputs": [
        {
          "internalType": "address",
          "name": "account",
          "type": "address"
        },
        {
          "internalType": "uint256",
          "name": "id",
          "type": "uint256"
        }
      ],
      "name": "balanceOf",
      "outputs": [
        {
          "internalType": "uint256",
          "name": "",
          "type": "uint256"
        }
      ],
      "stateMutability": "view",
      "type": "function"
    },
    {
      "inputs": [
        {
          "internalType": "address[]",
          "name": "accounts",
          "type": "address[]"
        },
        {
          "internalType": "uint256[]",
          "name": "ids",
          "type": "uint256[]"
        }
      ],
      "name": "balanceOfBatch",
      "outputs": [
        {
          "internalType": "uint256[]",
          "name": "",
          "type": "uint256[]"
        }
      ],
      "stateMutability": "view",
      "type": "function"
    },
    {
      "inputs": [
        {
          "internalType": "uint256",
          "name": "_tokenId",
          "type": "uint256"
        },
        {
          "internalType": "address payable",
          "name": "_newCreatorAddress",
          "type": "address"
        }
      ],
      "name": "changeAddress",
      "outputs": [],
      "stateMutability": "nonpayable",
      "type": "function"
    },
    {
      "inputs": [
        {
          "internalType": "uint256",
          "name": "_tokenId",
          "type": "uint256"
        },
        {
          "internalType": "string",
          "name": "_newDescription",
          "type": "string"
        }
      ],
      "name": "changeDescription",
      "outputs": [],
      "stateMutability": "nonpayable",
      "type": "function"
    },
    {
      "inputs": [
        {
          "internalType": "uint256",
          "name": "_tokenId",
          "type": "uint256"
        },
        {
          "internalType": "string",
          "name": "_newName",
          "type": "string"
        }
      ],
      "name": "changeName",
      "outputs": [],
      "stateMutability": "nonpayable",
      "type": "function"
    },
    {
      "inputs": [
        {
          "internalType": "uint256",
          "name": "_newPlatformFee",
          "type": "uint256"
        }
      ],
      "name": "changePlatformFee",
      "outputs": [],
      "stateMutability": "nonpayable",
      "type": "function"
    },
    {
      "inputs": [
        {
          "internalType": "uint256",
          "name": "_newProfitMargin",
          "type": "uint256"
        }
      ],
      "name": "changeProfitMargin",
      "outputs": [],
      "stateMutability": "nonpayable",
      "type": "function"
    },
    {
      "inputs": [
        {
          "internalType": "uint256",
          "name": "_tokenId",
          "type": "uint256"
        },
        {
          "internalType": "string",
          "name": "_newSymbol",
          "type": "string"
        }
      ],
      "name": "changeSymbol",
      "outputs": [],
      "stateMutability": "nonpayable",
      "type": "function"
    },
    {
      "inputs": [
        {
          "internalType": "uint256",
          "name": "_tokenId",
          "type": "uint256"
        },
        {
          "internalType": "bool",
          "name": "_verified",
          "type": "bool"
        }
      ],
      "name": "changeVerification",
      "outputs": [],
      "stateMutability": "nonpayable",
      "type": "function"
    },
    {
      "inputs": [
        {
          "internalType": "address payable",
          "name": "_creatorAddress",
          "type": "address"
        },
        {
          "internalType": "string",
          "name": "_name",
          "type": "string"
        },
        {
          "internalType": "string",
          "name": "_symbol",
          "type": "string"
        },
        {
          "internalType": "string",
          "name": "_description",
          "type": "string"
        }
      ],
      "name": "createCreatorToken",
      "outputs": [],
      "stateMutability": "nonpayable",
      "type": "function"
    },
    {
      "inputs": [
        {
          "internalType": "uint256",
          "name": "",
          "type": "uint256"
        }
      ],
      "name": "creatorTokens",
      "outputs": [
        {
          "internalType": "address payable",
          "name": "creatorAddress",
          "type": "address"
        },
        {
          "internalType": "string",
          "name": "name",
          "type": "string"
        },
        {
          "internalType": "string",
          "name": "symbol",
          "type": "string"
        },
        {
          "internalType": "string",
          "name": "description",
          "type": "string"
        },
        {
          "internalType": "bool",
          "name": "verified",
          "type": "bool"
        },
        {
          "internalType": "uint256",
          "name": "outstanding",
          "type": "uint256"
        },
        {
          "internalType": "uint256",
          "name": "maxSupply",
          "type": "uint256"
        }
      ],
      "stateMutability": "view",
      "type": "function"
    },
    {
      "inputs": [
        {
          "internalType": "bytes32",
          "name": "role",
          "type": "bytes32"
        }
      ],
      "name": "getRoleAdmin",
      "outputs": [
        {
          "internalType": "bytes32",
          "name": "",
          "type": "bytes32"
        }
      ],
      "stateMutability": "view",
      "type": "function"
    },
    {
      "inputs": [
        {
          "internalType": "bytes32",
          "name": "role",
          "type": "bytes32"
        },
        {
          "internalType": "uint256",
          "name": "index",
          "type": "uint256"
        }
      ],
      "name": "getRoleMember",
      "outputs": [
        {
          "internalType": "address",
          "name": "",
          "type": "address"
        }
      ],
      "stateMutability": "view",
      "type": "function"
    },
    {
      "inputs": [
        {
          "internalType": "bytes32",
          "name": "role",
          "type": "bytes32"
        }
      ],
      "name": "getRoleMemberCount",
      "outputs": [
        {
          "internalType": "uint256",
          "name": "",
          "type": "uint256"
        }
      ],
      "stateMutability": "view",
      "type": "function"
    },
    {
      "inputs": [
        {
          "internalType": "bytes32",
          "name": "role",
          "type": "bytes32"
        },
        {
          "internalType": "address",
          "name": "account",
          "type": "address"
        }
      ],
      "name": "grantRole",
      "outputs": [],
      "stateMutability": "nonpayable",
      "type": "function"
    },
    {
      "inputs": [
        {
          "internalType": "bytes32",
          "name": "role",
          "type": "bytes32"
        },
        {
          "internalType": "address",
          "name": "account",
          "type": "address"
        }
      ],
      "name": "hasRole",
      "outputs": [
        {
          "internalType": "bool",
          "name": "",
          "type": "bool"
        }
      ],
      "stateMutability": "view",
      "type": "function"
    },
    {
      "inputs": [],
      "name": "owner",
      "outputs": [
        {
          "internalType": "address",
          "name": "",
          "type": "address"
        }
      ],
      "stateMutability": "view",
      "type": "function"
    },
    {
      "inputs": [],
      "name": "pause",
      "outputs": [],
      "stateMutability": "nonpayable",
      "type": "function"
    },
    {
      "inputs": [],
      "name": "paused",
      "outputs": [
        {
          "internalType": "bool",
          "name": "",
          "type": "bool"
        }
      ],
      "stateMutability": "view",
      "type": "function"
    },
    {
      "inputs": [
        {
          "internalType": "address payable",
          "name": "_owner",
          "type": "address"
        }
      ],
      "name": "payoutPlatformFees",
      "outputs": [],
      "stateMutability": "nonpayable",
      "type": "function"
    },
    {
      "inputs": [],
      "name": "renounceOwnership",
      "outputs": [],
      "stateMutability": "nonpayable",
      "type": "function"
    },
    {
      "inputs": [
        {
          "internalType": "bytes32",
          "name": "role",
          "type": "bytes32"
        },
        {
          "internalType": "address",
          "name": "account",
          "type": "address"
        }
      ],
      "name": "renounceRole",
      "outputs": [],
      "stateMutability": "nonpayable",
      "type": "function"
    },
    {
      "inputs": [
        {
          "internalType": "bytes32",
          "name": "role",
          "type": "bytes32"
        },
        {
          "internalType": "address",
          "name": "account",
          "type": "address"
        }
      ],
      "name": "revokeRole",
      "outputs": [],
      "stateMutability": "nonpayable",
      "type": "function"
    },
    {
      "inputs": [
        {
          "internalType": "bytes4",
          "name": "interfaceId",
          "type": "bytes4"
        }
      ],
      "name": "supportsInterface",
      "outputs": [
        {
          "internalType": "bool",
          "name": "",
          "type": "bool"
        }
      ],
      "stateMutability": "view",
      "type": "function"
    },
    {
      "inputs": [
        {
          "internalType": "uint256",
          "name": "",
          "type": "uint256"
        },
        {
          "internalType": "address",
          "name": "",
          "type": "address"
        }
      ],
      "name": "tokenHoldership",
      "outputs": [
        {
          "internalType": "uint256",
          "name": "",
          "type": "uint256"
        }
      ],
      "stateMutability": "view",
      "type": "function"
    },
    {
      "inputs": [
        {
          "internalType": "uint256",
          "name": "",
          "type": "uint256"
        }
      ],
      "name": "tokenToCreator",
      "outputs": [
        {
          "internalType": "address",
          "name": "",
          "type": "address"
        }
      ],
      "stateMutability": "view",
      "type": "function"
    },
    {
      "inputs": [
        {
          "internalType": "address",
          "name": "newOwner",
          "type": "address"
        }
      ],
      "name": "transferOwnership",
      "outputs": [],
      "stateMutability": "nonpayable",
      "type": "function"
    },
    {
      "inputs": [],
      "name": "unpause",
      "outputs": [],
      "stateMutability": "nonpayable",
      "type": "function"
    },
    {
      "inputs": [
        {
          "internalType": "uint256",
          "name": "",
          "type": "uint256"
        }
      ],
      "name": "uri",
      "outputs": [
        {
          "internalType": "string",
          "name": "",
          "type": "string"
        }
      ],
      "stateMutability": "view",
      "type": "function"
    },
    {
      "inputs": [
        {
          "internalType": "address",
          "name": "",
          "type": "address"
        },
        {
          "internalType": "uint256",
          "name": "",
          "type": "uint256"
        }
      ],
      "name": "userToHoldings",
      "outputs": [
        {
          "internalType": "uint256",
          "name": "",
          "type": "uint256"
        }
      ],
      "stateMutability": "view",
      "type": "function"
    },
    {
      "inputs": [
        {
          "internalType": "address payable",
          "name": "_owner",
          "type": "address"
        }
      ],
      "name": "withdraw",
      "outputs": [],
      "stateMutability": "nonpayable",
      "type": "function"
    },
    {
      "inputs": [
        {
          "internalType": "address",
          "name": "_account",
          "type": "address"
        },
        {
          "internalType": "uint256",
          "name": "_id",
          "type": "uint256"
        },
        {
          "internalType": "uint256",
          "name": "_amount",
          "type": "uint256"
        }
      ],
      "name": "mappingIncrease",
      "outputs": [],
      "stateMutability": "nonpayable",
      "type": "function"
    },
    {
      "inputs": [
        {
          "internalType": "address",
          "name": "_account",
          "type": "address"
        },
        {
          "internalType": "uint256",
          "name": "_id",
          "type": "uint256"
        },
        {
          "internalType": "uint256",
          "name": "_amount",
          "type": "uint256"
        }
      ],
      "name": "mappingDecrease",
      "outputs": [],
      "stateMutability": "nonpayable",
      "type": "function"
    },
    {
      "inputs": [
        {
          "internalType": "address",
          "name": "_to",
          "type": "address"
        },
        {
          "internalType": "uint256",
          "name": "_id",
          "type": "uint256"
        },
        {
          "internalType": "uint256",
          "name": "_amount",
          "type": "uint256"
        },
        {
          "internalType": "bytes",
          "name": "_data",
          "type": "bytes"
        }
      ],
      "name": "mint",
      "outputs": [],
      "stateMutability": "nonpayable",
      "type": "function"
    },
    {
      "inputs": [
        {
          "internalType": "address",
          "name": "_to",
          "type": "address"
        },
        {
          "internalType": "uint256[]",
          "name": "_ids",
          "type": "uint256[]"
        },
        {
          "internalType": "uint256[]",
          "name": "_amounts",
          "type": "uint256[]"
        },
        {
          "internalType": "bytes",
          "name": "data",
          "type": "bytes"
        }
      ],
      "name": "mintBatch",
      "outputs": [],
      "stateMutability": "nonpayable",
      "type": "function"
    },
    {
      "inputs": [
        {
          "internalType": "address",
          "name": "_account",
          "type": "address"
        },
        {
          "internalType": "uint256",
          "name": "_id",
          "type": "uint256"
        },
        {
          "internalType": "uint256",
          "name": "_amount",
          "type": "uint256"
        }
      ],
      "name": "burn",
      "outputs": [],
      "stateMutability": "nonpayable",
      "type": "function"
    },
    {
      "inputs": [
        {
          "internalType": "address",
          "name": "_account",
          "type": "address"
        },
        {
          "internalType": "uint256[]",
          "name": "_ids",
          "type": "uint256[]"
        },
        {
          "internalType": "uint256[]",
          "name": "_amounts",
          "type": "uint256[]"
        }
      ],
      "name": "burnBatch",
      "outputs": [],
      "stateMutability": "nonpayable",
      "type": "function"
    },
    {
      "inputs": [
        {
          "internalType": "address",
          "name": "_from",
          "type": "address"
        },
        {
          "internalType": "address",
          "name": "_to",
          "type": "address"
        },
        {
          "internalType": "uint256",
          "name": "_id",
          "type": "uint256"
        },
        {
          "internalType": "uint256",
          "name": "_amount",
          "type": "uint256"
        },
        {
          "internalType": "bytes",
          "name": "_data",
          "type": "bytes"
        }
      ],
      "name": "safeTransferFrom",
      "outputs": [],
      "stateMutability": "nonpayable",
      "type": "function"
    },
    {
      "inputs": [
        {
          "internalType": "address",
          "name": "_from",
          "type": "address"
        },
        {
          "internalType": "address",
          "name": "_to",
          "type": "address"
        },
        {
          "internalType": "uint256[]",
          "name": "_ids",
          "type": "uint256[]"
        },
        {
          "internalType": "uint256[]",
          "name": "_amounts",
          "type": "uint256[]"
        },
        {
          "internalType": "bytes",
          "name": "data",
          "type": "bytes"
        }
      ],
      "name": "safeBatchTransferFrom",
      "outputs": [],
      "stateMutability": "nonpayable",
      "type": "function"
    },
    {
      "inputs": [
        {
          "internalType": "address",
          "name": "_operator",
          "type": "address"
        },
        {
          "internalType": "bool",
          "name": "_approved",
          "type": "bool"
        }
      ],
      "name": "setApprovalForAll",
      "outputs": [],
      "stateMutability": "nonpayable",
      "type": "function"
    },
    {
      "inputs": [
        {
          "internalType": "address",
          "name": "_account",
          "type": "address"
        },
        {
          "internalType": "address",
          "name": "_operator",
          "type": "address"
        }
      ],
      "name": "isApprovedForAll",
      "outputs": [
        {
          "internalType": "bool",
          "name": "",
          "type": "bool"
        }
      ],
      "stateMutability": "view",
      "type": "function"
    }
  ],
  "bytecode": "0x60806040526001805560006002556000600355601460045565082f79cd900060055560b96006553480156200003357600080fd5b50604051620054bf380380620054bf8339818101604052810190620000599190620005c8565b808060006200006d620001e660201b60201c565b9050806000806101000a81548173ffffffffffffffffffffffffffffffffffffffff021916908373ffffffffffffffffffffffffffffffffffffffff1602179055508073ffffffffffffffffffffffffffffffffffffffff16600073ffffffffffffffffffffffffffffffffffffffff167f8be0079c531659141344cd1fd0a4f28419497f9722a3daafe3b4186f6b6457e060405160405180910390a3506200011c81620001ee60201b60201c565b506000601260006101000a81548160ff0219169083151502179055506200015c6000801b62000150620001e660201b60201c565b6200020a60201b60201c565b6200019d7f9f2df0fed2c77648de5860a4cc508cd0818c85b8b8a1ab4ceeef8d981c8956a662000191620001e660201b60201c565b6200020a60201b60201c565b620001de7f65d7a28e3265b37a6474929f336521b332c1681b933f6cb9f3376673440d862a620001d2620001e660201b60201c565b6200020a60201b60201c565b50506200079d565b600033905090565b8060119080519060200190620002069291906200049a565b5050565b6200022182826200025260201b6200259d1760201c565b6200024d81600e60008581526020019081526020016000206200026860201b620025ab1790919060201c565b505050565b620002648282620002a060201b60201c565b5050565b600062000298836000018373ffffffffffffffffffffffffffffffffffffffff1660001b6200039260201b60201c565b905092915050565b620002b282826200040c60201b60201c565b6200038e576001600d600084815260200190815260200160002060000160008373ffffffffffffffffffffffffffffffffffffffff1673ffffffffffffffffffffffffffffffffffffffff16815260200190815260200160002060006101000a81548160ff02191690831515021790555062000333620001e660201b60201c565b73ffffffffffffffffffffffffffffffffffffffff168173ffffffffffffffffffffffffffffffffffffffff16837f2f8788117e7eff1d82e926ec794901d17c78024a50270940304540a733656f0d60405160405180910390a45b5050565b6000620003a683836200047760201b60201c565b6200040157826000018290806001815401808255809150506001900390600052602060002001600090919091909150558260000180549050836001016000848152602001908152602001600020819055506001905062000406565b600090505b92915050565b6000600d600084815260200190815260200160002060000160008373ffffffffffffffffffffffffffffffffffffffff1673ffffffffffffffffffffffffffffffffffffffff16815260200190815260200160002060009054906101000a900460ff16905092915050565b600080836001016000848152602001908152602001600020541415905092915050565b828054620004a890620006ae565b90600052602060002090601f016020900481019282620004cc576000855562000518565b82601f10620004e757805160ff191683800117855562000518565b8280016001018555821562000518579182015b8281111562000517578251825591602001919060010190620004fa565b5b5090506200052791906200052b565b5090565b5b80821115620005465760008160009055506001016200052c565b5090565b6000620005616200055b8462000642565b62000619565b90508281526020810184848401111562000580576200057f6200077d565b5b6200058d84828562000678565b509392505050565b600082601f830112620005ad57620005ac62000778565b5b8151620005bf8482602086016200054a565b91505092915050565b600060208284031215620005e157620005e062000787565b5b600082015167ffffffffffffffff81111562000602576200060162000782565b5b620006108482850162000595565b91505092915050565b60006200062562000638565b9050620006338282620006e4565b919050565b6000604051905090565b600067ffffffffffffffff82111562000660576200065f62000749565b5b6200066b826200078c565b9050602081019050919050565b60005b83811015620006985780820151818401526020810190506200067b565b83811115620006a8576000848401525b50505050565b60006002820490506001821680620006c757607f821691505b60208210811415620006de57620006dd6200071a565b5b50919050565b620006ef826200078c565b810181811067ffffffffffffffff8211171562000711576200071062000749565b5b80604052505050565b7f4e487b7100000000000000000000000000000000000000000000000000000000600052602260045260246000fd5b7f4e487b7100000000000000000000000000000000000000000000000000000000600052604160045260246000fd5b600080fd5b600080fd5b600080fd5b600080fd5b6000601f19601f8301169050919050565b614d1280620007ad6000396000f3fe608060405234801561001057600080fd5b50600436106102735760003560e01c806391d1485411610151578063d56b72c7116100c3578063eb84175911610087578063eb8417591461077e578063f242432a1461079a578063f2fde38b146107b6578063f5298aca146107d2578063f56e71b4146107ee578063f7374e2e1461080a57610273565b8063d56b72c7146106dc578063d7a5791a146106f8578063de6a06ed14610714578063e63ab1e914610730578063e985e9c51461074e57610273565b8063c39cbef111610115578063c39cbef114610604578063c539c31714610620578063ca15c8731461063c578063ce901d8a1461066c578063d5391393146106a2578063d547741f146106c057610273565b806391d148541461053a57806392724afa1461056a578063a217fddf1461059a578063a22cb465146105b8578063bfb48c9c146105d457610273565b80633f4ba83a116101ea5780636b20c454116101ae5780636b20c454146104a0578063715018a6146104bc578063731133e9146104c65780638456cb59146104e25780638da5cb5b146104ec5780639010d07c1461050a57610273565b80633f4ba83a146104105780634e1273f41461041a57806351cff8d91461044a5780635c975abb146104665780635d4222cd1461048457610273565b80631d5ad18b1161023c5780631d5ad18b146103545780631f7fdffa14610370578063248a9ca31461038c5780632eb2c2d6146103bc5780632f2ff15d146103d857806336568abe146103f457610273565b8062fdd58e1461027857806301ffc9a7146102a857806306e320f5146102d85780630e89341c146102f457806318892ae814610324575b600080fd5b610292600480360381019061028d91906139b6565b610826565b60405161029f9190614365565b60405180910390f35b6102c260048036038101906102bd9190613bf1565b6108f0565b6040516102cf91906141ad565b60405180910390f35b6102f260048036038101906102ed9190613d0b565b610902565b005b61030e60048036038101906103099190613c1e565b6109a9565b60405161031b91906141e3565b60405180910390f35b61033e60048036038101906103399190613c1e565b610a3d565b60405161034b91906140b5565b60405180910390f35b61036e60048036038101906103699190613c8b565b610a70565b005b61038a600480360381019061038591906138bb565b610b45565b005b6103a660048036038101906103a19190613b44565b610c99565b6040516103b391906141c8565b60405180910390f35b6103d660048036038101906103d191906136ca565b610cb9565b005b6103f260048036038101906103ed9190613b71565b610e25565b005b61040e60048036038101906104099190613b71565b610e59565b005b610418610e8d565b005b610434600480360381019061042f9190613acc565b610f07565b6040516104419190614154565b60405180910390f35b610464600480360381019061045f91906135a2565b611020565b005b61046e6110e6565b60405161047b91906141ad565b60405180910390f35b61049e600480360381019061049991906139f6565b6110fd565b005b6104ba60048036038101906104b59190613830565b6111d0565b005b6104c461135b565b005b6104e060048036038101906104db9190613a49565b611495565b005b6104ea611561565b005b6104f46115db565b60405161050191906140b5565b60405180910390f35b610524600480360381019061051f9190613bb1565b611604565b60405161053191906140b5565b60405180910390f35b610554600480360381019061054f9190613b71565b611633565b60405161056191906141ad565b60405180910390f35b610584600480360381019061057f91906139b6565b61169e565b6040516105919190614365565b60405180910390f35b6105a26116c3565b6040516105af91906141c8565b60405180910390f35b6105d260048036038101906105cd9190613976565b6116ca565b005b6105ee60048036038101906105e99190613c4b565b6117c7565b6040516105fb9190614365565b60405180910390f35b61061e60048036038101906106199190613d0b565b6117ec565b005b61063a60048036038101906106359190613c1e565b611893565b005b61065660048036038101906106519190613b44565b611919565b6040516106639190614365565b60405180910390f35b61068660048036038101906106819190613c1e565b61193d565b60405161069997969594939291906140d0565b60405180910390f35b6106aa611b54565b6040516106b791906141c8565b60405180910390f35b6106da60048036038101906106d59190613b71565b611b78565b005b6106f660048036038101906106f191906135cf565b611bac565b005b610712600480360381019061070d9190613c1e565b611dc8565b005b61072e60048036038101906107299190613d0b565b611e4e565b005b610738611ef5565b60405161074591906141c8565b60405180910390f35b6107686004803603810190610763919061368a565b611f19565b60405161077591906141ad565b60405180910390f35b610798600480360381019061079391906135a2565b611fad565b005b6107b460048036038101906107af9190613799565b61207d565b005b6107d060048036038101906107cb9190613575565b612161565b005b6107ec60048036038101906107e791906139f6565b61230a565b005b610808600480360381019061080391906139f6565b61240d565b005b610824600480360381019061081f9190613ccb565b6124e0565b005b60008073ffffffffffffffffffffffffffffffffffffffff168373ffffffffffffffffffffffffffffffffffffffff161415610897576040517f08c379a000000000000000000000000000000000000000000000000000000000815260040161088e90614265565b60405180910390fd5b600f600083815260200190815260200160002060008473ffffffffffffffffffffffffffffffffffffffff1673ffffffffffffffffffffffffffffffffffffffff16815260200190815260200160002054905092915050565b60006108fb826125db565b9050919050565b826008600082815260200190815260200160002060009054906101000a900473ffffffffffffffffffffffffffffffffffffffff1673ffffffffffffffffffffffffffffffffffffffff163373ffffffffffffffffffffffffffffffffffffffff161461096e57600080fd5b828260078681548110610984576109836148a6565b5b906000526020600020906007020160020191906109a292919061315c565b5050505050565b6060601180546109b89061476d565b80601f01602080910402602001604051908101604052809291908181526020018280546109e49061476d565b8015610a315780601f10610a0657610100808354040283529160200191610a31565b820191906000526020600020905b815481529060010190602001808311610a1457829003601f168201915b50505050509050919050565b60086020528060005260406000206000915054906101000a900473ffffffffffffffffffffffffffffffffffffffff1681565b816008600082815260200190815260200160002060009054906101000a900473ffffffffffffffffffffffffffffffffffffffff1673ffffffffffffffffffffffffffffffffffffffff163373ffffffffffffffffffffffffffffffffffffffff1614610adc57600080fd5b8160078481548110610af157610af06148a6565b5b906000526020600020906007020160000160006101000a81548173ffffffffffffffffffffffffffffffffffffffff021916908373ffffffffffffffffffffffffffffffffffffffff160217905550505050565b60005b8351811015610c1357610b9085858381518110610b6857610b676148a6565b5b6020026020010151858481518110610b8357610b826148a6565b5b60200260200101516110fd565b828181518110610ba357610ba26148a6565b5b60200260200101516007858381518110610bc057610bbf6148a6565b5b602002602001015181548110610bd957610bd86148a6565b5b90600052602060002090600702016005016000828254610bf9919061457b565b925050819055508080610c0b906147d0565b915050610b48565b508373ffffffffffffffffffffffffffffffffffffffff16600073ffffffffffffffffffffffffffffffffffffffff163373ffffffffffffffffffffffffffffffffffffffff167f4a39dc06d4c0dbc64b70af90fd698a233a518aa5d07e595d983b8c0526c8f7fb8686604051610c8b929190614176565b60405180910390a450505050565b6000600d6000838152602001908152602001600020600101549050919050565b60005b8351811015610d9f578573ffffffffffffffffffffffffffffffffffffffff163373ffffffffffffffffffffffffffffffffffffffff161480610d055750610d048686611f19565b5b610d0e57600080fd5b610d4d86858381518110610d2557610d246148a6565b5b6020026020010151858481518110610d4057610d3f6148a6565b5b602002602001015161240d565b610d8c85858381518110610d6457610d636148a6565b5b6020026020010151858481518110610d7f57610d7e6148a6565b5b60200260200101516110fd565b8080610d97906147d0565b915050610cbc565b508373ffffffffffffffffffffffffffffffffffffffff168573ffffffffffffffffffffffffffffffffffffffff163373ffffffffffffffffffffffffffffffffffffffff167f4a39dc06d4c0dbc64b70af90fd698a233a518aa5d07e595d983b8c0526c8f7fb8686604051610e16929190614176565b60405180910390a45050505050565b610e2f82826126bd565b610e5481600e60008581526020019081526020016000206125ab90919063ffffffff16565b505050565b610e6382826126e6565b610e8881600e600085815260200190815260200160002061276990919063ffffffff16565b505050565b610ebe7f65d7a28e3265b37a6474929f336521b332c1681b933f6cb9f3376673440d862a610eb9612799565b611633565b610efd576040517f08c379a0000000000000000000000000000000000000000000000000000000008152600401610ef4906142e5565b60405180910390fd5b610f056127a1565b565b60608151835114610f4d576040517f08c379a0000000000000000000000000000000000000000000000000000000008152600401610f4490614325565b60405180910390fd5b6000835167ffffffffffffffff811115610f6a57610f696148d5565b5b604051908082528060200260200182016040528015610f985781602001602082028036833780820191505090505b50905060005b845181101561101557610fe5858281518110610fbd57610fbc6148a6565b5b6020026020010151858381518110610fd857610fd76148a6565b5b6020026020010151610826565b828281518110610ff857610ff76148a6565b5b6020026020010181815250508061100e906147d0565b9050610f9e565b508091505092915050565b611028612799565b73ffffffffffffffffffffffffffffffffffffffff166110466115db565b73ffffffffffffffffffffffffffffffffffffffff161461109c576040517f08c379a0000000000000000000000000000000000000000000000000000000008152600401611093906142c5565b60405180910390fd5b8073ffffffffffffffffffffffffffffffffffffffff166108fc479081150290604051600060405180830381858888f193505050501580156110e2573d6000803e3d6000fd5b5050565b6000601260009054906101000a900460ff16905090565b80600a600084815260200190815260200160002060008573ffffffffffffffffffffffffffffffffffffffff1673ffffffffffffffffffffffffffffffffffffffff168152602001908152602001600020600082825461115d919061457b565b9250508190555080600b60008573ffffffffffffffffffffffffffffffffffffffff1673ffffffffffffffffffffffffffffffffffffffff168152602001908152602001600020600084815260200190815260200160002060008282546111c4919061457b565b92505081905550505050565b8273ffffffffffffffffffffffffffffffffffffffff163373ffffffffffffffffffffffffffffffffffffffff161461120857600080fd5b60005b82518110156112d6576112538484838151811061122b5761122a6148a6565b5b6020026020010151848481518110611246576112456148a6565b5b602002602001015161240d565b818181518110611266576112656148a6565b5b60200260200101516007848381518110611283576112826148a6565b5b60200260200101518154811061129c5761129b6148a6565b5b906000526020600020906007020160050160008282546112bc919061462b565b9250508190555080806112ce906147d0565b91505061120b565b50600073ffffffffffffffffffffffffffffffffffffffff168373ffffffffffffffffffffffffffffffffffffffff163373ffffffffffffffffffffffffffffffffffffffff167f4a39dc06d4c0dbc64b70af90fd698a233a518aa5d07e595d983b8c0526c8f7fb858560405161134e929190614176565b60405180910390a4505050565b611363612799565b73ffffffffffffffffffffffffffffffffffffffff166113816115db565b73ffffffffffffffffffffffffffffffffffffffff16146113d7576040517f08c379a00000000000000000000000000000000000000000000000000000000081526004016113ce906142c5565b60405180910390fd5b600073ffffffffffffffffffffffffffffffffffffffff1660008054906101000a900473ffffffffffffffffffffffffffffffffffffffff1673ffffffffffffffffffffffffffffffffffffffff167f8be0079c531659141344cd1fd0a4f28419497f9722a3daafe3b4186f6b6457e060405160405180910390a360008060006101000a81548173ffffffffffffffffffffffffffffffffffffffff021916908373ffffffffffffffffffffffffffffffffffffffff160217905550565b6114a08484846110fd565b81600784815481106114b5576114b46148a6565b5b906000526020600020906007020160050160008282546114d5919061457b565b925050819055508373ffffffffffffffffffffffffffffffffffffffff16600073ffffffffffffffffffffffffffffffffffffffff163373ffffffffffffffffffffffffffffffffffffffff167fc3d58168c5ae7397731d063d5bbf3d657854427343f4c083240f7aacaa2d0f628686604051611553929190614413565b60405180910390a450505050565b6115927f65d7a28e3265b37a6474929f336521b332c1681b933f6cb9f3376673440d862a61158d612799565b611633565b6115d1576040517f08c379a00000000000000000000000000000000000000000000000000000000081526004016115c890614305565b60405180910390fd5b6115d9612843565b565b60008060009054906101000a900473ffffffffffffffffffffffffffffffffffffffff16905090565b600061162b82600e60008681526020019081526020016000206128e690919063ffffffff16565b905092915050565b6000600d600084815260200190815260200160002060000160008373ffffffffffffffffffffffffffffffffffffffff1673ffffffffffffffffffffffffffffffffffffffff16815260200190815260200160002060009054906101000a900460ff16905092915050565b600b602052816000526040600020602052806000526040600020600091509150505481565b6000801b81565b80600c60003373ffffffffffffffffffffffffffffffffffffffff1673ffffffffffffffffffffffffffffffffffffffff16815260200190815260200160002060008473ffffffffffffffffffffffffffffffffffffffff1673ffffffffffffffffffffffffffffffffffffffff16815260200190815260200160002060006101000a81548160ff0219169083151502179055508173ffffffffffffffffffffffffffffffffffffffff163373ffffffffffffffffffffffffffffffffffffffff167f17307eab39ab6107e8899845ad3d59bd9653f200f220920489ca2b5937696c31836040516117bb91906141ad565b60405180910390a35050565b600a602052816000526040600020602052806000526040600020600091509150505481565b826008600082815260200190815260200160002060009054906101000a900473ffffffffffffffffffffffffffffffffffffffff1673ffffffffffffffffffffffffffffffffffffffff163373ffffffffffffffffffffffffffffffffffffffff161461185857600080fd5b82826007868154811061186e5761186d6148a6565b5b9060005260206000209060070201600101919061188c92919061315c565b5050505050565b61189b612799565b73ffffffffffffffffffffffffffffffffffffffff166118b96115db565b73ffffffffffffffffffffffffffffffffffffffff161461190f576040517f08c379a0000000000000000000000000000000000000000000000000000000008152600401611906906142c5565b60405180910390fd5b8060048190555050565b6000611936600e6000848152602001908152602001600020612900565b9050919050565b6007818154811061194d57600080fd5b90600052602060002090600702016000915090508060000160009054906101000a900473ffffffffffffffffffffffffffffffffffffffff16908060010180546119969061476d565b80601f01602080910402602001604051908101604052809291908181526020018280546119c29061476d565b8015611a0f5780601f106119e457610100808354040283529160200191611a0f565b820191906000526020600020905b8154815290600101906020018083116119f257829003601f168201915b505050505090806002018054611a249061476d565b80601f0160208091040260200160405190810160405280929190818152602001828054611a509061476d565b8015611a9d5780601f10611a7257610100808354040283529160200191611a9d565b820191906000526020600020905b815481529060010190602001808311611a8057829003601f168201915b505050505090806003018054611ab29061476d565b80601f0160208091040260200160405190810160405280929190818152602001828054611ade9061476d565b8015611b2b5780601f10611b0057610100808354040283529160200191611b2b565b820191906000526020600020905b815481529060010190602001808311611b0e57829003601f168201915b5050505050908060040160009054906101000a900460ff16908060050154908060060154905087565b7f9f2df0fed2c77648de5860a4cc508cd0818c85b8b8a1ab4ceeef8d981c8956a681565b611b828282612915565b611ba781600e600085815260200190815260200160002061276990919063ffffffff16565b505050565b60076040518060e001604052808673ffffffffffffffffffffffffffffffffffffffff168152602001858152602001848152602001838152602001600015158152602001600081526020016000815250908060018154018082558091505060019003906000526020600020906007020160009091909190915060008201518160000160006101000a81548173ffffffffffffffffffffffffffffffffffffffff021916908373ffffffffffffffffffffffffffffffffffffffff1602179055506020820151816001019080519060200190611c889291906131e2565b506040820151816002019080519060200190611ca59291906131e2565b506060820151816003019080519060200190611cc29291906131e2565b5060808201518160040160006101000a81548160ff02191690831515021790555060a0820151816005015560c08201518160060155505060006001600780549050611d0d919061462b565b9050846008600083815260200190815260200160002060006101000a81548173ffffffffffffffffffffffffffffffffffffffff021916908373ffffffffffffffffffffffffffffffffffffffff160217905550600060096000838152602001908152602001600020819055507f3ef624c0f3fb7ad40b94c02078ea3e3a797dbfc21e921ee4bd2b8ad0ca6aa11381868686866000806000604051611db9989796959493929190614380565b60405180910390a15050505050565b611dd0612799565b73ffffffffffffffffffffffffffffffffffffffff16611dee6115db565b73ffffffffffffffffffffffffffffffffffffffff1614611e44576040517f08c379a0000000000000000000000000000000000000000000000000000000008152600401611e3b906142c5565b60405180910390fd5b8060018190555050565b826008600082815260200190815260200160002060009054906101000a900473ffffffffffffffffffffffffffffffffffffffff1673ffffffffffffffffffffffffffffffffffffffff163373ffffffffffffffffffffffffffffffffffffffff1614611eba57600080fd5b828260078681548110611ed057611ecf6148a6565b5b90600052602060002090600702016003019190611eee92919061315c565b5050505050565b7f65d7a28e3265b37a6474929f336521b332c1681b933f6cb9f3376673440d862a81565b6000600c60008473ffffffffffffffffffffffffffffffffffffffff1673ffffffffffffffffffffffffffffffffffffffff16815260200190815260200160002060008373ffffffffffffffffffffffffffffffffffffffff1673ffffffffffffffffffffffffffffffffffffffff16815260200190815260200160002060009054906101000a900460ff16905092915050565b611fb5612799565b73ffffffffffffffffffffffffffffffffffffffff16611fd36115db565b73ffffffffffffffffffffffffffffffffffffffff1614612029576040517f08c379a0000000000000000000000000000000000000000000000000000000008152600401612020906142c5565b60405180910390fd5b8073ffffffffffffffffffffffffffffffffffffffff166108fc6003549081150290604051600060405180830381858888f19350505050158015612071573d6000803e3d6000fd5b50600060038190555050565b8473ffffffffffffffffffffffffffffffffffffffff163373ffffffffffffffffffffffffffffffffffffffff1614806120bd57506120bc8585611f19565b5b6120c657600080fd5b6120d185848461240d565b6120dc8484846110fd565b8373ffffffffffffffffffffffffffffffffffffffff168573ffffffffffffffffffffffffffffffffffffffff163373ffffffffffffffffffffffffffffffffffffffff167fc3d58168c5ae7397731d063d5bbf3d657854427343f4c083240f7aacaa2d0f628686604051612152929190614413565b60405180910390a45050505050565b612169612799565b73ffffffffffffffffffffffffffffffffffffffff166121876115db565b73ffffffffffffffffffffffffffffffffffffffff16146121dd576040517f08c379a00000000000000000000000000000000000000000000000000000000081526004016121d4906142c5565b60405180910390fd5b600073ffffffffffffffffffffffffffffffffffffffff168173ffffffffffffffffffffffffffffffffffffffff16141561224d576040517f08c379a000000000000000000000000000000000000000000000000000000000815260040161224490614285565b60405180910390fd5b8073ffffffffffffffffffffffffffffffffffffffff1660008054906101000a900473ffffffffffffffffffffffffffffffffffffffff1673ffffffffffffffffffffffffffffffffffffffff167f8be0079c531659141344cd1fd0a4f28419497f9722a3daafe3b4186f6b6457e060405160405180910390a3806000806101000a81548173ffffffffffffffffffffffffffffffffffffffff021916908373ffffffffffffffffffffffffffffffffffffffff16021790555050565b8273ffffffffffffffffffffffffffffffffffffffff163373ffffffffffffffffffffffffffffffffffffffff161461234257600080fd5b61234d83838361240d565b8060078381548110612362576123616148a6565b5b90600052602060002090600702016005016000828254612382919061462b565b92505081905550600073ffffffffffffffffffffffffffffffffffffffff168373ffffffffffffffffffffffffffffffffffffffff163373ffffffffffffffffffffffffffffffffffffffff167fc3d58168c5ae7397731d063d5bbf3d657854427343f4c083240f7aacaa2d0f628585604051612400929190614413565b60405180910390a4505050565b80600a600084815260200190815260200160002060008573ffffffffffffffffffffffffffffffffffffffff1673ffffffffffffffffffffffffffffffffffffffff168152602001908152602001600020600082825461246d919061462b565b9250508190555080600b60008573ffffffffffffffffffffffffffffffffffffffff1673ffffffffffffffffffffffffffffffffffffffff168152602001908152602001600020600084815260200190815260200160002060008282546124d4919061462b565b92505081905550505050565b6124e8612799565b73ffffffffffffffffffffffffffffffffffffffff166125066115db565b73ffffffffffffffffffffffffffffffffffffffff161461255c576040517f08c379a0000000000000000000000000000000000000000000000000000000008152600401612553906142c5565b60405180910390fd5b8060078381548110612571576125706148a6565b5b906000526020600020906007020160040160006101000a81548160ff0219169083151502179055505050565b6125a7828261293e565b5050565b60006125d3836000018373ffffffffffffffffffffffffffffffffffffffff1660001b612a1f565b905092915050565b60007fd9b67a26000000000000000000000000000000000000000000000000000000007bffffffffffffffffffffffffffffffffffffffffffffffffffffffff1916827bffffffffffffffffffffffffffffffffffffffffffffffffffffffff191614806126a657507f0e89341c000000000000000000000000000000000000000000000000000000007bffffffffffffffffffffffffffffffffffffffffffffffffffffffff1916827bffffffffffffffffffffffffffffffffffffffffffffffffffffffff1916145b806126b657506126b582612a8f565b5b9050919050565b6126c682610c99565b6126d7816126d2612799565b612b09565b6126e1838361293e565b505050565b6126ee612799565b73ffffffffffffffffffffffffffffffffffffffff168173ffffffffffffffffffffffffffffffffffffffff161461275b576040517f08c379a000000000000000000000000000000000000000000000000000000000815260040161275290614345565b60405180910390fd5b6127658282612ba6565b5050565b6000612791836000018373ffffffffffffffffffffffffffffffffffffffff1660001b612c88565b905092915050565b600033905090565b6127a96110e6565b6127e8576040517f08c379a00000000000000000000000000000000000000000000000000000000081526004016127df90614245565b60405180910390fd5b6000601260006101000a81548160ff0219169083151502179055507f5db9ee0a495bf2e6ff9c91a7834c1ba4fdd244a5e8aa4e537bd38aeae4b073aa61282c612799565b60405161283991906140b5565b60405180910390a1565b61284b6110e6565b1561288b576040517f08c379a0000000000000000000000000000000000000000000000000000000008152600401612882906142a5565b60405180910390fd5b6001601260006101000a81548160ff0219169083151502179055507f62e78cea01bee320cd4e420270b5ea74000d11b0c9f74754ebdbfc544b05a2586128cf612799565b6040516128dc91906140b5565b60405180910390a1565b60006128f58360000183612d94565b60001c905092915050565b600061290e82600001612e08565b9050919050565b61291e82610c99565b61292f8161292a612799565b612b09565b6129398383612ba6565b505050565b6129488282611633565b612a1b576001600d600084815260200190815260200160002060000160008373ffffffffffffffffffffffffffffffffffffffff1673ffffffffffffffffffffffffffffffffffffffff16815260200190815260200160002060006101000a81548160ff0219169083151502179055506129c0612799565b73ffffffffffffffffffffffffffffffffffffffff168173ffffffffffffffffffffffffffffffffffffffff16837f2f8788117e7eff1d82e926ec794901d17c78024a50270940304540a733656f0d60405160405180910390a45b5050565b6000612a2b8383612e19565b612a84578260000182908060018154018082558091505060019003906000526020600020016000909190919091505582600001805490508360010160008481526020019081526020016000208190555060019050612a89565b600090505b92915050565b60007f5a05180f000000000000000000000000000000000000000000000000000000007bffffffffffffffffffffffffffffffffffffffffffffffffffffffff1916827bffffffffffffffffffffffffffffffffffffffffffffffffffffffff19161480612b025750612b0182612e3c565b5b9050919050565b612b138282611633565b612ba257612b388173ffffffffffffffffffffffffffffffffffffffff166014612eb6565b612b468360001c6020612eb6565b604051602001612b5792919061407b565b6040516020818303038152906040526040517f08c379a0000000000000000000000000000000000000000000000000000000008152600401612b9991906141e3565b60405180910390fd5b5050565b612bb08282611633565b15612c84576000600d600084815260200190815260200160002060000160008373ffffffffffffffffffffffffffffffffffffffff1673ffffffffffffffffffffffffffffffffffffffff16815260200190815260200160002060006101000a81548160ff021916908315150217905550612c29612799565b73ffffffffffffffffffffffffffffffffffffffff168173ffffffffffffffffffffffffffffffffffffffff16837ff6391f5c32d9c69d2a47ea670b442974b53935d1edc7fd64eb21e047a839171b60405160405180910390a45b5050565b60008083600101600084815260200190815260200160002054905060008114612d88576000600182612cba919061462b565b9050600060018660000180549050612cd2919061462b565b90506000866000018281548110612cec57612ceb6148a6565b5b9060005260206000200154905080876000018481548110612d1057612d0f6148a6565b5b9060005260206000200181905550838760010160008381526020019081526020016000208190555086600001805480612d4c57612d4b614877565b5b60019003818190600052602060002001600090559055866001016000878152602001908152602001600020600090556001945050505050612d8e565b60009150505b92915050565b600081836000018054905011612ddf576040517f08c379a0000000000000000000000000000000000000000000000000000000008152600401612dd690614205565b60405180910390fd5b826000018281548110612df557612df46148a6565b5b9060005260206000200154905092915050565b600081600001805490509050919050565b600080836001016000848152602001908152602001600020541415905092915050565b60007f7965db0b000000000000000000000000000000000000000000000000000000007bffffffffffffffffffffffffffffffffffffffffffffffffffffffff1916827bffffffffffffffffffffffffffffffffffffffffffffffffffffffff19161480612eaf5750612eae826130f2565b5b9050919050565b606060006002836002612ec991906145d1565b612ed3919061457b565b67ffffffffffffffff811115612eec57612eeb6148d5565b5b6040519080825280601f01601f191660200182016040528015612f1e5781602001600182028036833780820191505090505b5090507f300000000000000000000000000000000000000000000000000000000000000081600081518110612f5657612f556148a6565b5b60200101907effffffffffffffffffffffffffffffffffffffffffffffffffffffffffffff1916908160001a9053507f780000000000000000000000000000000000000000000000000000000000000081600181518110612fba57612fb96148a6565b5b60200101907effffffffffffffffffffffffffffffffffffffffffffffffffffffffffffff1916908160001a90535060006001846002612ffa91906145d1565b613004919061457b565b90505b60018111156130a4577f3031323334353637383961626364656600000000000000000000000000000000600f861660108110613046576130456148a6565b5b1a60f81b82828151811061305d5761305c6148a6565b5b60200101907effffffffffffffffffffffffffffffffffffffffffffffffffffffffffffff1916908160001a905350600485901c94508061309d90614743565b9050613007565b50600084146130e8576040517f08c379a00000000000000000000000000000000000000000000000000000000081526004016130df90614225565b60405180910390fd5b8091505092915050565b60007f01ffc9a7000000000000000000000000000000000000000000000000000000007bffffffffffffffffffffffffffffffffffffffffffffffffffffffff1916827bffffffffffffffffffffffffffffffffffffffffffffffffffffffff1916149050919050565b8280546131689061476d565b90600052602060002090601f01602090048101928261318a57600085556131d1565b82601f106131a357803560ff19168380011785556131d1565b828001600101855582156131d1579182015b828111156131d05782358255916020019190600101906131b5565b5b5090506131de9190613268565b5090565b8280546131ee9061476d565b90600052602060002090601f0160209004810192826132105760008555613257565b82601f1061322957805160ff1916838001178555613257565b82800160010185558215613257579182015b8281111561325657825182559160200191906001019061323b565b5b5090506132649190613268565b5090565b5b80821115613281576000816000905550600101613269565b5090565b600061329861329384614461565b61443c565b905080838252602082019050828560208602820111156132bb576132ba61490e565b5b60005b858110156132eb57816132d188826133e9565b8452602084019350602083019250506001810190506132be565b5050509392505050565b60006133086133038461448d565b61443c565b9050808382526020820190508285602086028201111561332b5761332a61490e565b5b60005b8581101561335b57816133418882613560565b84526020840193506020830192505060018101905061332e565b5050509392505050565b6000613378613373846144b9565b61443c565b90508281526020810184848401111561339457613393614913565b5b61339f848285614701565b509392505050565b60006133ba6133b5846144ea565b61443c565b9050828152602081018484840111156133d6576133d5614913565b5b6133e1848285614701565b509392505050565b6000813590506133f881614c52565b92915050565b60008135905061340d81614c69565b92915050565b600082601f83011261342857613427614909565b5b8135613438848260208601613285565b91505092915050565b600082601f83011261345657613455614909565b5b81356134668482602086016132f5565b91505092915050565b60008135905061347e81614c80565b92915050565b60008135905061349381614c97565b92915050565b6000813590506134a881614cae565b92915050565b600082601f8301126134c3576134c2614909565b5b81356134d3848260208601613365565b91505092915050565b60008083601f8401126134f2576134f1614909565b5b8235905067ffffffffffffffff81111561350f5761350e614904565b5b60208301915083600182028301111561352b5761352a61490e565b5b9250929050565b600082601f83011261354757613546614909565b5b81356135578482602086016133a7565b91505092915050565b60008135905061356f81614cc5565b92915050565b60006020828403121561358b5761358a61491d565b5b6000613599848285016133e9565b91505092915050565b6000602082840312156135b8576135b761491d565b5b60006135c6848285016133fe565b91505092915050565b600080600080608085870312156135e9576135e861491d565b5b60006135f7878288016133fe565b945050602085013567ffffffffffffffff81111561361857613617614918565b5b61362487828801613532565b935050604085013567ffffffffffffffff81111561364557613644614918565b5b61365187828801613532565b925050606085013567ffffffffffffffff81111561367257613671614918565b5b61367e87828801613532565b91505092959194509250565b600080604083850312156136a1576136a061491d565b5b60006136af858286016133e9565b92505060206136c0858286016133e9565b9150509250929050565b600080600080600060a086880312156136e6576136e561491d565b5b60006136f4888289016133e9565b9550506020613705888289016133e9565b945050604086013567ffffffffffffffff81111561372657613725614918565b5b61373288828901613441565b935050606086013567ffffffffffffffff81111561375357613752614918565b5b61375f88828901613441565b925050608086013567ffffffffffffffff8111156137805761377f614918565b5b61378c888289016134ae565b9150509295509295909350565b600080600080600060a086880312156137b5576137b461491d565b5b60006137c3888289016133e9565b95505060206137d4888289016133e9565b94505060406137e588828901613560565b93505060606137f688828901613560565b925050608086013567ffffffffffffffff81111561381757613816614918565b5b613823888289016134ae565b9150509295509295909350565b6000806000606084860312156138495761384861491d565b5b6000613857868287016133e9565b935050602084013567ffffffffffffffff81111561387857613877614918565b5b61388486828701613441565b925050604084013567ffffffffffffffff8111156138a5576138a4614918565b5b6138b186828701613441565b9150509250925092565b600080600080608085870312156138d5576138d461491d565b5b60006138e3878288016133e9565b945050602085013567ffffffffffffffff81111561390457613903614918565b5b61391087828801613441565b935050604085013567ffffffffffffffff81111561393157613930614918565b5b61393d87828801613441565b925050606085013567ffffffffffffffff81111561395e5761395d614918565b5b61396a878288016134ae565b91505092959194509250565b6000806040838503121561398d5761398c61491d565b5b600061399b858286016133e9565b92505060206139ac8582860161346f565b9150509250929050565b600080604083850312156139cd576139cc61491d565b5b60006139db858286016133e9565b92505060206139ec85828601613560565b9150509250929050565b600080600060608486031215613a0f57613a0e61491d565b5b6000613a1d868287016133e9565b9350506020613a2e86828701613560565b9250506040613a3f86828701613560565b9150509250925092565b60008060008060808587031215613a6357613a6261491d565b5b6000613a71878288016133e9565b9450506020613a8287828801613560565b9350506040613a9387828801613560565b925050606085013567ffffffffffffffff811115613ab457613ab3614918565b5b613ac0878288016134ae565b91505092959194509250565b60008060408385031215613ae357613ae261491d565b5b600083013567ffffffffffffffff811115613b0157613b00614918565b5b613b0d85828601613413565b925050602083013567ffffffffffffffff811115613b2e57613b2d614918565b5b613b3a85828601613441565b9150509250929050565b600060208284031215613b5a57613b5961491d565b5b6000613b6884828501613484565b91505092915050565b60008060408385031215613b8857613b8761491d565b5b6000613b9685828601613484565b9250506020613ba7858286016133e9565b9150509250929050565b60008060408385031215613bc857613bc761491d565b5b6000613bd685828601613484565b9250506020613be785828601613560565b9150509250929050565b600060208284031215613c0757613c0661491d565b5b6000613c1584828501613499565b91505092915050565b600060208284031215613c3457613c3361491d565b5b6000613c4284828501613560565b91505092915050565b60008060408385031215613c6257613c6161491d565b5b6000613c7085828601613560565b9250506020613c81858286016133e9565b9150509250929050565b60008060408385031215613ca257613ca161491d565b5b6000613cb085828601613560565b9250506020613cc1858286016133fe565b9150509250929050565b60008060408385031215613ce257613ce161491d565b5b6000613cf085828601613560565b9250506020613d018582860161346f565b9150509250929050565b600080600060408486031215613d2457613d2361491d565b5b6000613d3286828701613560565b935050602084013567ffffffffffffffff811115613d5357613d52614918565b5b613d5f868287016134dc565b92509250509250925092565b6000613d77838361405d565b60208301905092915050565b613d8c81614671565b82525050565b613d9b8161465f565b82525050565b6000613dac8261452b565b613db6818561454e565b9350613dc18361451b565b8060005b83811015613df2578151613dd98882613d6b565b9750613de483614541565b925050600181019050613dc5565b5085935050505092915050565b613e0881614683565b82525050565b613e178161468f565b82525050565b613e26816146ef565b82525050565b6000613e3782614536565b613e41818561455f565b9350613e51818560208601614710565b613e5a81614922565b840191505092915050565b6000613e7082614536565b613e7a8185614570565b9350613e8a818560208601614710565b80840191505092915050565b6000613ea360228361455f565b9150613eae82614933565b604082019050919050565b6000613ec660208361455f565b9150613ed182614982565b602082019050919050565b6000613ee960148361455f565b9150613ef4826149ab565b602082019050919050565b6000613f0c602b8361455f565b9150613f17826149d4565b604082019050919050565b6000613f2f60268361455f565b9150613f3a82614a23565b604082019050919050565b6000613f5260108361455f565b9150613f5d82614a72565b602082019050919050565b6000613f7560208361455f565b9150613f8082614a9b565b602082019050919050565b6000613f98603b8361455f565b9150613fa382614ac4565b604082019050919050565b6000613fbb60398361455f565b9150613fc682614b13565b604082019050919050565b6000613fde601783614570565b9150613fe982614b62565b601782019050919050565b600061400160298361455f565b915061400c82614b8b565b604082019050919050565b6000614024601183614570565b915061402f82614bda565b601182019050919050565b6000614047602f8361455f565b915061405282614c03565b604082019050919050565b614066816146e5565b82525050565b614075816146e5565b82525050565b600061408682613fd1565b91506140928285613e65565b915061409d82614017565b91506140a98284613e65565b91508190509392505050565b60006020820190506140ca6000830184613d92565b92915050565b600060e0820190506140e5600083018a613d83565b81810360208301526140f78189613e2c565b9050818103604083015261410b8188613e2c565b9050818103606083015261411f8187613e2c565b905061412e6080830186613dff565b61413b60a083018561406c565b61414860c083018461406c565b98975050505050505050565b6000602082019050818103600083015261416e8184613da1565b905092915050565b600060408201905081810360008301526141908185613da1565b905081810360208301526141a48184613da1565b90509392505050565b60006020820190506141c26000830184613dff565b92915050565b60006020820190506141dd6000830184613e0e565b92915050565b600060208201905081810360008301526141fd8184613e2c565b905092915050565b6000602082019050818103600083015261421e81613e96565b9050919050565b6000602082019050818103600083015261423e81613eb9565b9050919050565b6000602082019050818103600083015261425e81613edc565b9050919050565b6000602082019050818103600083015261427e81613eff565b9050919050565b6000602082019050818103600083015261429e81613f22565b9050919050565b600060208201905081810360008301526142be81613f45565b9050919050565b600060208201905081810360008301526142de81613f68565b9050919050565b600060208201905081810360008301526142fe81613f8b565b9050919050565b6000602082019050818103600083015261431e81613fae565b9050919050565b6000602082019050818103600083015261433e81613ff4565b9050919050565b6000602082019050818103600083015261435e8161403a565b9050919050565b600060208201905061437a600083018461406c565b92915050565b600061010082019050614396600083018b61406c565b6143a3602083018a613d83565b81810360408301526143b58189613e2c565b905081810360608301526143c98188613e2c565b905081810360808301526143dd8187613e2c565b90506143ec60a0830186613dff565b6143f960c0830185613e1d565b61440660e0830184613e1d565b9998505050505050505050565b6000604082019050614428600083018561406c565b614435602083018461406c565b9392505050565b6000614446614457565b9050614452828261479f565b919050565b6000604051905090565b600067ffffffffffffffff82111561447c5761447b6148d5565b5b602082029050602081019050919050565b600067ffffffffffffffff8211156144a8576144a76148d5565b5b602082029050602081019050919050565b600067ffffffffffffffff8211156144d4576144d36148d5565b5b6144dd82614922565b9050602081019050919050565b600067ffffffffffffffff821115614505576145046148d5565b5b61450e82614922565b9050602081019050919050565b6000819050602082019050919050565b600081519050919050565b600081519050919050565b6000602082019050919050565b600082825260208201905092915050565b600082825260208201905092915050565b600081905092915050565b6000614586826146e5565b9150614591836146e5565b9250827fffffffffffffffffffffffffffffffffffffffffffffffffffffffffffffffff038211156145c6576145c5614819565b5b828201905092915050565b60006145dc826146e5565b91506145e7836146e5565b9250817fffffffffffffffffffffffffffffffffffffffffffffffffffffffffffffffff04831182151516156146205761461f614819565b5b828202905092915050565b6000614636826146e5565b9150614641836146e5565b92508282101561465457614653614819565b5b828203905092915050565b600061466a826146c5565b9050919050565b600061467c826146c5565b9050919050565b60008115159050919050565b6000819050919050565b60007fffffffff0000000000000000000000000000000000000000000000000000000082169050919050565b600073ffffffffffffffffffffffffffffffffffffffff82169050919050565b6000819050919050565b60006146fa826146e5565b9050919050565b82818337600083830152505050565b60005b8381101561472e578082015181840152602081019050614713565b8381111561473d576000848401525b50505050565b600061474e826146e5565b9150600082141561476257614761614819565b5b600182039050919050565b6000600282049050600182168061478557607f821691505b6020821081141561479957614798614848565b5b50919050565b6147a882614922565b810181811067ffffffffffffffff821117156147c7576147c66148d5565b5b80604052505050565b60006147db826146e5565b91507fffffffffffffffffffffffffffffffffffffffffffffffffffffffffffffffff82141561480e5761480d614819565b5b600182019050919050565b7f4e487b7100000000000000000000000000000000000000000000000000000000600052601160045260246000fd5b7f4e487b7100000000000000000000000000000000000000000000000000000000600052602260045260246000fd5b7f4e487b7100000000000000000000000000000000000000000000000000000000600052603160045260246000fd5b7f4e487b7100000000000000000000000000000000000000000000000000000000600052603260045260246000fd5b7f4e487b7100000000000000000000000000000000000000000000000000000000600052604160045260246000fd5b600080fd5b600080fd5b600080fd5b600080fd5b600080fd5b600080fd5b6000601f19601f8301169050919050565b7f456e756d657261626c655365743a20696e646578206f7574206f6620626f756e60008201527f6473000000000000000000000000000000000000000000000000000000000000602082015250565b7f537472696e67733a20686578206c656e67746820696e73756666696369656e74600082015250565b7f5061757361626c653a206e6f7420706175736564000000000000000000000000600082015250565b7f455243313135353a2062616c616e636520717565727920666f7220746865207a60008201527f65726f2061646472657373000000000000000000000000000000000000000000602082015250565b7f4f776e61626c653a206e6577206f776e657220697320746865207a65726f206160008201527f6464726573730000000000000000000000000000000000000000000000000000602082015250565b7f5061757361626c653a2070617573656400000000000000000000000000000000600082015250565b7f4f776e61626c653a2063616c6c6572206973206e6f7420746865206f776e6572600082015250565b7f455243313135355072657365744d696e7465725061757365723a206d7573742060008201527f686176652070617573657220726f6c6520746f20756e70617573650000000000602082015250565b7f455243313135355072657365744d696e7465725061757365723a206d7573742060008201527f686176652070617573657220726f6c6520746f20706175736500000000000000602082015250565b7f416363657373436f6e74726f6c3a206163636f756e7420000000000000000000600082015250565b7f455243313135353a206163636f756e747320616e6420696473206c656e67746860008201527f206d69736d617463680000000000000000000000000000000000000000000000602082015250565b7f206973206d697373696e6720726f6c6520000000000000000000000000000000600082015250565b7f416363657373436f6e74726f6c3a2063616e206f6e6c792072656e6f756e636560008201527f20726f6c657320666f722073656c660000000000000000000000000000000000602082015250565b614c5b8161465f565b8114614c6657600080fd5b50565b614c7281614671565b8114614c7d57600080fd5b50565b614c8981614683565b8114614c9457600080fd5b50565b614ca08161468f565b8114614cab57600080fd5b50565b614cb781614699565b8114614cc257600080fd5b50565b614cce816146e5565b8114614cd957600080fd5b5056fea2646970667358221220f8b92dd9b35c48593bdedd5ead7532b00baf2a6a08efc082bd862bbdf0606dd864736f6c63430008060033",
  "immutableReferences": {},
  "source": "// SPDX-License-Identifier: MIT\npragma solidity ^0.8.0;\n\nimport \"./creatortokenhelper.sol\";\nimport \"@openzeppelin/contracts/token/ERC1155/presets/ERC1155PresetMinterPauser.sol\";\n\ncontract CreatorTokenOwnership is CreatorTokenHelper, ERC1155PresetMinterPauser {\n\n\tconstructor(string memory uri) ERC1155PresetMinterPauser(uri) { }\n\n\tfunction mappingIncrease(address _account, uint256 _id, uint256 _amount) public {\n\t\ttokenHoldership[_id][_account] += _amount;\n\t\tuserToHoldings[_account][_id] += _amount;\n\t}\n\n\tfunction mappingDecrease(address _account, uint256 _id, uint256 _amount) public {\n\t\ttokenHoldership[_id][_account] -= _amount;\n\t\tuserToHoldings[_account][_id] -= _amount;\n\t}\n\n\t// Mint a token\n\tfunction mint(address _to, uint256 _id, uint256 _amount, bytes memory _data) public override {\n\t\t// Update tokenHoldership mapping\n\t\tmappingIncrease(_to, _id, _amount);\n\t\t// Increase token amount outstanding\n\t\tcreatorTokens[_id].outstanding += _amount;\n\t\t// Emit single transfer event\n\t\temit TransferSingle(msg.sender, address(0), _to, _id, _amount);\n\t}\n\n\t// Mint a batch of tokens\n\tfunction mintBatch(address _to, uint256[] memory _ids, uint256[] memory _amounts, bytes memory data) public override {\n\t\t// Iterate through _ids\n\t\tfor (uint256 i=0; i<_ids.length; i++) {\n\t\t\t// Update tokenHoldership mapping\n\t\t\tmappingIncrease(_to, _ids[i], _amounts[i]);\n\t\t\t// Increase token amount outstanding\n\t\t\tcreatorTokens[_ids[i]].outstanding += _amounts[i];\n\t\t}\n\t\t// Emit batch transfer event\n\t\temit TransferBatch(msg.sender, address(0), _to, _ids, _amounts);\n\t}\n\n\t// Burn a token\n\tfunction burn(address _account, uint256 _id, uint256 _amount) public override {\n\t\trequire(msg.sender == _account);\n\t\t// Update tokenHoldership mapping\n\t\tmappingDecrease(_account, _id, _amount);\n\t\t// Decrease token amount outstanding\n\t\tcreatorTokens[_id].outstanding -= _amount;\n\t\t// Emit single transfer event\n\t\temit TransferSingle(msg.sender, _account, address(0), _id, _amount);\n\t}\n\n\t// Burn a batch of tokens\n\tfunction burnBatch(address _account, uint256[] memory _ids, uint256[] memory _amounts) public override {\n\t\trequire(msg.sender == _account);\n\t\t// Iterate through _ids\n\t\tfor (uint256 i=0; i<_ids.length; i++) {\n\t\t\t// Update tokenHoldership mapping\n\t\t\tmappingDecrease(_account, _ids[i], _amounts[i]);\n\t\t\t// Decrease token amount outstanding\n\t\t\tcreatorTokens[_ids[i]].outstanding -= _amounts[i];\n\t\t}\n\t\t// Emit batch transfer event\n\t\temit TransferBatch(msg.sender, _account, address(0), _ids, _amounts);\n\t}\n\n\t// Transfer a token\n\tfunction safeTransferFrom(address _from, address _to, uint256 _id, uint256 _amount, bytes memory _data) public override {\n\t\t// Require that msg.sender == _from, or that approvals[_from][_to] == true\n\t\trequire(msg.sender == _from || isApprovedForAll(_from, _to));\n\t\t// Reduce tokenHoldership holdings of _from\n\t\tmappingDecrease(_from, _id, _amount);\n\t\t// Increase tokenHoldership holdings of _to\n\t\tmappingIncrease(_to, _id, _amount);\n\t\t// Emit single transfer event\n\t\temit TransferSingle(msg.sender, _from, _to, _id, _amount);\n\t}\n\n\t// Transfer a batch of tokens\n\tfunction safeBatchTransferFrom(address _from, address _to, uint256[] memory _ids, uint256[] memory _amounts, bytes memory data) public override {\n\t\t// Iterate through _ids\n\t\tfor (uint256 i=0; i<_ids.length; i++) {\n\t\t\t// Require that msg.sender == _from, or that approvals[_from][_to] == true\n\t\t\trequire(msg.sender == _from || isApprovedForAll(_from, _to));\n\t\t\t// Reduce tokenHoldership holdings of _from\n\t\t\tmappingDecrease(_from, _ids[i], _amounts[i]);\n\t\t\t// Increase tokenHoldership holdings of _to\n\t\t\tmappingIncrease(_to, _ids[i], _amounts[i]);\n\t\t}\n\t\t// Emit batch transfer event\n\t\temit TransferBatch(msg.sender, _from, _to, _ids, _amounts);\n\t}\n\n\t// Return balance of a given token at a given address\n\t//function balanceOf(address _account, uint256 _id) public view override returns (uint256) {\n\t\t// Look up _account's holdings of _id in tokenHoldership\n\t//\treturn tokenHoldership[_id][_account];\n\t//}\n\n\t// Return balance of a batch of tokens\n\t//function balanceOfBatch(address[] calldata _accounts, uint256[] calldata _ids) public view override returns (uint256[] memory) {\n\t//\t// Initialize output array\n\t//\tuint256[] memory batchBalances = new uint256[](_accounts.length);\n\t//\t// Iterate through _accounts\n\t//\tfor (uint256 i = 0; i < _accounts.length; i++) {\n\t//\t\t// Look up _account's holdings of _id in tokenHoldership\n\t//\t\tbatchBalances[i] = tokenHoldership[_ids[i]][_accounts[i]];\n\t//\t}\n\t//\t// Return output array\n\t//\treturn batchBalances;\n\t//}\n\n\t// Give operator permission to transfer caller's tokens\n\tfunction setApprovalForAll(address _operator, bool _approved) public override {\n\t\t// Update approvals mapping\n\t\tapprovals[msg.sender][_operator] = _approved;\n\t\t// Emit Approval event\n\t\temit ApprovalForAll(msg.sender, _operator, _approved);\n\t}\n\n\t// Denotes whether operator is approved to transfer accounts' tokens\n\tfunction isApprovedForAll(address _account, address _operator) public view override returns (bool) {\n\t\t// Look up approvals mapping\n\t\treturn approvals[_account][_operator];\n\t}\n}",
  "sourcePath": "/Users/kamilalizaisadik/DeFi/Dynamic Automated Market Maker/damm_solidity/contracts/creatortokenownership.sol",
  "compiler": {
    "name": "solc",
    "version": "0.8.6+commit.11564f7e.Emscripten.clang"
  },
  "schemaVersion": "3.4.1",
  "updatedAt": "2021-07-09T17:51:16.324Z",
  "devdoc": {
    "kind": "dev",
    "methods": {
      "balanceOf(address,uint256)": {
        "details": "See {IERC1155-balanceOf}. Requirements: - `account` cannot be the zero address."
      },
      "balanceOfBatch(address[],uint256[])": {
        "details": "See {IERC1155-balanceOfBatch}. Requirements: - `accounts` and `ids` must have the same length."
      },
      "getRoleAdmin(bytes32)": {
        "details": "Returns the admin role that controls `role`. See {grantRole} and {revokeRole}. To change a role's admin, use {_setRoleAdmin}."
      },
      "getRoleMember(bytes32,uint256)": {
        "details": "Returns one of the accounts that have `role`. `index` must be a value between 0 and {getRoleMemberCount}, non-inclusive. Role bearers are not sorted in any particular way, and their ordering may change at any point. WARNING: When using {getRoleMember} and {getRoleMemberCount}, make sure you perform all queries on the same block. See the following https://forum.openzeppelin.com/t/iterating-over-elements-on-enumerableset-in-openzeppelin-contracts/2296[forum post] for more information."
      },
      "getRoleMemberCount(bytes32)": {
        "details": "Returns the number of accounts that have `role`. Can be used together with {getRoleMember} to enumerate all bearers of a role."
      },
      "grantRole(bytes32,address)": {
        "details": "Overload {grantRole} to track enumerable memberships"
      },
      "hasRole(bytes32,address)": {
        "details": "Returns `true` if `account` has been granted `role`."
      },
      "owner()": {
        "details": "Returns the address of the current owner."
      },
      "pause()": {
        "details": "Pauses all token transfers. See {ERC1155Pausable} and {Pausable-_pause}. Requirements: - the caller must have the `PAUSER_ROLE`."
      },
      "paused()": {
        "details": "Returns true if the contract is paused, and false otherwise."
      },
      "renounceOwnership()": {
        "details": "Leaves the contract without owner. It will not be possible to call `onlyOwner` functions anymore. Can only be called by the current owner. NOTE: Renouncing ownership will leave the contract without an owner, thereby removing any functionality that is only available to the owner."
      },
      "renounceRole(bytes32,address)": {
        "details": "Overload {renounceRole} to track enumerable memberships"
      },
      "revokeRole(bytes32,address)": {
        "details": "Overload {revokeRole} to track enumerable memberships"
      },
      "supportsInterface(bytes4)": {
        "details": "See {IERC165-supportsInterface}."
      },
      "transferOwnership(address)": {
        "details": "Transfers ownership of the contract to a new account (`newOwner`). Can only be called by the current owner."
      },
      "unpause()": {
        "details": "Unpauses all token transfers. See {ERC1155Pausable} and {Pausable-_unpause}. Requirements: - the caller must have the `PAUSER_ROLE`."
      },
      "uri(uint256)": {
        "details": "See {IERC1155MetadataURI-uri}. This implementation returns the same URI for *all* token types. It relies on the token type ID substitution mechanism https://eips.ethereum.org/EIPS/eip-1155#metadata[defined in the EIP]. Clients calling this function must replace the `\\{id\\}` substring with the actual token type ID."
      }
    },
    "version": 1
  },
  "userdoc": {
    "kind": "user",
    "methods": {},
    "version": 1
  }
}