{
  "contractName": "CreatorTokenOwnership",
  "abi": [
    {
      "inputs": [
        {
          "internalType": "string",
          "name": "uri",
          "type": "string"
        }
      ],
      "stateMutability": "nonpayable",
      "type": "constructor"
    },
    {
      "anonymous": false,
      "inputs": [
        {
          "indexed": true,
          "internalType": "address",
          "name": "account",
          "type": "address"
        },
        {
          "indexed": true,
          "internalType": "address",
          "name": "operator",
          "type": "address"
        },
        {
          "indexed": false,
          "internalType": "bool",
          "name": "approved",
          "type": "bool"
        }
      ],
      "name": "ApprovalForAll",
      "type": "event"
    },
    {
      "anonymous": false,
      "inputs": [
        {
          "indexed": false,
          "internalType": "uint256",
          "name": "tokenId",
          "type": "uint256"
        },
        {
          "indexed": false,
          "internalType": "string",
          "name": "name",
          "type": "string"
        },
        {
          "indexed": false,
          "internalType": "string",
          "name": "symbol",
          "type": "string"
        }
      ],
      "name": "NewCreatorToken",
      "type": "event"
    },
    {
      "anonymous": false,
      "inputs": [
        {
          "indexed": true,
          "internalType": "address",
          "name": "previousOwner",
          "type": "address"
        },
        {
          "indexed": true,
          "internalType": "address",
          "name": "newOwner",
          "type": "address"
        }
      ],
      "name": "OwnershipTransferred",
      "type": "event"
    },
    {
      "anonymous": false,
      "inputs": [
        {
          "indexed": false,
          "internalType": "address",
          "name": "account",
          "type": "address"
        }
      ],
      "name": "Paused",
      "type": "event"
    },
    {
      "anonymous": false,
      "inputs": [
        {
          "indexed": true,
          "internalType": "bytes32",
          "name": "role",
          "type": "bytes32"
        },
        {
          "indexed": true,
          "internalType": "bytes32",
          "name": "previousAdminRole",
          "type": "bytes32"
        },
        {
          "indexed": true,
          "internalType": "bytes32",
          "name": "newAdminRole",
          "type": "bytes32"
        }
      ],
      "name": "RoleAdminChanged",
      "type": "event"
    },
    {
      "anonymous": false,
      "inputs": [
        {
          "indexed": true,
          "internalType": "bytes32",
          "name": "role",
          "type": "bytes32"
        },
        {
          "indexed": true,
          "internalType": "address",
          "name": "account",
          "type": "address"
        },
        {
          "indexed": true,
          "internalType": "address",
          "name": "sender",
          "type": "address"
        }
      ],
      "name": "RoleGranted",
      "type": "event"
    },
    {
      "anonymous": false,
      "inputs": [
        {
          "indexed": true,
          "internalType": "bytes32",
          "name": "role",
          "type": "bytes32"
        },
        {
          "indexed": true,
          "internalType": "address",
          "name": "account",
          "type": "address"
        },
        {
          "indexed": true,
          "internalType": "address",
          "name": "sender",
          "type": "address"
        }
      ],
      "name": "RoleRevoked",
      "type": "event"
    },
    {
      "anonymous": false,
      "inputs": [
        {
          "indexed": true,
          "internalType": "address",
          "name": "operator",
          "type": "address"
        },
        {
          "indexed": true,
          "internalType": "address",
          "name": "from",
          "type": "address"
        },
        {
          "indexed": true,
          "internalType": "address",
          "name": "to",
          "type": "address"
        },
        {
          "indexed": false,
          "internalType": "uint256[]",
          "name": "ids",
          "type": "uint256[]"
        },
        {
          "indexed": false,
          "internalType": "uint256[]",
          "name": "values",
          "type": "uint256[]"
        }
      ],
      "name": "TransferBatch",
      "type": "event"
    },
    {
      "anonymous": false,
      "inputs": [
        {
          "indexed": true,
          "internalType": "address",
          "name": "operator",
          "type": "address"
        },
        {
          "indexed": true,
          "internalType": "address",
          "name": "from",
          "type": "address"
        },
        {
          "indexed": true,
          "internalType": "address",
          "name": "to",
          "type": "address"
        },
        {
          "indexed": false,
          "internalType": "uint256",
          "name": "id",
          "type": "uint256"
        },
        {
          "indexed": false,
          "internalType": "uint256",
          "name": "value",
          "type": "uint256"
        }
      ],
      "name": "TransferSingle",
      "type": "event"
    },
    {
      "anonymous": false,
      "inputs": [
        {
          "indexed": false,
          "internalType": "string",
          "name": "value",
          "type": "string"
        },
        {
          "indexed": true,
          "internalType": "uint256",
          "name": "id",
          "type": "uint256"
        }
      ],
      "name": "URI",
      "type": "event"
    },
    {
      "anonymous": false,
      "inputs": [
        {
          "indexed": false,
          "internalType": "address",
          "name": "account",
          "type": "address"
        }
      ],
      "name": "Unpaused",
      "type": "event"
    },
    {
      "inputs": [],
      "name": "DEFAULT_ADMIN_ROLE",
      "outputs": [
        {
          "internalType": "bytes32",
          "name": "",
          "type": "bytes32"
        }
      ],
      "stateMutability": "view",
      "type": "function"
    },
    {
      "inputs": [],
      "name": "MINTER_ROLE",
      "outputs": [
        {
          "internalType": "bytes32",
          "name": "",
          "type": "bytes32"
        }
      ],
      "stateMutability": "view",
      "type": "function"
    },
    {
      "inputs": [],
      "name": "PAUSER_ROLE",
      "outputs": [
        {
          "internalType": "bytes32",
          "name": "",
          "type": "bytes32"
        }
      ],
      "stateMutability": "view",
      "type": "function"
    },
    {
      "inputs": [
        {
          "internalType": "uint256",
          "name": "_tokenId",
          "type": "uint256"
        },
        {
          "internalType": "address payable",
          "name": "_newCreatorAddress",
          "type": "address"
        }
      ],
      "name": "changeAddress",
      "outputs": [],
      "stateMutability": "nonpayable",
      "type": "function"
    },
    {
      "inputs": [
        {
          "internalType": "uint256",
          "name": "_tokenId",
          "type": "uint256"
        },
        {
          "internalType": "string",
          "name": "_newDescription",
          "type": "string"
        }
      ],
      "name": "changeDescription",
      "outputs": [],
      "stateMutability": "nonpayable",
      "type": "function"
    },
    {
      "inputs": [
        {
          "internalType": "uint256",
          "name": "_tokenId",
          "type": "uint256"
        },
        {
          "internalType": "string",
          "name": "_newName",
          "type": "string"
        }
      ],
      "name": "changeName",
      "outputs": [],
      "stateMutability": "nonpayable",
      "type": "function"
    },
    {
      "inputs": [
        {
          "internalType": "uint256",
          "name": "_newPlatformFee",
          "type": "uint256"
        }
      ],
      "name": "changePlatformFee",
      "outputs": [],
      "stateMutability": "nonpayable",
      "type": "function"
    },
    {
      "inputs": [
        {
          "internalType": "uint256",
          "name": "_newProfitMargin",
          "type": "uint256"
        }
      ],
      "name": "changeProfitMargin",
      "outputs": [],
      "stateMutability": "nonpayable",
      "type": "function"
    },
    {
      "inputs": [
        {
          "internalType": "uint256",
          "name": "_tokenId",
          "type": "uint256"
        },
        {
          "internalType": "string",
          "name": "_newSymbol",
          "type": "string"
        }
      ],
      "name": "changeSymbol",
      "outputs": [],
      "stateMutability": "nonpayable",
      "type": "function"
    },
    {
      "inputs": [
        {
          "internalType": "uint256",
          "name": "_tokenId",
          "type": "uint256"
        },
        {
          "internalType": "bool",
          "name": "_verified",
          "type": "bool"
        }
      ],
      "name": "changeVerification",
      "outputs": [],
      "stateMutability": "nonpayable",
      "type": "function"
    },
    {
      "inputs": [
        {
          "internalType": "address payable",
          "name": "_creatorAddress",
          "type": "address"
        },
        {
          "internalType": "string",
          "name": "_name",
          "type": "string"
        },
        {
          "internalType": "string",
          "name": "_symbol",
          "type": "string"
        },
        {
          "internalType": "string",
          "name": "_description",
          "type": "string"
        }
      ],
      "name": "createCreatorToken",
      "outputs": [],
      "stateMutability": "nonpayable",
      "type": "function"
    },
    {
      "inputs": [
        {
          "internalType": "uint256",
          "name": "",
          "type": "uint256"
        }
      ],
      "name": "creatorTokens",
      "outputs": [
        {
          "internalType": "address payable",
          "name": "creatorAddress",
          "type": "address"
        },
        {
          "internalType": "string",
          "name": "name",
          "type": "string"
        },
        {
          "internalType": "string",
          "name": "symbol",
          "type": "string"
        },
        {
          "internalType": "string",
          "name": "description",
          "type": "string"
        },
        {
          "internalType": "bool",
          "name": "verified",
          "type": "bool"
        },
        {
          "internalType": "uint256",
          "name": "outstanding",
          "type": "uint256"
        },
        {
          "internalType": "uint256",
          "name": "maxSupply",
          "type": "uint256"
        }
      ],
      "stateMutability": "view",
      "type": "function"
    },
    {
      "inputs": [
        {
          "internalType": "bytes32",
          "name": "role",
          "type": "bytes32"
        }
      ],
      "name": "getRoleAdmin",
      "outputs": [
        {
          "internalType": "bytes32",
          "name": "",
          "type": "bytes32"
        }
      ],
      "stateMutability": "view",
      "type": "function"
    },
    {
      "inputs": [
        {
          "internalType": "bytes32",
          "name": "role",
          "type": "bytes32"
        },
        {
          "internalType": "uint256",
          "name": "index",
          "type": "uint256"
        }
      ],
      "name": "getRoleMember",
      "outputs": [
        {
          "internalType": "address",
          "name": "",
          "type": "address"
        }
      ],
      "stateMutability": "view",
      "type": "function"
    },
    {
      "inputs": [
        {
          "internalType": "bytes32",
          "name": "role",
          "type": "bytes32"
        }
      ],
      "name": "getRoleMemberCount",
      "outputs": [
        {
          "internalType": "uint256",
          "name": "",
          "type": "uint256"
        }
      ],
      "stateMutability": "view",
      "type": "function"
    },
    {
      "inputs": [
        {
          "internalType": "bytes32",
          "name": "role",
          "type": "bytes32"
        },
        {
          "internalType": "address",
          "name": "account",
          "type": "address"
        }
      ],
      "name": "grantRole",
      "outputs": [],
      "stateMutability": "nonpayable",
      "type": "function"
    },
    {
      "inputs": [
        {
          "internalType": "bytes32",
          "name": "role",
          "type": "bytes32"
        },
        {
          "internalType": "address",
          "name": "account",
          "type": "address"
        }
      ],
      "name": "hasRole",
      "outputs": [
        {
          "internalType": "bool",
          "name": "",
          "type": "bool"
        }
      ],
      "stateMutability": "view",
      "type": "function"
    },
    {
      "inputs": [],
      "name": "owner",
      "outputs": [
        {
          "internalType": "address",
          "name": "",
          "type": "address"
        }
      ],
      "stateMutability": "view",
      "type": "function"
    },
    {
      "inputs": [],
      "name": "pause",
      "outputs": [],
      "stateMutability": "nonpayable",
      "type": "function"
    },
    {
      "inputs": [],
      "name": "paused",
      "outputs": [
        {
          "internalType": "bool",
          "name": "",
          "type": "bool"
        }
      ],
      "stateMutability": "view",
      "type": "function"
    },
    {
      "inputs": [
        {
          "internalType": "address payable",
          "name": "_owner",
          "type": "address"
        }
      ],
      "name": "payoutPlatformFees",
      "outputs": [],
      "stateMutability": "nonpayable",
      "type": "function"
    },
    {
      "inputs": [],
      "name": "renounceOwnership",
      "outputs": [],
      "stateMutability": "nonpayable",
      "type": "function"
    },
    {
      "inputs": [
        {
          "internalType": "bytes32",
          "name": "role",
          "type": "bytes32"
        },
        {
          "internalType": "address",
          "name": "account",
          "type": "address"
        }
      ],
      "name": "renounceRole",
      "outputs": [],
      "stateMutability": "nonpayable",
      "type": "function"
    },
    {
      "inputs": [
        {
          "internalType": "bytes32",
          "name": "role",
          "type": "bytes32"
        },
        {
          "internalType": "address",
          "name": "account",
          "type": "address"
        }
      ],
      "name": "revokeRole",
      "outputs": [],
      "stateMutability": "nonpayable",
      "type": "function"
    },
    {
      "inputs": [
        {
          "internalType": "bytes4",
          "name": "interfaceId",
          "type": "bytes4"
        }
      ],
      "name": "supportsInterface",
      "outputs": [
        {
          "internalType": "bool",
          "name": "",
          "type": "bool"
        }
      ],
      "stateMutability": "view",
      "type": "function"
    },
    {
      "inputs": [
        {
          "internalType": "uint256",
          "name": "",
          "type": "uint256"
        },
        {
          "internalType": "address",
          "name": "",
          "type": "address"
        }
      ],
      "name": "tokenHoldership",
      "outputs": [
        {
          "internalType": "uint256",
          "name": "",
          "type": "uint256"
        }
      ],
      "stateMutability": "view",
      "type": "function"
    },
    {
      "inputs": [
        {
          "internalType": "uint256",
          "name": "",
          "type": "uint256"
        }
      ],
      "name": "tokenToCreator",
      "outputs": [
        {
          "internalType": "address",
          "name": "",
          "type": "address"
        }
      ],
      "stateMutability": "view",
      "type": "function"
    },
    {
      "inputs": [
        {
          "internalType": "address",
          "name": "newOwner",
          "type": "address"
        }
      ],
      "name": "transferOwnership",
      "outputs": [],
      "stateMutability": "nonpayable",
      "type": "function"
    },
    {
      "inputs": [],
      "name": "unpause",
      "outputs": [],
      "stateMutability": "nonpayable",
      "type": "function"
    },
    {
      "inputs": [
        {
          "internalType": "uint256",
          "name": "",
          "type": "uint256"
        }
      ],
      "name": "uri",
      "outputs": [
        {
          "internalType": "string",
          "name": "",
          "type": "string"
        }
      ],
      "stateMutability": "view",
      "type": "function"
    },
    {
      "inputs": [
        {
          "internalType": "address",
          "name": "",
          "type": "address"
        },
        {
          "internalType": "uint256",
          "name": "",
          "type": "uint256"
        }
      ],
      "name": "userToHoldings",
      "outputs": [
        {
          "internalType": "uint256",
          "name": "",
          "type": "uint256"
        }
      ],
      "stateMutability": "view",
      "type": "function"
    },
    {
      "inputs": [
        {
          "internalType": "address payable",
          "name": "_owner",
          "type": "address"
        }
      ],
      "name": "withdraw",
      "outputs": [],
      "stateMutability": "nonpayable",
      "type": "function"
    },
    {
      "inputs": [
        {
          "internalType": "address",
          "name": "_to",
          "type": "address"
        },
        {
          "internalType": "uint256",
          "name": "_id",
          "type": "uint256"
        },
        {
          "internalType": "uint256",
          "name": "_amount",
          "type": "uint256"
        },
        {
          "internalType": "bytes",
          "name": "_data",
          "type": "bytes"
        }
      ],
      "name": "mint",
      "outputs": [],
      "stateMutability": "nonpayable",
      "type": "function"
    },
    {
      "inputs": [
        {
          "internalType": "address",
          "name": "_to",
          "type": "address"
        },
        {
          "internalType": "uint256[]",
          "name": "_ids",
          "type": "uint256[]"
        },
        {
          "internalType": "uint256[]",
          "name": "_amounts",
          "type": "uint256[]"
        },
        {
          "internalType": "bytes",
          "name": "data",
          "type": "bytes"
        }
      ],
      "name": "mintBatch",
      "outputs": [],
      "stateMutability": "nonpayable",
      "type": "function"
    },
    {
      "inputs": [
        {
          "internalType": "address",
          "name": "_account",
          "type": "address"
        },
        {
          "internalType": "uint256",
          "name": "_id",
          "type": "uint256"
        },
        {
          "internalType": "uint256",
          "name": "_amount",
          "type": "uint256"
        }
      ],
      "name": "burn",
      "outputs": [],
      "stateMutability": "nonpayable",
      "type": "function"
    },
    {
      "inputs": [
        {
          "internalType": "address",
          "name": "_account",
          "type": "address"
        },
        {
          "internalType": "uint256[]",
          "name": "_ids",
          "type": "uint256[]"
        },
        {
          "internalType": "uint256[]",
          "name": "_amounts",
          "type": "uint256[]"
        }
      ],
      "name": "burnBatch",
      "outputs": [],
      "stateMutability": "nonpayable",
      "type": "function"
    },
    {
      "inputs": [
        {
          "internalType": "address",
          "name": "_from",
          "type": "address"
        },
        {
          "internalType": "address",
          "name": "_to",
          "type": "address"
        },
        {
          "internalType": "uint256",
          "name": "_id",
          "type": "uint256"
        },
        {
          "internalType": "uint256",
          "name": "_amount",
          "type": "uint256"
        },
        {
          "internalType": "bytes",
          "name": "_data",
          "type": "bytes"
        }
      ],
      "name": "safeTransferFrom",
      "outputs": [],
      "stateMutability": "nonpayable",
      "type": "function"
    },
    {
      "inputs": [
        {
          "internalType": "address",
          "name": "_from",
          "type": "address"
        },
        {
          "internalType": "address",
          "name": "_to",
          "type": "address"
        },
        {
          "internalType": "uint256[]",
          "name": "_ids",
          "type": "uint256[]"
        },
        {
          "internalType": "uint256[]",
          "name": "_amounts",
          "type": "uint256[]"
        },
        {
          "internalType": "bytes",
          "name": "data",
          "type": "bytes"
        }
      ],
      "name": "safeBatchTransferFrom",
      "outputs": [],
      "stateMutability": "nonpayable",
      "type": "function"
    },
    {
      "inputs": [
        {
          "internalType": "address",
          "name": "_account",
          "type": "address"
        },
        {
          "internalType": "uint256",
          "name": "_id",
          "type": "uint256"
        }
      ],
      "name": "balanceOf",
      "outputs": [
        {
          "internalType": "uint256",
          "name": "",
          "type": "uint256"
        }
      ],
      "stateMutability": "view",
      "type": "function"
    },
    {
      "inputs": [
        {
          "internalType": "address[]",
          "name": "_accounts",
          "type": "address[]"
        },
        {
          "internalType": "uint256[]",
          "name": "_ids",
          "type": "uint256[]"
        }
      ],
      "name": "balanceOfBatch",
      "outputs": [
        {
          "internalType": "uint256[]",
          "name": "",
          "type": "uint256[]"
        }
      ],
      "stateMutability": "view",
      "type": "function"
    },
    {
      "inputs": [
        {
          "internalType": "address",
          "name": "_operator",
          "type": "address"
        },
        {
          "internalType": "bool",
          "name": "_approved",
          "type": "bool"
        }
      ],
      "name": "setApprovalForAll",
      "outputs": [],
      "stateMutability": "nonpayable",
      "type": "function"
    },
    {
      "inputs": [
        {
          "internalType": "address",
          "name": "_account",
          "type": "address"
        },
        {
          "internalType": "address",
          "name": "_operator",
          "type": "address"
        }
      ],
      "name": "isApprovedForAll",
      "outputs": [
        {
          "internalType": "bool",
          "name": "",
          "type": "bool"
        }
      ],
      "stateMutability": "view",
      "type": "function"
    }
  ],
  "bytecode": "0x6080604052600180556000600255600060035560146004556009600555620186a06006556006546005546200003591906200068a565b6007553480156200004557600080fd5b50604051620053203803806200532083398181016040528101906200006b9190620005da565b808060006200007f620001f860201b60201c565b9050806000806101000a81548173ffffffffffffffffffffffffffffffffffffffff021916908373ffffffffffffffffffffffffffffffffffffffff1602179055508073ffffffffffffffffffffffffffffffffffffffff16600073ffffffffffffffffffffffffffffffffffffffff167f8be0079c531659141344cd1fd0a4f28419497f9722a3daafe3b4186f6b6457e060405160405180910390a3506200012e816200020060201b60201c565b506000601360006101000a81548160ff0219169083151502179055506200016e6000801b62000162620001f860201b60201c565b6200021c60201b60201c565b620001af7f9f2df0fed2c77648de5860a4cc508cd0818c85b8b8a1ab4ceeef8d981c8956a6620001a3620001f860201b60201c565b6200021c60201b60201c565b620001f07f65d7a28e3265b37a6474929f336521b332c1681b933f6cb9f3376673440d862a620001e4620001f860201b60201c565b6200021c60201b60201c565b505062000820565b600033905090565b806012908051906020019062000218929190620004ac565b5050565b6200023382826200026460201b620025231760201c565b6200025f81600f60008581526020019081526020016000206200027a60201b620025311790919060201c565b505050565b620002768282620002b260201b60201c565b5050565b6000620002aa836000018373ffffffffffffffffffffffffffffffffffffffff1660001b620003a460201b60201c565b905092915050565b620002c482826200041e60201b60201c565b620003a0576001600e600084815260200190815260200160002060000160008373ffffffffffffffffffffffffffffffffffffffff1673ffffffffffffffffffffffffffffffffffffffff16815260200190815260200160002060006101000a81548160ff02191690831515021790555062000345620001f860201b60201c565b73ffffffffffffffffffffffffffffffffffffffff168173ffffffffffffffffffffffffffffffffffffffff16837f2f8788117e7eff1d82e926ec794901d17c78024a50270940304540a733656f0d60405160405180910390a45b5050565b6000620003b883836200048960201b60201c565b6200041357826000018290806001815401808255809150506001900390600052602060002001600090919091909150558260000180549050836001016000848152602001908152602001600020819055506001905062000418565b600090505b92915050565b6000600e600084815260200190815260200160002060000160008373ffffffffffffffffffffffffffffffffffffffff1673ffffffffffffffffffffffffffffffffffffffff16815260200190815260200160002060009054906101000a900460ff16905092915050565b600080836001016000848152602001908152602001600020541415905092915050565b828054620004ba9062000702565b90600052602060002090601f016020900481019282620004de57600085556200052a565b82601f10620004f957805160ff19168380011785556200052a565b828001600101855582156200052a579182015b82811115620005295782518255916020019190600101906200050c565b5b5090506200053991906200053d565b5090565b5b80821115620005585760008160009055506001016200053e565b5090565b6000620005736200056d8462000654565b6200062b565b90508281526020810184848401111562000592576200059162000800565b5b6200059f848285620006cc565b509392505050565b600082601f830112620005bf57620005be620007fb565b5b8151620005d18482602086016200055c565b91505092915050565b600060208284031215620005f357620005f26200080a565b5b600082015167ffffffffffffffff81111562000614576200061362000805565b5b6200062284828501620005a7565b91505092915050565b6000620006376200064a565b905062000645828262000738565b919050565b6000604051905090565b600067ffffffffffffffff821115620006725762000671620007cc565b5b6200067d826200080f565b9050602081019050919050565b60006200069782620006c2565b9150620006a483620006c2565b925082620006b757620006b66200076e565b5b828204905092915050565b6000819050919050565b60005b83811015620006ec578082015181840152602081019050620006cf565b83811115620006fc576000848401525b50505050565b600060028204905060018216806200071b57607f821691505b602082108114156200073257620007316200079d565b5b50919050565b62000743826200080f565b810181811067ffffffffffffffff82111715620007655762000764620007cc565b5b80604052505050565b7f4e487b7100000000000000000000000000000000000000000000000000000000600052601260045260246000fd5b7f4e487b7100000000000000000000000000000000000000000000000000000000600052602260045260246000fd5b7f4e487b7100000000000000000000000000000000000000000000000000000000600052604160045260246000fd5b600080fd5b600080fd5b600080fd5b600080fd5b6000601f19601f8301169050919050565b614af080620008306000396000f3fe608060405234801561001057600080fd5b506004361061025d5760003560e01c806391d1485411610146578063d547741f116100c3578063e985e9c511610087578063e985e9c51461071c578063eb8417591461074c578063f242432a14610768578063f2fde38b14610784578063f5298aca146107a0578063f7374e2e146107bc5761025d565b8063d547741f1461068e578063d56b72c7146106aa578063d7a5791a146106c6578063de6a06ed146106e2578063e63ab1e9146106fe5761025d565b8063c39cbef11161010a578063c39cbef1146105d2578063c539c317146105ee578063ca15c8731461060a578063ce901d8a1461063a578063d5391393146106705761025d565b806391d148541461050857806392724afa14610538578063a217fddf14610568578063a22cb46514610586578063bfb48c9c146105a25761025d565b806336568abe116101df5780636b20c454116101a35780636b20c4541461046e578063715018a61461048a578063731133e9146104945780638456cb59146104b05780638da5cb5b146104ba5780639010d07c146104d85761025d565b806336568abe146103de5780633f4ba83a146103fa5780634e1273f41461040457806351cff8d9146104345780635c975abb146104505761025d565b80631d5ad18b116102265780631d5ad18b1461033e5780631f7fdffa1461035a578063248a9ca3146103765780632eb2c2d6146103a65780632f2ff15d146103c25761025d565b8062fdd58e1461026257806301ffc9a71461029257806306e320f5146102c25780630e89341c146102de57806318892ae81461030e575b600080fd5b61027c6004803603810190610277919061394a565b6107d8565b604051610289919061426d565b60405180910390f35b6102ac60048036038101906102a79190613b8e565b610833565b6040516102b991906140f5565b60405180910390f35b6102dc60048036038101906102d79190613ca8565b610845565b005b6102f860048036038101906102f39190613bbb565b6108ec565b604051610305919061412b565b60405180910390f35b61032860048036038101906103239190613bbb565b610980565b6040516103359190613ffd565b60405180910390f35b61035860048036038101906103539190613c28565b6109b3565b005b610374600480360381019061036f919061384f565b610a88565b005b610390600480360381019061038b9190613ae1565b610c38565b60405161039d9190614110565b60405180910390f35b6103c060048036038101906103bb919061365e565b610c58565b005b6103dc60048036038101906103d79190613b0e565b610e33565b005b6103f860048036038101906103f39190613b0e565b610e67565b005b610402610e9b565b005b61041e60048036038101906104199190613a60565b610f15565b60405161042b919061409c565b60405180910390f35b61044e60048036038101906104499190613536565b611045565b005b61045861110b565b60405161046591906140f5565b60405180910390f35b610488600480360381019061048391906137c4565b611122565b005b6104926112d1565b005b6104ae60048036038101906104a991906139dd565b61140b565b005b6104b8611533565b005b6104c26115ad565b6040516104cf9190613ffd565b60405180910390f35b6104f260048036038101906104ed9190613b4e565b6115d6565b6040516104ff9190613ffd565b60405180910390f35b610522600480360381019061051d9190613b0e565b611605565b60405161052f91906140f5565b60405180910390f35b610552600480360381019061054d919061394a565b611670565b60405161055f919061426d565b60405180910390f35b610570611695565b60405161057d9190614110565b60405180910390f35b6105a0600480360381019061059b919061390a565b61169c565b005b6105bc60048036038101906105b79190613be8565b611799565b6040516105c9919061426d565b60405180910390f35b6105ec60048036038101906105e79190613ca8565b6117be565b005b61060860048036038101906106039190613bbb565b611865565b005b610624600480360381019061061f9190613ae1565b6118eb565b604051610631919061426d565b60405180910390f35b610654600480360381019061064f9190613bbb565b61190f565b6040516106679796959493929190614018565b60405180910390f35b610678611b26565b6040516106859190614110565b60405180910390f35b6106a860048036038101906106a39190613b0e565b611b4a565b005b6106c460048036038101906106bf9190613563565b611b7e565b005b6106e060048036038101906106db9190613bbb565b611d8e565b005b6106fc60048036038101906106f79190613ca8565b611e14565b005b610706611ebb565b6040516107139190614110565b60405180910390f35b6107366004803603810190610731919061361e565b611edf565b60405161074391906140f5565b60405180910390f35b61076660048036038101906107619190613536565b611f73565b005b610782600480360381019061077d919061372d565b612043565b005b61079e60048036038101906107999190613509565b612196565b005b6107ba60048036038101906107b5919061398a565b61233f565b005b6107d660048036038101906107d19190613c68565b612466565b005b6000600b600083815260200190815260200160002060008473ffffffffffffffffffffffffffffffffffffffff1673ffffffffffffffffffffffffffffffffffffffff16815260200190815260200160002054905092915050565b600061083e82612561565b9050919050565b826009600082815260200190815260200160002060009054906101000a900473ffffffffffffffffffffffffffffffffffffffff1673ffffffffffffffffffffffffffffffffffffffff163373ffffffffffffffffffffffffffffffffffffffff16146108b157600080fd5b8282600886815481106108c7576108c6614722565b5b906000526020600020906007020160020191906108e59291906130e2565b5050505050565b6060601280546108fb906145e9565b80601f0160208091040260200160405190810160405280929190818152602001828054610927906145e9565b80156109745780601f1061094957610100808354040283529160200191610974565b820191906000526020600020905b81548152906001019060200180831161095757829003601f168201915b50505050509050919050565b60096020528060005260406000206000915054906101000a900473ffffffffffffffffffffffffffffffffffffffff1681565b816009600082815260200190815260200160002060009054906101000a900473ffffffffffffffffffffffffffffffffffffffff1673ffffffffffffffffffffffffffffffffffffffff163373ffffffffffffffffffffffffffffffffffffffff1614610a1f57600080fd5b8160088481548110610a3457610a33614722565b5b906000526020600020906007020160000160006101000a81548173ffffffffffffffffffffffffffffffffffffffff021916908373ffffffffffffffffffffffffffffffffffffffff160217905550505050565b60005b8351811015610bb257828181518110610aa757610aa6614722565b5b6020026020010151600b6000868481518110610ac657610ac5614722565b5b6020026020010151815260200190815260200160002060008773ffffffffffffffffffffffffffffffffffffffff1673ffffffffffffffffffffffffffffffffffffffff1681526020019081526020016000206000828254610b289190614409565b92505081905550828181518110610b4257610b41614722565b5b60200260200101516008858381518110610b5f57610b5e614722565b5b602002602001015181548110610b7857610b77614722565b5b90600052602060002090600702016005016000828254610b989190614409565b925050819055508080610baa9061464c565b915050610a8b565b508373ffffffffffffffffffffffffffffffffffffffff16600073ffffffffffffffffffffffffffffffffffffffff163373ffffffffffffffffffffffffffffffffffffffff167f4a39dc06d4c0dbc64b70af90fd698a233a518aa5d07e595d983b8c0526c8f7fb8686604051610c2a9291906140be565b60405180910390a450505050565b6000600e6000838152602001908152602001600020600101549050919050565b60005b8351811015610dad57828181518110610c7757610c76614722565b5b6020026020010151600b6000868481518110610c9657610c95614722565b5b6020026020010151815260200190815260200160002060008873ffffffffffffffffffffffffffffffffffffffff1673ffffffffffffffffffffffffffffffffffffffff1681526020019081526020016000206000828254610cf891906144b9565b92505081905550828181518110610d1257610d11614722565b5b6020026020010151600b6000868481518110610d3157610d30614722565b5b6020026020010151815260200190815260200160002060008773ffffffffffffffffffffffffffffffffffffffff1673ffffffffffffffffffffffffffffffffffffffff1681526020019081526020016000206000828254610d939190614409565b925050819055508080610da59061464c565b915050610c5b565b508373ffffffffffffffffffffffffffffffffffffffff168573ffffffffffffffffffffffffffffffffffffffff163373ffffffffffffffffffffffffffffffffffffffff167f4a39dc06d4c0dbc64b70af90fd698a233a518aa5d07e595d983b8c0526c8f7fb8686604051610e249291906140be565b60405180910390a45050505050565b610e3d8282612643565b610e6281600f600085815260200190815260200160002061253190919063ffffffff16565b505050565b610e71828261266c565b610e9681600f60008581526020019081526020016000206126ef90919063ffffffff16565b505050565b610ecc7f65d7a28e3265b37a6474929f336521b332c1681b933f6cb9f3376673440d862a610ec761271f565b611605565b610f0b576040517f08c379a0000000000000000000000000000000000000000000000000000000008152600401610f029061420d565b60405180910390fd5b610f13612727565b565b606060008585905067ffffffffffffffff811115610f3657610f35614751565b5b604051908082528060200260200182016040528015610f645781602001602082028036833780820191505090505b50905060005b8686905081101561103857600b6000868684818110610f8c57610f8b614722565b5b9050602002013581526020019081526020016000206000888884818110610fb657610fb5614722565b5b9050602002016020810190610fcb9190613509565b73ffffffffffffffffffffffffffffffffffffffff1673ffffffffffffffffffffffffffffffffffffffff1681526020019081526020016000205482828151811061101957611018614722565b5b60200260200101818152505080806110309061464c565b915050610f6a565b5080915050949350505050565b61104d61271f565b73ffffffffffffffffffffffffffffffffffffffff1661106b6115ad565b73ffffffffffffffffffffffffffffffffffffffff16146110c1576040517f08c379a00000000000000000000000000000000000000000000000000000000081526004016110b8906141ed565b60405180910390fd5b8073ffffffffffffffffffffffffffffffffffffffff166108fc479081150290604051600060405180830381858888f19350505050158015611107573d6000803e3d6000fd5b5050565b6000601360009054906101000a900460ff16905090565b60005b825181101561124c5781818151811061114157611140614722565b5b6020026020010151600b60008584815181106111605761115f614722565b5b6020026020010151815260200190815260200160002060008673ffffffffffffffffffffffffffffffffffffffff1673ffffffffffffffffffffffffffffffffffffffff16815260200190815260200160002060008282546111c291906144b9565b925050819055508181815181106111dc576111db614722565b5b602002602001015160088483815181106111f9576111f8614722565b5b60200260200101518154811061121257611211614722565b5b9060005260206000209060070201600501600082825461123291906144b9565b9250508190555080806112449061464c565b915050611125565b50600073ffffffffffffffffffffffffffffffffffffffff168373ffffffffffffffffffffffffffffffffffffffff163373ffffffffffffffffffffffffffffffffffffffff167f4a39dc06d4c0dbc64b70af90fd698a233a518aa5d07e595d983b8c0526c8f7fb85856040516112c49291906140be565b60405180910390a4505050565b6112d961271f565b73ffffffffffffffffffffffffffffffffffffffff166112f76115ad565b73ffffffffffffffffffffffffffffffffffffffff161461134d576040517f08c379a0000000000000000000000000000000000000000000000000000000008152600401611344906141ed565b60405180910390fd5b600073ffffffffffffffffffffffffffffffffffffffff1660008054906101000a900473ffffffffffffffffffffffffffffffffffffffff1673ffffffffffffffffffffffffffffffffffffffff167f8be0079c531659141344cd1fd0a4f28419497f9722a3daafe3b4186f6b6457e060405160405180910390a360008060006101000a81548173ffffffffffffffffffffffffffffffffffffffff021916908373ffffffffffffffffffffffffffffffffffffffff160217905550565b81600b600085815260200190815260200160002060008673ffffffffffffffffffffffffffffffffffffffff1673ffffffffffffffffffffffffffffffffffffffff168152602001908152602001600020600082825461146b9190614409565b92505081905550816008848154811061148757611486614722565b5b906000526020600020906007020160050160008282546114a79190614409565b925050819055508373ffffffffffffffffffffffffffffffffffffffff16600073ffffffffffffffffffffffffffffffffffffffff163373ffffffffffffffffffffffffffffffffffffffff167fc3d58168c5ae7397731d063d5bbf3d657854427343f4c083240f7aacaa2d0f6286866040516115259291906142cd565b60405180910390a450505050565b6115647f65d7a28e3265b37a6474929f336521b332c1681b933f6cb9f3376673440d862a61155f61271f565b611605565b6115a3576040517f08c379a000000000000000000000000000000000000000000000000000000000815260040161159a9061422d565b60405180910390fd5b6115ab6127c9565b565b60008060009054906101000a900473ffffffffffffffffffffffffffffffffffffffff16905090565b60006115fd82600f600086815260200190815260200160002061286c90919063ffffffff16565b905092915050565b6000600e600084815260200190815260200160002060000160008373ffffffffffffffffffffffffffffffffffffffff1673ffffffffffffffffffffffffffffffffffffffff16815260200190815260200160002060009054906101000a900460ff16905092915050565b600c602052816000526040600020602052806000526040600020600091509150505481565b6000801b81565b80600d60003373ffffffffffffffffffffffffffffffffffffffff1673ffffffffffffffffffffffffffffffffffffffff16815260200190815260200160002060008473ffffffffffffffffffffffffffffffffffffffff1673ffffffffffffffffffffffffffffffffffffffff16815260200190815260200160002060006101000a81548160ff0219169083151502179055508173ffffffffffffffffffffffffffffffffffffffff163373ffffffffffffffffffffffffffffffffffffffff167f17307eab39ab6107e8899845ad3d59bd9653f200f220920489ca2b5937696c318360405161178d91906140f5565b60405180910390a35050565b600b602052816000526040600020602052806000526040600020600091509150505481565b826009600082815260200190815260200160002060009054906101000a900473ffffffffffffffffffffffffffffffffffffffff1673ffffffffffffffffffffffffffffffffffffffff163373ffffffffffffffffffffffffffffffffffffffff161461182a57600080fd5b8282600886815481106118405761183f614722565b5b9060005260206000209060070201600101919061185e9291906130e2565b5050505050565b61186d61271f565b73ffffffffffffffffffffffffffffffffffffffff1661188b6115ad565b73ffffffffffffffffffffffffffffffffffffffff16146118e1576040517f08c379a00000000000000000000000000000000000000000000000000000000081526004016118d8906141ed565b60405180910390fd5b8060048190555050565b6000611908600f6000848152602001908152602001600020612886565b9050919050565b6008818154811061191f57600080fd5b90600052602060002090600702016000915090508060000160009054906101000a900473ffffffffffffffffffffffffffffffffffffffff1690806001018054611968906145e9565b80601f0160208091040260200160405190810160405280929190818152602001828054611994906145e9565b80156119e15780601f106119b6576101008083540402835291602001916119e1565b820191906000526020600020905b8154815290600101906020018083116119c457829003601f168201915b5050505050908060020180546119f6906145e9565b80601f0160208091040260200160405190810160405280929190818152602001828054611a22906145e9565b8015611a6f5780601f10611a4457610100808354040283529160200191611a6f565b820191906000526020600020905b815481529060010190602001808311611a5257829003601f168201915b505050505090806003018054611a84906145e9565b80601f0160208091040260200160405190810160405280929190818152602001828054611ab0906145e9565b8015611afd5780601f10611ad257610100808354040283529160200191611afd565b820191906000526020600020905b815481529060010190602001808311611ae057829003601f168201915b5050505050908060040160009054906101000a900460ff16908060050154908060060154905087565b7f9f2df0fed2c77648de5860a4cc508cd0818c85b8b8a1ab4ceeef8d981c8956a681565b611b54828261289b565b611b7981600f60008581526020019081526020016000206126ef90919063ffffffff16565b505050565b60086040518060e001604052808673ffffffffffffffffffffffffffffffffffffffff168152602001858152602001848152602001838152602001600015158152602001600081526020016000815250908060018154018082558091505060019003906000526020600020906007020160009091909190915060008201518160000160006101000a81548173ffffffffffffffffffffffffffffffffffffffff021916908373ffffffffffffffffffffffffffffffffffffffff1602179055506020820151816001019080519060200190611c5a929190613168565b506040820151816002019080519060200190611c77929190613168565b506060820151816003019080519060200190611c94929190613168565b5060808201518160040160006101000a81548160ff02191690831515021790555060a0820151816005015560c08201518160060155505060006001600880549050611cdf91906144b9565b9050846009600083815260200190815260200160002060006101000a81548173ffffffffffffffffffffffffffffffffffffffff021916908373ffffffffffffffffffffffffffffffffffffffff1602179055506000600a6000838152602001908152602001600020819055507f01e9d0e2208938b5d6a39db5244c8dca0b77eb386bf3705fe751005e7e0ca16c818585604051611d7f93929190614288565b60405180910390a15050505050565b611d9661271f565b73ffffffffffffffffffffffffffffffffffffffff16611db46115ad565b73ffffffffffffffffffffffffffffffffffffffff1614611e0a576040517f08c379a0000000000000000000000000000000000000000000000000000000008152600401611e01906141ed565b60405180910390fd5b8060018190555050565b826009600082815260200190815260200160002060009054906101000a900473ffffffffffffffffffffffffffffffffffffffff1673ffffffffffffffffffffffffffffffffffffffff163373ffffffffffffffffffffffffffffffffffffffff1614611e8057600080fd5b828260088681548110611e9657611e95614722565b5b90600052602060002090600702016003019190611eb49291906130e2565b5050505050565b7f65d7a28e3265b37a6474929f336521b332c1681b933f6cb9f3376673440d862a81565b6000600d60008473ffffffffffffffffffffffffffffffffffffffff1673ffffffffffffffffffffffffffffffffffffffff16815260200190815260200160002060008373ffffffffffffffffffffffffffffffffffffffff1673ffffffffffffffffffffffffffffffffffffffff16815260200190815260200160002060009054906101000a900460ff16905092915050565b611f7b61271f565b73ffffffffffffffffffffffffffffffffffffffff16611f996115ad565b73ffffffffffffffffffffffffffffffffffffffff1614611fef576040517f08c379a0000000000000000000000000000000000000000000000000000000008152600401611fe6906141ed565b60405180910390fd5b8073ffffffffffffffffffffffffffffffffffffffff166108fc6003549081150290604051600060405180830381858888f19350505050158015612037573d6000803e3d6000fd5b50600060038190555050565b81600b600085815260200190815260200160002060008773ffffffffffffffffffffffffffffffffffffffff1673ffffffffffffffffffffffffffffffffffffffff16815260200190815260200160002060008282546120a391906144b9565b9250508190555081600b600085815260200190815260200160002060008673ffffffffffffffffffffffffffffffffffffffff1673ffffffffffffffffffffffffffffffffffffffff168152602001908152602001600020600082825461210a9190614409565b925050819055508373ffffffffffffffffffffffffffffffffffffffff168573ffffffffffffffffffffffffffffffffffffffff163373ffffffffffffffffffffffffffffffffffffffff167fc3d58168c5ae7397731d063d5bbf3d657854427343f4c083240f7aacaa2d0f6286866040516121879291906142cd565b60405180910390a45050505050565b61219e61271f565b73ffffffffffffffffffffffffffffffffffffffff166121bc6115ad565b73ffffffffffffffffffffffffffffffffffffffff1614612212576040517f08c379a0000000000000000000000000000000000000000000000000000000008152600401612209906141ed565b60405180910390fd5b600073ffffffffffffffffffffffffffffffffffffffff168173ffffffffffffffffffffffffffffffffffffffff161415612282576040517f08c379a0000000000000000000000000000000000000000000000000000000008152600401612279906141ad565b60405180910390fd5b8073ffffffffffffffffffffffffffffffffffffffff1660008054906101000a900473ffffffffffffffffffffffffffffffffffffffff1673ffffffffffffffffffffffffffffffffffffffff167f8be0079c531659141344cd1fd0a4f28419497f9722a3daafe3b4186f6b6457e060405160405180910390a3806000806101000a81548173ffffffffffffffffffffffffffffffffffffffff021916908373ffffffffffffffffffffffffffffffffffffffff16021790555050565b80600b600084815260200190815260200160002060008573ffffffffffffffffffffffffffffffffffffffff1673ffffffffffffffffffffffffffffffffffffffff168152602001908152602001600020600082825461239f91906144b9565b9250508190555080600883815481106123bb576123ba614722565b5b906000526020600020906007020160050160008282546123db91906144b9565b92505081905550600073ffffffffffffffffffffffffffffffffffffffff168373ffffffffffffffffffffffffffffffffffffffff163373ffffffffffffffffffffffffffffffffffffffff167fc3d58168c5ae7397731d063d5bbf3d657854427343f4c083240f7aacaa2d0f6285856040516124599291906142cd565b60405180910390a4505050565b61246e61271f565b73ffffffffffffffffffffffffffffffffffffffff1661248c6115ad565b73ffffffffffffffffffffffffffffffffffffffff16146124e2576040517f08c379a00000000000000000000000000000000000000000000000000000000081526004016124d9906141ed565b60405180910390fd5b80600883815481106124f7576124f6614722565b5b906000526020600020906007020160040160006101000a81548160ff0219169083151502179055505050565b61252d82826128c4565b5050565b6000612559836000018373ffffffffffffffffffffffffffffffffffffffff1660001b6129a5565b905092915050565b60007fd9b67a26000000000000000000000000000000000000000000000000000000007bffffffffffffffffffffffffffffffffffffffffffffffffffffffff1916827bffffffffffffffffffffffffffffffffffffffffffffffffffffffff1916148061262c57507f0e89341c000000000000000000000000000000000000000000000000000000007bffffffffffffffffffffffffffffffffffffffffffffffffffffffff1916827bffffffffffffffffffffffffffffffffffffffffffffffffffffffff1916145b8061263c575061263b82612a15565b5b9050919050565b61264c82610c38565b61265d8161265861271f565b612a8f565b61266783836128c4565b505050565b61267461271f565b73ffffffffffffffffffffffffffffffffffffffff168173ffffffffffffffffffffffffffffffffffffffff16146126e1576040517f08c379a00000000000000000000000000000000000000000000000000000000081526004016126d89061424d565b60405180910390fd5b6126eb8282612b2c565b5050565b6000612717836000018373ffffffffffffffffffffffffffffffffffffffff1660001b612c0e565b905092915050565b600033905090565b61272f61110b565b61276e576040517f08c379a00000000000000000000000000000000000000000000000000000000081526004016127659061418d565b60405180910390fd5b6000601360006101000a81548160ff0219169083151502179055507f5db9ee0a495bf2e6ff9c91a7834c1ba4fdd244a5e8aa4e537bd38aeae4b073aa6127b261271f565b6040516127bf9190613ffd565b60405180910390a1565b6127d161110b565b15612811576040517f08c379a0000000000000000000000000000000000000000000000000000000008152600401612808906141cd565b60405180910390fd5b6001601360006101000a81548160ff0219169083151502179055507f62e78cea01bee320cd4e420270b5ea74000d11b0c9f74754ebdbfc544b05a25861285561271f565b6040516128629190613ffd565b60405180910390a1565b600061287b8360000183612d1a565b60001c905092915050565b600061289482600001612d8e565b9050919050565b6128a482610c38565b6128b5816128b061271f565b612a8f565b6128bf8383612b2c565b505050565b6128ce8282611605565b6129a1576001600e600084815260200190815260200160002060000160008373ffffffffffffffffffffffffffffffffffffffff1673ffffffffffffffffffffffffffffffffffffffff16815260200190815260200160002060006101000a81548160ff02191690831515021790555061294661271f565b73ffffffffffffffffffffffffffffffffffffffff168173ffffffffffffffffffffffffffffffffffffffff16837f2f8788117e7eff1d82e926ec794901d17c78024a50270940304540a733656f0d60405160405180910390a45b5050565b60006129b18383612d9f565b612a0a578260000182908060018154018082558091505060019003906000526020600020016000909190919091505582600001805490508360010160008481526020019081526020016000208190555060019050612a0f565b600090505b92915050565b60007f5a05180f000000000000000000000000000000000000000000000000000000007bffffffffffffffffffffffffffffffffffffffffffffffffffffffff1916827bffffffffffffffffffffffffffffffffffffffffffffffffffffffff19161480612a885750612a8782612dc2565b5b9050919050565b612a998282611605565b612b2857612abe8173ffffffffffffffffffffffffffffffffffffffff166014612e3c565b612acc8360001c6020612e3c565b604051602001612add929190613fc3565b6040516020818303038152906040526040517f08c379a0000000000000000000000000000000000000000000000000000000008152600401612b1f919061412b565b60405180910390fd5b5050565b612b368282611605565b15612c0a576000600e600084815260200190815260200160002060000160008373ffffffffffffffffffffffffffffffffffffffff1673ffffffffffffffffffffffffffffffffffffffff16815260200190815260200160002060006101000a81548160ff021916908315150217905550612baf61271f565b73ffffffffffffffffffffffffffffffffffffffff168173ffffffffffffffffffffffffffffffffffffffff16837ff6391f5c32d9c69d2a47ea670b442974b53935d1edc7fd64eb21e047a839171b60405160405180910390a45b5050565b60008083600101600084815260200190815260200160002054905060008114612d0e576000600182612c4091906144b9565b9050600060018660000180549050612c5891906144b9565b90506000866000018281548110612c7257612c71614722565b5b9060005260206000200154905080876000018481548110612c9657612c95614722565b5b9060005260206000200181905550838760010160008381526020019081526020016000208190555086600001805480612cd257612cd16146f3565b5b60019003818190600052602060002001600090559055866001016000878152602001908152602001600020600090556001945050505050612d14565b60009150505b92915050565b600081836000018054905011612d65576040517f08c379a0000000000000000000000000000000000000000000000000000000008152600401612d5c9061414d565b60405180910390fd5b826000018281548110612d7b57612d7a614722565b5b9060005260206000200154905092915050565b600081600001805490509050919050565b600080836001016000848152602001908152602001600020541415905092915050565b60007f7965db0b000000000000000000000000000000000000000000000000000000007bffffffffffffffffffffffffffffffffffffffffffffffffffffffff1916827bffffffffffffffffffffffffffffffffffffffffffffffffffffffff19161480612e355750612e3482613078565b5b9050919050565b606060006002836002612e4f919061445f565b612e599190614409565b67ffffffffffffffff811115612e7257612e71614751565b5b6040519080825280601f01601f191660200182016040528015612ea45781602001600182028036833780820191505090505b5090507f300000000000000000000000000000000000000000000000000000000000000081600081518110612edc57612edb614722565b5b60200101907effffffffffffffffffffffffffffffffffffffffffffffffffffffffffffff1916908160001a9053507f780000000000000000000000000000000000000000000000000000000000000081600181518110612f4057612f3f614722565b5b60200101907effffffffffffffffffffffffffffffffffffffffffffffffffffffffffffff1916908160001a90535060006001846002612f80919061445f565b612f8a9190614409565b90505b600181111561302a577f3031323334353637383961626364656600000000000000000000000000000000600f861660108110612fcc57612fcb614722565b5b1a60f81b828281518110612fe357612fe2614722565b5b60200101907effffffffffffffffffffffffffffffffffffffffffffffffffffffffffffff1916908160001a905350600485901c945080613023906145bf565b9050612f8d565b506000841461306e576040517f08c379a00000000000000000000000000000000000000000000000000000000081526004016130659061416d565b60405180910390fd5b8091505092915050565b60007f01ffc9a7000000000000000000000000000000000000000000000000000000007bffffffffffffffffffffffffffffffffffffffffffffffffffffffff1916827bffffffffffffffffffffffffffffffffffffffffffffffffffffffff1916149050919050565b8280546130ee906145e9565b90600052602060002090601f0160209004810192826131105760008555613157565b82601f1061312957803560ff1916838001178555613157565b82800160010185558215613157579182015b8281111561315657823582559160200191906001019061313b565b5b50905061316491906131ee565b5090565b828054613174906145e9565b90600052602060002090601f01602090048101928261319657600085556131dd565b82601f106131af57805160ff19168380011785556131dd565b828001600101855582156131dd579182015b828111156131dc5782518255916020019190600101906131c1565b5b5090506131ea91906131ee565b5090565b5b808211156132075760008160009055506001016131ef565b5090565b600061321e6132198461431b565b6142f6565b905080838252602082019050828560208602820111156132415761324061478a565b5b60005b85811015613271578161325788826134f4565b845260208401935060208301925050600181019050613244565b5050509392505050565b600061328e61328984614347565b6142f6565b9050828152602081018484840111156132aa576132a961478f565b5b6132b584828561457d565b509392505050565b60006132d06132cb84614378565b6142f6565b9050828152602081018484840111156132ec576132eb61478f565b5b6132f784828561457d565b509392505050565b60008135905061330e81614a30565b92915050565b60008135905061332381614a47565b92915050565b60008083601f84011261333f5761333e614785565b5b8235905067ffffffffffffffff81111561335c5761335b614780565b5b6020830191508360208202830111156133785761337761478a565b5b9250929050565b60008083601f84011261339557613394614785565b5b8235905067ffffffffffffffff8111156133b2576133b1614780565b5b6020830191508360208202830111156133ce576133cd61478a565b5b9250929050565b600082601f8301126133ea576133e9614785565b5b81356133fa84826020860161320b565b91505092915050565b60008135905061341281614a5e565b92915050565b60008135905061342781614a75565b92915050565b60008135905061343c81614a8c565b92915050565b600082601f83011261345757613456614785565b5b813561346784826020860161327b565b91505092915050565b60008083601f84011261348657613485614785565b5b8235905067ffffffffffffffff8111156134a3576134a2614780565b5b6020830191508360018202830111156134bf576134be61478a565b5b9250929050565b600082601f8301126134db576134da614785565b5b81356134eb8482602086016132bd565b91505092915050565b60008135905061350381614aa3565b92915050565b60006020828403121561351f5761351e614799565b5b600061352d848285016132ff565b91505092915050565b60006020828403121561354c5761354b614799565b5b600061355a84828501613314565b91505092915050565b6000806000806080858703121561357d5761357c614799565b5b600061358b87828801613314565b945050602085013567ffffffffffffffff8111156135ac576135ab614794565b5b6135b8878288016134c6565b935050604085013567ffffffffffffffff8111156135d9576135d8614794565b5b6135e5878288016134c6565b925050606085013567ffffffffffffffff81111561360657613605614794565b5b613612878288016134c6565b91505092959194509250565b6000806040838503121561363557613634614799565b5b6000613643858286016132ff565b9250506020613654858286016132ff565b9150509250929050565b600080600080600060a0868803121561367a57613679614799565b5b6000613688888289016132ff565b9550506020613699888289016132ff565b945050604086013567ffffffffffffffff8111156136ba576136b9614794565b5b6136c6888289016133d5565b935050606086013567ffffffffffffffff8111156136e7576136e6614794565b5b6136f3888289016133d5565b925050608086013567ffffffffffffffff81111561371457613713614794565b5b61372088828901613442565b9150509295509295909350565b600080600080600060a0868803121561374957613748614799565b5b6000613757888289016132ff565b9550506020613768888289016132ff565b9450506040613779888289016134f4565b935050606061378a888289016134f4565b925050608086013567ffffffffffffffff8111156137ab576137aa614794565b5b6137b788828901613442565b9150509295509295909350565b6000806000606084860312156137dd576137dc614799565b5b60006137eb868287016132ff565b935050602084013567ffffffffffffffff81111561380c5761380b614794565b5b613818868287016133d5565b925050604084013567ffffffffffffffff81111561383957613838614794565b5b613845868287016133d5565b9150509250925092565b6000806000806080858703121561386957613868614799565b5b6000613877878288016132ff565b945050602085013567ffffffffffffffff81111561389857613897614794565b5b6138a4878288016133d5565b935050604085013567ffffffffffffffff8111156138c5576138c4614794565b5b6138d1878288016133d5565b925050606085013567ffffffffffffffff8111156138f2576138f1614794565b5b6138fe87828801613442565b91505092959194509250565b6000806040838503121561392157613920614799565b5b600061392f858286016132ff565b925050602061394085828601613403565b9150509250929050565b6000806040838503121561396157613960614799565b5b600061396f858286016132ff565b9250506020613980858286016134f4565b9150509250929050565b6000806000606084860312156139a3576139a2614799565b5b60006139b1868287016132ff565b93505060206139c2868287016134f4565b92505060406139d3868287016134f4565b9150509250925092565b600080600080608085870312156139f7576139f6614799565b5b6000613a05878288016132ff565b9450506020613a16878288016134f4565b9350506040613a27878288016134f4565b925050606085013567ffffffffffffffff811115613a4857613a47614794565b5b613a5487828801613442565b91505092959194509250565b60008060008060408587031215613a7a57613a79614799565b5b600085013567ffffffffffffffff811115613a9857613a97614794565b5b613aa487828801613329565b9450945050602085013567ffffffffffffffff811115613ac757613ac6614794565b5b613ad38782880161337f565b925092505092959194509250565b600060208284031215613af757613af6614799565b5b6000613b0584828501613418565b91505092915050565b60008060408385031215613b2557613b24614799565b5b6000613b3385828601613418565b9250506020613b44858286016132ff565b9150509250929050565b60008060408385031215613b6557613b64614799565b5b6000613b7385828601613418565b9250506020613b84858286016134f4565b9150509250929050565b600060208284031215613ba457613ba3614799565b5b6000613bb28482850161342d565b91505092915050565b600060208284031215613bd157613bd0614799565b5b6000613bdf848285016134f4565b91505092915050565b60008060408385031215613bff57613bfe614799565b5b6000613c0d858286016134f4565b9250506020613c1e858286016132ff565b9150509250929050565b60008060408385031215613c3f57613c3e614799565b5b6000613c4d858286016134f4565b9250506020613c5e85828601613314565b9150509250929050565b60008060408385031215613c7f57613c7e614799565b5b6000613c8d858286016134f4565b9250506020613c9e85828601613403565b9150509250929050565b600080600060408486031215613cc157613cc0614799565b5b6000613ccf868287016134f4565b935050602084013567ffffffffffffffff811115613cf057613cef614794565b5b613cfc86828701613470565b92509250509250925092565b6000613d148383613fa5565b60208301905092915050565b613d29816144ff565b82525050565b613d38816144ed565b82525050565b6000613d49826143b9565b613d5381856143dc565b9350613d5e836143a9565b8060005b83811015613d8f578151613d768882613d08565b9750613d81836143cf565b925050600181019050613d62565b5085935050505092915050565b613da581614511565b82525050565b613db48161451d565b82525050565b6000613dc5826143c4565b613dcf81856143ed565b9350613ddf81856020860161458c565b613de88161479e565b840191505092915050565b6000613dfe826143c4565b613e0881856143fe565b9350613e1881856020860161458c565b80840191505092915050565b6000613e316022836143ed565b9150613e3c826147af565b604082019050919050565b6000613e546020836143ed565b9150613e5f826147fe565b602082019050919050565b6000613e776014836143ed565b9150613e8282614827565b602082019050919050565b6000613e9a6026836143ed565b9150613ea582614850565b604082019050919050565b6000613ebd6010836143ed565b9150613ec88261489f565b602082019050919050565b6000613ee06020836143ed565b9150613eeb826148c8565b602082019050919050565b6000613f03603b836143ed565b9150613f0e826148f1565b604082019050919050565b6000613f266039836143ed565b9150613f3182614940565b604082019050919050565b6000613f496017836143fe565b9150613f548261498f565b601782019050919050565b6000613f6c6011836143fe565b9150613f77826149b8565b601182019050919050565b6000613f8f602f836143ed565b9150613f9a826149e1565b604082019050919050565b613fae81614573565b82525050565b613fbd81614573565b82525050565b6000613fce82613f3c565b9150613fda8285613df3565b9150613fe582613f5f565b9150613ff18284613df3565b91508190509392505050565b60006020820190506140126000830184613d2f565b92915050565b600060e08201905061402d600083018a613d20565b818103602083015261403f8189613dba565b905081810360408301526140538188613dba565b905081810360608301526140678187613dba565b90506140766080830186613d9c565b61408360a0830185613fb4565b61409060c0830184613fb4565b98975050505050505050565b600060208201905081810360008301526140b68184613d3e565b905092915050565b600060408201905081810360008301526140d88185613d3e565b905081810360208301526140ec8184613d3e565b90509392505050565b600060208201905061410a6000830184613d9c565b92915050565b60006020820190506141256000830184613dab565b92915050565b600060208201905081810360008301526141458184613dba565b905092915050565b6000602082019050818103600083015261416681613e24565b9050919050565b6000602082019050818103600083015261418681613e47565b9050919050565b600060208201905081810360008301526141a681613e6a565b9050919050565b600060208201905081810360008301526141c681613e8d565b9050919050565b600060208201905081810360008301526141e681613eb0565b9050919050565b6000602082019050818103600083015261420681613ed3565b9050919050565b6000602082019050818103600083015261422681613ef6565b9050919050565b6000602082019050818103600083015261424681613f19565b9050919050565b6000602082019050818103600083015261426681613f82565b9050919050565b60006020820190506142826000830184613fb4565b92915050565b600060608201905061429d6000830186613fb4565b81810360208301526142af8185613dba565b905081810360408301526142c38184613dba565b9050949350505050565b60006040820190506142e26000830185613fb4565b6142ef6020830184613fb4565b9392505050565b6000614300614311565b905061430c828261461b565b919050565b6000604051905090565b600067ffffffffffffffff82111561433657614335614751565b5b602082029050602081019050919050565b600067ffffffffffffffff82111561436257614361614751565b5b61436b8261479e565b9050602081019050919050565b600067ffffffffffffffff82111561439357614392614751565b5b61439c8261479e565b9050602081019050919050565b6000819050602082019050919050565b600081519050919050565b600081519050919050565b6000602082019050919050565b600082825260208201905092915050565b600082825260208201905092915050565b600081905092915050565b600061441482614573565b915061441f83614573565b9250827fffffffffffffffffffffffffffffffffffffffffffffffffffffffffffffffff0382111561445457614453614695565b5b828201905092915050565b600061446a82614573565b915061447583614573565b9250817fffffffffffffffffffffffffffffffffffffffffffffffffffffffffffffffff04831182151516156144ae576144ad614695565b5b828202905092915050565b60006144c482614573565b91506144cf83614573565b9250828210156144e2576144e1614695565b5b828203905092915050565b60006144f882614553565b9050919050565b600061450a82614553565b9050919050565b60008115159050919050565b6000819050919050565b60007fffffffff0000000000000000000000000000000000000000000000000000000082169050919050565b600073ffffffffffffffffffffffffffffffffffffffff82169050919050565b6000819050919050565b82818337600083830152505050565b60005b838110156145aa57808201518184015260208101905061458f565b838111156145b9576000848401525b50505050565b60006145ca82614573565b915060008214156145de576145dd614695565b5b600182039050919050565b6000600282049050600182168061460157607f821691505b60208210811415614615576146146146c4565b5b50919050565b6146248261479e565b810181811067ffffffffffffffff8211171561464357614642614751565b5b80604052505050565b600061465782614573565b91507fffffffffffffffffffffffffffffffffffffffffffffffffffffffffffffffff82141561468a57614689614695565b5b600182019050919050565b7f4e487b7100000000000000000000000000000000000000000000000000000000600052601160045260246000fd5b7f4e487b7100000000000000000000000000000000000000000000000000000000600052602260045260246000fd5b7f4e487b7100000000000000000000000000000000000000000000000000000000600052603160045260246000fd5b7f4e487b7100000000000000000000000000000000000000000000000000000000600052603260045260246000fd5b7f4e487b7100000000000000000000000000000000000000000000000000000000600052604160045260246000fd5b600080fd5b600080fd5b600080fd5b600080fd5b600080fd5b600080fd5b6000601f19601f8301169050919050565b7f456e756d657261626c655365743a20696e646578206f7574206f6620626f756e60008201527f6473000000000000000000000000000000000000000000000000000000000000602082015250565b7f537472696e67733a20686578206c656e67746820696e73756666696369656e74600082015250565b7f5061757361626c653a206e6f7420706175736564000000000000000000000000600082015250565b7f4f776e61626c653a206e6577206f776e657220697320746865207a65726f206160008201527f6464726573730000000000000000000000000000000000000000000000000000602082015250565b7f5061757361626c653a2070617573656400000000000000000000000000000000600082015250565b7f4f776e61626c653a2063616c6c6572206973206e6f7420746865206f776e6572600082015250565b7f455243313135355072657365744d696e7465725061757365723a206d7573742060008201527f686176652070617573657220726f6c6520746f20756e70617573650000000000602082015250565b7f455243313135355072657365744d696e7465725061757365723a206d7573742060008201527f686176652070617573657220726f6c6520746f20706175736500000000000000602082015250565b7f416363657373436f6e74726f6c3a206163636f756e7420000000000000000000600082015250565b7f206973206d697373696e6720726f6c6520000000000000000000000000000000600082015250565b7f416363657373436f6e74726f6c3a2063616e206f6e6c792072656e6f756e636560008201527f20726f6c657320666f722073656c660000000000000000000000000000000000602082015250565b614a39816144ed565b8114614a4457600080fd5b50565b614a50816144ff565b8114614a5b57600080fd5b50565b614a6781614511565b8114614a7257600080fd5b50565b614a7e8161451d565b8114614a8957600080fd5b50565b614a9581614527565b8114614aa057600080fd5b50565b614aac81614573565b8114614ab757600080fd5b5056fea264697066735822122092eaa50f789021aaadba05e4aaa367446c3395c3d38fb969ecfd34a2446af57264736f6c63430008060033",
  "immutableReferences": {},
  "source": "// SPDX-License-Identifier: MIT\npragma solidity ^0.8.0;\n\nimport \"./creatortokenhelper.sol\";\nimport \"@openzeppelin/contracts/token/ERC1155/presets/ERC1155PresetMinterPauser.sol\";\n\ncontract CreatorTokenOwnership is CreatorTokenHelper, ERC1155PresetMinterPauser {\n\n\tconstructor(string memory uri) ERC1155PresetMinterPauser(uri) { }\n\n\t// Mint a token\n\tfunction mint(address _to, uint256 _id, uint256 _amount, bytes memory _data) public override {\n\t\t// Update tokenHoldership mapping\n\t\ttokenHoldership[_id][_to] += _amount;\n\t\t// Increase token amount outstanding\n\t\tcreatorTokens[_id].outstanding += _amount;\n\t\t// Do I also need to transfer the actual tokens to the user?\n\t\t// Emit single transfer event\n\t\temit TransferSingle(msg.sender, address(0), _to, _id, _amount);\n\t}\n\n\t// Mint a batch of tokens\n\tfunction mintBatch(address _to, uint256[] memory _ids, uint256[] memory _amounts, bytes memory data) public override {\n\t\t// Iterate through _ids\n\t\tfor (uint256 i=0; i<_ids.length; i++) {\n\t\t\t// Update tokenHoldership mapping\n\t\t\ttokenHoldership[_ids[i]][_to] += _amounts[i];\n\t\t\t// Increase token amount outstanding\n\t\t\tcreatorTokens[_ids[i]].outstanding += _amounts[i];\n\t\t}\n\t\t// Do I also need to transfer the actual tokens to the user?\n\t\t// Emit batch transfer event\n\t\temit TransferBatch(msg.sender, address(0), _to, _ids, _amounts);\n\t}\n\n\t// Burn a token\n\tfunction burn(address _account, uint256 _id, uint256 _amount) public override {\n\t\t// Update tokenHoldership mapping\n\t\ttokenHoldership[_id][_account] -= _amount;\n\t\t// Decrease token amount outstanding\n\t\tcreatorTokens[_id].outstanding -= _amount;\n\t\t// Do I also need to transfer the actual tokens to from user to address(0)?\n\t\t// Emit single transfer event\n\t\temit TransferSingle(msg.sender, _account, address(0), _id, _amount);\n\t}\n\n\t// Burn a batch of tokens\n\tfunction burnBatch(address _account, uint256[] memory _ids, uint256[] memory _amounts) public override {\n\t\t// Iterate through _ids\n\t\tfor (uint256 i=0; i<_ids.length; i++) {\n\t\t\t// Update tokenHoldership mapping\n\t\t\ttokenHoldership[_ids[i]][_account] -= _amounts[i];\n\t\t\t// Decrease token amount outstanding\n\t\t\tcreatorTokens[_ids[i]].outstanding -= _amounts[i];\n\t\t}\n\t\t// Do I also need to transfer the actual tokens to from user to address(0)?\n\t\t// Emit batch transfer event\n\t\temit TransferBatch(msg.sender, _account, address(0), _ids, _amounts);\n\t}\n\n\t// Transfer a token\n\tfunction safeTransferFrom(address _from, address _to, uint256 _id, uint256 _amount, bytes memory _data) public override {\n\t\t// Reduce tokenHoldership holdings of _from\n\t\ttokenHoldership[_id][_from] -= _amount;\n\t\t// Increase tokenHoldership holdings of _to\n\t\ttokenHoldership[_id][_to] += _amount;\n\t\t// Do I also need to transfer the actual tokens from _from to _to?\n\t\t// Emit single transfer event\n\t\temit TransferSingle(msg.sender, _from, _to, _id, _amount);\n\t}\n\n\t// Transfer a batch of tokens\n\tfunction safeBatchTransferFrom(address _from, address _to, uint256[] memory _ids, uint256[] memory _amounts, bytes memory data) public override {\n\t\t// Iterate through _ids\n\t\tfor (uint256 i=0; i<_ids.length; i++) {\n\t\t\t// Reduce tokenHoldership holdings of _from\n\t\t\ttokenHoldership[_ids[i]][_from] -= _amounts[i];\n\t\t\t// Increase tokenHoldership holdings of _to\n\t\t\ttokenHoldership[_ids[i]][_to] += _amounts[i];\n\t\t}\n\t\t// Do I also need to transfer the actual tokens from _from to _to?\n\t\t// Emit batch transfer event\n\t\temit TransferBatch(msg.sender, _from, _to, _ids, _amounts);\n\t}\n\n\t// Return balance of a given token at a given address\n\tfunction balanceOf(address _account, uint256 _id) public view override returns (uint256) {\n\t\t// Look up _account's holdings of _id in tokenHoldership\n\t\treturn tokenHoldership[_id][_account];\n\t}\n\n\t// Return balance of a batch of tokens\n\tfunction balanceOfBatch(address[] calldata _accounts, uint256[] calldata _ids) public view override returns (uint256[] memory) {\n\t\t// Initialize output array\n\t\tuint256[] memory batchBalances = new uint256[](_accounts.length);\n\t\t// Iterate through _accounts\n\t\tfor (uint256 i = 0; i < _accounts.length; i++) {\n\t\t\t// Look up _account's holdings of _id in tokenHoldership\n\t\t\tbatchBalances[i] = tokenHoldership[_ids[i]][_accounts[i]];\n\t\t}\n\t\t// Return output array\n\t\treturn batchBalances;\n\t}\n\n\t// Give operator permission to transfer caller's tokens\n\tfunction setApprovalForAll(address _operator, bool _approved) public override {\n\t\t// Update approvals mapping\n\t\tapprovals[msg.sender][_operator] = _approved;\n\t\t// Emit Approval event\n\t\temit ApprovalForAll(msg.sender, _operator, _approved);\n\t}\n\n\t// Denotes whether operator is approved to transfer accounts' tokens\n\tfunction isApprovedForAll(address _account, address _operator) public view override returns (bool) {\n\t\t// Look up approvals mapping\n\t\treturn approvals[_account][_operator];\n\t}\n}\n\n\n\n\n\n\n\n",
  "sourcePath": "/Users/kamilalizaisadik/DeFi/Dynamic Automated Market Maker/damm_solidity/contracts/creatortokenownership.sol",
  "compiler": {
    "name": "solc",
    "version": "0.8.6+commit.11564f7e.Emscripten.clang"
  },
  "schemaVersion": "3.4.1",
  "updatedAt": "2021-06-23T01:03:01.033Z",
  "devdoc": {
    "kind": "dev",
    "methods": {
      "getRoleAdmin(bytes32)": {
        "details": "Returns the admin role that controls `role`. See {grantRole} and {revokeRole}. To change a role's admin, use {_setRoleAdmin}."
      },
      "getRoleMember(bytes32,uint256)": {
        "details": "Returns one of the accounts that have `role`. `index` must be a value between 0 and {getRoleMemberCount}, non-inclusive. Role bearers are not sorted in any particular way, and their ordering may change at any point. WARNING: When using {getRoleMember} and {getRoleMemberCount}, make sure you perform all queries on the same block. See the following https://forum.openzeppelin.com/t/iterating-over-elements-on-enumerableset-in-openzeppelin-contracts/2296[forum post] for more information."
      },
      "getRoleMemberCount(bytes32)": {
        "details": "Returns the number of accounts that have `role`. Can be used together with {getRoleMember} to enumerate all bearers of a role."
      },
      "grantRole(bytes32,address)": {
        "details": "Overload {grantRole} to track enumerable memberships"
      },
      "hasRole(bytes32,address)": {
        "details": "Returns `true` if `account` has been granted `role`."
      },
      "owner()": {
        "details": "Returns the address of the current owner."
      },
      "pause()": {
        "details": "Pauses all token transfers. See {ERC1155Pausable} and {Pausable-_pause}. Requirements: - the caller must have the `PAUSER_ROLE`."
      },
      "paused()": {
        "details": "Returns true if the contract is paused, and false otherwise."
      },
      "renounceOwnership()": {
        "details": "Leaves the contract without owner. It will not be possible to call `onlyOwner` functions anymore. Can only be called by the current owner. NOTE: Renouncing ownership will leave the contract without an owner, thereby removing any functionality that is only available to the owner."
      },
      "renounceRole(bytes32,address)": {
        "details": "Overload {renounceRole} to track enumerable memberships"
      },
      "revokeRole(bytes32,address)": {
        "details": "Overload {revokeRole} to track enumerable memberships"
      },
      "supportsInterface(bytes4)": {
        "details": "See {IERC165-supportsInterface}."
      },
      "transferOwnership(address)": {
        "details": "Transfers ownership of the contract to a new account (`newOwner`). Can only be called by the current owner."
      },
      "unpause()": {
        "details": "Unpauses all token transfers. See {ERC1155Pausable} and {Pausable-_unpause}. Requirements: - the caller must have the `PAUSER_ROLE`."
      },
      "uri(uint256)": {
        "details": "See {IERC1155MetadataURI-uri}. This implementation returns the same URI for *all* token types. It relies on the token type ID substitution mechanism https://eips.ethereum.org/EIPS/eip-1155#metadata[defined in the EIP]. Clients calling this function must replace the `\\{id\\}` substring with the actual token type ID."
      }
    },
    "version": 1
  },
  "userdoc": {
    "kind": "user",
    "methods": {},
    "version": 1
  }
}