{
  "contractName": "CreatorTokenFees",
  "abi": [
    {
      "inputs": [
        {
          "internalType": "string",
          "name": "uri",
          "type": "string"
        }
      ],
      "stateMutability": "nonpayable",
      "type": "constructor"
    },
    {
      "anonymous": false,
      "inputs": [
        {
          "indexed": true,
          "internalType": "address",
          "name": "account",
          "type": "address"
        },
        {
          "indexed": true,
          "internalType": "address",
          "name": "operator",
          "type": "address"
        },
        {
          "indexed": false,
          "internalType": "bool",
          "name": "approved",
          "type": "bool"
        }
      ],
      "name": "ApprovalForAll",
      "type": "event"
    },
    {
      "anonymous": false,
      "inputs": [
        {
          "indexed": false,
          "internalType": "uint256",
          "name": "tokenId",
          "type": "uint256"
        },
        {
          "indexed": false,
          "internalType": "address payable",
          "name": "creatorAddress",
          "type": "address"
        },
        {
          "indexed": false,
          "internalType": "string",
          "name": "name",
          "type": "string"
        },
        {
          "indexed": false,
          "internalType": "string",
          "name": "symbol",
          "type": "string"
        },
        {
          "indexed": false,
          "internalType": "string",
          "name": "description",
          "type": "string"
        },
        {
          "indexed": false,
          "internalType": "bool",
          "name": "verified",
          "type": "bool"
        },
        {
          "indexed": false,
          "internalType": "uint256",
          "name": "outstanding",
          "type": "uint256"
        },
        {
          "indexed": false,
          "internalType": "uint256",
          "name": "maxSupply",
          "type": "uint256"
        }
      ],
      "name": "NewCreatorToken",
      "type": "event"
    },
    {
      "anonymous": false,
      "inputs": [
        {
          "indexed": true,
          "internalType": "address",
          "name": "previousOwner",
          "type": "address"
        },
        {
          "indexed": true,
          "internalType": "address",
          "name": "newOwner",
          "type": "address"
        }
      ],
      "name": "OwnershipTransferred",
      "type": "event"
    },
    {
      "anonymous": false,
      "inputs": [
        {
          "indexed": false,
          "internalType": "address",
          "name": "account",
          "type": "address"
        }
      ],
      "name": "Paused",
      "type": "event"
    },
    {
      "anonymous": false,
      "inputs": [
        {
          "indexed": true,
          "internalType": "bytes32",
          "name": "role",
          "type": "bytes32"
        },
        {
          "indexed": true,
          "internalType": "bytes32",
          "name": "previousAdminRole",
          "type": "bytes32"
        },
        {
          "indexed": true,
          "internalType": "bytes32",
          "name": "newAdminRole",
          "type": "bytes32"
        }
      ],
      "name": "RoleAdminChanged",
      "type": "event"
    },
    {
      "anonymous": false,
      "inputs": [
        {
          "indexed": true,
          "internalType": "bytes32",
          "name": "role",
          "type": "bytes32"
        },
        {
          "indexed": true,
          "internalType": "address",
          "name": "account",
          "type": "address"
        },
        {
          "indexed": true,
          "internalType": "address",
          "name": "sender",
          "type": "address"
        }
      ],
      "name": "RoleGranted",
      "type": "event"
    },
    {
      "anonymous": false,
      "inputs": [
        {
          "indexed": true,
          "internalType": "bytes32",
          "name": "role",
          "type": "bytes32"
        },
        {
          "indexed": true,
          "internalType": "address",
          "name": "account",
          "type": "address"
        },
        {
          "indexed": true,
          "internalType": "address",
          "name": "sender",
          "type": "address"
        }
      ],
      "name": "RoleRevoked",
      "type": "event"
    },
    {
      "anonymous": false,
      "inputs": [
        {
          "indexed": true,
          "internalType": "address",
          "name": "operator",
          "type": "address"
        },
        {
          "indexed": true,
          "internalType": "address",
          "name": "from",
          "type": "address"
        },
        {
          "indexed": true,
          "internalType": "address",
          "name": "to",
          "type": "address"
        },
        {
          "indexed": false,
          "internalType": "uint256[]",
          "name": "ids",
          "type": "uint256[]"
        },
        {
          "indexed": false,
          "internalType": "uint256[]",
          "name": "values",
          "type": "uint256[]"
        }
      ],
      "name": "TransferBatch",
      "type": "event"
    },
    {
      "anonymous": false,
      "inputs": [
        {
          "indexed": true,
          "internalType": "address",
          "name": "operator",
          "type": "address"
        },
        {
          "indexed": true,
          "internalType": "address",
          "name": "from",
          "type": "address"
        },
        {
          "indexed": true,
          "internalType": "address",
          "name": "to",
          "type": "address"
        },
        {
          "indexed": false,
          "internalType": "uint256",
          "name": "id",
          "type": "uint256"
        },
        {
          "indexed": false,
          "internalType": "uint256",
          "name": "value",
          "type": "uint256"
        }
      ],
      "name": "TransferSingle",
      "type": "event"
    },
    {
      "anonymous": false,
      "inputs": [
        {
          "indexed": false,
          "internalType": "string",
          "name": "value",
          "type": "string"
        },
        {
          "indexed": true,
          "internalType": "uint256",
          "name": "id",
          "type": "uint256"
        }
      ],
      "name": "URI",
      "type": "event"
    },
    {
      "anonymous": false,
      "inputs": [
        {
          "indexed": false,
          "internalType": "address",
          "name": "account",
          "type": "address"
        }
      ],
      "name": "Unpaused",
      "type": "event"
    },
    {
      "inputs": [],
      "name": "DEFAULT_ADMIN_ROLE",
      "outputs": [
        {
          "internalType": "bytes32",
          "name": "",
          "type": "bytes32"
        }
      ],
      "stateMutability": "view",
      "type": "function"
    },
    {
      "inputs": [],
      "name": "MINTER_ROLE",
      "outputs": [
        {
          "internalType": "bytes32",
          "name": "",
          "type": "bytes32"
        }
      ],
      "stateMutability": "view",
      "type": "function"
    },
    {
      "inputs": [],
      "name": "PAUSER_ROLE",
      "outputs": [
        {
          "internalType": "bytes32",
          "name": "",
          "type": "bytes32"
        }
      ],
      "stateMutability": "view",
      "type": "function"
    },
    {
      "inputs": [
        {
          "internalType": "address",
          "name": "account",
          "type": "address"
        },
        {
          "internalType": "uint256",
          "name": "id",
          "type": "uint256"
        }
      ],
      "name": "balanceOf",
      "outputs": [
        {
          "internalType": "uint256",
          "name": "",
          "type": "uint256"
        }
      ],
      "stateMutability": "view",
      "type": "function"
    },
    {
      "inputs": [
        {
          "internalType": "address[]",
          "name": "accounts",
          "type": "address[]"
        },
        {
          "internalType": "uint256[]",
          "name": "ids",
          "type": "uint256[]"
        }
      ],
      "name": "balanceOfBatch",
      "outputs": [
        {
          "internalType": "uint256[]",
          "name": "",
          "type": "uint256[]"
        }
      ],
      "stateMutability": "view",
      "type": "function"
    },
    {
      "inputs": [
        {
          "internalType": "address",
          "name": "_account",
          "type": "address"
        },
        {
          "internalType": "uint256",
          "name": "_id",
          "type": "uint256"
        },
        {
          "internalType": "uint256",
          "name": "_amount",
          "type": "uint256"
        }
      ],
      "name": "burn",
      "outputs": [],
      "stateMutability": "nonpayable",
      "type": "function"
    },
    {
      "inputs": [
        {
          "internalType": "address",
          "name": "_account",
          "type": "address"
        },
        {
          "internalType": "uint256[]",
          "name": "_ids",
          "type": "uint256[]"
        },
        {
          "internalType": "uint256[]",
          "name": "_amounts",
          "type": "uint256[]"
        }
      ],
      "name": "burnBatch",
      "outputs": [],
      "stateMutability": "nonpayable",
      "type": "function"
    },
    {
      "inputs": [
        {
          "internalType": "uint256",
          "name": "_tokenId",
          "type": "uint256"
        },
        {
          "internalType": "address payable",
          "name": "_newCreatorAddress",
          "type": "address"
        }
      ],
      "name": "changeAddress",
      "outputs": [],
      "stateMutability": "nonpayable",
      "type": "function"
    },
    {
      "inputs": [
        {
          "internalType": "uint256",
          "name": "_tokenId",
          "type": "uint256"
        },
        {
          "internalType": "string",
          "name": "_newDescription",
          "type": "string"
        }
      ],
      "name": "changeDescription",
      "outputs": [],
      "stateMutability": "nonpayable",
      "type": "function"
    },
    {
      "inputs": [
        {
          "internalType": "uint256",
          "name": "_tokenId",
          "type": "uint256"
        },
        {
          "internalType": "string",
          "name": "_newName",
          "type": "string"
        }
      ],
      "name": "changeName",
      "outputs": [],
      "stateMutability": "nonpayable",
      "type": "function"
    },
    {
      "inputs": [
        {
          "internalType": "uint256",
          "name": "_newPlatformFee",
          "type": "uint256"
        }
      ],
      "name": "changePlatformFee",
      "outputs": [],
      "stateMutability": "nonpayable",
      "type": "function"
    },
    {
      "inputs": [
        {
          "internalType": "uint256",
          "name": "_newProfitMargin",
          "type": "uint256"
        }
      ],
      "name": "changeProfitMargin",
      "outputs": [],
      "stateMutability": "nonpayable",
      "type": "function"
    },
    {
      "inputs": [
        {
          "internalType": "uint256",
          "name": "_tokenId",
          "type": "uint256"
        },
        {
          "internalType": "string",
          "name": "_newSymbol",
          "type": "string"
        }
      ],
      "name": "changeSymbol",
      "outputs": [],
      "stateMutability": "nonpayable",
      "type": "function"
    },
    {
      "inputs": [
        {
          "internalType": "uint256",
          "name": "_tokenId",
          "type": "uint256"
        },
        {
          "internalType": "bool",
          "name": "_verified",
          "type": "bool"
        }
      ],
      "name": "changeVerification",
      "outputs": [],
      "stateMutability": "nonpayable",
      "type": "function"
    },
    {
      "inputs": [
        {
          "internalType": "address payable",
          "name": "_creatorAddress",
          "type": "address"
        },
        {
          "internalType": "string",
          "name": "_name",
          "type": "string"
        },
        {
          "internalType": "string",
          "name": "_symbol",
          "type": "string"
        },
        {
          "internalType": "string",
          "name": "_description",
          "type": "string"
        }
      ],
      "name": "createCreatorToken",
      "outputs": [],
      "stateMutability": "nonpayable",
      "type": "function"
    },
    {
      "inputs": [
        {
          "internalType": "uint256",
          "name": "",
          "type": "uint256"
        }
      ],
      "name": "creatorTokens",
      "outputs": [
        {
          "internalType": "address payable",
          "name": "creatorAddress",
          "type": "address"
        },
        {
          "internalType": "string",
          "name": "name",
          "type": "string"
        },
        {
          "internalType": "string",
          "name": "symbol",
          "type": "string"
        },
        {
          "internalType": "string",
          "name": "description",
          "type": "string"
        },
        {
          "internalType": "bool",
          "name": "verified",
          "type": "bool"
        },
        {
          "internalType": "uint256",
          "name": "outstanding",
          "type": "uint256"
        },
        {
          "internalType": "uint256",
          "name": "maxSupply",
          "type": "uint256"
        }
      ],
      "stateMutability": "view",
      "type": "function"
    },
    {
      "inputs": [
        {
          "internalType": "bytes32",
          "name": "role",
          "type": "bytes32"
        }
      ],
      "name": "getRoleAdmin",
      "outputs": [
        {
          "internalType": "bytes32",
          "name": "",
          "type": "bytes32"
        }
      ],
      "stateMutability": "view",
      "type": "function"
    },
    {
      "inputs": [
        {
          "internalType": "bytes32",
          "name": "role",
          "type": "bytes32"
        },
        {
          "internalType": "uint256",
          "name": "index",
          "type": "uint256"
        }
      ],
      "name": "getRoleMember",
      "outputs": [
        {
          "internalType": "address",
          "name": "",
          "type": "address"
        }
      ],
      "stateMutability": "view",
      "type": "function"
    },
    {
      "inputs": [
        {
          "internalType": "bytes32",
          "name": "role",
          "type": "bytes32"
        }
      ],
      "name": "getRoleMemberCount",
      "outputs": [
        {
          "internalType": "uint256",
          "name": "",
          "type": "uint256"
        }
      ],
      "stateMutability": "view",
      "type": "function"
    },
    {
      "inputs": [
        {
          "internalType": "bytes32",
          "name": "role",
          "type": "bytes32"
        },
        {
          "internalType": "address",
          "name": "account",
          "type": "address"
        }
      ],
      "name": "grantRole",
      "outputs": [],
      "stateMutability": "nonpayable",
      "type": "function"
    },
    {
      "inputs": [
        {
          "internalType": "bytes32",
          "name": "role",
          "type": "bytes32"
        },
        {
          "internalType": "address",
          "name": "account",
          "type": "address"
        }
      ],
      "name": "hasRole",
      "outputs": [
        {
          "internalType": "bool",
          "name": "",
          "type": "bool"
        }
      ],
      "stateMutability": "view",
      "type": "function"
    },
    {
      "inputs": [
        {
          "internalType": "address",
          "name": "_account",
          "type": "address"
        },
        {
          "internalType": "address",
          "name": "_operator",
          "type": "address"
        }
      ],
      "name": "isApprovedForAll",
      "outputs": [
        {
          "internalType": "bool",
          "name": "",
          "type": "bool"
        }
      ],
      "stateMutability": "view",
      "type": "function"
    },
    {
      "inputs": [
        {
          "internalType": "address",
          "name": "_account",
          "type": "address"
        },
        {
          "internalType": "uint256",
          "name": "_id",
          "type": "uint256"
        },
        {
          "internalType": "uint256",
          "name": "_amount",
          "type": "uint256"
        }
      ],
      "name": "mappingDecrease",
      "outputs": [],
      "stateMutability": "nonpayable",
      "type": "function"
    },
    {
      "inputs": [
        {
          "internalType": "address",
          "name": "_account",
          "type": "address"
        },
        {
          "internalType": "uint256",
          "name": "_id",
          "type": "uint256"
        },
        {
          "internalType": "uint256",
          "name": "_amount",
          "type": "uint256"
        }
      ],
      "name": "mappingIncrease",
      "outputs": [],
      "stateMutability": "nonpayable",
      "type": "function"
    },
    {
      "inputs": [
        {
          "internalType": "address",
          "name": "_to",
          "type": "address"
        },
        {
          "internalType": "uint256",
          "name": "_id",
          "type": "uint256"
        },
        {
          "internalType": "uint256",
          "name": "_amount",
          "type": "uint256"
        },
        {
          "internalType": "bytes",
          "name": "_data",
          "type": "bytes"
        }
      ],
      "name": "mint",
      "outputs": [],
      "stateMutability": "nonpayable",
      "type": "function"
    },
    {
      "inputs": [
        {
          "internalType": "address",
          "name": "_to",
          "type": "address"
        },
        {
          "internalType": "uint256[]",
          "name": "_ids",
          "type": "uint256[]"
        },
        {
          "internalType": "uint256[]",
          "name": "_amounts",
          "type": "uint256[]"
        },
        {
          "internalType": "bytes",
          "name": "data",
          "type": "bytes"
        }
      ],
      "name": "mintBatch",
      "outputs": [],
      "stateMutability": "nonpayable",
      "type": "function"
    },
    {
      "inputs": [],
      "name": "owner",
      "outputs": [
        {
          "internalType": "address",
          "name": "",
          "type": "address"
        }
      ],
      "stateMutability": "view",
      "type": "function"
    },
    {
      "inputs": [],
      "name": "pause",
      "outputs": [],
      "stateMutability": "nonpayable",
      "type": "function"
    },
    {
      "inputs": [],
      "name": "paused",
      "outputs": [
        {
          "internalType": "bool",
          "name": "",
          "type": "bool"
        }
      ],
      "stateMutability": "view",
      "type": "function"
    },
    {
      "inputs": [
        {
          "internalType": "address payable",
          "name": "_owner",
          "type": "address"
        }
      ],
      "name": "payoutPlatformFees",
      "outputs": [],
      "stateMutability": "nonpayable",
      "type": "function"
    },
    {
      "inputs": [],
      "name": "renounceOwnership",
      "outputs": [],
      "stateMutability": "nonpayable",
      "type": "function"
    },
    {
      "inputs": [
        {
          "internalType": "bytes32",
          "name": "role",
          "type": "bytes32"
        },
        {
          "internalType": "address",
          "name": "account",
          "type": "address"
        }
      ],
      "name": "renounceRole",
      "outputs": [],
      "stateMutability": "nonpayable",
      "type": "function"
    },
    {
      "inputs": [
        {
          "internalType": "bytes32",
          "name": "role",
          "type": "bytes32"
        },
        {
          "internalType": "address",
          "name": "account",
          "type": "address"
        }
      ],
      "name": "revokeRole",
      "outputs": [],
      "stateMutability": "nonpayable",
      "type": "function"
    },
    {
      "inputs": [
        {
          "internalType": "address",
          "name": "_from",
          "type": "address"
        },
        {
          "internalType": "address",
          "name": "_to",
          "type": "address"
        },
        {
          "internalType": "uint256[]",
          "name": "_ids",
          "type": "uint256[]"
        },
        {
          "internalType": "uint256[]",
          "name": "_amounts",
          "type": "uint256[]"
        },
        {
          "internalType": "bytes",
          "name": "data",
          "type": "bytes"
        }
      ],
      "name": "safeBatchTransferFrom",
      "outputs": [],
      "stateMutability": "nonpayable",
      "type": "function"
    },
    {
      "inputs": [
        {
          "internalType": "address",
          "name": "_from",
          "type": "address"
        },
        {
          "internalType": "address",
          "name": "_to",
          "type": "address"
        },
        {
          "internalType": "uint256",
          "name": "_id",
          "type": "uint256"
        },
        {
          "internalType": "uint256",
          "name": "_amount",
          "type": "uint256"
        },
        {
          "internalType": "bytes",
          "name": "_data",
          "type": "bytes"
        }
      ],
      "name": "safeTransferFrom",
      "outputs": [],
      "stateMutability": "nonpayable",
      "type": "function"
    },
    {
      "inputs": [
        {
          "internalType": "address",
          "name": "_operator",
          "type": "address"
        },
        {
          "internalType": "bool",
          "name": "_approved",
          "type": "bool"
        }
      ],
      "name": "setApprovalForAll",
      "outputs": [],
      "stateMutability": "nonpayable",
      "type": "function"
    },
    {
      "inputs": [
        {
          "internalType": "bytes4",
          "name": "interfaceId",
          "type": "bytes4"
        }
      ],
      "name": "supportsInterface",
      "outputs": [
        {
          "internalType": "bool",
          "name": "",
          "type": "bool"
        }
      ],
      "stateMutability": "view",
      "type": "function"
    },
    {
      "inputs": [
        {
          "internalType": "uint256",
          "name": "",
          "type": "uint256"
        },
        {
          "internalType": "address",
          "name": "",
          "type": "address"
        }
      ],
      "name": "tokenHoldership",
      "outputs": [
        {
          "internalType": "uint256",
          "name": "",
          "type": "uint256"
        }
      ],
      "stateMutability": "view",
      "type": "function"
    },
    {
      "inputs": [
        {
          "internalType": "uint256",
          "name": "",
          "type": "uint256"
        }
      ],
      "name": "tokenToCreator",
      "outputs": [
        {
          "internalType": "address",
          "name": "",
          "type": "address"
        }
      ],
      "stateMutability": "view",
      "type": "function"
    },
    {
      "inputs": [
        {
          "internalType": "address",
          "name": "newOwner",
          "type": "address"
        }
      ],
      "name": "transferOwnership",
      "outputs": [],
      "stateMutability": "nonpayable",
      "type": "function"
    },
    {
      "inputs": [],
      "name": "unpause",
      "outputs": [],
      "stateMutability": "nonpayable",
      "type": "function"
    },
    {
      "inputs": [
        {
          "internalType": "uint256",
          "name": "",
          "type": "uint256"
        }
      ],
      "name": "uri",
      "outputs": [
        {
          "internalType": "string",
          "name": "",
          "type": "string"
        }
      ],
      "stateMutability": "view",
      "type": "function"
    },
    {
      "inputs": [
        {
          "internalType": "address",
          "name": "",
          "type": "address"
        },
        {
          "internalType": "uint256",
          "name": "",
          "type": "uint256"
        }
      ],
      "name": "userToHoldings",
      "outputs": [
        {
          "internalType": "uint256",
          "name": "",
          "type": "uint256"
        }
      ],
      "stateMutability": "view",
      "type": "function"
    },
    {
      "inputs": [
        {
          "internalType": "address payable",
          "name": "_owner",
          "type": "address"
        }
      ],
      "name": "withdraw",
      "outputs": [],
      "stateMutability": "nonpayable",
      "type": "function"
    },
    {
      "inputs": [
        {
          "internalType": "uint256",
          "name": "_proceedsRequired",
          "type": "uint256"
        }
      ],
      "name": "_feeProceeds",
      "outputs": [
        {
          "internalType": "uint256",
          "name": "",
          "type": "uint256"
        }
      ],
      "stateMutability": "view",
      "type": "function"
    }
  ],
  "bytecode": "0x60806040526001805560006002556000600355601460045565082f79cd900060055560b96006553480156200003357600080fd5b5060405162005581380380620055818339818101604052810190620000599190620005cc565b8080808060006200006f620001ea60201b60201c565b9050806000806101000a81548173ffffffffffffffffffffffffffffffffffffffff021916908373ffffffffffffffffffffffffffffffffffffffff1602179055508073ffffffffffffffffffffffffffffffffffffffff16600073ffffffffffffffffffffffffffffffffffffffff167f8be0079c531659141344cd1fd0a4f28419497f9722a3daafe3b4186f6b6457e060405160405180910390a3506200011e81620001f260201b60201c565b506000601260006101000a81548160ff0219169083151502179055506200015e6000801b62000152620001ea60201b60201c565b6200020e60201b60201c565b6200019f7f9f2df0fed2c77648de5860a4cc508cd0818c85b8b8a1ab4ceeef8d981c8956a662000193620001ea60201b60201c565b6200020e60201b60201c565b620001e07f65d7a28e3265b37a6474929f336521b332c1681b933f6cb9f3376673440d862a620001d4620001ea60201b60201c565b6200020e60201b60201c565b50505050620007a1565b600033905090565b80601190805190602001906200020a9291906200049e565b5050565b6200022582826200025660201b620025fb1760201c565b6200025181600e60008581526020019081526020016000206200026c60201b620026091790919060201c565b505050565b620002688282620002a460201b60201c565b5050565b60006200029c836000018373ffffffffffffffffffffffffffffffffffffffff1660001b6200039660201b60201c565b905092915050565b620002b682826200041060201b60201c565b62000392576001600d600084815260200190815260200160002060000160008373ffffffffffffffffffffffffffffffffffffffff1673ffffffffffffffffffffffffffffffffffffffff16815260200190815260200160002060006101000a81548160ff02191690831515021790555062000337620001ea60201b60201c565b73ffffffffffffffffffffffffffffffffffffffff168173ffffffffffffffffffffffffffffffffffffffff16837f2f8788117e7eff1d82e926ec794901d17c78024a50270940304540a733656f0d60405160405180910390a45b5050565b6000620003aa83836200047b60201b60201c565b620004055782600001829080600181540180825580915050600190039060005260206000200160009091909190915055826000018054905083600101600084815260200190815260200160002081905550600190506200040a565b600090505b92915050565b6000600d600084815260200190815260200160002060000160008373ffffffffffffffffffffffffffffffffffffffff1673ffffffffffffffffffffffffffffffffffffffff16815260200190815260200160002060009054906101000a900460ff16905092915050565b600080836001016000848152602001908152602001600020541415905092915050565b828054620004ac90620006b2565b90600052602060002090601f016020900481019282620004d057600085556200051c565b82601f10620004eb57805160ff19168380011785556200051c565b828001600101855582156200051c579182015b828111156200051b578251825591602001919060010190620004fe565b5b5090506200052b91906200052f565b5090565b5b808211156200054a57600081600090555060010162000530565b5090565b6000620005656200055f8462000646565b6200061d565b90508281526020810184848401111562000584576200058362000781565b5b620005918482856200067c565b509392505050565b600082601f830112620005b157620005b06200077c565b5b8151620005c38482602086016200054e565b91505092915050565b600060208284031215620005e557620005e46200078b565b5b600082015167ffffffffffffffff81111562000606576200060562000786565b5b620006148482850162000599565b91505092915050565b6000620006296200063c565b9050620006378282620006e8565b919050565b6000604051905090565b600067ffffffffffffffff8211156200066457620006636200074d565b5b6200066f8262000790565b9050602081019050919050565b60005b838110156200069c5780820151818401526020810190506200067f565b83811115620006ac576000848401525b50505050565b60006002820490506001821680620006cb57607f821691505b60208210811415620006e257620006e16200071e565b5b50919050565b620006f38262000790565b810181811067ffffffffffffffff821117156200071557620007146200074d565b5b80604052505050565b7f4e487b7100000000000000000000000000000000000000000000000000000000600052602260045260246000fd5b7f4e487b7100000000000000000000000000000000000000000000000000000000600052604160045260246000fd5b600080fd5b600080fd5b600080fd5b600080fd5b6000601f19601f8301169050919050565b614dd080620007b16000396000f3fe608060405234801561001057600080fd5b506004361061027e5760003560e01c806391d148541161015c578063d547741f116100ce578063eb84175911610087578063eb841759146107b9578063f242432a146107d5578063f2fde38b146107f1578063f5298aca1461080d578063f56e71b414610829578063f7374e2e146108455761027e565b8063d547741f146106fb578063d56b72c714610717578063d7a5791a14610733578063de6a06ed1461074f578063e63ab1e91461076b578063e985e9c5146107895761027e565b8063bfb48c9c11610120578063bfb48c9c1461060f578063c39cbef11461063f578063c539c3171461065b578063ca15c87314610677578063ce901d8a146106a7578063d5391393146106dd5761027e565b806391d148541461054557806392724afa14610575578063a217fddf146105a5578063a22cb465146105c3578063ba111a05146105df5761027e565b80633f4ba83a116101f55780636b20c454116101b95780636b20c454146104ab578063715018a6146104c7578063731133e9146104d15780638456cb59146104ed5780638da5cb5b146104f75780639010d07c146105155761027e565b80633f4ba83a1461041b5780634e1273f41461042557806351cff8d9146104555780635c975abb146104715780635d4222cd1461048f5761027e565b80631d5ad18b116102475780631d5ad18b1461035f5780631f7fdffa1461037b578063248a9ca3146103975780632eb2c2d6146103c75780632f2ff15d146103e357806336568abe146103ff5761027e565b8062fdd58e1461028357806301ffc9a7146102b357806306e320f5146102e35780630e89341c146102ff57806318892ae81461032f575b600080fd5b61029d60048036038101906102989190613a14565b610861565b6040516102aa91906143c3565b60405180910390f35b6102cd60048036038101906102c89190613c4f565b61092b565b6040516102da919061420b565b60405180910390f35b6102fd60048036038101906102f89190613d69565b61093d565b005b61031960048036038101906103149190613c7c565b6109e4565b6040516103269190614241565b60405180910390f35b61034960048036038101906103449190613c7c565b610a78565b6040516103569190614113565b60405180910390f35b61037960048036038101906103749190613ce9565b610aab565b005b61039560048036038101906103909190613919565b610b80565b005b6103b160048036038101906103ac9190613ba2565b610cd4565b6040516103be9190614226565b60405180910390f35b6103e160048036038101906103dc9190613728565b610cf4565b005b6103fd60048036038101906103f89190613bcf565b610e60565b005b61041960048036038101906104149190613bcf565b610e94565b005b610423610ec8565b005b61043f600480360381019061043a9190613b2a565b610f42565b60405161044c91906141b2565b60405180910390f35b61046f600480360381019061046a9190613600565b61105b565b005b610479611121565b604051610486919061420b565b60405180910390f35b6104a960048036038101906104a49190613a54565b611138565b005b6104c560048036038101906104c0919061388e565b61120b565b005b6104cf611396565b005b6104eb60048036038101906104e69190613aa7565b6114d0565b005b6104f561159c565b005b6104ff611616565b60405161050c9190614113565b60405180910390f35b61052f600480360381019061052a9190613c0f565b61163f565b60405161053c9190614113565b60405180910390f35b61055f600480360381019061055a9190613bcf565b61166e565b60405161056c919061420b565b60405180910390f35b61058f600480360381019061058a9190613a14565b6116d9565b60405161059c91906143c3565b60405180910390f35b6105ad6116fe565b6040516105ba9190614226565b60405180910390f35b6105dd60048036038101906105d891906139d4565b611705565b005b6105f960048036038101906105f49190613c7c565b611802565b60405161060691906143c3565b60405180910390f35b61062960048036038101906106249190613ca9565b611825565b60405161063691906143c3565b60405180910390f35b61065960048036038101906106549190613d69565b61184a565b005b61067560048036038101906106709190613c7c565b6118f1565b005b610691600480360381019061068c9190613ba2565b611977565b60405161069e91906143c3565b60405180910390f35b6106c160048036038101906106bc9190613c7c565b61199b565b6040516106d4979695949392919061412e565b60405180910390f35b6106e5611bb2565b6040516106f29190614226565b60405180910390f35b61071560048036038101906107109190613bcf565b611bd6565b005b610731600480360381019061072c919061362d565b611c0a565b005b61074d60048036038101906107489190613c7c565b611e26565b005b61076960048036038101906107649190613d69565b611eac565b005b610773611f53565b6040516107809190614226565b60405180910390f35b6107a3600480360381019061079e91906136e8565b611f77565b6040516107b0919061420b565b60405180910390f35b6107d360048036038101906107ce9190613600565b61200b565b005b6107ef60048036038101906107ea91906137f7565b6120db565b005b61080b600480360381019061080691906135d3565b6121bf565b005b61082760048036038101906108229190613a54565b612368565b005b610843600480360381019061083e9190613a54565b61246b565b005b61085f600480360381019061085a9190613d29565b61253e565b005b60008073ffffffffffffffffffffffffffffffffffffffff168373ffffffffffffffffffffffffffffffffffffffff1614156108d2576040517f08c379a00000000000000000000000000000000000000000000000000000000081526004016108c9906142c3565b60405180910390fd5b600f600083815260200190815260200160002060008473ffffffffffffffffffffffffffffffffffffffff1673ffffffffffffffffffffffffffffffffffffffff16815260200190815260200160002054905092915050565b600061093682612639565b9050919050565b826008600082815260200190815260200160002060009054906101000a900473ffffffffffffffffffffffffffffffffffffffff1673ffffffffffffffffffffffffffffffffffffffff163373ffffffffffffffffffffffffffffffffffffffff16146109a957600080fd5b8282600786815481106109bf576109be614964565b5b906000526020600020906007020160020191906109dd9291906131ba565b5050505050565b6060601180546109f3906147fc565b80601f0160208091040260200160405190810160405280929190818152602001828054610a1f906147fc565b8015610a6c5780601f10610a4157610100808354040283529160200191610a6c565b820191906000526020600020905b815481529060010190602001808311610a4f57829003601f168201915b50505050509050919050565b60086020528060005260406000206000915054906101000a900473ffffffffffffffffffffffffffffffffffffffff1681565b816008600082815260200190815260200160002060009054906101000a900473ffffffffffffffffffffffffffffffffffffffff1673ffffffffffffffffffffffffffffffffffffffff163373ffffffffffffffffffffffffffffffffffffffff1614610b1757600080fd5b8160078481548110610b2c57610b2b614964565b5b906000526020600020906007020160000160006101000a81548173ffffffffffffffffffffffffffffffffffffffff021916908373ffffffffffffffffffffffffffffffffffffffff160217905550505050565b60005b8351811015610c4e57610bcb85858381518110610ba357610ba2614964565b5b6020026020010151858481518110610bbe57610bbd614964565b5b6020026020010151611138565b828181518110610bde57610bdd614964565b5b60200260200101516007858381518110610bfb57610bfa614964565b5b602002602001015181548110610c1457610c13614964565b5b90600052602060002090600702016005016000828254610c3491906145d9565b925050819055508080610c469061485f565b915050610b83565b508373ffffffffffffffffffffffffffffffffffffffff16600073ffffffffffffffffffffffffffffffffffffffff163373ffffffffffffffffffffffffffffffffffffffff167f4a39dc06d4c0dbc64b70af90fd698a233a518aa5d07e595d983b8c0526c8f7fb8686604051610cc69291906141d4565b60405180910390a450505050565b6000600d6000838152602001908152602001600020600101549050919050565b60005b8351811015610dda578573ffffffffffffffffffffffffffffffffffffffff163373ffffffffffffffffffffffffffffffffffffffff161480610d405750610d3f8686611f77565b5b610d4957600080fd5b610d8886858381518110610d6057610d5f614964565b5b6020026020010151858481518110610d7b57610d7a614964565b5b602002602001015161246b565b610dc785858381518110610d9f57610d9e614964565b5b6020026020010151858481518110610dba57610db9614964565b5b6020026020010151611138565b8080610dd29061485f565b915050610cf7565b508373ffffffffffffffffffffffffffffffffffffffff168573ffffffffffffffffffffffffffffffffffffffff163373ffffffffffffffffffffffffffffffffffffffff167f4a39dc06d4c0dbc64b70af90fd698a233a518aa5d07e595d983b8c0526c8f7fb8686604051610e519291906141d4565b60405180910390a45050505050565b610e6a828261271b565b610e8f81600e600085815260200190815260200160002061260990919063ffffffff16565b505050565b610e9e8282612744565b610ec381600e60008581526020019081526020016000206127c790919063ffffffff16565b505050565b610ef97f65d7a28e3265b37a6474929f336521b332c1681b933f6cb9f3376673440d862a610ef46127f7565b61166e565b610f38576040517f08c379a0000000000000000000000000000000000000000000000000000000008152600401610f2f90614343565b60405180910390fd5b610f406127ff565b565b60608151835114610f88576040517f08c379a0000000000000000000000000000000000000000000000000000000008152600401610f7f90614383565b60405180910390fd5b6000835167ffffffffffffffff811115610fa557610fa4614993565b5b604051908082528060200260200182016040528015610fd35781602001602082028036833780820191505090505b50905060005b845181101561105057611020858281518110610ff857610ff7614964565b5b602002602001015185838151811061101357611012614964565b5b6020026020010151610861565b82828151811061103357611032614964565b5b602002602001018181525050806110499061485f565b9050610fd9565b508091505092915050565b6110636127f7565b73ffffffffffffffffffffffffffffffffffffffff16611081611616565b73ffffffffffffffffffffffffffffffffffffffff16146110d7576040517f08c379a00000000000000000000000000000000000000000000000000000000081526004016110ce90614323565b60405180910390fd5b8073ffffffffffffffffffffffffffffffffffffffff166108fc479081150290604051600060405180830381858888f1935050505015801561111d573d6000803e3d6000fd5b5050565b6000601260009054906101000a900460ff16905090565b80600a600084815260200190815260200160002060008573ffffffffffffffffffffffffffffffffffffffff1673ffffffffffffffffffffffffffffffffffffffff168152602001908152602001600020600082825461119891906145d9565b9250508190555080600b60008573ffffffffffffffffffffffffffffffffffffffff1673ffffffffffffffffffffffffffffffffffffffff168152602001908152602001600020600084815260200190815260200160002060008282546111ff91906145d9565b92505081905550505050565b8273ffffffffffffffffffffffffffffffffffffffff163373ffffffffffffffffffffffffffffffffffffffff161461124357600080fd5b60005b82518110156113115761128e8484838151811061126657611265614964565b5b602002602001015184848151811061128157611280614964565b5b602002602001015161246b565b8181815181106112a1576112a0614964565b5b602002602001015160078483815181106112be576112bd614964565b5b6020026020010151815481106112d7576112d6614964565b5b906000526020600020906007020160050160008282546112f791906146ba565b9250508190555080806113099061485f565b915050611246565b50600073ffffffffffffffffffffffffffffffffffffffff168373ffffffffffffffffffffffffffffffffffffffff163373ffffffffffffffffffffffffffffffffffffffff167f4a39dc06d4c0dbc64b70af90fd698a233a518aa5d07e595d983b8c0526c8f7fb85856040516113899291906141d4565b60405180910390a4505050565b61139e6127f7565b73ffffffffffffffffffffffffffffffffffffffff166113bc611616565b73ffffffffffffffffffffffffffffffffffffffff1614611412576040517f08c379a000000000000000000000000000000000000000000000000000000000815260040161140990614323565b60405180910390fd5b600073ffffffffffffffffffffffffffffffffffffffff1660008054906101000a900473ffffffffffffffffffffffffffffffffffffffff1673ffffffffffffffffffffffffffffffffffffffff167f8be0079c531659141344cd1fd0a4f28419497f9722a3daafe3b4186f6b6457e060405160405180910390a360008060006101000a81548173ffffffffffffffffffffffffffffffffffffffff021916908373ffffffffffffffffffffffffffffffffffffffff160217905550565b6114db848484611138565b81600784815481106114f0576114ef614964565b5b9060005260206000209060070201600501600082825461151091906145d9565b925050819055508373ffffffffffffffffffffffffffffffffffffffff16600073ffffffffffffffffffffffffffffffffffffffff163373ffffffffffffffffffffffffffffffffffffffff167fc3d58168c5ae7397731d063d5bbf3d657854427343f4c083240f7aacaa2d0f62868660405161158e929190614471565b60405180910390a450505050565b6115cd7f65d7a28e3265b37a6474929f336521b332c1681b933f6cb9f3376673440d862a6115c86127f7565b61166e565b61160c576040517f08c379a000000000000000000000000000000000000000000000000000000000815260040161160390614363565b60405180910390fd5b6116146128a1565b565b60008060009054906101000a900473ffffffffffffffffffffffffffffffffffffffff16905090565b600061166682600e600086815260200190815260200160002061294490919063ffffffff16565b905092915050565b6000600d600084815260200190815260200160002060000160008373ffffffffffffffffffffffffffffffffffffffff1673ffffffffffffffffffffffffffffffffffffffff16815260200190815260200160002060009054906101000a900460ff16905092915050565b600b602052816000526040600020602052806000526040600020600091509150505481565b6000801b81565b80600c60003373ffffffffffffffffffffffffffffffffffffffff1673ffffffffffffffffffffffffffffffffffffffff16815260200190815260200160002060008473ffffffffffffffffffffffffffffffffffffffff1673ffffffffffffffffffffffffffffffffffffffff16815260200190815260200160002060006101000a81548160ff0219169083151502179055508173ffffffffffffffffffffffffffffffffffffffff163373ffffffffffffffffffffffffffffffffffffffff167f17307eab39ab6107e8899845ad3d59bd9653f200f220920489ca2b5937696c31836040516117f6919061420b565b60405180910390a35050565b60006064600154836118149190614660565b61181e919061462f565b9050919050565b600a602052816000526040600020602052806000526040600020600091509150505481565b826008600082815260200190815260200160002060009054906101000a900473ffffffffffffffffffffffffffffffffffffffff1673ffffffffffffffffffffffffffffffffffffffff163373ffffffffffffffffffffffffffffffffffffffff16146118b657600080fd5b8282600786815481106118cc576118cb614964565b5b906000526020600020906007020160010191906118ea9291906131ba565b5050505050565b6118f96127f7565b73ffffffffffffffffffffffffffffffffffffffff16611917611616565b73ffffffffffffffffffffffffffffffffffffffff161461196d576040517f08c379a000000000000000000000000000000000000000000000000000000000815260040161196490614323565b60405180910390fd5b8060048190555050565b6000611994600e600084815260200190815260200160002061295e565b9050919050565b600781815481106119ab57600080fd5b90600052602060002090600702016000915090508060000160009054906101000a900473ffffffffffffffffffffffffffffffffffffffff16908060010180546119f4906147fc565b80601f0160208091040260200160405190810160405280929190818152602001828054611a20906147fc565b8015611a6d5780601f10611a4257610100808354040283529160200191611a6d565b820191906000526020600020905b815481529060010190602001808311611a5057829003601f168201915b505050505090806002018054611a82906147fc565b80601f0160208091040260200160405190810160405280929190818152602001828054611aae906147fc565b8015611afb5780601f10611ad057610100808354040283529160200191611afb565b820191906000526020600020905b815481529060010190602001808311611ade57829003601f168201915b505050505090806003018054611b10906147fc565b80601f0160208091040260200160405190810160405280929190818152602001828054611b3c906147fc565b8015611b895780601f10611b5e57610100808354040283529160200191611b89565b820191906000526020600020905b815481529060010190602001808311611b6c57829003601f168201915b5050505050908060040160009054906101000a900460ff16908060050154908060060154905087565b7f9f2df0fed2c77648de5860a4cc508cd0818c85b8b8a1ab4ceeef8d981c8956a681565b611be08282612973565b611c0581600e60008581526020019081526020016000206127c790919063ffffffff16565b505050565b60076040518060e001604052808673ffffffffffffffffffffffffffffffffffffffff168152602001858152602001848152602001838152602001600015158152602001600081526020016000815250908060018154018082558091505060019003906000526020600020906007020160009091909190915060008201518160000160006101000a81548173ffffffffffffffffffffffffffffffffffffffff021916908373ffffffffffffffffffffffffffffffffffffffff1602179055506020820151816001019080519060200190611ce6929190613240565b506040820151816002019080519060200190611d03929190613240565b506060820151816003019080519060200190611d20929190613240565b5060808201518160040160006101000a81548160ff02191690831515021790555060a0820151816005015560c08201518160060155505060006001600780549050611d6b91906146ba565b9050846008600083815260200190815260200160002060006101000a81548173ffffffffffffffffffffffffffffffffffffffff021916908373ffffffffffffffffffffffffffffffffffffffff160217905550600060096000838152602001908152602001600020819055507f3ef624c0f3fb7ad40b94c02078ea3e3a797dbfc21e921ee4bd2b8ad0ca6aa11381868686866000806000604051611e179897969594939291906143de565b60405180910390a15050505050565b611e2e6127f7565b73ffffffffffffffffffffffffffffffffffffffff16611e4c611616565b73ffffffffffffffffffffffffffffffffffffffff1614611ea2576040517f08c379a0000000000000000000000000000000000000000000000000000000008152600401611e9990614323565b60405180910390fd5b8060018190555050565b826008600082815260200190815260200160002060009054906101000a900473ffffffffffffffffffffffffffffffffffffffff1673ffffffffffffffffffffffffffffffffffffffff163373ffffffffffffffffffffffffffffffffffffffff1614611f1857600080fd5b828260078681548110611f2e57611f2d614964565b5b90600052602060002090600702016003019190611f4c9291906131ba565b5050505050565b7f65d7a28e3265b37a6474929f336521b332c1681b933f6cb9f3376673440d862a81565b6000600c60008473ffffffffffffffffffffffffffffffffffffffff1673ffffffffffffffffffffffffffffffffffffffff16815260200190815260200160002060008373ffffffffffffffffffffffffffffffffffffffff1673ffffffffffffffffffffffffffffffffffffffff16815260200190815260200160002060009054906101000a900460ff16905092915050565b6120136127f7565b73ffffffffffffffffffffffffffffffffffffffff16612031611616565b73ffffffffffffffffffffffffffffffffffffffff1614612087576040517f08c379a000000000000000000000000000000000000000000000000000000000815260040161207e90614323565b60405180910390fd5b8073ffffffffffffffffffffffffffffffffffffffff166108fc6003549081150290604051600060405180830381858888f193505050501580156120cf573d6000803e3d6000fd5b50600060038190555050565b8473ffffffffffffffffffffffffffffffffffffffff163373ffffffffffffffffffffffffffffffffffffffff16148061211b575061211a8585611f77565b5b61212457600080fd5b61212f85848461246b565b61213a848484611138565b8373ffffffffffffffffffffffffffffffffffffffff168573ffffffffffffffffffffffffffffffffffffffff163373ffffffffffffffffffffffffffffffffffffffff167fc3d58168c5ae7397731d063d5bbf3d657854427343f4c083240f7aacaa2d0f6286866040516121b0929190614471565b60405180910390a45050505050565b6121c76127f7565b73ffffffffffffffffffffffffffffffffffffffff166121e5611616565b73ffffffffffffffffffffffffffffffffffffffff161461223b576040517f08c379a000000000000000000000000000000000000000000000000000000000815260040161223290614323565b60405180910390fd5b600073ffffffffffffffffffffffffffffffffffffffff168173ffffffffffffffffffffffffffffffffffffffff1614156122ab576040517f08c379a00000000000000000000000000000000000000000000000000000000081526004016122a2906142e3565b60405180910390fd5b8073ffffffffffffffffffffffffffffffffffffffff1660008054906101000a900473ffffffffffffffffffffffffffffffffffffffff1673ffffffffffffffffffffffffffffffffffffffff167f8be0079c531659141344cd1fd0a4f28419497f9722a3daafe3b4186f6b6457e060405160405180910390a3806000806101000a81548173ffffffffffffffffffffffffffffffffffffffff021916908373ffffffffffffffffffffffffffffffffffffffff16021790555050565b8273ffffffffffffffffffffffffffffffffffffffff163373ffffffffffffffffffffffffffffffffffffffff16146123a057600080fd5b6123ab83838361246b565b80600783815481106123c0576123bf614964565b5b906000526020600020906007020160050160008282546123e091906146ba565b92505081905550600073ffffffffffffffffffffffffffffffffffffffff168373ffffffffffffffffffffffffffffffffffffffff163373ffffffffffffffffffffffffffffffffffffffff167fc3d58168c5ae7397731d063d5bbf3d657854427343f4c083240f7aacaa2d0f62858560405161245e929190614471565b60405180910390a4505050565b80600a600084815260200190815260200160002060008573ffffffffffffffffffffffffffffffffffffffff1673ffffffffffffffffffffffffffffffffffffffff16815260200190815260200160002060008282546124cb91906146ba565b9250508190555080600b60008573ffffffffffffffffffffffffffffffffffffffff1673ffffffffffffffffffffffffffffffffffffffff1681526020019081526020016000206000848152602001908152602001600020600082825461253291906146ba565b92505081905550505050565b6125466127f7565b73ffffffffffffffffffffffffffffffffffffffff16612564611616565b73ffffffffffffffffffffffffffffffffffffffff16146125ba576040517f08c379a00000000000000000000000000000000000000000000000000000000081526004016125b190614323565b60405180910390fd5b80600783815481106125cf576125ce614964565b5b906000526020600020906007020160040160006101000a81548160ff0219169083151502179055505050565b612605828261299c565b5050565b6000612631836000018373ffffffffffffffffffffffffffffffffffffffff1660001b612a7d565b905092915050565b60007fd9b67a26000000000000000000000000000000000000000000000000000000007bffffffffffffffffffffffffffffffffffffffffffffffffffffffff1916827bffffffffffffffffffffffffffffffffffffffffffffffffffffffff1916148061270457507f0e89341c000000000000000000000000000000000000000000000000000000007bffffffffffffffffffffffffffffffffffffffffffffffffffffffff1916827bffffffffffffffffffffffffffffffffffffffffffffffffffffffff1916145b80612714575061271382612aed565b5b9050919050565b61272482610cd4565b612735816127306127f7565b612b67565b61273f838361299c565b505050565b61274c6127f7565b73ffffffffffffffffffffffffffffffffffffffff168173ffffffffffffffffffffffffffffffffffffffff16146127b9576040517f08c379a00000000000000000000000000000000000000000000000000000000081526004016127b0906143a3565b60405180910390fd5b6127c38282612c04565b5050565b60006127ef836000018373ffffffffffffffffffffffffffffffffffffffff1660001b612ce6565b905092915050565b600033905090565b612807611121565b612846576040517f08c379a000000000000000000000000000000000000000000000000000000000815260040161283d906142a3565b60405180910390fd5b6000601260006101000a81548160ff0219169083151502179055507f5db9ee0a495bf2e6ff9c91a7834c1ba4fdd244a5e8aa4e537bd38aeae4b073aa61288a6127f7565b6040516128979190614113565b60405180910390a1565b6128a9611121565b156128e9576040517f08c379a00000000000000000000000000000000000000000000000000000000081526004016128e090614303565b60405180910390fd5b6001601260006101000a81548160ff0219169083151502179055507f62e78cea01bee320cd4e420270b5ea74000d11b0c9f74754ebdbfc544b05a25861292d6127f7565b60405161293a9190614113565b60405180910390a1565b60006129538360000183612df2565b60001c905092915050565b600061296c82600001612e66565b9050919050565b61297c82610cd4565b61298d816129886127f7565b612b67565b6129978383612c04565b505050565b6129a6828261166e565b612a79576001600d600084815260200190815260200160002060000160008373ffffffffffffffffffffffffffffffffffffffff1673ffffffffffffffffffffffffffffffffffffffff16815260200190815260200160002060006101000a81548160ff021916908315150217905550612a1e6127f7565b73ffffffffffffffffffffffffffffffffffffffff168173ffffffffffffffffffffffffffffffffffffffff16837f2f8788117e7eff1d82e926ec794901d17c78024a50270940304540a733656f0d60405160405180910390a45b5050565b6000612a898383612e77565b612ae2578260000182908060018154018082558091505060019003906000526020600020016000909190919091505582600001805490508360010160008481526020019081526020016000208190555060019050612ae7565b600090505b92915050565b60007f5a05180f000000000000000000000000000000000000000000000000000000007bffffffffffffffffffffffffffffffffffffffffffffffffffffffff1916827bffffffffffffffffffffffffffffffffffffffffffffffffffffffff19161480612b605750612b5f82612e9a565b5b9050919050565b612b71828261166e565b612c0057612b968173ffffffffffffffffffffffffffffffffffffffff166014612f14565b612ba48360001c6020612f14565b604051602001612bb59291906140d9565b6040516020818303038152906040526040517f08c379a0000000000000000000000000000000000000000000000000000000008152600401612bf79190614241565b60405180910390fd5b5050565b612c0e828261166e565b15612ce2576000600d600084815260200190815260200160002060000160008373ffffffffffffffffffffffffffffffffffffffff1673ffffffffffffffffffffffffffffffffffffffff16815260200190815260200160002060006101000a81548160ff021916908315150217905550612c876127f7565b73ffffffffffffffffffffffffffffffffffffffff168173ffffffffffffffffffffffffffffffffffffffff16837ff6391f5c32d9c69d2a47ea670b442974b53935d1edc7fd64eb21e047a839171b60405160405180910390a45b5050565b60008083600101600084815260200190815260200160002054905060008114612de6576000600182612d1891906146ba565b9050600060018660000180549050612d3091906146ba565b90506000866000018281548110612d4a57612d49614964565b5b9060005260206000200154905080876000018481548110612d6e57612d6d614964565b5b9060005260206000200181905550838760010160008381526020019081526020016000208190555086600001805480612daa57612da9614935565b5b60019003818190600052602060002001600090559055866001016000878152602001908152602001600020600090556001945050505050612dec565b60009150505b92915050565b600081836000018054905011612e3d576040517f08c379a0000000000000000000000000000000000000000000000000000000008152600401612e3490614263565b60405180910390fd5b826000018281548110612e5357612e52614964565b5b9060005260206000200154905092915050565b600081600001805490509050919050565b600080836001016000848152602001908152602001600020541415905092915050565b60007f7965db0b000000000000000000000000000000000000000000000000000000007bffffffffffffffffffffffffffffffffffffffffffffffffffffffff1916827bffffffffffffffffffffffffffffffffffffffffffffffffffffffff19161480612f0d5750612f0c82613150565b5b9050919050565b606060006002836002612f279190614660565b612f3191906145d9565b67ffffffffffffffff811115612f4a57612f49614993565b5b6040519080825280601f01601f191660200182016040528015612f7c5781602001600182028036833780820191505090505b5090507f300000000000000000000000000000000000000000000000000000000000000081600081518110612fb457612fb3614964565b5b60200101907effffffffffffffffffffffffffffffffffffffffffffffffffffffffffffff1916908160001a9053507f78000000000000000000000000000000000000000000000000000000000000008160018151811061301857613017614964565b5b60200101907effffffffffffffffffffffffffffffffffffffffffffffffffffffffffffff1916908160001a905350600060018460026130589190614660565b61306291906145d9565b90505b6001811115613102577f3031323334353637383961626364656600000000000000000000000000000000600f8616601081106130a4576130a3614964565b5b1a60f81b8282815181106130bb576130ba614964565b5b60200101907effffffffffffffffffffffffffffffffffffffffffffffffffffffffffffff1916908160001a905350600485901c9450806130fb906147d2565b9050613065565b5060008414613146576040517f08c379a000000000000000000000000000000000000000000000000000000000815260040161313d90614283565b60405180910390fd5b8091505092915050565b60007f01ffc9a7000000000000000000000000000000000000000000000000000000007bffffffffffffffffffffffffffffffffffffffffffffffffffffffff1916827bffffffffffffffffffffffffffffffffffffffffffffffffffffffff1916149050919050565b8280546131c6906147fc565b90600052602060002090601f0160209004810192826131e8576000855561322f565b82601f1061320157803560ff191683800117855561322f565b8280016001018555821561322f579182015b8281111561322e578235825591602001919060010190613213565b5b50905061323c91906132c6565b5090565b82805461324c906147fc565b90600052602060002090601f01602090048101928261326e57600085556132b5565b82601f1061328757805160ff19168380011785556132b5565b828001600101855582156132b5579182015b828111156132b4578251825591602001919060010190613299565b5b5090506132c291906132c6565b5090565b5b808211156132df5760008160009055506001016132c7565b5090565b60006132f66132f1846144bf565b61449a565b90508083825260208201905082856020860282011115613319576133186149cc565b5b60005b85811015613349578161332f8882613447565b84526020840193506020830192505060018101905061331c565b5050509392505050565b6000613366613361846144eb565b61449a565b90508083825260208201905082856020860282011115613389576133886149cc565b5b60005b858110156133b9578161339f88826135be565b84526020840193506020830192505060018101905061338c565b5050509392505050565b60006133d66133d184614517565b61449a565b9050828152602081018484840111156133f2576133f16149d1565b5b6133fd848285614790565b509392505050565b600061341861341384614548565b61449a565b905082815260208101848484011115613434576134336149d1565b5b61343f848285614790565b509392505050565b60008135905061345681614d10565b92915050565b60008135905061346b81614d27565b92915050565b600082601f830112613486576134856149c7565b5b81356134968482602086016132e3565b91505092915050565b600082601f8301126134b4576134b36149c7565b5b81356134c4848260208601613353565b91505092915050565b6000813590506134dc81614d3e565b92915050565b6000813590506134f181614d55565b92915050565b60008135905061350681614d6c565b92915050565b600082601f830112613521576135206149c7565b5b81356135318482602086016133c3565b91505092915050565b60008083601f8401126135505761354f6149c7565b5b8235905067ffffffffffffffff81111561356d5761356c6149c2565b5b602083019150836001820283011115613589576135886149cc565b5b9250929050565b600082601f8301126135a5576135a46149c7565b5b81356135b5848260208601613405565b91505092915050565b6000813590506135cd81614d83565b92915050565b6000602082840312156135e9576135e86149db565b5b60006135f784828501613447565b91505092915050565b600060208284031215613616576136156149db565b5b60006136248482850161345c565b91505092915050565b60008060008060808587031215613647576136466149db565b5b60006136558782880161345c565b945050602085013567ffffffffffffffff811115613676576136756149d6565b5b61368287828801613590565b935050604085013567ffffffffffffffff8111156136a3576136a26149d6565b5b6136af87828801613590565b925050606085013567ffffffffffffffff8111156136d0576136cf6149d6565b5b6136dc87828801613590565b91505092959194509250565b600080604083850312156136ff576136fe6149db565b5b600061370d85828601613447565b925050602061371e85828601613447565b9150509250929050565b600080600080600060a08688031215613744576137436149db565b5b600061375288828901613447565b955050602061376388828901613447565b945050604086013567ffffffffffffffff811115613784576137836149d6565b5b6137908882890161349f565b935050606086013567ffffffffffffffff8111156137b1576137b06149d6565b5b6137bd8882890161349f565b925050608086013567ffffffffffffffff8111156137de576137dd6149d6565b5b6137ea8882890161350c565b9150509295509295909350565b600080600080600060a08688031215613813576138126149db565b5b600061382188828901613447565b955050602061383288828901613447565b9450506040613843888289016135be565b9350506060613854888289016135be565b925050608086013567ffffffffffffffff811115613875576138746149d6565b5b6138818882890161350c565b9150509295509295909350565b6000806000606084860312156138a7576138a66149db565b5b60006138b586828701613447565b935050602084013567ffffffffffffffff8111156138d6576138d56149d6565b5b6138e28682870161349f565b925050604084013567ffffffffffffffff811115613903576139026149d6565b5b61390f8682870161349f565b9150509250925092565b60008060008060808587031215613933576139326149db565b5b600061394187828801613447565b945050602085013567ffffffffffffffff811115613962576139616149d6565b5b61396e8782880161349f565b935050604085013567ffffffffffffffff81111561398f5761398e6149d6565b5b61399b8782880161349f565b925050606085013567ffffffffffffffff8111156139bc576139bb6149d6565b5b6139c88782880161350c565b91505092959194509250565b600080604083850312156139eb576139ea6149db565b5b60006139f985828601613447565b9250506020613a0a858286016134cd565b9150509250929050565b60008060408385031215613a2b57613a2a6149db565b5b6000613a3985828601613447565b9250506020613a4a858286016135be565b9150509250929050565b600080600060608486031215613a6d57613a6c6149db565b5b6000613a7b86828701613447565b9350506020613a8c868287016135be565b9250506040613a9d868287016135be565b9150509250925092565b60008060008060808587031215613ac157613ac06149db565b5b6000613acf87828801613447565b9450506020613ae0878288016135be565b9350506040613af1878288016135be565b925050606085013567ffffffffffffffff811115613b1257613b116149d6565b5b613b1e8782880161350c565b91505092959194509250565b60008060408385031215613b4157613b406149db565b5b600083013567ffffffffffffffff811115613b5f57613b5e6149d6565b5b613b6b85828601613471565b925050602083013567ffffffffffffffff811115613b8c57613b8b6149d6565b5b613b988582860161349f565b9150509250929050565b600060208284031215613bb857613bb76149db565b5b6000613bc6848285016134e2565b91505092915050565b60008060408385031215613be657613be56149db565b5b6000613bf4858286016134e2565b9250506020613c0585828601613447565b9150509250929050565b60008060408385031215613c2657613c256149db565b5b6000613c34858286016134e2565b9250506020613c45858286016135be565b9150509250929050565b600060208284031215613c6557613c646149db565b5b6000613c73848285016134f7565b91505092915050565b600060208284031215613c9257613c916149db565b5b6000613ca0848285016135be565b91505092915050565b60008060408385031215613cc057613cbf6149db565b5b6000613cce858286016135be565b9250506020613cdf85828601613447565b9150509250929050565b60008060408385031215613d0057613cff6149db565b5b6000613d0e858286016135be565b9250506020613d1f8582860161345c565b9150509250929050565b60008060408385031215613d4057613d3f6149db565b5b6000613d4e858286016135be565b9250506020613d5f858286016134cd565b9150509250929050565b600080600060408486031215613d8257613d816149db565b5b6000613d90868287016135be565b935050602084013567ffffffffffffffff811115613db157613db06149d6565b5b613dbd8682870161353a565b92509250509250925092565b6000613dd583836140bb565b60208301905092915050565b613dea81614700565b82525050565b613df9816146ee565b82525050565b6000613e0a82614589565b613e1481856145ac565b9350613e1f83614579565b8060005b83811015613e50578151613e378882613dc9565b9750613e428361459f565b925050600181019050613e23565b5085935050505092915050565b613e6681614712565b82525050565b613e758161471e565b82525050565b613e848161477e565b82525050565b6000613e9582614594565b613e9f81856145bd565b9350613eaf81856020860161479f565b613eb8816149e0565b840191505092915050565b6000613ece82614594565b613ed881856145ce565b9350613ee881856020860161479f565b80840191505092915050565b6000613f016022836145bd565b9150613f0c826149f1565b604082019050919050565b6000613f246020836145bd565b9150613f2f82614a40565b602082019050919050565b6000613f476014836145bd565b9150613f5282614a69565b602082019050919050565b6000613f6a602b836145bd565b9150613f7582614a92565b604082019050919050565b6000613f8d6026836145bd565b9150613f9882614ae1565b604082019050919050565b6000613fb06010836145bd565b9150613fbb82614b30565b602082019050919050565b6000613fd36020836145bd565b9150613fde82614b59565b602082019050919050565b6000613ff6603b836145bd565b915061400182614b82565b604082019050919050565b60006140196039836145bd565b915061402482614bd1565b604082019050919050565b600061403c6017836145ce565b915061404782614c20565b601782019050919050565b600061405f6029836145bd565b915061406a82614c49565b604082019050919050565b60006140826011836145ce565b915061408d82614c98565b601182019050919050565b60006140a5602f836145bd565b91506140b082614cc1565b604082019050919050565b6140c481614774565b82525050565b6140d381614774565b82525050565b60006140e48261402f565b91506140f08285613ec3565b91506140fb82614075565b91506141078284613ec3565b91508190509392505050565b60006020820190506141286000830184613df0565b92915050565b600060e082019050614143600083018a613de1565b81810360208301526141558189613e8a565b905081810360408301526141698188613e8a565b9050818103606083015261417d8187613e8a565b905061418c6080830186613e5d565b61419960a08301856140ca565b6141a660c08301846140ca565b98975050505050505050565b600060208201905081810360008301526141cc8184613dff565b905092915050565b600060408201905081810360008301526141ee8185613dff565b905081810360208301526142028184613dff565b90509392505050565b60006020820190506142206000830184613e5d565b92915050565b600060208201905061423b6000830184613e6c565b92915050565b6000602082019050818103600083015261425b8184613e8a565b905092915050565b6000602082019050818103600083015261427c81613ef4565b9050919050565b6000602082019050818103600083015261429c81613f17565b9050919050565b600060208201905081810360008301526142bc81613f3a565b9050919050565b600060208201905081810360008301526142dc81613f5d565b9050919050565b600060208201905081810360008301526142fc81613f80565b9050919050565b6000602082019050818103600083015261431c81613fa3565b9050919050565b6000602082019050818103600083015261433c81613fc6565b9050919050565b6000602082019050818103600083015261435c81613fe9565b9050919050565b6000602082019050818103600083015261437c8161400c565b9050919050565b6000602082019050818103600083015261439c81614052565b9050919050565b600060208201905081810360008301526143bc81614098565b9050919050565b60006020820190506143d860008301846140ca565b92915050565b6000610100820190506143f4600083018b6140ca565b614401602083018a613de1565b81810360408301526144138189613e8a565b905081810360608301526144278188613e8a565b9050818103608083015261443b8187613e8a565b905061444a60a0830186613e5d565b61445760c0830185613e7b565b61446460e0830184613e7b565b9998505050505050505050565b600060408201905061448660008301856140ca565b61449360208301846140ca565b9392505050565b60006144a46144b5565b90506144b0828261482e565b919050565b6000604051905090565b600067ffffffffffffffff8211156144da576144d9614993565b5b602082029050602081019050919050565b600067ffffffffffffffff82111561450657614505614993565b5b602082029050602081019050919050565b600067ffffffffffffffff82111561453257614531614993565b5b61453b826149e0565b9050602081019050919050565b600067ffffffffffffffff82111561456357614562614993565b5b61456c826149e0565b9050602081019050919050565b6000819050602082019050919050565b600081519050919050565b600081519050919050565b6000602082019050919050565b600082825260208201905092915050565b600082825260208201905092915050565b600081905092915050565b60006145e482614774565b91506145ef83614774565b9250827fffffffffffffffffffffffffffffffffffffffffffffffffffffffffffffffff03821115614624576146236148a8565b5b828201905092915050565b600061463a82614774565b915061464583614774565b925082614655576146546148d7565b5b828204905092915050565b600061466b82614774565b915061467683614774565b9250817fffffffffffffffffffffffffffffffffffffffffffffffffffffffffffffffff04831182151516156146af576146ae6148a8565b5b828202905092915050565b60006146c582614774565b91506146d083614774565b9250828210156146e3576146e26148a8565b5b828203905092915050565b60006146f982614754565b9050919050565b600061470b82614754565b9050919050565b60008115159050919050565b6000819050919050565b60007fffffffff0000000000000000000000000000000000000000000000000000000082169050919050565b600073ffffffffffffffffffffffffffffffffffffffff82169050919050565b6000819050919050565b600061478982614774565b9050919050565b82818337600083830152505050565b60005b838110156147bd5780820151818401526020810190506147a2565b838111156147cc576000848401525b50505050565b60006147dd82614774565b915060008214156147f1576147f06148a8565b5b600182039050919050565b6000600282049050600182168061481457607f821691505b6020821081141561482857614827614906565b5b50919050565b614837826149e0565b810181811067ffffffffffffffff8211171561485657614855614993565b5b80604052505050565b600061486a82614774565b91507fffffffffffffffffffffffffffffffffffffffffffffffffffffffffffffffff82141561489d5761489c6148a8565b5b600182019050919050565b7f4e487b7100000000000000000000000000000000000000000000000000000000600052601160045260246000fd5b7f4e487b7100000000000000000000000000000000000000000000000000000000600052601260045260246000fd5b7f4e487b7100000000000000000000000000000000000000000000000000000000600052602260045260246000fd5b7f4e487b7100000000000000000000000000000000000000000000000000000000600052603160045260246000fd5b7f4e487b7100000000000000000000000000000000000000000000000000000000600052603260045260246000fd5b7f4e487b7100000000000000000000000000000000000000000000000000000000600052604160045260246000fd5b600080fd5b600080fd5b600080fd5b600080fd5b600080fd5b600080fd5b6000601f19601f8301169050919050565b7f456e756d657261626c655365743a20696e646578206f7574206f6620626f756e60008201527f6473000000000000000000000000000000000000000000000000000000000000602082015250565b7f537472696e67733a20686578206c656e67746820696e73756666696369656e74600082015250565b7f5061757361626c653a206e6f7420706175736564000000000000000000000000600082015250565b7f455243313135353a2062616c616e636520717565727920666f7220746865207a60008201527f65726f2061646472657373000000000000000000000000000000000000000000602082015250565b7f4f776e61626c653a206e6577206f776e657220697320746865207a65726f206160008201527f6464726573730000000000000000000000000000000000000000000000000000602082015250565b7f5061757361626c653a2070617573656400000000000000000000000000000000600082015250565b7f4f776e61626c653a2063616c6c6572206973206e6f7420746865206f776e6572600082015250565b7f455243313135355072657365744d696e7465725061757365723a206d7573742060008201527f686176652070617573657220726f6c6520746f20756e70617573650000000000602082015250565b7f455243313135355072657365744d696e7465725061757365723a206d7573742060008201527f686176652070617573657220726f6c6520746f20706175736500000000000000602082015250565b7f416363657373436f6e74726f6c3a206163636f756e7420000000000000000000600082015250565b7f455243313135353a206163636f756e747320616e6420696473206c656e67746860008201527f206d69736d617463680000000000000000000000000000000000000000000000602082015250565b7f206973206d697373696e6720726f6c6520000000000000000000000000000000600082015250565b7f416363657373436f6e74726f6c3a2063616e206f6e6c792072656e6f756e636560008201527f20726f6c657320666f722073656c660000000000000000000000000000000000602082015250565b614d19816146ee565b8114614d2457600080fd5b50565b614d3081614700565b8114614d3b57600080fd5b50565b614d4781614712565b8114614d5257600080fd5b50565b614d5e8161471e565b8114614d6957600080fd5b50565b614d7581614728565b8114614d8057600080fd5b50565b614d8c81614774565b8114614d9757600080fd5b5056fea26469706673582212205a1fa2be23670c513210976832391e2365f5a5c8f9692d1a8dbfbbbc4c9d57ae64736f6c63430008060033",
  "immutableReferences": {},
  "source": "// SPDX-License-Identifier: MIT\npragma solidity ^0.8.0;\n\nimport \"./creatortokenformulas.sol\";\n\ncontract CreatorTokenFees is CreatorTokenFormulas {\n\n\tconstructor(string memory uri) CreatorTokenFormulas(uri) { }\n\n\t// Calculate fee associated with buy transaction\n\tfunction _feeProceeds(uint _proceedsRequired) public view returns (uint256) {\n\t\treturn _proceedsRequired*platformFee/100;\n\t}\n\n\t// Update platform fees tracker\n\tfunction _platformFeeUpdater(uint _fee) internal {\n\t\ttotalPlatformFees += _fee;\n\t\tplatformFeesOwed += _fee;\n\t}\n\n\t// Transfer excess liquidity (triggered only when a CreatorToken hits a new maxSupply)\n\tfunction _payCreator(uint _tokenId, address payable _creatorAddress) internal {\n\t\t// Create a variable showing excess liquidity that has already been transferred out of this token's liquidity pool\n\t\tuint alreadyTransferred = tokenValueTransferred[_tokenId];\n\t\t// Initialize totalProfit\n\t\tuint totalProfit = 0;\n\t\t// Calculate totalProfit (area between b(x) and s(x) from 0 to maxSupply)\n\t\ttotalProfit = _buyFunction(0, creatorTokens[_tokenId].maxSupply, mNumerator, mDenominator) - _saleFunction(creatorTokens[_tokenId].maxSupply, creatorTokens[_tokenId].maxSupply, mNumerator, mDenominator, creatorTokens[_tokenId].maxSupply, profitMargin);\n\t\t// Calculate creator's new profit created from new excess liquidity created\n\t\tuint newProfit = totalProfit - alreadyTransferred; //400000000000000000; // \n\t\t// Transfer newProfit wei to creator\n\t\t_creatorAddress.transfer(newProfit);\n\t\t// Update amount of value transferred to creator\n\t\ttokenValueTransferred[_tokenId] = totalProfit;\n\t}\n}",
  "sourcePath": "/Users/kamilalizaisadik/DeFi/Dynamic Automated Market Maker/damm_solidity/contracts/creatortokenfees.sol",
  "compiler": {
    "name": "solc",
    "version": "0.8.6+commit.11564f7e.Emscripten.clang"
  },
  "schemaVersion": "3.4.1",
  "updatedAt": "2021-07-09T16:52:46.391Z",
  "devdoc": {
    "kind": "dev",
    "methods": {
      "balanceOf(address,uint256)": {
        "details": "See {IERC1155-balanceOf}. Requirements: - `account` cannot be the zero address."
      },
      "balanceOfBatch(address[],uint256[])": {
        "details": "See {IERC1155-balanceOfBatch}. Requirements: - `accounts` and `ids` must have the same length."
      },
      "getRoleAdmin(bytes32)": {
        "details": "Returns the admin role that controls `role`. See {grantRole} and {revokeRole}. To change a role's admin, use {_setRoleAdmin}."
      },
      "getRoleMember(bytes32,uint256)": {
        "details": "Returns one of the accounts that have `role`. `index` must be a value between 0 and {getRoleMemberCount}, non-inclusive. Role bearers are not sorted in any particular way, and their ordering may change at any point. WARNING: When using {getRoleMember} and {getRoleMemberCount}, make sure you perform all queries on the same block. See the following https://forum.openzeppelin.com/t/iterating-over-elements-on-enumerableset-in-openzeppelin-contracts/2296[forum post] for more information."
      },
      "getRoleMemberCount(bytes32)": {
        "details": "Returns the number of accounts that have `role`. Can be used together with {getRoleMember} to enumerate all bearers of a role."
      },
      "grantRole(bytes32,address)": {
        "details": "Overload {grantRole} to track enumerable memberships"
      },
      "hasRole(bytes32,address)": {
        "details": "Returns `true` if `account` has been granted `role`."
      },
      "owner()": {
        "details": "Returns the address of the current owner."
      },
      "pause()": {
        "details": "Pauses all token transfers. See {ERC1155Pausable} and {Pausable-_pause}. Requirements: - the caller must have the `PAUSER_ROLE`."
      },
      "paused()": {
        "details": "Returns true if the contract is paused, and false otherwise."
      },
      "renounceOwnership()": {
        "details": "Leaves the contract without owner. It will not be possible to call `onlyOwner` functions anymore. Can only be called by the current owner. NOTE: Renouncing ownership will leave the contract without an owner, thereby removing any functionality that is only available to the owner."
      },
      "renounceRole(bytes32,address)": {
        "details": "Overload {renounceRole} to track enumerable memberships"
      },
      "revokeRole(bytes32,address)": {
        "details": "Overload {revokeRole} to track enumerable memberships"
      },
      "supportsInterface(bytes4)": {
        "details": "See {IERC165-supportsInterface}."
      },
      "transferOwnership(address)": {
        "details": "Transfers ownership of the contract to a new account (`newOwner`). Can only be called by the current owner."
      },
      "unpause()": {
        "details": "Unpauses all token transfers. See {ERC1155Pausable} and {Pausable-_unpause}. Requirements: - the caller must have the `PAUSER_ROLE`."
      },
      "uri(uint256)": {
        "details": "See {IERC1155MetadataURI-uri}. This implementation returns the same URI for *all* token types. It relies on the token type ID substitution mechanism https://eips.ethereum.org/EIPS/eip-1155#metadata[defined in the EIP]. Clients calling this function must replace the `\\{id\\}` substring with the actual token type ID."
      }
    },
    "version": 1
  },
  "userdoc": {
    "kind": "user",
    "methods": {},
    "version": 1
  }
}