{
  "contractName": "CreatorTokenFactory",
  "abi": [
    {
      "anonymous": false,
      "inputs": [
        {
          "indexed": false,
          "internalType": "uint256",
          "name": "tokenId",
          "type": "uint256"
        },
        {
          "indexed": false,
          "internalType": "address payable",
          "name": "creatorAddress",
          "type": "address"
        },
        {
          "indexed": false,
          "internalType": "string",
          "name": "name",
          "type": "string"
        },
        {
          "indexed": false,
          "internalType": "string",
          "name": "symbol",
          "type": "string"
        },
        {
          "indexed": false,
          "internalType": "string",
          "name": "description",
          "type": "string"
        },
        {
          "indexed": false,
          "internalType": "bool",
          "name": "verified",
          "type": "bool"
        },
        {
          "indexed": false,
          "internalType": "uint256",
          "name": "outstanding",
          "type": "uint256"
        },
        {
          "indexed": false,
          "internalType": "uint256",
          "name": "maxSupply",
          "type": "uint256"
        }
      ],
      "name": "NewCreatorToken",
      "type": "event"
    },
    {
      "anonymous": false,
      "inputs": [
        {
          "indexed": true,
          "internalType": "address",
          "name": "previousOwner",
          "type": "address"
        },
        {
          "indexed": true,
          "internalType": "address",
          "name": "newOwner",
          "type": "address"
        }
      ],
      "name": "OwnershipTransferred",
      "type": "event"
    },
    {
      "inputs": [
        {
          "internalType": "address",
          "name": "",
          "type": "address"
        },
        {
          "internalType": "address",
          "name": "",
          "type": "address"
        }
      ],
      "name": "approvals",
      "outputs": [
        {
          "internalType": "bool",
          "name": "",
          "type": "bool"
        }
      ],
      "stateMutability": "view",
      "type": "function"
    },
    {
      "inputs": [
        {
          "internalType": "uint256",
          "name": "",
          "type": "uint256"
        }
      ],
      "name": "creatorTokens",
      "outputs": [
        {
          "internalType": "address payable",
          "name": "creatorAddress",
          "type": "address"
        },
        {
          "internalType": "string",
          "name": "name",
          "type": "string"
        },
        {
          "internalType": "string",
          "name": "symbol",
          "type": "string"
        },
        {
          "internalType": "string",
          "name": "description",
          "type": "string"
        },
        {
          "internalType": "bool",
          "name": "verified",
          "type": "bool"
        },
        {
          "internalType": "uint256",
          "name": "outstanding",
          "type": "uint256"
        },
        {
          "internalType": "uint256",
          "name": "maxSupply",
          "type": "uint256"
        }
      ],
      "stateMutability": "view",
      "type": "function"
    },
    {
      "inputs": [],
      "name": "numCreatorTokens",
      "outputs": [
        {
          "internalType": "uint256",
          "name": "",
          "type": "uint256"
        }
      ],
      "stateMutability": "view",
      "type": "function"
    },
    {
      "inputs": [],
      "name": "owner",
      "outputs": [
        {
          "internalType": "address",
          "name": "",
          "type": "address"
        }
      ],
      "stateMutability": "view",
      "type": "function"
    },
    {
      "inputs": [],
      "name": "platformFeesOwed",
      "outputs": [
        {
          "internalType": "uint256",
          "name": "",
          "type": "uint256"
        }
      ],
      "stateMutability": "view",
      "type": "function"
    },
    {
      "inputs": [],
      "name": "renounceOwnership",
      "outputs": [],
      "stateMutability": "nonpayable",
      "type": "function"
    },
    {
      "inputs": [
        {
          "internalType": "uint256",
          "name": "",
          "type": "uint256"
        },
        {
          "internalType": "address",
          "name": "",
          "type": "address"
        }
      ],
      "name": "tokenHoldership",
      "outputs": [
        {
          "internalType": "uint256",
          "name": "",
          "type": "uint256"
        }
      ],
      "stateMutability": "view",
      "type": "function"
    },
    {
      "inputs": [
        {
          "internalType": "uint256",
          "name": "",
          "type": "uint256"
        }
      ],
      "name": "tokenToCreator",
      "outputs": [
        {
          "internalType": "address",
          "name": "",
          "type": "address"
        }
      ],
      "stateMutability": "view",
      "type": "function"
    },
    {
      "inputs": [
        {
          "internalType": "uint256",
          "name": "",
          "type": "uint256"
        }
      ],
      "name": "tokenValueTransferred",
      "outputs": [
        {
          "internalType": "uint256",
          "name": "",
          "type": "uint256"
        }
      ],
      "stateMutability": "view",
      "type": "function"
    },
    {
      "inputs": [],
      "name": "totalPlatformFees",
      "outputs": [
        {
          "internalType": "uint256",
          "name": "",
          "type": "uint256"
        }
      ],
      "stateMutability": "view",
      "type": "function"
    },
    {
      "inputs": [
        {
          "internalType": "uint256",
          "name": "",
          "type": "uint256"
        }
      ],
      "name": "totalValueLocked",
      "outputs": [
        {
          "internalType": "uint256",
          "name": "",
          "type": "uint256"
        }
      ],
      "stateMutability": "view",
      "type": "function"
    },
    {
      "inputs": [
        {
          "internalType": "address",
          "name": "newOwner",
          "type": "address"
        }
      ],
      "name": "transferOwnership",
      "outputs": [],
      "stateMutability": "nonpayable",
      "type": "function"
    },
    {
      "inputs": [
        {
          "internalType": "address",
          "name": "",
          "type": "address"
        },
        {
          "internalType": "uint256",
          "name": "",
          "type": "uint256"
        }
      ],
      "name": "userToHoldings",
      "outputs": [
        {
          "internalType": "uint256",
          "name": "",
          "type": "uint256"
        }
      ],
      "stateMutability": "view",
      "type": "function"
    },
    {
      "inputs": [
        {
          "internalType": "address payable",
          "name": "_creatorAddress",
          "type": "address"
        },
        {
          "internalType": "string",
          "name": "_name",
          "type": "string"
        },
        {
          "internalType": "string",
          "name": "_symbol",
          "type": "string"
        },
        {
          "internalType": "string",
          "name": "_description",
          "type": "string"
        }
      ],
      "name": "createCreatorToken",
      "outputs": [],
      "stateMutability": "nonpayable",
      "type": "function"
    }
  ],
  "bytecode": "0x608060405260018055600060025560006003556000600455601460055565082f79cd900060065560b960075534801561003757600080fd5b5060006100486100eb60201b60201c565b9050806000806101000a81548173ffffffffffffffffffffffffffffffffffffffff021916908373ffffffffffffffffffffffffffffffffffffffff1602179055508073ffffffffffffffffffffffffffffffffffffffff16600073ffffffffffffffffffffffffffffffffffffffff167f8be0079c531659141344cd1fd0a4f28419497f9722a3daafe3b4186f6b6457e060405160405180910390a3506100f3565b600033905090565b61148a806101026000396000f3fe608060405234801561001057600080fd5b50600436106100ea5760003560e01c8063bfb48c9c1161008c578063d3631fa511610066578063d3631fa514610279578063d56b72c714610297578063d9bd3a40146102b3578063f2fde38b146102e3576100ea565b8063bfb48c9c146101f5578063c1d3304914610225578063ce901d8a14610243576100ea565b80638da5cb5b116100c85780638da5cb5b1461015957806392724afa14610177578063a32ce11e146101a7578063afb21832146101d7576100ea565b806317bcaa08146100ef57806318892ae81461011f578063715018a61461014f575b600080fd5b61010960048036038101906101049190610e06565b6102ff565b6040516101169190611037565b60405180910390f35b61013960048036038101906101349190610e06565b610317565b6040516101469190610f3d565b60405180910390f35b61015761034a565b005b610161610484565b60405161016e9190610f3d565b60405180910390f35b610191600480360381019061018c9190610dc6565b6104ad565b60405161019e9190611037565b60405180910390f35b6101c160048036038101906101bc9190610d86565b6104d2565b6040516101ce9190610fdc565b60405180910390f35b6101df610501565b6040516101ec9190611037565b60405180910390f35b61020f600480360381019061020a9190610e33565b610507565b60405161021c9190611037565b60405180910390f35b61022d61052c565b60405161023a9190611037565b60405180910390f35b61025d60048036038101906102589190610e06565b610532565b6040516102709796959493929190610f58565b60405180910390f35b610281610749565b60405161028e9190611037565b60405180910390f35b6102b160048036038101906102ac9190610ccb565b61074f565b005b6102cd60048036038101906102c89190610e06565b610983565b6040516102da9190611037565b60405180910390f35b6102fd60048036038101906102f89190610c9e565b61099b565b005b600a6020528060005260406000206000915090505481565b60096020528060005260406000206000915054906101000a900473ffffffffffffffffffffffffffffffffffffffff1681565b610352610b44565b73ffffffffffffffffffffffffffffffffffffffff16610370610484565b73ffffffffffffffffffffffffffffffffffffffff16146103c6576040517f08c379a00000000000000000000000000000000000000000000000000000000081526004016103bd90611017565b60405180910390fd5b600073ffffffffffffffffffffffffffffffffffffffff1660008054906101000a900473ffffffffffffffffffffffffffffffffffffffff1673ffffffffffffffffffffffffffffffffffffffff167f8be0079c531659141344cd1fd0a4f28419497f9722a3daafe3b4186f6b6457e060405160405180910390a360008060006101000a81548173ffffffffffffffffffffffffffffffffffffffff021916908373ffffffffffffffffffffffffffffffffffffffff160217905550565b60008060009054906101000a900473ffffffffffffffffffffffffffffffffffffffff16905090565b600c602052816000526040600020602052806000526040600020600091509150505481565b600d6020528160005260406000206020528060005260406000206000915091509054906101000a900460ff1681565b60045481565b600b602052816000526040600020602052806000526040600020600091509150505481565b60035481565b6008818154811061054257600080fd5b90600052602060002090600702016000915090508060000160009054906101000a900473ffffffffffffffffffffffffffffffffffffffff169080600101805461058b90611239565b80601f01602080910402602001604051908101604052809291908181526020018280546105b790611239565b80156106045780601f106105d957610100808354040283529160200191610604565b820191906000526020600020905b8154815290600101906020018083116105e757829003601f168201915b50505050509080600201805461061990611239565b80601f016020809104026020016040519081016040528092919081815260200182805461064590611239565b80156106925780601f1061066757610100808354040283529160200191610692565b820191906000526020600020905b81548152906001019060200180831161067557829003601f168201915b5050505050908060030180546106a790611239565b80601f01602080910402602001604051908101604052809291908181526020018280546106d390611239565b80156107205780601f106106f557610100808354040283529160200191610720565b820191906000526020600020905b81548152906001019060200180831161070357829003601f168201915b5050505050908060040160009054906101000a900460ff16908060050154908060060154905087565b60025481565b60086040518060e001604052808673ffffffffffffffffffffffffffffffffffffffff168152602001858152602001848152602001838152602001600015158152602001600081526020016000815250908060018154018082558091505060019003906000526020600020906007020160009091909190915060008201518160000160006101000a81548173ffffffffffffffffffffffffffffffffffffffff021916908373ffffffffffffffffffffffffffffffffffffffff160217905550602082015181600101908051906020019061082b929190610b4c565b506040820151816002019080519060200190610848929190610b4c565b506060820151816003019080519060200190610865929190610b4c565b5060808201518160040160006101000a81548160ff02191690831515021790555060a0820151816005015560c082015181600601555050600060016008805490506108b09190611157565b9050846009600083815260200190815260200160002060006101000a81548173ffffffffffffffffffffffffffffffffffffffff021916908373ffffffffffffffffffffffffffffffffffffffff1602179055506000600a600083815260200190815260200160002081905550600460008154809291906109309061129c565b91905055507f3ef624c0f3fb7ad40b94c02078ea3e3a797dbfc21e921ee4bd2b8ad0ca6aa11381868686866000806000604051610974989796959493929190611052565b60405180910390a15050505050565b600e6020528060005260406000206000915090505481565b6109a3610b44565b73ffffffffffffffffffffffffffffffffffffffff166109c1610484565b73ffffffffffffffffffffffffffffffffffffffff1614610a17576040517f08c379a0000000000000000000000000000000000000000000000000000000008152600401610a0e90611017565b60405180910390fd5b600073ffffffffffffffffffffffffffffffffffffffff168173ffffffffffffffffffffffffffffffffffffffff161415610a87576040517f08c379a0000000000000000000000000000000000000000000000000000000008152600401610a7e90610ff7565b60405180910390fd5b8073ffffffffffffffffffffffffffffffffffffffff1660008054906101000a900473ffffffffffffffffffffffffffffffffffffffff1673ffffffffffffffffffffffffffffffffffffffff167f8be0079c531659141344cd1fd0a4f28419497f9722a3daafe3b4186f6b6457e060405160405180910390a3806000806101000a81548173ffffffffffffffffffffffffffffffffffffffff021916908373ffffffffffffffffffffffffffffffffffffffff16021790555050565b600033905090565b828054610b5890611239565b90600052602060002090601f016020900481019282610b7a5760008555610bc1565b82601f10610b9357805160ff1916838001178555610bc1565b82800160010185558215610bc1579182015b82811115610bc0578251825591602001919060010190610ba5565b5b509050610bce9190610bd2565b5090565b5b80821115610beb576000816000905550600101610bd3565b5090565b6000610c02610bfd8461110a565b6110e5565b905082815260208101848484011115610c1e57610c1d611377565b5b610c298482856111f7565b509392505050565b600081359050610c408161140f565b92915050565b600081359050610c5581611426565b92915050565b600082601f830112610c7057610c6f611372565b5b8135610c80848260208601610bef565b91505092915050565b600081359050610c988161143d565b92915050565b600060208284031215610cb457610cb3611381565b5b6000610cc284828501610c31565b91505092915050565b60008060008060808587031215610ce557610ce4611381565b5b6000610cf387828801610c46565b945050602085013567ffffffffffffffff811115610d1457610d1361137c565b5b610d2087828801610c5b565b935050604085013567ffffffffffffffff811115610d4157610d4061137c565b5b610d4d87828801610c5b565b925050606085013567ffffffffffffffff811115610d6e57610d6d61137c565b5b610d7a87828801610c5b565b91505092959194509250565b60008060408385031215610d9d57610d9c611381565b5b6000610dab85828601610c31565b9250506020610dbc85828601610c31565b9150509250929050565b60008060408385031215610ddd57610ddc611381565b5b6000610deb85828601610c31565b9250506020610dfc85828601610c89565b9150509250929050565b600060208284031215610e1c57610e1b611381565b5b6000610e2a84828501610c89565b91505092915050565b60008060408385031215610e4a57610e49611381565b5b6000610e5885828601610c89565b9250506020610e6985828601610c31565b9150509250929050565b610e7c8161119d565b82525050565b610e8b8161118b565b82525050565b610e9a816111af565b82525050565b610ea9816111e5565b82525050565b6000610eba8261113b565b610ec48185611146565b9350610ed4818560208601611206565b610edd81611386565b840191505092915050565b6000610ef5602683611146565b9150610f0082611397565b604082019050919050565b6000610f18602083611146565b9150610f23826113e6565b602082019050919050565b610f37816111db565b82525050565b6000602082019050610f526000830184610e82565b92915050565b600060e082019050610f6d600083018a610e73565b8181036020830152610f7f8189610eaf565b90508181036040830152610f938188610eaf565b90508181036060830152610fa78187610eaf565b9050610fb66080830186610e91565b610fc360a0830185610f2e565b610fd060c0830184610f2e565b98975050505050505050565b6000602082019050610ff16000830184610e91565b92915050565b6000602082019050818103600083015261101081610ee8565b9050919050565b6000602082019050818103600083015261103081610f0b565b9050919050565b600060208201905061104c6000830184610f2e565b92915050565b600061010082019050611068600083018b610f2e565b611075602083018a610e73565b81810360408301526110878189610eaf565b9050818103606083015261109b8188610eaf565b905081810360808301526110af8187610eaf565b90506110be60a0830186610e91565b6110cb60c0830185610ea0565b6110d860e0830184610ea0565b9998505050505050505050565b60006110ef611100565b90506110fb828261126b565b919050565b6000604051905090565b600067ffffffffffffffff82111561112557611124611343565b5b61112e82611386565b9050602081019050919050565b600081519050919050565b600082825260208201905092915050565b6000611162826111db565b915061116d836111db565b9250828210156111805761117f6112e5565b5b828203905092915050565b6000611196826111bb565b9050919050565b60006111a8826111bb565b9050919050565b60008115159050919050565b600073ffffffffffffffffffffffffffffffffffffffff82169050919050565b6000819050919050565b60006111f0826111db565b9050919050565b82818337600083830152505050565b60005b83811015611224578082015181840152602081019050611209565b83811115611233576000848401525b50505050565b6000600282049050600182168061125157607f821691505b6020821081141561126557611264611314565b5b50919050565b61127482611386565b810181811067ffffffffffffffff8211171561129357611292611343565b5b80604052505050565b60006112a7826111db565b91507fffffffffffffffffffffffffffffffffffffffffffffffffffffffffffffffff8214156112da576112d96112e5565b5b600182019050919050565b7f4e487b7100000000000000000000000000000000000000000000000000000000600052601160045260246000fd5b7f4e487b7100000000000000000000000000000000000000000000000000000000600052602260045260246000fd5b7f4e487b7100000000000000000000000000000000000000000000000000000000600052604160045260246000fd5b600080fd5b600080fd5b600080fd5b600080fd5b6000601f19601f8301169050919050565b7f4f776e61626c653a206e6577206f776e657220697320746865207a65726f206160008201527f6464726573730000000000000000000000000000000000000000000000000000602082015250565b7f4f776e61626c653a2063616c6c6572206973206e6f7420746865206f776e6572600082015250565b6114188161118b565b811461142357600080fd5b50565b61142f8161119d565b811461143a57600080fd5b50565b611446816111db565b811461145157600080fd5b5056fea2646970667358221220b42ea597c3062941e2b3029dfd81a39a84a2c3a9f8e3c13b3c812bb325a4184664736f6c63430008060033",
  "immutableReferences": {},
  "source": "// SPDX-License-Identifier: MIT\npragma solidity ^0.8.0;\n\nimport \"@openzeppelin/contracts/access/Ownable.sol\";\n\n/// @title A contract generating Creator Tokens, as well as relevant attributes and mappings\n/// @author Kamil Alizai Sadik\ncontract CreatorTokenFactory is Ownable {\n\n\t// Event that fires whenever a new CreatorToken is created\n\tevent NewCreatorToken(uint tokenId, address payable creatorAddress, string name, string symbol, string description, bool verified, uint outstanding, uint maxSupply);\n\n\t// Pay-on-top style platform fee on each transaction\n\tuint platformFee = 1; // e.g., if platformFee == 1, the platform earns 1% of each transaction's value\n\t// Variable to track total platform fees generated\n\tuint public totalPlatformFees = 0;\n\t// Variable to track platform fees owed, but not yet paid to owner\n\tuint public platformFeesOwed = 0;\n\t// Variable to track number of unique creator tokens\n\tuint public numCreatorTokens = 0;\n\n\t// Profit margin (percentage of total revenue) directed toward creator\n\tuint profitMargin = 20;\n\n\t// Slope of buy price function\n\tuint mNumerator = 9000000000000;\n\tuint mDenominator = 185;\n\n\t// Struct containing CreatorToken attributes\n\tstruct CreatorToken {\n\t\taddress payable creatorAddress;\n\t\tstring name;\n\t\tstring symbol;\n\t\tstring description;\n\t\tbool verified;\n\t\tuint outstanding;\n\t\tuint maxSupply;\n\t}\n\n\t// Array of all CreatorTokens\n\tCreatorToken[] public creatorTokens;\n\n\t// Mapping from tokenId to creatorAddress\n\tmapping (uint => address) public tokenToCreator;\n\t// Mapping from tokenId to token value transferred to creator\n\tmapping (uint => uint) public tokenValueTransferred;\n\t// Mapping from tokenId to mapping from address to quantity of tokenId held\n\tmapping(uint256 => mapping(address => uint256)) public tokenHoldership;\n\t// Mapping from user to mapping from tokenId to quantity of that token the user owns (to show a user's portfolio without having to iterate through tokenHoldership)\n\tmapping(address => mapping(uint256 => uint256)) public userToHoldings;\n\t// Mapping from account to operator approvals\n\tmapping(address => mapping(address => bool)) public approvals;\n\t// Mapping from token to total value locked\n\tmapping (uint => uint) public totalValueLocked;\n\n\t/// @dev Creates a new creator token\n\t/// @param _creatorAddress Address of the creator of the token\n\t/// @param _name Name chosen by the creator of the token\n\t/// @param _symbol Ticker symbol chosen by the creator of the token\n\t/// @param _description chosen by the creator of the tokens\n\tfunction createCreatorToken(address payable _creatorAddress, string memory _name, string memory _symbol, string memory _description) public {\n\t\t// Add token to creatorTokens array\n\t\tcreatorTokens.push(CreatorToken(_creatorAddress, _name, _symbol, _description, false, 0, 0));\n\t\t// Create token id\n\t\tuint id = creatorTokens.length - 1;\n\t\t// Map from token id to creator's address\n\t\ttokenToCreator[id] = _creatorAddress;\n\t\t// Map from token id to amount of value transferred (0 at inception)\n\t\ttokenValueTransferred[id] = 0;\n\t\t// Increment number of creator tokens\n\t\tnumCreatorTokens++;\n\t\t// Emit token creation event\n\t\temit NewCreatorToken(id, _creatorAddress, _name, _symbol, _description, false, 0, 0);\n\t}\n}",
  "sourcePath": "/Users/kamilalizaisadik/DeFi/Dynamic Automated Market Maker/CreatorTokenExchange/contracts/creatortokenfactory.sol",
  "compiler": {
    "name": "solc",
    "version": "0.8.6+commit.11564f7e.Emscripten.clang"
  },
  "schemaVersion": "3.4.1",
  "updatedAt": "2021-07-31T18:06:31.482Z",
  "devdoc": {
    "author": "Kamil Alizai Sadik",
    "kind": "dev",
    "methods": {
      "createCreatorToken(address,string,string,string)": {
        "details": "Creates a new creator token",
        "params": {
          "_creatorAddress": "Address of the creator of the token",
          "_description": "chosen by the creator of the tokens",
          "_name": "Name chosen by the creator of the token",
          "_symbol": "Ticker symbol chosen by the creator of the token"
        }
      },
      "owner()": {
        "details": "Returns the address of the current owner."
      },
      "renounceOwnership()": {
        "details": "Leaves the contract without owner. It will not be possible to call `onlyOwner` functions anymore. Can only be called by the current owner. NOTE: Renouncing ownership will leave the contract without an owner, thereby removing any functionality that is only available to the owner."
      },
      "transferOwnership(address)": {
        "details": "Transfers ownership of the contract to a new account (`newOwner`). Can only be called by the current owner."
      }
    },
    "title": "A contract generating Creator Tokens, as well as relevant attributes and mappings",
    "version": 1
  },
  "userdoc": {
    "kind": "user",
    "methods": {},
    "version": 1
  }
}