{
  "contractName": "CreatorTokenHelper",
  "abi": [
    {
      "anonymous": false,
      "inputs": [
        {
          "indexed": false,
          "internalType": "uint256",
          "name": "tokenId",
          "type": "uint256"
        },
        {
          "indexed": false,
          "internalType": "address payable",
          "name": "creatorAddress",
          "type": "address"
        },
        {
          "indexed": false,
          "internalType": "string",
          "name": "name",
          "type": "string"
        },
        {
          "indexed": false,
          "internalType": "string",
          "name": "symbol",
          "type": "string"
        },
        {
          "indexed": false,
          "internalType": "string",
          "name": "description",
          "type": "string"
        },
        {
          "indexed": false,
          "internalType": "bool",
          "name": "verified",
          "type": "bool"
        },
        {
          "indexed": false,
          "internalType": "uint256",
          "name": "outstanding",
          "type": "uint256"
        },
        {
          "indexed": false,
          "internalType": "uint256",
          "name": "maxSupply",
          "type": "uint256"
        }
      ],
      "name": "NewCreatorToken",
      "type": "event"
    },
    {
      "anonymous": false,
      "inputs": [
        {
          "indexed": true,
          "internalType": "address",
          "name": "previousOwner",
          "type": "address"
        },
        {
          "indexed": true,
          "internalType": "address",
          "name": "newOwner",
          "type": "address"
        }
      ],
      "name": "OwnershipTransferred",
      "type": "event"
    },
    {
      "inputs": [
        {
          "internalType": "address",
          "name": "",
          "type": "address"
        },
        {
          "internalType": "address",
          "name": "",
          "type": "address"
        }
      ],
      "name": "approvals",
      "outputs": [
        {
          "internalType": "bool",
          "name": "",
          "type": "bool"
        }
      ],
      "stateMutability": "view",
      "type": "function"
    },
    {
      "inputs": [
        {
          "internalType": "address payable",
          "name": "_creatorAddress",
          "type": "address"
        },
        {
          "internalType": "string",
          "name": "_name",
          "type": "string"
        },
        {
          "internalType": "string",
          "name": "_symbol",
          "type": "string"
        },
        {
          "internalType": "string",
          "name": "_description",
          "type": "string"
        }
      ],
      "name": "createCreatorToken",
      "outputs": [],
      "stateMutability": "nonpayable",
      "type": "function"
    },
    {
      "inputs": [
        {
          "internalType": "uint256",
          "name": "",
          "type": "uint256"
        }
      ],
      "name": "creatorTokens",
      "outputs": [
        {
          "internalType": "address payable",
          "name": "creatorAddress",
          "type": "address"
        },
        {
          "internalType": "string",
          "name": "name",
          "type": "string"
        },
        {
          "internalType": "string",
          "name": "symbol",
          "type": "string"
        },
        {
          "internalType": "string",
          "name": "description",
          "type": "string"
        },
        {
          "internalType": "bool",
          "name": "verified",
          "type": "bool"
        },
        {
          "internalType": "uint256",
          "name": "outstanding",
          "type": "uint256"
        },
        {
          "internalType": "uint256",
          "name": "maxSupply",
          "type": "uint256"
        }
      ],
      "stateMutability": "view",
      "type": "function"
    },
    {
      "inputs": [],
      "name": "getCreatorTokenCount",
      "outputs": [
        {
          "internalType": "uint256",
          "name": "",
          "type": "uint256"
        }
      ],
      "stateMutability": "view",
      "type": "function"
    },
    {
      "inputs": [],
      "name": "numCreatorTokens",
      "outputs": [
        {
          "internalType": "uint256",
          "name": "",
          "type": "uint256"
        }
      ],
      "stateMutability": "view",
      "type": "function"
    },
    {
      "inputs": [],
      "name": "owner",
      "outputs": [
        {
          "internalType": "address",
          "name": "",
          "type": "address"
        }
      ],
      "stateMutability": "view",
      "type": "function"
    },
    {
      "inputs": [],
      "name": "platformFeesOwed",
      "outputs": [
        {
          "internalType": "uint256",
          "name": "",
          "type": "uint256"
        }
      ],
      "stateMutability": "view",
      "type": "function"
    },
    {
      "inputs": [],
      "name": "renounceOwnership",
      "outputs": [],
      "stateMutability": "nonpayable",
      "type": "function"
    },
    {
      "inputs": [
        {
          "internalType": "uint256",
          "name": "",
          "type": "uint256"
        },
        {
          "internalType": "address",
          "name": "",
          "type": "address"
        }
      ],
      "name": "tokenHoldership",
      "outputs": [
        {
          "internalType": "uint256",
          "name": "",
          "type": "uint256"
        }
      ],
      "stateMutability": "view",
      "type": "function"
    },
    {
      "inputs": [
        {
          "internalType": "uint256",
          "name": "",
          "type": "uint256"
        }
      ],
      "name": "tokenToCreator",
      "outputs": [
        {
          "internalType": "address",
          "name": "",
          "type": "address"
        }
      ],
      "stateMutability": "view",
      "type": "function"
    },
    {
      "inputs": [
        {
          "internalType": "uint256",
          "name": "",
          "type": "uint256"
        }
      ],
      "name": "tokenValueTransferred",
      "outputs": [
        {
          "internalType": "uint256",
          "name": "",
          "type": "uint256"
        }
      ],
      "stateMutability": "view",
      "type": "function"
    },
    {
      "inputs": [],
      "name": "totalPlatformFees",
      "outputs": [
        {
          "internalType": "uint256",
          "name": "",
          "type": "uint256"
        }
      ],
      "stateMutability": "view",
      "type": "function"
    },
    {
      "inputs": [
        {
          "internalType": "uint256",
          "name": "",
          "type": "uint256"
        }
      ],
      "name": "totalValueLocked",
      "outputs": [
        {
          "internalType": "uint256",
          "name": "",
          "type": "uint256"
        }
      ],
      "stateMutability": "view",
      "type": "function"
    },
    {
      "inputs": [
        {
          "internalType": "address",
          "name": "newOwner",
          "type": "address"
        }
      ],
      "name": "transferOwnership",
      "outputs": [],
      "stateMutability": "nonpayable",
      "type": "function"
    },
    {
      "inputs": [
        {
          "internalType": "address",
          "name": "",
          "type": "address"
        },
        {
          "internalType": "uint256",
          "name": "",
          "type": "uint256"
        }
      ],
      "name": "userToHoldings",
      "outputs": [
        {
          "internalType": "uint256",
          "name": "",
          "type": "uint256"
        }
      ],
      "stateMutability": "view",
      "type": "function"
    },
    {
      "inputs": [
        {
          "internalType": "address payable",
          "name": "_owner",
          "type": "address"
        }
      ],
      "name": "withdraw",
      "outputs": [],
      "stateMutability": "nonpayable",
      "type": "function"
    },
    {
      "inputs": [
        {
          "internalType": "address payable",
          "name": "_owner",
          "type": "address"
        }
      ],
      "name": "payoutPlatformFees",
      "outputs": [],
      "stateMutability": "nonpayable",
      "type": "function"
    },
    {
      "inputs": [
        {
          "internalType": "uint256",
          "name": "_newPlatformFee",
          "type": "uint256"
        }
      ],
      "name": "changePlatformFee",
      "outputs": [],
      "stateMutability": "nonpayable",
      "type": "function"
    },
    {
      "inputs": [
        {
          "internalType": "uint256",
          "name": "_newProfitMargin",
          "type": "uint256"
        }
      ],
      "name": "changeProfitMargin",
      "outputs": [],
      "stateMutability": "nonpayable",
      "type": "function"
    },
    {
      "inputs": [
        {
          "internalType": "uint256",
          "name": "_tokenId",
          "type": "uint256"
        },
        {
          "internalType": "bool",
          "name": "_verified",
          "type": "bool"
        }
      ],
      "name": "changeVerification",
      "outputs": [],
      "stateMutability": "nonpayable",
      "type": "function"
    },
    {
      "inputs": [
        {
          "internalType": "uint256",
          "name": "_tokenId",
          "type": "uint256"
        },
        {
          "internalType": "address payable",
          "name": "_newCreatorAddress",
          "type": "address"
        }
      ],
      "name": "changeAddress",
      "outputs": [],
      "stateMutability": "nonpayable",
      "type": "function"
    },
    {
      "inputs": [
        {
          "internalType": "uint256",
          "name": "_tokenId",
          "type": "uint256"
        },
        {
          "internalType": "string",
          "name": "_newName",
          "type": "string"
        }
      ],
      "name": "changeName",
      "outputs": [],
      "stateMutability": "nonpayable",
      "type": "function"
    },
    {
      "inputs": [
        {
          "internalType": "uint256",
          "name": "_tokenId",
          "type": "uint256"
        },
        {
          "internalType": "string",
          "name": "_newSymbol",
          "type": "string"
        }
      ],
      "name": "changeSymbol",
      "outputs": [],
      "stateMutability": "nonpayable",
      "type": "function"
    },
    {
      "inputs": [
        {
          "internalType": "uint256",
          "name": "_tokenId",
          "type": "uint256"
        },
        {
          "internalType": "string",
          "name": "_newDescription",
          "type": "string"
        }
      ],
      "name": "changeDescription",
      "outputs": [],
      "stateMutability": "nonpayable",
      "type": "function"
    }
  ],
  "bytecode": "0x608060405260018055600060025560006003556000600455601460055565082f79cd900060065560b960075534801561003757600080fd5b5060006100486100eb60201b60201c565b9050806000806101000a81548173ffffffffffffffffffffffffffffffffffffffff021916908373ffffffffffffffffffffffffffffffffffffffff1602179055508073ffffffffffffffffffffffffffffffffffffffff16600073ffffffffffffffffffffffffffffffffffffffff167f8be0079c531659141344cd1fd0a4f28419497f9722a3daafe3b4186f6b6457e060405160405180910390a3506100f3565b600033905090565b611e35806101026000396000f3fe608060405234801561001057600080fd5b50600436106101585760003560e01c8063c1d33049116100c3578063d7a5791a1161007c578063d7a5791a146103cb578063d9bd3a40146103e7578063de6a06ed14610417578063eb84175914610433578063f2fde38b1461044f578063f7374e2e1461046b57610158565b8063c1d3304914610305578063c39cbef114610323578063c539c3171461033f578063ce901d8a1461035b578063d3631fa514610391578063d56b72c7146103af57610158565b8063715018a611610115578063715018a61461022f5780638da5cb5b1461023957806392724afa14610257578063a32ce11e14610287578063afb21832146102b7578063bfb48c9c146102d557610158565b806306e320f51461015d57806317bcaa081461017957806318892ae8146101a95780631d5ad18b146101d95780632a2b237c146101f557806351cff8d914610213575b600080fd5b610177600480360381019061017291906117b7565b610487565b005b610193600480360381019061018e91906116ca565b61052e565b6040516101a091906119db565b60405180910390f35b6101c360048036038101906101be91906116ca565b610546565b6040516101d091906118e1565b60405180910390f35b6101f360048036038101906101ee9190611737565b610579565b005b6101fd61064e565b60405161020a91906119db565b60405180910390f35b61022d60048036038101906102289190611562565b61065b565b005b610237610721565b005b61024161085b565b60405161024e91906118e1565b60405180910390f35b610271600480360381019061026c919061168a565b610884565b60405161027e91906119db565b60405180910390f35b6102a1600480360381019061029c919061164a565b6108a9565b6040516102ae9190611980565b60405180910390f35b6102bf6108d8565b6040516102cc91906119db565b60405180910390f35b6102ef60048036038101906102ea91906116f7565b6108de565b6040516102fc91906119db565b60405180910390f35b61030d610903565b60405161031a91906119db565b60405180910390f35b61033d600480360381019061033891906117b7565b610909565b005b610359600480360381019061035491906116ca565b6109b0565b005b610375600480360381019061037091906116ca565b610a36565b60405161038897969594939291906118fc565b60405180910390f35b610399610c4d565b6040516103a691906119db565b60405180910390f35b6103c960048036038101906103c4919061158f565b610c53565b005b6103e560048036038101906103e091906116ca565b610e6f565b005b61040160048036038101906103fc91906116ca565b610ef5565b60405161040e91906119db565b60405180910390f35b610431600480360381019061042c91906117b7565b610f0d565b005b61044d60048036038101906104489190611562565b610fb4565b005b61046960048036038101906104649190611535565b611084565b005b61048560048036038101906104809190611777565b61122d565b005b826009600082815260200190815260200160002060009054906101000a900473ffffffffffffffffffffffffffffffffffffffff1673ffffffffffffffffffffffffffffffffffffffff163373ffffffffffffffffffffffffffffffffffffffff16146104f357600080fd5b82826008868154811061050957610508611c9e565b5b906000526020600020906007020160020191906105279291906112f2565b5050505050565b600a6020528060005260406000206000915090505481565b60096020528060005260406000206000915054906101000a900473ffffffffffffffffffffffffffffffffffffffff1681565b816009600082815260200190815260200160002060009054906101000a900473ffffffffffffffffffffffffffffffffffffffff1673ffffffffffffffffffffffffffffffffffffffff163373ffffffffffffffffffffffffffffffffffffffff16146105e557600080fd5b81600884815481106105fa576105f9611c9e565b5b906000526020600020906007020160000160006101000a81548173ffffffffffffffffffffffffffffffffffffffff021916908373ffffffffffffffffffffffffffffffffffffffff160217905550505050565b6000600880549050905090565b6106636112ea565b73ffffffffffffffffffffffffffffffffffffffff1661068161085b565b73ffffffffffffffffffffffffffffffffffffffff16146106d7576040517f08c379a00000000000000000000000000000000000000000000000000000000081526004016106ce906119bb565b60405180910390fd5b8073ffffffffffffffffffffffffffffffffffffffff166108fc479081150290604051600060405180830381858888f1935050505015801561071d573d6000803e3d6000fd5b5050565b6107296112ea565b73ffffffffffffffffffffffffffffffffffffffff1661074761085b565b73ffffffffffffffffffffffffffffffffffffffff161461079d576040517f08c379a0000000000000000000000000000000000000000000000000000000008152600401610794906119bb565b60405180910390fd5b600073ffffffffffffffffffffffffffffffffffffffff1660008054906101000a900473ffffffffffffffffffffffffffffffffffffffff1673ffffffffffffffffffffffffffffffffffffffff167f8be0079c531659141344cd1fd0a4f28419497f9722a3daafe3b4186f6b6457e060405160405180910390a360008060006101000a81548173ffffffffffffffffffffffffffffffffffffffff021916908373ffffffffffffffffffffffffffffffffffffffff160217905550565b60008060009054906101000a900473ffffffffffffffffffffffffffffffffffffffff16905090565b600c602052816000526040600020602052806000526040600020600091509150505481565b600d6020528160005260406000206020528060005260406000206000915091509054906101000a900460ff1681565b60045481565b600b602052816000526040600020602052806000526040600020600091509150505481565b60035481565b826009600082815260200190815260200160002060009054906101000a900473ffffffffffffffffffffffffffffffffffffffff1673ffffffffffffffffffffffffffffffffffffffff163373ffffffffffffffffffffffffffffffffffffffff161461097557600080fd5b82826008868154811061098b5761098a611c9e565b5b906000526020600020906007020160010191906109a99291906112f2565b5050505050565b6109b86112ea565b73ffffffffffffffffffffffffffffffffffffffff166109d661085b565b73ffffffffffffffffffffffffffffffffffffffff1614610a2c576040517f08c379a0000000000000000000000000000000000000000000000000000000008152600401610a23906119bb565b60405180910390fd5b8060058190555050565b60088181548110610a4657600080fd5b90600052602060002090600702016000915090508060000160009054906101000a900473ffffffffffffffffffffffffffffffffffffffff1690806001018054610a8f90611bdd565b80601f0160208091040260200160405190810160405280929190818152602001828054610abb90611bdd565b8015610b085780601f10610add57610100808354040283529160200191610b08565b820191906000526020600020905b815481529060010190602001808311610aeb57829003601f168201915b505050505090806002018054610b1d90611bdd565b80601f0160208091040260200160405190810160405280929190818152602001828054610b4990611bdd565b8015610b965780601f10610b6b57610100808354040283529160200191610b96565b820191906000526020600020905b815481529060010190602001808311610b7957829003601f168201915b505050505090806003018054610bab90611bdd565b80601f0160208091040260200160405190810160405280929190818152602001828054610bd790611bdd565b8015610c245780601f10610bf957610100808354040283529160200191610c24565b820191906000526020600020905b815481529060010190602001808311610c0757829003601f168201915b5050505050908060040160009054906101000a900460ff16908060050154908060060154905087565b60025481565b60086040518060e001604052808673ffffffffffffffffffffffffffffffffffffffff168152602001858152602001848152602001838152602001600015158152602001600081526020016000815250908060018154018082558091505060019003906000526020600020906007020160009091909190915060008201518160000160006101000a81548173ffffffffffffffffffffffffffffffffffffffff021916908373ffffffffffffffffffffffffffffffffffffffff1602179055506020820151816001019080519060200190610d2f929190611378565b506040820151816002019080519060200190610d4c929190611378565b506060820151816003019080519060200190610d69929190611378565b5060808201518160040160006101000a81548160ff02191690831515021790555060a0820151816005015560c08201518160060155505060006001600880549050610db49190611afb565b9050846009600083815260200190815260200160002060006101000a81548173ffffffffffffffffffffffffffffffffffffffff021916908373ffffffffffffffffffffffffffffffffffffffff1602179055506000600a6000838152602001908152602001600020819055507f3ef624c0f3fb7ad40b94c02078ea3e3a797dbfc21e921ee4bd2b8ad0ca6aa11381868686866000806000604051610e609897969594939291906119f6565b60405180910390a15050505050565b610e776112ea565b73ffffffffffffffffffffffffffffffffffffffff16610e9561085b565b73ffffffffffffffffffffffffffffffffffffffff1614610eeb576040517f08c379a0000000000000000000000000000000000000000000000000000000008152600401610ee2906119bb565b60405180910390fd5b8060018190555050565b600e6020528060005260406000206000915090505481565b826009600082815260200190815260200160002060009054906101000a900473ffffffffffffffffffffffffffffffffffffffff1673ffffffffffffffffffffffffffffffffffffffff163373ffffffffffffffffffffffffffffffffffffffff1614610f7957600080fd5b828260088681548110610f8f57610f8e611c9e565b5b90600052602060002090600702016003019190610fad9291906112f2565b5050505050565b610fbc6112ea565b73ffffffffffffffffffffffffffffffffffffffff16610fda61085b565b73ffffffffffffffffffffffffffffffffffffffff1614611030576040517f08c379a0000000000000000000000000000000000000000000000000000000008152600401611027906119bb565b60405180910390fd5b8073ffffffffffffffffffffffffffffffffffffffff166108fc6003549081150290604051600060405180830381858888f19350505050158015611078573d6000803e3d6000fd5b50600060038190555050565b61108c6112ea565b73ffffffffffffffffffffffffffffffffffffffff166110aa61085b565b73ffffffffffffffffffffffffffffffffffffffff1614611100576040517f08c379a00000000000000000000000000000000000000000000000000000000081526004016110f7906119bb565b60405180910390fd5b600073ffffffffffffffffffffffffffffffffffffffff168173ffffffffffffffffffffffffffffffffffffffff161415611170576040517f08c379a00000000000000000000000000000000000000000000000000000000081526004016111679061199b565b60405180910390fd5b8073ffffffffffffffffffffffffffffffffffffffff1660008054906101000a900473ffffffffffffffffffffffffffffffffffffffff1673ffffffffffffffffffffffffffffffffffffffff167f8be0079c531659141344cd1fd0a4f28419497f9722a3daafe3b4186f6b6457e060405160405180910390a3806000806101000a81548173ffffffffffffffffffffffffffffffffffffffff021916908373ffffffffffffffffffffffffffffffffffffffff16021790555050565b6112356112ea565b73ffffffffffffffffffffffffffffffffffffffff1661125361085b565b73ffffffffffffffffffffffffffffffffffffffff16146112a9576040517f08c379a00000000000000000000000000000000000000000000000000000000081526004016112a0906119bb565b60405180910390fd5b80600883815481106112be576112bd611c9e565b5b906000526020600020906007020160040160006101000a81548160ff0219169083151502179055505050565b600033905090565b8280546112fe90611bdd565b90600052602060002090601f0160209004810192826113205760008555611367565b82601f1061133957803560ff1916838001178555611367565b82800160010185558215611367579182015b8281111561136657823582559160200191906001019061134b565b5b50905061137491906113fe565b5090565b82805461138490611bdd565b90600052602060002090601f0160209004810192826113a657600085556113ed565b82601f106113bf57805160ff19168380011785556113ed565b828001600101855582156113ed579182015b828111156113ec5782518255916020019190600101906113d1565b5b5090506113fa91906113fe565b5090565b5b808211156114175760008160009055506001016113ff565b5090565b600061142e61142984611aae565b611a89565b90508281526020810184848401111561144a57611449611d0b565b5b611455848285611b9b565b509392505050565b60008135905061146c81611da3565b92915050565b60008135905061148181611dba565b92915050565b60008135905061149681611dd1565b92915050565b60008083601f8401126114b2576114b1611d01565b5b8235905067ffffffffffffffff8111156114cf576114ce611cfc565b5b6020830191508360018202830111156114eb576114ea611d06565b5b9250929050565b600082601f83011261150757611506611d01565b5b813561151784826020860161141b565b91505092915050565b60008135905061152f81611de8565b92915050565b60006020828403121561154b5761154a611d15565b5b60006115598482850161145d565b91505092915050565b60006020828403121561157857611577611d15565b5b600061158684828501611472565b91505092915050565b600080600080608085870312156115a9576115a8611d15565b5b60006115b787828801611472565b945050602085013567ffffffffffffffff8111156115d8576115d7611d10565b5b6115e4878288016114f2565b935050604085013567ffffffffffffffff81111561160557611604611d10565b5b611611878288016114f2565b925050606085013567ffffffffffffffff81111561163257611631611d10565b5b61163e878288016114f2565b91505092959194509250565b6000806040838503121561166157611660611d15565b5b600061166f8582860161145d565b92505060206116808582860161145d565b9150509250929050565b600080604083850312156116a1576116a0611d15565b5b60006116af8582860161145d565b92505060206116c085828601611520565b9150509250929050565b6000602082840312156116e0576116df611d15565b5b60006116ee84828501611520565b91505092915050565b6000806040838503121561170e5761170d611d15565b5b600061171c85828601611520565b925050602061172d8582860161145d565b9150509250929050565b6000806040838503121561174e5761174d611d15565b5b600061175c85828601611520565b925050602061176d85828601611472565b9150509250929050565b6000806040838503121561178e5761178d611d15565b5b600061179c85828601611520565b92505060206117ad85828601611487565b9150509250929050565b6000806000604084860312156117d0576117cf611d15565b5b60006117de86828701611520565b935050602084013567ffffffffffffffff8111156117ff576117fe611d10565b5b61180b8682870161149c565b92509250509250925092565b61182081611b41565b82525050565b61182f81611b2f565b82525050565b61183e81611b53565b82525050565b61184d81611b89565b82525050565b600061185e82611adf565b6118688185611aea565b9350611878818560208601611baa565b61188181611d1a565b840191505092915050565b6000611899602683611aea565b91506118a482611d2b565b604082019050919050565b60006118bc602083611aea565b91506118c782611d7a565b602082019050919050565b6118db81611b7f565b82525050565b60006020820190506118f66000830184611826565b92915050565b600060e082019050611911600083018a611817565b81810360208301526119238189611853565b905081810360408301526119378188611853565b9050818103606083015261194b8187611853565b905061195a6080830186611835565b61196760a08301856118d2565b61197460c08301846118d2565b98975050505050505050565b60006020820190506119956000830184611835565b92915050565b600060208201905081810360008301526119b48161188c565b9050919050565b600060208201905081810360008301526119d4816118af565b9050919050565b60006020820190506119f060008301846118d2565b92915050565b600061010082019050611a0c600083018b6118d2565b611a19602083018a611817565b8181036040830152611a2b8189611853565b90508181036060830152611a3f8188611853565b90508181036080830152611a538187611853565b9050611a6260a0830186611835565b611a6f60c0830185611844565b611a7c60e0830184611844565b9998505050505050505050565b6000611a93611aa4565b9050611a9f8282611c0f565b919050565b6000604051905090565b600067ffffffffffffffff821115611ac957611ac8611ccd565b5b611ad282611d1a565b9050602081019050919050565b600081519050919050565b600082825260208201905092915050565b6000611b0682611b7f565b9150611b1183611b7f565b925082821015611b2457611b23611c40565b5b828203905092915050565b6000611b3a82611b5f565b9050919050565b6000611b4c82611b5f565b9050919050565b60008115159050919050565b600073ffffffffffffffffffffffffffffffffffffffff82169050919050565b6000819050919050565b6000611b9482611b7f565b9050919050565b82818337600083830152505050565b60005b83811015611bc8578082015181840152602081019050611bad565b83811115611bd7576000848401525b50505050565b60006002820490506001821680611bf557607f821691505b60208210811415611c0957611c08611c6f565b5b50919050565b611c1882611d1a565b810181811067ffffffffffffffff82111715611c3757611c36611ccd565b5b80604052505050565b7f4e487b7100000000000000000000000000000000000000000000000000000000600052601160045260246000fd5b7f4e487b7100000000000000000000000000000000000000000000000000000000600052602260045260246000fd5b7f4e487b7100000000000000000000000000000000000000000000000000000000600052603260045260246000fd5b7f4e487b7100000000000000000000000000000000000000000000000000000000600052604160045260246000fd5b600080fd5b600080fd5b600080fd5b600080fd5b600080fd5b600080fd5b6000601f19601f8301169050919050565b7f4f776e61626c653a206e6577206f776e657220697320746865207a65726f206160008201527f6464726573730000000000000000000000000000000000000000000000000000602082015250565b7f4f776e61626c653a2063616c6c6572206973206e6f7420746865206f776e6572600082015250565b611dac81611b2f565b8114611db757600080fd5b50565b611dc381611b41565b8114611dce57600080fd5b50565b611dda81611b53565b8114611de557600080fd5b50565b611df181611b7f565b8114611dfc57600080fd5b5056fea2646970667358221220ab798de45b7136f820202dd98408e4a34928a393c8c2c6ad30a8a682d5f7e35d64736f6c63430008070033",
  "immutableReferences": {},
  "source": "// SPDX-License-Identifier: MIT\npragma solidity ^0.8.0;\n\nimport \"./creatortokenfactory.sol\";\n\n/// @title A contract with helper functions enabling Owner- and creator-specific functions\n/// @author Kamil Alizai Sadik\ncontract CreatorTokenHelper is CreatorTokenFactory {\n\n\t/// @dev Modifier checking whether user is creator of the token\n\t/// @param _tokenId ID of the token in question\n\tmodifier onlyCreatorOf(uint _tokenId) {\n\t\trequire(msg.sender == tokenToCreator[_tokenId]);\n\t\t_;\n\t}\n\n\t/// @dev Ownable function allowing for withdrawal\n\t/// @param _owner Owner of the smart contract\n\tfunction withdraw(address payable _owner) external onlyOwner {\n\t\t_owner.transfer(address(this).balance);\n\t}\n\n\t/// @dev Pays out platform fees owed to owner (might opt to call this daily)\n\t/// @param _owner Owner of the smart contract\n\tfunction payoutPlatformFees(address payable _owner) external onlyOwner {\n\t\t_owner.transfer(platformFeesOwed);\n\t\t// Reset platformFeesOwed to zero after payout\n\t\tplatformFeesOwed = 0;\n\t}\n\n\t/// @dev Allows owner to change platformFee\n\t/// @param _newPlatformFee New platform fee\n\tfunction changePlatformFee(uint _newPlatformFee) external onlyOwner {\n\t\tplatformFee = _newPlatformFee;\n\t}\n\n\t/// @dev Allows owner to change profit_margin\n\t/// @param _newProfitMargin New profit margin\n\tfunction changeProfitMargin(uint _newProfitMargin) external onlyOwner {\n\t\tprofitMargin = _newProfitMargin;\n\t}\n\n\t/// @dev Allows owner to verify (or undo verification) of a CreatorToken\n\t/// @param _tokenId ID of the token in question\n\t/// @param _verified Verification status of the token in question\n\tfunction changeVerification(uint _tokenId, bool _verified) external onlyOwner {\n\t\tcreatorTokens[_tokenId].verified = _verified;\n\t}\n\n\t/// @dev Allows token creator to change their address\n\t/// @param _tokenId ID of the token in question\n\t/// @param _newCreatorAddress New creator address associated with the token\n\tfunction changeAddress(uint _tokenId, address payable _newCreatorAddress) external onlyCreatorOf(_tokenId) {\n\t\tcreatorTokens[_tokenId].creatorAddress = _newCreatorAddress;\n\t}\n\n\t/// @dev Allows token creator to change the name of their token\n\t/// @param _tokenId ID of the token in question\n\t/// @param _newName New name associated with the token\n\tfunction changeName(uint _tokenId, string calldata _newName) external onlyCreatorOf(_tokenId) {\n\t\tcreatorTokens[_tokenId].name = _newName;\n\t}\n\n\t/// @dev Allows token creator to change the symbol of their token\n\t/// @param _tokenId ID of the token in question\n\t/// @param _newSymbol New symbol associated with the token\n\tfunction changeSymbol(uint _tokenId, string calldata _newSymbol) external onlyCreatorOf(_tokenId) {\n\t\tcreatorTokens[_tokenId].symbol = _newSymbol;\n\t}\n\n\t/// @dev Allows token creator to change the description of their token\n\t/// @param _tokenId ID of the token in question\n\t/// @param _newDescription New description associated with the token\n\tfunction changeDescription(uint _tokenId, string calldata _newDescription) external onlyCreatorOf(_tokenId) {\n\t\tcreatorTokens[_tokenId].description = _newDescription;\n\t}\n}",
  "sourcePath": "/Users/kamilalizaisadik/DeFi/Dynamic Automated Market Maker/CreatorTokenExchange/contracts/creatortokenhelper.sol",
  "compiler": {
    "name": "solc",
    "version": "0.8.7+commit.e28d00a7.Emscripten.clang"
  },
  "schemaVersion": "3.4.1",
  "updatedAt": "2021-08-12T00:33:56.999Z",
  "devdoc": {
    "author": "Kamil Alizai Sadik",
    "kind": "dev",
    "methods": {
      "changeAddress(uint256,address)": {
        "details": "Allows token creator to change their address",
        "params": {
          "_newCreatorAddress": "New creator address associated with the token",
          "_tokenId": "ID of the token in question"
        }
      },
      "changeDescription(uint256,string)": {
        "details": "Allows token creator to change the description of their token",
        "params": {
          "_newDescription": "New description associated with the token",
          "_tokenId": "ID of the token in question"
        }
      },
      "changeName(uint256,string)": {
        "details": "Allows token creator to change the name of their token",
        "params": {
          "_newName": "New name associated with the token",
          "_tokenId": "ID of the token in question"
        }
      },
      "changePlatformFee(uint256)": {
        "details": "Allows owner to change platformFee",
        "params": {
          "_newPlatformFee": "New platform fee"
        }
      },
      "changeProfitMargin(uint256)": {
        "details": "Allows owner to change profit_margin",
        "params": {
          "_newProfitMargin": "New profit margin"
        }
      },
      "changeSymbol(uint256,string)": {
        "details": "Allows token creator to change the symbol of their token",
        "params": {
          "_newSymbol": "New symbol associated with the token",
          "_tokenId": "ID of the token in question"
        }
      },
      "changeVerification(uint256,bool)": {
        "details": "Allows owner to verify (or undo verification) of a CreatorToken",
        "params": {
          "_tokenId": "ID of the token in question",
          "_verified": "Verification status of the token in question"
        }
      },
      "createCreatorToken(address,string,string,string)": {
        "details": "Creates a new creator token",
        "params": {
          "_creatorAddress": "Address of the creator of the token",
          "_description": "chosen by the creator of the tokens",
          "_name": "Name chosen by the creator of the token",
          "_symbol": "Ticker symbol chosen by the creator of the token"
        }
      },
      "getCreatorTokenCount()": {
        "details": "Returns the current length of the creatorTokens array",
        "returns": {
          "_0": "uint representing number of unique Creator Tokens"
        }
      },
      "owner()": {
        "details": "Returns the address of the current owner."
      },
      "payoutPlatformFees(address)": {
        "details": "Pays out platform fees owed to owner (might opt to call this daily)",
        "params": {
          "_owner": "Owner of the smart contract"
        }
      },
      "renounceOwnership()": {
        "details": "Leaves the contract without owner. It will not be possible to call `onlyOwner` functions anymore. Can only be called by the current owner. NOTE: Renouncing ownership will leave the contract without an owner, thereby removing any functionality that is only available to the owner."
      },
      "transferOwnership(address)": {
        "details": "Transfers ownership of the contract to a new account (`newOwner`). Can only be called by the current owner."
      },
      "withdraw(address)": {
        "details": "Ownable function allowing for withdrawal",
        "params": {
          "_owner": "Owner of the smart contract"
        }
      }
    },
    "title": "A contract with helper functions enabling Owner- and creator-specific functions",
    "version": 1
  },
  "userdoc": {
    "kind": "user",
    "methods": {},
    "version": 1
  }
}