{
  "contractName": "CreatorTokenExchange",
  "abi": [
    {
      "inputs": [
        {
          "internalType": "string",
          "name": "uri",
          "type": "string"
        }
      ],
      "stateMutability": "nonpayable",
      "type": "constructor"
    },
    {
      "anonymous": false,
      "inputs": [
        {
          "indexed": true,
          "internalType": "address",
          "name": "account",
          "type": "address"
        },
        {
          "indexed": true,
          "internalType": "address",
          "name": "operator",
          "type": "address"
        },
        {
          "indexed": false,
          "internalType": "bool",
          "name": "approved",
          "type": "bool"
        }
      ],
      "name": "ApprovalForAll",
      "type": "event"
    },
    {
      "anonymous": false,
      "inputs": [
        {
          "indexed": false,
          "internalType": "uint256",
          "name": "tokenId",
          "type": "uint256"
        },
        {
          "indexed": false,
          "internalType": "string",
          "name": "name",
          "type": "string"
        },
        {
          "indexed": false,
          "internalType": "string",
          "name": "symbol",
          "type": "string"
        }
      ],
      "name": "NewCreatorToken",
      "type": "event"
    },
    {
      "anonymous": false,
      "inputs": [
        {
          "indexed": false,
          "internalType": "uint256",
          "name": "amount",
          "type": "uint256"
        },
        {
          "indexed": false,
          "internalType": "string",
          "name": "transactionType",
          "type": "string"
        },
        {
          "indexed": false,
          "internalType": "uint256",
          "name": "tokenId",
          "type": "uint256"
        },
        {
          "indexed": false,
          "internalType": "string",
          "name": "name",
          "type": "string"
        },
        {
          "indexed": false,
          "internalType": "string",
          "name": "symbol",
          "type": "string"
        }
      ],
      "name": "NewTransaction",
      "type": "event"
    },
    {
      "anonymous": false,
      "inputs": [
        {
          "indexed": true,
          "internalType": "address",
          "name": "previousOwner",
          "type": "address"
        },
        {
          "indexed": true,
          "internalType": "address",
          "name": "newOwner",
          "type": "address"
        }
      ],
      "name": "OwnershipTransferred",
      "type": "event"
    },
    {
      "anonymous": false,
      "inputs": [
        {
          "indexed": false,
          "internalType": "address",
          "name": "account",
          "type": "address"
        }
      ],
      "name": "Paused",
      "type": "event"
    },
    {
      "anonymous": false,
      "inputs": [
        {
          "indexed": true,
          "internalType": "bytes32",
          "name": "role",
          "type": "bytes32"
        },
        {
          "indexed": true,
          "internalType": "bytes32",
          "name": "previousAdminRole",
          "type": "bytes32"
        },
        {
          "indexed": true,
          "internalType": "bytes32",
          "name": "newAdminRole",
          "type": "bytes32"
        }
      ],
      "name": "RoleAdminChanged",
      "type": "event"
    },
    {
      "anonymous": false,
      "inputs": [
        {
          "indexed": true,
          "internalType": "bytes32",
          "name": "role",
          "type": "bytes32"
        },
        {
          "indexed": true,
          "internalType": "address",
          "name": "account",
          "type": "address"
        },
        {
          "indexed": true,
          "internalType": "address",
          "name": "sender",
          "type": "address"
        }
      ],
      "name": "RoleGranted",
      "type": "event"
    },
    {
      "anonymous": false,
      "inputs": [
        {
          "indexed": true,
          "internalType": "bytes32",
          "name": "role",
          "type": "bytes32"
        },
        {
          "indexed": true,
          "internalType": "address",
          "name": "account",
          "type": "address"
        },
        {
          "indexed": true,
          "internalType": "address",
          "name": "sender",
          "type": "address"
        }
      ],
      "name": "RoleRevoked",
      "type": "event"
    },
    {
      "anonymous": false,
      "inputs": [
        {
          "indexed": true,
          "internalType": "address",
          "name": "operator",
          "type": "address"
        },
        {
          "indexed": true,
          "internalType": "address",
          "name": "from",
          "type": "address"
        },
        {
          "indexed": true,
          "internalType": "address",
          "name": "to",
          "type": "address"
        },
        {
          "indexed": false,
          "internalType": "uint256[]",
          "name": "ids",
          "type": "uint256[]"
        },
        {
          "indexed": false,
          "internalType": "uint256[]",
          "name": "values",
          "type": "uint256[]"
        }
      ],
      "name": "TransferBatch",
      "type": "event"
    },
    {
      "anonymous": false,
      "inputs": [
        {
          "indexed": true,
          "internalType": "address",
          "name": "operator",
          "type": "address"
        },
        {
          "indexed": true,
          "internalType": "address",
          "name": "from",
          "type": "address"
        },
        {
          "indexed": true,
          "internalType": "address",
          "name": "to",
          "type": "address"
        },
        {
          "indexed": false,
          "internalType": "uint256",
          "name": "id",
          "type": "uint256"
        },
        {
          "indexed": false,
          "internalType": "uint256",
          "name": "value",
          "type": "uint256"
        }
      ],
      "name": "TransferSingle",
      "type": "event"
    },
    {
      "anonymous": false,
      "inputs": [
        {
          "indexed": false,
          "internalType": "string",
          "name": "value",
          "type": "string"
        },
        {
          "indexed": true,
          "internalType": "uint256",
          "name": "id",
          "type": "uint256"
        }
      ],
      "name": "URI",
      "type": "event"
    },
    {
      "anonymous": false,
      "inputs": [
        {
          "indexed": false,
          "internalType": "address",
          "name": "account",
          "type": "address"
        }
      ],
      "name": "Unpaused",
      "type": "event"
    },
    {
      "inputs": [],
      "name": "DEFAULT_ADMIN_ROLE",
      "outputs": [
        {
          "internalType": "bytes32",
          "name": "",
          "type": "bytes32"
        }
      ],
      "stateMutability": "view",
      "type": "function"
    },
    {
      "inputs": [],
      "name": "MINTER_ROLE",
      "outputs": [
        {
          "internalType": "bytes32",
          "name": "",
          "type": "bytes32"
        }
      ],
      "stateMutability": "view",
      "type": "function"
    },
    {
      "inputs": [],
      "name": "PAUSER_ROLE",
      "outputs": [
        {
          "internalType": "bytes32",
          "name": "",
          "type": "bytes32"
        }
      ],
      "stateMutability": "view",
      "type": "function"
    },
    {
      "inputs": [
        {
          "internalType": "address",
          "name": "_account",
          "type": "address"
        },
        {
          "internalType": "uint256",
          "name": "_id",
          "type": "uint256"
        }
      ],
      "name": "balanceOf",
      "outputs": [
        {
          "internalType": "uint256",
          "name": "",
          "type": "uint256"
        }
      ],
      "stateMutability": "view",
      "type": "function"
    },
    {
      "inputs": [
        {
          "internalType": "address[]",
          "name": "_accounts",
          "type": "address[]"
        },
        {
          "internalType": "uint256[]",
          "name": "_ids",
          "type": "uint256[]"
        }
      ],
      "name": "balanceOfBatch",
      "outputs": [
        {
          "internalType": "uint256[]",
          "name": "",
          "type": "uint256[]"
        }
      ],
      "stateMutability": "view",
      "type": "function"
    },
    {
      "inputs": [
        {
          "internalType": "address",
          "name": "_account",
          "type": "address"
        },
        {
          "internalType": "uint256",
          "name": "_id",
          "type": "uint256"
        },
        {
          "internalType": "uint256",
          "name": "_amount",
          "type": "uint256"
        }
      ],
      "name": "burn",
      "outputs": [],
      "stateMutability": "nonpayable",
      "type": "function"
    },
    {
      "inputs": [
        {
          "internalType": "address",
          "name": "_account",
          "type": "address"
        },
        {
          "internalType": "uint256[]",
          "name": "_ids",
          "type": "uint256[]"
        },
        {
          "internalType": "uint256[]",
          "name": "_amounts",
          "type": "uint256[]"
        }
      ],
      "name": "burnBatch",
      "outputs": [],
      "stateMutability": "nonpayable",
      "type": "function"
    },
    {
      "inputs": [
        {
          "internalType": "uint256",
          "name": "_tokenId",
          "type": "uint256"
        },
        {
          "internalType": "address payable",
          "name": "_newCreatorAddress",
          "type": "address"
        }
      ],
      "name": "changeAddress",
      "outputs": [],
      "stateMutability": "nonpayable",
      "type": "function"
    },
    {
      "inputs": [
        {
          "internalType": "uint256",
          "name": "_tokenId",
          "type": "uint256"
        },
        {
          "internalType": "string",
          "name": "_newDescription",
          "type": "string"
        }
      ],
      "name": "changeDescriptoin",
      "outputs": [],
      "stateMutability": "nonpayable",
      "type": "function"
    },
    {
      "inputs": [
        {
          "internalType": "uint256",
          "name": "_tokenId",
          "type": "uint256"
        },
        {
          "internalType": "string",
          "name": "_newName",
          "type": "string"
        }
      ],
      "name": "changeName",
      "outputs": [],
      "stateMutability": "nonpayable",
      "type": "function"
    },
    {
      "inputs": [
        {
          "internalType": "uint256",
          "name": "_newPlatformFee",
          "type": "uint256"
        }
      ],
      "name": "changePlatformFee",
      "outputs": [],
      "stateMutability": "nonpayable",
      "type": "function"
    },
    {
      "inputs": [
        {
          "internalType": "uint256",
          "name": "_newProfitMargin",
          "type": "uint256"
        }
      ],
      "name": "changeProfitMargin",
      "outputs": [],
      "stateMutability": "nonpayable",
      "type": "function"
    },
    {
      "inputs": [
        {
          "internalType": "uint256",
          "name": "_tokenId",
          "type": "uint256"
        },
        {
          "internalType": "string",
          "name": "_newSymbol",
          "type": "string"
        }
      ],
      "name": "changeSymbol",
      "outputs": [],
      "stateMutability": "nonpayable",
      "type": "function"
    },
    {
      "inputs": [
        {
          "internalType": "uint256",
          "name": "_tokenId",
          "type": "uint256"
        },
        {
          "internalType": "bool",
          "name": "_verified",
          "type": "bool"
        }
      ],
      "name": "changeVerification",
      "outputs": [],
      "stateMutability": "nonpayable",
      "type": "function"
    },
    {
      "inputs": [
        {
          "internalType": "address payable",
          "name": "_creatorAddress",
          "type": "address"
        },
        {
          "internalType": "string",
          "name": "_name",
          "type": "string"
        },
        {
          "internalType": "string",
          "name": "_symbol",
          "type": "string"
        },
        {
          "internalType": "string",
          "name": "_description",
          "type": "string"
        }
      ],
      "name": "createCreatorToken",
      "outputs": [],
      "stateMutability": "nonpayable",
      "type": "function"
    },
    {
      "inputs": [
        {
          "internalType": "uint256",
          "name": "",
          "type": "uint256"
        }
      ],
      "name": "creatorTokens",
      "outputs": [
        {
          "internalType": "address payable",
          "name": "creatorAddress",
          "type": "address"
        },
        {
          "internalType": "string",
          "name": "name",
          "type": "string"
        },
        {
          "internalType": "string",
          "name": "symbol",
          "type": "string"
        },
        {
          "internalType": "string",
          "name": "description",
          "type": "string"
        },
        {
          "internalType": "bool",
          "name": "verified",
          "type": "bool"
        },
        {
          "internalType": "uint256",
          "name": "outstanding",
          "type": "uint256"
        },
        {
          "internalType": "uint256",
          "name": "maxSupply",
          "type": "uint256"
        }
      ],
      "stateMutability": "view",
      "type": "function"
    },
    {
      "inputs": [
        {
          "internalType": "bytes32",
          "name": "role",
          "type": "bytes32"
        }
      ],
      "name": "getRoleAdmin",
      "outputs": [
        {
          "internalType": "bytes32",
          "name": "",
          "type": "bytes32"
        }
      ],
      "stateMutability": "view",
      "type": "function"
    },
    {
      "inputs": [
        {
          "internalType": "bytes32",
          "name": "role",
          "type": "bytes32"
        },
        {
          "internalType": "uint256",
          "name": "index",
          "type": "uint256"
        }
      ],
      "name": "getRoleMember",
      "outputs": [
        {
          "internalType": "address",
          "name": "",
          "type": "address"
        }
      ],
      "stateMutability": "view",
      "type": "function"
    },
    {
      "inputs": [
        {
          "internalType": "bytes32",
          "name": "role",
          "type": "bytes32"
        }
      ],
      "name": "getRoleMemberCount",
      "outputs": [
        {
          "internalType": "uint256",
          "name": "",
          "type": "uint256"
        }
      ],
      "stateMutability": "view",
      "type": "function"
    },
    {
      "inputs": [
        {
          "internalType": "bytes32",
          "name": "role",
          "type": "bytes32"
        },
        {
          "internalType": "address",
          "name": "account",
          "type": "address"
        }
      ],
      "name": "grantRole",
      "outputs": [],
      "stateMutability": "nonpayable",
      "type": "function"
    },
    {
      "inputs": [
        {
          "internalType": "bytes32",
          "name": "role",
          "type": "bytes32"
        },
        {
          "internalType": "address",
          "name": "account",
          "type": "address"
        }
      ],
      "name": "hasRole",
      "outputs": [
        {
          "internalType": "bool",
          "name": "",
          "type": "bool"
        }
      ],
      "stateMutability": "view",
      "type": "function"
    },
    {
      "inputs": [
        {
          "internalType": "address",
          "name": "_account",
          "type": "address"
        },
        {
          "internalType": "address",
          "name": "_operator",
          "type": "address"
        }
      ],
      "name": "isApprovedForAll",
      "outputs": [
        {
          "internalType": "bool",
          "name": "",
          "type": "bool"
        }
      ],
      "stateMutability": "view",
      "type": "function"
    },
    {
      "inputs": [
        {
          "internalType": "address",
          "name": "_to",
          "type": "address"
        },
        {
          "internalType": "uint256",
          "name": "_id",
          "type": "uint256"
        },
        {
          "internalType": "uint256",
          "name": "_amount",
          "type": "uint256"
        },
        {
          "internalType": "bytes",
          "name": "_data",
          "type": "bytes"
        }
      ],
      "name": "mint",
      "outputs": [],
      "stateMutability": "nonpayable",
      "type": "function"
    },
    {
      "inputs": [
        {
          "internalType": "address",
          "name": "_to",
          "type": "address"
        },
        {
          "internalType": "uint256[]",
          "name": "_ids",
          "type": "uint256[]"
        },
        {
          "internalType": "uint256[]",
          "name": "_amounts",
          "type": "uint256[]"
        },
        {
          "internalType": "bytes",
          "name": "data",
          "type": "bytes"
        }
      ],
      "name": "mintBatch",
      "outputs": [],
      "stateMutability": "nonpayable",
      "type": "function"
    },
    {
      "inputs": [],
      "name": "owner",
      "outputs": [
        {
          "internalType": "address",
          "name": "",
          "type": "address"
        }
      ],
      "stateMutability": "view",
      "type": "function"
    },
    {
      "inputs": [],
      "name": "pause",
      "outputs": [],
      "stateMutability": "nonpayable",
      "type": "function"
    },
    {
      "inputs": [],
      "name": "paused",
      "outputs": [
        {
          "internalType": "bool",
          "name": "",
          "type": "bool"
        }
      ],
      "stateMutability": "view",
      "type": "function"
    },
    {
      "inputs": [
        {
          "internalType": "address payable",
          "name": "_owner",
          "type": "address"
        }
      ],
      "name": "payoutPlatformFees",
      "outputs": [],
      "stateMutability": "nonpayable",
      "type": "function"
    },
    {
      "inputs": [],
      "name": "renounceOwnership",
      "outputs": [],
      "stateMutability": "nonpayable",
      "type": "function"
    },
    {
      "inputs": [
        {
          "internalType": "bytes32",
          "name": "role",
          "type": "bytes32"
        },
        {
          "internalType": "address",
          "name": "account",
          "type": "address"
        }
      ],
      "name": "renounceRole",
      "outputs": [],
      "stateMutability": "nonpayable",
      "type": "function"
    },
    {
      "inputs": [
        {
          "internalType": "bytes32",
          "name": "role",
          "type": "bytes32"
        },
        {
          "internalType": "address",
          "name": "account",
          "type": "address"
        }
      ],
      "name": "revokeRole",
      "outputs": [],
      "stateMutability": "nonpayable",
      "type": "function"
    },
    {
      "inputs": [
        {
          "internalType": "address",
          "name": "_from",
          "type": "address"
        },
        {
          "internalType": "address",
          "name": "_to",
          "type": "address"
        },
        {
          "internalType": "uint256[]",
          "name": "_ids",
          "type": "uint256[]"
        },
        {
          "internalType": "uint256[]",
          "name": "_amounts",
          "type": "uint256[]"
        },
        {
          "internalType": "bytes",
          "name": "data",
          "type": "bytes"
        }
      ],
      "name": "safeBatchTransferFrom",
      "outputs": [],
      "stateMutability": "nonpayable",
      "type": "function"
    },
    {
      "inputs": [
        {
          "internalType": "address",
          "name": "_from",
          "type": "address"
        },
        {
          "internalType": "address",
          "name": "_to",
          "type": "address"
        },
        {
          "internalType": "uint256",
          "name": "_id",
          "type": "uint256"
        },
        {
          "internalType": "uint256",
          "name": "_amount",
          "type": "uint256"
        },
        {
          "internalType": "bytes",
          "name": "_data",
          "type": "bytes"
        }
      ],
      "name": "safeTransferFrom",
      "outputs": [],
      "stateMutability": "nonpayable",
      "type": "function"
    },
    {
      "inputs": [
        {
          "internalType": "address",
          "name": "_operator",
          "type": "address"
        },
        {
          "internalType": "bool",
          "name": "_approved",
          "type": "bool"
        }
      ],
      "name": "setApprovalForAll",
      "outputs": [],
      "stateMutability": "nonpayable",
      "type": "function"
    },
    {
      "inputs": [
        {
          "internalType": "bytes4",
          "name": "interfaceId",
          "type": "bytes4"
        }
      ],
      "name": "supportsInterface",
      "outputs": [
        {
          "internalType": "bool",
          "name": "",
          "type": "bool"
        }
      ],
      "stateMutability": "view",
      "type": "function"
    },
    {
      "inputs": [
        {
          "internalType": "uint256",
          "name": "",
          "type": "uint256"
        }
      ],
      "name": "tokenToCreator",
      "outputs": [
        {
          "internalType": "address",
          "name": "",
          "type": "address"
        }
      ],
      "stateMutability": "view",
      "type": "function"
    },
    {
      "inputs": [
        {
          "internalType": "address",
          "name": "newOwner",
          "type": "address"
        }
      ],
      "name": "transferOwnership",
      "outputs": [],
      "stateMutability": "nonpayable",
      "type": "function"
    },
    {
      "inputs": [],
      "name": "unpause",
      "outputs": [],
      "stateMutability": "nonpayable",
      "type": "function"
    },
    {
      "inputs": [
        {
          "internalType": "uint256",
          "name": "",
          "type": "uint256"
        }
      ],
      "name": "uri",
      "outputs": [
        {
          "internalType": "string",
          "name": "",
          "type": "string"
        }
      ],
      "stateMutability": "view",
      "type": "function"
    },
    {
      "inputs": [
        {
          "internalType": "address payable",
          "name": "_owner",
          "type": "address"
        }
      ],
      "name": "withdraw",
      "outputs": [],
      "stateMutability": "nonpayable",
      "type": "function"
    },
    {
      "inputs": [
        {
          "internalType": "uint256",
          "name": "_tokenId",
          "type": "uint256"
        },
        {
          "internalType": "uint256",
          "name": "_amount",
          "type": "uint256"
        }
      ],
      "name": "buyCreatorToken",
      "outputs": [],
      "stateMutability": "payable",
      "type": "function"
    },
    {
      "inputs": [
        {
          "internalType": "uint256",
          "name": "_tokenId",
          "type": "uint256"
        },
        {
          "internalType": "uint256",
          "name": "_amount",
          "type": "uint256"
        },
        {
          "internalType": "address payable",
          "name": "_seller",
          "type": "address"
        }
      ],
      "name": "sellCreatorToken",
      "outputs": [],
      "stateMutability": "payable",
      "type": "function"
    }
  ],
  "bytecode": "0x6080604052600180556000600255600060035560146004556009600555620186a06006556006546005546200003591906200068c565b6007553480156200004557600080fd5b5060405162005eef38038062005eef83398181016040528101906200006b9190620005dc565b808080600062000080620001fa60201b60201c565b9050806000806101000a81548173ffffffffffffffffffffffffffffffffffffffff021916908373ffffffffffffffffffffffffffffffffffffffff1602179055508073ffffffffffffffffffffffffffffffffffffffff16600073ffffffffffffffffffffffffffffffffffffffff167f8be0079c531659141344cd1fd0a4f28419497f9722a3daafe3b4186f6b6457e060405160405180910390a3506200012f816200020260201b60201c565b506000601260006101000a81548160ff0219169083151502179055506200016f6000801b62000163620001fa60201b60201c565b6200021e60201b60201c565b620001b07f9f2df0fed2c77648de5860a4cc508cd0818c85b8b8a1ab4ceeef8d981c8956a6620001a4620001fa60201b60201c565b6200021e60201b60201c565b620001f17f65d7a28e3265b37a6474929f336521b332c1681b933f6cb9f3376673440d862a620001e5620001fa60201b60201c565b6200021e60201b60201c565b50505062000822565b600033905090565b80601190805190602001906200021a929190620004ae565b5050565b6200023582826200026660201b62002b711760201c565b6200026181600e60008581526020019081526020016000206200027c60201b62002b7f1790919060201c565b505050565b620002788282620002b460201b60201c565b5050565b6000620002ac836000018373ffffffffffffffffffffffffffffffffffffffff1660001b620003a660201b60201c565b905092915050565b620002c682826200042060201b60201c565b620003a2576001600d600084815260200190815260200160002060000160008373ffffffffffffffffffffffffffffffffffffffff1673ffffffffffffffffffffffffffffffffffffffff16815260200190815260200160002060006101000a81548160ff02191690831515021790555062000347620001fa60201b60201c565b73ffffffffffffffffffffffffffffffffffffffff168173ffffffffffffffffffffffffffffffffffffffff16837f2f8788117e7eff1d82e926ec794901d17c78024a50270940304540a733656f0d60405160405180910390a45b5050565b6000620003ba83836200048b60201b60201c565b620004155782600001829080600181540180825580915050600190039060005260206000200160009091909190915055826000018054905083600101600084815260200190815260200160002081905550600190506200041a565b600090505b92915050565b6000600d600084815260200190815260200160002060000160008373ffffffffffffffffffffffffffffffffffffffff1673ffffffffffffffffffffffffffffffffffffffff16815260200190815260200160002060009054906101000a900460ff16905092915050565b600080836001016000848152602001908152602001600020541415905092915050565b828054620004bc9062000704565b90600052602060002090601f016020900481019282620004e057600085556200052c565b82601f10620004fb57805160ff19168380011785556200052c565b828001600101855582156200052c579182015b828111156200052b5782518255916020019190600101906200050e565b5b5090506200053b91906200053f565b5090565b5b808211156200055a57600081600090555060010162000540565b5090565b6000620005756200056f8462000656565b6200062d565b90508281526020810184848401111562000594576200059362000802565b5b620005a1848285620006ce565b509392505050565b600082601f830112620005c157620005c0620007fd565b5b8151620005d38482602086016200055e565b91505092915050565b600060208284031215620005f557620005f46200080c565b5b600082015167ffffffffffffffff81111562000616576200061562000807565b5b6200062484828501620005a9565b91505092915050565b6000620006396200064c565b90506200064782826200073a565b919050565b6000604051905090565b600067ffffffffffffffff821115620006745762000673620007ce565b5b6200067f8262000811565b9050602081019050919050565b60006200069982620006c4565b9150620006a683620006c4565b925082620006b957620006b862000770565b5b828204905092915050565b6000819050919050565b60005b83811015620006ee578082015181840152602081019050620006d1565b83811115620006fe576000848401525b50505050565b600060028204905060018216806200071d57607f821691505b602082108114156200073457620007336200079f565b5b50919050565b620007458262000811565b810181811067ffffffffffffffff82111715620007675762000766620007ce565b5b80604052505050565b7f4e487b7100000000000000000000000000000000000000000000000000000000600052601260045260246000fd5b7f4e487b7100000000000000000000000000000000000000000000000000000000600052602260045260246000fd5b7f4e487b7100000000000000000000000000000000000000000000000000000000600052604160045260246000fd5b600080fd5b600080fd5b600080fd5b600080fd5b6000601f19601f8301169050919050565b6156bd80620008326000396000f3fe6080604052600436106102505760003560e01c80638da5cb5b11610139578063d547741f116100b6578063eb8417591161007a578063eb841759146108c2578063f242432a146108eb578063f2fde38b14610914578063f5298aca1461093d578063f7374e2e14610966578063fffae9411461098f57610250565b8063d547741f146107df578063d56b72c714610808578063d7a5791a14610831578063e63ab1e91461085a578063e985e9c51461088557610250565b8063c39cbef1116100fd578063c39cbef1146106e2578063c539c3171461070b578063ca15c87314610734578063ce901d8a14610771578063d5391393146107b457610250565b80638da5cb5b146105e95780639010d07c1461061457806391d1485414610651578063a217fddf1461068e578063a22cb465146106b957610250565b80632eb2c2d6116101d257806351cff8d91161019657806351cff8d9146105155780635c975abb1461053e5780636b20c45414610569578063715018a614610592578063731133e9146105a95780638456cb59146105d257610250565b80632eb2c2d6146104465780632f2ff15d1461046f57806336568abe146104985780633f4ba83a146104c15780634e1273f4146104d857610250565b80631d5ad18b116102195780631d5ad18b146103725780631f7fdffa1461039b578063241b371c146103c4578063248a9ca3146103ed5780632dcfdaf71461042a57610250565b8062fdd58e1461025557806301ffc9a71461029257806306e320f5146102cf5780630e89341c146102f857806318892ae814610335575b600080fd5b34801561026157600080fd5b5061027c6004803603810190610277919061426b565b6109ab565b6040516102899190614ca7565b60405180910390f35b34801561029e57600080fd5b506102b960048036038101906102b491906144af565b610a06565b6040516102c69190614b2f565b60405180910390f35b3480156102db57600080fd5b506102f660048036038101906102f19190614589565b610a18565b005b34801561030457600080fd5b5061031f600480360381019061031a91906144dc565b610abf565b60405161032c9190614b65565b60405180910390f35b34801561034157600080fd5b5061035c600480360381019061035791906144dc565b610b53565b6040516103699190614a37565b60405180910390f35b34801561037e57600080fd5b5061039960048036038101906103949190614509565b610b86565b005b3480156103a757600080fd5b506103c260048036038101906103bd9190614170565b610c5b565b005b3480156103d057600080fd5b506103eb60048036038101906103e69190614589565b610e0b565b005b3480156103f957600080fd5b50610414600480360381019061040f9190614402565b610eb2565b6040516104219190614b4a565b60405180910390f35b610444600480360381019061043f9190614629565b610ed2565b005b34801561045257600080fd5b5061046d60048036038101906104689190613f7f565b6110c8565b005b34801561047b57600080fd5b506104966004803603810190610491919061442f565b6112a3565b005b3480156104a457600080fd5b506104bf60048036038101906104ba919061442f565b6112d7565b005b3480156104cd57600080fd5b506104d661130b565b005b3480156104e457600080fd5b506104ff60048036038101906104fa9190614381565b611385565b60405161050c9190614ad6565b60405180910390f35b34801561052157600080fd5b5061053c60048036038101906105379190613e57565b6114b5565b005b34801561054a57600080fd5b5061055361157b565b6040516105609190614b2f565b60405180910390f35b34801561057557600080fd5b50610590600480360381019061058b91906140e5565b611592565b005b34801561059e57600080fd5b506105a7611741565b005b3480156105b557600080fd5b506105d060048036038101906105cb91906142fe565b61187b565b005b3480156105de57600080fd5b506105e76119a3565b005b3480156105f557600080fd5b506105fe611a1d565b60405161060b9190614a37565b60405180910390f35b34801561062057600080fd5b5061063b6004803603810190610636919061446f565b611a46565b6040516106489190614a37565b60405180910390f35b34801561065d57600080fd5b506106786004803603810190610673919061442f565b611a75565b6040516106859190614b2f565b60405180910390f35b34801561069a57600080fd5b506106a3611ae0565b6040516106b09190614b4a565b60405180910390f35b3480156106c557600080fd5b506106e060048036038101906106db919061422b565b611ae7565b005b3480156106ee57600080fd5b5061070960048036038101906107049190614589565b611be4565b005b34801561071757600080fd5b50610732600480360381019061072d91906144dc565b611c8b565b005b34801561074057600080fd5b5061075b60048036038101906107569190614402565b611d11565b6040516107689190614ca7565b60405180910390f35b34801561077d57600080fd5b50610798600480360381019061079391906144dc565b611d35565b6040516107ab9796959493929190614a52565b60405180910390f35b3480156107c057600080fd5b506107c9611f4c565b6040516107d69190614b4a565b60405180910390f35b3480156107eb57600080fd5b506108066004803603810190610801919061442f565b611f70565b005b34801561081457600080fd5b5061082f600480360381019061082a9190613e84565b611fa4565b005b34801561083d57600080fd5b50610858600480360381019061085391906144dc565b6121b4565b005b34801561086657600080fd5b5061086f61223a565b60405161087c9190614b4a565b60405180910390f35b34801561089157600080fd5b506108ac60048036038101906108a79190613f3f565b61225e565b6040516108b99190614b2f565b60405180910390f35b3480156108ce57600080fd5b506108e960048036038101906108e49190613e57565b6122f2565b005b3480156108f757600080fd5b50610912600480360381019061090d919061404e565b6123c2565b005b34801561092057600080fd5b5061093b60048036038101906109369190613e2a565b612515565b005b34801561094957600080fd5b50610964600480360381019061095f91906142ab565b6126be565b005b34801561097257600080fd5b5061098d60048036038101906109889190614549565b6127e5565b005b6109a960048036038101906109a491906145e9565b6128a2565b005b6000600b600083815260200190815260200160002060008473ffffffffffffffffffffffffffffffffffffffff1673ffffffffffffffffffffffffffffffffffffffff16815260200190815260200160002054905092915050565b6000610a1182612baf565b9050919050565b826009600082815260200190815260200160002060009054906101000a900473ffffffffffffffffffffffffffffffffffffffff1673ffffffffffffffffffffffffffffffffffffffff163373ffffffffffffffffffffffffffffffffffffffff1614610a8457600080fd5b828260088681548110610a9a57610a9961529d565b5b90600052602060002090600702016002019190610ab8929190613a03565b5050505050565b606060118054610ace90615135565b80601f0160208091040260200160405190810160405280929190818152602001828054610afa90615135565b8015610b475780601f10610b1c57610100808354040283529160200191610b47565b820191906000526020600020905b815481529060010190602001808311610b2a57829003601f168201915b50505050509050919050565b60096020528060005260406000206000915054906101000a900473ffffffffffffffffffffffffffffffffffffffff1681565b816009600082815260200190815260200160002060009054906101000a900473ffffffffffffffffffffffffffffffffffffffff1673ffffffffffffffffffffffffffffffffffffffff163373ffffffffffffffffffffffffffffffffffffffff1614610bf257600080fd5b8160088481548110610c0757610c0661529d565b5b906000526020600020906007020160000160006101000a81548173ffffffffffffffffffffffffffffffffffffffff021916908373ffffffffffffffffffffffffffffffffffffffff160217905550505050565b60005b8351811015610d8557828181518110610c7a57610c7961529d565b5b6020026020010151600b6000868481518110610c9957610c9861529d565b5b6020026020010151815260200190815260200160002060008773ffffffffffffffffffffffffffffffffffffffff1673ffffffffffffffffffffffffffffffffffffffff1681526020019081526020016000206000828254610cfb9190614f24565b92505081905550828181518110610d1557610d1461529d565b5b60200260200101516008858381518110610d3257610d3161529d565b5b602002602001015181548110610d4b57610d4a61529d565b5b90600052602060002090600702016005016000828254610d6b9190614f24565b925050819055508080610d7d90615198565b915050610c5e565b508373ffffffffffffffffffffffffffffffffffffffff16600073ffffffffffffffffffffffffffffffffffffffff163373ffffffffffffffffffffffffffffffffffffffff167f4a39dc06d4c0dbc64b70af90fd698a233a518aa5d07e595d983b8c0526c8f7fb8686604051610dfd929190614af8565b60405180910390a450505050565b826009600082815260200190815260200160002060009054906101000a900473ffffffffffffffffffffffffffffffffffffffff1673ffffffffffffffffffffffffffffffffffffffff163373ffffffffffffffffffffffffffffffffffffffff1614610e7757600080fd5b828260088681548110610e8d57610e8c61529d565b5b90600052602060002090600702016003019190610eab929190613a03565b5050505050565b6000600d6000838152602001908152602001600020600101549050919050565b3373ffffffffffffffffffffffffffffffffffffffff168173ffffffffffffffffffffffffffffffffffffffff1614610f0a57600080fd5b60008060088581548110610f2157610f2061529d565b5b90600052602060002090600702016005015490506000600182610f449190614f24565b90505b60018583610f559190615005565b610f5f9190614f24565b811115610fbc57610f9c868260075460088a81548110610f8257610f8161529d565b5b906000526020600020906007020160060154600454612c91565b83610fa79190614f24565b92508080610fb49061510b565b915050610f47565b50610fc88386866126be565b8273ffffffffffffffffffffffffffffffffffffffff166108fc606460015485610ff29190614fab565b610ffc9190614f7a565b846110079190615005565b9081150290604051600060405180830381858888f19350505050158015611032573d6000803e3d6000fd5b5061103c82612dab565b7f2324706b1ec1c49a27325e9e30f818878cf641ec2d9093343f4848f466ee797f8486600888815481106110735761107261529d565b5b9060005260206000209060070201600101600889815481106110985761109761529d565b5b90600052602060002090600702016002016040516110b99493929190614d6d565b60405180910390a15050505050565b60005b835181101561121d578281815181106110e7576110e661529d565b5b6020026020010151600b60008684815181106111065761110561529d565b5b6020026020010151815260200190815260200160002060008873ffffffffffffffffffffffffffffffffffffffff1673ffffffffffffffffffffffffffffffffffffffff16815260200190815260200160002060008282546111689190615005565b925050819055508281815181106111825761118161529d565b5b6020026020010151600b60008684815181106111a1576111a061529d565b5b6020026020010151815260200190815260200160002060008773ffffffffffffffffffffffffffffffffffffffff1673ffffffffffffffffffffffffffffffffffffffff16815260200190815260200160002060008282546112039190614f24565b92505081905550808061121590615198565b9150506110cb565b508373ffffffffffffffffffffffffffffffffffffffff168573ffffffffffffffffffffffffffffffffffffffff163373ffffffffffffffffffffffffffffffffffffffff167f4a39dc06d4c0dbc64b70af90fd698a233a518aa5d07e595d983b8c0526c8f7fb8686604051611294929190614af8565b60405180910390a45050505050565b6112ad8282612e12565b6112d281600e6000858152602001908152602001600020612b7f90919063ffffffff16565b505050565b6112e18282612e3b565b61130681600e6000858152602001908152602001600020612ebe90919063ffffffff16565b505050565b61133c7f65d7a28e3265b37a6474929f336521b332c1681b933f6cb9f3376673440d862a611337612eee565b611a75565b61137b576040517f08c379a000000000000000000000000000000000000000000000000000000000815260040161137290614c47565b60405180910390fd5b611383612ef6565b565b606060008585905067ffffffffffffffff8111156113a6576113a56152cc565b5b6040519080825280602002602001820160405280156113d45781602001602082028036833780820191505090505b50905060005b868690508110156114a857600b60008686848181106113fc576113fb61529d565b5b90506020020135815260200190815260200160002060008888848181106114265761142561529d565b5b905060200201602081019061143b9190613e2a565b73ffffffffffffffffffffffffffffffffffffffff1673ffffffffffffffffffffffffffffffffffffffff168152602001908152602001600020548282815181106114895761148861529d565b5b60200260200101818152505080806114a090615198565b9150506113da565b5080915050949350505050565b6114bd612eee565b73ffffffffffffffffffffffffffffffffffffffff166114db611a1d565b73ffffffffffffffffffffffffffffffffffffffff1614611531576040517f08c379a000000000000000000000000000000000000000000000000000000000815260040161152890614c27565b60405180910390fd5b8073ffffffffffffffffffffffffffffffffffffffff166108fc479081150290604051600060405180830381858888f19350505050158015611577573d6000803e3d6000fd5b5050565b6000601260009054906101000a900460ff16905090565b60005b82518110156116bc578181815181106115b1576115b061529d565b5b6020026020010151600b60008584815181106115d0576115cf61529d565b5b6020026020010151815260200190815260200160002060008673ffffffffffffffffffffffffffffffffffffffff1673ffffffffffffffffffffffffffffffffffffffff16815260200190815260200160002060008282546116329190615005565b9250508190555081818151811061164c5761164b61529d565b5b602002602001015160088483815181106116695761166861529d565b5b6020026020010151815481106116825761168161529d565b5b906000526020600020906007020160050160008282546116a29190615005565b9250508190555080806116b490615198565b915050611595565b50600073ffffffffffffffffffffffffffffffffffffffff168373ffffffffffffffffffffffffffffffffffffffff163373ffffffffffffffffffffffffffffffffffffffff167f4a39dc06d4c0dbc64b70af90fd698a233a518aa5d07e595d983b8c0526c8f7fb8585604051611734929190614af8565b60405180910390a4505050565b611749612eee565b73ffffffffffffffffffffffffffffffffffffffff16611767611a1d565b73ffffffffffffffffffffffffffffffffffffffff16146117bd576040517f08c379a00000000000000000000000000000000000000000000000000000000081526004016117b490614c27565b60405180910390fd5b600073ffffffffffffffffffffffffffffffffffffffff1660008054906101000a900473ffffffffffffffffffffffffffffffffffffffff1673ffffffffffffffffffffffffffffffffffffffff167f8be0079c531659141344cd1fd0a4f28419497f9722a3daafe3b4186f6b6457e060405160405180910390a360008060006101000a81548173ffffffffffffffffffffffffffffffffffffffff021916908373ffffffffffffffffffffffffffffffffffffffff160217905550565b81600b600085815260200190815260200160002060008673ffffffffffffffffffffffffffffffffffffffff1673ffffffffffffffffffffffffffffffffffffffff16815260200190815260200160002060008282546118db9190614f24565b9250508190555081600884815481106118f7576118f661529d565b5b906000526020600020906007020160050160008282546119179190614f24565b925050819055508373ffffffffffffffffffffffffffffffffffffffff16600073ffffffffffffffffffffffffffffffffffffffff163373ffffffffffffffffffffffffffffffffffffffff167fc3d58168c5ae7397731d063d5bbf3d657854427343f4c083240f7aacaa2d0f628686604051611995929190614dd3565b60405180910390a450505050565b6119d47f65d7a28e3265b37a6474929f336521b332c1681b933f6cb9f3376673440d862a6119cf612eee565b611a75565b611a13576040517f08c379a0000000000000000000000000000000000000000000000000000000008152600401611a0a90614c67565b60405180910390fd5b611a1b612f98565b565b60008060009054906101000a900473ffffffffffffffffffffffffffffffffffffffff16905090565b6000611a6d82600e600086815260200190815260200160002061303b90919063ffffffff16565b905092915050565b6000600d600084815260200190815260200160002060000160008373ffffffffffffffffffffffffffffffffffffffff1673ffffffffffffffffffffffffffffffffffffffff16815260200190815260200160002060009054906101000a900460ff16905092915050565b6000801b81565b80600c60003373ffffffffffffffffffffffffffffffffffffffff1673ffffffffffffffffffffffffffffffffffffffff16815260200190815260200160002060008473ffffffffffffffffffffffffffffffffffffffff1673ffffffffffffffffffffffffffffffffffffffff16815260200190815260200160002060006101000a81548160ff0219169083151502179055508173ffffffffffffffffffffffffffffffffffffffff163373ffffffffffffffffffffffffffffffffffffffff167f17307eab39ab6107e8899845ad3d59bd9653f200f220920489ca2b5937696c3183604051611bd89190614b2f565b60405180910390a35050565b826009600082815260200190815260200160002060009054906101000a900473ffffffffffffffffffffffffffffffffffffffff1673ffffffffffffffffffffffffffffffffffffffff163373ffffffffffffffffffffffffffffffffffffffff1614611c5057600080fd5b828260088681548110611c6657611c6561529d565b5b90600052602060002090600702016001019190611c84929190613a03565b5050505050565b611c93612eee565b73ffffffffffffffffffffffffffffffffffffffff16611cb1611a1d565b73ffffffffffffffffffffffffffffffffffffffff1614611d07576040517f08c379a0000000000000000000000000000000000000000000000000000000008152600401611cfe90614c27565b60405180910390fd5b8060048190555050565b6000611d2e600e6000848152602001908152602001600020613055565b9050919050565b60088181548110611d4557600080fd5b90600052602060002090600702016000915090508060000160009054906101000a900473ffffffffffffffffffffffffffffffffffffffff1690806001018054611d8e90615135565b80601f0160208091040260200160405190810160405280929190818152602001828054611dba90615135565b8015611e075780601f10611ddc57610100808354040283529160200191611e07565b820191906000526020600020905b815481529060010190602001808311611dea57829003601f168201915b505050505090806002018054611e1c90615135565b80601f0160208091040260200160405190810160405280929190818152602001828054611e4890615135565b8015611e955780601f10611e6a57610100808354040283529160200191611e95565b820191906000526020600020905b815481529060010190602001808311611e7857829003601f168201915b505050505090806003018054611eaa90615135565b80601f0160208091040260200160405190810160405280929190818152602001828054611ed690615135565b8015611f235780601f10611ef857610100808354040283529160200191611f23565b820191906000526020600020905b815481529060010190602001808311611f0657829003601f168201915b5050505050908060040160009054906101000a900460ff16908060050154908060060154905087565b7f9f2df0fed2c77648de5860a4cc508cd0818c85b8b8a1ab4ceeef8d981c8956a681565b611f7a828261306a565b611f9f81600e6000858152602001908152602001600020612ebe90919063ffffffff16565b505050565b60086040518060e001604052808673ffffffffffffffffffffffffffffffffffffffff168152602001858152602001848152602001838152602001600015158152602001600081526020016000815250908060018154018082558091505060019003906000526020600020906007020160009091909190915060008201518160000160006101000a81548173ffffffffffffffffffffffffffffffffffffffff021916908373ffffffffffffffffffffffffffffffffffffffff1602179055506020820151816001019080519060200190612080929190613a89565b50604082015181600201908051906020019061209d929190613a89565b5060608201518160030190805190602001906120ba929190613a89565b5060808201518160040160006101000a81548160ff02191690831515021790555060a0820151816005015560c082015181600601555050600060016008805490506121059190615005565b9050846009600083815260200190815260200160002060006101000a81548173ffffffffffffffffffffffffffffffffffffffff021916908373ffffffffffffffffffffffffffffffffffffffff1602179055506000600a6000838152602001908152602001600020819055507f01e9d0e2208938b5d6a39db5244c8dca0b77eb386bf3705fe751005e7e0ca16c8185856040516121a593929190614cc2565b60405180910390a15050505050565b6121bc612eee565b73ffffffffffffffffffffffffffffffffffffffff166121da611a1d565b73ffffffffffffffffffffffffffffffffffffffff1614612230576040517f08c379a000000000000000000000000000000000000000000000000000000000815260040161222790614c27565b60405180910390fd5b8060018190555050565b7f65d7a28e3265b37a6474929f336521b332c1681b933f6cb9f3376673440d862a81565b6000600c60008473ffffffffffffffffffffffffffffffffffffffff1673ffffffffffffffffffffffffffffffffffffffff16815260200190815260200160002060008373ffffffffffffffffffffffffffffffffffffffff1673ffffffffffffffffffffffffffffffffffffffff16815260200190815260200160002060009054906101000a900460ff16905092915050565b6122fa612eee565b73ffffffffffffffffffffffffffffffffffffffff16612318611a1d565b73ffffffffffffffffffffffffffffffffffffffff161461236e576040517f08c379a000000000000000000000000000000000000000000000000000000000815260040161236590614c27565b60405180910390fd5b8073ffffffffffffffffffffffffffffffffffffffff166108fc6003549081150290604051600060405180830381858888f193505050501580156123b6573d6000803e3d6000fd5b50600060038190555050565b81600b600085815260200190815260200160002060008773ffffffffffffffffffffffffffffffffffffffff1673ffffffffffffffffffffffffffffffffffffffff16815260200190815260200160002060008282546124229190615005565b9250508190555081600b600085815260200190815260200160002060008673ffffffffffffffffffffffffffffffffffffffff1673ffffffffffffffffffffffffffffffffffffffff16815260200190815260200160002060008282546124899190614f24565b925050819055508373ffffffffffffffffffffffffffffffffffffffff168573ffffffffffffffffffffffffffffffffffffffff163373ffffffffffffffffffffffffffffffffffffffff167fc3d58168c5ae7397731d063d5bbf3d657854427343f4c083240f7aacaa2d0f628686604051612506929190614dd3565b60405180910390a45050505050565b61251d612eee565b73ffffffffffffffffffffffffffffffffffffffff1661253b611a1d565b73ffffffffffffffffffffffffffffffffffffffff1614612591576040517f08c379a000000000000000000000000000000000000000000000000000000000815260040161258890614c27565b60405180910390fd5b600073ffffffffffffffffffffffffffffffffffffffff168173ffffffffffffffffffffffffffffffffffffffff161415612601576040517f08c379a00000000000000000000000000000000000000000000000000000000081526004016125f890614be7565b60405180910390fd5b8073ffffffffffffffffffffffffffffffffffffffff1660008054906101000a900473ffffffffffffffffffffffffffffffffffffffff1673ffffffffffffffffffffffffffffffffffffffff167f8be0079c531659141344cd1fd0a4f28419497f9722a3daafe3b4186f6b6457e060405160405180910390a3806000806101000a81548173ffffffffffffffffffffffffffffffffffffffff021916908373ffffffffffffffffffffffffffffffffffffffff16021790555050565b80600b600084815260200190815260200160002060008573ffffffffffffffffffffffffffffffffffffffff1673ffffffffffffffffffffffffffffffffffffffff168152602001908152602001600020600082825461271e9190615005565b92505081905550806008838154811061273a5761273961529d565b5b9060005260206000209060070201600501600082825461275a9190615005565b92505081905550600073ffffffffffffffffffffffffffffffffffffffff168373ffffffffffffffffffffffffffffffffffffffff163373ffffffffffffffffffffffffffffffffffffffff167fc3d58168c5ae7397731d063d5bbf3d657854427343f4c083240f7aacaa2d0f6285856040516127d8929190614dd3565b60405180910390a4505050565b6127ed612eee565b73ffffffffffffffffffffffffffffffffffffffff1661280b611a1d565b73ffffffffffffffffffffffffffffffffffffffff1614612861576040517f08c379a000000000000000000000000000000000000000000000000000000000815260040161285890614c27565b60405180910390fd5b80600883815481106128765761287561529d565b5b906000526020600020906007020160040160006101000a81548160ff0219169083151502179055505050565b600080600884815481106128b9576128b861529d565b5b906000526020600020906007020160050154905060006001826128dc9190614f24565b90505b600184836128ed9190614f24565b6128f79190614f24565b8110156129a057600885815481106129125761291161529d565b5b906000526020600020906007020160060154811015612973576129618582600754600889815481106129475761294661529d565b5b906000526020600020906007020160060154600454612c91565b8361296c9190614f24565b925061298d565b61297f81600754613093565b8361298a9190614f24565b92505b808061299890615198565b9150506128df565b506064600154836129b19190614fab565b6129bb9190614f7a565b826129c69190614f24565b34146129d157600080fd5b6129da82612dab565b6129f53385856040518060200160405280600081525061187b565b7f2324706b1ec1c49a27325e9e30f818878cf641ec2d9093343f4848f466ee797f838560088781548110612a2c57612a2b61529d565b5b906000526020600020906007020160010160088881548110612a5157612a5061529d565b5b9060005260206000209060070201600201604051612a729493929190614d07565b60405180910390a160088481548110612a8e57612a8d61529d565b5b90600052602060002090600702016006015460088581548110612ab457612ab361529d565b5b9060005260206000209060070201600501541115612b6b5760088481548110612ae057612adf61529d565b5b90600052602060002090600702016005015460088581548110612b0657612b0561529d565b5b906000526020600020906007020160060181905550612b6a8460088681548110612b3357612b3261529d565b5b906000526020600020906007020160000160009054906101000a900473ffffffffffffffffffffffffffffffffffffffff166130a9565b5b50505050565b612b7b82826131e5565b5050565b6000612ba7836000018373ffffffffffffffffffffffffffffffffffffffff1660001b6132c6565b905092915050565b60007fd9b67a26000000000000000000000000000000000000000000000000000000007bffffffffffffffffffffffffffffffffffffffffffffffffffffffff1916827bffffffffffffffffffffffffffffffffffffffffffffffffffffffff19161480612c7a57507f0e89341c000000000000000000000000000000000000000000000000000000007bffffffffffffffffffffffffffffffffffffffffffffffffffffffff1916827bffffffffffffffffffffffffffffffffffffffffffffffffffffffff1916145b80612c8a5750612c8982613336565b5b9050919050565b600080600284612ca19190614f7a565b9050600060028686612cb39190614fab565b87876064886002612cc49190614fab565b612cce9190614f7a565b6002612cda9190615005565b612ce49190614fab565b612cee9190614fab565b612cf89190615005565b612d029190614f7a565b9050818711612d4157808288612d189190615005565b8383612d249190614f7a565b612d2e9190614fab565b612d389190614f24565b92505050612da2565b848711612d9f57808288612d559190615005565b8387612d619190615005565b83888a612d6e9190614fab565b612d789190615005565b612d829190614f7a565b612d8c9190614fab565b612d969190614f24565b92505050612da2565b50505b95945050505050565b606460015482612dbb9190614fab565b612dc59190614f7a565b60026000828254612dd69190614f24565b92505081905550606460015482612ded9190614fab565b612df79190614f7a565b60036000828254612e089190614f24565b9250508190555050565b612e1b82610eb2565b612e2c81612e27612eee565b6133b0565b612e3683836131e5565b505050565b612e43612eee565b73ffffffffffffffffffffffffffffffffffffffff168173ffffffffffffffffffffffffffffffffffffffff1614612eb0576040517f08c379a0000000000000000000000000000000000000000000000000000000008152600401612ea790614c87565b60405180910390fd5b612eba828261344d565b5050565b6000612ee6836000018373ffffffffffffffffffffffffffffffffffffffff1660001b61352f565b905092915050565b600033905090565b612efe61157b565b612f3d576040517f08c379a0000000000000000000000000000000000000000000000000000000008152600401612f3490614bc7565b60405180910390fd5b6000601260006101000a81548160ff0219169083151502179055507f5db9ee0a495bf2e6ff9c91a7834c1ba4fdd244a5e8aa4e537bd38aeae4b073aa612f81612eee565b604051612f8e9190614a37565b60405180910390a1565b612fa061157b565b15612fe0576040517f08c379a0000000000000000000000000000000000000000000000000000000008152600401612fd790614c07565b60405180910390fd5b6001601260006101000a81548160ff0219169083151502179055507f62e78cea01bee320cd4e420270b5ea74000d11b0c9f74754ebdbfc544b05a258613024612eee565b6040516130319190614a37565b60405180910390a1565b600061304a836000018361363b565b60001c905092915050565b6000613063826000016136af565b9050919050565b61307382610eb2565b6130848161307f612eee565b6133b0565b61308e838361344d565b505050565b600082826130a19190614fab565b905092915050565b6000600a6000848152602001908152602001600020549050600080600190505b6001600886815481106130df576130de61529d565b5b9060005260206000209060070201600601546130fb9190614f24565b81101561316e5761313885826007546008898154811061311e5761311d61529d565b5b906000526020600020906007020160060154600454612c91565b61314482600754613093565b61314e9190615005565b826131599190614f24565b9150808061316690615198565b9150506130c9565b506000828261317d9190615005565b90508373ffffffffffffffffffffffffffffffffffffffff166108fc829081150290604051600060405180830381858888f193505050501580156131c5573d6000803e3d6000fd5b5081600a6000878152602001908152602001600020819055505050505050565b6131ef8282611a75565b6132c2576001600d600084815260200190815260200160002060000160008373ffffffffffffffffffffffffffffffffffffffff1673ffffffffffffffffffffffffffffffffffffffff16815260200190815260200160002060006101000a81548160ff021916908315150217905550613267612eee565b73ffffffffffffffffffffffffffffffffffffffff168173ffffffffffffffffffffffffffffffffffffffff16837f2f8788117e7eff1d82e926ec794901d17c78024a50270940304540a733656f0d60405160405180910390a45b5050565b60006132d283836136c0565b61332b578260000182908060018154018082558091505060019003906000526020600020016000909190919091505582600001805490508360010160008481526020019081526020016000208190555060019050613330565b600090505b92915050565b60007f5a05180f000000000000000000000000000000000000000000000000000000007bffffffffffffffffffffffffffffffffffffffffffffffffffffffff1916827bffffffffffffffffffffffffffffffffffffffffffffffffffffffff191614806133a957506133a8826136e3565b5b9050919050565b6133ba8282611a75565b613449576133df8173ffffffffffffffffffffffffffffffffffffffff16601461375d565b6133ed8360001c602061375d565b6040516020016133fe9291906149fd565b6040516020818303038152906040526040517f08c379a00000000000000000000000000000000000000000000000000000000081526004016134409190614b65565b60405180910390fd5b5050565b6134578282611a75565b1561352b576000600d600084815260200190815260200160002060000160008373ffffffffffffffffffffffffffffffffffffffff1673ffffffffffffffffffffffffffffffffffffffff16815260200190815260200160002060006101000a81548160ff0219169083151502179055506134d0612eee565b73ffffffffffffffffffffffffffffffffffffffff168173ffffffffffffffffffffffffffffffffffffffff16837ff6391f5c32d9c69d2a47ea670b442974b53935d1edc7fd64eb21e047a839171b60405160405180910390a45b5050565b6000808360010160008481526020019081526020016000205490506000811461362f5760006001826135619190615005565b90506000600186600001805490506135799190615005565b905060008660000182815481106135935761359261529d565b5b90600052602060002001549050808760000184815481106135b7576135b661529d565b5b90600052602060002001819055508387600101600083815260200190815260200160002081905550866000018054806135f3576135f261526e565b5b60019003818190600052602060002001600090559055866001016000878152602001908152602001600020600090556001945050505050613635565b60009150505b92915050565b600081836000018054905011613686576040517f08c379a000000000000000000000000000000000000000000000000000000000815260040161367d90614b87565b60405180910390fd5b82600001828154811061369c5761369b61529d565b5b9060005260206000200154905092915050565b600081600001805490509050919050565b600080836001016000848152602001908152602001600020541415905092915050565b60007f7965db0b000000000000000000000000000000000000000000000000000000007bffffffffffffffffffffffffffffffffffffffffffffffffffffffff1916827bffffffffffffffffffffffffffffffffffffffffffffffffffffffff19161480613756575061375582613999565b5b9050919050565b6060600060028360026137709190614fab565b61377a9190614f24565b67ffffffffffffffff811115613793576137926152cc565b5b6040519080825280601f01601f1916602001820160405280156137c55781602001600182028036833780820191505090505b5090507f3000000000000000000000000000000000000000000000000000000000000000816000815181106137fd576137fc61529d565b5b60200101907effffffffffffffffffffffffffffffffffffffffffffffffffffffffffffff1916908160001a9053507f7800000000000000000000000000000000000000000000000000000000000000816001815181106138615761386061529d565b5b60200101907effffffffffffffffffffffffffffffffffffffffffffffffffffffffffffff1916908160001a905350600060018460026138a19190614fab565b6138ab9190614f24565b90505b600181111561394b577f3031323334353637383961626364656600000000000000000000000000000000600f8616601081106138ed576138ec61529d565b5b1a60f81b8282815181106139045761390361529d565b5b60200101907effffffffffffffffffffffffffffffffffffffffffffffffffffffffffffff1916908160001a905350600485901c9450806139449061510b565b90506138ae565b506000841461398f576040517f08c379a000000000000000000000000000000000000000000000000000000000815260040161398690614ba7565b60405180910390fd5b8091505092915050565b60007f01ffc9a7000000000000000000000000000000000000000000000000000000007bffffffffffffffffffffffffffffffffffffffffffffffffffffffff1916827bffffffffffffffffffffffffffffffffffffffffffffffffffffffff1916149050919050565b828054613a0f90615135565b90600052602060002090601f016020900481019282613a315760008555613a78565b82601f10613a4a57803560ff1916838001178555613a78565b82800160010185558215613a78579182015b82811115613a77578235825591602001919060010190613a5c565b5b509050613a859190613b0f565b5090565b828054613a9590615135565b90600052602060002090601f016020900481019282613ab75760008555613afe565b82601f10613ad057805160ff1916838001178555613afe565b82800160010185558215613afe579182015b82811115613afd578251825591602001919060010190613ae2565b5b509050613b0b9190613b0f565b5090565b5b80821115613b28576000816000905550600101613b10565b5090565b6000613b3f613b3a84614e21565b614dfc565b90508083825260208201905082856020860282011115613b6257613b61615305565b5b60005b85811015613b925781613b788882613e15565b845260208401935060208301925050600181019050613b65565b5050509392505050565b6000613baf613baa84614e4d565b614dfc565b905082815260208101848484011115613bcb57613bca61530a565b5b613bd68482856150c9565b509392505050565b6000613bf1613bec84614e7e565b614dfc565b905082815260208101848484011115613c0d57613c0c61530a565b5b613c188482856150c9565b509392505050565b600081359050613c2f816155fd565b92915050565b600081359050613c4481615614565b92915050565b60008083601f840112613c6057613c5f615300565b5b8235905067ffffffffffffffff811115613c7d57613c7c6152fb565b5b602083019150836020820283011115613c9957613c98615305565b5b9250929050565b60008083601f840112613cb657613cb5615300565b5b8235905067ffffffffffffffff811115613cd357613cd26152fb565b5b602083019150836020820283011115613cef57613cee615305565b5b9250929050565b600082601f830112613d0b57613d0a615300565b5b8135613d1b848260208601613b2c565b91505092915050565b600081359050613d338161562b565b92915050565b600081359050613d4881615642565b92915050565b600081359050613d5d81615659565b92915050565b600082601f830112613d7857613d77615300565b5b8135613d88848260208601613b9c565b91505092915050565b60008083601f840112613da757613da6615300565b5b8235905067ffffffffffffffff811115613dc457613dc36152fb565b5b602083019150836001820283011115613de057613ddf615305565b5b9250929050565b600082601f830112613dfc57613dfb615300565b5b8135613e0c848260208601613bde565b91505092915050565b600081359050613e2481615670565b92915050565b600060208284031215613e4057613e3f615314565b5b6000613e4e84828501613c20565b91505092915050565b600060208284031215613e6d57613e6c615314565b5b6000613e7b84828501613c35565b91505092915050565b60008060008060808587031215613e9e57613e9d615314565b5b6000613eac87828801613c35565b945050602085013567ffffffffffffffff811115613ecd57613ecc61530f565b5b613ed987828801613de7565b935050604085013567ffffffffffffffff811115613efa57613ef961530f565b5b613f0687828801613de7565b925050606085013567ffffffffffffffff811115613f2757613f2661530f565b5b613f3387828801613de7565b91505092959194509250565b60008060408385031215613f5657613f55615314565b5b6000613f6485828601613c20565b9250506020613f7585828601613c20565b9150509250929050565b600080600080600060a08688031215613f9b57613f9a615314565b5b6000613fa988828901613c20565b9550506020613fba88828901613c20565b945050604086013567ffffffffffffffff811115613fdb57613fda61530f565b5b613fe788828901613cf6565b935050606086013567ffffffffffffffff8111156140085761400761530f565b5b61401488828901613cf6565b925050608086013567ffffffffffffffff8111156140355761403461530f565b5b61404188828901613d63565b9150509295509295909350565b600080600080600060a0868803121561406a57614069615314565b5b600061407888828901613c20565b955050602061408988828901613c20565b945050604061409a88828901613e15565b93505060606140ab88828901613e15565b925050608086013567ffffffffffffffff8111156140cc576140cb61530f565b5b6140d888828901613d63565b9150509295509295909350565b6000806000606084860312156140fe576140fd615314565b5b600061410c86828701613c20565b935050602084013567ffffffffffffffff81111561412d5761412c61530f565b5b61413986828701613cf6565b925050604084013567ffffffffffffffff81111561415a5761415961530f565b5b61416686828701613cf6565b9150509250925092565b6000806000806080858703121561418a57614189615314565b5b600061419887828801613c20565b945050602085013567ffffffffffffffff8111156141b9576141b861530f565b5b6141c587828801613cf6565b935050604085013567ffffffffffffffff8111156141e6576141e561530f565b5b6141f287828801613cf6565b925050606085013567ffffffffffffffff8111156142135761421261530f565b5b61421f87828801613d63565b91505092959194509250565b6000806040838503121561424257614241615314565b5b600061425085828601613c20565b925050602061426185828601613d24565b9150509250929050565b6000806040838503121561428257614281615314565b5b600061429085828601613c20565b92505060206142a185828601613e15565b9150509250929050565b6000806000606084860312156142c4576142c3615314565b5b60006142d286828701613c20565b93505060206142e386828701613e15565b92505060406142f486828701613e15565b9150509250925092565b6000806000806080858703121561431857614317615314565b5b600061432687828801613c20565b945050602061433787828801613e15565b935050604061434887828801613e15565b925050606085013567ffffffffffffffff8111156143695761436861530f565b5b61437587828801613d63565b91505092959194509250565b6000806000806040858703121561439b5761439a615314565b5b600085013567ffffffffffffffff8111156143b9576143b861530f565b5b6143c587828801613c4a565b9450945050602085013567ffffffffffffffff8111156143e8576143e761530f565b5b6143f487828801613ca0565b925092505092959194509250565b60006020828403121561441857614417615314565b5b600061442684828501613d39565b91505092915050565b6000806040838503121561444657614445615314565b5b600061445485828601613d39565b925050602061446585828601613c20565b9150509250929050565b6000806040838503121561448657614485615314565b5b600061449485828601613d39565b92505060206144a585828601613e15565b9150509250929050565b6000602082840312156144c5576144c4615314565b5b60006144d384828501613d4e565b91505092915050565b6000602082840312156144f2576144f1615314565b5b600061450084828501613e15565b91505092915050565b600080604083850312156145205761451f615314565b5b600061452e85828601613e15565b925050602061453f85828601613c35565b9150509250929050565b600080604083850312156145605761455f615314565b5b600061456e85828601613e15565b925050602061457f85828601613d24565b9150509250929050565b6000806000604084860312156145a2576145a1615314565b5b60006145b086828701613e15565b935050602084013567ffffffffffffffff8111156145d1576145d061530f565b5b6145dd86828701613d91565b92509250509250925092565b60008060408385031215614600576145ff615314565b5b600061460e85828601613e15565b925050602061461f85828601613e15565b9150509250929050565b60008060006060848603121561464257614641615314565b5b600061465086828701613e15565b935050602061466186828701613e15565b925050604061467286828701613c35565b9150509250925092565b600061468883836149df565b60208301905092915050565b61469d8161504b565b82525050565b6146ac81615039565b82525050565b60006146bd82614ed4565b6146c78185614ef7565b93506146d283614eaf565b8060005b838110156147035781516146ea888261467c565b97506146f583614eea565b9250506001810190506146d6565b5085935050505092915050565b6147198161505d565b82525050565b61472881615069565b82525050565b600061473982614edf565b6147438185614f08565b93506147538185602086016150d8565b61475c81615319565b840191505092915050565b600061477282614edf565b61477c8185614f19565b935061478c8185602086016150d8565b80840191505092915050565b600081546147a581615135565b6147af8186614f08565b945060018216600081146147ca57600181146147dc5761480f565b60ff198316865260208601935061480f565b6147e585614ebf565b60005b83811015614807578154818901526001820191506020810190506147e8565b808801955050505b50505092915050565b6000614825602283614f08565b91506148308261532a565b604082019050919050565b6000614848602083614f08565b915061485382615379565b602082019050919050565b600061486b601483614f08565b9150614876826153a2565b602082019050919050565b600061488e602683614f08565b9150614899826153cb565b604082019050919050565b60006148b1601083614f08565b91506148bc8261541a565b602082019050919050565b60006148d4600383614f08565b91506148df82615443565b602082019050919050565b60006148f7602083614f08565b91506149028261546c565b602082019050919050565b600061491a603b83614f08565b915061492582615495565b604082019050919050565b600061493d603983614f08565b9150614948826154e4565b604082019050919050565b6000614960601783614f19565b915061496b82615533565b601782019050919050565b6000614983600483614f08565b915061498e8261555c565b602082019050919050565b60006149a6601183614f19565b91506149b182615585565b601182019050919050565b60006149c9602f83614f08565b91506149d4826155ae565b604082019050919050565b6149e8816150bf565b82525050565b6149f7816150bf565b82525050565b6000614a0882614953565b9150614a148285614767565b9150614a1f82614999565b9150614a2b8284614767565b91508190509392505050565b6000602082019050614a4c60008301846146a3565b92915050565b600060e082019050614a67600083018a614694565b8181036020830152614a79818961472e565b90508181036040830152614a8d818861472e565b90508181036060830152614aa1818761472e565b9050614ab06080830186614710565b614abd60a08301856149ee565b614aca60c08301846149ee565b98975050505050505050565b60006020820190508181036000830152614af081846146b2565b905092915050565b60006040820190508181036000830152614b1281856146b2565b90508181036020830152614b2681846146b2565b90509392505050565b6000602082019050614b446000830184614710565b92915050565b6000602082019050614b5f600083018461471f565b92915050565b60006020820190508181036000830152614b7f818461472e565b905092915050565b60006020820190508181036000830152614ba081614818565b9050919050565b60006020820190508181036000830152614bc08161483b565b9050919050565b60006020820190508181036000830152614be08161485e565b9050919050565b60006020820190508181036000830152614c0081614881565b9050919050565b60006020820190508181036000830152614c20816148a4565b9050919050565b60006020820190508181036000830152614c40816148ea565b9050919050565b60006020820190508181036000830152614c608161490d565b9050919050565b60006020820190508181036000830152614c8081614930565b9050919050565b60006020820190508181036000830152614ca0816149bc565b9050919050565b6000602082019050614cbc60008301846149ee565b92915050565b6000606082019050614cd760008301866149ee565b8181036020830152614ce9818561472e565b90508181036040830152614cfd818461472e565b9050949350505050565b600060a082019050614d1c60008301876149ee565b8181036020830152614d2d816148c7565b9050614d3c60408301866149ee565b8181036060830152614d4e8185614798565b90508181036080830152614d628184614798565b905095945050505050565b600060a082019050614d8260008301876149ee565b8181036020830152614d9381614976565b9050614da260408301866149ee565b8181036060830152614db48185614798565b90508181036080830152614dc88184614798565b905095945050505050565b6000604082019050614de860008301856149ee565b614df560208301846149ee565b9392505050565b6000614e06614e17565b9050614e128282615167565b919050565b6000604051905090565b600067ffffffffffffffff821115614e3c57614e3b6152cc565b5b602082029050602081019050919050565b600067ffffffffffffffff821115614e6857614e676152cc565b5b614e7182615319565b9050602081019050919050565b600067ffffffffffffffff821115614e9957614e986152cc565b5b614ea282615319565b9050602081019050919050565b6000819050602082019050919050565b60008190508160005260206000209050919050565b600081519050919050565b600081519050919050565b6000602082019050919050565b600082825260208201905092915050565b600082825260208201905092915050565b600081905092915050565b6000614f2f826150bf565b9150614f3a836150bf565b9250827fffffffffffffffffffffffffffffffffffffffffffffffffffffffffffffffff03821115614f6f57614f6e6151e1565b5b828201905092915050565b6000614f85826150bf565b9150614f90836150bf565b925082614fa057614f9f615210565b5b828204905092915050565b6000614fb6826150bf565b9150614fc1836150bf565b9250817fffffffffffffffffffffffffffffffffffffffffffffffffffffffffffffffff0483118215151615614ffa57614ff96151e1565b5b828202905092915050565b6000615010826150bf565b915061501b836150bf565b92508282101561502e5761502d6151e1565b5b828203905092915050565b60006150448261509f565b9050919050565b60006150568261509f565b9050919050565b60008115159050919050565b6000819050919050565b60007fffffffff0000000000000000000000000000000000000000000000000000000082169050919050565b600073ffffffffffffffffffffffffffffffffffffffff82169050919050565b6000819050919050565b82818337600083830152505050565b60005b838110156150f65780820151818401526020810190506150db565b83811115615105576000848401525b50505050565b6000615116826150bf565b9150600082141561512a576151296151e1565b5b600182039050919050565b6000600282049050600182168061514d57607f821691505b602082108114156151615761516061523f565b5b50919050565b61517082615319565b810181811067ffffffffffffffff8211171561518f5761518e6152cc565b5b80604052505050565b60006151a3826150bf565b91507fffffffffffffffffffffffffffffffffffffffffffffffffffffffffffffffff8214156151d6576151d56151e1565b5b600182019050919050565b7f4e487b7100000000000000000000000000000000000000000000000000000000600052601160045260246000fd5b7f4e487b7100000000000000000000000000000000000000000000000000000000600052601260045260246000fd5b7f4e487b7100000000000000000000000000000000000000000000000000000000600052602260045260246000fd5b7f4e487b7100000000000000000000000000000000000000000000000000000000600052603160045260246000fd5b7f4e487b7100000000000000000000000000000000000000000000000000000000600052603260045260246000fd5b7f4e487b7100000000000000000000000000000000000000000000000000000000600052604160045260246000fd5b600080fd5b600080fd5b600080fd5b600080fd5b600080fd5b600080fd5b6000601f19601f8301169050919050565b7f456e756d657261626c655365743a20696e646578206f7574206f6620626f756e60008201527f6473000000000000000000000000000000000000000000000000000000000000602082015250565b7f537472696e67733a20686578206c656e67746820696e73756666696369656e74600082015250565b7f5061757361626c653a206e6f7420706175736564000000000000000000000000600082015250565b7f4f776e61626c653a206e6577206f776e657220697320746865207a65726f206160008201527f6464726573730000000000000000000000000000000000000000000000000000602082015250565b7f5061757361626c653a2070617573656400000000000000000000000000000000600082015250565b7f6275790000000000000000000000000000000000000000000000000000000000600082015250565b7f4f776e61626c653a2063616c6c6572206973206e6f7420746865206f776e6572600082015250565b7f455243313135355072657365744d696e7465725061757365723a206d7573742060008201527f686176652070617573657220726f6c6520746f20756e70617573650000000000602082015250565b7f455243313135355072657365744d696e7465725061757365723a206d7573742060008201527f686176652070617573657220726f6c6520746f20706175736500000000000000602082015250565b7f416363657373436f6e74726f6c3a206163636f756e7420000000000000000000600082015250565b7f73656c6c00000000000000000000000000000000000000000000000000000000600082015250565b7f206973206d697373696e6720726f6c6520000000000000000000000000000000600082015250565b7f416363657373436f6e74726f6c3a2063616e206f6e6c792072656e6f756e636560008201527f20726f6c657320666f722073656c660000000000000000000000000000000000602082015250565b61560681615039565b811461561157600080fd5b50565b61561d8161504b565b811461562857600080fd5b50565b6156348161505d565b811461563f57600080fd5b50565b61564b81615069565b811461565657600080fd5b50565b61566281615073565b811461566d57600080fd5b50565b615679816150bf565b811461568457600080fd5b5056fea264697066735822122062f167f1d10621ab1b84ca4650a3891cbab82142ae77f017b0012b35aa3d690b64736f6c63430008050033",
  "immutableReferences": {},
  "source": "// SPDX-License-Identifier: MIT\npragma solidity ^0.8.0;\n\nimport \"./creatortokenownership.sol\";\n\ncontract CreatorTokenExchange is CreatorTokenOwnership {\n\n\tconstructor(string memory uri) CreatorTokenOwnership(uri) { }\n\n\t// Event that fires when a new transaction occurs\n\tevent NewTransaction(uint amount, string transactionType, uint tokenId, string name, string symbol);\n\n\t// Allow user to buy a given CreatorToken from the platform\n\tfunction buyCreatorToken(uint _tokenId, uint _amount) external payable {\n\t\t// Initialize proceeds required;\n\t\tuint proceedsRequired = 0 ether;\n\t\t// Initialize pre-transaction supply\n\t\tuint startingSupply = creatorTokens[_tokenId].outstanding;\n\t\t// Compute buy proceeds\n\t\tfor (uint i = startingSupply+1; i<startingSupply+_amount+1; i++) {\n\t\t\t// If the current token number is < maxSupply\n\t\t\tif (i < creatorTokens[_tokenId].maxSupply) {\n\t\t\t\t// Then user is buying along sale price function\n\t\t\t\tproceedsRequired += _saleFunction(_tokenId, i, m, creatorTokens[_tokenId].maxSupply, profitMargin);\n\t\t\t} else { // Else (if the current token number is >= maxSupply)\n\t\t\t\t// Then user is buying along buy price function\n\t\t\t\tproceedsRequired += _buyFunction(i, m);\n\t\t\t}\n\t\t}\n\t\t// Make sure that user sends proceedsRequired ether to cover the cost of _amount tokens, plus the platform fee\n\t\trequire(msg.value == proceedsRequired + proceedsRequired*platformFee/100);\n\t\t// Update platform fee total\n\t\t_platformFeeUpdater(proceedsRequired);\n\t\t// Mint _amount tokens at the user's address (note this increases token amount outstanding)\n\t\tmint(msg.sender, _tokenId, _amount, \"\");\n\t\t// Emit new transaction event\n\t\temit NewTransaction(_amount, \"buy\", _tokenId, creatorTokens[_tokenId].name, creatorTokens[_tokenId].symbol);\n\t\t// Check if new outstanding amount of token is greater than maxSupply\n\t\tif (creatorTokens[_tokenId].outstanding > creatorTokens[_tokenId].maxSupply) {\n\t\t\t// Update maxSupply\n\t\t\tcreatorTokens[_tokenId].maxSupply = creatorTokens[_tokenId].outstanding;\n\t\t\t// Call _payout to transfer excess liquidity\n\t\t\t_payCreator(_tokenId, creatorTokens[_tokenId].creatorAddress);\n\t\t}\n\t}\n\n\t// Create a linear buy price function wtih slope _m\n\tfunction _buyFunction(uint _x, uint _m) private pure returns (uint256) {\n\t\t// b(x) = m*x\n\t\treturn _m*_x;\n\t}\n\n\t// Allow user to sell a given CreatorToken back to the platform\n\tfunction sellCreatorToken(uint _tokenId, uint _amount, address payable _seller) external payable {\n\t\t// Require that user calling function is selling own tokens\n\t\trequire(_seller == msg.sender);\n\t\t// Initialize proceeds required\n\t\tuint proceedsRequired = 0 ether;\n\t\t// Initialize pre-transaction supply\n\t\tuint startingSupply = creatorTokens[_tokenId].outstanding;\n\t\t// Iterate to compute sale proceeds required\n\t\tfor (uint i = startingSupply+1; i>startingSupply-_amount+1; i--) {\n\t\t\tproceedsRequired += _saleFunction(_tokenId, i, m, creatorTokens[_tokenId].maxSupply, profitMargin);\n\t\t}\n\t\t// Burn _amount tokens from user's address (note this decreases token amount outstanding)\n\t\tburn(_seller, _tokenId, _amount);\n\t\t// Send user proceedsRequired ether (less the platform fee) in exchange for the burned tokens\n\t\t_seller.transfer(proceedsRequired - proceedsRequired*platformFee/100);\n\t\t// Update platform fee total\n\t\t_platformFeeUpdater(proceedsRequired);\n\t\t// Emit new transaction event\n\t\temit NewTransaction(_amount, \"sell\", _tokenId, creatorTokens[_tokenId].name, creatorTokens[_tokenId].symbol);\n\t}\n\n\t// Create a piecewise-defined sale price function based on slope of b(x), maxSupply, and profitMargin\n\tfunction _saleFunction(uint _tokenId, uint _x, uint _m, uint _maxSupply, uint _profitMargin) private pure returns (uint256) {\n\t\t// Define breakpoint (a,b) chosen s.t. area under sale price function is (1-profitMargin) times area under buy price function\n\t\tuint a = _maxSupply/2;\n\t\tuint b = ((2-2*_profitMargin/100)*_maxSupply*_m - _maxSupply*_m)/2;\n\t\t// Create the piecewise defined function\n\t\tif (_x<=a) {\n\t\t\treturn (b/a)*(_x-a)+b;\n\t\t} else if (_x<=_maxSupply) {\n\t\t\treturn ((_m*_maxSupply-b)/(_maxSupply-a))*(_x-a)+b;\n\t\t}\n\t}\n\n\t// Transfer excess liquidity (triggered only when a CreatorToken hits a new maxSupply)\n\tfunction _payCreator(uint _tokenId, address payable _creatorAddress) internal {\n\t\t// Create a variable showing excess liquidity that has already been transferred out of this token's liquidity pool\n\t\tuint alreadyTransferred = tokenValueTransferred[_tokenId];\n\t\t// Initialize totalProfit\n\t\tuint totalProfit = 0 ether;\n\t\t// Calculate totalProfit (integral from 0 to maxSupply of b(x) - s(x) dx)\n\t\tfor (uint i = 1; i<creatorTokens[_tokenId].maxSupply+1; i++) {\n\t\t\ttotalProfit += _buyFunction(i, m) - _saleFunction(_tokenId, i, m, creatorTokens[_tokenId].maxSupply, profitMargin);\n\t\t}\n\t\t// Calculate creator's new profit created from new excess liquidity created\n\t\tuint newProfit = totalProfit - alreadyTransferred;\n\t\t// Transfer newProfit ether to creator\n\t\t_creatorAddress.transfer(newProfit);\n\t\t// Update amount of value transferred to creator\n\t\ttokenValueTransferred[_tokenId] = totalProfit;\n\t}\n\n\t// Update platform fees tracker\n\tfunction _platformFeeUpdater(uint _proceedsRequired) internal {\n\t\ttotalPlatformFees += _proceedsRequired*platformFee/100;\n\t\tplatformFeesOwed += _proceedsRequired*platformFee/100;\n\t}\n}\n",
  "sourcePath": "/Users/kamilalizaisadik/DeFi/Dynamic Automated Market Maker/damm_solidity/contracts/CreatorTokenExchange.sol",
  "compiler": {
    "name": "solc",
    "version": "0.8.5+commit.a4f2e591.Emscripten.clang"
  },
  "schemaVersion": "3.4.1",
  "updatedAt": "2021-06-16T00:58:13.194Z",
  "devdoc": {
    "kind": "dev",
    "methods": {
      "getRoleAdmin(bytes32)": {
        "details": "Returns the admin role that controls `role`. See {grantRole} and {revokeRole}. To change a role's admin, use {_setRoleAdmin}."
      },
      "getRoleMember(bytes32,uint256)": {
        "details": "Returns one of the accounts that have `role`. `index` must be a value between 0 and {getRoleMemberCount}, non-inclusive. Role bearers are not sorted in any particular way, and their ordering may change at any point. WARNING: When using {getRoleMember} and {getRoleMemberCount}, make sure you perform all queries on the same block. See the following https://forum.openzeppelin.com/t/iterating-over-elements-on-enumerableset-in-openzeppelin-contracts/2296[forum post] for more information."
      },
      "getRoleMemberCount(bytes32)": {
        "details": "Returns the number of accounts that have `role`. Can be used together with {getRoleMember} to enumerate all bearers of a role."
      },
      "grantRole(bytes32,address)": {
        "details": "Overload {grantRole} to track enumerable memberships"
      },
      "hasRole(bytes32,address)": {
        "details": "Returns `true` if `account` has been granted `role`."
      },
      "owner()": {
        "details": "Returns the address of the current owner."
      },
      "pause()": {
        "details": "Pauses all token transfers. See {ERC1155Pausable} and {Pausable-_pause}. Requirements: - the caller must have the `PAUSER_ROLE`."
      },
      "paused()": {
        "details": "Returns true if the contract is paused, and false otherwise."
      },
      "renounceOwnership()": {
        "details": "Leaves the contract without owner. It will not be possible to call `onlyOwner` functions anymore. Can only be called by the current owner. NOTE: Renouncing ownership will leave the contract without an owner, thereby removing any functionality that is only available to the owner."
      },
      "renounceRole(bytes32,address)": {
        "details": "Overload {renounceRole} to track enumerable memberships"
      },
      "revokeRole(bytes32,address)": {
        "details": "Overload {revokeRole} to track enumerable memberships"
      },
      "supportsInterface(bytes4)": {
        "details": "See {IERC165-supportsInterface}."
      },
      "transferOwnership(address)": {
        "details": "Transfers ownership of the contract to a new account (`newOwner`). Can only be called by the current owner."
      },
      "unpause()": {
        "details": "Unpauses all token transfers. See {ERC1155Pausable} and {Pausable-_unpause}. Requirements: - the caller must have the `PAUSER_ROLE`."
      },
      "uri(uint256)": {
        "details": "See {IERC1155MetadataURI-uri}. This implementation returns the same URI for *all* token types. It relies on the token type ID substitution mechanism https://eips.ethereum.org/EIPS/eip-1155#metadata[defined in the EIP]. Clients calling this function must replace the `\\{id\\}` substring with the actual token type ID."
      }
    },
    "version": 1
  },
  "userdoc": {
    "kind": "user",
    "methods": {},
    "version": 1
  }
}