{
  "contractName": "CreatorTokenFactory",
  "abi": [
    {
      "anonymous": false,
      "inputs": [
        {
          "indexed": false,
          "internalType": "uint256",
          "name": "tokenId",
          "type": "uint256"
        },
        {
          "indexed": false,
          "internalType": "address payable",
          "name": "creatorAddress",
          "type": "address"
        },
        {
          "indexed": false,
          "internalType": "string",
          "name": "name",
          "type": "string"
        },
        {
          "indexed": false,
          "internalType": "string",
          "name": "symbol",
          "type": "string"
        },
        {
          "indexed": false,
          "internalType": "string",
          "name": "description",
          "type": "string"
        },
        {
          "indexed": false,
          "internalType": "bool",
          "name": "verified",
          "type": "bool"
        },
        {
          "indexed": false,
          "internalType": "uint256",
          "name": "outstanding",
          "type": "uint256"
        },
        {
          "indexed": false,
          "internalType": "uint256",
          "name": "maxSupply",
          "type": "uint256"
        }
      ],
      "name": "NewCreatorToken",
      "type": "event"
    },
    {
      "anonymous": false,
      "inputs": [
        {
          "indexed": true,
          "internalType": "address",
          "name": "previousOwner",
          "type": "address"
        },
        {
          "indexed": true,
          "internalType": "address",
          "name": "newOwner",
          "type": "address"
        }
      ],
      "name": "OwnershipTransferred",
      "type": "event"
    },
    {
      "inputs": [
        {
          "internalType": "uint256",
          "name": "",
          "type": "uint256"
        }
      ],
      "name": "creatorTokens",
      "outputs": [
        {
          "internalType": "address payable",
          "name": "creatorAddress",
          "type": "address"
        },
        {
          "internalType": "string",
          "name": "name",
          "type": "string"
        },
        {
          "internalType": "string",
          "name": "symbol",
          "type": "string"
        },
        {
          "internalType": "string",
          "name": "description",
          "type": "string"
        },
        {
          "internalType": "bool",
          "name": "verified",
          "type": "bool"
        },
        {
          "internalType": "uint256",
          "name": "outstanding",
          "type": "uint256"
        },
        {
          "internalType": "uint256",
          "name": "maxSupply",
          "type": "uint256"
        }
      ],
      "stateMutability": "view",
      "type": "function"
    },
    {
      "inputs": [],
      "name": "owner",
      "outputs": [
        {
          "internalType": "address",
          "name": "",
          "type": "address"
        }
      ],
      "stateMutability": "view",
      "type": "function"
    },
    {
      "inputs": [],
      "name": "renounceOwnership",
      "outputs": [],
      "stateMutability": "nonpayable",
      "type": "function"
    },
    {
      "inputs": [
        {
          "internalType": "uint256",
          "name": "",
          "type": "uint256"
        },
        {
          "internalType": "address",
          "name": "",
          "type": "address"
        }
      ],
      "name": "tokenHoldership",
      "outputs": [
        {
          "internalType": "uint256",
          "name": "",
          "type": "uint256"
        }
      ],
      "stateMutability": "view",
      "type": "function"
    },
    {
      "inputs": [
        {
          "internalType": "uint256",
          "name": "",
          "type": "uint256"
        }
      ],
      "name": "tokenToCreator",
      "outputs": [
        {
          "internalType": "address",
          "name": "",
          "type": "address"
        }
      ],
      "stateMutability": "view",
      "type": "function"
    },
    {
      "inputs": [
        {
          "internalType": "address",
          "name": "newOwner",
          "type": "address"
        }
      ],
      "name": "transferOwnership",
      "outputs": [],
      "stateMutability": "nonpayable",
      "type": "function"
    },
    {
      "inputs": [
        {
          "internalType": "address",
          "name": "",
          "type": "address"
        },
        {
          "internalType": "uint256",
          "name": "",
          "type": "uint256"
        }
      ],
      "name": "userToHoldings",
      "outputs": [
        {
          "internalType": "uint256",
          "name": "",
          "type": "uint256"
        }
      ],
      "stateMutability": "view",
      "type": "function"
    },
    {
      "inputs": [
        {
          "internalType": "address payable",
          "name": "_creatorAddress",
          "type": "address"
        },
        {
          "internalType": "string",
          "name": "_name",
          "type": "string"
        },
        {
          "internalType": "string",
          "name": "_symbol",
          "type": "string"
        },
        {
          "internalType": "string",
          "name": "_description",
          "type": "string"
        }
      ],
      "name": "createCreatorToken",
      "outputs": [],
      "stateMutability": "nonpayable",
      "type": "function"
    }
  ],
  "bytecode": "0x60806040526001805560006002556000600355601460045565082f79cd900060055560b960065534801561003257600080fd5b5060006100436100e660201b60201c565b9050806000806101000a81548173ffffffffffffffffffffffffffffffffffffffff021916908373ffffffffffffffffffffffffffffffffffffffff1602179055508073ffffffffffffffffffffffffffffffffffffffff16600073ffffffffffffffffffffffffffffffffffffffff167f8be0079c531659141344cd1fd0a4f28419497f9722a3daafe3b4186f6b6457e060405160405180910390a3506100ee565b600033905090565b611211806100fd6000396000f3fe608060405234801561001057600080fd5b50600436106100885760003560e01c8063bfb48c9c1161005b578063bfb48c9c14610115578063ce901d8a14610145578063d56b72c71461017b578063f2fde38b1461019757610088565b806318892ae81461008d578063715018a6146100bd5780638da5cb5b146100c757806392724afa146100e5575b600080fd5b6100a760048036038101906100a29190610bf1565b6101b3565b6040516100b49190610d28565b60405180910390f35b6100c56101e6565b005b6100cf610320565b6040516100dc9190610d28565b60405180910390f35b6100ff60048036038101906100fa9190610bb1565b610349565b60405161010c9190610e07565b60405180910390f35b61012f600480360381019061012a9190610c1e565b61036e565b60405161013c9190610e07565b60405180910390f35b61015f600480360381019061015a9190610bf1565b610393565b6040516101729796959493929190610d43565b60405180910390f35b61019560048036038101906101909190610af6565b6105aa565b005b6101b160048036038101906101ac9190610ac9565b6107c6565b005b60086020528060005260406000206000915054906101000a900473ffffffffffffffffffffffffffffffffffffffff1681565b6101ee61096f565b73ffffffffffffffffffffffffffffffffffffffff1661020c610320565b73ffffffffffffffffffffffffffffffffffffffff1614610262576040517f08c379a000000000000000000000000000000000000000000000000000000000815260040161025990610de7565b60405180910390fd5b600073ffffffffffffffffffffffffffffffffffffffff1660008054906101000a900473ffffffffffffffffffffffffffffffffffffffff1673ffffffffffffffffffffffffffffffffffffffff167f8be0079c531659141344cd1fd0a4f28419497f9722a3daafe3b4186f6b6457e060405160405180910390a360008060006101000a81548173ffffffffffffffffffffffffffffffffffffffff021916908373ffffffffffffffffffffffffffffffffffffffff160217905550565b60008060009054906101000a900473ffffffffffffffffffffffffffffffffffffffff16905090565b600b602052816000526040600020602052806000526040600020600091509150505481565b600a602052816000526040600020602052806000526040600020600091509150505481565b600781815481106103a357600080fd5b90600052602060002090600702016000915090508060000160009054906101000a900473ffffffffffffffffffffffffffffffffffffffff16908060010180546103ec90611009565b80601f016020809104026020016040519081016040528092919081815260200182805461041890611009565b80156104655780601f1061043a57610100808354040283529160200191610465565b820191906000526020600020905b81548152906001019060200180831161044857829003601f168201915b50505050509080600201805461047a90611009565b80601f01602080910402602001604051908101604052809291908181526020018280546104a690611009565b80156104f35780601f106104c8576101008083540402835291602001916104f3565b820191906000526020600020905b8154815290600101906020018083116104d657829003601f168201915b50505050509080600301805461050890611009565b80601f016020809104026020016040519081016040528092919081815260200182805461053490611009565b80156105815780601f1061055657610100808354040283529160200191610581565b820191906000526020600020905b81548152906001019060200180831161056457829003601f168201915b5050505050908060040160009054906101000a900460ff16908060050154908060060154905087565b60076040518060e001604052808673ffffffffffffffffffffffffffffffffffffffff168152602001858152602001848152602001838152602001600015158152602001600081526020016000815250908060018154018082558091505060019003906000526020600020906007020160009091909190915060008201518160000160006101000a81548173ffffffffffffffffffffffffffffffffffffffff021916908373ffffffffffffffffffffffffffffffffffffffff1602179055506020820151816001019080519060200190610686929190610977565b5060408201518160020190805190602001906106a3929190610977565b5060608201518160030190805190602001906106c0929190610977565b5060808201518160040160006101000a81548160ff02191690831515021790555060a0820151816005015560c0820151816006015550506000600160078054905061070b9190610f27565b9050846008600083815260200190815260200160002060006101000a81548173ffffffffffffffffffffffffffffffffffffffff021916908373ffffffffffffffffffffffffffffffffffffffff160217905550600060096000838152602001908152602001600020819055507f3ef624c0f3fb7ad40b94c02078ea3e3a797dbfc21e921ee4bd2b8ad0ca6aa113818686868660008060006040516107b7989796959493929190610e22565b60405180910390a15050505050565b6107ce61096f565b73ffffffffffffffffffffffffffffffffffffffff166107ec610320565b73ffffffffffffffffffffffffffffffffffffffff1614610842576040517f08c379a000000000000000000000000000000000000000000000000000000000815260040161083990610de7565b60405180910390fd5b600073ffffffffffffffffffffffffffffffffffffffff168173ffffffffffffffffffffffffffffffffffffffff1614156108b2576040517f08c379a00000000000000000000000000000000000000000000000000000000081526004016108a990610dc7565b60405180910390fd5b8073ffffffffffffffffffffffffffffffffffffffff1660008054906101000a900473ffffffffffffffffffffffffffffffffffffffff1673ffffffffffffffffffffffffffffffffffffffff167f8be0079c531659141344cd1fd0a4f28419497f9722a3daafe3b4186f6b6457e060405160405180910390a3806000806101000a81548173ffffffffffffffffffffffffffffffffffffffff021916908373ffffffffffffffffffffffffffffffffffffffff16021790555050565b600033905090565b82805461098390611009565b90600052602060002090601f0160209004810192826109a557600085556109ec565b82601f106109be57805160ff19168380011785556109ec565b828001600101855582156109ec579182015b828111156109eb5782518255916020019190600101906109d0565b5b5090506109f991906109fd565b5090565b5b80821115610a165760008160009055506001016109fe565b5090565b6000610a2d610a2884610eda565b610eb5565b905082815260208101848484011115610a4957610a486110fe565b5b610a54848285610fc7565b509392505050565b600081359050610a6b81611196565b92915050565b600081359050610a80816111ad565b92915050565b600082601f830112610a9b57610a9a6110f9565b5b8135610aab848260208601610a1a565b91505092915050565b600081359050610ac3816111c4565b92915050565b600060208284031215610adf57610ade611108565b5b6000610aed84828501610a5c565b91505092915050565b60008060008060808587031215610b1057610b0f611108565b5b6000610b1e87828801610a71565b945050602085013567ffffffffffffffff811115610b3f57610b3e611103565b5b610b4b87828801610a86565b935050604085013567ffffffffffffffff811115610b6c57610b6b611103565b5b610b7887828801610a86565b925050606085013567ffffffffffffffff811115610b9957610b98611103565b5b610ba587828801610a86565b91505092959194509250565b60008060408385031215610bc857610bc7611108565b5b6000610bd685828601610a5c565b9250506020610be785828601610ab4565b9150509250929050565b600060208284031215610c0757610c06611108565b5b6000610c1584828501610ab4565b91505092915050565b60008060408385031215610c3557610c34611108565b5b6000610c4385828601610ab4565b9250506020610c5485828601610a5c565b9150509250929050565b610c6781610f6d565b82525050565b610c7681610f5b565b82525050565b610c8581610f7f565b82525050565b610c9481610fb5565b82525050565b6000610ca582610f0b565b610caf8185610f16565b9350610cbf818560208601610fd6565b610cc88161110d565b840191505092915050565b6000610ce0602683610f16565b9150610ceb8261111e565b604082019050919050565b6000610d03602083610f16565b9150610d0e8261116d565b602082019050919050565b610d2281610fab565b82525050565b6000602082019050610d3d6000830184610c6d565b92915050565b600060e082019050610d58600083018a610c5e565b8181036020830152610d6a8189610c9a565b90508181036040830152610d7e8188610c9a565b90508181036060830152610d928187610c9a565b9050610da16080830186610c7c565b610dae60a0830185610d19565b610dbb60c0830184610d19565b98975050505050505050565b60006020820190508181036000830152610de081610cd3565b9050919050565b60006020820190508181036000830152610e0081610cf6565b9050919050565b6000602082019050610e1c6000830184610d19565b92915050565b600061010082019050610e38600083018b610d19565b610e45602083018a610c5e565b8181036040830152610e578189610c9a565b90508181036060830152610e6b8188610c9a565b90508181036080830152610e7f8187610c9a565b9050610e8e60a0830186610c7c565b610e9b60c0830185610c8b565b610ea860e0830184610c8b565b9998505050505050505050565b6000610ebf610ed0565b9050610ecb828261103b565b919050565b6000604051905090565b600067ffffffffffffffff821115610ef557610ef46110ca565b5b610efe8261110d565b9050602081019050919050565b600081519050919050565b600082825260208201905092915050565b6000610f3282610fab565b9150610f3d83610fab565b925082821015610f5057610f4f61106c565b5b828203905092915050565b6000610f6682610f8b565b9050919050565b6000610f7882610f8b565b9050919050565b60008115159050919050565b600073ffffffffffffffffffffffffffffffffffffffff82169050919050565b6000819050919050565b6000610fc082610fab565b9050919050565b82818337600083830152505050565b60005b83811015610ff4578082015181840152602081019050610fd9565b83811115611003576000848401525b50505050565b6000600282049050600182168061102157607f821691505b602082108114156110355761103461109b565b5b50919050565b6110448261110d565b810181811067ffffffffffffffff82111715611063576110626110ca565b5b80604052505050565b7f4e487b7100000000000000000000000000000000000000000000000000000000600052601160045260246000fd5b7f4e487b7100000000000000000000000000000000000000000000000000000000600052602260045260246000fd5b7f4e487b7100000000000000000000000000000000000000000000000000000000600052604160045260246000fd5b600080fd5b600080fd5b600080fd5b600080fd5b6000601f19601f8301169050919050565b7f4f776e61626c653a206e6577206f776e657220697320746865207a65726f206160008201527f6464726573730000000000000000000000000000000000000000000000000000602082015250565b7f4f776e61626c653a2063616c6c6572206973206e6f7420746865206f776e6572600082015250565b61119f81610f5b565b81146111aa57600080fd5b50565b6111b681610f6d565b81146111c157600080fd5b50565b6111cd81610fab565b81146111d857600080fd5b5056fea264697066735822122097113c6b12565def3133313c5530b7ecaa9d3df183b67d05a1b2a740ee09a1c764736f6c63430008060033",
  "immutableReferences": {},
  "source": "// SPDX-License-Identifier: MIT\npragma solidity ^0.8.0;\n\nimport \"@openzeppelin/contracts/access/Ownable.sol\";\n\ncontract CreatorTokenFactory is Ownable {\n\n\t// Event that fires whenever a new CreatorToken is created\n\tevent NewCreatorToken(uint tokenId, address payable creatorAddress, string name, string symbol, string description, bool verified, uint outstanding, uint maxSupply);\n\n\t// Pay-on-top style platform fee on each transaction\n\tuint platformFee = 1; // e.g., if platformFee == 1/, the platform earns 1% of each transaction's value\n\t// Variable to track total platform fees generated\n\tuint totalPlatformFees = 0;\n\t// Variable to track platform fees owed, but not yet paid to owner\n\tuint platformFeesOwed = 0;\n\n\t// Profit margin (percentage of total revenue) directed toward creator\n\tuint profitMargin = 20;\n\n\t// Slope of buy price function\n\tuint mNumerator = 9000000000000;\n\tuint mDenominator = 185;\n\t//uint mNumerator = 9;\n\t//uint mDenominator = 10000;\n\t//uint m = mNumerator/mDenominator;\n\n\tstruct CreatorToken {\n\t\taddress payable creatorAddress;\n\t\tstring name;\n\t\tstring symbol;\n\t\tstring description;\n\t\tbool verified;\n\t\tuint outstanding;\n\t\tuint maxSupply;\n\t}\n\n\t// Array of all CreatorTokens\n\tCreatorToken[] public creatorTokens;\n\n\t// Mapping from tokenId to creatorAddress\n\tmapping (uint => address) public tokenToCreator;\n\t// Mapping from tokenId to token value transferred (to creator/platform)\n\tmapping (uint => uint) internal tokenValueTransferred;\n\t// Mapping from tokenId to mapping from address to quantity of tokenId held\n\tmapping(uint256 => mapping(address => uint256)) public tokenHoldership;\n\t// Mapping from user to mapping from tokenId to quantity of that token the user owns (to show a user's portfolio without having to iterate through tokenHoldership)\n\tmapping(address => mapping(uint256 => uint256)) public userToHoldings;\n\t// Mapping from account to operator approvals\n\tmapping(address => mapping(address => bool)) internal approvals;\n\n\t// Create a new CreatorToken\n\tfunction createCreatorToken(address payable _creatorAddress, string memory _name, string memory _symbol, string memory _description) public {\n\t\t// Add token to creatorTokens array\n\t\tcreatorTokens.push(CreatorToken(_creatorAddress, _name, _symbol, _description, false, 0, 0));\n\t\t// Create token id\n\t\tuint id = creatorTokens.length - 1;\n\t\t// Map from token id to creator's address\n\t\ttokenToCreator[id] = _creatorAddress;\n\t\t// Map from token id to amount of value transferred (0 at inception)\n\t\ttokenValueTransferred[id] = 0;\n\t\t// Emit token creation event\n\t\temit NewCreatorToken(id, _creatorAddress, _name, _symbol, _description, false, 0, 0);\n\t}\n}",
  "sourcePath": "/Users/kamilalizaisadik/DeFi/Dynamic Automated Market Maker/damm_solidity/contracts/creatortokenfactory.sol",
  "compiler": {
    "name": "solc",
    "version": "0.8.6+commit.11564f7e.Emscripten.clang"
  },
  "schemaVersion": "3.4.1",
  "updatedAt": "2021-07-01T23:27:36.874Z",
  "devdoc": {
    "kind": "dev",
    "methods": {
      "owner()": {
        "details": "Returns the address of the current owner."
      },
      "renounceOwnership()": {
        "details": "Leaves the contract without owner. It will not be possible to call `onlyOwner` functions anymore. Can only be called by the current owner. NOTE: Renouncing ownership will leave the contract without an owner, thereby removing any functionality that is only available to the owner."
      },
      "transferOwnership(address)": {
        "details": "Transfers ownership of the contract to a new account (`newOwner`). Can only be called by the current owner."
      }
    },
    "version": 1
  },
  "userdoc": {
    "kind": "user",
    "methods": {},
    "version": 1
  }
}