{
  "contractName": "CreatorTokenExchange",
  "abi": [
    {
      "inputs": [
        {
          "internalType": "string",
          "name": "uri",
          "type": "string"
        }
      ],
      "stateMutability": "nonpayable",
      "type": "constructor"
    },
    {
      "anonymous": false,
      "inputs": [
        {
          "indexed": true,
          "internalType": "address",
          "name": "account",
          "type": "address"
        },
        {
          "indexed": true,
          "internalType": "address",
          "name": "operator",
          "type": "address"
        },
        {
          "indexed": false,
          "internalType": "bool",
          "name": "approved",
          "type": "bool"
        }
      ],
      "name": "ApprovalForAll",
      "type": "event"
    },
    {
      "anonymous": false,
      "inputs": [
        {
          "indexed": false,
          "internalType": "uint256",
          "name": "tokenId",
          "type": "uint256"
        },
        {
          "indexed": false,
          "internalType": "address payable",
          "name": "creatorAddress",
          "type": "address"
        },
        {
          "indexed": false,
          "internalType": "string",
          "name": "name",
          "type": "string"
        },
        {
          "indexed": false,
          "internalType": "string",
          "name": "symbol",
          "type": "string"
        },
        {
          "indexed": false,
          "internalType": "string",
          "name": "description",
          "type": "string"
        },
        {
          "indexed": false,
          "internalType": "bool",
          "name": "verified",
          "type": "bool"
        },
        {
          "indexed": false,
          "internalType": "uint256",
          "name": "outstanding",
          "type": "uint256"
        },
        {
          "indexed": false,
          "internalType": "uint256",
          "name": "maxSupply",
          "type": "uint256"
        }
      ],
      "name": "NewCreatorToken",
      "type": "event"
    },
    {
      "anonymous": false,
      "inputs": [
        {
          "indexed": true,
          "internalType": "address",
          "name": "account",
          "type": "address"
        },
        {
          "indexed": false,
          "internalType": "uint256",
          "name": "amount",
          "type": "uint256"
        },
        {
          "indexed": false,
          "internalType": "string",
          "name": "transactionType",
          "type": "string"
        },
        {
          "indexed": false,
          "internalType": "uint256",
          "name": "tokenId",
          "type": "uint256"
        },
        {
          "indexed": false,
          "internalType": "string",
          "name": "name",
          "type": "string"
        },
        {
          "indexed": false,
          "internalType": "string",
          "name": "symbol",
          "type": "string"
        }
      ],
      "name": "NewTransaction",
      "type": "event"
    },
    {
      "anonymous": false,
      "inputs": [
        {
          "indexed": true,
          "internalType": "address",
          "name": "previousOwner",
          "type": "address"
        },
        {
          "indexed": true,
          "internalType": "address",
          "name": "newOwner",
          "type": "address"
        }
      ],
      "name": "OwnershipTransferred",
      "type": "event"
    },
    {
      "anonymous": false,
      "inputs": [
        {
          "indexed": true,
          "internalType": "address",
          "name": "operator",
          "type": "address"
        },
        {
          "indexed": true,
          "internalType": "address",
          "name": "from",
          "type": "address"
        },
        {
          "indexed": true,
          "internalType": "address",
          "name": "to",
          "type": "address"
        },
        {
          "indexed": false,
          "internalType": "uint256[]",
          "name": "ids",
          "type": "uint256[]"
        },
        {
          "indexed": false,
          "internalType": "uint256[]",
          "name": "values",
          "type": "uint256[]"
        }
      ],
      "name": "TransferBatch",
      "type": "event"
    },
    {
      "anonymous": false,
      "inputs": [
        {
          "indexed": true,
          "internalType": "address",
          "name": "operator",
          "type": "address"
        },
        {
          "indexed": true,
          "internalType": "address",
          "name": "from",
          "type": "address"
        },
        {
          "indexed": true,
          "internalType": "address",
          "name": "to",
          "type": "address"
        },
        {
          "indexed": false,
          "internalType": "uint256",
          "name": "id",
          "type": "uint256"
        },
        {
          "indexed": false,
          "internalType": "uint256",
          "name": "value",
          "type": "uint256"
        }
      ],
      "name": "TransferSingle",
      "type": "event"
    },
    {
      "anonymous": false,
      "inputs": [
        {
          "indexed": false,
          "internalType": "string",
          "name": "value",
          "type": "string"
        },
        {
          "indexed": true,
          "internalType": "uint256",
          "name": "id",
          "type": "uint256"
        }
      ],
      "name": "URI",
      "type": "event"
    },
    {
      "inputs": [
        {
          "internalType": "uint256",
          "name": "_tokenId",
          "type": "uint256"
        },
        {
          "internalType": "uint256",
          "name": "_amount",
          "type": "uint256"
        }
      ],
      "name": "_buyProceeds",
      "outputs": [
        {
          "internalType": "uint256",
          "name": "",
          "type": "uint256"
        }
      ],
      "stateMutability": "view",
      "type": "function"
    },
    {
      "inputs": [
        {
          "internalType": "uint256",
          "name": "_proceedsRequired",
          "type": "uint256"
        }
      ],
      "name": "_feeProceeds",
      "outputs": [
        {
          "internalType": "uint256",
          "name": "",
          "type": "uint256"
        }
      ],
      "stateMutability": "view",
      "type": "function"
    },
    {
      "inputs": [
        {
          "internalType": "uint256",
          "name": "_startingSupply",
          "type": "uint256"
        },
        {
          "internalType": "uint256",
          "name": "_amount",
          "type": "uint256"
        },
        {
          "internalType": "uint256",
          "name": "_mNumerator",
          "type": "uint256"
        },
        {
          "internalType": "uint256",
          "name": "_mDenominator",
          "type": "uint256"
        },
        {
          "internalType": "uint256",
          "name": "_maxSupply",
          "type": "uint256"
        },
        {
          "internalType": "uint256",
          "name": "_profitMargin",
          "type": "uint256"
        }
      ],
      "name": "_saleFunction",
      "outputs": [
        {
          "internalType": "uint256",
          "name": "",
          "type": "uint256"
        }
      ],
      "stateMutability": "pure",
      "type": "function"
    },
    {
      "inputs": [
        {
          "internalType": "uint256",
          "name": "_tokenId",
          "type": "uint256"
        },
        {
          "internalType": "uint256",
          "name": "_amount",
          "type": "uint256"
        }
      ],
      "name": "_totalProceeds",
      "outputs": [
        {
          "internalType": "uint256",
          "name": "",
          "type": "uint256"
        }
      ],
      "stateMutability": "view",
      "type": "function"
    },
    {
      "inputs": [
        {
          "internalType": "address",
          "name": "",
          "type": "address"
        },
        {
          "internalType": "address",
          "name": "",
          "type": "address"
        }
      ],
      "name": "approvals",
      "outputs": [
        {
          "internalType": "bool",
          "name": "",
          "type": "bool"
        }
      ],
      "stateMutability": "view",
      "type": "function"
    },
    {
      "inputs": [
        {
          "internalType": "address",
          "name": "account",
          "type": "address"
        },
        {
          "internalType": "uint256",
          "name": "id",
          "type": "uint256"
        }
      ],
      "name": "balanceOf",
      "outputs": [
        {
          "internalType": "uint256",
          "name": "",
          "type": "uint256"
        }
      ],
      "stateMutability": "view",
      "type": "function"
    },
    {
      "inputs": [
        {
          "internalType": "address[]",
          "name": "accounts",
          "type": "address[]"
        },
        {
          "internalType": "uint256[]",
          "name": "ids",
          "type": "uint256[]"
        }
      ],
      "name": "balanceOfBatch",
      "outputs": [
        {
          "internalType": "uint256[]",
          "name": "",
          "type": "uint256[]"
        }
      ],
      "stateMutability": "view",
      "type": "function"
    },
    {
      "inputs": [
        {
          "internalType": "uint256",
          "name": "_tokenId",
          "type": "uint256"
        },
        {
          "internalType": "address payable",
          "name": "_newCreatorAddress",
          "type": "address"
        }
      ],
      "name": "changeAddress",
      "outputs": [],
      "stateMutability": "nonpayable",
      "type": "function"
    },
    {
      "inputs": [
        {
          "internalType": "uint256",
          "name": "_tokenId",
          "type": "uint256"
        },
        {
          "internalType": "string",
          "name": "_newDescription",
          "type": "string"
        }
      ],
      "name": "changeDescription",
      "outputs": [],
      "stateMutability": "nonpayable",
      "type": "function"
    },
    {
      "inputs": [
        {
          "internalType": "uint256",
          "name": "_tokenId",
          "type": "uint256"
        },
        {
          "internalType": "string",
          "name": "_newName",
          "type": "string"
        }
      ],
      "name": "changeName",
      "outputs": [],
      "stateMutability": "nonpayable",
      "type": "function"
    },
    {
      "inputs": [
        {
          "internalType": "uint256",
          "name": "_newPlatformFee",
          "type": "uint256"
        }
      ],
      "name": "changePlatformFee",
      "outputs": [],
      "stateMutability": "nonpayable",
      "type": "function"
    },
    {
      "inputs": [
        {
          "internalType": "uint256",
          "name": "_newProfitMargin",
          "type": "uint256"
        }
      ],
      "name": "changeProfitMargin",
      "outputs": [],
      "stateMutability": "nonpayable",
      "type": "function"
    },
    {
      "inputs": [
        {
          "internalType": "uint256",
          "name": "_tokenId",
          "type": "uint256"
        },
        {
          "internalType": "string",
          "name": "_newSymbol",
          "type": "string"
        }
      ],
      "name": "changeSymbol",
      "outputs": [],
      "stateMutability": "nonpayable",
      "type": "function"
    },
    {
      "inputs": [
        {
          "internalType": "uint256",
          "name": "_tokenId",
          "type": "uint256"
        },
        {
          "internalType": "bool",
          "name": "_verified",
          "type": "bool"
        }
      ],
      "name": "changeVerification",
      "outputs": [],
      "stateMutability": "nonpayable",
      "type": "function"
    },
    {
      "inputs": [
        {
          "internalType": "address payable",
          "name": "_creatorAddress",
          "type": "address"
        },
        {
          "internalType": "string",
          "name": "_name",
          "type": "string"
        },
        {
          "internalType": "string",
          "name": "_symbol",
          "type": "string"
        },
        {
          "internalType": "string",
          "name": "_description",
          "type": "string"
        }
      ],
      "name": "createCreatorToken",
      "outputs": [],
      "stateMutability": "nonpayable",
      "type": "function"
    },
    {
      "inputs": [
        {
          "internalType": "uint256",
          "name": "",
          "type": "uint256"
        }
      ],
      "name": "creatorTokens",
      "outputs": [
        {
          "internalType": "address payable",
          "name": "creatorAddress",
          "type": "address"
        },
        {
          "internalType": "string",
          "name": "name",
          "type": "string"
        },
        {
          "internalType": "string",
          "name": "symbol",
          "type": "string"
        },
        {
          "internalType": "string",
          "name": "description",
          "type": "string"
        },
        {
          "internalType": "bool",
          "name": "verified",
          "type": "bool"
        },
        {
          "internalType": "uint256",
          "name": "outstanding",
          "type": "uint256"
        },
        {
          "internalType": "uint256",
          "name": "maxSupply",
          "type": "uint256"
        }
      ],
      "stateMutability": "view",
      "type": "function"
    },
    {
      "inputs": [],
      "name": "getCreatorTokenCount",
      "outputs": [
        {
          "internalType": "uint256",
          "name": "",
          "type": "uint256"
        }
      ],
      "stateMutability": "view",
      "type": "function"
    },
    {
      "inputs": [
        {
          "internalType": "uint256",
          "name": "_id",
          "type": "uint256"
        }
      ],
      "name": "getToken",
      "outputs": [
        {
          "components": [
            {
              "internalType": "address payable",
              "name": "creatorAddress",
              "type": "address"
            },
            {
              "internalType": "string",
              "name": "name",
              "type": "string"
            },
            {
              "internalType": "string",
              "name": "symbol",
              "type": "string"
            },
            {
              "internalType": "string",
              "name": "description",
              "type": "string"
            },
            {
              "internalType": "bool",
              "name": "verified",
              "type": "bool"
            },
            {
              "internalType": "uint256",
              "name": "outstanding",
              "type": "uint256"
            },
            {
              "internalType": "uint256",
              "name": "maxSupply",
              "type": "uint256"
            }
          ],
          "internalType": "struct CreatorTokenFactory.CreatorToken",
          "name": "",
          "type": "tuple"
        }
      ],
      "stateMutability": "view",
      "type": "function"
    },
    {
      "inputs": [
        {
          "internalType": "address",
          "name": "_account",
          "type": "address"
        },
        {
          "internalType": "address",
          "name": "_operator",
          "type": "address"
        }
      ],
      "name": "isApprovedForAll",
      "outputs": [
        {
          "internalType": "bool",
          "name": "",
          "type": "bool"
        }
      ],
      "stateMutability": "view",
      "type": "function"
    },
    {
      "inputs": [],
      "name": "owner",
      "outputs": [
        {
          "internalType": "address",
          "name": "",
          "type": "address"
        }
      ],
      "stateMutability": "view",
      "type": "function"
    },
    {
      "inputs": [
        {
          "internalType": "address payable",
          "name": "_owner",
          "type": "address"
        }
      ],
      "name": "payoutPlatformFees",
      "outputs": [],
      "stateMutability": "nonpayable",
      "type": "function"
    },
    {
      "inputs": [],
      "name": "platformFeesOwed",
      "outputs": [
        {
          "internalType": "uint256",
          "name": "",
          "type": "uint256"
        }
      ],
      "stateMutability": "view",
      "type": "function"
    },
    {
      "inputs": [],
      "name": "renounceOwnership",
      "outputs": [],
      "stateMutability": "nonpayable",
      "type": "function"
    },
    {
      "inputs": [
        {
          "internalType": "address",
          "name": "_from",
          "type": "address"
        },
        {
          "internalType": "address",
          "name": "_to",
          "type": "address"
        },
        {
          "internalType": "uint256[]",
          "name": "_ids",
          "type": "uint256[]"
        },
        {
          "internalType": "uint256[]",
          "name": "_amounts",
          "type": "uint256[]"
        },
        {
          "internalType": "bytes",
          "name": "_data",
          "type": "bytes"
        }
      ],
      "name": "safeBatchTransferFrom",
      "outputs": [],
      "stateMutability": "nonpayable",
      "type": "function"
    },
    {
      "inputs": [
        {
          "internalType": "address",
          "name": "_from",
          "type": "address"
        },
        {
          "internalType": "address",
          "name": "_to",
          "type": "address"
        },
        {
          "internalType": "uint256",
          "name": "_id",
          "type": "uint256"
        },
        {
          "internalType": "uint256",
          "name": "_amount",
          "type": "uint256"
        },
        {
          "internalType": "bytes",
          "name": "_data",
          "type": "bytes"
        }
      ],
      "name": "safeTransferFrom",
      "outputs": [],
      "stateMutability": "nonpayable",
      "type": "function"
    },
    {
      "inputs": [
        {
          "internalType": "address",
          "name": "_operator",
          "type": "address"
        },
        {
          "internalType": "bool",
          "name": "_approved",
          "type": "bool"
        }
      ],
      "name": "setApprovalForAll",
      "outputs": [],
      "stateMutability": "nonpayable",
      "type": "function"
    },
    {
      "inputs": [
        {
          "internalType": "bytes4",
          "name": "interfaceId",
          "type": "bytes4"
        }
      ],
      "name": "supportsInterface",
      "outputs": [
        {
          "internalType": "bool",
          "name": "",
          "type": "bool"
        }
      ],
      "stateMutability": "view",
      "type": "function"
    },
    {
      "inputs": [
        {
          "internalType": "uint256",
          "name": "",
          "type": "uint256"
        },
        {
          "internalType": "address",
          "name": "",
          "type": "address"
        }
      ],
      "name": "tokenHoldership",
      "outputs": [
        {
          "internalType": "uint256",
          "name": "",
          "type": "uint256"
        }
      ],
      "stateMutability": "view",
      "type": "function"
    },
    {
      "inputs": [
        {
          "internalType": "uint256",
          "name": "",
          "type": "uint256"
        }
      ],
      "name": "tokenToCreator",
      "outputs": [
        {
          "internalType": "address",
          "name": "",
          "type": "address"
        }
      ],
      "stateMutability": "view",
      "type": "function"
    },
    {
      "inputs": [
        {
          "internalType": "uint256",
          "name": "",
          "type": "uint256"
        }
      ],
      "name": "tokenValueTransferred",
      "outputs": [
        {
          "internalType": "uint256",
          "name": "",
          "type": "uint256"
        }
      ],
      "stateMutability": "view",
      "type": "function"
    },
    {
      "inputs": [],
      "name": "totalPlatformFees",
      "outputs": [
        {
          "internalType": "uint256",
          "name": "",
          "type": "uint256"
        }
      ],
      "stateMutability": "view",
      "type": "function"
    },
    {
      "inputs": [
        {
          "internalType": "uint256",
          "name": "",
          "type": "uint256"
        }
      ],
      "name": "totalValueLocked",
      "outputs": [
        {
          "internalType": "uint256",
          "name": "",
          "type": "uint256"
        }
      ],
      "stateMutability": "view",
      "type": "function"
    },
    {
      "inputs": [
        {
          "internalType": "address",
          "name": "newOwner",
          "type": "address"
        }
      ],
      "name": "transferOwnership",
      "outputs": [],
      "stateMutability": "nonpayable",
      "type": "function"
    },
    {
      "inputs": [
        {
          "internalType": "uint256",
          "name": "",
          "type": "uint256"
        }
      ],
      "name": "uri",
      "outputs": [
        {
          "internalType": "string",
          "name": "",
          "type": "string"
        }
      ],
      "stateMutability": "view",
      "type": "function"
    },
    {
      "inputs": [
        {
          "internalType": "address",
          "name": "",
          "type": "address"
        },
        {
          "internalType": "uint256",
          "name": "",
          "type": "uint256"
        }
      ],
      "name": "userToHoldings",
      "outputs": [
        {
          "internalType": "uint256",
          "name": "",
          "type": "uint256"
        }
      ],
      "stateMutability": "view",
      "type": "function"
    },
    {
      "inputs": [
        {
          "internalType": "address payable",
          "name": "_owner",
          "type": "address"
        }
      ],
      "name": "withdraw",
      "outputs": [],
      "stateMutability": "nonpayable",
      "type": "function"
    },
    {
      "inputs": [
        {
          "internalType": "uint256",
          "name": "_tokenId",
          "type": "uint256"
        },
        {
          "internalType": "uint256",
          "name": "_amount",
          "type": "uint256"
        }
      ],
      "name": "buyCreatorToken",
      "outputs": [],
      "stateMutability": "payable",
      "type": "function"
    },
    {
      "inputs": [
        {
          "internalType": "uint256",
          "name": "_tokenId",
          "type": "uint256"
        },
        {
          "internalType": "uint256",
          "name": "_amount",
          "type": "uint256"
        },
        {
          "internalType": "address payable",
          "name": "_seller",
          "type": "address"
        }
      ],
      "name": "sellCreatorToken",
      "outputs": [],
      "stateMutability": "payable",
      "type": "function"
    }
  ],
  "bytecode": "0x60806040526001805560006002556000600355601460045565082f79cd900060055560b96006553480156200003357600080fd5b5060405162004e9e38038062004e9e83398181016040528101906200005991906200027d565b80808080806000620000706200012b60201b60201c565b9050806000806101000a81548173ffffffffffffffffffffffffffffffffffffffff021916908373ffffffffffffffffffffffffffffffffffffffff1602179055508073ffffffffffffffffffffffffffffffffffffffff16600073ffffffffffffffffffffffffffffffffffffffff167f8be0079c531659141344cd1fd0a4f28419497f9722a3daafe3b4186f6b6457e060405160405180910390a3506200011f816200013360201b60201c565b50505050505062000452565b600033905090565b80601090805190602001906200014b9291906200014f565b5050565b8280546200015d9062000363565b90600052602060002090601f016020900481019282620001815760008555620001cd565b82601f106200019c57805160ff1916838001178555620001cd565b82800160010185558215620001cd579182015b82811115620001cc578251825591602001919060010190620001af565b5b509050620001dc9190620001e0565b5090565b5b80821115620001fb576000816000905550600101620001e1565b5090565b6000620002166200021084620002f7565b620002ce565b90508281526020810184848401111562000235576200023462000432565b5b620002428482856200032d565b509392505050565b600082601f8301126200026257620002616200042d565b5b815162000274848260208601620001ff565b91505092915050565b6000602082840312156200029657620002956200043c565b5b600082015167ffffffffffffffff811115620002b757620002b662000437565b5b620002c5848285016200024a565b91505092915050565b6000620002da620002ed565b9050620002e8828262000399565b919050565b6000604051905090565b600067ffffffffffffffff821115620003155762000314620003fe565b5b620003208262000441565b9050602081019050919050565b60005b838110156200034d57808201518184015260208101905062000330565b838111156200035d576000848401525b50505050565b600060028204905060018216806200037c57607f821691505b60208210811415620003935762000392620003cf565b5b50919050565b620003a48262000441565b810181811067ffffffffffffffff82111715620003c657620003c5620003fe565b5b80604052505050565b7f4e487b7100000000000000000000000000000000000000000000000000000000600052602260045260246000fd5b7f4e487b7100000000000000000000000000000000000000000000000000000000600052604160045260246000fd5b600080fd5b600080fd5b600080fd5b600080fd5b6000601f19601f8301169050919050565b614a3c80620004626000396000f3fe6080604052600436106102245760003560e01c8063ba111a0511610123578063d9bd3a40116100ab578063eb8417591161006f578063eb841759146108b5578063f242432a146108de578063f2fde38b14610907578063f7374e2e14610930578063fffae9411461095957610224565b8063d9bd3a4014610798578063de6a06ed146107d5578063df3c00b1146107fe578063e4b50cb81461083b578063e985e9c51461087857610224565b8063c539c317116100f2578063c539c317146106af578063ce901d8a146106d8578063d3631fa51461071b578063d56b72c714610746578063d7a5791a1461076f57610224565b8063ba111a05146105e1578063bfb48c9c1461061e578063c1d330491461065b578063c39cbef11461068657610224565b80632eb2c2d6116101b1578063715018a611610175578063715018a6146104fc5780638da5cb5b1461051357806392724afa1461053e578063a22cb4651461057b578063a32ce11e146105a457610224565b80632eb2c2d6146103f357806335a8ae211461041c5780634e1273f4146104595780634fe477d81461049657806351cff8d9146104d357610224565b806317bcaa08116101f857806317bcaa081461030957806318892ae8146103465780631d5ad18b146103835780632a2b237c146103ac5780632dcfdaf7146103d757610224565b8062fdd58e1461022957806301ffc9a71461026657806306e320f5146102a35780630e89341c146102cc575b600080fd5b34801561023557600080fd5b50610250600480360381019061024b91906138f4565b610975565b60405161025d9190614179565b60405180910390f35b34801561027257600080fd5b5061028d600480360381019061028891906139ac565b610a3f565b60405161029a919061409a565b60405180910390f35b3480156102af57600080fd5b506102ca60048036038101906102c59190613ac6565b610b21565b005b3480156102d857600080fd5b506102f360048036038101906102ee91906139d9565b610bc8565b60405161030091906140b5565b60405180910390f35b34801561031557600080fd5b50610330600480360381019061032b91906139d9565b610c5c565b60405161033d9190614179565b60405180910390f35b34801561035257600080fd5b5061036d600480360381019061036891906139d9565b610c74565b60405161037a9190613fa2565b60405180910390f35b34801561038f57600080fd5b506103aa60048036038101906103a59190613a46565b610ca7565b005b3480156103b857600080fd5b506103c1610d7c565b6040516103ce9190614179565b60405180910390f35b6103f160048036038101906103ec9190613b66565b610d89565b005b3480156103ff57600080fd5b5061041a6004803603810190610415919061374e565b610f77565b005b34801561042857600080fd5b50610443600480360381019061043e9190613b26565b6110e3565b6040516104509190614179565b60405180910390f35b34801561046557600080fd5b50610480600480360381019061047b9190613934565b61111b565b60405161048d9190614041565b60405180910390f35b3480156104a257600080fd5b506104bd60048036038101906104b89190613b26565b611234565b6040516104ca9190614179565b60405180910390f35b3480156104df57600080fd5b506104fa60048036038101906104f59190613626565b611441565b005b34801561050857600080fd5b50610511611507565b005b34801561051f57600080fd5b50610528611641565b6040516105359190613fa2565b60405180910390f35b34801561054a57600080fd5b50610565600480360381019061056091906138f4565b61166a565b6040516105729190614179565b60405180910390f35b34801561058757600080fd5b506105a2600480360381019061059d91906138b4565b61168f565b005b3480156105b057600080fd5b506105cb60048036038101906105c6919061370e565b61178c565b6040516105d8919061409a565b60405180910390f35b3480156105ed57600080fd5b50610608600480360381019061060391906139d9565b6117bb565b6040516106159190614179565b60405180910390f35b34801561062a57600080fd5b5061064560048036038101906106409190613a06565b6117de565b6040516106529190614179565b60405180910390f35b34801561066757600080fd5b50610670611803565b60405161067d9190614179565b60405180910390f35b34801561069257600080fd5b506106ad60048036038101906106a89190613ac6565b611809565b005b3480156106bb57600080fd5b506106d660048036038101906106d191906139d9565b6118b0565b005b3480156106e457600080fd5b506106ff60048036038101906106fa91906139d9565b611936565b6040516107129796959493929190613fbd565b60405180910390f35b34801561072757600080fd5b50610730611b4d565b60405161073d9190614179565b60405180910390f35b34801561075257600080fd5b5061076d60048036038101906107689190613653565b611b53565b005b34801561077b57600080fd5b50610796600480360381019061079191906139d9565b611d6f565b005b3480156107a457600080fd5b506107bf60048036038101906107ba91906139d9565b611df5565b6040516107cc9190614179565b60405180910390f35b3480156107e157600080fd5b506107fc60048036038101906107f79190613ac6565b611e0d565b005b34801561080a57600080fd5b5061082560048036038101906108209190613bb9565b611eb4565b6040516108329190614179565b60405180910390f35b34801561084757600080fd5b50610862600480360381019061085d91906139d9565b611f2d565b60405161086f9190614157565b60405180910390f35b34801561088457600080fd5b5061089f600480360381019061089a919061370e565b6121a4565b6040516108ac919061409a565b60405180910390f35b3480156108c157600080fd5b506108dc60048036038101906108d79190613626565b612238565b005b3480156108ea57600080fd5b506109056004803603810190610900919061381d565b612308565b005b34801561091357600080fd5b5061092e600480360381019061092991906135f9565b6123ec565b005b34801561093c57600080fd5b5061095760048036038101906109529190613a86565b612595565b005b610973600480360381019061096e9190613b26565b612652565b005b60008073ffffffffffffffffffffffffffffffffffffffff168373ffffffffffffffffffffffffffffffffffffffff1614156109e6576040517f08c379a00000000000000000000000000000000000000000000000000000000081526004016109dd906140d7565b60405180910390fd5b600e600083815260200190815260200160002060008473ffffffffffffffffffffffffffffffffffffffff1673ffffffffffffffffffffffffffffffffffffffff16815260200190815260200160002054905092915050565b60007fd9b67a26000000000000000000000000000000000000000000000000000000007bffffffffffffffffffffffffffffffffffffffffffffffffffffffff1916827bffffffffffffffffffffffffffffffffffffffffffffffffffffffff19161480610b0a57507f0e89341c000000000000000000000000000000000000000000000000000000007bffffffffffffffffffffffffffffffffffffffffffffffffffffffff1916827bffffffffffffffffffffffffffffffffffffffffffffffffffffffff1916145b80610b1a5750610b1982612863565b5b9050919050565b826008600082815260200190815260200160002060009054906101000a900473ffffffffffffffffffffffffffffffffffffffff1673ffffffffffffffffffffffffffffffffffffffff163373ffffffffffffffffffffffffffffffffffffffff1614610b8d57600080fd5b828260078681548110610ba357610ba261479e565b5b90600052602060002090600702016002019190610bc19291906131a0565b5050505050565b606060108054610bd790614665565b80601f0160208091040260200160405190810160405280929190818152602001828054610c0390614665565b8015610c505780601f10610c2557610100808354040283529160200191610c50565b820191906000526020600020905b815481529060010190602001808311610c3357829003601f168201915b50505050509050919050565b60096020528060005260406000206000915090505481565b60086020528060005260406000206000915054906101000a900473ffffffffffffffffffffffffffffffffffffffff1681565b816008600082815260200190815260200160002060009054906101000a900473ffffffffffffffffffffffffffffffffffffffff1673ffffffffffffffffffffffffffffffffffffffff163373ffffffffffffffffffffffffffffffffffffffff1614610d1357600080fd5b8160078481548110610d2857610d2761479e565b5b906000526020600020906007020160000160006101000a81548173ffffffffffffffffffffffffffffffffffffffff021916908373ffffffffffffffffffffffffffffffffffffffff160217905550505050565b6000600780549050905090565b3373ffffffffffffffffffffffffffffffffffffffff168173ffffffffffffffffffffffffffffffffffffffff1614610dc157600080fd5b6000610e2160078581548110610dda57610dd961479e565b5b9060005260206000209060070201600501548460055460065460078981548110610e0757610e0661479e565b5b906000526020600020906007020160060154600454611eb4565b905080600d60008681526020019081526020016000206000828254610e469190614557565b925050819055506000606460015483610e5f91906144fd565b610e6991906144cc565b90508082610e779190614557565b9150610e848386866128cd565b8273ffffffffffffffffffffffffffffffffffffffff166108fc839081150290604051600060405180830381858888f19350505050158015610eca573d6000803e3d6000fd5b50610ed4816129d0565b3373ffffffffffffffffffffffffffffffffffffffff167f1ebb537d8231cf8a6b1b0d1684d85dfd83872c030ffc75f500f0729eaf674d82858760078981548110610f2257610f2161479e565b5b906000526020600020906007020160010160078a81548110610f4757610f4661479e565b5b9060005260206000209060070201600201604051610f68949392919061428d565b60405180910390a25050505050565b60005b835181101561105d578573ffffffffffffffffffffffffffffffffffffffff163373ffffffffffffffffffffffffffffffffffffffff161480610fc35750610fc286866121a4565b5b610fcc57600080fd5b61100b86858381518110610fe357610fe261479e565b5b6020026020010151858481518110610ffe57610ffd61479e565b5b6020026020010151612a05565b61104a858583815181106110225761102161479e565b5b602002602001015185848151811061103d5761103c61479e565b5b6020026020010151612ad8565b8080611055906146c8565b915050610f7a565b508373ffffffffffffffffffffffffffffffffffffffff168573ffffffffffffffffffffffffffffffffffffffff163373ffffffffffffffffffffffffffffffffffffffff167f4a39dc06d4c0dbc64b70af90fd698a233a518aa5d07e595d983b8c0526c8f7fb86866040516110d4929190614063565b60405180910390a45050505050565b6000806110f08484611234565b905060006110fd826117bb565b90506000818361110d9190614476565b905080935050505092915050565b60608151835114611161576040517f08c379a000000000000000000000000000000000000000000000000000000000815260040161115890614137565b60405180910390fd5b6000835167ffffffffffffffff81111561117e5761117d6147cd565b5b6040519080825280602002602001820160405280156111ac5781602001602082028036833780820191505090505b50905060005b8451811015611229576111f98582815181106111d1576111d061479e565b5b60200260200101518583815181106111ec576111eb61479e565b5b6020026020010151610975565b82828151811061120c5761120b61479e565b5b60200260200101818152505080611222906146c8565b90506111b2565b508091505092915050565b600080600090506000600785815481106112515761125061479e565b5b9060005260206000209060070201600501549050600084826112739190614476565b9050600786815481106112895761128861479e565b5b9060005260206000209060070201600601548110156112e2576112db818660055460065460078b815481106112c1576112c061479e565b5b906000526020600020906007020160060154600454611eb4565b9250611435565b600786815481106112f6576112f561479e565b5b9060005260206000209060070201600601548210156114215761139d600787815481106113265761132561479e565b5b906000526020600020906007020160060154836007898154811061134d5761134c61479e565b5b9060005260206000209060070201600601546113699190614557565b60055460065460078b815481106113835761138261479e565b5b906000526020600020906007020160060154600454611eb4565b925061140f600787815481106113b6576113b561479e565b5b90600052602060002090600702016006015483600789815481106113dd576113dc61479e565b5b9060005260206000209060070201600601546113f99190614557565b876114049190614557565b600554600654612bab565b8361141a9190614476565b9250611434565b6114318286600554600654612bab565b92505b5b82935050505092915050565b611449612c39565b73ffffffffffffffffffffffffffffffffffffffff16611467611641565b73ffffffffffffffffffffffffffffffffffffffff16146114bd576040517f08c379a00000000000000000000000000000000000000000000000000000000081526004016114b490614117565b60405180910390fd5b8073ffffffffffffffffffffffffffffffffffffffff166108fc479081150290604051600060405180830381858888f19350505050158015611503573d6000803e3d6000fd5b5050565b61150f612c39565b73ffffffffffffffffffffffffffffffffffffffff1661152d611641565b73ffffffffffffffffffffffffffffffffffffffff1614611583576040517f08c379a000000000000000000000000000000000000000000000000000000000815260040161157a90614117565b60405180910390fd5b600073ffffffffffffffffffffffffffffffffffffffff1660008054906101000a900473ffffffffffffffffffffffffffffffffffffffff1673ffffffffffffffffffffffffffffffffffffffff167f8be0079c531659141344cd1fd0a4f28419497f9722a3daafe3b4186f6b6457e060405160405180910390a360008060006101000a81548173ffffffffffffffffffffffffffffffffffffffff021916908373ffffffffffffffffffffffffffffffffffffffff160217905550565b60008060009054906101000a900473ffffffffffffffffffffffffffffffffffffffff16905090565b600b602052816000526040600020602052806000526040600020600091509150505481565b80600c60003373ffffffffffffffffffffffffffffffffffffffff1673ffffffffffffffffffffffffffffffffffffffff16815260200190815260200160002060008473ffffffffffffffffffffffffffffffffffffffff1673ffffffffffffffffffffffffffffffffffffffff16815260200190815260200160002060006101000a81548160ff0219169083151502179055508173ffffffffffffffffffffffffffffffffffffffff163373ffffffffffffffffffffffffffffffffffffffff167f17307eab39ab6107e8899845ad3d59bd9653f200f220920489ca2b5937696c3183604051611780919061409a565b60405180910390a35050565b600c6020528160005260406000206020528060005260406000206000915091509054906101000a900460ff1681565b60006064600154836117cd91906144fd565b6117d791906144cc565b9050919050565b600a602052816000526040600020602052806000526040600020600091509150505481565b60035481565b826008600082815260200190815260200160002060009054906101000a900473ffffffffffffffffffffffffffffffffffffffff1673ffffffffffffffffffffffffffffffffffffffff163373ffffffffffffffffffffffffffffffffffffffff161461187557600080fd5b82826007868154811061188b5761188a61479e565b5b906000526020600020906007020160010191906118a99291906131a0565b5050505050565b6118b8612c39565b73ffffffffffffffffffffffffffffffffffffffff166118d6611641565b73ffffffffffffffffffffffffffffffffffffffff161461192c576040517f08c379a000000000000000000000000000000000000000000000000000000000815260040161192390614117565b60405180910390fd5b8060048190555050565b6007818154811061194657600080fd5b90600052602060002090600702016000915090508060000160009054906101000a900473ffffffffffffffffffffffffffffffffffffffff169080600101805461198f90614665565b80601f01602080910402602001604051908101604052809291908181526020018280546119bb90614665565b8015611a085780601f106119dd57610100808354040283529160200191611a08565b820191906000526020600020905b8154815290600101906020018083116119eb57829003601f168201915b505050505090806002018054611a1d90614665565b80601f0160208091040260200160405190810160405280929190818152602001828054611a4990614665565b8015611a965780601f10611a6b57610100808354040283529160200191611a96565b820191906000526020600020905b815481529060010190602001808311611a7957829003601f168201915b505050505090806003018054611aab90614665565b80601f0160208091040260200160405190810160405280929190818152602001828054611ad790614665565b8015611b245780601f10611af957610100808354040283529160200191611b24565b820191906000526020600020905b815481529060010190602001808311611b0757829003601f168201915b5050505050908060040160009054906101000a900460ff16908060050154908060060154905087565b60025481565b60076040518060e001604052808673ffffffffffffffffffffffffffffffffffffffff168152602001858152602001848152602001838152602001600015158152602001600081526020016000815250908060018154018082558091505060019003906000526020600020906007020160009091909190915060008201518160000160006101000a81548173ffffffffffffffffffffffffffffffffffffffff021916908373ffffffffffffffffffffffffffffffffffffffff1602179055506020820151816001019080519060200190611c2f929190613226565b506040820151816002019080519060200190611c4c929190613226565b506060820151816003019080519060200190611c69929190613226565b5060808201518160040160006101000a81548160ff02191690831515021790555060a0820151816005015560c08201518160060155505060006001600780549050611cb49190614557565b9050846008600083815260200190815260200160002060006101000a81548173ffffffffffffffffffffffffffffffffffffffff021916908373ffffffffffffffffffffffffffffffffffffffff160217905550600060096000838152602001908152602001600020819055507f3ef624c0f3fb7ad40b94c02078ea3e3a797dbfc21e921ee4bd2b8ad0ca6aa11381868686866000806000604051611d60989796959493929190614194565b60405180910390a15050505050565b611d77612c39565b73ffffffffffffffffffffffffffffffffffffffff16611d95611641565b73ffffffffffffffffffffffffffffffffffffffff1614611deb576040517f08c379a0000000000000000000000000000000000000000000000000000000008152600401611de290614117565b60405180910390fd5b8060018190555050565b600d6020528060005260406000206000915090505481565b826008600082815260200190815260200160002060009054906101000a900473ffffffffffffffffffffffffffffffffffffffff1673ffffffffffffffffffffffffffffffffffffffff163373ffffffffffffffffffffffffffffffffffffffff1614611e7957600080fd5b828260078681548110611e8f57611e8e61479e565b5b90600052602060002090600702016003019190611ead9291906131a0565b5050505050565b600080600080611ec88a8a8a8a8a8a612c41565b9250925092506000838b1015611eeb57611ee484848d85612cbc565b9050611f1c565b83821015611f0957611f0284848d858d8d8d612d5f565b9050611f1b565b611f1884848d858d8d8d612e81565b90505b5b809450505050509695505050505050565b611f356132ac565b60078281548110611f4957611f4861479e565b5b90600052602060002090600702016040518060e00160405290816000820160009054906101000a900473ffffffffffffffffffffffffffffffffffffffff1673ffffffffffffffffffffffffffffffffffffffff1673ffffffffffffffffffffffffffffffffffffffff168152602001600182018054611fc890614665565b80601f0160208091040260200160405190810160405280929190818152602001828054611ff490614665565b80156120415780601f1061201657610100808354040283529160200191612041565b820191906000526020600020905b81548152906001019060200180831161202457829003601f168201915b5050505050815260200160028201805461205a90614665565b80601f016020809104026020016040519081016040528092919081815260200182805461208690614665565b80156120d35780601f106120a8576101008083540402835291602001916120d3565b820191906000526020600020905b8154815290600101906020018083116120b657829003601f168201915b505050505081526020016003820180546120ec90614665565b80601f016020809104026020016040519081016040528092919081815260200182805461211890614665565b80156121655780601f1061213a57610100808354040283529160200191612165565b820191906000526020600020905b81548152906001019060200180831161214857829003601f168201915b505050505081526020016004820160009054906101000a900460ff16151515158152602001600582015481526020016006820154815250509050919050565b6000600c60008473ffffffffffffffffffffffffffffffffffffffff1673ffffffffffffffffffffffffffffffffffffffff16815260200190815260200160002060008373ffffffffffffffffffffffffffffffffffffffff1673ffffffffffffffffffffffffffffffffffffffff16815260200190815260200160002060009054906101000a900460ff16905092915050565b612240612c39565b73ffffffffffffffffffffffffffffffffffffffff1661225e611641565b73ffffffffffffffffffffffffffffffffffffffff16146122b4576040517f08c379a00000000000000000000000000000000000000000000000000000000081526004016122ab90614117565b60405180910390fd5b8073ffffffffffffffffffffffffffffffffffffffff166108fc6003549081150290604051600060405180830381858888f193505050501580156122fc573d6000803e3d6000fd5b50600060038190555050565b8473ffffffffffffffffffffffffffffffffffffffff163373ffffffffffffffffffffffffffffffffffffffff161480612348575061234785856121a4565b5b61235157600080fd5b61235c858484612a05565b612367848484612ad8565b8373ffffffffffffffffffffffffffffffffffffffff168573ffffffffffffffffffffffffffffffffffffffff163373ffffffffffffffffffffffffffffffffffffffff167fc3d58168c5ae7397731d063d5bbf3d657854427343f4c083240f7aacaa2d0f6286866040516123dd9291906142f3565b60405180910390a45050505050565b6123f4612c39565b73ffffffffffffffffffffffffffffffffffffffff16612412611641565b73ffffffffffffffffffffffffffffffffffffffff1614612468576040517f08c379a000000000000000000000000000000000000000000000000000000000815260040161245f90614117565b60405180910390fd5b600073ffffffffffffffffffffffffffffffffffffffff168173ffffffffffffffffffffffffffffffffffffffff1614156124d8576040517f08c379a00000000000000000000000000000000000000000000000000000000081526004016124cf906140f7565b60405180910390fd5b8073ffffffffffffffffffffffffffffffffffffffff1660008054906101000a900473ffffffffffffffffffffffffffffffffffffffff1673ffffffffffffffffffffffffffffffffffffffff167f8be0079c531659141344cd1fd0a4f28419497f9722a3daafe3b4186f6b6457e060405160405180910390a3806000806101000a81548173ffffffffffffffffffffffffffffffffffffffff021916908373ffffffffffffffffffffffffffffffffffffffff16021790555050565b61259d612c39565b73ffffffffffffffffffffffffffffffffffffffff166125bb611641565b73ffffffffffffffffffffffffffffffffffffffff1614612611576040517f08c379a000000000000000000000000000000000000000000000000000000000815260040161260890614117565b60405180910390fd5b80600783815481106126265761262561479e565b5b906000526020600020906007020160040160006101000a81548160ff0219169083151502179055505050565b600061265e83836110e3565b905080341461266c57600080fd5b60006126788484611234565b905080600d6000868152602001908152602001600020600082825461269d9190614476565b925050819055506126b56126b0826117bb565b6129d0565b6126d033858560405180602001604052806000815250612f7f565b3373ffffffffffffffffffffffffffffffffffffffff167f1ebb537d8231cf8a6b1b0d1684d85dfd83872c030ffc75f500f0729eaf674d8284866007888154811061271e5761271d61479e565b5b9060005260206000209060070201600101600789815481106127435761274261479e565b5b90600052602060002090600702016002016040516127649493929190614227565b60405180910390a2600784815481106127805761277f61479e565b5b906000526020600020906007020160060154600785815481106127a6576127a561479e565b5b906000526020600020906007020160050154111561285d57600784815481106127d2576127d161479e565b5b906000526020600020906007020160050154600785815481106127f8576127f761479e565b5b90600052602060002090600702016006018190555061285c84600786815481106128255761282461479e565b5b906000526020600020906007020160000160009054906101000a900473ffffffffffffffffffffffffffffffffffffffff1661304b565b5b50505050565b60007f01ffc9a7000000000000000000000000000000000000000000000000000000007bffffffffffffffffffffffffffffffffffffffffffffffffffffffff1916827bffffffffffffffffffffffffffffffffffffffffffffffffffffffff1916149050919050565b8273ffffffffffffffffffffffffffffffffffffffff163373ffffffffffffffffffffffffffffffffffffffff161461290557600080fd5b612910838383612a05565b80600783815481106129255761292461479e565b5b906000526020600020906007020160050160008282546129459190614557565b92505081905550600073ffffffffffffffffffffffffffffffffffffffff168373ffffffffffffffffffffffffffffffffffffffff163373ffffffffffffffffffffffffffffffffffffffff167fc3d58168c5ae7397731d063d5bbf3d657854427343f4c083240f7aacaa2d0f6285856040516129c39291906142f3565b60405180910390a4505050565b80600260008282546129e29190614476565b9250508190555080600360008282546129fb9190614476565b9250508190555050565b80600a600084815260200190815260200160002060008573ffffffffffffffffffffffffffffffffffffffff1673ffffffffffffffffffffffffffffffffffffffff1681526020019081526020016000206000828254612a659190614557565b9250508190555080600b60008573ffffffffffffffffffffffffffffffffffffffff1673ffffffffffffffffffffffffffffffffffffffff16815260200190815260200160002060008481526020019081526020016000206000828254612acc9190614557565b92505081905550505050565b80600a600084815260200190815260200160002060008573ffffffffffffffffffffffffffffffffffffffff1673ffffffffffffffffffffffffffffffffffffffff1681526020019081526020016000206000828254612b389190614476565b9250508190555080600b60008573ffffffffffffffffffffffffffffffffffffffff1673ffffffffffffffffffffffffffffffffffffffff16815260200190815260200160002060008481526020019081526020016000206000828254612b9f9190614476565b92505081905550505050565b6000808486612bba9190614476565b90506000838786612bcb91906144fd565b612bd591906144cc565b90506000848387612be691906144fd565b612bf091906144cc565b905060008884612c009190614557565b905060006002828486612c139190614476565b612c1d91906144fd565b612c2791906144cc565b90508095505050505050949350505050565b600033905090565b600080600080600286612c5491906144cc565b9050600087896064886032612c699190614557565b8a612c7491906144fd565b612c7e91906144cc565b612c8891906144fd565b612c9291906144cc565b905060008a8c612ca29190614557565b905082828295509550955050505096509650969350505050565b6000808286612ccb9190614557565b8686612cd791906144cc565b612ce191906144fd565b85612cec9190614557565b905060008487612cfc9190614557565b8787612d0891906144cc565b612d1291906144fd565b86612d1d9190614557565b905060008486612d2d9190614557565b90506002818385612d3e9190614476565b612d4891906144fd565b612d5291906144cc565b9350505050949350505050565b6000808589612d6e9190614557565b8989612d7a91906144cc565b612d8491906144fd565b88612d8f9190614557565b905060008890506000878b612da49190614557565b905060006002828486612db79190614476565b612dc191906144fd565b612dcb91906144cc565b905060008b8d8c612ddc9190614557565b8e89612de89190614557565b8e8b8b8e612df691906144fd565b612e0091906144cc565b612e0a9190614557565b612e1491906144cc565b612e1e91906144fd565b612e289190614476565b905060008d8c612e389190614557565b905060006002828488612e4b9190614476565b612e5591906144fd565b612e5f91906144cc565b90508084612e6d9190614476565b975050505050505050979650505050505050565b600080878987612e919190614557565b8a85612e9d9190614557565b8a87878a612eab91906144fd565b612eb591906144cc565b612ebf9190614557565b612ec991906144cc565b612ed391906144fd565b612edd9190614476565b90506000888a89612eee9190614557565b8b86612efa9190614557565b8b88888b612f0891906144fd565b612f1291906144cc565b612f1c9190614557565b612f2691906144cc565b612f3091906144fd565b612f3a9190614476565b905060008789612f4a9190614557565b90506002818385612f5b9190614476565b612f6591906144fd565b612f6f91906144cc565b9350505050979650505050505050565b612f8a848484612ad8565b8160078481548110612f9f57612f9e61479e565b5b90600052602060002090600702016005016000828254612fbf9190614476565b925050819055508373ffffffffffffffffffffffffffffffffffffffff16600073ffffffffffffffffffffffffffffffffffffffff163373ffffffffffffffffffffffffffffffffffffffff167fc3d58168c5ae7397731d063d5bbf3d657854427343f4c083240f7aacaa2d0f62868660405161303d9291906142f3565b60405180910390a450505050565b60006009600084815260200190815260200160002054905060006130e86007858154811061307c5761307b61479e565b5b906000526020600020906007020160060154600786815481106130a2576130a161479e565b5b906000526020600020906007020160060154600554600654600789815481106130ce576130cd61479e565b5b906000526020600020906007020160060154600454611eb4565b61311e6000600787815481106131015761310061479e565b5b906000526020600020906007020160060154600554600654612bab565b6131289190614557565b9050600082826131389190614557565b90508373ffffffffffffffffffffffffffffffffffffffff166108fc829081150290604051600060405180830381858888f19350505050158015613180573d6000803e3d6000fd5b508160096000878152602001908152602001600020819055505050505050565b8280546131ac90614665565b90600052602060002090601f0160209004810192826131ce5760008555613215565b82601f106131e757803560ff1916838001178555613215565b82800160010185558215613215579182015b828111156132145782358255916020019190600101906131f9565b5b5090506132229190613301565b5090565b82805461323290614665565b90600052602060002090601f016020900481019282613254576000855561329b565b82601f1061326d57805160ff191683800117855561329b565b8280016001018555821561329b579182015b8281111561329a57825182559160200191906001019061327f565b5b5090506132a89190613301565b5090565b6040518060e00160405280600073ffffffffffffffffffffffffffffffffffffffff16815260200160608152602001606081526020016060815260200160001515815260200160008152602001600081525090565b5b8082111561331a576000816000905550600101613302565b5090565b600061333161332c84614341565b61431c565b9050808382526020820190508285602086028201111561335457613353614806565b5b60005b85811015613384578161336a8882613482565b845260208401935060208301925050600181019050613357565b5050509392505050565b60006133a161339c8461436d565b61431c565b905080838252602082019050828560208602820111156133c4576133c3614806565b5b60005b858110156133f457816133da88826135e4565b8452602084019350602083019250506001810190506133c7565b5050509392505050565b600061341161340c84614399565b61431c565b90508281526020810184848401111561342d5761342c61480b565b5b613438848285614623565b509392505050565b600061345361344e846143ca565b61431c565b90508281526020810184848401111561346f5761346e61480b565b5b61347a848285614623565b509392505050565b60008135905061349181614993565b92915050565b6000813590506134a6816149aa565b92915050565b600082601f8301126134c1576134c0614801565b5b81356134d184826020860161331e565b91505092915050565b600082601f8301126134ef576134ee614801565b5b81356134ff84826020860161338e565b91505092915050565b600081359050613517816149c1565b92915050565b60008135905061352c816149d8565b92915050565b600082601f83011261354757613546614801565b5b81356135578482602086016133fe565b91505092915050565b60008083601f84011261357657613575614801565b5b8235905067ffffffffffffffff811115613593576135926147fc565b5b6020830191508360018202830111156135af576135ae614806565b5b9250929050565b600082601f8301126135cb576135ca614801565b5b81356135db848260208601613440565b91505092915050565b6000813590506135f3816149ef565b92915050565b60006020828403121561360f5761360e614815565b5b600061361d84828501613482565b91505092915050565b60006020828403121561363c5761363b614815565b5b600061364a84828501613497565b91505092915050565b6000806000806080858703121561366d5761366c614815565b5b600061367b87828801613497565b945050602085013567ffffffffffffffff81111561369c5761369b614810565b5b6136a8878288016135b6565b935050604085013567ffffffffffffffff8111156136c9576136c8614810565b5b6136d5878288016135b6565b925050606085013567ffffffffffffffff8111156136f6576136f5614810565b5b613702878288016135b6565b91505092959194509250565b6000806040838503121561372557613724614815565b5b600061373385828601613482565b925050602061374485828601613482565b9150509250929050565b600080600080600060a0868803121561376a57613769614815565b5b600061377888828901613482565b955050602061378988828901613482565b945050604086013567ffffffffffffffff8111156137aa576137a9614810565b5b6137b6888289016134da565b935050606086013567ffffffffffffffff8111156137d7576137d6614810565b5b6137e3888289016134da565b925050608086013567ffffffffffffffff81111561380457613803614810565b5b61381088828901613532565b9150509295509295909350565b600080600080600060a0868803121561383957613838614815565b5b600061384788828901613482565b955050602061385888828901613482565b9450506040613869888289016135e4565b935050606061387a888289016135e4565b925050608086013567ffffffffffffffff81111561389b5761389a614810565b5b6138a788828901613532565b9150509295509295909350565b600080604083850312156138cb576138ca614815565b5b60006138d985828601613482565b92505060206138ea85828601613508565b9150509250929050565b6000806040838503121561390b5761390a614815565b5b600061391985828601613482565b925050602061392a858286016135e4565b9150509250929050565b6000806040838503121561394b5761394a614815565b5b600083013567ffffffffffffffff81111561396957613968614810565b5b613975858286016134ac565b925050602083013567ffffffffffffffff81111561399657613995614810565b5b6139a2858286016134da565b9150509250929050565b6000602082840312156139c2576139c1614815565b5b60006139d08482850161351d565b91505092915050565b6000602082840312156139ef576139ee614815565b5b60006139fd848285016135e4565b91505092915050565b60008060408385031215613a1d57613a1c614815565b5b6000613a2b858286016135e4565b9250506020613a3c85828601613482565b9150509250929050565b60008060408385031215613a5d57613a5c614815565b5b6000613a6b858286016135e4565b9250506020613a7c85828601613497565b9150509250929050565b60008060408385031215613a9d57613a9c614815565b5b6000613aab858286016135e4565b9250506020613abc85828601613508565b9150509250929050565b600080600060408486031215613adf57613ade614815565b5b6000613aed868287016135e4565b935050602084013567ffffffffffffffff811115613b0e57613b0d614810565b5b613b1a86828701613560565b92509250509250925092565b60008060408385031215613b3d57613b3c614815565b5b6000613b4b858286016135e4565b9250506020613b5c858286016135e4565b9150509250929050565b600080600060608486031215613b7f57613b7e614815565b5b6000613b8d868287016135e4565b9350506020613b9e868287016135e4565b9250506040613baf86828701613497565b9150509250925092565b60008060008060008060c08789031215613bd657613bd5614815565b5b6000613be489828a016135e4565b9650506020613bf589828a016135e4565b9550506040613c0689828a016135e4565b9450506060613c1789828a016135e4565b9350506080613c2889828a016135e4565b92505060a0613c3989828a016135e4565b9150509295509295509295565b6000613c528383613f84565b60208301905092915050565b613c678161459d565b82525050565b613c768161459d565b82525050565b613c858161458b565b82525050565b6000613c9682614420565b613ca08185614443565b9350613cab836143fb565b8060005b83811015613cdc578151613cc38882613c46565b9750613cce83614436565b925050600181019050613caf565b5085935050505092915050565b613cf2816145af565b82525050565b613d01816145af565b82525050565b613d1081614611565b82525050565b6000613d218261442b565b613d2b8185614454565b9350613d3b818560208601614632565b613d448161481a565b840191505092915050565b6000613d5a8261442b565b613d648185614465565b9350613d74818560208601614632565b613d7d8161481a565b840191505092915050565b60008154613d9581614665565b613d9f8186614465565b94506001821660008114613dba5760018114613dcc57613dff565b60ff1983168652602086019350613dff565b613dd58561440b565b60005b83811015613df757815481890152600182019150602081019050613dd8565b808801955050505b50505092915050565b6000613e15602b83614465565b9150613e208261482b565b604082019050919050565b6000613e38602683614465565b9150613e438261487a565b604082019050919050565b6000613e5b600383614465565b9150613e66826148c9565b602082019050919050565b6000613e7e602083614465565b9150613e89826148f2565b602082019050919050565b6000613ea1602983614465565b9150613eac8261491b565b604082019050919050565b6000613ec4600483614465565b9150613ecf8261496a565b602082019050919050565b600060e083016000830151613ef26000860182613c5e565b5060208301518482036020860152613f0a8282613d16565b91505060408301518482036040860152613f248282613d16565b91505060608301518482036060860152613f3e8282613d16565b9150506080830151613f536080860182613ce9565b5060a0830151613f6660a0860182613f84565b5060c0830151613f7960c0860182613f84565b508091505092915050565b613f8d81614607565b82525050565b613f9c81614607565b82525050565b6000602082019050613fb76000830184613c7c565b92915050565b600060e082019050613fd2600083018a613c6d565b8181036020830152613fe48189613d4f565b90508181036040830152613ff88188613d4f565b9050818103606083015261400c8187613d4f565b905061401b6080830186613cf8565b61402860a0830185613f93565b61403560c0830184613f93565b98975050505050505050565b6000602082019050818103600083015261405b8184613c8b565b905092915050565b6000604082019050818103600083015261407d8185613c8b565b905081810360208301526140918184613c8b565b90509392505050565b60006020820190506140af6000830184613cf8565b92915050565b600060208201905081810360008301526140cf8184613d4f565b905092915050565b600060208201905081810360008301526140f081613e08565b9050919050565b6000602082019050818103600083015261411081613e2b565b9050919050565b6000602082019050818103600083015261413081613e71565b9050919050565b6000602082019050818103600083015261415081613e94565b9050919050565b600060208201905081810360008301526141718184613eda565b905092915050565b600060208201905061418e6000830184613f93565b92915050565b6000610100820190506141aa600083018b613f93565b6141b7602083018a613c6d565b81810360408301526141c98189613d4f565b905081810360608301526141dd8188613d4f565b905081810360808301526141f18187613d4f565b905061420060a0830186613cf8565b61420d60c0830185613d07565b61421a60e0830184613d07565b9998505050505050505050565b600060a08201905061423c6000830187613f93565b818103602083015261424d81613e4e565b905061425c6040830186613f93565b818103606083015261426e8185613d88565b905081810360808301526142828184613d88565b905095945050505050565b600060a0820190506142a26000830187613f93565b81810360208301526142b381613eb7565b90506142c26040830186613f93565b81810360608301526142d48185613d88565b905081810360808301526142e88184613d88565b905095945050505050565b60006040820190506143086000830185613f93565b6143156020830184613f93565b9392505050565b6000614326614337565b90506143328282614697565b919050565b6000604051905090565b600067ffffffffffffffff82111561435c5761435b6147cd565b5b602082029050602081019050919050565b600067ffffffffffffffff821115614388576143876147cd565b5b602082029050602081019050919050565b600067ffffffffffffffff8211156143b4576143b36147cd565b5b6143bd8261481a565b9050602081019050919050565b600067ffffffffffffffff8211156143e5576143e46147cd565b5b6143ee8261481a565b9050602081019050919050565b6000819050602082019050919050565b60008190508160005260206000209050919050565b600081519050919050565b600081519050919050565b6000602082019050919050565b600082825260208201905092915050565b600082825260208201905092915050565b600082825260208201905092915050565b600061448182614607565b915061448c83614607565b9250827fffffffffffffffffffffffffffffffffffffffffffffffffffffffffffffffff038211156144c1576144c0614711565b5b828201905092915050565b60006144d782614607565b91506144e283614607565b9250826144f2576144f1614740565b5b828204905092915050565b600061450882614607565b915061451383614607565b9250817fffffffffffffffffffffffffffffffffffffffffffffffffffffffffffffffff048311821515161561454c5761454b614711565b5b828202905092915050565b600061456282614607565b915061456d83614607565b9250828210156145805761457f614711565b5b828203905092915050565b6000614596826145e7565b9050919050565b60006145a8826145e7565b9050919050565b60008115159050919050565b60007fffffffff0000000000000000000000000000000000000000000000000000000082169050919050565b600073ffffffffffffffffffffffffffffffffffffffff82169050919050565b6000819050919050565b600061461c82614607565b9050919050565b82818337600083830152505050565b60005b83811015614650578082015181840152602081019050614635565b8381111561465f576000848401525b50505050565b6000600282049050600182168061467d57607f821691505b602082108114156146915761469061476f565b5b50919050565b6146a08261481a565b810181811067ffffffffffffffff821117156146bf576146be6147cd565b5b80604052505050565b60006146d382614607565b91507fffffffffffffffffffffffffffffffffffffffffffffffffffffffffffffffff82141561470657614705614711565b5b600182019050919050565b7f4e487b7100000000000000000000000000000000000000000000000000000000600052601160045260246000fd5b7f4e487b7100000000000000000000000000000000000000000000000000000000600052601260045260246000fd5b7f4e487b7100000000000000000000000000000000000000000000000000000000600052602260045260246000fd5b7f4e487b7100000000000000000000000000000000000000000000000000000000600052603260045260246000fd5b7f4e487b7100000000000000000000000000000000000000000000000000000000600052604160045260246000fd5b600080fd5b600080fd5b600080fd5b600080fd5b600080fd5b600080fd5b6000601f19601f8301169050919050565b7f455243313135353a2062616c616e636520717565727920666f7220746865207a60008201527f65726f2061646472657373000000000000000000000000000000000000000000602082015250565b7f4f776e61626c653a206e6577206f776e657220697320746865207a65726f206160008201527f6464726573730000000000000000000000000000000000000000000000000000602082015250565b7f6275790000000000000000000000000000000000000000000000000000000000600082015250565b7f4f776e61626c653a2063616c6c6572206973206e6f7420746865206f776e6572600082015250565b7f455243313135353a206163636f756e747320616e6420696473206c656e67746860008201527f206d69736d617463680000000000000000000000000000000000000000000000602082015250565b7f73656c6c00000000000000000000000000000000000000000000000000000000600082015250565b61499c8161458b565b81146149a757600080fd5b50565b6149b38161459d565b81146149be57600080fd5b50565b6149ca816145af565b81146149d557600080fd5b50565b6149e1816145bb565b81146149ec57600080fd5b50565b6149f881614607565b8114614a0357600080fd5b5056fea2646970667358221220321f851a203856a4705600965c8485b842bd8f4218a796198101cdd91d49d0e864736f6c63430008060033",
  "immutableReferences": {},
  "source": "// SPDX-License-Identifier: MIT\npragma solidity ^0.8.0;\n\nimport \"./creatortokencomputation.sol\";\n\n/// @title Implements high-level buy and sell functions (which users invoke when transacting)\n/// @author Kamil Alizai Sadik\ncontract CreatorTokenExchange is CreatorTokenComputation {\n\n\tconstructor(string memory uri) CreatorTokenComputation(uri) { }\n\n\t// Event that fires when a new transaction occurs\n\tevent NewTransaction(address indexed account, uint amount, string transactionType, uint tokenId, string name, string symbol);\n\n\t/// @dev Allows user to buy a given CreatorToken from the platform\n\t/// @param _tokenId ID of the token being transacted\n\t/// @param _amount Quantity of the token being transacted\n\tfunction buyCreatorToken(uint _tokenId, uint _amount) external payable {\n\t\t// Compute total transaction proceeds required (inclusive of fee)\n\t\tuint totalProceeds = _totalProceeds(_tokenId, _amount);\n\t\t// Require that user sends totalProceeds in order to transact\n\t\trequire(msg.value == totalProceeds);\n\t\t// Compute buy proceeds\n\t\tuint netProceeds = _buyProceeds(_tokenId, _amount);\n\t\t// Update totalValueLocked mapping\n\t\ttotalValueLocked[_tokenId] += netProceeds;\n\t\t// Update platform fee total\n\t\t_platformFeeUpdater(_feeProceeds(netProceeds));\n\t\t// Mint _amount tokens at the user's address (note this increases token amount outstanding)\n\t\t_mint(msg.sender, _tokenId, _amount, \"\");\n\t\t// Emit new transaction event\n\t\temit NewTransaction(msg.sender, _amount, \"buy\", _tokenId, creatorTokens[_tokenId].name, creatorTokens[_tokenId].symbol);\n\t\t// Check if new outstanding amount of token is greater than maxSupply\n\t\tif (creatorTokens[_tokenId].outstanding > creatorTokens[_tokenId].maxSupply) {\n\t\t\t// Update maxSupply\n\t\t\tcreatorTokens[_tokenId].maxSupply = creatorTokens[_tokenId].outstanding;\n\t\t\t// Call _payout to transfer excess liquidity\n\t\t\t_payCreator(_tokenId, creatorTokens[_tokenId].creatorAddress);\n\t\t}\n\t}\n\n\t/// @dev Allows user to sell a given CreatorToken back to the platform\n\t/// @param _tokenId ID of the token being transacted\n\t/// @param _amount Quantity of the token being transacted\n\t/// @param _seller Wallet address of user selling the token\n\tfunction sellCreatorToken(uint _tokenId, uint _amount, address payable _seller) external payable {\n\t\t// Require that user calling function is selling own tokens\n\t\trequire(_seller == msg.sender);\n\t\t// Compute sale proceeds required\n\t\tuint proceedsRequired = _saleFunction(creatorTokens[_tokenId].outstanding, _amount, mNumerator, mDenominator, creatorTokens[_tokenId].maxSupply, profitMargin);\n\t\t// Update totalValueLocked mapping\n\t\ttotalValueLocked[_tokenId] -= proceedsRequired;\n\t\t// Compute fee\n\t\tuint fee = proceedsRequired*platformFee/100;\n\t\t// Add platform fee to obtain real proceedsRequired value\n\t\tproceedsRequired -= fee;\n\t\t// Burn _amount tokens from user's address (note this decreases token amount outstanding)\n\t\t_burn(_seller, _tokenId, _amount);\n\t\t// Send user proceedsRequired wei (less the platform fee) in exchange for the burned tokens\n\t\t_seller.transfer(proceedsRequired); //1500000000000000000); //\n\t\t// Update platform fee total\n\t\t_platformFeeUpdater(fee);\n\t\t// Emit new transaction event\n\t\temit NewTransaction(msg.sender, _amount, \"sell\", _tokenId, creatorTokens[_tokenId].name, creatorTokens[_tokenId].symbol);\n\t}\n}\n",
  "sourcePath": "/Users/kamilalizaisadik/DeFi/Dynamic Automated Market Maker/CreatorTokenExchange/contracts/CreatorTokenExchange.sol",
  "compiler": {
    "name": "solc",
    "version": "0.8.6+commit.11564f7e.Emscripten.clang"
  },
  "schemaVersion": "3.4.1",
  "updatedAt": "2021-07-29T00:15:16.551Z",
  "devdoc": {
    "author": "Kamil Alizai Sadik",
    "kind": "dev",
    "methods": {
      "_buyProceeds(uint256,uint256)": {
        "details": "Calculates proceeds required for a given buy transaction (not including fees)",
        "params": {
          "_amount": "Quantity of the token being transacted",
          "_tokenId": "ID of the token being transacted"
        },
        "returns": {
          "_0": "Proceeds required in the transaction (before fees)"
        }
      },
      "_feeProceeds(uint256)": {
        "details": "Calculates the fee associated with a buy transaction",
        "params": {
          "_proceedsRequired": "The proceeds required for the buy transaction (before addition of fees)"
        },
        "returns": {
          "_0": "Fee associated with transaction"
        }
      },
      "_saleFunction(uint256,uint256,uint256,uint256,uint256,uint256)": {
        "details": "Calculates area under sale price function",
        "params": {
          "_amount": "Amount of token being transacted",
          "_mDenominator": "Denominator of the slope of the buy price function",
          "_mNumerator": "Numerator of the slope of the buy price function",
          "_maxSupply": "Peak level of supply of the token to date",
          "_profitMargin": "percentage of total revenue generated routed to creator",
          "_startingSupply": "Supply of token in circulation before the transaction"
        },
        "returns": {
          "_0": "Area under sale price function denoting total proceeds received when selling _amount tokens (before fees)"
        }
      },
      "_totalProceeds(uint256,uint256)": {
        "details": "Calculates total transaction proceeds",
        "params": {
          "_amount": "Quantity of the token being transacted",
          "_tokenId": "ID of the token being transacted"
        },
        "returns": {
          "_0": "Total proceeds required in transaction"
        }
      },
      "balanceOf(address,uint256)": {
        "details": "See {IERC1155-balanceOf}. Requirements: - `account` cannot be the zero address."
      },
      "balanceOfBatch(address[],uint256[])": {
        "details": "See {IERC1155-balanceOfBatch}. Requirements: - `accounts` and `ids` must have the same length."
      },
      "buyCreatorToken(uint256,uint256)": {
        "details": "Allows user to buy a given CreatorToken from the platform",
        "params": {
          "_amount": "Quantity of the token being transacted",
          "_tokenId": "ID of the token being transacted"
        }
      },
      "changeAddress(uint256,address)": {
        "details": "Allows token creator to change their address",
        "params": {
          "_newCreatorAddress": "New creator address associated with the token",
          "_tokenId": "ID of the token in question"
        }
      },
      "changeDescription(uint256,string)": {
        "details": "Allows token creator to change the description of their token",
        "params": {
          "_newDescription": "New description associated with the token",
          "_tokenId": "ID of the token in question"
        }
      },
      "changeName(uint256,string)": {
        "details": "Allows token creator to change the name of their token",
        "params": {
          "_newName": "New name associated with the token",
          "_tokenId": "ID of the token in question"
        }
      },
      "changePlatformFee(uint256)": {
        "details": "Allows owner to change platformFee",
        "params": {
          "_newPlatformFee": "New platform fee"
        }
      },
      "changeProfitMargin(uint256)": {
        "details": "Allows owner to change profit_margin",
        "params": {
          "_newProfitMargin": "New profit margin"
        }
      },
      "changeSymbol(uint256,string)": {
        "details": "Allows token creator to change the symbol of their token",
        "params": {
          "_newSymbol": "New symbol associated with the token",
          "_tokenId": "ID of the token in question"
        }
      },
      "changeVerification(uint256,bool)": {
        "details": "Allows owner to verify (or undo verification) of a CreatorToken",
        "params": {
          "_tokenId": "ID of the token in question",
          "_verified": "Verification status of the token in question"
        }
      },
      "createCreatorToken(address,string,string,string)": {
        "details": "Creates a new creator token",
        "params": {
          "_creatorAddress": "Address of the creator of the token",
          "_description": "chosen by the creator of the tokens",
          "_name": "Name chosen by the creator of the token",
          "_symbol": "Ticker symbol chosen by the creator of the token"
        }
      },
      "getCreatorTokenCount()": {
        "details": "Returns the current length of the creatorTokens array",
        "returns": {
          "_0": "uint representing number of unique Creator Tokens"
        }
      },
      "getToken(uint256)": {
        "details": "Returns token with a particular id",
        "params": {
          "_id": "Id of desired token"
        },
        "returns": {
          "_0": "CreatorToken"
        }
      },
      "isApprovedForAll(address,address)": {
        "details": "Denotes whether operator is approved to transfer account's tokens",
        "params": {
          "_account": "Wallet address holding tokens",
          "_operator": "Wallet address which is/isn't approved to transfer _account's tokens"
        },
        "returns": {
          "_0": "Boolean value indicating approval status"
        }
      },
      "owner()": {
        "details": "Returns the address of the current owner."
      },
      "payoutPlatformFees(address)": {
        "details": "Pays out platform fees owed to owner (might opt to call this daily)",
        "params": {
          "_owner": "Owner of the smart contract"
        }
      },
      "renounceOwnership()": {
        "details": "Leaves the contract without owner. It will not be possible to call `onlyOwner` functions anymore. Can only be called by the current owner. NOTE: Renouncing ownership will leave the contract without an owner, thereby removing any functionality that is only available to the owner."
      },
      "safeBatchTransferFrom(address,address,uint256[],uint256[],bytes)": {
        "details": "Transfers a batch of tokens",
        "params": {
          "_amounts": "Array of quantities of token to be transferred",
          "_data": "Data",
          "_from": "Address token is being transferred from",
          "_ids": "Array of IDs of tokens being transferred",
          "_to": "Address token is being transferred to"
        }
      },
      "safeTransferFrom(address,address,uint256,uint256,bytes)": {
        "details": "Transfers a token",
        "params": {
          "_amount": "Quantity of token to be transferred",
          "_data": "Data",
          "_from": "Address token is being transferred from",
          "_id": "ID of token being transferred",
          "_to": "Address token is being transferred to"
        }
      },
      "sellCreatorToken(uint256,uint256,address)": {
        "details": "Allows user to sell a given CreatorToken back to the platform",
        "params": {
          "_amount": "Quantity of the token being transacted",
          "_seller": "Wallet address of user selling the token",
          "_tokenId": "ID of the token being transacted"
        }
      },
      "setApprovalForAll(address,bool)": {
        "details": "Gives operator permission to transfer caller's tokens",
        "params": {
          "_approved": "Boolean value indicating whether operator is approved",
          "_operator": "Wallet address being granted permission"
        }
      },
      "supportsInterface(bytes4)": {
        "details": "See {IERC165-supportsInterface}."
      },
      "transferOwnership(address)": {
        "details": "Transfers ownership of the contract to a new account (`newOwner`). Can only be called by the current owner."
      },
      "uri(uint256)": {
        "details": "See {IERC1155MetadataURI-uri}. This implementation returns the same URI for *all* token types. It relies on the token type ID substitution mechanism https://eips.ethereum.org/EIPS/eip-1155#metadata[defined in the EIP]. Clients calling this function must replace the `\\{id\\}` substring with the actual token type ID."
      },
      "withdraw(address)": {
        "details": "Ownable function allowing for withdrawal",
        "params": {
          "_owner": "Owner of the smart contract"
        }
      }
    },
    "title": "Implements high-level buy and sell functions (which users invoke when transacting)",
    "version": 1
  },
  "userdoc": {
    "kind": "user",
    "methods": {},
    "version": 1
  }
}