{
  "contractName": "CreatorTokenOwnership",
  "abi": [
    {
      "inputs": [
        {
          "internalType": "string",
          "name": "uri",
          "type": "string"
        }
      ],
      "stateMutability": "nonpayable",
      "type": "constructor"
    },
    {
      "anonymous": false,
      "inputs": [
        {
          "indexed": true,
          "internalType": "address",
          "name": "account",
          "type": "address"
        },
        {
          "indexed": true,
          "internalType": "address",
          "name": "operator",
          "type": "address"
        },
        {
          "indexed": false,
          "internalType": "bool",
          "name": "approved",
          "type": "bool"
        }
      ],
      "name": "ApprovalForAll",
      "type": "event"
    },
    {
      "anonymous": false,
      "inputs": [
        {
          "indexed": false,
          "internalType": "uint256",
          "name": "tokenId",
          "type": "uint256"
        },
        {
          "indexed": false,
          "internalType": "address payable",
          "name": "creatorAddress",
          "type": "address"
        },
        {
          "indexed": false,
          "internalType": "string",
          "name": "name",
          "type": "string"
        },
        {
          "indexed": false,
          "internalType": "string",
          "name": "symbol",
          "type": "string"
        },
        {
          "indexed": false,
          "internalType": "string",
          "name": "description",
          "type": "string"
        },
        {
          "indexed": false,
          "internalType": "bool",
          "name": "verified",
          "type": "bool"
        },
        {
          "indexed": false,
          "internalType": "uint256",
          "name": "outstanding",
          "type": "uint256"
        },
        {
          "indexed": false,
          "internalType": "uint256",
          "name": "maxSupply",
          "type": "uint256"
        }
      ],
      "name": "NewCreatorToken",
      "type": "event"
    },
    {
      "anonymous": false,
      "inputs": [
        {
          "indexed": true,
          "internalType": "address",
          "name": "previousOwner",
          "type": "address"
        },
        {
          "indexed": true,
          "internalType": "address",
          "name": "newOwner",
          "type": "address"
        }
      ],
      "name": "OwnershipTransferred",
      "type": "event"
    },
    {
      "anonymous": false,
      "inputs": [
        {
          "indexed": false,
          "internalType": "address",
          "name": "account",
          "type": "address"
        }
      ],
      "name": "Paused",
      "type": "event"
    },
    {
      "anonymous": false,
      "inputs": [
        {
          "indexed": true,
          "internalType": "bytes32",
          "name": "role",
          "type": "bytes32"
        },
        {
          "indexed": true,
          "internalType": "bytes32",
          "name": "previousAdminRole",
          "type": "bytes32"
        },
        {
          "indexed": true,
          "internalType": "bytes32",
          "name": "newAdminRole",
          "type": "bytes32"
        }
      ],
      "name": "RoleAdminChanged",
      "type": "event"
    },
    {
      "anonymous": false,
      "inputs": [
        {
          "indexed": true,
          "internalType": "bytes32",
          "name": "role",
          "type": "bytes32"
        },
        {
          "indexed": true,
          "internalType": "address",
          "name": "account",
          "type": "address"
        },
        {
          "indexed": true,
          "internalType": "address",
          "name": "sender",
          "type": "address"
        }
      ],
      "name": "RoleGranted",
      "type": "event"
    },
    {
      "anonymous": false,
      "inputs": [
        {
          "indexed": true,
          "internalType": "bytes32",
          "name": "role",
          "type": "bytes32"
        },
        {
          "indexed": true,
          "internalType": "address",
          "name": "account",
          "type": "address"
        },
        {
          "indexed": true,
          "internalType": "address",
          "name": "sender",
          "type": "address"
        }
      ],
      "name": "RoleRevoked",
      "type": "event"
    },
    {
      "anonymous": false,
      "inputs": [
        {
          "indexed": true,
          "internalType": "address",
          "name": "operator",
          "type": "address"
        },
        {
          "indexed": true,
          "internalType": "address",
          "name": "from",
          "type": "address"
        },
        {
          "indexed": true,
          "internalType": "address",
          "name": "to",
          "type": "address"
        },
        {
          "indexed": false,
          "internalType": "uint256[]",
          "name": "ids",
          "type": "uint256[]"
        },
        {
          "indexed": false,
          "internalType": "uint256[]",
          "name": "values",
          "type": "uint256[]"
        }
      ],
      "name": "TransferBatch",
      "type": "event"
    },
    {
      "anonymous": false,
      "inputs": [
        {
          "indexed": true,
          "internalType": "address",
          "name": "operator",
          "type": "address"
        },
        {
          "indexed": true,
          "internalType": "address",
          "name": "from",
          "type": "address"
        },
        {
          "indexed": true,
          "internalType": "address",
          "name": "to",
          "type": "address"
        },
        {
          "indexed": false,
          "internalType": "uint256",
          "name": "id",
          "type": "uint256"
        },
        {
          "indexed": false,
          "internalType": "uint256",
          "name": "value",
          "type": "uint256"
        }
      ],
      "name": "TransferSingle",
      "type": "event"
    },
    {
      "anonymous": false,
      "inputs": [
        {
          "indexed": false,
          "internalType": "string",
          "name": "value",
          "type": "string"
        },
        {
          "indexed": true,
          "internalType": "uint256",
          "name": "id",
          "type": "uint256"
        }
      ],
      "name": "URI",
      "type": "event"
    },
    {
      "anonymous": false,
      "inputs": [
        {
          "indexed": false,
          "internalType": "address",
          "name": "account",
          "type": "address"
        }
      ],
      "name": "Unpaused",
      "type": "event"
    },
    {
      "inputs": [],
      "name": "DEFAULT_ADMIN_ROLE",
      "outputs": [
        {
          "internalType": "bytes32",
          "name": "",
          "type": "bytes32"
        }
      ],
      "stateMutability": "view",
      "type": "function"
    },
    {
      "inputs": [],
      "name": "MINTER_ROLE",
      "outputs": [
        {
          "internalType": "bytes32",
          "name": "",
          "type": "bytes32"
        }
      ],
      "stateMutability": "view",
      "type": "function"
    },
    {
      "inputs": [],
      "name": "PAUSER_ROLE",
      "outputs": [
        {
          "internalType": "bytes32",
          "name": "",
          "type": "bytes32"
        }
      ],
      "stateMutability": "view",
      "type": "function"
    },
    {
      "inputs": [
        {
          "internalType": "uint256",
          "name": "_tokenId",
          "type": "uint256"
        },
        {
          "internalType": "address payable",
          "name": "_newCreatorAddress",
          "type": "address"
        }
      ],
      "name": "changeAddress",
      "outputs": [],
      "stateMutability": "nonpayable",
      "type": "function"
    },
    {
      "inputs": [
        {
          "internalType": "uint256",
          "name": "_tokenId",
          "type": "uint256"
        },
        {
          "internalType": "string",
          "name": "_newDescription",
          "type": "string"
        }
      ],
      "name": "changeDescription",
      "outputs": [],
      "stateMutability": "nonpayable",
      "type": "function"
    },
    {
      "inputs": [
        {
          "internalType": "uint256",
          "name": "_tokenId",
          "type": "uint256"
        },
        {
          "internalType": "string",
          "name": "_newName",
          "type": "string"
        }
      ],
      "name": "changeName",
      "outputs": [],
      "stateMutability": "nonpayable",
      "type": "function"
    },
    {
      "inputs": [
        {
          "internalType": "uint256",
          "name": "_newPlatformFee",
          "type": "uint256"
        }
      ],
      "name": "changePlatformFee",
      "outputs": [],
      "stateMutability": "nonpayable",
      "type": "function"
    },
    {
      "inputs": [
        {
          "internalType": "uint256",
          "name": "_newProfitMargin",
          "type": "uint256"
        }
      ],
      "name": "changeProfitMargin",
      "outputs": [],
      "stateMutability": "nonpayable",
      "type": "function"
    },
    {
      "inputs": [
        {
          "internalType": "uint256",
          "name": "_tokenId",
          "type": "uint256"
        },
        {
          "internalType": "string",
          "name": "_newSymbol",
          "type": "string"
        }
      ],
      "name": "changeSymbol",
      "outputs": [],
      "stateMutability": "nonpayable",
      "type": "function"
    },
    {
      "inputs": [
        {
          "internalType": "uint256",
          "name": "_tokenId",
          "type": "uint256"
        },
        {
          "internalType": "bool",
          "name": "_verified",
          "type": "bool"
        }
      ],
      "name": "changeVerification",
      "outputs": [],
      "stateMutability": "nonpayable",
      "type": "function"
    },
    {
      "inputs": [
        {
          "internalType": "address payable",
          "name": "_creatorAddress",
          "type": "address"
        },
        {
          "internalType": "string",
          "name": "_name",
          "type": "string"
        },
        {
          "internalType": "string",
          "name": "_symbol",
          "type": "string"
        },
        {
          "internalType": "string",
          "name": "_description",
          "type": "string"
        }
      ],
      "name": "createCreatorToken",
      "outputs": [],
      "stateMutability": "nonpayable",
      "type": "function"
    },
    {
      "inputs": [
        {
          "internalType": "uint256",
          "name": "",
          "type": "uint256"
        }
      ],
      "name": "creatorTokens",
      "outputs": [
        {
          "internalType": "address payable",
          "name": "creatorAddress",
          "type": "address"
        },
        {
          "internalType": "string",
          "name": "name",
          "type": "string"
        },
        {
          "internalType": "string",
          "name": "symbol",
          "type": "string"
        },
        {
          "internalType": "string",
          "name": "description",
          "type": "string"
        },
        {
          "internalType": "bool",
          "name": "verified",
          "type": "bool"
        },
        {
          "internalType": "uint256",
          "name": "outstanding",
          "type": "uint256"
        },
        {
          "internalType": "uint256",
          "name": "maxSupply",
          "type": "uint256"
        }
      ],
      "stateMutability": "view",
      "type": "function"
    },
    {
      "inputs": [
        {
          "internalType": "bytes32",
          "name": "role",
          "type": "bytes32"
        }
      ],
      "name": "getRoleAdmin",
      "outputs": [
        {
          "internalType": "bytes32",
          "name": "",
          "type": "bytes32"
        }
      ],
      "stateMutability": "view",
      "type": "function"
    },
    {
      "inputs": [
        {
          "internalType": "bytes32",
          "name": "role",
          "type": "bytes32"
        },
        {
          "internalType": "uint256",
          "name": "index",
          "type": "uint256"
        }
      ],
      "name": "getRoleMember",
      "outputs": [
        {
          "internalType": "address",
          "name": "",
          "type": "address"
        }
      ],
      "stateMutability": "view",
      "type": "function"
    },
    {
      "inputs": [
        {
          "internalType": "bytes32",
          "name": "role",
          "type": "bytes32"
        }
      ],
      "name": "getRoleMemberCount",
      "outputs": [
        {
          "internalType": "uint256",
          "name": "",
          "type": "uint256"
        }
      ],
      "stateMutability": "view",
      "type": "function"
    },
    {
      "inputs": [
        {
          "internalType": "bytes32",
          "name": "role",
          "type": "bytes32"
        },
        {
          "internalType": "address",
          "name": "account",
          "type": "address"
        }
      ],
      "name": "grantRole",
      "outputs": [],
      "stateMutability": "nonpayable",
      "type": "function"
    },
    {
      "inputs": [
        {
          "internalType": "bytes32",
          "name": "role",
          "type": "bytes32"
        },
        {
          "internalType": "address",
          "name": "account",
          "type": "address"
        }
      ],
      "name": "hasRole",
      "outputs": [
        {
          "internalType": "bool",
          "name": "",
          "type": "bool"
        }
      ],
      "stateMutability": "view",
      "type": "function"
    },
    {
      "inputs": [],
      "name": "owner",
      "outputs": [
        {
          "internalType": "address",
          "name": "",
          "type": "address"
        }
      ],
      "stateMutability": "view",
      "type": "function"
    },
    {
      "inputs": [],
      "name": "pause",
      "outputs": [],
      "stateMutability": "nonpayable",
      "type": "function"
    },
    {
      "inputs": [],
      "name": "paused",
      "outputs": [
        {
          "internalType": "bool",
          "name": "",
          "type": "bool"
        }
      ],
      "stateMutability": "view",
      "type": "function"
    },
    {
      "inputs": [
        {
          "internalType": "address payable",
          "name": "_owner",
          "type": "address"
        }
      ],
      "name": "payoutPlatformFees",
      "outputs": [],
      "stateMutability": "nonpayable",
      "type": "function"
    },
    {
      "inputs": [],
      "name": "renounceOwnership",
      "outputs": [],
      "stateMutability": "nonpayable",
      "type": "function"
    },
    {
      "inputs": [
        {
          "internalType": "bytes32",
          "name": "role",
          "type": "bytes32"
        },
        {
          "internalType": "address",
          "name": "account",
          "type": "address"
        }
      ],
      "name": "renounceRole",
      "outputs": [],
      "stateMutability": "nonpayable",
      "type": "function"
    },
    {
      "inputs": [
        {
          "internalType": "bytes32",
          "name": "role",
          "type": "bytes32"
        },
        {
          "internalType": "address",
          "name": "account",
          "type": "address"
        }
      ],
      "name": "revokeRole",
      "outputs": [],
      "stateMutability": "nonpayable",
      "type": "function"
    },
    {
      "inputs": [
        {
          "internalType": "bytes4",
          "name": "interfaceId",
          "type": "bytes4"
        }
      ],
      "name": "supportsInterface",
      "outputs": [
        {
          "internalType": "bool",
          "name": "",
          "type": "bool"
        }
      ],
      "stateMutability": "view",
      "type": "function"
    },
    {
      "inputs": [
        {
          "internalType": "uint256",
          "name": "",
          "type": "uint256"
        },
        {
          "internalType": "address",
          "name": "",
          "type": "address"
        }
      ],
      "name": "tokenHoldership",
      "outputs": [
        {
          "internalType": "uint256",
          "name": "",
          "type": "uint256"
        }
      ],
      "stateMutability": "view",
      "type": "function"
    },
    {
      "inputs": [
        {
          "internalType": "uint256",
          "name": "",
          "type": "uint256"
        }
      ],
      "name": "tokenToCreator",
      "outputs": [
        {
          "internalType": "address",
          "name": "",
          "type": "address"
        }
      ],
      "stateMutability": "view",
      "type": "function"
    },
    {
      "inputs": [
        {
          "internalType": "address",
          "name": "newOwner",
          "type": "address"
        }
      ],
      "name": "transferOwnership",
      "outputs": [],
      "stateMutability": "nonpayable",
      "type": "function"
    },
    {
      "inputs": [],
      "name": "unpause",
      "outputs": [],
      "stateMutability": "nonpayable",
      "type": "function"
    },
    {
      "inputs": [
        {
          "internalType": "uint256",
          "name": "",
          "type": "uint256"
        }
      ],
      "name": "uri",
      "outputs": [
        {
          "internalType": "string",
          "name": "",
          "type": "string"
        }
      ],
      "stateMutability": "view",
      "type": "function"
    },
    {
      "inputs": [
        {
          "internalType": "address",
          "name": "",
          "type": "address"
        },
        {
          "internalType": "uint256",
          "name": "",
          "type": "uint256"
        }
      ],
      "name": "userToHoldings",
      "outputs": [
        {
          "internalType": "uint256",
          "name": "",
          "type": "uint256"
        }
      ],
      "stateMutability": "view",
      "type": "function"
    },
    {
      "inputs": [
        {
          "internalType": "address payable",
          "name": "_owner",
          "type": "address"
        }
      ],
      "name": "withdraw",
      "outputs": [],
      "stateMutability": "nonpayable",
      "type": "function"
    },
    {
      "inputs": [
        {
          "internalType": "address",
          "name": "_to",
          "type": "address"
        },
        {
          "internalType": "uint256",
          "name": "_id",
          "type": "uint256"
        },
        {
          "internalType": "uint256",
          "name": "_amount",
          "type": "uint256"
        },
        {
          "internalType": "bytes",
          "name": "_data",
          "type": "bytes"
        }
      ],
      "name": "mint",
      "outputs": [],
      "stateMutability": "nonpayable",
      "type": "function"
    },
    {
      "inputs": [
        {
          "internalType": "address",
          "name": "_to",
          "type": "address"
        },
        {
          "internalType": "uint256[]",
          "name": "_ids",
          "type": "uint256[]"
        },
        {
          "internalType": "uint256[]",
          "name": "_amounts",
          "type": "uint256[]"
        },
        {
          "internalType": "bytes",
          "name": "data",
          "type": "bytes"
        }
      ],
      "name": "mintBatch",
      "outputs": [],
      "stateMutability": "nonpayable",
      "type": "function"
    },
    {
      "inputs": [
        {
          "internalType": "address",
          "name": "_account",
          "type": "address"
        },
        {
          "internalType": "uint256",
          "name": "_id",
          "type": "uint256"
        },
        {
          "internalType": "uint256",
          "name": "_amount",
          "type": "uint256"
        }
      ],
      "name": "burn",
      "outputs": [],
      "stateMutability": "nonpayable",
      "type": "function"
    },
    {
      "inputs": [
        {
          "internalType": "address",
          "name": "_account",
          "type": "address"
        },
        {
          "internalType": "uint256[]",
          "name": "_ids",
          "type": "uint256[]"
        },
        {
          "internalType": "uint256[]",
          "name": "_amounts",
          "type": "uint256[]"
        }
      ],
      "name": "burnBatch",
      "outputs": [],
      "stateMutability": "nonpayable",
      "type": "function"
    },
    {
      "inputs": [
        {
          "internalType": "address",
          "name": "_from",
          "type": "address"
        },
        {
          "internalType": "address",
          "name": "_to",
          "type": "address"
        },
        {
          "internalType": "uint256",
          "name": "_id",
          "type": "uint256"
        },
        {
          "internalType": "uint256",
          "name": "_amount",
          "type": "uint256"
        },
        {
          "internalType": "bytes",
          "name": "_data",
          "type": "bytes"
        }
      ],
      "name": "safeTransferFrom",
      "outputs": [],
      "stateMutability": "nonpayable",
      "type": "function"
    },
    {
      "inputs": [
        {
          "internalType": "address",
          "name": "_from",
          "type": "address"
        },
        {
          "internalType": "address",
          "name": "_to",
          "type": "address"
        },
        {
          "internalType": "uint256[]",
          "name": "_ids",
          "type": "uint256[]"
        },
        {
          "internalType": "uint256[]",
          "name": "_amounts",
          "type": "uint256[]"
        },
        {
          "internalType": "bytes",
          "name": "data",
          "type": "bytes"
        }
      ],
      "name": "safeBatchTransferFrom",
      "outputs": [],
      "stateMutability": "nonpayable",
      "type": "function"
    },
    {
      "inputs": [
        {
          "internalType": "address",
          "name": "_account",
          "type": "address"
        },
        {
          "internalType": "uint256",
          "name": "_id",
          "type": "uint256"
        }
      ],
      "name": "balanceOf",
      "outputs": [
        {
          "internalType": "uint256",
          "name": "",
          "type": "uint256"
        }
      ],
      "stateMutability": "view",
      "type": "function"
    },
    {
      "inputs": [
        {
          "internalType": "address[]",
          "name": "_accounts",
          "type": "address[]"
        },
        {
          "internalType": "uint256[]",
          "name": "_ids",
          "type": "uint256[]"
        }
      ],
      "name": "balanceOfBatch",
      "outputs": [
        {
          "internalType": "uint256[]",
          "name": "",
          "type": "uint256[]"
        }
      ],
      "stateMutability": "view",
      "type": "function"
    },
    {
      "inputs": [
        {
          "internalType": "address",
          "name": "_operator",
          "type": "address"
        },
        {
          "internalType": "bool",
          "name": "_approved",
          "type": "bool"
        }
      ],
      "name": "setApprovalForAll",
      "outputs": [],
      "stateMutability": "nonpayable",
      "type": "function"
    },
    {
      "inputs": [
        {
          "internalType": "address",
          "name": "_account",
          "type": "address"
        },
        {
          "internalType": "address",
          "name": "_operator",
          "type": "address"
        }
      ],
      "name": "isApprovedForAll",
      "outputs": [
        {
          "internalType": "bool",
          "name": "",
          "type": "bool"
        }
      ],
      "stateMutability": "view",
      "type": "function"
    }
  ],
  "bytecode": "0x6080604052600180556000600255600060035560146004556009600555620186a06006553480156200003057600080fd5b5060405162005315380380620053158339818101604052810190620000569190620005c5565b808060006200006a620001e360201b60201c565b9050806000806101000a81548173ffffffffffffffffffffffffffffffffffffffff021916908373ffffffffffffffffffffffffffffffffffffffff1602179055508073ffffffffffffffffffffffffffffffffffffffff16600073ffffffffffffffffffffffffffffffffffffffff167f8be0079c531659141344cd1fd0a4f28419497f9722a3daafe3b4186f6b6457e060405160405180910390a3506200011981620001eb60201b60201c565b506000601260006101000a81548160ff021916908315150217905550620001596000801b6200014d620001e360201b60201c565b6200020760201b60201c565b6200019a7f9f2df0fed2c77648de5860a4cc508cd0818c85b8b8a1ab4ceeef8d981c8956a66200018e620001e360201b60201c565b6200020760201b60201c565b620001db7f65d7a28e3265b37a6474929f336521b332c1681b933f6cb9f3376673440d862a620001cf620001e360201b60201c565b6200020760201b60201c565b50506200079a565b600033905090565b80601190805190602001906200020392919062000497565b5050565b6200021e82826200024f60201b6200252f1760201c565b6200024a81600e60008581526020019081526020016000206200026560201b6200253d1790919060201c565b505050565b6200026182826200029d60201b60201c565b5050565b600062000295836000018373ffffffffffffffffffffffffffffffffffffffff1660001b6200038f60201b60201c565b905092915050565b620002af82826200040960201b60201c565b6200038b576001600d600084815260200190815260200160002060000160008373ffffffffffffffffffffffffffffffffffffffff1673ffffffffffffffffffffffffffffffffffffffff16815260200190815260200160002060006101000a81548160ff02191690831515021790555062000330620001e360201b60201c565b73ffffffffffffffffffffffffffffffffffffffff168173ffffffffffffffffffffffffffffffffffffffff16837f2f8788117e7eff1d82e926ec794901d17c78024a50270940304540a733656f0d60405160405180910390a45b5050565b6000620003a383836200047460201b60201c565b620003fe57826000018290806001815401808255809150506001900390600052602060002001600090919091909150558260000180549050836001016000848152602001908152602001600020819055506001905062000403565b600090505b92915050565b6000600d600084815260200190815260200160002060000160008373ffffffffffffffffffffffffffffffffffffffff1673ffffffffffffffffffffffffffffffffffffffff16815260200190815260200160002060009054906101000a900460ff16905092915050565b600080836001016000848152602001908152602001600020541415905092915050565b828054620004a590620006ab565b90600052602060002090601f016020900481019282620004c9576000855562000515565b82601f10620004e457805160ff191683800117855562000515565b8280016001018555821562000515579182015b8281111562000514578251825591602001919060010190620004f7565b5b50905062000524919062000528565b5090565b5b808211156200054357600081600090555060010162000529565b5090565b60006200055e62000558846200063f565b62000616565b9050828152602081018484840111156200057d576200057c6200077a565b5b6200058a84828562000675565b509392505050565b600082601f830112620005aa57620005a962000775565b5b8151620005bc84826020860162000547565b91505092915050565b600060208284031215620005de57620005dd62000784565b5b600082015167ffffffffffffffff811115620005ff57620005fe6200077f565b5b6200060d8482850162000592565b91505092915050565b60006200062262000635565b9050620006308282620006e1565b919050565b6000604051905090565b600067ffffffffffffffff8211156200065d576200065c62000746565b5b620006688262000789565b9050602081019050919050565b60005b838110156200069557808201518184015260208101905062000678565b83811115620006a5576000848401525b50505050565b60006002820490506001821680620006c457607f821691505b60208210811415620006db57620006da62000717565b5b50919050565b620006ec8262000789565b810181811067ffffffffffffffff821117156200070e576200070d62000746565b5b80604052505050565b7f4e487b7100000000000000000000000000000000000000000000000000000000600052602260045260246000fd5b7f4e487b7100000000000000000000000000000000000000000000000000000000600052604160045260246000fd5b600080fd5b600080fd5b600080fd5b600080fd5b6000601f19601f8301169050919050565b614b6b80620007aa6000396000f3fe608060405234801561001057600080fd5b506004361061025d5760003560e01c806391d1485411610146578063d547741f116100c3578063e985e9c511610087578063e985e9c51461071c578063eb8417591461074c578063f242432a14610768578063f2fde38b14610784578063f5298aca146107a0578063f7374e2e146107bc5761025d565b8063d547741f1461068e578063d56b72c7146106aa578063d7a5791a146106c6578063de6a06ed146106e2578063e63ab1e9146106fe5761025d565b8063c39cbef11161010a578063c39cbef1146105d2578063c539c317146105ee578063ca15c8731461060a578063ce901d8a1461063a578063d5391393146106705761025d565b806391d148541461050857806392724afa14610538578063a217fddf14610568578063a22cb46514610586578063bfb48c9c146105a25761025d565b806336568abe116101df5780636b20c454116101a35780636b20c4541461046e578063715018a61461048a578063731133e9146104945780638456cb59146104b05780638da5cb5b146104ba5780639010d07c146104d85761025d565b806336568abe146103de5780633f4ba83a146103fa5780634e1273f41461040457806351cff8d9146104345780635c975abb146104505761025d565b80631d5ad18b116102265780631d5ad18b1461033e5780631f7fdffa1461035a578063248a9ca3146103765780632eb2c2d6146103a65780632f2ff15d146103c25761025d565b8062fdd58e1461026257806301ffc9a71461029257806306e320f5146102c25780630e89341c146102de57806318892ae81461030e575b600080fd5b61027c60048036038101906102779190613956565b6107d8565b6040516102899190614288565b60405180910390f35b6102ac60048036038101906102a79190613b9a565b610833565b6040516102b99190614110565b60405180910390f35b6102dc60048036038101906102d79190613cb4565b610845565b005b6102f860048036038101906102f39190613bc7565b6108ec565b6040516103059190614146565b60405180910390f35b61032860048036038101906103239190613bc7565b610980565b6040516103359190614018565b60405180910390f35b61035860048036038101906103539190613c34565b6109b3565b005b610374600480360381019061036f919061385b565b610a88565b005b610390600480360381019061038b9190613aed565b610c38565b60405161039d919061412b565b60405180910390f35b6103c060048036038101906103bb919061366a565b610c58565b005b6103dc60048036038101906103d79190613b1a565b610e33565b005b6103f860048036038101906103f39190613b1a565b610e67565b005b610402610e9b565b005b61041e60048036038101906104199190613a6c565b610f15565b60405161042b91906140b7565b60405180910390f35b61044e60048036038101906104499190613542565b611045565b005b61045861110b565b6040516104659190614110565b60405180910390f35b610488600480360381019061048391906137d0565b611122565b005b6104926112d1565b005b6104ae60048036038101906104a991906139e9565b61140b565b005b6104b8611533565b005b6104c26115ad565b6040516104cf9190614018565b60405180910390f35b6104f260048036038101906104ed9190613b5a565b6115d6565b6040516104ff9190614018565b60405180910390f35b610522600480360381019061051d9190613b1a565b611605565b60405161052f9190614110565b60405180910390f35b610552600480360381019061054d9190613956565b611670565b60405161055f9190614288565b60405180910390f35b610570611695565b60405161057d919061412b565b60405180910390f35b6105a0600480360381019061059b9190613916565b61169c565b005b6105bc60048036038101906105b79190613bf4565b611799565b6040516105c99190614288565b60405180910390f35b6105ec60048036038101906105e79190613cb4565b6117be565b005b61060860048036038101906106039190613bc7565b611865565b005b610624600480360381019061061f9190613aed565b6118eb565b6040516106319190614288565b60405180910390f35b610654600480360381019061064f9190613bc7565b61190f565b6040516106679796959493929190614033565b60405180910390f35b610678611b26565b604051610685919061412b565b60405180910390f35b6106a860048036038101906106a39190613b1a565b611b4a565b005b6106c460048036038101906106bf919061356f565b611b7e565b005b6106e060048036038101906106db9190613bc7565b611d9a565b005b6106fc60048036038101906106f79190613cb4565b611e20565b005b610706611ec7565b604051610713919061412b565b60405180910390f35b6107366004803603810190610731919061362a565b611eeb565b6040516107439190614110565b60405180910390f35b61076660048036038101906107619190613542565b611f7f565b005b610782600480360381019061077d9190613739565b61204f565b005b61079e60048036038101906107999190613515565b6121a2565b005b6107ba60048036038101906107b59190613996565b61234b565b005b6107d660048036038101906107d19190613c74565b612472565b005b6000600a600083815260200190815260200160002060008473ffffffffffffffffffffffffffffffffffffffff1673ffffffffffffffffffffffffffffffffffffffff16815260200190815260200160002054905092915050565b600061083e8261256d565b9050919050565b826008600082815260200190815260200160002060009054906101000a900473ffffffffffffffffffffffffffffffffffffffff1673ffffffffffffffffffffffffffffffffffffffff163373ffffffffffffffffffffffffffffffffffffffff16146108b157600080fd5b8282600786815481106108c7576108c661479d565b5b906000526020600020906007020160020191906108e59291906130ee565b5050505050565b6060601180546108fb90614664565b80601f016020809104026020016040519081016040528092919081815260200182805461092790614664565b80156109745780601f1061094957610100808354040283529160200191610974565b820191906000526020600020905b81548152906001019060200180831161095757829003601f168201915b50505050509050919050565b60086020528060005260406000206000915054906101000a900473ffffffffffffffffffffffffffffffffffffffff1681565b816008600082815260200190815260200160002060009054906101000a900473ffffffffffffffffffffffffffffffffffffffff1673ffffffffffffffffffffffffffffffffffffffff163373ffffffffffffffffffffffffffffffffffffffff1614610a1f57600080fd5b8160078481548110610a3457610a3361479d565b5b906000526020600020906007020160000160006101000a81548173ffffffffffffffffffffffffffffffffffffffff021916908373ffffffffffffffffffffffffffffffffffffffff160217905550505050565b60005b8351811015610bb257828181518110610aa757610aa661479d565b5b6020026020010151600a6000868481518110610ac657610ac561479d565b5b6020026020010151815260200190815260200160002060008773ffffffffffffffffffffffffffffffffffffffff1673ffffffffffffffffffffffffffffffffffffffff1681526020019081526020016000206000828254610b289190614472565b92505081905550828181518110610b4257610b4161479d565b5b60200260200101516007858381518110610b5f57610b5e61479d565b5b602002602001015181548110610b7857610b7761479d565b5b90600052602060002090600702016005016000828254610b989190614472565b925050819055508080610baa906146c7565b915050610a8b565b508373ffffffffffffffffffffffffffffffffffffffff16600073ffffffffffffffffffffffffffffffffffffffff163373ffffffffffffffffffffffffffffffffffffffff167f4a39dc06d4c0dbc64b70af90fd698a233a518aa5d07e595d983b8c0526c8f7fb8686604051610c2a9291906140d9565b60405180910390a450505050565b6000600d6000838152602001908152602001600020600101549050919050565b60005b8351811015610dad57828181518110610c7757610c7661479d565b5b6020026020010151600a6000868481518110610c9657610c9561479d565b5b6020026020010151815260200190815260200160002060008873ffffffffffffffffffffffffffffffffffffffff1673ffffffffffffffffffffffffffffffffffffffff1681526020019081526020016000206000828254610cf89190614522565b92505081905550828181518110610d1257610d1161479d565b5b6020026020010151600a6000868481518110610d3157610d3061479d565b5b6020026020010151815260200190815260200160002060008773ffffffffffffffffffffffffffffffffffffffff1673ffffffffffffffffffffffffffffffffffffffff1681526020019081526020016000206000828254610d939190614472565b925050819055508080610da5906146c7565b915050610c5b565b508373ffffffffffffffffffffffffffffffffffffffff168573ffffffffffffffffffffffffffffffffffffffff163373ffffffffffffffffffffffffffffffffffffffff167f4a39dc06d4c0dbc64b70af90fd698a233a518aa5d07e595d983b8c0526c8f7fb8686604051610e249291906140d9565b60405180910390a45050505050565b610e3d828261264f565b610e6281600e600085815260200190815260200160002061253d90919063ffffffff16565b505050565b610e718282612678565b610e9681600e60008581526020019081526020016000206126fb90919063ffffffff16565b505050565b610ecc7f65d7a28e3265b37a6474929f336521b332c1681b933f6cb9f3376673440d862a610ec761272b565b611605565b610f0b576040517f08c379a0000000000000000000000000000000000000000000000000000000008152600401610f0290614228565b60405180910390fd5b610f13612733565b565b606060008585905067ffffffffffffffff811115610f3657610f356147cc565b5b604051908082528060200260200182016040528015610f645781602001602082028036833780820191505090505b50905060005b8686905081101561103857600a6000868684818110610f8c57610f8b61479d565b5b9050602002013581526020019081526020016000206000888884818110610fb657610fb561479d565b5b9050602002016020810190610fcb9190613515565b73ffffffffffffffffffffffffffffffffffffffff1673ffffffffffffffffffffffffffffffffffffffff168152602001908152602001600020548282815181106110195761101861479d565b5b6020026020010181815250508080611030906146c7565b915050610f6a565b5080915050949350505050565b61104d61272b565b73ffffffffffffffffffffffffffffffffffffffff1661106b6115ad565b73ffffffffffffffffffffffffffffffffffffffff16146110c1576040517f08c379a00000000000000000000000000000000000000000000000000000000081526004016110b890614208565b60405180910390fd5b8073ffffffffffffffffffffffffffffffffffffffff166108fc479081150290604051600060405180830381858888f19350505050158015611107573d6000803e3d6000fd5b5050565b6000601260009054906101000a900460ff16905090565b60005b825181101561124c578181815181106111415761114061479d565b5b6020026020010151600a60008584815181106111605761115f61479d565b5b6020026020010151815260200190815260200160002060008673ffffffffffffffffffffffffffffffffffffffff1673ffffffffffffffffffffffffffffffffffffffff16815260200190815260200160002060008282546111c29190614522565b925050819055508181815181106111dc576111db61479d565b5b602002602001015160078483815181106111f9576111f861479d565b5b6020026020010151815481106112125761121161479d565b5b906000526020600020906007020160050160008282546112329190614522565b925050819055508080611244906146c7565b915050611125565b50600073ffffffffffffffffffffffffffffffffffffffff168373ffffffffffffffffffffffffffffffffffffffff163373ffffffffffffffffffffffffffffffffffffffff167f4a39dc06d4c0dbc64b70af90fd698a233a518aa5d07e595d983b8c0526c8f7fb85856040516112c49291906140d9565b60405180910390a4505050565b6112d961272b565b73ffffffffffffffffffffffffffffffffffffffff166112f76115ad565b73ffffffffffffffffffffffffffffffffffffffff161461134d576040517f08c379a000000000000000000000000000000000000000000000000000000000815260040161134490614208565b60405180910390fd5b600073ffffffffffffffffffffffffffffffffffffffff1660008054906101000a900473ffffffffffffffffffffffffffffffffffffffff1673ffffffffffffffffffffffffffffffffffffffff167f8be0079c531659141344cd1fd0a4f28419497f9722a3daafe3b4186f6b6457e060405160405180910390a360008060006101000a81548173ffffffffffffffffffffffffffffffffffffffff021916908373ffffffffffffffffffffffffffffffffffffffff160217905550565b81600a600085815260200190815260200160002060008673ffffffffffffffffffffffffffffffffffffffff1673ffffffffffffffffffffffffffffffffffffffff168152602001908152602001600020600082825461146b9190614472565b9250508190555081600784815481106114875761148661479d565b5b906000526020600020906007020160050160008282546114a79190614472565b925050819055508373ffffffffffffffffffffffffffffffffffffffff16600073ffffffffffffffffffffffffffffffffffffffff163373ffffffffffffffffffffffffffffffffffffffff167fc3d58168c5ae7397731d063d5bbf3d657854427343f4c083240f7aacaa2d0f628686604051611525929190614336565b60405180910390a450505050565b6115647f65d7a28e3265b37a6474929f336521b332c1681b933f6cb9f3376673440d862a61155f61272b565b611605565b6115a3576040517f08c379a000000000000000000000000000000000000000000000000000000000815260040161159a90614248565b60405180910390fd5b6115ab6127d5565b565b60008060009054906101000a900473ffffffffffffffffffffffffffffffffffffffff16905090565b60006115fd82600e600086815260200190815260200160002061287890919063ffffffff16565b905092915050565b6000600d600084815260200190815260200160002060000160008373ffffffffffffffffffffffffffffffffffffffff1673ffffffffffffffffffffffffffffffffffffffff16815260200190815260200160002060009054906101000a900460ff16905092915050565b600b602052816000526040600020602052806000526040600020600091509150505481565b6000801b81565b80600c60003373ffffffffffffffffffffffffffffffffffffffff1673ffffffffffffffffffffffffffffffffffffffff16815260200190815260200160002060008473ffffffffffffffffffffffffffffffffffffffff1673ffffffffffffffffffffffffffffffffffffffff16815260200190815260200160002060006101000a81548160ff0219169083151502179055508173ffffffffffffffffffffffffffffffffffffffff163373ffffffffffffffffffffffffffffffffffffffff167f17307eab39ab6107e8899845ad3d59bd9653f200f220920489ca2b5937696c318360405161178d9190614110565b60405180910390a35050565b600a602052816000526040600020602052806000526040600020600091509150505481565b826008600082815260200190815260200160002060009054906101000a900473ffffffffffffffffffffffffffffffffffffffff1673ffffffffffffffffffffffffffffffffffffffff163373ffffffffffffffffffffffffffffffffffffffff161461182a57600080fd5b8282600786815481106118405761183f61479d565b5b9060005260206000209060070201600101919061185e9291906130ee565b5050505050565b61186d61272b565b73ffffffffffffffffffffffffffffffffffffffff1661188b6115ad565b73ffffffffffffffffffffffffffffffffffffffff16146118e1576040517f08c379a00000000000000000000000000000000000000000000000000000000081526004016118d890614208565b60405180910390fd5b8060048190555050565b6000611908600e6000848152602001908152602001600020612892565b9050919050565b6007818154811061191f57600080fd5b90600052602060002090600702016000915090508060000160009054906101000a900473ffffffffffffffffffffffffffffffffffffffff169080600101805461196890614664565b80601f016020809104026020016040519081016040528092919081815260200182805461199490614664565b80156119e15780601f106119b6576101008083540402835291602001916119e1565b820191906000526020600020905b8154815290600101906020018083116119c457829003601f168201915b5050505050908060020180546119f690614664565b80601f0160208091040260200160405190810160405280929190818152602001828054611a2290614664565b8015611a6f5780601f10611a4457610100808354040283529160200191611a6f565b820191906000526020600020905b815481529060010190602001808311611a5257829003601f168201915b505050505090806003018054611a8490614664565b80601f0160208091040260200160405190810160405280929190818152602001828054611ab090614664565b8015611afd5780601f10611ad257610100808354040283529160200191611afd565b820191906000526020600020905b815481529060010190602001808311611ae057829003601f168201915b5050505050908060040160009054906101000a900460ff16908060050154908060060154905087565b7f9f2df0fed2c77648de5860a4cc508cd0818c85b8b8a1ab4ceeef8d981c8956a681565b611b5482826128a7565b611b7981600e60008581526020019081526020016000206126fb90919063ffffffff16565b505050565b60076040518060e001604052808673ffffffffffffffffffffffffffffffffffffffff168152602001858152602001848152602001838152602001600015158152602001600081526020016000815250908060018154018082558091505060019003906000526020600020906007020160009091909190915060008201518160000160006101000a81548173ffffffffffffffffffffffffffffffffffffffff021916908373ffffffffffffffffffffffffffffffffffffffff1602179055506020820151816001019080519060200190611c5a929190613174565b506040820151816002019080519060200190611c77929190613174565b506060820151816003019080519060200190611c94929190613174565b5060808201518160040160006101000a81548160ff02191690831515021790555060a0820151816005015560c08201518160060155505060006001600780549050611cdf9190614522565b9050846008600083815260200190815260200160002060006101000a81548173ffffffffffffffffffffffffffffffffffffffff021916908373ffffffffffffffffffffffffffffffffffffffff160217905550600060096000838152602001908152602001600020819055507f3ef624c0f3fb7ad40b94c02078ea3e3a797dbfc21e921ee4bd2b8ad0ca6aa11381868686866000806000604051611d8b9897969594939291906142a3565b60405180910390a15050505050565b611da261272b565b73ffffffffffffffffffffffffffffffffffffffff16611dc06115ad565b73ffffffffffffffffffffffffffffffffffffffff1614611e16576040517f08c379a0000000000000000000000000000000000000000000000000000000008152600401611e0d90614208565b60405180910390fd5b8060018190555050565b826008600082815260200190815260200160002060009054906101000a900473ffffffffffffffffffffffffffffffffffffffff1673ffffffffffffffffffffffffffffffffffffffff163373ffffffffffffffffffffffffffffffffffffffff1614611e8c57600080fd5b828260078681548110611ea257611ea161479d565b5b90600052602060002090600702016003019190611ec09291906130ee565b5050505050565b7f65d7a28e3265b37a6474929f336521b332c1681b933f6cb9f3376673440d862a81565b6000600c60008473ffffffffffffffffffffffffffffffffffffffff1673ffffffffffffffffffffffffffffffffffffffff16815260200190815260200160002060008373ffffffffffffffffffffffffffffffffffffffff1673ffffffffffffffffffffffffffffffffffffffff16815260200190815260200160002060009054906101000a900460ff16905092915050565b611f8761272b565b73ffffffffffffffffffffffffffffffffffffffff16611fa56115ad565b73ffffffffffffffffffffffffffffffffffffffff1614611ffb576040517f08c379a0000000000000000000000000000000000000000000000000000000008152600401611ff290614208565b60405180910390fd5b8073ffffffffffffffffffffffffffffffffffffffff166108fc6003549081150290604051600060405180830381858888f19350505050158015612043573d6000803e3d6000fd5b50600060038190555050565b81600a600085815260200190815260200160002060008773ffffffffffffffffffffffffffffffffffffffff1673ffffffffffffffffffffffffffffffffffffffff16815260200190815260200160002060008282546120af9190614522565b9250508190555081600a600085815260200190815260200160002060008673ffffffffffffffffffffffffffffffffffffffff1673ffffffffffffffffffffffffffffffffffffffff16815260200190815260200160002060008282546121169190614472565b925050819055508373ffffffffffffffffffffffffffffffffffffffff168573ffffffffffffffffffffffffffffffffffffffff163373ffffffffffffffffffffffffffffffffffffffff167fc3d58168c5ae7397731d063d5bbf3d657854427343f4c083240f7aacaa2d0f628686604051612193929190614336565b60405180910390a45050505050565b6121aa61272b565b73ffffffffffffffffffffffffffffffffffffffff166121c86115ad565b73ffffffffffffffffffffffffffffffffffffffff161461221e576040517f08c379a000000000000000000000000000000000000000000000000000000000815260040161221590614208565b60405180910390fd5b600073ffffffffffffffffffffffffffffffffffffffff168173ffffffffffffffffffffffffffffffffffffffff16141561228e576040517f08c379a0000000000000000000000000000000000000000000000000000000008152600401612285906141c8565b60405180910390fd5b8073ffffffffffffffffffffffffffffffffffffffff1660008054906101000a900473ffffffffffffffffffffffffffffffffffffffff1673ffffffffffffffffffffffffffffffffffffffff167f8be0079c531659141344cd1fd0a4f28419497f9722a3daafe3b4186f6b6457e060405160405180910390a3806000806101000a81548173ffffffffffffffffffffffffffffffffffffffff021916908373ffffffffffffffffffffffffffffffffffffffff16021790555050565b80600a600084815260200190815260200160002060008573ffffffffffffffffffffffffffffffffffffffff1673ffffffffffffffffffffffffffffffffffffffff16815260200190815260200160002060008282546123ab9190614522565b9250508190555080600783815481106123c7576123c661479d565b5b906000526020600020906007020160050160008282546123e79190614522565b92505081905550600073ffffffffffffffffffffffffffffffffffffffff168373ffffffffffffffffffffffffffffffffffffffff163373ffffffffffffffffffffffffffffffffffffffff167fc3d58168c5ae7397731d063d5bbf3d657854427343f4c083240f7aacaa2d0f628585604051612465929190614336565b60405180910390a4505050565b61247a61272b565b73ffffffffffffffffffffffffffffffffffffffff166124986115ad565b73ffffffffffffffffffffffffffffffffffffffff16146124ee576040517f08c379a00000000000000000000000000000000000000000000000000000000081526004016124e590614208565b60405180910390fd5b80600783815481106125035761250261479d565b5b906000526020600020906007020160040160006101000a81548160ff0219169083151502179055505050565b61253982826128d0565b5050565b6000612565836000018373ffffffffffffffffffffffffffffffffffffffff1660001b6129b1565b905092915050565b60007fd9b67a26000000000000000000000000000000000000000000000000000000007bffffffffffffffffffffffffffffffffffffffffffffffffffffffff1916827bffffffffffffffffffffffffffffffffffffffffffffffffffffffff1916148061263857507f0e89341c000000000000000000000000000000000000000000000000000000007bffffffffffffffffffffffffffffffffffffffffffffffffffffffff1916827bffffffffffffffffffffffffffffffffffffffffffffffffffffffff1916145b80612648575061264782612a21565b5b9050919050565b61265882610c38565b6126698161266461272b565b612a9b565b61267383836128d0565b505050565b61268061272b565b73ffffffffffffffffffffffffffffffffffffffff168173ffffffffffffffffffffffffffffffffffffffff16146126ed576040517f08c379a00000000000000000000000000000000000000000000000000000000081526004016126e490614268565b60405180910390fd5b6126f78282612b38565b5050565b6000612723836000018373ffffffffffffffffffffffffffffffffffffffff1660001b612c1a565b905092915050565b600033905090565b61273b61110b565b61277a576040517f08c379a0000000000000000000000000000000000000000000000000000000008152600401612771906141a8565b60405180910390fd5b6000601260006101000a81548160ff0219169083151502179055507f5db9ee0a495bf2e6ff9c91a7834c1ba4fdd244a5e8aa4e537bd38aeae4b073aa6127be61272b565b6040516127cb9190614018565b60405180910390a1565b6127dd61110b565b1561281d576040517f08c379a0000000000000000000000000000000000000000000000000000000008152600401612814906141e8565b60405180910390fd5b6001601260006101000a81548160ff0219169083151502179055507f62e78cea01bee320cd4e420270b5ea74000d11b0c9f74754ebdbfc544b05a25861286161272b565b60405161286e9190614018565b60405180910390a1565b60006128878360000183612d26565b60001c905092915050565b60006128a082600001612d9a565b9050919050565b6128b082610c38565b6128c1816128bc61272b565b612a9b565b6128cb8383612b38565b505050565b6128da8282611605565b6129ad576001600d600084815260200190815260200160002060000160008373ffffffffffffffffffffffffffffffffffffffff1673ffffffffffffffffffffffffffffffffffffffff16815260200190815260200160002060006101000a81548160ff02191690831515021790555061295261272b565b73ffffffffffffffffffffffffffffffffffffffff168173ffffffffffffffffffffffffffffffffffffffff16837f2f8788117e7eff1d82e926ec794901d17c78024a50270940304540a733656f0d60405160405180910390a45b5050565b60006129bd8383612dab565b612a16578260000182908060018154018082558091505060019003906000526020600020016000909190919091505582600001805490508360010160008481526020019081526020016000208190555060019050612a1b565b600090505b92915050565b60007f5a05180f000000000000000000000000000000000000000000000000000000007bffffffffffffffffffffffffffffffffffffffffffffffffffffffff1916827bffffffffffffffffffffffffffffffffffffffffffffffffffffffff19161480612a945750612a9382612dce565b5b9050919050565b612aa58282611605565b612b3457612aca8173ffffffffffffffffffffffffffffffffffffffff166014612e48565b612ad88360001c6020612e48565b604051602001612ae9929190613fde565b6040516020818303038152906040526040517f08c379a0000000000000000000000000000000000000000000000000000000008152600401612b2b9190614146565b60405180910390fd5b5050565b612b428282611605565b15612c16576000600d600084815260200190815260200160002060000160008373ffffffffffffffffffffffffffffffffffffffff1673ffffffffffffffffffffffffffffffffffffffff16815260200190815260200160002060006101000a81548160ff021916908315150217905550612bbb61272b565b73ffffffffffffffffffffffffffffffffffffffff168173ffffffffffffffffffffffffffffffffffffffff16837ff6391f5c32d9c69d2a47ea670b442974b53935d1edc7fd64eb21e047a839171b60405160405180910390a45b5050565b60008083600101600084815260200190815260200160002054905060008114612d1a576000600182612c4c9190614522565b9050600060018660000180549050612c649190614522565b90506000866000018281548110612c7e57612c7d61479d565b5b9060005260206000200154905080876000018481548110612ca257612ca161479d565b5b9060005260206000200181905550838760010160008381526020019081526020016000208190555086600001805480612cde57612cdd61476e565b5b60019003818190600052602060002001600090559055866001016000878152602001908152602001600020600090556001945050505050612d20565b60009150505b92915050565b600081836000018054905011612d71576040517f08c379a0000000000000000000000000000000000000000000000000000000008152600401612d6890614168565b60405180910390fd5b826000018281548110612d8757612d8661479d565b5b9060005260206000200154905092915050565b600081600001805490509050919050565b600080836001016000848152602001908152602001600020541415905092915050565b60007f7965db0b000000000000000000000000000000000000000000000000000000007bffffffffffffffffffffffffffffffffffffffffffffffffffffffff1916827bffffffffffffffffffffffffffffffffffffffffffffffffffffffff19161480612e415750612e4082613084565b5b9050919050565b606060006002836002612e5b91906144c8565b612e659190614472565b67ffffffffffffffff811115612e7e57612e7d6147cc565b5b6040519080825280601f01601f191660200182016040528015612eb05781602001600182028036833780820191505090505b5090507f300000000000000000000000000000000000000000000000000000000000000081600081518110612ee857612ee761479d565b5b60200101907effffffffffffffffffffffffffffffffffffffffffffffffffffffffffffff1916908160001a9053507f780000000000000000000000000000000000000000000000000000000000000081600181518110612f4c57612f4b61479d565b5b60200101907effffffffffffffffffffffffffffffffffffffffffffffffffffffffffffff1916908160001a90535060006001846002612f8c91906144c8565b612f969190614472565b90505b6001811115613036577f3031323334353637383961626364656600000000000000000000000000000000600f861660108110612fd857612fd761479d565b5b1a60f81b828281518110612fef57612fee61479d565b5b60200101907effffffffffffffffffffffffffffffffffffffffffffffffffffffffffffff1916908160001a905350600485901c94508061302f9061463a565b9050612f99565b506000841461307a576040517f08c379a000000000000000000000000000000000000000000000000000000000815260040161307190614188565b60405180910390fd5b8091505092915050565b60007f01ffc9a7000000000000000000000000000000000000000000000000000000007bffffffffffffffffffffffffffffffffffffffffffffffffffffffff1916827bffffffffffffffffffffffffffffffffffffffffffffffffffffffff1916149050919050565b8280546130fa90614664565b90600052602060002090601f01602090048101928261311c5760008555613163565b82601f1061313557803560ff1916838001178555613163565b82800160010185558215613163579182015b82811115613162578235825591602001919060010190613147565b5b50905061317091906131fa565b5090565b82805461318090614664565b90600052602060002090601f0160209004810192826131a257600085556131e9565b82601f106131bb57805160ff19168380011785556131e9565b828001600101855582156131e9579182015b828111156131e85782518255916020019190600101906131cd565b5b5090506131f691906131fa565b5090565b5b808211156132135760008160009055506001016131fb565b5090565b600061322a61322584614384565b61435f565b9050808382526020820190508285602086028201111561324d5761324c614805565b5b60005b8581101561327d57816132638882613500565b845260208401935060208301925050600181019050613250565b5050509392505050565b600061329a613295846143b0565b61435f565b9050828152602081018484840111156132b6576132b561480a565b5b6132c18482856145f8565b509392505050565b60006132dc6132d7846143e1565b61435f565b9050828152602081018484840111156132f8576132f761480a565b5b6133038482856145f8565b509392505050565b60008135905061331a81614aab565b92915050565b60008135905061332f81614ac2565b92915050565b60008083601f84011261334b5761334a614800565b5b8235905067ffffffffffffffff811115613368576133676147fb565b5b60208301915083602082028301111561338457613383614805565b5b9250929050565b60008083601f8401126133a1576133a0614800565b5b8235905067ffffffffffffffff8111156133be576133bd6147fb565b5b6020830191508360208202830111156133da576133d9614805565b5b9250929050565b600082601f8301126133f6576133f5614800565b5b8135613406848260208601613217565b91505092915050565b60008135905061341e81614ad9565b92915050565b60008135905061343381614af0565b92915050565b60008135905061344881614b07565b92915050565b600082601f83011261346357613462614800565b5b8135613473848260208601613287565b91505092915050565b60008083601f84011261349257613491614800565b5b8235905067ffffffffffffffff8111156134af576134ae6147fb565b5b6020830191508360018202830111156134cb576134ca614805565b5b9250929050565b600082601f8301126134e7576134e6614800565b5b81356134f78482602086016132c9565b91505092915050565b60008135905061350f81614b1e565b92915050565b60006020828403121561352b5761352a614814565b5b60006135398482850161330b565b91505092915050565b60006020828403121561355857613557614814565b5b600061356684828501613320565b91505092915050565b6000806000806080858703121561358957613588614814565b5b600061359787828801613320565b945050602085013567ffffffffffffffff8111156135b8576135b761480f565b5b6135c4878288016134d2565b935050604085013567ffffffffffffffff8111156135e5576135e461480f565b5b6135f1878288016134d2565b925050606085013567ffffffffffffffff8111156136125761361161480f565b5b61361e878288016134d2565b91505092959194509250565b6000806040838503121561364157613640614814565b5b600061364f8582860161330b565b92505060206136608582860161330b565b9150509250929050565b600080600080600060a0868803121561368657613685614814565b5b60006136948882890161330b565b95505060206136a58882890161330b565b945050604086013567ffffffffffffffff8111156136c6576136c561480f565b5b6136d2888289016133e1565b935050606086013567ffffffffffffffff8111156136f3576136f261480f565b5b6136ff888289016133e1565b925050608086013567ffffffffffffffff8111156137205761371f61480f565b5b61372c8882890161344e565b9150509295509295909350565b600080600080600060a0868803121561375557613754614814565b5b60006137638882890161330b565b95505060206137748882890161330b565b945050604061378588828901613500565b935050606061379688828901613500565b925050608086013567ffffffffffffffff8111156137b7576137b661480f565b5b6137c38882890161344e565b9150509295509295909350565b6000806000606084860312156137e9576137e8614814565b5b60006137f78682870161330b565b935050602084013567ffffffffffffffff8111156138185761381761480f565b5b613824868287016133e1565b925050604084013567ffffffffffffffff8111156138455761384461480f565b5b613851868287016133e1565b9150509250925092565b6000806000806080858703121561387557613874614814565b5b60006138838782880161330b565b945050602085013567ffffffffffffffff8111156138a4576138a361480f565b5b6138b0878288016133e1565b935050604085013567ffffffffffffffff8111156138d1576138d061480f565b5b6138dd878288016133e1565b925050606085013567ffffffffffffffff8111156138fe576138fd61480f565b5b61390a8782880161344e565b91505092959194509250565b6000806040838503121561392d5761392c614814565b5b600061393b8582860161330b565b925050602061394c8582860161340f565b9150509250929050565b6000806040838503121561396d5761396c614814565b5b600061397b8582860161330b565b925050602061398c85828601613500565b9150509250929050565b6000806000606084860312156139af576139ae614814565b5b60006139bd8682870161330b565b93505060206139ce86828701613500565b92505060406139df86828701613500565b9150509250925092565b60008060008060808587031215613a0357613a02614814565b5b6000613a118782880161330b565b9450506020613a2287828801613500565b9350506040613a3387828801613500565b925050606085013567ffffffffffffffff811115613a5457613a5361480f565b5b613a608782880161344e565b91505092959194509250565b60008060008060408587031215613a8657613a85614814565b5b600085013567ffffffffffffffff811115613aa457613aa361480f565b5b613ab087828801613335565b9450945050602085013567ffffffffffffffff811115613ad357613ad261480f565b5b613adf8782880161338b565b925092505092959194509250565b600060208284031215613b0357613b02614814565b5b6000613b1184828501613424565b91505092915050565b60008060408385031215613b3157613b30614814565b5b6000613b3f85828601613424565b9250506020613b508582860161330b565b9150509250929050565b60008060408385031215613b7157613b70614814565b5b6000613b7f85828601613424565b9250506020613b9085828601613500565b9150509250929050565b600060208284031215613bb057613baf614814565b5b6000613bbe84828501613439565b91505092915050565b600060208284031215613bdd57613bdc614814565b5b6000613beb84828501613500565b91505092915050565b60008060408385031215613c0b57613c0a614814565b5b6000613c1985828601613500565b9250506020613c2a8582860161330b565b9150509250929050565b60008060408385031215613c4b57613c4a614814565b5b6000613c5985828601613500565b9250506020613c6a85828601613320565b9150509250929050565b60008060408385031215613c8b57613c8a614814565b5b6000613c9985828601613500565b9250506020613caa8582860161340f565b9150509250929050565b600080600060408486031215613ccd57613ccc614814565b5b6000613cdb86828701613500565b935050602084013567ffffffffffffffff811115613cfc57613cfb61480f565b5b613d088682870161347c565b92509250509250925092565b6000613d208383613fc0565b60208301905092915050565b613d3581614568565b82525050565b613d4481614556565b82525050565b6000613d5582614422565b613d5f8185614445565b9350613d6a83614412565b8060005b83811015613d9b578151613d828882613d14565b9750613d8d83614438565b925050600181019050613d6e565b5085935050505092915050565b613db18161457a565b82525050565b613dc081614586565b82525050565b613dcf816145e6565b82525050565b6000613de08261442d565b613dea8185614456565b9350613dfa818560208601614607565b613e0381614819565b840191505092915050565b6000613e198261442d565b613e238185614467565b9350613e33818560208601614607565b80840191505092915050565b6000613e4c602283614456565b9150613e578261482a565b604082019050919050565b6000613e6f602083614456565b9150613e7a82614879565b602082019050919050565b6000613e92601483614456565b9150613e9d826148a2565b602082019050919050565b6000613eb5602683614456565b9150613ec0826148cb565b604082019050919050565b6000613ed8601083614456565b9150613ee38261491a565b602082019050919050565b6000613efb602083614456565b9150613f0682614943565b602082019050919050565b6000613f1e603b83614456565b9150613f298261496c565b604082019050919050565b6000613f41603983614456565b9150613f4c826149bb565b604082019050919050565b6000613f64601783614467565b9150613f6f82614a0a565b601782019050919050565b6000613f87601183614467565b9150613f9282614a33565b601182019050919050565b6000613faa602f83614456565b9150613fb582614a5c565b604082019050919050565b613fc9816145dc565b82525050565b613fd8816145dc565b82525050565b6000613fe982613f57565b9150613ff58285613e0e565b915061400082613f7a565b915061400c8284613e0e565b91508190509392505050565b600060208201905061402d6000830184613d3b565b92915050565b600060e082019050614048600083018a613d2c565b818103602083015261405a8189613dd5565b9050818103604083015261406e8188613dd5565b905081810360608301526140828187613dd5565b90506140916080830186613da8565b61409e60a0830185613fcf565b6140ab60c0830184613fcf565b98975050505050505050565b600060208201905081810360008301526140d18184613d4a565b905092915050565b600060408201905081810360008301526140f38185613d4a565b905081810360208301526141078184613d4a565b90509392505050565b60006020820190506141256000830184613da8565b92915050565b60006020820190506141406000830184613db7565b92915050565b600060208201905081810360008301526141608184613dd5565b905092915050565b6000602082019050818103600083015261418181613e3f565b9050919050565b600060208201905081810360008301526141a181613e62565b9050919050565b600060208201905081810360008301526141c181613e85565b9050919050565b600060208201905081810360008301526141e181613ea8565b9050919050565b6000602082019050818103600083015261420181613ecb565b9050919050565b6000602082019050818103600083015261422181613eee565b9050919050565b6000602082019050818103600083015261424181613f11565b9050919050565b6000602082019050818103600083015261426181613f34565b9050919050565b6000602082019050818103600083015261428181613f9d565b9050919050565b600060208201905061429d6000830184613fcf565b92915050565b6000610100820190506142b9600083018b613fcf565b6142c6602083018a613d2c565b81810360408301526142d88189613dd5565b905081810360608301526142ec8188613dd5565b905081810360808301526143008187613dd5565b905061430f60a0830186613da8565b61431c60c0830185613dc6565b61432960e0830184613dc6565b9998505050505050505050565b600060408201905061434b6000830185613fcf565b6143586020830184613fcf565b9392505050565b600061436961437a565b90506143758282614696565b919050565b6000604051905090565b600067ffffffffffffffff82111561439f5761439e6147cc565b5b602082029050602081019050919050565b600067ffffffffffffffff8211156143cb576143ca6147cc565b5b6143d482614819565b9050602081019050919050565b600067ffffffffffffffff8211156143fc576143fb6147cc565b5b61440582614819565b9050602081019050919050565b6000819050602082019050919050565b600081519050919050565b600081519050919050565b6000602082019050919050565b600082825260208201905092915050565b600082825260208201905092915050565b600081905092915050565b600061447d826145dc565b9150614488836145dc565b9250827fffffffffffffffffffffffffffffffffffffffffffffffffffffffffffffffff038211156144bd576144bc614710565b5b828201905092915050565b60006144d3826145dc565b91506144de836145dc565b9250817fffffffffffffffffffffffffffffffffffffffffffffffffffffffffffffffff048311821515161561451757614516614710565b5b828202905092915050565b600061452d826145dc565b9150614538836145dc565b92508282101561454b5761454a614710565b5b828203905092915050565b6000614561826145bc565b9050919050565b6000614573826145bc565b9050919050565b60008115159050919050565b6000819050919050565b60007fffffffff0000000000000000000000000000000000000000000000000000000082169050919050565b600073ffffffffffffffffffffffffffffffffffffffff82169050919050565b6000819050919050565b60006145f1826145dc565b9050919050565b82818337600083830152505050565b60005b8381101561462557808201518184015260208101905061460a565b83811115614634576000848401525b50505050565b6000614645826145dc565b9150600082141561465957614658614710565b5b600182039050919050565b6000600282049050600182168061467c57607f821691505b602082108114156146905761468f61473f565b5b50919050565b61469f82614819565b810181811067ffffffffffffffff821117156146be576146bd6147cc565b5b80604052505050565b60006146d2826145dc565b91507fffffffffffffffffffffffffffffffffffffffffffffffffffffffffffffffff82141561470557614704614710565b5b600182019050919050565b7f4e487b7100000000000000000000000000000000000000000000000000000000600052601160045260246000fd5b7f4e487b7100000000000000000000000000000000000000000000000000000000600052602260045260246000fd5b7f4e487b7100000000000000000000000000000000000000000000000000000000600052603160045260246000fd5b7f4e487b7100000000000000000000000000000000000000000000000000000000600052603260045260246000fd5b7f4e487b7100000000000000000000000000000000000000000000000000000000600052604160045260246000fd5b600080fd5b600080fd5b600080fd5b600080fd5b600080fd5b600080fd5b6000601f19601f8301169050919050565b7f456e756d657261626c655365743a20696e646578206f7574206f6620626f756e60008201527f6473000000000000000000000000000000000000000000000000000000000000602082015250565b7f537472696e67733a20686578206c656e67746820696e73756666696369656e74600082015250565b7f5061757361626c653a206e6f7420706175736564000000000000000000000000600082015250565b7f4f776e61626c653a206e6577206f776e657220697320746865207a65726f206160008201527f6464726573730000000000000000000000000000000000000000000000000000602082015250565b7f5061757361626c653a2070617573656400000000000000000000000000000000600082015250565b7f4f776e61626c653a2063616c6c6572206973206e6f7420746865206f776e6572600082015250565b7f455243313135355072657365744d696e7465725061757365723a206d7573742060008201527f686176652070617573657220726f6c6520746f20756e70617573650000000000602082015250565b7f455243313135355072657365744d696e7465725061757365723a206d7573742060008201527f686176652070617573657220726f6c6520746f20706175736500000000000000602082015250565b7f416363657373436f6e74726f6c3a206163636f756e7420000000000000000000600082015250565b7f206973206d697373696e6720726f6c6520000000000000000000000000000000600082015250565b7f416363657373436f6e74726f6c3a2063616e206f6e6c792072656e6f756e636560008201527f20726f6c657320666f722073656c660000000000000000000000000000000000602082015250565b614ab481614556565b8114614abf57600080fd5b50565b614acb81614568565b8114614ad657600080fd5b50565b614ae28161457a565b8114614aed57600080fd5b50565b614af981614586565b8114614b0457600080fd5b50565b614b1081614590565b8114614b1b57600080fd5b50565b614b27816145dc565b8114614b3257600080fd5b5056fea26469706673582212203a606c1e9eb3f9724f38710530e6bcfc5eab12a589cab4c98b83a1825e742af964736f6c63430008060033",
  "immutableReferences": {},
  "source": "// SPDX-License-Identifier: MIT\npragma solidity ^0.8.0;\n\nimport \"./creatortokenhelper.sol\";\nimport \"@openzeppelin/contracts/token/ERC1155/presets/ERC1155PresetMinterPauser.sol\";\n\ncontract CreatorTokenOwnership is CreatorTokenHelper, ERC1155PresetMinterPauser {\n\n\tconstructor(string memory uri) ERC1155PresetMinterPauser(uri) { }\n\n\t// Mint a token\n\tfunction mint(address _to, uint256 _id, uint256 _amount, bytes memory _data) public override {\n\t\t// Update tokenHoldership mapping\n\t\ttokenHoldership[_id][_to] += _amount;\n\t\t// Increase token amount outstanding\n\t\tcreatorTokens[_id].outstanding += _amount;\n\t\t// Do I also need to transfer the actual tokens to the user?\n\t\t// Emit single transfer event\n\t\temit TransferSingle(msg.sender, address(0), _to, _id, _amount);\n\t}\n\n\t// Mint a batch of tokens\n\tfunction mintBatch(address _to, uint256[] memory _ids, uint256[] memory _amounts, bytes memory data) public override {\n\t\t// Iterate through _ids\n\t\tfor (uint256 i=0; i<_ids.length; i++) {\n\t\t\t// Update tokenHoldership mapping\n\t\t\ttokenHoldership[_ids[i]][_to] += _amounts[i];\n\t\t\t// Increase token amount outstanding\n\t\t\tcreatorTokens[_ids[i]].outstanding += _amounts[i];\n\t\t}\n\t\t// Do I also need to transfer the actual tokens to the user?\n\t\t// Emit batch transfer event\n\t\temit TransferBatch(msg.sender, address(0), _to, _ids, _amounts);\n\t}\n\n\t// Burn a token\n\tfunction burn(address _account, uint256 _id, uint256 _amount) public override {\n\t\t// Update tokenHoldership mapping\n\t\ttokenHoldership[_id][_account] -= _amount;\n\t\t// Decrease token amount outstanding\n\t\tcreatorTokens[_id].outstanding -= _amount;\n\t\t// Do I also need to transfer the actual tokens to from user to address(0)?\n\t\t// Emit single transfer event\n\t\temit TransferSingle(msg.sender, _account, address(0), _id, _amount);\n\t}\n\n\t// Burn a batch of tokens\n\tfunction burnBatch(address _account, uint256[] memory _ids, uint256[] memory _amounts) public override {\n\t\t// Iterate through _ids\n\t\tfor (uint256 i=0; i<_ids.length; i++) {\n\t\t\t// Update tokenHoldership mapping\n\t\t\ttokenHoldership[_ids[i]][_account] -= _amounts[i];\n\t\t\t// Decrease token amount outstanding\n\t\t\tcreatorTokens[_ids[i]].outstanding -= _amounts[i];\n\t\t}\n\t\t// Do I also need to transfer the actual tokens to from user to address(0)?\n\t\t// Emit batch transfer event\n\t\temit TransferBatch(msg.sender, _account, address(0), _ids, _amounts);\n\t}\n\n\t// Transfer a token\n\tfunction safeTransferFrom(address _from, address _to, uint256 _id, uint256 _amount, bytes memory _data) public override {\n\t\t// Reduce tokenHoldership holdings of _from\n\t\ttokenHoldership[_id][_from] -= _amount;\n\t\t// Increase tokenHoldership holdings of _to\n\t\ttokenHoldership[_id][_to] += _amount;\n\t\t// Do I also need to transfer the actual tokens from _from to _to?\n\t\t// Emit single transfer event\n\t\temit TransferSingle(msg.sender, _from, _to, _id, _amount);\n\t}\n\n\t// Transfer a batch of tokens\n\tfunction safeBatchTransferFrom(address _from, address _to, uint256[] memory _ids, uint256[] memory _amounts, bytes memory data) public override {\n\t\t// Iterate through _ids\n\t\tfor (uint256 i=0; i<_ids.length; i++) {\n\t\t\t// Reduce tokenHoldership holdings of _from\n\t\t\ttokenHoldership[_ids[i]][_from] -= _amounts[i];\n\t\t\t// Increase tokenHoldership holdings of _to\n\t\t\ttokenHoldership[_ids[i]][_to] += _amounts[i];\n\t\t}\n\t\t// Do I also need to transfer the actual tokens from _from to _to?\n\t\t// Emit batch transfer event\n\t\temit TransferBatch(msg.sender, _from, _to, _ids, _amounts);\n\t}\n\n\t// Return balance of a given token at a given address\n\tfunction balanceOf(address _account, uint256 _id) public view override returns (uint256) {\n\t\t// Look up _account's holdings of _id in tokenHoldership\n\t\treturn tokenHoldership[_id][_account];\n\t}\n\n\t// Return balance of a batch of tokens\n\tfunction balanceOfBatch(address[] calldata _accounts, uint256[] calldata _ids) public view override returns (uint256[] memory) {\n\t\t// Initialize output array\n\t\tuint256[] memory batchBalances = new uint256[](_accounts.length);\n\t\t// Iterate through _accounts\n\t\tfor (uint256 i = 0; i < _accounts.length; i++) {\n\t\t\t// Look up _account's holdings of _id in tokenHoldership\n\t\t\tbatchBalances[i] = tokenHoldership[_ids[i]][_accounts[i]];\n\t\t}\n\t\t// Return output array\n\t\treturn batchBalances;\n\t}\n\n\t// Give operator permission to transfer caller's tokens\n\tfunction setApprovalForAll(address _operator, bool _approved) public override {\n\t\t// Update approvals mapping\n\t\tapprovals[msg.sender][_operator] = _approved;\n\t\t// Emit Approval event\n\t\temit ApprovalForAll(msg.sender, _operator, _approved);\n\t}\n\n\t// Denotes whether operator is approved to transfer accounts' tokens\n\tfunction isApprovedForAll(address _account, address _operator) public view override returns (bool) {\n\t\t// Look up approvals mapping\n\t\treturn approvals[_account][_operator];\n\t}\n}\n\n\n\n\n\n\n\n",
  "sourcePath": "/Users/kamilalizaisadik/DeFi/Dynamic Automated Market Maker/damm_solidity/contracts/creatortokenownership.sol",
  "compiler": {
    "name": "solc",
    "version": "0.8.6+commit.11564f7e.Emscripten.clang"
  },
  "schemaVersion": "3.4.1",
  "updatedAt": "2021-06-26T13:52:36.974Z",
  "devdoc": {
    "kind": "dev",
    "methods": {
      "getRoleAdmin(bytes32)": {
        "details": "Returns the admin role that controls `role`. See {grantRole} and {revokeRole}. To change a role's admin, use {_setRoleAdmin}."
      },
      "getRoleMember(bytes32,uint256)": {
        "details": "Returns one of the accounts that have `role`. `index` must be a value between 0 and {getRoleMemberCount}, non-inclusive. Role bearers are not sorted in any particular way, and their ordering may change at any point. WARNING: When using {getRoleMember} and {getRoleMemberCount}, make sure you perform all queries on the same block. See the following https://forum.openzeppelin.com/t/iterating-over-elements-on-enumerableset-in-openzeppelin-contracts/2296[forum post] for more information."
      },
      "getRoleMemberCount(bytes32)": {
        "details": "Returns the number of accounts that have `role`. Can be used together with {getRoleMember} to enumerate all bearers of a role."
      },
      "grantRole(bytes32,address)": {
        "details": "Overload {grantRole} to track enumerable memberships"
      },
      "hasRole(bytes32,address)": {
        "details": "Returns `true` if `account` has been granted `role`."
      },
      "owner()": {
        "details": "Returns the address of the current owner."
      },
      "pause()": {
        "details": "Pauses all token transfers. See {ERC1155Pausable} and {Pausable-_pause}. Requirements: - the caller must have the `PAUSER_ROLE`."
      },
      "paused()": {
        "details": "Returns true if the contract is paused, and false otherwise."
      },
      "renounceOwnership()": {
        "details": "Leaves the contract without owner. It will not be possible to call `onlyOwner` functions anymore. Can only be called by the current owner. NOTE: Renouncing ownership will leave the contract without an owner, thereby removing any functionality that is only available to the owner."
      },
      "renounceRole(bytes32,address)": {
        "details": "Overload {renounceRole} to track enumerable memberships"
      },
      "revokeRole(bytes32,address)": {
        "details": "Overload {revokeRole} to track enumerable memberships"
      },
      "supportsInterface(bytes4)": {
        "details": "See {IERC165-supportsInterface}."
      },
      "transferOwnership(address)": {
        "details": "Transfers ownership of the contract to a new account (`newOwner`). Can only be called by the current owner."
      },
      "unpause()": {
        "details": "Unpauses all token transfers. See {ERC1155Pausable} and {Pausable-_unpause}. Requirements: - the caller must have the `PAUSER_ROLE`."
      },
      "uri(uint256)": {
        "details": "See {IERC1155MetadataURI-uri}. This implementation returns the same URI for *all* token types. It relies on the token type ID substitution mechanism https://eips.ethereum.org/EIPS/eip-1155#metadata[defined in the EIP]. Clients calling this function must replace the `\\{id\\}` substring with the actual token type ID."
      }
    },
    "version": 1
  },
  "userdoc": {
    "kind": "user",
    "methods": {},
    "version": 1
  }
}