{
  "contractName": "CreatorTokenFees",
  "abi": [
    {
      "inputs": [
        {
          "internalType": "string",
          "name": "uri",
          "type": "string"
        }
      ],
      "stateMutability": "nonpayable",
      "type": "constructor"
    },
    {
      "anonymous": false,
      "inputs": [
        {
          "indexed": true,
          "internalType": "address",
          "name": "account",
          "type": "address"
        },
        {
          "indexed": true,
          "internalType": "address",
          "name": "operator",
          "type": "address"
        },
        {
          "indexed": false,
          "internalType": "bool",
          "name": "approved",
          "type": "bool"
        }
      ],
      "name": "ApprovalForAll",
      "type": "event"
    },
    {
      "anonymous": false,
      "inputs": [
        {
          "indexed": false,
          "internalType": "uint256",
          "name": "tokenId",
          "type": "uint256"
        },
        {
          "indexed": false,
          "internalType": "address payable",
          "name": "creatorAddress",
          "type": "address"
        },
        {
          "indexed": false,
          "internalType": "string",
          "name": "name",
          "type": "string"
        },
        {
          "indexed": false,
          "internalType": "string",
          "name": "symbol",
          "type": "string"
        },
        {
          "indexed": false,
          "internalType": "string",
          "name": "description",
          "type": "string"
        },
        {
          "indexed": false,
          "internalType": "bool",
          "name": "verified",
          "type": "bool"
        },
        {
          "indexed": false,
          "internalType": "uint256",
          "name": "outstanding",
          "type": "uint256"
        },
        {
          "indexed": false,
          "internalType": "uint256",
          "name": "maxSupply",
          "type": "uint256"
        }
      ],
      "name": "NewCreatorToken",
      "type": "event"
    },
    {
      "anonymous": false,
      "inputs": [
        {
          "indexed": true,
          "internalType": "address",
          "name": "previousOwner",
          "type": "address"
        },
        {
          "indexed": true,
          "internalType": "address",
          "name": "newOwner",
          "type": "address"
        }
      ],
      "name": "OwnershipTransferred",
      "type": "event"
    },
    {
      "anonymous": false,
      "inputs": [
        {
          "indexed": true,
          "internalType": "address",
          "name": "operator",
          "type": "address"
        },
        {
          "indexed": true,
          "internalType": "address",
          "name": "from",
          "type": "address"
        },
        {
          "indexed": true,
          "internalType": "address",
          "name": "to",
          "type": "address"
        },
        {
          "indexed": false,
          "internalType": "uint256[]",
          "name": "ids",
          "type": "uint256[]"
        },
        {
          "indexed": false,
          "internalType": "uint256[]",
          "name": "values",
          "type": "uint256[]"
        }
      ],
      "name": "TransferBatch",
      "type": "event"
    },
    {
      "anonymous": false,
      "inputs": [
        {
          "indexed": true,
          "internalType": "address",
          "name": "operator",
          "type": "address"
        },
        {
          "indexed": true,
          "internalType": "address",
          "name": "from",
          "type": "address"
        },
        {
          "indexed": true,
          "internalType": "address",
          "name": "to",
          "type": "address"
        },
        {
          "indexed": false,
          "internalType": "uint256",
          "name": "id",
          "type": "uint256"
        },
        {
          "indexed": false,
          "internalType": "uint256",
          "name": "value",
          "type": "uint256"
        }
      ],
      "name": "TransferSingle",
      "type": "event"
    },
    {
      "anonymous": false,
      "inputs": [
        {
          "indexed": false,
          "internalType": "string",
          "name": "value",
          "type": "string"
        },
        {
          "indexed": true,
          "internalType": "uint256",
          "name": "id",
          "type": "uint256"
        }
      ],
      "name": "URI",
      "type": "event"
    },
    {
      "inputs": [
        {
          "internalType": "uint256",
          "name": "_startingSupply",
          "type": "uint256"
        },
        {
          "internalType": "uint256",
          "name": "_amount",
          "type": "uint256"
        },
        {
          "internalType": "uint256",
          "name": "_mNumerator",
          "type": "uint256"
        },
        {
          "internalType": "uint256",
          "name": "_mDenominator",
          "type": "uint256"
        },
        {
          "internalType": "uint256",
          "name": "_maxSupply",
          "type": "uint256"
        },
        {
          "internalType": "uint256",
          "name": "_profitMargin",
          "type": "uint256"
        }
      ],
      "name": "_saleFunction",
      "outputs": [
        {
          "internalType": "uint256",
          "name": "",
          "type": "uint256"
        }
      ],
      "stateMutability": "pure",
      "type": "function"
    },
    {
      "inputs": [
        {
          "internalType": "address",
          "name": "",
          "type": "address"
        },
        {
          "internalType": "address",
          "name": "",
          "type": "address"
        }
      ],
      "name": "approvals",
      "outputs": [
        {
          "internalType": "bool",
          "name": "",
          "type": "bool"
        }
      ],
      "stateMutability": "view",
      "type": "function"
    },
    {
      "inputs": [
        {
          "internalType": "address",
          "name": "account",
          "type": "address"
        },
        {
          "internalType": "uint256",
          "name": "id",
          "type": "uint256"
        }
      ],
      "name": "balanceOf",
      "outputs": [
        {
          "internalType": "uint256",
          "name": "",
          "type": "uint256"
        }
      ],
      "stateMutability": "view",
      "type": "function"
    },
    {
      "inputs": [
        {
          "internalType": "address[]",
          "name": "accounts",
          "type": "address[]"
        },
        {
          "internalType": "uint256[]",
          "name": "ids",
          "type": "uint256[]"
        }
      ],
      "name": "balanceOfBatch",
      "outputs": [
        {
          "internalType": "uint256[]",
          "name": "",
          "type": "uint256[]"
        }
      ],
      "stateMutability": "view",
      "type": "function"
    },
    {
      "inputs": [
        {
          "internalType": "uint256",
          "name": "_tokenId",
          "type": "uint256"
        },
        {
          "internalType": "address payable",
          "name": "_newCreatorAddress",
          "type": "address"
        }
      ],
      "name": "changeAddress",
      "outputs": [],
      "stateMutability": "nonpayable",
      "type": "function"
    },
    {
      "inputs": [
        {
          "internalType": "uint256",
          "name": "_tokenId",
          "type": "uint256"
        },
        {
          "internalType": "string",
          "name": "_newDescription",
          "type": "string"
        }
      ],
      "name": "changeDescription",
      "outputs": [],
      "stateMutability": "nonpayable",
      "type": "function"
    },
    {
      "inputs": [
        {
          "internalType": "uint256",
          "name": "_tokenId",
          "type": "uint256"
        },
        {
          "internalType": "string",
          "name": "_newName",
          "type": "string"
        }
      ],
      "name": "changeName",
      "outputs": [],
      "stateMutability": "nonpayable",
      "type": "function"
    },
    {
      "inputs": [
        {
          "internalType": "uint256",
          "name": "_newPlatformFee",
          "type": "uint256"
        }
      ],
      "name": "changePlatformFee",
      "outputs": [],
      "stateMutability": "nonpayable",
      "type": "function"
    },
    {
      "inputs": [
        {
          "internalType": "uint256",
          "name": "_newProfitMargin",
          "type": "uint256"
        }
      ],
      "name": "changeProfitMargin",
      "outputs": [],
      "stateMutability": "nonpayable",
      "type": "function"
    },
    {
      "inputs": [
        {
          "internalType": "uint256",
          "name": "_tokenId",
          "type": "uint256"
        },
        {
          "internalType": "string",
          "name": "_newSymbol",
          "type": "string"
        }
      ],
      "name": "changeSymbol",
      "outputs": [],
      "stateMutability": "nonpayable",
      "type": "function"
    },
    {
      "inputs": [
        {
          "internalType": "uint256",
          "name": "_tokenId",
          "type": "uint256"
        },
        {
          "internalType": "bool",
          "name": "_verified",
          "type": "bool"
        }
      ],
      "name": "changeVerification",
      "outputs": [],
      "stateMutability": "nonpayable",
      "type": "function"
    },
    {
      "inputs": [
        {
          "internalType": "address payable",
          "name": "_creatorAddress",
          "type": "address"
        },
        {
          "internalType": "string",
          "name": "_name",
          "type": "string"
        },
        {
          "internalType": "string",
          "name": "_symbol",
          "type": "string"
        },
        {
          "internalType": "string",
          "name": "_description",
          "type": "string"
        }
      ],
      "name": "createCreatorToken",
      "outputs": [],
      "stateMutability": "nonpayable",
      "type": "function"
    },
    {
      "inputs": [
        {
          "internalType": "uint256",
          "name": "",
          "type": "uint256"
        }
      ],
      "name": "creatorTokens",
      "outputs": [
        {
          "internalType": "address payable",
          "name": "creatorAddress",
          "type": "address"
        },
        {
          "internalType": "string",
          "name": "name",
          "type": "string"
        },
        {
          "internalType": "string",
          "name": "symbol",
          "type": "string"
        },
        {
          "internalType": "string",
          "name": "description",
          "type": "string"
        },
        {
          "internalType": "bool",
          "name": "verified",
          "type": "bool"
        },
        {
          "internalType": "uint256",
          "name": "outstanding",
          "type": "uint256"
        },
        {
          "internalType": "uint256",
          "name": "maxSupply",
          "type": "uint256"
        }
      ],
      "stateMutability": "view",
      "type": "function"
    },
    {
      "inputs": [],
      "name": "getCreatorTokenCount",
      "outputs": [
        {
          "internalType": "uint256",
          "name": "",
          "type": "uint256"
        }
      ],
      "stateMutability": "view",
      "type": "function"
    },
    {
      "inputs": [
        {
          "internalType": "uint256",
          "name": "_id",
          "type": "uint256"
        }
      ],
      "name": "getToken",
      "outputs": [
        {
          "components": [
            {
              "internalType": "address payable",
              "name": "creatorAddress",
              "type": "address"
            },
            {
              "internalType": "string",
              "name": "name",
              "type": "string"
            },
            {
              "internalType": "string",
              "name": "symbol",
              "type": "string"
            },
            {
              "internalType": "string",
              "name": "description",
              "type": "string"
            },
            {
              "internalType": "bool",
              "name": "verified",
              "type": "bool"
            },
            {
              "internalType": "uint256",
              "name": "outstanding",
              "type": "uint256"
            },
            {
              "internalType": "uint256",
              "name": "maxSupply",
              "type": "uint256"
            }
          ],
          "internalType": "struct CreatorTokenFactory.CreatorToken",
          "name": "",
          "type": "tuple"
        }
      ],
      "stateMutability": "view",
      "type": "function"
    },
    {
      "inputs": [
        {
          "internalType": "address",
          "name": "_account",
          "type": "address"
        },
        {
          "internalType": "address",
          "name": "_operator",
          "type": "address"
        }
      ],
      "name": "isApprovedForAll",
      "outputs": [
        {
          "internalType": "bool",
          "name": "",
          "type": "bool"
        }
      ],
      "stateMutability": "view",
      "type": "function"
    },
    {
      "inputs": [],
      "name": "owner",
      "outputs": [
        {
          "internalType": "address",
          "name": "",
          "type": "address"
        }
      ],
      "stateMutability": "view",
      "type": "function"
    },
    {
      "inputs": [
        {
          "internalType": "address payable",
          "name": "_owner",
          "type": "address"
        }
      ],
      "name": "payoutPlatformFees",
      "outputs": [],
      "stateMutability": "nonpayable",
      "type": "function"
    },
    {
      "inputs": [],
      "name": "platformFeesOwed",
      "outputs": [
        {
          "internalType": "uint256",
          "name": "",
          "type": "uint256"
        }
      ],
      "stateMutability": "view",
      "type": "function"
    },
    {
      "inputs": [],
      "name": "renounceOwnership",
      "outputs": [],
      "stateMutability": "nonpayable",
      "type": "function"
    },
    {
      "inputs": [
        {
          "internalType": "address",
          "name": "_from",
          "type": "address"
        },
        {
          "internalType": "address",
          "name": "_to",
          "type": "address"
        },
        {
          "internalType": "uint256[]",
          "name": "_ids",
          "type": "uint256[]"
        },
        {
          "internalType": "uint256[]",
          "name": "_amounts",
          "type": "uint256[]"
        },
        {
          "internalType": "bytes",
          "name": "_data",
          "type": "bytes"
        }
      ],
      "name": "safeBatchTransferFrom",
      "outputs": [],
      "stateMutability": "nonpayable",
      "type": "function"
    },
    {
      "inputs": [
        {
          "internalType": "address",
          "name": "_from",
          "type": "address"
        },
        {
          "internalType": "address",
          "name": "_to",
          "type": "address"
        },
        {
          "internalType": "uint256",
          "name": "_id",
          "type": "uint256"
        },
        {
          "internalType": "uint256",
          "name": "_amount",
          "type": "uint256"
        },
        {
          "internalType": "bytes",
          "name": "_data",
          "type": "bytes"
        }
      ],
      "name": "safeTransferFrom",
      "outputs": [],
      "stateMutability": "nonpayable",
      "type": "function"
    },
    {
      "inputs": [
        {
          "internalType": "address",
          "name": "_operator",
          "type": "address"
        },
        {
          "internalType": "bool",
          "name": "_approved",
          "type": "bool"
        }
      ],
      "name": "setApprovalForAll",
      "outputs": [],
      "stateMutability": "nonpayable",
      "type": "function"
    },
    {
      "inputs": [
        {
          "internalType": "bytes4",
          "name": "interfaceId",
          "type": "bytes4"
        }
      ],
      "name": "supportsInterface",
      "outputs": [
        {
          "internalType": "bool",
          "name": "",
          "type": "bool"
        }
      ],
      "stateMutability": "view",
      "type": "function"
    },
    {
      "inputs": [
        {
          "internalType": "uint256",
          "name": "",
          "type": "uint256"
        },
        {
          "internalType": "address",
          "name": "",
          "type": "address"
        }
      ],
      "name": "tokenHoldership",
      "outputs": [
        {
          "internalType": "uint256",
          "name": "",
          "type": "uint256"
        }
      ],
      "stateMutability": "view",
      "type": "function"
    },
    {
      "inputs": [
        {
          "internalType": "uint256",
          "name": "",
          "type": "uint256"
        }
      ],
      "name": "tokenToCreator",
      "outputs": [
        {
          "internalType": "address",
          "name": "",
          "type": "address"
        }
      ],
      "stateMutability": "view",
      "type": "function"
    },
    {
      "inputs": [
        {
          "internalType": "uint256",
          "name": "",
          "type": "uint256"
        }
      ],
      "name": "tokenValueTransferred",
      "outputs": [
        {
          "internalType": "uint256",
          "name": "",
          "type": "uint256"
        }
      ],
      "stateMutability": "view",
      "type": "function"
    },
    {
      "inputs": [],
      "name": "totalPlatformFees",
      "outputs": [
        {
          "internalType": "uint256",
          "name": "",
          "type": "uint256"
        }
      ],
      "stateMutability": "view",
      "type": "function"
    },
    {
      "inputs": [
        {
          "internalType": "uint256",
          "name": "",
          "type": "uint256"
        }
      ],
      "name": "totalValueLocked",
      "outputs": [
        {
          "internalType": "uint256",
          "name": "",
          "type": "uint256"
        }
      ],
      "stateMutability": "view",
      "type": "function"
    },
    {
      "inputs": [
        {
          "internalType": "address",
          "name": "newOwner",
          "type": "address"
        }
      ],
      "name": "transferOwnership",
      "outputs": [],
      "stateMutability": "nonpayable",
      "type": "function"
    },
    {
      "inputs": [
        {
          "internalType": "uint256",
          "name": "",
          "type": "uint256"
        }
      ],
      "name": "uri",
      "outputs": [
        {
          "internalType": "string",
          "name": "",
          "type": "string"
        }
      ],
      "stateMutability": "view",
      "type": "function"
    },
    {
      "inputs": [
        {
          "internalType": "address",
          "name": "",
          "type": "address"
        },
        {
          "internalType": "uint256",
          "name": "",
          "type": "uint256"
        }
      ],
      "name": "userToHoldings",
      "outputs": [
        {
          "internalType": "uint256",
          "name": "",
          "type": "uint256"
        }
      ],
      "stateMutability": "view",
      "type": "function"
    },
    {
      "inputs": [
        {
          "internalType": "address payable",
          "name": "_owner",
          "type": "address"
        }
      ],
      "name": "withdraw",
      "outputs": [],
      "stateMutability": "nonpayable",
      "type": "function"
    },
    {
      "inputs": [
        {
          "internalType": "uint256",
          "name": "_proceedsRequired",
          "type": "uint256"
        }
      ],
      "name": "_feeProceeds",
      "outputs": [
        {
          "internalType": "uint256",
          "name": "",
          "type": "uint256"
        }
      ],
      "stateMutability": "view",
      "type": "function"
    }
  ],
  "bytecode": "0x60806040526001805560006002556000600355601460045565082f79cd900060055560b96006553480156200003357600080fd5b5060405162003f5838038062003f58833981810160405281019062000059919062000279565b80808060006200006e6200012760201b60201c565b9050806000806101000a81548173ffffffffffffffffffffffffffffffffffffffff021916908373ffffffffffffffffffffffffffffffffffffffff1602179055508073ffffffffffffffffffffffffffffffffffffffff16600073ffffffffffffffffffffffffffffffffffffffff167f8be0079c531659141344cd1fd0a4f28419497f9722a3daafe3b4186f6b6457e060405160405180910390a3506200011d816200012f60201b60201c565b505050506200044e565b600033905090565b8060109080519060200190620001479291906200014b565b5050565b82805462000159906200035f565b90600052602060002090601f0160209004810192826200017d5760008555620001c9565b82601f106200019857805160ff1916838001178555620001c9565b82800160010185558215620001c9579182015b82811115620001c8578251825591602001919060010190620001ab565b5b509050620001d89190620001dc565b5090565b5b80821115620001f7576000816000905550600101620001dd565b5090565b6000620002126200020c84620002f3565b620002ca565b9050828152602081018484840111156200023157620002306200042e565b5b6200023e84828562000329565b509392505050565b600082601f8301126200025e576200025d62000429565b5b815162000270848260208601620001fb565b91505092915050565b60006020828403121562000292576200029162000438565b5b600082015167ffffffffffffffff811115620002b357620002b262000433565b5b620002c18482850162000246565b91505092915050565b6000620002d6620002e9565b9050620002e4828262000395565b919050565b6000604051905090565b600067ffffffffffffffff821115620003115762000310620003fa565b5b6200031c826200043d565b9050602081019050919050565b60005b83811015620003495780820151818401526020810190506200032c565b8381111562000359576000848401525b50505050565b600060028204905060018216806200037857607f821691505b602082108114156200038f576200038e620003cb565b5b50919050565b620003a0826200043d565b810181811067ffffffffffffffff82111715620003c257620003c1620003fa565b5b80604052505050565b7f4e487b7100000000000000000000000000000000000000000000000000000000600052602260045260246000fd5b7f4e487b7100000000000000000000000000000000000000000000000000000000600052604160045260246000fd5b600080fd5b600080fd5b600080fd5b600080fd5b6000601f19601f8301169050919050565b613afa806200045e6000396000f3fe608060405234801561001057600080fd5b50600436106102055760003560e01c8063bfb48c9c1161011a578063d9bd3a40116100ad578063e985e9c51161007c578063e985e9c51461064a578063eb8417591461067a578063f242432a14610696578063f2fde38b146106b2578063f7374e2e146106ce57610205565b8063d9bd3a401461059e578063de6a06ed146105ce578063df3c00b1146105ea578063e4b50cb81461061a57610205565b8063ce901d8a116100e9578063ce901d8a14610512578063d3631fa514610548578063d56b72c714610566578063d7a5791a1461058257610205565b8063bfb48c9c1461048c578063c1d33049146104bc578063c39cbef1146104da578063c539c317146104f657610205565b80632eb2c2d61161019d5780638da5cb5b1161016c5780638da5cb5b146103c257806392724afa146103e0578063a22cb46514610410578063a32ce11e1461042c578063ba111a051461045c57610205565b80632eb2c2d6146103505780634e1273f41461036c57806351cff8d91461039c578063715018a6146103b857610205565b806317bcaa08116101d957806317bcaa08146102b657806318892ae8146102e65780631d5ad18b146103165780632a2b237c1461033257610205565b8062fdd58e1461020a57806301ffc9a71461023a57806306e320f51461026a5780630e89341c14610286575b600080fd5b610224600480360381019061021f9190612c3e565b6106ea565b604051610231919061336a565b60405180910390f35b610254600480360381019061024f9190612cf6565b6107b4565b604051610261919061328b565b60405180910390f35b610284600480360381019061027f9190612e10565b610896565b005b6102a0600480360381019061029b9190612d23565b61093d565b6040516102ad91906132a6565b60405180910390f35b6102d060048036038101906102cb9190612d23565b6109d1565b6040516102dd919061336a565b60405180910390f35b61030060048036038101906102fb9190612d23565b6109e9565b60405161030d9190613193565b60405180910390f35b610330600480360381019061032b9190612d90565b610a1c565b005b61033a610af1565b604051610347919061336a565b60405180910390f35b61036a60048036038101906103659190612a98565b610afe565b005b61038660048036038101906103819190612c7e565b610c6a565b6040516103939190613232565b60405180910390f35b6103b660048036038101906103b19190612970565b610d83565b005b6103c0610e49565b005b6103ca610f83565b6040516103d79190613193565b60405180910390f35b6103fa60048036038101906103f59190612c3e565b610fac565b604051610407919061336a565b60405180910390f35b61042a60048036038101906104259190612bfe565b610fd1565b005b61044660048036038101906104419190612a58565b6110ce565b604051610453919061328b565b60405180910390f35b61047660048036038101906104719190612d23565b6110fd565b604051610483919061336a565b60405180910390f35b6104a660048036038101906104a19190612d50565b611120565b6040516104b3919061336a565b60405180910390f35b6104c4611145565b6040516104d1919061336a565b60405180910390f35b6104f460048036038101906104ef9190612e10565b61114b565b005b610510600480360381019061050b9190612d23565b6111f2565b005b61052c60048036038101906105279190612d23565b611278565b60405161053f97969594939291906131ae565b60405180910390f35b61055061148f565b60405161055d919061336a565b60405180910390f35b610580600480360381019061057b919061299d565b611495565b005b61059c60048036038101906105979190612d23565b6116b1565b005b6105b860048036038101906105b39190612d23565b611737565b6040516105c5919061336a565b60405180910390f35b6105e860048036038101906105e39190612e10565b61174f565b005b61060460048036038101906105ff9190612e70565b6117f6565b604051610611919061336a565b60405180910390f35b610634600480360381019061062f9190612d23565b61186f565b6040516106419190613348565b60405180910390f35b610664600480360381019061065f9190612a58565b611ae6565b604051610671919061328b565b60405180910390f35b610694600480360381019061068f9190612970565b611b7a565b005b6106b060048036038101906106ab9190612b67565b611c4a565b005b6106cc60048036038101906106c79190612943565b611d2e565b005b6106e860048036038101906106e39190612dd0565b611ed7565b005b60008073ffffffffffffffffffffffffffffffffffffffff168373ffffffffffffffffffffffffffffffffffffffff16141561075b576040517f08c379a0000000000000000000000000000000000000000000000000000000008152600401610752906132c8565b60405180910390fd5b600e600083815260200190815260200160002060008473ffffffffffffffffffffffffffffffffffffffff1673ffffffffffffffffffffffffffffffffffffffff16815260200190815260200160002054905092915050565b60007fd9b67a26000000000000000000000000000000000000000000000000000000007bffffffffffffffffffffffffffffffffffffffffffffffffffffffff1916827bffffffffffffffffffffffffffffffffffffffffffffffffffffffff1916148061087f57507f0e89341c000000000000000000000000000000000000000000000000000000007bffffffffffffffffffffffffffffffffffffffffffffffffffffffff1916827bffffffffffffffffffffffffffffffffffffffffffffffffffffffff1916145b8061088f575061088e82611f94565b5b9050919050565b826008600082815260200190815260200160002060009054906101000a900473ffffffffffffffffffffffffffffffffffffffff1673ffffffffffffffffffffffffffffffffffffffff163373ffffffffffffffffffffffffffffffffffffffff161461090257600080fd5b828260078681548110610918576109176138ae565b5b906000526020600020906007020160020191906109369291906124ea565b5050505050565b60606010805461094c90613775565b80601f016020809104026020016040519081016040528092919081815260200182805461097890613775565b80156109c55780601f1061099a576101008083540402835291602001916109c5565b820191906000526020600020905b8154815290600101906020018083116109a857829003601f168201915b50505050509050919050565b60096020528060005260406000206000915090505481565b60086020528060005260406000206000915054906101000a900473ffffffffffffffffffffffffffffffffffffffff1681565b816008600082815260200190815260200160002060009054906101000a900473ffffffffffffffffffffffffffffffffffffffff1673ffffffffffffffffffffffffffffffffffffffff163373ffffffffffffffffffffffffffffffffffffffff1614610a8857600080fd5b8160078481548110610a9d57610a9c6138ae565b5b906000526020600020906007020160000160006101000a81548173ffffffffffffffffffffffffffffffffffffffff021916908373ffffffffffffffffffffffffffffffffffffffff160217905550505050565b6000600780549050905090565b60005b8351811015610be4578573ffffffffffffffffffffffffffffffffffffffff163373ffffffffffffffffffffffffffffffffffffffff161480610b4a5750610b498686611ae6565b5b610b5357600080fd5b610b9286858381518110610b6a57610b696138ae565b5b6020026020010151858481518110610b8557610b846138ae565b5b6020026020010151611ffe565b610bd185858381518110610ba957610ba86138ae565b5b6020026020010151858481518110610bc457610bc36138ae565b5b60200260200101516120d1565b8080610bdc906137d8565b915050610b01565b508373ffffffffffffffffffffffffffffffffffffffff168573ffffffffffffffffffffffffffffffffffffffff163373ffffffffffffffffffffffffffffffffffffffff167f4a39dc06d4c0dbc64b70af90fd698a233a518aa5d07e595d983b8c0526c8f7fb8686604051610c5b929190613254565b60405180910390a45050505050565b60608151835114610cb0576040517f08c379a0000000000000000000000000000000000000000000000000000000008152600401610ca790613328565b60405180910390fd5b6000835167ffffffffffffffff811115610ccd57610ccc6138dd565b5b604051908082528060200260200182016040528015610cfb5781602001602082028036833780820191505090505b50905060005b8451811015610d7857610d48858281518110610d2057610d1f6138ae565b5b6020026020010151858381518110610d3b57610d3a6138ae565b5b60200260200101516106ea565b828281518110610d5b57610d5a6138ae565b5b60200260200101818152505080610d71906137d8565b9050610d01565b508091505092915050565b610d8b6121a4565b73ffffffffffffffffffffffffffffffffffffffff16610da9610f83565b73ffffffffffffffffffffffffffffffffffffffff1614610dff576040517f08c379a0000000000000000000000000000000000000000000000000000000008152600401610df690613308565b60405180910390fd5b8073ffffffffffffffffffffffffffffffffffffffff166108fc479081150290604051600060405180830381858888f19350505050158015610e45573d6000803e3d6000fd5b5050565b610e516121a4565b73ffffffffffffffffffffffffffffffffffffffff16610e6f610f83565b73ffffffffffffffffffffffffffffffffffffffff1614610ec5576040517f08c379a0000000000000000000000000000000000000000000000000000000008152600401610ebc90613308565b60405180910390fd5b600073ffffffffffffffffffffffffffffffffffffffff1660008054906101000a900473ffffffffffffffffffffffffffffffffffffffff1673ffffffffffffffffffffffffffffffffffffffff167f8be0079c531659141344cd1fd0a4f28419497f9722a3daafe3b4186f6b6457e060405160405180910390a360008060006101000a81548173ffffffffffffffffffffffffffffffffffffffff021916908373ffffffffffffffffffffffffffffffffffffffff160217905550565b60008060009054906101000a900473ffffffffffffffffffffffffffffffffffffffff16905090565b600b602052816000526040600020602052806000526040600020600091509150505481565b80600c60003373ffffffffffffffffffffffffffffffffffffffff1673ffffffffffffffffffffffffffffffffffffffff16815260200190815260200160002060008473ffffffffffffffffffffffffffffffffffffffff1673ffffffffffffffffffffffffffffffffffffffff16815260200190815260200160002060006101000a81548160ff0219169083151502179055508173ffffffffffffffffffffffffffffffffffffffff163373ffffffffffffffffffffffffffffffffffffffff167f17307eab39ab6107e8899845ad3d59bd9653f200f220920489ca2b5937696c31836040516110c2919061328b565b60405180910390a35050565b600c6020528160005260406000206020528060005260406000206000915091509054906101000a900460ff1681565b600060646001548361110f919061360d565b61111991906135dc565b9050919050565b600a602052816000526040600020602052806000526040600020600091509150505481565b60035481565b826008600082815260200190815260200160002060009054906101000a900473ffffffffffffffffffffffffffffffffffffffff1673ffffffffffffffffffffffffffffffffffffffff163373ffffffffffffffffffffffffffffffffffffffff16146111b757600080fd5b8282600786815481106111cd576111cc6138ae565b5b906000526020600020906007020160010191906111eb9291906124ea565b5050505050565b6111fa6121a4565b73ffffffffffffffffffffffffffffffffffffffff16611218610f83565b73ffffffffffffffffffffffffffffffffffffffff161461126e576040517f08c379a000000000000000000000000000000000000000000000000000000000815260040161126590613308565b60405180910390fd5b8060048190555050565b6007818154811061128857600080fd5b90600052602060002090600702016000915090508060000160009054906101000a900473ffffffffffffffffffffffffffffffffffffffff16908060010180546112d190613775565b80601f01602080910402602001604051908101604052809291908181526020018280546112fd90613775565b801561134a5780601f1061131f5761010080835404028352916020019161134a565b820191906000526020600020905b81548152906001019060200180831161132d57829003601f168201915b50505050509080600201805461135f90613775565b80601f016020809104026020016040519081016040528092919081815260200182805461138b90613775565b80156113d85780601f106113ad576101008083540402835291602001916113d8565b820191906000526020600020905b8154815290600101906020018083116113bb57829003601f168201915b5050505050908060030180546113ed90613775565b80601f016020809104026020016040519081016040528092919081815260200182805461141990613775565b80156114665780601f1061143b57610100808354040283529160200191611466565b820191906000526020600020905b81548152906001019060200180831161144957829003601f168201915b5050505050908060040160009054906101000a900460ff16908060050154908060060154905087565b60025481565b60076040518060e001604052808673ffffffffffffffffffffffffffffffffffffffff168152602001858152602001848152602001838152602001600015158152602001600081526020016000815250908060018154018082558091505060019003906000526020600020906007020160009091909190915060008201518160000160006101000a81548173ffffffffffffffffffffffffffffffffffffffff021916908373ffffffffffffffffffffffffffffffffffffffff1602179055506020820151816001019080519060200190611571929190612570565b50604082015181600201908051906020019061158e929190612570565b5060608201518160030190805190602001906115ab929190612570565b5060808201518160040160006101000a81548160ff02191690831515021790555060a0820151816005015560c082015181600601555050600060016007805490506115f69190613667565b9050846008600083815260200190815260200160002060006101000a81548173ffffffffffffffffffffffffffffffffffffffff021916908373ffffffffffffffffffffffffffffffffffffffff160217905550600060096000838152602001908152602001600020819055507f3ef624c0f3fb7ad40b94c02078ea3e3a797dbfc21e921ee4bd2b8ad0ca6aa113818686868660008060006040516116a2989796959493929190613385565b60405180910390a15050505050565b6116b96121a4565b73ffffffffffffffffffffffffffffffffffffffff166116d7610f83565b73ffffffffffffffffffffffffffffffffffffffff161461172d576040517f08c379a000000000000000000000000000000000000000000000000000000000815260040161172490613308565b60405180910390fd5b8060018190555050565b600d6020528060005260406000206000915090505481565b826008600082815260200190815260200160002060009054906101000a900473ffffffffffffffffffffffffffffffffffffffff1673ffffffffffffffffffffffffffffffffffffffff163373ffffffffffffffffffffffffffffffffffffffff16146117bb57600080fd5b8282600786815481106117d1576117d06138ae565b5b906000526020600020906007020160030191906117ef9291906124ea565b5050505050565b60008060008061180a8a8a8a8a8a8a6121ac565b9250925092506000838b101561182d5761182684848d85612227565b905061185e565b8382101561184b5761184484848d858d8d8d6122ca565b905061185d565b61185a84848d858d8d8d6123ec565b90505b5b809450505050509695505050505050565b6118776125f6565b6007828154811061188b5761188a6138ae565b5b90600052602060002090600702016040518060e00160405290816000820160009054906101000a900473ffffffffffffffffffffffffffffffffffffffff1673ffffffffffffffffffffffffffffffffffffffff1673ffffffffffffffffffffffffffffffffffffffff16815260200160018201805461190a90613775565b80601f016020809104026020016040519081016040528092919081815260200182805461193690613775565b80156119835780601f1061195857610100808354040283529160200191611983565b820191906000526020600020905b81548152906001019060200180831161196657829003601f168201915b5050505050815260200160028201805461199c90613775565b80601f01602080910402602001604051908101604052809291908181526020018280546119c890613775565b8015611a155780601f106119ea57610100808354040283529160200191611a15565b820191906000526020600020905b8154815290600101906020018083116119f857829003601f168201915b50505050508152602001600382018054611a2e90613775565b80601f0160208091040260200160405190810160405280929190818152602001828054611a5a90613775565b8015611aa75780601f10611a7c57610100808354040283529160200191611aa7565b820191906000526020600020905b815481529060010190602001808311611a8a57829003601f168201915b505050505081526020016004820160009054906101000a900460ff16151515158152602001600582015481526020016006820154815250509050919050565b6000600c60008473ffffffffffffffffffffffffffffffffffffffff1673ffffffffffffffffffffffffffffffffffffffff16815260200190815260200160002060008373ffffffffffffffffffffffffffffffffffffffff1673ffffffffffffffffffffffffffffffffffffffff16815260200190815260200160002060009054906101000a900460ff16905092915050565b611b826121a4565b73ffffffffffffffffffffffffffffffffffffffff16611ba0610f83565b73ffffffffffffffffffffffffffffffffffffffff1614611bf6576040517f08c379a0000000000000000000000000000000000000000000000000000000008152600401611bed90613308565b60405180910390fd5b8073ffffffffffffffffffffffffffffffffffffffff166108fc6003549081150290604051600060405180830381858888f19350505050158015611c3e573d6000803e3d6000fd5b50600060038190555050565b8473ffffffffffffffffffffffffffffffffffffffff163373ffffffffffffffffffffffffffffffffffffffff161480611c8a5750611c898585611ae6565b5b611c9357600080fd5b611c9e858484611ffe565b611ca98484846120d1565b8373ffffffffffffffffffffffffffffffffffffffff168573ffffffffffffffffffffffffffffffffffffffff163373ffffffffffffffffffffffffffffffffffffffff167fc3d58168c5ae7397731d063d5bbf3d657854427343f4c083240f7aacaa2d0f628686604051611d1f929190613418565b60405180910390a45050505050565b611d366121a4565b73ffffffffffffffffffffffffffffffffffffffff16611d54610f83565b73ffffffffffffffffffffffffffffffffffffffff1614611daa576040517f08c379a0000000000000000000000000000000000000000000000000000000008152600401611da190613308565b60405180910390fd5b600073ffffffffffffffffffffffffffffffffffffffff168173ffffffffffffffffffffffffffffffffffffffff161415611e1a576040517f08c379a0000000000000000000000000000000000000000000000000000000008152600401611e11906132e8565b60405180910390fd5b8073ffffffffffffffffffffffffffffffffffffffff1660008054906101000a900473ffffffffffffffffffffffffffffffffffffffff1673ffffffffffffffffffffffffffffffffffffffff167f8be0079c531659141344cd1fd0a4f28419497f9722a3daafe3b4186f6b6457e060405160405180910390a3806000806101000a81548173ffffffffffffffffffffffffffffffffffffffff021916908373ffffffffffffffffffffffffffffffffffffffff16021790555050565b611edf6121a4565b73ffffffffffffffffffffffffffffffffffffffff16611efd610f83565b73ffffffffffffffffffffffffffffffffffffffff1614611f53576040517f08c379a0000000000000000000000000000000000000000000000000000000008152600401611f4a90613308565b60405180910390fd5b8060078381548110611f6857611f676138ae565b5b906000526020600020906007020160040160006101000a81548160ff0219169083151502179055505050565b60007f01ffc9a7000000000000000000000000000000000000000000000000000000007bffffffffffffffffffffffffffffffffffffffffffffffffffffffff1916827bffffffffffffffffffffffffffffffffffffffffffffffffffffffff1916149050919050565b80600a600084815260200190815260200160002060008573ffffffffffffffffffffffffffffffffffffffff1673ffffffffffffffffffffffffffffffffffffffff168152602001908152602001600020600082825461205e9190613667565b9250508190555080600b60008573ffffffffffffffffffffffffffffffffffffffff1673ffffffffffffffffffffffffffffffffffffffff168152602001908152602001600020600084815260200190815260200160002060008282546120c59190613667565b92505081905550505050565b80600a600084815260200190815260200160002060008573ffffffffffffffffffffffffffffffffffffffff1673ffffffffffffffffffffffffffffffffffffffff16815260200190815260200160002060008282546121319190613586565b9250508190555080600b60008573ffffffffffffffffffffffffffffffffffffffff1673ffffffffffffffffffffffffffffffffffffffff168152602001908152602001600020600084815260200190815260200160002060008282546121989190613586565b92505081905550505050565b600033905090565b6000806000806002866121bf91906135dc565b90506000878960648860326121d49190613667565b8a6121df919061360d565b6121e991906135dc565b6121f3919061360d565b6121fd91906135dc565b905060008a8c61220d9190613667565b905082828295509550955050505096509650969350505050565b60008082866122369190613667565b868661224291906135dc565b61224c919061360d565b856122579190613667565b9050600084876122679190613667565b878761227391906135dc565b61227d919061360d565b866122889190613667565b9050600084866122989190613667565b905060028183856122a99190613586565b6122b3919061360d565b6122bd91906135dc565b9350505050949350505050565b60008085896122d99190613667565b89896122e591906135dc565b6122ef919061360d565b886122fa9190613667565b905060008890506000878b61230f9190613667565b9050600060028284866123229190613586565b61232c919061360d565b61233691906135dc565b905060008b8d8c6123479190613667565b8e896123539190613667565b8e8b8b8e612361919061360d565b61236b91906135dc565b6123759190613667565b61237f91906135dc565b612389919061360d565b6123939190613586565b905060008d8c6123a39190613667565b9050600060028284886123b69190613586565b6123c0919061360d565b6123ca91906135dc565b905080846123d89190613586565b975050505050505050979650505050505050565b6000808789876123fc9190613667565b8a856124089190613667565b8a87878a612416919061360d565b61242091906135dc565b61242a9190613667565b61243491906135dc565b61243e919061360d565b6124489190613586565b90506000888a896124599190613667565b8b866124659190613667565b8b88888b612473919061360d565b61247d91906135dc565b6124879190613667565b61249191906135dc565b61249b919061360d565b6124a59190613586565b9050600087896124b59190613667565b905060028183856124c69190613586565b6124d0919061360d565b6124da91906135dc565b9350505050979650505050505050565b8280546124f690613775565b90600052602060002090601f016020900481019282612518576000855561255f565b82601f1061253157803560ff191683800117855561255f565b8280016001018555821561255f579182015b8281111561255e578235825591602001919060010190612543565b5b50905061256c919061264b565b5090565b82805461257c90613775565b90600052602060002090601f01602090048101928261259e57600085556125e5565b82601f106125b757805160ff19168380011785556125e5565b828001600101855582156125e5579182015b828111156125e45782518255916020019190600101906125c9565b5b5090506125f2919061264b565b5090565b6040518060e00160405280600073ffffffffffffffffffffffffffffffffffffffff16815260200160608152602001606081526020016060815260200160001515815260200160008152602001600081525090565b5b8082111561266457600081600090555060010161264c565b5090565b600061267b61267684613466565b613441565b9050808382526020820190508285602086028201111561269e5761269d613916565b5b60005b858110156126ce57816126b488826127cc565b8452602084019350602083019250506001810190506126a1565b5050509392505050565b60006126eb6126e684613492565b613441565b9050808382526020820190508285602086028201111561270e5761270d613916565b5b60005b8581101561273e5781612724888261292e565b845260208401935060208301925050600181019050612711565b5050509392505050565b600061275b612756846134be565b613441565b9050828152602081018484840111156127775761277661391b565b5b612782848285613733565b509392505050565b600061279d612798846134ef565b613441565b9050828152602081018484840111156127b9576127b861391b565b5b6127c4848285613733565b509392505050565b6000813590506127db81613a51565b92915050565b6000813590506127f081613a68565b92915050565b600082601f83011261280b5761280a613911565b5b813561281b848260208601612668565b91505092915050565b600082601f83011261283957612838613911565b5b81356128498482602086016126d8565b91505092915050565b60008135905061286181613a7f565b92915050565b60008135905061287681613a96565b92915050565b600082601f83011261289157612890613911565b5b81356128a1848260208601612748565b91505092915050565b60008083601f8401126128c0576128bf613911565b5b8235905067ffffffffffffffff8111156128dd576128dc61390c565b5b6020830191508360018202830111156128f9576128f8613916565b5b9250929050565b600082601f83011261291557612914613911565b5b813561292584826020860161278a565b91505092915050565b60008135905061293d81613aad565b92915050565b60006020828403121561295957612958613925565b5b6000612967848285016127cc565b91505092915050565b60006020828403121561298657612985613925565b5b6000612994848285016127e1565b91505092915050565b600080600080608085870312156129b7576129b6613925565b5b60006129c5878288016127e1565b945050602085013567ffffffffffffffff8111156129e6576129e5613920565b5b6129f287828801612900565b935050604085013567ffffffffffffffff811115612a1357612a12613920565b5b612a1f87828801612900565b925050606085013567ffffffffffffffff811115612a4057612a3f613920565b5b612a4c87828801612900565b91505092959194509250565b60008060408385031215612a6f57612a6e613925565b5b6000612a7d858286016127cc565b9250506020612a8e858286016127cc565b9150509250929050565b600080600080600060a08688031215612ab457612ab3613925565b5b6000612ac2888289016127cc565b9550506020612ad3888289016127cc565b945050604086013567ffffffffffffffff811115612af457612af3613920565b5b612b0088828901612824565b935050606086013567ffffffffffffffff811115612b2157612b20613920565b5b612b2d88828901612824565b925050608086013567ffffffffffffffff811115612b4e57612b4d613920565b5b612b5a8882890161287c565b9150509295509295909350565b600080600080600060a08688031215612b8357612b82613925565b5b6000612b91888289016127cc565b9550506020612ba2888289016127cc565b9450506040612bb38882890161292e565b9350506060612bc48882890161292e565b925050608086013567ffffffffffffffff811115612be557612be4613920565b5b612bf18882890161287c565b9150509295509295909350565b60008060408385031215612c1557612c14613925565b5b6000612c23858286016127cc565b9250506020612c3485828601612852565b9150509250929050565b60008060408385031215612c5557612c54613925565b5b6000612c63858286016127cc565b9250506020612c748582860161292e565b9150509250929050565b60008060408385031215612c9557612c94613925565b5b600083013567ffffffffffffffff811115612cb357612cb2613920565b5b612cbf858286016127f6565b925050602083013567ffffffffffffffff811115612ce057612cdf613920565b5b612cec85828601612824565b9150509250929050565b600060208284031215612d0c57612d0b613925565b5b6000612d1a84828501612867565b91505092915050565b600060208284031215612d3957612d38613925565b5b6000612d478482850161292e565b91505092915050565b60008060408385031215612d6757612d66613925565b5b6000612d758582860161292e565b9250506020612d86858286016127cc565b9150509250929050565b60008060408385031215612da757612da6613925565b5b6000612db58582860161292e565b9250506020612dc6858286016127e1565b9150509250929050565b60008060408385031215612de757612de6613925565b5b6000612df58582860161292e565b9250506020612e0685828601612852565b9150509250929050565b600080600060408486031215612e2957612e28613925565b5b6000612e378682870161292e565b935050602084013567ffffffffffffffff811115612e5857612e57613920565b5b612e64868287016128aa565b92509250509250925092565b60008060008060008060c08789031215612e8d57612e8c613925565b5b6000612e9b89828a0161292e565b9650506020612eac89828a0161292e565b9550506040612ebd89828a0161292e565b9450506060612ece89828a0161292e565b9350506080612edf89828a0161292e565b92505060a0612ef089828a0161292e565b9150509295509295509295565b6000612f098383613175565b60208301905092915050565b612f1e816136ad565b82525050565b612f2d816136ad565b82525050565b612f3c8161369b565b82525050565b6000612f4d82613530565b612f578185613553565b9350612f6283613520565b8060005b83811015612f93578151612f7a8882612efd565b9750612f8583613546565b925050600181019050612f66565b5085935050505092915050565b612fa9816136bf565b82525050565b612fb8816136bf565b82525050565b612fc781613721565b82525050565b6000612fd88261353b565b612fe28185613564565b9350612ff2818560208601613742565b612ffb8161392a565b840191505092915050565b60006130118261353b565b61301b8185613575565b935061302b818560208601613742565b6130348161392a565b840191505092915050565b600061304c602b83613575565b91506130578261393b565b604082019050919050565b600061306f602683613575565b915061307a8261398a565b604082019050919050565b6000613092602083613575565b915061309d826139d9565b602082019050919050565b60006130b5602983613575565b91506130c082613a02565b604082019050919050565b600060e0830160008301516130e36000860182612f15565b50602083015184820360208601526130fb8282612fcd565b915050604083015184820360408601526131158282612fcd565b9150506060830151848203606086015261312f8282612fcd565b91505060808301516131446080860182612fa0565b5060a083015161315760a0860182613175565b5060c083015161316a60c0860182613175565b508091505092915050565b61317e81613717565b82525050565b61318d81613717565b82525050565b60006020820190506131a86000830184612f33565b92915050565b600060e0820190506131c3600083018a612f24565b81810360208301526131d58189613006565b905081810360408301526131e98188613006565b905081810360608301526131fd8187613006565b905061320c6080830186612faf565b61321960a0830185613184565b61322660c0830184613184565b98975050505050505050565b6000602082019050818103600083015261324c8184612f42565b905092915050565b6000604082019050818103600083015261326e8185612f42565b905081810360208301526132828184612f42565b90509392505050565b60006020820190506132a06000830184612faf565b92915050565b600060208201905081810360008301526132c08184613006565b905092915050565b600060208201905081810360008301526132e18161303f565b9050919050565b6000602082019050818103600083015261330181613062565b9050919050565b6000602082019050818103600083015261332181613085565b9050919050565b60006020820190508181036000830152613341816130a8565b9050919050565b6000602082019050818103600083015261336281846130cb565b905092915050565b600060208201905061337f6000830184613184565b92915050565b60006101008201905061339b600083018b613184565b6133a8602083018a612f24565b81810360408301526133ba8189613006565b905081810360608301526133ce8188613006565b905081810360808301526133e28187613006565b90506133f160a0830186612faf565b6133fe60c0830185612fbe565b61340b60e0830184612fbe565b9998505050505050505050565b600060408201905061342d6000830185613184565b61343a6020830184613184565b9392505050565b600061344b61345c565b905061345782826137a7565b919050565b6000604051905090565b600067ffffffffffffffff821115613481576134806138dd565b5b602082029050602081019050919050565b600067ffffffffffffffff8211156134ad576134ac6138dd565b5b602082029050602081019050919050565b600067ffffffffffffffff8211156134d9576134d86138dd565b5b6134e28261392a565b9050602081019050919050565b600067ffffffffffffffff82111561350a576135096138dd565b5b6135138261392a565b9050602081019050919050565b6000819050602082019050919050565b600081519050919050565b600081519050919050565b6000602082019050919050565b600082825260208201905092915050565b600082825260208201905092915050565b600082825260208201905092915050565b600061359182613717565b915061359c83613717565b9250827fffffffffffffffffffffffffffffffffffffffffffffffffffffffffffffffff038211156135d1576135d0613821565b5b828201905092915050565b60006135e782613717565b91506135f283613717565b92508261360257613601613850565b5b828204905092915050565b600061361882613717565b915061362383613717565b9250817fffffffffffffffffffffffffffffffffffffffffffffffffffffffffffffffff048311821515161561365c5761365b613821565b5b828202905092915050565b600061367282613717565b915061367d83613717565b9250828210156136905761368f613821565b5b828203905092915050565b60006136a6826136f7565b9050919050565b60006136b8826136f7565b9050919050565b60008115159050919050565b60007fffffffff0000000000000000000000000000000000000000000000000000000082169050919050565b600073ffffffffffffffffffffffffffffffffffffffff82169050919050565b6000819050919050565b600061372c82613717565b9050919050565b82818337600083830152505050565b60005b83811015613760578082015181840152602081019050613745565b8381111561376f576000848401525b50505050565b6000600282049050600182168061378d57607f821691505b602082108114156137a1576137a061387f565b5b50919050565b6137b08261392a565b810181811067ffffffffffffffff821117156137cf576137ce6138dd565b5b80604052505050565b60006137e382613717565b91507fffffffffffffffffffffffffffffffffffffffffffffffffffffffffffffffff82141561381657613815613821565b5b600182019050919050565b7f4e487b7100000000000000000000000000000000000000000000000000000000600052601160045260246000fd5b7f4e487b7100000000000000000000000000000000000000000000000000000000600052601260045260246000fd5b7f4e487b7100000000000000000000000000000000000000000000000000000000600052602260045260246000fd5b7f4e487b7100000000000000000000000000000000000000000000000000000000600052603260045260246000fd5b7f4e487b7100000000000000000000000000000000000000000000000000000000600052604160045260246000fd5b600080fd5b600080fd5b600080fd5b600080fd5b600080fd5b600080fd5b6000601f19601f8301169050919050565b7f455243313135353a2062616c616e636520717565727920666f7220746865207a60008201527f65726f2061646472657373000000000000000000000000000000000000000000602082015250565b7f4f776e61626c653a206e6577206f776e657220697320746865207a65726f206160008201527f6464726573730000000000000000000000000000000000000000000000000000602082015250565b7f4f776e61626c653a2063616c6c6572206973206e6f7420746865206f776e6572600082015250565b7f455243313135353a206163636f756e747320616e6420696473206c656e67746860008201527f206d69736d617463680000000000000000000000000000000000000000000000602082015250565b613a5a8161369b565b8114613a6557600080fd5b50565b613a71816136ad565b8114613a7c57600080fd5b50565b613a88816136bf565b8114613a9357600080fd5b50565b613a9f816136cb565b8114613aaa57600080fd5b50565b613ab681613717565b8114613ac157600080fd5b5056fea26469706673582212204036f9a2af1b8fc99d88742031413f59653dd788fa335bbb22c73650ad93a16264736f6c63430008060033",
  "immutableReferences": {},
  "source": "// SPDX-License-Identifier: MIT\npragma solidity ^0.8.0;\n\nimport \"./creatortokenformulas.sol\";\n\n/// @title Computation of fees owed to platform, and payout of creator\n/// @author Kamil Alizai Sadik\ncontract CreatorTokenFees is CreatorTokenFormulas {\n\n\tconstructor(string memory uri) CreatorTokenFormulas(uri) { }\n\n\t/// @dev Calculates the fee associated with a buy transaction\n\t/// @param _proceedsRequired The proceeds required for the buy transaction (before addition of fees)\n\t/// @return Fee associated with transaction\n\tfunction _feeProceeds(uint _proceedsRequired) public view returns (uint256) {\n\t\treturn _proceedsRequired*platformFee/100;\n\t}\n\n\t/// @dev Updates platform fee tracker mappings\n\t/// @param _fee Fee being added to the tracker\n\tfunction _platformFeeUpdater(uint _fee) internal {\n\t\ttotalPlatformFees += _fee;\n\t\tplatformFeesOwed += _fee;\n\t}\n\n\t/// @dev Transfers excess liquidity to the creator (triggered only when a CreatorToken hits a new maxSupply)\n\t/// @param _tokenId ID of the token in question\n\t/// @param _creatorAddress Wallet address of the creator of the token\n\tfunction _payCreator(uint _tokenId, address payable _creatorAddress) internal {\n\t\t// Create a variable showing excess liquidity that has already been transferred out of this token's liquidity pool\n\t\tuint alreadyTransferred = tokenValueTransferred[_tokenId];\n\t\t// Initialize totalProfit\n\t\tuint totalProfit = 0;\n\t\t// Calculate totalProfit (area between b(x) and s(x) from 0 to maxSupply)\n\t\ttotalProfit = _buyFunction(0, creatorTokens[_tokenId].maxSupply, mNumerator, mDenominator) - _saleFunction(creatorTokens[_tokenId].maxSupply, creatorTokens[_tokenId].maxSupply, mNumerator, mDenominator, creatorTokens[_tokenId].maxSupply, profitMargin);\n\t\t// Calculate creator's new profit created from new excess liquidity created\n\t\tuint newProfit = totalProfit - alreadyTransferred;\n\t\t// Transfer newProfit wei to creator\n\t\t_creatorAddress.transfer(newProfit);\n\t\t// Update amount of value transferred to creator\n\t\ttokenValueTransferred[_tokenId] = totalProfit;\n\t}\n}",
  "sourcePath": "/Users/kamilalizaisadik/DeFi/Dynamic Automated Market Maker/CreatorTokenExchange/contracts/creatortokenfees.sol",
  "compiler": {
    "name": "solc",
    "version": "0.8.6+commit.11564f7e.Emscripten.clang"
  },
  "schemaVersion": "3.4.1",
  "updatedAt": "2021-07-29T00:15:16.594Z",
  "devdoc": {
    "author": "Kamil Alizai Sadik",
    "kind": "dev",
    "methods": {
      "_feeProceeds(uint256)": {
        "details": "Calculates the fee associated with a buy transaction",
        "params": {
          "_proceedsRequired": "The proceeds required for the buy transaction (before addition of fees)"
        },
        "returns": {
          "_0": "Fee associated with transaction"
        }
      },
      "_saleFunction(uint256,uint256,uint256,uint256,uint256,uint256)": {
        "details": "Calculates area under sale price function",
        "params": {
          "_amount": "Amount of token being transacted",
          "_mDenominator": "Denominator of the slope of the buy price function",
          "_mNumerator": "Numerator of the slope of the buy price function",
          "_maxSupply": "Peak level of supply of the token to date",
          "_profitMargin": "percentage of total revenue generated routed to creator",
          "_startingSupply": "Supply of token in circulation before the transaction"
        },
        "returns": {
          "_0": "Area under sale price function denoting total proceeds received when selling _amount tokens (before fees)"
        }
      },
      "balanceOf(address,uint256)": {
        "details": "See {IERC1155-balanceOf}. Requirements: - `account` cannot be the zero address."
      },
      "balanceOfBatch(address[],uint256[])": {
        "details": "See {IERC1155-balanceOfBatch}. Requirements: - `accounts` and `ids` must have the same length."
      },
      "changeAddress(uint256,address)": {
        "details": "Allows token creator to change their address",
        "params": {
          "_newCreatorAddress": "New creator address associated with the token",
          "_tokenId": "ID of the token in question"
        }
      },
      "changeDescription(uint256,string)": {
        "details": "Allows token creator to change the description of their token",
        "params": {
          "_newDescription": "New description associated with the token",
          "_tokenId": "ID of the token in question"
        }
      },
      "changeName(uint256,string)": {
        "details": "Allows token creator to change the name of their token",
        "params": {
          "_newName": "New name associated with the token",
          "_tokenId": "ID of the token in question"
        }
      },
      "changePlatformFee(uint256)": {
        "details": "Allows owner to change platformFee",
        "params": {
          "_newPlatformFee": "New platform fee"
        }
      },
      "changeProfitMargin(uint256)": {
        "details": "Allows owner to change profit_margin",
        "params": {
          "_newProfitMargin": "New profit margin"
        }
      },
      "changeSymbol(uint256,string)": {
        "details": "Allows token creator to change the symbol of their token",
        "params": {
          "_newSymbol": "New symbol associated with the token",
          "_tokenId": "ID of the token in question"
        }
      },
      "changeVerification(uint256,bool)": {
        "details": "Allows owner to verify (or undo verification) of a CreatorToken",
        "params": {
          "_tokenId": "ID of the token in question",
          "_verified": "Verification status of the token in question"
        }
      },
      "createCreatorToken(address,string,string,string)": {
        "details": "Creates a new creator token",
        "params": {
          "_creatorAddress": "Address of the creator of the token",
          "_description": "chosen by the creator of the tokens",
          "_name": "Name chosen by the creator of the token",
          "_symbol": "Ticker symbol chosen by the creator of the token"
        }
      },
      "getCreatorTokenCount()": {
        "details": "Returns the current length of the creatorTokens array",
        "returns": {
          "_0": "uint representing number of unique Creator Tokens"
        }
      },
      "getToken(uint256)": {
        "details": "Returns token with a particular id",
        "params": {
          "_id": "Id of desired token"
        },
        "returns": {
          "_0": "CreatorToken"
        }
      },
      "isApprovedForAll(address,address)": {
        "details": "Denotes whether operator is approved to transfer account's tokens",
        "params": {
          "_account": "Wallet address holding tokens",
          "_operator": "Wallet address which is/isn't approved to transfer _account's tokens"
        },
        "returns": {
          "_0": "Boolean value indicating approval status"
        }
      },
      "owner()": {
        "details": "Returns the address of the current owner."
      },
      "payoutPlatformFees(address)": {
        "details": "Pays out platform fees owed to owner (might opt to call this daily)",
        "params": {
          "_owner": "Owner of the smart contract"
        }
      },
      "renounceOwnership()": {
        "details": "Leaves the contract without owner. It will not be possible to call `onlyOwner` functions anymore. Can only be called by the current owner. NOTE: Renouncing ownership will leave the contract without an owner, thereby removing any functionality that is only available to the owner."
      },
      "safeBatchTransferFrom(address,address,uint256[],uint256[],bytes)": {
        "details": "Transfers a batch of tokens",
        "params": {
          "_amounts": "Array of quantities of token to be transferred",
          "_data": "Data",
          "_from": "Address token is being transferred from",
          "_ids": "Array of IDs of tokens being transferred",
          "_to": "Address token is being transferred to"
        }
      },
      "safeTransferFrom(address,address,uint256,uint256,bytes)": {
        "details": "Transfers a token",
        "params": {
          "_amount": "Quantity of token to be transferred",
          "_data": "Data",
          "_from": "Address token is being transferred from",
          "_id": "ID of token being transferred",
          "_to": "Address token is being transferred to"
        }
      },
      "setApprovalForAll(address,bool)": {
        "details": "Gives operator permission to transfer caller's tokens",
        "params": {
          "_approved": "Boolean value indicating whether operator is approved",
          "_operator": "Wallet address being granted permission"
        }
      },
      "supportsInterface(bytes4)": {
        "details": "See {IERC165-supportsInterface}."
      },
      "transferOwnership(address)": {
        "details": "Transfers ownership of the contract to a new account (`newOwner`). Can only be called by the current owner."
      },
      "uri(uint256)": {
        "details": "See {IERC1155MetadataURI-uri}. This implementation returns the same URI for *all* token types. It relies on the token type ID substitution mechanism https://eips.ethereum.org/EIPS/eip-1155#metadata[defined in the EIP]. Clients calling this function must replace the `\\{id\\}` substring with the actual token type ID."
      },
      "withdraw(address)": {
        "details": "Ownable function allowing for withdrawal",
        "params": {
          "_owner": "Owner of the smart contract"
        }
      }
    },
    "title": "Computation of fees owed to platform, and payout of creator",
    "version": 1
  },
  "userdoc": {
    "kind": "user",
    "methods": {},
    "version": 1
  }
}