{
  "contractName": "CreatorTokenHelper",
  "abi": [
    {
      "anonymous": false,
      "inputs": [
        {
          "indexed": false,
          "internalType": "uint256",
          "name": "tokenId",
          "type": "uint256"
        },
        {
          "indexed": false,
          "internalType": "address payable",
          "name": "creatorAddress",
          "type": "address"
        },
        {
          "indexed": false,
          "internalType": "string",
          "name": "name",
          "type": "string"
        },
        {
          "indexed": false,
          "internalType": "string",
          "name": "symbol",
          "type": "string"
        },
        {
          "indexed": false,
          "internalType": "string",
          "name": "description",
          "type": "string"
        },
        {
          "indexed": false,
          "internalType": "bool",
          "name": "verified",
          "type": "bool"
        },
        {
          "indexed": false,
          "internalType": "uint256",
          "name": "outstanding",
          "type": "uint256"
        },
        {
          "indexed": false,
          "internalType": "uint256",
          "name": "maxSupply",
          "type": "uint256"
        }
      ],
      "name": "NewCreatorToken",
      "type": "event"
    },
    {
      "anonymous": false,
      "inputs": [
        {
          "indexed": true,
          "internalType": "address",
          "name": "previousOwner",
          "type": "address"
        },
        {
          "indexed": true,
          "internalType": "address",
          "name": "newOwner",
          "type": "address"
        }
      ],
      "name": "OwnershipTransferred",
      "type": "event"
    },
    {
      "inputs": [
        {
          "internalType": "address payable",
          "name": "_creatorAddress",
          "type": "address"
        },
        {
          "internalType": "string",
          "name": "_name",
          "type": "string"
        },
        {
          "internalType": "string",
          "name": "_symbol",
          "type": "string"
        },
        {
          "internalType": "string",
          "name": "_description",
          "type": "string"
        }
      ],
      "name": "createCreatorToken",
      "outputs": [],
      "stateMutability": "nonpayable",
      "type": "function"
    },
    {
      "inputs": [
        {
          "internalType": "uint256",
          "name": "",
          "type": "uint256"
        }
      ],
      "name": "creatorTokens",
      "outputs": [
        {
          "internalType": "address payable",
          "name": "creatorAddress",
          "type": "address"
        },
        {
          "internalType": "string",
          "name": "name",
          "type": "string"
        },
        {
          "internalType": "string",
          "name": "symbol",
          "type": "string"
        },
        {
          "internalType": "string",
          "name": "description",
          "type": "string"
        },
        {
          "internalType": "bool",
          "name": "verified",
          "type": "bool"
        },
        {
          "internalType": "uint256",
          "name": "outstanding",
          "type": "uint256"
        },
        {
          "internalType": "uint256",
          "name": "maxSupply",
          "type": "uint256"
        }
      ],
      "stateMutability": "view",
      "type": "function"
    },
    {
      "inputs": [],
      "name": "owner",
      "outputs": [
        {
          "internalType": "address",
          "name": "",
          "type": "address"
        }
      ],
      "stateMutability": "view",
      "type": "function"
    },
    {
      "inputs": [],
      "name": "renounceOwnership",
      "outputs": [],
      "stateMutability": "nonpayable",
      "type": "function"
    },
    {
      "inputs": [
        {
          "internalType": "uint256",
          "name": "",
          "type": "uint256"
        },
        {
          "internalType": "address",
          "name": "",
          "type": "address"
        }
      ],
      "name": "tokenHoldership",
      "outputs": [
        {
          "internalType": "uint256",
          "name": "",
          "type": "uint256"
        }
      ],
      "stateMutability": "view",
      "type": "function"
    },
    {
      "inputs": [
        {
          "internalType": "uint256",
          "name": "",
          "type": "uint256"
        }
      ],
      "name": "tokenToCreator",
      "outputs": [
        {
          "internalType": "address",
          "name": "",
          "type": "address"
        }
      ],
      "stateMutability": "view",
      "type": "function"
    },
    {
      "inputs": [
        {
          "internalType": "address",
          "name": "newOwner",
          "type": "address"
        }
      ],
      "name": "transferOwnership",
      "outputs": [],
      "stateMutability": "nonpayable",
      "type": "function"
    },
    {
      "inputs": [
        {
          "internalType": "address",
          "name": "",
          "type": "address"
        },
        {
          "internalType": "uint256",
          "name": "",
          "type": "uint256"
        }
      ],
      "name": "userToHoldings",
      "outputs": [
        {
          "internalType": "uint256",
          "name": "",
          "type": "uint256"
        }
      ],
      "stateMutability": "view",
      "type": "function"
    },
    {
      "inputs": [
        {
          "internalType": "address payable",
          "name": "_owner",
          "type": "address"
        }
      ],
      "name": "withdraw",
      "outputs": [],
      "stateMutability": "nonpayable",
      "type": "function"
    },
    {
      "inputs": [
        {
          "internalType": "address payable",
          "name": "_owner",
          "type": "address"
        }
      ],
      "name": "payoutPlatformFees",
      "outputs": [],
      "stateMutability": "nonpayable",
      "type": "function"
    },
    {
      "inputs": [
        {
          "internalType": "uint256",
          "name": "_newPlatformFee",
          "type": "uint256"
        }
      ],
      "name": "changePlatformFee",
      "outputs": [],
      "stateMutability": "nonpayable",
      "type": "function"
    },
    {
      "inputs": [
        {
          "internalType": "uint256",
          "name": "_newProfitMargin",
          "type": "uint256"
        }
      ],
      "name": "changeProfitMargin",
      "outputs": [],
      "stateMutability": "nonpayable",
      "type": "function"
    },
    {
      "inputs": [
        {
          "internalType": "uint256",
          "name": "_tokenId",
          "type": "uint256"
        },
        {
          "internalType": "bool",
          "name": "_verified",
          "type": "bool"
        }
      ],
      "name": "changeVerification",
      "outputs": [],
      "stateMutability": "nonpayable",
      "type": "function"
    },
    {
      "inputs": [
        {
          "internalType": "uint256",
          "name": "_tokenId",
          "type": "uint256"
        },
        {
          "internalType": "address payable",
          "name": "_newCreatorAddress",
          "type": "address"
        }
      ],
      "name": "changeAddress",
      "outputs": [],
      "stateMutability": "nonpayable",
      "type": "function"
    },
    {
      "inputs": [
        {
          "internalType": "uint256",
          "name": "_tokenId",
          "type": "uint256"
        },
        {
          "internalType": "string",
          "name": "_newName",
          "type": "string"
        }
      ],
      "name": "changeName",
      "outputs": [],
      "stateMutability": "nonpayable",
      "type": "function"
    },
    {
      "inputs": [
        {
          "internalType": "uint256",
          "name": "_tokenId",
          "type": "uint256"
        },
        {
          "internalType": "string",
          "name": "_newSymbol",
          "type": "string"
        }
      ],
      "name": "changeSymbol",
      "outputs": [],
      "stateMutability": "nonpayable",
      "type": "function"
    },
    {
      "inputs": [
        {
          "internalType": "uint256",
          "name": "_tokenId",
          "type": "uint256"
        },
        {
          "internalType": "string",
          "name": "_newDescription",
          "type": "string"
        }
      ],
      "name": "changeDescription",
      "outputs": [],
      "stateMutability": "nonpayable",
      "type": "function"
    }
  ],
  "bytecode": "0x6080604052600180556000600255600060035560146004556009600555620186a060065534801561002f57600080fd5b5060006100406100e360201b60201c565b9050806000806101000a81548173ffffffffffffffffffffffffffffffffffffffff021916908373ffffffffffffffffffffffffffffffffffffffff1602179055508073ffffffffffffffffffffffffffffffffffffffff16600073ffffffffffffffffffffffffffffffffffffffff167f8be0079c531659141344cd1fd0a4f28419497f9722a3daafe3b4186f6b6457e060405160405180910390a3506100eb565b600033905090565b611c07806100fa6000396000f3fe608060405234801561001057600080fd5b506004361061010b5760003560e01c8063c39cbef1116100a2578063d7a5791a11610071578063d7a5791a146102a6578063de6a06ed146102c2578063eb841759146102de578063f2fde38b146102fa578063f7374e2e146103165761010b565b8063c39cbef11461021c578063c539c31714610238578063ce901d8a14610254578063d56b72c71461028a5761010b565b8063715018a6116100de578063715018a6146101945780638da5cb5b1461019e57806392724afa146101bc578063bfb48c9c146101ec5761010b565b806306e320f51461011057806318892ae81461012c5780631d5ad18b1461015c57806351cff8d914610178575b600080fd5b61012a600480360381019061012591906115a4565b610332565b005b610146600480360381019061014191906114b7565b6103d9565b60405161015391906116ce565b60405180910390f35b61017660048036038101906101719190611524565b61040c565b005b610192600480360381019061018d919061138f565b6104e1565b005b61019c6105a7565b005b6101a66106e1565b6040516101b391906116ce565b60405180910390f35b6101d660048036038101906101d19190611477565b61070a565b6040516101e391906117ad565b60405180910390f35b610206600480360381019061020191906114e4565b61072f565b60405161021391906117ad565b60405180910390f35b610236600480360381019061023191906115a4565b610754565b005b610252600480360381019061024d91906114b7565b6107fb565b005b61026e600480360381019061026991906114b7565b610881565b60405161028197969594939291906116e9565b60405180910390f35b6102a4600480360381019061029f91906113bc565b610a98565b005b6102c060048036038101906102bb91906114b7565b610cb4565b005b6102dc60048036038101906102d791906115a4565b610d3a565b005b6102f860048036038101906102f3919061138f565b610de1565b005b610314600480360381019061030f9190611362565b610eb1565b005b610330600480360381019061032b9190611564565b61105a565b005b826008600082815260200190815260200160002060009054906101000a900473ffffffffffffffffffffffffffffffffffffffff1673ffffffffffffffffffffffffffffffffffffffff163373ffffffffffffffffffffffffffffffffffffffff161461039e57600080fd5b8282600786815481106103b4576103b3611a70565b5b906000526020600020906007020160020191906103d292919061111f565b5050505050565b60086020528060005260406000206000915054906101000a900473ffffffffffffffffffffffffffffffffffffffff1681565b816008600082815260200190815260200160002060009054906101000a900473ffffffffffffffffffffffffffffffffffffffff1673ffffffffffffffffffffffffffffffffffffffff163373ffffffffffffffffffffffffffffffffffffffff161461047857600080fd5b816007848154811061048d5761048c611a70565b5b906000526020600020906007020160000160006101000a81548173ffffffffffffffffffffffffffffffffffffffff021916908373ffffffffffffffffffffffffffffffffffffffff160217905550505050565b6104e9611117565b73ffffffffffffffffffffffffffffffffffffffff166105076106e1565b73ffffffffffffffffffffffffffffffffffffffff161461055d576040517f08c379a00000000000000000000000000000000000000000000000000000000081526004016105549061178d565b60405180910390fd5b8073ffffffffffffffffffffffffffffffffffffffff166108fc479081150290604051600060405180830381858888f193505050501580156105a3573d6000803e3d6000fd5b5050565b6105af611117565b73ffffffffffffffffffffffffffffffffffffffff166105cd6106e1565b73ffffffffffffffffffffffffffffffffffffffff1614610623576040517f08c379a000000000000000000000000000000000000000000000000000000000815260040161061a9061178d565b60405180910390fd5b600073ffffffffffffffffffffffffffffffffffffffff1660008054906101000a900473ffffffffffffffffffffffffffffffffffffffff1673ffffffffffffffffffffffffffffffffffffffff167f8be0079c531659141344cd1fd0a4f28419497f9722a3daafe3b4186f6b6457e060405160405180910390a360008060006101000a81548173ffffffffffffffffffffffffffffffffffffffff021916908373ffffffffffffffffffffffffffffffffffffffff160217905550565b60008060009054906101000a900473ffffffffffffffffffffffffffffffffffffffff16905090565b600b602052816000526040600020602052806000526040600020600091509150505481565b600a602052816000526040600020602052806000526040600020600091509150505481565b826008600082815260200190815260200160002060009054906101000a900473ffffffffffffffffffffffffffffffffffffffff1673ffffffffffffffffffffffffffffffffffffffff163373ffffffffffffffffffffffffffffffffffffffff16146107c057600080fd5b8282600786815481106107d6576107d5611a70565b5b906000526020600020906007020160010191906107f492919061111f565b5050505050565b610803611117565b73ffffffffffffffffffffffffffffffffffffffff166108216106e1565b73ffffffffffffffffffffffffffffffffffffffff1614610877576040517f08c379a000000000000000000000000000000000000000000000000000000000815260040161086e9061178d565b60405180910390fd5b8060048190555050565b6007818154811061089157600080fd5b90600052602060002090600702016000915090508060000160009054906101000a900473ffffffffffffffffffffffffffffffffffffffff16908060010180546108da906119af565b80601f0160208091040260200160405190810160405280929190818152602001828054610906906119af565b80156109535780601f1061092857610100808354040283529160200191610953565b820191906000526020600020905b81548152906001019060200180831161093657829003601f168201915b505050505090806002018054610968906119af565b80601f0160208091040260200160405190810160405280929190818152602001828054610994906119af565b80156109e15780601f106109b6576101008083540402835291602001916109e1565b820191906000526020600020905b8154815290600101906020018083116109c457829003601f168201915b5050505050908060030180546109f6906119af565b80601f0160208091040260200160405190810160405280929190818152602001828054610a22906119af565b8015610a6f5780601f10610a4457610100808354040283529160200191610a6f565b820191906000526020600020905b815481529060010190602001808311610a5257829003601f168201915b5050505050908060040160009054906101000a900460ff16908060050154908060060154905087565b60076040518060e001604052808673ffffffffffffffffffffffffffffffffffffffff168152602001858152602001848152602001838152602001600015158152602001600081526020016000815250908060018154018082558091505060019003906000526020600020906007020160009091909190915060008201518160000160006101000a81548173ffffffffffffffffffffffffffffffffffffffff021916908373ffffffffffffffffffffffffffffffffffffffff1602179055506020820151816001019080519060200190610b749291906111a5565b506040820151816002019080519060200190610b919291906111a5565b506060820151816003019080519060200190610bae9291906111a5565b5060808201518160040160006101000a81548160ff02191690831515021790555060a0820151816005015560c08201518160060155505060006001600780549050610bf991906118cd565b9050846008600083815260200190815260200160002060006101000a81548173ffffffffffffffffffffffffffffffffffffffff021916908373ffffffffffffffffffffffffffffffffffffffff160217905550600060096000838152602001908152602001600020819055507f3ef624c0f3fb7ad40b94c02078ea3e3a797dbfc21e921ee4bd2b8ad0ca6aa11381868686866000806000604051610ca59897969594939291906117c8565b60405180910390a15050505050565b610cbc611117565b73ffffffffffffffffffffffffffffffffffffffff16610cda6106e1565b73ffffffffffffffffffffffffffffffffffffffff1614610d30576040517f08c379a0000000000000000000000000000000000000000000000000000000008152600401610d279061178d565b60405180910390fd5b8060018190555050565b826008600082815260200190815260200160002060009054906101000a900473ffffffffffffffffffffffffffffffffffffffff1673ffffffffffffffffffffffffffffffffffffffff163373ffffffffffffffffffffffffffffffffffffffff1614610da657600080fd5b828260078681548110610dbc57610dbb611a70565b5b90600052602060002090600702016003019190610dda92919061111f565b5050505050565b610de9611117565b73ffffffffffffffffffffffffffffffffffffffff16610e076106e1565b73ffffffffffffffffffffffffffffffffffffffff1614610e5d576040517f08c379a0000000000000000000000000000000000000000000000000000000008152600401610e549061178d565b60405180910390fd5b8073ffffffffffffffffffffffffffffffffffffffff166108fc6003549081150290604051600060405180830381858888f19350505050158015610ea5573d6000803e3d6000fd5b50600060038190555050565b610eb9611117565b73ffffffffffffffffffffffffffffffffffffffff16610ed76106e1565b73ffffffffffffffffffffffffffffffffffffffff1614610f2d576040517f08c379a0000000000000000000000000000000000000000000000000000000008152600401610f249061178d565b60405180910390fd5b600073ffffffffffffffffffffffffffffffffffffffff168173ffffffffffffffffffffffffffffffffffffffff161415610f9d576040517f08c379a0000000000000000000000000000000000000000000000000000000008152600401610f949061176d565b60405180910390fd5b8073ffffffffffffffffffffffffffffffffffffffff1660008054906101000a900473ffffffffffffffffffffffffffffffffffffffff1673ffffffffffffffffffffffffffffffffffffffff167f8be0079c531659141344cd1fd0a4f28419497f9722a3daafe3b4186f6b6457e060405160405180910390a3806000806101000a81548173ffffffffffffffffffffffffffffffffffffffff021916908373ffffffffffffffffffffffffffffffffffffffff16021790555050565b611062611117565b73ffffffffffffffffffffffffffffffffffffffff166110806106e1565b73ffffffffffffffffffffffffffffffffffffffff16146110d6576040517f08c379a00000000000000000000000000000000000000000000000000000000081526004016110cd9061178d565b60405180910390fd5b80600783815481106110eb576110ea611a70565b5b906000526020600020906007020160040160006101000a81548160ff0219169083151502179055505050565b600033905090565b82805461112b906119af565b90600052602060002090601f01602090048101928261114d5760008555611194565b82601f1061116657803560ff1916838001178555611194565b82800160010185558215611194579182015b82811115611193578235825591602001919060010190611178565b5b5090506111a1919061122b565b5090565b8280546111b1906119af565b90600052602060002090601f0160209004810192826111d3576000855561121a565b82601f106111ec57805160ff191683800117855561121a565b8280016001018555821561121a579182015b828111156112195782518255916020019190600101906111fe565b5b509050611227919061122b565b5090565b5b8082111561124457600081600090555060010161122c565b5090565b600061125b61125684611880565b61185b565b90508281526020810184848401111561127757611276611add565b5b61128284828561196d565b509392505050565b60008135905061129981611b75565b92915050565b6000813590506112ae81611b8c565b92915050565b6000813590506112c381611ba3565b92915050565b60008083601f8401126112df576112de611ad3565b5b8235905067ffffffffffffffff8111156112fc576112fb611ace565b5b60208301915083600182028301111561131857611317611ad8565b5b9250929050565b600082601f83011261133457611333611ad3565b5b8135611344848260208601611248565b91505092915050565b60008135905061135c81611bba565b92915050565b60006020828403121561137857611377611ae7565b5b60006113868482850161128a565b91505092915050565b6000602082840312156113a5576113a4611ae7565b5b60006113b38482850161129f565b91505092915050565b600080600080608085870312156113d6576113d5611ae7565b5b60006113e48782880161129f565b945050602085013567ffffffffffffffff81111561140557611404611ae2565b5b6114118782880161131f565b935050604085013567ffffffffffffffff81111561143257611431611ae2565b5b61143e8782880161131f565b925050606085013567ffffffffffffffff81111561145f5761145e611ae2565b5b61146b8782880161131f565b91505092959194509250565b6000806040838503121561148e5761148d611ae7565b5b600061149c8582860161128a565b92505060206114ad8582860161134d565b9150509250929050565b6000602082840312156114cd576114cc611ae7565b5b60006114db8482850161134d565b91505092915050565b600080604083850312156114fb576114fa611ae7565b5b60006115098582860161134d565b925050602061151a8582860161128a565b9150509250929050565b6000806040838503121561153b5761153a611ae7565b5b60006115498582860161134d565b925050602061155a8582860161129f565b9150509250929050565b6000806040838503121561157b5761157a611ae7565b5b60006115898582860161134d565b925050602061159a858286016112b4565b9150509250929050565b6000806000604084860312156115bd576115bc611ae7565b5b60006115cb8682870161134d565b935050602084013567ffffffffffffffff8111156115ec576115eb611ae2565b5b6115f8868287016112c9565b92509250509250925092565b61160d81611913565b82525050565b61161c81611901565b82525050565b61162b81611925565b82525050565b61163a8161195b565b82525050565b600061164b826118b1565b61165581856118bc565b935061166581856020860161197c565b61166e81611aec565b840191505092915050565b60006116866026836118bc565b915061169182611afd565b604082019050919050565b60006116a96020836118bc565b91506116b482611b4c565b602082019050919050565b6116c881611951565b82525050565b60006020820190506116e36000830184611613565b92915050565b600060e0820190506116fe600083018a611604565b81810360208301526117108189611640565b905081810360408301526117248188611640565b905081810360608301526117388187611640565b90506117476080830186611622565b61175460a08301856116bf565b61176160c08301846116bf565b98975050505050505050565b6000602082019050818103600083015261178681611679565b9050919050565b600060208201905081810360008301526117a68161169c565b9050919050565b60006020820190506117c260008301846116bf565b92915050565b6000610100820190506117de600083018b6116bf565b6117eb602083018a611604565b81810360408301526117fd8189611640565b905081810360608301526118118188611640565b905081810360808301526118258187611640565b905061183460a0830186611622565b61184160c0830185611631565b61184e60e0830184611631565b9998505050505050505050565b6000611865611876565b905061187182826119e1565b919050565b6000604051905090565b600067ffffffffffffffff82111561189b5761189a611a9f565b5b6118a482611aec565b9050602081019050919050565b600081519050919050565b600082825260208201905092915050565b60006118d882611951565b91506118e383611951565b9250828210156118f6576118f5611a12565b5b828203905092915050565b600061190c82611931565b9050919050565b600061191e82611931565b9050919050565b60008115159050919050565b600073ffffffffffffffffffffffffffffffffffffffff82169050919050565b6000819050919050565b600061196682611951565b9050919050565b82818337600083830152505050565b60005b8381101561199a57808201518184015260208101905061197f565b838111156119a9576000848401525b50505050565b600060028204905060018216806119c757607f821691505b602082108114156119db576119da611a41565b5b50919050565b6119ea82611aec565b810181811067ffffffffffffffff82111715611a0957611a08611a9f565b5b80604052505050565b7f4e487b7100000000000000000000000000000000000000000000000000000000600052601160045260246000fd5b7f4e487b7100000000000000000000000000000000000000000000000000000000600052602260045260246000fd5b7f4e487b7100000000000000000000000000000000000000000000000000000000600052603260045260246000fd5b7f4e487b7100000000000000000000000000000000000000000000000000000000600052604160045260246000fd5b600080fd5b600080fd5b600080fd5b600080fd5b600080fd5b600080fd5b6000601f19601f8301169050919050565b7f4f776e61626c653a206e6577206f776e657220697320746865207a65726f206160008201527f6464726573730000000000000000000000000000000000000000000000000000602082015250565b7f4f776e61626c653a2063616c6c6572206973206e6f7420746865206f776e6572600082015250565b611b7e81611901565b8114611b8957600080fd5b50565b611b9581611913565b8114611ba057600080fd5b50565b611bac81611925565b8114611bb757600080fd5b50565b611bc381611951565b8114611bce57600080fd5b5056fea2646970667358221220a4324c83e633c4ceab4c34b38094a234ffb2d07ab70641b3b5ba1efdc515453e64736f6c63430008060033",
  "immutableReferences": {},
  "source": "// SPDX-License-Identifier: MIT\npragma solidity ^0.8.0;\n\nimport \"./creatortokenfactory.sol\";\n\ncontract CreatorTokenHelper is CreatorTokenFactory {\n\n\t// Modifier checking whether user is creator of the token\n\tmodifier onlyCreatorOf(uint _tokenId) {\n\t\trequire(msg.sender == tokenToCreator[_tokenId]);\n\t\t_;\n\t}\n\n\t// Ownable function allowing for withdrawal\n\tfunction withdraw(address payable _owner) external onlyOwner {\n\t  _owner.transfer(address(this).balance);\n\t}\n\n\t// Payout platform fees owed to owner (might opt to call this daily)\n\tfunction payoutPlatformFees(address payable _owner) external onlyOwner {\n\t\t_owner.transfer(platformFeesOwed);\n\t\t// Reset platformFeesOwed to zero after payout\n\t\tplatformFeesOwed = 0;\n\t}\n\n\t// Allow owner to change platformFee\n\tfunction changePlatformFee(uint _newPlatformFee) external onlyOwner {\n\t\tplatformFee = _newPlatformFee;\n\t}\n\n\t// Allow owner to change profit_margin\n\tfunction changeProfitMargin(uint _newProfitMargin) external onlyOwner {\n\t\tprofitMargin = _newProfitMargin;\n\t}\n\n\t// Allow owner to verify (or undo verification) of a CreatorToken\n\tfunction changeVerification(uint _tokenId, bool _verified) external onlyOwner {\n\t\tcreatorTokens[_tokenId].verified = _verified;\n\t}\n\n\t// Allow token creator to change their address\n\tfunction changeAddress(uint _tokenId, address payable _newCreatorAddress) external onlyCreatorOf(_tokenId) {\n\t\tcreatorTokens[_tokenId].creatorAddress = _newCreatorAddress;\n\t}\n\n\t// Allow token creator to change the name of their token\n\tfunction changeName(uint _tokenId, string calldata _newName) external onlyCreatorOf(_tokenId) {\n\t\tcreatorTokens[_tokenId].name = _newName;\n\t}\n\n\t// Allow token creator to change the symbol of their token\n\tfunction changeSymbol(uint _tokenId, string calldata _newSymbol) external onlyCreatorOf(_tokenId) {\n\t\tcreatorTokens[_tokenId].symbol = _newSymbol;\n\t}\n\n\t// Allow token creator to change the description of their token\n\tfunction changeDescription(uint _tokenId, string calldata _newDescription) external onlyCreatorOf(_tokenId) {\n\t\tcreatorTokens[_tokenId].description = _newDescription;\n\t}\n}",
  "sourcePath": "/Users/kamilalizaisadik/DeFi/Dynamic Automated Market Maker/damm_solidity/contracts/creatortokenhelper.sol",
  "compiler": {
    "name": "solc",
    "version": "0.8.6+commit.11564f7e.Emscripten.clang"
  },
  "schemaVersion": "3.4.1",
  "updatedAt": "2021-06-26T13:52:36.961Z",
  "devdoc": {
    "kind": "dev",
    "methods": {
      "owner()": {
        "details": "Returns the address of the current owner."
      },
      "renounceOwnership()": {
        "details": "Leaves the contract without owner. It will not be possible to call `onlyOwner` functions anymore. Can only be called by the current owner. NOTE: Renouncing ownership will leave the contract without an owner, thereby removing any functionality that is only available to the owner."
      },
      "transferOwnership(address)": {
        "details": "Transfers ownership of the contract to a new account (`newOwner`). Can only be called by the current owner."
      }
    },
    "version": 1
  },
  "userdoc": {
    "kind": "user",
    "methods": {},
    "version": 1
  }
}