{
  "contractName": "CreatorTokenHelper",
  "abi": [
    {
      "anonymous": false,
      "inputs": [
        {
          "indexed": false,
          "internalType": "uint256",
          "name": "tokenId",
          "type": "uint256"
        },
        {
          "indexed": false,
          "internalType": "address payable",
          "name": "creatorAddress",
          "type": "address"
        },
        {
          "indexed": false,
          "internalType": "string",
          "name": "name",
          "type": "string"
        },
        {
          "indexed": false,
          "internalType": "string",
          "name": "symbol",
          "type": "string"
        },
        {
          "indexed": false,
          "internalType": "string",
          "name": "description",
          "type": "string"
        },
        {
          "indexed": false,
          "internalType": "bool",
          "name": "verified",
          "type": "bool"
        },
        {
          "indexed": false,
          "internalType": "uint256",
          "name": "outstanding",
          "type": "uint256"
        },
        {
          "indexed": false,
          "internalType": "uint256",
          "name": "maxSupply",
          "type": "uint256"
        }
      ],
      "name": "NewCreatorToken",
      "type": "event"
    },
    {
      "anonymous": false,
      "inputs": [
        {
          "indexed": true,
          "internalType": "address",
          "name": "previousOwner",
          "type": "address"
        },
        {
          "indexed": true,
          "internalType": "address",
          "name": "newOwner",
          "type": "address"
        }
      ],
      "name": "OwnershipTransferred",
      "type": "event"
    },
    {
      "inputs": [
        {
          "internalType": "address",
          "name": "",
          "type": "address"
        },
        {
          "internalType": "address",
          "name": "",
          "type": "address"
        }
      ],
      "name": "approvals",
      "outputs": [
        {
          "internalType": "bool",
          "name": "",
          "type": "bool"
        }
      ],
      "stateMutability": "view",
      "type": "function"
    },
    {
      "inputs": [
        {
          "internalType": "address payable",
          "name": "_creatorAddress",
          "type": "address"
        },
        {
          "internalType": "string",
          "name": "_name",
          "type": "string"
        },
        {
          "internalType": "string",
          "name": "_symbol",
          "type": "string"
        },
        {
          "internalType": "string",
          "name": "_description",
          "type": "string"
        }
      ],
      "name": "createCreatorToken",
      "outputs": [],
      "stateMutability": "nonpayable",
      "type": "function"
    },
    {
      "inputs": [
        {
          "internalType": "uint256",
          "name": "",
          "type": "uint256"
        }
      ],
      "name": "creatorTokens",
      "outputs": [
        {
          "internalType": "address payable",
          "name": "creatorAddress",
          "type": "address"
        },
        {
          "internalType": "string",
          "name": "name",
          "type": "string"
        },
        {
          "internalType": "string",
          "name": "symbol",
          "type": "string"
        },
        {
          "internalType": "string",
          "name": "description",
          "type": "string"
        },
        {
          "internalType": "bool",
          "name": "verified",
          "type": "bool"
        },
        {
          "internalType": "uint256",
          "name": "outstanding",
          "type": "uint256"
        },
        {
          "internalType": "uint256",
          "name": "maxSupply",
          "type": "uint256"
        }
      ],
      "stateMutability": "view",
      "type": "function"
    },
    {
      "inputs": [],
      "name": "getCreatorTokenCount",
      "outputs": [
        {
          "internalType": "uint256",
          "name": "",
          "type": "uint256"
        }
      ],
      "stateMutability": "view",
      "type": "function"
    },
    {
      "inputs": [
        {
          "internalType": "uint256",
          "name": "_id",
          "type": "uint256"
        }
      ],
      "name": "getToken",
      "outputs": [
        {
          "components": [
            {
              "internalType": "address payable",
              "name": "creatorAddress",
              "type": "address"
            },
            {
              "internalType": "string",
              "name": "name",
              "type": "string"
            },
            {
              "internalType": "string",
              "name": "symbol",
              "type": "string"
            },
            {
              "internalType": "string",
              "name": "description",
              "type": "string"
            },
            {
              "internalType": "bool",
              "name": "verified",
              "type": "bool"
            },
            {
              "internalType": "uint256",
              "name": "outstanding",
              "type": "uint256"
            },
            {
              "internalType": "uint256",
              "name": "maxSupply",
              "type": "uint256"
            }
          ],
          "internalType": "struct CreatorTokenFactory.CreatorToken",
          "name": "",
          "type": "tuple"
        }
      ],
      "stateMutability": "view",
      "type": "function"
    },
    {
      "inputs": [],
      "name": "owner",
      "outputs": [
        {
          "internalType": "address",
          "name": "",
          "type": "address"
        }
      ],
      "stateMutability": "view",
      "type": "function"
    },
    {
      "inputs": [],
      "name": "platformFeesOwed",
      "outputs": [
        {
          "internalType": "uint256",
          "name": "",
          "type": "uint256"
        }
      ],
      "stateMutability": "view",
      "type": "function"
    },
    {
      "inputs": [],
      "name": "renounceOwnership",
      "outputs": [],
      "stateMutability": "nonpayable",
      "type": "function"
    },
    {
      "inputs": [
        {
          "internalType": "uint256",
          "name": "",
          "type": "uint256"
        },
        {
          "internalType": "address",
          "name": "",
          "type": "address"
        }
      ],
      "name": "tokenHoldership",
      "outputs": [
        {
          "internalType": "uint256",
          "name": "",
          "type": "uint256"
        }
      ],
      "stateMutability": "view",
      "type": "function"
    },
    {
      "inputs": [
        {
          "internalType": "uint256",
          "name": "",
          "type": "uint256"
        }
      ],
      "name": "tokenToCreator",
      "outputs": [
        {
          "internalType": "address",
          "name": "",
          "type": "address"
        }
      ],
      "stateMutability": "view",
      "type": "function"
    },
    {
      "inputs": [
        {
          "internalType": "uint256",
          "name": "",
          "type": "uint256"
        }
      ],
      "name": "tokenValueTransferred",
      "outputs": [
        {
          "internalType": "uint256",
          "name": "",
          "type": "uint256"
        }
      ],
      "stateMutability": "view",
      "type": "function"
    },
    {
      "inputs": [],
      "name": "totalPlatformFees",
      "outputs": [
        {
          "internalType": "uint256",
          "name": "",
          "type": "uint256"
        }
      ],
      "stateMutability": "view",
      "type": "function"
    },
    {
      "inputs": [
        {
          "internalType": "uint256",
          "name": "",
          "type": "uint256"
        }
      ],
      "name": "totalValueLocked",
      "outputs": [
        {
          "internalType": "uint256",
          "name": "",
          "type": "uint256"
        }
      ],
      "stateMutability": "view",
      "type": "function"
    },
    {
      "inputs": [
        {
          "internalType": "address",
          "name": "newOwner",
          "type": "address"
        }
      ],
      "name": "transferOwnership",
      "outputs": [],
      "stateMutability": "nonpayable",
      "type": "function"
    },
    {
      "inputs": [
        {
          "internalType": "address",
          "name": "",
          "type": "address"
        },
        {
          "internalType": "uint256",
          "name": "",
          "type": "uint256"
        }
      ],
      "name": "userToHoldings",
      "outputs": [
        {
          "internalType": "uint256",
          "name": "",
          "type": "uint256"
        }
      ],
      "stateMutability": "view",
      "type": "function"
    },
    {
      "inputs": [
        {
          "internalType": "address payable",
          "name": "_owner",
          "type": "address"
        }
      ],
      "name": "withdraw",
      "outputs": [],
      "stateMutability": "nonpayable",
      "type": "function"
    },
    {
      "inputs": [
        {
          "internalType": "address payable",
          "name": "_owner",
          "type": "address"
        }
      ],
      "name": "payoutPlatformFees",
      "outputs": [],
      "stateMutability": "nonpayable",
      "type": "function"
    },
    {
      "inputs": [
        {
          "internalType": "uint256",
          "name": "_newPlatformFee",
          "type": "uint256"
        }
      ],
      "name": "changePlatformFee",
      "outputs": [],
      "stateMutability": "nonpayable",
      "type": "function"
    },
    {
      "inputs": [
        {
          "internalType": "uint256",
          "name": "_newProfitMargin",
          "type": "uint256"
        }
      ],
      "name": "changeProfitMargin",
      "outputs": [],
      "stateMutability": "nonpayable",
      "type": "function"
    },
    {
      "inputs": [
        {
          "internalType": "uint256",
          "name": "_tokenId",
          "type": "uint256"
        },
        {
          "internalType": "bool",
          "name": "_verified",
          "type": "bool"
        }
      ],
      "name": "changeVerification",
      "outputs": [],
      "stateMutability": "nonpayable",
      "type": "function"
    },
    {
      "inputs": [
        {
          "internalType": "uint256",
          "name": "_tokenId",
          "type": "uint256"
        },
        {
          "internalType": "address payable",
          "name": "_newCreatorAddress",
          "type": "address"
        }
      ],
      "name": "changeAddress",
      "outputs": [],
      "stateMutability": "nonpayable",
      "type": "function"
    },
    {
      "inputs": [
        {
          "internalType": "uint256",
          "name": "_tokenId",
          "type": "uint256"
        },
        {
          "internalType": "string",
          "name": "_newName",
          "type": "string"
        }
      ],
      "name": "changeName",
      "outputs": [],
      "stateMutability": "nonpayable",
      "type": "function"
    },
    {
      "inputs": [
        {
          "internalType": "uint256",
          "name": "_tokenId",
          "type": "uint256"
        },
        {
          "internalType": "string",
          "name": "_newSymbol",
          "type": "string"
        }
      ],
      "name": "changeSymbol",
      "outputs": [],
      "stateMutability": "nonpayable",
      "type": "function"
    },
    {
      "inputs": [
        {
          "internalType": "uint256",
          "name": "_tokenId",
          "type": "uint256"
        },
        {
          "internalType": "string",
          "name": "_newDescription",
          "type": "string"
        }
      ],
      "name": "changeDescription",
      "outputs": [],
      "stateMutability": "nonpayable",
      "type": "function"
    }
  ],
  "bytecode": "0x60806040526001805560006002556000600355601460045565082f79cd900060055560b960065534801561003257600080fd5b5060006100436100e660201b60201c565b9050806000806101000a81548173ffffffffffffffffffffffffffffffffffffffff021916908373ffffffffffffffffffffffffffffffffffffffff1602179055508073ffffffffffffffffffffffffffffffffffffffff16600073ffffffffffffffffffffffffffffffffffffffff167f8be0079c531659141344cd1fd0a4f28419497f9722a3daafe3b4186f6b6457e060405160405180910390a3506100ee565b600033905090565b612250806100fd6000396000f3fe608060405234801561001057600080fd5b50600436106101585760003560e01c8063c39cbef1116100c3578063d9bd3a401161007c578063d9bd3a40146103c9578063de6a06ed146103f9578063e4b50cb814610415578063eb84175914610445578063f2fde38b14610461578063f7374e2e1461047d57610158565b8063c39cbef114610305578063c539c31714610321578063ce901d8a1461033d578063d3631fa514610373578063d56b72c714610391578063d7a5791a146103ad57610158565b8063715018a611610115578063715018a61461022f5780638da5cb5b1461023957806392724afa14610257578063a32ce11e14610287578063bfb48c9c146102b7578063c1d33049146102e757610158565b806306e320f51461015d57806317bcaa081461017957806318892ae8146101a95780631d5ad18b146101d95780632a2b237c146101f557806351cff8d914610213575b600080fd5b61017760048036038101906101729190611a8f565b610499565b005b610193600480360381019061018e91906119a2565b610540565b6040516101a09190611de5565b60405180910390f35b6101c360048036038101906101be91906119a2565b610558565b6040516101d09190611cc9565b60405180910390f35b6101f360048036038101906101ee9190611a0f565b61058b565b005b6101fd610660565b60405161020a9190611de5565b60405180910390f35b61022d6004803603810190610228919061183a565b61066d565b005b610237610733565b005b61024161086d565b60405161024e9190611cc9565b60405180910390f35b610271600480360381019061026c9190611962565b610896565b60405161027e9190611de5565b60405180910390f35b6102a1600480360381019061029c9190611922565b6108bb565b6040516102ae9190611d68565b60405180910390f35b6102d160048036038101906102cc91906119cf565b6108ea565b6040516102de9190611de5565b60405180910390f35b6102ef61090f565b6040516102fc9190611de5565b60405180910390f35b61031f600480360381019061031a9190611a8f565b610915565b005b61033b600480360381019061033691906119a2565b6109bc565b005b610357600480360381019061035291906119a2565b610a42565b60405161036a9796959493929190611ce4565b60405180910390f35b61037b610c59565b6040516103889190611de5565b60405180910390f35b6103ab60048036038101906103a69190611867565b610c5f565b005b6103c760048036038101906103c291906119a2565b610e7b565b005b6103e360048036038101906103de91906119a2565b610f01565b6040516103f09190611de5565b60405180910390f35b610413600480360381019061040e9190611a8f565b610f19565b005b61042f600480360381019061042a91906119a2565b610fc0565b60405161043c9190611dc3565b60405180910390f35b61045f600480360381019061045a919061183a565b611237565b005b61047b6004803603810190610476919061180d565b611307565b005b61049760048036038101906104929190611a4f565b6114b0565b005b826008600082815260200190815260200160002060009054906101000a900473ffffffffffffffffffffffffffffffffffffffff1673ffffffffffffffffffffffffffffffffffffffff163373ffffffffffffffffffffffffffffffffffffffff161461050557600080fd5b82826007868154811061051b5761051a6120b9565b5b90600052602060002090600702016002019190610539929190611575565b5050505050565b60096020528060005260406000206000915090505481565b60086020528060005260406000206000915054906101000a900473ffffffffffffffffffffffffffffffffffffffff1681565b816008600082815260200190815260200160002060009054906101000a900473ffffffffffffffffffffffffffffffffffffffff1673ffffffffffffffffffffffffffffffffffffffff163373ffffffffffffffffffffffffffffffffffffffff16146105f757600080fd5b816007848154811061060c5761060b6120b9565b5b906000526020600020906007020160000160006101000a81548173ffffffffffffffffffffffffffffffffffffffff021916908373ffffffffffffffffffffffffffffffffffffffff160217905550505050565b6000600780549050905090565b61067561156d565b73ffffffffffffffffffffffffffffffffffffffff1661069361086d565b73ffffffffffffffffffffffffffffffffffffffff16146106e9576040517f08c379a00000000000000000000000000000000000000000000000000000000081526004016106e090611da3565b60405180910390fd5b8073ffffffffffffffffffffffffffffffffffffffff166108fc479081150290604051600060405180830381858888f1935050505015801561072f573d6000803e3d6000fd5b5050565b61073b61156d565b73ffffffffffffffffffffffffffffffffffffffff1661075961086d565b73ffffffffffffffffffffffffffffffffffffffff16146107af576040517f08c379a00000000000000000000000000000000000000000000000000000000081526004016107a690611da3565b60405180910390fd5b600073ffffffffffffffffffffffffffffffffffffffff1660008054906101000a900473ffffffffffffffffffffffffffffffffffffffff1673ffffffffffffffffffffffffffffffffffffffff167f8be0079c531659141344cd1fd0a4f28419497f9722a3daafe3b4186f6b6457e060405160405180910390a360008060006101000a81548173ffffffffffffffffffffffffffffffffffffffff021916908373ffffffffffffffffffffffffffffffffffffffff160217905550565b60008060009054906101000a900473ffffffffffffffffffffffffffffffffffffffff16905090565b600b602052816000526040600020602052806000526040600020600091509150505481565b600c6020528160005260406000206020528060005260406000206000915091509054906101000a900460ff1681565b600a602052816000526040600020602052806000526040600020600091509150505481565b60035481565b826008600082815260200190815260200160002060009054906101000a900473ffffffffffffffffffffffffffffffffffffffff1673ffffffffffffffffffffffffffffffffffffffff163373ffffffffffffffffffffffffffffffffffffffff161461098157600080fd5b828260078681548110610997576109966120b9565b5b906000526020600020906007020160010191906109b5929190611575565b5050505050565b6109c461156d565b73ffffffffffffffffffffffffffffffffffffffff166109e261086d565b73ffffffffffffffffffffffffffffffffffffffff1614610a38576040517f08c379a0000000000000000000000000000000000000000000000000000000008152600401610a2f90611da3565b60405180910390fd5b8060048190555050565b60078181548110610a5257600080fd5b90600052602060002090600702016000915090508060000160009054906101000a900473ffffffffffffffffffffffffffffffffffffffff1690806001018054610a9b90611ff8565b80601f0160208091040260200160405190810160405280929190818152602001828054610ac790611ff8565b8015610b145780601f10610ae957610100808354040283529160200191610b14565b820191906000526020600020905b815481529060010190602001808311610af757829003601f168201915b505050505090806002018054610b2990611ff8565b80601f0160208091040260200160405190810160405280929190818152602001828054610b5590611ff8565b8015610ba25780601f10610b7757610100808354040283529160200191610ba2565b820191906000526020600020905b815481529060010190602001808311610b8557829003601f168201915b505050505090806003018054610bb790611ff8565b80601f0160208091040260200160405190810160405280929190818152602001828054610be390611ff8565b8015610c305780601f10610c0557610100808354040283529160200191610c30565b820191906000526020600020905b815481529060010190602001808311610c1357829003601f168201915b5050505050908060040160009054906101000a900460ff16908060050154908060060154905087565b60025481565b60076040518060e001604052808673ffffffffffffffffffffffffffffffffffffffff168152602001858152602001848152602001838152602001600015158152602001600081526020016000815250908060018154018082558091505060019003906000526020600020906007020160009091909190915060008201518160000160006101000a81548173ffffffffffffffffffffffffffffffffffffffff021916908373ffffffffffffffffffffffffffffffffffffffff1602179055506020820151816001019080519060200190610d3b9291906115fb565b506040820151816002019080519060200190610d589291906115fb565b506060820151816003019080519060200190610d759291906115fb565b5060808201518160040160006101000a81548160ff02191690831515021790555060a0820151816005015560c08201518160060155505060006001600780549050610dc09190611f16565b9050846008600083815260200190815260200160002060006101000a81548173ffffffffffffffffffffffffffffffffffffffff021916908373ffffffffffffffffffffffffffffffffffffffff160217905550600060096000838152602001908152602001600020819055507f3ef624c0f3fb7ad40b94c02078ea3e3a797dbfc21e921ee4bd2b8ad0ca6aa11381868686866000806000604051610e6c989796959493929190611e00565b60405180910390a15050505050565b610e8361156d565b73ffffffffffffffffffffffffffffffffffffffff16610ea161086d565b73ffffffffffffffffffffffffffffffffffffffff1614610ef7576040517f08c379a0000000000000000000000000000000000000000000000000000000008152600401610eee90611da3565b60405180910390fd5b8060018190555050565b600d6020528060005260406000206000915090505481565b826008600082815260200190815260200160002060009054906101000a900473ffffffffffffffffffffffffffffffffffffffff1673ffffffffffffffffffffffffffffffffffffffff163373ffffffffffffffffffffffffffffffffffffffff1614610f8557600080fd5b828260078681548110610f9b57610f9a6120b9565b5b90600052602060002090600702016003019190610fb9929190611575565b5050505050565b610fc8611681565b60078281548110610fdc57610fdb6120b9565b5b90600052602060002090600702016040518060e00160405290816000820160009054906101000a900473ffffffffffffffffffffffffffffffffffffffff1673ffffffffffffffffffffffffffffffffffffffff1673ffffffffffffffffffffffffffffffffffffffff16815260200160018201805461105b90611ff8565b80601f016020809104026020016040519081016040528092919081815260200182805461108790611ff8565b80156110d45780601f106110a9576101008083540402835291602001916110d4565b820191906000526020600020905b8154815290600101906020018083116110b757829003601f168201915b505050505081526020016002820180546110ed90611ff8565b80601f016020809104026020016040519081016040528092919081815260200182805461111990611ff8565b80156111665780601f1061113b57610100808354040283529160200191611166565b820191906000526020600020905b81548152906001019060200180831161114957829003601f168201915b5050505050815260200160038201805461117f90611ff8565b80601f01602080910402602001604051908101604052809291908181526020018280546111ab90611ff8565b80156111f85780601f106111cd576101008083540402835291602001916111f8565b820191906000526020600020905b8154815290600101906020018083116111db57829003601f168201915b505050505081526020016004820160009054906101000a900460ff16151515158152602001600582015481526020016006820154815250509050919050565b61123f61156d565b73ffffffffffffffffffffffffffffffffffffffff1661125d61086d565b73ffffffffffffffffffffffffffffffffffffffff16146112b3576040517f08c379a00000000000000000000000000000000000000000000000000000000081526004016112aa90611da3565b60405180910390fd5b8073ffffffffffffffffffffffffffffffffffffffff166108fc6003549081150290604051600060405180830381858888f193505050501580156112fb573d6000803e3d6000fd5b50600060038190555050565b61130f61156d565b73ffffffffffffffffffffffffffffffffffffffff1661132d61086d565b73ffffffffffffffffffffffffffffffffffffffff1614611383576040517f08c379a000000000000000000000000000000000000000000000000000000000815260040161137a90611da3565b60405180910390fd5b600073ffffffffffffffffffffffffffffffffffffffff168173ffffffffffffffffffffffffffffffffffffffff1614156113f3576040517f08c379a00000000000000000000000000000000000000000000000000000000081526004016113ea90611d83565b60405180910390fd5b8073ffffffffffffffffffffffffffffffffffffffff1660008054906101000a900473ffffffffffffffffffffffffffffffffffffffff1673ffffffffffffffffffffffffffffffffffffffff167f8be0079c531659141344cd1fd0a4f28419497f9722a3daafe3b4186f6b6457e060405160405180910390a3806000806101000a81548173ffffffffffffffffffffffffffffffffffffffff021916908373ffffffffffffffffffffffffffffffffffffffff16021790555050565b6114b861156d565b73ffffffffffffffffffffffffffffffffffffffff166114d661086d565b73ffffffffffffffffffffffffffffffffffffffff161461152c576040517f08c379a000000000000000000000000000000000000000000000000000000000815260040161152390611da3565b60405180910390fd5b8060078381548110611541576115406120b9565b5b906000526020600020906007020160040160006101000a81548160ff0219169083151502179055505050565b600033905090565b82805461158190611ff8565b90600052602060002090601f0160209004810192826115a357600085556115ea565b82601f106115bc57803560ff19168380011785556115ea565b828001600101855582156115ea579182015b828111156115e95782358255916020019190600101906115ce565b5b5090506115f791906116d6565b5090565b82805461160790611ff8565b90600052602060002090601f0160209004810192826116295760008555611670565b82601f1061164257805160ff1916838001178555611670565b82800160010185558215611670579182015b8281111561166f578251825591602001919060010190611654565b5b50905061167d91906116d6565b5090565b6040518060e00160405280600073ffffffffffffffffffffffffffffffffffffffff16815260200160608152602001606081526020016060815260200160001515815260200160008152602001600081525090565b5b808211156116ef5760008160009055506001016116d7565b5090565b600061170661170184611eb8565b611e93565b90508281526020810184848401111561172257611721612126565b5b61172d848285611fb6565b509392505050565b600081359050611744816121be565b92915050565b600081359050611759816121d5565b92915050565b60008135905061176e816121ec565b92915050565b60008083601f84011261178a5761178961211c565b5b8235905067ffffffffffffffff8111156117a7576117a6612117565b5b6020830191508360018202830111156117c3576117c2612121565b5b9250929050565b600082601f8301126117df576117de61211c565b5b81356117ef8482602086016116f3565b91505092915050565b60008135905061180781612203565b92915050565b60006020828403121561182357611822612130565b5b600061183184828501611735565b91505092915050565b6000602082840312156118505761184f612130565b5b600061185e8482850161174a565b91505092915050565b6000806000806080858703121561188157611880612130565b5b600061188f8782880161174a565b945050602085013567ffffffffffffffff8111156118b0576118af61212b565b5b6118bc878288016117ca565b935050604085013567ffffffffffffffff8111156118dd576118dc61212b565b5b6118e9878288016117ca565b925050606085013567ffffffffffffffff81111561190a5761190961212b565b5b611916878288016117ca565b91505092959194509250565b6000806040838503121561193957611938612130565b5b600061194785828601611735565b925050602061195885828601611735565b9150509250929050565b6000806040838503121561197957611978612130565b5b600061198785828601611735565b9250506020611998858286016117f8565b9150509250929050565b6000602082840312156119b8576119b7612130565b5b60006119c6848285016117f8565b91505092915050565b600080604083850312156119e6576119e5612130565b5b60006119f4858286016117f8565b9250506020611a0585828601611735565b9150509250929050565b60008060408385031215611a2657611a25612130565b5b6000611a34858286016117f8565b9250506020611a458582860161174a565b9150509250929050565b60008060408385031215611a6657611a65612130565b5b6000611a74858286016117f8565b9250506020611a858582860161175f565b9150509250929050565b600080600060408486031215611aa857611aa7612130565b5b6000611ab6868287016117f8565b935050602084013567ffffffffffffffff811115611ad757611ad661212b565b5b611ae386828701611774565b92509250509250925092565b611af881611f5c565b82525050565b611b0781611f5c565b82525050565b611b1681611f4a565b82525050565b611b2581611f6e565b82525050565b611b3481611f6e565b82525050565b611b4381611fa4565b82525050565b6000611b5482611ee9565b611b5e8185611ef4565b9350611b6e818560208601611fc5565b611b7781612135565b840191505092915050565b6000611b8d82611ee9565b611b978185611f05565b9350611ba7818560208601611fc5565b611bb081612135565b840191505092915050565b6000611bc8602683611f05565b9150611bd382612146565b604082019050919050565b6000611beb602083611f05565b9150611bf682612195565b602082019050919050565b600060e083016000830151611c196000860182611aef565b5060208301518482036020860152611c318282611b49565b91505060408301518482036040860152611c4b8282611b49565b91505060608301518482036060860152611c658282611b49565b9150506080830151611c7a6080860182611b1c565b5060a0830151611c8d60a0860182611cab565b5060c0830151611ca060c0860182611cab565b508091505092915050565b611cb481611f9a565b82525050565b611cc381611f9a565b82525050565b6000602082019050611cde6000830184611b0d565b92915050565b600060e082019050611cf9600083018a611afe565b8181036020830152611d0b8189611b82565b90508181036040830152611d1f8188611b82565b90508181036060830152611d338187611b82565b9050611d426080830186611b2b565b611d4f60a0830185611cba565b611d5c60c0830184611cba565b98975050505050505050565b6000602082019050611d7d6000830184611b2b565b92915050565b60006020820190508181036000830152611d9c81611bbb565b9050919050565b60006020820190508181036000830152611dbc81611bde565b9050919050565b60006020820190508181036000830152611ddd8184611c01565b905092915050565b6000602082019050611dfa6000830184611cba565b92915050565b600061010082019050611e16600083018b611cba565b611e23602083018a611afe565b8181036040830152611e358189611b82565b90508181036060830152611e498188611b82565b90508181036080830152611e5d8187611b82565b9050611e6c60a0830186611b2b565b611e7960c0830185611b3a565b611e8660e0830184611b3a565b9998505050505050505050565b6000611e9d611eae565b9050611ea9828261202a565b919050565b6000604051905090565b600067ffffffffffffffff821115611ed357611ed26120e8565b5b611edc82612135565b9050602081019050919050565b600081519050919050565b600082825260208201905092915050565b600082825260208201905092915050565b6000611f2182611f9a565b9150611f2c83611f9a565b925082821015611f3f57611f3e61205b565b5b828203905092915050565b6000611f5582611f7a565b9050919050565b6000611f6782611f7a565b9050919050565b60008115159050919050565b600073ffffffffffffffffffffffffffffffffffffffff82169050919050565b6000819050919050565b6000611faf82611f9a565b9050919050565b82818337600083830152505050565b60005b83811015611fe3578082015181840152602081019050611fc8565b83811115611ff2576000848401525b50505050565b6000600282049050600182168061201057607f821691505b602082108114156120245761202361208a565b5b50919050565b61203382612135565b810181811067ffffffffffffffff82111715612052576120516120e8565b5b80604052505050565b7f4e487b7100000000000000000000000000000000000000000000000000000000600052601160045260246000fd5b7f4e487b7100000000000000000000000000000000000000000000000000000000600052602260045260246000fd5b7f4e487b7100000000000000000000000000000000000000000000000000000000600052603260045260246000fd5b7f4e487b7100000000000000000000000000000000000000000000000000000000600052604160045260246000fd5b600080fd5b600080fd5b600080fd5b600080fd5b600080fd5b600080fd5b6000601f19601f8301169050919050565b7f4f776e61626c653a206e6577206f776e657220697320746865207a65726f206160008201527f6464726573730000000000000000000000000000000000000000000000000000602082015250565b7f4f776e61626c653a2063616c6c6572206973206e6f7420746865206f776e6572600082015250565b6121c781611f4a565b81146121d257600080fd5b50565b6121de81611f5c565b81146121e957600080fd5b50565b6121f581611f6e565b811461220057600080fd5b50565b61220c81611f9a565b811461221757600080fd5b5056fea2646970667358221220c7a72a61f73800bcbde304751d446d6c35da2977ade8b06ebbe61c69f2f1503464736f6c63430008060033",
  "immutableReferences": {},
  "source": "// SPDX-License-Identifier: MIT\npragma solidity ^0.8.0;\n\nimport \"./creatortokenfactory.sol\";\n\n/// @title A contract with helper functions enabling Owner- and creator-specific functions\n/// @author Kamil Alizai Sadik\ncontract CreatorTokenHelper is CreatorTokenFactory {\n\n\t/// @dev Modifier checking whether user is creator of the token\n\t/// @param _tokenId ID of the token in question\n\tmodifier onlyCreatorOf(uint _tokenId) {\n\t\trequire(msg.sender == tokenToCreator[_tokenId]);\n\t\t_;\n\t}\n\n\t/// @dev Ownable function allowing for withdrawal\n\t/// @param _owner Owner of the smart contract\n\tfunction withdraw(address payable _owner) external onlyOwner {\n\t\t_owner.transfer(address(this).balance);\n\t}\n\n\t/// @dev Pays out platform fees owed to owner (might opt to call this daily)\n\t/// @param _owner Owner of the smart contract\n\tfunction payoutPlatformFees(address payable _owner) external onlyOwner {\n\t\t_owner.transfer(platformFeesOwed);\n\t\t// Reset platformFeesOwed to zero after payout\n\t\tplatformFeesOwed = 0;\n\t}\n\n\t/// @dev Allows owner to change platformFee\n\t/// @param _newPlatformFee New platform fee\n\tfunction changePlatformFee(uint _newPlatformFee) external onlyOwner {\n\t\tplatformFee = _newPlatformFee;\n\t}\n\n\t/// @dev Allows owner to change profit_margin\n\t/// @param _newProfitMargin New profit margin\n\tfunction changeProfitMargin(uint _newProfitMargin) external onlyOwner {\n\t\tprofitMargin = _newProfitMargin;\n\t}\n\n\t/// @dev Allows owner to verify (or undo verification) of a CreatorToken\n\t/// @param _tokenId ID of the token in question\n\t/// @param _verified Verification status of the token in question\n\tfunction changeVerification(uint _tokenId, bool _verified) external onlyOwner {\n\t\tcreatorTokens[_tokenId].verified = _verified;\n\t}\n\n\t/// @dev Allows token creator to change their address\n\t/// @param _tokenId ID of the token in question\n\t/// @param _newCreatorAddress New creator address associated with the token\n\tfunction changeAddress(uint _tokenId, address payable _newCreatorAddress) external onlyCreatorOf(_tokenId) {\n\t\tcreatorTokens[_tokenId].creatorAddress = _newCreatorAddress;\n\t}\n\n\t/// @dev Allows token creator to change the name of their token\n\t/// @param _tokenId ID of the token in question\n\t/// @param _newName New name associated with the token\n\tfunction changeName(uint _tokenId, string calldata _newName) external onlyCreatorOf(_tokenId) {\n\t\tcreatorTokens[_tokenId].name = _newName;\n\t}\n\n\t/// @dev Allows token creator to change the symbol of their token\n\t/// @param _tokenId ID of the token in question\n\t/// @param _newSymbol New symbol associated with the token\n\tfunction changeSymbol(uint _tokenId, string calldata _newSymbol) external onlyCreatorOf(_tokenId) {\n\t\tcreatorTokens[_tokenId].symbol = _newSymbol;\n\t}\n\n\t/// @dev Allows token creator to change the description of their token\n\t/// @param _tokenId ID of the token in question\n\t/// @param _newDescription New description associated with the token\n\tfunction changeDescription(uint _tokenId, string calldata _newDescription) external onlyCreatorOf(_tokenId) {\n\t\tcreatorTokens[_tokenId].description = _newDescription;\n\t}\n}",
  "sourcePath": "/Users/kamilalizaisadik/DeFi/Dynamic Automated Market Maker/CreatorTokenExchange/contracts/creatortokenhelper.sol",
  "compiler": {
    "name": "solc",
    "version": "0.8.6+commit.11564f7e.Emscripten.clang"
  },
  "schemaVersion": "3.4.1",
  "updatedAt": "2021-07-29T00:15:16.635Z",
  "devdoc": {
    "author": "Kamil Alizai Sadik",
    "kind": "dev",
    "methods": {
      "changeAddress(uint256,address)": {
        "details": "Allows token creator to change their address",
        "params": {
          "_newCreatorAddress": "New creator address associated with the token",
          "_tokenId": "ID of the token in question"
        }
      },
      "changeDescription(uint256,string)": {
        "details": "Allows token creator to change the description of their token",
        "params": {
          "_newDescription": "New description associated with the token",
          "_tokenId": "ID of the token in question"
        }
      },
      "changeName(uint256,string)": {
        "details": "Allows token creator to change the name of their token",
        "params": {
          "_newName": "New name associated with the token",
          "_tokenId": "ID of the token in question"
        }
      },
      "changePlatformFee(uint256)": {
        "details": "Allows owner to change platformFee",
        "params": {
          "_newPlatformFee": "New platform fee"
        }
      },
      "changeProfitMargin(uint256)": {
        "details": "Allows owner to change profit_margin",
        "params": {
          "_newProfitMargin": "New profit margin"
        }
      },
      "changeSymbol(uint256,string)": {
        "details": "Allows token creator to change the symbol of their token",
        "params": {
          "_newSymbol": "New symbol associated with the token",
          "_tokenId": "ID of the token in question"
        }
      },
      "changeVerification(uint256,bool)": {
        "details": "Allows owner to verify (or undo verification) of a CreatorToken",
        "params": {
          "_tokenId": "ID of the token in question",
          "_verified": "Verification status of the token in question"
        }
      },
      "createCreatorToken(address,string,string,string)": {
        "details": "Creates a new creator token",
        "params": {
          "_creatorAddress": "Address of the creator of the token",
          "_description": "chosen by the creator of the tokens",
          "_name": "Name chosen by the creator of the token",
          "_symbol": "Ticker symbol chosen by the creator of the token"
        }
      },
      "getCreatorTokenCount()": {
        "details": "Returns the current length of the creatorTokens array",
        "returns": {
          "_0": "uint representing number of unique Creator Tokens"
        }
      },
      "getToken(uint256)": {
        "details": "Returns token with a particular id",
        "params": {
          "_id": "Id of desired token"
        },
        "returns": {
          "_0": "CreatorToken"
        }
      },
      "owner()": {
        "details": "Returns the address of the current owner."
      },
      "payoutPlatformFees(address)": {
        "details": "Pays out platform fees owed to owner (might opt to call this daily)",
        "params": {
          "_owner": "Owner of the smart contract"
        }
      },
      "renounceOwnership()": {
        "details": "Leaves the contract without owner. It will not be possible to call `onlyOwner` functions anymore. Can only be called by the current owner. NOTE: Renouncing ownership will leave the contract without an owner, thereby removing any functionality that is only available to the owner."
      },
      "transferOwnership(address)": {
        "details": "Transfers ownership of the contract to a new account (`newOwner`). Can only be called by the current owner."
      },
      "withdraw(address)": {
        "details": "Ownable function allowing for withdrawal",
        "params": {
          "_owner": "Owner of the smart contract"
        }
      }
    },
    "title": "A contract with helper functions enabling Owner- and creator-specific functions",
    "version": 1
  },
  "userdoc": {
    "kind": "user",
    "methods": {},
    "version": 1
  }
}