{
  "contractName": "CreatorTokenHelper",
  "abi": [
    {
      "anonymous": false,
      "inputs": [
        {
          "indexed": false,
          "internalType": "uint256",
          "name": "tokenId",
          "type": "uint256"
        },
        {
          "indexed": false,
          "internalType": "string",
          "name": "name",
          "type": "string"
        },
        {
          "indexed": false,
          "internalType": "string",
          "name": "symbol",
          "type": "string"
        }
      ],
      "name": "NewCreatorToken",
      "type": "event"
    },
    {
      "anonymous": false,
      "inputs": [
        {
          "indexed": true,
          "internalType": "address",
          "name": "previousOwner",
          "type": "address"
        },
        {
          "indexed": true,
          "internalType": "address",
          "name": "newOwner",
          "type": "address"
        }
      ],
      "name": "OwnershipTransferred",
      "type": "event"
    },
    {
      "inputs": [
        {
          "internalType": "address payable",
          "name": "_creatorAddress",
          "type": "address"
        },
        {
          "internalType": "string",
          "name": "_name",
          "type": "string"
        },
        {
          "internalType": "string",
          "name": "_symbol",
          "type": "string"
        },
        {
          "internalType": "string",
          "name": "_description",
          "type": "string"
        }
      ],
      "name": "createCreatorToken",
      "outputs": [],
      "stateMutability": "nonpayable",
      "type": "function"
    },
    {
      "inputs": [
        {
          "internalType": "uint256",
          "name": "",
          "type": "uint256"
        }
      ],
      "name": "creatorTokens",
      "outputs": [
        {
          "internalType": "address payable",
          "name": "creatorAddress",
          "type": "address"
        },
        {
          "internalType": "string",
          "name": "name",
          "type": "string"
        },
        {
          "internalType": "string",
          "name": "symbol",
          "type": "string"
        },
        {
          "internalType": "string",
          "name": "description",
          "type": "string"
        },
        {
          "internalType": "bool",
          "name": "verified",
          "type": "bool"
        },
        {
          "internalType": "uint256",
          "name": "outstanding",
          "type": "uint256"
        },
        {
          "internalType": "uint256",
          "name": "maxSupply",
          "type": "uint256"
        }
      ],
      "stateMutability": "view",
      "type": "function"
    },
    {
      "inputs": [],
      "name": "owner",
      "outputs": [
        {
          "internalType": "address",
          "name": "",
          "type": "address"
        }
      ],
      "stateMutability": "view",
      "type": "function"
    },
    {
      "inputs": [],
      "name": "renounceOwnership",
      "outputs": [],
      "stateMutability": "nonpayable",
      "type": "function"
    },
    {
      "inputs": [
        {
          "internalType": "uint256",
          "name": "",
          "type": "uint256"
        },
        {
          "internalType": "address",
          "name": "",
          "type": "address"
        }
      ],
      "name": "tokenHoldership",
      "outputs": [
        {
          "internalType": "uint256",
          "name": "",
          "type": "uint256"
        }
      ],
      "stateMutability": "view",
      "type": "function"
    },
    {
      "inputs": [
        {
          "internalType": "uint256",
          "name": "",
          "type": "uint256"
        }
      ],
      "name": "tokenToCreator",
      "outputs": [
        {
          "internalType": "address",
          "name": "",
          "type": "address"
        }
      ],
      "stateMutability": "view",
      "type": "function"
    },
    {
      "inputs": [
        {
          "internalType": "address",
          "name": "newOwner",
          "type": "address"
        }
      ],
      "name": "transferOwnership",
      "outputs": [],
      "stateMutability": "nonpayable",
      "type": "function"
    },
    {
      "inputs": [
        {
          "internalType": "address",
          "name": "",
          "type": "address"
        },
        {
          "internalType": "uint256",
          "name": "",
          "type": "uint256"
        }
      ],
      "name": "userToHoldings",
      "outputs": [
        {
          "internalType": "uint256",
          "name": "",
          "type": "uint256"
        }
      ],
      "stateMutability": "view",
      "type": "function"
    },
    {
      "inputs": [
        {
          "internalType": "address payable",
          "name": "_owner",
          "type": "address"
        }
      ],
      "name": "withdraw",
      "outputs": [],
      "stateMutability": "nonpayable",
      "type": "function"
    },
    {
      "inputs": [
        {
          "internalType": "address payable",
          "name": "_owner",
          "type": "address"
        }
      ],
      "name": "payoutPlatformFees",
      "outputs": [],
      "stateMutability": "nonpayable",
      "type": "function"
    },
    {
      "inputs": [
        {
          "internalType": "uint256",
          "name": "_newPlatformFee",
          "type": "uint256"
        }
      ],
      "name": "changePlatformFee",
      "outputs": [],
      "stateMutability": "nonpayable",
      "type": "function"
    },
    {
      "inputs": [
        {
          "internalType": "uint256",
          "name": "_newProfitMargin",
          "type": "uint256"
        }
      ],
      "name": "changeProfitMargin",
      "outputs": [],
      "stateMutability": "nonpayable",
      "type": "function"
    },
    {
      "inputs": [
        {
          "internalType": "uint256",
          "name": "_tokenId",
          "type": "uint256"
        },
        {
          "internalType": "bool",
          "name": "_verified",
          "type": "bool"
        }
      ],
      "name": "changeVerification",
      "outputs": [],
      "stateMutability": "nonpayable",
      "type": "function"
    },
    {
      "inputs": [
        {
          "internalType": "uint256",
          "name": "_tokenId",
          "type": "uint256"
        },
        {
          "internalType": "address payable",
          "name": "_newCreatorAddress",
          "type": "address"
        }
      ],
      "name": "changeAddress",
      "outputs": [],
      "stateMutability": "nonpayable",
      "type": "function"
    },
    {
      "inputs": [
        {
          "internalType": "uint256",
          "name": "_tokenId",
          "type": "uint256"
        },
        {
          "internalType": "string",
          "name": "_newName",
          "type": "string"
        }
      ],
      "name": "changeName",
      "outputs": [],
      "stateMutability": "nonpayable",
      "type": "function"
    },
    {
      "inputs": [
        {
          "internalType": "uint256",
          "name": "_tokenId",
          "type": "uint256"
        },
        {
          "internalType": "string",
          "name": "_newSymbol",
          "type": "string"
        }
      ],
      "name": "changeSymbol",
      "outputs": [],
      "stateMutability": "nonpayable",
      "type": "function"
    },
    {
      "inputs": [
        {
          "internalType": "uint256",
          "name": "_tokenId",
          "type": "uint256"
        },
        {
          "internalType": "string",
          "name": "_newDescription",
          "type": "string"
        }
      ],
      "name": "changeDescription",
      "outputs": [],
      "stateMutability": "nonpayable",
      "type": "function"
    }
  ],
  "bytecode": "0x6080604052600180556000600255600060035560146004556009600555620186a060065560065460055462000035919062000104565b6007553480156200004557600080fd5b50600062000058620000fc60201b60201c565b9050806000806101000a81548173ffffffffffffffffffffffffffffffffffffffff021916908373ffffffffffffffffffffffffffffffffffffffff1602179055508073ffffffffffffffffffffffffffffffffffffffff16600073ffffffffffffffffffffffffffffffffffffffff167f8be0079c531659141344cd1fd0a4f28419497f9722a3daafe3b4186f6b6457e060405160405180910390a35062000175565b600033905090565b600062000111826200013c565b91506200011e836200013c565b92508262000131576200013062000146565b5b828204905092915050565b6000819050919050565b7f4e487b7100000000000000000000000000000000000000000000000000000000600052601260045260246000fd5b611b8c80620001856000396000f3fe608060405234801561001057600080fd5b506004361061010b5760003560e01c8063c39cbef1116100a2578063d7a5791a11610071578063d7a5791a146102a6578063de6a06ed146102c2578063eb841759146102de578063f2fde38b146102fa578063f7374e2e146103165761010b565b8063c39cbef11461021c578063c539c31714610238578063ce901d8a14610254578063d56b72c71461028a5761010b565b8063715018a6116100de578063715018a6146101945780638da5cb5b1461019e57806392724afa146101bc578063bfb48c9c146101ec5761010b565b806306e320f51461011057806318892ae81461012c5780631d5ad18b1461015c57806351cff8d914610178575b600080fd5b61012a60048036038101906101259190611598565b610332565b005b610146600480360381019061014191906114ab565b6103d9565b60405161015391906116b3565b60405180910390f35b61017660048036038101906101719190611518565b61040c565b005b610192600480360381019061018d9190611383565b6104e1565b005b61019c6105a7565b005b6101a66106e1565b6040516101b391906116b3565b60405180910390f35b6101d660048036038101906101d1919061146b565b61070a565b6040516101e39190611792565b60405180910390f35b610206600480360381019061020191906114d8565b61072f565b6040516102139190611792565b60405180910390f35b61023660048036038101906102319190611598565b610754565b005b610252600480360381019061024d91906114ab565b6107fb565b005b61026e600480360381019061026991906114ab565b610881565b60405161028197969594939291906116ce565b60405180910390f35b6102a4600480360381019061029f91906113b0565b610a98565b005b6102c060048036038101906102bb91906114ab565b610ca8565b005b6102dc60048036038101906102d79190611598565b610d2e565b005b6102f860048036038101906102f39190611383565b610dd5565b005b610314600480360381019061030f9190611356565b610ea5565b005b610330600480360381019061032b9190611558565b61104e565b005b826009600082815260200190815260200160002060009054906101000a900473ffffffffffffffffffffffffffffffffffffffff1673ffffffffffffffffffffffffffffffffffffffff163373ffffffffffffffffffffffffffffffffffffffff161461039e57600080fd5b8282600886815481106103b4576103b36119f5565b5b906000526020600020906007020160020191906103d2929190611113565b5050505050565b60096020528060005260406000206000915054906101000a900473ffffffffffffffffffffffffffffffffffffffff1681565b816009600082815260200190815260200160002060009054906101000a900473ffffffffffffffffffffffffffffffffffffffff1673ffffffffffffffffffffffffffffffffffffffff163373ffffffffffffffffffffffffffffffffffffffff161461047857600080fd5b816008848154811061048d5761048c6119f5565b5b906000526020600020906007020160000160006101000a81548173ffffffffffffffffffffffffffffffffffffffff021916908373ffffffffffffffffffffffffffffffffffffffff160217905550505050565b6104e961110b565b73ffffffffffffffffffffffffffffffffffffffff166105076106e1565b73ffffffffffffffffffffffffffffffffffffffff161461055d576040517f08c379a000000000000000000000000000000000000000000000000000000000815260040161055490611772565b60405180910390fd5b8073ffffffffffffffffffffffffffffffffffffffff166108fc479081150290604051600060405180830381858888f193505050501580156105a3573d6000803e3d6000fd5b5050565b6105af61110b565b73ffffffffffffffffffffffffffffffffffffffff166105cd6106e1565b73ffffffffffffffffffffffffffffffffffffffff1614610623576040517f08c379a000000000000000000000000000000000000000000000000000000000815260040161061a90611772565b60405180910390fd5b600073ffffffffffffffffffffffffffffffffffffffff1660008054906101000a900473ffffffffffffffffffffffffffffffffffffffff1673ffffffffffffffffffffffffffffffffffffffff167f8be0079c531659141344cd1fd0a4f28419497f9722a3daafe3b4186f6b6457e060405160405180910390a360008060006101000a81548173ffffffffffffffffffffffffffffffffffffffff021916908373ffffffffffffffffffffffffffffffffffffffff160217905550565b60008060009054906101000a900473ffffffffffffffffffffffffffffffffffffffff16905090565b600c602052816000526040600020602052806000526040600020600091509150505481565b600b602052816000526040600020602052806000526040600020600091509150505481565b826009600082815260200190815260200160002060009054906101000a900473ffffffffffffffffffffffffffffffffffffffff1673ffffffffffffffffffffffffffffffffffffffff163373ffffffffffffffffffffffffffffffffffffffff16146107c057600080fd5b8282600886815481106107d6576107d56119f5565b5b906000526020600020906007020160010191906107f4929190611113565b5050505050565b61080361110b565b73ffffffffffffffffffffffffffffffffffffffff166108216106e1565b73ffffffffffffffffffffffffffffffffffffffff1614610877576040517f08c379a000000000000000000000000000000000000000000000000000000000815260040161086e90611772565b60405180910390fd5b8060048190555050565b6008818154811061089157600080fd5b90600052602060002090600702016000915090508060000160009054906101000a900473ffffffffffffffffffffffffffffffffffffffff16908060010180546108da90611934565b80601f016020809104026020016040519081016040528092919081815260200182805461090690611934565b80156109535780601f1061092857610100808354040283529160200191610953565b820191906000526020600020905b81548152906001019060200180831161093657829003601f168201915b50505050509080600201805461096890611934565b80601f016020809104026020016040519081016040528092919081815260200182805461099490611934565b80156109e15780601f106109b6576101008083540402835291602001916109e1565b820191906000526020600020905b8154815290600101906020018083116109c457829003601f168201915b5050505050908060030180546109f690611934565b80601f0160208091040260200160405190810160405280929190818152602001828054610a2290611934565b8015610a6f5780601f10610a4457610100808354040283529160200191610a6f565b820191906000526020600020905b815481529060010190602001808311610a5257829003601f168201915b5050505050908060040160009054906101000a900460ff16908060050154908060060154905087565b60086040518060e001604052808673ffffffffffffffffffffffffffffffffffffffff168152602001858152602001848152602001838152602001600015158152602001600081526020016000815250908060018154018082558091505060019003906000526020600020906007020160009091909190915060008201518160000160006101000a81548173ffffffffffffffffffffffffffffffffffffffff021916908373ffffffffffffffffffffffffffffffffffffffff1602179055506020820151816001019080519060200190610b74929190611199565b506040820151816002019080519060200190610b91929190611199565b506060820151816003019080519060200190610bae929190611199565b5060808201518160040160006101000a81548160ff02191690831515021790555060a0820151816005015560c08201518160060155505060006001600880549050610bf99190611864565b9050846009600083815260200190815260200160002060006101000a81548173ffffffffffffffffffffffffffffffffffffffff021916908373ffffffffffffffffffffffffffffffffffffffff1602179055506000600a6000838152602001908152602001600020819055507f01e9d0e2208938b5d6a39db5244c8dca0b77eb386bf3705fe751005e7e0ca16c818585604051610c99939291906117ad565b60405180910390a15050505050565b610cb061110b565b73ffffffffffffffffffffffffffffffffffffffff16610cce6106e1565b73ffffffffffffffffffffffffffffffffffffffff1614610d24576040517f08c379a0000000000000000000000000000000000000000000000000000000008152600401610d1b90611772565b60405180910390fd5b8060018190555050565b826009600082815260200190815260200160002060009054906101000a900473ffffffffffffffffffffffffffffffffffffffff1673ffffffffffffffffffffffffffffffffffffffff163373ffffffffffffffffffffffffffffffffffffffff1614610d9a57600080fd5b828260088681548110610db057610daf6119f5565b5b90600052602060002090600702016003019190610dce929190611113565b5050505050565b610ddd61110b565b73ffffffffffffffffffffffffffffffffffffffff16610dfb6106e1565b73ffffffffffffffffffffffffffffffffffffffff1614610e51576040517f08c379a0000000000000000000000000000000000000000000000000000000008152600401610e4890611772565b60405180910390fd5b8073ffffffffffffffffffffffffffffffffffffffff166108fc6003549081150290604051600060405180830381858888f19350505050158015610e99573d6000803e3d6000fd5b50600060038190555050565b610ead61110b565b73ffffffffffffffffffffffffffffffffffffffff16610ecb6106e1565b73ffffffffffffffffffffffffffffffffffffffff1614610f21576040517f08c379a0000000000000000000000000000000000000000000000000000000008152600401610f1890611772565b60405180910390fd5b600073ffffffffffffffffffffffffffffffffffffffff168173ffffffffffffffffffffffffffffffffffffffff161415610f91576040517f08c379a0000000000000000000000000000000000000000000000000000000008152600401610f8890611752565b60405180910390fd5b8073ffffffffffffffffffffffffffffffffffffffff1660008054906101000a900473ffffffffffffffffffffffffffffffffffffffff1673ffffffffffffffffffffffffffffffffffffffff167f8be0079c531659141344cd1fd0a4f28419497f9722a3daafe3b4186f6b6457e060405160405180910390a3806000806101000a81548173ffffffffffffffffffffffffffffffffffffffff021916908373ffffffffffffffffffffffffffffffffffffffff16021790555050565b61105661110b565b73ffffffffffffffffffffffffffffffffffffffff166110746106e1565b73ffffffffffffffffffffffffffffffffffffffff16146110ca576040517f08c379a00000000000000000000000000000000000000000000000000000000081526004016110c190611772565b60405180910390fd5b80600883815481106110df576110de6119f5565b5b906000526020600020906007020160040160006101000a81548160ff0219169083151502179055505050565b600033905090565b82805461111f90611934565b90600052602060002090601f0160209004810192826111415760008555611188565b82601f1061115a57803560ff1916838001178555611188565b82800160010185558215611188579182015b8281111561118757823582559160200191906001019061116c565b5b509050611195919061121f565b5090565b8280546111a590611934565b90600052602060002090601f0160209004810192826111c7576000855561120e565b82601f106111e057805160ff191683800117855561120e565b8280016001018555821561120e579182015b8281111561120d5782518255916020019190600101906111f2565b5b50905061121b919061121f565b5090565b5b80821115611238576000816000905550600101611220565b5090565b600061124f61124a84611817565b6117f2565b90508281526020810184848401111561126b5761126a611a62565b5b6112768482856118f2565b509392505050565b60008135905061128d81611afa565b92915050565b6000813590506112a281611b11565b92915050565b6000813590506112b781611b28565b92915050565b60008083601f8401126112d3576112d2611a58565b5b8235905067ffffffffffffffff8111156112f0576112ef611a53565b5b60208301915083600182028301111561130c5761130b611a5d565b5b9250929050565b600082601f83011261132857611327611a58565b5b813561133884826020860161123c565b91505092915050565b60008135905061135081611b3f565b92915050565b60006020828403121561136c5761136b611a6c565b5b600061137a8482850161127e565b91505092915050565b60006020828403121561139957611398611a6c565b5b60006113a784828501611293565b91505092915050565b600080600080608085870312156113ca576113c9611a6c565b5b60006113d887828801611293565b945050602085013567ffffffffffffffff8111156113f9576113f8611a67565b5b61140587828801611313565b935050604085013567ffffffffffffffff81111561142657611425611a67565b5b61143287828801611313565b925050606085013567ffffffffffffffff81111561145357611452611a67565b5b61145f87828801611313565b91505092959194509250565b6000806040838503121561148257611481611a6c565b5b60006114908582860161127e565b92505060206114a185828601611341565b9150509250929050565b6000602082840312156114c1576114c0611a6c565b5b60006114cf84828501611341565b91505092915050565b600080604083850312156114ef576114ee611a6c565b5b60006114fd85828601611341565b925050602061150e8582860161127e565b9150509250929050565b6000806040838503121561152f5761152e611a6c565b5b600061153d85828601611341565b925050602061154e85828601611293565b9150509250929050565b6000806040838503121561156f5761156e611a6c565b5b600061157d85828601611341565b925050602061158e858286016112a8565b9150509250929050565b6000806000604084860312156115b1576115b0611a6c565b5b60006115bf86828701611341565b935050602084013567ffffffffffffffff8111156115e0576115df611a67565b5b6115ec868287016112bd565b92509250509250925092565b611601816118aa565b82525050565b61161081611898565b82525050565b61161f816118bc565b82525050565b600061163082611848565b61163a8185611853565b935061164a818560208601611901565b61165381611a71565b840191505092915050565b600061166b602683611853565b915061167682611a82565b604082019050919050565b600061168e602083611853565b915061169982611ad1565b602082019050919050565b6116ad816118e8565b82525050565b60006020820190506116c86000830184611607565b92915050565b600060e0820190506116e3600083018a6115f8565b81810360208301526116f58189611625565b905081810360408301526117098188611625565b9050818103606083015261171d8187611625565b905061172c6080830186611616565b61173960a08301856116a4565b61174660c08301846116a4565b98975050505050505050565b6000602082019050818103600083015261176b8161165e565b9050919050565b6000602082019050818103600083015261178b81611681565b9050919050565b60006020820190506117a760008301846116a4565b92915050565b60006060820190506117c260008301866116a4565b81810360208301526117d48185611625565b905081810360408301526117e88184611625565b9050949350505050565b60006117fc61180d565b90506118088282611966565b919050565b6000604051905090565b600067ffffffffffffffff82111561183257611831611a24565b5b61183b82611a71565b9050602081019050919050565b600081519050919050565b600082825260208201905092915050565b600061186f826118e8565b915061187a836118e8565b92508282101561188d5761188c611997565b5b828203905092915050565b60006118a3826118c8565b9050919050565b60006118b5826118c8565b9050919050565b60008115159050919050565b600073ffffffffffffffffffffffffffffffffffffffff82169050919050565b6000819050919050565b82818337600083830152505050565b60005b8381101561191f578082015181840152602081019050611904565b8381111561192e576000848401525b50505050565b6000600282049050600182168061194c57607f821691505b602082108114156119605761195f6119c6565b5b50919050565b61196f82611a71565b810181811067ffffffffffffffff8211171561198e5761198d611a24565b5b80604052505050565b7f4e487b7100000000000000000000000000000000000000000000000000000000600052601160045260246000fd5b7f4e487b7100000000000000000000000000000000000000000000000000000000600052602260045260246000fd5b7f4e487b7100000000000000000000000000000000000000000000000000000000600052603260045260246000fd5b7f4e487b7100000000000000000000000000000000000000000000000000000000600052604160045260246000fd5b600080fd5b600080fd5b600080fd5b600080fd5b600080fd5b600080fd5b6000601f19601f8301169050919050565b7f4f776e61626c653a206e6577206f776e657220697320746865207a65726f206160008201527f6464726573730000000000000000000000000000000000000000000000000000602082015250565b7f4f776e61626c653a2063616c6c6572206973206e6f7420746865206f776e6572600082015250565b611b0381611898565b8114611b0e57600080fd5b50565b611b1a816118aa565b8114611b2557600080fd5b50565b611b31816118bc565b8114611b3c57600080fd5b50565b611b48816118e8565b8114611b5357600080fd5b5056fea264697066735822122011d11b7349eae3e94d24b7ea763fa388eceb95856e259a6b25933f4cf1eaff1464736f6c63430008060033",
  "immutableReferences": {},
  "source": "// SPDX-License-Identifier: MIT\npragma solidity ^0.8.0;\n\nimport \"./creatortokenfactory.sol\";\n\ncontract CreatorTokenHelper is CreatorTokenFactory {\n\n\t// Modifier checking whether user is creator of the token\n\tmodifier onlyCreatorOf(uint _tokenId) {\n\t\trequire(msg.sender == tokenToCreator[_tokenId]);\n\t\t_;\n\t}\n\n\t// Ownable function allowing for withdrawal\n\tfunction withdraw(address payable _owner) external onlyOwner {\n\t  _owner.transfer(address(this).balance);\n\t}\n\n\t// Payout platform fees owed to owner (might opt to call this daily)\n\tfunction payoutPlatformFees(address payable _owner) external onlyOwner {\n\t\t_owner.transfer(platformFeesOwed);\n\t\t// Reset platformFeesOwed to zero after payout\n\t\tplatformFeesOwed = 0;\n\t}\n\n\t// Allow owner to change platformFee\n\tfunction changePlatformFee(uint _newPlatformFee) external onlyOwner {\n\t\tplatformFee = _newPlatformFee;\n\t}\n\n\t// Allow owner to change profit_margin\n\tfunction changeProfitMargin(uint _newProfitMargin) external onlyOwner {\n\t\tprofitMargin = _newProfitMargin;\n\t}\n\n\t// Allow owner to verify (or undo verification) of a CreatorToken\n\tfunction changeVerification(uint _tokenId, bool _verified) external onlyOwner {\n\t\tcreatorTokens[_tokenId].verified = _verified;\n\t}\n\n\t// Allow token creator to change their address\n\tfunction changeAddress(uint _tokenId, address payable _newCreatorAddress) external onlyCreatorOf(_tokenId) {\n\t\tcreatorTokens[_tokenId].creatorAddress = _newCreatorAddress;\n\t}\n\n\t// Allow token creator to change the name of their token\n\tfunction changeName(uint _tokenId, string calldata _newName) external onlyCreatorOf(_tokenId) {\n\t\tcreatorTokens[_tokenId].name = _newName;\n\t}\n\n\t// Allow token creator to change the symbol of their token\n\tfunction changeSymbol(uint _tokenId, string calldata _newSymbol) external onlyCreatorOf(_tokenId) {\n\t\tcreatorTokens[_tokenId].symbol = _newSymbol;\n\t}\n\n\t// Allow token creator to change the description of their token\n\tfunction changeDescription(uint _tokenId, string calldata _newDescription) external onlyCreatorOf(_tokenId) {\n\t\tcreatorTokens[_tokenId].description = _newDescription;\n\t}\n}",
  "sourcePath": "/Users/kamilalizaisadik/DeFi/Dynamic Automated Market Maker/damm_solidity/contracts/creatortokenhelper.sol",
  "compiler": {
    "name": "solc",
    "version": "0.8.6+commit.11564f7e.Emscripten.clang"
  },
  "schemaVersion": "3.4.1",
  "updatedAt": "2021-06-24T00:37:20.844Z",
  "devdoc": {
    "kind": "dev",
    "methods": {
      "owner()": {
        "details": "Returns the address of the current owner."
      },
      "renounceOwnership()": {
        "details": "Leaves the contract without owner. It will not be possible to call `onlyOwner` functions anymore. Can only be called by the current owner. NOTE: Renouncing ownership will leave the contract without an owner, thereby removing any functionality that is only available to the owner."
      },
      "transferOwnership(address)": {
        "details": "Transfers ownership of the contract to a new account (`newOwner`). Can only be called by the current owner."
      }
    },
    "version": 1
  },
  "userdoc": {
    "kind": "user",
    "methods": {},
    "version": 1
  }
}