{
  "contractName": "CreatorTokenExchange",
  "abi": [
    {
      "inputs": [
        {
          "internalType": "string",
          "name": "uri",
          "type": "string"
        }
      ],
      "stateMutability": "nonpayable",
      "type": "constructor"
    },
    {
      "anonymous": false,
      "inputs": [
        {
          "indexed": true,
          "internalType": "address",
          "name": "account",
          "type": "address"
        },
        {
          "indexed": true,
          "internalType": "address",
          "name": "operator",
          "type": "address"
        },
        {
          "indexed": false,
          "internalType": "bool",
          "name": "approved",
          "type": "bool"
        }
      ],
      "name": "ApprovalForAll",
      "type": "event"
    },
    {
      "anonymous": false,
      "inputs": [
        {
          "indexed": false,
          "internalType": "uint256",
          "name": "tokenId",
          "type": "uint256"
        },
        {
          "indexed": false,
          "internalType": "address payable",
          "name": "creatorAddress",
          "type": "address"
        },
        {
          "indexed": false,
          "internalType": "string",
          "name": "name",
          "type": "string"
        },
        {
          "indexed": false,
          "internalType": "string",
          "name": "symbol",
          "type": "string"
        },
        {
          "indexed": false,
          "internalType": "string",
          "name": "description",
          "type": "string"
        },
        {
          "indexed": false,
          "internalType": "bool",
          "name": "verified",
          "type": "bool"
        },
        {
          "indexed": false,
          "internalType": "uint256",
          "name": "outstanding",
          "type": "uint256"
        },
        {
          "indexed": false,
          "internalType": "uint256",
          "name": "maxSupply",
          "type": "uint256"
        }
      ],
      "name": "NewCreatorToken",
      "type": "event"
    },
    {
      "anonymous": false,
      "inputs": [
        {
          "indexed": true,
          "internalType": "address",
          "name": "account",
          "type": "address"
        },
        {
          "indexed": false,
          "internalType": "uint256",
          "name": "amount",
          "type": "uint256"
        },
        {
          "indexed": false,
          "internalType": "string",
          "name": "transactionType",
          "type": "string"
        },
        {
          "indexed": false,
          "internalType": "uint256",
          "name": "tokenId",
          "type": "uint256"
        },
        {
          "indexed": false,
          "internalType": "string",
          "name": "name",
          "type": "string"
        },
        {
          "indexed": false,
          "internalType": "string",
          "name": "symbol",
          "type": "string"
        }
      ],
      "name": "NewTransaction",
      "type": "event"
    },
    {
      "anonymous": false,
      "inputs": [
        {
          "indexed": true,
          "internalType": "address",
          "name": "previousOwner",
          "type": "address"
        },
        {
          "indexed": true,
          "internalType": "address",
          "name": "newOwner",
          "type": "address"
        }
      ],
      "name": "OwnershipTransferred",
      "type": "event"
    },
    {
      "anonymous": false,
      "inputs": [
        {
          "indexed": true,
          "internalType": "address",
          "name": "operator",
          "type": "address"
        },
        {
          "indexed": true,
          "internalType": "address",
          "name": "from",
          "type": "address"
        },
        {
          "indexed": true,
          "internalType": "address",
          "name": "to",
          "type": "address"
        },
        {
          "indexed": false,
          "internalType": "uint256[]",
          "name": "ids",
          "type": "uint256[]"
        },
        {
          "indexed": false,
          "internalType": "uint256[]",
          "name": "values",
          "type": "uint256[]"
        }
      ],
      "name": "TransferBatch",
      "type": "event"
    },
    {
      "anonymous": false,
      "inputs": [
        {
          "indexed": true,
          "internalType": "address",
          "name": "operator",
          "type": "address"
        },
        {
          "indexed": true,
          "internalType": "address",
          "name": "from",
          "type": "address"
        },
        {
          "indexed": true,
          "internalType": "address",
          "name": "to",
          "type": "address"
        },
        {
          "indexed": false,
          "internalType": "uint256",
          "name": "id",
          "type": "uint256"
        },
        {
          "indexed": false,
          "internalType": "uint256",
          "name": "value",
          "type": "uint256"
        }
      ],
      "name": "TransferSingle",
      "type": "event"
    },
    {
      "anonymous": false,
      "inputs": [
        {
          "indexed": false,
          "internalType": "string",
          "name": "value",
          "type": "string"
        },
        {
          "indexed": true,
          "internalType": "uint256",
          "name": "id",
          "type": "uint256"
        }
      ],
      "name": "URI",
      "type": "event"
    },
    {
      "inputs": [
        {
          "internalType": "uint256",
          "name": "_tokenId",
          "type": "uint256"
        },
        {
          "internalType": "uint256",
          "name": "_amount",
          "type": "uint256"
        }
      ],
      "name": "_buyProceeds",
      "outputs": [
        {
          "internalType": "uint256",
          "name": "",
          "type": "uint256"
        }
      ],
      "stateMutability": "view",
      "type": "function"
    },
    {
      "inputs": [
        {
          "internalType": "uint256",
          "name": "_proceedsRequired",
          "type": "uint256"
        }
      ],
      "name": "_feeProceeds",
      "outputs": [
        {
          "internalType": "uint256",
          "name": "",
          "type": "uint256"
        }
      ],
      "stateMutability": "view",
      "type": "function"
    },
    {
      "inputs": [
        {
          "internalType": "uint256",
          "name": "_startingSupply",
          "type": "uint256"
        },
        {
          "internalType": "uint256",
          "name": "_amount",
          "type": "uint256"
        },
        {
          "internalType": "uint256",
          "name": "_mNumerator",
          "type": "uint256"
        },
        {
          "internalType": "uint256",
          "name": "_mDenominator",
          "type": "uint256"
        },
        {
          "internalType": "uint256",
          "name": "_maxSupply",
          "type": "uint256"
        },
        {
          "internalType": "uint256",
          "name": "_profitMargin",
          "type": "uint256"
        }
      ],
      "name": "_saleFunction",
      "outputs": [
        {
          "internalType": "uint256",
          "name": "",
          "type": "uint256"
        }
      ],
      "stateMutability": "pure",
      "type": "function"
    },
    {
      "inputs": [
        {
          "internalType": "uint256",
          "name": "_tokenId",
          "type": "uint256"
        },
        {
          "internalType": "uint256",
          "name": "_amount",
          "type": "uint256"
        }
      ],
      "name": "_totalProceeds",
      "outputs": [
        {
          "internalType": "uint256",
          "name": "",
          "type": "uint256"
        }
      ],
      "stateMutability": "view",
      "type": "function"
    },
    {
      "inputs": [
        {
          "internalType": "address",
          "name": "",
          "type": "address"
        },
        {
          "internalType": "address",
          "name": "",
          "type": "address"
        }
      ],
      "name": "approvals",
      "outputs": [
        {
          "internalType": "bool",
          "name": "",
          "type": "bool"
        }
      ],
      "stateMutability": "view",
      "type": "function"
    },
    {
      "inputs": [
        {
          "internalType": "address",
          "name": "account",
          "type": "address"
        },
        {
          "internalType": "uint256",
          "name": "id",
          "type": "uint256"
        }
      ],
      "name": "balanceOf",
      "outputs": [
        {
          "internalType": "uint256",
          "name": "",
          "type": "uint256"
        }
      ],
      "stateMutability": "view",
      "type": "function"
    },
    {
      "inputs": [
        {
          "internalType": "address[]",
          "name": "accounts",
          "type": "address[]"
        },
        {
          "internalType": "uint256[]",
          "name": "ids",
          "type": "uint256[]"
        }
      ],
      "name": "balanceOfBatch",
      "outputs": [
        {
          "internalType": "uint256[]",
          "name": "",
          "type": "uint256[]"
        }
      ],
      "stateMutability": "view",
      "type": "function"
    },
    {
      "inputs": [
        {
          "internalType": "uint256",
          "name": "_tokenId",
          "type": "uint256"
        },
        {
          "internalType": "address payable",
          "name": "_newCreatorAddress",
          "type": "address"
        }
      ],
      "name": "changeAddress",
      "outputs": [],
      "stateMutability": "nonpayable",
      "type": "function"
    },
    {
      "inputs": [
        {
          "internalType": "uint256",
          "name": "_tokenId",
          "type": "uint256"
        },
        {
          "internalType": "string",
          "name": "_newDescription",
          "type": "string"
        }
      ],
      "name": "changeDescription",
      "outputs": [],
      "stateMutability": "nonpayable",
      "type": "function"
    },
    {
      "inputs": [
        {
          "internalType": "uint256",
          "name": "_tokenId",
          "type": "uint256"
        },
        {
          "internalType": "string",
          "name": "_newName",
          "type": "string"
        }
      ],
      "name": "changeName",
      "outputs": [],
      "stateMutability": "nonpayable",
      "type": "function"
    },
    {
      "inputs": [
        {
          "internalType": "uint256",
          "name": "_newPlatformFee",
          "type": "uint256"
        }
      ],
      "name": "changePlatformFee",
      "outputs": [],
      "stateMutability": "nonpayable",
      "type": "function"
    },
    {
      "inputs": [
        {
          "internalType": "uint256",
          "name": "_newProfitMargin",
          "type": "uint256"
        }
      ],
      "name": "changeProfitMargin",
      "outputs": [],
      "stateMutability": "nonpayable",
      "type": "function"
    },
    {
      "inputs": [
        {
          "internalType": "uint256",
          "name": "_tokenId",
          "type": "uint256"
        },
        {
          "internalType": "string",
          "name": "_newSymbol",
          "type": "string"
        }
      ],
      "name": "changeSymbol",
      "outputs": [],
      "stateMutability": "nonpayable",
      "type": "function"
    },
    {
      "inputs": [
        {
          "internalType": "uint256",
          "name": "_tokenId",
          "type": "uint256"
        },
        {
          "internalType": "bool",
          "name": "_verified",
          "type": "bool"
        }
      ],
      "name": "changeVerification",
      "outputs": [],
      "stateMutability": "nonpayable",
      "type": "function"
    },
    {
      "inputs": [
        {
          "internalType": "address payable",
          "name": "_creatorAddress",
          "type": "address"
        },
        {
          "internalType": "string",
          "name": "_name",
          "type": "string"
        },
        {
          "internalType": "string",
          "name": "_symbol",
          "type": "string"
        },
        {
          "internalType": "string",
          "name": "_description",
          "type": "string"
        }
      ],
      "name": "createCreatorToken",
      "outputs": [],
      "stateMutability": "nonpayable",
      "type": "function"
    },
    {
      "inputs": [
        {
          "internalType": "uint256",
          "name": "",
          "type": "uint256"
        }
      ],
      "name": "creatorTokens",
      "outputs": [
        {
          "internalType": "address payable",
          "name": "creatorAddress",
          "type": "address"
        },
        {
          "internalType": "string",
          "name": "name",
          "type": "string"
        },
        {
          "internalType": "string",
          "name": "symbol",
          "type": "string"
        },
        {
          "internalType": "string",
          "name": "description",
          "type": "string"
        },
        {
          "internalType": "bool",
          "name": "verified",
          "type": "bool"
        },
        {
          "internalType": "uint256",
          "name": "outstanding",
          "type": "uint256"
        },
        {
          "internalType": "uint256",
          "name": "maxSupply",
          "type": "uint256"
        }
      ],
      "stateMutability": "view",
      "type": "function"
    },
    {
      "inputs": [],
      "name": "getCreatorTokenCount",
      "outputs": [
        {
          "internalType": "uint256",
          "name": "",
          "type": "uint256"
        }
      ],
      "stateMutability": "view",
      "type": "function"
    },
    {
      "inputs": [],
      "name": "getCreatorTokens",
      "outputs": [
        {
          "components": [
            {
              "internalType": "address payable",
              "name": "creatorAddress",
              "type": "address"
            },
            {
              "internalType": "string",
              "name": "name",
              "type": "string"
            },
            {
              "internalType": "string",
              "name": "symbol",
              "type": "string"
            },
            {
              "internalType": "string",
              "name": "description",
              "type": "string"
            },
            {
              "internalType": "bool",
              "name": "verified",
              "type": "bool"
            },
            {
              "internalType": "uint256",
              "name": "outstanding",
              "type": "uint256"
            },
            {
              "internalType": "uint256",
              "name": "maxSupply",
              "type": "uint256"
            }
          ],
          "internalType": "struct CreatorTokenFactory.CreatorToken[]",
          "name": "",
          "type": "tuple[]"
        }
      ],
      "stateMutability": "view",
      "type": "function"
    },
    {
      "inputs": [
        {
          "internalType": "uint256",
          "name": "_id",
          "type": "uint256"
        }
      ],
      "name": "getToken",
      "outputs": [
        {
          "components": [
            {
              "internalType": "address payable",
              "name": "creatorAddress",
              "type": "address"
            },
            {
              "internalType": "string",
              "name": "name",
              "type": "string"
            },
            {
              "internalType": "string",
              "name": "symbol",
              "type": "string"
            },
            {
              "internalType": "string",
              "name": "description",
              "type": "string"
            },
            {
              "internalType": "bool",
              "name": "verified",
              "type": "bool"
            },
            {
              "internalType": "uint256",
              "name": "outstanding",
              "type": "uint256"
            },
            {
              "internalType": "uint256",
              "name": "maxSupply",
              "type": "uint256"
            }
          ],
          "internalType": "struct CreatorTokenFactory.CreatorToken",
          "name": "",
          "type": "tuple"
        }
      ],
      "stateMutability": "view",
      "type": "function"
    },
    {
      "inputs": [
        {
          "internalType": "address",
          "name": "_account",
          "type": "address"
        },
        {
          "internalType": "address",
          "name": "_operator",
          "type": "address"
        }
      ],
      "name": "isApprovedForAll",
      "outputs": [
        {
          "internalType": "bool",
          "name": "",
          "type": "bool"
        }
      ],
      "stateMutability": "view",
      "type": "function"
    },
    {
      "inputs": [],
      "name": "numCreatorTokens",
      "outputs": [
        {
          "internalType": "uint256",
          "name": "",
          "type": "uint256"
        }
      ],
      "stateMutability": "view",
      "type": "function"
    },
    {
      "inputs": [],
      "name": "owner",
      "outputs": [
        {
          "internalType": "address",
          "name": "",
          "type": "address"
        }
      ],
      "stateMutability": "view",
      "type": "function"
    },
    {
      "inputs": [
        {
          "internalType": "address payable",
          "name": "_owner",
          "type": "address"
        }
      ],
      "name": "payoutPlatformFees",
      "outputs": [],
      "stateMutability": "nonpayable",
      "type": "function"
    },
    {
      "inputs": [],
      "name": "platformFeesOwed",
      "outputs": [
        {
          "internalType": "uint256",
          "name": "",
          "type": "uint256"
        }
      ],
      "stateMutability": "view",
      "type": "function"
    },
    {
      "inputs": [],
      "name": "renounceOwnership",
      "outputs": [],
      "stateMutability": "nonpayable",
      "type": "function"
    },
    {
      "inputs": [
        {
          "internalType": "address",
          "name": "_from",
          "type": "address"
        },
        {
          "internalType": "address",
          "name": "_to",
          "type": "address"
        },
        {
          "internalType": "uint256[]",
          "name": "_ids",
          "type": "uint256[]"
        },
        {
          "internalType": "uint256[]",
          "name": "_amounts",
          "type": "uint256[]"
        },
        {
          "internalType": "bytes",
          "name": "_data",
          "type": "bytes"
        }
      ],
      "name": "safeBatchTransferFrom",
      "outputs": [],
      "stateMutability": "nonpayable",
      "type": "function"
    },
    {
      "inputs": [
        {
          "internalType": "address",
          "name": "_from",
          "type": "address"
        },
        {
          "internalType": "address",
          "name": "_to",
          "type": "address"
        },
        {
          "internalType": "uint256",
          "name": "_id",
          "type": "uint256"
        },
        {
          "internalType": "uint256",
          "name": "_amount",
          "type": "uint256"
        },
        {
          "internalType": "bytes",
          "name": "_data",
          "type": "bytes"
        }
      ],
      "name": "safeTransferFrom",
      "outputs": [],
      "stateMutability": "nonpayable",
      "type": "function"
    },
    {
      "inputs": [
        {
          "internalType": "address",
          "name": "_operator",
          "type": "address"
        },
        {
          "internalType": "bool",
          "name": "_approved",
          "type": "bool"
        }
      ],
      "name": "setApprovalForAll",
      "outputs": [],
      "stateMutability": "nonpayable",
      "type": "function"
    },
    {
      "inputs": [
        {
          "internalType": "bytes4",
          "name": "interfaceId",
          "type": "bytes4"
        }
      ],
      "name": "supportsInterface",
      "outputs": [
        {
          "internalType": "bool",
          "name": "",
          "type": "bool"
        }
      ],
      "stateMutability": "view",
      "type": "function"
    },
    {
      "inputs": [
        {
          "internalType": "uint256",
          "name": "",
          "type": "uint256"
        },
        {
          "internalType": "address",
          "name": "",
          "type": "address"
        }
      ],
      "name": "tokenHoldership",
      "outputs": [
        {
          "internalType": "uint256",
          "name": "",
          "type": "uint256"
        }
      ],
      "stateMutability": "view",
      "type": "function"
    },
    {
      "inputs": [
        {
          "internalType": "uint256",
          "name": "",
          "type": "uint256"
        }
      ],
      "name": "tokenToCreator",
      "outputs": [
        {
          "internalType": "address",
          "name": "",
          "type": "address"
        }
      ],
      "stateMutability": "view",
      "type": "function"
    },
    {
      "inputs": [
        {
          "internalType": "uint256",
          "name": "",
          "type": "uint256"
        }
      ],
      "name": "tokenValueTransferred",
      "outputs": [
        {
          "internalType": "uint256",
          "name": "",
          "type": "uint256"
        }
      ],
      "stateMutability": "view",
      "type": "function"
    },
    {
      "inputs": [],
      "name": "totalPlatformFees",
      "outputs": [
        {
          "internalType": "uint256",
          "name": "",
          "type": "uint256"
        }
      ],
      "stateMutability": "view",
      "type": "function"
    },
    {
      "inputs": [
        {
          "internalType": "uint256",
          "name": "",
          "type": "uint256"
        }
      ],
      "name": "totalValueLocked",
      "outputs": [
        {
          "internalType": "uint256",
          "name": "",
          "type": "uint256"
        }
      ],
      "stateMutability": "view",
      "type": "function"
    },
    {
      "inputs": [
        {
          "internalType": "address",
          "name": "newOwner",
          "type": "address"
        }
      ],
      "name": "transferOwnership",
      "outputs": [],
      "stateMutability": "nonpayable",
      "type": "function"
    },
    {
      "inputs": [
        {
          "internalType": "uint256",
          "name": "",
          "type": "uint256"
        }
      ],
      "name": "uri",
      "outputs": [
        {
          "internalType": "string",
          "name": "",
          "type": "string"
        }
      ],
      "stateMutability": "view",
      "type": "function"
    },
    {
      "inputs": [
        {
          "internalType": "address",
          "name": "",
          "type": "address"
        },
        {
          "internalType": "uint256",
          "name": "",
          "type": "uint256"
        }
      ],
      "name": "userToHoldings",
      "outputs": [
        {
          "internalType": "uint256",
          "name": "",
          "type": "uint256"
        }
      ],
      "stateMutability": "view",
      "type": "function"
    },
    {
      "inputs": [
        {
          "internalType": "address payable",
          "name": "_owner",
          "type": "address"
        }
      ],
      "name": "withdraw",
      "outputs": [],
      "stateMutability": "nonpayable",
      "type": "function"
    },
    {
      "inputs": [
        {
          "internalType": "uint256",
          "name": "_tokenId",
          "type": "uint256"
        },
        {
          "internalType": "uint256",
          "name": "_amount",
          "type": "uint256"
        }
      ],
      "name": "buyCreatorToken",
      "outputs": [],
      "stateMutability": "payable",
      "type": "function"
    },
    {
      "inputs": [
        {
          "internalType": "uint256",
          "name": "_tokenId",
          "type": "uint256"
        },
        {
          "internalType": "uint256",
          "name": "_amount",
          "type": "uint256"
        },
        {
          "internalType": "address payable",
          "name": "_seller",
          "type": "address"
        }
      ],
      "name": "sellCreatorToken",
      "outputs": [],
      "stateMutability": "payable",
      "type": "function"
    }
  ],
  "bytecode": "0x60806040526001805560006002556000600355601460045565082f79cd900060055560b9600655600780549050600e553480156200003c57600080fd5b506040516200534138038062005341833981810160405281019062000062919062000286565b80808080806000620000796200013460201b60201c565b9050806000806101000a81548173ffffffffffffffffffffffffffffffffffffffff021916908373ffffffffffffffffffffffffffffffffffffffff1602179055508073ffffffffffffffffffffffffffffffffffffffff16600073ffffffffffffffffffffffffffffffffffffffff167f8be0079c531659141344cd1fd0a4f28419497f9722a3daafe3b4186f6b6457e060405160405180910390a35062000128816200013c60201b60201c565b5050505050506200045b565b600033905090565b80601190805190602001906200015492919062000158565b5050565b82805462000166906200036c565b90600052602060002090601f0160209004810192826200018a5760008555620001d6565b82601f10620001a557805160ff1916838001178555620001d6565b82800160010185558215620001d6579182015b82811115620001d5578251825591602001919060010190620001b8565b5b509050620001e59190620001e9565b5090565b5b8082111562000204576000816000905550600101620001ea565b5090565b60006200021f620002198462000300565b620002d7565b9050828152602081018484840111156200023e576200023d6200043b565b5b6200024b84828562000336565b509392505050565b600082601f8301126200026b576200026a62000436565b5b81516200027d84826020860162000208565b91505092915050565b6000602082840312156200029f576200029e62000445565b5b600082015167ffffffffffffffff811115620002c057620002bf62000440565b5b620002ce8482850162000253565b91505092915050565b6000620002e3620002f6565b9050620002f18282620003a2565b919050565b6000604051905090565b600067ffffffffffffffff8211156200031e576200031d62000407565b5b62000329826200044a565b9050602081019050919050565b60005b838110156200035657808201518184015260208101905062000339565b8381111562000366576000848401525b50505050565b600060028204905060018216806200038557607f821691505b602082108114156200039c576200039b620003d8565b5b50919050565b620003ad826200044a565b810181811067ffffffffffffffff82111715620003cf57620003ce62000407565b5b80604052505050565b7f4e487b7100000000000000000000000000000000000000000000000000000000600052602260045260246000fd5b7f4e487b7100000000000000000000000000000000000000000000000000000000600052604160045260246000fd5b600080fd5b600080fd5b600080fd5b600080fd5b6000601f19601f8301169050919050565b614ed6806200046b6000396000f3fe60806040526004361061023a5760003560e01c8063afb218321161012e578063d9bd3a40116100ab578063eb8417591161006f578063eb84175914610921578063f242432a1461094a578063f2fde38b14610973578063f7374e2e1461099c578063fffae941146109c55761023a565b8063d9bd3a4014610804578063de6a06ed14610841578063df3c00b11461086a578063e4b50cb8146108a7578063e985e9c5146108e45761023a565b8063c539c317116100f2578063c539c3171461071b578063ce901d8a14610744578063d3631fa514610787578063d56b72c7146107b2578063d7a5791a146107db5761023a565b8063afb2183214610622578063ba111a051461064d578063bfb48c9c1461068a578063c1d33049146106c7578063c39cbef1146106f25761023a565b806335a8ae21116101bc5780638d816811116101805780638d816811146105295780638da5cb5b1461055457806392724afa1461057f578063a22cb465146105bc578063a32ce11e146105e55761023a565b806335a8ae21146104325780634e1273f41461046f5780634fe477d8146104ac57806351cff8d9146104e9578063715018a6146105125761023a565b806318892ae81161020357806318892ae81461035c5780631d5ad18b146103995780632a2b237c146103c25780632dcfdaf7146103ed5780632eb2c2d6146104095761023a565b8062fdd58e1461023f57806301ffc9a71461027c57806306e320f5146102b95780630e89341c146102e257806317bcaa081461031f575b600080fd5b34801561024b57600080fd5b5061026660048036038101906102619190613c00565b6109e1565b60405161027391906145da565b60405180910390f35b34801561028857600080fd5b506102a3600480360381019061029e9190613cb8565b610aab565b6040516102b091906144fb565b60405180910390f35b3480156102c557600080fd5b506102e060048036038101906102db9190613dd2565b610b8d565b005b3480156102ee57600080fd5b5061030960048036038101906103049190613ce5565b610c34565b6040516103169190614516565b60405180910390f35b34801561032b57600080fd5b5061034660048036038101906103419190613ce5565b610cc8565b60405161035391906145da565b60405180910390f35b34801561036857600080fd5b50610383600480360381019061037e9190613ce5565b610ce0565b60405161039091906143e1565b60405180910390f35b3480156103a557600080fd5b506103c060048036038101906103bb9190613d52565b610d13565b005b3480156103ce57600080fd5b506103d7610de8565b6040516103e491906145da565b60405180910390f35b61040760048036038101906104029190613e72565b610df5565b005b34801561041557600080fd5b50610430600480360381019061042b9190613a5a565b610fe3565b005b34801561043e57600080fd5b5061045960048036038101906104549190613e32565b61114f565b60405161046691906145da565b60405180910390f35b34801561047b57600080fd5b5061049660048036038101906104919190613c40565b611187565b6040516104a391906144a2565b60405180910390f35b3480156104b857600080fd5b506104d360048036038101906104ce9190613e32565b6112a0565b6040516104e091906145da565b60405180910390f35b3480156104f557600080fd5b50610510600480360381019061050b9190613932565b6114ad565b005b34801561051e57600080fd5b50610527611573565b005b34801561053557600080fd5b5061053e6116ad565b60405161054b9190614480565b60405180910390f35b34801561056057600080fd5b50610569611947565b60405161057691906143e1565b60405180910390f35b34801561058b57600080fd5b506105a660048036038101906105a19190613c00565b611970565b6040516105b391906145da565b60405180910390f35b3480156105c857600080fd5b506105e360048036038101906105de9190613bc0565b611995565b005b3480156105f157600080fd5b5061060c60048036038101906106079190613a1a565b611a92565b60405161061991906144fb565b60405180910390f35b34801561062e57600080fd5b50610637611ac1565b60405161064491906145da565b60405180910390f35b34801561065957600080fd5b50610674600480360381019061066f9190613ce5565b611ac7565b60405161068191906145da565b60405180910390f35b34801561069657600080fd5b506106b160048036038101906106ac9190613d12565b611aea565b6040516106be91906145da565b60405180910390f35b3480156106d357600080fd5b506106dc611b0f565b6040516106e991906145da565b60405180910390f35b3480156106fe57600080fd5b5061071960048036038101906107149190613dd2565b611b15565b005b34801561072757600080fd5b50610742600480360381019061073d9190613ce5565b611bbc565b005b34801561075057600080fd5b5061076b60048036038101906107669190613ce5565b611c42565b60405161077e97969594939291906143fc565b60405180910390f35b34801561079357600080fd5b5061079c611e59565b6040516107a991906145da565b60405180910390f35b3480156107be57600080fd5b506107d960048036038101906107d4919061395f565b611e5f565b005b3480156107e757600080fd5b5061080260048036038101906107fd9190613ce5565b61207b565b005b34801561081057600080fd5b5061082b60048036038101906108269190613ce5565b612101565b60405161083891906145da565b60405180910390f35b34801561084d57600080fd5b5061086860048036038101906108639190613dd2565b612119565b005b34801561087657600080fd5b50610891600480360381019061088c9190613ec5565b6121c0565b60405161089e91906145da565b60405180910390f35b3480156108b357600080fd5b506108ce60048036038101906108c99190613ce5565b612239565b6040516108db91906145b8565b60405180910390f35b3480156108f057600080fd5b5061090b60048036038101906109069190613a1a565b6124b0565b60405161091891906144fb565b60405180910390f35b34801561092d57600080fd5b5061094860048036038101906109439190613932565b612544565b005b34801561095657600080fd5b50610971600480360381019061096c9190613b29565b612614565b005b34801561097f57600080fd5b5061099a60048036038101906109959190613905565b6126f8565b005b3480156109a857600080fd5b506109c360048036038101906109be9190613d92565b6128a1565b005b6109df60048036038101906109da9190613e32565b61295e565b005b60008073ffffffffffffffffffffffffffffffffffffffff168373ffffffffffffffffffffffffffffffffffffffff161415610a52576040517f08c379a0000000000000000000000000000000000000000000000000000000008152600401610a4990614538565b60405180910390fd5b600f600083815260200190815260200160002060008473ffffffffffffffffffffffffffffffffffffffff1673ffffffffffffffffffffffffffffffffffffffff16815260200190815260200160002054905092915050565b60007fd9b67a26000000000000000000000000000000000000000000000000000000007bffffffffffffffffffffffffffffffffffffffffffffffffffffffff1916827bffffffffffffffffffffffffffffffffffffffffffffffffffffffff19161480610b7657507f0e89341c000000000000000000000000000000000000000000000000000000007bffffffffffffffffffffffffffffffffffffffffffffffffffffffff1916827bffffffffffffffffffffffffffffffffffffffffffffffffffffffff1916145b80610b865750610b8582612b6f565b5b9050919050565b826008600082815260200190815260200160002060009054906101000a900473ffffffffffffffffffffffffffffffffffffffff1673ffffffffffffffffffffffffffffffffffffffff163373ffffffffffffffffffffffffffffffffffffffff1614610bf957600080fd5b828260078681548110610c0f57610c0e614c38565b5b90600052602060002090600702016002019190610c2d9291906134ac565b5050505050565b606060118054610c4390614aff565b80601f0160208091040260200160405190810160405280929190818152602001828054610c6f90614aff565b8015610cbc5780601f10610c9157610100808354040283529160200191610cbc565b820191906000526020600020905b815481529060010190602001808311610c9f57829003601f168201915b50505050509050919050565b60096020528060005260406000206000915090505481565b60086020528060005260406000206000915054906101000a900473ffffffffffffffffffffffffffffffffffffffff1681565b816008600082815260200190815260200160002060009054906101000a900473ffffffffffffffffffffffffffffffffffffffff1673ffffffffffffffffffffffffffffffffffffffff163373ffffffffffffffffffffffffffffffffffffffff1614610d7f57600080fd5b8160078481548110610d9457610d93614c38565b5b906000526020600020906007020160000160006101000a81548173ffffffffffffffffffffffffffffffffffffffff021916908373ffffffffffffffffffffffffffffffffffffffff160217905550505050565b6000600780549050905090565b3373ffffffffffffffffffffffffffffffffffffffff168173ffffffffffffffffffffffffffffffffffffffff1614610e2d57600080fd5b6000610e8d60078581548110610e4657610e45614c38565b5b9060005260206000209060070201600501548460055460065460078981548110610e7357610e72614c38565b5b9060005260206000209060070201600601546004546121c0565b905080600d60008681526020019081526020016000206000828254610eb291906149f1565b925050819055506000606460015483610ecb9190614997565b610ed59190614966565b90508082610ee391906149f1565b9150610ef0838686612bd9565b8273ffffffffffffffffffffffffffffffffffffffff166108fc839081150290604051600060405180830381858888f19350505050158015610f36573d6000803e3d6000fd5b50610f4081612cdc565b3373ffffffffffffffffffffffffffffffffffffffff167f1ebb537d8231cf8a6b1b0d1684d85dfd83872c030ffc75f500f0729eaf674d82858760078981548110610f8e57610f8d614c38565b5b906000526020600020906007020160010160078a81548110610fb357610fb2614c38565b5b9060005260206000209060070201600201604051610fd494939291906146ee565b60405180910390a25050505050565b60005b83518110156110c9578573ffffffffffffffffffffffffffffffffffffffff163373ffffffffffffffffffffffffffffffffffffffff16148061102f575061102e86866124b0565b5b61103857600080fd5b6110778685838151811061104f5761104e614c38565b5b602002602001015185848151811061106a57611069614c38565b5b6020026020010151612d11565b6110b68585838151811061108e5761108d614c38565b5b60200260200101518584815181106110a9576110a8614c38565b5b6020026020010151612de4565b80806110c190614b62565b915050610fe6565b508373ffffffffffffffffffffffffffffffffffffffff168573ffffffffffffffffffffffffffffffffffffffff163373ffffffffffffffffffffffffffffffffffffffff167f4a39dc06d4c0dbc64b70af90fd698a233a518aa5d07e595d983b8c0526c8f7fb86866040516111409291906144c4565b60405180910390a45050505050565b60008061115c84846112a0565b9050600061116982611ac7565b9050600081836111799190614910565b905080935050505092915050565b606081518351146111cd576040517f08c379a00000000000000000000000000000000000000000000000000000000081526004016111c490614598565b60405180910390fd5b6000835167ffffffffffffffff8111156111ea576111e9614c67565b5b6040519080825280602002602001820160405280156112185781602001602082028036833780820191505090505b50905060005b84518110156112955761126585828151811061123d5761123c614c38565b5b602002602001015185838151811061125857611257614c38565b5b60200260200101516109e1565b82828151811061127857611277614c38565b5b6020026020010181815250508061128e90614b62565b905061121e565b508091505092915050565b600080600090506000600785815481106112bd576112bc614c38565b5b9060005260206000209060070201600501549050600084826112df9190614910565b9050600786815481106112f5576112f4614c38565b5b90600052602060002090600702016006015481101561134e57611347818660055460065460078b8154811061132d5761132c614c38565b5b9060005260206000209060070201600601546004546121c0565b92506114a1565b6007868154811061136257611361614c38565b5b90600052602060002090600702016006015482101561148d576114096007878154811061139257611391614c38565b5b90600052602060002090600702016006015483600789815481106113b9576113b8614c38565b5b9060005260206000209060070201600601546113d591906149f1565b60055460065460078b815481106113ef576113ee614c38565b5b9060005260206000209060070201600601546004546121c0565b925061147b6007878154811061142257611421614c38565b5b906000526020600020906007020160060154836007898154811061144957611448614c38565b5b90600052602060002090600702016006015461146591906149f1565b8761147091906149f1565b600554600654612eb7565b836114869190614910565b92506114a0565b61149d8286600554600654612eb7565b92505b5b82935050505092915050565b6114b5612f45565b73ffffffffffffffffffffffffffffffffffffffff166114d3611947565b73ffffffffffffffffffffffffffffffffffffffff1614611529576040517f08c379a000000000000000000000000000000000000000000000000000000000815260040161152090614578565b60405180910390fd5b8073ffffffffffffffffffffffffffffffffffffffff166108fc479081150290604051600060405180830381858888f1935050505015801561156f573d6000803e3d6000fd5b5050565b61157b612f45565b73ffffffffffffffffffffffffffffffffffffffff16611599611947565b73ffffffffffffffffffffffffffffffffffffffff16146115ef576040517f08c379a00000000000000000000000000000000000000000000000000000000081526004016115e690614578565b60405180910390fd5b600073ffffffffffffffffffffffffffffffffffffffff1660008054906101000a900473ffffffffffffffffffffffffffffffffffffffff1673ffffffffffffffffffffffffffffffffffffffff167f8be0079c531659141344cd1fd0a4f28419497f9722a3daafe3b4186f6b6457e060405160405180910390a360008060006101000a81548173ffffffffffffffffffffffffffffffffffffffff021916908373ffffffffffffffffffffffffffffffffffffffff160217905550565b60606007805480602002602001604051908101604052809291908181526020016000905b8282101561193e57838290600052602060002090600702016040518060e00160405290816000820160009054906101000a900473ffffffffffffffffffffffffffffffffffffffff1673ffffffffffffffffffffffffffffffffffffffff1673ffffffffffffffffffffffffffffffffffffffff16815260200160018201805461175a90614aff565b80601f016020809104026020016040519081016040528092919081815260200182805461178690614aff565b80156117d35780601f106117a8576101008083540402835291602001916117d3565b820191906000526020600020905b8154815290600101906020018083116117b657829003601f168201915b505050505081526020016002820180546117ec90614aff565b80601f016020809104026020016040519081016040528092919081815260200182805461181890614aff565b80156118655780601f1061183a57610100808354040283529160200191611865565b820191906000526020600020905b81548152906001019060200180831161184857829003601f168201915b5050505050815260200160038201805461187e90614aff565b80601f01602080910402602001604051908101604052809291908181526020018280546118aa90614aff565b80156118f75780601f106118cc576101008083540402835291602001916118f7565b820191906000526020600020905b8154815290600101906020018083116118da57829003601f168201915b505050505081526020016004820160009054906101000a900460ff1615151515815260200160058201548152602001600682015481525050815260200190600101906116d1565b50505050905090565b60008060009054906101000a900473ffffffffffffffffffffffffffffffffffffffff16905090565b600b602052816000526040600020602052806000526040600020600091509150505481565b80600c60003373ffffffffffffffffffffffffffffffffffffffff1673ffffffffffffffffffffffffffffffffffffffff16815260200190815260200160002060008473ffffffffffffffffffffffffffffffffffffffff1673ffffffffffffffffffffffffffffffffffffffff16815260200190815260200160002060006101000a81548160ff0219169083151502179055508173ffffffffffffffffffffffffffffffffffffffff163373ffffffffffffffffffffffffffffffffffffffff167f17307eab39ab6107e8899845ad3d59bd9653f200f220920489ca2b5937696c3183604051611a8691906144fb565b60405180910390a35050565b600c6020528160005260406000206020528060005260406000206000915091509054906101000a900460ff1681565b600e5481565b6000606460015483611ad99190614997565b611ae39190614966565b9050919050565b600a602052816000526040600020602052806000526040600020600091509150505481565b60035481565b826008600082815260200190815260200160002060009054906101000a900473ffffffffffffffffffffffffffffffffffffffff1673ffffffffffffffffffffffffffffffffffffffff163373ffffffffffffffffffffffffffffffffffffffff1614611b8157600080fd5b828260078681548110611b9757611b96614c38565b5b90600052602060002090600702016001019190611bb59291906134ac565b5050505050565b611bc4612f45565b73ffffffffffffffffffffffffffffffffffffffff16611be2611947565b73ffffffffffffffffffffffffffffffffffffffff1614611c38576040517f08c379a0000000000000000000000000000000000000000000000000000000008152600401611c2f90614578565b60405180910390fd5b8060048190555050565b60078181548110611c5257600080fd5b90600052602060002090600702016000915090508060000160009054906101000a900473ffffffffffffffffffffffffffffffffffffffff1690806001018054611c9b90614aff565b80601f0160208091040260200160405190810160405280929190818152602001828054611cc790614aff565b8015611d145780601f10611ce957610100808354040283529160200191611d14565b820191906000526020600020905b815481529060010190602001808311611cf757829003601f168201915b505050505090806002018054611d2990614aff565b80601f0160208091040260200160405190810160405280929190818152602001828054611d5590614aff565b8015611da25780601f10611d7757610100808354040283529160200191611da2565b820191906000526020600020905b815481529060010190602001808311611d8557829003601f168201915b505050505090806003018054611db790614aff565b80601f0160208091040260200160405190810160405280929190818152602001828054611de390614aff565b8015611e305780601f10611e0557610100808354040283529160200191611e30565b820191906000526020600020905b815481529060010190602001808311611e1357829003601f168201915b5050505050908060040160009054906101000a900460ff16908060050154908060060154905087565b60025481565b60076040518060e001604052808673ffffffffffffffffffffffffffffffffffffffff168152602001858152602001848152602001838152602001600015158152602001600081526020016000815250908060018154018082558091505060019003906000526020600020906007020160009091909190915060008201518160000160006101000a81548173ffffffffffffffffffffffffffffffffffffffff021916908373ffffffffffffffffffffffffffffffffffffffff1602179055506020820151816001019080519060200190611f3b929190613532565b506040820151816002019080519060200190611f58929190613532565b506060820151816003019080519060200190611f75929190613532565b5060808201518160040160006101000a81548160ff02191690831515021790555060a0820151816005015560c08201518160060155505060006001600780549050611fc091906149f1565b9050846008600083815260200190815260200160002060006101000a81548173ffffffffffffffffffffffffffffffffffffffff021916908373ffffffffffffffffffffffffffffffffffffffff160217905550600060096000838152602001908152602001600020819055507f3ef624c0f3fb7ad40b94c02078ea3e3a797dbfc21e921ee4bd2b8ad0ca6aa1138186868686600080600060405161206c9897969594939291906145f5565b60405180910390a15050505050565b612083612f45565b73ffffffffffffffffffffffffffffffffffffffff166120a1611947565b73ffffffffffffffffffffffffffffffffffffffff16146120f7576040517f08c379a00000000000000000000000000000000000000000000000000000000081526004016120ee90614578565b60405180910390fd5b8060018190555050565b600d6020528060005260406000206000915090505481565b826008600082815260200190815260200160002060009054906101000a900473ffffffffffffffffffffffffffffffffffffffff1673ffffffffffffffffffffffffffffffffffffffff163373ffffffffffffffffffffffffffffffffffffffff161461218557600080fd5b82826007868154811061219b5761219a614c38565b5b906000526020600020906007020160030191906121b99291906134ac565b5050505050565b6000806000806121d48a8a8a8a8a8a612f4d565b9250925092506000838b10156121f7576121f084848d85612fc8565b9050612228565b838210156122155761220e84848d858d8d8d61306b565b9050612227565b61222484848d858d8d8d61318d565b90505b5b809450505050509695505050505050565b6122416135b8565b6007828154811061225557612254614c38565b5b90600052602060002090600702016040518060e00160405290816000820160009054906101000a900473ffffffffffffffffffffffffffffffffffffffff1673ffffffffffffffffffffffffffffffffffffffff1673ffffffffffffffffffffffffffffffffffffffff1681526020016001820180546122d490614aff565b80601f016020809104026020016040519081016040528092919081815260200182805461230090614aff565b801561234d5780601f106123225761010080835404028352916020019161234d565b820191906000526020600020905b81548152906001019060200180831161233057829003601f168201915b5050505050815260200160028201805461236690614aff565b80601f016020809104026020016040519081016040528092919081815260200182805461239290614aff565b80156123df5780601f106123b4576101008083540402835291602001916123df565b820191906000526020600020905b8154815290600101906020018083116123c257829003601f168201915b505050505081526020016003820180546123f890614aff565b80601f016020809104026020016040519081016040528092919081815260200182805461242490614aff565b80156124715780601f1061244657610100808354040283529160200191612471565b820191906000526020600020905b81548152906001019060200180831161245457829003601f168201915b505050505081526020016004820160009054906101000a900460ff16151515158152602001600582015481526020016006820154815250509050919050565b6000600c60008473ffffffffffffffffffffffffffffffffffffffff1673ffffffffffffffffffffffffffffffffffffffff16815260200190815260200160002060008373ffffffffffffffffffffffffffffffffffffffff1673ffffffffffffffffffffffffffffffffffffffff16815260200190815260200160002060009054906101000a900460ff16905092915050565b61254c612f45565b73ffffffffffffffffffffffffffffffffffffffff1661256a611947565b73ffffffffffffffffffffffffffffffffffffffff16146125c0576040517f08c379a00000000000000000000000000000000000000000000000000000000081526004016125b790614578565b60405180910390fd5b8073ffffffffffffffffffffffffffffffffffffffff166108fc6003549081150290604051600060405180830381858888f19350505050158015612608573d6000803e3d6000fd5b50600060038190555050565b8473ffffffffffffffffffffffffffffffffffffffff163373ffffffffffffffffffffffffffffffffffffffff161480612654575061265385856124b0565b5b61265d57600080fd5b612668858484612d11565b612673848484612de4565b8373ffffffffffffffffffffffffffffffffffffffff168573ffffffffffffffffffffffffffffffffffffffff163373ffffffffffffffffffffffffffffffffffffffff167fc3d58168c5ae7397731d063d5bbf3d657854427343f4c083240f7aacaa2d0f6286866040516126e9929190614754565b60405180910390a45050505050565b612700612f45565b73ffffffffffffffffffffffffffffffffffffffff1661271e611947565b73ffffffffffffffffffffffffffffffffffffffff1614612774576040517f08c379a000000000000000000000000000000000000000000000000000000000815260040161276b90614578565b60405180910390fd5b600073ffffffffffffffffffffffffffffffffffffffff168173ffffffffffffffffffffffffffffffffffffffff1614156127e4576040517f08c379a00000000000000000000000000000000000000000000000000000000081526004016127db90614558565b60405180910390fd5b8073ffffffffffffffffffffffffffffffffffffffff1660008054906101000a900473ffffffffffffffffffffffffffffffffffffffff1673ffffffffffffffffffffffffffffffffffffffff167f8be0079c531659141344cd1fd0a4f28419497f9722a3daafe3b4186f6b6457e060405160405180910390a3806000806101000a81548173ffffffffffffffffffffffffffffffffffffffff021916908373ffffffffffffffffffffffffffffffffffffffff16021790555050565b6128a9612f45565b73ffffffffffffffffffffffffffffffffffffffff166128c7611947565b73ffffffffffffffffffffffffffffffffffffffff161461291d576040517f08c379a000000000000000000000000000000000000000000000000000000000815260040161291490614578565b60405180910390fd5b806007838154811061293257612931614c38565b5b906000526020600020906007020160040160006101000a81548160ff0219169083151502179055505050565b600061296a838361114f565b905080341461297857600080fd5b600061298484846112a0565b905080600d600086815260200190815260200160002060008282546129a99190614910565b925050819055506129c16129bc82611ac7565b612cdc565b6129dc3385856040518060200160405280600081525061328b565b3373ffffffffffffffffffffffffffffffffffffffff167f1ebb537d8231cf8a6b1b0d1684d85dfd83872c030ffc75f500f0729eaf674d82848660078881548110612a2a57612a29614c38565b5b906000526020600020906007020160010160078981548110612a4f57612a4e614c38565b5b9060005260206000209060070201600201604051612a709493929190614688565b60405180910390a260078481548110612a8c57612a8b614c38565b5b90600052602060002090600702016006015460078581548110612ab257612ab1614c38565b5b9060005260206000209060070201600501541115612b695760078481548110612ade57612add614c38565b5b90600052602060002090600702016005015460078581548110612b0457612b03614c38565b5b906000526020600020906007020160060181905550612b688460078681548110612b3157612b30614c38565b5b906000526020600020906007020160000160009054906101000a900473ffffffffffffffffffffffffffffffffffffffff16613357565b5b50505050565b60007f01ffc9a7000000000000000000000000000000000000000000000000000000007bffffffffffffffffffffffffffffffffffffffffffffffffffffffff1916827bffffffffffffffffffffffffffffffffffffffffffffffffffffffff1916149050919050565b8273ffffffffffffffffffffffffffffffffffffffff163373ffffffffffffffffffffffffffffffffffffffff1614612c1157600080fd5b612c1c838383612d11565b8060078381548110612c3157612c30614c38565b5b90600052602060002090600702016005016000828254612c5191906149f1565b92505081905550600073ffffffffffffffffffffffffffffffffffffffff168373ffffffffffffffffffffffffffffffffffffffff163373ffffffffffffffffffffffffffffffffffffffff167fc3d58168c5ae7397731d063d5bbf3d657854427343f4c083240f7aacaa2d0f628585604051612ccf929190614754565b60405180910390a4505050565b8060026000828254612cee9190614910565b925050819055508060036000828254612d079190614910565b9250508190555050565b80600a600084815260200190815260200160002060008573ffffffffffffffffffffffffffffffffffffffff1673ffffffffffffffffffffffffffffffffffffffff1681526020019081526020016000206000828254612d7191906149f1565b9250508190555080600b60008573ffffffffffffffffffffffffffffffffffffffff1673ffffffffffffffffffffffffffffffffffffffff16815260200190815260200160002060008481526020019081526020016000206000828254612dd891906149f1565b92505081905550505050565b80600a600084815260200190815260200160002060008573ffffffffffffffffffffffffffffffffffffffff1673ffffffffffffffffffffffffffffffffffffffff1681526020019081526020016000206000828254612e449190614910565b9250508190555080600b60008573ffffffffffffffffffffffffffffffffffffffff1673ffffffffffffffffffffffffffffffffffffffff16815260200190815260200160002060008481526020019081526020016000206000828254612eab9190614910565b92505081905550505050565b6000808486612ec69190614910565b90506000838786612ed79190614997565b612ee19190614966565b90506000848387612ef29190614997565b612efc9190614966565b905060008884612f0c91906149f1565b905060006002828486612f1f9190614910565b612f299190614997565b612f339190614966565b90508095505050505050949350505050565b600033905090565b600080600080600286612f609190614966565b9050600087896064886032612f7591906149f1565b8a612f809190614997565b612f8a9190614966565b612f949190614997565b612f9e9190614966565b905060008a8c612fae91906149f1565b905082828295509550955050505096509650969350505050565b6000808286612fd791906149f1565b8686612fe39190614966565b612fed9190614997565b85612ff891906149f1565b90506000848761300891906149f1565b87876130149190614966565b61301e9190614997565b8661302991906149f1565b90506000848661303991906149f1565b9050600281838561304a9190614910565b6130549190614997565b61305e9190614966565b9350505050949350505050565b600080858961307a91906149f1565b89896130869190614966565b6130909190614997565b8861309b91906149f1565b905060008890506000878b6130b091906149f1565b9050600060028284866130c39190614910565b6130cd9190614997565b6130d79190614966565b905060008b8d8c6130e891906149f1565b8e896130f491906149f1565b8e8b8b8e6131029190614997565b61310c9190614966565b61311691906149f1565b6131209190614966565b61312a9190614997565b6131349190614910565b905060008d8c61314491906149f1565b9050600060028284886131579190614910565b6131619190614997565b61316b9190614966565b905080846131799190614910565b975050505050505050979650505050505050565b60008087898761319d91906149f1565b8a856131a991906149f1565b8a87878a6131b79190614997565b6131c19190614966565b6131cb91906149f1565b6131d59190614966565b6131df9190614997565b6131e99190614910565b90506000888a896131fa91906149f1565b8b8661320691906149f1565b8b88888b6132149190614997565b61321e9190614966565b61322891906149f1565b6132329190614966565b61323c9190614997565b6132469190614910565b90506000878961325691906149f1565b905060028183856132679190614910565b6132719190614997565b61327b9190614966565b9350505050979650505050505050565b613296848484612de4565b81600784815481106132ab576132aa614c38565b5b906000526020600020906007020160050160008282546132cb9190614910565b925050819055508373ffffffffffffffffffffffffffffffffffffffff16600073ffffffffffffffffffffffffffffffffffffffff163373ffffffffffffffffffffffffffffffffffffffff167fc3d58168c5ae7397731d063d5bbf3d657854427343f4c083240f7aacaa2d0f628686604051613349929190614754565b60405180910390a450505050565b60006009600084815260200190815260200160002054905060006133f46007858154811061338857613387614c38565b5b906000526020600020906007020160060154600786815481106133ae576133ad614c38565b5b906000526020600020906007020160060154600554600654600789815481106133da576133d9614c38565b5b9060005260206000209060070201600601546004546121c0565b61342a60006007878154811061340d5761340c614c38565b5b906000526020600020906007020160060154600554600654612eb7565b61343491906149f1565b90506000828261344491906149f1565b90508373ffffffffffffffffffffffffffffffffffffffff166108fc829081150290604051600060405180830381858888f1935050505015801561348c573d6000803e3d6000fd5b508160096000878152602001908152602001600020819055505050505050565b8280546134b890614aff565b90600052602060002090601f0160209004810192826134da5760008555613521565b82601f106134f357803560ff1916838001178555613521565b82800160010185558215613521579182015b82811115613520578235825591602001919060010190613505565b5b50905061352e919061360d565b5090565b82805461353e90614aff565b90600052602060002090601f01602090048101928261356057600085556135a7565b82601f1061357957805160ff19168380011785556135a7565b828001600101855582156135a7579182015b828111156135a657825182559160200191906001019061358b565b5b5090506135b4919061360d565b5090565b6040518060e00160405280600073ffffffffffffffffffffffffffffffffffffffff16815260200160608152602001606081526020016060815260200160001515815260200160008152602001600081525090565b5b8082111561362657600081600090555060010161360e565b5090565b600061363d613638846147a2565b61477d565b905080838252602082019050828560208602820111156136605761365f614ca0565b5b60005b858110156136905781613676888261378e565b845260208401935060208301925050600181019050613663565b5050509392505050565b60006136ad6136a8846147ce565b61477d565b905080838252602082019050828560208602820111156136d0576136cf614ca0565b5b60005b8581101561370057816136e688826138f0565b8452602084019350602083019250506001810190506136d3565b5050509392505050565b600061371d613718846147fa565b61477d565b90508281526020810184848401111561373957613738614ca5565b5b613744848285614abd565b509392505050565b600061375f61375a8461482b565b61477d565b90508281526020810184848401111561377b5761377a614ca5565b5b613786848285614abd565b509392505050565b60008135905061379d81614e2d565b92915050565b6000813590506137b281614e44565b92915050565b600082601f8301126137cd576137cc614c9b565b5b81356137dd84826020860161362a565b91505092915050565b600082601f8301126137fb576137fa614c9b565b5b813561380b84826020860161369a565b91505092915050565b60008135905061382381614e5b565b92915050565b60008135905061383881614e72565b92915050565b600082601f83011261385357613852614c9b565b5b813561386384826020860161370a565b91505092915050565b60008083601f84011261388257613881614c9b565b5b8235905067ffffffffffffffff81111561389f5761389e614c96565b5b6020830191508360018202830111156138bb576138ba614ca0565b5b9250929050565b600082601f8301126138d7576138d6614c9b565b5b81356138e784826020860161374c565b91505092915050565b6000813590506138ff81614e89565b92915050565b60006020828403121561391b5761391a614caf565b5b60006139298482850161378e565b91505092915050565b60006020828403121561394857613947614caf565b5b6000613956848285016137a3565b91505092915050565b6000806000806080858703121561397957613978614caf565b5b6000613987878288016137a3565b945050602085013567ffffffffffffffff8111156139a8576139a7614caa565b5b6139b4878288016138c2565b935050604085013567ffffffffffffffff8111156139d5576139d4614caa565b5b6139e1878288016138c2565b925050606085013567ffffffffffffffff811115613a0257613a01614caa565b5b613a0e878288016138c2565b91505092959194509250565b60008060408385031215613a3157613a30614caf565b5b6000613a3f8582860161378e565b9250506020613a508582860161378e565b9150509250929050565b600080600080600060a08688031215613a7657613a75614caf565b5b6000613a848882890161378e565b9550506020613a958882890161378e565b945050604086013567ffffffffffffffff811115613ab657613ab5614caa565b5b613ac2888289016137e6565b935050606086013567ffffffffffffffff811115613ae357613ae2614caa565b5b613aef888289016137e6565b925050608086013567ffffffffffffffff811115613b1057613b0f614caa565b5b613b1c8882890161383e565b9150509295509295909350565b600080600080600060a08688031215613b4557613b44614caf565b5b6000613b538882890161378e565b9550506020613b648882890161378e565b9450506040613b75888289016138f0565b9350506060613b86888289016138f0565b925050608086013567ffffffffffffffff811115613ba757613ba6614caa565b5b613bb38882890161383e565b9150509295509295909350565b60008060408385031215613bd757613bd6614caf565b5b6000613be58582860161378e565b9250506020613bf685828601613814565b9150509250929050565b60008060408385031215613c1757613c16614caf565b5b6000613c258582860161378e565b9250506020613c36858286016138f0565b9150509250929050565b60008060408385031215613c5757613c56614caf565b5b600083013567ffffffffffffffff811115613c7557613c74614caa565b5b613c81858286016137b8565b925050602083013567ffffffffffffffff811115613ca257613ca1614caa565b5b613cae858286016137e6565b9150509250929050565b600060208284031215613cce57613ccd614caf565b5b6000613cdc84828501613829565b91505092915050565b600060208284031215613cfb57613cfa614caf565b5b6000613d09848285016138f0565b91505092915050565b60008060408385031215613d2957613d28614caf565b5b6000613d37858286016138f0565b9250506020613d488582860161378e565b9150509250929050565b60008060408385031215613d6957613d68614caf565b5b6000613d77858286016138f0565b9250506020613d88858286016137a3565b9150509250929050565b60008060408385031215613da957613da8614caf565b5b6000613db7858286016138f0565b9250506020613dc885828601613814565b9150509250929050565b600080600060408486031215613deb57613dea614caf565b5b6000613df9868287016138f0565b935050602084013567ffffffffffffffff811115613e1a57613e19614caa565b5b613e268682870161386c565b92509250509250925092565b60008060408385031215613e4957613e48614caf565b5b6000613e57858286016138f0565b9250506020613e68858286016138f0565b9150509250929050565b600080600060608486031215613e8b57613e8a614caf565b5b6000613e99868287016138f0565b9350506020613eaa868287016138f0565b9250506040613ebb868287016137a3565b9150509250925092565b60008060008060008060c08789031215613ee257613ee1614caf565b5b6000613ef089828a016138f0565b9650506020613f0189828a016138f0565b9550506040613f1289828a016138f0565b9450506060613f2389828a016138f0565b9350506080613f3489828a016138f0565b92505060a0613f4589828a016138f0565b9150509295509295509295565b6000613f5e838361426f565b905092915050565b6000613f7283836143c3565b60208301905092915050565b613f8781614a37565b82525050565b613f9681614a37565b82525050565b613fa581614a25565b82525050565b6000613fb682614891565b613fc081856148cc565b935083602082028501613fd28561485c565b8060005b8581101561400e5784840389528151613fef8582613f52565b9450613ffa836148b2565b925060208a01995050600181019050613fd6565b50829750879550505050505092915050565b600061402b8261489c565b61403581856148dd565b93506140408361486c565b8060005b838110156140715781516140588882613f66565b9750614063836148bf565b925050600181019050614044565b5085935050505092915050565b61408781614a49565b82525050565b61409681614a49565b82525050565b6140a581614aab565b82525050565b60006140b6826148a7565b6140c081856148ee565b93506140d0818560208601614acc565b6140d981614cb4565b840191505092915050565b60006140ef826148a7565b6140f981856148ff565b9350614109818560208601614acc565b61411281614cb4565b840191505092915050565b6000815461412a81614aff565b61413481866148ff565b9450600182166000811461414f576001811461416157614194565b60ff1983168652602086019350614194565b61416a8561487c565b60005b8381101561418c5781548189015260018201915060208101905061416d565b808801955050505b50505092915050565b60006141aa602b836148ff565b91506141b582614cc5565b604082019050919050565b60006141cd6026836148ff565b91506141d882614d14565b604082019050919050565b60006141f06003836148ff565b91506141fb82614d63565b602082019050919050565b60006142136020836148ff565b915061421e82614d8c565b602082019050919050565b60006142366029836148ff565b915061424182614db5565b604082019050919050565b60006142596004836148ff565b915061426482614e04565b602082019050919050565b600060e0830160008301516142876000860182613f7e565b506020830151848203602086015261429f82826140ab565b915050604083015184820360408601526142b982826140ab565b915050606083015184820360608601526142d382826140ab565b91505060808301516142e8608086018261407e565b5060a08301516142fb60a08601826143c3565b5060c083015161430e60c08601826143c3565b508091505092915050565b600060e0830160008301516143316000860182613f7e565b506020830151848203602086015261434982826140ab565b9150506040830151848203604086015261436382826140ab565b9150506060830151848203606086015261437d82826140ab565b9150506080830151614392608086018261407e565b5060a08301516143a560a08601826143c3565b5060c08301516143b860c08601826143c3565b508091505092915050565b6143cc81614aa1565b82525050565b6143db81614aa1565b82525050565b60006020820190506143f66000830184613f9c565b92915050565b600060e082019050614411600083018a613f8d565b818103602083015261442381896140e4565b9050818103604083015261443781886140e4565b9050818103606083015261444b81876140e4565b905061445a608083018661408d565b61446760a08301856143d2565b61447460c08301846143d2565b98975050505050505050565b6000602082019050818103600083015261449a8184613fab565b905092915050565b600060208201905081810360008301526144bc8184614020565b905092915050565b600060408201905081810360008301526144de8185614020565b905081810360208301526144f28184614020565b90509392505050565b6000602082019050614510600083018461408d565b92915050565b6000602082019050818103600083015261453081846140e4565b905092915050565b600060208201905081810360008301526145518161419d565b9050919050565b60006020820190508181036000830152614571816141c0565b9050919050565b6000602082019050818103600083015261459181614206565b9050919050565b600060208201905081810360008301526145b181614229565b9050919050565b600060208201905081810360008301526145d28184614319565b905092915050565b60006020820190506145ef60008301846143d2565b92915050565b60006101008201905061460b600083018b6143d2565b614618602083018a613f8d565b818103604083015261462a81896140e4565b9050818103606083015261463e81886140e4565b9050818103608083015261465281876140e4565b905061466160a083018661408d565b61466e60c083018561409c565b61467b60e083018461409c565b9998505050505050505050565b600060a08201905061469d60008301876143d2565b81810360208301526146ae816141e3565b90506146bd60408301866143d2565b81810360608301526146cf818561411d565b905081810360808301526146e3818461411d565b905095945050505050565b600060a08201905061470360008301876143d2565b81810360208301526147148161424c565b905061472360408301866143d2565b8181036060830152614735818561411d565b90508181036080830152614749818461411d565b905095945050505050565b600060408201905061476960008301856143d2565b61477660208301846143d2565b9392505050565b6000614787614798565b90506147938282614b31565b919050565b6000604051905090565b600067ffffffffffffffff8211156147bd576147bc614c67565b5b602082029050602081019050919050565b600067ffffffffffffffff8211156147e9576147e8614c67565b5b602082029050602081019050919050565b600067ffffffffffffffff82111561481557614814614c67565b5b61481e82614cb4565b9050602081019050919050565b600067ffffffffffffffff82111561484657614845614c67565b5b61484f82614cb4565b9050602081019050919050565b6000819050602082019050919050565b6000819050602082019050919050565b60008190508160005260206000209050919050565b600081519050919050565b600081519050919050565b600081519050919050565b6000602082019050919050565b6000602082019050919050565b600082825260208201905092915050565b600082825260208201905092915050565b600082825260208201905092915050565b600082825260208201905092915050565b600061491b82614aa1565b915061492683614aa1565b9250827fffffffffffffffffffffffffffffffffffffffffffffffffffffffffffffffff0382111561495b5761495a614bab565b5b828201905092915050565b600061497182614aa1565b915061497c83614aa1565b92508261498c5761498b614bda565b5b828204905092915050565b60006149a282614aa1565b91506149ad83614aa1565b9250817fffffffffffffffffffffffffffffffffffffffffffffffffffffffffffffffff04831182151516156149e6576149e5614bab565b5b828202905092915050565b60006149fc82614aa1565b9150614a0783614aa1565b925082821015614a1a57614a19614bab565b5b828203905092915050565b6000614a3082614a81565b9050919050565b6000614a4282614a81565b9050919050565b60008115159050919050565b60007fffffffff0000000000000000000000000000000000000000000000000000000082169050919050565b600073ffffffffffffffffffffffffffffffffffffffff82169050919050565b6000819050919050565b6000614ab682614aa1565b9050919050565b82818337600083830152505050565b60005b83811015614aea578082015181840152602081019050614acf565b83811115614af9576000848401525b50505050565b60006002820490506001821680614b1757607f821691505b60208210811415614b2b57614b2a614c09565b5b50919050565b614b3a82614cb4565b810181811067ffffffffffffffff82111715614b5957614b58614c67565b5b80604052505050565b6000614b6d82614aa1565b91507fffffffffffffffffffffffffffffffffffffffffffffffffffffffffffffffff821415614ba057614b9f614bab565b5b600182019050919050565b7f4e487b7100000000000000000000000000000000000000000000000000000000600052601160045260246000fd5b7f4e487b7100000000000000000000000000000000000000000000000000000000600052601260045260246000fd5b7f4e487b7100000000000000000000000000000000000000000000000000000000600052602260045260246000fd5b7f4e487b7100000000000000000000000000000000000000000000000000000000600052603260045260246000fd5b7f4e487b7100000000000000000000000000000000000000000000000000000000600052604160045260246000fd5b600080fd5b600080fd5b600080fd5b600080fd5b600080fd5b600080fd5b6000601f19601f8301169050919050565b7f455243313135353a2062616c616e636520717565727920666f7220746865207a60008201527f65726f2061646472657373000000000000000000000000000000000000000000602082015250565b7f4f776e61626c653a206e6577206f776e657220697320746865207a65726f206160008201527f6464726573730000000000000000000000000000000000000000000000000000602082015250565b7f6275790000000000000000000000000000000000000000000000000000000000600082015250565b7f4f776e61626c653a2063616c6c6572206973206e6f7420746865206f776e6572600082015250565b7f455243313135353a206163636f756e747320616e6420696473206c656e67746860008201527f206d69736d617463680000000000000000000000000000000000000000000000602082015250565b7f73656c6c00000000000000000000000000000000000000000000000000000000600082015250565b614e3681614a25565b8114614e4157600080fd5b50565b614e4d81614a37565b8114614e5857600080fd5b50565b614e6481614a49565b8114614e6f57600080fd5b50565b614e7b81614a55565b8114614e8657600080fd5b50565b614e9281614aa1565b8114614e9d57600080fd5b5056fea2646970667358221220237c12985857672c1a6598a6cc9e3288fec080c8fba7c2c3da4990eb45409e1864736f6c63430008060033",
  "immutableReferences": {},
  "source": "// SPDX-License-Identifier: MIT\npragma solidity ^0.8.0;\n\nimport \"./creatortokencomputation.sol\";\n\n/// @title Implements high-level buy and sell functions (which users invoke when transacting)\n/// @author Kamil Alizai Sadik\ncontract CreatorTokenExchange is CreatorTokenComputation {\n\n\tconstructor(string memory uri) CreatorTokenComputation(uri) { }\n\n\t// Event that fires when a new transaction occurs\n\tevent NewTransaction(address indexed account, uint amount, string transactionType, uint tokenId, string name, string symbol);\n\n\t/// @dev Allows user to buy a given CreatorToken from the platform\n\t/// @param _tokenId ID of the token being transacted\n\t/// @param _amount Quantity of the token being transacted\n\tfunction buyCreatorToken(uint _tokenId, uint _amount) external payable {\n\t\t// Compute total transaction proceeds required (inclusive of fee)\n\t\tuint totalProceeds = _totalProceeds(_tokenId, _amount);\n\t\t// Require that user sends totalProceeds in order to transact\n\t\trequire(msg.value == totalProceeds);\n\t\t// Compute buy proceeds\n\t\tuint netProceeds = _buyProceeds(_tokenId, _amount);\n\t\t// Update totalValueLocked mapping\n\t\ttotalValueLocked[_tokenId] += netProceeds;\n\t\t// Update platform fee total\n\t\t_platformFeeUpdater(_feeProceeds(netProceeds));\n\t\t// Mint _amount tokens at the user's address (note this increases token amount outstanding)\n\t\t_mint(msg.sender, _tokenId, _amount, \"\");\n\t\t// Emit new transaction event\n\t\temit NewTransaction(msg.sender, _amount, \"buy\", _tokenId, creatorTokens[_tokenId].name, creatorTokens[_tokenId].symbol);\n\t\t// Check if new outstanding amount of token is greater than maxSupply\n\t\tif (creatorTokens[_tokenId].outstanding > creatorTokens[_tokenId].maxSupply) {\n\t\t\t// Update maxSupply\n\t\t\tcreatorTokens[_tokenId].maxSupply = creatorTokens[_tokenId].outstanding;\n\t\t\t// Call _payout to transfer excess liquidity\n\t\t\t_payCreator(_tokenId, creatorTokens[_tokenId].creatorAddress);\n\t\t}\n\t}\n\n\t/// @dev Allows user to sell a given CreatorToken back to the platform\n\t/// @param _tokenId ID of the token being transacted\n\t/// @param _amount Quantity of the token being transacted\n\t/// @param _seller Wallet address of user selling the token\n\tfunction sellCreatorToken(uint _tokenId, uint _amount, address payable _seller) external payable {\n\t\t// Require that user calling function is selling own tokens\n\t\trequire(_seller == msg.sender);\n\t\t// Compute sale proceeds required\n\t\tuint proceedsRequired = _saleFunction(creatorTokens[_tokenId].outstanding, _amount, mNumerator, mDenominator, creatorTokens[_tokenId].maxSupply, profitMargin);\n\t\t// Update totalValueLocked mapping\n\t\ttotalValueLocked[_tokenId] -= proceedsRequired;\n\t\t// Compute fee\n\t\tuint fee = proceedsRequired*platformFee/100;\n\t\t// Add platform fee to obtain real proceedsRequired value\n\t\tproceedsRequired -= fee;\n\t\t// Burn _amount tokens from user's address (note this decreases token amount outstanding)\n\t\t_burn(_seller, _tokenId, _amount);\n\t\t// Send user proceedsRequired wei (less the platform fee) in exchange for the burned tokens\n\t\t_seller.transfer(proceedsRequired); //1500000000000000000); //\n\t\t// Update platform fee total\n\t\t_platformFeeUpdater(fee);\n\t\t// Emit new transaction event\n\t\temit NewTransaction(msg.sender, _amount, \"sell\", _tokenId, creatorTokens[_tokenId].name, creatorTokens[_tokenId].symbol);\n\t}\n}\n",
  "sourcePath": "/Users/kamilalizaisadik/DeFi/Dynamic Automated Market Maker/CreatorTokenExchange/contracts/CreatorTokenExchange.sol",
  "compiler": {
    "name": "solc",
    "version": "0.8.6+commit.11564f7e.Emscripten.clang"
  },
  "schemaVersion": "3.4.1",
  "updatedAt": "2021-07-31T15:41:24.732Z",
  "devdoc": {
    "author": "Kamil Alizai Sadik",
    "kind": "dev",
    "methods": {
      "_buyProceeds(uint256,uint256)": {
        "details": "Calculates proceeds required for a given buy transaction (not including fees)",
        "params": {
          "_amount": "Quantity of the token being transacted",
          "_tokenId": "ID of the token being transacted"
        },
        "returns": {
          "_0": "Proceeds required in the transaction (before fees)"
        }
      },
      "_feeProceeds(uint256)": {
        "details": "Calculates the fee associated with a buy transaction",
        "params": {
          "_proceedsRequired": "The proceeds required for the buy transaction (before addition of fees)"
        },
        "returns": {
          "_0": "Fee associated with transaction"
        }
      },
      "_saleFunction(uint256,uint256,uint256,uint256,uint256,uint256)": {
        "details": "Calculates area under sale price function",
        "params": {
          "_amount": "Amount of token being transacted",
          "_mDenominator": "Denominator of the slope of the buy price function",
          "_mNumerator": "Numerator of the slope of the buy price function",
          "_maxSupply": "Peak level of supply of the token to date",
          "_profitMargin": "percentage of total revenue generated routed to creator",
          "_startingSupply": "Supply of token in circulation before the transaction"
        },
        "returns": {
          "_0": "Area under sale price function denoting total proceeds received when selling _amount tokens (before fees)"
        }
      },
      "_totalProceeds(uint256,uint256)": {
        "details": "Calculates total transaction proceeds",
        "params": {
          "_amount": "Quantity of the token being transacted",
          "_tokenId": "ID of the token being transacted"
        },
        "returns": {
          "_0": "Total proceeds required in transaction"
        }
      },
      "balanceOf(address,uint256)": {
        "details": "See {IERC1155-balanceOf}. Requirements: - `account` cannot be the zero address."
      },
      "balanceOfBatch(address[],uint256[])": {
        "details": "See {IERC1155-balanceOfBatch}. Requirements: - `accounts` and `ids` must have the same length."
      },
      "buyCreatorToken(uint256,uint256)": {
        "details": "Allows user to buy a given CreatorToken from the platform",
        "params": {
          "_amount": "Quantity of the token being transacted",
          "_tokenId": "ID of the token being transacted"
        }
      },
      "changeAddress(uint256,address)": {
        "details": "Allows token creator to change their address",
        "params": {
          "_newCreatorAddress": "New creator address associated with the token",
          "_tokenId": "ID of the token in question"
        }
      },
      "changeDescription(uint256,string)": {
        "details": "Allows token creator to change the description of their token",
        "params": {
          "_newDescription": "New description associated with the token",
          "_tokenId": "ID of the token in question"
        }
      },
      "changeName(uint256,string)": {
        "details": "Allows token creator to change the name of their token",
        "params": {
          "_newName": "New name associated with the token",
          "_tokenId": "ID of the token in question"
        }
      },
      "changePlatformFee(uint256)": {
        "details": "Allows owner to change platformFee",
        "params": {
          "_newPlatformFee": "New platform fee"
        }
      },
      "changeProfitMargin(uint256)": {
        "details": "Allows owner to change profit_margin",
        "params": {
          "_newProfitMargin": "New profit margin"
        }
      },
      "changeSymbol(uint256,string)": {
        "details": "Allows token creator to change the symbol of their token",
        "params": {
          "_newSymbol": "New symbol associated with the token",
          "_tokenId": "ID of the token in question"
        }
      },
      "changeVerification(uint256,bool)": {
        "details": "Allows owner to verify (or undo verification) of a CreatorToken",
        "params": {
          "_tokenId": "ID of the token in question",
          "_verified": "Verification status of the token in question"
        }
      },
      "createCreatorToken(address,string,string,string)": {
        "details": "Creates a new creator token",
        "params": {
          "_creatorAddress": "Address of the creator of the token",
          "_description": "chosen by the creator of the tokens",
          "_name": "Name chosen by the creator of the token",
          "_symbol": "Ticker symbol chosen by the creator of the token"
        }
      },
      "getCreatorTokenCount()": {
        "details": "Returns the current length of the creatorTokens array",
        "returns": {
          "_0": "uint representing number of unique Creator Tokens"
        }
      },
      "getCreatorTokens()": {
        "details": "Returns entire array of tokens",
        "returns": {
          "_0": "CreatorToken[]"
        }
      },
      "getToken(uint256)": {
        "details": "Returns token with a particular id",
        "params": {
          "_id": "Id of desired token"
        },
        "returns": {
          "_0": "CreatorToken"
        }
      },
      "isApprovedForAll(address,address)": {
        "details": "Denotes whether operator is approved to transfer account's tokens",
        "params": {
          "_account": "Wallet address holding tokens",
          "_operator": "Wallet address which is/isn't approved to transfer _account's tokens"
        },
        "returns": {
          "_0": "Boolean value indicating approval status"
        }
      },
      "owner()": {
        "details": "Returns the address of the current owner."
      },
      "payoutPlatformFees(address)": {
        "details": "Pays out platform fees owed to owner (might opt to call this daily)",
        "params": {
          "_owner": "Owner of the smart contract"
        }
      },
      "renounceOwnership()": {
        "details": "Leaves the contract without owner. It will not be possible to call `onlyOwner` functions anymore. Can only be called by the current owner. NOTE: Renouncing ownership will leave the contract without an owner, thereby removing any functionality that is only available to the owner."
      },
      "safeBatchTransferFrom(address,address,uint256[],uint256[],bytes)": {
        "details": "Transfers a batch of tokens",
        "params": {
          "_amounts": "Array of quantities of token to be transferred",
          "_data": "Data",
          "_from": "Address token is being transferred from",
          "_ids": "Array of IDs of tokens being transferred",
          "_to": "Address token is being transferred to"
        }
      },
      "safeTransferFrom(address,address,uint256,uint256,bytes)": {
        "details": "Transfers a token",
        "params": {
          "_amount": "Quantity of token to be transferred",
          "_data": "Data",
          "_from": "Address token is being transferred from",
          "_id": "ID of token being transferred",
          "_to": "Address token is being transferred to"
        }
      },
      "sellCreatorToken(uint256,uint256,address)": {
        "details": "Allows user to sell a given CreatorToken back to the platform",
        "params": {
          "_amount": "Quantity of the token being transacted",
          "_seller": "Wallet address of user selling the token",
          "_tokenId": "ID of the token being transacted"
        }
      },
      "setApprovalForAll(address,bool)": {
        "details": "Gives operator permission to transfer caller's tokens",
        "params": {
          "_approved": "Boolean value indicating whether operator is approved",
          "_operator": "Wallet address being granted permission"
        }
      },
      "supportsInterface(bytes4)": {
        "details": "See {IERC165-supportsInterface}."
      },
      "transferOwnership(address)": {
        "details": "Transfers ownership of the contract to a new account (`newOwner`). Can only be called by the current owner."
      },
      "uri(uint256)": {
        "details": "See {IERC1155MetadataURI-uri}. This implementation returns the same URI for *all* token types. It relies on the token type ID substitution mechanism https://eips.ethereum.org/EIPS/eip-1155#metadata[defined in the EIP]. Clients calling this function must replace the `\\{id\\}` substring with the actual token type ID."
      },
      "withdraw(address)": {
        "details": "Ownable function allowing for withdrawal",
        "params": {
          "_owner": "Owner of the smart contract"
        }
      }
    },
    "title": "Implements high-level buy and sell functions (which users invoke when transacting)",
    "version": 1
  },
  "userdoc": {
    "kind": "user",
    "methods": {},
    "version": 1
  }
}