{
  "contractName": "CreatorTokenOwnership",
  "abi": [
    {
      "inputs": [
        {
          "internalType": "string",
          "name": "uri",
          "type": "string"
        }
      ],
      "stateMutability": "nonpayable",
      "type": "constructor"
    },
    {
      "anonymous": false,
      "inputs": [
        {
          "indexed": true,
          "internalType": "address",
          "name": "account",
          "type": "address"
        },
        {
          "indexed": true,
          "internalType": "address",
          "name": "operator",
          "type": "address"
        },
        {
          "indexed": false,
          "internalType": "bool",
          "name": "approved",
          "type": "bool"
        }
      ],
      "name": "ApprovalForAll",
      "type": "event"
    },
    {
      "anonymous": false,
      "inputs": [
        {
          "indexed": false,
          "internalType": "uint256",
          "name": "tokenId",
          "type": "uint256"
        },
        {
          "indexed": false,
          "internalType": "string",
          "name": "name",
          "type": "string"
        },
        {
          "indexed": false,
          "internalType": "string",
          "name": "symbol",
          "type": "string"
        }
      ],
      "name": "NewCreatorToken",
      "type": "event"
    },
    {
      "anonymous": false,
      "inputs": [
        {
          "indexed": true,
          "internalType": "address",
          "name": "previousOwner",
          "type": "address"
        },
        {
          "indexed": true,
          "internalType": "address",
          "name": "newOwner",
          "type": "address"
        }
      ],
      "name": "OwnershipTransferred",
      "type": "event"
    },
    {
      "anonymous": false,
      "inputs": [
        {
          "indexed": false,
          "internalType": "address",
          "name": "account",
          "type": "address"
        }
      ],
      "name": "Paused",
      "type": "event"
    },
    {
      "anonymous": false,
      "inputs": [
        {
          "indexed": true,
          "internalType": "bytes32",
          "name": "role",
          "type": "bytes32"
        },
        {
          "indexed": true,
          "internalType": "bytes32",
          "name": "previousAdminRole",
          "type": "bytes32"
        },
        {
          "indexed": true,
          "internalType": "bytes32",
          "name": "newAdminRole",
          "type": "bytes32"
        }
      ],
      "name": "RoleAdminChanged",
      "type": "event"
    },
    {
      "anonymous": false,
      "inputs": [
        {
          "indexed": true,
          "internalType": "bytes32",
          "name": "role",
          "type": "bytes32"
        },
        {
          "indexed": true,
          "internalType": "address",
          "name": "account",
          "type": "address"
        },
        {
          "indexed": true,
          "internalType": "address",
          "name": "sender",
          "type": "address"
        }
      ],
      "name": "RoleGranted",
      "type": "event"
    },
    {
      "anonymous": false,
      "inputs": [
        {
          "indexed": true,
          "internalType": "bytes32",
          "name": "role",
          "type": "bytes32"
        },
        {
          "indexed": true,
          "internalType": "address",
          "name": "account",
          "type": "address"
        },
        {
          "indexed": true,
          "internalType": "address",
          "name": "sender",
          "type": "address"
        }
      ],
      "name": "RoleRevoked",
      "type": "event"
    },
    {
      "anonymous": false,
      "inputs": [
        {
          "indexed": true,
          "internalType": "address",
          "name": "operator",
          "type": "address"
        },
        {
          "indexed": true,
          "internalType": "address",
          "name": "from",
          "type": "address"
        },
        {
          "indexed": true,
          "internalType": "address",
          "name": "to",
          "type": "address"
        },
        {
          "indexed": false,
          "internalType": "uint256[]",
          "name": "ids",
          "type": "uint256[]"
        },
        {
          "indexed": false,
          "internalType": "uint256[]",
          "name": "values",
          "type": "uint256[]"
        }
      ],
      "name": "TransferBatch",
      "type": "event"
    },
    {
      "anonymous": false,
      "inputs": [
        {
          "indexed": true,
          "internalType": "address",
          "name": "operator",
          "type": "address"
        },
        {
          "indexed": true,
          "internalType": "address",
          "name": "from",
          "type": "address"
        },
        {
          "indexed": true,
          "internalType": "address",
          "name": "to",
          "type": "address"
        },
        {
          "indexed": false,
          "internalType": "uint256",
          "name": "id",
          "type": "uint256"
        },
        {
          "indexed": false,
          "internalType": "uint256",
          "name": "value",
          "type": "uint256"
        }
      ],
      "name": "TransferSingle",
      "type": "event"
    },
    {
      "anonymous": false,
      "inputs": [
        {
          "indexed": false,
          "internalType": "string",
          "name": "value",
          "type": "string"
        },
        {
          "indexed": true,
          "internalType": "uint256",
          "name": "id",
          "type": "uint256"
        }
      ],
      "name": "URI",
      "type": "event"
    },
    {
      "anonymous": false,
      "inputs": [
        {
          "indexed": false,
          "internalType": "address",
          "name": "account",
          "type": "address"
        }
      ],
      "name": "Unpaused",
      "type": "event"
    },
    {
      "inputs": [],
      "name": "DEFAULT_ADMIN_ROLE",
      "outputs": [
        {
          "internalType": "bytes32",
          "name": "",
          "type": "bytes32"
        }
      ],
      "stateMutability": "view",
      "type": "function"
    },
    {
      "inputs": [],
      "name": "MINTER_ROLE",
      "outputs": [
        {
          "internalType": "bytes32",
          "name": "",
          "type": "bytes32"
        }
      ],
      "stateMutability": "view",
      "type": "function"
    },
    {
      "inputs": [],
      "name": "PAUSER_ROLE",
      "outputs": [
        {
          "internalType": "bytes32",
          "name": "",
          "type": "bytes32"
        }
      ],
      "stateMutability": "view",
      "type": "function"
    },
    {
      "inputs": [
        {
          "internalType": "uint256",
          "name": "_tokenId",
          "type": "uint256"
        },
        {
          "internalType": "address payable",
          "name": "_newCreatorAddress",
          "type": "address"
        }
      ],
      "name": "changeAddress",
      "outputs": [],
      "stateMutability": "nonpayable",
      "type": "function"
    },
    {
      "inputs": [
        {
          "internalType": "uint256",
          "name": "_tokenId",
          "type": "uint256"
        },
        {
          "internalType": "string",
          "name": "_newDescription",
          "type": "string"
        }
      ],
      "name": "changeDescriptoin",
      "outputs": [],
      "stateMutability": "nonpayable",
      "type": "function"
    },
    {
      "inputs": [
        {
          "internalType": "uint256",
          "name": "_tokenId",
          "type": "uint256"
        },
        {
          "internalType": "string",
          "name": "_newName",
          "type": "string"
        }
      ],
      "name": "changeName",
      "outputs": [],
      "stateMutability": "nonpayable",
      "type": "function"
    },
    {
      "inputs": [
        {
          "internalType": "uint256",
          "name": "_newPlatformFee",
          "type": "uint256"
        }
      ],
      "name": "changePlatformFee",
      "outputs": [],
      "stateMutability": "nonpayable",
      "type": "function"
    },
    {
      "inputs": [
        {
          "internalType": "uint256",
          "name": "_newProfitMargin",
          "type": "uint256"
        }
      ],
      "name": "changeProfitMargin",
      "outputs": [],
      "stateMutability": "nonpayable",
      "type": "function"
    },
    {
      "inputs": [
        {
          "internalType": "uint256",
          "name": "_tokenId",
          "type": "uint256"
        },
        {
          "internalType": "string",
          "name": "_newSymbol",
          "type": "string"
        }
      ],
      "name": "changeSymbol",
      "outputs": [],
      "stateMutability": "nonpayable",
      "type": "function"
    },
    {
      "inputs": [
        {
          "internalType": "uint256",
          "name": "_tokenId",
          "type": "uint256"
        },
        {
          "internalType": "bool",
          "name": "_verified",
          "type": "bool"
        }
      ],
      "name": "changeVerification",
      "outputs": [],
      "stateMutability": "nonpayable",
      "type": "function"
    },
    {
      "inputs": [
        {
          "internalType": "address payable",
          "name": "_creatorAddress",
          "type": "address"
        },
        {
          "internalType": "string",
          "name": "_name",
          "type": "string"
        },
        {
          "internalType": "string",
          "name": "_symbol",
          "type": "string"
        },
        {
          "internalType": "string",
          "name": "_description",
          "type": "string"
        }
      ],
      "name": "createCreatorToken",
      "outputs": [],
      "stateMutability": "nonpayable",
      "type": "function"
    },
    {
      "inputs": [
        {
          "internalType": "uint256",
          "name": "",
          "type": "uint256"
        }
      ],
      "name": "creatorTokens",
      "outputs": [
        {
          "internalType": "address payable",
          "name": "creatorAddress",
          "type": "address"
        },
        {
          "internalType": "string",
          "name": "name",
          "type": "string"
        },
        {
          "internalType": "string",
          "name": "symbol",
          "type": "string"
        },
        {
          "internalType": "string",
          "name": "description",
          "type": "string"
        },
        {
          "internalType": "bool",
          "name": "verified",
          "type": "bool"
        },
        {
          "internalType": "uint256",
          "name": "outstanding",
          "type": "uint256"
        },
        {
          "internalType": "uint256",
          "name": "maxSupply",
          "type": "uint256"
        }
      ],
      "stateMutability": "view",
      "type": "function"
    },
    {
      "inputs": [
        {
          "internalType": "bytes32",
          "name": "role",
          "type": "bytes32"
        }
      ],
      "name": "getRoleAdmin",
      "outputs": [
        {
          "internalType": "bytes32",
          "name": "",
          "type": "bytes32"
        }
      ],
      "stateMutability": "view",
      "type": "function"
    },
    {
      "inputs": [
        {
          "internalType": "bytes32",
          "name": "role",
          "type": "bytes32"
        },
        {
          "internalType": "uint256",
          "name": "index",
          "type": "uint256"
        }
      ],
      "name": "getRoleMember",
      "outputs": [
        {
          "internalType": "address",
          "name": "",
          "type": "address"
        }
      ],
      "stateMutability": "view",
      "type": "function"
    },
    {
      "inputs": [
        {
          "internalType": "bytes32",
          "name": "role",
          "type": "bytes32"
        }
      ],
      "name": "getRoleMemberCount",
      "outputs": [
        {
          "internalType": "uint256",
          "name": "",
          "type": "uint256"
        }
      ],
      "stateMutability": "view",
      "type": "function"
    },
    {
      "inputs": [
        {
          "internalType": "bytes32",
          "name": "role",
          "type": "bytes32"
        },
        {
          "internalType": "address",
          "name": "account",
          "type": "address"
        }
      ],
      "name": "grantRole",
      "outputs": [],
      "stateMutability": "nonpayable",
      "type": "function"
    },
    {
      "inputs": [
        {
          "internalType": "bytes32",
          "name": "role",
          "type": "bytes32"
        },
        {
          "internalType": "address",
          "name": "account",
          "type": "address"
        }
      ],
      "name": "hasRole",
      "outputs": [
        {
          "internalType": "bool",
          "name": "",
          "type": "bool"
        }
      ],
      "stateMutability": "view",
      "type": "function"
    },
    {
      "inputs": [],
      "name": "owner",
      "outputs": [
        {
          "internalType": "address",
          "name": "",
          "type": "address"
        }
      ],
      "stateMutability": "view",
      "type": "function"
    },
    {
      "inputs": [],
      "name": "pause",
      "outputs": [],
      "stateMutability": "nonpayable",
      "type": "function"
    },
    {
      "inputs": [],
      "name": "paused",
      "outputs": [
        {
          "internalType": "bool",
          "name": "",
          "type": "bool"
        }
      ],
      "stateMutability": "view",
      "type": "function"
    },
    {
      "inputs": [
        {
          "internalType": "address payable",
          "name": "_owner",
          "type": "address"
        }
      ],
      "name": "payoutPlatformFees",
      "outputs": [],
      "stateMutability": "nonpayable",
      "type": "function"
    },
    {
      "inputs": [],
      "name": "renounceOwnership",
      "outputs": [],
      "stateMutability": "nonpayable",
      "type": "function"
    },
    {
      "inputs": [
        {
          "internalType": "bytes32",
          "name": "role",
          "type": "bytes32"
        },
        {
          "internalType": "address",
          "name": "account",
          "type": "address"
        }
      ],
      "name": "renounceRole",
      "outputs": [],
      "stateMutability": "nonpayable",
      "type": "function"
    },
    {
      "inputs": [
        {
          "internalType": "bytes32",
          "name": "role",
          "type": "bytes32"
        },
        {
          "internalType": "address",
          "name": "account",
          "type": "address"
        }
      ],
      "name": "revokeRole",
      "outputs": [],
      "stateMutability": "nonpayable",
      "type": "function"
    },
    {
      "inputs": [
        {
          "internalType": "bytes4",
          "name": "interfaceId",
          "type": "bytes4"
        }
      ],
      "name": "supportsInterface",
      "outputs": [
        {
          "internalType": "bool",
          "name": "",
          "type": "bool"
        }
      ],
      "stateMutability": "view",
      "type": "function"
    },
    {
      "inputs": [
        {
          "internalType": "uint256",
          "name": "",
          "type": "uint256"
        }
      ],
      "name": "tokenToCreator",
      "outputs": [
        {
          "internalType": "address",
          "name": "",
          "type": "address"
        }
      ],
      "stateMutability": "view",
      "type": "function"
    },
    {
      "inputs": [
        {
          "internalType": "address",
          "name": "newOwner",
          "type": "address"
        }
      ],
      "name": "transferOwnership",
      "outputs": [],
      "stateMutability": "nonpayable",
      "type": "function"
    },
    {
      "inputs": [],
      "name": "unpause",
      "outputs": [],
      "stateMutability": "nonpayable",
      "type": "function"
    },
    {
      "inputs": [
        {
          "internalType": "uint256",
          "name": "",
          "type": "uint256"
        }
      ],
      "name": "uri",
      "outputs": [
        {
          "internalType": "string",
          "name": "",
          "type": "string"
        }
      ],
      "stateMutability": "view",
      "type": "function"
    },
    {
      "inputs": [
        {
          "internalType": "address payable",
          "name": "_owner",
          "type": "address"
        }
      ],
      "name": "withdraw",
      "outputs": [],
      "stateMutability": "nonpayable",
      "type": "function"
    },
    {
      "inputs": [
        {
          "internalType": "address",
          "name": "_to",
          "type": "address"
        },
        {
          "internalType": "uint256",
          "name": "_id",
          "type": "uint256"
        },
        {
          "internalType": "uint256",
          "name": "_amount",
          "type": "uint256"
        },
        {
          "internalType": "bytes",
          "name": "_data",
          "type": "bytes"
        }
      ],
      "name": "mint",
      "outputs": [],
      "stateMutability": "nonpayable",
      "type": "function"
    },
    {
      "inputs": [
        {
          "internalType": "address",
          "name": "_to",
          "type": "address"
        },
        {
          "internalType": "uint256[]",
          "name": "_ids",
          "type": "uint256[]"
        },
        {
          "internalType": "uint256[]",
          "name": "_amounts",
          "type": "uint256[]"
        },
        {
          "internalType": "bytes",
          "name": "data",
          "type": "bytes"
        }
      ],
      "name": "mintBatch",
      "outputs": [],
      "stateMutability": "nonpayable",
      "type": "function"
    },
    {
      "inputs": [
        {
          "internalType": "address",
          "name": "_account",
          "type": "address"
        },
        {
          "internalType": "uint256",
          "name": "_id",
          "type": "uint256"
        },
        {
          "internalType": "uint256",
          "name": "_amount",
          "type": "uint256"
        }
      ],
      "name": "burn",
      "outputs": [],
      "stateMutability": "nonpayable",
      "type": "function"
    },
    {
      "inputs": [
        {
          "internalType": "address",
          "name": "_account",
          "type": "address"
        },
        {
          "internalType": "uint256[]",
          "name": "_ids",
          "type": "uint256[]"
        },
        {
          "internalType": "uint256[]",
          "name": "_amounts",
          "type": "uint256[]"
        }
      ],
      "name": "burnBatch",
      "outputs": [],
      "stateMutability": "nonpayable",
      "type": "function"
    },
    {
      "inputs": [
        {
          "internalType": "address",
          "name": "_from",
          "type": "address"
        },
        {
          "internalType": "address",
          "name": "_to",
          "type": "address"
        },
        {
          "internalType": "uint256",
          "name": "_id",
          "type": "uint256"
        },
        {
          "internalType": "uint256",
          "name": "_amount",
          "type": "uint256"
        },
        {
          "internalType": "bytes",
          "name": "_data",
          "type": "bytes"
        }
      ],
      "name": "safeTransferFrom",
      "outputs": [],
      "stateMutability": "nonpayable",
      "type": "function"
    },
    {
      "inputs": [
        {
          "internalType": "address",
          "name": "_from",
          "type": "address"
        },
        {
          "internalType": "address",
          "name": "_to",
          "type": "address"
        },
        {
          "internalType": "uint256[]",
          "name": "_ids",
          "type": "uint256[]"
        },
        {
          "internalType": "uint256[]",
          "name": "_amounts",
          "type": "uint256[]"
        },
        {
          "internalType": "bytes",
          "name": "data",
          "type": "bytes"
        }
      ],
      "name": "safeBatchTransferFrom",
      "outputs": [],
      "stateMutability": "nonpayable",
      "type": "function"
    },
    {
      "inputs": [
        {
          "internalType": "address",
          "name": "_account",
          "type": "address"
        },
        {
          "internalType": "uint256",
          "name": "_id",
          "type": "uint256"
        }
      ],
      "name": "balanceOf",
      "outputs": [
        {
          "internalType": "uint256",
          "name": "",
          "type": "uint256"
        }
      ],
      "stateMutability": "view",
      "type": "function"
    },
    {
      "inputs": [
        {
          "internalType": "address[]",
          "name": "_accounts",
          "type": "address[]"
        },
        {
          "internalType": "uint256[]",
          "name": "_ids",
          "type": "uint256[]"
        }
      ],
      "name": "balanceOfBatch",
      "outputs": [
        {
          "internalType": "uint256[]",
          "name": "",
          "type": "uint256[]"
        }
      ],
      "stateMutability": "view",
      "type": "function"
    },
    {
      "inputs": [
        {
          "internalType": "address",
          "name": "_operator",
          "type": "address"
        },
        {
          "internalType": "bool",
          "name": "_approved",
          "type": "bool"
        }
      ],
      "name": "setApprovalForAll",
      "outputs": [],
      "stateMutability": "nonpayable",
      "type": "function"
    },
    {
      "inputs": [
        {
          "internalType": "address",
          "name": "_account",
          "type": "address"
        },
        {
          "internalType": "address",
          "name": "_operator",
          "type": "address"
        }
      ],
      "name": "isApprovedForAll",
      "outputs": [
        {
          "internalType": "bool",
          "name": "",
          "type": "bool"
        }
      ],
      "stateMutability": "view",
      "type": "function"
    }
  ],
  "bytecode": "0x6080604052600180556000600255600060035560146004556009600555620186a06006556006546005546200003591906200068a565b6007553480156200004557600080fd5b50604051620052203803806200522083398181016040528101906200006b9190620005da565b808060006200007f620001f860201b60201c565b9050806000806101000a81548173ffffffffffffffffffffffffffffffffffffffff021916908373ffffffffffffffffffffffffffffffffffffffff1602179055508073ffffffffffffffffffffffffffffffffffffffff16600073ffffffffffffffffffffffffffffffffffffffff167f8be0079c531659141344cd1fd0a4f28419497f9722a3daafe3b4186f6b6457e060405160405180910390a3506200012e816200020060201b60201c565b506000601260006101000a81548160ff0219169083151502179055506200016e6000801b62000162620001f860201b60201c565b6200021c60201b60201c565b620001af7f9f2df0fed2c77648de5860a4cc508cd0818c85b8b8a1ab4ceeef8d981c8956a6620001a3620001f860201b60201c565b6200021c60201b60201c565b620001f07f65d7a28e3265b37a6474929f336521b332c1681b933f6cb9f3376673440d862a620001e4620001f860201b60201c565b6200021c60201b60201c565b505062000820565b600033905090565b806011908051906020019062000218929190620004ac565b5050565b6200023382826200026460201b620024631760201c565b6200025f81600e60008581526020019081526020016000206200027a60201b620024711790919060201c565b505050565b620002768282620002b260201b60201c565b5050565b6000620002aa836000018373ffffffffffffffffffffffffffffffffffffffff1660001b620003a460201b60201c565b905092915050565b620002c482826200041e60201b60201c565b620003a0576001600d600084815260200190815260200160002060000160008373ffffffffffffffffffffffffffffffffffffffff1673ffffffffffffffffffffffffffffffffffffffff16815260200190815260200160002060006101000a81548160ff02191690831515021790555062000345620001f860201b60201c565b73ffffffffffffffffffffffffffffffffffffffff168173ffffffffffffffffffffffffffffffffffffffff16837f2f8788117e7eff1d82e926ec794901d17c78024a50270940304540a733656f0d60405160405180910390a45b5050565b6000620003b883836200048960201b60201c565b6200041357826000018290806001815401808255809150506001900390600052602060002001600090919091909150558260000180549050836001016000848152602001908152602001600020819055506001905062000418565b600090505b92915050565b6000600d600084815260200190815260200160002060000160008373ffffffffffffffffffffffffffffffffffffffff1673ffffffffffffffffffffffffffffffffffffffff16815260200190815260200160002060009054906101000a900460ff16905092915050565b600080836001016000848152602001908152602001600020541415905092915050565b828054620004ba9062000702565b90600052602060002090601f016020900481019282620004de57600085556200052a565b82601f10620004f957805160ff19168380011785556200052a565b828001600101855582156200052a579182015b82811115620005295782518255916020019190600101906200050c565b5b5090506200053991906200053d565b5090565b5b80821115620005585760008160009055506001016200053e565b5090565b6000620005736200056d8462000654565b6200062b565b90508281526020810184848401111562000592576200059162000800565b5b6200059f848285620006cc565b509392505050565b600082601f830112620005bf57620005be620007fb565b5b8151620005d18482602086016200055c565b91505092915050565b600060208284031215620005f357620005f26200080a565b5b600082015167ffffffffffffffff81111562000614576200061362000805565b5b6200062284828501620005a7565b91505092915050565b6000620006376200064a565b905062000645828262000738565b919050565b6000604051905090565b600067ffffffffffffffff821115620006725762000671620007cc565b5b6200067d826200080f565b9050602081019050919050565b60006200069782620006c2565b9150620006a483620006c2565b925082620006b757620006b66200076e565b5b828204905092915050565b6000819050919050565b60005b83811015620006ec578082015181840152602081019050620006cf565b83811115620006fc576000848401525b50505050565b600060028204905060018216806200071b57607f821691505b602082108114156200073257620007316200079d565b5b50919050565b62000743826200080f565b810181811067ffffffffffffffff82111715620007655762000764620007cc565b5b80604052505050565b7f4e487b7100000000000000000000000000000000000000000000000000000000600052601260045260246000fd5b7f4e487b7100000000000000000000000000000000000000000000000000000000600052602260045260246000fd5b7f4e487b7100000000000000000000000000000000000000000000000000000000600052604160045260246000fd5b600080fd5b600080fd5b600080fd5b600080fd5b6000601f19601f8301169050919050565b6149f080620008306000396000f3fe608060405234801561001057600080fd5b50600436106102475760003560e01c80638da5cb5b1161013b578063d547741f116100b8578063eb8417591161007c578063eb841759146106d6578063f242432a146106f2578063f2fde38b1461070e578063f5298aca1461072a578063f7374e2e1461074657610247565b8063d547741f14610634578063d56b72c714610650578063d7a5791a1461066c578063e63ab1e914610688578063e985e9c5146106a657610247565b8063c39cbef1116100ff578063c39cbef114610578578063c539c31714610594578063ca15c873146105b0578063ce901d8a146105e0578063d53913931461061657610247565b80638da5cb5b146104c05780639010d07c146104de57806391d148541461050e578063a217fddf1461053e578063a22cb4651461055c57610247565b80632f2ff15d116101c95780635c975abb1161018d5780635c975abb146104565780636b20c45414610474578063715018a614610490578063731133e91461049a5780638456cb59146104b657610247565b80632f2ff15d146103c857806336568abe146103e45780633f4ba83a146104005780634e1273f41461040a57806351cff8d91461043a57610247565b80631d5ad18b116102105780631d5ad18b146103285780631f7fdffa14610344578063241b371c14610360578063248a9ca31461037c5780632eb2c2d6146103ac57610247565b8062fdd58e1461024c57806301ffc9a71461027c57806306e320f5146102ac5780630e89341c146102c857806318892ae8146102f8575b600080fd5b6102666004803603810190610261919061388a565b610762565b604051610273919061416d565b60405180910390f35b61029660048036038101906102919190613ace565b6107bd565b6040516102a39190613ff5565b60405180910390f35b6102c660048036038101906102c19190613ba8565b6107cf565b005b6102e260048036038101906102dd9190613afb565b610876565b6040516102ef919061402b565b60405180910390f35b610312600480360381019061030d9190613afb565b61090a565b60405161031f9190613efd565b60405180910390f35b610342600480360381019061033d9190613b28565b61093d565b005b61035e6004803603810190610359919061378f565b610a12565b005b61037a60048036038101906103759190613ba8565b610bc2565b005b61039660048036038101906103919190613a21565b610c69565b6040516103a39190614010565b60405180910390f35b6103c660048036038101906103c1919061359e565b610c89565b005b6103e260048036038101906103dd9190613a4e565b610e64565b005b6103fe60048036038101906103f99190613a4e565b610e98565b005b610408610ecc565b005b610424600480360381019061041f91906139a0565b610f46565b6040516104319190613f9c565b60405180910390f35b610454600480360381019061044f9190613476565b611076565b005b61045e61113c565b60405161046b9190613ff5565b60405180910390f35b61048e60048036038101906104899190613704565b611153565b005b610498611302565b005b6104b460048036038101906104af919061391d565b61143c565b005b6104be611564565b005b6104c86115de565b6040516104d59190613efd565b60405180910390f35b6104f860048036038101906104f39190613a8e565b611607565b6040516105059190613efd565b60405180910390f35b61052860048036038101906105239190613a4e565b611636565b6040516105359190613ff5565b60405180910390f35b6105466116a1565b6040516105539190614010565b60405180910390f35b6105766004803603810190610571919061384a565b6116a8565b005b610592600480360381019061058d9190613ba8565b6117a5565b005b6105ae60048036038101906105a99190613afb565b61184c565b005b6105ca60048036038101906105c59190613a21565b6118d2565b6040516105d7919061416d565b60405180910390f35b6105fa60048036038101906105f59190613afb565b6118f6565b60405161060d9796959493929190613f18565b60405180910390f35b61061e611b0d565b60405161062b9190614010565b60405180910390f35b61064e60048036038101906106499190613a4e565b611b31565b005b61066a600480360381019061066591906134a3565b611b65565b005b61068660048036038101906106819190613afb565b611d75565b005b610690611dfb565b60405161069d9190614010565b60405180910390f35b6106c060048036038101906106bb919061355e565b611e1f565b6040516106cd9190613ff5565b60405180910390f35b6106f060048036038101906106eb9190613476565b611eb3565b005b61070c6004803603810190610707919061366d565b611f83565b005b61072860048036038101906107239190613449565b6120d6565b005b610744600480360381019061073f91906138ca565b61227f565b005b610760600480360381019061075b9190613b68565b6123a6565b005b6000600b600083815260200190815260200160002060008473ffffffffffffffffffffffffffffffffffffffff1673ffffffffffffffffffffffffffffffffffffffff16815260200190815260200160002054905092915050565b60006107c8826124a1565b9050919050565b826009600082815260200190815260200160002060009054906101000a900473ffffffffffffffffffffffffffffffffffffffff1673ffffffffffffffffffffffffffffffffffffffff163373ffffffffffffffffffffffffffffffffffffffff161461083b57600080fd5b82826008868154811061085157610850614622565b5b9060005260206000209060070201600201919061086f929190613022565b5050505050565b606060118054610885906144e9565b80601f01602080910402602001604051908101604052809291908181526020018280546108b1906144e9565b80156108fe5780601f106108d3576101008083540402835291602001916108fe565b820191906000526020600020905b8154815290600101906020018083116108e157829003601f168201915b50505050509050919050565b60096020528060005260406000206000915054906101000a900473ffffffffffffffffffffffffffffffffffffffff1681565b816009600082815260200190815260200160002060009054906101000a900473ffffffffffffffffffffffffffffffffffffffff1673ffffffffffffffffffffffffffffffffffffffff163373ffffffffffffffffffffffffffffffffffffffff16146109a957600080fd5b81600884815481106109be576109bd614622565b5b906000526020600020906007020160000160006101000a81548173ffffffffffffffffffffffffffffffffffffffff021916908373ffffffffffffffffffffffffffffffffffffffff160217905550505050565b60005b8351811015610b3c57828181518110610a3157610a30614622565b5b6020026020010151600b6000868481518110610a5057610a4f614622565b5b6020026020010151815260200190815260200160002060008773ffffffffffffffffffffffffffffffffffffffff1673ffffffffffffffffffffffffffffffffffffffff1681526020019081526020016000206000828254610ab29190614309565b92505081905550828181518110610acc57610acb614622565b5b60200260200101516008858381518110610ae957610ae8614622565b5b602002602001015181548110610b0257610b01614622565b5b90600052602060002090600702016005016000828254610b229190614309565b925050819055508080610b349061454c565b915050610a15565b508373ffffffffffffffffffffffffffffffffffffffff16600073ffffffffffffffffffffffffffffffffffffffff163373ffffffffffffffffffffffffffffffffffffffff167f4a39dc06d4c0dbc64b70af90fd698a233a518aa5d07e595d983b8c0526c8f7fb8686604051610bb4929190613fbe565b60405180910390a450505050565b826009600082815260200190815260200160002060009054906101000a900473ffffffffffffffffffffffffffffffffffffffff1673ffffffffffffffffffffffffffffffffffffffff163373ffffffffffffffffffffffffffffffffffffffff1614610c2e57600080fd5b828260088681548110610c4457610c43614622565b5b90600052602060002090600702016003019190610c62929190613022565b5050505050565b6000600d6000838152602001908152602001600020600101549050919050565b60005b8351811015610dde57828181518110610ca857610ca7614622565b5b6020026020010151600b6000868481518110610cc757610cc6614622565b5b6020026020010151815260200190815260200160002060008873ffffffffffffffffffffffffffffffffffffffff1673ffffffffffffffffffffffffffffffffffffffff1681526020019081526020016000206000828254610d2991906143b9565b92505081905550828181518110610d4357610d42614622565b5b6020026020010151600b6000868481518110610d6257610d61614622565b5b6020026020010151815260200190815260200160002060008773ffffffffffffffffffffffffffffffffffffffff1673ffffffffffffffffffffffffffffffffffffffff1681526020019081526020016000206000828254610dc49190614309565b925050819055508080610dd69061454c565b915050610c8c565b508373ffffffffffffffffffffffffffffffffffffffff168573ffffffffffffffffffffffffffffffffffffffff163373ffffffffffffffffffffffffffffffffffffffff167f4a39dc06d4c0dbc64b70af90fd698a233a518aa5d07e595d983b8c0526c8f7fb8686604051610e55929190613fbe565b60405180910390a45050505050565b610e6e8282612583565b610e9381600e600085815260200190815260200160002061247190919063ffffffff16565b505050565b610ea282826125ac565b610ec781600e600085815260200190815260200160002061262f90919063ffffffff16565b505050565b610efd7f65d7a28e3265b37a6474929f336521b332c1681b933f6cb9f3376673440d862a610ef861265f565b611636565b610f3c576040517f08c379a0000000000000000000000000000000000000000000000000000000008152600401610f339061410d565b60405180910390fd5b610f44612667565b565b606060008585905067ffffffffffffffff811115610f6757610f66614651565b5b604051908082528060200260200182016040528015610f955781602001602082028036833780820191505090505b50905060005b8686905081101561106957600b6000868684818110610fbd57610fbc614622565b5b9050602002013581526020019081526020016000206000888884818110610fe757610fe6614622565b5b9050602002016020810190610ffc9190613449565b73ffffffffffffffffffffffffffffffffffffffff1673ffffffffffffffffffffffffffffffffffffffff1681526020019081526020016000205482828151811061104a57611049614622565b5b60200260200101818152505080806110619061454c565b915050610f9b565b5080915050949350505050565b61107e61265f565b73ffffffffffffffffffffffffffffffffffffffff1661109c6115de565b73ffffffffffffffffffffffffffffffffffffffff16146110f2576040517f08c379a00000000000000000000000000000000000000000000000000000000081526004016110e9906140ed565b60405180910390fd5b8073ffffffffffffffffffffffffffffffffffffffff166108fc479081150290604051600060405180830381858888f19350505050158015611138573d6000803e3d6000fd5b5050565b6000601260009054906101000a900460ff16905090565b60005b825181101561127d5781818151811061117257611171614622565b5b6020026020010151600b600085848151811061119157611190614622565b5b6020026020010151815260200190815260200160002060008673ffffffffffffffffffffffffffffffffffffffff1673ffffffffffffffffffffffffffffffffffffffff16815260200190815260200160002060008282546111f391906143b9565b9250508190555081818151811061120d5761120c614622565b5b6020026020010151600884838151811061122a57611229614622565b5b60200260200101518154811061124357611242614622565b5b9060005260206000209060070201600501600082825461126391906143b9565b9250508190555080806112759061454c565b915050611156565b50600073ffffffffffffffffffffffffffffffffffffffff168373ffffffffffffffffffffffffffffffffffffffff163373ffffffffffffffffffffffffffffffffffffffff167f4a39dc06d4c0dbc64b70af90fd698a233a518aa5d07e595d983b8c0526c8f7fb85856040516112f5929190613fbe565b60405180910390a4505050565b61130a61265f565b73ffffffffffffffffffffffffffffffffffffffff166113286115de565b73ffffffffffffffffffffffffffffffffffffffff161461137e576040517f08c379a0000000000000000000000000000000000000000000000000000000008152600401611375906140ed565b60405180910390fd5b600073ffffffffffffffffffffffffffffffffffffffff1660008054906101000a900473ffffffffffffffffffffffffffffffffffffffff1673ffffffffffffffffffffffffffffffffffffffff167f8be0079c531659141344cd1fd0a4f28419497f9722a3daafe3b4186f6b6457e060405160405180910390a360008060006101000a81548173ffffffffffffffffffffffffffffffffffffffff021916908373ffffffffffffffffffffffffffffffffffffffff160217905550565b81600b600085815260200190815260200160002060008673ffffffffffffffffffffffffffffffffffffffff1673ffffffffffffffffffffffffffffffffffffffff168152602001908152602001600020600082825461149c9190614309565b9250508190555081600884815481106114b8576114b7614622565b5b906000526020600020906007020160050160008282546114d89190614309565b925050819055508373ffffffffffffffffffffffffffffffffffffffff16600073ffffffffffffffffffffffffffffffffffffffff163373ffffffffffffffffffffffffffffffffffffffff167fc3d58168c5ae7397731d063d5bbf3d657854427343f4c083240f7aacaa2d0f6286866040516115569291906141cd565b60405180910390a450505050565b6115957f65d7a28e3265b37a6474929f336521b332c1681b933f6cb9f3376673440d862a61159061265f565b611636565b6115d4576040517f08c379a00000000000000000000000000000000000000000000000000000000081526004016115cb9061412d565b60405180910390fd5b6115dc612709565b565b60008060009054906101000a900473ffffffffffffffffffffffffffffffffffffffff16905090565b600061162e82600e60008681526020019081526020016000206127ac90919063ffffffff16565b905092915050565b6000600d600084815260200190815260200160002060000160008373ffffffffffffffffffffffffffffffffffffffff1673ffffffffffffffffffffffffffffffffffffffff16815260200190815260200160002060009054906101000a900460ff16905092915050565b6000801b81565b80600c60003373ffffffffffffffffffffffffffffffffffffffff1673ffffffffffffffffffffffffffffffffffffffff16815260200190815260200160002060008473ffffffffffffffffffffffffffffffffffffffff1673ffffffffffffffffffffffffffffffffffffffff16815260200190815260200160002060006101000a81548160ff0219169083151502179055508173ffffffffffffffffffffffffffffffffffffffff163373ffffffffffffffffffffffffffffffffffffffff167f17307eab39ab6107e8899845ad3d59bd9653f200f220920489ca2b5937696c31836040516117999190613ff5565b60405180910390a35050565b826009600082815260200190815260200160002060009054906101000a900473ffffffffffffffffffffffffffffffffffffffff1673ffffffffffffffffffffffffffffffffffffffff163373ffffffffffffffffffffffffffffffffffffffff161461181157600080fd5b82826008868154811061182757611826614622565b5b90600052602060002090600702016001019190611845929190613022565b5050505050565b61185461265f565b73ffffffffffffffffffffffffffffffffffffffff166118726115de565b73ffffffffffffffffffffffffffffffffffffffff16146118c8576040517f08c379a00000000000000000000000000000000000000000000000000000000081526004016118bf906140ed565b60405180910390fd5b8060048190555050565b60006118ef600e60008481526020019081526020016000206127c6565b9050919050565b6008818154811061190657600080fd5b90600052602060002090600702016000915090508060000160009054906101000a900473ffffffffffffffffffffffffffffffffffffffff169080600101805461194f906144e9565b80601f016020809104026020016040519081016040528092919081815260200182805461197b906144e9565b80156119c85780601f1061199d576101008083540402835291602001916119c8565b820191906000526020600020905b8154815290600101906020018083116119ab57829003601f168201915b5050505050908060020180546119dd906144e9565b80601f0160208091040260200160405190810160405280929190818152602001828054611a09906144e9565b8015611a565780601f10611a2b57610100808354040283529160200191611a56565b820191906000526020600020905b815481529060010190602001808311611a3957829003601f168201915b505050505090806003018054611a6b906144e9565b80601f0160208091040260200160405190810160405280929190818152602001828054611a97906144e9565b8015611ae45780601f10611ab957610100808354040283529160200191611ae4565b820191906000526020600020905b815481529060010190602001808311611ac757829003601f168201915b5050505050908060040160009054906101000a900460ff16908060050154908060060154905087565b7f9f2df0fed2c77648de5860a4cc508cd0818c85b8b8a1ab4ceeef8d981c8956a681565b611b3b82826127db565b611b6081600e600085815260200190815260200160002061262f90919063ffffffff16565b505050565b60086040518060e001604052808673ffffffffffffffffffffffffffffffffffffffff168152602001858152602001848152602001838152602001600015158152602001600081526020016000815250908060018154018082558091505060019003906000526020600020906007020160009091909190915060008201518160000160006101000a81548173ffffffffffffffffffffffffffffffffffffffff021916908373ffffffffffffffffffffffffffffffffffffffff1602179055506020820151816001019080519060200190611c419291906130a8565b506040820151816002019080519060200190611c5e9291906130a8565b506060820151816003019080519060200190611c7b9291906130a8565b5060808201518160040160006101000a81548160ff02191690831515021790555060a0820151816005015560c08201518160060155505060006001600880549050611cc691906143b9565b9050846009600083815260200190815260200160002060006101000a81548173ffffffffffffffffffffffffffffffffffffffff021916908373ffffffffffffffffffffffffffffffffffffffff1602179055506000600a6000838152602001908152602001600020819055507f01e9d0e2208938b5d6a39db5244c8dca0b77eb386bf3705fe751005e7e0ca16c818585604051611d6693929190614188565b60405180910390a15050505050565b611d7d61265f565b73ffffffffffffffffffffffffffffffffffffffff16611d9b6115de565b73ffffffffffffffffffffffffffffffffffffffff1614611df1576040517f08c379a0000000000000000000000000000000000000000000000000000000008152600401611de8906140ed565b60405180910390fd5b8060018190555050565b7f65d7a28e3265b37a6474929f336521b332c1681b933f6cb9f3376673440d862a81565b6000600c60008473ffffffffffffffffffffffffffffffffffffffff1673ffffffffffffffffffffffffffffffffffffffff16815260200190815260200160002060008373ffffffffffffffffffffffffffffffffffffffff1673ffffffffffffffffffffffffffffffffffffffff16815260200190815260200160002060009054906101000a900460ff16905092915050565b611ebb61265f565b73ffffffffffffffffffffffffffffffffffffffff16611ed96115de565b73ffffffffffffffffffffffffffffffffffffffff1614611f2f576040517f08c379a0000000000000000000000000000000000000000000000000000000008152600401611f26906140ed565b60405180910390fd5b8073ffffffffffffffffffffffffffffffffffffffff166108fc6003549081150290604051600060405180830381858888f19350505050158015611f77573d6000803e3d6000fd5b50600060038190555050565b81600b600085815260200190815260200160002060008773ffffffffffffffffffffffffffffffffffffffff1673ffffffffffffffffffffffffffffffffffffffff1681526020019081526020016000206000828254611fe391906143b9565b9250508190555081600b600085815260200190815260200160002060008673ffffffffffffffffffffffffffffffffffffffff1673ffffffffffffffffffffffffffffffffffffffff168152602001908152602001600020600082825461204a9190614309565b925050819055508373ffffffffffffffffffffffffffffffffffffffff168573ffffffffffffffffffffffffffffffffffffffff163373ffffffffffffffffffffffffffffffffffffffff167fc3d58168c5ae7397731d063d5bbf3d657854427343f4c083240f7aacaa2d0f6286866040516120c79291906141cd565b60405180910390a45050505050565b6120de61265f565b73ffffffffffffffffffffffffffffffffffffffff166120fc6115de565b73ffffffffffffffffffffffffffffffffffffffff1614612152576040517f08c379a0000000000000000000000000000000000000000000000000000000008152600401612149906140ed565b60405180910390fd5b600073ffffffffffffffffffffffffffffffffffffffff168173ffffffffffffffffffffffffffffffffffffffff1614156121c2576040517f08c379a00000000000000000000000000000000000000000000000000000000081526004016121b9906140ad565b60405180910390fd5b8073ffffffffffffffffffffffffffffffffffffffff1660008054906101000a900473ffffffffffffffffffffffffffffffffffffffff1673ffffffffffffffffffffffffffffffffffffffff167f8be0079c531659141344cd1fd0a4f28419497f9722a3daafe3b4186f6b6457e060405160405180910390a3806000806101000a81548173ffffffffffffffffffffffffffffffffffffffff021916908373ffffffffffffffffffffffffffffffffffffffff16021790555050565b80600b600084815260200190815260200160002060008573ffffffffffffffffffffffffffffffffffffffff1673ffffffffffffffffffffffffffffffffffffffff16815260200190815260200160002060008282546122df91906143b9565b9250508190555080600883815481106122fb576122fa614622565b5b9060005260206000209060070201600501600082825461231b91906143b9565b92505081905550600073ffffffffffffffffffffffffffffffffffffffff168373ffffffffffffffffffffffffffffffffffffffff163373ffffffffffffffffffffffffffffffffffffffff167fc3d58168c5ae7397731d063d5bbf3d657854427343f4c083240f7aacaa2d0f6285856040516123999291906141cd565b60405180910390a4505050565b6123ae61265f565b73ffffffffffffffffffffffffffffffffffffffff166123cc6115de565b73ffffffffffffffffffffffffffffffffffffffff1614612422576040517f08c379a0000000000000000000000000000000000000000000000000000000008152600401612419906140ed565b60405180910390fd5b806008838154811061243757612436614622565b5b906000526020600020906007020160040160006101000a81548160ff0219169083151502179055505050565b61246d8282612804565b5050565b6000612499836000018373ffffffffffffffffffffffffffffffffffffffff1660001b6128e5565b905092915050565b60007fd9b67a26000000000000000000000000000000000000000000000000000000007bffffffffffffffffffffffffffffffffffffffffffffffffffffffff1916827bffffffffffffffffffffffffffffffffffffffffffffffffffffffff1916148061256c57507f0e89341c000000000000000000000000000000000000000000000000000000007bffffffffffffffffffffffffffffffffffffffffffffffffffffffff1916827bffffffffffffffffffffffffffffffffffffffffffffffffffffffff1916145b8061257c575061257b82612955565b5b9050919050565b61258c82610c69565b61259d8161259861265f565b6129cf565b6125a78383612804565b505050565b6125b461265f565b73ffffffffffffffffffffffffffffffffffffffff168173ffffffffffffffffffffffffffffffffffffffff1614612621576040517f08c379a00000000000000000000000000000000000000000000000000000000081526004016126189061414d565b60405180910390fd5b61262b8282612a6c565b5050565b6000612657836000018373ffffffffffffffffffffffffffffffffffffffff1660001b612b4e565b905092915050565b600033905090565b61266f61113c565b6126ae576040517f08c379a00000000000000000000000000000000000000000000000000000000081526004016126a59061408d565b60405180910390fd5b6000601260006101000a81548160ff0219169083151502179055507f5db9ee0a495bf2e6ff9c91a7834c1ba4fdd244a5e8aa4e537bd38aeae4b073aa6126f261265f565b6040516126ff9190613efd565b60405180910390a1565b61271161113c565b15612751576040517f08c379a0000000000000000000000000000000000000000000000000000000008152600401612748906140cd565b60405180910390fd5b6001601260006101000a81548160ff0219169083151502179055507f62e78cea01bee320cd4e420270b5ea74000d11b0c9f74754ebdbfc544b05a25861279561265f565b6040516127a29190613efd565b60405180910390a1565b60006127bb8360000183612c5a565b60001c905092915050565b60006127d482600001612cce565b9050919050565b6127e482610c69565b6127f5816127f061265f565b6129cf565b6127ff8383612a6c565b505050565b61280e8282611636565b6128e1576001600d600084815260200190815260200160002060000160008373ffffffffffffffffffffffffffffffffffffffff1673ffffffffffffffffffffffffffffffffffffffff16815260200190815260200160002060006101000a81548160ff02191690831515021790555061288661265f565b73ffffffffffffffffffffffffffffffffffffffff168173ffffffffffffffffffffffffffffffffffffffff16837f2f8788117e7eff1d82e926ec794901d17c78024a50270940304540a733656f0d60405160405180910390a45b5050565b60006128f18383612cdf565b61294a57826000018290806001815401808255809150506001900390600052602060002001600090919091909150558260000180549050836001016000848152602001908152602001600020819055506001905061294f565b600090505b92915050565b60007f5a05180f000000000000000000000000000000000000000000000000000000007bffffffffffffffffffffffffffffffffffffffffffffffffffffffff1916827bffffffffffffffffffffffffffffffffffffffffffffffffffffffff191614806129c857506129c782612d02565b5b9050919050565b6129d98282611636565b612a68576129fe8173ffffffffffffffffffffffffffffffffffffffff166014612d7c565b612a0c8360001c6020612d7c565b604051602001612a1d929190613ec3565b6040516020818303038152906040526040517f08c379a0000000000000000000000000000000000000000000000000000000008152600401612a5f919061402b565b60405180910390fd5b5050565b612a768282611636565b15612b4a576000600d600084815260200190815260200160002060000160008373ffffffffffffffffffffffffffffffffffffffff1673ffffffffffffffffffffffffffffffffffffffff16815260200190815260200160002060006101000a81548160ff021916908315150217905550612aef61265f565b73ffffffffffffffffffffffffffffffffffffffff168173ffffffffffffffffffffffffffffffffffffffff16837ff6391f5c32d9c69d2a47ea670b442974b53935d1edc7fd64eb21e047a839171b60405160405180910390a45b5050565b60008083600101600084815260200190815260200160002054905060008114612c4e576000600182612b8091906143b9565b9050600060018660000180549050612b9891906143b9565b90506000866000018281548110612bb257612bb1614622565b5b9060005260206000200154905080876000018481548110612bd657612bd5614622565b5b9060005260206000200181905550838760010160008381526020019081526020016000208190555086600001805480612c1257612c116145f3565b5b60019003818190600052602060002001600090559055866001016000878152602001908152602001600020600090556001945050505050612c54565b60009150505b92915050565b600081836000018054905011612ca5576040517f08c379a0000000000000000000000000000000000000000000000000000000008152600401612c9c9061404d565b60405180910390fd5b826000018281548110612cbb57612cba614622565b5b9060005260206000200154905092915050565b600081600001805490509050919050565b600080836001016000848152602001908152602001600020541415905092915050565b60007f7965db0b000000000000000000000000000000000000000000000000000000007bffffffffffffffffffffffffffffffffffffffffffffffffffffffff1916827bffffffffffffffffffffffffffffffffffffffffffffffffffffffff19161480612d755750612d7482612fb8565b5b9050919050565b606060006002836002612d8f919061435f565b612d999190614309565b67ffffffffffffffff811115612db257612db1614651565b5b6040519080825280601f01601f191660200182016040528015612de45781602001600182028036833780820191505090505b5090507f300000000000000000000000000000000000000000000000000000000000000081600081518110612e1c57612e1b614622565b5b60200101907effffffffffffffffffffffffffffffffffffffffffffffffffffffffffffff1916908160001a9053507f780000000000000000000000000000000000000000000000000000000000000081600181518110612e8057612e7f614622565b5b60200101907effffffffffffffffffffffffffffffffffffffffffffffffffffffffffffff1916908160001a90535060006001846002612ec0919061435f565b612eca9190614309565b90505b6001811115612f6a577f3031323334353637383961626364656600000000000000000000000000000000600f861660108110612f0c57612f0b614622565b5b1a60f81b828281518110612f2357612f22614622565b5b60200101907effffffffffffffffffffffffffffffffffffffffffffffffffffffffffffff1916908160001a905350600485901c945080612f63906144bf565b9050612ecd565b5060008414612fae576040517f08c379a0000000000000000000000000000000000000000000000000000000008152600401612fa59061406d565b60405180910390fd5b8091505092915050565b60007f01ffc9a7000000000000000000000000000000000000000000000000000000007bffffffffffffffffffffffffffffffffffffffffffffffffffffffff1916827bffffffffffffffffffffffffffffffffffffffffffffffffffffffff1916149050919050565b82805461302e906144e9565b90600052602060002090601f0160209004810192826130505760008555613097565b82601f1061306957803560ff1916838001178555613097565b82800160010185558215613097579182015b8281111561309657823582559160200191906001019061307b565b5b5090506130a4919061312e565b5090565b8280546130b4906144e9565b90600052602060002090601f0160209004810192826130d6576000855561311d565b82601f106130ef57805160ff191683800117855561311d565b8280016001018555821561311d579182015b8281111561311c578251825591602001919060010190613101565b5b50905061312a919061312e565b5090565b5b8082111561314757600081600090555060010161312f565b5090565b600061315e6131598461421b565b6141f6565b905080838252602082019050828560208602820111156131815761318061468a565b5b60005b858110156131b157816131978882613434565b845260208401935060208301925050600181019050613184565b5050509392505050565b60006131ce6131c984614247565b6141f6565b9050828152602081018484840111156131ea576131e961468f565b5b6131f584828561447d565b509392505050565b600061321061320b84614278565b6141f6565b90508281526020810184848401111561322c5761322b61468f565b5b61323784828561447d565b509392505050565b60008135905061324e81614930565b92915050565b60008135905061326381614947565b92915050565b60008083601f84011261327f5761327e614685565b5b8235905067ffffffffffffffff81111561329c5761329b614680565b5b6020830191508360208202830111156132b8576132b761468a565b5b9250929050565b60008083601f8401126132d5576132d4614685565b5b8235905067ffffffffffffffff8111156132f2576132f1614680565b5b60208301915083602082028301111561330e5761330d61468a565b5b9250929050565b600082601f83011261332a57613329614685565b5b813561333a84826020860161314b565b91505092915050565b6000813590506133528161495e565b92915050565b60008135905061336781614975565b92915050565b60008135905061337c8161498c565b92915050565b600082601f83011261339757613396614685565b5b81356133a78482602086016131bb565b91505092915050565b60008083601f8401126133c6576133c5614685565b5b8235905067ffffffffffffffff8111156133e3576133e2614680565b5b6020830191508360018202830111156133ff576133fe61468a565b5b9250929050565b600082601f83011261341b5761341a614685565b5b813561342b8482602086016131fd565b91505092915050565b600081359050613443816149a3565b92915050565b60006020828403121561345f5761345e614699565b5b600061346d8482850161323f565b91505092915050565b60006020828403121561348c5761348b614699565b5b600061349a84828501613254565b91505092915050565b600080600080608085870312156134bd576134bc614699565b5b60006134cb87828801613254565b945050602085013567ffffffffffffffff8111156134ec576134eb614694565b5b6134f887828801613406565b935050604085013567ffffffffffffffff81111561351957613518614694565b5b61352587828801613406565b925050606085013567ffffffffffffffff81111561354657613545614694565b5b61355287828801613406565b91505092959194509250565b6000806040838503121561357557613574614699565b5b60006135838582860161323f565b92505060206135948582860161323f565b9150509250929050565b600080600080600060a086880312156135ba576135b9614699565b5b60006135c88882890161323f565b95505060206135d98882890161323f565b945050604086013567ffffffffffffffff8111156135fa576135f9614694565b5b61360688828901613315565b935050606086013567ffffffffffffffff81111561362757613626614694565b5b61363388828901613315565b925050608086013567ffffffffffffffff81111561365457613653614694565b5b61366088828901613382565b9150509295509295909350565b600080600080600060a0868803121561368957613688614699565b5b60006136978882890161323f565b95505060206136a88882890161323f565b94505060406136b988828901613434565b93505060606136ca88828901613434565b925050608086013567ffffffffffffffff8111156136eb576136ea614694565b5b6136f788828901613382565b9150509295509295909350565b60008060006060848603121561371d5761371c614699565b5b600061372b8682870161323f565b935050602084013567ffffffffffffffff81111561374c5761374b614694565b5b61375886828701613315565b925050604084013567ffffffffffffffff81111561377957613778614694565b5b61378586828701613315565b9150509250925092565b600080600080608085870312156137a9576137a8614699565b5b60006137b78782880161323f565b945050602085013567ffffffffffffffff8111156137d8576137d7614694565b5b6137e487828801613315565b935050604085013567ffffffffffffffff81111561380557613804614694565b5b61381187828801613315565b925050606085013567ffffffffffffffff81111561383257613831614694565b5b61383e87828801613382565b91505092959194509250565b6000806040838503121561386157613860614699565b5b600061386f8582860161323f565b925050602061388085828601613343565b9150509250929050565b600080604083850312156138a1576138a0614699565b5b60006138af8582860161323f565b92505060206138c085828601613434565b9150509250929050565b6000806000606084860312156138e3576138e2614699565b5b60006138f18682870161323f565b935050602061390286828701613434565b925050604061391386828701613434565b9150509250925092565b6000806000806080858703121561393757613936614699565b5b60006139458782880161323f565b945050602061395687828801613434565b935050604061396787828801613434565b925050606085013567ffffffffffffffff81111561398857613987614694565b5b61399487828801613382565b91505092959194509250565b600080600080604085870312156139ba576139b9614699565b5b600085013567ffffffffffffffff8111156139d8576139d7614694565b5b6139e487828801613269565b9450945050602085013567ffffffffffffffff811115613a0757613a06614694565b5b613a13878288016132bf565b925092505092959194509250565b600060208284031215613a3757613a36614699565b5b6000613a4584828501613358565b91505092915050565b60008060408385031215613a6557613a64614699565b5b6000613a7385828601613358565b9250506020613a848582860161323f565b9150509250929050565b60008060408385031215613aa557613aa4614699565b5b6000613ab385828601613358565b9250506020613ac485828601613434565b9150509250929050565b600060208284031215613ae457613ae3614699565b5b6000613af28482850161336d565b91505092915050565b600060208284031215613b1157613b10614699565b5b6000613b1f84828501613434565b91505092915050565b60008060408385031215613b3f57613b3e614699565b5b6000613b4d85828601613434565b9250506020613b5e85828601613254565b9150509250929050565b60008060408385031215613b7f57613b7e614699565b5b6000613b8d85828601613434565b9250506020613b9e85828601613343565b9150509250929050565b600080600060408486031215613bc157613bc0614699565b5b6000613bcf86828701613434565b935050602084013567ffffffffffffffff811115613bf057613bef614694565b5b613bfc868287016133b0565b92509250509250925092565b6000613c148383613ea5565b60208301905092915050565b613c29816143ff565b82525050565b613c38816143ed565b82525050565b6000613c49826142b9565b613c5381856142dc565b9350613c5e836142a9565b8060005b83811015613c8f578151613c768882613c08565b9750613c81836142cf565b925050600181019050613c62565b5085935050505092915050565b613ca581614411565b82525050565b613cb48161441d565b82525050565b6000613cc5826142c4565b613ccf81856142ed565b9350613cdf81856020860161448c565b613ce88161469e565b840191505092915050565b6000613cfe826142c4565b613d0881856142fe565b9350613d1881856020860161448c565b80840191505092915050565b6000613d316022836142ed565b9150613d3c826146af565b604082019050919050565b6000613d546020836142ed565b9150613d5f826146fe565b602082019050919050565b6000613d776014836142ed565b9150613d8282614727565b602082019050919050565b6000613d9a6026836142ed565b9150613da582614750565b604082019050919050565b6000613dbd6010836142ed565b9150613dc88261479f565b602082019050919050565b6000613de06020836142ed565b9150613deb826147c8565b602082019050919050565b6000613e03603b836142ed565b9150613e0e826147f1565b604082019050919050565b6000613e266039836142ed565b9150613e3182614840565b604082019050919050565b6000613e496017836142fe565b9150613e548261488f565b601782019050919050565b6000613e6c6011836142fe565b9150613e77826148b8565b601182019050919050565b6000613e8f602f836142ed565b9150613e9a826148e1565b604082019050919050565b613eae81614473565b82525050565b613ebd81614473565b82525050565b6000613ece82613e3c565b9150613eda8285613cf3565b9150613ee582613e5f565b9150613ef18284613cf3565b91508190509392505050565b6000602082019050613f126000830184613c2f565b92915050565b600060e082019050613f2d600083018a613c20565b8181036020830152613f3f8189613cba565b90508181036040830152613f538188613cba565b90508181036060830152613f678187613cba565b9050613f766080830186613c9c565b613f8360a0830185613eb4565b613f9060c0830184613eb4565b98975050505050505050565b60006020820190508181036000830152613fb68184613c3e565b905092915050565b60006040820190508181036000830152613fd88185613c3e565b90508181036020830152613fec8184613c3e565b90509392505050565b600060208201905061400a6000830184613c9c565b92915050565b60006020820190506140256000830184613cab565b92915050565b600060208201905081810360008301526140458184613cba565b905092915050565b6000602082019050818103600083015261406681613d24565b9050919050565b6000602082019050818103600083015261408681613d47565b9050919050565b600060208201905081810360008301526140a681613d6a565b9050919050565b600060208201905081810360008301526140c681613d8d565b9050919050565b600060208201905081810360008301526140e681613db0565b9050919050565b6000602082019050818103600083015261410681613dd3565b9050919050565b6000602082019050818103600083015261412681613df6565b9050919050565b6000602082019050818103600083015261414681613e19565b9050919050565b6000602082019050818103600083015261416681613e82565b9050919050565b60006020820190506141826000830184613eb4565b92915050565b600060608201905061419d6000830186613eb4565b81810360208301526141af8185613cba565b905081810360408301526141c38184613cba565b9050949350505050565b60006040820190506141e26000830185613eb4565b6141ef6020830184613eb4565b9392505050565b6000614200614211565b905061420c828261451b565b919050565b6000604051905090565b600067ffffffffffffffff82111561423657614235614651565b5b602082029050602081019050919050565b600067ffffffffffffffff82111561426257614261614651565b5b61426b8261469e565b9050602081019050919050565b600067ffffffffffffffff82111561429357614292614651565b5b61429c8261469e565b9050602081019050919050565b6000819050602082019050919050565b600081519050919050565b600081519050919050565b6000602082019050919050565b600082825260208201905092915050565b600082825260208201905092915050565b600081905092915050565b600061431482614473565b915061431f83614473565b9250827fffffffffffffffffffffffffffffffffffffffffffffffffffffffffffffffff0382111561435457614353614595565b5b828201905092915050565b600061436a82614473565b915061437583614473565b9250817fffffffffffffffffffffffffffffffffffffffffffffffffffffffffffffffff04831182151516156143ae576143ad614595565b5b828202905092915050565b60006143c482614473565b91506143cf83614473565b9250828210156143e2576143e1614595565b5b828203905092915050565b60006143f882614453565b9050919050565b600061440a82614453565b9050919050565b60008115159050919050565b6000819050919050565b60007fffffffff0000000000000000000000000000000000000000000000000000000082169050919050565b600073ffffffffffffffffffffffffffffffffffffffff82169050919050565b6000819050919050565b82818337600083830152505050565b60005b838110156144aa57808201518184015260208101905061448f565b838111156144b9576000848401525b50505050565b60006144ca82614473565b915060008214156144de576144dd614595565b5b600182039050919050565b6000600282049050600182168061450157607f821691505b60208210811415614515576145146145c4565b5b50919050565b6145248261469e565b810181811067ffffffffffffffff8211171561454357614542614651565b5b80604052505050565b600061455782614473565b91507fffffffffffffffffffffffffffffffffffffffffffffffffffffffffffffffff82141561458a57614589614595565b5b600182019050919050565b7f4e487b7100000000000000000000000000000000000000000000000000000000600052601160045260246000fd5b7f4e487b7100000000000000000000000000000000000000000000000000000000600052602260045260246000fd5b7f4e487b7100000000000000000000000000000000000000000000000000000000600052603160045260246000fd5b7f4e487b7100000000000000000000000000000000000000000000000000000000600052603260045260246000fd5b7f4e487b7100000000000000000000000000000000000000000000000000000000600052604160045260246000fd5b600080fd5b600080fd5b600080fd5b600080fd5b600080fd5b600080fd5b6000601f19601f8301169050919050565b7f456e756d657261626c655365743a20696e646578206f7574206f6620626f756e60008201527f6473000000000000000000000000000000000000000000000000000000000000602082015250565b7f537472696e67733a20686578206c656e67746820696e73756666696369656e74600082015250565b7f5061757361626c653a206e6f7420706175736564000000000000000000000000600082015250565b7f4f776e61626c653a206e6577206f776e657220697320746865207a65726f206160008201527f6464726573730000000000000000000000000000000000000000000000000000602082015250565b7f5061757361626c653a2070617573656400000000000000000000000000000000600082015250565b7f4f776e61626c653a2063616c6c6572206973206e6f7420746865206f776e6572600082015250565b7f455243313135355072657365744d696e7465725061757365723a206d7573742060008201527f686176652070617573657220726f6c6520746f20756e70617573650000000000602082015250565b7f455243313135355072657365744d696e7465725061757365723a206d7573742060008201527f686176652070617573657220726f6c6520746f20706175736500000000000000602082015250565b7f416363657373436f6e74726f6c3a206163636f756e7420000000000000000000600082015250565b7f206973206d697373696e6720726f6c6520000000000000000000000000000000600082015250565b7f416363657373436f6e74726f6c3a2063616e206f6e6c792072656e6f756e636560008201527f20726f6c657320666f722073656c660000000000000000000000000000000000602082015250565b614939816143ed565b811461494457600080fd5b50565b614950816143ff565b811461495b57600080fd5b50565b61496781614411565b811461497257600080fd5b50565b61497e8161441d565b811461498957600080fd5b50565b61499581614427565b81146149a057600080fd5b50565b6149ac81614473565b81146149b757600080fd5b5056fea26469706673582212204a1d5d4f35a3f8d9a35ba36bb3eb2ecc17dc9d02ab1f2d2797006c4ea010c70364736f6c63430008050033",
  "immutableReferences": {},
  "source": "// SPDX-License-Identifier: MIT\npragma solidity ^0.8.0;\n\nimport \"./creatortokenhelper.sol\";\nimport \"@openzeppelin/contracts/token/ERC1155/presets/ERC1155PresetMinterPauser.sol\";\n\ncontract CreatorTokenOwnership is CreatorTokenHelper, ERC1155PresetMinterPauser {\n\n\tconstructor(string memory uri) ERC1155PresetMinterPauser(uri) { }\n\n\t// Mint a token\n\tfunction mint(address _to, uint256 _id, uint256 _amount, bytes memory _data) public override {\n\t\t// Update tokenHoldership mapping\n\t\ttokenHoldership[_id][_to] += _amount;\n\t\t// Increase token amount outstanding\n\t\tcreatorTokens[_id].outstanding += _amount;\n\t\t// Do I also need to transfer the actual tokens to the user?\n\t\t// Emit single transfer event\n\t\temit TransferSingle(msg.sender, address(0), _to, _id, _amount);\n\t}\n\n\t// Mint a batch of tokens\n\tfunction mintBatch(address _to, uint256[] memory _ids, uint256[] memory _amounts, bytes memory data) public override {\n\t\t// Iterate through _ids\n\t\tfor (uint256 i=0; i<_ids.length; i++) {\n\t\t\t// Update tokenHoldership mapping\n\t\t\ttokenHoldership[_ids[i]][_to] += _amounts[i];\n\t\t\t// Increase token amount outstanding\n\t\t\tcreatorTokens[_ids[i]].outstanding += _amounts[i];\n\t\t}\n\t\t// Do I also need to transfer the actual tokens to the user?\n\t\t// Emit batch transfer event\n\t\temit TransferBatch(msg.sender, address(0), _to, _ids, _amounts);\n\t}\n\n\t// Burn a token\n\tfunction burn(address _account, uint256 _id, uint256 _amount) public override {\n\t\t// Update tokenHoldership mapping\n\t\ttokenHoldership[_id][_account] -= _amount;\n\t\t// Decrease token amount outstanding\n\t\tcreatorTokens[_id].outstanding -= _amount;\n\t\t// Do I also need to transfer the actual tokens to from user to address(0)?\n\t\t// Emit single transfer event\n\t\temit TransferSingle(msg.sender, _account, address(0), _id, _amount);\n\t}\n\n\t// Burn a batch of tokens\n\tfunction burnBatch(address _account, uint256[] memory _ids, uint256[] memory _amounts) public override {\n\t\t// Iterate through _ids\n\t\tfor (uint256 i=0; i<_ids.length; i++) {\n\t\t\t// Update tokenHoldership mapping\n\t\t\ttokenHoldership[_ids[i]][_account] -= _amounts[i];\n\t\t\t// Decrease token amount outstanding\n\t\t\tcreatorTokens[_ids[i]].outstanding -= _amounts[i];\n\t\t}\n\t\t// Do I also need to transfer the actual tokens to from user to address(0)?\n\t\t// Emit batch transfer event\n\t\temit TransferBatch(msg.sender, _account, address(0), _ids, _amounts);\n\t}\n\n\t// Transfer a token\n\tfunction safeTransferFrom(address _from, address _to, uint256 _id, uint256 _amount, bytes memory _data) public override {\n\t\t// Reduce tokenHoldership holdings of _from\n\t\ttokenHoldership[_id][_from] -= _amount;\n\t\t// Increase tokenHoldership holdings of _to\n\t\ttokenHoldership[_id][_to] += _amount;\n\t\t// Do I also need to transfer the actual tokens from _from to _to?\n\t\t// Emit single transfer event\n\t\temit TransferSingle(msg.sender, _from, _to, _id, _amount);\n\t}\n\n\t// Transfer a batch of tokens\n\tfunction safeBatchTransferFrom(address _from, address _to, uint256[] memory _ids, uint256[] memory _amounts, bytes memory data) public override {\n\t\t// Iterate through _ids\n\t\tfor (uint256 i=0; i<_ids.length; i++) {\n\t\t\t// Reduce tokenHoldership holdings of _from\n\t\t\ttokenHoldership[_ids[i]][_from] -= _amounts[i];\n\t\t\t// Increase tokenHoldership holdings of _to\n\t\t\ttokenHoldership[_ids[i]][_to] += _amounts[i];\n\t\t}\n\t\t// Do I also need to transfer the actual tokens from _from to _to?\n\t\t// Emit batch transfer event\n\t\temit TransferBatch(msg.sender, _from, _to, _ids, _amounts);\n\t}\n\n\t// Return balance of a given token at a given address\n\tfunction balanceOf(address _account, uint256 _id) public view override returns (uint256) {\n\t\t// Look up _account's holdings of _id in tokenHoldership\n\t\treturn tokenHoldership[_id][_account];\n\t}\n\n\t// Return balance of a batch of tokens\n\tfunction balanceOfBatch(address[] calldata _accounts, uint256[] calldata _ids) public view override returns (uint256[] memory) {\n\t\t// Initialize output array\n\t\tuint256[] memory batchBalances = new uint256[](_accounts.length);\n\t\t// Iterate through _accounts\n\t\tfor (uint256 i = 0; i < _accounts.length; i++) {\n\t\t\t// Look up _account's holdings of _id in tokenHoldership\n\t\t\tbatchBalances[i] = tokenHoldership[_ids[i]][_accounts[i]];\n\t\t}\n\t\t// Return output array\n\t\treturn batchBalances;\n\t}\n\n\t// Give operator permission to transfer caller's tokens\n\tfunction setApprovalForAll(address _operator, bool _approved) public override {\n\t\t// Update approvals mapping\n\t\tapprovals[msg.sender][_operator] = _approved;\n\t\t// Emit Approval event\n\t\temit ApprovalForAll(msg.sender, _operator, _approved);\n\t}\n\n\t// Denotes whether operator is approved to transfer accounts' tokens\n\tfunction isApprovedForAll(address _account, address _operator) public view override returns (bool) {\n\t\t// Look up approvals mapping\n\t\treturn approvals[_account][_operator];\n\t}\n}\n\n\n\n\n\n\n\n",
  "sourcePath": "/Users/kamilalizaisadik/DeFi/Dynamic Automated Market Maker/damm_solidity/contracts/creatortokenownership.sol",
  "compiler": {
    "name": "solc",
    "version": "0.8.5+commit.a4f2e591.Emscripten.clang"
  },
  "schemaVersion": "3.4.1",
  "updatedAt": "2021-06-17T00:17:31.281Z",
  "devdoc": {
    "kind": "dev",
    "methods": {
      "getRoleAdmin(bytes32)": {
        "details": "Returns the admin role that controls `role`. See {grantRole} and {revokeRole}. To change a role's admin, use {_setRoleAdmin}."
      },
      "getRoleMember(bytes32,uint256)": {
        "details": "Returns one of the accounts that have `role`. `index` must be a value between 0 and {getRoleMemberCount}, non-inclusive. Role bearers are not sorted in any particular way, and their ordering may change at any point. WARNING: When using {getRoleMember} and {getRoleMemberCount}, make sure you perform all queries on the same block. See the following https://forum.openzeppelin.com/t/iterating-over-elements-on-enumerableset-in-openzeppelin-contracts/2296[forum post] for more information."
      },
      "getRoleMemberCount(bytes32)": {
        "details": "Returns the number of accounts that have `role`. Can be used together with {getRoleMember} to enumerate all bearers of a role."
      },
      "grantRole(bytes32,address)": {
        "details": "Overload {grantRole} to track enumerable memberships"
      },
      "hasRole(bytes32,address)": {
        "details": "Returns `true` if `account` has been granted `role`."
      },
      "owner()": {
        "details": "Returns the address of the current owner."
      },
      "pause()": {
        "details": "Pauses all token transfers. See {ERC1155Pausable} and {Pausable-_pause}. Requirements: - the caller must have the `PAUSER_ROLE`."
      },
      "paused()": {
        "details": "Returns true if the contract is paused, and false otherwise."
      },
      "renounceOwnership()": {
        "details": "Leaves the contract without owner. It will not be possible to call `onlyOwner` functions anymore. Can only be called by the current owner. NOTE: Renouncing ownership will leave the contract without an owner, thereby removing any functionality that is only available to the owner."
      },
      "renounceRole(bytes32,address)": {
        "details": "Overload {renounceRole} to track enumerable memberships"
      },
      "revokeRole(bytes32,address)": {
        "details": "Overload {revokeRole} to track enumerable memberships"
      },
      "supportsInterface(bytes4)": {
        "details": "See {IERC165-supportsInterface}."
      },
      "transferOwnership(address)": {
        "details": "Transfers ownership of the contract to a new account (`newOwner`). Can only be called by the current owner."
      },
      "unpause()": {
        "details": "Unpauses all token transfers. See {ERC1155Pausable} and {Pausable-_unpause}. Requirements: - the caller must have the `PAUSER_ROLE`."
      },
      "uri(uint256)": {
        "details": "See {IERC1155MetadataURI-uri}. This implementation returns the same URI for *all* token types. It relies on the token type ID substitution mechanism https://eips.ethereum.org/EIPS/eip-1155#metadata[defined in the EIP]. Clients calling this function must replace the `\\{id\\}` substring with the actual token type ID."
      }
    },
    "version": 1
  },
  "userdoc": {
    "kind": "user",
    "methods": {},
    "version": 1
  }
}