{
  "contractName": "CreatorTokenExchange",
  "abi": [
    {
      "inputs": [
        {
          "internalType": "string",
          "name": "uri",
          "type": "string"
        }
      ],
      "stateMutability": "nonpayable",
      "type": "constructor"
    },
    {
      "anonymous": false,
      "inputs": [
        {
          "indexed": true,
          "internalType": "address",
          "name": "account",
          "type": "address"
        },
        {
          "indexed": true,
          "internalType": "address",
          "name": "operator",
          "type": "address"
        },
        {
          "indexed": false,
          "internalType": "bool",
          "name": "approved",
          "type": "bool"
        }
      ],
      "name": "ApprovalForAll",
      "type": "event"
    },
    {
      "anonymous": false,
      "inputs": [
        {
          "indexed": false,
          "internalType": "uint256",
          "name": "tokenId",
          "type": "uint256"
        },
        {
          "indexed": false,
          "internalType": "address payable",
          "name": "creatorAddress",
          "type": "address"
        },
        {
          "indexed": false,
          "internalType": "string",
          "name": "name",
          "type": "string"
        },
        {
          "indexed": false,
          "internalType": "string",
          "name": "symbol",
          "type": "string"
        },
        {
          "indexed": false,
          "internalType": "string",
          "name": "description",
          "type": "string"
        },
        {
          "indexed": false,
          "internalType": "bool",
          "name": "verified",
          "type": "bool"
        },
        {
          "indexed": false,
          "internalType": "uint256",
          "name": "outstanding",
          "type": "uint256"
        },
        {
          "indexed": false,
          "internalType": "uint256",
          "name": "maxSupply",
          "type": "uint256"
        }
      ],
      "name": "NewCreatorToken",
      "type": "event"
    },
    {
      "anonymous": false,
      "inputs": [
        {
          "indexed": true,
          "internalType": "address",
          "name": "account",
          "type": "address"
        },
        {
          "indexed": false,
          "internalType": "uint256",
          "name": "amount",
          "type": "uint256"
        },
        {
          "indexed": false,
          "internalType": "string",
          "name": "transactionType",
          "type": "string"
        },
        {
          "indexed": false,
          "internalType": "uint256",
          "name": "tokenId",
          "type": "uint256"
        },
        {
          "indexed": false,
          "internalType": "string",
          "name": "name",
          "type": "string"
        },
        {
          "indexed": false,
          "internalType": "string",
          "name": "symbol",
          "type": "string"
        }
      ],
      "name": "NewTransaction",
      "type": "event"
    },
    {
      "anonymous": false,
      "inputs": [
        {
          "indexed": true,
          "internalType": "address",
          "name": "previousOwner",
          "type": "address"
        },
        {
          "indexed": true,
          "internalType": "address",
          "name": "newOwner",
          "type": "address"
        }
      ],
      "name": "OwnershipTransferred",
      "type": "event"
    },
    {
      "anonymous": false,
      "inputs": [
        {
          "indexed": true,
          "internalType": "address",
          "name": "operator",
          "type": "address"
        },
        {
          "indexed": true,
          "internalType": "address",
          "name": "from",
          "type": "address"
        },
        {
          "indexed": true,
          "internalType": "address",
          "name": "to",
          "type": "address"
        },
        {
          "indexed": false,
          "internalType": "uint256[]",
          "name": "ids",
          "type": "uint256[]"
        },
        {
          "indexed": false,
          "internalType": "uint256[]",
          "name": "values",
          "type": "uint256[]"
        }
      ],
      "name": "TransferBatch",
      "type": "event"
    },
    {
      "anonymous": false,
      "inputs": [
        {
          "indexed": true,
          "internalType": "address",
          "name": "operator",
          "type": "address"
        },
        {
          "indexed": true,
          "internalType": "address",
          "name": "from",
          "type": "address"
        },
        {
          "indexed": true,
          "internalType": "address",
          "name": "to",
          "type": "address"
        },
        {
          "indexed": false,
          "internalType": "uint256",
          "name": "id",
          "type": "uint256"
        },
        {
          "indexed": false,
          "internalType": "uint256",
          "name": "value",
          "type": "uint256"
        }
      ],
      "name": "TransferSingle",
      "type": "event"
    },
    {
      "anonymous": false,
      "inputs": [
        {
          "indexed": false,
          "internalType": "string",
          "name": "value",
          "type": "string"
        },
        {
          "indexed": true,
          "internalType": "uint256",
          "name": "id",
          "type": "uint256"
        }
      ],
      "name": "URI",
      "type": "event"
    },
    {
      "inputs": [
        {
          "internalType": "uint256",
          "name": "_tokenId",
          "type": "uint256"
        },
        {
          "internalType": "uint256",
          "name": "_amount",
          "type": "uint256"
        }
      ],
      "name": "_buyProceeds",
      "outputs": [
        {
          "internalType": "uint256",
          "name": "",
          "type": "uint256"
        }
      ],
      "stateMutability": "view",
      "type": "function",
      "constant": true
    },
    {
      "inputs": [
        {
          "internalType": "uint256",
          "name": "_proceedsRequired",
          "type": "uint256"
        }
      ],
      "name": "_feeProceeds",
      "outputs": [
        {
          "internalType": "uint256",
          "name": "",
          "type": "uint256"
        }
      ],
      "stateMutability": "view",
      "type": "function",
      "constant": true
    },
    {
      "inputs": [
        {
          "internalType": "uint256",
          "name": "_tokenId",
          "type": "uint256"
        },
        {
          "internalType": "uint256",
          "name": "_amount",
          "type": "uint256"
        }
      ],
      "name": "_totalProceeds",
      "outputs": [
        {
          "internalType": "uint256",
          "name": "",
          "type": "uint256"
        }
      ],
      "stateMutability": "view",
      "type": "function",
      "constant": true
    },
    {
      "inputs": [
        {
          "internalType": "address",
          "name": "account",
          "type": "address"
        },
        {
          "internalType": "uint256",
          "name": "id",
          "type": "uint256"
        }
      ],
      "name": "balanceOf",
      "outputs": [
        {
          "internalType": "uint256",
          "name": "",
          "type": "uint256"
        }
      ],
      "stateMutability": "view",
      "type": "function",
      "constant": true
    },
    {
      "inputs": [
        {
          "internalType": "address[]",
          "name": "accounts",
          "type": "address[]"
        },
        {
          "internalType": "uint256[]",
          "name": "ids",
          "type": "uint256[]"
        }
      ],
      "name": "balanceOfBatch",
      "outputs": [
        {
          "internalType": "uint256[]",
          "name": "",
          "type": "uint256[]"
        }
      ],
      "stateMutability": "view",
      "type": "function",
      "constant": true
    },
    {
      "inputs": [
        {
          "internalType": "uint256",
          "name": "_tokenId",
          "type": "uint256"
        },
        {
          "internalType": "address payable",
          "name": "_newCreatorAddress",
          "type": "address"
        }
      ],
      "name": "changeAddress",
      "outputs": [],
      "stateMutability": "nonpayable",
      "type": "function"
    },
    {
      "inputs": [
        {
          "internalType": "uint256",
          "name": "_tokenId",
          "type": "uint256"
        },
        {
          "internalType": "string",
          "name": "_newDescription",
          "type": "string"
        }
      ],
      "name": "changeDescription",
      "outputs": [],
      "stateMutability": "nonpayable",
      "type": "function"
    },
    {
      "inputs": [
        {
          "internalType": "uint256",
          "name": "_tokenId",
          "type": "uint256"
        },
        {
          "internalType": "string",
          "name": "_newName",
          "type": "string"
        }
      ],
      "name": "changeName",
      "outputs": [],
      "stateMutability": "nonpayable",
      "type": "function"
    },
    {
      "inputs": [
        {
          "internalType": "uint256",
          "name": "_newPlatformFee",
          "type": "uint256"
        }
      ],
      "name": "changePlatformFee",
      "outputs": [],
      "stateMutability": "nonpayable",
      "type": "function"
    },
    {
      "inputs": [
        {
          "internalType": "uint256",
          "name": "_newProfitMargin",
          "type": "uint256"
        }
      ],
      "name": "changeProfitMargin",
      "outputs": [],
      "stateMutability": "nonpayable",
      "type": "function"
    },
    {
      "inputs": [
        {
          "internalType": "uint256",
          "name": "_tokenId",
          "type": "uint256"
        },
        {
          "internalType": "string",
          "name": "_newSymbol",
          "type": "string"
        }
      ],
      "name": "changeSymbol",
      "outputs": [],
      "stateMutability": "nonpayable",
      "type": "function"
    },
    {
      "inputs": [
        {
          "internalType": "uint256",
          "name": "_tokenId",
          "type": "uint256"
        },
        {
          "internalType": "bool",
          "name": "_verified",
          "type": "bool"
        }
      ],
      "name": "changeVerification",
      "outputs": [],
      "stateMutability": "nonpayable",
      "type": "function"
    },
    {
      "inputs": [
        {
          "internalType": "address payable",
          "name": "_creatorAddress",
          "type": "address"
        },
        {
          "internalType": "string",
          "name": "_name",
          "type": "string"
        },
        {
          "internalType": "string",
          "name": "_symbol",
          "type": "string"
        },
        {
          "internalType": "string",
          "name": "_description",
          "type": "string"
        }
      ],
      "name": "createCreatorToken",
      "outputs": [],
      "stateMutability": "nonpayable",
      "type": "function"
    },
    {
      "inputs": [
        {
          "internalType": "uint256",
          "name": "",
          "type": "uint256"
        }
      ],
      "name": "creatorTokens",
      "outputs": [
        {
          "internalType": "address payable",
          "name": "creatorAddress",
          "type": "address"
        },
        {
          "internalType": "string",
          "name": "name",
          "type": "string"
        },
        {
          "internalType": "string",
          "name": "symbol",
          "type": "string"
        },
        {
          "internalType": "string",
          "name": "description",
          "type": "string"
        },
        {
          "internalType": "bool",
          "name": "verified",
          "type": "bool"
        },
        {
          "internalType": "uint256",
          "name": "outstanding",
          "type": "uint256"
        },
        {
          "internalType": "uint256",
          "name": "maxSupply",
          "type": "uint256"
        }
      ],
      "stateMutability": "view",
      "type": "function",
      "constant": true
    },
    {
      "inputs": [
        {
          "internalType": "address",
          "name": "_account",
          "type": "address"
        },
        {
          "internalType": "address",
          "name": "_operator",
          "type": "address"
        }
      ],
      "name": "isApprovedForAll",
      "outputs": [
        {
          "internalType": "bool",
          "name": "",
          "type": "bool"
        }
      ],
      "stateMutability": "view",
      "type": "function",
      "constant": true
    },
    {
      "inputs": [],
      "name": "owner",
      "outputs": [
        {
          "internalType": "address",
          "name": "",
          "type": "address"
        }
      ],
      "stateMutability": "view",
      "type": "function",
      "constant": true
    },
    {
      "inputs": [
        {
          "internalType": "address payable",
          "name": "_owner",
          "type": "address"
        }
      ],
      "name": "payoutPlatformFees",
      "outputs": [],
      "stateMutability": "nonpayable",
      "type": "function"
    },
    {
      "inputs": [],
      "name": "platformFeesOwed",
      "outputs": [
        {
          "internalType": "uint256",
          "name": "",
          "type": "uint256"
        }
      ],
      "stateMutability": "view",
      "type": "function",
      "constant": true
    },
    {
      "inputs": [],
      "name": "renounceOwnership",
      "outputs": [],
      "stateMutability": "nonpayable",
      "type": "function"
    },
    {
      "inputs": [
        {
          "internalType": "address",
          "name": "_from",
          "type": "address"
        },
        {
          "internalType": "address",
          "name": "_to",
          "type": "address"
        },
        {
          "internalType": "uint256[]",
          "name": "_ids",
          "type": "uint256[]"
        },
        {
          "internalType": "uint256[]",
          "name": "_amounts",
          "type": "uint256[]"
        },
        {
          "internalType": "bytes",
          "name": "_data",
          "type": "bytes"
        }
      ],
      "name": "safeBatchTransferFrom",
      "outputs": [],
      "stateMutability": "nonpayable",
      "type": "function"
    },
    {
      "inputs": [
        {
          "internalType": "address",
          "name": "_from",
          "type": "address"
        },
        {
          "internalType": "address",
          "name": "_to",
          "type": "address"
        },
        {
          "internalType": "uint256",
          "name": "_id",
          "type": "uint256"
        },
        {
          "internalType": "uint256",
          "name": "_amount",
          "type": "uint256"
        },
        {
          "internalType": "bytes",
          "name": "_data",
          "type": "bytes"
        }
      ],
      "name": "safeTransferFrom",
      "outputs": [],
      "stateMutability": "nonpayable",
      "type": "function"
    },
    {
      "inputs": [
        {
          "internalType": "address",
          "name": "_operator",
          "type": "address"
        },
        {
          "internalType": "bool",
          "name": "_approved",
          "type": "bool"
        }
      ],
      "name": "setApprovalForAll",
      "outputs": [],
      "stateMutability": "nonpayable",
      "type": "function"
    },
    {
      "inputs": [
        {
          "internalType": "bytes4",
          "name": "interfaceId",
          "type": "bytes4"
        }
      ],
      "name": "supportsInterface",
      "outputs": [
        {
          "internalType": "bool",
          "name": "",
          "type": "bool"
        }
      ],
      "stateMutability": "view",
      "type": "function",
      "constant": true
    },
    {
      "inputs": [
        {
          "internalType": "uint256",
          "name": "",
          "type": "uint256"
        },
        {
          "internalType": "address",
          "name": "",
          "type": "address"
        }
      ],
      "name": "tokenHoldership",
      "outputs": [
        {
          "internalType": "uint256",
          "name": "",
          "type": "uint256"
        }
      ],
      "stateMutability": "view",
      "type": "function",
      "constant": true
    },
    {
      "inputs": [
        {
          "internalType": "uint256",
          "name": "",
          "type": "uint256"
        }
      ],
      "name": "tokenToCreator",
      "outputs": [
        {
          "internalType": "address",
          "name": "",
          "type": "address"
        }
      ],
      "stateMutability": "view",
      "type": "function",
      "constant": true
    },
    {
      "inputs": [],
      "name": "totalPlatformFees",
      "outputs": [
        {
          "internalType": "uint256",
          "name": "",
          "type": "uint256"
        }
      ],
      "stateMutability": "view",
      "type": "function",
      "constant": true
    },
    {
      "inputs": [
        {
          "internalType": "uint256",
          "name": "",
          "type": "uint256"
        }
      ],
      "name": "totalValueLocked",
      "outputs": [
        {
          "internalType": "uint256",
          "name": "",
          "type": "uint256"
        }
      ],
      "stateMutability": "view",
      "type": "function",
      "constant": true
    },
    {
      "inputs": [
        {
          "internalType": "address",
          "name": "newOwner",
          "type": "address"
        }
      ],
      "name": "transferOwnership",
      "outputs": [],
      "stateMutability": "nonpayable",
      "type": "function"
    },
    {
      "inputs": [
        {
          "internalType": "uint256",
          "name": "",
          "type": "uint256"
        }
      ],
      "name": "uri",
      "outputs": [
        {
          "internalType": "string",
          "name": "",
          "type": "string"
        }
      ],
      "stateMutability": "view",
      "type": "function",
      "constant": true
    },
    {
      "inputs": [
        {
          "internalType": "address",
          "name": "",
          "type": "address"
        },
        {
          "internalType": "uint256",
          "name": "",
          "type": "uint256"
        }
      ],
      "name": "userToHoldings",
      "outputs": [
        {
          "internalType": "uint256",
          "name": "",
          "type": "uint256"
        }
      ],
      "stateMutability": "view",
      "type": "function",
      "constant": true
    },
    {
      "inputs": [
        {
          "internalType": "address payable",
          "name": "_owner",
          "type": "address"
        }
      ],
      "name": "withdraw",
      "outputs": [],
      "stateMutability": "nonpayable",
      "type": "function"
    },
    {
      "inputs": [
        {
          "internalType": "uint256",
          "name": "_tokenId",
          "type": "uint256"
        },
        {
          "internalType": "uint256",
          "name": "_amount",
          "type": "uint256"
        }
      ],
      "name": "buyCreatorToken",
      "outputs": [],
      "stateMutability": "payable",
      "type": "function",
      "payable": true
    },
    {
      "inputs": [
        {
          "internalType": "uint256",
          "name": "_tokenId",
          "type": "uint256"
        },
        {
          "internalType": "uint256",
          "name": "_amount",
          "type": "uint256"
        },
        {
          "internalType": "address payable",
          "name": "_seller",
          "type": "address"
        }
      ],
      "name": "sellCreatorToken",
      "outputs": [],
      "stateMutability": "payable",
      "type": "function",
      "payable": true
    }
  ],
  "bytecode": "0x60806040526001805560006002556000600355601460045565082f79cd900060055560b96006553480156200003357600080fd5b50604051620048673803806200486783398181016040528101906200005991906200027d565b80808080806000620000706200012b60201b60201c565b9050806000806101000a81548173ffffffffffffffffffffffffffffffffffffffff021916908373ffffffffffffffffffffffffffffffffffffffff1602179055508073ffffffffffffffffffffffffffffffffffffffff16600073ffffffffffffffffffffffffffffffffffffffff167f8be0079c531659141344cd1fd0a4f28419497f9722a3daafe3b4186f6b6457e060405160405180910390a3506200011f816200013360201b60201c565b50505050505062000452565b600033905090565b80601090805190602001906200014b9291906200014f565b5050565b8280546200015d9062000363565b90600052602060002090601f016020900481019282620001815760008555620001cd565b82601f106200019c57805160ff1916838001178555620001cd565b82800160010185558215620001cd579182015b82811115620001cc578251825591602001919060010190620001af565b5b509050620001dc9190620001e0565b5090565b5b80821115620001fb576000816000905550600101620001e1565b5090565b6000620002166200021084620002f7565b620002ce565b90508281526020810184848401111562000235576200023462000432565b5b620002428482856200032d565b509392505050565b600082601f8301126200026257620002616200042d565b5b815162000274848260208601620001ff565b91505092915050565b6000602082840312156200029657620002956200043c565b5b600082015167ffffffffffffffff811115620002b757620002b662000437565b5b620002c5848285016200024a565b91505092915050565b6000620002da620002ed565b9050620002e8828262000399565b919050565b6000604051905090565b600067ffffffffffffffff821115620003155762000314620003fe565b5b620003208262000441565b9050602081019050919050565b60005b838110156200034d57808201518184015260208101905062000330565b838111156200035d576000848401525b50505050565b600060028204905060018216806200037c57607f821691505b60208210811415620003935762000392620003cf565b5b50919050565b620003a48262000441565b810181811067ffffffffffffffff82111715620003c657620003c5620003fe565b5b80604052505050565b7f4e487b7100000000000000000000000000000000000000000000000000000000600052602260045260246000fd5b7f4e487b7100000000000000000000000000000000000000000000000000000000600052604160045260246000fd5b600080fd5b600080fd5b600080fd5b600080fd5b6000601f19601f8301169050919050565b61440580620004626000396000f3fe6080604052600436106101ed5760003560e01c8063ba111a051161010d578063d7a5791a116100a0578063eb8417591161006f578063eb8417591461075f578063f242432a14610788578063f2fde38b146107b1578063f7374e2e146107da578063fffae94114610803576101ed565b8063d7a5791a14610693578063d9bd3a40146106bc578063de6a06ed146106f9578063e985e9c514610722576101ed565b8063c539c317116100dc578063c539c317146105d3578063ce901d8a146105fc578063d3631fa51461063f578063d56b72c71461066a576101ed565b8063ba111a0514610505578063bfb48c9c14610542578063c1d330491461057f578063c39cbef1146105aa576101ed565b806335a8ae2111610185578063715018a611610154578063715018a61461045d5780638da5cb5b1461047457806392724afa1461049f578063a22cb465146104dc576101ed565b806335a8ae211461037d5780634e1273f4146103ba5780634fe477d8146103f757806351cff8d914610434576101ed565b806318892ae8116101c157806318892ae8146102d25780631d5ad18b1461030f5780632dcfdaf7146103385780632eb2c2d614610354576101ed565b8062fdd58e146101f257806301ffc9a71461022f57806306e320f51461026c5780630e89341c14610295575b600080fd5b3480156101fe57600080fd5b506102196004803603810190610214919061347e565b61081f565b6040516102269190613b53565b60405180910390f35b34801561023b57600080fd5b5061025660048036038101906102519190613536565b6108e9565b6040516102639190613a96565b60405180910390f35b34801561027857600080fd5b50610293600480360381019061028e9190613650565b6109cb565b005b3480156102a157600080fd5b506102bc60048036038101906102b79190613563565b610a72565b6040516102c99190613ab1565b60405180910390f35b3480156102de57600080fd5b506102f960048036038101906102f49190613563565b610b06565b604051610306919061399e565b60405180910390f35b34801561031b57600080fd5b50610336600480360381019061033191906135d0565b610b39565b005b610352600480360381019061034d91906136f0565b610c0e565b005b34801561036057600080fd5b5061037b600480360381019061037691906132d8565b610dfc565b005b34801561038957600080fd5b506103a4600480360381019061039f91906136b0565b610f68565b6040516103b19190613b53565b60405180910390f35b3480156103c657600080fd5b506103e160048036038101906103dc91906134be565b610fa0565b6040516103ee9190613a3d565b60405180910390f35b34801561040357600080fd5b5061041e600480360381019061041991906136b0565b6110b9565b60405161042b9190613b53565b60405180910390f35b34801561044057600080fd5b5061045b600480360381019061045691906131b0565b6112c6565b005b34801561046957600080fd5b5061047261138c565b005b34801561048057600080fd5b506104896114c6565b604051610496919061399e565b60405180910390f35b3480156104ab57600080fd5b506104c660048036038101906104c1919061347e565b6114ef565b6040516104d39190613b53565b60405180910390f35b3480156104e857600080fd5b5061050360048036038101906104fe919061343e565b611514565b005b34801561051157600080fd5b5061052c60048036038101906105279190613563565b611611565b6040516105399190613b53565b60405180910390f35b34801561054e57600080fd5b5061056960048036038101906105649190613590565b611634565b6040516105769190613b53565b60405180910390f35b34801561058b57600080fd5b50610594611659565b6040516105a19190613b53565b60405180910390f35b3480156105b657600080fd5b506105d160048036038101906105cc9190613650565b61165f565b005b3480156105df57600080fd5b506105fa60048036038101906105f59190613563565b611706565b005b34801561060857600080fd5b50610623600480360381019061061e9190613563565b61178c565b60405161063697969594939291906139b9565b60405180910390f35b34801561064b57600080fd5b506106546119a3565b6040516106619190613b53565b60405180910390f35b34801561067657600080fd5b50610691600480360381019061068c91906131dd565b6119a9565b005b34801561069f57600080fd5b506106ba60048036038101906106b59190613563565b611bc5565b005b3480156106c857600080fd5b506106e360048036038101906106de9190613563565b611c4b565b6040516106f09190613b53565b60405180910390f35b34801561070557600080fd5b50610720600480360381019061071b9190613650565b611c63565b005b34801561072e57600080fd5b5061074960048036038101906107449190613298565b611d0a565b6040516107569190613a96565b60405180910390f35b34801561076b57600080fd5b50610786600480360381019061078191906131b0565b611d9e565b005b34801561079457600080fd5b506107af60048036038101906107aa91906133a7565b611e6e565b005b3480156107bd57600080fd5b506107d860048036038101906107d39190613183565b611f52565b005b3480156107e657600080fd5b5061080160048036038101906107fc9190613610565b6120fb565b005b61081d600480360381019061081891906136b0565b6121b8565b005b60008073ffffffffffffffffffffffffffffffffffffffff168373ffffffffffffffffffffffffffffffffffffffff161415610890576040517f08c379a000000000000000000000000000000000000000000000000000000000815260040161088790613ad3565b60405180910390fd5b600e600083815260200190815260200160002060008473ffffffffffffffffffffffffffffffffffffffff1673ffffffffffffffffffffffffffffffffffffffff16815260200190815260200160002054905092915050565b60007fd9b67a26000000000000000000000000000000000000000000000000000000007bffffffffffffffffffffffffffffffffffffffffffffffffffffffff1916827bffffffffffffffffffffffffffffffffffffffffffffffffffffffff191614806109b457507f0e89341c000000000000000000000000000000000000000000000000000000007bffffffffffffffffffffffffffffffffffffffffffffffffffffffff1916827bffffffffffffffffffffffffffffffffffffffffffffffffffffffff1916145b806109c457506109c3826123c9565b5b9050919050565b826008600082815260200190815260200160002060009054906101000a900473ffffffffffffffffffffffffffffffffffffffff1673ffffffffffffffffffffffffffffffffffffffff163373ffffffffffffffffffffffffffffffffffffffff1614610a3757600080fd5b828260078681548110610a4d57610a4c614167565b5b90600052602060002090600702016002019190610a6b929190612d7f565b5050505050565b606060108054610a819061402e565b80601f0160208091040260200160405190810160405280929190818152602001828054610aad9061402e565b8015610afa5780601f10610acf57610100808354040283529160200191610afa565b820191906000526020600020905b815481529060010190602001808311610add57829003601f168201915b50505050509050919050565b60086020528060005260406000206000915054906101000a900473ffffffffffffffffffffffffffffffffffffffff1681565b816008600082815260200190815260200160002060009054906101000a900473ffffffffffffffffffffffffffffffffffffffff1673ffffffffffffffffffffffffffffffffffffffff163373ffffffffffffffffffffffffffffffffffffffff1614610ba557600080fd5b8160078481548110610bba57610bb9614167565b5b906000526020600020906007020160000160006101000a81548173ffffffffffffffffffffffffffffffffffffffff021916908373ffffffffffffffffffffffffffffffffffffffff160217905550505050565b3373ffffffffffffffffffffffffffffffffffffffff168173ffffffffffffffffffffffffffffffffffffffff1614610c4657600080fd5b6000610ca660078581548110610c5f57610c5e614167565b5b9060005260206000209060070201600501548460055460065460078981548110610c8c57610c8b614167565b5b906000526020600020906007020160060154600454612433565b905080600d60008681526020019081526020016000206000828254610ccb9190613f20565b925050819055506000606460015483610ce49190613ec6565b610cee9190613e95565b90508082610cfc9190613f20565b9150610d098386866124ac565b8273ffffffffffffffffffffffffffffffffffffffff166108fc839081150290604051600060405180830381858888f19350505050158015610d4f573d6000803e3d6000fd5b50610d59816125af565b3373ffffffffffffffffffffffffffffffffffffffff167f1ebb537d8231cf8a6b1b0d1684d85dfd83872c030ffc75f500f0729eaf674d82858760078981548110610da757610da6614167565b5b906000526020600020906007020160010160078a81548110610dcc57610dcb614167565b5b9060005260206000209060070201600201604051610ded9493929190613c67565b60405180910390a25050505050565b60005b8351811015610ee2578573ffffffffffffffffffffffffffffffffffffffff163373ffffffffffffffffffffffffffffffffffffffff161480610e485750610e478686611d0a565b5b610e5157600080fd5b610e9086858381518110610e6857610e67614167565b5b6020026020010151858481518110610e8357610e82614167565b5b60200260200101516125e4565b610ecf85858381518110610ea757610ea6614167565b5b6020026020010151858481518110610ec257610ec1614167565b5b60200260200101516126b7565b8080610eda90614091565b915050610dff565b508373ffffffffffffffffffffffffffffffffffffffff168573ffffffffffffffffffffffffffffffffffffffff163373ffffffffffffffffffffffffffffffffffffffff167f4a39dc06d4c0dbc64b70af90fd698a233a518aa5d07e595d983b8c0526c8f7fb8686604051610f59929190613a5f565b60405180910390a45050505050565b600080610f7584846110b9565b90506000610f8282611611565b905060008183610f929190613e3f565b905080935050505092915050565b60608151835114610fe6576040517f08c379a0000000000000000000000000000000000000000000000000000000008152600401610fdd90613b33565b60405180910390fd5b6000835167ffffffffffffffff81111561100357611002614196565b5b6040519080825280602002602001820160405280156110315781602001602082028036833780820191505090505b50905060005b84518110156110ae5761107e85828151811061105657611055614167565b5b602002602001015185838151811061107157611070614167565b5b602002602001015161081f565b82828151811061109157611090614167565b5b602002602001018181525050806110a790614091565b9050611037565b508091505092915050565b600080600090506000600785815481106110d6576110d5614167565b5b9060005260206000209060070201600501549050600084826110f89190613e3f565b90506007868154811061110e5761110d614167565b5b90600052602060002090600702016006015481101561116757611160818660055460065460078b8154811061114657611145614167565b5b906000526020600020906007020160060154600454612433565b92506112ba565b6007868154811061117b5761117a614167565b5b9060005260206000209060070201600601548210156112a657611222600787815481106111ab576111aa614167565b5b90600052602060002090600702016006015483600789815481106111d2576111d1614167565b5b9060005260206000209060070201600601546111ee9190613f20565b60055460065460078b8154811061120857611207614167565b5b906000526020600020906007020160060154600454612433565b92506112946007878154811061123b5761123a614167565b5b906000526020600020906007020160060154836007898154811061126257611261614167565b5b90600052602060002090600702016006015461127e9190613f20565b876112899190613f20565b60055460065461278a565b8361129f9190613e3f565b92506112b9565b6112b6828660055460065461278a565b92505b5b82935050505092915050565b6112ce612818565b73ffffffffffffffffffffffffffffffffffffffff166112ec6114c6565b73ffffffffffffffffffffffffffffffffffffffff1614611342576040517f08c379a000000000000000000000000000000000000000000000000000000000815260040161133990613b13565b60405180910390fd5b8073ffffffffffffffffffffffffffffffffffffffff166108fc479081150290604051600060405180830381858888f19350505050158015611388573d6000803e3d6000fd5b5050565b611394612818565b73ffffffffffffffffffffffffffffffffffffffff166113b26114c6565b73ffffffffffffffffffffffffffffffffffffffff1614611408576040517f08c379a00000000000000000000000000000000000000000000000000000000081526004016113ff90613b13565b60405180910390fd5b600073ffffffffffffffffffffffffffffffffffffffff1660008054906101000a900473ffffffffffffffffffffffffffffffffffffffff1673ffffffffffffffffffffffffffffffffffffffff167f8be0079c531659141344cd1fd0a4f28419497f9722a3daafe3b4186f6b6457e060405160405180910390a360008060006101000a81548173ffffffffffffffffffffffffffffffffffffffff021916908373ffffffffffffffffffffffffffffffffffffffff160217905550565b60008060009054906101000a900473ffffffffffffffffffffffffffffffffffffffff16905090565b600b602052816000526040600020602052806000526040600020600091509150505481565b80600c60003373ffffffffffffffffffffffffffffffffffffffff1673ffffffffffffffffffffffffffffffffffffffff16815260200190815260200160002060008473ffffffffffffffffffffffffffffffffffffffff1673ffffffffffffffffffffffffffffffffffffffff16815260200190815260200160002060006101000a81548160ff0219169083151502179055508173ffffffffffffffffffffffffffffffffffffffff163373ffffffffffffffffffffffffffffffffffffffff167f17307eab39ab6107e8899845ad3d59bd9653f200f220920489ca2b5937696c31836040516116059190613a96565b60405180910390a35050565b60006064600154836116239190613ec6565b61162d9190613e95565b9050919050565b600a602052816000526040600020602052806000526040600020600091509150505481565b60035481565b826008600082815260200190815260200160002060009054906101000a900473ffffffffffffffffffffffffffffffffffffffff1673ffffffffffffffffffffffffffffffffffffffff163373ffffffffffffffffffffffffffffffffffffffff16146116cb57600080fd5b8282600786815481106116e1576116e0614167565b5b906000526020600020906007020160010191906116ff929190612d7f565b5050505050565b61170e612818565b73ffffffffffffffffffffffffffffffffffffffff1661172c6114c6565b73ffffffffffffffffffffffffffffffffffffffff1614611782576040517f08c379a000000000000000000000000000000000000000000000000000000000815260040161177990613b13565b60405180910390fd5b8060048190555050565b6007818154811061179c57600080fd5b90600052602060002090600702016000915090508060000160009054906101000a900473ffffffffffffffffffffffffffffffffffffffff16908060010180546117e59061402e565b80601f01602080910402602001604051908101604052809291908181526020018280546118119061402e565b801561185e5780601f106118335761010080835404028352916020019161185e565b820191906000526020600020905b81548152906001019060200180831161184157829003601f168201915b5050505050908060020180546118739061402e565b80601f016020809104026020016040519081016040528092919081815260200182805461189f9061402e565b80156118ec5780601f106118c1576101008083540402835291602001916118ec565b820191906000526020600020905b8154815290600101906020018083116118cf57829003601f168201915b5050505050908060030180546119019061402e565b80601f016020809104026020016040519081016040528092919081815260200182805461192d9061402e565b801561197a5780601f1061194f5761010080835404028352916020019161197a565b820191906000526020600020905b81548152906001019060200180831161195d57829003601f168201915b5050505050908060040160009054906101000a900460ff16908060050154908060060154905087565b60025481565b60076040518060e001604052808673ffffffffffffffffffffffffffffffffffffffff168152602001858152602001848152602001838152602001600015158152602001600081526020016000815250908060018154018082558091505060019003906000526020600020906007020160009091909190915060008201518160000160006101000a81548173ffffffffffffffffffffffffffffffffffffffff021916908373ffffffffffffffffffffffffffffffffffffffff1602179055506020820151816001019080519060200190611a85929190612e05565b506040820151816002019080519060200190611aa2929190612e05565b506060820151816003019080519060200190611abf929190612e05565b5060808201518160040160006101000a81548160ff02191690831515021790555060a0820151816005015560c08201518160060155505060006001600780549050611b0a9190613f20565b9050846008600083815260200190815260200160002060006101000a81548173ffffffffffffffffffffffffffffffffffffffff021916908373ffffffffffffffffffffffffffffffffffffffff160217905550600060096000838152602001908152602001600020819055507f3ef624c0f3fb7ad40b94c02078ea3e3a797dbfc21e921ee4bd2b8ad0ca6aa11381868686866000806000604051611bb6989796959493929190613b6e565b60405180910390a15050505050565b611bcd612818565b73ffffffffffffffffffffffffffffffffffffffff16611beb6114c6565b73ffffffffffffffffffffffffffffffffffffffff1614611c41576040517f08c379a0000000000000000000000000000000000000000000000000000000008152600401611c3890613b13565b60405180910390fd5b8060018190555050565b600d6020528060005260406000206000915090505481565b826008600082815260200190815260200160002060009054906101000a900473ffffffffffffffffffffffffffffffffffffffff1673ffffffffffffffffffffffffffffffffffffffff163373ffffffffffffffffffffffffffffffffffffffff1614611ccf57600080fd5b828260078681548110611ce557611ce4614167565b5b90600052602060002090600702016003019190611d03929190612d7f565b5050505050565b6000600c60008473ffffffffffffffffffffffffffffffffffffffff1673ffffffffffffffffffffffffffffffffffffffff16815260200190815260200160002060008373ffffffffffffffffffffffffffffffffffffffff1673ffffffffffffffffffffffffffffffffffffffff16815260200190815260200160002060009054906101000a900460ff16905092915050565b611da6612818565b73ffffffffffffffffffffffffffffffffffffffff16611dc46114c6565b73ffffffffffffffffffffffffffffffffffffffff1614611e1a576040517f08c379a0000000000000000000000000000000000000000000000000000000008152600401611e1190613b13565b60405180910390fd5b8073ffffffffffffffffffffffffffffffffffffffff166108fc6003549081150290604051600060405180830381858888f19350505050158015611e62573d6000803e3d6000fd5b50600060038190555050565b8473ffffffffffffffffffffffffffffffffffffffff163373ffffffffffffffffffffffffffffffffffffffff161480611eae5750611ead8585611d0a565b5b611eb757600080fd5b611ec28584846125e4565b611ecd8484846126b7565b8373ffffffffffffffffffffffffffffffffffffffff168573ffffffffffffffffffffffffffffffffffffffff163373ffffffffffffffffffffffffffffffffffffffff167fc3d58168c5ae7397731d063d5bbf3d657854427343f4c083240f7aacaa2d0f628686604051611f43929190613ccd565b60405180910390a45050505050565b611f5a612818565b73ffffffffffffffffffffffffffffffffffffffff16611f786114c6565b73ffffffffffffffffffffffffffffffffffffffff1614611fce576040517f08c379a0000000000000000000000000000000000000000000000000000000008152600401611fc590613b13565b60405180910390fd5b600073ffffffffffffffffffffffffffffffffffffffff168173ffffffffffffffffffffffffffffffffffffffff16141561203e576040517f08c379a000000000000000000000000000000000000000000000000000000000815260040161203590613af3565b60405180910390fd5b8073ffffffffffffffffffffffffffffffffffffffff1660008054906101000a900473ffffffffffffffffffffffffffffffffffffffff1673ffffffffffffffffffffffffffffffffffffffff167f8be0079c531659141344cd1fd0a4f28419497f9722a3daafe3b4186f6b6457e060405160405180910390a3806000806101000a81548173ffffffffffffffffffffffffffffffffffffffff021916908373ffffffffffffffffffffffffffffffffffffffff16021790555050565b612103612818565b73ffffffffffffffffffffffffffffffffffffffff166121216114c6565b73ffffffffffffffffffffffffffffffffffffffff1614612177576040517f08c379a000000000000000000000000000000000000000000000000000000000815260040161216e90613b13565b60405180910390fd5b806007838154811061218c5761218b614167565b5b906000526020600020906007020160040160006101000a81548160ff0219169083151502179055505050565b60006121c48383610f68565b90508034146121d257600080fd5b60006121de84846110b9565b905080600d600086815260200190815260200160002060008282546122039190613e3f565b9250508190555061221b61221682611611565b6125af565b61223633858560405180602001604052806000815250612820565b3373ffffffffffffffffffffffffffffffffffffffff167f1ebb537d8231cf8a6b1b0d1684d85dfd83872c030ffc75f500f0729eaf674d8284866007888154811061228457612283614167565b5b9060005260206000209060070201600101600789815481106122a9576122a8614167565b5b90600052602060002090600702016002016040516122ca9493929190613c01565b60405180910390a2600784815481106122e6576122e5614167565b5b9060005260206000209060070201600601546007858154811061230c5761230b614167565b5b90600052602060002090600702016005015411156123c3576007848154811061233857612337614167565b5b9060005260206000209060070201600501546007858154811061235e5761235d614167565b5b9060005260206000209060070201600601819055506123c2846007868154811061238b5761238a614167565b5b906000526020600020906007020160000160009054906101000a900473ffffffffffffffffffffffffffffffffffffffff166128ec565b5b50505050565b60007f01ffc9a7000000000000000000000000000000000000000000000000000000007bffffffffffffffffffffffffffffffffffffffffffffffffffffffff1916827bffffffffffffffffffffffffffffffffffffffffffffffffffffffff1916149050919050565b6000806000806124478a8a8a8a8a8a612a41565b9250925092506000838b101561246a5761246384848d85612abc565b905061249b565b838210156124885761248184848d858d8d8d612b5f565b905061249a565b61249784848d858d8d8d612c81565b90505b5b809450505050509695505050505050565b8273ffffffffffffffffffffffffffffffffffffffff163373ffffffffffffffffffffffffffffffffffffffff16146124e457600080fd5b6124ef8383836125e4565b806007838154811061250457612503614167565b5b906000526020600020906007020160050160008282546125249190613f20565b92505081905550600073ffffffffffffffffffffffffffffffffffffffff168373ffffffffffffffffffffffffffffffffffffffff163373ffffffffffffffffffffffffffffffffffffffff167fc3d58168c5ae7397731d063d5bbf3d657854427343f4c083240f7aacaa2d0f6285856040516125a2929190613ccd565b60405180910390a4505050565b80600260008282546125c19190613e3f565b9250508190555080600360008282546125da9190613e3f565b9250508190555050565b80600a600084815260200190815260200160002060008573ffffffffffffffffffffffffffffffffffffffff1673ffffffffffffffffffffffffffffffffffffffff16815260200190815260200160002060008282546126449190613f20565b9250508190555080600b60008573ffffffffffffffffffffffffffffffffffffffff1673ffffffffffffffffffffffffffffffffffffffff168152602001908152602001600020600084815260200190815260200160002060008282546126ab9190613f20565b92505081905550505050565b80600a600084815260200190815260200160002060008573ffffffffffffffffffffffffffffffffffffffff1673ffffffffffffffffffffffffffffffffffffffff16815260200190815260200160002060008282546127179190613e3f565b9250508190555080600b60008573ffffffffffffffffffffffffffffffffffffffff1673ffffffffffffffffffffffffffffffffffffffff1681526020019081526020016000206000848152602001908152602001600020600082825461277e9190613e3f565b92505081905550505050565b60008084866127999190613e3f565b905060008387866127aa9190613ec6565b6127b49190613e95565b905060008483876127c59190613ec6565b6127cf9190613e95565b9050600088846127df9190613f20565b9050600060028284866127f29190613e3f565b6127fc9190613ec6565b6128069190613e95565b90508095505050505050949350505050565b600033905090565b61282b8484846126b7565b81600784815481106128405761283f614167565b5b906000526020600020906007020160050160008282546128609190613e3f565b925050819055508373ffffffffffffffffffffffffffffffffffffffff16600073ffffffffffffffffffffffffffffffffffffffff163373ffffffffffffffffffffffffffffffffffffffff167fc3d58168c5ae7397731d063d5bbf3d657854427343f4c083240f7aacaa2d0f6286866040516128de929190613ccd565b60405180910390a450505050565b60006009600084815260200190815260200160002054905060006129896007858154811061291d5761291c614167565b5b9060005260206000209060070201600601546007868154811061294357612942614167565b5b9060005260206000209060070201600601546005546006546007898154811061296f5761296e614167565b5b906000526020600020906007020160060154600454612433565b6129bf6000600787815481106129a2576129a1614167565b5b90600052602060002090600702016006015460055460065461278a565b6129c99190613f20565b9050600082826129d99190613f20565b90508373ffffffffffffffffffffffffffffffffffffffff166108fc829081150290604051600060405180830381858888f19350505050158015612a21573d6000803e3d6000fd5b508160096000878152602001908152602001600020819055505050505050565b600080600080600286612a549190613e95565b9050600087896064886032612a699190613f20565b8a612a749190613ec6565b612a7e9190613e95565b612a889190613ec6565b612a929190613e95565b905060008a8c612aa29190613f20565b905082828295509550955050505096509650969350505050565b6000808286612acb9190613f20565b8686612ad79190613e95565b612ae19190613ec6565b85612aec9190613f20565b905060008487612afc9190613f20565b8787612b089190613e95565b612b129190613ec6565b86612b1d9190613f20565b905060008486612b2d9190613f20565b90506002818385612b3e9190613e3f565b612b489190613ec6565b612b529190613e95565b9350505050949350505050565b6000808589612b6e9190613f20565b8989612b7a9190613e95565b612b849190613ec6565b88612b8f9190613f20565b905060008890506000878b612ba49190613f20565b905060006002828486612bb79190613e3f565b612bc19190613ec6565b612bcb9190613e95565b905060008b8d8c612bdc9190613f20565b8e89612be89190613f20565b8e8b8b8e612bf69190613ec6565b612c009190613e95565b612c0a9190613f20565b612c149190613e95565b612c1e9190613ec6565b612c289190613e3f565b905060008d8c612c389190613f20565b905060006002828488612c4b9190613e3f565b612c559190613ec6565b612c5f9190613e95565b90508084612c6d9190613e3f565b975050505050505050979650505050505050565b600080878987612c919190613f20565b8a85612c9d9190613f20565b8a87878a612cab9190613ec6565b612cb59190613e95565b612cbf9190613f20565b612cc99190613e95565b612cd39190613ec6565b612cdd9190613e3f565b90506000888a89612cee9190613f20565b8b86612cfa9190613f20565b8b88888b612d089190613ec6565b612d129190613e95565b612d1c9190613f20565b612d269190613e95565b612d309190613ec6565b612d3a9190613e3f565b905060008789612d4a9190613f20565b90506002818385612d5b9190613e3f565b612d659190613ec6565b612d6f9190613e95565b9350505050979650505050505050565b828054612d8b9061402e565b90600052602060002090601f016020900481019282612dad5760008555612df4565b82601f10612dc657803560ff1916838001178555612df4565b82800160010185558215612df4579182015b82811115612df3578235825591602001919060010190612dd8565b5b509050612e019190612e8b565b5090565b828054612e119061402e565b90600052602060002090601f016020900481019282612e335760008555612e7a565b82601f10612e4c57805160ff1916838001178555612e7a565b82800160010185558215612e7a579182015b82811115612e79578251825591602001919060010190612e5e565b5b509050612e879190612e8b565b5090565b5b80821115612ea4576000816000905550600101612e8c565b5090565b6000612ebb612eb684613d1b565b613cf6565b90508083825260208201905082856020860282011115612ede57612edd6141cf565b5b60005b85811015612f0e5781612ef4888261300c565b845260208401935060208301925050600181019050612ee1565b5050509392505050565b6000612f2b612f2684613d47565b613cf6565b90508083825260208201905082856020860282011115612f4e57612f4d6141cf565b5b60005b85811015612f7e5781612f64888261316e565b845260208401935060208301925050600181019050612f51565b5050509392505050565b6000612f9b612f9684613d73565b613cf6565b905082815260208101848484011115612fb757612fb66141d4565b5b612fc2848285613fec565b509392505050565b6000612fdd612fd884613da4565b613cf6565b905082815260208101848484011115612ff957612ff86141d4565b5b613004848285613fec565b509392505050565b60008135905061301b8161435c565b92915050565b60008135905061303081614373565b92915050565b600082601f83011261304b5761304a6141ca565b5b813561305b848260208601612ea8565b91505092915050565b600082601f830112613079576130786141ca565b5b8135613089848260208601612f18565b91505092915050565b6000813590506130a18161438a565b92915050565b6000813590506130b6816143a1565b92915050565b600082601f8301126130d1576130d06141ca565b5b81356130e1848260208601612f88565b91505092915050565b60008083601f840112613100576130ff6141ca565b5b8235905067ffffffffffffffff81111561311d5761311c6141c5565b5b602083019150836001820283011115613139576131386141cf565b5b9250929050565b600082601f830112613155576131546141ca565b5b8135613165848260208601612fca565b91505092915050565b60008135905061317d816143b8565b92915050565b600060208284031215613199576131986141de565b5b60006131a78482850161300c565b91505092915050565b6000602082840312156131c6576131c56141de565b5b60006131d484828501613021565b91505092915050565b600080600080608085870312156131f7576131f66141de565b5b600061320587828801613021565b945050602085013567ffffffffffffffff811115613226576132256141d9565b5b61323287828801613140565b935050604085013567ffffffffffffffff811115613253576132526141d9565b5b61325f87828801613140565b925050606085013567ffffffffffffffff8111156132805761327f6141d9565b5b61328c87828801613140565b91505092959194509250565b600080604083850312156132af576132ae6141de565b5b60006132bd8582860161300c565b92505060206132ce8582860161300c565b9150509250929050565b600080600080600060a086880312156132f4576132f36141de565b5b60006133028882890161300c565b95505060206133138882890161300c565b945050604086013567ffffffffffffffff811115613334576133336141d9565b5b61334088828901613064565b935050606086013567ffffffffffffffff811115613361576133606141d9565b5b61336d88828901613064565b925050608086013567ffffffffffffffff81111561338e5761338d6141d9565b5b61339a888289016130bc565b9150509295509295909350565b600080600080600060a086880312156133c3576133c26141de565b5b60006133d18882890161300c565b95505060206133e28882890161300c565b94505060406133f38882890161316e565b93505060606134048882890161316e565b925050608086013567ffffffffffffffff811115613425576134246141d9565b5b613431888289016130bc565b9150509295509295909350565b60008060408385031215613455576134546141de565b5b60006134638582860161300c565b925050602061347485828601613092565b9150509250929050565b60008060408385031215613495576134946141de565b5b60006134a38582860161300c565b92505060206134b48582860161316e565b9150509250929050565b600080604083850312156134d5576134d46141de565b5b600083013567ffffffffffffffff8111156134f3576134f26141d9565b5b6134ff85828601613036565b925050602083013567ffffffffffffffff8111156135205761351f6141d9565b5b61352c85828601613064565b9150509250929050565b60006020828403121561354c5761354b6141de565b5b600061355a848285016130a7565b91505092915050565b600060208284031215613579576135786141de565b5b60006135878482850161316e565b91505092915050565b600080604083850312156135a7576135a66141de565b5b60006135b58582860161316e565b92505060206135c68582860161300c565b9150509250929050565b600080604083850312156135e7576135e66141de565b5b60006135f58582860161316e565b925050602061360685828601613021565b9150509250929050565b60008060408385031215613627576136266141de565b5b60006136358582860161316e565b925050602061364685828601613092565b9150509250929050565b600080600060408486031215613669576136686141de565b5b60006136778682870161316e565b935050602084013567ffffffffffffffff811115613698576136976141d9565b5b6136a4868287016130ea565b92509250509250925092565b600080604083850312156136c7576136c66141de565b5b60006136d58582860161316e565b92505060206136e68582860161316e565b9150509250929050565b600080600060608486031215613709576137086141de565b5b60006137178682870161316e565b93505060206137288682870161316e565b925050604061373986828701613021565b9150509250925092565b600061374f8383613980565b60208301905092915050565b61376481613f66565b82525050565b61377381613f54565b82525050565b600061378482613dfa565b61378e8185613e1d565b935061379983613dd5565b8060005b838110156137ca5781516137b18882613743565b97506137bc83613e10565b92505060018101905061379d565b5085935050505092915050565b6137e081613f78565b82525050565b6137ef81613fda565b82525050565b600061380082613e05565b61380a8185613e2e565b935061381a818560208601613ffb565b613823816141e3565b840191505092915050565b6000815461383b8161402e565b6138458186613e2e565b945060018216600081146138605760018114613872576138a5565b60ff19831686526020860193506138a5565b61387b85613de5565b60005b8381101561389d5781548189015260018201915060208101905061387e565b808801955050505b50505092915050565b60006138bb602b83613e2e565b91506138c6826141f4565b604082019050919050565b60006138de602683613e2e565b91506138e982614243565b604082019050919050565b6000613901600383613e2e565b915061390c82614292565b602082019050919050565b6000613924602083613e2e565b915061392f826142bb565b602082019050919050565b6000613947602983613e2e565b9150613952826142e4565b604082019050919050565b600061396a600483613e2e565b915061397582614333565b602082019050919050565b61398981613fd0565b82525050565b61399881613fd0565b82525050565b60006020820190506139b3600083018461376a565b92915050565b600060e0820190506139ce600083018a61375b565b81810360208301526139e081896137f5565b905081810360408301526139f481886137f5565b90508181036060830152613a0881876137f5565b9050613a1760808301866137d7565b613a2460a083018561398f565b613a3160c083018461398f565b98975050505050505050565b60006020820190508181036000830152613a578184613779565b905092915050565b60006040820190508181036000830152613a798185613779565b90508181036020830152613a8d8184613779565b90509392505050565b6000602082019050613aab60008301846137d7565b92915050565b60006020820190508181036000830152613acb81846137f5565b905092915050565b60006020820190508181036000830152613aec816138ae565b9050919050565b60006020820190508181036000830152613b0c816138d1565b9050919050565b60006020820190508181036000830152613b2c81613917565b9050919050565b60006020820190508181036000830152613b4c8161393a565b9050919050565b6000602082019050613b68600083018461398f565b92915050565b600061010082019050613b84600083018b61398f565b613b91602083018a61375b565b8181036040830152613ba381896137f5565b90508181036060830152613bb781886137f5565b90508181036080830152613bcb81876137f5565b9050613bda60a08301866137d7565b613be760c08301856137e6565b613bf460e08301846137e6565b9998505050505050505050565b600060a082019050613c16600083018761398f565b8181036020830152613c27816138f4565b9050613c36604083018661398f565b8181036060830152613c48818561382e565b90508181036080830152613c5c818461382e565b905095945050505050565b600060a082019050613c7c600083018761398f565b8181036020830152613c8d8161395d565b9050613c9c604083018661398f565b8181036060830152613cae818561382e565b90508181036080830152613cc2818461382e565b905095945050505050565b6000604082019050613ce2600083018561398f565b613cef602083018461398f565b9392505050565b6000613d00613d11565b9050613d0c8282614060565b919050565b6000604051905090565b600067ffffffffffffffff821115613d3657613d35614196565b5b602082029050602081019050919050565b600067ffffffffffffffff821115613d6257613d61614196565b5b602082029050602081019050919050565b600067ffffffffffffffff821115613d8e57613d8d614196565b5b613d97826141e3565b9050602081019050919050565b600067ffffffffffffffff821115613dbf57613dbe614196565b5b613dc8826141e3565b9050602081019050919050565b6000819050602082019050919050565b60008190508160005260206000209050919050565b600081519050919050565b600081519050919050565b6000602082019050919050565b600082825260208201905092915050565b600082825260208201905092915050565b6000613e4a82613fd0565b9150613e5583613fd0565b9250827fffffffffffffffffffffffffffffffffffffffffffffffffffffffffffffffff03821115613e8a57613e896140da565b5b828201905092915050565b6000613ea082613fd0565b9150613eab83613fd0565b925082613ebb57613eba614109565b5b828204905092915050565b6000613ed182613fd0565b9150613edc83613fd0565b9250817fffffffffffffffffffffffffffffffffffffffffffffffffffffffffffffffff0483118215151615613f1557613f146140da565b5b828202905092915050565b6000613f2b82613fd0565b9150613f3683613fd0565b925082821015613f4957613f486140da565b5b828203905092915050565b6000613f5f82613fb0565b9050919050565b6000613f7182613fb0565b9050919050565b60008115159050919050565b60007fffffffff0000000000000000000000000000000000000000000000000000000082169050919050565b600073ffffffffffffffffffffffffffffffffffffffff82169050919050565b6000819050919050565b6000613fe582613fd0565b9050919050565b82818337600083830152505050565b60005b83811015614019578082015181840152602081019050613ffe565b83811115614028576000848401525b50505050565b6000600282049050600182168061404657607f821691505b6020821081141561405a57614059614138565b5b50919050565b614069826141e3565b810181811067ffffffffffffffff8211171561408857614087614196565b5b80604052505050565b600061409c82613fd0565b91507fffffffffffffffffffffffffffffffffffffffffffffffffffffffffffffffff8214156140cf576140ce6140da565b5b600182019050919050565b7f4e487b7100000000000000000000000000000000000000000000000000000000600052601160045260246000fd5b7f4e487b7100000000000000000000000000000000000000000000000000000000600052601260045260246000fd5b7f4e487b7100000000000000000000000000000000000000000000000000000000600052602260045260246000fd5b7f4e487b7100000000000000000000000000000000000000000000000000000000600052603260045260246000fd5b7f4e487b7100000000000000000000000000000000000000000000000000000000600052604160045260246000fd5b600080fd5b600080fd5b600080fd5b600080fd5b600080fd5b600080fd5b6000601f19601f8301169050919050565b7f455243313135353a2062616c616e636520717565727920666f7220746865207a60008201527f65726f2061646472657373000000000000000000000000000000000000000000602082015250565b7f4f776e61626c653a206e6577206f776e657220697320746865207a65726f206160008201527f6464726573730000000000000000000000000000000000000000000000000000602082015250565b7f6275790000000000000000000000000000000000000000000000000000000000600082015250565b7f4f776e61626c653a2063616c6c6572206973206e6f7420746865206f776e6572600082015250565b7f455243313135353a206163636f756e747320616e6420696473206c656e67746860008201527f206d69736d617463680000000000000000000000000000000000000000000000602082015250565b7f73656c6c00000000000000000000000000000000000000000000000000000000600082015250565b61436581613f54565b811461437057600080fd5b50565b61437c81613f66565b811461438757600080fd5b50565b61439381613f78565b811461439e57600080fd5b50565b6143aa81613f84565b81146143b557600080fd5b50565b6143c181613fd0565b81146143cc57600080fd5b5056fea2646970667358221220606ff026bfe898bd0d6a027ccc12a69d16d0810f0fe2ea588732065cf77f24bc64736f6c63430008060033",
  "immutableReferences": {},
  "source": "// SPDX-License-Identifier: MIT\npragma solidity ^0.8.0;\n\nimport \"./creatortokencomputation.sol\";\n\n/// @title Implements high-level buy and sell functions (which users invoke when transacting)\n/// @author Kamil Alizai Sadik\ncontract CreatorTokenExchange is CreatorTokenComputation {\n\n\tconstructor(string memory uri) CreatorTokenComputation(uri) { }\n\n\t// Event that fires when a new transaction occurs\n\tevent NewTransaction(address indexed account, uint amount, string transactionType, uint tokenId, string name, string symbol);\n\n\t/// @dev Allows user to buy a given CreatorToken from the platform\n\t/// @param _tokenId ID of the token being transacted\n\t/// @param _amount Quantity of the token being transacted\n\tfunction buyCreatorToken(uint _tokenId, uint _amount) external payable {\n\t\t// Compute total transaction proceeds required (inclusive of fee)\n\t\tuint totalProceeds = _totalProceeds(_tokenId, _amount);\n\t\t// Require that user sends totalProceeds in order to transact\n\t\trequire(msg.value == totalProceeds);\n\t\t// Compute buy proceeds\n\t\tuint netProceeds = _buyProceeds(_tokenId, _amount);\n\t\t// Update totalValueLocked mapping\n\t\ttotalValueLocked[_tokenId] += netProceeds;\n\t\t// Update platform fee total\n\t\t_platformFeeUpdater(_feeProceeds(netProceeds));\n\t\t// Mint _amount tokens at the user's address (note this increases token amount outstanding)\n\t\t_mint(msg.sender, _tokenId, _amount, \"\");\n\t\t// Emit new transaction event\n\t\temit NewTransaction(msg.sender, _amount, \"buy\", _tokenId, creatorTokens[_tokenId].name, creatorTokens[_tokenId].symbol);\n\t\t// Check if new outstanding amount of token is greater than maxSupply\n\t\tif (creatorTokens[_tokenId].outstanding > creatorTokens[_tokenId].maxSupply) {\n\t\t\t// Update maxSupply\n\t\t\tcreatorTokens[_tokenId].maxSupply = creatorTokens[_tokenId].outstanding;\n\t\t\t// Call _payout to transfer excess liquidity\n\t\t\t_payCreator(_tokenId, creatorTokens[_tokenId].creatorAddress);\n\t\t}\n\t}\n\n\t/// @dev Allows user to sell a given CreatorToken back to the platform\n\t/// @param _tokenId ID of the token being transacted\n\t/// @param _amount Quantity of the token being transacted\n\t/// @param _seller Wallet address of user selling the token\n\tfunction sellCreatorToken(uint _tokenId, uint _amount, address payable _seller) external payable {\n\t\t// Require that user calling function is selling own tokens\n\t\trequire(_seller == msg.sender);\n\t\t// Compute sale proceeds required\n\t\tuint proceedsRequired = _saleFunction(creatorTokens[_tokenId].outstanding, _amount, mNumerator, mDenominator, creatorTokens[_tokenId].maxSupply, profitMargin);\n\t\t// Update totalValueLocked mapping\n\t\ttotalValueLocked[_tokenId] -= proceedsRequired;\n\t\t// Compute fee\n\t\tuint fee = proceedsRequired*platformFee/100;\n\t\t// Add platform fee to obtain real proceedsRequired value\n\t\tproceedsRequired -= fee;\n\t\t// Burn _amount tokens from user's address (note this decreases token amount outstanding)\n\t\t_burn(_seller, _tokenId, _amount);\n\t\t// Send user proceedsRequired wei (less the platform fee) in exchange for the burned tokens\n\t\t_seller.transfer(proceedsRequired); //1500000000000000000); //\n\t\t// Update platform fee total\n\t\t_platformFeeUpdater(fee);\n\t\t// Emit new transaction event\n\t\temit NewTransaction(msg.sender, _amount, \"sell\", _tokenId, creatorTokens[_tokenId].name, creatorTokens[_tokenId].symbol);\n\t}\n}\n",
  "sourcePath": "/Users/kamilalizaisadik/DeFi/Dynamic Automated Market Maker/CreatorTokenExchange/contracts/CreatorTokenExchange.sol",
  "compiler": {
    "name": "solc",
    "version": "0.8.6+commit.11564f7e.Emscripten.clang"
  },
  "schemaVersion": "3.4.1",
  "updatedAt": "2021-07-16T00:51:57.031Z",
  "networkType": "ethereum",
  "devdoc": {
    "author": "Kamil Alizai Sadik",
    "kind": "dev",
    "methods": {
      "_buyProceeds(uint256,uint256)": {
        "details": "Calculates proceeds required for a given buy transaction (not including fees)",
        "params": {
          "_amount": "Quantity of the token being transacted",
          "_tokenId": "ID of the token being transacted"
        },
        "returns": {
          "_0": "Proceeds required in the transaction (before fees)"
        }
      },
      "_feeProceeds(uint256)": {
        "details": "Calculates the fee associated with a buy transaction",
        "params": {
          "_proceedsRequired": "The proceeds required for the buy transaction (before addition of fees)"
        },
        "returns": {
          "_0": "Fee associated with transaction"
        }
      },
      "_totalProceeds(uint256,uint256)": {
        "details": "Calculates total transaction proceeds",
        "params": {
          "_amount": "Quantity of the token being transacted",
          "_tokenId": "ID of the token being transacted"
        },
        "returns": {
          "_0": "Total proceeds required in transaction"
        }
      },
      "balanceOf(address,uint256)": {
        "details": "See {IERC1155-balanceOf}. Requirements: - `account` cannot be the zero address."
      },
      "balanceOfBatch(address[],uint256[])": {
        "details": "See {IERC1155-balanceOfBatch}. Requirements: - `accounts` and `ids` must have the same length."
      },
      "buyCreatorToken(uint256,uint256)": {
        "details": "Allows user to buy a given CreatorToken from the platform",
        "params": {
          "_amount": "Quantity of the token being transacted",
          "_tokenId": "ID of the token being transacted"
        }
      },
      "changeAddress(uint256,address)": {
        "details": "Allows token creator to change their address",
        "params": {
          "_newCreatorAddress": "New creator address associated with the token",
          "_tokenId": "ID of the token in question"
        }
      },
      "changeDescription(uint256,string)": {
        "details": "Allows token creator to change the description of their token",
        "params": {
          "_newDescription": "New description associated with the token",
          "_tokenId": "ID of the token in question"
        }
      },
      "changeName(uint256,string)": {
        "details": "Allows token creator to change the name of their token",
        "params": {
          "_newName": "New name associated with the token",
          "_tokenId": "ID of the token in question"
        }
      },
      "changePlatformFee(uint256)": {
        "details": "Allows owner to change platformFee",
        "params": {
          "_newPlatformFee": "New platform fee"
        }
      },
      "changeProfitMargin(uint256)": {
        "details": "Allows owner to change profit_margin",
        "params": {
          "_newProfitMargin": "New profit margin"
        }
      },
      "changeSymbol(uint256,string)": {
        "details": "Allows token creator to change the symbol of their token",
        "params": {
          "_newSymbol": "New symbol associated with the token",
          "_tokenId": "ID of the token in question"
        }
      },
      "changeVerification(uint256,bool)": {
        "details": "Allows owner to verify (or undo verification) of a CreatorToken",
        "params": {
          "_tokenId": "ID of the token in question",
          "_verified": "Verification status of the token in question"
        }
      },
      "createCreatorToken(address,string,string,string)": {
        "details": "Creates a new creator token",
        "params": {
          "_creatorAddress": "Address of the creator of the token",
          "_description": "chosen by the creator of the tokens",
          "_name": "Name chosen by the creator of the token",
          "_symbol": "Ticker symbol chosen by the creator of the token"
        }
      },
      "isApprovedForAll(address,address)": {
        "details": "Denotes whether operator is approved to transfer account's tokens",
        "params": {
          "_account": "Wallet address holding tokens",
          "_operator": "Wallet address which is/isn't approved to transfer _account's tokens"
        },
        "returns": {
          "_0": "Boolean value indicating approval status"
        }
      },
      "owner()": {
        "details": "Returns the address of the current owner."
      },
      "payoutPlatformFees(address)": {
        "details": "Pays out platform fees owed to owner (might opt to call this daily)",
        "params": {
          "_owner": "Owner of the smart contract"
        }
      },
      "renounceOwnership()": {
        "details": "Leaves the contract without owner. It will not be possible to call `onlyOwner` functions anymore. Can only be called by the current owner. NOTE: Renouncing ownership will leave the contract without an owner, thereby removing any functionality that is only available to the owner."
      },
      "safeBatchTransferFrom(address,address,uint256[],uint256[],bytes)": {
        "details": "Transfers a batch of tokens",
        "params": {
          "_amounts": "Array of quantities of token to be transferred",
          "_data": "Data",
          "_from": "Address token is being transferred from",
          "_ids": "Array of IDs of tokens being transferred",
          "_to": "Address token is being transferred to"
        }
      },
      "safeTransferFrom(address,address,uint256,uint256,bytes)": {
        "details": "Transfers a token",
        "params": {
          "_amount": "Quantity of token to be transferred",
          "_data": "Data",
          "_from": "Address token is being transferred from",
          "_id": "ID of token being transferred",
          "_to": "Address token is being transferred to"
        }
      },
      "sellCreatorToken(uint256,uint256,address)": {
        "details": "Allows user to sell a given CreatorToken back to the platform",
        "params": {
          "_amount": "Quantity of the token being transacted",
          "_seller": "Wallet address of user selling the token",
          "_tokenId": "ID of the token being transacted"
        }
      },
      "setApprovalForAll(address,bool)": {
        "details": "Gives operator permission to transfer caller's tokens",
        "params": {
          "_approved": "Boolean value indicating whether operator is approved",
          "_operator": "Wallet address being granted permission"
        }
      },
      "supportsInterface(bytes4)": {
        "details": "See {IERC165-supportsInterface}."
      },
      "transferOwnership(address)": {
        "details": "Transfers ownership of the contract to a new account (`newOwner`). Can only be called by the current owner."
      },
      "uri(uint256)": {
        "details": "See {IERC1155MetadataURI-uri}. This implementation returns the same URI for *all* token types. It relies on the token type ID substitution mechanism https://eips.ethereum.org/EIPS/eip-1155#metadata[defined in the EIP]. Clients calling this function must replace the `\\{id\\}` substring with the actual token type ID."
      },
      "withdraw(address)": {
        "details": "Ownable function allowing for withdrawal",
        "params": {
          "_owner": "Owner of the smart contract"
        }
      }
    },
    "title": "Implements high-level buy and sell functions (which users invoke when transacting)",
    "version": 1
  },
  "userdoc": {
    "kind": "user",
    "methods": {},
    "version": 1
  }
}