{
  "contractName": "CreatorTokenFees",
  "abi": [
    {
      "inputs": [
        {
          "internalType": "string",
          "name": "uri",
          "type": "string"
        }
      ],
      "stateMutability": "nonpayable",
      "type": "constructor"
    },
    {
      "anonymous": false,
      "inputs": [
        {
          "indexed": true,
          "internalType": "address",
          "name": "account",
          "type": "address"
        },
        {
          "indexed": true,
          "internalType": "address",
          "name": "operator",
          "type": "address"
        },
        {
          "indexed": false,
          "internalType": "bool",
          "name": "approved",
          "type": "bool"
        }
      ],
      "name": "ApprovalForAll",
      "type": "event"
    },
    {
      "anonymous": false,
      "inputs": [
        {
          "indexed": false,
          "internalType": "uint256",
          "name": "tokenId",
          "type": "uint256"
        },
        {
          "indexed": false,
          "internalType": "address payable",
          "name": "creatorAddress",
          "type": "address"
        },
        {
          "indexed": false,
          "internalType": "string",
          "name": "name",
          "type": "string"
        },
        {
          "indexed": false,
          "internalType": "string",
          "name": "symbol",
          "type": "string"
        },
        {
          "indexed": false,
          "internalType": "string",
          "name": "description",
          "type": "string"
        },
        {
          "indexed": false,
          "internalType": "bool",
          "name": "verified",
          "type": "bool"
        },
        {
          "indexed": false,
          "internalType": "uint256",
          "name": "outstanding",
          "type": "uint256"
        },
        {
          "indexed": false,
          "internalType": "uint256",
          "name": "maxSupply",
          "type": "uint256"
        }
      ],
      "name": "NewCreatorToken",
      "type": "event"
    },
    {
      "anonymous": false,
      "inputs": [
        {
          "indexed": true,
          "internalType": "address",
          "name": "previousOwner",
          "type": "address"
        },
        {
          "indexed": true,
          "internalType": "address",
          "name": "newOwner",
          "type": "address"
        }
      ],
      "name": "OwnershipTransferred",
      "type": "event"
    },
    {
      "anonymous": false,
      "inputs": [
        {
          "indexed": true,
          "internalType": "address",
          "name": "operator",
          "type": "address"
        },
        {
          "indexed": true,
          "internalType": "address",
          "name": "from",
          "type": "address"
        },
        {
          "indexed": true,
          "internalType": "address",
          "name": "to",
          "type": "address"
        },
        {
          "indexed": false,
          "internalType": "uint256[]",
          "name": "ids",
          "type": "uint256[]"
        },
        {
          "indexed": false,
          "internalType": "uint256[]",
          "name": "values",
          "type": "uint256[]"
        }
      ],
      "name": "TransferBatch",
      "type": "event"
    },
    {
      "anonymous": false,
      "inputs": [
        {
          "indexed": true,
          "internalType": "address",
          "name": "operator",
          "type": "address"
        },
        {
          "indexed": true,
          "internalType": "address",
          "name": "from",
          "type": "address"
        },
        {
          "indexed": true,
          "internalType": "address",
          "name": "to",
          "type": "address"
        },
        {
          "indexed": false,
          "internalType": "uint256",
          "name": "id",
          "type": "uint256"
        },
        {
          "indexed": false,
          "internalType": "uint256",
          "name": "value",
          "type": "uint256"
        }
      ],
      "name": "TransferSingle",
      "type": "event"
    },
    {
      "anonymous": false,
      "inputs": [
        {
          "indexed": false,
          "internalType": "string",
          "name": "value",
          "type": "string"
        },
        {
          "indexed": true,
          "internalType": "uint256",
          "name": "id",
          "type": "uint256"
        }
      ],
      "name": "URI",
      "type": "event"
    },
    {
      "inputs": [
        {
          "internalType": "address",
          "name": "account",
          "type": "address"
        },
        {
          "internalType": "uint256",
          "name": "id",
          "type": "uint256"
        }
      ],
      "name": "balanceOf",
      "outputs": [
        {
          "internalType": "uint256",
          "name": "",
          "type": "uint256"
        }
      ],
      "stateMutability": "view",
      "type": "function"
    },
    {
      "inputs": [
        {
          "internalType": "address[]",
          "name": "accounts",
          "type": "address[]"
        },
        {
          "internalType": "uint256[]",
          "name": "ids",
          "type": "uint256[]"
        }
      ],
      "name": "balanceOfBatch",
      "outputs": [
        {
          "internalType": "uint256[]",
          "name": "",
          "type": "uint256[]"
        }
      ],
      "stateMutability": "view",
      "type": "function"
    },
    {
      "inputs": [
        {
          "internalType": "uint256",
          "name": "_tokenId",
          "type": "uint256"
        },
        {
          "internalType": "address payable",
          "name": "_newCreatorAddress",
          "type": "address"
        }
      ],
      "name": "changeAddress",
      "outputs": [],
      "stateMutability": "nonpayable",
      "type": "function"
    },
    {
      "inputs": [
        {
          "internalType": "uint256",
          "name": "_tokenId",
          "type": "uint256"
        },
        {
          "internalType": "string",
          "name": "_newDescription",
          "type": "string"
        }
      ],
      "name": "changeDescription",
      "outputs": [],
      "stateMutability": "nonpayable",
      "type": "function"
    },
    {
      "inputs": [
        {
          "internalType": "uint256",
          "name": "_tokenId",
          "type": "uint256"
        },
        {
          "internalType": "string",
          "name": "_newName",
          "type": "string"
        }
      ],
      "name": "changeName",
      "outputs": [],
      "stateMutability": "nonpayable",
      "type": "function"
    },
    {
      "inputs": [
        {
          "internalType": "uint256",
          "name": "_newPlatformFee",
          "type": "uint256"
        }
      ],
      "name": "changePlatformFee",
      "outputs": [],
      "stateMutability": "nonpayable",
      "type": "function"
    },
    {
      "inputs": [
        {
          "internalType": "uint256",
          "name": "_newProfitMargin",
          "type": "uint256"
        }
      ],
      "name": "changeProfitMargin",
      "outputs": [],
      "stateMutability": "nonpayable",
      "type": "function"
    },
    {
      "inputs": [
        {
          "internalType": "uint256",
          "name": "_tokenId",
          "type": "uint256"
        },
        {
          "internalType": "string",
          "name": "_newSymbol",
          "type": "string"
        }
      ],
      "name": "changeSymbol",
      "outputs": [],
      "stateMutability": "nonpayable",
      "type": "function"
    },
    {
      "inputs": [
        {
          "internalType": "uint256",
          "name": "_tokenId",
          "type": "uint256"
        },
        {
          "internalType": "bool",
          "name": "_verified",
          "type": "bool"
        }
      ],
      "name": "changeVerification",
      "outputs": [],
      "stateMutability": "nonpayable",
      "type": "function"
    },
    {
      "inputs": [
        {
          "internalType": "address payable",
          "name": "_creatorAddress",
          "type": "address"
        },
        {
          "internalType": "string",
          "name": "_name",
          "type": "string"
        },
        {
          "internalType": "string",
          "name": "_symbol",
          "type": "string"
        },
        {
          "internalType": "string",
          "name": "_description",
          "type": "string"
        }
      ],
      "name": "createCreatorToken",
      "outputs": [],
      "stateMutability": "nonpayable",
      "type": "function"
    },
    {
      "inputs": [
        {
          "internalType": "uint256",
          "name": "",
          "type": "uint256"
        }
      ],
      "name": "creatorTokens",
      "outputs": [
        {
          "internalType": "address payable",
          "name": "creatorAddress",
          "type": "address"
        },
        {
          "internalType": "string",
          "name": "name",
          "type": "string"
        },
        {
          "internalType": "string",
          "name": "symbol",
          "type": "string"
        },
        {
          "internalType": "string",
          "name": "description",
          "type": "string"
        },
        {
          "internalType": "bool",
          "name": "verified",
          "type": "bool"
        },
        {
          "internalType": "uint256",
          "name": "outstanding",
          "type": "uint256"
        },
        {
          "internalType": "uint256",
          "name": "maxSupply",
          "type": "uint256"
        }
      ],
      "stateMutability": "view",
      "type": "function"
    },
    {
      "inputs": [
        {
          "internalType": "address",
          "name": "_account",
          "type": "address"
        },
        {
          "internalType": "address",
          "name": "_operator",
          "type": "address"
        }
      ],
      "name": "isApprovedForAll",
      "outputs": [
        {
          "internalType": "bool",
          "name": "",
          "type": "bool"
        }
      ],
      "stateMutability": "view",
      "type": "function"
    },
    {
      "inputs": [
        {
          "internalType": "address",
          "name": "_account",
          "type": "address"
        },
        {
          "internalType": "uint256",
          "name": "_id",
          "type": "uint256"
        },
        {
          "internalType": "uint256",
          "name": "_amount",
          "type": "uint256"
        }
      ],
      "name": "mappingDecrease",
      "outputs": [],
      "stateMutability": "nonpayable",
      "type": "function"
    },
    {
      "inputs": [
        {
          "internalType": "address",
          "name": "_account",
          "type": "address"
        },
        {
          "internalType": "uint256",
          "name": "_id",
          "type": "uint256"
        },
        {
          "internalType": "uint256",
          "name": "_amount",
          "type": "uint256"
        }
      ],
      "name": "mappingIncrease",
      "outputs": [],
      "stateMutability": "nonpayable",
      "type": "function"
    },
    {
      "inputs": [],
      "name": "owner",
      "outputs": [
        {
          "internalType": "address",
          "name": "",
          "type": "address"
        }
      ],
      "stateMutability": "view",
      "type": "function"
    },
    {
      "inputs": [
        {
          "internalType": "address payable",
          "name": "_owner",
          "type": "address"
        }
      ],
      "name": "payoutPlatformFees",
      "outputs": [],
      "stateMutability": "nonpayable",
      "type": "function"
    },
    {
      "inputs": [],
      "name": "renounceOwnership",
      "outputs": [],
      "stateMutability": "nonpayable",
      "type": "function"
    },
    {
      "inputs": [
        {
          "internalType": "address",
          "name": "_from",
          "type": "address"
        },
        {
          "internalType": "address",
          "name": "_to",
          "type": "address"
        },
        {
          "internalType": "uint256[]",
          "name": "_ids",
          "type": "uint256[]"
        },
        {
          "internalType": "uint256[]",
          "name": "_amounts",
          "type": "uint256[]"
        },
        {
          "internalType": "bytes",
          "name": "data",
          "type": "bytes"
        }
      ],
      "name": "safeBatchTransferFrom",
      "outputs": [],
      "stateMutability": "nonpayable",
      "type": "function"
    },
    {
      "inputs": [
        {
          "internalType": "address",
          "name": "_from",
          "type": "address"
        },
        {
          "internalType": "address",
          "name": "_to",
          "type": "address"
        },
        {
          "internalType": "uint256",
          "name": "_id",
          "type": "uint256"
        },
        {
          "internalType": "uint256",
          "name": "_amount",
          "type": "uint256"
        },
        {
          "internalType": "bytes",
          "name": "_data",
          "type": "bytes"
        }
      ],
      "name": "safeTransferFrom",
      "outputs": [],
      "stateMutability": "nonpayable",
      "type": "function"
    },
    {
      "inputs": [
        {
          "internalType": "address",
          "name": "_operator",
          "type": "address"
        },
        {
          "internalType": "bool",
          "name": "_approved",
          "type": "bool"
        }
      ],
      "name": "setApprovalForAll",
      "outputs": [],
      "stateMutability": "nonpayable",
      "type": "function"
    },
    {
      "inputs": [
        {
          "internalType": "bytes4",
          "name": "interfaceId",
          "type": "bytes4"
        }
      ],
      "name": "supportsInterface",
      "outputs": [
        {
          "internalType": "bool",
          "name": "",
          "type": "bool"
        }
      ],
      "stateMutability": "view",
      "type": "function"
    },
    {
      "inputs": [
        {
          "internalType": "uint256",
          "name": "",
          "type": "uint256"
        },
        {
          "internalType": "address",
          "name": "",
          "type": "address"
        }
      ],
      "name": "tokenHoldership",
      "outputs": [
        {
          "internalType": "uint256",
          "name": "",
          "type": "uint256"
        }
      ],
      "stateMutability": "view",
      "type": "function"
    },
    {
      "inputs": [
        {
          "internalType": "uint256",
          "name": "",
          "type": "uint256"
        }
      ],
      "name": "tokenToCreator",
      "outputs": [
        {
          "internalType": "address",
          "name": "",
          "type": "address"
        }
      ],
      "stateMutability": "view",
      "type": "function"
    },
    {
      "inputs": [
        {
          "internalType": "address",
          "name": "newOwner",
          "type": "address"
        }
      ],
      "name": "transferOwnership",
      "outputs": [],
      "stateMutability": "nonpayable",
      "type": "function"
    },
    {
      "inputs": [
        {
          "internalType": "uint256",
          "name": "",
          "type": "uint256"
        }
      ],
      "name": "uri",
      "outputs": [
        {
          "internalType": "string",
          "name": "",
          "type": "string"
        }
      ],
      "stateMutability": "view",
      "type": "function"
    },
    {
      "inputs": [
        {
          "internalType": "address",
          "name": "",
          "type": "address"
        },
        {
          "internalType": "uint256",
          "name": "",
          "type": "uint256"
        }
      ],
      "name": "userToHoldings",
      "outputs": [
        {
          "internalType": "uint256",
          "name": "",
          "type": "uint256"
        }
      ],
      "stateMutability": "view",
      "type": "function"
    },
    {
      "inputs": [
        {
          "internalType": "address payable",
          "name": "_owner",
          "type": "address"
        }
      ],
      "name": "withdraw",
      "outputs": [],
      "stateMutability": "nonpayable",
      "type": "function"
    },
    {
      "inputs": [
        {
          "internalType": "uint256",
          "name": "_proceedsRequired",
          "type": "uint256"
        }
      ],
      "name": "_feeProceeds",
      "outputs": [
        {
          "internalType": "uint256",
          "name": "",
          "type": "uint256"
        }
      ],
      "stateMutability": "view",
      "type": "function"
    }
  ],
  "bytecode": "0x60806040526001805560006002556000600355601460045565082f79cd900060055560b96006553480156200003357600080fd5b506040516200359b3803806200359b833981810160405281019062000059919062000279565b80808060006200006e6200012760201b60201c565b9050806000806101000a81548173ffffffffffffffffffffffffffffffffffffffff021916908373ffffffffffffffffffffffffffffffffffffffff1602179055508073ffffffffffffffffffffffffffffffffffffffff16600073ffffffffffffffffffffffffffffffffffffffff167f8be0079c531659141344cd1fd0a4f28419497f9722a3daafe3b4186f6b6457e060405160405180910390a3506200011d816200012f60201b60201c565b505050506200044e565b600033905090565b80600f9080519060200190620001479291906200014b565b5050565b82805462000159906200035f565b90600052602060002090601f0160209004810192826200017d5760008555620001c9565b82601f106200019857805160ff1916838001178555620001c9565b82800160010185558215620001c9579182015b82811115620001c8578251825591602001919060010190620001ab565b5b509050620001d89190620001dc565b5090565b5b80821115620001f7576000816000905550600101620001dd565b5090565b6000620002126200020c84620002f3565b620002ca565b9050828152602081018484840111156200023157620002306200042e565b5b6200023e84828562000329565b509392505050565b600082601f8301126200025e576200025d62000429565b5b815162000270848260208601620001fb565b91505092915050565b60006020828403121562000292576200029162000438565b5b600082015167ffffffffffffffff811115620002b357620002b262000433565b5b620002c18482850162000246565b91505092915050565b6000620002d6620002e9565b9050620002e4828262000395565b919050565b6000604051905090565b600067ffffffffffffffff821115620003115762000310620003fa565b5b6200031c826200043d565b9050602081019050919050565b60005b83811015620003495780820151818401526020810190506200032c565b8381111562000359576000848401525b50505050565b600060028204905060018216806200037857607f821691505b602082108114156200038f576200038e620003cb565b5b50919050565b620003a0826200043d565b810181811067ffffffffffffffff82111715620003c257620003c1620003fa565b5b80604052505050565b7f4e487b7100000000000000000000000000000000000000000000000000000000600052602260045260246000fd5b7f4e487b7100000000000000000000000000000000000000000000000000000000600052604160045260246000fd5b600080fd5b600080fd5b600080fd5b600080fd5b6000601f19601f8301169050919050565b61313d806200045e6000396000f3fe608060405234801561001057600080fd5b50600436106101c35760003560e01c8063ba111a05116100f9578063de6a06ed11610097578063f242432a11610071578063f242432a14610526578063f2fde38b14610542578063f56e71b41461055e578063f7374e2e1461057a576101c3565b8063de6a06ed146104be578063e985e9c5146104da578063eb8417591461050a576101c3565b8063c539c317116100d3578063c539c31714610434578063ce901d8a14610450578063d56b72c714610486578063d7a5791a146104a2576101c3565b8063ba111a05146103b8578063bfb48c9c146103e8578063c39cbef114610418576101c3565b80634e1273f411610166578063715018a611610140578063715018a6146103445780638da5cb5b1461034e57806392724afa1461036c578063a22cb4651461039c576101c3565b80634e1273f4146102dc57806351cff8d91461030c5780635d4222cd14610328576101c3565b80630e89341c116101a25780630e89341c1461024457806318892ae8146102745780631d5ad18b146102a45780632eb2c2d6146102c0576101c3565b8062fdd58e146101c857806301ffc9a7146101f857806306e320f514610228575b600080fd5b6101e260048036038101906101dd91906123ef565b610596565b6040516101ef91906129be565b60405180910390f35b610212600480360381019061020d91906124fa565b610660565b60405161021f9190612901565b60405180910390f35b610242600480360381019061023d9190612614565b610742565b005b61025e60048036038101906102599190612527565b6107e9565b60405161026b919061291c565b60405180910390f35b61028e60048036038101906102899190612527565b61087d565b60405161029b9190612809565b60405180910390f35b6102be60048036038101906102b99190612594565b6108b0565b005b6102da60048036038101906102d59190612249565b610985565b005b6102f660048036038101906102f19190612482565b610af1565b60405161030391906128a8565b60405180910390f35b61032660048036038101906103219190612121565b610c0a565b005b610342600480360381019061033d919061242f565b610cd0565b005b61034c610da3565b005b610356610edd565b6040516103639190612809565b60405180910390f35b610386600480360381019061038191906123ef565b610f06565b60405161039391906129be565b60405180910390f35b6103b660048036038101906103b191906123af565b610f2b565b005b6103d260048036038101906103cd9190612527565b611028565b6040516103df91906129be565b60405180910390f35b61040260048036038101906103fd9190612554565b61104b565b60405161040f91906129be565b60405180910390f35b610432600480360381019061042d9190612614565b611070565b005b61044e60048036038101906104499190612527565b611117565b005b61046a60048036038101906104659190612527565b61119d565b60405161047d9796959493929190612824565b60405180910390f35b6104a0600480360381019061049b919061214e565b6113b4565b005b6104bc60048036038101906104b79190612527565b6115d0565b005b6104d860048036038101906104d39190612614565b611656565b005b6104f460048036038101906104ef9190612209565b6116fd565b6040516105019190612901565b60405180910390f35b610524600480360381019061051f9190612121565b611791565b005b610540600480360381019061053b9190612318565b611861565b005b61055c600480360381019061055791906120f4565b611945565b005b6105786004803603810190610573919061242f565b611aee565b005b610594600480360381019061058f91906125d4565b611bc1565b005b60008073ffffffffffffffffffffffffffffffffffffffff168373ffffffffffffffffffffffffffffffffffffffff161415610607576040517f08c379a00000000000000000000000000000000000000000000000000000000081526004016105fe9061293e565b60405180910390fd5b600d600083815260200190815260200160002060008473ffffffffffffffffffffffffffffffffffffffff1673ffffffffffffffffffffffffffffffffffffffff16815260200190815260200160002054905092915050565b60007fd9b67a26000000000000000000000000000000000000000000000000000000007bffffffffffffffffffffffffffffffffffffffffffffffffffffffff1916827bffffffffffffffffffffffffffffffffffffffffffffffffffffffff1916148061072b57507f0e89341c000000000000000000000000000000000000000000000000000000007bffffffffffffffffffffffffffffffffffffffffffffffffffffffff1916827bffffffffffffffffffffffffffffffffffffffffffffffffffffffff1916145b8061073b575061073a82611c7e565b5b9050919050565b826008600082815260200190815260200160002060009054906101000a900473ffffffffffffffffffffffffffffffffffffffff1673ffffffffffffffffffffffffffffffffffffffff163373ffffffffffffffffffffffffffffffffffffffff16146107ae57600080fd5b8282600786815481106107c4576107c3612ef1565b5b906000526020600020906007020160020191906107e2929190611cf0565b5050505050565b6060600f80546107f890612db8565b80601f016020809104026020016040519081016040528092919081815260200182805461082490612db8565b80156108715780601f1061084657610100808354040283529160200191610871565b820191906000526020600020905b81548152906001019060200180831161085457829003601f168201915b50505050509050919050565b60086020528060005260406000206000915054906101000a900473ffffffffffffffffffffffffffffffffffffffff1681565b816008600082815260200190815260200160002060009054906101000a900473ffffffffffffffffffffffffffffffffffffffff1673ffffffffffffffffffffffffffffffffffffffff163373ffffffffffffffffffffffffffffffffffffffff161461091c57600080fd5b816007848154811061093157610930612ef1565b5b906000526020600020906007020160000160006101000a81548173ffffffffffffffffffffffffffffffffffffffff021916908373ffffffffffffffffffffffffffffffffffffffff160217905550505050565b60005b8351811015610a6b578573ffffffffffffffffffffffffffffffffffffffff163373ffffffffffffffffffffffffffffffffffffffff1614806109d157506109d086866116fd565b5b6109da57600080fd5b610a19868583815181106109f1576109f0612ef1565b5b6020026020010151858481518110610a0c57610a0b612ef1565b5b6020026020010151611aee565b610a5885858381518110610a3057610a2f612ef1565b5b6020026020010151858481518110610a4b57610a4a612ef1565b5b6020026020010151610cd0565b8080610a6390612e1b565b915050610988565b508373ffffffffffffffffffffffffffffffffffffffff168573ffffffffffffffffffffffffffffffffffffffff163373ffffffffffffffffffffffffffffffffffffffff167f4a39dc06d4c0dbc64b70af90fd698a233a518aa5d07e595d983b8c0526c8f7fb8686604051610ae29291906128ca565b60405180910390a45050505050565b60608151835114610b37576040517f08c379a0000000000000000000000000000000000000000000000000000000008152600401610b2e9061299e565b60405180910390fd5b6000835167ffffffffffffffff811115610b5457610b53612f20565b5b604051908082528060200260200182016040528015610b825781602001602082028036833780820191505090505b50905060005b8451811015610bff57610bcf858281518110610ba757610ba6612ef1565b5b6020026020010151858381518110610bc257610bc1612ef1565b5b6020026020010151610596565b828281518110610be257610be1612ef1565b5b60200260200101818152505080610bf890612e1b565b9050610b88565b508091505092915050565b610c12611ce8565b73ffffffffffffffffffffffffffffffffffffffff16610c30610edd565b73ffffffffffffffffffffffffffffffffffffffff1614610c86576040517f08c379a0000000000000000000000000000000000000000000000000000000008152600401610c7d9061297e565b60405180910390fd5b8073ffffffffffffffffffffffffffffffffffffffff166108fc479081150290604051600060405180830381858888f19350505050158015610ccc573d6000803e3d6000fd5b5050565b80600a600084815260200190815260200160002060008573ffffffffffffffffffffffffffffffffffffffff1673ffffffffffffffffffffffffffffffffffffffff1681526020019081526020016000206000828254610d309190612bc9565b9250508190555080600b60008573ffffffffffffffffffffffffffffffffffffffff1673ffffffffffffffffffffffffffffffffffffffff16815260200190815260200160002060008481526020019081526020016000206000828254610d979190612bc9565b92505081905550505050565b610dab611ce8565b73ffffffffffffffffffffffffffffffffffffffff16610dc9610edd565b73ffffffffffffffffffffffffffffffffffffffff1614610e1f576040517f08c379a0000000000000000000000000000000000000000000000000000000008152600401610e169061297e565b60405180910390fd5b600073ffffffffffffffffffffffffffffffffffffffff1660008054906101000a900473ffffffffffffffffffffffffffffffffffffffff1673ffffffffffffffffffffffffffffffffffffffff167f8be0079c531659141344cd1fd0a4f28419497f9722a3daafe3b4186f6b6457e060405160405180910390a360008060006101000a81548173ffffffffffffffffffffffffffffffffffffffff021916908373ffffffffffffffffffffffffffffffffffffffff160217905550565b60008060009054906101000a900473ffffffffffffffffffffffffffffffffffffffff16905090565b600b602052816000526040600020602052806000526040600020600091509150505481565b80600c60003373ffffffffffffffffffffffffffffffffffffffff1673ffffffffffffffffffffffffffffffffffffffff16815260200190815260200160002060008473ffffffffffffffffffffffffffffffffffffffff1673ffffffffffffffffffffffffffffffffffffffff16815260200190815260200160002060006101000a81548160ff0219169083151502179055508173ffffffffffffffffffffffffffffffffffffffff163373ffffffffffffffffffffffffffffffffffffffff167f17307eab39ab6107e8899845ad3d59bd9653f200f220920489ca2b5937696c318360405161101c9190612901565b60405180910390a35050565b600060646001548361103a9190612c50565b6110449190612c1f565b9050919050565b600a602052816000526040600020602052806000526040600020600091509150505481565b826008600082815260200190815260200160002060009054906101000a900473ffffffffffffffffffffffffffffffffffffffff1673ffffffffffffffffffffffffffffffffffffffff163373ffffffffffffffffffffffffffffffffffffffff16146110dc57600080fd5b8282600786815481106110f2576110f1612ef1565b5b90600052602060002090600702016001019190611110929190611cf0565b5050505050565b61111f611ce8565b73ffffffffffffffffffffffffffffffffffffffff1661113d610edd565b73ffffffffffffffffffffffffffffffffffffffff1614611193576040517f08c379a000000000000000000000000000000000000000000000000000000000815260040161118a9061297e565b60405180910390fd5b8060048190555050565b600781815481106111ad57600080fd5b90600052602060002090600702016000915090508060000160009054906101000a900473ffffffffffffffffffffffffffffffffffffffff16908060010180546111f690612db8565b80601f016020809104026020016040519081016040528092919081815260200182805461122290612db8565b801561126f5780601f106112445761010080835404028352916020019161126f565b820191906000526020600020905b81548152906001019060200180831161125257829003601f168201915b50505050509080600201805461128490612db8565b80601f01602080910402602001604051908101604052809291908181526020018280546112b090612db8565b80156112fd5780601f106112d2576101008083540402835291602001916112fd565b820191906000526020600020905b8154815290600101906020018083116112e057829003601f168201915b50505050509080600301805461131290612db8565b80601f016020809104026020016040519081016040528092919081815260200182805461133e90612db8565b801561138b5780601f106113605761010080835404028352916020019161138b565b820191906000526020600020905b81548152906001019060200180831161136e57829003601f168201915b5050505050908060040160009054906101000a900460ff16908060050154908060060154905087565b60076040518060e001604052808673ffffffffffffffffffffffffffffffffffffffff168152602001858152602001848152602001838152602001600015158152602001600081526020016000815250908060018154018082558091505060019003906000526020600020906007020160009091909190915060008201518160000160006101000a81548173ffffffffffffffffffffffffffffffffffffffff021916908373ffffffffffffffffffffffffffffffffffffffff1602179055506020820151816001019080519060200190611490929190611d76565b5060408201518160020190805190602001906114ad929190611d76565b5060608201518160030190805190602001906114ca929190611d76565b5060808201518160040160006101000a81548160ff02191690831515021790555060a0820151816005015560c082015181600601555050600060016007805490506115159190612caa565b9050846008600083815260200190815260200160002060006101000a81548173ffffffffffffffffffffffffffffffffffffffff021916908373ffffffffffffffffffffffffffffffffffffffff160217905550600060096000838152602001908152602001600020819055507f3ef624c0f3fb7ad40b94c02078ea3e3a797dbfc21e921ee4bd2b8ad0ca6aa113818686868660008060006040516115c19897969594939291906129d9565b60405180910390a15050505050565b6115d8611ce8565b73ffffffffffffffffffffffffffffffffffffffff166115f6610edd565b73ffffffffffffffffffffffffffffffffffffffff161461164c576040517f08c379a00000000000000000000000000000000000000000000000000000000081526004016116439061297e565b60405180910390fd5b8060018190555050565b826008600082815260200190815260200160002060009054906101000a900473ffffffffffffffffffffffffffffffffffffffff1673ffffffffffffffffffffffffffffffffffffffff163373ffffffffffffffffffffffffffffffffffffffff16146116c257600080fd5b8282600786815481106116d8576116d7612ef1565b5b906000526020600020906007020160030191906116f6929190611cf0565b5050505050565b6000600c60008473ffffffffffffffffffffffffffffffffffffffff1673ffffffffffffffffffffffffffffffffffffffff16815260200190815260200160002060008373ffffffffffffffffffffffffffffffffffffffff1673ffffffffffffffffffffffffffffffffffffffff16815260200190815260200160002060009054906101000a900460ff16905092915050565b611799611ce8565b73ffffffffffffffffffffffffffffffffffffffff166117b7610edd565b73ffffffffffffffffffffffffffffffffffffffff161461180d576040517f08c379a00000000000000000000000000000000000000000000000000000000081526004016118049061297e565b60405180910390fd5b8073ffffffffffffffffffffffffffffffffffffffff166108fc6003549081150290604051600060405180830381858888f19350505050158015611855573d6000803e3d6000fd5b50600060038190555050565b8473ffffffffffffffffffffffffffffffffffffffff163373ffffffffffffffffffffffffffffffffffffffff1614806118a157506118a085856116fd565b5b6118aa57600080fd5b6118b5858484611aee565b6118c0848484610cd0565b8373ffffffffffffffffffffffffffffffffffffffff168573ffffffffffffffffffffffffffffffffffffffff163373ffffffffffffffffffffffffffffffffffffffff167fc3d58168c5ae7397731d063d5bbf3d657854427343f4c083240f7aacaa2d0f628686604051611936929190612a6c565b60405180910390a45050505050565b61194d611ce8565b73ffffffffffffffffffffffffffffffffffffffff1661196b610edd565b73ffffffffffffffffffffffffffffffffffffffff16146119c1576040517f08c379a00000000000000000000000000000000000000000000000000000000081526004016119b89061297e565b60405180910390fd5b600073ffffffffffffffffffffffffffffffffffffffff168173ffffffffffffffffffffffffffffffffffffffff161415611a31576040517f08c379a0000000000000000000000000000000000000000000000000000000008152600401611a289061295e565b60405180910390fd5b8073ffffffffffffffffffffffffffffffffffffffff1660008054906101000a900473ffffffffffffffffffffffffffffffffffffffff1673ffffffffffffffffffffffffffffffffffffffff167f8be0079c531659141344cd1fd0a4f28419497f9722a3daafe3b4186f6b6457e060405160405180910390a3806000806101000a81548173ffffffffffffffffffffffffffffffffffffffff021916908373ffffffffffffffffffffffffffffffffffffffff16021790555050565b80600a600084815260200190815260200160002060008573ffffffffffffffffffffffffffffffffffffffff1673ffffffffffffffffffffffffffffffffffffffff1681526020019081526020016000206000828254611b4e9190612caa565b9250508190555080600b60008573ffffffffffffffffffffffffffffffffffffffff1673ffffffffffffffffffffffffffffffffffffffff16815260200190815260200160002060008481526020019081526020016000206000828254611bb59190612caa565b92505081905550505050565b611bc9611ce8565b73ffffffffffffffffffffffffffffffffffffffff16611be7610edd565b73ffffffffffffffffffffffffffffffffffffffff1614611c3d576040517f08c379a0000000000000000000000000000000000000000000000000000000008152600401611c349061297e565b60405180910390fd5b8060078381548110611c5257611c51612ef1565b5b906000526020600020906007020160040160006101000a81548160ff0219169083151502179055505050565b60007f01ffc9a7000000000000000000000000000000000000000000000000000000007bffffffffffffffffffffffffffffffffffffffffffffffffffffffff1916827bffffffffffffffffffffffffffffffffffffffffffffffffffffffff1916149050919050565b600033905090565b828054611cfc90612db8565b90600052602060002090601f016020900481019282611d1e5760008555611d65565b82601f10611d3757803560ff1916838001178555611d65565b82800160010185558215611d65579182015b82811115611d64578235825591602001919060010190611d49565b5b509050611d729190611dfc565b5090565b828054611d8290612db8565b90600052602060002090601f016020900481019282611da45760008555611deb565b82601f10611dbd57805160ff1916838001178555611deb565b82800160010185558215611deb579182015b82811115611dea578251825591602001919060010190611dcf565b5b509050611df89190611dfc565b5090565b5b80821115611e15576000816000905550600101611dfd565b5090565b6000611e2c611e2784612aba565b612a95565b90508083825260208201905082856020860282011115611e4f57611e4e612f59565b5b60005b85811015611e7f5781611e658882611f7d565b845260208401935060208301925050600181019050611e52565b5050509392505050565b6000611e9c611e9784612ae6565b612a95565b90508083825260208201905082856020860282011115611ebf57611ebe612f59565b5b60005b85811015611eef5781611ed588826120df565b845260208401935060208301925050600181019050611ec2565b5050509392505050565b6000611f0c611f0784612b12565b612a95565b905082815260208101848484011115611f2857611f27612f5e565b5b611f33848285612d76565b509392505050565b6000611f4e611f4984612b43565b612a95565b905082815260208101848484011115611f6a57611f69612f5e565b5b611f75848285612d76565b509392505050565b600081359050611f8c81613094565b92915050565b600081359050611fa1816130ab565b92915050565b600082601f830112611fbc57611fbb612f54565b5b8135611fcc848260208601611e19565b91505092915050565b600082601f830112611fea57611fe9612f54565b5b8135611ffa848260208601611e89565b91505092915050565b600081359050612012816130c2565b92915050565b600081359050612027816130d9565b92915050565b600082601f83011261204257612041612f54565b5b8135612052848260208601611ef9565b91505092915050565b60008083601f84011261207157612070612f54565b5b8235905067ffffffffffffffff81111561208e5761208d612f4f565b5b6020830191508360018202830111156120aa576120a9612f59565b5b9250929050565b600082601f8301126120c6576120c5612f54565b5b81356120d6848260208601611f3b565b91505092915050565b6000813590506120ee816130f0565b92915050565b60006020828403121561210a57612109612f68565b5b600061211884828501611f7d565b91505092915050565b60006020828403121561213757612136612f68565b5b600061214584828501611f92565b91505092915050565b6000806000806080858703121561216857612167612f68565b5b600061217687828801611f92565b945050602085013567ffffffffffffffff81111561219757612196612f63565b5b6121a3878288016120b1565b935050604085013567ffffffffffffffff8111156121c4576121c3612f63565b5b6121d0878288016120b1565b925050606085013567ffffffffffffffff8111156121f1576121f0612f63565b5b6121fd878288016120b1565b91505092959194509250565b600080604083850312156122205761221f612f68565b5b600061222e85828601611f7d565b925050602061223f85828601611f7d565b9150509250929050565b600080600080600060a0868803121561226557612264612f68565b5b600061227388828901611f7d565b955050602061228488828901611f7d565b945050604086013567ffffffffffffffff8111156122a5576122a4612f63565b5b6122b188828901611fd5565b935050606086013567ffffffffffffffff8111156122d2576122d1612f63565b5b6122de88828901611fd5565b925050608086013567ffffffffffffffff8111156122ff576122fe612f63565b5b61230b8882890161202d565b9150509295509295909350565b600080600080600060a0868803121561233457612333612f68565b5b600061234288828901611f7d565b955050602061235388828901611f7d565b9450506040612364888289016120df565b9350506060612375888289016120df565b925050608086013567ffffffffffffffff81111561239657612395612f63565b5b6123a28882890161202d565b9150509295509295909350565b600080604083850312156123c6576123c5612f68565b5b60006123d485828601611f7d565b92505060206123e585828601612003565b9150509250929050565b6000806040838503121561240657612405612f68565b5b600061241485828601611f7d565b9250506020612425858286016120df565b9150509250929050565b60008060006060848603121561244857612447612f68565b5b600061245686828701611f7d565b9350506020612467868287016120df565b9250506040612478868287016120df565b9150509250925092565b6000806040838503121561249957612498612f68565b5b600083013567ffffffffffffffff8111156124b7576124b6612f63565b5b6124c385828601611fa7565b925050602083013567ffffffffffffffff8111156124e4576124e3612f63565b5b6124f085828601611fd5565b9150509250929050565b6000602082840312156125105761250f612f68565b5b600061251e84828501612018565b91505092915050565b60006020828403121561253d5761253c612f68565b5b600061254b848285016120df565b91505092915050565b6000806040838503121561256b5761256a612f68565b5b6000612579858286016120df565b925050602061258a85828601611f7d565b9150509250929050565b600080604083850312156125ab576125aa612f68565b5b60006125b9858286016120df565b92505060206125ca85828601611f92565b9150509250929050565b600080604083850312156125eb576125ea612f68565b5b60006125f9858286016120df565b925050602061260a85828601612003565b9150509250929050565b60008060006040848603121561262d5761262c612f68565b5b600061263b868287016120df565b935050602084013567ffffffffffffffff81111561265c5761265b612f63565b5b6126688682870161205b565b92509250509250925092565b600061268083836127eb565b60208301905092915050565b61269581612cf0565b82525050565b6126a481612cde565b82525050565b60006126b582612b84565b6126bf8185612ba7565b93506126ca83612b74565b8060005b838110156126fb5781516126e28882612674565b97506126ed83612b9a565b9250506001810190506126ce565b5085935050505092915050565b61271181612d02565b82525050565b61272081612d64565b82525050565b600061273182612b8f565b61273b8185612bb8565b935061274b818560208601612d85565b61275481612f6d565b840191505092915050565b600061276c602b83612bb8565b915061277782612f7e565b604082019050919050565b600061278f602683612bb8565b915061279a82612fcd565b604082019050919050565b60006127b2602083612bb8565b91506127bd8261301c565b602082019050919050565b60006127d5602983612bb8565b91506127e082613045565b604082019050919050565b6127f481612d5a565b82525050565b61280381612d5a565b82525050565b600060208201905061281e600083018461269b565b92915050565b600060e082019050612839600083018a61268c565b818103602083015261284b8189612726565b9050818103604083015261285f8188612726565b905081810360608301526128738187612726565b90506128826080830186612708565b61288f60a08301856127fa565b61289c60c08301846127fa565b98975050505050505050565b600060208201905081810360008301526128c281846126aa565b905092915050565b600060408201905081810360008301526128e481856126aa565b905081810360208301526128f881846126aa565b90509392505050565b60006020820190506129166000830184612708565b92915050565b600060208201905081810360008301526129368184612726565b905092915050565b600060208201905081810360008301526129578161275f565b9050919050565b6000602082019050818103600083015261297781612782565b9050919050565b60006020820190508181036000830152612997816127a5565b9050919050565b600060208201905081810360008301526129b7816127c8565b9050919050565b60006020820190506129d360008301846127fa565b92915050565b6000610100820190506129ef600083018b6127fa565b6129fc602083018a61268c565b8181036040830152612a0e8189612726565b90508181036060830152612a228188612726565b90508181036080830152612a368187612726565b9050612a4560a0830186612708565b612a5260c0830185612717565b612a5f60e0830184612717565b9998505050505050505050565b6000604082019050612a8160008301856127fa565b612a8e60208301846127fa565b9392505050565b6000612a9f612ab0565b9050612aab8282612dea565b919050565b6000604051905090565b600067ffffffffffffffff821115612ad557612ad4612f20565b5b602082029050602081019050919050565b600067ffffffffffffffff821115612b0157612b00612f20565b5b602082029050602081019050919050565b600067ffffffffffffffff821115612b2d57612b2c612f20565b5b612b3682612f6d565b9050602081019050919050565b600067ffffffffffffffff821115612b5e57612b5d612f20565b5b612b6782612f6d565b9050602081019050919050565b6000819050602082019050919050565b600081519050919050565b600081519050919050565b6000602082019050919050565b600082825260208201905092915050565b600082825260208201905092915050565b6000612bd482612d5a565b9150612bdf83612d5a565b9250827fffffffffffffffffffffffffffffffffffffffffffffffffffffffffffffffff03821115612c1457612c13612e64565b5b828201905092915050565b6000612c2a82612d5a565b9150612c3583612d5a565b925082612c4557612c44612e93565b5b828204905092915050565b6000612c5b82612d5a565b9150612c6683612d5a565b9250817fffffffffffffffffffffffffffffffffffffffffffffffffffffffffffffffff0483118215151615612c9f57612c9e612e64565b5b828202905092915050565b6000612cb582612d5a565b9150612cc083612d5a565b925082821015612cd357612cd2612e64565b5b828203905092915050565b6000612ce982612d3a565b9050919050565b6000612cfb82612d3a565b9050919050565b60008115159050919050565b60007fffffffff0000000000000000000000000000000000000000000000000000000082169050919050565b600073ffffffffffffffffffffffffffffffffffffffff82169050919050565b6000819050919050565b6000612d6f82612d5a565b9050919050565b82818337600083830152505050565b60005b83811015612da3578082015181840152602081019050612d88565b83811115612db2576000848401525b50505050565b60006002820490506001821680612dd057607f821691505b60208210811415612de457612de3612ec2565b5b50919050565b612df382612f6d565b810181811067ffffffffffffffff82111715612e1257612e11612f20565b5b80604052505050565b6000612e2682612d5a565b91507fffffffffffffffffffffffffffffffffffffffffffffffffffffffffffffffff821415612e5957612e58612e64565b5b600182019050919050565b7f4e487b7100000000000000000000000000000000000000000000000000000000600052601160045260246000fd5b7f4e487b7100000000000000000000000000000000000000000000000000000000600052601260045260246000fd5b7f4e487b7100000000000000000000000000000000000000000000000000000000600052602260045260246000fd5b7f4e487b7100000000000000000000000000000000000000000000000000000000600052603260045260246000fd5b7f4e487b7100000000000000000000000000000000000000000000000000000000600052604160045260246000fd5b600080fd5b600080fd5b600080fd5b600080fd5b600080fd5b600080fd5b6000601f19601f8301169050919050565b7f455243313135353a2062616c616e636520717565727920666f7220746865207a60008201527f65726f2061646472657373000000000000000000000000000000000000000000602082015250565b7f4f776e61626c653a206e6577206f776e657220697320746865207a65726f206160008201527f6464726573730000000000000000000000000000000000000000000000000000602082015250565b7f4f776e61626c653a2063616c6c6572206973206e6f7420746865206f776e6572600082015250565b7f455243313135353a206163636f756e747320616e6420696473206c656e67746860008201527f206d69736d617463680000000000000000000000000000000000000000000000602082015250565b61309d81612cde565b81146130a857600080fd5b50565b6130b481612cf0565b81146130bf57600080fd5b50565b6130cb81612d02565b81146130d657600080fd5b50565b6130e281612d0e565b81146130ed57600080fd5b50565b6130f981612d5a565b811461310457600080fd5b5056fea2646970667358221220e2f19b7a1125ae68469393b389d238c7deb808944f054171a467be0d3364fd8864736f6c63430008060033",
  "immutableReferences": {},
  "source": "// SPDX-License-Identifier: MIT\npragma solidity ^0.8.0;\n\nimport \"./creatortokenformulas.sol\";\n\ncontract CreatorTokenFees is CreatorTokenFormulas {\n\n\tconstructor(string memory uri) CreatorTokenFormulas(uri) { }\n\n\t// Calculate fee associated with buy transaction\n\tfunction _feeProceeds(uint _proceedsRequired) public view returns (uint256) {\n\t\treturn _proceedsRequired*platformFee/100;\n\t}\n\n\t// Update platform fees tracker\n\tfunction _platformFeeUpdater(uint _fee) internal {\n\t\ttotalPlatformFees += _fee;\n\t\tplatformFeesOwed += _fee;\n\t}\n\n\t// Transfer excess liquidity (triggered only when a CreatorToken hits a new maxSupply)\n\tfunction _payCreator(uint _tokenId, address payable _creatorAddress) internal {\n\t\t// Create a variable showing excess liquidity that has already been transferred out of this token's liquidity pool\n\t\tuint alreadyTransferred = tokenValueTransferred[_tokenId];\n\t\t// Initialize totalProfit\n\t\tuint totalProfit = 0;\n\t\t// Calculate totalProfit (area between b(x) and s(x) from 0 to maxSupply)\n\t\ttotalProfit = _buyFunction(0, creatorTokens[_tokenId].maxSupply, mNumerator, mDenominator) - _saleFunction(creatorTokens[_tokenId].maxSupply, creatorTokens[_tokenId].maxSupply, mNumerator, mDenominator, creatorTokens[_tokenId].maxSupply, profitMargin);\n\t\t// Calculate creator's new profit created from new excess liquidity created\n\t\tuint newProfit = totalProfit - alreadyTransferred; //400000000000000000; // \n\t\t// Transfer newProfit wei to creator\n\t\t_creatorAddress.transfer(newProfit);\n\t\t// Update amount of value transferred to creator\n\t\ttokenValueTransferred[_tokenId] = totalProfit;\n\t}\n}",
  "sourcePath": "/Users/kamilalizaisadik/DeFi/Dynamic Automated Market Maker/damm_solidity/contracts/creatortokenfees.sol",
  "compiler": {
    "name": "solc",
    "version": "0.8.6+commit.11564f7e.Emscripten.clang"
  },
  "schemaVersion": "3.4.1",
  "updatedAt": "2021-07-10T11:50:50.442Z",
  "devdoc": {
    "kind": "dev",
    "methods": {
      "balanceOf(address,uint256)": {
        "details": "See {IERC1155-balanceOf}. Requirements: - `account` cannot be the zero address."
      },
      "balanceOfBatch(address[],uint256[])": {
        "details": "See {IERC1155-balanceOfBatch}. Requirements: - `accounts` and `ids` must have the same length."
      },
      "owner()": {
        "details": "Returns the address of the current owner."
      },
      "renounceOwnership()": {
        "details": "Leaves the contract without owner. It will not be possible to call `onlyOwner` functions anymore. Can only be called by the current owner. NOTE: Renouncing ownership will leave the contract without an owner, thereby removing any functionality that is only available to the owner."
      },
      "supportsInterface(bytes4)": {
        "details": "See {IERC165-supportsInterface}."
      },
      "transferOwnership(address)": {
        "details": "Transfers ownership of the contract to a new account (`newOwner`). Can only be called by the current owner."
      },
      "uri(uint256)": {
        "details": "See {IERC1155MetadataURI-uri}. This implementation returns the same URI for *all* token types. It relies on the token type ID substitution mechanism https://eips.ethereum.org/EIPS/eip-1155#metadata[defined in the EIP]. Clients calling this function must replace the `\\{id\\}` substring with the actual token type ID."
      }
    },
    "version": 1
  },
  "userdoc": {
    "kind": "user",
    "methods": {},
    "version": 1
  }
}