{
  "contractName": "CreatorTokenHelper",
  "abi": [
    {
      "anonymous": false,
      "inputs": [
        {
          "indexed": false,
          "internalType": "uint256",
          "name": "tokenId",
          "type": "uint256"
        },
        {
          "indexed": false,
          "internalType": "string",
          "name": "name",
          "type": "string"
        },
        {
          "indexed": false,
          "internalType": "string",
          "name": "symbol",
          "type": "string"
        }
      ],
      "name": "NewCreatorToken",
      "type": "event"
    },
    {
      "anonymous": false,
      "inputs": [
        {
          "indexed": true,
          "internalType": "address",
          "name": "previousOwner",
          "type": "address"
        },
        {
          "indexed": true,
          "internalType": "address",
          "name": "newOwner",
          "type": "address"
        }
      ],
      "name": "OwnershipTransferred",
      "type": "event"
    },
    {
      "inputs": [
        {
          "internalType": "address payable",
          "name": "_creatorAddress",
          "type": "address"
        },
        {
          "internalType": "string",
          "name": "_name",
          "type": "string"
        },
        {
          "internalType": "string",
          "name": "_symbol",
          "type": "string"
        },
        {
          "internalType": "string",
          "name": "_description",
          "type": "string"
        }
      ],
      "name": "createCreatorToken",
      "outputs": [],
      "stateMutability": "nonpayable",
      "type": "function"
    },
    {
      "inputs": [
        {
          "internalType": "uint256",
          "name": "",
          "type": "uint256"
        }
      ],
      "name": "creatorTokens",
      "outputs": [
        {
          "internalType": "address payable",
          "name": "creatorAddress",
          "type": "address"
        },
        {
          "internalType": "string",
          "name": "name",
          "type": "string"
        },
        {
          "internalType": "string",
          "name": "symbol",
          "type": "string"
        },
        {
          "internalType": "string",
          "name": "description",
          "type": "string"
        },
        {
          "internalType": "bool",
          "name": "verified",
          "type": "bool"
        },
        {
          "internalType": "uint256",
          "name": "outstanding",
          "type": "uint256"
        },
        {
          "internalType": "uint256",
          "name": "maxSupply",
          "type": "uint256"
        }
      ],
      "stateMutability": "view",
      "type": "function"
    },
    {
      "inputs": [],
      "name": "owner",
      "outputs": [
        {
          "internalType": "address",
          "name": "",
          "type": "address"
        }
      ],
      "stateMutability": "view",
      "type": "function"
    },
    {
      "inputs": [],
      "name": "renounceOwnership",
      "outputs": [],
      "stateMutability": "nonpayable",
      "type": "function"
    },
    {
      "inputs": [
        {
          "internalType": "uint256",
          "name": "",
          "type": "uint256"
        }
      ],
      "name": "tokenToCreator",
      "outputs": [
        {
          "internalType": "address",
          "name": "",
          "type": "address"
        }
      ],
      "stateMutability": "view",
      "type": "function"
    },
    {
      "inputs": [
        {
          "internalType": "address",
          "name": "newOwner",
          "type": "address"
        }
      ],
      "name": "transferOwnership",
      "outputs": [],
      "stateMutability": "nonpayable",
      "type": "function"
    },
    {
      "inputs": [
        {
          "internalType": "address payable",
          "name": "_owner",
          "type": "address"
        }
      ],
      "name": "withdraw",
      "outputs": [],
      "stateMutability": "nonpayable",
      "type": "function"
    },
    {
      "inputs": [
        {
          "internalType": "address payable",
          "name": "_owner",
          "type": "address"
        }
      ],
      "name": "payoutPlatformFees",
      "outputs": [],
      "stateMutability": "nonpayable",
      "type": "function"
    },
    {
      "inputs": [
        {
          "internalType": "uint256",
          "name": "_newPlatformFee",
          "type": "uint256"
        }
      ],
      "name": "changePlatformFee",
      "outputs": [],
      "stateMutability": "nonpayable",
      "type": "function"
    },
    {
      "inputs": [
        {
          "internalType": "uint256",
          "name": "_newProfitMargin",
          "type": "uint256"
        }
      ],
      "name": "changeProfitMargin",
      "outputs": [],
      "stateMutability": "nonpayable",
      "type": "function"
    },
    {
      "inputs": [
        {
          "internalType": "uint256",
          "name": "_tokenId",
          "type": "uint256"
        },
        {
          "internalType": "bool",
          "name": "_verified",
          "type": "bool"
        }
      ],
      "name": "changeVerification",
      "outputs": [],
      "stateMutability": "nonpayable",
      "type": "function"
    },
    {
      "inputs": [
        {
          "internalType": "uint256",
          "name": "_tokenId",
          "type": "uint256"
        },
        {
          "internalType": "address payable",
          "name": "_newCreatorAddress",
          "type": "address"
        }
      ],
      "name": "changeAddress",
      "outputs": [],
      "stateMutability": "nonpayable",
      "type": "function"
    },
    {
      "inputs": [
        {
          "internalType": "uint256",
          "name": "_tokenId",
          "type": "uint256"
        },
        {
          "internalType": "string",
          "name": "_newName",
          "type": "string"
        }
      ],
      "name": "changeName",
      "outputs": [],
      "stateMutability": "nonpayable",
      "type": "function"
    },
    {
      "inputs": [
        {
          "internalType": "uint256",
          "name": "_tokenId",
          "type": "uint256"
        },
        {
          "internalType": "string",
          "name": "_newSymbol",
          "type": "string"
        }
      ],
      "name": "changeSymbol",
      "outputs": [],
      "stateMutability": "nonpayable",
      "type": "function"
    },
    {
      "inputs": [
        {
          "internalType": "uint256",
          "name": "_tokenId",
          "type": "uint256"
        },
        {
          "internalType": "string",
          "name": "_newDescription",
          "type": "string"
        }
      ],
      "name": "changeDescriptoin",
      "outputs": [],
      "stateMutability": "nonpayable",
      "type": "function"
    }
  ],
  "bytecode": "0x6080604052600180556000600255600060035560146004556009600555620186a060065560065460055462000035919062000104565b6007553480156200004557600080fd5b50600062000058620000fc60201b60201c565b9050806000806101000a81548173ffffffffffffffffffffffffffffffffffffffff021916908373ffffffffffffffffffffffffffffffffffffffff1602179055508073ffffffffffffffffffffffffffffffffffffffff16600073ffffffffffffffffffffffffffffffffffffffff167f8be0079c531659141344cd1fd0a4f28419497f9722a3daafe3b4186f6b6457e060405160405180910390a35062000175565b600033905090565b600062000111826200013c565b91506200011e836200013c565b92508262000131576200013062000146565b5b828204905092915050565b6000819050919050565b7f4e487b7100000000000000000000000000000000000000000000000000000000600052601260045260246000fd5b611a3180620001856000396000f3fe608060405234801561001057600080fd5b50600436106100f55760003560e01c8063c39cbef111610097578063d7a5791a11610066578063d7a5791a1461024c578063eb84175914610268578063f2fde38b14610284578063f7374e2e146102a0576100f5565b8063c39cbef1146101c2578063c539c317146101de578063ce901d8a146101fa578063d56b72c714610230576100f5565b8063241b371c116100d3578063241b371c1461016257806351cff8d91461017e578063715018a61461019a5780638da5cb5b146101a4576100f5565b806306e320f5146100fa57806318892ae8146101165780631d5ad18b14610146575b600080fd5b610114600480360381019061010f9190611458565b6102bc565b005b610130600480360381019061012b91906113ab565b610363565b60405161013d9190611573565b60405180910390f35b610160600480360381019061015b91906113d8565b610396565b005b61017c60048036038101906101779190611458565b61046b565b005b610198600480360381019061019391906112c3565b610512565b005b6101a26105d8565b005b6101ac610712565b6040516101b99190611573565b60405180910390f35b6101dc60048036038101906101d79190611458565b61073b565b005b6101f860048036038101906101f391906113ab565b6107e2565b005b610214600480360381019061020f91906113ab565b610868565b604051610227979695949392919061158e565b60405180910390f35b61024a600480360381019061024591906112f0565b610a7f565b005b610266600480360381019061026191906113ab565b610c8f565b005b610282600480360381019061027d91906112c3565b610d15565b005b61029e60048036038101906102999190611296565b610de5565b005b6102ba60048036038101906102b59190611418565b610f8e565b005b826009600082815260200190815260200160002060009054906101000a900473ffffffffffffffffffffffffffffffffffffffff1673ffffffffffffffffffffffffffffffffffffffff163373ffffffffffffffffffffffffffffffffffffffff161461032857600080fd5b82826008868154811061033e5761033d61189a565b5b9060005260206000209060070201600201919061035c929190611053565b5050505050565b60096020528060005260406000206000915054906101000a900473ffffffffffffffffffffffffffffffffffffffff1681565b816009600082815260200190815260200160002060009054906101000a900473ffffffffffffffffffffffffffffffffffffffff1673ffffffffffffffffffffffffffffffffffffffff163373ffffffffffffffffffffffffffffffffffffffff161461040257600080fd5b81600884815481106104175761041661189a565b5b906000526020600020906007020160000160006101000a81548173ffffffffffffffffffffffffffffffffffffffff021916908373ffffffffffffffffffffffffffffffffffffffff160217905550505050565b826009600082815260200190815260200160002060009054906101000a900473ffffffffffffffffffffffffffffffffffffffff1673ffffffffffffffffffffffffffffffffffffffff163373ffffffffffffffffffffffffffffffffffffffff16146104d757600080fd5b8282600886815481106104ed576104ec61189a565b5b9060005260206000209060070201600301919061050b929190611053565b5050505050565b61051a61104b565b73ffffffffffffffffffffffffffffffffffffffff16610538610712565b73ffffffffffffffffffffffffffffffffffffffff161461058e576040517f08c379a000000000000000000000000000000000000000000000000000000000815260040161058590611632565b60405180910390fd5b8073ffffffffffffffffffffffffffffffffffffffff166108fc479081150290604051600060405180830381858888f193505050501580156105d4573d6000803e3d6000fd5b5050565b6105e061104b565b73ffffffffffffffffffffffffffffffffffffffff166105fe610712565b73ffffffffffffffffffffffffffffffffffffffff1614610654576040517f08c379a000000000000000000000000000000000000000000000000000000000815260040161064b90611632565b60405180910390fd5b600073ffffffffffffffffffffffffffffffffffffffff1660008054906101000a900473ffffffffffffffffffffffffffffffffffffffff1673ffffffffffffffffffffffffffffffffffffffff167f8be0079c531659141344cd1fd0a4f28419497f9722a3daafe3b4186f6b6457e060405160405180910390a360008060006101000a81548173ffffffffffffffffffffffffffffffffffffffff021916908373ffffffffffffffffffffffffffffffffffffffff160217905550565b60008060009054906101000a900473ffffffffffffffffffffffffffffffffffffffff16905090565b826009600082815260200190815260200160002060009054906101000a900473ffffffffffffffffffffffffffffffffffffffff1673ffffffffffffffffffffffffffffffffffffffff163373ffffffffffffffffffffffffffffffffffffffff16146107a757600080fd5b8282600886815481106107bd576107bc61189a565b5b906000526020600020906007020160010191906107db929190611053565b5050505050565b6107ea61104b565b73ffffffffffffffffffffffffffffffffffffffff16610808610712565b73ffffffffffffffffffffffffffffffffffffffff161461085e576040517f08c379a000000000000000000000000000000000000000000000000000000000815260040161085590611632565b60405180910390fd5b8060048190555050565b6008818154811061087857600080fd5b90600052602060002090600702016000915090508060000160009054906101000a900473ffffffffffffffffffffffffffffffffffffffff16908060010180546108c1906117d9565b80601f01602080910402602001604051908101604052809291908181526020018280546108ed906117d9565b801561093a5780601f1061090f5761010080835404028352916020019161093a565b820191906000526020600020905b81548152906001019060200180831161091d57829003601f168201915b50505050509080600201805461094f906117d9565b80601f016020809104026020016040519081016040528092919081815260200182805461097b906117d9565b80156109c85780601f1061099d576101008083540402835291602001916109c8565b820191906000526020600020905b8154815290600101906020018083116109ab57829003601f168201915b5050505050908060030180546109dd906117d9565b80601f0160208091040260200160405190810160405280929190818152602001828054610a09906117d9565b8015610a565780601f10610a2b57610100808354040283529160200191610a56565b820191906000526020600020905b815481529060010190602001808311610a3957829003601f168201915b5050505050908060040160009054906101000a900460ff16908060050154908060060154905087565b60086040518060e001604052808673ffffffffffffffffffffffffffffffffffffffff168152602001858152602001848152602001838152602001600015158152602001600081526020016000815250908060018154018082558091505060019003906000526020600020906007020160009091909190915060008201518160000160006101000a81548173ffffffffffffffffffffffffffffffffffffffff021916908373ffffffffffffffffffffffffffffffffffffffff1602179055506020820151816001019080519060200190610b5b9291906110d9565b506040820151816002019080519060200190610b789291906110d9565b506060820151816003019080519060200190610b959291906110d9565b5060808201518160040160006101000a81548160ff02191690831515021790555060a0820151816005015560c08201518160060155505060006001600880549050610be09190611709565b9050846009600083815260200190815260200160002060006101000a81548173ffffffffffffffffffffffffffffffffffffffff021916908373ffffffffffffffffffffffffffffffffffffffff1602179055506000600a6000838152602001908152602001600020819055507f01e9d0e2208938b5d6a39db5244c8dca0b77eb386bf3705fe751005e7e0ca16c818585604051610c8093929190611652565b60405180910390a15050505050565b610c9761104b565b73ffffffffffffffffffffffffffffffffffffffff16610cb5610712565b73ffffffffffffffffffffffffffffffffffffffff1614610d0b576040517f08c379a0000000000000000000000000000000000000000000000000000000008152600401610d0290611632565b60405180910390fd5b8060018190555050565b610d1d61104b565b73ffffffffffffffffffffffffffffffffffffffff16610d3b610712565b73ffffffffffffffffffffffffffffffffffffffff1614610d91576040517f08c379a0000000000000000000000000000000000000000000000000000000008152600401610d8890611632565b60405180910390fd5b8073ffffffffffffffffffffffffffffffffffffffff166108fc6003549081150290604051600060405180830381858888f19350505050158015610dd9573d6000803e3d6000fd5b50600060038190555050565b610ded61104b565b73ffffffffffffffffffffffffffffffffffffffff16610e0b610712565b73ffffffffffffffffffffffffffffffffffffffff1614610e61576040517f08c379a0000000000000000000000000000000000000000000000000000000008152600401610e5890611632565b60405180910390fd5b600073ffffffffffffffffffffffffffffffffffffffff168173ffffffffffffffffffffffffffffffffffffffff161415610ed1576040517f08c379a0000000000000000000000000000000000000000000000000000000008152600401610ec890611612565b60405180910390fd5b8073ffffffffffffffffffffffffffffffffffffffff1660008054906101000a900473ffffffffffffffffffffffffffffffffffffffff1673ffffffffffffffffffffffffffffffffffffffff167f8be0079c531659141344cd1fd0a4f28419497f9722a3daafe3b4186f6b6457e060405160405180910390a3806000806101000a81548173ffffffffffffffffffffffffffffffffffffffff021916908373ffffffffffffffffffffffffffffffffffffffff16021790555050565b610f9661104b565b73ffffffffffffffffffffffffffffffffffffffff16610fb4610712565b73ffffffffffffffffffffffffffffffffffffffff161461100a576040517f08c379a000000000000000000000000000000000000000000000000000000000815260040161100190611632565b60405180910390fd5b806008838154811061101f5761101e61189a565b5b906000526020600020906007020160040160006101000a81548160ff0219169083151502179055505050565b600033905090565b82805461105f906117d9565b90600052602060002090601f01602090048101928261108157600085556110c8565b82601f1061109a57803560ff19168380011785556110c8565b828001600101855582156110c8579182015b828111156110c75782358255916020019190600101906110ac565b5b5090506110d5919061115f565b5090565b8280546110e5906117d9565b90600052602060002090601f016020900481019282611107576000855561114e565b82601f1061112057805160ff191683800117855561114e565b8280016001018555821561114e579182015b8281111561114d578251825591602001919060010190611132565b5b50905061115b919061115f565b5090565b5b80821115611178576000816000905550600101611160565b5090565b600061118f61118a846116bc565b611697565b9050828152602081018484840111156111ab576111aa611907565b5b6111b6848285611797565b509392505050565b6000813590506111cd8161199f565b92915050565b6000813590506111e2816119b6565b92915050565b6000813590506111f7816119cd565b92915050565b60008083601f840112611213576112126118fd565b5b8235905067ffffffffffffffff8111156112305761122f6118f8565b5b60208301915083600182028301111561124c5761124b611902565b5b9250929050565b600082601f830112611268576112676118fd565b5b813561127884826020860161117c565b91505092915050565b600081359050611290816119e4565b92915050565b6000602082840312156112ac576112ab611911565b5b60006112ba848285016111be565b91505092915050565b6000602082840312156112d9576112d8611911565b5b60006112e7848285016111d3565b91505092915050565b6000806000806080858703121561130a57611309611911565b5b6000611318878288016111d3565b945050602085013567ffffffffffffffff8111156113395761133861190c565b5b61134587828801611253565b935050604085013567ffffffffffffffff8111156113665761136561190c565b5b61137287828801611253565b925050606085013567ffffffffffffffff8111156113935761139261190c565b5b61139f87828801611253565b91505092959194509250565b6000602082840312156113c1576113c0611911565b5b60006113cf84828501611281565b91505092915050565b600080604083850312156113ef576113ee611911565b5b60006113fd85828601611281565b925050602061140e858286016111d3565b9150509250929050565b6000806040838503121561142f5761142e611911565b5b600061143d85828601611281565b925050602061144e858286016111e8565b9150509250929050565b60008060006040848603121561147157611470611911565b5b600061147f86828701611281565b935050602084013567ffffffffffffffff8111156114a05761149f61190c565b5b6114ac868287016111fd565b92509250509250925092565b6114c18161174f565b82525050565b6114d08161173d565b82525050565b6114df81611761565b82525050565b60006114f0826116ed565b6114fa81856116f8565b935061150a8185602086016117a6565b61151381611916565b840191505092915050565b600061152b6026836116f8565b915061153682611927565b604082019050919050565b600061154e6020836116f8565b915061155982611976565b602082019050919050565b61156d8161178d565b82525050565b600060208201905061158860008301846114c7565b92915050565b600060e0820190506115a3600083018a6114b8565b81810360208301526115b581896114e5565b905081810360408301526115c981886114e5565b905081810360608301526115dd81876114e5565b90506115ec60808301866114d6565b6115f960a0830185611564565b61160660c0830184611564565b98975050505050505050565b6000602082019050818103600083015261162b8161151e565b9050919050565b6000602082019050818103600083015261164b81611541565b9050919050565b60006060820190506116676000830186611564565b818103602083015261167981856114e5565b9050818103604083015261168d81846114e5565b9050949350505050565b60006116a16116b2565b90506116ad828261180b565b919050565b6000604051905090565b600067ffffffffffffffff8211156116d7576116d66118c9565b5b6116e082611916565b9050602081019050919050565b600081519050919050565b600082825260208201905092915050565b60006117148261178d565b915061171f8361178d565b9250828210156117325761173161183c565b5b828203905092915050565b60006117488261176d565b9050919050565b600061175a8261176d565b9050919050565b60008115159050919050565b600073ffffffffffffffffffffffffffffffffffffffff82169050919050565b6000819050919050565b82818337600083830152505050565b60005b838110156117c45780820151818401526020810190506117a9565b838111156117d3576000848401525b50505050565b600060028204905060018216806117f157607f821691505b602082108114156118055761180461186b565b5b50919050565b61181482611916565b810181811067ffffffffffffffff82111715611833576118326118c9565b5b80604052505050565b7f4e487b7100000000000000000000000000000000000000000000000000000000600052601160045260246000fd5b7f4e487b7100000000000000000000000000000000000000000000000000000000600052602260045260246000fd5b7f4e487b7100000000000000000000000000000000000000000000000000000000600052603260045260246000fd5b7f4e487b7100000000000000000000000000000000000000000000000000000000600052604160045260246000fd5b600080fd5b600080fd5b600080fd5b600080fd5b600080fd5b600080fd5b6000601f19601f8301169050919050565b7f4f776e61626c653a206e6577206f776e657220697320746865207a65726f206160008201527f6464726573730000000000000000000000000000000000000000000000000000602082015250565b7f4f776e61626c653a2063616c6c6572206973206e6f7420746865206f776e6572600082015250565b6119a88161173d565b81146119b357600080fd5b50565b6119bf8161174f565b81146119ca57600080fd5b50565b6119d681611761565b81146119e157600080fd5b50565b6119ed8161178d565b81146119f857600080fd5b5056fea26469706673582212209f398fe37ca4e8ac4d82c7ccec089bc2d1d4d5f5c4ba0d7508b30b243336b3bd64736f6c63430008050033",
  "immutableReferences": {},
  "source": "// SPDX-License-Identifier: MIT\npragma solidity ^0.8.0;\n\nimport \"./creatortokenfactory.sol\";\n\ncontract CreatorTokenHelper is CreatorTokenFactory {\n\n\t// Modifier checking whether user is creator of the token\n\tmodifier onlyCreatorOf(uint _tokenId) {\n\t\trequire(msg.sender == tokenToCreator[_tokenId]);\n\t\t_;\n\t}\n\n\t// Ownable function allowing for withdrawal\n\tfunction withdraw(address payable _owner) external onlyOwner {\n\t  _owner.transfer(address(this).balance);\n\t}\n\n\t// Payout platform fees owed to owner (might opt to call this daily)\n\tfunction payoutPlatformFees(address payable _owner) external onlyOwner {\n\t\t_owner.transfer(platformFeesOwed);\n\t\t// Reset platformFeesOwed to zero after payout\n\t\tplatformFeesOwed = 0 ether;\n\t}\n\n\t// Allow owner to change platformFee\n\tfunction changePlatformFee(uint _newPlatformFee) external onlyOwner {\n\t\tplatformFee = _newPlatformFee;\n\t}\n\n\t// Allow owner to change profit_margin\n\tfunction changeProfitMargin(uint _newProfitMargin) external onlyOwner {\n\t\tprofitMargin = _newProfitMargin;\n\t}\n\n\t// Allow owner to verify (or undo verification) of a CreatorToken\n\tfunction changeVerification(uint _tokenId, bool _verified) external onlyOwner {\n\t\tcreatorTokens[_tokenId].verified = _verified;\n\t}\n\n\t// Allow token creator to change their address\n\tfunction changeAddress(uint _tokenId, address payable _newCreatorAddress) external onlyCreatorOf(_tokenId) {\n\t\tcreatorTokens[_tokenId].creatorAddress = _newCreatorAddress;\n\t}\n\n\t// Allow token creator to change the name of their token\n\tfunction changeName(uint _tokenId, string calldata _newName) external onlyCreatorOf(_tokenId) {\n\t\tcreatorTokens[_tokenId].name = _newName;\n\t}\n\n\t// Allow token creator to change the symbol of their token\n\tfunction changeSymbol(uint _tokenId, string calldata _newSymbol) external onlyCreatorOf(_tokenId) {\n\t\tcreatorTokens[_tokenId].symbol = _newSymbol;\n\t}\n\n\t// Allow token creator to change the description of their token\n\tfunction changeDescriptoin(uint _tokenId, string calldata _newDescription) external onlyCreatorOf(_tokenId) {\n\t\tcreatorTokens[_tokenId].description = _newDescription;\n\t}\n}",
  "sourcePath": "/Users/kamilalizaisadik/DeFi/Dynamic Automated Market Maker/damm_solidity/contracts/creatortokenhelper.sol",
  "compiler": {
    "name": "solc",
    "version": "0.8.5+commit.a4f2e591.Emscripten.clang"
  },
  "schemaVersion": "3.4.1",
  "updatedAt": "2021-06-17T00:17:31.261Z",
  "devdoc": {
    "kind": "dev",
    "methods": {
      "owner()": {
        "details": "Returns the address of the current owner."
      },
      "renounceOwnership()": {
        "details": "Leaves the contract without owner. It will not be possible to call `onlyOwner` functions anymore. Can only be called by the current owner. NOTE: Renouncing ownership will leave the contract without an owner, thereby removing any functionality that is only available to the owner."
      },
      "transferOwnership(address)": {
        "details": "Transfers ownership of the contract to a new account (`newOwner`). Can only be called by the current owner."
      }
    },
    "version": 1
  },
  "userdoc": {
    "kind": "user",
    "methods": {},
    "version": 1
  }
}