{
  "contractName": "CreatorTokenFactory",
  "abi": [
    {
      "anonymous": false,
      "inputs": [
        {
          "indexed": false,
          "internalType": "uint256",
          "name": "tokenId",
          "type": "uint256"
        },
        {
          "indexed": false,
          "internalType": "address payable",
          "name": "creatorAddress",
          "type": "address"
        },
        {
          "indexed": false,
          "internalType": "string",
          "name": "name",
          "type": "string"
        },
        {
          "indexed": false,
          "internalType": "string",
          "name": "symbol",
          "type": "string"
        },
        {
          "indexed": false,
          "internalType": "string",
          "name": "description",
          "type": "string"
        },
        {
          "indexed": false,
          "internalType": "bool",
          "name": "verified",
          "type": "bool"
        },
        {
          "indexed": false,
          "internalType": "uint256",
          "name": "outstanding",
          "type": "uint256"
        },
        {
          "indexed": false,
          "internalType": "uint256",
          "name": "maxSupply",
          "type": "uint256"
        }
      ],
      "name": "NewCreatorToken",
      "type": "event"
    },
    {
      "anonymous": false,
      "inputs": [
        {
          "indexed": true,
          "internalType": "address",
          "name": "previousOwner",
          "type": "address"
        },
        {
          "indexed": true,
          "internalType": "address",
          "name": "newOwner",
          "type": "address"
        }
      ],
      "name": "OwnershipTransferred",
      "type": "event"
    },
    {
      "inputs": [
        {
          "internalType": "address",
          "name": "",
          "type": "address"
        },
        {
          "internalType": "address",
          "name": "",
          "type": "address"
        }
      ],
      "name": "approvals",
      "outputs": [
        {
          "internalType": "bool",
          "name": "",
          "type": "bool"
        }
      ],
      "stateMutability": "view",
      "type": "function"
    },
    {
      "inputs": [
        {
          "internalType": "uint256",
          "name": "",
          "type": "uint256"
        }
      ],
      "name": "creatorTokens",
      "outputs": [
        {
          "internalType": "address payable",
          "name": "creatorAddress",
          "type": "address"
        },
        {
          "internalType": "string",
          "name": "name",
          "type": "string"
        },
        {
          "internalType": "string",
          "name": "symbol",
          "type": "string"
        },
        {
          "internalType": "string",
          "name": "description",
          "type": "string"
        },
        {
          "internalType": "bool",
          "name": "verified",
          "type": "bool"
        },
        {
          "internalType": "uint256",
          "name": "outstanding",
          "type": "uint256"
        },
        {
          "internalType": "uint256",
          "name": "maxSupply",
          "type": "uint256"
        }
      ],
      "stateMutability": "view",
      "type": "function"
    },
    {
      "inputs": [],
      "name": "owner",
      "outputs": [
        {
          "internalType": "address",
          "name": "",
          "type": "address"
        }
      ],
      "stateMutability": "view",
      "type": "function"
    },
    {
      "inputs": [],
      "name": "platformFeesOwed",
      "outputs": [
        {
          "internalType": "uint256",
          "name": "",
          "type": "uint256"
        }
      ],
      "stateMutability": "view",
      "type": "function"
    },
    {
      "inputs": [],
      "name": "renounceOwnership",
      "outputs": [],
      "stateMutability": "nonpayable",
      "type": "function"
    },
    {
      "inputs": [
        {
          "internalType": "uint256",
          "name": "",
          "type": "uint256"
        },
        {
          "internalType": "address",
          "name": "",
          "type": "address"
        }
      ],
      "name": "tokenHoldership",
      "outputs": [
        {
          "internalType": "uint256",
          "name": "",
          "type": "uint256"
        }
      ],
      "stateMutability": "view",
      "type": "function"
    },
    {
      "inputs": [
        {
          "internalType": "uint256",
          "name": "",
          "type": "uint256"
        }
      ],
      "name": "tokenToCreator",
      "outputs": [
        {
          "internalType": "address",
          "name": "",
          "type": "address"
        }
      ],
      "stateMutability": "view",
      "type": "function"
    },
    {
      "inputs": [
        {
          "internalType": "uint256",
          "name": "",
          "type": "uint256"
        }
      ],
      "name": "tokenValueTransferred",
      "outputs": [
        {
          "internalType": "uint256",
          "name": "",
          "type": "uint256"
        }
      ],
      "stateMutability": "view",
      "type": "function"
    },
    {
      "inputs": [],
      "name": "totalPlatformFees",
      "outputs": [
        {
          "internalType": "uint256",
          "name": "",
          "type": "uint256"
        }
      ],
      "stateMutability": "view",
      "type": "function"
    },
    {
      "inputs": [
        {
          "internalType": "uint256",
          "name": "",
          "type": "uint256"
        }
      ],
      "name": "totalValueLocked",
      "outputs": [
        {
          "internalType": "uint256",
          "name": "",
          "type": "uint256"
        }
      ],
      "stateMutability": "view",
      "type": "function"
    },
    {
      "inputs": [
        {
          "internalType": "address",
          "name": "newOwner",
          "type": "address"
        }
      ],
      "name": "transferOwnership",
      "outputs": [],
      "stateMutability": "nonpayable",
      "type": "function"
    },
    {
      "inputs": [
        {
          "internalType": "address",
          "name": "",
          "type": "address"
        },
        {
          "internalType": "uint256",
          "name": "",
          "type": "uint256"
        }
      ],
      "name": "userToHoldings",
      "outputs": [
        {
          "internalType": "uint256",
          "name": "",
          "type": "uint256"
        }
      ],
      "stateMutability": "view",
      "type": "function"
    },
    {
      "inputs": [
        {
          "internalType": "address payable",
          "name": "_creatorAddress",
          "type": "address"
        },
        {
          "internalType": "string",
          "name": "_name",
          "type": "string"
        },
        {
          "internalType": "string",
          "name": "_symbol",
          "type": "string"
        },
        {
          "internalType": "string",
          "name": "_description",
          "type": "string"
        }
      ],
      "name": "createCreatorToken",
      "outputs": [],
      "stateMutability": "nonpayable",
      "type": "function"
    },
    {
      "inputs": [],
      "name": "getCreatorTokenCount",
      "outputs": [
        {
          "internalType": "uint256",
          "name": "",
          "type": "uint256"
        }
      ],
      "stateMutability": "view",
      "type": "function"
    },
    {
      "inputs": [
        {
          "internalType": "uint256",
          "name": "_id",
          "type": "uint256"
        }
      ],
      "name": "getToken",
      "outputs": [
        {
          "components": [
            {
              "internalType": "address payable",
              "name": "creatorAddress",
              "type": "address"
            },
            {
              "internalType": "string",
              "name": "name",
              "type": "string"
            },
            {
              "internalType": "string",
              "name": "symbol",
              "type": "string"
            },
            {
              "internalType": "string",
              "name": "description",
              "type": "string"
            },
            {
              "internalType": "bool",
              "name": "verified",
              "type": "bool"
            },
            {
              "internalType": "uint256",
              "name": "outstanding",
              "type": "uint256"
            },
            {
              "internalType": "uint256",
              "name": "maxSupply",
              "type": "uint256"
            }
          ],
          "internalType": "struct CreatorTokenFactory.CreatorToken",
          "name": "",
          "type": "tuple"
        }
      ],
      "stateMutability": "view",
      "type": "function"
    }
  ],
  "bytecode": "0x60806040526001805560006002556000600355601460045565082f79cd900060055560b960065534801561003257600080fd5b5060006100436100e660201b60201c565b9050806000806101000a81548173ffffffffffffffffffffffffffffffffffffffff021916908373ffffffffffffffffffffffffffffffffffffffff1602179055508073ffffffffffffffffffffffffffffffffffffffff16600073ffffffffffffffffffffffffffffffffffffffff167f8be0079c531659141344cd1fd0a4f28419497f9722a3daafe3b4186f6b6457e060405160405180910390a3506100ee565b600033905090565b6118a9806100fd6000396000f3fe608060405234801561001057600080fd5b50600436106100f55760003560e01c8063bfb48c9c11610097578063d56b72c711610066578063d56b72c7146102a2578063d9bd3a40146102be578063e4b50cb8146102ee578063f2fde38b1461031e576100f5565b8063bfb48c9c14610200578063c1d3304914610230578063ce901d8a1461024e578063d3631fa514610284576100f5565b8063715018a6116100d3578063715018a6146101785780638da5cb5b1461018257806392724afa146101a0578063a32ce11e146101d0576100f5565b806317bcaa08146100fa57806318892ae81461012a5780632a2b237c1461015a575b600080fd5b610114600480360381019061010f91906110fc565b61033a565b604051610121919061145f565b60405180910390f35b610144600480360381019061013f91906110fc565b610352565b6040516101519190611343565b60405180910390f35b610162610385565b60405161016f919061145f565b60405180910390f35b610180610392565b005b61018a6104cc565b6040516101979190611343565b60405180910390f35b6101ba60048036038101906101b591906110bc565b6104f5565b6040516101c7919061145f565b60405180910390f35b6101ea60048036038101906101e5919061107c565b61051a565b6040516101f791906113e2565b60405180910390f35b61021a60048036038101906102159190611129565b610549565b604051610227919061145f565b60405180910390f35b61023861056e565b604051610245919061145f565b60405180910390f35b610268600480360381019061026391906110fc565b610574565b60405161027b979695949392919061135e565b60405180910390f35b61028c61078b565b604051610299919061145f565b60405180910390f35b6102bc60048036038101906102b79190610fc1565b610791565b005b6102d860048036038101906102d391906110fc565b6109ad565b6040516102e5919061145f565b60405180910390f35b610308600480360381019061030391906110fc565b6109c5565b604051610315919061143d565b60405180910390f35b61033860048036038101906103339190610f94565b610c3c565b005b60096020528060005260406000206000915090505481565b60086020528060005260406000206000915054906101000a900473ffffffffffffffffffffffffffffffffffffffff1681565b6000600780549050905090565b61039a610de5565b73ffffffffffffffffffffffffffffffffffffffff166103b86104cc565b73ffffffffffffffffffffffffffffffffffffffff161461040e576040517f08c379a00000000000000000000000000000000000000000000000000000000081526004016104059061141d565b60405180910390fd5b600073ffffffffffffffffffffffffffffffffffffffff1660008054906101000a900473ffffffffffffffffffffffffffffffffffffffff1673ffffffffffffffffffffffffffffffffffffffff167f8be0079c531659141344cd1fd0a4f28419497f9722a3daafe3b4186f6b6457e060405160405180910390a360008060006101000a81548173ffffffffffffffffffffffffffffffffffffffff021916908373ffffffffffffffffffffffffffffffffffffffff160217905550565b60008060009054906101000a900473ffffffffffffffffffffffffffffffffffffffff16905090565b600b602052816000526040600020602052806000526040600020600091509150505481565b600c6020528160005260406000206020528060005260406000206000915091509054906101000a900460ff1681565b600a602052816000526040600020602052806000526040600020600091509150505481565b60035481565b6007818154811061058457600080fd5b90600052602060002090600702016000915090508060000160009054906101000a900473ffffffffffffffffffffffffffffffffffffffff16908060010180546105cd90611672565b80601f01602080910402602001604051908101604052809291908181526020018280546105f990611672565b80156106465780601f1061061b57610100808354040283529160200191610646565b820191906000526020600020905b81548152906001019060200180831161062957829003601f168201915b50505050509080600201805461065b90611672565b80601f016020809104026020016040519081016040528092919081815260200182805461068790611672565b80156106d45780601f106106a9576101008083540402835291602001916106d4565b820191906000526020600020905b8154815290600101906020018083116106b757829003601f168201915b5050505050908060030180546106e990611672565b80601f016020809104026020016040519081016040528092919081815260200182805461071590611672565b80156107625780601f1061073757610100808354040283529160200191610762565b820191906000526020600020905b81548152906001019060200180831161074557829003601f168201915b5050505050908060040160009054906101000a900460ff16908060050154908060060154905087565b60025481565b60076040518060e001604052808673ffffffffffffffffffffffffffffffffffffffff168152602001858152602001848152602001838152602001600015158152602001600081526020016000815250908060018154018082558091505060019003906000526020600020906007020160009091909190915060008201518160000160006101000a81548173ffffffffffffffffffffffffffffffffffffffff021916908373ffffffffffffffffffffffffffffffffffffffff160217905550602082015181600101908051906020019061086d929190610ded565b50604082015181600201908051906020019061088a929190610ded565b5060608201518160030190805190602001906108a7929190610ded565b5060808201518160040160006101000a81548160ff02191690831515021790555060a0820151816005015560c082015181600601555050600060016007805490506108f29190611590565b9050846008600083815260200190815260200160002060006101000a81548173ffffffffffffffffffffffffffffffffffffffff021916908373ffffffffffffffffffffffffffffffffffffffff160217905550600060096000838152602001908152602001600020819055507f3ef624c0f3fb7ad40b94c02078ea3e3a797dbfc21e921ee4bd2b8ad0ca6aa1138186868686600080600060405161099e98979695949392919061147a565b60405180910390a15050505050565b600d6020528060005260406000206000915090505481565b6109cd610e73565b600782815481106109e1576109e0611733565b5b90600052602060002090600702016040518060e00160405290816000820160009054906101000a900473ffffffffffffffffffffffffffffffffffffffff1673ffffffffffffffffffffffffffffffffffffffff1673ffffffffffffffffffffffffffffffffffffffff168152602001600182018054610a6090611672565b80601f0160208091040260200160405190810160405280929190818152602001828054610a8c90611672565b8015610ad95780601f10610aae57610100808354040283529160200191610ad9565b820191906000526020600020905b815481529060010190602001808311610abc57829003601f168201915b50505050508152602001600282018054610af290611672565b80601f0160208091040260200160405190810160405280929190818152602001828054610b1e90611672565b8015610b6b5780601f10610b4057610100808354040283529160200191610b6b565b820191906000526020600020905b815481529060010190602001808311610b4e57829003601f168201915b50505050508152602001600382018054610b8490611672565b80601f0160208091040260200160405190810160405280929190818152602001828054610bb090611672565b8015610bfd5780601f10610bd257610100808354040283529160200191610bfd565b820191906000526020600020905b815481529060010190602001808311610be057829003601f168201915b505050505081526020016004820160009054906101000a900460ff16151515158152602001600582015481526020016006820154815250509050919050565b610c44610de5565b73ffffffffffffffffffffffffffffffffffffffff16610c626104cc565b73ffffffffffffffffffffffffffffffffffffffff1614610cb8576040517f08c379a0000000000000000000000000000000000000000000000000000000008152600401610caf9061141d565b60405180910390fd5b600073ffffffffffffffffffffffffffffffffffffffff168173ffffffffffffffffffffffffffffffffffffffff161415610d28576040517f08c379a0000000000000000000000000000000000000000000000000000000008152600401610d1f906113fd565b60405180910390fd5b8073ffffffffffffffffffffffffffffffffffffffff1660008054906101000a900473ffffffffffffffffffffffffffffffffffffffff1673ffffffffffffffffffffffffffffffffffffffff167f8be0079c531659141344cd1fd0a4f28419497f9722a3daafe3b4186f6b6457e060405160405180910390a3806000806101000a81548173ffffffffffffffffffffffffffffffffffffffff021916908373ffffffffffffffffffffffffffffffffffffffff16021790555050565b600033905090565b828054610df990611672565b90600052602060002090601f016020900481019282610e1b5760008555610e62565b82601f10610e3457805160ff1916838001178555610e62565b82800160010185558215610e62579182015b82811115610e61578251825591602001919060010190610e46565b5b509050610e6f9190610ec8565b5090565b6040518060e00160405280600073ffffffffffffffffffffffffffffffffffffffff16815260200160608152602001606081526020016060815260200160001515815260200160008152602001600081525090565b5b80821115610ee1576000816000905550600101610ec9565b5090565b6000610ef8610ef384611532565b61150d565b905082815260208101848484011115610f1457610f13611796565b5b610f1f848285611630565b509392505050565b600081359050610f368161182e565b92915050565b600081359050610f4b81611845565b92915050565b600082601f830112610f6657610f65611791565b5b8135610f76848260208601610ee5565b91505092915050565b600081359050610f8e8161185c565b92915050565b600060208284031215610faa57610fa96117a0565b5b6000610fb884828501610f27565b91505092915050565b60008060008060808587031215610fdb57610fda6117a0565b5b6000610fe987828801610f3c565b945050602085013567ffffffffffffffff81111561100a5761100961179b565b5b61101687828801610f51565b935050604085013567ffffffffffffffff8111156110375761103661179b565b5b61104387828801610f51565b925050606085013567ffffffffffffffff8111156110645761106361179b565b5b61107087828801610f51565b91505092959194509250565b60008060408385031215611093576110926117a0565b5b60006110a185828601610f27565b92505060206110b285828601610f27565b9150509250929050565b600080604083850312156110d3576110d26117a0565b5b60006110e185828601610f27565b92505060206110f285828601610f7f565b9150509250929050565b600060208284031215611112576111116117a0565b5b600061112084828501610f7f565b91505092915050565b600080604083850312156111405761113f6117a0565b5b600061114e85828601610f7f565b925050602061115f85828601610f27565b9150509250929050565b611172816115d6565b82525050565b611181816115d6565b82525050565b611190816115c4565b82525050565b61119f816115e8565b82525050565b6111ae816115e8565b82525050565b6111bd8161161e565b82525050565b60006111ce82611563565b6111d8818561156e565b93506111e881856020860161163f565b6111f1816117a5565b840191505092915050565b600061120782611563565b611211818561157f565b935061122181856020860161163f565b61122a816117a5565b840191505092915050565b600061124260268361157f565b915061124d826117b6565b604082019050919050565b600061126560208361157f565b915061127082611805565b602082019050919050565b600060e0830160008301516112936000860182611169565b50602083015184820360208601526112ab82826111c3565b915050604083015184820360408601526112c582826111c3565b915050606083015184820360608601526112df82826111c3565b91505060808301516112f46080860182611196565b5060a083015161130760a0860182611325565b5060c083015161131a60c0860182611325565b508091505092915050565b61132e81611614565b82525050565b61133d81611614565b82525050565b60006020820190506113586000830184611187565b92915050565b600060e082019050611373600083018a611178565b818103602083015261138581896111fc565b9050818103604083015261139981886111fc565b905081810360608301526113ad81876111fc565b90506113bc60808301866111a5565b6113c960a0830185611334565b6113d660c0830184611334565b98975050505050505050565b60006020820190506113f760008301846111a5565b92915050565b6000602082019050818103600083015261141681611235565b9050919050565b6000602082019050818103600083015261143681611258565b9050919050565b60006020820190508181036000830152611457818461127b565b905092915050565b60006020820190506114746000830184611334565b92915050565b600061010082019050611490600083018b611334565b61149d602083018a611178565b81810360408301526114af81896111fc565b905081810360608301526114c381886111fc565b905081810360808301526114d781876111fc565b90506114e660a08301866111a5565b6114f360c08301856111b4565b61150060e08301846111b4565b9998505050505050505050565b6000611517611528565b905061152382826116a4565b919050565b6000604051905090565b600067ffffffffffffffff82111561154d5761154c611762565b5b611556826117a5565b9050602081019050919050565b600081519050919050565b600082825260208201905092915050565b600082825260208201905092915050565b600061159b82611614565b91506115a683611614565b9250828210156115b9576115b86116d5565b5b828203905092915050565b60006115cf826115f4565b9050919050565b60006115e1826115f4565b9050919050565b60008115159050919050565b600073ffffffffffffffffffffffffffffffffffffffff82169050919050565b6000819050919050565b600061162982611614565b9050919050565b82818337600083830152505050565b60005b8381101561165d578082015181840152602081019050611642565b8381111561166c576000848401525b50505050565b6000600282049050600182168061168a57607f821691505b6020821081141561169e5761169d611704565b5b50919050565b6116ad826117a5565b810181811067ffffffffffffffff821117156116cc576116cb611762565b5b80604052505050565b7f4e487b7100000000000000000000000000000000000000000000000000000000600052601160045260246000fd5b7f4e487b7100000000000000000000000000000000000000000000000000000000600052602260045260246000fd5b7f4e487b7100000000000000000000000000000000000000000000000000000000600052603260045260246000fd5b7f4e487b7100000000000000000000000000000000000000000000000000000000600052604160045260246000fd5b600080fd5b600080fd5b600080fd5b600080fd5b6000601f19601f8301169050919050565b7f4f776e61626c653a206e6577206f776e657220697320746865207a65726f206160008201527f6464726573730000000000000000000000000000000000000000000000000000602082015250565b7f4f776e61626c653a2063616c6c6572206973206e6f7420746865206f776e6572600082015250565b611837816115c4565b811461184257600080fd5b50565b61184e816115d6565b811461185957600080fd5b50565b61186581611614565b811461187057600080fd5b5056fea2646970667358221220e4e159b47391004002affef7cba528543df6e77ab0a62283ae69df236b74771464736f6c63430008060033",
  "immutableReferences": {},
  "source": "// SPDX-License-Identifier: MIT\npragma solidity ^0.8.0;\n\nimport \"@openzeppelin/contracts/access/Ownable.sol\";\n\n/// @title A contract generating Creator Tokens, as well as relevant attributes and mappings\n/// @author Kamil Alizai Sadik\ncontract CreatorTokenFactory is Ownable {\n\n\t// Event that fires whenever a new CreatorToken is created\n\tevent NewCreatorToken(uint tokenId, address payable creatorAddress, string name, string symbol, string description, bool verified, uint outstanding, uint maxSupply);\n\n\t// Pay-on-top style platform fee on each transaction\n\tuint platformFee = 1; // e.g., if platformFee == 1, the platform earns 1% of each transaction's value\n\t// Variable to track total platform fees generated\n\tuint public totalPlatformFees = 0;\n\t// Variable to track platform fees owed, but not yet paid to owner\n\tuint public platformFeesOwed = 0;\n\n\t// Profit margin (percentage of total revenue) directed toward creator\n\tuint profitMargin = 20;\n\n\t// Slope of buy price function\n\tuint mNumerator = 9000000000000;\n\tuint mDenominator = 185;\n\n\t// Struct containing CreatorToken attributes\n\tstruct CreatorToken {\n\t\taddress payable creatorAddress;\n\t\tstring name;\n\t\tstring symbol;\n\t\tstring description;\n\t\tbool verified;\n\t\tuint outstanding;\n\t\tuint maxSupply;\n\t}\n\n\t// Array of all CreatorTokens\n\tCreatorToken[] public creatorTokens;\n\n\t// Mapping from tokenId to creatorAddress\n\tmapping (uint => address) public tokenToCreator;\n\t// Mapping from tokenId to token value transferred to creator\n\tmapping (uint => uint) public tokenValueTransferred;\n\t// Mapping from tokenId to mapping from address to quantity of tokenId held\n\tmapping(uint256 => mapping(address => uint256)) public tokenHoldership;\n\t// Mapping from user to mapping from tokenId to quantity of that token the user owns (to show a user's portfolio without having to iterate through tokenHoldership)\n\tmapping(address => mapping(uint256 => uint256)) public userToHoldings;\n\t// Mapping from account to operator approvals\n\tmapping(address => mapping(address => bool)) public approvals;\n\t// Mapping from token to total value locked\n\tmapping (uint => uint) public totalValueLocked;\n\n\t/// @dev Creates a new creator token\n\t/// @param _creatorAddress Address of the creator of the token\n\t/// @param _name Name chosen by the creator of the token\n\t/// @param _symbol Ticker symbol chosen by the creator of the token\n\t/// @param _description chosen by the creator of the tokens\n\tfunction createCreatorToken(address payable _creatorAddress, string memory _name, string memory _symbol, string memory _description) public {\n\t\t// Add token to creatorTokens array\n\t\tcreatorTokens.push(CreatorToken(_creatorAddress, _name, _symbol, _description, false, 0, 0));\n\t\t// Create token id\n\t\tuint id = creatorTokens.length - 1;\n\t\t// Map from token id to creator's address\n\t\ttokenToCreator[id] = _creatorAddress;\n\t\t// Map from token id to amount of value transferred (0 at inception)\n\t\ttokenValueTransferred[id] = 0;\n\t\t// Emit token creation event\n\t\temit NewCreatorToken(id, _creatorAddress, _name, _symbol, _description, false, 0, 0);\n\t}\n\n\t/// @dev Returns the current length of the creatorTokens array\n\t/// @return uint representing number of unique Creator Tokens\n\tfunction getCreatorTokenCount() public view returns (uint) {\n\t\t// Return length of creatorTokens array\n\t\treturn creatorTokens.length;\n\t}\n\n\t/// @dev Returns token with a particular id\n\t/// @param _id Id of desired token\n\t/// @return CreatorToken\n\tfunction getToken(uint _id) public view returns (CreatorToken memory) {\n\t\treturn creatorTokens[_id];\n\t}\n}",
  "sourcePath": "/Users/kamilalizaisadik/DeFi/Dynamic Automated Market Maker/CreatorTokenExchange/contracts/creatortokenfactory.sol",
  "compiler": {
    "name": "solc",
    "version": "0.8.6+commit.11564f7e.Emscripten.clang"
  },
  "schemaVersion": "3.4.1",
  "updatedAt": "2021-07-29T00:15:16.583Z",
  "devdoc": {
    "author": "Kamil Alizai Sadik",
    "kind": "dev",
    "methods": {
      "createCreatorToken(address,string,string,string)": {
        "details": "Creates a new creator token",
        "params": {
          "_creatorAddress": "Address of the creator of the token",
          "_description": "chosen by the creator of the tokens",
          "_name": "Name chosen by the creator of the token",
          "_symbol": "Ticker symbol chosen by the creator of the token"
        }
      },
      "getCreatorTokenCount()": {
        "details": "Returns the current length of the creatorTokens array",
        "returns": {
          "_0": "uint representing number of unique Creator Tokens"
        }
      },
      "getToken(uint256)": {
        "details": "Returns token with a particular id",
        "params": {
          "_id": "Id of desired token"
        },
        "returns": {
          "_0": "CreatorToken"
        }
      },
      "owner()": {
        "details": "Returns the address of the current owner."
      },
      "renounceOwnership()": {
        "details": "Leaves the contract without owner. It will not be possible to call `onlyOwner` functions anymore. Can only be called by the current owner. NOTE: Renouncing ownership will leave the contract without an owner, thereby removing any functionality that is only available to the owner."
      },
      "transferOwnership(address)": {
        "details": "Transfers ownership of the contract to a new account (`newOwner`). Can only be called by the current owner."
      }
    },
    "title": "A contract generating Creator Tokens, as well as relevant attributes and mappings",
    "version": 1
  },
  "userdoc": {
    "kind": "user",
    "methods": {},
    "version": 1
  }
}