{
  "contractName": "CreatorTokenOwnership",
  "abi": [
    {
      "inputs": [
        {
          "internalType": "string",
          "name": "uri",
          "type": "string"
        }
      ],
      "stateMutability": "nonpayable",
      "type": "constructor"
    },
    {
      "anonymous": false,
      "inputs": [
        {
          "indexed": true,
          "internalType": "address",
          "name": "account",
          "type": "address"
        },
        {
          "indexed": true,
          "internalType": "address",
          "name": "operator",
          "type": "address"
        },
        {
          "indexed": false,
          "internalType": "bool",
          "name": "approved",
          "type": "bool"
        }
      ],
      "name": "ApprovalForAll",
      "type": "event"
    },
    {
      "anonymous": false,
      "inputs": [
        {
          "indexed": false,
          "internalType": "uint256",
          "name": "tokenId",
          "type": "uint256"
        },
        {
          "indexed": false,
          "internalType": "address payable",
          "name": "creatorAddress",
          "type": "address"
        },
        {
          "indexed": false,
          "internalType": "string",
          "name": "name",
          "type": "string"
        },
        {
          "indexed": false,
          "internalType": "string",
          "name": "symbol",
          "type": "string"
        },
        {
          "indexed": false,
          "internalType": "string",
          "name": "description",
          "type": "string"
        },
        {
          "indexed": false,
          "internalType": "bool",
          "name": "verified",
          "type": "bool"
        },
        {
          "indexed": false,
          "internalType": "uint256",
          "name": "outstanding",
          "type": "uint256"
        },
        {
          "indexed": false,
          "internalType": "uint256",
          "name": "maxSupply",
          "type": "uint256"
        }
      ],
      "name": "NewCreatorToken",
      "type": "event"
    },
    {
      "anonymous": false,
      "inputs": [
        {
          "indexed": true,
          "internalType": "address",
          "name": "previousOwner",
          "type": "address"
        },
        {
          "indexed": true,
          "internalType": "address",
          "name": "newOwner",
          "type": "address"
        }
      ],
      "name": "OwnershipTransferred",
      "type": "event"
    },
    {
      "anonymous": false,
      "inputs": [
        {
          "indexed": true,
          "internalType": "address",
          "name": "operator",
          "type": "address"
        },
        {
          "indexed": true,
          "internalType": "address",
          "name": "from",
          "type": "address"
        },
        {
          "indexed": true,
          "internalType": "address",
          "name": "to",
          "type": "address"
        },
        {
          "indexed": false,
          "internalType": "uint256[]",
          "name": "ids",
          "type": "uint256[]"
        },
        {
          "indexed": false,
          "internalType": "uint256[]",
          "name": "values",
          "type": "uint256[]"
        }
      ],
      "name": "TransferBatch",
      "type": "event"
    },
    {
      "anonymous": false,
      "inputs": [
        {
          "indexed": true,
          "internalType": "address",
          "name": "operator",
          "type": "address"
        },
        {
          "indexed": true,
          "internalType": "address",
          "name": "from",
          "type": "address"
        },
        {
          "indexed": true,
          "internalType": "address",
          "name": "to",
          "type": "address"
        },
        {
          "indexed": false,
          "internalType": "uint256",
          "name": "id",
          "type": "uint256"
        },
        {
          "indexed": false,
          "internalType": "uint256",
          "name": "value",
          "type": "uint256"
        }
      ],
      "name": "TransferSingle",
      "type": "event"
    },
    {
      "anonymous": false,
      "inputs": [
        {
          "indexed": false,
          "internalType": "string",
          "name": "value",
          "type": "string"
        },
        {
          "indexed": true,
          "internalType": "uint256",
          "name": "id",
          "type": "uint256"
        }
      ],
      "name": "URI",
      "type": "event"
    },
    {
      "inputs": [
        {
          "internalType": "address",
          "name": "",
          "type": "address"
        },
        {
          "internalType": "address",
          "name": "",
          "type": "address"
        }
      ],
      "name": "approvals",
      "outputs": [
        {
          "internalType": "bool",
          "name": "",
          "type": "bool"
        }
      ],
      "stateMutability": "view",
      "type": "function"
    },
    {
      "inputs": [
        {
          "internalType": "address",
          "name": "account",
          "type": "address"
        },
        {
          "internalType": "uint256",
          "name": "id",
          "type": "uint256"
        }
      ],
      "name": "balanceOf",
      "outputs": [
        {
          "internalType": "uint256",
          "name": "",
          "type": "uint256"
        }
      ],
      "stateMutability": "view",
      "type": "function"
    },
    {
      "inputs": [
        {
          "internalType": "address[]",
          "name": "accounts",
          "type": "address[]"
        },
        {
          "internalType": "uint256[]",
          "name": "ids",
          "type": "uint256[]"
        }
      ],
      "name": "balanceOfBatch",
      "outputs": [
        {
          "internalType": "uint256[]",
          "name": "",
          "type": "uint256[]"
        }
      ],
      "stateMutability": "view",
      "type": "function"
    },
    {
      "inputs": [
        {
          "internalType": "uint256",
          "name": "_tokenId",
          "type": "uint256"
        },
        {
          "internalType": "address payable",
          "name": "_newCreatorAddress",
          "type": "address"
        }
      ],
      "name": "changeAddress",
      "outputs": [],
      "stateMutability": "nonpayable",
      "type": "function"
    },
    {
      "inputs": [
        {
          "internalType": "uint256",
          "name": "_tokenId",
          "type": "uint256"
        },
        {
          "internalType": "string",
          "name": "_newDescription",
          "type": "string"
        }
      ],
      "name": "changeDescription",
      "outputs": [],
      "stateMutability": "nonpayable",
      "type": "function"
    },
    {
      "inputs": [
        {
          "internalType": "uint256",
          "name": "_tokenId",
          "type": "uint256"
        },
        {
          "internalType": "string",
          "name": "_newName",
          "type": "string"
        }
      ],
      "name": "changeName",
      "outputs": [],
      "stateMutability": "nonpayable",
      "type": "function"
    },
    {
      "inputs": [
        {
          "internalType": "uint256",
          "name": "_newPlatformFee",
          "type": "uint256"
        }
      ],
      "name": "changePlatformFee",
      "outputs": [],
      "stateMutability": "nonpayable",
      "type": "function"
    },
    {
      "inputs": [
        {
          "internalType": "uint256",
          "name": "_newProfitMargin",
          "type": "uint256"
        }
      ],
      "name": "changeProfitMargin",
      "outputs": [],
      "stateMutability": "nonpayable",
      "type": "function"
    },
    {
      "inputs": [
        {
          "internalType": "uint256",
          "name": "_tokenId",
          "type": "uint256"
        },
        {
          "internalType": "string",
          "name": "_newSymbol",
          "type": "string"
        }
      ],
      "name": "changeSymbol",
      "outputs": [],
      "stateMutability": "nonpayable",
      "type": "function"
    },
    {
      "inputs": [
        {
          "internalType": "uint256",
          "name": "_tokenId",
          "type": "uint256"
        },
        {
          "internalType": "bool",
          "name": "_verified",
          "type": "bool"
        }
      ],
      "name": "changeVerification",
      "outputs": [],
      "stateMutability": "nonpayable",
      "type": "function"
    },
    {
      "inputs": [
        {
          "internalType": "address payable",
          "name": "_creatorAddress",
          "type": "address"
        },
        {
          "internalType": "string",
          "name": "_name",
          "type": "string"
        },
        {
          "internalType": "string",
          "name": "_symbol",
          "type": "string"
        },
        {
          "internalType": "string",
          "name": "_description",
          "type": "string"
        }
      ],
      "name": "createCreatorToken",
      "outputs": [],
      "stateMutability": "nonpayable",
      "type": "function"
    },
    {
      "inputs": [
        {
          "internalType": "uint256",
          "name": "",
          "type": "uint256"
        }
      ],
      "name": "creatorTokens",
      "outputs": [
        {
          "internalType": "address payable",
          "name": "creatorAddress",
          "type": "address"
        },
        {
          "internalType": "string",
          "name": "name",
          "type": "string"
        },
        {
          "internalType": "string",
          "name": "symbol",
          "type": "string"
        },
        {
          "internalType": "string",
          "name": "description",
          "type": "string"
        },
        {
          "internalType": "bool",
          "name": "verified",
          "type": "bool"
        },
        {
          "internalType": "uint256",
          "name": "outstanding",
          "type": "uint256"
        },
        {
          "internalType": "uint256",
          "name": "maxSupply",
          "type": "uint256"
        }
      ],
      "stateMutability": "view",
      "type": "function"
    },
    {
      "inputs": [],
      "name": "getCreatorTokenCount",
      "outputs": [
        {
          "internalType": "uint256",
          "name": "",
          "type": "uint256"
        }
      ],
      "stateMutability": "view",
      "type": "function"
    },
    {
      "inputs": [
        {
          "internalType": "uint256",
          "name": "_id",
          "type": "uint256"
        }
      ],
      "name": "getToken",
      "outputs": [
        {
          "components": [
            {
              "internalType": "address payable",
              "name": "creatorAddress",
              "type": "address"
            },
            {
              "internalType": "string",
              "name": "name",
              "type": "string"
            },
            {
              "internalType": "string",
              "name": "symbol",
              "type": "string"
            },
            {
              "internalType": "string",
              "name": "description",
              "type": "string"
            },
            {
              "internalType": "bool",
              "name": "verified",
              "type": "bool"
            },
            {
              "internalType": "uint256",
              "name": "outstanding",
              "type": "uint256"
            },
            {
              "internalType": "uint256",
              "name": "maxSupply",
              "type": "uint256"
            }
          ],
          "internalType": "struct CreatorTokenFactory.CreatorToken",
          "name": "",
          "type": "tuple"
        }
      ],
      "stateMutability": "view",
      "type": "function"
    },
    {
      "inputs": [],
      "name": "owner",
      "outputs": [
        {
          "internalType": "address",
          "name": "",
          "type": "address"
        }
      ],
      "stateMutability": "view",
      "type": "function"
    },
    {
      "inputs": [
        {
          "internalType": "address payable",
          "name": "_owner",
          "type": "address"
        }
      ],
      "name": "payoutPlatformFees",
      "outputs": [],
      "stateMutability": "nonpayable",
      "type": "function"
    },
    {
      "inputs": [],
      "name": "platformFeesOwed",
      "outputs": [
        {
          "internalType": "uint256",
          "name": "",
          "type": "uint256"
        }
      ],
      "stateMutability": "view",
      "type": "function"
    },
    {
      "inputs": [],
      "name": "renounceOwnership",
      "outputs": [],
      "stateMutability": "nonpayable",
      "type": "function"
    },
    {
      "inputs": [
        {
          "internalType": "bytes4",
          "name": "interfaceId",
          "type": "bytes4"
        }
      ],
      "name": "supportsInterface",
      "outputs": [
        {
          "internalType": "bool",
          "name": "",
          "type": "bool"
        }
      ],
      "stateMutability": "view",
      "type": "function"
    },
    {
      "inputs": [
        {
          "internalType": "uint256",
          "name": "",
          "type": "uint256"
        },
        {
          "internalType": "address",
          "name": "",
          "type": "address"
        }
      ],
      "name": "tokenHoldership",
      "outputs": [
        {
          "internalType": "uint256",
          "name": "",
          "type": "uint256"
        }
      ],
      "stateMutability": "view",
      "type": "function"
    },
    {
      "inputs": [
        {
          "internalType": "uint256",
          "name": "",
          "type": "uint256"
        }
      ],
      "name": "tokenToCreator",
      "outputs": [
        {
          "internalType": "address",
          "name": "",
          "type": "address"
        }
      ],
      "stateMutability": "view",
      "type": "function"
    },
    {
      "inputs": [
        {
          "internalType": "uint256",
          "name": "",
          "type": "uint256"
        }
      ],
      "name": "tokenValueTransferred",
      "outputs": [
        {
          "internalType": "uint256",
          "name": "",
          "type": "uint256"
        }
      ],
      "stateMutability": "view",
      "type": "function"
    },
    {
      "inputs": [],
      "name": "totalPlatformFees",
      "outputs": [
        {
          "internalType": "uint256",
          "name": "",
          "type": "uint256"
        }
      ],
      "stateMutability": "view",
      "type": "function"
    },
    {
      "inputs": [
        {
          "internalType": "uint256",
          "name": "",
          "type": "uint256"
        }
      ],
      "name": "totalValueLocked",
      "outputs": [
        {
          "internalType": "uint256",
          "name": "",
          "type": "uint256"
        }
      ],
      "stateMutability": "view",
      "type": "function"
    },
    {
      "inputs": [
        {
          "internalType": "address",
          "name": "newOwner",
          "type": "address"
        }
      ],
      "name": "transferOwnership",
      "outputs": [],
      "stateMutability": "nonpayable",
      "type": "function"
    },
    {
      "inputs": [
        {
          "internalType": "uint256",
          "name": "",
          "type": "uint256"
        }
      ],
      "name": "uri",
      "outputs": [
        {
          "internalType": "string",
          "name": "",
          "type": "string"
        }
      ],
      "stateMutability": "view",
      "type": "function"
    },
    {
      "inputs": [
        {
          "internalType": "address",
          "name": "",
          "type": "address"
        },
        {
          "internalType": "uint256",
          "name": "",
          "type": "uint256"
        }
      ],
      "name": "userToHoldings",
      "outputs": [
        {
          "internalType": "uint256",
          "name": "",
          "type": "uint256"
        }
      ],
      "stateMutability": "view",
      "type": "function"
    },
    {
      "inputs": [
        {
          "internalType": "address payable",
          "name": "_owner",
          "type": "address"
        }
      ],
      "name": "withdraw",
      "outputs": [],
      "stateMutability": "nonpayable",
      "type": "function"
    },
    {
      "inputs": [
        {
          "internalType": "address",
          "name": "_from",
          "type": "address"
        },
        {
          "internalType": "address",
          "name": "_to",
          "type": "address"
        },
        {
          "internalType": "uint256",
          "name": "_id",
          "type": "uint256"
        },
        {
          "internalType": "uint256",
          "name": "_amount",
          "type": "uint256"
        },
        {
          "internalType": "bytes",
          "name": "_data",
          "type": "bytes"
        }
      ],
      "name": "safeTransferFrom",
      "outputs": [],
      "stateMutability": "nonpayable",
      "type": "function"
    },
    {
      "inputs": [
        {
          "internalType": "address",
          "name": "_from",
          "type": "address"
        },
        {
          "internalType": "address",
          "name": "_to",
          "type": "address"
        },
        {
          "internalType": "uint256[]",
          "name": "_ids",
          "type": "uint256[]"
        },
        {
          "internalType": "uint256[]",
          "name": "_amounts",
          "type": "uint256[]"
        },
        {
          "internalType": "bytes",
          "name": "_data",
          "type": "bytes"
        }
      ],
      "name": "safeBatchTransferFrom",
      "outputs": [],
      "stateMutability": "nonpayable",
      "type": "function"
    },
    {
      "inputs": [
        {
          "internalType": "address",
          "name": "_operator",
          "type": "address"
        },
        {
          "internalType": "bool",
          "name": "_approved",
          "type": "bool"
        }
      ],
      "name": "setApprovalForAll",
      "outputs": [],
      "stateMutability": "nonpayable",
      "type": "function"
    },
    {
      "inputs": [
        {
          "internalType": "address",
          "name": "_account",
          "type": "address"
        },
        {
          "internalType": "address",
          "name": "_operator",
          "type": "address"
        }
      ],
      "name": "isApprovedForAll",
      "outputs": [
        {
          "internalType": "bool",
          "name": "",
          "type": "bool"
        }
      ],
      "stateMutability": "view",
      "type": "function"
    }
  ],
  "bytecode": "0x60806040526001805560006002556000600355601460045565082f79cd900060055560b96006553480156200003357600080fd5b50604051620039bd380380620039bd833981810160405281019062000059919062000275565b8060006200006c6200012360201b60201c565b9050806000806101000a81548173ffffffffffffffffffffffffffffffffffffffff021916908373ffffffffffffffffffffffffffffffffffffffff1602179055508073ffffffffffffffffffffffffffffffffffffffff16600073ffffffffffffffffffffffffffffffffffffffff167f8be0079c531659141344cd1fd0a4f28419497f9722a3daafe3b4186f6b6457e060405160405180910390a3506200011b816200012b60201b60201c565b50506200044a565b600033905090565b80601090805190602001906200014392919062000147565b5050565b82805462000155906200035b565b90600052602060002090601f016020900481019282620001795760008555620001c5565b82601f106200019457805160ff1916838001178555620001c5565b82800160010185558215620001c5579182015b82811115620001c4578251825591602001919060010190620001a7565b5b509050620001d49190620001d8565b5090565b5b80821115620001f3576000816000905550600101620001d9565b5090565b60006200020e6200020884620002ef565b620002c6565b9050828152602081018484840111156200022d576200022c6200042a565b5b6200023a84828562000325565b509392505050565b600082601f8301126200025a576200025962000425565b5b81516200026c848260208601620001f7565b91505092915050565b6000602082840312156200028e576200028d62000434565b5b600082015167ffffffffffffffff811115620002af57620002ae6200042f565b5b620002bd8482850162000242565b91505092915050565b6000620002d2620002e5565b9050620002e0828262000391565b919050565b6000604051905090565b600067ffffffffffffffff8211156200030d576200030c620003f6565b5b620003188262000439565b9050602081019050919050565b60005b838110156200034557808201518184015260208101905062000328565b8381111562000355576000848401525b50505050565b600060028204905060018216806200037457607f821691505b602082108114156200038b576200038a620003c7565b5b50919050565b6200039c8262000439565b810181811067ffffffffffffffff82111715620003be57620003bd620003f6565b5b80604052505050565b7f4e487b7100000000000000000000000000000000000000000000000000000000600052602260045260246000fd5b7f4e487b7100000000000000000000000000000000000000000000000000000000600052604160045260246000fd5b600080fd5b600080fd5b600080fd5b600080fd5b6000601f19601f8301169050919050565b613563806200045a6000396000f3fe608060405234801561001057600080fd5b50600436106101ef5760003560e01c8063bfb48c9c1161010f578063d9bd3a40116100a2578063eb84175911610071578063eb84175914610604578063f242432a14610620578063f2fde38b1461063c578063f7374e2e14610658576101ef565b8063d9bd3a4014610558578063de6a06ed14610588578063e4b50cb8146105a4578063e985e9c5146105d4576101ef565b8063ce901d8a116100de578063ce901d8a146104cc578063d3631fa514610502578063d56b72c714610520578063d7a5791a1461053c576101ef565b8063bfb48c9c14610446578063c1d3304914610476578063c39cbef114610494578063c539c317146104b0576101ef565b80632eb2c2d6116101875780638da5cb5b116101565780638da5cb5b146103ac57806392724afa146103ca578063a22cb465146103fa578063a32ce11e14610416576101ef565b80632eb2c2d61461033a5780634e1273f41461035657806351cff8d914610386578063715018a6146103a2576101ef565b806317bcaa08116101c357806317bcaa08146102a057806318892ae8146102d05780631d5ad18b146103005780632a2b237c1461031c576101ef565b8062fdd58e146101f457806301ffc9a71461022457806306e320f5146102545780630e89341c14610270575b600080fd5b61020e600480360381019061020991906127ee565b610674565b60405161021b9190612e8d565b60405180910390f35b61023e600480360381019061023991906128a6565b61073e565b60405161024b9190612dae565b60405180910390f35b61026e600480360381019061026991906129c0565b610820565b005b61028a600480360381019061028591906128d3565b6108c7565b6040516102979190612dc9565b60405180910390f35b6102ba60048036038101906102b591906128d3565b61095b565b6040516102c79190612e8d565b60405180910390f35b6102ea60048036038101906102e591906128d3565b610973565b6040516102f79190612cb6565b60405180910390f35b61031a60048036038101906103159190612940565b6109a6565b005b610324610a7b565b6040516103319190612e8d565b60405180910390f35b610354600480360381019061034f9190612648565b610a88565b005b610370600480360381019061036b919061282e565b610bf4565b60405161037d9190612d55565b60405180910390f35b6103a0600480360381019061039b9190612520565b610d0d565b005b6103aa610dd3565b005b6103b4610f0d565b6040516103c19190612cb6565b60405180910390f35b6103e460048036038101906103df91906127ee565b610f36565b6040516103f19190612e8d565b60405180910390f35b610414600480360381019061040f91906127ae565b610f5b565b005b610430600480360381019061042b9190612608565b611058565b60405161043d9190612dae565b60405180910390f35b610460600480360381019061045b9190612900565b611087565b60405161046d9190612e8d565b60405180910390f35b61047e6110ac565b60405161048b9190612e8d565b60405180910390f35b6104ae60048036038101906104a991906129c0565b6110b2565b005b6104ca60048036038101906104c591906128d3565b611159565b005b6104e660048036038101906104e191906128d3565b6111df565b6040516104f99796959493929190612cd1565b60405180910390f35b61050a6113f6565b6040516105179190612e8d565b60405180910390f35b61053a6004803603810190610535919061254d565b6113fc565b005b610556600480360381019061055191906128d3565b611618565b005b610572600480360381019061056d91906128d3565b61169e565b60405161057f9190612e8d565b60405180910390f35b6105a2600480360381019061059d91906129c0565b6116b6565b005b6105be60048036038101906105b991906128d3565b61175d565b6040516105cb9190612e6b565b60405180910390f35b6105ee60048036038101906105e99190612608565b6119d4565b6040516105fb9190612dae565b60405180910390f35b61061e60048036038101906106199190612520565b611a68565b005b61063a60048036038101906106359190612717565b611b38565b005b610656600480360381019061065191906124f3565b611c1c565b005b610672600480360381019061066d9190612980565b611dc5565b005b60008073ffffffffffffffffffffffffffffffffffffffff168373ffffffffffffffffffffffffffffffffffffffff1614156106e5576040517f08c379a00000000000000000000000000000000000000000000000000000000081526004016106dc90612deb565b60405180910390fd5b600e600083815260200190815260200160002060008473ffffffffffffffffffffffffffffffffffffffff1673ffffffffffffffffffffffffffffffffffffffff16815260200190815260200160002054905092915050565b60007fd9b67a26000000000000000000000000000000000000000000000000000000007bffffffffffffffffffffffffffffffffffffffffffffffffffffffff1916827bffffffffffffffffffffffffffffffffffffffffffffffffffffffff1916148061080957507f0e89341c000000000000000000000000000000000000000000000000000000007bffffffffffffffffffffffffffffffffffffffffffffffffffffffff1916827bffffffffffffffffffffffffffffffffffffffffffffffffffffffff1916145b80610819575061081882611e82565b5b9050919050565b826008600082815260200190815260200160002060009054906101000a900473ffffffffffffffffffffffffffffffffffffffff1673ffffffffffffffffffffffffffffffffffffffff163373ffffffffffffffffffffffffffffffffffffffff161461088c57600080fd5b8282600786815481106108a2576108a1613317565b5b906000526020600020906007020160020191906108c092919061209a565b5050505050565b6060601080546108d69061320d565b80601f01602080910402602001604051908101604052809291908181526020018280546109029061320d565b801561094f5780601f106109245761010080835404028352916020019161094f565b820191906000526020600020905b81548152906001019060200180831161093257829003601f168201915b50505050509050919050565b60096020528060005260406000206000915090505481565b60086020528060005260406000206000915054906101000a900473ffffffffffffffffffffffffffffffffffffffff1681565b816008600082815260200190815260200160002060009054906101000a900473ffffffffffffffffffffffffffffffffffffffff1673ffffffffffffffffffffffffffffffffffffffff163373ffffffffffffffffffffffffffffffffffffffff1614610a1257600080fd5b8160078481548110610a2757610a26613317565b5b906000526020600020906007020160000160006101000a81548173ffffffffffffffffffffffffffffffffffffffff021916908373ffffffffffffffffffffffffffffffffffffffff160217905550505050565b6000600780549050905090565b60005b8351811015610b6e578573ffffffffffffffffffffffffffffffffffffffff163373ffffffffffffffffffffffffffffffffffffffff161480610ad45750610ad386866119d4565b5b610add57600080fd5b610b1c86858381518110610af457610af3613317565b5b6020026020010151858481518110610b0f57610b0e613317565b5b6020026020010151611eec565b610b5b85858381518110610b3357610b32613317565b5b6020026020010151858481518110610b4e57610b4d613317565b5b6020026020010151611fbf565b8080610b6690613270565b915050610a8b565b508373ffffffffffffffffffffffffffffffffffffffff168573ffffffffffffffffffffffffffffffffffffffff163373ffffffffffffffffffffffffffffffffffffffff167f4a39dc06d4c0dbc64b70af90fd698a233a518aa5d07e595d983b8c0526c8f7fb8686604051610be5929190612d77565b60405180910390a45050505050565b60608151835114610c3a576040517f08c379a0000000000000000000000000000000000000000000000000000000008152600401610c3190612e4b565b60405180910390fd5b6000835167ffffffffffffffff811115610c5757610c56613346565b5b604051908082528060200260200182016040528015610c855781602001602082028036833780820191505090505b50905060005b8451811015610d0257610cd2858281518110610caa57610ca9613317565b5b6020026020010151858381518110610cc557610cc4613317565b5b6020026020010151610674565b828281518110610ce557610ce4613317565b5b60200260200101818152505080610cfb90613270565b9050610c8b565b508091505092915050565b610d15612092565b73ffffffffffffffffffffffffffffffffffffffff16610d33610f0d565b73ffffffffffffffffffffffffffffffffffffffff1614610d89576040517f08c379a0000000000000000000000000000000000000000000000000000000008152600401610d8090612e2b565b60405180910390fd5b8073ffffffffffffffffffffffffffffffffffffffff166108fc479081150290604051600060405180830381858888f19350505050158015610dcf573d6000803e3d6000fd5b5050565b610ddb612092565b73ffffffffffffffffffffffffffffffffffffffff16610df9610f0d565b73ffffffffffffffffffffffffffffffffffffffff1614610e4f576040517f08c379a0000000000000000000000000000000000000000000000000000000008152600401610e4690612e2b565b60405180910390fd5b600073ffffffffffffffffffffffffffffffffffffffff1660008054906101000a900473ffffffffffffffffffffffffffffffffffffffff1673ffffffffffffffffffffffffffffffffffffffff167f8be0079c531659141344cd1fd0a4f28419497f9722a3daafe3b4186f6b6457e060405160405180910390a360008060006101000a81548173ffffffffffffffffffffffffffffffffffffffff021916908373ffffffffffffffffffffffffffffffffffffffff160217905550565b60008060009054906101000a900473ffffffffffffffffffffffffffffffffffffffff16905090565b600b602052816000526040600020602052806000526040600020600091509150505481565b80600c60003373ffffffffffffffffffffffffffffffffffffffff1673ffffffffffffffffffffffffffffffffffffffff16815260200190815260200160002060008473ffffffffffffffffffffffffffffffffffffffff1673ffffffffffffffffffffffffffffffffffffffff16815260200190815260200160002060006101000a81548160ff0219169083151502179055508173ffffffffffffffffffffffffffffffffffffffff163373ffffffffffffffffffffffffffffffffffffffff167f17307eab39ab6107e8899845ad3d59bd9653f200f220920489ca2b5937696c318360405161104c9190612dae565b60405180910390a35050565b600c6020528160005260406000206020528060005260406000206000915091509054906101000a900460ff1681565b600a602052816000526040600020602052806000526040600020600091509150505481565b60035481565b826008600082815260200190815260200160002060009054906101000a900473ffffffffffffffffffffffffffffffffffffffff1673ffffffffffffffffffffffffffffffffffffffff163373ffffffffffffffffffffffffffffffffffffffff161461111e57600080fd5b82826007868154811061113457611133613317565b5b9060005260206000209060070201600101919061115292919061209a565b5050505050565b611161612092565b73ffffffffffffffffffffffffffffffffffffffff1661117f610f0d565b73ffffffffffffffffffffffffffffffffffffffff16146111d5576040517f08c379a00000000000000000000000000000000000000000000000000000000081526004016111cc90612e2b565b60405180910390fd5b8060048190555050565b600781815481106111ef57600080fd5b90600052602060002090600702016000915090508060000160009054906101000a900473ffffffffffffffffffffffffffffffffffffffff16908060010180546112389061320d565b80601f01602080910402602001604051908101604052809291908181526020018280546112649061320d565b80156112b15780601f10611286576101008083540402835291602001916112b1565b820191906000526020600020905b81548152906001019060200180831161129457829003601f168201915b5050505050908060020180546112c69061320d565b80601f01602080910402602001604051908101604052809291908181526020018280546112f29061320d565b801561133f5780601f106113145761010080835404028352916020019161133f565b820191906000526020600020905b81548152906001019060200180831161132257829003601f168201915b5050505050908060030180546113549061320d565b80601f01602080910402602001604051908101604052809291908181526020018280546113809061320d565b80156113cd5780601f106113a2576101008083540402835291602001916113cd565b820191906000526020600020905b8154815290600101906020018083116113b057829003601f168201915b5050505050908060040160009054906101000a900460ff16908060050154908060060154905087565b60025481565b60076040518060e001604052808673ffffffffffffffffffffffffffffffffffffffff168152602001858152602001848152602001838152602001600015158152602001600081526020016000815250908060018154018082558091505060019003906000526020600020906007020160009091909190915060008201518160000160006101000a81548173ffffffffffffffffffffffffffffffffffffffff021916908373ffffffffffffffffffffffffffffffffffffffff16021790555060208201518160010190805190602001906114d8929190612120565b5060408201518160020190805190602001906114f5929190612120565b506060820151816003019080519060200190611512929190612120565b5060808201518160040160006101000a81548160ff02191690831515021790555060a0820151816005015560c0820151816006015550506000600160078054905061155d91906130ff565b9050846008600083815260200190815260200160002060006101000a81548173ffffffffffffffffffffffffffffffffffffffff021916908373ffffffffffffffffffffffffffffffffffffffff160217905550600060096000838152602001908152602001600020819055507f3ef624c0f3fb7ad40b94c02078ea3e3a797dbfc21e921ee4bd2b8ad0ca6aa11381868686866000806000604051611609989796959493929190612ea8565b60405180910390a15050505050565b611620612092565b73ffffffffffffffffffffffffffffffffffffffff1661163e610f0d565b73ffffffffffffffffffffffffffffffffffffffff1614611694576040517f08c379a000000000000000000000000000000000000000000000000000000000815260040161168b90612e2b565b60405180910390fd5b8060018190555050565b600d6020528060005260406000206000915090505481565b826008600082815260200190815260200160002060009054906101000a900473ffffffffffffffffffffffffffffffffffffffff1673ffffffffffffffffffffffffffffffffffffffff163373ffffffffffffffffffffffffffffffffffffffff161461172257600080fd5b82826007868154811061173857611737613317565b5b9060005260206000209060070201600301919061175692919061209a565b5050505050565b6117656121a6565b6007828154811061177957611778613317565b5b90600052602060002090600702016040518060e00160405290816000820160009054906101000a900473ffffffffffffffffffffffffffffffffffffffff1673ffffffffffffffffffffffffffffffffffffffff1673ffffffffffffffffffffffffffffffffffffffff1681526020016001820180546117f89061320d565b80601f01602080910402602001604051908101604052809291908181526020018280546118249061320d565b80156118715780601f1061184657610100808354040283529160200191611871565b820191906000526020600020905b81548152906001019060200180831161185457829003601f168201915b5050505050815260200160028201805461188a9061320d565b80601f01602080910402602001604051908101604052809291908181526020018280546118b69061320d565b80156119035780601f106118d857610100808354040283529160200191611903565b820191906000526020600020905b8154815290600101906020018083116118e657829003601f168201915b5050505050815260200160038201805461191c9061320d565b80601f01602080910402602001604051908101604052809291908181526020018280546119489061320d565b80156119955780601f1061196a57610100808354040283529160200191611995565b820191906000526020600020905b81548152906001019060200180831161197857829003601f168201915b505050505081526020016004820160009054906101000a900460ff16151515158152602001600582015481526020016006820154815250509050919050565b6000600c60008473ffffffffffffffffffffffffffffffffffffffff1673ffffffffffffffffffffffffffffffffffffffff16815260200190815260200160002060008373ffffffffffffffffffffffffffffffffffffffff1673ffffffffffffffffffffffffffffffffffffffff16815260200190815260200160002060009054906101000a900460ff16905092915050565b611a70612092565b73ffffffffffffffffffffffffffffffffffffffff16611a8e610f0d565b73ffffffffffffffffffffffffffffffffffffffff1614611ae4576040517f08c379a0000000000000000000000000000000000000000000000000000000008152600401611adb90612e2b565b60405180910390fd5b8073ffffffffffffffffffffffffffffffffffffffff166108fc6003549081150290604051600060405180830381858888f19350505050158015611b2c573d6000803e3d6000fd5b50600060038190555050565b8473ffffffffffffffffffffffffffffffffffffffff163373ffffffffffffffffffffffffffffffffffffffff161480611b785750611b7785856119d4565b5b611b8157600080fd5b611b8c858484611eec565b611b97848484611fbf565b8373ffffffffffffffffffffffffffffffffffffffff168573ffffffffffffffffffffffffffffffffffffffff163373ffffffffffffffffffffffffffffffffffffffff167fc3d58168c5ae7397731d063d5bbf3d657854427343f4c083240f7aacaa2d0f628686604051611c0d929190612f3b565b60405180910390a45050505050565b611c24612092565b73ffffffffffffffffffffffffffffffffffffffff16611c42610f0d565b73ffffffffffffffffffffffffffffffffffffffff1614611c98576040517f08c379a0000000000000000000000000000000000000000000000000000000008152600401611c8f90612e2b565b60405180910390fd5b600073ffffffffffffffffffffffffffffffffffffffff168173ffffffffffffffffffffffffffffffffffffffff161415611d08576040517f08c379a0000000000000000000000000000000000000000000000000000000008152600401611cff90612e0b565b60405180910390fd5b8073ffffffffffffffffffffffffffffffffffffffff1660008054906101000a900473ffffffffffffffffffffffffffffffffffffffff1673ffffffffffffffffffffffffffffffffffffffff167f8be0079c531659141344cd1fd0a4f28419497f9722a3daafe3b4186f6b6457e060405160405180910390a3806000806101000a81548173ffffffffffffffffffffffffffffffffffffffff021916908373ffffffffffffffffffffffffffffffffffffffff16021790555050565b611dcd612092565b73ffffffffffffffffffffffffffffffffffffffff16611deb610f0d565b73ffffffffffffffffffffffffffffffffffffffff1614611e41576040517f08c379a0000000000000000000000000000000000000000000000000000000008152600401611e3890612e2b565b60405180910390fd5b8060078381548110611e5657611e55613317565b5b906000526020600020906007020160040160006101000a81548160ff0219169083151502179055505050565b60007f01ffc9a7000000000000000000000000000000000000000000000000000000007bffffffffffffffffffffffffffffffffffffffffffffffffffffffff1916827bffffffffffffffffffffffffffffffffffffffffffffffffffffffff1916149050919050565b80600a600084815260200190815260200160002060008573ffffffffffffffffffffffffffffffffffffffff1673ffffffffffffffffffffffffffffffffffffffff1681526020019081526020016000206000828254611f4c91906130ff565b9250508190555080600b60008573ffffffffffffffffffffffffffffffffffffffff1673ffffffffffffffffffffffffffffffffffffffff16815260200190815260200160002060008481526020019081526020016000206000828254611fb391906130ff565b92505081905550505050565b80600a600084815260200190815260200160002060008573ffffffffffffffffffffffffffffffffffffffff1673ffffffffffffffffffffffffffffffffffffffff168152602001908152602001600020600082825461201f91906130a9565b9250508190555080600b60008573ffffffffffffffffffffffffffffffffffffffff1673ffffffffffffffffffffffffffffffffffffffff1681526020019081526020016000206000848152602001908152602001600020600082825461208691906130a9565b92505081905550505050565b600033905090565b8280546120a69061320d565b90600052602060002090601f0160209004810192826120c8576000855561210f565b82601f106120e157803560ff191683800117855561210f565b8280016001018555821561210f579182015b8281111561210e5782358255916020019190600101906120f3565b5b50905061211c91906121fb565b5090565b82805461212c9061320d565b90600052602060002090601f01602090048101928261214e5760008555612195565b82601f1061216757805160ff1916838001178555612195565b82800160010185558215612195579182015b82811115612194578251825591602001919060010190612179565b5b5090506121a291906121fb565b5090565b6040518060e00160405280600073ffffffffffffffffffffffffffffffffffffffff16815260200160608152602001606081526020016060815260200160001515815260200160008152602001600081525090565b5b808211156122145760008160009055506001016121fc565b5090565b600061222b61222684612f89565b612f64565b9050808382526020820190508285602086028201111561224e5761224d61337f565b5b60005b8581101561227e5781612264888261237c565b845260208401935060208301925050600181019050612251565b5050509392505050565b600061229b61229684612fb5565b612f64565b905080838252602082019050828560208602820111156122be576122bd61337f565b5b60005b858110156122ee57816122d488826124de565b8452602084019350602083019250506001810190506122c1565b5050509392505050565b600061230b61230684612fe1565b612f64565b90508281526020810184848401111561232757612326613384565b5b6123328482856131cb565b509392505050565b600061234d61234884613012565b612f64565b90508281526020810184848401111561236957612368613384565b5b6123748482856131cb565b509392505050565b60008135905061238b816134ba565b92915050565b6000813590506123a0816134d1565b92915050565b600082601f8301126123bb576123ba61337a565b5b81356123cb848260208601612218565b91505092915050565b600082601f8301126123e9576123e861337a565b5b81356123f9848260208601612288565b91505092915050565b600081359050612411816134e8565b92915050565b600081359050612426816134ff565b92915050565b600082601f8301126124415761244061337a565b5b81356124518482602086016122f8565b91505092915050565b60008083601f8401126124705761246f61337a565b5b8235905067ffffffffffffffff81111561248d5761248c613375565b5b6020830191508360018202830111156124a9576124a861337f565b5b9250929050565b600082601f8301126124c5576124c461337a565b5b81356124d584826020860161233a565b91505092915050565b6000813590506124ed81613516565b92915050565b6000602082840312156125095761250861338e565b5b60006125178482850161237c565b91505092915050565b6000602082840312156125365761253561338e565b5b600061254484828501612391565b91505092915050565b600080600080608085870312156125675761256661338e565b5b600061257587828801612391565b945050602085013567ffffffffffffffff81111561259657612595613389565b5b6125a2878288016124b0565b935050604085013567ffffffffffffffff8111156125c3576125c2613389565b5b6125cf878288016124b0565b925050606085013567ffffffffffffffff8111156125f0576125ef613389565b5b6125fc878288016124b0565b91505092959194509250565b6000806040838503121561261f5761261e61338e565b5b600061262d8582860161237c565b925050602061263e8582860161237c565b9150509250929050565b600080600080600060a086880312156126645761266361338e565b5b60006126728882890161237c565b95505060206126838882890161237c565b945050604086013567ffffffffffffffff8111156126a4576126a3613389565b5b6126b0888289016123d4565b935050606086013567ffffffffffffffff8111156126d1576126d0613389565b5b6126dd888289016123d4565b925050608086013567ffffffffffffffff8111156126fe576126fd613389565b5b61270a8882890161242c565b9150509295509295909350565b600080600080600060a086880312156127335761273261338e565b5b60006127418882890161237c565b95505060206127528882890161237c565b9450506040612763888289016124de565b9350506060612774888289016124de565b925050608086013567ffffffffffffffff81111561279557612794613389565b5b6127a18882890161242c565b9150509295509295909350565b600080604083850312156127c5576127c461338e565b5b60006127d38582860161237c565b92505060206127e485828601612402565b9150509250929050565b600080604083850312156128055761280461338e565b5b60006128138582860161237c565b9250506020612824858286016124de565b9150509250929050565b600080604083850312156128455761284461338e565b5b600083013567ffffffffffffffff81111561286357612862613389565b5b61286f858286016123a6565b925050602083013567ffffffffffffffff8111156128905761288f613389565b5b61289c858286016123d4565b9150509250929050565b6000602082840312156128bc576128bb61338e565b5b60006128ca84828501612417565b91505092915050565b6000602082840312156128e9576128e861338e565b5b60006128f7848285016124de565b91505092915050565b600080604083850312156129175761291661338e565b5b6000612925858286016124de565b92505060206129368582860161237c565b9150509250929050565b600080604083850312156129575761295661338e565b5b6000612965858286016124de565b925050602061297685828601612391565b9150509250929050565b600080604083850312156129975761299661338e565b5b60006129a5858286016124de565b92505060206129b685828601612402565b9150509250929050565b6000806000604084860312156129d9576129d861338e565b5b60006129e7868287016124de565b935050602084013567ffffffffffffffff811115612a0857612a07613389565b5b612a148682870161245a565b92509250509250925092565b6000612a2c8383612c98565b60208301905092915050565b612a4181613145565b82525050565b612a5081613145565b82525050565b612a5f81613133565b82525050565b6000612a7082613053565b612a7a8185613076565b9350612a8583613043565b8060005b83811015612ab6578151612a9d8882612a20565b9750612aa883613069565b925050600181019050612a89565b5085935050505092915050565b612acc81613157565b82525050565b612adb81613157565b82525050565b612aea816131b9565b82525050565b6000612afb8261305e565b612b058185613087565b9350612b158185602086016131da565b612b1e81613393565b840191505092915050565b6000612b348261305e565b612b3e8185613098565b9350612b4e8185602086016131da565b612b5781613393565b840191505092915050565b6000612b6f602b83613098565b9150612b7a826133a4565b604082019050919050565b6000612b92602683613098565b9150612b9d826133f3565b604082019050919050565b6000612bb5602083613098565b9150612bc082613442565b602082019050919050565b6000612bd8602983613098565b9150612be38261346b565b604082019050919050565b600060e083016000830151612c066000860182612a38565b5060208301518482036020860152612c1e8282612af0565b91505060408301518482036040860152612c388282612af0565b91505060608301518482036060860152612c528282612af0565b9150506080830151612c676080860182612ac3565b5060a0830151612c7a60a0860182612c98565b5060c0830151612c8d60c0860182612c98565b508091505092915050565b612ca1816131af565b82525050565b612cb0816131af565b82525050565b6000602082019050612ccb6000830184612a56565b92915050565b600060e082019050612ce6600083018a612a47565b8181036020830152612cf88189612b29565b90508181036040830152612d0c8188612b29565b90508181036060830152612d208187612b29565b9050612d2f6080830186612ad2565b612d3c60a0830185612ca7565b612d4960c0830184612ca7565b98975050505050505050565b60006020820190508181036000830152612d6f8184612a65565b905092915050565b60006040820190508181036000830152612d918185612a65565b90508181036020830152612da58184612a65565b90509392505050565b6000602082019050612dc36000830184612ad2565b92915050565b60006020820190508181036000830152612de38184612b29565b905092915050565b60006020820190508181036000830152612e0481612b62565b9050919050565b60006020820190508181036000830152612e2481612b85565b9050919050565b60006020820190508181036000830152612e4481612ba8565b9050919050565b60006020820190508181036000830152612e6481612bcb565b9050919050565b60006020820190508181036000830152612e858184612bee565b905092915050565b6000602082019050612ea26000830184612ca7565b92915050565b600061010082019050612ebe600083018b612ca7565b612ecb602083018a612a47565b8181036040830152612edd8189612b29565b90508181036060830152612ef18188612b29565b90508181036080830152612f058187612b29565b9050612f1460a0830186612ad2565b612f2160c0830185612ae1565b612f2e60e0830184612ae1565b9998505050505050505050565b6000604082019050612f506000830185612ca7565b612f5d6020830184612ca7565b9392505050565b6000612f6e612f7f565b9050612f7a828261323f565b919050565b6000604051905090565b600067ffffffffffffffff821115612fa457612fa3613346565b5b602082029050602081019050919050565b600067ffffffffffffffff821115612fd057612fcf613346565b5b602082029050602081019050919050565b600067ffffffffffffffff821115612ffc57612ffb613346565b5b61300582613393565b9050602081019050919050565b600067ffffffffffffffff82111561302d5761302c613346565b5b61303682613393565b9050602081019050919050565b6000819050602082019050919050565b600081519050919050565b600081519050919050565b6000602082019050919050565b600082825260208201905092915050565b600082825260208201905092915050565b600082825260208201905092915050565b60006130b4826131af565b91506130bf836131af565b9250827fffffffffffffffffffffffffffffffffffffffffffffffffffffffffffffffff038211156130f4576130f36132b9565b5b828201905092915050565b600061310a826131af565b9150613115836131af565b925082821015613128576131276132b9565b5b828203905092915050565b600061313e8261318f565b9050919050565b60006131508261318f565b9050919050565b60008115159050919050565b60007fffffffff0000000000000000000000000000000000000000000000000000000082169050919050565b600073ffffffffffffffffffffffffffffffffffffffff82169050919050565b6000819050919050565b60006131c4826131af565b9050919050565b82818337600083830152505050565b60005b838110156131f85780820151818401526020810190506131dd565b83811115613207576000848401525b50505050565b6000600282049050600182168061322557607f821691505b60208210811415613239576132386132e8565b5b50919050565b61324882613393565b810181811067ffffffffffffffff8211171561326757613266613346565b5b80604052505050565b600061327b826131af565b91507fffffffffffffffffffffffffffffffffffffffffffffffffffffffffffffffff8214156132ae576132ad6132b9565b5b600182019050919050565b7f4e487b7100000000000000000000000000000000000000000000000000000000600052601160045260246000fd5b7f4e487b7100000000000000000000000000000000000000000000000000000000600052602260045260246000fd5b7f4e487b7100000000000000000000000000000000000000000000000000000000600052603260045260246000fd5b7f4e487b7100000000000000000000000000000000000000000000000000000000600052604160045260246000fd5b600080fd5b600080fd5b600080fd5b600080fd5b600080fd5b600080fd5b6000601f19601f8301169050919050565b7f455243313135353a2062616c616e636520717565727920666f7220746865207a60008201527f65726f2061646472657373000000000000000000000000000000000000000000602082015250565b7f4f776e61626c653a206e6577206f776e657220697320746865207a65726f206160008201527f6464726573730000000000000000000000000000000000000000000000000000602082015250565b7f4f776e61626c653a2063616c6c6572206973206e6f7420746865206f776e6572600082015250565b7f455243313135353a206163636f756e747320616e6420696473206c656e67746860008201527f206d69736d617463680000000000000000000000000000000000000000000000602082015250565b6134c381613133565b81146134ce57600080fd5b50565b6134da81613145565b81146134e557600080fd5b50565b6134f181613157565b81146134fc57600080fd5b50565b61350881613163565b811461351357600080fd5b50565b61351f816131af565b811461352a57600080fd5b5056fea26469706673582212204ac208bcb8c323775b5b33875310b6fa882a5296b4a569a5a4da4b2fd230751364736f6c63430008060033",
  "immutableReferences": {},
  "source": "// SPDX-License-Identifier: MIT\npragma solidity ^0.8.0;\n\nimport \"./creatortokenhelper.sol\";\nimport \"@openzeppelin/contracts/token/ERC1155/ERC1155.sol\";\n\n/// @title Contract inheriting from the ERC1155 standard\n/// @author Kamil Alizai Sadik\ncontract CreatorTokenOwnership is CreatorTokenHelper, ERC1155 {\n\n\tconstructor(string memory uri) ERC1155(uri) { }\n\n\t/// @dev Increases holdership stats of a given token\n\t/// @param _account Wallet address whose holdership is being updated\n\t/// @param _id ID of the token whose holdership is being updated\n\t/// @param _amount Amount of the change in token holdership\n\tfunction mappingIncrease(address _account, uint256 _id, uint256 _amount) internal {\n\t\ttokenHoldership[_id][_account] += _amount;\n\t\tuserToHoldings[_account][_id] += _amount;\n\t}\n\n\t/// @dev Decreases holdership stats of a given token\n\t/// @param _account Wallet address whose holdership is being updated\n\t/// @param _id ID of the token whose holdership is being updated\n\t/// @param _amount Amount of the change in token holdership\n\tfunction mappingDecrease(address _account, uint256 _id, uint256 _amount) internal {\n\t\ttokenHoldership[_id][_account] -= _amount;\n\t\tuserToHoldings[_account][_id] -= _amount;\n\t}\n\n\t/// @dev Mints a token\n\t/// @param _to Wallet address the newly minted token is assigned to\n\t/// @param _id ID of the newly minted token\n\t/// @param _amount Quantity of token to be minted\n\t/// @param _data Data\n\tfunction _mint(address _to, uint256 _id, uint256 _amount, bytes memory _data) internal override {\n\t\t//require(hasRole(MINTER_ROLE, msg.sender));\n\t\t// Update tokenHoldership mapping\n\t\tmappingIncrease(_to, _id, _amount);\n\t\t// Increase token amount outstanding\n\t\tcreatorTokens[_id].outstanding += _amount;\n\t\t// Emit single transfer event\n\t\temit TransferSingle(msg.sender, address(0), _to, _id, _amount);\n\t}\n\n\t/// @dev Mints a batch of tokens\n\t/// @param _to Wallet address the newly minted token is assigned to\n\t/// @param _ids Array of IDs of tokens to be minted\n\t/// @param _amounts Array of quantities of tokens to be minted\n\t/// @param _data Data\n\tfunction _mintBatch(address _to, uint256[] memory _ids, uint256[] memory _amounts, bytes memory _data) internal override {\n\t\t//require(hasRole(MINTER_ROLE, msg.sender));\n\t\t// Iterate through _ids\n\t\tfor (uint256 i=0; i<_ids.length; i++) {\n\t\t\t// Update tokenHoldership mapping\n\t\t\tmappingIncrease(_to, _ids[i], _amounts[i]);\n\t\t\t// Increase token amount outstanding\n\t\t\tcreatorTokens[_ids[i]].outstanding += _amounts[i];\n\t\t}\n\t\t// Emit batch transfer event\n\t\temit TransferBatch(msg.sender, address(0), _to, _ids, _amounts);\n\t}\n\n\t/// @dev Burns a token\n\t/// @param _account Account whose tokens are being burned\n\t/// @param _id ID of the token being burned\n\t/// @param _amount Quantity of the token to be burned\n\tfunction _burn(address _account, uint256 _id, uint256 _amount) internal override {\n\t\trequire(msg.sender == _account);\n\t\t// Update tokenHoldership mapping\n\t\tmappingDecrease(_account, _id, _amount);\n\t\t// Decrease token amount outstanding\n\t\tcreatorTokens[_id].outstanding -= _amount;\n\t\t// Emit single transfer event\n\t\temit TransferSingle(msg.sender, _account, address(0), _id, _amount);\n\t}\n\n\t/// @dev Burns a batch of tokens\n\t/// @param _account Account whose tokens are being burned\n\t/// @param _ids Array of IDs of the tokens being burned\n\t/// @param _amounts Array of quantities of the tokens to be burned\n\tfunction _burnBatch(address _account, uint256[] memory _ids, uint256[] memory _amounts) internal override {\n\t\trequire(msg.sender == _account);\n\t\t// Iterate through _ids\n\t\tfor (uint256 i=0; i<_ids.length; i++) {\n\t\t\t// Update tokenHoldership mapping\n\t\t\tmappingDecrease(_account, _ids[i], _amounts[i]);\n\t\t\t// Decrease token amount outstanding\n\t\t\tcreatorTokens[_ids[i]].outstanding -= _amounts[i];\n\t\t}\n\t\t// Emit batch transfer event\n\t\temit TransferBatch(msg.sender, _account, address(0), _ids, _amounts);\n\t}\n\n\t/// @dev Transfers a token\n\t/// @param _from Address token is being transferred from\n\t/// @param _to Address token is being transferred to\n\t/// @param _id ID of token being transferred\n\t/// @param _amount Quantity of token to be transferred\n\t/// @param _data Data\n\tfunction safeTransferFrom(address _from, address _to, uint256 _id, uint256 _amount, bytes memory _data) public override {\n\t\t// Require that msg.sender == _from, or that approvals[_from][_to] == true\n\t\trequire(msg.sender == _from || isApprovedForAll(_from, _to));\n\t\t// Reduce tokenHoldership holdings of _from\n\t\tmappingDecrease(_from, _id, _amount);\n\t\t// Increase tokenHoldership holdings of _to\n\t\tmappingIncrease(_to, _id, _amount);\n\t\t// Emit single transfer event\n\t\temit TransferSingle(msg.sender, _from, _to, _id, _amount);\n\t}\n\n\t/// @dev Transfers a batch of tokens\n\t/// @param _from Address token is being transferred from\n\t/// @param _to Address token is being transferred to\n\t/// @param _ids Array of IDs of tokens being transferred\n\t/// @param _amounts Array of quantities of token to be transferred\n\t/// @param _data Data\n\tfunction safeBatchTransferFrom(address _from, address _to, uint256[] memory _ids, uint256[] memory _amounts, bytes memory _data) public override {\n\t\t// Iterate through _ids\n\t\tfor (uint256 i=0; i<_ids.length; i++) {\n\t\t\t// Require that msg.sender == _from, or that approvals[_from][_to] == true\n\t\t\trequire(msg.sender == _from || isApprovedForAll(_from, _to));\n\t\t\t// Reduce tokenHoldership holdings of _from\n\t\t\tmappingDecrease(_from, _ids[i], _amounts[i]);\n\t\t\t// Increase tokenHoldership holdings of _to\n\t\t\tmappingIncrease(_to, _ids[i], _amounts[i]);\n\t\t}\n\t\t// Emit batch transfer event\n\t\temit TransferBatch(msg.sender, _from, _to, _ids, _amounts);\n\t}\n\n\t/// @dev Gives operator permission to transfer caller's tokens\n\t/// @param _operator Wallet address being granted permission\n\t/// @param _approved Boolean value indicating whether operator is approved\n\tfunction setApprovalForAll(address _operator, bool _approved) public override {\n\t\t// Update approvals mapping\n\t\tapprovals[msg.sender][_operator] = _approved;\n\t\t// Emit Approval event\n\t\temit ApprovalForAll(msg.sender, _operator, _approved);\n\t}\n\n\t/// @dev Denotes whether operator is approved to transfer account's tokens\n\t/// @param _account Wallet address holding tokens\n\t/// @param _operator Wallet address which is/isn't approved to transfer _account's tokens\n\t/// @return Boolean value indicating approval status\n\tfunction isApprovedForAll(address _account, address _operator) public view override returns (bool) {\n\t\t// Look up approvals mapping\n\t\treturn approvals[_account][_operator];\n\t}\n\n\t/// @dev Returns balance of a given token at a given address. Commented this out since this info is visible in tokenHoldership and userToHoldings mappings.\n\t/// @param _account Account in question\n\t/// @param _id ID of token whose balance we wish to find\n\t/// @return Quantity of token _id in _account\n\t//function balanceOf(address _account, uint256 _id) public view override returns (uint256) {\n\t\t// Look up _account's holdings of _id in tokenHoldership\n\t//\treturn tokenHoldership[_id][_account];\n\t//}\n\n\t/// @dev Returns balance of a batch of tokens. Commented this out since this info is visible in tokenHoldership and userToHoldings mappings.\n\t/// @param _accounts Array of accounts in question\n\t/// @param _ids Array of IDs of token whose balances we wish to find\n\t/// @return Array of quantities of tokens _ids in _accounts\n\t//function balanceOfBatch(address[] calldata _accounts, uint256[] calldata _ids) public view override returns (uint256[] memory) {\n\t//\t// Initialize output array\n\t//\tuint256[] memory batchBalances = new uint256[](_accounts.length);\n\t//\t// Iterate through _accounts\n\t//\tfor (uint256 i = 0; i < _accounts.length; i++) {\n\t//\t\t// Look up _account's holdings of _id in tokenHoldership\n\t//\t\tbatchBalances[i] = tokenHoldership[_ids[i]][_accounts[i]];\n\t//\t}\n\t//\t// Return output array\n\t//\treturn batchBalances;\n\t//}\n}",
  "sourcePath": "/Users/kamilalizaisadik/DeFi/Dynamic Automated Market Maker/CreatorTokenExchange/contracts/creatortokenownership.sol",
  "compiler": {
    "name": "solc",
    "version": "0.8.6+commit.11564f7e.Emscripten.clang"
  },
  "schemaVersion": "3.4.1",
  "updatedAt": "2021-07-29T00:15:16.647Z",
  "devdoc": {
    "author": "Kamil Alizai Sadik",
    "kind": "dev",
    "methods": {
      "balanceOf(address,uint256)": {
        "details": "See {IERC1155-balanceOf}. Requirements: - `account` cannot be the zero address."
      },
      "balanceOfBatch(address[],uint256[])": {
        "details": "See {IERC1155-balanceOfBatch}. Requirements: - `accounts` and `ids` must have the same length."
      },
      "changeAddress(uint256,address)": {
        "details": "Allows token creator to change their address",
        "params": {
          "_newCreatorAddress": "New creator address associated with the token",
          "_tokenId": "ID of the token in question"
        }
      },
      "changeDescription(uint256,string)": {
        "details": "Allows token creator to change the description of their token",
        "params": {
          "_newDescription": "New description associated with the token",
          "_tokenId": "ID of the token in question"
        }
      },
      "changeName(uint256,string)": {
        "details": "Allows token creator to change the name of their token",
        "params": {
          "_newName": "New name associated with the token",
          "_tokenId": "ID of the token in question"
        }
      },
      "changePlatformFee(uint256)": {
        "details": "Allows owner to change platformFee",
        "params": {
          "_newPlatformFee": "New platform fee"
        }
      },
      "changeProfitMargin(uint256)": {
        "details": "Allows owner to change profit_margin",
        "params": {
          "_newProfitMargin": "New profit margin"
        }
      },
      "changeSymbol(uint256,string)": {
        "details": "Allows token creator to change the symbol of their token",
        "params": {
          "_newSymbol": "New symbol associated with the token",
          "_tokenId": "ID of the token in question"
        }
      },
      "changeVerification(uint256,bool)": {
        "details": "Allows owner to verify (or undo verification) of a CreatorToken",
        "params": {
          "_tokenId": "ID of the token in question",
          "_verified": "Verification status of the token in question"
        }
      },
      "createCreatorToken(address,string,string,string)": {
        "details": "Creates a new creator token",
        "params": {
          "_creatorAddress": "Address of the creator of the token",
          "_description": "chosen by the creator of the tokens",
          "_name": "Name chosen by the creator of the token",
          "_symbol": "Ticker symbol chosen by the creator of the token"
        }
      },
      "getCreatorTokenCount()": {
        "details": "Returns the current length of the creatorTokens array",
        "returns": {
          "_0": "uint representing number of unique Creator Tokens"
        }
      },
      "getToken(uint256)": {
        "details": "Returns token with a particular id",
        "params": {
          "_id": "Id of desired token"
        },
        "returns": {
          "_0": "CreatorToken"
        }
      },
      "isApprovedForAll(address,address)": {
        "details": "Denotes whether operator is approved to transfer account's tokens",
        "params": {
          "_account": "Wallet address holding tokens",
          "_operator": "Wallet address which is/isn't approved to transfer _account's tokens"
        },
        "returns": {
          "_0": "Boolean value indicating approval status"
        }
      },
      "owner()": {
        "details": "Returns the address of the current owner."
      },
      "payoutPlatformFees(address)": {
        "details": "Pays out platform fees owed to owner (might opt to call this daily)",
        "params": {
          "_owner": "Owner of the smart contract"
        }
      },
      "renounceOwnership()": {
        "details": "Leaves the contract without owner. It will not be possible to call `onlyOwner` functions anymore. Can only be called by the current owner. NOTE: Renouncing ownership will leave the contract without an owner, thereby removing any functionality that is only available to the owner."
      },
      "safeBatchTransferFrom(address,address,uint256[],uint256[],bytes)": {
        "details": "Transfers a batch of tokens",
        "params": {
          "_amounts": "Array of quantities of token to be transferred",
          "_data": "Data",
          "_from": "Address token is being transferred from",
          "_ids": "Array of IDs of tokens being transferred",
          "_to": "Address token is being transferred to"
        }
      },
      "safeTransferFrom(address,address,uint256,uint256,bytes)": {
        "details": "Transfers a token",
        "params": {
          "_amount": "Quantity of token to be transferred",
          "_data": "Data",
          "_from": "Address token is being transferred from",
          "_id": "ID of token being transferred",
          "_to": "Address token is being transferred to"
        }
      },
      "setApprovalForAll(address,bool)": {
        "details": "Gives operator permission to transfer caller's tokens",
        "params": {
          "_approved": "Boolean value indicating whether operator is approved",
          "_operator": "Wallet address being granted permission"
        }
      },
      "supportsInterface(bytes4)": {
        "details": "See {IERC165-supportsInterface}."
      },
      "transferOwnership(address)": {
        "details": "Transfers ownership of the contract to a new account (`newOwner`). Can only be called by the current owner."
      },
      "uri(uint256)": {
        "details": "See {IERC1155MetadataURI-uri}. This implementation returns the same URI for *all* token types. It relies on the token type ID substitution mechanism https://eips.ethereum.org/EIPS/eip-1155#metadata[defined in the EIP]. Clients calling this function must replace the `\\{id\\}` substring with the actual token type ID."
      },
      "withdraw(address)": {
        "details": "Ownable function allowing for withdrawal",
        "params": {
          "_owner": "Owner of the smart contract"
        }
      }
    },
    "title": "Contract inheriting from the ERC1155 standard",
    "version": 1
  },
  "userdoc": {
    "kind": "user",
    "methods": {},
    "version": 1
  }
}