{
  "contractName": "CreatorTokenFormulas",
  "abi": [
    {
      "inputs": [
        {
          "internalType": "string",
          "name": "uri",
          "type": "string"
        }
      ],
      "stateMutability": "nonpayable",
      "type": "constructor"
    },
    {
      "anonymous": false,
      "inputs": [
        {
          "indexed": true,
          "internalType": "address",
          "name": "account",
          "type": "address"
        },
        {
          "indexed": true,
          "internalType": "address",
          "name": "operator",
          "type": "address"
        },
        {
          "indexed": false,
          "internalType": "bool",
          "name": "approved",
          "type": "bool"
        }
      ],
      "name": "ApprovalForAll",
      "type": "event"
    },
    {
      "anonymous": false,
      "inputs": [
        {
          "indexed": false,
          "internalType": "uint256",
          "name": "tokenId",
          "type": "uint256"
        },
        {
          "indexed": false,
          "internalType": "address payable",
          "name": "creatorAddress",
          "type": "address"
        },
        {
          "indexed": false,
          "internalType": "string",
          "name": "name",
          "type": "string"
        },
        {
          "indexed": false,
          "internalType": "string",
          "name": "symbol",
          "type": "string"
        },
        {
          "indexed": false,
          "internalType": "string",
          "name": "description",
          "type": "string"
        },
        {
          "indexed": false,
          "internalType": "bool",
          "name": "verified",
          "type": "bool"
        },
        {
          "indexed": false,
          "internalType": "uint256",
          "name": "outstanding",
          "type": "uint256"
        },
        {
          "indexed": false,
          "internalType": "uint256",
          "name": "maxSupply",
          "type": "uint256"
        }
      ],
      "name": "NewCreatorToken",
      "type": "event"
    },
    {
      "anonymous": false,
      "inputs": [
        {
          "indexed": true,
          "internalType": "address",
          "name": "previousOwner",
          "type": "address"
        },
        {
          "indexed": true,
          "internalType": "address",
          "name": "newOwner",
          "type": "address"
        }
      ],
      "name": "OwnershipTransferred",
      "type": "event"
    },
    {
      "anonymous": false,
      "inputs": [
        {
          "indexed": true,
          "internalType": "address",
          "name": "operator",
          "type": "address"
        },
        {
          "indexed": true,
          "internalType": "address",
          "name": "from",
          "type": "address"
        },
        {
          "indexed": true,
          "internalType": "address",
          "name": "to",
          "type": "address"
        },
        {
          "indexed": false,
          "internalType": "uint256[]",
          "name": "ids",
          "type": "uint256[]"
        },
        {
          "indexed": false,
          "internalType": "uint256[]",
          "name": "values",
          "type": "uint256[]"
        }
      ],
      "name": "TransferBatch",
      "type": "event"
    },
    {
      "anonymous": false,
      "inputs": [
        {
          "indexed": true,
          "internalType": "address",
          "name": "operator",
          "type": "address"
        },
        {
          "indexed": true,
          "internalType": "address",
          "name": "from",
          "type": "address"
        },
        {
          "indexed": true,
          "internalType": "address",
          "name": "to",
          "type": "address"
        },
        {
          "indexed": false,
          "internalType": "uint256",
          "name": "id",
          "type": "uint256"
        },
        {
          "indexed": false,
          "internalType": "uint256",
          "name": "value",
          "type": "uint256"
        }
      ],
      "name": "TransferSingle",
      "type": "event"
    },
    {
      "anonymous": false,
      "inputs": [
        {
          "indexed": false,
          "internalType": "string",
          "name": "value",
          "type": "string"
        },
        {
          "indexed": true,
          "internalType": "uint256",
          "name": "id",
          "type": "uint256"
        }
      ],
      "name": "URI",
      "type": "event"
    },
    {
      "inputs": [
        {
          "internalType": "address",
          "name": "",
          "type": "address"
        },
        {
          "internalType": "address",
          "name": "",
          "type": "address"
        }
      ],
      "name": "approvals",
      "outputs": [
        {
          "internalType": "bool",
          "name": "",
          "type": "bool"
        }
      ],
      "stateMutability": "view",
      "type": "function"
    },
    {
      "inputs": [
        {
          "internalType": "address",
          "name": "account",
          "type": "address"
        },
        {
          "internalType": "uint256",
          "name": "id",
          "type": "uint256"
        }
      ],
      "name": "balanceOf",
      "outputs": [
        {
          "internalType": "uint256",
          "name": "",
          "type": "uint256"
        }
      ],
      "stateMutability": "view",
      "type": "function"
    },
    {
      "inputs": [
        {
          "internalType": "address[]",
          "name": "accounts",
          "type": "address[]"
        },
        {
          "internalType": "uint256[]",
          "name": "ids",
          "type": "uint256[]"
        }
      ],
      "name": "balanceOfBatch",
      "outputs": [
        {
          "internalType": "uint256[]",
          "name": "",
          "type": "uint256[]"
        }
      ],
      "stateMutability": "view",
      "type": "function"
    },
    {
      "inputs": [
        {
          "internalType": "uint256",
          "name": "_tokenId",
          "type": "uint256"
        },
        {
          "internalType": "address payable",
          "name": "_newCreatorAddress",
          "type": "address"
        }
      ],
      "name": "changeAddress",
      "outputs": [],
      "stateMutability": "nonpayable",
      "type": "function"
    },
    {
      "inputs": [
        {
          "internalType": "uint256",
          "name": "_tokenId",
          "type": "uint256"
        },
        {
          "internalType": "string",
          "name": "_newDescription",
          "type": "string"
        }
      ],
      "name": "changeDescription",
      "outputs": [],
      "stateMutability": "nonpayable",
      "type": "function"
    },
    {
      "inputs": [
        {
          "internalType": "uint256",
          "name": "_tokenId",
          "type": "uint256"
        },
        {
          "internalType": "string",
          "name": "_newName",
          "type": "string"
        }
      ],
      "name": "changeName",
      "outputs": [],
      "stateMutability": "nonpayable",
      "type": "function"
    },
    {
      "inputs": [
        {
          "internalType": "uint256",
          "name": "_newPlatformFee",
          "type": "uint256"
        }
      ],
      "name": "changePlatformFee",
      "outputs": [],
      "stateMutability": "nonpayable",
      "type": "function"
    },
    {
      "inputs": [
        {
          "internalType": "uint256",
          "name": "_newProfitMargin",
          "type": "uint256"
        }
      ],
      "name": "changeProfitMargin",
      "outputs": [],
      "stateMutability": "nonpayable",
      "type": "function"
    },
    {
      "inputs": [
        {
          "internalType": "uint256",
          "name": "_tokenId",
          "type": "uint256"
        },
        {
          "internalType": "string",
          "name": "_newSymbol",
          "type": "string"
        }
      ],
      "name": "changeSymbol",
      "outputs": [],
      "stateMutability": "nonpayable",
      "type": "function"
    },
    {
      "inputs": [
        {
          "internalType": "uint256",
          "name": "_tokenId",
          "type": "uint256"
        },
        {
          "internalType": "bool",
          "name": "_verified",
          "type": "bool"
        }
      ],
      "name": "changeVerification",
      "outputs": [],
      "stateMutability": "nonpayable",
      "type": "function"
    },
    {
      "inputs": [
        {
          "internalType": "address payable",
          "name": "_creatorAddress",
          "type": "address"
        },
        {
          "internalType": "string",
          "name": "_name",
          "type": "string"
        },
        {
          "internalType": "string",
          "name": "_symbol",
          "type": "string"
        },
        {
          "internalType": "string",
          "name": "_description",
          "type": "string"
        }
      ],
      "name": "createCreatorToken",
      "outputs": [],
      "stateMutability": "nonpayable",
      "type": "function"
    },
    {
      "inputs": [
        {
          "internalType": "uint256",
          "name": "",
          "type": "uint256"
        }
      ],
      "name": "creatorTokens",
      "outputs": [
        {
          "internalType": "address payable",
          "name": "creatorAddress",
          "type": "address"
        },
        {
          "internalType": "string",
          "name": "name",
          "type": "string"
        },
        {
          "internalType": "string",
          "name": "symbol",
          "type": "string"
        },
        {
          "internalType": "string",
          "name": "description",
          "type": "string"
        },
        {
          "internalType": "bool",
          "name": "verified",
          "type": "bool"
        },
        {
          "internalType": "uint256",
          "name": "outstanding",
          "type": "uint256"
        },
        {
          "internalType": "uint256",
          "name": "maxSupply",
          "type": "uint256"
        }
      ],
      "stateMutability": "view",
      "type": "function"
    },
    {
      "inputs": [],
      "name": "getCreatorTokenCount",
      "outputs": [
        {
          "internalType": "uint256",
          "name": "",
          "type": "uint256"
        }
      ],
      "stateMutability": "view",
      "type": "function"
    },
    {
      "inputs": [
        {
          "internalType": "address",
          "name": "_account",
          "type": "address"
        },
        {
          "internalType": "address",
          "name": "_operator",
          "type": "address"
        }
      ],
      "name": "isApprovedForAll",
      "outputs": [
        {
          "internalType": "bool",
          "name": "",
          "type": "bool"
        }
      ],
      "stateMutability": "view",
      "type": "function"
    },
    {
      "inputs": [],
      "name": "numCreatorTokens",
      "outputs": [
        {
          "internalType": "uint256",
          "name": "",
          "type": "uint256"
        }
      ],
      "stateMutability": "view",
      "type": "function"
    },
    {
      "inputs": [],
      "name": "owner",
      "outputs": [
        {
          "internalType": "address",
          "name": "",
          "type": "address"
        }
      ],
      "stateMutability": "view",
      "type": "function"
    },
    {
      "inputs": [
        {
          "internalType": "address payable",
          "name": "_owner",
          "type": "address"
        }
      ],
      "name": "payoutPlatformFees",
      "outputs": [],
      "stateMutability": "nonpayable",
      "type": "function"
    },
    {
      "inputs": [],
      "name": "platformFeesOwed",
      "outputs": [
        {
          "internalType": "uint256",
          "name": "",
          "type": "uint256"
        }
      ],
      "stateMutability": "view",
      "type": "function"
    },
    {
      "inputs": [],
      "name": "renounceOwnership",
      "outputs": [],
      "stateMutability": "nonpayable",
      "type": "function"
    },
    {
      "inputs": [
        {
          "internalType": "address",
          "name": "_from",
          "type": "address"
        },
        {
          "internalType": "address",
          "name": "_to",
          "type": "address"
        },
        {
          "internalType": "uint256[]",
          "name": "_ids",
          "type": "uint256[]"
        },
        {
          "internalType": "uint256[]",
          "name": "_amounts",
          "type": "uint256[]"
        },
        {
          "internalType": "bytes",
          "name": "_data",
          "type": "bytes"
        }
      ],
      "name": "safeBatchTransferFrom",
      "outputs": [],
      "stateMutability": "nonpayable",
      "type": "function"
    },
    {
      "inputs": [
        {
          "internalType": "address",
          "name": "_from",
          "type": "address"
        },
        {
          "internalType": "address",
          "name": "_to",
          "type": "address"
        },
        {
          "internalType": "uint256",
          "name": "_id",
          "type": "uint256"
        },
        {
          "internalType": "uint256",
          "name": "_amount",
          "type": "uint256"
        },
        {
          "internalType": "bytes",
          "name": "_data",
          "type": "bytes"
        }
      ],
      "name": "safeTransferFrom",
      "outputs": [],
      "stateMutability": "nonpayable",
      "type": "function"
    },
    {
      "inputs": [
        {
          "internalType": "address",
          "name": "_operator",
          "type": "address"
        },
        {
          "internalType": "bool",
          "name": "_approved",
          "type": "bool"
        }
      ],
      "name": "setApprovalForAll",
      "outputs": [],
      "stateMutability": "nonpayable",
      "type": "function"
    },
    {
      "inputs": [
        {
          "internalType": "bytes4",
          "name": "interfaceId",
          "type": "bytes4"
        }
      ],
      "name": "supportsInterface",
      "outputs": [
        {
          "internalType": "bool",
          "name": "",
          "type": "bool"
        }
      ],
      "stateMutability": "view",
      "type": "function"
    },
    {
      "inputs": [
        {
          "internalType": "uint256",
          "name": "",
          "type": "uint256"
        },
        {
          "internalType": "address",
          "name": "",
          "type": "address"
        }
      ],
      "name": "tokenHoldership",
      "outputs": [
        {
          "internalType": "uint256",
          "name": "",
          "type": "uint256"
        }
      ],
      "stateMutability": "view",
      "type": "function"
    },
    {
      "inputs": [
        {
          "internalType": "uint256",
          "name": "",
          "type": "uint256"
        }
      ],
      "name": "tokenToCreator",
      "outputs": [
        {
          "internalType": "address",
          "name": "",
          "type": "address"
        }
      ],
      "stateMutability": "view",
      "type": "function"
    },
    {
      "inputs": [
        {
          "internalType": "uint256",
          "name": "",
          "type": "uint256"
        }
      ],
      "name": "tokenValueTransferred",
      "outputs": [
        {
          "internalType": "uint256",
          "name": "",
          "type": "uint256"
        }
      ],
      "stateMutability": "view",
      "type": "function"
    },
    {
      "inputs": [],
      "name": "totalPlatformFees",
      "outputs": [
        {
          "internalType": "uint256",
          "name": "",
          "type": "uint256"
        }
      ],
      "stateMutability": "view",
      "type": "function"
    },
    {
      "inputs": [
        {
          "internalType": "uint256",
          "name": "",
          "type": "uint256"
        }
      ],
      "name": "totalValueLocked",
      "outputs": [
        {
          "internalType": "uint256",
          "name": "",
          "type": "uint256"
        }
      ],
      "stateMutability": "view",
      "type": "function"
    },
    {
      "inputs": [
        {
          "internalType": "address",
          "name": "newOwner",
          "type": "address"
        }
      ],
      "name": "transferOwnership",
      "outputs": [],
      "stateMutability": "nonpayable",
      "type": "function"
    },
    {
      "inputs": [
        {
          "internalType": "uint256",
          "name": "",
          "type": "uint256"
        }
      ],
      "name": "uri",
      "outputs": [
        {
          "internalType": "string",
          "name": "",
          "type": "string"
        }
      ],
      "stateMutability": "view",
      "type": "function"
    },
    {
      "inputs": [
        {
          "internalType": "address",
          "name": "",
          "type": "address"
        },
        {
          "internalType": "uint256",
          "name": "",
          "type": "uint256"
        }
      ],
      "name": "userToHoldings",
      "outputs": [
        {
          "internalType": "uint256",
          "name": "",
          "type": "uint256"
        }
      ],
      "stateMutability": "view",
      "type": "function"
    },
    {
      "inputs": [
        {
          "internalType": "address payable",
          "name": "_owner",
          "type": "address"
        }
      ],
      "name": "withdraw",
      "outputs": [],
      "stateMutability": "nonpayable",
      "type": "function"
    },
    {
      "inputs": [
        {
          "internalType": "uint256",
          "name": "_startingSupply",
          "type": "uint256"
        },
        {
          "internalType": "uint256",
          "name": "_amount",
          "type": "uint256"
        },
        {
          "internalType": "uint256",
          "name": "_mNumerator",
          "type": "uint256"
        },
        {
          "internalType": "uint256",
          "name": "_mDenominator",
          "type": "uint256"
        },
        {
          "internalType": "uint256",
          "name": "_maxSupply",
          "type": "uint256"
        },
        {
          "internalType": "uint256",
          "name": "_profitMargin",
          "type": "uint256"
        }
      ],
      "name": "_saleFunction",
      "outputs": [
        {
          "internalType": "uint256",
          "name": "",
          "type": "uint256"
        }
      ],
      "stateMutability": "pure",
      "type": "function"
    }
  ],
  "bytecode": "0x608060405260018055600060025560006003556000600455601460055565082f79cd900060065560b96007553480156200003857600080fd5b5060405162003af138038062003af183398181016040528101906200005e91906200027c565b80806000620000726200012a60201b60201c565b9050806000806101000a81548173ffffffffffffffffffffffffffffffffffffffff021916908373ffffffffffffffffffffffffffffffffffffffff1602179055508073ffffffffffffffffffffffffffffffffffffffff16600073ffffffffffffffffffffffffffffffffffffffff167f8be0079c531659141344cd1fd0a4f28419497f9722a3daafe3b4186f6b6457e060405160405180910390a35062000121816200013260201b60201c565b50505062000451565b600033905090565b80601190805190602001906200014a9291906200014e565b5050565b8280546200015c9062000362565b90600052602060002090601f016020900481019282620001805760008555620001cc565b82601f106200019b57805160ff1916838001178555620001cc565b82800160010185558215620001cc579182015b82811115620001cb578251825591602001919060010190620001ae565b5b509050620001db9190620001df565b5090565b5b80821115620001fa576000816000905550600101620001e0565b5090565b6000620002156200020f84620002f6565b620002cd565b90508281526020810184848401111562000234576200023362000431565b5b620002418482856200032c565b509392505050565b600082601f8301126200026157620002606200042c565b5b815162000273848260208601620001fe565b91505092915050565b6000602082840312156200029557620002946200043b565b5b600082015167ffffffffffffffff811115620002b657620002b562000436565b5b620002c48482850162000249565b91505092915050565b6000620002d9620002ec565b9050620002e7828262000398565b919050565b6000604051905090565b600067ffffffffffffffff821115620003145762000313620003fd565b5b6200031f8262000440565b9050602081019050919050565b60005b838110156200034c5780820151818401526020810190506200032f565b838111156200035c576000848401525b50505050565b600060028204905060018216806200037b57607f821691505b60208210811415620003925762000391620003ce565b5b50919050565b620003a38262000440565b810181811067ffffffffffffffff82111715620003c557620003c4620003fd565b5b80604052505050565b7f4e487b7100000000000000000000000000000000000000000000000000000000600052602260045260246000fd5b7f4e487b7100000000000000000000000000000000000000000000000000000000600052604160045260246000fd5b600080fd5b600080fd5b600080fd5b600080fd5b6000601f19601f8301169050919050565b61369080620004616000396000f3fe608060405234801561001057600080fd5b50600436106101fa5760003560e01c8063afb218321161011a578063d7a5791a116100ad578063e985e9c51161007c578063e985e9c5146105fd578063eb8417591461062d578063f242432a14610649578063f2fde38b14610665578063f7374e2e14610681576101fa565b8063d7a5791a14610565578063d9bd3a4014610581578063de6a06ed146105b1578063df3c00b1146105cd576101fa565b8063c539c317116100e9578063c539c317146104d9578063ce901d8a146104f5578063d3631fa51461052b578063d56b72c714610549576101fa565b8063afb2183214610451578063bfb48c9c1461046f578063c1d330491461049f578063c39cbef1146104bd576101fa565b80632eb2c2d6116101925780638da5cb5b116101615780638da5cb5b146103b757806392724afa146103d5578063a22cb46514610405578063a32ce11e14610421576101fa565b80632eb2c2d6146103455780634e1273f41461036157806351cff8d914610391578063715018a6146103ad576101fa565b806317bcaa08116101ce57806317bcaa08146102ab57806318892ae8146102db5780631d5ad18b1461030b5780632a2b237c14610327576101fa565b8062fdd58e146101ff57806301ffc9a71461022f57806306e320f51461025f5780630e89341c1461027b575b600080fd5b61021960048036038101906102149190612908565b61069d565b6040516102269190612f11565b60405180910390f35b610249600480360381019061024491906129c0565b610767565b6040516102569190612e54565b60405180910390f35b61027960048036038101906102749190612ada565b610849565b005b610295600480360381019061029091906129ed565b6108f0565b6040516102a29190612e6f565b60405180910390f35b6102c560048036038101906102c091906129ed565b610984565b6040516102d29190612f11565b60405180910390f35b6102f560048036038101906102f091906129ed565b61099c565b6040516103029190612d5c565b60405180910390f35b61032560048036038101906103209190612a5a565b6109cf565b005b61032f610aa4565b60405161033c9190612f11565b60405180910390f35b61035f600480360381019061035a9190612762565b610ab1565b005b61037b60048036038101906103769190612948565b610c1d565b6040516103889190612dfb565b60405180910390f35b6103ab60048036038101906103a6919061263a565b610d36565b005b6103b5610dfc565b005b6103bf610f36565b6040516103cc9190612d5c565b60405180910390f35b6103ef60048036038101906103ea9190612908565b610f5f565b6040516103fc9190612f11565b60405180910390f35b61041f600480360381019061041a91906128c8565b610f84565b005b61043b60048036038101906104369190612722565b611081565b6040516104489190612e54565b60405180910390f35b6104596110b0565b6040516104669190612f11565b60405180910390f35b61048960048036038101906104849190612a1a565b6110b6565b6040516104969190612f11565b60405180910390f35b6104a76110db565b6040516104b49190612f11565b60405180910390f35b6104d760048036038101906104d29190612ada565b6110e1565b005b6104f360048036038101906104ee91906129ed565b611188565b005b61050f600480360381019061050a91906129ed565b61120e565b6040516105229796959493929190612d77565b60405180910390f35b610533611425565b6040516105409190612f11565b60405180910390f35b610563600480360381019061055e9190612667565b61142b565b005b61057f600480360381019061057a91906129ed565b611647565b005b61059b600480360381019061059691906129ed565b6116cd565b6040516105a89190612f11565b60405180910390f35b6105cb60048036038101906105c69190612ada565b6116e5565b005b6105e760048036038101906105e29190612b3a565b61178c565b6040516105f49190612f11565b60405180910390f35b61061760048036038101906106129190612722565b611805565b6040516106249190612e54565b60405180910390f35b6106476004803603810190610642919061263a565b611899565b005b610663600480360381019061065e9190612831565b611969565b005b61067f600480360381019061067a919061260d565b611a4d565b005b61069b60048036038101906106969190612a9a565b611bf6565b005b60008073ffffffffffffffffffffffffffffffffffffffff168373ffffffffffffffffffffffffffffffffffffffff16141561070e576040517f08c379a000000000000000000000000000000000000000000000000000000000815260040161070590612e91565b60405180910390fd5b600f600083815260200190815260200160002060008473ffffffffffffffffffffffffffffffffffffffff1673ffffffffffffffffffffffffffffffffffffffff16815260200190815260200160002054905092915050565b60007fd9b67a26000000000000000000000000000000000000000000000000000000007bffffffffffffffffffffffffffffffffffffffffffffffffffffffff1916827bffffffffffffffffffffffffffffffffffffffffffffffffffffffff1916148061083257507f0e89341c000000000000000000000000000000000000000000000000000000007bffffffffffffffffffffffffffffffffffffffffffffffffffffffff1916827bffffffffffffffffffffffffffffffffffffffffffffffffffffffff1916145b80610842575061084182611cb3565b5b9050919050565b826009600082815260200190815260200160002060009054906101000a900473ffffffffffffffffffffffffffffffffffffffff1673ffffffffffffffffffffffffffffffffffffffff163373ffffffffffffffffffffffffffffffffffffffff16146108b557600080fd5b8282600886815481106108cb576108ca613444565b5b906000526020600020906007020160020191906108e9929190612209565b5050505050565b6060601180546108ff9061330b565b80601f016020809104026020016040519081016040528092919081815260200182805461092b9061330b565b80156109785780601f1061094d57610100808354040283529160200191610978565b820191906000526020600020905b81548152906001019060200180831161095b57829003601f168201915b50505050509050919050565b600a6020528060005260406000206000915090505481565b60096020528060005260406000206000915054906101000a900473ffffffffffffffffffffffffffffffffffffffff1681565b816009600082815260200190815260200160002060009054906101000a900473ffffffffffffffffffffffffffffffffffffffff1673ffffffffffffffffffffffffffffffffffffffff163373ffffffffffffffffffffffffffffffffffffffff1614610a3b57600080fd5b8160088481548110610a5057610a4f613444565b5b906000526020600020906007020160000160006101000a81548173ffffffffffffffffffffffffffffffffffffffff021916908373ffffffffffffffffffffffffffffffffffffffff160217905550505050565b6000600880549050905090565b60005b8351811015610b97578573ffffffffffffffffffffffffffffffffffffffff163373ffffffffffffffffffffffffffffffffffffffff161480610afd5750610afc8686611805565b5b610b0657600080fd5b610b4586858381518110610b1d57610b1c613444565b5b6020026020010151858481518110610b3857610b37613444565b5b6020026020010151611d1d565b610b8485858381518110610b5c57610b5b613444565b5b6020026020010151858481518110610b7757610b76613444565b5b6020026020010151611df0565b8080610b8f9061336e565b915050610ab4565b508373ffffffffffffffffffffffffffffffffffffffff168573ffffffffffffffffffffffffffffffffffffffff163373ffffffffffffffffffffffffffffffffffffffff167f4a39dc06d4c0dbc64b70af90fd698a233a518aa5d07e595d983b8c0526c8f7fb8686604051610c0e929190612e1d565b60405180910390a45050505050565b60608151835114610c63576040517f08c379a0000000000000000000000000000000000000000000000000000000008152600401610c5a90612ef1565b60405180910390fd5b6000835167ffffffffffffffff811115610c8057610c7f613473565b5b604051908082528060200260200182016040528015610cae5781602001602082028036833780820191505090505b50905060005b8451811015610d2b57610cfb858281518110610cd357610cd2613444565b5b6020026020010151858381518110610cee57610ced613444565b5b602002602001015161069d565b828281518110610d0e57610d0d613444565b5b60200260200101818152505080610d249061336e565b9050610cb4565b508091505092915050565b610d3e611ec3565b73ffffffffffffffffffffffffffffffffffffffff16610d5c610f36565b73ffffffffffffffffffffffffffffffffffffffff1614610db2576040517f08c379a0000000000000000000000000000000000000000000000000000000008152600401610da990612ed1565b60405180910390fd5b8073ffffffffffffffffffffffffffffffffffffffff166108fc479081150290604051600060405180830381858888f19350505050158015610df8573d6000803e3d6000fd5b5050565b610e04611ec3565b73ffffffffffffffffffffffffffffffffffffffff16610e22610f36565b73ffffffffffffffffffffffffffffffffffffffff1614610e78576040517f08c379a0000000000000000000000000000000000000000000000000000000008152600401610e6f90612ed1565b60405180910390fd5b600073ffffffffffffffffffffffffffffffffffffffff1660008054906101000a900473ffffffffffffffffffffffffffffffffffffffff1673ffffffffffffffffffffffffffffffffffffffff167f8be0079c531659141344cd1fd0a4f28419497f9722a3daafe3b4186f6b6457e060405160405180910390a360008060006101000a81548173ffffffffffffffffffffffffffffffffffffffff021916908373ffffffffffffffffffffffffffffffffffffffff160217905550565b60008060009054906101000a900473ffffffffffffffffffffffffffffffffffffffff16905090565b600c602052816000526040600020602052806000526040600020600091509150505481565b80600d60003373ffffffffffffffffffffffffffffffffffffffff1673ffffffffffffffffffffffffffffffffffffffff16815260200190815260200160002060008473ffffffffffffffffffffffffffffffffffffffff1673ffffffffffffffffffffffffffffffffffffffff16815260200190815260200160002060006101000a81548160ff0219169083151502179055508173ffffffffffffffffffffffffffffffffffffffff163373ffffffffffffffffffffffffffffffffffffffff167f17307eab39ab6107e8899845ad3d59bd9653f200f220920489ca2b5937696c31836040516110759190612e54565b60405180910390a35050565b600d6020528160005260406000206020528060005260406000206000915091509054906101000a900460ff1681565b60045481565b600b602052816000526040600020602052806000526040600020600091509150505481565b60035481565b826009600082815260200190815260200160002060009054906101000a900473ffffffffffffffffffffffffffffffffffffffff1673ffffffffffffffffffffffffffffffffffffffff163373ffffffffffffffffffffffffffffffffffffffff161461114d57600080fd5b82826008868154811061116357611162613444565b5b90600052602060002090600702016001019190611181929190612209565b5050505050565b611190611ec3565b73ffffffffffffffffffffffffffffffffffffffff166111ae610f36565b73ffffffffffffffffffffffffffffffffffffffff1614611204576040517f08c379a00000000000000000000000000000000000000000000000000000000081526004016111fb90612ed1565b60405180910390fd5b8060058190555050565b6008818154811061121e57600080fd5b90600052602060002090600702016000915090508060000160009054906101000a900473ffffffffffffffffffffffffffffffffffffffff16908060010180546112679061330b565b80601f01602080910402602001604051908101604052809291908181526020018280546112939061330b565b80156112e05780601f106112b5576101008083540402835291602001916112e0565b820191906000526020600020905b8154815290600101906020018083116112c357829003601f168201915b5050505050908060020180546112f59061330b565b80601f01602080910402602001604051908101604052809291908181526020018280546113219061330b565b801561136e5780601f106113435761010080835404028352916020019161136e565b820191906000526020600020905b81548152906001019060200180831161135157829003601f168201915b5050505050908060030180546113839061330b565b80601f01602080910402602001604051908101604052809291908181526020018280546113af9061330b565b80156113fc5780601f106113d1576101008083540402835291602001916113fc565b820191906000526020600020905b8154815290600101906020018083116113df57829003601f168201915b5050505050908060040160009054906101000a900460ff16908060050154908060060154905087565b60025481565b60086040518060e001604052808673ffffffffffffffffffffffffffffffffffffffff168152602001858152602001848152602001838152602001600015158152602001600081526020016000815250908060018154018082558091505060019003906000526020600020906007020160009091909190915060008201518160000160006101000a81548173ffffffffffffffffffffffffffffffffffffffff021916908373ffffffffffffffffffffffffffffffffffffffff160217905550602082015181600101908051906020019061150792919061228f565b50604082015181600201908051906020019061152492919061228f565b50606082015181600301908051906020019061154192919061228f565b5060808201518160040160006101000a81548160ff02191690831515021790555060a0820151816005015560c0820151816006015550506000600160088054905061158c91906131fd565b9050846009600083815260200190815260200160002060006101000a81548173ffffffffffffffffffffffffffffffffffffffff021916908373ffffffffffffffffffffffffffffffffffffffff1602179055506000600a6000838152602001908152602001600020819055507f3ef624c0f3fb7ad40b94c02078ea3e3a797dbfc21e921ee4bd2b8ad0ca6aa11381868686866000806000604051611638989796959493929190612f2c565b60405180910390a15050505050565b61164f611ec3565b73ffffffffffffffffffffffffffffffffffffffff1661166d610f36565b73ffffffffffffffffffffffffffffffffffffffff16146116c3576040517f08c379a00000000000000000000000000000000000000000000000000000000081526004016116ba90612ed1565b60405180910390fd5b8060018190555050565b600e6020528060005260406000206000915090505481565b826009600082815260200190815260200160002060009054906101000a900473ffffffffffffffffffffffffffffffffffffffff1673ffffffffffffffffffffffffffffffffffffffff163373ffffffffffffffffffffffffffffffffffffffff161461175157600080fd5b82826008868154811061176757611766613444565b5b90600052602060002090600702016003019190611785929190612209565b5050505050565b6000806000806117a08a8a8a8a8a8a611ecb565b9250925092506000838b10156117c3576117bc84848d85611f46565b90506117f4565b838210156117e1576117da84848d858d8d8d611fe9565b90506117f3565b6117f084848d858d8d8d61210b565b90505b5b809450505050509695505050505050565b6000600d60008473ffffffffffffffffffffffffffffffffffffffff1673ffffffffffffffffffffffffffffffffffffffff16815260200190815260200160002060008373ffffffffffffffffffffffffffffffffffffffff1673ffffffffffffffffffffffffffffffffffffffff16815260200190815260200160002060009054906101000a900460ff16905092915050565b6118a1611ec3565b73ffffffffffffffffffffffffffffffffffffffff166118bf610f36565b73ffffffffffffffffffffffffffffffffffffffff1614611915576040517f08c379a000000000000000000000000000000000000000000000000000000000815260040161190c90612ed1565b60405180910390fd5b8073ffffffffffffffffffffffffffffffffffffffff166108fc6003549081150290604051600060405180830381858888f1935050505015801561195d573d6000803e3d6000fd5b50600060038190555050565b8473ffffffffffffffffffffffffffffffffffffffff163373ffffffffffffffffffffffffffffffffffffffff1614806119a957506119a88585611805565b5b6119b257600080fd5b6119bd858484611d1d565b6119c8848484611df0565b8373ffffffffffffffffffffffffffffffffffffffff168573ffffffffffffffffffffffffffffffffffffffff163373ffffffffffffffffffffffffffffffffffffffff167fc3d58168c5ae7397731d063d5bbf3d657854427343f4c083240f7aacaa2d0f628686604051611a3e929190612fbf565b60405180910390a45050505050565b611a55611ec3565b73ffffffffffffffffffffffffffffffffffffffff16611a73610f36565b73ffffffffffffffffffffffffffffffffffffffff1614611ac9576040517f08c379a0000000000000000000000000000000000000000000000000000000008152600401611ac090612ed1565b60405180910390fd5b600073ffffffffffffffffffffffffffffffffffffffff168173ffffffffffffffffffffffffffffffffffffffff161415611b39576040517f08c379a0000000000000000000000000000000000000000000000000000000008152600401611b3090612eb1565b60405180910390fd5b8073ffffffffffffffffffffffffffffffffffffffff1660008054906101000a900473ffffffffffffffffffffffffffffffffffffffff1673ffffffffffffffffffffffffffffffffffffffff167f8be0079c531659141344cd1fd0a4f28419497f9722a3daafe3b4186f6b6457e060405160405180910390a3806000806101000a81548173ffffffffffffffffffffffffffffffffffffffff021916908373ffffffffffffffffffffffffffffffffffffffff16021790555050565b611bfe611ec3565b73ffffffffffffffffffffffffffffffffffffffff16611c1c610f36565b73ffffffffffffffffffffffffffffffffffffffff1614611c72576040517f08c379a0000000000000000000000000000000000000000000000000000000008152600401611c6990612ed1565b60405180910390fd5b8060088381548110611c8757611c86613444565b5b906000526020600020906007020160040160006101000a81548160ff0219169083151502179055505050565b60007f01ffc9a7000000000000000000000000000000000000000000000000000000007bffffffffffffffffffffffffffffffffffffffffffffffffffffffff1916827bffffffffffffffffffffffffffffffffffffffffffffffffffffffff1916149050919050565b80600b600084815260200190815260200160002060008573ffffffffffffffffffffffffffffffffffffffff1673ffffffffffffffffffffffffffffffffffffffff1681526020019081526020016000206000828254611d7d91906131fd565b9250508190555080600c60008573ffffffffffffffffffffffffffffffffffffffff1673ffffffffffffffffffffffffffffffffffffffff16815260200190815260200160002060008481526020019081526020016000206000828254611de491906131fd565b92505081905550505050565b80600b600084815260200190815260200160002060008573ffffffffffffffffffffffffffffffffffffffff1673ffffffffffffffffffffffffffffffffffffffff1681526020019081526020016000206000828254611e50919061311c565b9250508190555080600c60008573ffffffffffffffffffffffffffffffffffffffff1673ffffffffffffffffffffffffffffffffffffffff16815260200190815260200160002060008481526020019081526020016000206000828254611eb7919061311c565b92505081905550505050565b600033905090565b600080600080600286611ede9190613172565b9050600087896064886032611ef391906131fd565b8a611efe91906131a3565b611f089190613172565b611f1291906131a3565b611f1c9190613172565b905060008a8c611f2c91906131fd565b905082828295509550955050505096509650969350505050565b6000808286611f5591906131fd565b8686611f619190613172565b611f6b91906131a3565b85611f7691906131fd565b905060008487611f8691906131fd565b8787611f929190613172565b611f9c91906131a3565b86611fa791906131fd565b905060008486611fb791906131fd565b90506002818385611fc8919061311c565b611fd291906131a3565b611fdc9190613172565b9350505050949350505050565b6000808589611ff891906131fd565b89896120049190613172565b61200e91906131a3565b8861201991906131fd565b905060008890506000878b61202e91906131fd565b905060006002828486612041919061311c565b61204b91906131a3565b6120559190613172565b905060008b8d8c61206691906131fd565b8e8961207291906131fd565b8e8b8b8e61208091906131a3565b61208a9190613172565b61209491906131fd565b61209e9190613172565b6120a891906131a3565b6120b2919061311c565b905060008d8c6120c291906131fd565b9050600060028284886120d5919061311c565b6120df91906131a3565b6120e99190613172565b905080846120f7919061311c565b975050505050505050979650505050505050565b60008087898761211b91906131fd565b8a8561212791906131fd565b8a87878a61213591906131a3565b61213f9190613172565b61214991906131fd565b6121539190613172565b61215d91906131a3565b612167919061311c565b90506000888a8961217891906131fd565b8b8661218491906131fd565b8b88888b61219291906131a3565b61219c9190613172565b6121a691906131fd565b6121b09190613172565b6121ba91906131a3565b6121c4919061311c565b9050600087896121d491906131fd565b905060028183856121e5919061311c565b6121ef91906131a3565b6121f99190613172565b9350505050979650505050505050565b8280546122159061330b565b90600052602060002090601f016020900481019282612237576000855561227e565b82601f1061225057803560ff191683800117855561227e565b8280016001018555821561227e579182015b8281111561227d578235825591602001919060010190612262565b5b50905061228b9190612315565b5090565b82805461229b9061330b565b90600052602060002090601f0160209004810192826122bd5760008555612304565b82601f106122d657805160ff1916838001178555612304565b82800160010185558215612304579182015b828111156123035782518255916020019190600101906122e8565b5b5090506123119190612315565b5090565b5b8082111561232e576000816000905550600101612316565b5090565b60006123456123408461300d565b612fe8565b90508083825260208201905082856020860282011115612368576123676134ac565b5b60005b85811015612398578161237e8882612496565b84526020840193506020830192505060018101905061236b565b5050509392505050565b60006123b56123b084613039565b612fe8565b905080838252602082019050828560208602820111156123d8576123d76134ac565b5b60005b8581101561240857816123ee88826125f8565b8452602084019350602083019250506001810190506123db565b5050509392505050565b600061242561242084613065565b612fe8565b905082815260208101848484011115612441576124406134b1565b5b61244c8482856132c9565b509392505050565b600061246761246284613096565b612fe8565b905082815260208101848484011115612483576124826134b1565b5b61248e8482856132c9565b509392505050565b6000813590506124a5816135e7565b92915050565b6000813590506124ba816135fe565b92915050565b600082601f8301126124d5576124d46134a7565b5b81356124e5848260208601612332565b91505092915050565b600082601f830112612503576125026134a7565b5b81356125138482602086016123a2565b91505092915050565b60008135905061252b81613615565b92915050565b6000813590506125408161362c565b92915050565b600082601f83011261255b5761255a6134a7565b5b813561256b848260208601612412565b91505092915050565b60008083601f84011261258a576125896134a7565b5b8235905067ffffffffffffffff8111156125a7576125a66134a2565b5b6020830191508360018202830111156125c3576125c26134ac565b5b9250929050565b600082601f8301126125df576125de6134a7565b5b81356125ef848260208601612454565b91505092915050565b60008135905061260781613643565b92915050565b600060208284031215612623576126226134bb565b5b600061263184828501612496565b91505092915050565b6000602082840312156126505761264f6134bb565b5b600061265e848285016124ab565b91505092915050565b60008060008060808587031215612681576126806134bb565b5b600061268f878288016124ab565b945050602085013567ffffffffffffffff8111156126b0576126af6134b6565b5b6126bc878288016125ca565b935050604085013567ffffffffffffffff8111156126dd576126dc6134b6565b5b6126e9878288016125ca565b925050606085013567ffffffffffffffff81111561270a576127096134b6565b5b612716878288016125ca565b91505092959194509250565b60008060408385031215612739576127386134bb565b5b600061274785828601612496565b925050602061275885828601612496565b9150509250929050565b600080600080600060a0868803121561277e5761277d6134bb565b5b600061278c88828901612496565b955050602061279d88828901612496565b945050604086013567ffffffffffffffff8111156127be576127bd6134b6565b5b6127ca888289016124ee565b935050606086013567ffffffffffffffff8111156127eb576127ea6134b6565b5b6127f7888289016124ee565b925050608086013567ffffffffffffffff811115612818576128176134b6565b5b61282488828901612546565b9150509295509295909350565b600080600080600060a0868803121561284d5761284c6134bb565b5b600061285b88828901612496565b955050602061286c88828901612496565b945050604061287d888289016125f8565b935050606061288e888289016125f8565b925050608086013567ffffffffffffffff8111156128af576128ae6134b6565b5b6128bb88828901612546565b9150509295509295909350565b600080604083850312156128df576128de6134bb565b5b60006128ed85828601612496565b92505060206128fe8582860161251c565b9150509250929050565b6000806040838503121561291f5761291e6134bb565b5b600061292d85828601612496565b925050602061293e858286016125f8565b9150509250929050565b6000806040838503121561295f5761295e6134bb565b5b600083013567ffffffffffffffff81111561297d5761297c6134b6565b5b612989858286016124c0565b925050602083013567ffffffffffffffff8111156129aa576129a96134b6565b5b6129b6858286016124ee565b9150509250929050565b6000602082840312156129d6576129d56134bb565b5b60006129e484828501612531565b91505092915050565b600060208284031215612a0357612a026134bb565b5b6000612a11848285016125f8565b91505092915050565b60008060408385031215612a3157612a306134bb565b5b6000612a3f858286016125f8565b9250506020612a5085828601612496565b9150509250929050565b60008060408385031215612a7157612a706134bb565b5b6000612a7f858286016125f8565b9250506020612a90858286016124ab565b9150509250929050565b60008060408385031215612ab157612ab06134bb565b5b6000612abf858286016125f8565b9250506020612ad08582860161251c565b9150509250929050565b600080600060408486031215612af357612af26134bb565b5b6000612b01868287016125f8565b935050602084013567ffffffffffffffff811115612b2257612b216134b6565b5b612b2e86828701612574565b92509250509250925092565b60008060008060008060c08789031215612b5757612b566134bb565b5b6000612b6589828a016125f8565b9650506020612b7689828a016125f8565b9550506040612b8789828a016125f8565b9450506060612b9889828a016125f8565b9350506080612ba989828a016125f8565b92505060a0612bba89828a016125f8565b9150509295509295509295565b6000612bd38383612d3e565b60208301905092915050565b612be881613243565b82525050565b612bf781613231565b82525050565b6000612c08826130d7565b612c1281856130fa565b9350612c1d836130c7565b8060005b83811015612c4e578151612c358882612bc7565b9750612c40836130ed565b925050600181019050612c21565b5085935050505092915050565b612c6481613255565b82525050565b612c73816132b7565b82525050565b6000612c84826130e2565b612c8e818561310b565b9350612c9e8185602086016132d8565b612ca7816134c0565b840191505092915050565b6000612cbf602b8361310b565b9150612cca826134d1565b604082019050919050565b6000612ce260268361310b565b9150612ced82613520565b604082019050919050565b6000612d0560208361310b565b9150612d108261356f565b602082019050919050565b6000612d2860298361310b565b9150612d3382613598565b604082019050919050565b612d47816132ad565b82525050565b612d56816132ad565b82525050565b6000602082019050612d716000830184612bee565b92915050565b600060e082019050612d8c600083018a612bdf565b8181036020830152612d9e8189612c79565b90508181036040830152612db28188612c79565b90508181036060830152612dc68187612c79565b9050612dd56080830186612c5b565b612de260a0830185612d4d565b612def60c0830184612d4d565b98975050505050505050565b60006020820190508181036000830152612e158184612bfd565b905092915050565b60006040820190508181036000830152612e378185612bfd565b90508181036020830152612e4b8184612bfd565b90509392505050565b6000602082019050612e696000830184612c5b565b92915050565b60006020820190508181036000830152612e898184612c79565b905092915050565b60006020820190508181036000830152612eaa81612cb2565b9050919050565b60006020820190508181036000830152612eca81612cd5565b9050919050565b60006020820190508181036000830152612eea81612cf8565b9050919050565b60006020820190508181036000830152612f0a81612d1b565b9050919050565b6000602082019050612f266000830184612d4d565b92915050565b600061010082019050612f42600083018b612d4d565b612f4f602083018a612bdf565b8181036040830152612f618189612c79565b90508181036060830152612f758188612c79565b90508181036080830152612f898187612c79565b9050612f9860a0830186612c5b565b612fa560c0830185612c6a565b612fb260e0830184612c6a565b9998505050505050505050565b6000604082019050612fd46000830185612d4d565b612fe16020830184612d4d565b9392505050565b6000612ff2613003565b9050612ffe828261333d565b919050565b6000604051905090565b600067ffffffffffffffff82111561302857613027613473565b5b602082029050602081019050919050565b600067ffffffffffffffff82111561305457613053613473565b5b602082029050602081019050919050565b600067ffffffffffffffff8211156130805761307f613473565b5b613089826134c0565b9050602081019050919050565b600067ffffffffffffffff8211156130b1576130b0613473565b5b6130ba826134c0565b9050602081019050919050565b6000819050602082019050919050565b600081519050919050565b600081519050919050565b6000602082019050919050565b600082825260208201905092915050565b600082825260208201905092915050565b6000613127826132ad565b9150613132836132ad565b9250827fffffffffffffffffffffffffffffffffffffffffffffffffffffffffffffffff03821115613167576131666133b7565b5b828201905092915050565b600061317d826132ad565b9150613188836132ad565b925082613198576131976133e6565b5b828204905092915050565b60006131ae826132ad565b91506131b9836132ad565b9250817fffffffffffffffffffffffffffffffffffffffffffffffffffffffffffffffff04831182151516156131f2576131f16133b7565b5b828202905092915050565b6000613208826132ad565b9150613213836132ad565b925082821015613226576132256133b7565b5b828203905092915050565b600061323c8261328d565b9050919050565b600061324e8261328d565b9050919050565b60008115159050919050565b60007fffffffff0000000000000000000000000000000000000000000000000000000082169050919050565b600073ffffffffffffffffffffffffffffffffffffffff82169050919050565b6000819050919050565b60006132c2826132ad565b9050919050565b82818337600083830152505050565b60005b838110156132f65780820151818401526020810190506132db565b83811115613305576000848401525b50505050565b6000600282049050600182168061332357607f821691505b6020821081141561333757613336613415565b5b50919050565b613346826134c0565b810181811067ffffffffffffffff8211171561336557613364613473565b5b80604052505050565b6000613379826132ad565b91507fffffffffffffffffffffffffffffffffffffffffffffffffffffffffffffffff8214156133ac576133ab6133b7565b5b600182019050919050565b7f4e487b7100000000000000000000000000000000000000000000000000000000600052601160045260246000fd5b7f4e487b7100000000000000000000000000000000000000000000000000000000600052601260045260246000fd5b7f4e487b7100000000000000000000000000000000000000000000000000000000600052602260045260246000fd5b7f4e487b7100000000000000000000000000000000000000000000000000000000600052603260045260246000fd5b7f4e487b7100000000000000000000000000000000000000000000000000000000600052604160045260246000fd5b600080fd5b600080fd5b600080fd5b600080fd5b600080fd5b600080fd5b6000601f19601f8301169050919050565b7f455243313135353a2062616c616e636520717565727920666f7220746865207a60008201527f65726f2061646472657373000000000000000000000000000000000000000000602082015250565b7f4f776e61626c653a206e6577206f776e657220697320746865207a65726f206160008201527f6464726573730000000000000000000000000000000000000000000000000000602082015250565b7f4f776e61626c653a2063616c6c6572206973206e6f7420746865206f776e6572600082015250565b7f455243313135353a206163636f756e747320616e6420696473206c656e67746860008201527f206d69736d617463680000000000000000000000000000000000000000000000602082015250565b6135f081613231565b81146135fb57600080fd5b50565b61360781613243565b811461361257600080fd5b50565b61361e81613255565b811461362957600080fd5b50565b61363581613261565b811461364057600080fd5b50565b61364c816132ad565b811461365757600080fd5b5056fea264697066735822122011317030fea299ed9921f6709de3f4540121e1e950f98b3963d67a1094d5edbf64736f6c63430008060033",
  "immutableReferences": {},
  "source": "// SPDX-License-Identifier: MIT\npragma solidity ^0.8.0;\n\nimport \"./creatortokenownership.sol\";\n\n/// @title Formulas representing the buy and sale price functions, as well as helper functions to efficiently calculate area under the curve\n/// @author Kamil Alizai Sadik\ncontract CreatorTokenFormulas is CreatorTokenOwnership {\n\n\tconstructor(string memory uri) CreatorTokenOwnership(uri) { }\n\n\t/// @dev Calculates area under buy price function\n\t/// @param _startingSupply Supply of token in circulation before the transaction\n\t/// @param _amount Amount of token being purchased\n\t/// @param _mNumerator Numerator of the slope of the buy price function\n\t/// @param _mDenominator Denominator of the slope of the buy price function\n\t/// @return Area under buy price function denoting total proceeds required to buy _amount tokens (before fees)\n\tfunction _buyFunction(uint _startingSupply, uint _amount, uint _mNumerator, uint _mDenominator) internal pure returns (uint256) {\n\t\t// b(x) = m*x\n\t\tuint endSupply = _startingSupply + _amount;\n\t\tuint base1 = _mNumerator*_startingSupply/_mDenominator;\n\t\tuint base2 = _mNumerator*endSupply/_mDenominator;\n\t\tuint height = endSupply-_startingSupply;\n\t\tuint area = (base1 + base2) * height / 2;\n\t\treturn area;\n\t}\n\n\t/// @dev Calculates area under sale price function\n\t/// @param _startingSupply Supply of token in circulation before the transaction\n\t/// @param _amount Amount of token being transacted\n\t/// @param _mNumerator Numerator of the slope of the buy price function\n\t/// @param _mDenominator Denominator of the slope of the buy price function\n\t/// @param _maxSupply Peak level of supply of the token to date\n\t/// @param _profitMargin percentage of total revenue generated routed to creator\n\t/// @return Area under sale price function denoting total proceeds received when selling _amount tokens (before fees)\n\tfunction _saleFunction(uint _startingSupply, uint _amount, uint _mNumerator, uint _mDenominator, uint _maxSupply, uint _profitMargin) public pure returns (uint256) {\n\t\t// Calculate breakpoint and endSupply\n\t\t(uint a, uint b, uint endSupply) = _breakpoint(_startingSupply, _amount, _mNumerator, _mDenominator, _maxSupply, _profitMargin);\n\t\t// Initialize area under curve\n\t\tuint area = 0;\n\t\t// Check where _startingSupply is relative to the breakpoint\n\t\tif (_startingSupply < a) {\n\t\t\t// Just need trapezoidal area of partial entirely left of the breakpoint\n\t\t\tarea = _leftArea(a, b, _startingSupply, endSupply);\n\t\t} else if (endSupply < a) {\n\t\t\t// Scenario in which _startingSupply >= a, and endSupply < a\n\t\t\t// There, need trapezoidal area of components both to right and left of breakpoint\n\t\t\tarea = _bothArea(a, b, _startingSupply, endSupply, _mNumerator, _mDenominator, _maxSupply);\n\t\t} else {\n\t\t\t// Scenario in which entire sale occurs to right of breakpoint\n\t\t\t// Just need trapezoidal area of partial entirely right of the breakpoint\n\t\t\tarea = _rightArea(a, b, _startingSupply, endSupply, _mNumerator, _mDenominator, _maxSupply);\n\t\t}\n\t\treturn area;\n\t}\n\n\t/// @dev Calculates breakpoint and other key inputs into _saleFunction\n\t/// @param _startingSupply Supply of token in circulation before the transaction\n\t/// @param _amount Amount of token being transacted\n\t/// @param _mNumerator Numerator of the slope of the buy price function\n\t/// @param _mDenominator Denominator of the slope of the buy price function\n\t/// @param _maxSupply Peak level of supply of the token to date\n\t/// @param _profitMargin percentage of total revenue generated routed to creator\n\t/// @return x-coordinate of breakpoint, y-coordinate of breakpoint, supply of token after the transaction\n\tfunction _breakpoint(uint _startingSupply, uint _amount, uint _mNumerator, uint _mDenominator, uint _maxSupply, uint _profitMargin) internal pure returns (uint, uint, uint) {\n\t\t// Define breakpoint (a,b) chosen s.t. area under sale price function is (1-profitMargin) times area under buy price function\n\t\tuint a = _maxSupply/2;\n\t\tuint b = _maxSupply*(50-_profitMargin)/100*_mNumerator/_mDenominator;\n\t\tuint endSupply = _startingSupply - _amount;\n\t\treturn (a, b, endSupply);\n\t}\n\n\t/// @dev Computes _saleFunction scenario in which entire transaction occurs left of breakpoint\n\t/// @param _a x-coordinate of breakpoint\n\t/// @param _b y-coordinate of breakpoint\n\t/// @param _startingSupply Supply of token in circulation before the transaction\n\t/// @param _endSupply Supply of token in circulation after the transaction\n\t/// @return Area under the sale price function in this scenario\n\tfunction _leftArea(uint _a, uint _b, uint _startingSupply, uint _endSupply) internal pure returns (uint256) {\n\t\t\t//uint base1 = ((_b/_a)*(_a-_endSupply)+_b);\n\t\t\t//uint base1 = ((_b/_a)*(_endSupply-_a)+_b);\n\t\t\tuint base1 = (_b-(_b/_a)*(_a-_endSupply));\n\t\t\t//uint base2 = ((_b/_a)*(_a-_startingSupply)+_b);\n\t\t\t//uint base2 = ((_b/_a)*(_startingSupply-_a)+_b);\n\t\t\tuint base2 = (_b-(_b/_a)*(_a-_startingSupply));\n\t\t\tuint height = _startingSupply-_endSupply;\n\t\t\treturn (base1 + base2) * height / 2;\n\t}\n\n\t/// @dev Computes _saleFunction scenario in which transaction crosses breakpoint\n\t/// @param _a x-coordinate of breakpoint\n\t/// @param _b y-coordinate of breakpoint\n\t/// @param _startingSupply Supply of token in circulation before the transaction\n\t/// @param _endSupply Supply of token in circulation after the transaction\n\t/// @param _mNumerator Numerator of the slope of the buy price function\n\t/// @param _mDenominator Denominator of the slope of the buy price function\n\t/// @param _maxSupply Peak level of supply of the token to date\n\t/// @return Area under the sale price function in this scenario\n\tfunction _bothArea(uint _a, uint _b, uint _startingSupply, uint _endSupply, uint _mNumerator, uint _mDenominator, uint _maxSupply) internal pure returns (uint256) {\n\t\t//uint leftBase1 = ((_b/_a)*(_a-_endSupply)+_b);\n\t\t//uint leftBase1 = ((_b/_a)*(_endSupply-_a)+_b);\n\t\tuint leftBase1 = (_b-(_b/_a)*(_a-_endSupply));\n\t\tuint sharedBase = _b;\n\t\tuint leftHeight = _a-_endSupply;\n\t\tuint leftArea = (leftBase1 + sharedBase) * leftHeight / 2;\n\t\tuint rightBase2 = (_mNumerator*_maxSupply/_mDenominator-_b)/(_maxSupply-_a)*(_startingSupply-_a)+_b;\n\t\tuint rightHeight = _startingSupply-_a;\n\t\tuint rightArea = (sharedBase + rightBase2) * rightHeight / 2;\n\t\treturn leftArea + rightArea;\n\t}\n\n\t/// @dev Computes _saleFunction scneario in which entire transaction occurs right of breakpoint\n\t/// @param _a x-coordinate of breakpoint\n\t/// @param _b y-coordinate of breakpoint\n\t/// @param _startingSupply Supply of token in circulation before the transaction\n\t/// @param _endSupply Supply of token in circulation after the transaction\n\t/// @param _mNumerator Numerator of the slope of the buy price function\n\t/// @param _mDenominator Denominator of the slope of the buy price function\n\t/// @param _maxSupply Peak level of supply of the token to date\n\t/// @return Area under the sale price function in this scenario\n\tfunction _rightArea(uint _a, uint _b, uint _startingSupply, uint _endSupply, uint _mNumerator, uint _mDenominator, uint _maxSupply) internal pure returns (uint256) {\n\t\tuint base1 = (((_mNumerator*_maxSupply/_mDenominator-_b)/(_maxSupply-_a))*(_endSupply-_a)+_b);\n\t\tuint base2 = (((_mNumerator*_maxSupply/_mDenominator-_b)/(_maxSupply-_a))*(_startingSupply-_a)+_b);\n\t\tuint height = _startingSupply-_endSupply;\n\t\treturn (base1 + base2) * height / 2;\n\t}\n}",
  "sourcePath": "/Users/kamilalizaisadik/DeFi/Dynamic Automated Market Maker/CreatorTokenExchange/contracts/creatortokenformulas.sol",
  "compiler": {
    "name": "solc",
    "version": "0.8.6+commit.11564f7e.Emscripten.clang"
  },
  "schemaVersion": "3.4.1",
  "updatedAt": "2021-08-11T01:04:08.983Z",
  "devdoc": {
    "author": "Kamil Alizai Sadik",
    "kind": "dev",
    "methods": {
      "_saleFunction(uint256,uint256,uint256,uint256,uint256,uint256)": {
        "details": "Calculates area under sale price function",
        "params": {
          "_amount": "Amount of token being transacted",
          "_mDenominator": "Denominator of the slope of the buy price function",
          "_mNumerator": "Numerator of the slope of the buy price function",
          "_maxSupply": "Peak level of supply of the token to date",
          "_profitMargin": "percentage of total revenue generated routed to creator",
          "_startingSupply": "Supply of token in circulation before the transaction"
        },
        "returns": {
          "_0": "Area under sale price function denoting total proceeds received when selling _amount tokens (before fees)"
        }
      },
      "balanceOf(address,uint256)": {
        "details": "See {IERC1155-balanceOf}. Requirements: - `account` cannot be the zero address."
      },
      "balanceOfBatch(address[],uint256[])": {
        "details": "See {IERC1155-balanceOfBatch}. Requirements: - `accounts` and `ids` must have the same length."
      },
      "changeAddress(uint256,address)": {
        "details": "Allows token creator to change their address",
        "params": {
          "_newCreatorAddress": "New creator address associated with the token",
          "_tokenId": "ID of the token in question"
        }
      },
      "changeDescription(uint256,string)": {
        "details": "Allows token creator to change the description of their token",
        "params": {
          "_newDescription": "New description associated with the token",
          "_tokenId": "ID of the token in question"
        }
      },
      "changeName(uint256,string)": {
        "details": "Allows token creator to change the name of their token",
        "params": {
          "_newName": "New name associated with the token",
          "_tokenId": "ID of the token in question"
        }
      },
      "changePlatformFee(uint256)": {
        "details": "Allows owner to change platformFee",
        "params": {
          "_newPlatformFee": "New platform fee"
        }
      },
      "changeProfitMargin(uint256)": {
        "details": "Allows owner to change profit_margin",
        "params": {
          "_newProfitMargin": "New profit margin"
        }
      },
      "changeSymbol(uint256,string)": {
        "details": "Allows token creator to change the symbol of their token",
        "params": {
          "_newSymbol": "New symbol associated with the token",
          "_tokenId": "ID of the token in question"
        }
      },
      "changeVerification(uint256,bool)": {
        "details": "Allows owner to verify (or undo verification) of a CreatorToken",
        "params": {
          "_tokenId": "ID of the token in question",
          "_verified": "Verification status of the token in question"
        }
      },
      "createCreatorToken(address,string,string,string)": {
        "details": "Creates a new creator token",
        "params": {
          "_creatorAddress": "Address of the creator of the token",
          "_description": "chosen by the creator of the tokens",
          "_name": "Name chosen by the creator of the token",
          "_symbol": "Ticker symbol chosen by the creator of the token"
        }
      },
      "getCreatorTokenCount()": {
        "details": "Returns the current length of the creatorTokens array",
        "returns": {
          "_0": "uint representing number of unique Creator Tokens"
        }
      },
      "isApprovedForAll(address,address)": {
        "details": "Denotes whether operator is approved to transfer account's tokens",
        "params": {
          "_account": "Wallet address holding tokens",
          "_operator": "Wallet address which is/isn't approved to transfer _account's tokens"
        },
        "returns": {
          "_0": "Boolean value indicating approval status"
        }
      },
      "owner()": {
        "details": "Returns the address of the current owner."
      },
      "payoutPlatformFees(address)": {
        "details": "Pays out platform fees owed to owner (might opt to call this daily)",
        "params": {
          "_owner": "Owner of the smart contract"
        }
      },
      "renounceOwnership()": {
        "details": "Leaves the contract without owner. It will not be possible to call `onlyOwner` functions anymore. Can only be called by the current owner. NOTE: Renouncing ownership will leave the contract without an owner, thereby removing any functionality that is only available to the owner."
      },
      "safeBatchTransferFrom(address,address,uint256[],uint256[],bytes)": {
        "details": "Transfers a batch of tokens",
        "params": {
          "_amounts": "Array of quantities of token to be transferred",
          "_data": "Data",
          "_from": "Address token is being transferred from",
          "_ids": "Array of IDs of tokens being transferred",
          "_to": "Address token is being transferred to"
        }
      },
      "safeTransferFrom(address,address,uint256,uint256,bytes)": {
        "details": "Transfers a token",
        "params": {
          "_amount": "Quantity of token to be transferred",
          "_data": "Data",
          "_from": "Address token is being transferred from",
          "_id": "ID of token being transferred",
          "_to": "Address token is being transferred to"
        }
      },
      "setApprovalForAll(address,bool)": {
        "details": "Gives operator permission to transfer caller's tokens",
        "params": {
          "_approved": "Boolean value indicating whether operator is approved",
          "_operator": "Wallet address being granted permission"
        }
      },
      "supportsInterface(bytes4)": {
        "details": "See {IERC165-supportsInterface}."
      },
      "transferOwnership(address)": {
        "details": "Transfers ownership of the contract to a new account (`newOwner`). Can only be called by the current owner."
      },
      "uri(uint256)": {
        "details": "See {IERC1155MetadataURI-uri}. This implementation returns the same URI for *all* token types. It relies on the token type ID substitution mechanism https://eips.ethereum.org/EIPS/eip-1155#metadata[defined in the EIP]. Clients calling this function must replace the `\\{id\\}` substring with the actual token type ID."
      },
      "withdraw(address)": {
        "details": "Ownable function allowing for withdrawal",
        "params": {
          "_owner": "Owner of the smart contract"
        }
      }
    },
    "title": "Formulas representing the buy and sale price functions, as well as helper functions to efficiently calculate area under the curve",
    "version": 1
  },
  "userdoc": {
    "kind": "user",
    "methods": {},
    "version": 1
  }
}