{
  "contractName": "CreatorTokenExchange",
  "abi": [
    {
      "inputs": [
        {
          "internalType": "string",
          "name": "uri",
          "type": "string"
        }
      ],
      "stateMutability": "nonpayable",
      "type": "constructor"
    },
    {
      "anonymous": false,
      "inputs": [
        {
          "indexed": true,
          "internalType": "address",
          "name": "account",
          "type": "address"
        },
        {
          "indexed": true,
          "internalType": "address",
          "name": "operator",
          "type": "address"
        },
        {
          "indexed": false,
          "internalType": "bool",
          "name": "approved",
          "type": "bool"
        }
      ],
      "name": "ApprovalForAll",
      "type": "event"
    },
    {
      "anonymous": false,
      "inputs": [
        {
          "indexed": false,
          "internalType": "uint256",
          "name": "tokenId",
          "type": "uint256"
        },
        {
          "indexed": false,
          "internalType": "address payable",
          "name": "creatorAddress",
          "type": "address"
        },
        {
          "indexed": false,
          "internalType": "string",
          "name": "name",
          "type": "string"
        },
        {
          "indexed": false,
          "internalType": "string",
          "name": "symbol",
          "type": "string"
        },
        {
          "indexed": false,
          "internalType": "string",
          "name": "description",
          "type": "string"
        },
        {
          "indexed": false,
          "internalType": "bool",
          "name": "verified",
          "type": "bool"
        },
        {
          "indexed": false,
          "internalType": "uint256",
          "name": "outstanding",
          "type": "uint256"
        },
        {
          "indexed": false,
          "internalType": "uint256",
          "name": "maxSupply",
          "type": "uint256"
        }
      ],
      "name": "NewCreatorToken",
      "type": "event"
    },
    {
      "anonymous": false,
      "inputs": [
        {
          "indexed": true,
          "internalType": "address",
          "name": "account",
          "type": "address"
        },
        {
          "indexed": false,
          "internalType": "uint256",
          "name": "amount",
          "type": "uint256"
        },
        {
          "indexed": false,
          "internalType": "string",
          "name": "transactionType",
          "type": "string"
        },
        {
          "indexed": false,
          "internalType": "uint256",
          "name": "tokenId",
          "type": "uint256"
        },
        {
          "indexed": false,
          "internalType": "string",
          "name": "name",
          "type": "string"
        },
        {
          "indexed": false,
          "internalType": "string",
          "name": "symbol",
          "type": "string"
        }
      ],
      "name": "NewTransaction",
      "type": "event"
    },
    {
      "anonymous": false,
      "inputs": [
        {
          "indexed": true,
          "internalType": "address",
          "name": "previousOwner",
          "type": "address"
        },
        {
          "indexed": true,
          "internalType": "address",
          "name": "newOwner",
          "type": "address"
        }
      ],
      "name": "OwnershipTransferred",
      "type": "event"
    },
    {
      "anonymous": false,
      "inputs": [
        {
          "indexed": false,
          "internalType": "address",
          "name": "account",
          "type": "address"
        }
      ],
      "name": "Paused",
      "type": "event"
    },
    {
      "anonymous": false,
      "inputs": [
        {
          "indexed": true,
          "internalType": "bytes32",
          "name": "role",
          "type": "bytes32"
        },
        {
          "indexed": true,
          "internalType": "bytes32",
          "name": "previousAdminRole",
          "type": "bytes32"
        },
        {
          "indexed": true,
          "internalType": "bytes32",
          "name": "newAdminRole",
          "type": "bytes32"
        }
      ],
      "name": "RoleAdminChanged",
      "type": "event"
    },
    {
      "anonymous": false,
      "inputs": [
        {
          "indexed": true,
          "internalType": "bytes32",
          "name": "role",
          "type": "bytes32"
        },
        {
          "indexed": true,
          "internalType": "address",
          "name": "account",
          "type": "address"
        },
        {
          "indexed": true,
          "internalType": "address",
          "name": "sender",
          "type": "address"
        }
      ],
      "name": "RoleGranted",
      "type": "event"
    },
    {
      "anonymous": false,
      "inputs": [
        {
          "indexed": true,
          "internalType": "bytes32",
          "name": "role",
          "type": "bytes32"
        },
        {
          "indexed": true,
          "internalType": "address",
          "name": "account",
          "type": "address"
        },
        {
          "indexed": true,
          "internalType": "address",
          "name": "sender",
          "type": "address"
        }
      ],
      "name": "RoleRevoked",
      "type": "event"
    },
    {
      "anonymous": false,
      "inputs": [
        {
          "indexed": true,
          "internalType": "address",
          "name": "operator",
          "type": "address"
        },
        {
          "indexed": true,
          "internalType": "address",
          "name": "from",
          "type": "address"
        },
        {
          "indexed": true,
          "internalType": "address",
          "name": "to",
          "type": "address"
        },
        {
          "indexed": false,
          "internalType": "uint256[]",
          "name": "ids",
          "type": "uint256[]"
        },
        {
          "indexed": false,
          "internalType": "uint256[]",
          "name": "values",
          "type": "uint256[]"
        }
      ],
      "name": "TransferBatch",
      "type": "event"
    },
    {
      "anonymous": false,
      "inputs": [
        {
          "indexed": true,
          "internalType": "address",
          "name": "operator",
          "type": "address"
        },
        {
          "indexed": true,
          "internalType": "address",
          "name": "from",
          "type": "address"
        },
        {
          "indexed": true,
          "internalType": "address",
          "name": "to",
          "type": "address"
        },
        {
          "indexed": false,
          "internalType": "uint256",
          "name": "id",
          "type": "uint256"
        },
        {
          "indexed": false,
          "internalType": "uint256",
          "name": "value",
          "type": "uint256"
        }
      ],
      "name": "TransferSingle",
      "type": "event"
    },
    {
      "anonymous": false,
      "inputs": [
        {
          "indexed": false,
          "internalType": "string",
          "name": "value",
          "type": "string"
        },
        {
          "indexed": true,
          "internalType": "uint256",
          "name": "id",
          "type": "uint256"
        }
      ],
      "name": "URI",
      "type": "event"
    },
    {
      "anonymous": false,
      "inputs": [
        {
          "indexed": false,
          "internalType": "address",
          "name": "account",
          "type": "address"
        }
      ],
      "name": "Unpaused",
      "type": "event"
    },
    {
      "inputs": [],
      "name": "DEFAULT_ADMIN_ROLE",
      "outputs": [
        {
          "internalType": "bytes32",
          "name": "",
          "type": "bytes32"
        }
      ],
      "stateMutability": "view",
      "type": "function"
    },
    {
      "inputs": [],
      "name": "MINTER_ROLE",
      "outputs": [
        {
          "internalType": "bytes32",
          "name": "",
          "type": "bytes32"
        }
      ],
      "stateMutability": "view",
      "type": "function"
    },
    {
      "inputs": [],
      "name": "PAUSER_ROLE",
      "outputs": [
        {
          "internalType": "bytes32",
          "name": "",
          "type": "bytes32"
        }
      ],
      "stateMutability": "view",
      "type": "function"
    },
    {
      "inputs": [
        {
          "internalType": "uint256",
          "name": "_tokenId",
          "type": "uint256"
        },
        {
          "internalType": "uint256",
          "name": "_amount",
          "type": "uint256"
        }
      ],
      "name": "_buyProceeds",
      "outputs": [
        {
          "internalType": "uint256",
          "name": "",
          "type": "uint256"
        }
      ],
      "stateMutability": "view",
      "type": "function"
    },
    {
      "inputs": [
        {
          "internalType": "uint256",
          "name": "_proceedsRequired",
          "type": "uint256"
        }
      ],
      "name": "_feeProceeds",
      "outputs": [
        {
          "internalType": "uint256",
          "name": "",
          "type": "uint256"
        }
      ],
      "stateMutability": "view",
      "type": "function"
    },
    {
      "inputs": [
        {
          "internalType": "uint256",
          "name": "_tokenId",
          "type": "uint256"
        },
        {
          "internalType": "uint256",
          "name": "_amount",
          "type": "uint256"
        }
      ],
      "name": "_totalProceeds",
      "outputs": [
        {
          "internalType": "uint256",
          "name": "",
          "type": "uint256"
        }
      ],
      "stateMutability": "view",
      "type": "function"
    },
    {
      "inputs": [
        {
          "internalType": "address",
          "name": "_account",
          "type": "address"
        },
        {
          "internalType": "uint256",
          "name": "_id",
          "type": "uint256"
        }
      ],
      "name": "balanceOf",
      "outputs": [
        {
          "internalType": "uint256",
          "name": "",
          "type": "uint256"
        }
      ],
      "stateMutability": "view",
      "type": "function"
    },
    {
      "inputs": [
        {
          "internalType": "address[]",
          "name": "_accounts",
          "type": "address[]"
        },
        {
          "internalType": "uint256[]",
          "name": "_ids",
          "type": "uint256[]"
        }
      ],
      "name": "balanceOfBatch",
      "outputs": [
        {
          "internalType": "uint256[]",
          "name": "",
          "type": "uint256[]"
        }
      ],
      "stateMutability": "view",
      "type": "function"
    },
    {
      "inputs": [
        {
          "internalType": "address",
          "name": "_account",
          "type": "address"
        },
        {
          "internalType": "uint256",
          "name": "_id",
          "type": "uint256"
        },
        {
          "internalType": "uint256",
          "name": "_amount",
          "type": "uint256"
        }
      ],
      "name": "burn",
      "outputs": [],
      "stateMutability": "nonpayable",
      "type": "function"
    },
    {
      "inputs": [
        {
          "internalType": "address",
          "name": "_account",
          "type": "address"
        },
        {
          "internalType": "uint256[]",
          "name": "_ids",
          "type": "uint256[]"
        },
        {
          "internalType": "uint256[]",
          "name": "_amounts",
          "type": "uint256[]"
        }
      ],
      "name": "burnBatch",
      "outputs": [],
      "stateMutability": "nonpayable",
      "type": "function"
    },
    {
      "inputs": [
        {
          "internalType": "uint256",
          "name": "_tokenId",
          "type": "uint256"
        },
        {
          "internalType": "address payable",
          "name": "_newCreatorAddress",
          "type": "address"
        }
      ],
      "name": "changeAddress",
      "outputs": [],
      "stateMutability": "nonpayable",
      "type": "function"
    },
    {
      "inputs": [
        {
          "internalType": "uint256",
          "name": "_tokenId",
          "type": "uint256"
        },
        {
          "internalType": "string",
          "name": "_newDescription",
          "type": "string"
        }
      ],
      "name": "changeDescription",
      "outputs": [],
      "stateMutability": "nonpayable",
      "type": "function"
    },
    {
      "inputs": [
        {
          "internalType": "uint256",
          "name": "_tokenId",
          "type": "uint256"
        },
        {
          "internalType": "string",
          "name": "_newName",
          "type": "string"
        }
      ],
      "name": "changeName",
      "outputs": [],
      "stateMutability": "nonpayable",
      "type": "function"
    },
    {
      "inputs": [
        {
          "internalType": "uint256",
          "name": "_newPlatformFee",
          "type": "uint256"
        }
      ],
      "name": "changePlatformFee",
      "outputs": [],
      "stateMutability": "nonpayable",
      "type": "function"
    },
    {
      "inputs": [
        {
          "internalType": "uint256",
          "name": "_newProfitMargin",
          "type": "uint256"
        }
      ],
      "name": "changeProfitMargin",
      "outputs": [],
      "stateMutability": "nonpayable",
      "type": "function"
    },
    {
      "inputs": [
        {
          "internalType": "uint256",
          "name": "_tokenId",
          "type": "uint256"
        },
        {
          "internalType": "string",
          "name": "_newSymbol",
          "type": "string"
        }
      ],
      "name": "changeSymbol",
      "outputs": [],
      "stateMutability": "nonpayable",
      "type": "function"
    },
    {
      "inputs": [
        {
          "internalType": "uint256",
          "name": "_tokenId",
          "type": "uint256"
        },
        {
          "internalType": "bool",
          "name": "_verified",
          "type": "bool"
        }
      ],
      "name": "changeVerification",
      "outputs": [],
      "stateMutability": "nonpayable",
      "type": "function"
    },
    {
      "inputs": [
        {
          "internalType": "address payable",
          "name": "_creatorAddress",
          "type": "address"
        },
        {
          "internalType": "string",
          "name": "_name",
          "type": "string"
        },
        {
          "internalType": "string",
          "name": "_symbol",
          "type": "string"
        },
        {
          "internalType": "string",
          "name": "_description",
          "type": "string"
        }
      ],
      "name": "createCreatorToken",
      "outputs": [],
      "stateMutability": "nonpayable",
      "type": "function"
    },
    {
      "inputs": [
        {
          "internalType": "uint256",
          "name": "",
          "type": "uint256"
        }
      ],
      "name": "creatorTokens",
      "outputs": [
        {
          "internalType": "address payable",
          "name": "creatorAddress",
          "type": "address"
        },
        {
          "internalType": "string",
          "name": "name",
          "type": "string"
        },
        {
          "internalType": "string",
          "name": "symbol",
          "type": "string"
        },
        {
          "internalType": "string",
          "name": "description",
          "type": "string"
        },
        {
          "internalType": "bool",
          "name": "verified",
          "type": "bool"
        },
        {
          "internalType": "uint256",
          "name": "outstanding",
          "type": "uint256"
        },
        {
          "internalType": "uint256",
          "name": "maxSupply",
          "type": "uint256"
        }
      ],
      "stateMutability": "view",
      "type": "function"
    },
    {
      "inputs": [
        {
          "internalType": "bytes32",
          "name": "role",
          "type": "bytes32"
        }
      ],
      "name": "getRoleAdmin",
      "outputs": [
        {
          "internalType": "bytes32",
          "name": "",
          "type": "bytes32"
        }
      ],
      "stateMutability": "view",
      "type": "function"
    },
    {
      "inputs": [
        {
          "internalType": "bytes32",
          "name": "role",
          "type": "bytes32"
        },
        {
          "internalType": "uint256",
          "name": "index",
          "type": "uint256"
        }
      ],
      "name": "getRoleMember",
      "outputs": [
        {
          "internalType": "address",
          "name": "",
          "type": "address"
        }
      ],
      "stateMutability": "view",
      "type": "function"
    },
    {
      "inputs": [
        {
          "internalType": "bytes32",
          "name": "role",
          "type": "bytes32"
        }
      ],
      "name": "getRoleMemberCount",
      "outputs": [
        {
          "internalType": "uint256",
          "name": "",
          "type": "uint256"
        }
      ],
      "stateMutability": "view",
      "type": "function"
    },
    {
      "inputs": [
        {
          "internalType": "bytes32",
          "name": "role",
          "type": "bytes32"
        },
        {
          "internalType": "address",
          "name": "account",
          "type": "address"
        }
      ],
      "name": "grantRole",
      "outputs": [],
      "stateMutability": "nonpayable",
      "type": "function"
    },
    {
      "inputs": [
        {
          "internalType": "bytes32",
          "name": "role",
          "type": "bytes32"
        },
        {
          "internalType": "address",
          "name": "account",
          "type": "address"
        }
      ],
      "name": "hasRole",
      "outputs": [
        {
          "internalType": "bool",
          "name": "",
          "type": "bool"
        }
      ],
      "stateMutability": "view",
      "type": "function"
    },
    {
      "inputs": [
        {
          "internalType": "address",
          "name": "_account",
          "type": "address"
        },
        {
          "internalType": "address",
          "name": "_operator",
          "type": "address"
        }
      ],
      "name": "isApprovedForAll",
      "outputs": [
        {
          "internalType": "bool",
          "name": "",
          "type": "bool"
        }
      ],
      "stateMutability": "view",
      "type": "function"
    },
    {
      "inputs": [
        {
          "internalType": "address",
          "name": "_account",
          "type": "address"
        },
        {
          "internalType": "uint256",
          "name": "_id",
          "type": "uint256"
        },
        {
          "internalType": "uint256",
          "name": "_amount",
          "type": "uint256"
        }
      ],
      "name": "mappingDecrease",
      "outputs": [],
      "stateMutability": "nonpayable",
      "type": "function"
    },
    {
      "inputs": [
        {
          "internalType": "address",
          "name": "_account",
          "type": "address"
        },
        {
          "internalType": "uint256",
          "name": "_id",
          "type": "uint256"
        },
        {
          "internalType": "uint256",
          "name": "_amount",
          "type": "uint256"
        }
      ],
      "name": "mappingIncrease",
      "outputs": [],
      "stateMutability": "nonpayable",
      "type": "function"
    },
    {
      "inputs": [
        {
          "internalType": "address",
          "name": "_to",
          "type": "address"
        },
        {
          "internalType": "uint256",
          "name": "_id",
          "type": "uint256"
        },
        {
          "internalType": "uint256",
          "name": "_amount",
          "type": "uint256"
        },
        {
          "internalType": "bytes",
          "name": "_data",
          "type": "bytes"
        }
      ],
      "name": "mint",
      "outputs": [],
      "stateMutability": "nonpayable",
      "type": "function"
    },
    {
      "inputs": [
        {
          "internalType": "address",
          "name": "_to",
          "type": "address"
        },
        {
          "internalType": "uint256[]",
          "name": "_ids",
          "type": "uint256[]"
        },
        {
          "internalType": "uint256[]",
          "name": "_amounts",
          "type": "uint256[]"
        },
        {
          "internalType": "bytes",
          "name": "data",
          "type": "bytes"
        }
      ],
      "name": "mintBatch",
      "outputs": [],
      "stateMutability": "nonpayable",
      "type": "function"
    },
    {
      "inputs": [],
      "name": "owner",
      "outputs": [
        {
          "internalType": "address",
          "name": "",
          "type": "address"
        }
      ],
      "stateMutability": "view",
      "type": "function"
    },
    {
      "inputs": [],
      "name": "pause",
      "outputs": [],
      "stateMutability": "nonpayable",
      "type": "function"
    },
    {
      "inputs": [],
      "name": "paused",
      "outputs": [
        {
          "internalType": "bool",
          "name": "",
          "type": "bool"
        }
      ],
      "stateMutability": "view",
      "type": "function"
    },
    {
      "inputs": [
        {
          "internalType": "address payable",
          "name": "_owner",
          "type": "address"
        }
      ],
      "name": "payoutPlatformFees",
      "outputs": [],
      "stateMutability": "nonpayable",
      "type": "function"
    },
    {
      "inputs": [],
      "name": "renounceOwnership",
      "outputs": [],
      "stateMutability": "nonpayable",
      "type": "function"
    },
    {
      "inputs": [
        {
          "internalType": "bytes32",
          "name": "role",
          "type": "bytes32"
        },
        {
          "internalType": "address",
          "name": "account",
          "type": "address"
        }
      ],
      "name": "renounceRole",
      "outputs": [],
      "stateMutability": "nonpayable",
      "type": "function"
    },
    {
      "inputs": [
        {
          "internalType": "bytes32",
          "name": "role",
          "type": "bytes32"
        },
        {
          "internalType": "address",
          "name": "account",
          "type": "address"
        }
      ],
      "name": "revokeRole",
      "outputs": [],
      "stateMutability": "nonpayable",
      "type": "function"
    },
    {
      "inputs": [
        {
          "internalType": "address",
          "name": "_from",
          "type": "address"
        },
        {
          "internalType": "address",
          "name": "_to",
          "type": "address"
        },
        {
          "internalType": "uint256[]",
          "name": "_ids",
          "type": "uint256[]"
        },
        {
          "internalType": "uint256[]",
          "name": "_amounts",
          "type": "uint256[]"
        },
        {
          "internalType": "bytes",
          "name": "data",
          "type": "bytes"
        }
      ],
      "name": "safeBatchTransferFrom",
      "outputs": [],
      "stateMutability": "nonpayable",
      "type": "function"
    },
    {
      "inputs": [
        {
          "internalType": "address",
          "name": "_from",
          "type": "address"
        },
        {
          "internalType": "address",
          "name": "_to",
          "type": "address"
        },
        {
          "internalType": "uint256",
          "name": "_id",
          "type": "uint256"
        },
        {
          "internalType": "uint256",
          "name": "_amount",
          "type": "uint256"
        },
        {
          "internalType": "bytes",
          "name": "_data",
          "type": "bytes"
        }
      ],
      "name": "safeTransferFrom",
      "outputs": [],
      "stateMutability": "nonpayable",
      "type": "function"
    },
    {
      "inputs": [
        {
          "internalType": "address",
          "name": "_operator",
          "type": "address"
        },
        {
          "internalType": "bool",
          "name": "_approved",
          "type": "bool"
        }
      ],
      "name": "setApprovalForAll",
      "outputs": [],
      "stateMutability": "nonpayable",
      "type": "function"
    },
    {
      "inputs": [
        {
          "internalType": "bytes4",
          "name": "interfaceId",
          "type": "bytes4"
        }
      ],
      "name": "supportsInterface",
      "outputs": [
        {
          "internalType": "bool",
          "name": "",
          "type": "bool"
        }
      ],
      "stateMutability": "view",
      "type": "function"
    },
    {
      "inputs": [
        {
          "internalType": "uint256",
          "name": "",
          "type": "uint256"
        },
        {
          "internalType": "address",
          "name": "",
          "type": "address"
        }
      ],
      "name": "tokenHoldership",
      "outputs": [
        {
          "internalType": "uint256",
          "name": "",
          "type": "uint256"
        }
      ],
      "stateMutability": "view",
      "type": "function"
    },
    {
      "inputs": [
        {
          "internalType": "uint256",
          "name": "",
          "type": "uint256"
        }
      ],
      "name": "tokenToCreator",
      "outputs": [
        {
          "internalType": "address",
          "name": "",
          "type": "address"
        }
      ],
      "stateMutability": "view",
      "type": "function"
    },
    {
      "inputs": [
        {
          "internalType": "address",
          "name": "newOwner",
          "type": "address"
        }
      ],
      "name": "transferOwnership",
      "outputs": [],
      "stateMutability": "nonpayable",
      "type": "function"
    },
    {
      "inputs": [],
      "name": "unpause",
      "outputs": [],
      "stateMutability": "nonpayable",
      "type": "function"
    },
    {
      "inputs": [
        {
          "internalType": "uint256",
          "name": "",
          "type": "uint256"
        }
      ],
      "name": "uri",
      "outputs": [
        {
          "internalType": "string",
          "name": "",
          "type": "string"
        }
      ],
      "stateMutability": "view",
      "type": "function"
    },
    {
      "inputs": [
        {
          "internalType": "address",
          "name": "",
          "type": "address"
        },
        {
          "internalType": "uint256",
          "name": "",
          "type": "uint256"
        }
      ],
      "name": "userToHoldings",
      "outputs": [
        {
          "internalType": "uint256",
          "name": "",
          "type": "uint256"
        }
      ],
      "stateMutability": "view",
      "type": "function"
    },
    {
      "inputs": [
        {
          "internalType": "address payable",
          "name": "_owner",
          "type": "address"
        }
      ],
      "name": "withdraw",
      "outputs": [],
      "stateMutability": "nonpayable",
      "type": "function"
    },
    {
      "inputs": [
        {
          "internalType": "uint256",
          "name": "_tokenId",
          "type": "uint256"
        },
        {
          "internalType": "uint256",
          "name": "_amount",
          "type": "uint256"
        }
      ],
      "name": "buyCreatorToken",
      "outputs": [],
      "stateMutability": "payable",
      "type": "function"
    },
    {
      "inputs": [
        {
          "internalType": "uint256",
          "name": "_tokenId",
          "type": "uint256"
        },
        {
          "internalType": "uint256",
          "name": "_amount",
          "type": "uint256"
        },
        {
          "internalType": "address payable",
          "name": "_seller",
          "type": "address"
        }
      ],
      "name": "sellCreatorToken",
      "outputs": [],
      "stateMutability": "payable",
      "type": "function"
    }
  ],
  "bytecode": "0x60806040526001805560006002556000600355601460045565082f79cd900060055560b96006553480156200003357600080fd5b5060405162006461380380620064618339818101604052810190620000599190620005d0565b808080808080600062000071620001ee60201b60201c565b9050806000806101000a81548173ffffffffffffffffffffffffffffffffffffffff021916908373ffffffffffffffffffffffffffffffffffffffff1602179055508073ffffffffffffffffffffffffffffffffffffffff16600073ffffffffffffffffffffffffffffffffffffffff167f8be0079c531659141344cd1fd0a4f28419497f9722a3daafe3b4186f6b6457e060405160405180910390a3506200012081620001f660201b60201c565b506000601260006101000a81548160ff021916908315150217905550620001606000801b62000154620001ee60201b60201c565b6200021260201b60201c565b620001a17f9f2df0fed2c77648de5860a4cc508cd0818c85b8b8a1ab4ceeef8d981c8956a662000195620001ee60201b60201c565b6200021260201b60201c565b620001e27f65d7a28e3265b37a6474929f336521b332c1681b933f6cb9f3376673440d862a620001d6620001ee60201b60201c565b6200021260201b60201c565b505050505050620007a5565b600033905090565b80601190805190602001906200020e929190620004a2565b5050565b6200022982826200025a60201b62002db51760201c565b6200025581600e60008581526020019081526020016000206200027060201b62002dc31790919060201c565b505050565b6200026c8282620002a860201b60201c565b5050565b6000620002a0836000018373ffffffffffffffffffffffffffffffffffffffff1660001b6200039a60201b60201c565b905092915050565b620002ba82826200041460201b60201c565b62000396576001600d600084815260200190815260200160002060000160008373ffffffffffffffffffffffffffffffffffffffff1673ffffffffffffffffffffffffffffffffffffffff16815260200190815260200160002060006101000a81548160ff0219169083151502179055506200033b620001ee60201b60201c565b73ffffffffffffffffffffffffffffffffffffffff168173ffffffffffffffffffffffffffffffffffffffff16837f2f8788117e7eff1d82e926ec794901d17c78024a50270940304540a733656f0d60405160405180910390a45b5050565b6000620003ae83836200047f60201b60201c565b620004095782600001829080600181540180825580915050600190039060005260206000200160009091909190915055826000018054905083600101600084815260200190815260200160002081905550600190506200040e565b600090505b92915050565b6000600d600084815260200190815260200160002060000160008373ffffffffffffffffffffffffffffffffffffffff1673ffffffffffffffffffffffffffffffffffffffff16815260200190815260200160002060009054906101000a900460ff16905092915050565b600080836001016000848152602001908152602001600020541415905092915050565b828054620004b090620006b6565b90600052602060002090601f016020900481019282620004d4576000855562000520565b82601f10620004ef57805160ff191683800117855562000520565b8280016001018555821562000520579182015b828111156200051f57825182559160200191906001019062000502565b5b5090506200052f919062000533565b5090565b5b808211156200054e57600081600090555060010162000534565b5090565b60006200056962000563846200064a565b62000621565b90508281526020810184848401111562000588576200058762000785565b5b6200059584828562000680565b509392505050565b600082601f830112620005b557620005b462000780565b5b8151620005c784826020860162000552565b91505092915050565b600060208284031215620005e957620005e86200078f565b5b600082015167ffffffffffffffff8111156200060a57620006096200078a565b5b62000618848285016200059d565b91505092915050565b60006200062d62000640565b90506200063b8282620006ec565b919050565b6000604051905090565b600067ffffffffffffffff82111562000668576200066762000751565b5b620006738262000794565b9050602081019050919050565b60005b83811015620006a057808201518184015260208101905062000683565b83811115620006b0576000848401525b50505050565b60006002820490506001821680620006cf57607f821691505b60208210811415620006e657620006e562000722565b5b50919050565b620006f78262000794565b810181811067ffffffffffffffff8211171562000719576200071862000751565b5b80604052505050565b7f4e487b7100000000000000000000000000000000000000000000000000000000600052602260045260246000fd5b7f4e487b7100000000000000000000000000000000000000000000000000000000600052604160045260246000fd5b600080fd5b600080fd5b600080fd5b600080fd5b6000601f19601f8301169050919050565b615cac80620007b56000396000f3fe6080604052600436106102ad5760003560e01c80639010d07c11610175578063d547741f116100dc578063eb84175911610095578063f5298aca1161006f578063f5298aca14610af4578063f56e71b414610b1d578063f7374e2e14610b46578063fffae94114610b6f576102ad565b8063eb84175914610a79578063f242432a14610aa2578063f2fde38b14610acb576102ad565b8063d547741f1461096d578063d56b72c714610996578063d7a5791a146109bf578063de6a06ed146109e8578063e63ab1e914610a11578063e985e9c514610a3c576102ad565b8063bfb48c9c1161012e578063bfb48c9c14610833578063c39cbef114610870578063c539c31714610899578063ca15c873146108c2578063ce901d8a146108ff578063d539139314610942576102ad565b80639010d07c146106eb57806391d148541461072857806392724afa14610765578063a217fddf146107a2578063a22cb465146107cd578063ba111a05146107f6576102ad565b806336568abe116102195780635d4222cd116101d25780635d4222cd146106175780636b20c45414610640578063715018a614610669578063731133e9146106805780638456cb59146106a95780638da5cb5b146106c0576102ad565b806336568abe146105095780633f4ba83a146105325780634e1273f4146105495780634fe477d81461058657806351cff8d9146105c35780635c975abb146105ec576102ad565b80631f7fdffa1161026b5780631f7fdffa146103f8578063248a9ca3146104215780632dcfdaf71461045e5780632eb2c2d61461047a5780632f2ff15d146104a357806335a8ae21146104cc576102ad565b8062fdd58e146102b257806301ffc9a7146102ef57806306e320f51461032c5780630e89341c1461035557806318892ae8146103925780631d5ad18b146103cf575b600080fd5b3480156102be57600080fd5b506102d960048036038101906102d491906147ab565b610b8b565b6040516102e69190615236565b60405180910390f35b3480156102fb57600080fd5b50610316600480360381019061031191906149ef565b610be6565b60405161032391906150be565b60405180910390f35b34801561033857600080fd5b50610353600480360381019061034e9190614b09565b610bf8565b005b34801561036157600080fd5b5061037c60048036038101906103779190614a1c565b610c9f565b60405161038991906150f4565b60405180910390f35b34801561039e57600080fd5b506103b960048036038101906103b49190614a1c565b610d33565b6040516103c69190614fc6565b60405180910390f35b3480156103db57600080fd5b506103f660048036038101906103f19190614a89565b610d66565b005b34801561040457600080fd5b5061041f600480360381019061041a91906146b0565b610e3b565b005b34801561042d57600080fd5b5061044860048036038101906104439190614942565b610f8f565b60405161045591906150d9565b60405180910390f35b61047860048036038101906104739190614ba9565b610faf565b005b34801561048657600080fd5b506104a1600480360381019061049c91906144bf565b611173565b005b3480156104af57600080fd5b506104ca60048036038101906104c5919061496f565b611296565b005b3480156104d857600080fd5b506104f360048036038101906104ee9190614b69565b6112ca565b6040516105009190615236565b60405180910390f35b34801561051557600080fd5b50610530600480360381019061052b919061496f565b611302565b005b34801561053e57600080fd5b50610547611336565b005b34801561055557600080fd5b50610570600480360381019061056b91906148c1565b6113b0565b60405161057d9190615065565b60405180910390f35b34801561059257600080fd5b506105ad60048036038101906105a89190614b69565b6114e0565b6040516105ba9190615236565b60405180910390f35b3480156105cf57600080fd5b506105ea60048036038101906105e59190614397565b6116ed565b005b3480156105f857600080fd5b506106016117b3565b60405161060e91906150be565b60405180910390f35b34801561062357600080fd5b5061063e600480360381019061063991906147eb565b6117ca565b005b34801561064c57600080fd5b5061066760048036038101906106629190614625565b61189d565b005b34801561067557600080fd5b5061067e6119f0565b005b34801561068c57600080fd5b506106a760048036038101906106a2919061483e565b611b2a565b005b3480156106b557600080fd5b506106be611bf6565b005b3480156106cc57600080fd5b506106d5611c70565b6040516106e29190614fc6565b60405180910390f35b3480156106f757600080fd5b50610712600480360381019061070d91906149af565b611c99565b60405161071f9190614fc6565b60405180910390f35b34801561073457600080fd5b5061074f600480360381019061074a919061496f565b611cc8565b60405161075c91906150be565b60405180910390f35b34801561077157600080fd5b5061078c600480360381019061078791906147ab565b611d33565b6040516107999190615236565b60405180910390f35b3480156107ae57600080fd5b506107b7611d58565b6040516107c491906150d9565b60405180910390f35b3480156107d957600080fd5b506107f460048036038101906107ef919061476b565b611d5f565b005b34801561080257600080fd5b5061081d60048036038101906108189190614a1c565b611e5c565b60405161082a9190615236565b60405180910390f35b34801561083f57600080fd5b5061085a60048036038101906108559190614a49565b611e7f565b6040516108679190615236565b60405180910390f35b34801561087c57600080fd5b5061089760048036038101906108929190614b09565b611ea4565b005b3480156108a557600080fd5b506108c060048036038101906108bb9190614a1c565b611f4b565b005b3480156108ce57600080fd5b506108e960048036038101906108e49190614942565b611fd1565b6040516108f69190615236565b60405180910390f35b34801561090b57600080fd5b5061092660048036038101906109219190614a1c565b611ff5565b6040516109399796959493929190614fe1565b60405180910390f35b34801561094e57600080fd5b5061095761220c565b60405161096491906150d9565b60405180910390f35b34801561097957600080fd5b50610994600480360381019061098f919061496f565b612230565b005b3480156109a257600080fd5b506109bd60048036038101906109b891906143c4565b612264565b005b3480156109cb57600080fd5b506109e660048036038101906109e19190614a1c565b612480565b005b3480156109f457600080fd5b50610a0f6004803603810190610a0a9190614b09565b612506565b005b348015610a1d57600080fd5b50610a266125ad565b604051610a3391906150d9565b60405180910390f35b348015610a4857600080fd5b50610a636004803603810190610a5e919061447f565b6125d1565b604051610a7091906150be565b60405180910390f35b348015610a8557600080fd5b50610aa06004803603810190610a9b9190614397565b612665565b005b348015610aae57600080fd5b50610ac96004803603810190610ac4919061458e565b612735565b005b348015610ad757600080fd5b50610af26004803603810190610aed919061436a565b6127d0565b005b348015610b0057600080fd5b50610b1b6004803603810190610b1691906147eb565b612979565b005b348015610b2957600080fd5b50610b446004803603810190610b3f91906147eb565b612a44565b005b348015610b5257600080fd5b50610b6d6004803603810190610b689190614ac9565b612b17565b005b610b896004803603810190610b849190614b69565b612bd4565b005b6000600a600083815260200190815260200160002060008473ffffffffffffffffffffffffffffffffffffffff1673ffffffffffffffffffffffffffffffffffffffff16815260200190815260200160002054905092915050565b6000610bf182612df3565b9050919050565b826008600082815260200190815260200160002060009054906101000a900473ffffffffffffffffffffffffffffffffffffffff1673ffffffffffffffffffffffffffffffffffffffff163373ffffffffffffffffffffffffffffffffffffffff1614610c6457600080fd5b828260078681548110610c7a57610c7961588c565b5b90600052602060002090600702016002019190610c98929190613f43565b5050505050565b606060118054610cae90615724565b80601f0160208091040260200160405190810160405280929190818152602001828054610cda90615724565b8015610d275780601f10610cfc57610100808354040283529160200191610d27565b820191906000526020600020905b815481529060010190602001808311610d0a57829003601f168201915b50505050509050919050565b60086020528060005260406000206000915054906101000a900473ffffffffffffffffffffffffffffffffffffffff1681565b816008600082815260200190815260200160002060009054906101000a900473ffffffffffffffffffffffffffffffffffffffff1673ffffffffffffffffffffffffffffffffffffffff163373ffffffffffffffffffffffffffffffffffffffff1614610dd257600080fd5b8160078481548110610de757610de661588c565b5b906000526020600020906007020160000160006101000a81548173ffffffffffffffffffffffffffffffffffffffff021916908373ffffffffffffffffffffffffffffffffffffffff160217905550505050565b60005b8351811015610f0957610e8685858381518110610e5e57610e5d61588c565b5b6020026020010151858481518110610e7957610e7861588c565b5b60200260200101516117ca565b828181518110610e9957610e9861588c565b5b60200260200101516007858381518110610eb657610eb561588c565b5b602002602001015181548110610ecf57610ece61588c565b5b90600052602060002090600702016005016000828254610eef9190615501565b925050819055508080610f0190615787565b915050610e3e565b508373ffffffffffffffffffffffffffffffffffffffff16600073ffffffffffffffffffffffffffffffffffffffff163373ffffffffffffffffffffffffffffffffffffffff167f4a39dc06d4c0dbc64b70af90fd698a233a518aa5d07e595d983b8c0526c8f7fb8686604051610f81929190615087565b60405180910390a450505050565b6000600d6000838152602001908152602001600020600101549050919050565b3373ffffffffffffffffffffffffffffffffffffffff168173ffffffffffffffffffffffffffffffffffffffff1614610fe757600080fd5b60006110476007858154811061100057610fff61588c565b5b906000526020600020906007020160050154846005546006546007898154811061102d5761102c61588c565b5b906000526020600020906007020160060154600454612ed5565b9050600060646001548361105b9190615588565b6110659190615557565b9050808261107391906155e2565b9150611080838686612979565b8273ffffffffffffffffffffffffffffffffffffffff166108fc839081150290604051600060405180830381858888f193505050501580156110c6573d6000803e3d6000fd5b506110d081612f4e565b3373ffffffffffffffffffffffffffffffffffffffff167f1ebb537d8231cf8a6b1b0d1684d85dfd83872c030ffc75f500f0729eaf674d8285876007898154811061111e5761111d61588c565b5b906000526020600020906007020160010160078a815481106111435761114261588c565b5b9060005260206000209060070201600201604051611164949392919061534a565b60405180910390a25050505050565b60005b8351811015611210576111be868583815181106111965761119561588c565b5b60200260200101518584815181106111b1576111b061588c565b5b6020026020010151612a44565b6111fd858583815181106111d5576111d461588c565b5b60200260200101518584815181106111f0576111ef61588c565b5b60200260200101516117ca565b808061120890615787565b915050611176565b508373ffffffffffffffffffffffffffffffffffffffff168573ffffffffffffffffffffffffffffffffffffffff163373ffffffffffffffffffffffffffffffffffffffff167f4a39dc06d4c0dbc64b70af90fd698a233a518aa5d07e595d983b8c0526c8f7fb8686604051611287929190615087565b60405180910390a45050505050565b6112a08282612f83565b6112c581600e6000858152602001908152602001600020612dc390919063ffffffff16565b505050565b6000806112d784846114e0565b905060006112e482611e5c565b9050600081836112f49190615501565b905080935050505092915050565b61130c8282612fac565b61133181600e600085815260200190815260200160002061302f90919063ffffffff16565b505050565b6113677f65d7a28e3265b37a6474929f336521b332c1681b933f6cb9f3376673440d862a61136261305f565b611cc8565b6113a6576040517f08c379a000000000000000000000000000000000000000000000000000000000815260040161139d906151d6565b60405180910390fd5b6113ae613067565b565b606060008585905067ffffffffffffffff8111156113d1576113d06158bb565b5b6040519080825280602002602001820160405280156113ff5781602001602082028036833780820191505090505b50905060005b868690508110156114d357600a60008686848181106114275761142661588c565b5b90506020020135815260200190815260200160002060008888848181106114515761145061588c565b5b9050602002016020810190611466919061436a565b73ffffffffffffffffffffffffffffffffffffffff1673ffffffffffffffffffffffffffffffffffffffff168152602001908152602001600020548282815181106114b4576114b361588c565b5b60200260200101818152505080806114cb90615787565b915050611405565b5080915050949350505050565b600080600090506000600785815481106114fd576114fc61588c565b5b90600052602060002090600702016005015490506000848261151f9190615501565b9050600786815481106115355761153461588c565b5b90600052602060002090600702016006015481101561158e57611587828660055460065460078b8154811061156d5761156c61588c565b5b906000526020600020906007020160060154600454612ed5565b92506116e1565b600786815481106115a2576115a161588c565b5b9060005260206000209060070201600601548210156116cd57611649600787815481106115d2576115d161588c565b5b90600052602060002090600702016006015483600789815481106115f9576115f861588c565b5b90600052602060002090600702016006015461161591906155e2565b60055460065460078b8154811061162f5761162e61588c565b5b906000526020600020906007020160060154600454612ed5565b92506116bb600787815481106116625761166161588c565b5b90600052602060002090600702016006015483600789815481106116895761168861588c565b5b9060005260206000209060070201600601546116a591906155e2565b876116b091906155e2565b600554600654613109565b836116c69190615501565b92506116e0565b6116dd8286600554600654613109565b92505b5b82935050505092915050565b6116f561305f565b73ffffffffffffffffffffffffffffffffffffffff16611713611c70565b73ffffffffffffffffffffffffffffffffffffffff1614611769576040517f08c379a0000000000000000000000000000000000000000000000000000000008152600401611760906151b6565b60405180910390fd5b8073ffffffffffffffffffffffffffffffffffffffff166108fc479081150290604051600060405180830381858888f193505050501580156117af573d6000803e3d6000fd5b5050565b6000601260009054906101000a900460ff16905090565b80600a600084815260200190815260200160002060008573ffffffffffffffffffffffffffffffffffffffff1673ffffffffffffffffffffffffffffffffffffffff168152602001908152602001600020600082825461182a9190615501565b9250508190555080600b60008573ffffffffffffffffffffffffffffffffffffffff1673ffffffffffffffffffffffffffffffffffffffff168152602001908152602001600020600084815260200190815260200160002060008282546118919190615501565b92505081905550505050565b60005b825181101561196b576118e8848483815181106118c0576118bf61588c565b5b60200260200101518484815181106118db576118da61588c565b5b6020026020010151612a44565b8181815181106118fb576118fa61588c565b5b602002602001015160078483815181106119185761191761588c565b5b6020026020010151815481106119315761193061588c565b5b9060005260206000209060070201600501600082825461195191906155e2565b92505081905550808061196390615787565b9150506118a0565b50600073ffffffffffffffffffffffffffffffffffffffff168373ffffffffffffffffffffffffffffffffffffffff163373ffffffffffffffffffffffffffffffffffffffff167f4a39dc06d4c0dbc64b70af90fd698a233a518aa5d07e595d983b8c0526c8f7fb85856040516119e3929190615087565b60405180910390a4505050565b6119f861305f565b73ffffffffffffffffffffffffffffffffffffffff16611a16611c70565b73ffffffffffffffffffffffffffffffffffffffff1614611a6c576040517f08c379a0000000000000000000000000000000000000000000000000000000008152600401611a63906151b6565b60405180910390fd5b600073ffffffffffffffffffffffffffffffffffffffff1660008054906101000a900473ffffffffffffffffffffffffffffffffffffffff1673ffffffffffffffffffffffffffffffffffffffff167f8be0079c531659141344cd1fd0a4f28419497f9722a3daafe3b4186f6b6457e060405160405180910390a360008060006101000a81548173ffffffffffffffffffffffffffffffffffffffff021916908373ffffffffffffffffffffffffffffffffffffffff160217905550565b611b358484846117ca565b8160078481548110611b4a57611b4961588c565b5b90600052602060002090600702016005016000828254611b6a9190615501565b925050819055508373ffffffffffffffffffffffffffffffffffffffff16600073ffffffffffffffffffffffffffffffffffffffff163373ffffffffffffffffffffffffffffffffffffffff167fc3d58168c5ae7397731d063d5bbf3d657854427343f4c083240f7aacaa2d0f628686604051611be89291906153b0565b60405180910390a450505050565b611c277f65d7a28e3265b37a6474929f336521b332c1681b933f6cb9f3376673440d862a611c2261305f565b611cc8565b611c66576040517f08c379a0000000000000000000000000000000000000000000000000000000008152600401611c5d906151f6565b60405180910390fd5b611c6e613197565b565b60008060009054906101000a900473ffffffffffffffffffffffffffffffffffffffff16905090565b6000611cc082600e600086815260200190815260200160002061323a90919063ffffffff16565b905092915050565b6000600d600084815260200190815260200160002060000160008373ffffffffffffffffffffffffffffffffffffffff1673ffffffffffffffffffffffffffffffffffffffff16815260200190815260200160002060009054906101000a900460ff16905092915050565b600b602052816000526040600020602052806000526040600020600091509150505481565b6000801b81565b80600c60003373ffffffffffffffffffffffffffffffffffffffff1673ffffffffffffffffffffffffffffffffffffffff16815260200190815260200160002060008473ffffffffffffffffffffffffffffffffffffffff1673ffffffffffffffffffffffffffffffffffffffff16815260200190815260200160002060006101000a81548160ff0219169083151502179055508173ffffffffffffffffffffffffffffffffffffffff163373ffffffffffffffffffffffffffffffffffffffff167f17307eab39ab6107e8899845ad3d59bd9653f200f220920489ca2b5937696c3183604051611e5091906150be565b60405180910390a35050565b6000606460015483611e6e9190615588565b611e789190615557565b9050919050565b600a602052816000526040600020602052806000526040600020600091509150505481565b826008600082815260200190815260200160002060009054906101000a900473ffffffffffffffffffffffffffffffffffffffff1673ffffffffffffffffffffffffffffffffffffffff163373ffffffffffffffffffffffffffffffffffffffff1614611f1057600080fd5b828260078681548110611f2657611f2561588c565b5b90600052602060002090600702016001019190611f44929190613f43565b5050505050565b611f5361305f565b73ffffffffffffffffffffffffffffffffffffffff16611f71611c70565b73ffffffffffffffffffffffffffffffffffffffff1614611fc7576040517f08c379a0000000000000000000000000000000000000000000000000000000008152600401611fbe906151b6565b60405180910390fd5b8060048190555050565b6000611fee600e6000848152602001908152602001600020613254565b9050919050565b6007818154811061200557600080fd5b90600052602060002090600702016000915090508060000160009054906101000a900473ffffffffffffffffffffffffffffffffffffffff169080600101805461204e90615724565b80601f016020809104026020016040519081016040528092919081815260200182805461207a90615724565b80156120c75780601f1061209c576101008083540402835291602001916120c7565b820191906000526020600020905b8154815290600101906020018083116120aa57829003601f168201915b5050505050908060020180546120dc90615724565b80601f016020809104026020016040519081016040528092919081815260200182805461210890615724565b80156121555780601f1061212a57610100808354040283529160200191612155565b820191906000526020600020905b81548152906001019060200180831161213857829003601f168201915b50505050509080600301805461216a90615724565b80601f016020809104026020016040519081016040528092919081815260200182805461219690615724565b80156121e35780601f106121b8576101008083540402835291602001916121e3565b820191906000526020600020905b8154815290600101906020018083116121c657829003601f168201915b5050505050908060040160009054906101000a900460ff16908060050154908060060154905087565b7f9f2df0fed2c77648de5860a4cc508cd0818c85b8b8a1ab4ceeef8d981c8956a681565b61223a8282613269565b61225f81600e600085815260200190815260200160002061302f90919063ffffffff16565b505050565b60076040518060e001604052808673ffffffffffffffffffffffffffffffffffffffff168152602001858152602001848152602001838152602001600015158152602001600081526020016000815250908060018154018082558091505060019003906000526020600020906007020160009091909190915060008201518160000160006101000a81548173ffffffffffffffffffffffffffffffffffffffff021916908373ffffffffffffffffffffffffffffffffffffffff1602179055506020820151816001019080519060200190612340929190613fc9565b50604082015181600201908051906020019061235d929190613fc9565b50606082015181600301908051906020019061237a929190613fc9565b5060808201518160040160006101000a81548160ff02191690831515021790555060a0820151816005015560c082015181600601555050600060016007805490506123c591906155e2565b9050846008600083815260200190815260200160002060006101000a81548173ffffffffffffffffffffffffffffffffffffffff021916908373ffffffffffffffffffffffffffffffffffffffff160217905550600060096000838152602001908152602001600020819055507f3ef624c0f3fb7ad40b94c02078ea3e3a797dbfc21e921ee4bd2b8ad0ca6aa11381868686866000806000604051612471989796959493929190615251565b60405180910390a15050505050565b61248861305f565b73ffffffffffffffffffffffffffffffffffffffff166124a6611c70565b73ffffffffffffffffffffffffffffffffffffffff16146124fc576040517f08c379a00000000000000000000000000000000000000000000000000000000081526004016124f3906151b6565b60405180910390fd5b8060018190555050565b826008600082815260200190815260200160002060009054906101000a900473ffffffffffffffffffffffffffffffffffffffff1673ffffffffffffffffffffffffffffffffffffffff163373ffffffffffffffffffffffffffffffffffffffff161461257257600080fd5b8282600786815481106125885761258761588c565b5b906000526020600020906007020160030191906125a6929190613f43565b5050505050565b7f65d7a28e3265b37a6474929f336521b332c1681b933f6cb9f3376673440d862a81565b6000600c60008473ffffffffffffffffffffffffffffffffffffffff1673ffffffffffffffffffffffffffffffffffffffff16815260200190815260200160002060008373ffffffffffffffffffffffffffffffffffffffff1673ffffffffffffffffffffffffffffffffffffffff16815260200190815260200160002060009054906101000a900460ff16905092915050565b61266d61305f565b73ffffffffffffffffffffffffffffffffffffffff1661268b611c70565b73ffffffffffffffffffffffffffffffffffffffff16146126e1576040517f08c379a00000000000000000000000000000000000000000000000000000000081526004016126d8906151b6565b60405180910390fd5b8073ffffffffffffffffffffffffffffffffffffffff166108fc6003549081150290604051600060405180830381858888f19350505050158015612729573d6000803e3d6000fd5b50600060038190555050565b612740858484612a44565b61274b8484846117ca565b8373ffffffffffffffffffffffffffffffffffffffff168573ffffffffffffffffffffffffffffffffffffffff163373ffffffffffffffffffffffffffffffffffffffff167fc3d58168c5ae7397731d063d5bbf3d657854427343f4c083240f7aacaa2d0f6286866040516127c19291906153b0565b60405180910390a45050505050565b6127d861305f565b73ffffffffffffffffffffffffffffffffffffffff166127f6611c70565b73ffffffffffffffffffffffffffffffffffffffff161461284c576040517f08c379a0000000000000000000000000000000000000000000000000000000008152600401612843906151b6565b60405180910390fd5b600073ffffffffffffffffffffffffffffffffffffffff168173ffffffffffffffffffffffffffffffffffffffff1614156128bc576040517f08c379a00000000000000000000000000000000000000000000000000000000081526004016128b390615176565b60405180910390fd5b8073ffffffffffffffffffffffffffffffffffffffff1660008054906101000a900473ffffffffffffffffffffffffffffffffffffffff1673ffffffffffffffffffffffffffffffffffffffff167f8be0079c531659141344cd1fd0a4f28419497f9722a3daafe3b4186f6b6457e060405160405180910390a3806000806101000a81548173ffffffffffffffffffffffffffffffffffffffff021916908373ffffffffffffffffffffffffffffffffffffffff16021790555050565b612984838383612a44565b80600783815481106129995761299861588c565b5b906000526020600020906007020160050160008282546129b991906155e2565b92505081905550600073ffffffffffffffffffffffffffffffffffffffff168373ffffffffffffffffffffffffffffffffffffffff163373ffffffffffffffffffffffffffffffffffffffff167fc3d58168c5ae7397731d063d5bbf3d657854427343f4c083240f7aacaa2d0f628585604051612a379291906153b0565b60405180910390a4505050565b80600a600084815260200190815260200160002060008573ffffffffffffffffffffffffffffffffffffffff1673ffffffffffffffffffffffffffffffffffffffff1681526020019081526020016000206000828254612aa491906155e2565b9250508190555080600b60008573ffffffffffffffffffffffffffffffffffffffff1673ffffffffffffffffffffffffffffffffffffffff16815260200190815260200160002060008481526020019081526020016000206000828254612b0b91906155e2565b92505081905550505050565b612b1f61305f565b73ffffffffffffffffffffffffffffffffffffffff16612b3d611c70565b73ffffffffffffffffffffffffffffffffffffffff1614612b93576040517f08c379a0000000000000000000000000000000000000000000000000000000008152600401612b8a906151b6565b60405180910390fd5b8060078381548110612ba857612ba761588c565b5b906000526020600020906007020160040160006101000a81548160ff0219169083151502179055505050565b6000612be083836112ca565b9050803414612bee57600080fd5b612c08612c03612bfe85856114e0565b611e5c565b612f4e565b612c2333848460405180602001604052806000815250611b2a565b3373ffffffffffffffffffffffffffffffffffffffff167f1ebb537d8231cf8a6b1b0d1684d85dfd83872c030ffc75f500f0729eaf674d82838560078781548110612c7157612c7061588c565b5b906000526020600020906007020160010160078881548110612c9657612c9561588c565b5b9060005260206000209060070201600201604051612cb794939291906152e4565b60405180910390a260078381548110612cd357612cd261588c565b5b90600052602060002090600702016006015460078481548110612cf957612cf861588c565b5b9060005260206000209060070201600501541115612db05760078381548110612d2557612d2461588c565b5b90600052602060002090600702016005015460078481548110612d4b57612d4a61588c565b5b906000526020600020906007020160060181905550612daf8360078581548110612d7857612d7761588c565b5b906000526020600020906007020160000160009054906101000a900473ffffffffffffffffffffffffffffffffffffffff16613292565b5b505050565b612dbf82826133e7565b5050565b6000612deb836000018373ffffffffffffffffffffffffffffffffffffffff1660001b6134c8565b905092915050565b60007fd9b67a26000000000000000000000000000000000000000000000000000000007bffffffffffffffffffffffffffffffffffffffffffffffffffffffff1916827bffffffffffffffffffffffffffffffffffffffffffffffffffffffff19161480612ebe57507f0e89341c000000000000000000000000000000000000000000000000000000007bffffffffffffffffffffffffffffffffffffffffffffffffffffffff1916827bffffffffffffffffffffffffffffffffffffffffffffffffffffffff1916145b80612ece5750612ecd82613538565b5b9050919050565b600080600080612ee98a8a8a8a8a8a6135b2565b9250925092506000838b1015612f0c57612f0584848d8561362d565b9050612f3d565b83821015612f2a57612f2384848d858d8d8d6136d0565b9050612f3c565b612f3984848d858d8d8d6137f2565b90505b5b809450505050509695505050505050565b8060026000828254612f609190615501565b925050819055508060036000828254612f799190615501565b9250508190555050565b612f8c82610f8f565b612f9d81612f9861305f565b6138f0565b612fa783836133e7565b505050565b612fb461305f565b73ffffffffffffffffffffffffffffffffffffffff168173ffffffffffffffffffffffffffffffffffffffff1614613021576040517f08c379a000000000000000000000000000000000000000000000000000000000815260040161301890615216565b60405180910390fd5b61302b828261398d565b5050565b6000613057836000018373ffffffffffffffffffffffffffffffffffffffff1660001b613a6f565b905092915050565b600033905090565b61306f6117b3565b6130ae576040517f08c379a00000000000000000000000000000000000000000000000000000000081526004016130a590615156565b60405180910390fd5b6000601260006101000a81548160ff0219169083151502179055507f5db9ee0a495bf2e6ff9c91a7834c1ba4fdd244a5e8aa4e537bd38aeae4b073aa6130f261305f565b6040516130ff9190614fc6565b60405180910390a1565b60008084866131189190615501565b905060008387866131299190615588565b6131339190615557565b905060008483876131449190615588565b61314e9190615557565b90506000888461315e91906155e2565b9050600060028284866131719190615501565b61317b9190615588565b6131859190615557565b90508095505050505050949350505050565b61319f6117b3565b156131df576040517f08c379a00000000000000000000000000000000000000000000000000000000081526004016131d690615196565b60405180910390fd5b6001601260006101000a81548160ff0219169083151502179055507f62e78cea01bee320cd4e420270b5ea74000d11b0c9f74754ebdbfc544b05a25861322361305f565b6040516132309190614fc6565b60405180910390a1565b60006132498360000183613b7b565b60001c905092915050565b600061326282600001613bef565b9050919050565b61327282610f8f565b6132838161327e61305f565b6138f0565b61328d838361398d565b505050565b600060096000848152602001908152602001600020549050600061332f600785815481106132c3576132c261588c565b5b906000526020600020906007020160060154600786815481106132e9576132e861588c565b5b906000526020600020906007020160060154600554600654600789815481106133155761331461588c565b5b906000526020600020906007020160060154600454612ed5565b6133656000600787815481106133485761334761588c565b5b906000526020600020906007020160060154600554600654613109565b61336f91906155e2565b90506000828261337f91906155e2565b90508373ffffffffffffffffffffffffffffffffffffffff166108fc829081150290604051600060405180830381858888f193505050501580156133c7573d6000803e3d6000fd5b508160096000878152602001908152602001600020819055505050505050565b6133f18282611cc8565b6134c4576001600d600084815260200190815260200160002060000160008373ffffffffffffffffffffffffffffffffffffffff1673ffffffffffffffffffffffffffffffffffffffff16815260200190815260200160002060006101000a81548160ff02191690831515021790555061346961305f565b73ffffffffffffffffffffffffffffffffffffffff168173ffffffffffffffffffffffffffffffffffffffff16837f2f8788117e7eff1d82e926ec794901d17c78024a50270940304540a733656f0d60405160405180910390a45b5050565b60006134d48383613c00565b61352d578260000182908060018154018082558091505060019003906000526020600020016000909190919091505582600001805490508360010160008481526020019081526020016000208190555060019050613532565b600090505b92915050565b60007f5a05180f000000000000000000000000000000000000000000000000000000007bffffffffffffffffffffffffffffffffffffffffffffffffffffffff1916827bffffffffffffffffffffffffffffffffffffffffffffffffffffffff191614806135ab57506135aa82613c23565b5b9050919050565b6000806000806002866135c59190615557565b90506000878960648860326135da91906155e2565b8a6135e59190615588565b6135ef9190615557565b6135f99190615588565b6136039190615557565b905060008a8c61361391906155e2565b905082828295509550955050505096509650969350505050565b600080828661363c91906155e2565b86866136489190615557565b6136529190615588565b8561365d91906155e2565b90506000848761366d91906155e2565b87876136799190615557565b6136839190615588565b8661368e91906155e2565b90506000848661369e91906155e2565b905060028183856136af9190615501565b6136b99190615588565b6136c39190615557565b9350505050949350505050565b60008085896136df91906155e2565b89896136eb9190615557565b6136f59190615588565b8861370091906155e2565b905060008890506000878b61371591906155e2565b9050600060028284866137289190615501565b6137329190615588565b61373c9190615557565b905060008b8d8c61374d91906155e2565b8e8961375991906155e2565b8e8b8b8e6137679190615588565b6137719190615557565b61377b91906155e2565b6137859190615557565b61378f9190615588565b6137999190615501565b905060008d8c6137a991906155e2565b9050600060028284886137bc9190615501565b6137c69190615588565b6137d09190615557565b905080846137de9190615501565b975050505050505050979650505050505050565b60008087898761380291906155e2565b8a8561380e91906155e2565b8a87878a61381c9190615588565b6138269190615557565b61383091906155e2565b61383a9190615557565b6138449190615588565b61384e9190615501565b90506000888a8961385f91906155e2565b8b8661386b91906155e2565b8b88888b6138799190615588565b6138839190615557565b61388d91906155e2565b6138979190615557565b6138a19190615588565b6138ab9190615501565b9050600087896138bb91906155e2565b905060028183856138cc9190615501565b6138d69190615588565b6138e09190615557565b9350505050979650505050505050565b6138fa8282611cc8565b6139895761391f8173ffffffffffffffffffffffffffffffffffffffff166014613c9d565b61392d8360001c6020613c9d565b60405160200161393e929190614f8c565b6040516020818303038152906040526040517f08c379a000000000000000000000000000000000000000000000000000000000815260040161398091906150f4565b60405180910390fd5b5050565b6139978282611cc8565b15613a6b576000600d600084815260200190815260200160002060000160008373ffffffffffffffffffffffffffffffffffffffff1673ffffffffffffffffffffffffffffffffffffffff16815260200190815260200160002060006101000a81548160ff021916908315150217905550613a1061305f565b73ffffffffffffffffffffffffffffffffffffffff168173ffffffffffffffffffffffffffffffffffffffff16837ff6391f5c32d9c69d2a47ea670b442974b53935d1edc7fd64eb21e047a839171b60405160405180910390a45b5050565b60008083600101600084815260200190815260200160002054905060008114613b6f576000600182613aa191906155e2565b9050600060018660000180549050613ab991906155e2565b90506000866000018281548110613ad357613ad261588c565b5b9060005260206000200154905080876000018481548110613af757613af661588c565b5b9060005260206000200181905550838760010160008381526020019081526020016000208190555086600001805480613b3357613b3261585d565b5b60019003818190600052602060002001600090559055866001016000878152602001908152602001600020600090556001945050505050613b75565b60009150505b92915050565b600081836000018054905011613bc6576040517f08c379a0000000000000000000000000000000000000000000000000000000008152600401613bbd90615116565b60405180910390fd5b826000018281548110613bdc57613bdb61588c565b5b9060005260206000200154905092915050565b600081600001805490509050919050565b600080836001016000848152602001908152602001600020541415905092915050565b60007f7965db0b000000000000000000000000000000000000000000000000000000007bffffffffffffffffffffffffffffffffffffffffffffffffffffffff1916827bffffffffffffffffffffffffffffffffffffffffffffffffffffffff19161480613c965750613c9582613ed9565b5b9050919050565b606060006002836002613cb09190615588565b613cba9190615501565b67ffffffffffffffff811115613cd357613cd26158bb565b5b6040519080825280601f01601f191660200182016040528015613d055781602001600182028036833780820191505090505b5090507f300000000000000000000000000000000000000000000000000000000000000081600081518110613d3d57613d3c61588c565b5b60200101907effffffffffffffffffffffffffffffffffffffffffffffffffffffffffffff1916908160001a9053507f780000000000000000000000000000000000000000000000000000000000000081600181518110613da157613da061588c565b5b60200101907effffffffffffffffffffffffffffffffffffffffffffffffffffffffffffff1916908160001a90535060006001846002613de19190615588565b613deb9190615501565b90505b6001811115613e8b577f3031323334353637383961626364656600000000000000000000000000000000600f861660108110613e2d57613e2c61588c565b5b1a60f81b828281518110613e4457613e4361588c565b5b60200101907effffffffffffffffffffffffffffffffffffffffffffffffffffffffffffff1916908160001a905350600485901c945080613e84906156fa565b9050613dee565b5060008414613ecf576040517f08c379a0000000000000000000000000000000000000000000000000000000008152600401613ec690615136565b60405180910390fd5b8091505092915050565b60007f01ffc9a7000000000000000000000000000000000000000000000000000000007bffffffffffffffffffffffffffffffffffffffffffffffffffffffff1916827bffffffffffffffffffffffffffffffffffffffffffffffffffffffff1916149050919050565b828054613f4f90615724565b90600052602060002090601f016020900481019282613f715760008555613fb8565b82601f10613f8a57803560ff1916838001178555613fb8565b82800160010185558215613fb8579182015b82811115613fb7578235825591602001919060010190613f9c565b5b509050613fc5919061404f565b5090565b828054613fd590615724565b90600052602060002090601f016020900481019282613ff7576000855561403e565b82601f1061401057805160ff191683800117855561403e565b8280016001018555821561403e579182015b8281111561403d578251825591602001919060010190614022565b5b50905061404b919061404f565b5090565b5b80821115614068576000816000905550600101614050565b5090565b600061407f61407a846153fe565b6153d9565b905080838252602082019050828560208602820111156140a2576140a16158f4565b5b60005b858110156140d257816140b88882614355565b8452602084019350602083019250506001810190506140a5565b5050509392505050565b60006140ef6140ea8461542a565b6153d9565b90508281526020810184848401111561410b5761410a6158f9565b5b6141168482856156b8565b509392505050565b600061413161412c8461545b565b6153d9565b90508281526020810184848401111561414d5761414c6158f9565b5b6141588482856156b8565b509392505050565b60008135905061416f81615bec565b92915050565b60008135905061418481615c03565b92915050565b60008083601f8401126141a05761419f6158ef565b5b8235905067ffffffffffffffff8111156141bd576141bc6158ea565b5b6020830191508360208202830111156141d9576141d86158f4565b5b9250929050565b60008083601f8401126141f6576141f56158ef565b5b8235905067ffffffffffffffff811115614213576142126158ea565b5b60208301915083602082028301111561422f5761422e6158f4565b5b9250929050565b600082601f83011261424b5761424a6158ef565b5b813561425b84826020860161406c565b91505092915050565b60008135905061427381615c1a565b92915050565b60008135905061428881615c31565b92915050565b60008135905061429d81615c48565b92915050565b600082601f8301126142b8576142b76158ef565b5b81356142c88482602086016140dc565b91505092915050565b60008083601f8401126142e7576142e66158ef565b5b8235905067ffffffffffffffff811115614304576143036158ea565b5b6020830191508360018202830111156143205761431f6158f4565b5b9250929050565b600082601f83011261433c5761433b6158ef565b5b813561434c84826020860161411e565b91505092915050565b60008135905061436481615c5f565b92915050565b6000602082840312156143805761437f615903565b5b600061438e84828501614160565b91505092915050565b6000602082840312156143ad576143ac615903565b5b60006143bb84828501614175565b91505092915050565b600080600080608085870312156143de576143dd615903565b5b60006143ec87828801614175565b945050602085013567ffffffffffffffff81111561440d5761440c6158fe565b5b61441987828801614327565b935050604085013567ffffffffffffffff81111561443a576144396158fe565b5b61444687828801614327565b925050606085013567ffffffffffffffff811115614467576144666158fe565b5b61447387828801614327565b91505092959194509250565b6000806040838503121561449657614495615903565b5b60006144a485828601614160565b92505060206144b585828601614160565b9150509250929050565b600080600080600060a086880312156144db576144da615903565b5b60006144e988828901614160565b95505060206144fa88828901614160565b945050604086013567ffffffffffffffff81111561451b5761451a6158fe565b5b61452788828901614236565b935050606086013567ffffffffffffffff811115614548576145476158fe565b5b61455488828901614236565b925050608086013567ffffffffffffffff811115614575576145746158fe565b5b614581888289016142a3565b9150509295509295909350565b600080600080600060a086880312156145aa576145a9615903565b5b60006145b888828901614160565b95505060206145c988828901614160565b94505060406145da88828901614355565b93505060606145eb88828901614355565b925050608086013567ffffffffffffffff81111561460c5761460b6158fe565b5b614618888289016142a3565b9150509295509295909350565b60008060006060848603121561463e5761463d615903565b5b600061464c86828701614160565b935050602084013567ffffffffffffffff81111561466d5761466c6158fe565b5b61467986828701614236565b925050604084013567ffffffffffffffff81111561469a576146996158fe565b5b6146a686828701614236565b9150509250925092565b600080600080608085870312156146ca576146c9615903565b5b60006146d887828801614160565b945050602085013567ffffffffffffffff8111156146f9576146f86158fe565b5b61470587828801614236565b935050604085013567ffffffffffffffff811115614726576147256158fe565b5b61473287828801614236565b925050606085013567ffffffffffffffff811115614753576147526158fe565b5b61475f878288016142a3565b91505092959194509250565b6000806040838503121561478257614781615903565b5b600061479085828601614160565b92505060206147a185828601614264565b9150509250929050565b600080604083850312156147c2576147c1615903565b5b60006147d085828601614160565b92505060206147e185828601614355565b9150509250929050565b60008060006060848603121561480457614803615903565b5b600061481286828701614160565b935050602061482386828701614355565b925050604061483486828701614355565b9150509250925092565b6000806000806080858703121561485857614857615903565b5b600061486687828801614160565b945050602061487787828801614355565b935050604061488887828801614355565b925050606085013567ffffffffffffffff8111156148a9576148a86158fe565b5b6148b5878288016142a3565b91505092959194509250565b600080600080604085870312156148db576148da615903565b5b600085013567ffffffffffffffff8111156148f9576148f86158fe565b5b6149058782880161418a565b9450945050602085013567ffffffffffffffff811115614928576149276158fe565b5b614934878288016141e0565b925092505092959194509250565b60006020828403121561495857614957615903565b5b600061496684828501614279565b91505092915050565b6000806040838503121561498657614985615903565b5b600061499485828601614279565b92505060206149a585828601614160565b9150509250929050565b600080604083850312156149c6576149c5615903565b5b60006149d485828601614279565b92505060206149e585828601614355565b9150509250929050565b600060208284031215614a0557614a04615903565b5b6000614a138482850161428e565b91505092915050565b600060208284031215614a3257614a31615903565b5b6000614a4084828501614355565b91505092915050565b60008060408385031215614a6057614a5f615903565b5b6000614a6e85828601614355565b9250506020614a7f85828601614160565b9150509250929050565b60008060408385031215614aa057614a9f615903565b5b6000614aae85828601614355565b9250506020614abf85828601614175565b9150509250929050565b60008060408385031215614ae057614adf615903565b5b6000614aee85828601614355565b9250506020614aff85828601614264565b9150509250929050565b600080600060408486031215614b2257614b21615903565b5b6000614b3086828701614355565b935050602084013567ffffffffffffffff811115614b5157614b506158fe565b5b614b5d868287016142d1565b92509250509250925092565b60008060408385031215614b8057614b7f615903565b5b6000614b8e85828601614355565b9250506020614b9f85828601614355565b9150509250929050565b600080600060608486031215614bc257614bc1615903565b5b6000614bd086828701614355565b9350506020614be186828701614355565b9250506040614bf286828701614175565b9150509250925092565b6000614c088383614f6e565b60208301905092915050565b614c1d81615628565b82525050565b614c2c81615616565b82525050565b6000614c3d826154b1565b614c4781856154d4565b9350614c528361548c565b8060005b83811015614c83578151614c6a8882614bfc565b9750614c75836154c7565b925050600181019050614c56565b5085935050505092915050565b614c998161563a565b82525050565b614ca881615646565b82525050565b614cb7816156a6565b82525050565b6000614cc8826154bc565b614cd281856154e5565b9350614ce28185602086016156c7565b614ceb81615908565b840191505092915050565b6000614d01826154bc565b614d0b81856154f6565b9350614d1b8185602086016156c7565b80840191505092915050565b60008154614d3481615724565b614d3e81866154e5565b94506001821660008114614d595760018114614d6b57614d9e565b60ff1983168652602086019350614d9e565b614d748561549c565b60005b83811015614d9657815481890152600182019150602081019050614d77565b808801955050505b50505092915050565b6000614db46022836154e5565b9150614dbf82615919565b604082019050919050565b6000614dd76020836154e5565b9150614de282615968565b602082019050919050565b6000614dfa6014836154e5565b9150614e0582615991565b602082019050919050565b6000614e1d6026836154e5565b9150614e28826159ba565b604082019050919050565b6000614e406010836154e5565b9150614e4b82615a09565b602082019050919050565b6000614e636003836154e5565b9150614e6e82615a32565b602082019050919050565b6000614e866020836154e5565b9150614e9182615a5b565b602082019050919050565b6000614ea9603b836154e5565b9150614eb482615a84565b604082019050919050565b6000614ecc6039836154e5565b9150614ed782615ad3565b604082019050919050565b6000614eef6017836154f6565b9150614efa82615b22565b601782019050919050565b6000614f126004836154e5565b9150614f1d82615b4b565b602082019050919050565b6000614f356011836154f6565b9150614f4082615b74565b601182019050919050565b6000614f58602f836154e5565b9150614f6382615b9d565b604082019050919050565b614f778161569c565b82525050565b614f868161569c565b82525050565b6000614f9782614ee2565b9150614fa38285614cf6565b9150614fae82614f28565b9150614fba8284614cf6565b91508190509392505050565b6000602082019050614fdb6000830184614c23565b92915050565b600060e082019050614ff6600083018a614c14565b81810360208301526150088189614cbd565b9050818103604083015261501c8188614cbd565b905081810360608301526150308187614cbd565b905061503f6080830186614c90565b61504c60a0830185614f7d565b61505960c0830184614f7d565b98975050505050505050565b6000602082019050818103600083015261507f8184614c32565b905092915050565b600060408201905081810360008301526150a18185614c32565b905081810360208301526150b58184614c32565b90509392505050565b60006020820190506150d36000830184614c90565b92915050565b60006020820190506150ee6000830184614c9f565b92915050565b6000602082019050818103600083015261510e8184614cbd565b905092915050565b6000602082019050818103600083015261512f81614da7565b9050919050565b6000602082019050818103600083015261514f81614dca565b9050919050565b6000602082019050818103600083015261516f81614ded565b9050919050565b6000602082019050818103600083015261518f81614e10565b9050919050565b600060208201905081810360008301526151af81614e33565b9050919050565b600060208201905081810360008301526151cf81614e79565b9050919050565b600060208201905081810360008301526151ef81614e9c565b9050919050565b6000602082019050818103600083015261520f81614ebf565b9050919050565b6000602082019050818103600083015261522f81614f4b565b9050919050565b600060208201905061524b6000830184614f7d565b92915050565b600061010082019050615267600083018b614f7d565b615274602083018a614c14565b81810360408301526152868189614cbd565b9050818103606083015261529a8188614cbd565b905081810360808301526152ae8187614cbd565b90506152bd60a0830186614c90565b6152ca60c0830185614cae565b6152d760e0830184614cae565b9998505050505050505050565b600060a0820190506152f96000830187614f7d565b818103602083015261530a81614e56565b90506153196040830186614f7d565b818103606083015261532b8185614d27565b9050818103608083015261533f8184614d27565b905095945050505050565b600060a08201905061535f6000830187614f7d565b818103602083015261537081614f05565b905061537f6040830186614f7d565b81810360608301526153918185614d27565b905081810360808301526153a58184614d27565b905095945050505050565b60006040820190506153c56000830185614f7d565b6153d26020830184614f7d565b9392505050565b60006153e36153f4565b90506153ef8282615756565b919050565b6000604051905090565b600067ffffffffffffffff821115615419576154186158bb565b5b602082029050602081019050919050565b600067ffffffffffffffff821115615445576154446158bb565b5b61544e82615908565b9050602081019050919050565b600067ffffffffffffffff821115615476576154756158bb565b5b61547f82615908565b9050602081019050919050565b6000819050602082019050919050565b60008190508160005260206000209050919050565b600081519050919050565b600081519050919050565b6000602082019050919050565b600082825260208201905092915050565b600082825260208201905092915050565b600081905092915050565b600061550c8261569c565b91506155178361569c565b9250827fffffffffffffffffffffffffffffffffffffffffffffffffffffffffffffffff0382111561554c5761554b6157d0565b5b828201905092915050565b60006155628261569c565b915061556d8361569c565b92508261557d5761557c6157ff565b5b828204905092915050565b60006155938261569c565b915061559e8361569c565b9250817fffffffffffffffffffffffffffffffffffffffffffffffffffffffffffffffff04831182151516156155d7576155d66157d0565b5b828202905092915050565b60006155ed8261569c565b91506155f88361569c565b92508282101561560b5761560a6157d0565b5b828203905092915050565b60006156218261567c565b9050919050565b60006156338261567c565b9050919050565b60008115159050919050565b6000819050919050565b60007fffffffff0000000000000000000000000000000000000000000000000000000082169050919050565b600073ffffffffffffffffffffffffffffffffffffffff82169050919050565b6000819050919050565b60006156b18261569c565b9050919050565b82818337600083830152505050565b60005b838110156156e55780820151818401526020810190506156ca565b838111156156f4576000848401525b50505050565b60006157058261569c565b91506000821415615719576157186157d0565b5b600182039050919050565b6000600282049050600182168061573c57607f821691505b602082108114156157505761574f61582e565b5b50919050565b61575f82615908565b810181811067ffffffffffffffff8211171561577e5761577d6158bb565b5b80604052505050565b60006157928261569c565b91507fffffffffffffffffffffffffffffffffffffffffffffffffffffffffffffffff8214156157c5576157c46157d0565b5b600182019050919050565b7f4e487b7100000000000000000000000000000000000000000000000000000000600052601160045260246000fd5b7f4e487b7100000000000000000000000000000000000000000000000000000000600052601260045260246000fd5b7f4e487b7100000000000000000000000000000000000000000000000000000000600052602260045260246000fd5b7f4e487b7100000000000000000000000000000000000000000000000000000000600052603160045260246000fd5b7f4e487b7100000000000000000000000000000000000000000000000000000000600052603260045260246000fd5b7f4e487b7100000000000000000000000000000000000000000000000000000000600052604160045260246000fd5b600080fd5b600080fd5b600080fd5b600080fd5b600080fd5b600080fd5b6000601f19601f8301169050919050565b7f456e756d657261626c655365743a20696e646578206f7574206f6620626f756e60008201527f6473000000000000000000000000000000000000000000000000000000000000602082015250565b7f537472696e67733a20686578206c656e67746820696e73756666696369656e74600082015250565b7f5061757361626c653a206e6f7420706175736564000000000000000000000000600082015250565b7f4f776e61626c653a206e6577206f776e657220697320746865207a65726f206160008201527f6464726573730000000000000000000000000000000000000000000000000000602082015250565b7f5061757361626c653a2070617573656400000000000000000000000000000000600082015250565b7f6275790000000000000000000000000000000000000000000000000000000000600082015250565b7f4f776e61626c653a2063616c6c6572206973206e6f7420746865206f776e6572600082015250565b7f455243313135355072657365744d696e7465725061757365723a206d7573742060008201527f686176652070617573657220726f6c6520746f20756e70617573650000000000602082015250565b7f455243313135355072657365744d696e7465725061757365723a206d7573742060008201527f686176652070617573657220726f6c6520746f20706175736500000000000000602082015250565b7f416363657373436f6e74726f6c3a206163636f756e7420000000000000000000600082015250565b7f73656c6c00000000000000000000000000000000000000000000000000000000600082015250565b7f206973206d697373696e6720726f6c6520000000000000000000000000000000600082015250565b7f416363657373436f6e74726f6c3a2063616e206f6e6c792072656e6f756e636560008201527f20726f6c657320666f722073656c660000000000000000000000000000000000602082015250565b615bf581615616565b8114615c0057600080fd5b50565b615c0c81615628565b8114615c1757600080fd5b50565b615c238161563a565b8114615c2e57600080fd5b50565b615c3a81615646565b8114615c4557600080fd5b50565b615c5181615650565b8114615c5c57600080fd5b50565b615c688161569c565b8114615c7357600080fd5b5056fea2646970667358221220ab2daf2b542221299e546c0a2cecf51703c55c7513b3486c159cf6d80a87858864736f6c63430008060033",
  "immutableReferences": {},
  "source": "// SPDX-License-Identifier: MIT\npragma solidity ^0.8.0;\n\nimport \"./creatortokencomputation.sol\";\n\ncontract CreatorTokenExchange is CreatorTokenComputation {\n\n\tconstructor(string memory uri) CreatorTokenComputation(uri) { }\n\n\t// Event that fires when a new transaction occurs\n\tevent NewTransaction(address indexed account, uint amount, string transactionType, uint tokenId, string name, string symbol);\n\n\t// Allow user to buy a given CreatorToken from the platform\n\tfunction buyCreatorToken(uint _tokenId, uint _amount) external payable {\n\t\t// Compute total transaction proceeds required (inclusive of fee)\n\t\tuint totalProceeds = _totalProceeds(_tokenId, _amount);\n\t\t// Require that user sends totalProceeds in order to transact\n\t\trequire(msg.value == totalProceeds);\n\t\t// Update platform fee total\n\t\t_platformFeeUpdater(_feeProceeds(_buyProceeds(_tokenId, _amount)));\n\t\t// Mint _amount tokens at the user's address (note this increases token amount outstanding)\n\t\tmint(msg.sender, _tokenId, _amount, \"\");\n\t\t// Emit new transaction event\n\t\temit NewTransaction(msg.sender, _amount, \"buy\", _tokenId, creatorTokens[_tokenId].name, creatorTokens[_tokenId].symbol);\n\t\t// Check if new outstanding amount of token is greater than maxSupply\n\t\tif (creatorTokens[_tokenId].outstanding > creatorTokens[_tokenId].maxSupply) {\n\t\t\t// Update maxSupply\n\t\t\tcreatorTokens[_tokenId].maxSupply = creatorTokens[_tokenId].outstanding;\n\t\t\t// Call _payout to transfer excess liquidity\n\t\t\t_payCreator(_tokenId, creatorTokens[_tokenId].creatorAddress);\n\t\t}\n\t}\n\n\t// Allow user to sell a given CreatorToken back to the platform\n\tfunction sellCreatorToken(uint _tokenId, uint _amount, address payable _seller) external payable {\n\t\t// Require that user calling function is selling own tokens\n\t\trequire(_seller == msg.sender);\n\t\t// Compute sale proceeds required\n\t\tuint proceedsRequired = _saleFunction(creatorTokens[_tokenId].outstanding, _amount, mNumerator, mDenominator, creatorTokens[_tokenId].maxSupply, profitMargin);\n\t\t// Compute fee\n\t\tuint fee = proceedsRequired*platformFee/100;\n\t\t// Add platform fee to obtain real proceedsRequired value\n\t\tproceedsRequired -= fee;\n\t\t// Burn _amount tokens from user's address (note this decreases token amount outstanding)\n\t\tburn(_seller, _tokenId, _amount);\n\t\t// Send user proceedsRequired wei (less the platform fee) in exchange for the burned tokens\n\t\t_seller.transfer(proceedsRequired); //1500000000000000000); //\n\t\t// Update platform fee total\n\t\t_platformFeeUpdater(fee);\n\t\t// Emit new transaction event\n\t\temit NewTransaction(msg.sender, _amount, \"sell\", _tokenId, creatorTokens[_tokenId].name, creatorTokens[_tokenId].symbol);\n\t}\n}\n",
  "sourcePath": "/Users/kamilalizaisadik/DeFi/Dynamic Automated Market Maker/damm_solidity/contracts/CreatorTokenExchange.sol",
  "compiler": {
    "name": "solc",
    "version": "0.8.6+commit.11564f7e.Emscripten.clang"
  },
  "schemaVersion": "3.4.1",
  "updatedAt": "2021-07-07T22:48:58.681Z",
  "devdoc": {
    "kind": "dev",
    "methods": {
      "getRoleAdmin(bytes32)": {
        "details": "Returns the admin role that controls `role`. See {grantRole} and {revokeRole}. To change a role's admin, use {_setRoleAdmin}."
      },
      "getRoleMember(bytes32,uint256)": {
        "details": "Returns one of the accounts that have `role`. `index` must be a value between 0 and {getRoleMemberCount}, non-inclusive. Role bearers are not sorted in any particular way, and their ordering may change at any point. WARNING: When using {getRoleMember} and {getRoleMemberCount}, make sure you perform all queries on the same block. See the following https://forum.openzeppelin.com/t/iterating-over-elements-on-enumerableset-in-openzeppelin-contracts/2296[forum post] for more information."
      },
      "getRoleMemberCount(bytes32)": {
        "details": "Returns the number of accounts that have `role`. Can be used together with {getRoleMember} to enumerate all bearers of a role."
      },
      "grantRole(bytes32,address)": {
        "details": "Overload {grantRole} to track enumerable memberships"
      },
      "hasRole(bytes32,address)": {
        "details": "Returns `true` if `account` has been granted `role`."
      },
      "owner()": {
        "details": "Returns the address of the current owner."
      },
      "pause()": {
        "details": "Pauses all token transfers. See {ERC1155Pausable} and {Pausable-_pause}. Requirements: - the caller must have the `PAUSER_ROLE`."
      },
      "paused()": {
        "details": "Returns true if the contract is paused, and false otherwise."
      },
      "renounceOwnership()": {
        "details": "Leaves the contract without owner. It will not be possible to call `onlyOwner` functions anymore. Can only be called by the current owner. NOTE: Renouncing ownership will leave the contract without an owner, thereby removing any functionality that is only available to the owner."
      },
      "renounceRole(bytes32,address)": {
        "details": "Overload {renounceRole} to track enumerable memberships"
      },
      "revokeRole(bytes32,address)": {
        "details": "Overload {revokeRole} to track enumerable memberships"
      },
      "supportsInterface(bytes4)": {
        "details": "See {IERC165-supportsInterface}."
      },
      "transferOwnership(address)": {
        "details": "Transfers ownership of the contract to a new account (`newOwner`). Can only be called by the current owner."
      },
      "unpause()": {
        "details": "Unpauses all token transfers. See {ERC1155Pausable} and {Pausable-_unpause}. Requirements: - the caller must have the `PAUSER_ROLE`."
      },
      "uri(uint256)": {
        "details": "See {IERC1155MetadataURI-uri}. This implementation returns the same URI for *all* token types. It relies on the token type ID substitution mechanism https://eips.ethereum.org/EIPS/eip-1155#metadata[defined in the EIP]. Clients calling this function must replace the `\\{id\\}` substring with the actual token type ID."
      }
    },
    "version": 1
  },
  "userdoc": {
    "kind": "user",
    "methods": {},
    "version": 1
  }
}