{
  "contractName": "CreatorTokenExchange",
  "abi": [
    {
      "inputs": [
        {
          "internalType": "string",
          "name": "uri",
          "type": "string"
        }
      ],
      "stateMutability": "nonpayable",
      "type": "constructor"
    },
    {
      "anonymous": false,
      "inputs": [
        {
          "indexed": true,
          "internalType": "address",
          "name": "account",
          "type": "address"
        },
        {
          "indexed": true,
          "internalType": "address",
          "name": "operator",
          "type": "address"
        },
        {
          "indexed": false,
          "internalType": "bool",
          "name": "approved",
          "type": "bool"
        }
      ],
      "name": "ApprovalForAll",
      "type": "event"
    },
    {
      "anonymous": false,
      "inputs": [
        {
          "indexed": false,
          "internalType": "uint256",
          "name": "tokenId",
          "type": "uint256"
        },
        {
          "indexed": false,
          "internalType": "address payable",
          "name": "creatorAddress",
          "type": "address"
        },
        {
          "indexed": false,
          "internalType": "string",
          "name": "name",
          "type": "string"
        },
        {
          "indexed": false,
          "internalType": "string",
          "name": "symbol",
          "type": "string"
        },
        {
          "indexed": false,
          "internalType": "string",
          "name": "description",
          "type": "string"
        },
        {
          "indexed": false,
          "internalType": "bool",
          "name": "verified",
          "type": "bool"
        },
        {
          "indexed": false,
          "internalType": "uint256",
          "name": "outstanding",
          "type": "uint256"
        },
        {
          "indexed": false,
          "internalType": "uint256",
          "name": "maxSupply",
          "type": "uint256"
        }
      ],
      "name": "NewCreatorToken",
      "type": "event"
    },
    {
      "anonymous": false,
      "inputs": [
        {
          "indexed": true,
          "internalType": "address",
          "name": "account",
          "type": "address"
        },
        {
          "indexed": false,
          "internalType": "uint256",
          "name": "amount",
          "type": "uint256"
        },
        {
          "indexed": false,
          "internalType": "string",
          "name": "transactionType",
          "type": "string"
        },
        {
          "indexed": false,
          "internalType": "uint256",
          "name": "tokenId",
          "type": "uint256"
        },
        {
          "indexed": false,
          "internalType": "string",
          "name": "name",
          "type": "string"
        },
        {
          "indexed": false,
          "internalType": "string",
          "name": "symbol",
          "type": "string"
        }
      ],
      "name": "NewTransaction",
      "type": "event"
    },
    {
      "anonymous": false,
      "inputs": [
        {
          "indexed": true,
          "internalType": "address",
          "name": "previousOwner",
          "type": "address"
        },
        {
          "indexed": true,
          "internalType": "address",
          "name": "newOwner",
          "type": "address"
        }
      ],
      "name": "OwnershipTransferred",
      "type": "event"
    },
    {
      "anonymous": false,
      "inputs": [
        {
          "indexed": true,
          "internalType": "address",
          "name": "operator",
          "type": "address"
        },
        {
          "indexed": true,
          "internalType": "address",
          "name": "from",
          "type": "address"
        },
        {
          "indexed": true,
          "internalType": "address",
          "name": "to",
          "type": "address"
        },
        {
          "indexed": false,
          "internalType": "uint256[]",
          "name": "ids",
          "type": "uint256[]"
        },
        {
          "indexed": false,
          "internalType": "uint256[]",
          "name": "values",
          "type": "uint256[]"
        }
      ],
      "name": "TransferBatch",
      "type": "event"
    },
    {
      "anonymous": false,
      "inputs": [
        {
          "indexed": true,
          "internalType": "address",
          "name": "operator",
          "type": "address"
        },
        {
          "indexed": true,
          "internalType": "address",
          "name": "from",
          "type": "address"
        },
        {
          "indexed": true,
          "internalType": "address",
          "name": "to",
          "type": "address"
        },
        {
          "indexed": false,
          "internalType": "uint256",
          "name": "id",
          "type": "uint256"
        },
        {
          "indexed": false,
          "internalType": "uint256",
          "name": "value",
          "type": "uint256"
        }
      ],
      "name": "TransferSingle",
      "type": "event"
    },
    {
      "anonymous": false,
      "inputs": [
        {
          "indexed": false,
          "internalType": "string",
          "name": "value",
          "type": "string"
        },
        {
          "indexed": true,
          "internalType": "uint256",
          "name": "id",
          "type": "uint256"
        }
      ],
      "name": "URI",
      "type": "event"
    },
    {
      "inputs": [
        {
          "internalType": "uint256",
          "name": "_tokenId",
          "type": "uint256"
        },
        {
          "internalType": "uint256",
          "name": "_amount",
          "type": "uint256"
        }
      ],
      "name": "_buyProceeds",
      "outputs": [
        {
          "internalType": "uint256",
          "name": "",
          "type": "uint256"
        }
      ],
      "stateMutability": "view",
      "type": "function",
      "constant": true
    },
    {
      "inputs": [
        {
          "internalType": "uint256",
          "name": "_proceedsRequired",
          "type": "uint256"
        }
      ],
      "name": "_feeProceeds",
      "outputs": [
        {
          "internalType": "uint256",
          "name": "",
          "type": "uint256"
        }
      ],
      "stateMutability": "view",
      "type": "function",
      "constant": true
    },
    {
      "inputs": [
        {
          "internalType": "uint256",
          "name": "_startingSupply",
          "type": "uint256"
        },
        {
          "internalType": "uint256",
          "name": "_amount",
          "type": "uint256"
        },
        {
          "internalType": "uint256",
          "name": "_mNumerator",
          "type": "uint256"
        },
        {
          "internalType": "uint256",
          "name": "_mDenominator",
          "type": "uint256"
        },
        {
          "internalType": "uint256",
          "name": "_maxSupply",
          "type": "uint256"
        },
        {
          "internalType": "uint256",
          "name": "_profitMargin",
          "type": "uint256"
        }
      ],
      "name": "_saleFunction",
      "outputs": [
        {
          "internalType": "uint256",
          "name": "",
          "type": "uint256"
        }
      ],
      "stateMutability": "pure",
      "type": "function",
      "constant": true
    },
    {
      "inputs": [
        {
          "internalType": "uint256",
          "name": "_tokenId",
          "type": "uint256"
        },
        {
          "internalType": "uint256",
          "name": "_amount",
          "type": "uint256"
        }
      ],
      "name": "_totalProceeds",
      "outputs": [
        {
          "internalType": "uint256",
          "name": "",
          "type": "uint256"
        }
      ],
      "stateMutability": "view",
      "type": "function",
      "constant": true
    },
    {
      "inputs": [
        {
          "internalType": "address",
          "name": "",
          "type": "address"
        },
        {
          "internalType": "address",
          "name": "",
          "type": "address"
        }
      ],
      "name": "approvals",
      "outputs": [
        {
          "internalType": "bool",
          "name": "",
          "type": "bool"
        }
      ],
      "stateMutability": "view",
      "type": "function",
      "constant": true
    },
    {
      "inputs": [
        {
          "internalType": "address",
          "name": "account",
          "type": "address"
        },
        {
          "internalType": "uint256",
          "name": "id",
          "type": "uint256"
        }
      ],
      "name": "balanceOf",
      "outputs": [
        {
          "internalType": "uint256",
          "name": "",
          "type": "uint256"
        }
      ],
      "stateMutability": "view",
      "type": "function",
      "constant": true
    },
    {
      "inputs": [
        {
          "internalType": "address[]",
          "name": "accounts",
          "type": "address[]"
        },
        {
          "internalType": "uint256[]",
          "name": "ids",
          "type": "uint256[]"
        }
      ],
      "name": "balanceOfBatch",
      "outputs": [
        {
          "internalType": "uint256[]",
          "name": "",
          "type": "uint256[]"
        }
      ],
      "stateMutability": "view",
      "type": "function",
      "constant": true
    },
    {
      "inputs": [
        {
          "internalType": "uint256",
          "name": "_tokenId",
          "type": "uint256"
        },
        {
          "internalType": "address payable",
          "name": "_newCreatorAddress",
          "type": "address"
        }
      ],
      "name": "changeAddress",
      "outputs": [],
      "stateMutability": "nonpayable",
      "type": "function"
    },
    {
      "inputs": [
        {
          "internalType": "uint256",
          "name": "_tokenId",
          "type": "uint256"
        },
        {
          "internalType": "string",
          "name": "_newDescription",
          "type": "string"
        }
      ],
      "name": "changeDescription",
      "outputs": [],
      "stateMutability": "nonpayable",
      "type": "function"
    },
    {
      "inputs": [
        {
          "internalType": "uint256",
          "name": "_tokenId",
          "type": "uint256"
        },
        {
          "internalType": "string",
          "name": "_newName",
          "type": "string"
        }
      ],
      "name": "changeName",
      "outputs": [],
      "stateMutability": "nonpayable",
      "type": "function"
    },
    {
      "inputs": [
        {
          "internalType": "uint256",
          "name": "_newPlatformFee",
          "type": "uint256"
        }
      ],
      "name": "changePlatformFee",
      "outputs": [],
      "stateMutability": "nonpayable",
      "type": "function"
    },
    {
      "inputs": [
        {
          "internalType": "uint256",
          "name": "_newProfitMargin",
          "type": "uint256"
        }
      ],
      "name": "changeProfitMargin",
      "outputs": [],
      "stateMutability": "nonpayable",
      "type": "function"
    },
    {
      "inputs": [
        {
          "internalType": "uint256",
          "name": "_tokenId",
          "type": "uint256"
        },
        {
          "internalType": "string",
          "name": "_newSymbol",
          "type": "string"
        }
      ],
      "name": "changeSymbol",
      "outputs": [],
      "stateMutability": "nonpayable",
      "type": "function"
    },
    {
      "inputs": [
        {
          "internalType": "uint256",
          "name": "_tokenId",
          "type": "uint256"
        },
        {
          "internalType": "bool",
          "name": "_verified",
          "type": "bool"
        }
      ],
      "name": "changeVerification",
      "outputs": [],
      "stateMutability": "nonpayable",
      "type": "function"
    },
    {
      "inputs": [
        {
          "internalType": "address payable",
          "name": "_creatorAddress",
          "type": "address"
        },
        {
          "internalType": "string",
          "name": "_name",
          "type": "string"
        },
        {
          "internalType": "string",
          "name": "_symbol",
          "type": "string"
        },
        {
          "internalType": "string",
          "name": "_description",
          "type": "string"
        }
      ],
      "name": "createCreatorToken",
      "outputs": [],
      "stateMutability": "nonpayable",
      "type": "function"
    },
    {
      "inputs": [
        {
          "internalType": "uint256",
          "name": "",
          "type": "uint256"
        }
      ],
      "name": "creatorTokens",
      "outputs": [
        {
          "internalType": "address payable",
          "name": "creatorAddress",
          "type": "address"
        },
        {
          "internalType": "string",
          "name": "name",
          "type": "string"
        },
        {
          "internalType": "string",
          "name": "symbol",
          "type": "string"
        },
        {
          "internalType": "string",
          "name": "description",
          "type": "string"
        },
        {
          "internalType": "bool",
          "name": "verified",
          "type": "bool"
        },
        {
          "internalType": "uint256",
          "name": "outstanding",
          "type": "uint256"
        },
        {
          "internalType": "uint256",
          "name": "maxSupply",
          "type": "uint256"
        }
      ],
      "stateMutability": "view",
      "type": "function",
      "constant": true
    },
    {
      "inputs": [],
      "name": "getCreatorTokenCount",
      "outputs": [
        {
          "internalType": "uint256",
          "name": "",
          "type": "uint256"
        }
      ],
      "stateMutability": "view",
      "type": "function",
      "constant": true
    },
    {
      "inputs": [
        {
          "internalType": "address",
          "name": "_account",
          "type": "address"
        },
        {
          "internalType": "address",
          "name": "_operator",
          "type": "address"
        }
      ],
      "name": "isApprovedForAll",
      "outputs": [
        {
          "internalType": "bool",
          "name": "",
          "type": "bool"
        }
      ],
      "stateMutability": "view",
      "type": "function",
      "constant": true
    },
    {
      "inputs": [],
      "name": "numCreatorTokens",
      "outputs": [
        {
          "internalType": "uint256",
          "name": "",
          "type": "uint256"
        }
      ],
      "stateMutability": "view",
      "type": "function",
      "constant": true
    },
    {
      "inputs": [],
      "name": "owner",
      "outputs": [
        {
          "internalType": "address",
          "name": "",
          "type": "address"
        }
      ],
      "stateMutability": "view",
      "type": "function",
      "constant": true
    },
    {
      "inputs": [
        {
          "internalType": "address payable",
          "name": "_owner",
          "type": "address"
        }
      ],
      "name": "payoutPlatformFees",
      "outputs": [],
      "stateMutability": "nonpayable",
      "type": "function"
    },
    {
      "inputs": [],
      "name": "platformFeesOwed",
      "outputs": [
        {
          "internalType": "uint256",
          "name": "",
          "type": "uint256"
        }
      ],
      "stateMutability": "view",
      "type": "function",
      "constant": true
    },
    {
      "inputs": [],
      "name": "renounceOwnership",
      "outputs": [],
      "stateMutability": "nonpayable",
      "type": "function"
    },
    {
      "inputs": [
        {
          "internalType": "address",
          "name": "_from",
          "type": "address"
        },
        {
          "internalType": "address",
          "name": "_to",
          "type": "address"
        },
        {
          "internalType": "uint256[]",
          "name": "_ids",
          "type": "uint256[]"
        },
        {
          "internalType": "uint256[]",
          "name": "_amounts",
          "type": "uint256[]"
        },
        {
          "internalType": "bytes",
          "name": "_data",
          "type": "bytes"
        }
      ],
      "name": "safeBatchTransferFrom",
      "outputs": [],
      "stateMutability": "nonpayable",
      "type": "function"
    },
    {
      "inputs": [
        {
          "internalType": "address",
          "name": "_from",
          "type": "address"
        },
        {
          "internalType": "address",
          "name": "_to",
          "type": "address"
        },
        {
          "internalType": "uint256",
          "name": "_id",
          "type": "uint256"
        },
        {
          "internalType": "uint256",
          "name": "_amount",
          "type": "uint256"
        },
        {
          "internalType": "bytes",
          "name": "_data",
          "type": "bytes"
        }
      ],
      "name": "safeTransferFrom",
      "outputs": [],
      "stateMutability": "nonpayable",
      "type": "function"
    },
    {
      "inputs": [
        {
          "internalType": "address",
          "name": "_operator",
          "type": "address"
        },
        {
          "internalType": "bool",
          "name": "_approved",
          "type": "bool"
        }
      ],
      "name": "setApprovalForAll",
      "outputs": [],
      "stateMutability": "nonpayable",
      "type": "function"
    },
    {
      "inputs": [
        {
          "internalType": "bytes4",
          "name": "interfaceId",
          "type": "bytes4"
        }
      ],
      "name": "supportsInterface",
      "outputs": [
        {
          "internalType": "bool",
          "name": "",
          "type": "bool"
        }
      ],
      "stateMutability": "view",
      "type": "function",
      "constant": true
    },
    {
      "inputs": [
        {
          "internalType": "uint256",
          "name": "",
          "type": "uint256"
        },
        {
          "internalType": "address",
          "name": "",
          "type": "address"
        }
      ],
      "name": "tokenHoldership",
      "outputs": [
        {
          "internalType": "uint256",
          "name": "",
          "type": "uint256"
        }
      ],
      "stateMutability": "view",
      "type": "function",
      "constant": true
    },
    {
      "inputs": [
        {
          "internalType": "uint256",
          "name": "",
          "type": "uint256"
        }
      ],
      "name": "tokenToCreator",
      "outputs": [
        {
          "internalType": "address",
          "name": "",
          "type": "address"
        }
      ],
      "stateMutability": "view",
      "type": "function",
      "constant": true
    },
    {
      "inputs": [
        {
          "internalType": "uint256",
          "name": "",
          "type": "uint256"
        }
      ],
      "name": "tokenValueTransferred",
      "outputs": [
        {
          "internalType": "uint256",
          "name": "",
          "type": "uint256"
        }
      ],
      "stateMutability": "view",
      "type": "function",
      "constant": true
    },
    {
      "inputs": [],
      "name": "totalPlatformFees",
      "outputs": [
        {
          "internalType": "uint256",
          "name": "",
          "type": "uint256"
        }
      ],
      "stateMutability": "view",
      "type": "function",
      "constant": true
    },
    {
      "inputs": [
        {
          "internalType": "uint256",
          "name": "",
          "type": "uint256"
        }
      ],
      "name": "totalValueLocked",
      "outputs": [
        {
          "internalType": "uint256",
          "name": "",
          "type": "uint256"
        }
      ],
      "stateMutability": "view",
      "type": "function",
      "constant": true
    },
    {
      "inputs": [
        {
          "internalType": "address",
          "name": "newOwner",
          "type": "address"
        }
      ],
      "name": "transferOwnership",
      "outputs": [],
      "stateMutability": "nonpayable",
      "type": "function"
    },
    {
      "inputs": [
        {
          "internalType": "uint256",
          "name": "",
          "type": "uint256"
        }
      ],
      "name": "uri",
      "outputs": [
        {
          "internalType": "string",
          "name": "",
          "type": "string"
        }
      ],
      "stateMutability": "view",
      "type": "function",
      "constant": true
    },
    {
      "inputs": [
        {
          "internalType": "address",
          "name": "",
          "type": "address"
        },
        {
          "internalType": "uint256",
          "name": "",
          "type": "uint256"
        }
      ],
      "name": "userToHoldings",
      "outputs": [
        {
          "internalType": "uint256",
          "name": "",
          "type": "uint256"
        }
      ],
      "stateMutability": "view",
      "type": "function",
      "constant": true
    },
    {
      "inputs": [
        {
          "internalType": "address payable",
          "name": "_owner",
          "type": "address"
        }
      ],
      "name": "withdraw",
      "outputs": [],
      "stateMutability": "nonpayable",
      "type": "function"
    },
    {
      "inputs": [
        {
          "internalType": "uint256",
          "name": "_tokenId",
          "type": "uint256"
        },
        {
          "internalType": "uint256",
          "name": "_amount",
          "type": "uint256"
        }
      ],
      "name": "buyCreatorToken",
      "outputs": [],
      "stateMutability": "payable",
      "type": "function",
      "payable": true
    },
    {
      "inputs": [
        {
          "internalType": "uint256",
          "name": "_tokenId",
          "type": "uint256"
        },
        {
          "internalType": "uint256",
          "name": "_amount",
          "type": "uint256"
        },
        {
          "internalType": "address payable",
          "name": "_seller",
          "type": "address"
        }
      ],
      "name": "sellCreatorToken",
      "outputs": [],
      "stateMutability": "payable",
      "type": "function",
      "payable": true
    }
  ],
  "bytecode": "0x608060405260018055600060025560006003556000600455601460055565082f79cd900060065560b96007553480156200003857600080fd5b5060405162004a9738038062004a9783398181016040528101906200005e919062000282565b80808080806000620000756200013060201b60201c565b9050806000806101000a81548173ffffffffffffffffffffffffffffffffffffffff021916908373ffffffffffffffffffffffffffffffffffffffff1602179055508073ffffffffffffffffffffffffffffffffffffffff16600073ffffffffffffffffffffffffffffffffffffffff167f8be0079c531659141344cd1fd0a4f28419497f9722a3daafe3b4186f6b6457e060405160405180910390a35062000124816200013860201b60201c565b50505050505062000457565b600033905090565b80601190805190602001906200015092919062000154565b5050565b828054620001629062000368565b90600052602060002090601f016020900481019282620001865760008555620001d2565b82601f10620001a157805160ff1916838001178555620001d2565b82800160010185558215620001d2579182015b82811115620001d1578251825591602001919060010190620001b4565b5b509050620001e19190620001e5565b5090565b5b8082111562000200576000816000905550600101620001e6565b5090565b60006200021b6200021584620002fc565b620002d3565b9050828152602081018484840111156200023a576200023962000437565b5b6200024784828562000332565b509392505050565b600082601f83011262000267576200026662000432565b5b81516200027984826020860162000204565b91505092915050565b6000602082840312156200029b576200029a62000441565b5b600082015167ffffffffffffffff811115620002bc57620002bb6200043c565b5b620002ca848285016200024f565b91505092915050565b6000620002df620002f2565b9050620002ed82826200039e565b919050565b6000604051905090565b600067ffffffffffffffff8211156200031a576200031962000403565b5b620003258262000446565b9050602081019050919050565b60005b838110156200035257808201518184015260208101905062000335565b8381111562000362576000848401525b50505050565b600060028204905060018216806200038157607f821691505b60208210811415620003985762000397620003d4565b5b50919050565b620003a98262000446565b810181811067ffffffffffffffff82111715620003cb57620003ca62000403565b5b80604052505050565b7f4e487b7100000000000000000000000000000000000000000000000000000000600052602260045260246000fd5b7f4e487b7100000000000000000000000000000000000000000000000000000000600052604160045260246000fd5b600080fd5b600080fd5b600080fd5b600080fd5b6000601f19601f8301169050919050565b61463080620004676000396000f3fe6080604052600436106102245760003560e01c8063afb2183211610123578063d7a5791a116100ab578063eb8417591161006f578063eb841759146108a3578063f242432a146108cc578063f2fde38b146108f5578063f7374e2e1461091e578063fffae9411461094757610224565b8063d7a5791a1461079a578063d9bd3a40146107c3578063de6a06ed14610800578063df3c00b114610829578063e985e9c51461086657610224565b8063c39cbef1116100f2578063c39cbef1146106b1578063c539c317146106da578063ce901d8a14610703578063d3631fa514610746578063d56b72c71461077157610224565b8063afb21832146105e1578063ba111a051461060c578063bfb48c9c14610649578063c1d330491461068657610224565b80632eb2c2d6116101b1578063715018a611610175578063715018a6146104fc5780638da5cb5b1461051357806392724afa1461053e578063a22cb4651461057b578063a32ce11e146105a457610224565b80632eb2c2d6146103f357806335a8ae211461041c5780634e1273f4146104595780634fe477d81461049657806351cff8d9146104d357610224565b806317bcaa08116101f857806317bcaa081461030957806318892ae8146103465780631d5ad18b146103835780632a2b237c146103ac5780632dcfdaf7146103d757610224565b8062fdd58e1461022957806301ffc9a71461026657806306e320f5146102a35780630e89341c146102cc575b600080fd5b34801561023557600080fd5b50610250600480360381019061024b919061361c565b610963565b60405161025d9190613d7e565b60405180910390f35b34801561027257600080fd5b5061028d600480360381019061028891906136d4565b610a2d565b60405161029a9190613cc1565b60405180910390f35b3480156102af57600080fd5b506102ca60048036038101906102c591906137ee565b610b0f565b005b3480156102d857600080fd5b506102f360048036038101906102ee9190613701565b610bb6565b6040516103009190613cdc565b60405180910390f35b34801561031557600080fd5b50610330600480360381019061032b9190613701565b610c4a565b60405161033d9190613d7e565b60405180910390f35b34801561035257600080fd5b5061036d60048036038101906103689190613701565b610c62565b60405161037a9190613bc9565b60405180910390f35b34801561038f57600080fd5b506103aa60048036038101906103a5919061376e565b610c95565b005b3480156103b857600080fd5b506103c1610d6a565b6040516103ce9190613d7e565b60405180910390f35b6103f160048036038101906103ec919061388e565b610d77565b005b3480156103ff57600080fd5b5061041a60048036038101906104159190613476565b610f65565b005b34801561042857600080fd5b50610443600480360381019061043e919061384e565b6110d1565b6040516104509190613d7e565b60405180910390f35b34801561046557600080fd5b50610480600480360381019061047b919061365c565b611109565b60405161048d9190613c68565b60405180910390f35b3480156104a257600080fd5b506104bd60048036038101906104b8919061384e565b611222565b6040516104ca9190613d7e565b60405180910390f35b3480156104df57600080fd5b506104fa60048036038101906104f5919061334e565b61142f565b005b34801561050857600080fd5b506105116114f5565b005b34801561051f57600080fd5b5061052861162f565b6040516105359190613bc9565b60405180910390f35b34801561054a57600080fd5b506105656004803603810190610560919061361c565b611658565b6040516105729190613d7e565b60405180910390f35b34801561058757600080fd5b506105a2600480360381019061059d91906135dc565b61167d565b005b3480156105b057600080fd5b506105cb60048036038101906105c69190613436565b61177a565b6040516105d89190613cc1565b60405180910390f35b3480156105ed57600080fd5b506105f66117a9565b6040516106039190613d7e565b60405180910390f35b34801561061857600080fd5b50610633600480360381019061062e9190613701565b6117af565b6040516106409190613d7e565b60405180910390f35b34801561065557600080fd5b50610670600480360381019061066b919061372e565b6117d2565b60405161067d9190613d7e565b60405180910390f35b34801561069257600080fd5b5061069b6117f7565b6040516106a89190613d7e565b60405180910390f35b3480156106bd57600080fd5b506106d860048036038101906106d391906137ee565b6117fd565b005b3480156106e657600080fd5b5061070160048036038101906106fc9190613701565b6118a4565b005b34801561070f57600080fd5b5061072a60048036038101906107259190613701565b61192a565b60405161073d9796959493929190613be4565b60405180910390f35b34801561075257600080fd5b5061075b611b41565b6040516107689190613d7e565b60405180910390f35b34801561077d57600080fd5b506107986004803603810190610793919061337b565b611b47565b005b3480156107a657600080fd5b506107c160048036038101906107bc9190613701565b611d63565b005b3480156107cf57600080fd5b506107ea60048036038101906107e59190613701565b611de9565b6040516107f79190613d7e565b60405180910390f35b34801561080c57600080fd5b50610827600480360381019061082291906137ee565b611e01565b005b34801561083557600080fd5b50610850600480360381019061084b91906138e1565b611ea8565b60405161085d9190613d7e565b60405180910390f35b34801561087257600080fd5b5061088d60048036038101906108889190613436565b611f21565b60405161089a9190613cc1565b60405180910390f35b3480156108af57600080fd5b506108ca60048036038101906108c5919061334e565b611fb5565b005b3480156108d857600080fd5b506108f360048036038101906108ee9190613545565b612085565b005b34801561090157600080fd5b5061091c60048036038101906109179190613321565b612169565b005b34801561092a57600080fd5b50610945600480360381019061094091906137ae565b612312565b005b610961600480360381019061095c919061384e565b6123cf565b005b60008073ffffffffffffffffffffffffffffffffffffffff168373ffffffffffffffffffffffffffffffffffffffff1614156109d4576040517f08c379a00000000000000000000000000000000000000000000000000000000081526004016109cb90613cfe565b60405180910390fd5b600f600083815260200190815260200160002060008473ffffffffffffffffffffffffffffffffffffffff1673ffffffffffffffffffffffffffffffffffffffff16815260200190815260200160002054905092915050565b60007fd9b67a26000000000000000000000000000000000000000000000000000000007bffffffffffffffffffffffffffffffffffffffffffffffffffffffff1916827bffffffffffffffffffffffffffffffffffffffffffffffffffffffff19161480610af857507f0e89341c000000000000000000000000000000000000000000000000000000007bffffffffffffffffffffffffffffffffffffffffffffffffffffffff1916827bffffffffffffffffffffffffffffffffffffffffffffffffffffffff1916145b80610b085750610b07826125e0565b5b9050919050565b826009600082815260200190815260200160002060009054906101000a900473ffffffffffffffffffffffffffffffffffffffff1673ffffffffffffffffffffffffffffffffffffffff163373ffffffffffffffffffffffffffffffffffffffff1614610b7b57600080fd5b828260088681548110610b9157610b90614392565b5b90600052602060002090600702016002019190610baf929190612f1d565b5050505050565b606060118054610bc590614259565b80601f0160208091040260200160405190810160405280929190818152602001828054610bf190614259565b8015610c3e5780601f10610c1357610100808354040283529160200191610c3e565b820191906000526020600020905b815481529060010190602001808311610c2157829003601f168201915b50505050509050919050565b600a6020528060005260406000206000915090505481565b60096020528060005260406000206000915054906101000a900473ffffffffffffffffffffffffffffffffffffffff1681565b816009600082815260200190815260200160002060009054906101000a900473ffffffffffffffffffffffffffffffffffffffff1673ffffffffffffffffffffffffffffffffffffffff163373ffffffffffffffffffffffffffffffffffffffff1614610d0157600080fd5b8160088481548110610d1657610d15614392565b5b906000526020600020906007020160000160006101000a81548173ffffffffffffffffffffffffffffffffffffffff021916908373ffffffffffffffffffffffffffffffffffffffff160217905550505050565b6000600880549050905090565b3373ffffffffffffffffffffffffffffffffffffffff168173ffffffffffffffffffffffffffffffffffffffff1614610daf57600080fd5b6000610e0f60088581548110610dc857610dc7614392565b5b9060005260206000209060070201600501548460065460075460088981548110610df557610df4614392565b5b906000526020600020906007020160060154600554611ea8565b905080600e60008681526020019081526020016000206000828254610e34919061414b565b925050819055506000606460015483610e4d91906140f1565b610e5791906140c0565b90508082610e65919061414b565b9150610e7283868661264a565b8273ffffffffffffffffffffffffffffffffffffffff166108fc839081150290604051600060405180830381858888f19350505050158015610eb8573d6000803e3d6000fd5b50610ec28161274d565b3373ffffffffffffffffffffffffffffffffffffffff167f1ebb537d8231cf8a6b1b0d1684d85dfd83872c030ffc75f500f0729eaf674d82858760088981548110610f1057610f0f614392565b5b906000526020600020906007020160010160088a81548110610f3557610f34614392565b5b9060005260206000209060070201600201604051610f569493929190613e92565b60405180910390a25050505050565b60005b835181101561104b578573ffffffffffffffffffffffffffffffffffffffff163373ffffffffffffffffffffffffffffffffffffffff161480610fb15750610fb08686611f21565b5b610fba57600080fd5b610ff986858381518110610fd157610fd0614392565b5b6020026020010151858481518110610fec57610feb614392565b5b6020026020010151612782565b611038858583815181106110105761100f614392565b5b602002602001015185848151811061102b5761102a614392565b5b6020026020010151612855565b8080611043906142bc565b915050610f68565b508373ffffffffffffffffffffffffffffffffffffffff168573ffffffffffffffffffffffffffffffffffffffff163373ffffffffffffffffffffffffffffffffffffffff167f4a39dc06d4c0dbc64b70af90fd698a233a518aa5d07e595d983b8c0526c8f7fb86866040516110c2929190613c8a565b60405180910390a45050505050565b6000806110de8484611222565b905060006110eb826117af565b9050600081836110fb919061406a565b905080935050505092915050565b6060815183511461114f576040517f08c379a000000000000000000000000000000000000000000000000000000000815260040161114690613d5e565b60405180910390fd5b6000835167ffffffffffffffff81111561116c5761116b6143c1565b5b60405190808252806020026020018201604052801561119a5781602001602082028036833780820191505090505b50905060005b8451811015611217576111e78582815181106111bf576111be614392565b5b60200260200101518583815181106111da576111d9614392565b5b6020026020010151610963565b8282815181106111fa576111f9614392565b5b60200260200101818152505080611210906142bc565b90506111a0565b508091505092915050565b6000806000905060006008858154811061123f5761123e614392565b5b906000526020600020906007020160050154905060008482611261919061406a565b90506008868154811061127757611276614392565b5b9060005260206000209060070201600601548110156112d0576112c9818660065460075460088b815481106112af576112ae614392565b5b906000526020600020906007020160060154600554611ea8565b9250611423565b600886815481106112e4576112e3614392565b5b90600052602060002090600702016006015482101561140f5761138b6008878154811061131457611313614392565b5b906000526020600020906007020160060154836008898154811061133b5761133a614392565b5b906000526020600020906007020160060154611357919061414b565b60065460075460088b8154811061137157611370614392565b5b906000526020600020906007020160060154600554611ea8565b92506113fd600887815481106113a4576113a3614392565b5b90600052602060002090600702016006015483600889815481106113cb576113ca614392565b5b9060005260206000209060070201600601546113e7919061414b565b876113f2919061414b565b600654600754612928565b83611408919061406a565b9250611422565b61141f8286600654600754612928565b92505b5b82935050505092915050565b6114376129b6565b73ffffffffffffffffffffffffffffffffffffffff1661145561162f565b73ffffffffffffffffffffffffffffffffffffffff16146114ab576040517f08c379a00000000000000000000000000000000000000000000000000000000081526004016114a290613d3e565b60405180910390fd5b8073ffffffffffffffffffffffffffffffffffffffff166108fc479081150290604051600060405180830381858888f193505050501580156114f1573d6000803e3d6000fd5b5050565b6114fd6129b6565b73ffffffffffffffffffffffffffffffffffffffff1661151b61162f565b73ffffffffffffffffffffffffffffffffffffffff1614611571576040517f08c379a000000000000000000000000000000000000000000000000000000000815260040161156890613d3e565b60405180910390fd5b600073ffffffffffffffffffffffffffffffffffffffff1660008054906101000a900473ffffffffffffffffffffffffffffffffffffffff1673ffffffffffffffffffffffffffffffffffffffff167f8be0079c531659141344cd1fd0a4f28419497f9722a3daafe3b4186f6b6457e060405160405180910390a360008060006101000a81548173ffffffffffffffffffffffffffffffffffffffff021916908373ffffffffffffffffffffffffffffffffffffffff160217905550565b60008060009054906101000a900473ffffffffffffffffffffffffffffffffffffffff16905090565b600c602052816000526040600020602052806000526040600020600091509150505481565b80600d60003373ffffffffffffffffffffffffffffffffffffffff1673ffffffffffffffffffffffffffffffffffffffff16815260200190815260200160002060008473ffffffffffffffffffffffffffffffffffffffff1673ffffffffffffffffffffffffffffffffffffffff16815260200190815260200160002060006101000a81548160ff0219169083151502179055508173ffffffffffffffffffffffffffffffffffffffff163373ffffffffffffffffffffffffffffffffffffffff167f17307eab39ab6107e8899845ad3d59bd9653f200f220920489ca2b5937696c318360405161176e9190613cc1565b60405180910390a35050565b600d6020528160005260406000206020528060005260406000206000915091509054906101000a900460ff1681565b60045481565b60006064600154836117c191906140f1565b6117cb91906140c0565b9050919050565b600b602052816000526040600020602052806000526040600020600091509150505481565b60035481565b826009600082815260200190815260200160002060009054906101000a900473ffffffffffffffffffffffffffffffffffffffff1673ffffffffffffffffffffffffffffffffffffffff163373ffffffffffffffffffffffffffffffffffffffff161461186957600080fd5b82826008868154811061187f5761187e614392565b5b9060005260206000209060070201600101919061189d929190612f1d565b5050505050565b6118ac6129b6565b73ffffffffffffffffffffffffffffffffffffffff166118ca61162f565b73ffffffffffffffffffffffffffffffffffffffff1614611920576040517f08c379a000000000000000000000000000000000000000000000000000000000815260040161191790613d3e565b60405180910390fd5b8060058190555050565b6008818154811061193a57600080fd5b90600052602060002090600702016000915090508060000160009054906101000a900473ffffffffffffffffffffffffffffffffffffffff169080600101805461198390614259565b80601f01602080910402602001604051908101604052809291908181526020018280546119af90614259565b80156119fc5780601f106119d1576101008083540402835291602001916119fc565b820191906000526020600020905b8154815290600101906020018083116119df57829003601f168201915b505050505090806002018054611a1190614259565b80601f0160208091040260200160405190810160405280929190818152602001828054611a3d90614259565b8015611a8a5780601f10611a5f57610100808354040283529160200191611a8a565b820191906000526020600020905b815481529060010190602001808311611a6d57829003601f168201915b505050505090806003018054611a9f90614259565b80601f0160208091040260200160405190810160405280929190818152602001828054611acb90614259565b8015611b185780601f10611aed57610100808354040283529160200191611b18565b820191906000526020600020905b815481529060010190602001808311611afb57829003601f168201915b5050505050908060040160009054906101000a900460ff16908060050154908060060154905087565b60025481565b60086040518060e001604052808673ffffffffffffffffffffffffffffffffffffffff168152602001858152602001848152602001838152602001600015158152602001600081526020016000815250908060018154018082558091505060019003906000526020600020906007020160009091909190915060008201518160000160006101000a81548173ffffffffffffffffffffffffffffffffffffffff021916908373ffffffffffffffffffffffffffffffffffffffff1602179055506020820151816001019080519060200190611c23929190612fa3565b506040820151816002019080519060200190611c40929190612fa3565b506060820151816003019080519060200190611c5d929190612fa3565b5060808201518160040160006101000a81548160ff02191690831515021790555060a0820151816005015560c08201518160060155505060006001600880549050611ca8919061414b565b9050846009600083815260200190815260200160002060006101000a81548173ffffffffffffffffffffffffffffffffffffffff021916908373ffffffffffffffffffffffffffffffffffffffff1602179055506000600a6000838152602001908152602001600020819055507f3ef624c0f3fb7ad40b94c02078ea3e3a797dbfc21e921ee4bd2b8ad0ca6aa11381868686866000806000604051611d54989796959493929190613d99565b60405180910390a15050505050565b611d6b6129b6565b73ffffffffffffffffffffffffffffffffffffffff16611d8961162f565b73ffffffffffffffffffffffffffffffffffffffff1614611ddf576040517f08c379a0000000000000000000000000000000000000000000000000000000008152600401611dd690613d3e565b60405180910390fd5b8060018190555050565b600e6020528060005260406000206000915090505481565b826009600082815260200190815260200160002060009054906101000a900473ffffffffffffffffffffffffffffffffffffffff1673ffffffffffffffffffffffffffffffffffffffff163373ffffffffffffffffffffffffffffffffffffffff1614611e6d57600080fd5b828260088681548110611e8357611e82614392565b5b90600052602060002090600702016003019190611ea1929190612f1d565b5050505050565b600080600080611ebc8a8a8a8a8a8a6129be565b9250925092506000838b1015611edf57611ed884848d85612a39565b9050611f10565b83821015611efd57611ef684848d858d8d8d612adc565b9050611f0f565b611f0c84848d858d8d8d612bfe565b90505b5b809450505050509695505050505050565b6000600d60008473ffffffffffffffffffffffffffffffffffffffff1673ffffffffffffffffffffffffffffffffffffffff16815260200190815260200160002060008373ffffffffffffffffffffffffffffffffffffffff1673ffffffffffffffffffffffffffffffffffffffff16815260200190815260200160002060009054906101000a900460ff16905092915050565b611fbd6129b6565b73ffffffffffffffffffffffffffffffffffffffff16611fdb61162f565b73ffffffffffffffffffffffffffffffffffffffff1614612031576040517f08c379a000000000000000000000000000000000000000000000000000000000815260040161202890613d3e565b60405180910390fd5b8073ffffffffffffffffffffffffffffffffffffffff166108fc6003549081150290604051600060405180830381858888f19350505050158015612079573d6000803e3d6000fd5b50600060038190555050565b8473ffffffffffffffffffffffffffffffffffffffff163373ffffffffffffffffffffffffffffffffffffffff1614806120c557506120c48585611f21565b5b6120ce57600080fd5b6120d9858484612782565b6120e4848484612855565b8373ffffffffffffffffffffffffffffffffffffffff168573ffffffffffffffffffffffffffffffffffffffff163373ffffffffffffffffffffffffffffffffffffffff167fc3d58168c5ae7397731d063d5bbf3d657854427343f4c083240f7aacaa2d0f62868660405161215a929190613ef8565b60405180910390a45050505050565b6121716129b6565b73ffffffffffffffffffffffffffffffffffffffff1661218f61162f565b73ffffffffffffffffffffffffffffffffffffffff16146121e5576040517f08c379a00000000000000000000000000000000000000000000000000000000081526004016121dc90613d3e565b60405180910390fd5b600073ffffffffffffffffffffffffffffffffffffffff168173ffffffffffffffffffffffffffffffffffffffff161415612255576040517f08c379a000000000000000000000000000000000000000000000000000000000815260040161224c90613d1e565b60405180910390fd5b8073ffffffffffffffffffffffffffffffffffffffff1660008054906101000a900473ffffffffffffffffffffffffffffffffffffffff1673ffffffffffffffffffffffffffffffffffffffff167f8be0079c531659141344cd1fd0a4f28419497f9722a3daafe3b4186f6b6457e060405160405180910390a3806000806101000a81548173ffffffffffffffffffffffffffffffffffffffff021916908373ffffffffffffffffffffffffffffffffffffffff16021790555050565b61231a6129b6565b73ffffffffffffffffffffffffffffffffffffffff1661233861162f565b73ffffffffffffffffffffffffffffffffffffffff161461238e576040517f08c379a000000000000000000000000000000000000000000000000000000000815260040161238590613d3e565b60405180910390fd5b80600883815481106123a3576123a2614392565b5b906000526020600020906007020160040160006101000a81548160ff0219169083151502179055505050565b60006123db83836110d1565b90508034146123e957600080fd5b60006123f58484611222565b905080600e6000868152602001908152602001600020600082825461241a919061406a565b9250508190555061243261242d826117af565b61274d565b61244d33858560405180602001604052806000815250612cfc565b3373ffffffffffffffffffffffffffffffffffffffff167f1ebb537d8231cf8a6b1b0d1684d85dfd83872c030ffc75f500f0729eaf674d8284866008888154811061249b5761249a614392565b5b9060005260206000209060070201600101600889815481106124c0576124bf614392565b5b90600052602060002090600702016002016040516124e19493929190613e2c565b60405180910390a2600884815481106124fd576124fc614392565b5b9060005260206000209060070201600601546008858154811061252357612522614392565b5b90600052602060002090600702016005015411156125da576008848154811061254f5761254e614392565b5b9060005260206000209060070201600501546008858154811061257557612574614392565b5b9060005260206000209060070201600601819055506125d984600886815481106125a2576125a1614392565b5b906000526020600020906007020160000160009054906101000a900473ffffffffffffffffffffffffffffffffffffffff16612dc8565b5b50505050565b60007f01ffc9a7000000000000000000000000000000000000000000000000000000007bffffffffffffffffffffffffffffffffffffffffffffffffffffffff1916827bffffffffffffffffffffffffffffffffffffffffffffffffffffffff1916149050919050565b8273ffffffffffffffffffffffffffffffffffffffff163373ffffffffffffffffffffffffffffffffffffffff161461268257600080fd5b61268d838383612782565b80600883815481106126a2576126a1614392565b5b906000526020600020906007020160050160008282546126c2919061414b565b92505081905550600073ffffffffffffffffffffffffffffffffffffffff168373ffffffffffffffffffffffffffffffffffffffff163373ffffffffffffffffffffffffffffffffffffffff167fc3d58168c5ae7397731d063d5bbf3d657854427343f4c083240f7aacaa2d0f628585604051612740929190613ef8565b60405180910390a4505050565b806002600082825461275f919061406a565b925050819055508060036000828254612778919061406a565b9250508190555050565b80600b600084815260200190815260200160002060008573ffffffffffffffffffffffffffffffffffffffff1673ffffffffffffffffffffffffffffffffffffffff16815260200190815260200160002060008282546127e2919061414b565b9250508190555080600c60008573ffffffffffffffffffffffffffffffffffffffff1673ffffffffffffffffffffffffffffffffffffffff16815260200190815260200160002060008481526020019081526020016000206000828254612849919061414b565b92505081905550505050565b80600b600084815260200190815260200160002060008573ffffffffffffffffffffffffffffffffffffffff1673ffffffffffffffffffffffffffffffffffffffff16815260200190815260200160002060008282546128b5919061406a565b9250508190555080600c60008573ffffffffffffffffffffffffffffffffffffffff1673ffffffffffffffffffffffffffffffffffffffff1681526020019081526020016000206000848152602001908152602001600020600082825461291c919061406a565b92505081905550505050565b6000808486612937919061406a565b9050600083878661294891906140f1565b61295291906140c0565b9050600084838761296391906140f1565b61296d91906140c0565b90506000888461297d919061414b565b905060006002828486612990919061406a565b61299a91906140f1565b6129a491906140c0565b90508095505050505050949350505050565b600033905090565b6000806000806002866129d191906140c0565b90506000878960648860326129e6919061414b565b8a6129f191906140f1565b6129fb91906140c0565b612a0591906140f1565b612a0f91906140c0565b905060008a8c612a1f919061414b565b905082828295509550955050505096509650969350505050565b6000808286612a48919061414b565b8686612a5491906140c0565b612a5e91906140f1565b85612a69919061414b565b905060008487612a79919061414b565b8787612a8591906140c0565b612a8f91906140f1565b86612a9a919061414b565b905060008486612aaa919061414b565b90506002818385612abb919061406a565b612ac591906140f1565b612acf91906140c0565b9350505050949350505050565b6000808589612aeb919061414b565b8989612af791906140c0565b612b0191906140f1565b88612b0c919061414b565b905060008890506000878b612b21919061414b565b905060006002828486612b34919061406a565b612b3e91906140f1565b612b4891906140c0565b905060008b8d8c612b59919061414b565b8e89612b65919061414b565b8e8b8b8e612b7391906140f1565b612b7d91906140c0565b612b87919061414b565b612b9191906140c0565b612b9b91906140f1565b612ba5919061406a565b905060008d8c612bb5919061414b565b905060006002828488612bc8919061406a565b612bd291906140f1565b612bdc91906140c0565b90508084612bea919061406a565b975050505050505050979650505050505050565b600080878987612c0e919061414b565b8a85612c1a919061414b565b8a87878a612c2891906140f1565b612c3291906140c0565b612c3c919061414b565b612c4691906140c0565b612c5091906140f1565b612c5a919061406a565b90506000888a89612c6b919061414b565b8b86612c77919061414b565b8b88888b612c8591906140f1565b612c8f91906140c0565b612c99919061414b565b612ca391906140c0565b612cad91906140f1565b612cb7919061406a565b905060008789612cc7919061414b565b90506002818385612cd8919061406a565b612ce291906140f1565b612cec91906140c0565b9350505050979650505050505050565b612d07848484612855565b8160088481548110612d1c57612d1b614392565b5b90600052602060002090600702016005016000828254612d3c919061406a565b925050819055508373ffffffffffffffffffffffffffffffffffffffff16600073ffffffffffffffffffffffffffffffffffffffff163373ffffffffffffffffffffffffffffffffffffffff167fc3d58168c5ae7397731d063d5bbf3d657854427343f4c083240f7aacaa2d0f628686604051612dba929190613ef8565b60405180910390a450505050565b6000600a60008481526020019081526020016000205490506000612e6560088581548110612df957612df8614392565b5b90600052602060002090600702016006015460088681548110612e1f57612e1e614392565b5b90600052602060002090600702016006015460065460075460088981548110612e4b57612e4a614392565b5b906000526020600020906007020160060154600554611ea8565b612e9b600060088781548110612e7e57612e7d614392565b5b906000526020600020906007020160060154600654600754612928565b612ea5919061414b565b905060008282612eb5919061414b565b90508373ffffffffffffffffffffffffffffffffffffffff166108fc829081150290604051600060405180830381858888f19350505050158015612efd573d6000803e3d6000fd5b5081600a6000878152602001908152602001600020819055505050505050565b828054612f2990614259565b90600052602060002090601f016020900481019282612f4b5760008555612f92565b82601f10612f6457803560ff1916838001178555612f92565b82800160010185558215612f92579182015b82811115612f91578235825591602001919060010190612f76565b5b509050612f9f9190613029565b5090565b828054612faf90614259565b90600052602060002090601f016020900481019282612fd15760008555613018565b82601f10612fea57805160ff1916838001178555613018565b82800160010185558215613018579182015b82811115613017578251825591602001919060010190612ffc565b5b5090506130259190613029565b5090565b5b8082111561304257600081600090555060010161302a565b5090565b600061305961305484613f46565b613f21565b9050808382526020820190508285602086028201111561307c5761307b6143fa565b5b60005b858110156130ac578161309288826131aa565b84526020840193506020830192505060018101905061307f565b5050509392505050565b60006130c96130c484613f72565b613f21565b905080838252602082019050828560208602820111156130ec576130eb6143fa565b5b60005b8581101561311c5781613102888261330c565b8452602084019350602083019250506001810190506130ef565b5050509392505050565b600061313961313484613f9e565b613f21565b905082815260208101848484011115613155576131546143ff565b5b613160848285614217565b509392505050565b600061317b61317684613fcf565b613f21565b905082815260208101848484011115613197576131966143ff565b5b6131a2848285614217565b509392505050565b6000813590506131b981614587565b92915050565b6000813590506131ce8161459e565b92915050565b600082601f8301126131e9576131e86143f5565b5b81356131f9848260208601613046565b91505092915050565b600082601f830112613217576132166143f5565b5b81356132278482602086016130b6565b91505092915050565b60008135905061323f816145b5565b92915050565b600081359050613254816145cc565b92915050565b600082601f83011261326f5761326e6143f5565b5b813561327f848260208601613126565b91505092915050565b60008083601f84011261329e5761329d6143f5565b5b8235905067ffffffffffffffff8111156132bb576132ba6143f0565b5b6020830191508360018202830111156132d7576132d66143fa565b5b9250929050565b600082601f8301126132f3576132f26143f5565b5b8135613303848260208601613168565b91505092915050565b60008135905061331b816145e3565b92915050565b60006020828403121561333757613336614409565b5b6000613345848285016131aa565b91505092915050565b60006020828403121561336457613363614409565b5b6000613372848285016131bf565b91505092915050565b6000806000806080858703121561339557613394614409565b5b60006133a3878288016131bf565b945050602085013567ffffffffffffffff8111156133c4576133c3614404565b5b6133d0878288016132de565b935050604085013567ffffffffffffffff8111156133f1576133f0614404565b5b6133fd878288016132de565b925050606085013567ffffffffffffffff81111561341e5761341d614404565b5b61342a878288016132de565b91505092959194509250565b6000806040838503121561344d5761344c614409565b5b600061345b858286016131aa565b925050602061346c858286016131aa565b9150509250929050565b600080600080600060a0868803121561349257613491614409565b5b60006134a0888289016131aa565b95505060206134b1888289016131aa565b945050604086013567ffffffffffffffff8111156134d2576134d1614404565b5b6134de88828901613202565b935050606086013567ffffffffffffffff8111156134ff576134fe614404565b5b61350b88828901613202565b925050608086013567ffffffffffffffff81111561352c5761352b614404565b5b6135388882890161325a565b9150509295509295909350565b600080600080600060a0868803121561356157613560614409565b5b600061356f888289016131aa565b9550506020613580888289016131aa565b94505060406135918882890161330c565b93505060606135a28882890161330c565b925050608086013567ffffffffffffffff8111156135c3576135c2614404565b5b6135cf8882890161325a565b9150509295509295909350565b600080604083850312156135f3576135f2614409565b5b6000613601858286016131aa565b925050602061361285828601613230565b9150509250929050565b6000806040838503121561363357613632614409565b5b6000613641858286016131aa565b92505060206136528582860161330c565b9150509250929050565b6000806040838503121561367357613672614409565b5b600083013567ffffffffffffffff81111561369157613690614404565b5b61369d858286016131d4565b925050602083013567ffffffffffffffff8111156136be576136bd614404565b5b6136ca85828601613202565b9150509250929050565b6000602082840312156136ea576136e9614409565b5b60006136f884828501613245565b91505092915050565b60006020828403121561371757613716614409565b5b60006137258482850161330c565b91505092915050565b6000806040838503121561374557613744614409565b5b60006137538582860161330c565b9250506020613764858286016131aa565b9150509250929050565b6000806040838503121561378557613784614409565b5b60006137938582860161330c565b92505060206137a4858286016131bf565b9150509250929050565b600080604083850312156137c5576137c4614409565b5b60006137d38582860161330c565b92505060206137e485828601613230565b9150509250929050565b60008060006040848603121561380757613806614409565b5b60006138158682870161330c565b935050602084013567ffffffffffffffff81111561383657613835614404565b5b61384286828701613288565b92509250509250925092565b6000806040838503121561386557613864614409565b5b60006138738582860161330c565b92505060206138848582860161330c565b9150509250929050565b6000806000606084860312156138a7576138a6614409565b5b60006138b58682870161330c565b93505060206138c68682870161330c565b92505060406138d7868287016131bf565b9150509250925092565b60008060008060008060c087890312156138fe576138fd614409565b5b600061390c89828a0161330c565b965050602061391d89828a0161330c565b955050604061392e89828a0161330c565b945050606061393f89828a0161330c565b935050608061395089828a0161330c565b92505060a061396189828a0161330c565b9150509295509295509295565b600061397a8383613bab565b60208301905092915050565b61398f81614191565b82525050565b61399e8161417f565b82525050565b60006139af82614025565b6139b98185614048565b93506139c483614000565b8060005b838110156139f55781516139dc888261396e565b97506139e78361403b565b9250506001810190506139c8565b5085935050505092915050565b613a0b816141a3565b82525050565b613a1a81614205565b82525050565b6000613a2b82614030565b613a358185614059565b9350613a45818560208601614226565b613a4e8161440e565b840191505092915050565b60008154613a6681614259565b613a708186614059565b94506001821660008114613a8b5760018114613a9d57613ad0565b60ff1983168652602086019350613ad0565b613aa685614010565b60005b83811015613ac857815481890152600182019150602081019050613aa9565b808801955050505b50505092915050565b6000613ae6602b83614059565b9150613af18261441f565b604082019050919050565b6000613b09602683614059565b9150613b148261446e565b604082019050919050565b6000613b2c600383614059565b9150613b37826144bd565b602082019050919050565b6000613b4f602083614059565b9150613b5a826144e6565b602082019050919050565b6000613b72602983614059565b9150613b7d8261450f565b604082019050919050565b6000613b95600483614059565b9150613ba08261455e565b602082019050919050565b613bb4816141fb565b82525050565b613bc3816141fb565b82525050565b6000602082019050613bde6000830184613995565b92915050565b600060e082019050613bf9600083018a613986565b8181036020830152613c0b8189613a20565b90508181036040830152613c1f8188613a20565b90508181036060830152613c338187613a20565b9050613c426080830186613a02565b613c4f60a0830185613bba565b613c5c60c0830184613bba565b98975050505050505050565b60006020820190508181036000830152613c8281846139a4565b905092915050565b60006040820190508181036000830152613ca481856139a4565b90508181036020830152613cb881846139a4565b90509392505050565b6000602082019050613cd66000830184613a02565b92915050565b60006020820190508181036000830152613cf68184613a20565b905092915050565b60006020820190508181036000830152613d1781613ad9565b9050919050565b60006020820190508181036000830152613d3781613afc565b9050919050565b60006020820190508181036000830152613d5781613b42565b9050919050565b60006020820190508181036000830152613d7781613b65565b9050919050565b6000602082019050613d936000830184613bba565b92915050565b600061010082019050613daf600083018b613bba565b613dbc602083018a613986565b8181036040830152613dce8189613a20565b90508181036060830152613de28188613a20565b90508181036080830152613df68187613a20565b9050613e0560a0830186613a02565b613e1260c0830185613a11565b613e1f60e0830184613a11565b9998505050505050505050565b600060a082019050613e416000830187613bba565b8181036020830152613e5281613b1f565b9050613e616040830186613bba565b8181036060830152613e738185613a59565b90508181036080830152613e878184613a59565b905095945050505050565b600060a082019050613ea76000830187613bba565b8181036020830152613eb881613b88565b9050613ec76040830186613bba565b8181036060830152613ed98185613a59565b90508181036080830152613eed8184613a59565b905095945050505050565b6000604082019050613f0d6000830185613bba565b613f1a6020830184613bba565b9392505050565b6000613f2b613f3c565b9050613f37828261428b565b919050565b6000604051905090565b600067ffffffffffffffff821115613f6157613f606143c1565b5b602082029050602081019050919050565b600067ffffffffffffffff821115613f8d57613f8c6143c1565b5b602082029050602081019050919050565b600067ffffffffffffffff821115613fb957613fb86143c1565b5b613fc28261440e565b9050602081019050919050565b600067ffffffffffffffff821115613fea57613fe96143c1565b5b613ff38261440e565b9050602081019050919050565b6000819050602082019050919050565b60008190508160005260206000209050919050565b600081519050919050565b600081519050919050565b6000602082019050919050565b600082825260208201905092915050565b600082825260208201905092915050565b6000614075826141fb565b9150614080836141fb565b9250827fffffffffffffffffffffffffffffffffffffffffffffffffffffffffffffffff038211156140b5576140b4614305565b5b828201905092915050565b60006140cb826141fb565b91506140d6836141fb565b9250826140e6576140e5614334565b5b828204905092915050565b60006140fc826141fb565b9150614107836141fb565b9250817fffffffffffffffffffffffffffffffffffffffffffffffffffffffffffffffff04831182151516156141405761413f614305565b5b828202905092915050565b6000614156826141fb565b9150614161836141fb565b92508282101561417457614173614305565b5b828203905092915050565b600061418a826141db565b9050919050565b600061419c826141db565b9050919050565b60008115159050919050565b60007fffffffff0000000000000000000000000000000000000000000000000000000082169050919050565b600073ffffffffffffffffffffffffffffffffffffffff82169050919050565b6000819050919050565b6000614210826141fb565b9050919050565b82818337600083830152505050565b60005b83811015614244578082015181840152602081019050614229565b83811115614253576000848401525b50505050565b6000600282049050600182168061427157607f821691505b6020821081141561428557614284614363565b5b50919050565b6142948261440e565b810181811067ffffffffffffffff821117156142b3576142b26143c1565b5b80604052505050565b60006142c7826141fb565b91507fffffffffffffffffffffffffffffffffffffffffffffffffffffffffffffffff8214156142fa576142f9614305565b5b600182019050919050565b7f4e487b7100000000000000000000000000000000000000000000000000000000600052601160045260246000fd5b7f4e487b7100000000000000000000000000000000000000000000000000000000600052601260045260246000fd5b7f4e487b7100000000000000000000000000000000000000000000000000000000600052602260045260246000fd5b7f4e487b7100000000000000000000000000000000000000000000000000000000600052603260045260246000fd5b7f4e487b7100000000000000000000000000000000000000000000000000000000600052604160045260246000fd5b600080fd5b600080fd5b600080fd5b600080fd5b600080fd5b600080fd5b6000601f19601f8301169050919050565b7f455243313135353a2062616c616e636520717565727920666f7220746865207a60008201527f65726f2061646472657373000000000000000000000000000000000000000000602082015250565b7f4f776e61626c653a206e6577206f776e657220697320746865207a65726f206160008201527f6464726573730000000000000000000000000000000000000000000000000000602082015250565b7f6275790000000000000000000000000000000000000000000000000000000000600082015250565b7f4f776e61626c653a2063616c6c6572206973206e6f7420746865206f776e6572600082015250565b7f455243313135353a206163636f756e747320616e6420696473206c656e67746860008201527f206d69736d617463680000000000000000000000000000000000000000000000602082015250565b7f73656c6c00000000000000000000000000000000000000000000000000000000600082015250565b6145908161417f565b811461459b57600080fd5b50565b6145a781614191565b81146145b257600080fd5b50565b6145be816141a3565b81146145c957600080fd5b50565b6145d5816141af565b81146145e057600080fd5b50565b6145ec816141fb565b81146145f757600080fd5b5056fea264697066735822122060db512c33c77e8ba3a57c0d0dff373c950be26aad0c31792374e237ad68d88464736f6c63430008060033",
  "immutableReferences": {},
  "source": "// SPDX-License-Identifier: MIT\npragma solidity ^0.8.0;\n\nimport \"./creatortokencomputation.sol\";\n\n/// @title Implements high-level buy and sell functions (which users invoke when transacting)\n/// @author Kamil Alizai Sadik\ncontract CreatorTokenExchange is CreatorTokenComputation {\n\n\tconstructor(string memory uri) CreatorTokenComputation(uri) { }\n\n\t// Event that fires when a new transaction occurs\n\tevent NewTransaction(address indexed account, uint amount, string transactionType, uint tokenId, string name, string symbol);\n\n\t/// @dev Allows user to buy a given CreatorToken from the platform\n\t/// @param _tokenId ID of the token being transacted\n\t/// @param _amount Quantity of the token being transacted\n\tfunction buyCreatorToken(uint _tokenId, uint _amount) external payable {\n\t\t// Compute total transaction proceeds required (inclusive of fee)\n\t\tuint totalProceeds = _totalProceeds(_tokenId, _amount);\n\t\t// Require that user sends totalProceeds in order to transact\n\t\trequire(msg.value == totalProceeds);\n\t\t// Compute buy proceeds\n\t\tuint netProceeds = _buyProceeds(_tokenId, _amount);\n\t\t// Update totalValueLocked mapping\n\t\ttotalValueLocked[_tokenId] += netProceeds;\n\t\t// Update platform fee total\n\t\t_platformFeeUpdater(_feeProceeds(netProceeds));\n\t\t// Mint _amount tokens at the user's address (note this increases token amount outstanding)\n\t\t_mint(msg.sender, _tokenId, _amount, \"\");\n\t\t// Emit new transaction event\n\t\temit NewTransaction(msg.sender, _amount, \"buy\", _tokenId, creatorTokens[_tokenId].name, creatorTokens[_tokenId].symbol);\n\t\t// Check if new outstanding amount of token is greater than maxSupply\n\t\tif (creatorTokens[_tokenId].outstanding > creatorTokens[_tokenId].maxSupply) {\n\t\t\t// Update maxSupply\n\t\t\tcreatorTokens[_tokenId].maxSupply = creatorTokens[_tokenId].outstanding;\n\t\t\t// Call _payout to transfer excess liquidity\n\t\t\t_payCreator(_tokenId, creatorTokens[_tokenId].creatorAddress);\n\t\t}\n\t}\n\n\t/// @dev Allows user to sell a given CreatorToken back to the platform\n\t/// @param _tokenId ID of the token being transacted\n\t/// @param _amount Quantity of the token being transacted\n\t/// @param _seller Wallet address of user selling the token\n\tfunction sellCreatorToken(uint _tokenId, uint _amount, address payable _seller) external payable {\n\t\t// Require that user calling function is selling own tokens\n\t\trequire(_seller == msg.sender);\n\t\t// Compute sale proceeds required\n\t\tuint proceedsRequired = _saleFunction(creatorTokens[_tokenId].outstanding, _amount, mNumerator, mDenominator, creatorTokens[_tokenId].maxSupply, profitMargin);\n\t\t// Update totalValueLocked mapping\n\t\ttotalValueLocked[_tokenId] -= proceedsRequired;\n\t\t// Compute fee\n\t\tuint fee = proceedsRequired*platformFee/100;\n\t\t// Add platform fee to obtain real proceedsRequired value\n\t\tproceedsRequired -= fee;\n\t\t// Burn _amount tokens from user's address (note this decreases token amount outstanding)\n\t\t_burn(_seller, _tokenId, _amount);\n\t\t// Send user proceedsRequired wei (less the platform fee) in exchange for the burned tokens\n\t\t_seller.transfer(proceedsRequired); //1500000000000000000); //\n\t\t// Update platform fee total\n\t\t_platformFeeUpdater(fee);\n\t\t// Emit new transaction event\n\t\temit NewTransaction(msg.sender, _amount, \"sell\", _tokenId, creatorTokens[_tokenId].name, creatorTokens[_tokenId].symbol);\n\t}\n}\n",
  "sourcePath": "/Users/kamilalizaisadik/DeFi/Dynamic Automated Market Maker/CreatorTokenExchange/contracts/CreatorTokenExchange.sol",
  "compiler": {
    "name": "solc",
    "version": "0.8.6+commit.11564f7e.Emscripten.clang"
  },
  "schemaVersion": "3.4.1",
  "updatedAt": "2021-07-31T20:33:36.933Z",
  "networkType": "ethereum",
  "devdoc": {
    "author": "Kamil Alizai Sadik",
    "kind": "dev",
    "methods": {
      "_buyProceeds(uint256,uint256)": {
        "details": "Calculates proceeds required for a given buy transaction (not including fees)",
        "params": {
          "_amount": "Quantity of the token being transacted",
          "_tokenId": "ID of the token being transacted"
        },
        "returns": {
          "_0": "Proceeds required in the transaction (before fees)"
        }
      },
      "_feeProceeds(uint256)": {
        "details": "Calculates the fee associated with a buy transaction",
        "params": {
          "_proceedsRequired": "The proceeds required for the buy transaction (before addition of fees)"
        },
        "returns": {
          "_0": "Fee associated with transaction"
        }
      },
      "_saleFunction(uint256,uint256,uint256,uint256,uint256,uint256)": {
        "details": "Calculates area under sale price function",
        "params": {
          "_amount": "Amount of token being transacted",
          "_mDenominator": "Denominator of the slope of the buy price function",
          "_mNumerator": "Numerator of the slope of the buy price function",
          "_maxSupply": "Peak level of supply of the token to date",
          "_profitMargin": "percentage of total revenue generated routed to creator",
          "_startingSupply": "Supply of token in circulation before the transaction"
        },
        "returns": {
          "_0": "Area under sale price function denoting total proceeds received when selling _amount tokens (before fees)"
        }
      },
      "_totalProceeds(uint256,uint256)": {
        "details": "Calculates total transaction proceeds",
        "params": {
          "_amount": "Quantity of the token being transacted",
          "_tokenId": "ID of the token being transacted"
        },
        "returns": {
          "_0": "Total proceeds required in transaction"
        }
      },
      "balanceOf(address,uint256)": {
        "details": "See {IERC1155-balanceOf}. Requirements: - `account` cannot be the zero address."
      },
      "balanceOfBatch(address[],uint256[])": {
        "details": "See {IERC1155-balanceOfBatch}. Requirements: - `accounts` and `ids` must have the same length."
      },
      "buyCreatorToken(uint256,uint256)": {
        "details": "Allows user to buy a given CreatorToken from the platform",
        "params": {
          "_amount": "Quantity of the token being transacted",
          "_tokenId": "ID of the token being transacted"
        }
      },
      "changeAddress(uint256,address)": {
        "details": "Allows token creator to change their address",
        "params": {
          "_newCreatorAddress": "New creator address associated with the token",
          "_tokenId": "ID of the token in question"
        }
      },
      "changeDescription(uint256,string)": {
        "details": "Allows token creator to change the description of their token",
        "params": {
          "_newDescription": "New description associated with the token",
          "_tokenId": "ID of the token in question"
        }
      },
      "changeName(uint256,string)": {
        "details": "Allows token creator to change the name of their token",
        "params": {
          "_newName": "New name associated with the token",
          "_tokenId": "ID of the token in question"
        }
      },
      "changePlatformFee(uint256)": {
        "details": "Allows owner to change platformFee",
        "params": {
          "_newPlatformFee": "New platform fee"
        }
      },
      "changeProfitMargin(uint256)": {
        "details": "Allows owner to change profit_margin",
        "params": {
          "_newProfitMargin": "New profit margin"
        }
      },
      "changeSymbol(uint256,string)": {
        "details": "Allows token creator to change the symbol of their token",
        "params": {
          "_newSymbol": "New symbol associated with the token",
          "_tokenId": "ID of the token in question"
        }
      },
      "changeVerification(uint256,bool)": {
        "details": "Allows owner to verify (or undo verification) of a CreatorToken",
        "params": {
          "_tokenId": "ID of the token in question",
          "_verified": "Verification status of the token in question"
        }
      },
      "createCreatorToken(address,string,string,string)": {
        "details": "Creates a new creator token",
        "params": {
          "_creatorAddress": "Address of the creator of the token",
          "_description": "chosen by the creator of the tokens",
          "_name": "Name chosen by the creator of the token",
          "_symbol": "Ticker symbol chosen by the creator of the token"
        }
      },
      "getCreatorTokenCount()": {
        "details": "Returns the current length of the creatorTokens array",
        "returns": {
          "_0": "uint representing number of unique Creator Tokens"
        }
      },
      "isApprovedForAll(address,address)": {
        "details": "Denotes whether operator is approved to transfer account's tokens",
        "params": {
          "_account": "Wallet address holding tokens",
          "_operator": "Wallet address which is/isn't approved to transfer _account's tokens"
        },
        "returns": {
          "_0": "Boolean value indicating approval status"
        }
      },
      "owner()": {
        "details": "Returns the address of the current owner."
      },
      "payoutPlatformFees(address)": {
        "details": "Pays out platform fees owed to owner (might opt to call this daily)",
        "params": {
          "_owner": "Owner of the smart contract"
        }
      },
      "renounceOwnership()": {
        "details": "Leaves the contract without owner. It will not be possible to call `onlyOwner` functions anymore. Can only be called by the current owner. NOTE: Renouncing ownership will leave the contract without an owner, thereby removing any functionality that is only available to the owner."
      },
      "safeBatchTransferFrom(address,address,uint256[],uint256[],bytes)": {
        "details": "Transfers a batch of tokens",
        "params": {
          "_amounts": "Array of quantities of token to be transferred",
          "_data": "Data",
          "_from": "Address token is being transferred from",
          "_ids": "Array of IDs of tokens being transferred",
          "_to": "Address token is being transferred to"
        }
      },
      "safeTransferFrom(address,address,uint256,uint256,bytes)": {
        "details": "Transfers a token",
        "params": {
          "_amount": "Quantity of token to be transferred",
          "_data": "Data",
          "_from": "Address token is being transferred from",
          "_id": "ID of token being transferred",
          "_to": "Address token is being transferred to"
        }
      },
      "sellCreatorToken(uint256,uint256,address)": {
        "details": "Allows user to sell a given CreatorToken back to the platform",
        "params": {
          "_amount": "Quantity of the token being transacted",
          "_seller": "Wallet address of user selling the token",
          "_tokenId": "ID of the token being transacted"
        }
      },
      "setApprovalForAll(address,bool)": {
        "details": "Gives operator permission to transfer caller's tokens",
        "params": {
          "_approved": "Boolean value indicating whether operator is approved",
          "_operator": "Wallet address being granted permission"
        }
      },
      "supportsInterface(bytes4)": {
        "details": "See {IERC165-supportsInterface}."
      },
      "transferOwnership(address)": {
        "details": "Transfers ownership of the contract to a new account (`newOwner`). Can only be called by the current owner."
      },
      "uri(uint256)": {
        "details": "See {IERC1155MetadataURI-uri}. This implementation returns the same URI for *all* token types. It relies on the token type ID substitution mechanism https://eips.ethereum.org/EIPS/eip-1155#metadata[defined in the EIP]. Clients calling this function must replace the `\\{id\\}` substring with the actual token type ID."
      },
      "withdraw(address)": {
        "details": "Ownable function allowing for withdrawal",
        "params": {
          "_owner": "Owner of the smart contract"
        }
      }
    },
    "title": "Implements high-level buy and sell functions (which users invoke when transacting)",
    "version": 1
  },
  "userdoc": {
    "kind": "user",
    "methods": {},
    "version": 1
  }
}