{
  "contractName": "CreatorTokenComputation",
  "abi": [
    {
      "inputs": [
        {
          "internalType": "string",
          "name": "uri",
          "type": "string"
        }
      ],
      "stateMutability": "nonpayable",
      "type": "constructor"
    },
    {
      "anonymous": false,
      "inputs": [
        {
          "indexed": true,
          "internalType": "address",
          "name": "account",
          "type": "address"
        },
        {
          "indexed": true,
          "internalType": "address",
          "name": "operator",
          "type": "address"
        },
        {
          "indexed": false,
          "internalType": "bool",
          "name": "approved",
          "type": "bool"
        }
      ],
      "name": "ApprovalForAll",
      "type": "event"
    },
    {
      "anonymous": false,
      "inputs": [
        {
          "indexed": false,
          "internalType": "uint256",
          "name": "tokenId",
          "type": "uint256"
        },
        {
          "indexed": false,
          "internalType": "address payable",
          "name": "creatorAddress",
          "type": "address"
        },
        {
          "indexed": false,
          "internalType": "string",
          "name": "name",
          "type": "string"
        },
        {
          "indexed": false,
          "internalType": "string",
          "name": "symbol",
          "type": "string"
        },
        {
          "indexed": false,
          "internalType": "string",
          "name": "description",
          "type": "string"
        },
        {
          "indexed": false,
          "internalType": "bool",
          "name": "verified",
          "type": "bool"
        },
        {
          "indexed": false,
          "internalType": "uint256",
          "name": "outstanding",
          "type": "uint256"
        },
        {
          "indexed": false,
          "internalType": "uint256",
          "name": "maxSupply",
          "type": "uint256"
        }
      ],
      "name": "NewCreatorToken",
      "type": "event"
    },
    {
      "anonymous": false,
      "inputs": [
        {
          "indexed": true,
          "internalType": "address",
          "name": "previousOwner",
          "type": "address"
        },
        {
          "indexed": true,
          "internalType": "address",
          "name": "newOwner",
          "type": "address"
        }
      ],
      "name": "OwnershipTransferred",
      "type": "event"
    },
    {
      "anonymous": false,
      "inputs": [
        {
          "indexed": true,
          "internalType": "address",
          "name": "operator",
          "type": "address"
        },
        {
          "indexed": true,
          "internalType": "address",
          "name": "from",
          "type": "address"
        },
        {
          "indexed": true,
          "internalType": "address",
          "name": "to",
          "type": "address"
        },
        {
          "indexed": false,
          "internalType": "uint256[]",
          "name": "ids",
          "type": "uint256[]"
        },
        {
          "indexed": false,
          "internalType": "uint256[]",
          "name": "values",
          "type": "uint256[]"
        }
      ],
      "name": "TransferBatch",
      "type": "event"
    },
    {
      "anonymous": false,
      "inputs": [
        {
          "indexed": true,
          "internalType": "address",
          "name": "operator",
          "type": "address"
        },
        {
          "indexed": true,
          "internalType": "address",
          "name": "from",
          "type": "address"
        },
        {
          "indexed": true,
          "internalType": "address",
          "name": "to",
          "type": "address"
        },
        {
          "indexed": false,
          "internalType": "uint256",
          "name": "id",
          "type": "uint256"
        },
        {
          "indexed": false,
          "internalType": "uint256",
          "name": "value",
          "type": "uint256"
        }
      ],
      "name": "TransferSingle",
      "type": "event"
    },
    {
      "anonymous": false,
      "inputs": [
        {
          "indexed": false,
          "internalType": "string",
          "name": "value",
          "type": "string"
        },
        {
          "indexed": true,
          "internalType": "uint256",
          "name": "id",
          "type": "uint256"
        }
      ],
      "name": "URI",
      "type": "event"
    },
    {
      "inputs": [
        {
          "internalType": "uint256",
          "name": "_proceedsRequired",
          "type": "uint256"
        }
      ],
      "name": "_feeProceeds",
      "outputs": [
        {
          "internalType": "uint256",
          "name": "",
          "type": "uint256"
        }
      ],
      "stateMutability": "view",
      "type": "function"
    },
    {
      "inputs": [
        {
          "internalType": "address",
          "name": "account",
          "type": "address"
        },
        {
          "internalType": "uint256",
          "name": "id",
          "type": "uint256"
        }
      ],
      "name": "balanceOf",
      "outputs": [
        {
          "internalType": "uint256",
          "name": "",
          "type": "uint256"
        }
      ],
      "stateMutability": "view",
      "type": "function"
    },
    {
      "inputs": [
        {
          "internalType": "address[]",
          "name": "accounts",
          "type": "address[]"
        },
        {
          "internalType": "uint256[]",
          "name": "ids",
          "type": "uint256[]"
        }
      ],
      "name": "balanceOfBatch",
      "outputs": [
        {
          "internalType": "uint256[]",
          "name": "",
          "type": "uint256[]"
        }
      ],
      "stateMutability": "view",
      "type": "function"
    },
    {
      "inputs": [
        {
          "internalType": "uint256",
          "name": "_tokenId",
          "type": "uint256"
        },
        {
          "internalType": "address payable",
          "name": "_newCreatorAddress",
          "type": "address"
        }
      ],
      "name": "changeAddress",
      "outputs": [],
      "stateMutability": "nonpayable",
      "type": "function"
    },
    {
      "inputs": [
        {
          "internalType": "uint256",
          "name": "_tokenId",
          "type": "uint256"
        },
        {
          "internalType": "string",
          "name": "_newDescription",
          "type": "string"
        }
      ],
      "name": "changeDescription",
      "outputs": [],
      "stateMutability": "nonpayable",
      "type": "function"
    },
    {
      "inputs": [
        {
          "internalType": "uint256",
          "name": "_tokenId",
          "type": "uint256"
        },
        {
          "internalType": "string",
          "name": "_newName",
          "type": "string"
        }
      ],
      "name": "changeName",
      "outputs": [],
      "stateMutability": "nonpayable",
      "type": "function"
    },
    {
      "inputs": [
        {
          "internalType": "uint256",
          "name": "_newPlatformFee",
          "type": "uint256"
        }
      ],
      "name": "changePlatformFee",
      "outputs": [],
      "stateMutability": "nonpayable",
      "type": "function"
    },
    {
      "inputs": [
        {
          "internalType": "uint256",
          "name": "_newProfitMargin",
          "type": "uint256"
        }
      ],
      "name": "changeProfitMargin",
      "outputs": [],
      "stateMutability": "nonpayable",
      "type": "function"
    },
    {
      "inputs": [
        {
          "internalType": "uint256",
          "name": "_tokenId",
          "type": "uint256"
        },
        {
          "internalType": "string",
          "name": "_newSymbol",
          "type": "string"
        }
      ],
      "name": "changeSymbol",
      "outputs": [],
      "stateMutability": "nonpayable",
      "type": "function"
    },
    {
      "inputs": [
        {
          "internalType": "uint256",
          "name": "_tokenId",
          "type": "uint256"
        },
        {
          "internalType": "bool",
          "name": "_verified",
          "type": "bool"
        }
      ],
      "name": "changeVerification",
      "outputs": [],
      "stateMutability": "nonpayable",
      "type": "function"
    },
    {
      "inputs": [
        {
          "internalType": "address payable",
          "name": "_creatorAddress",
          "type": "address"
        },
        {
          "internalType": "string",
          "name": "_name",
          "type": "string"
        },
        {
          "internalType": "string",
          "name": "_symbol",
          "type": "string"
        },
        {
          "internalType": "string",
          "name": "_description",
          "type": "string"
        }
      ],
      "name": "createCreatorToken",
      "outputs": [],
      "stateMutability": "nonpayable",
      "type": "function"
    },
    {
      "inputs": [
        {
          "internalType": "uint256",
          "name": "",
          "type": "uint256"
        }
      ],
      "name": "creatorTokens",
      "outputs": [
        {
          "internalType": "address payable",
          "name": "creatorAddress",
          "type": "address"
        },
        {
          "internalType": "string",
          "name": "name",
          "type": "string"
        },
        {
          "internalType": "string",
          "name": "symbol",
          "type": "string"
        },
        {
          "internalType": "string",
          "name": "description",
          "type": "string"
        },
        {
          "internalType": "bool",
          "name": "verified",
          "type": "bool"
        },
        {
          "internalType": "uint256",
          "name": "outstanding",
          "type": "uint256"
        },
        {
          "internalType": "uint256",
          "name": "maxSupply",
          "type": "uint256"
        }
      ],
      "stateMutability": "view",
      "type": "function"
    },
    {
      "inputs": [
        {
          "internalType": "address",
          "name": "_account",
          "type": "address"
        },
        {
          "internalType": "address",
          "name": "_operator",
          "type": "address"
        }
      ],
      "name": "isApprovedForAll",
      "outputs": [
        {
          "internalType": "bool",
          "name": "",
          "type": "bool"
        }
      ],
      "stateMutability": "view",
      "type": "function"
    },
    {
      "inputs": [
        {
          "internalType": "address",
          "name": "_account",
          "type": "address"
        },
        {
          "internalType": "uint256",
          "name": "_id",
          "type": "uint256"
        },
        {
          "internalType": "uint256",
          "name": "_amount",
          "type": "uint256"
        }
      ],
      "name": "mappingDecrease",
      "outputs": [],
      "stateMutability": "nonpayable",
      "type": "function"
    },
    {
      "inputs": [
        {
          "internalType": "address",
          "name": "_account",
          "type": "address"
        },
        {
          "internalType": "uint256",
          "name": "_id",
          "type": "uint256"
        },
        {
          "internalType": "uint256",
          "name": "_amount",
          "type": "uint256"
        }
      ],
      "name": "mappingIncrease",
      "outputs": [],
      "stateMutability": "nonpayable",
      "type": "function"
    },
    {
      "inputs": [],
      "name": "owner",
      "outputs": [
        {
          "internalType": "address",
          "name": "",
          "type": "address"
        }
      ],
      "stateMutability": "view",
      "type": "function"
    },
    {
      "inputs": [
        {
          "internalType": "address payable",
          "name": "_owner",
          "type": "address"
        }
      ],
      "name": "payoutPlatformFees",
      "outputs": [],
      "stateMutability": "nonpayable",
      "type": "function"
    },
    {
      "inputs": [],
      "name": "renounceOwnership",
      "outputs": [],
      "stateMutability": "nonpayable",
      "type": "function"
    },
    {
      "inputs": [
        {
          "internalType": "address",
          "name": "_from",
          "type": "address"
        },
        {
          "internalType": "address",
          "name": "_to",
          "type": "address"
        },
        {
          "internalType": "uint256[]",
          "name": "_ids",
          "type": "uint256[]"
        },
        {
          "internalType": "uint256[]",
          "name": "_amounts",
          "type": "uint256[]"
        },
        {
          "internalType": "bytes",
          "name": "data",
          "type": "bytes"
        }
      ],
      "name": "safeBatchTransferFrom",
      "outputs": [],
      "stateMutability": "nonpayable",
      "type": "function"
    },
    {
      "inputs": [
        {
          "internalType": "address",
          "name": "_from",
          "type": "address"
        },
        {
          "internalType": "address",
          "name": "_to",
          "type": "address"
        },
        {
          "internalType": "uint256",
          "name": "_id",
          "type": "uint256"
        },
        {
          "internalType": "uint256",
          "name": "_amount",
          "type": "uint256"
        },
        {
          "internalType": "bytes",
          "name": "_data",
          "type": "bytes"
        }
      ],
      "name": "safeTransferFrom",
      "outputs": [],
      "stateMutability": "nonpayable",
      "type": "function"
    },
    {
      "inputs": [
        {
          "internalType": "address",
          "name": "_operator",
          "type": "address"
        },
        {
          "internalType": "bool",
          "name": "_approved",
          "type": "bool"
        }
      ],
      "name": "setApprovalForAll",
      "outputs": [],
      "stateMutability": "nonpayable",
      "type": "function"
    },
    {
      "inputs": [
        {
          "internalType": "bytes4",
          "name": "interfaceId",
          "type": "bytes4"
        }
      ],
      "name": "supportsInterface",
      "outputs": [
        {
          "internalType": "bool",
          "name": "",
          "type": "bool"
        }
      ],
      "stateMutability": "view",
      "type": "function"
    },
    {
      "inputs": [
        {
          "internalType": "uint256",
          "name": "",
          "type": "uint256"
        },
        {
          "internalType": "address",
          "name": "",
          "type": "address"
        }
      ],
      "name": "tokenHoldership",
      "outputs": [
        {
          "internalType": "uint256",
          "name": "",
          "type": "uint256"
        }
      ],
      "stateMutability": "view",
      "type": "function"
    },
    {
      "inputs": [
        {
          "internalType": "uint256",
          "name": "",
          "type": "uint256"
        }
      ],
      "name": "tokenToCreator",
      "outputs": [
        {
          "internalType": "address",
          "name": "",
          "type": "address"
        }
      ],
      "stateMutability": "view",
      "type": "function"
    },
    {
      "inputs": [
        {
          "internalType": "address",
          "name": "newOwner",
          "type": "address"
        }
      ],
      "name": "transferOwnership",
      "outputs": [],
      "stateMutability": "nonpayable",
      "type": "function"
    },
    {
      "inputs": [
        {
          "internalType": "uint256",
          "name": "",
          "type": "uint256"
        }
      ],
      "name": "uri",
      "outputs": [
        {
          "internalType": "string",
          "name": "",
          "type": "string"
        }
      ],
      "stateMutability": "view",
      "type": "function"
    },
    {
      "inputs": [
        {
          "internalType": "address",
          "name": "",
          "type": "address"
        },
        {
          "internalType": "uint256",
          "name": "",
          "type": "uint256"
        }
      ],
      "name": "userToHoldings",
      "outputs": [
        {
          "internalType": "uint256",
          "name": "",
          "type": "uint256"
        }
      ],
      "stateMutability": "view",
      "type": "function"
    },
    {
      "inputs": [
        {
          "internalType": "address payable",
          "name": "_owner",
          "type": "address"
        }
      ],
      "name": "withdraw",
      "outputs": [],
      "stateMutability": "nonpayable",
      "type": "function"
    },
    {
      "inputs": [
        {
          "internalType": "uint256",
          "name": "_tokenId",
          "type": "uint256"
        },
        {
          "internalType": "uint256",
          "name": "_amount",
          "type": "uint256"
        }
      ],
      "name": "_totalProceeds",
      "outputs": [
        {
          "internalType": "uint256",
          "name": "",
          "type": "uint256"
        }
      ],
      "stateMutability": "view",
      "type": "function"
    },
    {
      "inputs": [
        {
          "internalType": "uint256",
          "name": "_tokenId",
          "type": "uint256"
        },
        {
          "internalType": "uint256",
          "name": "_amount",
          "type": "uint256"
        }
      ],
      "name": "_buyProceeds",
      "outputs": [
        {
          "internalType": "uint256",
          "name": "",
          "type": "uint256"
        }
      ],
      "stateMutability": "view",
      "type": "function"
    }
  ],
  "bytecode": "0x60806040526001805560006002556000600355601460045565082f79cd900060055560b96006553480156200003357600080fd5b5060405162003cdd38038062003cdd83398181016040528101906200005991906200027b565b8080808060006200006f6200012960201b60201c565b9050806000806101000a81548173ffffffffffffffffffffffffffffffffffffffff021916908373ffffffffffffffffffffffffffffffffffffffff1602179055508073ffffffffffffffffffffffffffffffffffffffff16600073ffffffffffffffffffffffffffffffffffffffff167f8be0079c531659141344cd1fd0a4f28419497f9722a3daafe3b4186f6b6457e060405160405180910390a3506200011e816200013160201b60201c565b505050505062000450565b600033905090565b80600f9080519060200190620001499291906200014d565b5050565b8280546200015b9062000361565b90600052602060002090601f0160209004810192826200017f5760008555620001cb565b82601f106200019a57805160ff1916838001178555620001cb565b82800160010185558215620001cb579182015b82811115620001ca578251825591602001919060010190620001ad565b5b509050620001da9190620001de565b5090565b5b80821115620001f9576000816000905550600101620001df565b5090565b6000620002146200020e84620002f5565b620002cc565b90508281526020810184848401111562000233576200023262000430565b5b620002408482856200032b565b509392505050565b600082601f83011262000260576200025f6200042b565b5b815162000272848260208601620001fd565b91505092915050565b6000602082840312156200029457620002936200043a565b5b600082015167ffffffffffffffff811115620002b557620002b462000435565b5b620002c38482850162000248565b91505092915050565b6000620002d8620002eb565b9050620002e6828262000397565b919050565b6000604051905090565b600067ffffffffffffffff821115620003135762000312620003fc565b5b6200031e826200043f565b9050602081019050919050565b60005b838110156200034b5780820151818401526020810190506200032e565b838111156200035b576000848401525b50505050565b600060028204905060018216806200037a57607f821691505b60208210811415620003915762000390620003cd565b5b50919050565b620003a2826200043f565b810181811067ffffffffffffffff82111715620003c457620003c3620003fc565b5b80604052505050565b7f4e487b7100000000000000000000000000000000000000000000000000000000600052602260045260246000fd5b7f4e487b7100000000000000000000000000000000000000000000000000000000600052604160045260246000fd5b600080fd5b600080fd5b600080fd5b600080fd5b6000601f19601f8301169050919050565b61387d80620004606000396000f3fe608060405234801561001057600080fd5b50600436106101d95760003560e01c8063a22cb46511610104578063d7a5791a116100a2578063f242432a11610071578063f242432a1461059c578063f2fde38b146105b8578063f56e71b4146105d4578063f7374e2e146105f0576101d9565b8063d7a5791a14610518578063de6a06ed14610534578063e985e9c514610550578063eb84175914610580576101d9565b8063c39cbef1116100de578063c39cbef11461048e578063c539c317146104aa578063ce901d8a146104c6578063d56b72c7146104fc576101d9565b8063a22cb46514610412578063ba111a051461042e578063bfb48c9c1461045e576101d9565b806335a8ae211161017c5780635d4222cd1161014b5780635d4222cd1461039e578063715018a6146103ba5780638da5cb5b146103c457806392724afa146103e2576101d9565b806335a8ae21146102f25780634e1273f4146103225780634fe477d81461035257806351cff8d914610382576101d9565b80630e89341c116101b85780630e89341c1461025a57806318892ae81461028a5780631d5ad18b146102ba5780632eb2c2d6146102d6576101d9565b8062fdd58e146101de57806301ffc9a71461020e57806306e320f51461023e575b600080fd5b6101f860048036038101906101f39190612aef565b61060c565b60405161020591906130fe565b60405180910390f35b61022860048036038101906102239190612bfa565b6106d6565b6040516102359190613041565b60405180910390f35b61025860048036038101906102539190612d14565b6107b8565b005b610274600480360381019061026f9190612c27565b61085f565b604051610281919061305c565b60405180910390f35b6102a4600480360381019061029f9190612c27565b6108f3565b6040516102b19190612f49565b60405180910390f35b6102d460048036038101906102cf9190612c94565b610926565b005b6102f060048036038101906102eb9190612949565b6109fb565b005b61030c60048036038101906103079190612d74565b610b67565b60405161031991906130fe565b60405180910390f35b61033c60048036038101906103379190612b82565b610b9f565b6040516103499190612fe8565b60405180910390f35b61036c60048036038101906103679190612d74565b610cb8565b60405161037991906130fe565b60405180910390f35b61039c60048036038101906103979190612821565b610ec5565b005b6103b860048036038101906103b39190612b2f565b610f8b565b005b6103c261105e565b005b6103cc611198565b6040516103d99190612f49565b60405180910390f35b6103fc60048036038101906103f79190612aef565b6111c1565b60405161040991906130fe565b60405180910390f35b61042c60048036038101906104279190612aaf565b6111e6565b005b61044860048036038101906104439190612c27565b6112e3565b60405161045591906130fe565b60405180910390f35b61047860048036038101906104739190612c54565b611306565b60405161048591906130fe565b60405180910390f35b6104a860048036038101906104a39190612d14565b61132b565b005b6104c460048036038101906104bf9190612c27565b6113d2565b005b6104e060048036038101906104db9190612c27565b611458565b6040516104f39796959493929190612f64565b60405180910390f35b6105166004803603810190610511919061284e565b61166f565b005b610532600480360381019061052d9190612c27565b61188b565b005b61054e60048036038101906105499190612d14565b611911565b005b61056a60048036038101906105659190612909565b6119b8565b6040516105779190613041565b60405180910390f35b61059a60048036038101906105959190612821565b611a4c565b005b6105b660048036038101906105b19190612a18565b611b1c565b005b6105d260048036038101906105cd91906127f4565b611c00565b005b6105ee60048036038101906105e99190612b2f565b611da9565b005b61060a60048036038101906106059190612cd4565b611e7c565b005b60008073ffffffffffffffffffffffffffffffffffffffff168373ffffffffffffffffffffffffffffffffffffffff16141561067d576040517f08c379a00000000000000000000000000000000000000000000000000000000081526004016106749061307e565b60405180910390fd5b600d600083815260200190815260200160002060008473ffffffffffffffffffffffffffffffffffffffff1673ffffffffffffffffffffffffffffffffffffffff16815260200190815260200160002054905092915050565b60007fd9b67a26000000000000000000000000000000000000000000000000000000007bffffffffffffffffffffffffffffffffffffffffffffffffffffffff1916827bffffffffffffffffffffffffffffffffffffffffffffffffffffffff191614806107a157507f0e89341c000000000000000000000000000000000000000000000000000000007bffffffffffffffffffffffffffffffffffffffffffffffffffffffff1916827bffffffffffffffffffffffffffffffffffffffffffffffffffffffff1916145b806107b157506107b082611f39565b5b9050919050565b826008600082815260200190815260200160002060009054906101000a900473ffffffffffffffffffffffffffffffffffffffff1673ffffffffffffffffffffffffffffffffffffffff163373ffffffffffffffffffffffffffffffffffffffff161461082457600080fd5b82826007868154811061083a57610839613631565b5b906000526020600020906007020160020191906108589291906123f0565b5050505050565b6060600f805461086e906134f8565b80601f016020809104026020016040519081016040528092919081815260200182805461089a906134f8565b80156108e75780601f106108bc576101008083540402835291602001916108e7565b820191906000526020600020905b8154815290600101906020018083116108ca57829003601f168201915b50505050509050919050565b60086020528060005260406000206000915054906101000a900473ffffffffffffffffffffffffffffffffffffffff1681565b816008600082815260200190815260200160002060009054906101000a900473ffffffffffffffffffffffffffffffffffffffff1673ffffffffffffffffffffffffffffffffffffffff163373ffffffffffffffffffffffffffffffffffffffff161461099257600080fd5b81600784815481106109a7576109a6613631565b5b906000526020600020906007020160000160006101000a81548173ffffffffffffffffffffffffffffffffffffffff021916908373ffffffffffffffffffffffffffffffffffffffff160217905550505050565b60005b8351811015610ae1578573ffffffffffffffffffffffffffffffffffffffff163373ffffffffffffffffffffffffffffffffffffffff161480610a475750610a4686866119b8565b5b610a5057600080fd5b610a8f86858381518110610a6757610a66613631565b5b6020026020010151858481518110610a8257610a81613631565b5b6020026020010151611da9565b610ace85858381518110610aa657610aa5613631565b5b6020026020010151858481518110610ac157610ac0613631565b5b6020026020010151610f8b565b8080610ad99061355b565b9150506109fe565b508373ffffffffffffffffffffffffffffffffffffffff168573ffffffffffffffffffffffffffffffffffffffff163373ffffffffffffffffffffffffffffffffffffffff167f4a39dc06d4c0dbc64b70af90fd698a233a518aa5d07e595d983b8c0526c8f7fb8686604051610b5892919061300a565b60405180910390a45050505050565b600080610b748484610cb8565b90506000610b81826112e3565b905060008183610b919190613309565b905080935050505092915050565b60608151835114610be5576040517f08c379a0000000000000000000000000000000000000000000000000000000008152600401610bdc906130de565b60405180910390fd5b6000835167ffffffffffffffff811115610c0257610c01613660565b5b604051908082528060200260200182016040528015610c305781602001602082028036833780820191505090505b50905060005b8451811015610cad57610c7d858281518110610c5557610c54613631565b5b6020026020010151858381518110610c7057610c6f613631565b5b602002602001015161060c565b828281518110610c9057610c8f613631565b5b60200260200101818152505080610ca69061355b565b9050610c36565b508091505092915050565b60008060009050600060078581548110610cd557610cd4613631565b5b906000526020600020906007020160050154905060008482610cf79190613309565b905060078681548110610d0d57610d0c613631565b5b906000526020600020906007020160060154811015610d6657610d5f818660055460065460078b81548110610d4557610d44613631565b5b906000526020600020906007020160060154600454611fa3565b9250610eb9565b60078681548110610d7a57610d79613631565b5b906000526020600020906007020160060154821015610ea557610e2160078781548110610daa57610da9613631565b5b9060005260206000209060070201600601548360078981548110610dd157610dd0613631565b5b906000526020600020906007020160060154610ded91906133ea565b60055460065460078b81548110610e0757610e06613631565b5b906000526020600020906007020160060154600454611fa3565b9250610e9360078781548110610e3a57610e39613631565b5b9060005260206000209060070201600601548360078981548110610e6157610e60613631565b5b906000526020600020906007020160060154610e7d91906133ea565b87610e8891906133ea565b60055460065461201c565b83610e9e9190613309565b9250610eb8565b610eb5828660055460065461201c565b92505b5b82935050505092915050565b610ecd6120aa565b73ffffffffffffffffffffffffffffffffffffffff16610eeb611198565b73ffffffffffffffffffffffffffffffffffffffff1614610f41576040517f08c379a0000000000000000000000000000000000000000000000000000000008152600401610f38906130be565b60405180910390fd5b8073ffffffffffffffffffffffffffffffffffffffff166108fc479081150290604051600060405180830381858888f19350505050158015610f87573d6000803e3d6000fd5b5050565b80600a600084815260200190815260200160002060008573ffffffffffffffffffffffffffffffffffffffff1673ffffffffffffffffffffffffffffffffffffffff1681526020019081526020016000206000828254610feb9190613309565b9250508190555080600b60008573ffffffffffffffffffffffffffffffffffffffff1673ffffffffffffffffffffffffffffffffffffffff168152602001908152602001600020600084815260200190815260200160002060008282546110529190613309565b92505081905550505050565b6110666120aa565b73ffffffffffffffffffffffffffffffffffffffff16611084611198565b73ffffffffffffffffffffffffffffffffffffffff16146110da576040517f08c379a00000000000000000000000000000000000000000000000000000000081526004016110d1906130be565b60405180910390fd5b600073ffffffffffffffffffffffffffffffffffffffff1660008054906101000a900473ffffffffffffffffffffffffffffffffffffffff1673ffffffffffffffffffffffffffffffffffffffff167f8be0079c531659141344cd1fd0a4f28419497f9722a3daafe3b4186f6b6457e060405160405180910390a360008060006101000a81548173ffffffffffffffffffffffffffffffffffffffff021916908373ffffffffffffffffffffffffffffffffffffffff160217905550565b60008060009054906101000a900473ffffffffffffffffffffffffffffffffffffffff16905090565b600b602052816000526040600020602052806000526040600020600091509150505481565b80600c60003373ffffffffffffffffffffffffffffffffffffffff1673ffffffffffffffffffffffffffffffffffffffff16815260200190815260200160002060008473ffffffffffffffffffffffffffffffffffffffff1673ffffffffffffffffffffffffffffffffffffffff16815260200190815260200160002060006101000a81548160ff0219169083151502179055508173ffffffffffffffffffffffffffffffffffffffff163373ffffffffffffffffffffffffffffffffffffffff167f17307eab39ab6107e8899845ad3d59bd9653f200f220920489ca2b5937696c31836040516112d79190613041565b60405180910390a35050565b60006064600154836112f59190613390565b6112ff919061335f565b9050919050565b600a602052816000526040600020602052806000526040600020600091509150505481565b826008600082815260200190815260200160002060009054906101000a900473ffffffffffffffffffffffffffffffffffffffff1673ffffffffffffffffffffffffffffffffffffffff163373ffffffffffffffffffffffffffffffffffffffff161461139757600080fd5b8282600786815481106113ad576113ac613631565b5b906000526020600020906007020160010191906113cb9291906123f0565b5050505050565b6113da6120aa565b73ffffffffffffffffffffffffffffffffffffffff166113f8611198565b73ffffffffffffffffffffffffffffffffffffffff161461144e576040517f08c379a0000000000000000000000000000000000000000000000000000000008152600401611445906130be565b60405180910390fd5b8060048190555050565b6007818154811061146857600080fd5b90600052602060002090600702016000915090508060000160009054906101000a900473ffffffffffffffffffffffffffffffffffffffff16908060010180546114b1906134f8565b80601f01602080910402602001604051908101604052809291908181526020018280546114dd906134f8565b801561152a5780601f106114ff5761010080835404028352916020019161152a565b820191906000526020600020905b81548152906001019060200180831161150d57829003601f168201915b50505050509080600201805461153f906134f8565b80601f016020809104026020016040519081016040528092919081815260200182805461156b906134f8565b80156115b85780601f1061158d576101008083540402835291602001916115b8565b820191906000526020600020905b81548152906001019060200180831161159b57829003601f168201915b5050505050908060030180546115cd906134f8565b80601f01602080910402602001604051908101604052809291908181526020018280546115f9906134f8565b80156116465780601f1061161b57610100808354040283529160200191611646565b820191906000526020600020905b81548152906001019060200180831161162957829003601f168201915b5050505050908060040160009054906101000a900460ff16908060050154908060060154905087565b60076040518060e001604052808673ffffffffffffffffffffffffffffffffffffffff168152602001858152602001848152602001838152602001600015158152602001600081526020016000815250908060018154018082558091505060019003906000526020600020906007020160009091909190915060008201518160000160006101000a81548173ffffffffffffffffffffffffffffffffffffffff021916908373ffffffffffffffffffffffffffffffffffffffff160217905550602082015181600101908051906020019061174b929190612476565b506040820151816002019080519060200190611768929190612476565b506060820151816003019080519060200190611785929190612476565b5060808201518160040160006101000a81548160ff02191690831515021790555060a0820151816005015560c082015181600601555050600060016007805490506117d091906133ea565b9050846008600083815260200190815260200160002060006101000a81548173ffffffffffffffffffffffffffffffffffffffff021916908373ffffffffffffffffffffffffffffffffffffffff160217905550600060096000838152602001908152602001600020819055507f3ef624c0f3fb7ad40b94c02078ea3e3a797dbfc21e921ee4bd2b8ad0ca6aa1138186868686600080600060405161187c989796959493929190613119565b60405180910390a15050505050565b6118936120aa565b73ffffffffffffffffffffffffffffffffffffffff166118b1611198565b73ffffffffffffffffffffffffffffffffffffffff1614611907576040517f08c379a00000000000000000000000000000000000000000000000000000000081526004016118fe906130be565b60405180910390fd5b8060018190555050565b826008600082815260200190815260200160002060009054906101000a900473ffffffffffffffffffffffffffffffffffffffff1673ffffffffffffffffffffffffffffffffffffffff163373ffffffffffffffffffffffffffffffffffffffff161461197d57600080fd5b82826007868154811061199357611992613631565b5b906000526020600020906007020160030191906119b19291906123f0565b5050505050565b6000600c60008473ffffffffffffffffffffffffffffffffffffffff1673ffffffffffffffffffffffffffffffffffffffff16815260200190815260200160002060008373ffffffffffffffffffffffffffffffffffffffff1673ffffffffffffffffffffffffffffffffffffffff16815260200190815260200160002060009054906101000a900460ff16905092915050565b611a546120aa565b73ffffffffffffffffffffffffffffffffffffffff16611a72611198565b73ffffffffffffffffffffffffffffffffffffffff1614611ac8576040517f08c379a0000000000000000000000000000000000000000000000000000000008152600401611abf906130be565b60405180910390fd5b8073ffffffffffffffffffffffffffffffffffffffff166108fc6003549081150290604051600060405180830381858888f19350505050158015611b10573d6000803e3d6000fd5b50600060038190555050565b8473ffffffffffffffffffffffffffffffffffffffff163373ffffffffffffffffffffffffffffffffffffffff161480611b5c5750611b5b85856119b8565b5b611b6557600080fd5b611b70858484611da9565b611b7b848484610f8b565b8373ffffffffffffffffffffffffffffffffffffffff168573ffffffffffffffffffffffffffffffffffffffff163373ffffffffffffffffffffffffffffffffffffffff167fc3d58168c5ae7397731d063d5bbf3d657854427343f4c083240f7aacaa2d0f628686604051611bf19291906131ac565b60405180910390a45050505050565b611c086120aa565b73ffffffffffffffffffffffffffffffffffffffff16611c26611198565b73ffffffffffffffffffffffffffffffffffffffff1614611c7c576040517f08c379a0000000000000000000000000000000000000000000000000000000008152600401611c73906130be565b60405180910390fd5b600073ffffffffffffffffffffffffffffffffffffffff168173ffffffffffffffffffffffffffffffffffffffff161415611cec576040517f08c379a0000000000000000000000000000000000000000000000000000000008152600401611ce39061309e565b60405180910390fd5b8073ffffffffffffffffffffffffffffffffffffffff1660008054906101000a900473ffffffffffffffffffffffffffffffffffffffff1673ffffffffffffffffffffffffffffffffffffffff167f8be0079c531659141344cd1fd0a4f28419497f9722a3daafe3b4186f6b6457e060405160405180910390a3806000806101000a81548173ffffffffffffffffffffffffffffffffffffffff021916908373ffffffffffffffffffffffffffffffffffffffff16021790555050565b80600a600084815260200190815260200160002060008573ffffffffffffffffffffffffffffffffffffffff1673ffffffffffffffffffffffffffffffffffffffff1681526020019081526020016000206000828254611e0991906133ea565b9250508190555080600b60008573ffffffffffffffffffffffffffffffffffffffff1673ffffffffffffffffffffffffffffffffffffffff16815260200190815260200160002060008481526020019081526020016000206000828254611e7091906133ea565b92505081905550505050565b611e846120aa565b73ffffffffffffffffffffffffffffffffffffffff16611ea2611198565b73ffffffffffffffffffffffffffffffffffffffff1614611ef8576040517f08c379a0000000000000000000000000000000000000000000000000000000008152600401611eef906130be565b60405180910390fd5b8060078381548110611f0d57611f0c613631565b5b906000526020600020906007020160040160006101000a81548160ff0219169083151502179055505050565b60007f01ffc9a7000000000000000000000000000000000000000000000000000000007bffffffffffffffffffffffffffffffffffffffffffffffffffffffff1916827bffffffffffffffffffffffffffffffffffffffffffffffffffffffff1916149050919050565b600080600080611fb78a8a8a8a8a8a6120b2565b9250925092506000838b1015611fda57611fd384848d8561212d565b905061200b565b83821015611ff857611ff184848d858d8d8d6121d0565b905061200a565b61200784848d858d8d8d6122f2565b90505b5b809450505050509695505050505050565b600080848661202b9190613309565b9050600083878661203c9190613390565b612046919061335f565b905060008483876120579190613390565b612061919061335f565b90506000888461207191906133ea565b9050600060028284866120849190613309565b61208e9190613390565b612098919061335f565b90508095505050505050949350505050565b600033905090565b6000806000806002866120c5919061335f565b90506000878960648860326120da91906133ea565b8a6120e59190613390565b6120ef919061335f565b6120f99190613390565b612103919061335f565b905060008a8c61211391906133ea565b905082828295509550955050505096509650969350505050565b600080828661213c91906133ea565b8686612148919061335f565b6121529190613390565b8561215d91906133ea565b90506000848761216d91906133ea565b8787612179919061335f565b6121839190613390565b8661218e91906133ea565b90506000848661219e91906133ea565b905060028183856121af9190613309565b6121b99190613390565b6121c3919061335f565b9350505050949350505050565b60008085896121df91906133ea565b89896121eb919061335f565b6121f59190613390565b8861220091906133ea565b905060008890506000878b61221591906133ea565b9050600060028284866122289190613309565b6122329190613390565b61223c919061335f565b905060008b8d8c61224d91906133ea565b8e8961225991906133ea565b8e8b8b8e6122679190613390565b612271919061335f565b61227b91906133ea565b612285919061335f565b61228f9190613390565b6122999190613309565b905060008d8c6122a991906133ea565b9050600060028284886122bc9190613309565b6122c69190613390565b6122d0919061335f565b905080846122de9190613309565b975050505050505050979650505050505050565b60008087898761230291906133ea565b8a8561230e91906133ea565b8a87878a61231c9190613390565b612326919061335f565b61233091906133ea565b61233a919061335f565b6123449190613390565b61234e9190613309565b90506000888a8961235f91906133ea565b8b8661236b91906133ea565b8b88888b6123799190613390565b612383919061335f565b61238d91906133ea565b612397919061335f565b6123a19190613390565b6123ab9190613309565b9050600087896123bb91906133ea565b905060028183856123cc9190613309565b6123d69190613390565b6123e0919061335f565b9350505050979650505050505050565b8280546123fc906134f8565b90600052602060002090601f01602090048101928261241e5760008555612465565b82601f1061243757803560ff1916838001178555612465565b82800160010185558215612465579182015b82811115612464578235825591602001919060010190612449565b5b50905061247291906124fc565b5090565b828054612482906134f8565b90600052602060002090601f0160209004810192826124a457600085556124eb565b82601f106124bd57805160ff19168380011785556124eb565b828001600101855582156124eb579182015b828111156124ea5782518255916020019190600101906124cf565b5b5090506124f891906124fc565b5090565b5b808211156125155760008160009055506001016124fd565b5090565b600061252c612527846131fa565b6131d5565b9050808382526020820190508285602086028201111561254f5761254e613699565b5b60005b8581101561257f5781612565888261267d565b845260208401935060208301925050600181019050612552565b5050509392505050565b600061259c61259784613226565b6131d5565b905080838252602082019050828560208602820111156125bf576125be613699565b5b60005b858110156125ef57816125d588826127df565b8452602084019350602083019250506001810190506125c2565b5050509392505050565b600061260c61260784613252565b6131d5565b9050828152602081018484840111156126285761262761369e565b5b6126338482856134b6565b509392505050565b600061264e61264984613283565b6131d5565b90508281526020810184848401111561266a5761266961369e565b5b6126758482856134b6565b509392505050565b60008135905061268c816137d4565b92915050565b6000813590506126a1816137eb565b92915050565b600082601f8301126126bc576126bb613694565b5b81356126cc848260208601612519565b91505092915050565b600082601f8301126126ea576126e9613694565b5b81356126fa848260208601612589565b91505092915050565b60008135905061271281613802565b92915050565b60008135905061272781613819565b92915050565b600082601f83011261274257612741613694565b5b81356127528482602086016125f9565b91505092915050565b60008083601f84011261277157612770613694565b5b8235905067ffffffffffffffff81111561278e5761278d61368f565b5b6020830191508360018202830111156127aa576127a9613699565b5b9250929050565b600082601f8301126127c6576127c5613694565b5b81356127d684826020860161263b565b91505092915050565b6000813590506127ee81613830565b92915050565b60006020828403121561280a576128096136a8565b5b60006128188482850161267d565b91505092915050565b600060208284031215612837576128366136a8565b5b600061284584828501612692565b91505092915050565b60008060008060808587031215612868576128676136a8565b5b600061287687828801612692565b945050602085013567ffffffffffffffff811115612897576128966136a3565b5b6128a3878288016127b1565b935050604085013567ffffffffffffffff8111156128c4576128c36136a3565b5b6128d0878288016127b1565b925050606085013567ffffffffffffffff8111156128f1576128f06136a3565b5b6128fd878288016127b1565b91505092959194509250565b600080604083850312156129205761291f6136a8565b5b600061292e8582860161267d565b925050602061293f8582860161267d565b9150509250929050565b600080600080600060a08688031215612965576129646136a8565b5b60006129738882890161267d565b95505060206129848882890161267d565b945050604086013567ffffffffffffffff8111156129a5576129a46136a3565b5b6129b1888289016126d5565b935050606086013567ffffffffffffffff8111156129d2576129d16136a3565b5b6129de888289016126d5565b925050608086013567ffffffffffffffff8111156129ff576129fe6136a3565b5b612a0b8882890161272d565b9150509295509295909350565b600080600080600060a08688031215612a3457612a336136a8565b5b6000612a428882890161267d565b9550506020612a538882890161267d565b9450506040612a64888289016127df565b9350506060612a75888289016127df565b925050608086013567ffffffffffffffff811115612a9657612a956136a3565b5b612aa28882890161272d565b9150509295509295909350565b60008060408385031215612ac657612ac56136a8565b5b6000612ad48582860161267d565b9250506020612ae585828601612703565b9150509250929050565b60008060408385031215612b0657612b056136a8565b5b6000612b148582860161267d565b9250506020612b25858286016127df565b9150509250929050565b600080600060608486031215612b4857612b476136a8565b5b6000612b568682870161267d565b9350506020612b67868287016127df565b9250506040612b78868287016127df565b9150509250925092565b60008060408385031215612b9957612b986136a8565b5b600083013567ffffffffffffffff811115612bb757612bb66136a3565b5b612bc3858286016126a7565b925050602083013567ffffffffffffffff811115612be457612be36136a3565b5b612bf0858286016126d5565b9150509250929050565b600060208284031215612c1057612c0f6136a8565b5b6000612c1e84828501612718565b91505092915050565b600060208284031215612c3d57612c3c6136a8565b5b6000612c4b848285016127df565b91505092915050565b60008060408385031215612c6b57612c6a6136a8565b5b6000612c79858286016127df565b9250506020612c8a8582860161267d565b9150509250929050565b60008060408385031215612cab57612caa6136a8565b5b6000612cb9858286016127df565b9250506020612cca85828601612692565b9150509250929050565b60008060408385031215612ceb57612cea6136a8565b5b6000612cf9858286016127df565b9250506020612d0a85828601612703565b9150509250929050565b600080600060408486031215612d2d57612d2c6136a8565b5b6000612d3b868287016127df565b935050602084013567ffffffffffffffff811115612d5c57612d5b6136a3565b5b612d688682870161275b565b92509250509250925092565b60008060408385031215612d8b57612d8a6136a8565b5b6000612d99858286016127df565b9250506020612daa858286016127df565b9150509250929050565b6000612dc08383612f2b565b60208301905092915050565b612dd581613430565b82525050565b612de48161341e565b82525050565b6000612df5826132c4565b612dff81856132e7565b9350612e0a836132b4565b8060005b83811015612e3b578151612e228882612db4565b9750612e2d836132da565b925050600181019050612e0e565b5085935050505092915050565b612e5181613442565b82525050565b612e60816134a4565b82525050565b6000612e71826132cf565b612e7b81856132f8565b9350612e8b8185602086016134c5565b612e94816136ad565b840191505092915050565b6000612eac602b836132f8565b9150612eb7826136be565b604082019050919050565b6000612ecf6026836132f8565b9150612eda8261370d565b604082019050919050565b6000612ef26020836132f8565b9150612efd8261375c565b602082019050919050565b6000612f156029836132f8565b9150612f2082613785565b604082019050919050565b612f348161349a565b82525050565b612f438161349a565b82525050565b6000602082019050612f5e6000830184612ddb565b92915050565b600060e082019050612f79600083018a612dcc565b8181036020830152612f8b8189612e66565b90508181036040830152612f9f8188612e66565b90508181036060830152612fb38187612e66565b9050612fc26080830186612e48565b612fcf60a0830185612f3a565b612fdc60c0830184612f3a565b98975050505050505050565b600060208201905081810360008301526130028184612dea565b905092915050565b600060408201905081810360008301526130248185612dea565b905081810360208301526130388184612dea565b90509392505050565b60006020820190506130566000830184612e48565b92915050565b600060208201905081810360008301526130768184612e66565b905092915050565b6000602082019050818103600083015261309781612e9f565b9050919050565b600060208201905081810360008301526130b781612ec2565b9050919050565b600060208201905081810360008301526130d781612ee5565b9050919050565b600060208201905081810360008301526130f781612f08565b9050919050565b60006020820190506131136000830184612f3a565b92915050565b60006101008201905061312f600083018b612f3a565b61313c602083018a612dcc565b818103604083015261314e8189612e66565b905081810360608301526131628188612e66565b905081810360808301526131768187612e66565b905061318560a0830186612e48565b61319260c0830185612e57565b61319f60e0830184612e57565b9998505050505050505050565b60006040820190506131c16000830185612f3a565b6131ce6020830184612f3a565b9392505050565b60006131df6131f0565b90506131eb828261352a565b919050565b6000604051905090565b600067ffffffffffffffff82111561321557613214613660565b5b602082029050602081019050919050565b600067ffffffffffffffff82111561324157613240613660565b5b602082029050602081019050919050565b600067ffffffffffffffff82111561326d5761326c613660565b5b613276826136ad565b9050602081019050919050565b600067ffffffffffffffff82111561329e5761329d613660565b5b6132a7826136ad565b9050602081019050919050565b6000819050602082019050919050565b600081519050919050565b600081519050919050565b6000602082019050919050565b600082825260208201905092915050565b600082825260208201905092915050565b60006133148261349a565b915061331f8361349a565b9250827fffffffffffffffffffffffffffffffffffffffffffffffffffffffffffffffff03821115613354576133536135a4565b5b828201905092915050565b600061336a8261349a565b91506133758361349a565b925082613385576133846135d3565b5b828204905092915050565b600061339b8261349a565b91506133a68361349a565b9250817fffffffffffffffffffffffffffffffffffffffffffffffffffffffffffffffff04831182151516156133df576133de6135a4565b5b828202905092915050565b60006133f58261349a565b91506134008361349a565b925082821015613413576134126135a4565b5b828203905092915050565b60006134298261347a565b9050919050565b600061343b8261347a565b9050919050565b60008115159050919050565b60007fffffffff0000000000000000000000000000000000000000000000000000000082169050919050565b600073ffffffffffffffffffffffffffffffffffffffff82169050919050565b6000819050919050565b60006134af8261349a565b9050919050565b82818337600083830152505050565b60005b838110156134e35780820151818401526020810190506134c8565b838111156134f2576000848401525b50505050565b6000600282049050600182168061351057607f821691505b6020821081141561352457613523613602565b5b50919050565b613533826136ad565b810181811067ffffffffffffffff8211171561355257613551613660565b5b80604052505050565b60006135668261349a565b91507fffffffffffffffffffffffffffffffffffffffffffffffffffffffffffffffff821415613599576135986135a4565b5b600182019050919050565b7f4e487b7100000000000000000000000000000000000000000000000000000000600052601160045260246000fd5b7f4e487b7100000000000000000000000000000000000000000000000000000000600052601260045260246000fd5b7f4e487b7100000000000000000000000000000000000000000000000000000000600052602260045260246000fd5b7f4e487b7100000000000000000000000000000000000000000000000000000000600052603260045260246000fd5b7f4e487b7100000000000000000000000000000000000000000000000000000000600052604160045260246000fd5b600080fd5b600080fd5b600080fd5b600080fd5b600080fd5b600080fd5b6000601f19601f8301169050919050565b7f455243313135353a2062616c616e636520717565727920666f7220746865207a60008201527f65726f2061646472657373000000000000000000000000000000000000000000602082015250565b7f4f776e61626c653a206e6577206f776e657220697320746865207a65726f206160008201527f6464726573730000000000000000000000000000000000000000000000000000602082015250565b7f4f776e61626c653a2063616c6c6572206973206e6f7420746865206f776e6572600082015250565b7f455243313135353a206163636f756e747320616e6420696473206c656e67746860008201527f206d69736d617463680000000000000000000000000000000000000000000000602082015250565b6137dd8161341e565b81146137e857600080fd5b50565b6137f481613430565b81146137ff57600080fd5b50565b61380b81613442565b811461381657600080fd5b50565b6138228161344e565b811461382d57600080fd5b50565b6138398161349a565b811461384457600080fd5b5056fea2646970667358221220efdd086af0364a151135034d34c15052a2038ba9264abf066cff605c60245ffd64736f6c63430008060033",
  "immutableReferences": {},
  "source": "// SPDX-License-Identifier: MIT\npragma solidity ^0.8.0;\n\nimport \"./creatortokenfees.sol\";\n\ncontract CreatorTokenComputation is CreatorTokenFees {\n\n\tconstructor(string memory uri) CreatorTokenFees(uri) { }\n\n\t// Calculate total transaction proceeds\n\tfunction _totalProceeds(uint _tokenId, uint _amount) public view returns (uint256) {//, uint256, uint256) {//[3] memory) {\n\t\t// Compute proceedsRequired (ex-fees)\n\t\tuint proceedsRequired = _buyProceeds(_tokenId, _amount);\n\t\t// Compute feeRequired\n\t\tuint feeRequired = _feeProceeds(proceedsRequired);\n\t\t// Compute total proceeds required\n\t\tuint totalProceeds = proceedsRequired + feeRequired;\n\t\treturn totalProceeds;\n\t}\n\n\t// Calculate proceedsRequired to for a given buy transaction (not including fees)\n\tfunction _buyProceeds(uint _tokenId, uint _amount) public view returns (uint256) {\n\t\t// Initialize proceeds required;\n\t\tuint proceedsRequired = 0;\n\t\t// Initialize pre-transaction supply\n\t\tuint startingSupply = creatorTokens[_tokenId].outstanding;\n\t\t// Compute post-transaction supply\n\t\tuint endSupply = startingSupply + _amount;\n\t\t// Compute buy proceeds\n\t\t// Check if endSupply <= maxSupply\n\t\tif (endSupply < creatorTokens[_tokenId].maxSupply) {\n\t\t\t// Scenario in which entire transaction takes place below maxSupply\n\t\t\t// Just call s(x)\n\t\t\t//proceedsRequired = _saleFunction(startingSupply, _amount, mNumerator, mDenominator, creatorTokens[_tokenId].maxSupply, profitMargin);\n\t\t\tproceedsRequired = _saleFunction(endSupply, _amount, mNumerator, mDenominator, creatorTokens[_tokenId].maxSupply, profitMargin);\n\t\t} else if (startingSupply < creatorTokens[_tokenId].maxSupply){\n\t\t\t// Scenario in which supply begins below maxSupply and ends above pre-transaction maxSupply\n\t\t\t// Use s(x) from startingSupply to maxSupply\n\t\t\tproceedsRequired = _saleFunction(creatorTokens[_tokenId].maxSupply, creatorTokens[_tokenId].maxSupply - startingSupply, mNumerator, mDenominator, creatorTokens[_tokenId].maxSupply, profitMargin);\n\t\t\t// Use b(x) from maxSupply to endSupply\n\t\t\tproceedsRequired += _buyFunction(creatorTokens[_tokenId].maxSupply, _amount - (creatorTokens[_tokenId].maxSupply - startingSupply), mNumerator, mDenominator);\n\t\t} else {\n\t\t\t// Scenario in which transaction begins at maxSupply\n\t\t\t// Just call b(x)\n\t\t\tproceedsRequired = _buyFunction(startingSupply, _amount, mNumerator, mDenominator);\n\t\t}\n\t\t// Return proceeds required\n\t\treturn proceedsRequired;\n\t}\n}",
  "sourcePath": "/Users/kamilalizaisadik/DeFi/Dynamic Automated Market Maker/damm_solidity/contracts/creatortokencomputation.sol",
  "compiler": {
    "name": "solc",
    "version": "0.8.6+commit.11564f7e.Emscripten.clang"
  },
  "schemaVersion": "3.4.1",
  "updatedAt": "2021-07-10T11:50:50.417Z",
  "devdoc": {
    "kind": "dev",
    "methods": {
      "balanceOf(address,uint256)": {
        "details": "See {IERC1155-balanceOf}. Requirements: - `account` cannot be the zero address."
      },
      "balanceOfBatch(address[],uint256[])": {
        "details": "See {IERC1155-balanceOfBatch}. Requirements: - `accounts` and `ids` must have the same length."
      },
      "owner()": {
        "details": "Returns the address of the current owner."
      },
      "renounceOwnership()": {
        "details": "Leaves the contract without owner. It will not be possible to call `onlyOwner` functions anymore. Can only be called by the current owner. NOTE: Renouncing ownership will leave the contract without an owner, thereby removing any functionality that is only available to the owner."
      },
      "supportsInterface(bytes4)": {
        "details": "See {IERC165-supportsInterface}."
      },
      "transferOwnership(address)": {
        "details": "Transfers ownership of the contract to a new account (`newOwner`). Can only be called by the current owner."
      },
      "uri(uint256)": {
        "details": "See {IERC1155MetadataURI-uri}. This implementation returns the same URI for *all* token types. It relies on the token type ID substitution mechanism https://eips.ethereum.org/EIPS/eip-1155#metadata[defined in the EIP]. Clients calling this function must replace the `\\{id\\}` substring with the actual token type ID."
      }
    },
    "version": 1
  },
  "userdoc": {
    "kind": "user",
    "methods": {},
    "version": 1
  }
}