{
  "contractName": "CreatorTokenComputation",
  "abi": [
    {
      "inputs": [
        {
          "internalType": "string",
          "name": "uri",
          "type": "string"
        }
      ],
      "stateMutability": "nonpayable",
      "type": "constructor"
    },
    {
      "anonymous": false,
      "inputs": [
        {
          "indexed": true,
          "internalType": "address",
          "name": "account",
          "type": "address"
        },
        {
          "indexed": true,
          "internalType": "address",
          "name": "operator",
          "type": "address"
        },
        {
          "indexed": false,
          "internalType": "bool",
          "name": "approved",
          "type": "bool"
        }
      ],
      "name": "ApprovalForAll",
      "type": "event"
    },
    {
      "anonymous": false,
      "inputs": [
        {
          "indexed": false,
          "internalType": "uint256",
          "name": "tokenId",
          "type": "uint256"
        },
        {
          "indexed": false,
          "internalType": "address payable",
          "name": "creatorAddress",
          "type": "address"
        },
        {
          "indexed": false,
          "internalType": "string",
          "name": "name",
          "type": "string"
        },
        {
          "indexed": false,
          "internalType": "string",
          "name": "symbol",
          "type": "string"
        },
        {
          "indexed": false,
          "internalType": "string",
          "name": "description",
          "type": "string"
        },
        {
          "indexed": false,
          "internalType": "bool",
          "name": "verified",
          "type": "bool"
        },
        {
          "indexed": false,
          "internalType": "uint256",
          "name": "outstanding",
          "type": "uint256"
        },
        {
          "indexed": false,
          "internalType": "uint256",
          "name": "maxSupply",
          "type": "uint256"
        }
      ],
      "name": "NewCreatorToken",
      "type": "event"
    },
    {
      "anonymous": false,
      "inputs": [
        {
          "indexed": true,
          "internalType": "address",
          "name": "previousOwner",
          "type": "address"
        },
        {
          "indexed": true,
          "internalType": "address",
          "name": "newOwner",
          "type": "address"
        }
      ],
      "name": "OwnershipTransferred",
      "type": "event"
    },
    {
      "anonymous": false,
      "inputs": [
        {
          "indexed": true,
          "internalType": "address",
          "name": "operator",
          "type": "address"
        },
        {
          "indexed": true,
          "internalType": "address",
          "name": "from",
          "type": "address"
        },
        {
          "indexed": true,
          "internalType": "address",
          "name": "to",
          "type": "address"
        },
        {
          "indexed": false,
          "internalType": "uint256[]",
          "name": "ids",
          "type": "uint256[]"
        },
        {
          "indexed": false,
          "internalType": "uint256[]",
          "name": "values",
          "type": "uint256[]"
        }
      ],
      "name": "TransferBatch",
      "type": "event"
    },
    {
      "anonymous": false,
      "inputs": [
        {
          "indexed": true,
          "internalType": "address",
          "name": "operator",
          "type": "address"
        },
        {
          "indexed": true,
          "internalType": "address",
          "name": "from",
          "type": "address"
        },
        {
          "indexed": true,
          "internalType": "address",
          "name": "to",
          "type": "address"
        },
        {
          "indexed": false,
          "internalType": "uint256",
          "name": "id",
          "type": "uint256"
        },
        {
          "indexed": false,
          "internalType": "uint256",
          "name": "value",
          "type": "uint256"
        }
      ],
      "name": "TransferSingle",
      "type": "event"
    },
    {
      "anonymous": false,
      "inputs": [
        {
          "indexed": false,
          "internalType": "string",
          "name": "value",
          "type": "string"
        },
        {
          "indexed": true,
          "internalType": "uint256",
          "name": "id",
          "type": "uint256"
        }
      ],
      "name": "URI",
      "type": "event"
    },
    {
      "inputs": [
        {
          "internalType": "uint256",
          "name": "_proceedsRequired",
          "type": "uint256"
        }
      ],
      "name": "_feeProceeds",
      "outputs": [
        {
          "internalType": "uint256",
          "name": "",
          "type": "uint256"
        }
      ],
      "stateMutability": "view",
      "type": "function"
    },
    {
      "inputs": [
        {
          "internalType": "uint256",
          "name": "_startingSupply",
          "type": "uint256"
        },
        {
          "internalType": "uint256",
          "name": "_amount",
          "type": "uint256"
        },
        {
          "internalType": "uint256",
          "name": "_mNumerator",
          "type": "uint256"
        },
        {
          "internalType": "uint256",
          "name": "_mDenominator",
          "type": "uint256"
        },
        {
          "internalType": "uint256",
          "name": "_maxSupply",
          "type": "uint256"
        },
        {
          "internalType": "uint256",
          "name": "_profitMargin",
          "type": "uint256"
        }
      ],
      "name": "_saleFunction",
      "outputs": [
        {
          "internalType": "uint256",
          "name": "",
          "type": "uint256"
        }
      ],
      "stateMutability": "pure",
      "type": "function"
    },
    {
      "inputs": [
        {
          "internalType": "address",
          "name": "",
          "type": "address"
        },
        {
          "internalType": "address",
          "name": "",
          "type": "address"
        }
      ],
      "name": "approvals",
      "outputs": [
        {
          "internalType": "bool",
          "name": "",
          "type": "bool"
        }
      ],
      "stateMutability": "view",
      "type": "function"
    },
    {
      "inputs": [
        {
          "internalType": "address",
          "name": "account",
          "type": "address"
        },
        {
          "internalType": "uint256",
          "name": "id",
          "type": "uint256"
        }
      ],
      "name": "balanceOf",
      "outputs": [
        {
          "internalType": "uint256",
          "name": "",
          "type": "uint256"
        }
      ],
      "stateMutability": "view",
      "type": "function"
    },
    {
      "inputs": [
        {
          "internalType": "address[]",
          "name": "accounts",
          "type": "address[]"
        },
        {
          "internalType": "uint256[]",
          "name": "ids",
          "type": "uint256[]"
        }
      ],
      "name": "balanceOfBatch",
      "outputs": [
        {
          "internalType": "uint256[]",
          "name": "",
          "type": "uint256[]"
        }
      ],
      "stateMutability": "view",
      "type": "function"
    },
    {
      "inputs": [
        {
          "internalType": "uint256",
          "name": "_tokenId",
          "type": "uint256"
        },
        {
          "internalType": "address payable",
          "name": "_newCreatorAddress",
          "type": "address"
        }
      ],
      "name": "changeAddress",
      "outputs": [],
      "stateMutability": "nonpayable",
      "type": "function"
    },
    {
      "inputs": [
        {
          "internalType": "uint256",
          "name": "_tokenId",
          "type": "uint256"
        },
        {
          "internalType": "string",
          "name": "_newDescription",
          "type": "string"
        }
      ],
      "name": "changeDescription",
      "outputs": [],
      "stateMutability": "nonpayable",
      "type": "function"
    },
    {
      "inputs": [
        {
          "internalType": "uint256",
          "name": "_tokenId",
          "type": "uint256"
        },
        {
          "internalType": "string",
          "name": "_newName",
          "type": "string"
        }
      ],
      "name": "changeName",
      "outputs": [],
      "stateMutability": "nonpayable",
      "type": "function"
    },
    {
      "inputs": [
        {
          "internalType": "uint256",
          "name": "_newPlatformFee",
          "type": "uint256"
        }
      ],
      "name": "changePlatformFee",
      "outputs": [],
      "stateMutability": "nonpayable",
      "type": "function"
    },
    {
      "inputs": [
        {
          "internalType": "uint256",
          "name": "_newProfitMargin",
          "type": "uint256"
        }
      ],
      "name": "changeProfitMargin",
      "outputs": [],
      "stateMutability": "nonpayable",
      "type": "function"
    },
    {
      "inputs": [
        {
          "internalType": "uint256",
          "name": "_tokenId",
          "type": "uint256"
        },
        {
          "internalType": "string",
          "name": "_newSymbol",
          "type": "string"
        }
      ],
      "name": "changeSymbol",
      "outputs": [],
      "stateMutability": "nonpayable",
      "type": "function"
    },
    {
      "inputs": [
        {
          "internalType": "uint256",
          "name": "_tokenId",
          "type": "uint256"
        },
        {
          "internalType": "bool",
          "name": "_verified",
          "type": "bool"
        }
      ],
      "name": "changeVerification",
      "outputs": [],
      "stateMutability": "nonpayable",
      "type": "function"
    },
    {
      "inputs": [
        {
          "internalType": "address payable",
          "name": "_creatorAddress",
          "type": "address"
        },
        {
          "internalType": "string",
          "name": "_name",
          "type": "string"
        },
        {
          "internalType": "string",
          "name": "_symbol",
          "type": "string"
        },
        {
          "internalType": "string",
          "name": "_description",
          "type": "string"
        }
      ],
      "name": "createCreatorToken",
      "outputs": [],
      "stateMutability": "nonpayable",
      "type": "function"
    },
    {
      "inputs": [
        {
          "internalType": "uint256",
          "name": "",
          "type": "uint256"
        }
      ],
      "name": "creatorTokens",
      "outputs": [
        {
          "internalType": "address payable",
          "name": "creatorAddress",
          "type": "address"
        },
        {
          "internalType": "string",
          "name": "name",
          "type": "string"
        },
        {
          "internalType": "string",
          "name": "symbol",
          "type": "string"
        },
        {
          "internalType": "string",
          "name": "description",
          "type": "string"
        },
        {
          "internalType": "bool",
          "name": "verified",
          "type": "bool"
        },
        {
          "internalType": "uint256",
          "name": "outstanding",
          "type": "uint256"
        },
        {
          "internalType": "uint256",
          "name": "maxSupply",
          "type": "uint256"
        }
      ],
      "stateMutability": "view",
      "type": "function"
    },
    {
      "inputs": [],
      "name": "getCreatorTokenCount",
      "outputs": [
        {
          "internalType": "uint256",
          "name": "",
          "type": "uint256"
        }
      ],
      "stateMutability": "view",
      "type": "function"
    },
    {
      "inputs": [],
      "name": "getCreatorTokens",
      "outputs": [
        {
          "components": [
            {
              "internalType": "address payable",
              "name": "creatorAddress",
              "type": "address"
            },
            {
              "internalType": "string",
              "name": "name",
              "type": "string"
            },
            {
              "internalType": "string",
              "name": "symbol",
              "type": "string"
            },
            {
              "internalType": "string",
              "name": "description",
              "type": "string"
            },
            {
              "internalType": "bool",
              "name": "verified",
              "type": "bool"
            },
            {
              "internalType": "uint256",
              "name": "outstanding",
              "type": "uint256"
            },
            {
              "internalType": "uint256",
              "name": "maxSupply",
              "type": "uint256"
            }
          ],
          "internalType": "struct CreatorTokenFactory.CreatorToken[]",
          "name": "",
          "type": "tuple[]"
        }
      ],
      "stateMutability": "view",
      "type": "function"
    },
    {
      "inputs": [
        {
          "internalType": "uint256",
          "name": "_id",
          "type": "uint256"
        }
      ],
      "name": "getToken",
      "outputs": [
        {
          "components": [
            {
              "internalType": "address payable",
              "name": "creatorAddress",
              "type": "address"
            },
            {
              "internalType": "string",
              "name": "name",
              "type": "string"
            },
            {
              "internalType": "string",
              "name": "symbol",
              "type": "string"
            },
            {
              "internalType": "string",
              "name": "description",
              "type": "string"
            },
            {
              "internalType": "bool",
              "name": "verified",
              "type": "bool"
            },
            {
              "internalType": "uint256",
              "name": "outstanding",
              "type": "uint256"
            },
            {
              "internalType": "uint256",
              "name": "maxSupply",
              "type": "uint256"
            }
          ],
          "internalType": "struct CreatorTokenFactory.CreatorToken",
          "name": "",
          "type": "tuple"
        }
      ],
      "stateMutability": "view",
      "type": "function"
    },
    {
      "inputs": [
        {
          "internalType": "address",
          "name": "_account",
          "type": "address"
        },
        {
          "internalType": "address",
          "name": "_operator",
          "type": "address"
        }
      ],
      "name": "isApprovedForAll",
      "outputs": [
        {
          "internalType": "bool",
          "name": "",
          "type": "bool"
        }
      ],
      "stateMutability": "view",
      "type": "function"
    },
    {
      "inputs": [],
      "name": "owner",
      "outputs": [
        {
          "internalType": "address",
          "name": "",
          "type": "address"
        }
      ],
      "stateMutability": "view",
      "type": "function"
    },
    {
      "inputs": [
        {
          "internalType": "address payable",
          "name": "_owner",
          "type": "address"
        }
      ],
      "name": "payoutPlatformFees",
      "outputs": [],
      "stateMutability": "nonpayable",
      "type": "function"
    },
    {
      "inputs": [],
      "name": "platformFeesOwed",
      "outputs": [
        {
          "internalType": "uint256",
          "name": "",
          "type": "uint256"
        }
      ],
      "stateMutability": "view",
      "type": "function"
    },
    {
      "inputs": [],
      "name": "renounceOwnership",
      "outputs": [],
      "stateMutability": "nonpayable",
      "type": "function"
    },
    {
      "inputs": [
        {
          "internalType": "address",
          "name": "_from",
          "type": "address"
        },
        {
          "internalType": "address",
          "name": "_to",
          "type": "address"
        },
        {
          "internalType": "uint256[]",
          "name": "_ids",
          "type": "uint256[]"
        },
        {
          "internalType": "uint256[]",
          "name": "_amounts",
          "type": "uint256[]"
        },
        {
          "internalType": "bytes",
          "name": "_data",
          "type": "bytes"
        }
      ],
      "name": "safeBatchTransferFrom",
      "outputs": [],
      "stateMutability": "nonpayable",
      "type": "function"
    },
    {
      "inputs": [
        {
          "internalType": "address",
          "name": "_from",
          "type": "address"
        },
        {
          "internalType": "address",
          "name": "_to",
          "type": "address"
        },
        {
          "internalType": "uint256",
          "name": "_id",
          "type": "uint256"
        },
        {
          "internalType": "uint256",
          "name": "_amount",
          "type": "uint256"
        },
        {
          "internalType": "bytes",
          "name": "_data",
          "type": "bytes"
        }
      ],
      "name": "safeTransferFrom",
      "outputs": [],
      "stateMutability": "nonpayable",
      "type": "function"
    },
    {
      "inputs": [
        {
          "internalType": "address",
          "name": "_operator",
          "type": "address"
        },
        {
          "internalType": "bool",
          "name": "_approved",
          "type": "bool"
        }
      ],
      "name": "setApprovalForAll",
      "outputs": [],
      "stateMutability": "nonpayable",
      "type": "function"
    },
    {
      "inputs": [
        {
          "internalType": "bytes4",
          "name": "interfaceId",
          "type": "bytes4"
        }
      ],
      "name": "supportsInterface",
      "outputs": [
        {
          "internalType": "bool",
          "name": "",
          "type": "bool"
        }
      ],
      "stateMutability": "view",
      "type": "function"
    },
    {
      "inputs": [
        {
          "internalType": "uint256",
          "name": "",
          "type": "uint256"
        },
        {
          "internalType": "address",
          "name": "",
          "type": "address"
        }
      ],
      "name": "tokenHoldership",
      "outputs": [
        {
          "internalType": "uint256",
          "name": "",
          "type": "uint256"
        }
      ],
      "stateMutability": "view",
      "type": "function"
    },
    {
      "inputs": [
        {
          "internalType": "uint256",
          "name": "",
          "type": "uint256"
        }
      ],
      "name": "tokenToCreator",
      "outputs": [
        {
          "internalType": "address",
          "name": "",
          "type": "address"
        }
      ],
      "stateMutability": "view",
      "type": "function"
    },
    {
      "inputs": [
        {
          "internalType": "uint256",
          "name": "",
          "type": "uint256"
        }
      ],
      "name": "tokenValueTransferred",
      "outputs": [
        {
          "internalType": "uint256",
          "name": "",
          "type": "uint256"
        }
      ],
      "stateMutability": "view",
      "type": "function"
    },
    {
      "inputs": [],
      "name": "totalPlatformFees",
      "outputs": [
        {
          "internalType": "uint256",
          "name": "",
          "type": "uint256"
        }
      ],
      "stateMutability": "view",
      "type": "function"
    },
    {
      "inputs": [
        {
          "internalType": "uint256",
          "name": "",
          "type": "uint256"
        }
      ],
      "name": "totalValueLocked",
      "outputs": [
        {
          "internalType": "uint256",
          "name": "",
          "type": "uint256"
        }
      ],
      "stateMutability": "view",
      "type": "function"
    },
    {
      "inputs": [
        {
          "internalType": "address",
          "name": "newOwner",
          "type": "address"
        }
      ],
      "name": "transferOwnership",
      "outputs": [],
      "stateMutability": "nonpayable",
      "type": "function"
    },
    {
      "inputs": [
        {
          "internalType": "uint256",
          "name": "",
          "type": "uint256"
        }
      ],
      "name": "uri",
      "outputs": [
        {
          "internalType": "string",
          "name": "",
          "type": "string"
        }
      ],
      "stateMutability": "view",
      "type": "function"
    },
    {
      "inputs": [
        {
          "internalType": "address",
          "name": "",
          "type": "address"
        },
        {
          "internalType": "uint256",
          "name": "",
          "type": "uint256"
        }
      ],
      "name": "userToHoldings",
      "outputs": [
        {
          "internalType": "uint256",
          "name": "",
          "type": "uint256"
        }
      ],
      "stateMutability": "view",
      "type": "function"
    },
    {
      "inputs": [
        {
          "internalType": "address payable",
          "name": "_owner",
          "type": "address"
        }
      ],
      "name": "withdraw",
      "outputs": [],
      "stateMutability": "nonpayable",
      "type": "function"
    },
    {
      "inputs": [
        {
          "internalType": "uint256",
          "name": "_tokenId",
          "type": "uint256"
        },
        {
          "internalType": "uint256",
          "name": "_amount",
          "type": "uint256"
        }
      ],
      "name": "_totalProceeds",
      "outputs": [
        {
          "internalType": "uint256",
          "name": "",
          "type": "uint256"
        }
      ],
      "stateMutability": "view",
      "type": "function"
    },
    {
      "inputs": [
        {
          "internalType": "uint256",
          "name": "_tokenId",
          "type": "uint256"
        },
        {
          "internalType": "uint256",
          "name": "_amount",
          "type": "uint256"
        }
      ],
      "name": "_buyProceeds",
      "outputs": [
        {
          "internalType": "uint256",
          "name": "",
          "type": "uint256"
        }
      ],
      "stateMutability": "view",
      "type": "function"
    }
  ],
  "bytecode": "0x60806040526001805560006002556000600355601460045565082f79cd900060055560b96006553480156200003357600080fd5b50604051620047343803806200473483398181016040528101906200005991906200027b565b8080808060006200006f6200012960201b60201c565b9050806000806101000a81548173ffffffffffffffffffffffffffffffffffffffff021916908373ffffffffffffffffffffffffffffffffffffffff1602179055508073ffffffffffffffffffffffffffffffffffffffff16600073ffffffffffffffffffffffffffffffffffffffff167f8be0079c531659141344cd1fd0a4f28419497f9722a3daafe3b4186f6b6457e060405160405180910390a3506200011e816200013160201b60201c565b505050505062000450565b600033905090565b8060109080519060200190620001499291906200014d565b5050565b8280546200015b9062000361565b90600052602060002090601f0160209004810192826200017f5760008555620001cb565b82601f106200019a57805160ff1916838001178555620001cb565b82800160010185558215620001cb579182015b82811115620001ca578251825591602001919060010190620001ad565b5b509050620001da9190620001de565b5090565b5b80821115620001f9576000816000905550600101620001df565b5090565b6000620002146200020e84620002f5565b620002cc565b90508281526020810184848401111562000233576200023262000430565b5b620002408482856200032b565b509392505050565b600082601f83011262000260576200025f6200042b565b5b815162000272848260208601620001fd565b91505092915050565b6000602082840312156200029457620002936200043a565b5b600082015167ffffffffffffffff811115620002b557620002b462000435565b5b620002c38482850162000248565b91505092915050565b6000620002d8620002eb565b9050620002e6828262000397565b919050565b6000604051905090565b600067ffffffffffffffff821115620003135762000312620003fc565b5b6200031e826200043f565b9050602081019050919050565b60005b838110156200034b5780820151818401526020810190506200032e565b838111156200035b576000848401525b50505050565b600060028204905060018216806200037a57607f821691505b60208210811415620003915762000390620003cd565b5b50919050565b620003a2826200043f565b810181811067ffffffffffffffff82111715620003c457620003c3620003fc565b5b80604052505050565b7f4e487b7100000000000000000000000000000000000000000000000000000000600052602260045260246000fd5b7f4e487b7100000000000000000000000000000000000000000000000000000000600052604160045260246000fd5b600080fd5b600080fd5b600080fd5b600080fd5b6000601f19601f8301169050919050565b6142d480620004606000396000f3fe608060405234801561001057600080fd5b50600436106102265760003560e01c8063a32ce11e11610130578063d7a5791a116100b8578063e985e9c51161007c578063e985e9c5146106e9578063eb84175914610719578063f242432a14610735578063f2fde38b14610751578063f7374e2e1461076d57610226565b8063d7a5791a14610621578063d9bd3a401461063d578063de6a06ed1461066d578063df3c00b114610689578063e4b50cb8146106b957610226565b8063c39cbef1116100ff578063c39cbef114610579578063c539c31714610595578063ce901d8a146105b1578063d3631fa5146105e7578063d56b72c71461060557610226565b8063a32ce11e146104cb578063ba111a05146104fb578063bfb48c9c1461052b578063c1d330491461055b57610226565b806335a8ae21116101b3578063715018a611610182578063715018a6146104395780638d816811146104435780638da5cb5b1461046157806392724afa1461047f578063a22cb465146104af57610226565b806335a8ae211461038d5780634e1273f4146103bd5780634fe477d8146103ed57806351cff8d91461041d57610226565b806317bcaa08116101fa57806317bcaa08146102d757806318892ae8146103075780631d5ad18b146103375780632a2b237c146103535780632eb2c2d61461037157610226565b8062fdd58e1461022b57806301ffc9a71461025b57806306e320f51461028b5780630e89341c146102a7575b600080fd5b6102456004803603810190610240919061324a565b610789565b6040516102529190613b0b565b60405180910390f35b61027560048036038101906102709190613302565b610853565b6040516102829190613a2c565b60405180910390f35b6102a560048036038101906102a0919061341c565b610935565b005b6102c160048036038101906102bc919061332f565b6109dc565b6040516102ce9190613a47565b60405180910390f35b6102f160048036038101906102ec919061332f565b610a70565b6040516102fe9190613b0b565b60405180910390f35b610321600480360381019061031c919061332f565b610a88565b60405161032e9190613912565b60405180910390f35b610351600480360381019061034c919061339c565b610abb565b005b61035b610b90565b6040516103689190613b0b565b60405180910390f35b61038b600480360381019061038691906130a4565b610b9d565b005b6103a760048036038101906103a2919061347c565b610d09565b6040516103b49190613b0b565b60405180910390f35b6103d760048036038101906103d2919061328a565b610d41565b6040516103e491906139d3565b60405180910390f35b6104076004803603810190610402919061347c565b610e5a565b6040516104149190613b0b565b60405180910390f35b61043760048036038101906104329190612f7c565b611067565b005b61044161112d565b005b61044b611267565b60405161045891906139b1565b60405180910390f35b610469611501565b6040516104769190613912565b60405180910390f35b6104996004803603810190610494919061324a565b61152a565b6040516104a69190613b0b565b60405180910390f35b6104c960048036038101906104c4919061320a565b61154f565b005b6104e560048036038101906104e09190613064565b61164c565b6040516104f29190613a2c565b60405180910390f35b6105156004803603810190610510919061332f565b61167b565b6040516105229190613b0b565b60405180910390f35b6105456004803603810190610540919061335c565b61169e565b6040516105529190613b0b565b60405180910390f35b6105636116c3565b6040516105709190613b0b565b60405180910390f35b610593600480360381019061058e919061341c565b6116c9565b005b6105af60048036038101906105aa919061332f565b611770565b005b6105cb60048036038101906105c6919061332f565b6117f6565b6040516105de979695949392919061392d565b60405180910390f35b6105ef611a0d565b6040516105fc9190613b0b565b60405180910390f35b61061f600480360381019061061a9190612fa9565b611a13565b005b61063b6004803603810190610636919061332f565b611c2f565b005b6106576004803603810190610652919061332f565b611cb5565b6040516106649190613b0b565b60405180910390f35b6106876004803603810190610682919061341c565b611ccd565b005b6106a3600480360381019061069e91906134bc565b611d74565b6040516106b09190613b0b565b60405180910390f35b6106d360048036038101906106ce919061332f565b611ded565b6040516106e09190613ae9565b60405180910390f35b61070360048036038101906106fe9190613064565b612064565b6040516107109190613a2c565b60405180910390f35b610733600480360381019061072e9190612f7c565b6120f8565b005b61074f600480360381019061074a9190613173565b6121c8565b005b61076b60048036038101906107669190612f4f565b6122ac565b005b610787600480360381019061078291906133dc565b612455565b005b60008073ffffffffffffffffffffffffffffffffffffffff168373ffffffffffffffffffffffffffffffffffffffff1614156107fa576040517f08c379a00000000000000000000000000000000000000000000000000000000081526004016107f190613a69565b60405180910390fd5b600e600083815260200190815260200160002060008473ffffffffffffffffffffffffffffffffffffffff1673ffffffffffffffffffffffffffffffffffffffff16815260200190815260200160002054905092915050565b60007fd9b67a26000000000000000000000000000000000000000000000000000000007bffffffffffffffffffffffffffffffffffffffffffffffffffffffff1916827bffffffffffffffffffffffffffffffffffffffffffffffffffffffff1916148061091e57507f0e89341c000000000000000000000000000000000000000000000000000000007bffffffffffffffffffffffffffffffffffffffffffffffffffffffff1916827bffffffffffffffffffffffffffffffffffffffffffffffffffffffff1916145b8061092e575061092d82612512565b5b9050919050565b826008600082815260200190815260200160002060009054906101000a900473ffffffffffffffffffffffffffffffffffffffff1673ffffffffffffffffffffffffffffffffffffffff163373ffffffffffffffffffffffffffffffffffffffff16146109a157600080fd5b8282600786815481106109b7576109b6614088565b5b906000526020600020906007020160020191906109d5929190612af6565b5050505050565b6060601080546109eb90613f4f565b80601f0160208091040260200160405190810160405280929190818152602001828054610a1790613f4f565b8015610a645780601f10610a3957610100808354040283529160200191610a64565b820191906000526020600020905b815481529060010190602001808311610a4757829003601f168201915b50505050509050919050565b60096020528060005260406000206000915090505481565b60086020528060005260406000206000915054906101000a900473ffffffffffffffffffffffffffffffffffffffff1681565b816008600082815260200190815260200160002060009054906101000a900473ffffffffffffffffffffffffffffffffffffffff1673ffffffffffffffffffffffffffffffffffffffff163373ffffffffffffffffffffffffffffffffffffffff1614610b2757600080fd5b8160078481548110610b3c57610b3b614088565b5b906000526020600020906007020160000160006101000a81548173ffffffffffffffffffffffffffffffffffffffff021916908373ffffffffffffffffffffffffffffffffffffffff160217905550505050565b6000600780549050905090565b60005b8351811015610c83578573ffffffffffffffffffffffffffffffffffffffff163373ffffffffffffffffffffffffffffffffffffffff161480610be95750610be88686612064565b5b610bf257600080fd5b610c3186858381518110610c0957610c08614088565b5b6020026020010151858481518110610c2457610c23614088565b5b602002602001015161257c565b610c7085858381518110610c4857610c47614088565b5b6020026020010151858481518110610c6357610c62614088565b5b602002602001015161264f565b8080610c7b90613fb2565b915050610ba0565b508373ffffffffffffffffffffffffffffffffffffffff168573ffffffffffffffffffffffffffffffffffffffff163373ffffffffffffffffffffffffffffffffffffffff167f4a39dc06d4c0dbc64b70af90fd698a233a518aa5d07e595d983b8c0526c8f7fb8686604051610cfa9291906139f5565b60405180910390a45050505050565b600080610d168484610e5a565b90506000610d238261167b565b905060008183610d339190613d60565b905080935050505092915050565b60608151835114610d87576040517f08c379a0000000000000000000000000000000000000000000000000000000008152600401610d7e90613ac9565b60405180910390fd5b6000835167ffffffffffffffff811115610da457610da36140b7565b5b604051908082528060200260200182016040528015610dd25781602001602082028036833780820191505090505b50905060005b8451811015610e4f57610e1f858281518110610df757610df6614088565b5b6020026020010151858381518110610e1257610e11614088565b5b6020026020010151610789565b828281518110610e3257610e31614088565b5b60200260200101818152505080610e4890613fb2565b9050610dd8565b508091505092915050565b60008060009050600060078581548110610e7757610e76614088565b5b906000526020600020906007020160050154905060008482610e999190613d60565b905060078681548110610eaf57610eae614088565b5b906000526020600020906007020160060154811015610f0857610f01818660055460065460078b81548110610ee757610ee6614088565b5b906000526020600020906007020160060154600454611d74565b925061105b565b60078681548110610f1c57610f1b614088565b5b90600052602060002090600702016006015482101561104757610fc360078781548110610f4c57610f4b614088565b5b9060005260206000209060070201600601548360078981548110610f7357610f72614088565b5b906000526020600020906007020160060154610f8f9190613e41565b60055460065460078b81548110610fa957610fa8614088565b5b906000526020600020906007020160060154600454611d74565b925061103560078781548110610fdc57610fdb614088565b5b906000526020600020906007020160060154836007898154811061100357611002614088565b5b90600052602060002090600702016006015461101f9190613e41565b8761102a9190613e41565b600554600654612722565b836110409190613d60565b925061105a565b6110578286600554600654612722565b92505b5b82935050505092915050565b61106f6127b0565b73ffffffffffffffffffffffffffffffffffffffff1661108d611501565b73ffffffffffffffffffffffffffffffffffffffff16146110e3576040517f08c379a00000000000000000000000000000000000000000000000000000000081526004016110da90613aa9565b60405180910390fd5b8073ffffffffffffffffffffffffffffffffffffffff166108fc479081150290604051600060405180830381858888f19350505050158015611129573d6000803e3d6000fd5b5050565b6111356127b0565b73ffffffffffffffffffffffffffffffffffffffff16611153611501565b73ffffffffffffffffffffffffffffffffffffffff16146111a9576040517f08c379a00000000000000000000000000000000000000000000000000000000081526004016111a090613aa9565b60405180910390fd5b600073ffffffffffffffffffffffffffffffffffffffff1660008054906101000a900473ffffffffffffffffffffffffffffffffffffffff1673ffffffffffffffffffffffffffffffffffffffff167f8be0079c531659141344cd1fd0a4f28419497f9722a3daafe3b4186f6b6457e060405160405180910390a360008060006101000a81548173ffffffffffffffffffffffffffffffffffffffff021916908373ffffffffffffffffffffffffffffffffffffffff160217905550565b60606007805480602002602001604051908101604052809291908181526020016000905b828210156114f857838290600052602060002090600702016040518060e00160405290816000820160009054906101000a900473ffffffffffffffffffffffffffffffffffffffff1673ffffffffffffffffffffffffffffffffffffffff1673ffffffffffffffffffffffffffffffffffffffff16815260200160018201805461131490613f4f565b80601f016020809104026020016040519081016040528092919081815260200182805461134090613f4f565b801561138d5780601f106113625761010080835404028352916020019161138d565b820191906000526020600020905b81548152906001019060200180831161137057829003601f168201915b505050505081526020016002820180546113a690613f4f565b80601f01602080910402602001604051908101604052809291908181526020018280546113d290613f4f565b801561141f5780601f106113f45761010080835404028352916020019161141f565b820191906000526020600020905b81548152906001019060200180831161140257829003601f168201915b5050505050815260200160038201805461143890613f4f565b80601f016020809104026020016040519081016040528092919081815260200182805461146490613f4f565b80156114b15780601f10611486576101008083540402835291602001916114b1565b820191906000526020600020905b81548152906001019060200180831161149457829003601f168201915b505050505081526020016004820160009054906101000a900460ff16151515158152602001600582015481526020016006820154815250508152602001906001019061128b565b50505050905090565b60008060009054906101000a900473ffffffffffffffffffffffffffffffffffffffff16905090565b600b602052816000526040600020602052806000526040600020600091509150505481565b80600c60003373ffffffffffffffffffffffffffffffffffffffff1673ffffffffffffffffffffffffffffffffffffffff16815260200190815260200160002060008473ffffffffffffffffffffffffffffffffffffffff1673ffffffffffffffffffffffffffffffffffffffff16815260200190815260200160002060006101000a81548160ff0219169083151502179055508173ffffffffffffffffffffffffffffffffffffffff163373ffffffffffffffffffffffffffffffffffffffff167f17307eab39ab6107e8899845ad3d59bd9653f200f220920489ca2b5937696c31836040516116409190613a2c565b60405180910390a35050565b600c6020528160005260406000206020528060005260406000206000915091509054906101000a900460ff1681565b600060646001548361168d9190613de7565b6116979190613db6565b9050919050565b600a602052816000526040600020602052806000526040600020600091509150505481565b60035481565b826008600082815260200190815260200160002060009054906101000a900473ffffffffffffffffffffffffffffffffffffffff1673ffffffffffffffffffffffffffffffffffffffff163373ffffffffffffffffffffffffffffffffffffffff161461173557600080fd5b82826007868154811061174b5761174a614088565b5b90600052602060002090600702016001019190611769929190612af6565b5050505050565b6117786127b0565b73ffffffffffffffffffffffffffffffffffffffff16611796611501565b73ffffffffffffffffffffffffffffffffffffffff16146117ec576040517f08c379a00000000000000000000000000000000000000000000000000000000081526004016117e390613aa9565b60405180910390fd5b8060048190555050565b6007818154811061180657600080fd5b90600052602060002090600702016000915090508060000160009054906101000a900473ffffffffffffffffffffffffffffffffffffffff169080600101805461184f90613f4f565b80601f016020809104026020016040519081016040528092919081815260200182805461187b90613f4f565b80156118c85780601f1061189d576101008083540402835291602001916118c8565b820191906000526020600020905b8154815290600101906020018083116118ab57829003601f168201915b5050505050908060020180546118dd90613f4f565b80601f016020809104026020016040519081016040528092919081815260200182805461190990613f4f565b80156119565780601f1061192b57610100808354040283529160200191611956565b820191906000526020600020905b81548152906001019060200180831161193957829003601f168201915b50505050509080600301805461196b90613f4f565b80601f016020809104026020016040519081016040528092919081815260200182805461199790613f4f565b80156119e45780601f106119b9576101008083540402835291602001916119e4565b820191906000526020600020905b8154815290600101906020018083116119c757829003601f168201915b5050505050908060040160009054906101000a900460ff16908060050154908060060154905087565b60025481565b60076040518060e001604052808673ffffffffffffffffffffffffffffffffffffffff168152602001858152602001848152602001838152602001600015158152602001600081526020016000815250908060018154018082558091505060019003906000526020600020906007020160009091909190915060008201518160000160006101000a81548173ffffffffffffffffffffffffffffffffffffffff021916908373ffffffffffffffffffffffffffffffffffffffff1602179055506020820151816001019080519060200190611aef929190612b7c565b506040820151816002019080519060200190611b0c929190612b7c565b506060820151816003019080519060200190611b29929190612b7c565b5060808201518160040160006101000a81548160ff02191690831515021790555060a0820151816005015560c08201518160060155505060006001600780549050611b749190613e41565b9050846008600083815260200190815260200160002060006101000a81548173ffffffffffffffffffffffffffffffffffffffff021916908373ffffffffffffffffffffffffffffffffffffffff160217905550600060096000838152602001908152602001600020819055507f3ef624c0f3fb7ad40b94c02078ea3e3a797dbfc21e921ee4bd2b8ad0ca6aa11381868686866000806000604051611c20989796959493929190613b26565b60405180910390a15050505050565b611c376127b0565b73ffffffffffffffffffffffffffffffffffffffff16611c55611501565b73ffffffffffffffffffffffffffffffffffffffff1614611cab576040517f08c379a0000000000000000000000000000000000000000000000000000000008152600401611ca290613aa9565b60405180910390fd5b8060018190555050565b600d6020528060005260406000206000915090505481565b826008600082815260200190815260200160002060009054906101000a900473ffffffffffffffffffffffffffffffffffffffff1673ffffffffffffffffffffffffffffffffffffffff163373ffffffffffffffffffffffffffffffffffffffff1614611d3957600080fd5b828260078681548110611d4f57611d4e614088565b5b90600052602060002090600702016003019190611d6d929190612af6565b5050505050565b600080600080611d888a8a8a8a8a8a6127b8565b9250925092506000838b1015611dab57611da484848d85612833565b9050611ddc565b83821015611dc957611dc284848d858d8d8d6128d6565b9050611ddb565b611dd884848d858d8d8d6129f8565b90505b5b809450505050509695505050505050565b611df5612c02565b60078281548110611e0957611e08614088565b5b90600052602060002090600702016040518060e00160405290816000820160009054906101000a900473ffffffffffffffffffffffffffffffffffffffff1673ffffffffffffffffffffffffffffffffffffffff1673ffffffffffffffffffffffffffffffffffffffff168152602001600182018054611e8890613f4f565b80601f0160208091040260200160405190810160405280929190818152602001828054611eb490613f4f565b8015611f015780601f10611ed657610100808354040283529160200191611f01565b820191906000526020600020905b815481529060010190602001808311611ee457829003601f168201915b50505050508152602001600282018054611f1a90613f4f565b80601f0160208091040260200160405190810160405280929190818152602001828054611f4690613f4f565b8015611f935780601f10611f6857610100808354040283529160200191611f93565b820191906000526020600020905b815481529060010190602001808311611f7657829003601f168201915b50505050508152602001600382018054611fac90613f4f565b80601f0160208091040260200160405190810160405280929190818152602001828054611fd890613f4f565b80156120255780601f10611ffa57610100808354040283529160200191612025565b820191906000526020600020905b81548152906001019060200180831161200857829003601f168201915b505050505081526020016004820160009054906101000a900460ff16151515158152602001600582015481526020016006820154815250509050919050565b6000600c60008473ffffffffffffffffffffffffffffffffffffffff1673ffffffffffffffffffffffffffffffffffffffff16815260200190815260200160002060008373ffffffffffffffffffffffffffffffffffffffff1673ffffffffffffffffffffffffffffffffffffffff16815260200190815260200160002060009054906101000a900460ff16905092915050565b6121006127b0565b73ffffffffffffffffffffffffffffffffffffffff1661211e611501565b73ffffffffffffffffffffffffffffffffffffffff1614612174576040517f08c379a000000000000000000000000000000000000000000000000000000000815260040161216b90613aa9565b60405180910390fd5b8073ffffffffffffffffffffffffffffffffffffffff166108fc6003549081150290604051600060405180830381858888f193505050501580156121bc573d6000803e3d6000fd5b50600060038190555050565b8473ffffffffffffffffffffffffffffffffffffffff163373ffffffffffffffffffffffffffffffffffffffff16148061220857506122078585612064565b5b61221157600080fd5b61221c85848461257c565b61222784848461264f565b8373ffffffffffffffffffffffffffffffffffffffff168573ffffffffffffffffffffffffffffffffffffffff163373ffffffffffffffffffffffffffffffffffffffff167fc3d58168c5ae7397731d063d5bbf3d657854427343f4c083240f7aacaa2d0f62868660405161229d929190613bb9565b60405180910390a45050505050565b6122b46127b0565b73ffffffffffffffffffffffffffffffffffffffff166122d2611501565b73ffffffffffffffffffffffffffffffffffffffff1614612328576040517f08c379a000000000000000000000000000000000000000000000000000000000815260040161231f90613aa9565b60405180910390fd5b600073ffffffffffffffffffffffffffffffffffffffff168173ffffffffffffffffffffffffffffffffffffffff161415612398576040517f08c379a000000000000000000000000000000000000000000000000000000000815260040161238f90613a89565b60405180910390fd5b8073ffffffffffffffffffffffffffffffffffffffff1660008054906101000a900473ffffffffffffffffffffffffffffffffffffffff1673ffffffffffffffffffffffffffffffffffffffff167f8be0079c531659141344cd1fd0a4f28419497f9722a3daafe3b4186f6b6457e060405160405180910390a3806000806101000a81548173ffffffffffffffffffffffffffffffffffffffff021916908373ffffffffffffffffffffffffffffffffffffffff16021790555050565b61245d6127b0565b73ffffffffffffffffffffffffffffffffffffffff1661247b611501565b73ffffffffffffffffffffffffffffffffffffffff16146124d1576040517f08c379a00000000000000000000000000000000000000000000000000000000081526004016124c890613aa9565b60405180910390fd5b80600783815481106124e6576124e5614088565b5b906000526020600020906007020160040160006101000a81548160ff0219169083151502179055505050565b60007f01ffc9a7000000000000000000000000000000000000000000000000000000007bffffffffffffffffffffffffffffffffffffffffffffffffffffffff1916827bffffffffffffffffffffffffffffffffffffffffffffffffffffffff1916149050919050565b80600a600084815260200190815260200160002060008573ffffffffffffffffffffffffffffffffffffffff1673ffffffffffffffffffffffffffffffffffffffff16815260200190815260200160002060008282546125dc9190613e41565b9250508190555080600b60008573ffffffffffffffffffffffffffffffffffffffff1673ffffffffffffffffffffffffffffffffffffffff168152602001908152602001600020600084815260200190815260200160002060008282546126439190613e41565b92505081905550505050565b80600a600084815260200190815260200160002060008573ffffffffffffffffffffffffffffffffffffffff1673ffffffffffffffffffffffffffffffffffffffff16815260200190815260200160002060008282546126af9190613d60565b9250508190555080600b60008573ffffffffffffffffffffffffffffffffffffffff1673ffffffffffffffffffffffffffffffffffffffff168152602001908152602001600020600084815260200190815260200160002060008282546127169190613d60565b92505081905550505050565b60008084866127319190613d60565b905060008387866127429190613de7565b61274c9190613db6565b9050600084838761275d9190613de7565b6127679190613db6565b9050600088846127779190613e41565b90506000600282848661278a9190613d60565b6127949190613de7565b61279e9190613db6565b90508095505050505050949350505050565b600033905090565b6000806000806002866127cb9190613db6565b90506000878960648860326127e09190613e41565b8a6127eb9190613de7565b6127f59190613db6565b6127ff9190613de7565b6128099190613db6565b905060008a8c6128199190613e41565b905082828295509550955050505096509650969350505050565b60008082866128429190613e41565b868661284e9190613db6565b6128589190613de7565b856128639190613e41565b9050600084876128739190613e41565b878761287f9190613db6565b6128899190613de7565b866128949190613e41565b9050600084866128a49190613e41565b905060028183856128b59190613d60565b6128bf9190613de7565b6128c99190613db6565b9350505050949350505050565b60008085896128e59190613e41565b89896128f19190613db6565b6128fb9190613de7565b886129069190613e41565b905060008890506000878b61291b9190613e41565b90506000600282848661292e9190613d60565b6129389190613de7565b6129429190613db6565b905060008b8d8c6129539190613e41565b8e8961295f9190613e41565b8e8b8b8e61296d9190613de7565b6129779190613db6565b6129819190613e41565b61298b9190613db6565b6129959190613de7565b61299f9190613d60565b905060008d8c6129af9190613e41565b9050600060028284886129c29190613d60565b6129cc9190613de7565b6129d69190613db6565b905080846129e49190613d60565b975050505050505050979650505050505050565b600080878987612a089190613e41565b8a85612a149190613e41565b8a87878a612a229190613de7565b612a2c9190613db6565b612a369190613e41565b612a409190613db6565b612a4a9190613de7565b612a549190613d60565b90506000888a89612a659190613e41565b8b86612a719190613e41565b8b88888b612a7f9190613de7565b612a899190613db6565b612a939190613e41565b612a9d9190613db6565b612aa79190613de7565b612ab19190613d60565b905060008789612ac19190613e41565b90506002818385612ad29190613d60565b612adc9190613de7565b612ae69190613db6565b9350505050979650505050505050565b828054612b0290613f4f565b90600052602060002090601f016020900481019282612b245760008555612b6b565b82601f10612b3d57803560ff1916838001178555612b6b565b82800160010185558215612b6b579182015b82811115612b6a578235825591602001919060010190612b4f565b5b509050612b789190612c57565b5090565b828054612b8890613f4f565b90600052602060002090601f016020900481019282612baa5760008555612bf1565b82601f10612bc357805160ff1916838001178555612bf1565b82800160010185558215612bf1579182015b82811115612bf0578251825591602001919060010190612bd5565b5b509050612bfe9190612c57565b5090565b6040518060e00160405280600073ffffffffffffffffffffffffffffffffffffffff16815260200160608152602001606081526020016060815260200160001515815260200160008152602001600081525090565b5b80821115612c70576000816000905550600101612c58565b5090565b6000612c87612c8284613c07565b613be2565b90508083825260208201905082856020860282011115612caa57612ca96140f0565b5b60005b85811015612cda5781612cc08882612dd8565b845260208401935060208301925050600181019050612cad565b5050509392505050565b6000612cf7612cf284613c33565b613be2565b90508083825260208201905082856020860282011115612d1a57612d196140f0565b5b60005b85811015612d4a5781612d308882612f3a565b845260208401935060208301925050600181019050612d1d565b5050509392505050565b6000612d67612d6284613c5f565b613be2565b905082815260208101848484011115612d8357612d826140f5565b5b612d8e848285613f0d565b509392505050565b6000612da9612da484613c90565b613be2565b905082815260208101848484011115612dc557612dc46140f5565b5b612dd0848285613f0d565b509392505050565b600081359050612de78161422b565b92915050565b600081359050612dfc81614242565b92915050565b600082601f830112612e1757612e166140eb565b5b8135612e27848260208601612c74565b91505092915050565b600082601f830112612e4557612e446140eb565b5b8135612e55848260208601612ce4565b91505092915050565b600081359050612e6d81614259565b92915050565b600081359050612e8281614270565b92915050565b600082601f830112612e9d57612e9c6140eb565b5b8135612ead848260208601612d54565b91505092915050565b60008083601f840112612ecc57612ecb6140eb565b5b8235905067ffffffffffffffff811115612ee957612ee86140e6565b5b602083019150836001820283011115612f0557612f046140f0565b5b9250929050565b600082601f830112612f2157612f206140eb565b5b8135612f31848260208601612d96565b91505092915050565b600081359050612f4981614287565b92915050565b600060208284031215612f6557612f646140ff565b5b6000612f7384828501612dd8565b91505092915050565b600060208284031215612f9257612f916140ff565b5b6000612fa084828501612ded565b91505092915050565b60008060008060808587031215612fc357612fc26140ff565b5b6000612fd187828801612ded565b945050602085013567ffffffffffffffff811115612ff257612ff16140fa565b5b612ffe87828801612f0c565b935050604085013567ffffffffffffffff81111561301f5761301e6140fa565b5b61302b87828801612f0c565b925050606085013567ffffffffffffffff81111561304c5761304b6140fa565b5b61305887828801612f0c565b91505092959194509250565b6000806040838503121561307b5761307a6140ff565b5b600061308985828601612dd8565b925050602061309a85828601612dd8565b9150509250929050565b600080600080600060a086880312156130c0576130bf6140ff565b5b60006130ce88828901612dd8565b95505060206130df88828901612dd8565b945050604086013567ffffffffffffffff811115613100576130ff6140fa565b5b61310c88828901612e30565b935050606086013567ffffffffffffffff81111561312d5761312c6140fa565b5b61313988828901612e30565b925050608086013567ffffffffffffffff81111561315a576131596140fa565b5b61316688828901612e88565b9150509295509295909350565b600080600080600060a0868803121561318f5761318e6140ff565b5b600061319d88828901612dd8565b95505060206131ae88828901612dd8565b94505060406131bf88828901612f3a565b93505060606131d088828901612f3a565b925050608086013567ffffffffffffffff8111156131f1576131f06140fa565b5b6131fd88828901612e88565b9150509295509295909350565b60008060408385031215613221576132206140ff565b5b600061322f85828601612dd8565b925050602061324085828601612e5e565b9150509250929050565b60008060408385031215613261576132606140ff565b5b600061326f85828601612dd8565b925050602061328085828601612f3a565b9150509250929050565b600080604083850312156132a1576132a06140ff565b5b600083013567ffffffffffffffff8111156132bf576132be6140fa565b5b6132cb85828601612e02565b925050602083013567ffffffffffffffff8111156132ec576132eb6140fa565b5b6132f885828601612e30565b9150509250929050565b600060208284031215613318576133176140ff565b5b600061332684828501612e73565b91505092915050565b600060208284031215613345576133446140ff565b5b600061335384828501612f3a565b91505092915050565b60008060408385031215613373576133726140ff565b5b600061338185828601612f3a565b925050602061339285828601612dd8565b9150509250929050565b600080604083850312156133b3576133b26140ff565b5b60006133c185828601612f3a565b92505060206133d285828601612ded565b9150509250929050565b600080604083850312156133f3576133f26140ff565b5b600061340185828601612f3a565b925050602061341285828601612e5e565b9150509250929050565b600080600060408486031215613435576134346140ff565b5b600061344386828701612f3a565b935050602084013567ffffffffffffffff811115613464576134636140fa565b5b61347086828701612eb6565b92509250509250925092565b60008060408385031215613493576134926140ff565b5b60006134a185828601612f3a565b92505060206134b285828601612f3a565b9150509250929050565b60008060008060008060c087890312156134d9576134d86140ff565b5b60006134e789828a01612f3a565b96505060206134f889828a01612f3a565b955050604061350989828a01612f3a565b945050606061351a89828a01612f3a565b935050608061352b89828a01612f3a565b92505060a061353c89828a01612f3a565b9150509295509295509295565b600061355583836137a0565b905092915050565b600061356983836138f4565b60208301905092915050565b61357e81613e87565b82525050565b61358d81613e87565b82525050565b61359c81613e75565b82525050565b60006135ad82613ce1565b6135b78185613d1c565b9350836020820285016135c985613cc1565b8060005b8581101561360557848403895281516135e68582613549565b94506135f183613d02565b925060208a019950506001810190506135cd565b50829750879550505050505092915050565b600061362282613cec565b61362c8185613d2d565b935061363783613cd1565b8060005b8381101561366857815161364f888261355d565b975061365a83613d0f565b92505060018101905061363b565b5085935050505092915050565b61367e81613e99565b82525050565b61368d81613e99565b82525050565b61369c81613efb565b82525050565b60006136ad82613cf7565b6136b78185613d3e565b93506136c7818560208601613f1c565b6136d081614104565b840191505092915050565b60006136e682613cf7565b6136f08185613d4f565b9350613700818560208601613f1c565b61370981614104565b840191505092915050565b6000613721602b83613d4f565b915061372c82614115565b604082019050919050565b6000613744602683613d4f565b915061374f82614164565b604082019050919050565b6000613767602083613d4f565b9150613772826141b3565b602082019050919050565b600061378a602983613d4f565b9150613795826141dc565b604082019050919050565b600060e0830160008301516137b86000860182613575565b50602083015184820360208601526137d082826136a2565b915050604083015184820360408601526137ea82826136a2565b9150506060830151848203606086015261380482826136a2565b91505060808301516138196080860182613675565b5060a083015161382c60a08601826138f4565b5060c083015161383f60c08601826138f4565b508091505092915050565b600060e0830160008301516138626000860182613575565b506020830151848203602086015261387a82826136a2565b9150506040830151848203604086015261389482826136a2565b915050606083015184820360608601526138ae82826136a2565b91505060808301516138c36080860182613675565b5060a08301516138d660a08601826138f4565b5060c08301516138e960c08601826138f4565b508091505092915050565b6138fd81613ef1565b82525050565b61390c81613ef1565b82525050565b60006020820190506139276000830184613593565b92915050565b600060e082019050613942600083018a613584565b818103602083015261395481896136db565b9050818103604083015261396881886136db565b9050818103606083015261397c81876136db565b905061398b6080830186613684565b61399860a0830185613903565b6139a560c0830184613903565b98975050505050505050565b600060208201905081810360008301526139cb81846135a2565b905092915050565b600060208201905081810360008301526139ed8184613617565b905092915050565b60006040820190508181036000830152613a0f8185613617565b90508181036020830152613a238184613617565b90509392505050565b6000602082019050613a416000830184613684565b92915050565b60006020820190508181036000830152613a6181846136db565b905092915050565b60006020820190508181036000830152613a8281613714565b9050919050565b60006020820190508181036000830152613aa281613737565b9050919050565b60006020820190508181036000830152613ac28161375a565b9050919050565b60006020820190508181036000830152613ae28161377d565b9050919050565b60006020820190508181036000830152613b03818461384a565b905092915050565b6000602082019050613b206000830184613903565b92915050565b600061010082019050613b3c600083018b613903565b613b49602083018a613584565b8181036040830152613b5b81896136db565b90508181036060830152613b6f81886136db565b90508181036080830152613b8381876136db565b9050613b9260a0830186613684565b613b9f60c0830185613693565b613bac60e0830184613693565b9998505050505050505050565b6000604082019050613bce6000830185613903565b613bdb6020830184613903565b9392505050565b6000613bec613bfd565b9050613bf88282613f81565b919050565b6000604051905090565b600067ffffffffffffffff821115613c2257613c216140b7565b5b602082029050602081019050919050565b600067ffffffffffffffff821115613c4e57613c4d6140b7565b5b602082029050602081019050919050565b600067ffffffffffffffff821115613c7a57613c796140b7565b5b613c8382614104565b9050602081019050919050565b600067ffffffffffffffff821115613cab57613caa6140b7565b5b613cb482614104565b9050602081019050919050565b6000819050602082019050919050565b6000819050602082019050919050565b600081519050919050565b600081519050919050565b600081519050919050565b6000602082019050919050565b6000602082019050919050565b600082825260208201905092915050565b600082825260208201905092915050565b600082825260208201905092915050565b600082825260208201905092915050565b6000613d6b82613ef1565b9150613d7683613ef1565b9250827fffffffffffffffffffffffffffffffffffffffffffffffffffffffffffffffff03821115613dab57613daa613ffb565b5b828201905092915050565b6000613dc182613ef1565b9150613dcc83613ef1565b925082613ddc57613ddb61402a565b5b828204905092915050565b6000613df282613ef1565b9150613dfd83613ef1565b9250817fffffffffffffffffffffffffffffffffffffffffffffffffffffffffffffffff0483118215151615613e3657613e35613ffb565b5b828202905092915050565b6000613e4c82613ef1565b9150613e5783613ef1565b925082821015613e6a57613e69613ffb565b5b828203905092915050565b6000613e8082613ed1565b9050919050565b6000613e9282613ed1565b9050919050565b60008115159050919050565b60007fffffffff0000000000000000000000000000000000000000000000000000000082169050919050565b600073ffffffffffffffffffffffffffffffffffffffff82169050919050565b6000819050919050565b6000613f0682613ef1565b9050919050565b82818337600083830152505050565b60005b83811015613f3a578082015181840152602081019050613f1f565b83811115613f49576000848401525b50505050565b60006002820490506001821680613f6757607f821691505b60208210811415613f7b57613f7a614059565b5b50919050565b613f8a82614104565b810181811067ffffffffffffffff82111715613fa957613fa86140b7565b5b80604052505050565b6000613fbd82613ef1565b91507fffffffffffffffffffffffffffffffffffffffffffffffffffffffffffffffff821415613ff057613fef613ffb565b5b600182019050919050565b7f4e487b7100000000000000000000000000000000000000000000000000000000600052601160045260246000fd5b7f4e487b7100000000000000000000000000000000000000000000000000000000600052601260045260246000fd5b7f4e487b7100000000000000000000000000000000000000000000000000000000600052602260045260246000fd5b7f4e487b7100000000000000000000000000000000000000000000000000000000600052603260045260246000fd5b7f4e487b7100000000000000000000000000000000000000000000000000000000600052604160045260246000fd5b600080fd5b600080fd5b600080fd5b600080fd5b600080fd5b600080fd5b6000601f19601f8301169050919050565b7f455243313135353a2062616c616e636520717565727920666f7220746865207a60008201527f65726f2061646472657373000000000000000000000000000000000000000000602082015250565b7f4f776e61626c653a206e6577206f776e657220697320746865207a65726f206160008201527f6464726573730000000000000000000000000000000000000000000000000000602082015250565b7f4f776e61626c653a2063616c6c6572206973206e6f7420746865206f776e6572600082015250565b7f455243313135353a206163636f756e747320616e6420696473206c656e67746860008201527f206d69736d617463680000000000000000000000000000000000000000000000602082015250565b61423481613e75565b811461423f57600080fd5b50565b61424b81613e87565b811461425657600080fd5b50565b61426281613e99565b811461426d57600080fd5b50565b61427981613ea5565b811461428457600080fd5b50565b61429081613ef1565b811461429b57600080fd5b5056fea2646970667358221220dd3cf92b900aaac65013117e3d2cf446d1b96b174526709e4605aae0e46ccdaf64736f6c63430008060033",
  "immutableReferences": {},
  "source": "// SPDX-License-Identifier: MIT\npragma solidity ^0.8.0;\n\nimport \"./creatortokenfees.sol\";\n\n/// @title Computes buy proceeds and total proceeds associated with a buy transaction\n/// @author Kamil Alizai Sadik\ncontract CreatorTokenComputation is CreatorTokenFees {\n\n\tconstructor(string memory uri) CreatorTokenFees(uri) { }\n\n\t/// @dev Calculates total transaction proceeds\n\t/// @param _tokenId ID of the token being transacted\n\t/// @param _amount Quantity of the token being transacted\n\t/// @return Total proceeds required in transaction\n\tfunction _totalProceeds(uint _tokenId, uint _amount) public view returns (uint256) {//, uint256, uint256) {//[3] memory) {\n\t\t// Compute proceedsRequired (ex-fees)\n\t\tuint proceedsRequired = _buyProceeds(_tokenId, _amount);\n\t\t// Compute feeRequired\n\t\tuint feeRequired = _feeProceeds(proceedsRequired);\n\t\t// Compute total proceeds required\n\t\tuint totalProceeds = proceedsRequired + feeRequired;\n\t\treturn totalProceeds;\n\t}\n\n\t/// @dev Calculates proceeds required for a given buy transaction (not including fees)\n\t/// @param _tokenId ID of the token being transacted\n\t/// @param _amount Quantity of the token being transacted\n\t/// @return Proceeds required in the transaction (before fees)\n\tfunction _buyProceeds(uint _tokenId, uint _amount) public view returns (uint256) {\n\t\t// Initialize proceeds required;\n\t\tuint proceedsRequired = 0;\n\t\t// Initialize pre-transaction supply\n\t\tuint startingSupply = creatorTokens[_tokenId].outstanding;\n\t\t// Compute post-transaction supply\n\t\tuint endSupply = startingSupply + _amount;\n\t\t// Compute buy proceeds\n\t\t// Check if endSupply <= maxSupply\n\t\tif (endSupply < creatorTokens[_tokenId].maxSupply) {\n\t\t\t// Scenario in which entire transaction takes place below maxSupply\n\t\t\t// Just call s(x)\n\t\t\t//proceedsRequired = _saleFunction(startingSupply, _amount, mNumerator, mDenominator, creatorTokens[_tokenId].maxSupply, profitMargin);\n\t\t\tproceedsRequired = _saleFunction(endSupply, _amount, mNumerator, mDenominator, creatorTokens[_tokenId].maxSupply, profitMargin);\n\t\t} else if (startingSupply < creatorTokens[_tokenId].maxSupply){\n\t\t\t// Scenario in which supply begins below maxSupply and ends above pre-transaction maxSupply\n\t\t\t// Use s(x) from startingSupply to maxSupply\n\t\t\tproceedsRequired = _saleFunction(creatorTokens[_tokenId].maxSupply, creatorTokens[_tokenId].maxSupply - startingSupply, mNumerator, mDenominator, creatorTokens[_tokenId].maxSupply, profitMargin);\n\t\t\t// Use b(x) from maxSupply to endSupply\n\t\t\tproceedsRequired += _buyFunction(creatorTokens[_tokenId].maxSupply, _amount - (creatorTokens[_tokenId].maxSupply - startingSupply), mNumerator, mDenominator);\n\t\t} else {\n\t\t\t// Scenario in which transaction begins at maxSupply\n\t\t\t// Just call b(x)\n\t\t\tproceedsRequired = _buyFunction(startingSupply, _amount, mNumerator, mDenominator);\n\t\t}\n\t\t// Return proceeds required\n\t\treturn proceedsRequired;\n\t}\n}",
  "sourcePath": "/Users/kamilalizaisadik/DeFi/Dynamic Automated Market Maker/CreatorTokenExchange/contracts/creatortokencomputation.sol",
  "compiler": {
    "name": "solc",
    "version": "0.8.6+commit.11564f7e.Emscripten.clang"
  },
  "schemaVersion": "3.4.1",
  "updatedAt": "2021-07-31T12:23:52.300Z",
  "devdoc": {
    "author": "Kamil Alizai Sadik",
    "kind": "dev",
    "methods": {
      "_buyProceeds(uint256,uint256)": {
        "details": "Calculates proceeds required for a given buy transaction (not including fees)",
        "params": {
          "_amount": "Quantity of the token being transacted",
          "_tokenId": "ID of the token being transacted"
        },
        "returns": {
          "_0": "Proceeds required in the transaction (before fees)"
        }
      },
      "_feeProceeds(uint256)": {
        "details": "Calculates the fee associated with a buy transaction",
        "params": {
          "_proceedsRequired": "The proceeds required for the buy transaction (before addition of fees)"
        },
        "returns": {
          "_0": "Fee associated with transaction"
        }
      },
      "_saleFunction(uint256,uint256,uint256,uint256,uint256,uint256)": {
        "details": "Calculates area under sale price function",
        "params": {
          "_amount": "Amount of token being transacted",
          "_mDenominator": "Denominator of the slope of the buy price function",
          "_mNumerator": "Numerator of the slope of the buy price function",
          "_maxSupply": "Peak level of supply of the token to date",
          "_profitMargin": "percentage of total revenue generated routed to creator",
          "_startingSupply": "Supply of token in circulation before the transaction"
        },
        "returns": {
          "_0": "Area under sale price function denoting total proceeds received when selling _amount tokens (before fees)"
        }
      },
      "_totalProceeds(uint256,uint256)": {
        "details": "Calculates total transaction proceeds",
        "params": {
          "_amount": "Quantity of the token being transacted",
          "_tokenId": "ID of the token being transacted"
        },
        "returns": {
          "_0": "Total proceeds required in transaction"
        }
      },
      "balanceOf(address,uint256)": {
        "details": "See {IERC1155-balanceOf}. Requirements: - `account` cannot be the zero address."
      },
      "balanceOfBatch(address[],uint256[])": {
        "details": "See {IERC1155-balanceOfBatch}. Requirements: - `accounts` and `ids` must have the same length."
      },
      "changeAddress(uint256,address)": {
        "details": "Allows token creator to change their address",
        "params": {
          "_newCreatorAddress": "New creator address associated with the token",
          "_tokenId": "ID of the token in question"
        }
      },
      "changeDescription(uint256,string)": {
        "details": "Allows token creator to change the description of their token",
        "params": {
          "_newDescription": "New description associated with the token",
          "_tokenId": "ID of the token in question"
        }
      },
      "changeName(uint256,string)": {
        "details": "Allows token creator to change the name of their token",
        "params": {
          "_newName": "New name associated with the token",
          "_tokenId": "ID of the token in question"
        }
      },
      "changePlatformFee(uint256)": {
        "details": "Allows owner to change platformFee",
        "params": {
          "_newPlatformFee": "New platform fee"
        }
      },
      "changeProfitMargin(uint256)": {
        "details": "Allows owner to change profit_margin",
        "params": {
          "_newProfitMargin": "New profit margin"
        }
      },
      "changeSymbol(uint256,string)": {
        "details": "Allows token creator to change the symbol of their token",
        "params": {
          "_newSymbol": "New symbol associated with the token",
          "_tokenId": "ID of the token in question"
        }
      },
      "changeVerification(uint256,bool)": {
        "details": "Allows owner to verify (or undo verification) of a CreatorToken",
        "params": {
          "_tokenId": "ID of the token in question",
          "_verified": "Verification status of the token in question"
        }
      },
      "createCreatorToken(address,string,string,string)": {
        "details": "Creates a new creator token",
        "params": {
          "_creatorAddress": "Address of the creator of the token",
          "_description": "chosen by the creator of the tokens",
          "_name": "Name chosen by the creator of the token",
          "_symbol": "Ticker symbol chosen by the creator of the token"
        }
      },
      "getCreatorTokenCount()": {
        "details": "Returns the current length of the creatorTokens array",
        "returns": {
          "_0": "uint representing number of unique Creator Tokens"
        }
      },
      "getCreatorTokens()": {
        "details": "Returns entire array of tokens",
        "returns": {
          "_0": "CreatorToken[]"
        }
      },
      "getToken(uint256)": {
        "details": "Returns token with a particular id",
        "params": {
          "_id": "Id of desired token"
        },
        "returns": {
          "_0": "CreatorToken"
        }
      },
      "isApprovedForAll(address,address)": {
        "details": "Denotes whether operator is approved to transfer account's tokens",
        "params": {
          "_account": "Wallet address holding tokens",
          "_operator": "Wallet address which is/isn't approved to transfer _account's tokens"
        },
        "returns": {
          "_0": "Boolean value indicating approval status"
        }
      },
      "owner()": {
        "details": "Returns the address of the current owner."
      },
      "payoutPlatformFees(address)": {
        "details": "Pays out platform fees owed to owner (might opt to call this daily)",
        "params": {
          "_owner": "Owner of the smart contract"
        }
      },
      "renounceOwnership()": {
        "details": "Leaves the contract without owner. It will not be possible to call `onlyOwner` functions anymore. Can only be called by the current owner. NOTE: Renouncing ownership will leave the contract without an owner, thereby removing any functionality that is only available to the owner."
      },
      "safeBatchTransferFrom(address,address,uint256[],uint256[],bytes)": {
        "details": "Transfers a batch of tokens",
        "params": {
          "_amounts": "Array of quantities of token to be transferred",
          "_data": "Data",
          "_from": "Address token is being transferred from",
          "_ids": "Array of IDs of tokens being transferred",
          "_to": "Address token is being transferred to"
        }
      },
      "safeTransferFrom(address,address,uint256,uint256,bytes)": {
        "details": "Transfers a token",
        "params": {
          "_amount": "Quantity of token to be transferred",
          "_data": "Data",
          "_from": "Address token is being transferred from",
          "_id": "ID of token being transferred",
          "_to": "Address token is being transferred to"
        }
      },
      "setApprovalForAll(address,bool)": {
        "details": "Gives operator permission to transfer caller's tokens",
        "params": {
          "_approved": "Boolean value indicating whether operator is approved",
          "_operator": "Wallet address being granted permission"
        }
      },
      "supportsInterface(bytes4)": {
        "details": "See {IERC165-supportsInterface}."
      },
      "transferOwnership(address)": {
        "details": "Transfers ownership of the contract to a new account (`newOwner`). Can only be called by the current owner."
      },
      "uri(uint256)": {
        "details": "See {IERC1155MetadataURI-uri}. This implementation returns the same URI for *all* token types. It relies on the token type ID substitution mechanism https://eips.ethereum.org/EIPS/eip-1155#metadata[defined in the EIP]. Clients calling this function must replace the `\\{id\\}` substring with the actual token type ID."
      },
      "withdraw(address)": {
        "details": "Ownable function allowing for withdrawal",
        "params": {
          "_owner": "Owner of the smart contract"
        }
      }
    },
    "title": "Computes buy proceeds and total proceeds associated with a buy transaction",
    "version": 1
  },
  "userdoc": {
    "kind": "user",
    "methods": {},
    "version": 1
  }
}