{
  "contractName": "CreatorTokenExchange",
  "abi": [
    {
      "inputs": [
        {
          "internalType": "string",
          "name": "uri",
          "type": "string"
        }
      ],
      "stateMutability": "nonpayable",
      "type": "constructor"
    },
    {
      "anonymous": false,
      "inputs": [
        {
          "indexed": true,
          "internalType": "address",
          "name": "account",
          "type": "address"
        },
        {
          "indexed": true,
          "internalType": "address",
          "name": "operator",
          "type": "address"
        },
        {
          "indexed": false,
          "internalType": "bool",
          "name": "approved",
          "type": "bool"
        }
      ],
      "name": "ApprovalForAll",
      "type": "event"
    },
    {
      "anonymous": false,
      "inputs": [
        {
          "indexed": false,
          "internalType": "uint256",
          "name": "tokenId",
          "type": "uint256"
        },
        {
          "indexed": false,
          "internalType": "address payable",
          "name": "creatorAddress",
          "type": "address"
        },
        {
          "indexed": false,
          "internalType": "string",
          "name": "name",
          "type": "string"
        },
        {
          "indexed": false,
          "internalType": "string",
          "name": "symbol",
          "type": "string"
        },
        {
          "indexed": false,
          "internalType": "string",
          "name": "description",
          "type": "string"
        },
        {
          "indexed": false,
          "internalType": "bool",
          "name": "verified",
          "type": "bool"
        },
        {
          "indexed": false,
          "internalType": "uint256",
          "name": "outstanding",
          "type": "uint256"
        },
        {
          "indexed": false,
          "internalType": "uint256",
          "name": "maxSupply",
          "type": "uint256"
        }
      ],
      "name": "NewCreatorToken",
      "type": "event"
    },
    {
      "anonymous": false,
      "inputs": [
        {
          "indexed": true,
          "internalType": "address",
          "name": "account",
          "type": "address"
        },
        {
          "indexed": false,
          "internalType": "uint256",
          "name": "amount",
          "type": "uint256"
        },
        {
          "indexed": false,
          "internalType": "string",
          "name": "transactionType",
          "type": "string"
        },
        {
          "indexed": false,
          "internalType": "uint256",
          "name": "tokenId",
          "type": "uint256"
        },
        {
          "indexed": false,
          "internalType": "string",
          "name": "name",
          "type": "string"
        },
        {
          "indexed": false,
          "internalType": "string",
          "name": "symbol",
          "type": "string"
        }
      ],
      "name": "NewTransaction",
      "type": "event"
    },
    {
      "anonymous": false,
      "inputs": [
        {
          "indexed": true,
          "internalType": "address",
          "name": "previousOwner",
          "type": "address"
        },
        {
          "indexed": true,
          "internalType": "address",
          "name": "newOwner",
          "type": "address"
        }
      ],
      "name": "OwnershipTransferred",
      "type": "event"
    },
    {
      "anonymous": false,
      "inputs": [
        {
          "indexed": false,
          "internalType": "address",
          "name": "account",
          "type": "address"
        }
      ],
      "name": "Paused",
      "type": "event"
    },
    {
      "anonymous": false,
      "inputs": [
        {
          "indexed": true,
          "internalType": "bytes32",
          "name": "role",
          "type": "bytes32"
        },
        {
          "indexed": true,
          "internalType": "bytes32",
          "name": "previousAdminRole",
          "type": "bytes32"
        },
        {
          "indexed": true,
          "internalType": "bytes32",
          "name": "newAdminRole",
          "type": "bytes32"
        }
      ],
      "name": "RoleAdminChanged",
      "type": "event"
    },
    {
      "anonymous": false,
      "inputs": [
        {
          "indexed": true,
          "internalType": "bytes32",
          "name": "role",
          "type": "bytes32"
        },
        {
          "indexed": true,
          "internalType": "address",
          "name": "account",
          "type": "address"
        },
        {
          "indexed": true,
          "internalType": "address",
          "name": "sender",
          "type": "address"
        }
      ],
      "name": "RoleGranted",
      "type": "event"
    },
    {
      "anonymous": false,
      "inputs": [
        {
          "indexed": true,
          "internalType": "bytes32",
          "name": "role",
          "type": "bytes32"
        },
        {
          "indexed": true,
          "internalType": "address",
          "name": "account",
          "type": "address"
        },
        {
          "indexed": true,
          "internalType": "address",
          "name": "sender",
          "type": "address"
        }
      ],
      "name": "RoleRevoked",
      "type": "event"
    },
    {
      "anonymous": false,
      "inputs": [
        {
          "indexed": true,
          "internalType": "address",
          "name": "operator",
          "type": "address"
        },
        {
          "indexed": true,
          "internalType": "address",
          "name": "from",
          "type": "address"
        },
        {
          "indexed": true,
          "internalType": "address",
          "name": "to",
          "type": "address"
        },
        {
          "indexed": false,
          "internalType": "uint256[]",
          "name": "ids",
          "type": "uint256[]"
        },
        {
          "indexed": false,
          "internalType": "uint256[]",
          "name": "values",
          "type": "uint256[]"
        }
      ],
      "name": "TransferBatch",
      "type": "event"
    },
    {
      "anonymous": false,
      "inputs": [
        {
          "indexed": true,
          "internalType": "address",
          "name": "operator",
          "type": "address"
        },
        {
          "indexed": true,
          "internalType": "address",
          "name": "from",
          "type": "address"
        },
        {
          "indexed": true,
          "internalType": "address",
          "name": "to",
          "type": "address"
        },
        {
          "indexed": false,
          "internalType": "uint256",
          "name": "id",
          "type": "uint256"
        },
        {
          "indexed": false,
          "internalType": "uint256",
          "name": "value",
          "type": "uint256"
        }
      ],
      "name": "TransferSingle",
      "type": "event"
    },
    {
      "anonymous": false,
      "inputs": [
        {
          "indexed": false,
          "internalType": "string",
          "name": "value",
          "type": "string"
        },
        {
          "indexed": true,
          "internalType": "uint256",
          "name": "id",
          "type": "uint256"
        }
      ],
      "name": "URI",
      "type": "event"
    },
    {
      "anonymous": false,
      "inputs": [
        {
          "indexed": false,
          "internalType": "address",
          "name": "account",
          "type": "address"
        }
      ],
      "name": "Unpaused",
      "type": "event"
    },
    {
      "inputs": [],
      "name": "DEFAULT_ADMIN_ROLE",
      "outputs": [
        {
          "internalType": "bytes32",
          "name": "",
          "type": "bytes32"
        }
      ],
      "stateMutability": "view",
      "type": "function"
    },
    {
      "inputs": [],
      "name": "MINTER_ROLE",
      "outputs": [
        {
          "internalType": "bytes32",
          "name": "",
          "type": "bytes32"
        }
      ],
      "stateMutability": "view",
      "type": "function"
    },
    {
      "inputs": [],
      "name": "PAUSER_ROLE",
      "outputs": [
        {
          "internalType": "bytes32",
          "name": "",
          "type": "bytes32"
        }
      ],
      "stateMutability": "view",
      "type": "function"
    },
    {
      "inputs": [
        {
          "internalType": "address",
          "name": "_account",
          "type": "address"
        },
        {
          "internalType": "uint256",
          "name": "_id",
          "type": "uint256"
        }
      ],
      "name": "balanceOf",
      "outputs": [
        {
          "internalType": "uint256",
          "name": "",
          "type": "uint256"
        }
      ],
      "stateMutability": "view",
      "type": "function"
    },
    {
      "inputs": [
        {
          "internalType": "address[]",
          "name": "_accounts",
          "type": "address[]"
        },
        {
          "internalType": "uint256[]",
          "name": "_ids",
          "type": "uint256[]"
        }
      ],
      "name": "balanceOfBatch",
      "outputs": [
        {
          "internalType": "uint256[]",
          "name": "",
          "type": "uint256[]"
        }
      ],
      "stateMutability": "view",
      "type": "function"
    },
    {
      "inputs": [
        {
          "internalType": "address",
          "name": "_account",
          "type": "address"
        },
        {
          "internalType": "uint256",
          "name": "_id",
          "type": "uint256"
        },
        {
          "internalType": "uint256",
          "name": "_amount",
          "type": "uint256"
        }
      ],
      "name": "burn",
      "outputs": [],
      "stateMutability": "nonpayable",
      "type": "function"
    },
    {
      "inputs": [
        {
          "internalType": "address",
          "name": "_account",
          "type": "address"
        },
        {
          "internalType": "uint256[]",
          "name": "_ids",
          "type": "uint256[]"
        },
        {
          "internalType": "uint256[]",
          "name": "_amounts",
          "type": "uint256[]"
        }
      ],
      "name": "burnBatch",
      "outputs": [],
      "stateMutability": "nonpayable",
      "type": "function"
    },
    {
      "inputs": [
        {
          "internalType": "uint256",
          "name": "_tokenId",
          "type": "uint256"
        },
        {
          "internalType": "address payable",
          "name": "_newCreatorAddress",
          "type": "address"
        }
      ],
      "name": "changeAddress",
      "outputs": [],
      "stateMutability": "nonpayable",
      "type": "function"
    },
    {
      "inputs": [
        {
          "internalType": "uint256",
          "name": "_tokenId",
          "type": "uint256"
        },
        {
          "internalType": "string",
          "name": "_newDescription",
          "type": "string"
        }
      ],
      "name": "changeDescription",
      "outputs": [],
      "stateMutability": "nonpayable",
      "type": "function"
    },
    {
      "inputs": [
        {
          "internalType": "uint256",
          "name": "_tokenId",
          "type": "uint256"
        },
        {
          "internalType": "string",
          "name": "_newName",
          "type": "string"
        }
      ],
      "name": "changeName",
      "outputs": [],
      "stateMutability": "nonpayable",
      "type": "function"
    },
    {
      "inputs": [
        {
          "internalType": "uint256",
          "name": "_newPlatformFee",
          "type": "uint256"
        }
      ],
      "name": "changePlatformFee",
      "outputs": [],
      "stateMutability": "nonpayable",
      "type": "function"
    },
    {
      "inputs": [
        {
          "internalType": "uint256",
          "name": "_newProfitMargin",
          "type": "uint256"
        }
      ],
      "name": "changeProfitMargin",
      "outputs": [],
      "stateMutability": "nonpayable",
      "type": "function"
    },
    {
      "inputs": [
        {
          "internalType": "uint256",
          "name": "_tokenId",
          "type": "uint256"
        },
        {
          "internalType": "string",
          "name": "_newSymbol",
          "type": "string"
        }
      ],
      "name": "changeSymbol",
      "outputs": [],
      "stateMutability": "nonpayable",
      "type": "function"
    },
    {
      "inputs": [
        {
          "internalType": "uint256",
          "name": "_tokenId",
          "type": "uint256"
        },
        {
          "internalType": "bool",
          "name": "_verified",
          "type": "bool"
        }
      ],
      "name": "changeVerification",
      "outputs": [],
      "stateMutability": "nonpayable",
      "type": "function"
    },
    {
      "inputs": [
        {
          "internalType": "address payable",
          "name": "_creatorAddress",
          "type": "address"
        },
        {
          "internalType": "string",
          "name": "_name",
          "type": "string"
        },
        {
          "internalType": "string",
          "name": "_symbol",
          "type": "string"
        },
        {
          "internalType": "string",
          "name": "_description",
          "type": "string"
        }
      ],
      "name": "createCreatorToken",
      "outputs": [],
      "stateMutability": "nonpayable",
      "type": "function"
    },
    {
      "inputs": [
        {
          "internalType": "uint256",
          "name": "",
          "type": "uint256"
        }
      ],
      "name": "creatorTokens",
      "outputs": [
        {
          "internalType": "address payable",
          "name": "creatorAddress",
          "type": "address"
        },
        {
          "internalType": "string",
          "name": "name",
          "type": "string"
        },
        {
          "internalType": "string",
          "name": "symbol",
          "type": "string"
        },
        {
          "internalType": "string",
          "name": "description",
          "type": "string"
        },
        {
          "internalType": "bool",
          "name": "verified",
          "type": "bool"
        },
        {
          "internalType": "uint256",
          "name": "outstanding",
          "type": "uint256"
        },
        {
          "internalType": "uint256",
          "name": "maxSupply",
          "type": "uint256"
        }
      ],
      "stateMutability": "view",
      "type": "function"
    },
    {
      "inputs": [
        {
          "internalType": "bytes32",
          "name": "role",
          "type": "bytes32"
        }
      ],
      "name": "getRoleAdmin",
      "outputs": [
        {
          "internalType": "bytes32",
          "name": "",
          "type": "bytes32"
        }
      ],
      "stateMutability": "view",
      "type": "function"
    },
    {
      "inputs": [
        {
          "internalType": "bytes32",
          "name": "role",
          "type": "bytes32"
        },
        {
          "internalType": "uint256",
          "name": "index",
          "type": "uint256"
        }
      ],
      "name": "getRoleMember",
      "outputs": [
        {
          "internalType": "address",
          "name": "",
          "type": "address"
        }
      ],
      "stateMutability": "view",
      "type": "function"
    },
    {
      "inputs": [
        {
          "internalType": "bytes32",
          "name": "role",
          "type": "bytes32"
        }
      ],
      "name": "getRoleMemberCount",
      "outputs": [
        {
          "internalType": "uint256",
          "name": "",
          "type": "uint256"
        }
      ],
      "stateMutability": "view",
      "type": "function"
    },
    {
      "inputs": [
        {
          "internalType": "bytes32",
          "name": "role",
          "type": "bytes32"
        },
        {
          "internalType": "address",
          "name": "account",
          "type": "address"
        }
      ],
      "name": "grantRole",
      "outputs": [],
      "stateMutability": "nonpayable",
      "type": "function"
    },
    {
      "inputs": [
        {
          "internalType": "bytes32",
          "name": "role",
          "type": "bytes32"
        },
        {
          "internalType": "address",
          "name": "account",
          "type": "address"
        }
      ],
      "name": "hasRole",
      "outputs": [
        {
          "internalType": "bool",
          "name": "",
          "type": "bool"
        }
      ],
      "stateMutability": "view",
      "type": "function"
    },
    {
      "inputs": [
        {
          "internalType": "address",
          "name": "_account",
          "type": "address"
        },
        {
          "internalType": "address",
          "name": "_operator",
          "type": "address"
        }
      ],
      "name": "isApprovedForAll",
      "outputs": [
        {
          "internalType": "bool",
          "name": "",
          "type": "bool"
        }
      ],
      "stateMutability": "view",
      "type": "function"
    },
    {
      "inputs": [
        {
          "internalType": "address",
          "name": "_to",
          "type": "address"
        },
        {
          "internalType": "uint256",
          "name": "_id",
          "type": "uint256"
        },
        {
          "internalType": "uint256",
          "name": "_amount",
          "type": "uint256"
        },
        {
          "internalType": "bytes",
          "name": "_data",
          "type": "bytes"
        }
      ],
      "name": "mint",
      "outputs": [],
      "stateMutability": "nonpayable",
      "type": "function"
    },
    {
      "inputs": [
        {
          "internalType": "address",
          "name": "_to",
          "type": "address"
        },
        {
          "internalType": "uint256[]",
          "name": "_ids",
          "type": "uint256[]"
        },
        {
          "internalType": "uint256[]",
          "name": "_amounts",
          "type": "uint256[]"
        },
        {
          "internalType": "bytes",
          "name": "data",
          "type": "bytes"
        }
      ],
      "name": "mintBatch",
      "outputs": [],
      "stateMutability": "nonpayable",
      "type": "function"
    },
    {
      "inputs": [],
      "name": "owner",
      "outputs": [
        {
          "internalType": "address",
          "name": "",
          "type": "address"
        }
      ],
      "stateMutability": "view",
      "type": "function"
    },
    {
      "inputs": [],
      "name": "pause",
      "outputs": [],
      "stateMutability": "nonpayable",
      "type": "function"
    },
    {
      "inputs": [],
      "name": "paused",
      "outputs": [
        {
          "internalType": "bool",
          "name": "",
          "type": "bool"
        }
      ],
      "stateMutability": "view",
      "type": "function"
    },
    {
      "inputs": [
        {
          "internalType": "address payable",
          "name": "_owner",
          "type": "address"
        }
      ],
      "name": "payoutPlatformFees",
      "outputs": [],
      "stateMutability": "nonpayable",
      "type": "function"
    },
    {
      "inputs": [],
      "name": "renounceOwnership",
      "outputs": [],
      "stateMutability": "nonpayable",
      "type": "function"
    },
    {
      "inputs": [
        {
          "internalType": "bytes32",
          "name": "role",
          "type": "bytes32"
        },
        {
          "internalType": "address",
          "name": "account",
          "type": "address"
        }
      ],
      "name": "renounceRole",
      "outputs": [],
      "stateMutability": "nonpayable",
      "type": "function"
    },
    {
      "inputs": [
        {
          "internalType": "bytes32",
          "name": "role",
          "type": "bytes32"
        },
        {
          "internalType": "address",
          "name": "account",
          "type": "address"
        }
      ],
      "name": "revokeRole",
      "outputs": [],
      "stateMutability": "nonpayable",
      "type": "function"
    },
    {
      "inputs": [
        {
          "internalType": "address",
          "name": "_from",
          "type": "address"
        },
        {
          "internalType": "address",
          "name": "_to",
          "type": "address"
        },
        {
          "internalType": "uint256[]",
          "name": "_ids",
          "type": "uint256[]"
        },
        {
          "internalType": "uint256[]",
          "name": "_amounts",
          "type": "uint256[]"
        },
        {
          "internalType": "bytes",
          "name": "data",
          "type": "bytes"
        }
      ],
      "name": "safeBatchTransferFrom",
      "outputs": [],
      "stateMutability": "nonpayable",
      "type": "function"
    },
    {
      "inputs": [
        {
          "internalType": "address",
          "name": "_from",
          "type": "address"
        },
        {
          "internalType": "address",
          "name": "_to",
          "type": "address"
        },
        {
          "internalType": "uint256",
          "name": "_id",
          "type": "uint256"
        },
        {
          "internalType": "uint256",
          "name": "_amount",
          "type": "uint256"
        },
        {
          "internalType": "bytes",
          "name": "_data",
          "type": "bytes"
        }
      ],
      "name": "safeTransferFrom",
      "outputs": [],
      "stateMutability": "nonpayable",
      "type": "function"
    },
    {
      "inputs": [
        {
          "internalType": "address",
          "name": "_operator",
          "type": "address"
        },
        {
          "internalType": "bool",
          "name": "_approved",
          "type": "bool"
        }
      ],
      "name": "setApprovalForAll",
      "outputs": [],
      "stateMutability": "nonpayable",
      "type": "function"
    },
    {
      "inputs": [
        {
          "internalType": "bytes4",
          "name": "interfaceId",
          "type": "bytes4"
        }
      ],
      "name": "supportsInterface",
      "outputs": [
        {
          "internalType": "bool",
          "name": "",
          "type": "bool"
        }
      ],
      "stateMutability": "view",
      "type": "function"
    },
    {
      "inputs": [
        {
          "internalType": "uint256",
          "name": "",
          "type": "uint256"
        },
        {
          "internalType": "address",
          "name": "",
          "type": "address"
        }
      ],
      "name": "tokenHoldership",
      "outputs": [
        {
          "internalType": "uint256",
          "name": "",
          "type": "uint256"
        }
      ],
      "stateMutability": "view",
      "type": "function"
    },
    {
      "inputs": [
        {
          "internalType": "uint256",
          "name": "",
          "type": "uint256"
        }
      ],
      "name": "tokenToCreator",
      "outputs": [
        {
          "internalType": "address",
          "name": "",
          "type": "address"
        }
      ],
      "stateMutability": "view",
      "type": "function"
    },
    {
      "inputs": [
        {
          "internalType": "address",
          "name": "newOwner",
          "type": "address"
        }
      ],
      "name": "transferOwnership",
      "outputs": [],
      "stateMutability": "nonpayable",
      "type": "function"
    },
    {
      "inputs": [],
      "name": "unpause",
      "outputs": [],
      "stateMutability": "nonpayable",
      "type": "function"
    },
    {
      "inputs": [
        {
          "internalType": "uint256",
          "name": "",
          "type": "uint256"
        }
      ],
      "name": "uri",
      "outputs": [
        {
          "internalType": "string",
          "name": "",
          "type": "string"
        }
      ],
      "stateMutability": "view",
      "type": "function"
    },
    {
      "inputs": [
        {
          "internalType": "address",
          "name": "",
          "type": "address"
        },
        {
          "internalType": "uint256",
          "name": "",
          "type": "uint256"
        }
      ],
      "name": "userToHoldings",
      "outputs": [
        {
          "internalType": "uint256",
          "name": "",
          "type": "uint256"
        }
      ],
      "stateMutability": "view",
      "type": "function"
    },
    {
      "inputs": [
        {
          "internalType": "address payable",
          "name": "_owner",
          "type": "address"
        }
      ],
      "name": "withdraw",
      "outputs": [],
      "stateMutability": "nonpayable",
      "type": "function"
    },
    {
      "inputs": [
        {
          "internalType": "uint256",
          "name": "_tokenId",
          "type": "uint256"
        },
        {
          "internalType": "uint256",
          "name": "_amount",
          "type": "uint256"
        }
      ],
      "name": "buyCreatorToken",
      "outputs": [],
      "stateMutability": "payable",
      "type": "function"
    },
    {
      "inputs": [
        {
          "internalType": "uint256",
          "name": "_tokenId",
          "type": "uint256"
        },
        {
          "internalType": "uint256",
          "name": "_amount",
          "type": "uint256"
        }
      ],
      "name": "_buyProceeds",
      "outputs": [
        {
          "internalType": "uint256",
          "name": "",
          "type": "uint256"
        },
        {
          "internalType": "uint256",
          "name": "",
          "type": "uint256"
        }
      ],
      "stateMutability": "nonpayable",
      "type": "function"
    },
    {
      "inputs": [
        {
          "internalType": "uint256",
          "name": "_tokenId",
          "type": "uint256"
        },
        {
          "internalType": "uint256",
          "name": "_amount",
          "type": "uint256"
        },
        {
          "internalType": "address payable",
          "name": "_seller",
          "type": "address"
        }
      ],
      "name": "sellCreatorToken",
      "outputs": [],
      "stateMutability": "payable",
      "type": "function"
    }
  ],
  "bytecode": "0x60806040526001805560006002556000600355601460045565082f79cd900060055560b96006553480156200003357600080fd5b506040516200665d3803806200665d8339818101604052810190620000599190620005ca565b80808060006200006e620001e860201b60201c565b9050806000806101000a81548173ffffffffffffffffffffffffffffffffffffffff021916908373ffffffffffffffffffffffffffffffffffffffff1602179055508073ffffffffffffffffffffffffffffffffffffffff16600073ffffffffffffffffffffffffffffffffffffffff167f8be0079c531659141344cd1fd0a4f28419497f9722a3daafe3b4186f6b6457e060405160405180910390a3506200011d81620001f060201b60201c565b506000601260006101000a81548160ff0219169083151502179055506200015d6000801b62000151620001e860201b60201c565b6200020c60201b60201c565b6200019e7f9f2df0fed2c77648de5860a4cc508cd0818c85b8b8a1ab4ceeef8d981c8956a662000192620001e860201b60201c565b6200020c60201b60201c565b620001df7f65d7a28e3265b37a6474929f336521b332c1681b933f6cb9f3376673440d862a620001d3620001e860201b60201c565b6200020c60201b60201c565b5050506200079f565b600033905090565b8060119080519060200190620002089291906200049c565b5050565b6200022382826200025460201b62002fb71760201c565b6200024f81600e60008581526020019081526020016000206200026a60201b62002fc51790919060201c565b505050565b620002668282620002a260201b60201c565b5050565b60006200029a836000018373ffffffffffffffffffffffffffffffffffffffff1660001b6200039460201b60201c565b905092915050565b620002b482826200040e60201b60201c565b62000390576001600d600084815260200190815260200160002060000160008373ffffffffffffffffffffffffffffffffffffffff1673ffffffffffffffffffffffffffffffffffffffff16815260200190815260200160002060006101000a81548160ff02191690831515021790555062000335620001e860201b60201c565b73ffffffffffffffffffffffffffffffffffffffff168173ffffffffffffffffffffffffffffffffffffffff16837f2f8788117e7eff1d82e926ec794901d17c78024a50270940304540a733656f0d60405160405180910390a45b5050565b6000620003a883836200047960201b60201c565b6200040357826000018290806001815401808255809150506001900390600052602060002001600090919091909150558260000180549050836001016000848152602001908152602001600020819055506001905062000408565b600090505b92915050565b6000600d600084815260200190815260200160002060000160008373ffffffffffffffffffffffffffffffffffffffff1673ffffffffffffffffffffffffffffffffffffffff16815260200190815260200160002060009054906101000a900460ff16905092915050565b600080836001016000848152602001908152602001600020541415905092915050565b828054620004aa90620006b0565b90600052602060002090601f016020900481019282620004ce57600085556200051a565b82601f10620004e957805160ff19168380011785556200051a565b828001600101855582156200051a579182015b8281111562000519578251825591602001919060010190620004fc565b5b5090506200052991906200052d565b5090565b5b80821115620005485760008160009055506001016200052e565b5090565b6000620005636200055d8462000644565b6200061b565b9050828152602081018484840111156200058257620005816200077f565b5b6200058f8482856200067a565b509392505050565b600082601f830112620005af57620005ae6200077a565b5b8151620005c18482602086016200054c565b91505092915050565b600060208284031215620005e357620005e262000789565b5b600082015167ffffffffffffffff81111562000604576200060362000784565b5b620006128482850162000597565b91505092915050565b6000620006276200063a565b9050620006358282620006e6565b919050565b6000604051905090565b600067ffffffffffffffff8211156200066257620006616200074b565b5b6200066d826200078e565b9050602081019050919050565b60005b838110156200069a5780820151818401526020810190506200067d565b83811115620006aa576000848401525b50505050565b60006002820490506001821680620006c957607f821691505b60208210811415620006e057620006df6200071c565b5b50919050565b620006f1826200078e565b810181811067ffffffffffffffff821117156200071357620007126200074b565b5b80604052505050565b7f4e487b7100000000000000000000000000000000000000000000000000000000600052602260045260246000fd5b7f4e487b7100000000000000000000000000000000000000000000000000000000600052604160045260246000fd5b600080fd5b600080fd5b600080fd5b600080fd5b6000601f19601f8301169050919050565b615eae80620007af6000396000f3fe6080604052600436106102715760003560e01c80639010d07c1161014f578063d547741f116100c1578063eb8417591161007a578063eb8417591461099b578063f242432a146109c4578063f2fde38b146109ed578063f5298aca14610a16578063f7374e2e14610a3f578063fffae94114610a6857610271565b8063d547741f1461088f578063d56b72c7146108b8578063d7a5791a146108e1578063de6a06ed1461090a578063e63ab1e914610933578063e985e9c51461095e57610271565b8063bfb48c9c11610113578063bfb48c9c14610755578063c39cbef114610792578063c539c317146107bb578063ca15c873146107e4578063ce901d8a14610821578063d53913931461086457610271565b80639010d07c1461064a57806391d148541461068757806392724afa146106c4578063a217fddf14610701578063a22cb4651461072c57610271565b806336568abe116101e85780635c975abb116101ac5780635c975abb146105745780636b20c4541461059f578063715018a6146105c8578063731133e9146105df5780638456cb59146106085780638da5cb5b1461061f57610271565b806336568abe146104905780633f4ba83a146104b95780634e1273f4146104d05780634fe477d81461050d57806351cff8d91461054b57610271565b80631d5ad18b1161023a5780631d5ad18b146103935780631f7fdffa146103bc578063248a9ca3146103e55780632dcfdaf7146104225780632eb2c2d61461043e5780632f2ff15d1461046757610271565b8062fdd58e1461027657806301ffc9a7146102b357806306e320f5146102f05780630e89341c1461031957806318892ae814610356575b600080fd5b34801561028257600080fd5b5061029d600480360381019061029891906149ad565b610a84565b6040516102aa9190615438565b60405180910390f35b3480156102bf57600080fd5b506102da60048036038101906102d59190614bf1565b610adf565b6040516102e791906152c0565b60405180910390f35b3480156102fc57600080fd5b5061031760048036038101906103129190614d0b565b610af1565b005b34801561032557600080fd5b50610340600480360381019061033b9190614c1e565b610b98565b60405161034d91906152f6565b60405180910390f35b34801561036257600080fd5b5061037d60048036038101906103789190614c1e565b610c2c565b60405161038a91906151c8565b60405180910390f35b34801561039f57600080fd5b506103ba60048036038101906103b59190614c8b565b610c5f565b005b3480156103c857600080fd5b506103e360048036038101906103de91906148b2565b610d34565b005b3480156103f157600080fd5b5061040c60048036038101906104079190614b44565b610f7f565b60405161041991906152db565b60405180910390f35b61043c60048036038101906104379190614dab565b610f9f565b005b34801561044a57600080fd5b50610465600480360381019061046091906146c1565b611168565b005b34801561047357600080fd5b5061048e60048036038101906104899190614b71565b611343565b005b34801561049c57600080fd5b506104b760048036038101906104b29190614b71565b611377565b005b3480156104c557600080fd5b506104ce6113ab565b005b3480156104dc57600080fd5b506104f760048036038101906104f29190614ac3565b611425565b6040516105049190615267565b60405180910390f35b34801561051957600080fd5b50610534600480360381019061052f9190614d6b565b611555565b6040516105429291906155b2565b60405180910390f35b34801561055757600080fd5b50610572600480360381019061056d9190614599565b611790565b005b34801561058057600080fd5b50610589611856565b60405161059691906152c0565b60405180910390f35b3480156105ab57600080fd5b506105c660048036038101906105c19190614827565b61186d565b005b3480156105d457600080fd5b506105dd611ab7565b005b3480156105eb57600080fd5b5061060660048036038101906106019190614a40565b611bf1565b005b34801561061457600080fd5b5061061d611d80565b005b34801561062b57600080fd5b50610634611dfa565b60405161064191906151c8565b60405180910390f35b34801561065657600080fd5b50610671600480360381019061066c9190614bb1565b611e23565b60405161067e91906151c8565b60405180910390f35b34801561069357600080fd5b506106ae60048036038101906106a99190614b71565b611e52565b6040516106bb91906152c0565b60405180910390f35b3480156106d057600080fd5b506106eb60048036038101906106e691906149ad565b611ebd565b6040516106f89190615438565b60405180910390f35b34801561070d57600080fd5b50610716611ee2565b60405161072391906152db565b60405180910390f35b34801561073857600080fd5b50610753600480360381019061074e919061496d565b611ee9565b005b34801561076157600080fd5b5061077c60048036038101906107779190614c4b565b611fe6565b6040516107899190615438565b60405180910390f35b34801561079e57600080fd5b506107b960048036038101906107b49190614d0b565b61200b565b005b3480156107c757600080fd5b506107e260048036038101906107dd9190614c1e565b6120b2565b005b3480156107f057600080fd5b5061080b60048036038101906108069190614b44565b612138565b6040516108189190615438565b60405180910390f35b34801561082d57600080fd5b5061084860048036038101906108439190614c1e565b61215c565b60405161085b97969594939291906151e3565b60405180910390f35b34801561087057600080fd5b50610879612373565b60405161088691906152db565b60405180910390f35b34801561089b57600080fd5b506108b660048036038101906108b19190614b71565b612397565b005b3480156108c457600080fd5b506108df60048036038101906108da91906145c6565b6123cb565b005b3480156108ed57600080fd5b5061090860048036038101906109039190614c1e565b6125e7565b005b34801561091657600080fd5b50610931600480360381019061092c9190614d0b565b61266d565b005b34801561093f57600080fd5b50610948612714565b60405161095591906152db565b60405180910390f35b34801561096a57600080fd5b5061098560048036038101906109809190614681565b612738565b60405161099291906152c0565b60405180910390f35b3480156109a757600080fd5b506109c260048036038101906109bd9190614599565b6127cc565b005b3480156109d057600080fd5b506109eb60048036038101906109e69190614790565b61289c565b005b3480156109f957600080fd5b50610a146004803603810190610a0f919061456c565b6129ef565b005b348015610a2257600080fd5b50610a3d6004803603810190610a3891906149ed565b612b98565b005b348015610a4b57600080fd5b50610a666004803603810190610a619190614ccb565b612d26565b005b610a826004803603810190610a7d9190614d6b565b612de3565b005b6000600a600083815260200190815260200160002060008473ffffffffffffffffffffffffffffffffffffffff1673ffffffffffffffffffffffffffffffffffffffff16815260200190815260200160002054905092915050565b6000610aea82612ff5565b9050919050565b826008600082815260200190815260200160002060009054906101000a900473ffffffffffffffffffffffffffffffffffffffff1673ffffffffffffffffffffffffffffffffffffffff163373ffffffffffffffffffffffffffffffffffffffff1614610b5d57600080fd5b828260078681548110610b7357610b72615a8e565b5b90600052602060002090600702016002019190610b91929190614145565b5050505050565b606060118054610ba790615926565b80601f0160208091040260200160405190810160405280929190818152602001828054610bd390615926565b8015610c205780601f10610bf557610100808354040283529160200191610c20565b820191906000526020600020905b815481529060010190602001808311610c0357829003601f168201915b50505050509050919050565b60086020528060005260406000206000915054906101000a900473ffffffffffffffffffffffffffffffffffffffff1681565b816008600082815260200190815260200160002060009054906101000a900473ffffffffffffffffffffffffffffffffffffffff1673ffffffffffffffffffffffffffffffffffffffff163373ffffffffffffffffffffffffffffffffffffffff1614610ccb57600080fd5b8160078481548110610ce057610cdf615a8e565b5b906000526020600020906007020160000160006101000a81548173ffffffffffffffffffffffffffffffffffffffff021916908373ffffffffffffffffffffffffffffffffffffffff160217905550505050565b60005b8351811015610ef957828181518110610d5357610d52615a8e565b5b6020026020010151600a6000868481518110610d7257610d71615a8e565b5b6020026020010151815260200190815260200160002060008773ffffffffffffffffffffffffffffffffffffffff1673ffffffffffffffffffffffffffffffffffffffff1681526020019081526020016000206000828254610dd49190615703565b92505081905550828181518110610dee57610ded615a8e565b5b6020026020010151600b60008773ffffffffffffffffffffffffffffffffffffffff1673ffffffffffffffffffffffffffffffffffffffff1681526020019081526020016000206000868481518110610e4a57610e49615a8e565b5b602002602001015181526020019081526020016000206000828254610e6f9190615703565b92505081905550828181518110610e8957610e88615a8e565b5b60200260200101516007858381518110610ea657610ea5615a8e565b5b602002602001015181548110610ebf57610ebe615a8e565b5b90600052602060002090600702016005016000828254610edf9190615703565b925050819055508080610ef190615989565b915050610d37565b508373ffffffffffffffffffffffffffffffffffffffff16600073ffffffffffffffffffffffffffffffffffffffff163373ffffffffffffffffffffffffffffffffffffffff167f4a39dc06d4c0dbc64b70af90fd698a233a518aa5d07e595d983b8c0526c8f7fb8686604051610f71929190615289565b60405180910390a450505050565b6000600d6000838152602001908152602001600020600101549050919050565b3373ffffffffffffffffffffffffffffffffffffffff168173ffffffffffffffffffffffffffffffffffffffff1614610fd757600080fd5b60008060078581548110610fee57610fed615a8e565b5b906000526020600020906007020160050154905061103b818560055460065460078a8154811061102157611020615a8e565b5b9060005260206000209060070201600601546004546130d7565b9150600060646001548461104f919061578a565b6110599190615759565b9050808361106791906157e4565b9250611074848787612b98565b8373ffffffffffffffffffffffffffffffffffffffff166108fc849081150290604051600060405180830381858888f193505050501580156110ba573d6000803e3d6000fd5b506110c481613150565b3373ffffffffffffffffffffffffffffffffffffffff167f1ebb537d8231cf8a6b1b0d1684d85dfd83872c030ffc75f500f0729eaf674d82868860078a8154811061111257611111615a8e565b5b906000526020600020906007020160010160078b8154811061113757611136615a8e565b5b9060005260206000209060070201600201604051611158949392919061554c565b60405180910390a2505050505050565b60005b83518110156112bd5782818151811061118757611186615a8e565b5b6020026020010151600a60008684815181106111a6576111a5615a8e565b5b6020026020010151815260200190815260200160002060008873ffffffffffffffffffffffffffffffffffffffff1673ffffffffffffffffffffffffffffffffffffffff168152602001908152602001600020600082825461120891906157e4565b9250508190555082818151811061122257611221615a8e565b5b6020026020010151600a600086848151811061124157611240615a8e565b5b6020026020010151815260200190815260200160002060008773ffffffffffffffffffffffffffffffffffffffff1673ffffffffffffffffffffffffffffffffffffffff16815260200190815260200160002060008282546112a39190615703565b9250508190555080806112b590615989565b91505061116b565b508373ffffffffffffffffffffffffffffffffffffffff168573ffffffffffffffffffffffffffffffffffffffff163373ffffffffffffffffffffffffffffffffffffffff167f4a39dc06d4c0dbc64b70af90fd698a233a518aa5d07e595d983b8c0526c8f7fb8686604051611334929190615289565b60405180910390a45050505050565b61134d8282613185565b61137281600e6000858152602001908152602001600020612fc590919063ffffffff16565b505050565b61138182826131ae565b6113a681600e600085815260200190815260200160002061323190919063ffffffff16565b505050565b6113dc7f65d7a28e3265b37a6474929f336521b332c1681b933f6cb9f3376673440d862a6113d7613261565b611e52565b61141b576040517f08c379a0000000000000000000000000000000000000000000000000000000008152600401611412906153d8565b60405180910390fd5b611423613269565b565b606060008585905067ffffffffffffffff81111561144657611445615abd565b5b6040519080825280602002602001820160405280156114745781602001602082028036833780820191505090505b50905060005b8686905081101561154857600a600086868481811061149c5761149b615a8e565b5b90506020020135815260200190815260200160002060008888848181106114c6576114c5615a8e565b5b90506020020160208101906114db919061456c565b73ffffffffffffffffffffffffffffffffffffffff1673ffffffffffffffffffffffffffffffffffffffff1681526020019081526020016000205482828151811061152957611528615a8e565b5b602002602001018181525050808061154090615989565b91505061147a565b5080915050949350505050565b6000806000806007868154811061156f5761156e615a8e565b5b9060005260206000209060070201600501549050600085826115919190615703565b9050600787815481106115a7576115a6615a8e565b5b906000526020600020906007020160060154811015611600576115f9828760055460065460078c815481106115df576115de615a8e565b5b9060005260206000209060070201600601546004546130d7565b9250611753565b6007878154811061161457611613615a8e565b5b90600052602060002090600702016006015482101561173f576116bb6007888154811061164457611643615a8e565b5b9060005260206000209060070201600601548360078a8154811061166b5761166a615a8e565b5b90600052602060002090600702016006015461168791906157e4565b60055460065460078c815481106116a1576116a0615a8e565b5b9060005260206000209060070201600601546004546130d7565b925061172d600788815481106116d4576116d3615a8e565b5b9060005260206000209060070201600601548360078a815481106116fb576116fa615a8e565b5b90600052602060002090600702016006015461171791906157e4565b8861172291906157e4565b60055460065461330b565b836117389190615703565b9250611752565b61174f828760055460065461330b565b92505b5b6000606460015485611765919061578a565b61176f9190615759565b9050808461177d9190615703565b9350838195509550505050509250929050565b611798613261565b73ffffffffffffffffffffffffffffffffffffffff166117b6611dfa565b73ffffffffffffffffffffffffffffffffffffffff161461180c576040517f08c379a0000000000000000000000000000000000000000000000000000000008152600401611803906153b8565b60405180910390fd5b8073ffffffffffffffffffffffffffffffffffffffff166108fc479081150290604051600060405180830381858888f19350505050158015611852573d6000803e3d6000fd5b5050565b6000601260009054906101000a900460ff16905090565b60005b8251811015611a325781818151811061188c5761188b615a8e565b5b6020026020010151600a60008584815181106118ab576118aa615a8e565b5b6020026020010151815260200190815260200160002060008673ffffffffffffffffffffffffffffffffffffffff1673ffffffffffffffffffffffffffffffffffffffff168152602001908152602001600020600082825461190d91906157e4565b9250508190555081818151811061192757611926615a8e565b5b6020026020010151600b60008673ffffffffffffffffffffffffffffffffffffffff1673ffffffffffffffffffffffffffffffffffffffff168152602001908152602001600020600085848151811061198357611982615a8e565b5b6020026020010151815260200190815260200160002060008282546119a891906157e4565b925050819055508181815181106119c2576119c1615a8e565b5b602002602001015160078483815181106119df576119de615a8e565b5b6020026020010151815481106119f8576119f7615a8e565b5b90600052602060002090600702016005016000828254611a1891906157e4565b925050819055508080611a2a90615989565b915050611870565b50600073ffffffffffffffffffffffffffffffffffffffff168373ffffffffffffffffffffffffffffffffffffffff163373ffffffffffffffffffffffffffffffffffffffff167f4a39dc06d4c0dbc64b70af90fd698a233a518aa5d07e595d983b8c0526c8f7fb8585604051611aaa929190615289565b60405180910390a4505050565b611abf613261565b73ffffffffffffffffffffffffffffffffffffffff16611add611dfa565b73ffffffffffffffffffffffffffffffffffffffff1614611b33576040517f08c379a0000000000000000000000000000000000000000000000000000000008152600401611b2a906153b8565b60405180910390fd5b600073ffffffffffffffffffffffffffffffffffffffff1660008054906101000a900473ffffffffffffffffffffffffffffffffffffffff1673ffffffffffffffffffffffffffffffffffffffff167f8be0079c531659141344cd1fd0a4f28419497f9722a3daafe3b4186f6b6457e060405160405180910390a360008060006101000a81548173ffffffffffffffffffffffffffffffffffffffff021916908373ffffffffffffffffffffffffffffffffffffffff160217905550565b81600a600085815260200190815260200160002060008673ffffffffffffffffffffffffffffffffffffffff1673ffffffffffffffffffffffffffffffffffffffff1681526020019081526020016000206000828254611c519190615703565b9250508190555081600b60008673ffffffffffffffffffffffffffffffffffffffff1673ffffffffffffffffffffffffffffffffffffffff16815260200190815260200160002060008581526020019081526020016000206000828254611cb89190615703565b925050819055508160078481548110611cd457611cd3615a8e565b5b90600052602060002090600702016005016000828254611cf49190615703565b925050819055508373ffffffffffffffffffffffffffffffffffffffff16600073ffffffffffffffffffffffffffffffffffffffff163373ffffffffffffffffffffffffffffffffffffffff167fc3d58168c5ae7397731d063d5bbf3d657854427343f4c083240f7aacaa2d0f628686604051611d729291906155b2565b60405180910390a450505050565b611db17f65d7a28e3265b37a6474929f336521b332c1681b933f6cb9f3376673440d862a611dac613261565b611e52565b611df0576040517f08c379a0000000000000000000000000000000000000000000000000000000008152600401611de7906153f8565b60405180910390fd5b611df8613399565b565b60008060009054906101000a900473ffffffffffffffffffffffffffffffffffffffff16905090565b6000611e4a82600e600086815260200190815260200160002061343c90919063ffffffff16565b905092915050565b6000600d600084815260200190815260200160002060000160008373ffffffffffffffffffffffffffffffffffffffff1673ffffffffffffffffffffffffffffffffffffffff16815260200190815260200160002060009054906101000a900460ff16905092915050565b600b602052816000526040600020602052806000526040600020600091509150505481565b6000801b81565b80600c60003373ffffffffffffffffffffffffffffffffffffffff1673ffffffffffffffffffffffffffffffffffffffff16815260200190815260200160002060008473ffffffffffffffffffffffffffffffffffffffff1673ffffffffffffffffffffffffffffffffffffffff16815260200190815260200160002060006101000a81548160ff0219169083151502179055508173ffffffffffffffffffffffffffffffffffffffff163373ffffffffffffffffffffffffffffffffffffffff167f17307eab39ab6107e8899845ad3d59bd9653f200f220920489ca2b5937696c3183604051611fda91906152c0565b60405180910390a35050565b600a602052816000526040600020602052806000526040600020600091509150505481565b826008600082815260200190815260200160002060009054906101000a900473ffffffffffffffffffffffffffffffffffffffff1673ffffffffffffffffffffffffffffffffffffffff163373ffffffffffffffffffffffffffffffffffffffff161461207757600080fd5b82826007868154811061208d5761208c615a8e565b5b906000526020600020906007020160010191906120ab929190614145565b5050505050565b6120ba613261565b73ffffffffffffffffffffffffffffffffffffffff166120d8611dfa565b73ffffffffffffffffffffffffffffffffffffffff161461212e576040517f08c379a0000000000000000000000000000000000000000000000000000000008152600401612125906153b8565b60405180910390fd5b8060048190555050565b6000612155600e6000848152602001908152602001600020613456565b9050919050565b6007818154811061216c57600080fd5b90600052602060002090600702016000915090508060000160009054906101000a900473ffffffffffffffffffffffffffffffffffffffff16908060010180546121b590615926565b80601f01602080910402602001604051908101604052809291908181526020018280546121e190615926565b801561222e5780601f106122035761010080835404028352916020019161222e565b820191906000526020600020905b81548152906001019060200180831161221157829003601f168201915b50505050509080600201805461224390615926565b80601f016020809104026020016040519081016040528092919081815260200182805461226f90615926565b80156122bc5780601f10612291576101008083540402835291602001916122bc565b820191906000526020600020905b81548152906001019060200180831161229f57829003601f168201915b5050505050908060030180546122d190615926565b80601f01602080910402602001604051908101604052809291908181526020018280546122fd90615926565b801561234a5780601f1061231f5761010080835404028352916020019161234a565b820191906000526020600020905b81548152906001019060200180831161232d57829003601f168201915b5050505050908060040160009054906101000a900460ff16908060050154908060060154905087565b7f9f2df0fed2c77648de5860a4cc508cd0818c85b8b8a1ab4ceeef8d981c8956a681565b6123a1828261346b565b6123c681600e600085815260200190815260200160002061323190919063ffffffff16565b505050565b60076040518060e001604052808673ffffffffffffffffffffffffffffffffffffffff168152602001858152602001848152602001838152602001600015158152602001600081526020016000815250908060018154018082558091505060019003906000526020600020906007020160009091909190915060008201518160000160006101000a81548173ffffffffffffffffffffffffffffffffffffffff021916908373ffffffffffffffffffffffffffffffffffffffff16021790555060208201518160010190805190602001906124a79291906141cb565b5060408201518160020190805190602001906124c49291906141cb565b5060608201518160030190805190602001906124e19291906141cb565b5060808201518160040160006101000a81548160ff02191690831515021790555060a0820151816005015560c0820151816006015550506000600160078054905061252c91906157e4565b9050846008600083815260200190815260200160002060006101000a81548173ffffffffffffffffffffffffffffffffffffffff021916908373ffffffffffffffffffffffffffffffffffffffff160217905550600060096000838152602001908152602001600020819055507f3ef624c0f3fb7ad40b94c02078ea3e3a797dbfc21e921ee4bd2b8ad0ca6aa113818686868660008060006040516125d8989796959493929190615453565b60405180910390a15050505050565b6125ef613261565b73ffffffffffffffffffffffffffffffffffffffff1661260d611dfa565b73ffffffffffffffffffffffffffffffffffffffff1614612663576040517f08c379a000000000000000000000000000000000000000000000000000000000815260040161265a906153b8565b60405180910390fd5b8060018190555050565b826008600082815260200190815260200160002060009054906101000a900473ffffffffffffffffffffffffffffffffffffffff1673ffffffffffffffffffffffffffffffffffffffff163373ffffffffffffffffffffffffffffffffffffffff16146126d957600080fd5b8282600786815481106126ef576126ee615a8e565b5b9060005260206000209060070201600301919061270d929190614145565b5050505050565b7f65d7a28e3265b37a6474929f336521b332c1681b933f6cb9f3376673440d862a81565b6000600c60008473ffffffffffffffffffffffffffffffffffffffff1673ffffffffffffffffffffffffffffffffffffffff16815260200190815260200160002060008373ffffffffffffffffffffffffffffffffffffffff1673ffffffffffffffffffffffffffffffffffffffff16815260200190815260200160002060009054906101000a900460ff16905092915050565b6127d4613261565b73ffffffffffffffffffffffffffffffffffffffff166127f2611dfa565b73ffffffffffffffffffffffffffffffffffffffff1614612848576040517f08c379a000000000000000000000000000000000000000000000000000000000815260040161283f906153b8565b60405180910390fd5b8073ffffffffffffffffffffffffffffffffffffffff166108fc6003549081150290604051600060405180830381858888f19350505050158015612890573d6000803e3d6000fd5b50600060038190555050565b81600a600085815260200190815260200160002060008773ffffffffffffffffffffffffffffffffffffffff1673ffffffffffffffffffffffffffffffffffffffff16815260200190815260200160002060008282546128fc91906157e4565b9250508190555081600a600085815260200190815260200160002060008673ffffffffffffffffffffffffffffffffffffffff1673ffffffffffffffffffffffffffffffffffffffff16815260200190815260200160002060008282546129639190615703565b925050819055508373ffffffffffffffffffffffffffffffffffffffff168573ffffffffffffffffffffffffffffffffffffffff163373ffffffffffffffffffffffffffffffffffffffff167fc3d58168c5ae7397731d063d5bbf3d657854427343f4c083240f7aacaa2d0f6286866040516129e09291906155b2565b60405180910390a45050505050565b6129f7613261565b73ffffffffffffffffffffffffffffffffffffffff16612a15611dfa565b73ffffffffffffffffffffffffffffffffffffffff1614612a6b576040517f08c379a0000000000000000000000000000000000000000000000000000000008152600401612a62906153b8565b60405180910390fd5b600073ffffffffffffffffffffffffffffffffffffffff168173ffffffffffffffffffffffffffffffffffffffff161415612adb576040517f08c379a0000000000000000000000000000000000000000000000000000000008152600401612ad290615378565b60405180910390fd5b8073ffffffffffffffffffffffffffffffffffffffff1660008054906101000a900473ffffffffffffffffffffffffffffffffffffffff1673ffffffffffffffffffffffffffffffffffffffff167f8be0079c531659141344cd1fd0a4f28419497f9722a3daafe3b4186f6b6457e060405160405180910390a3806000806101000a81548173ffffffffffffffffffffffffffffffffffffffff021916908373ffffffffffffffffffffffffffffffffffffffff16021790555050565b80600a600084815260200190815260200160002060008573ffffffffffffffffffffffffffffffffffffffff1673ffffffffffffffffffffffffffffffffffffffff1681526020019081526020016000206000828254612bf891906157e4565b9250508190555080600b60008573ffffffffffffffffffffffffffffffffffffffff1673ffffffffffffffffffffffffffffffffffffffff16815260200190815260200160002060008481526020019081526020016000206000828254612c5f91906157e4565b925050819055508060078381548110612c7b57612c7a615a8e565b5b90600052602060002090600702016005016000828254612c9b91906157e4565b92505081905550600073ffffffffffffffffffffffffffffffffffffffff168373ffffffffffffffffffffffffffffffffffffffff163373ffffffffffffffffffffffffffffffffffffffff167fc3d58168c5ae7397731d063d5bbf3d657854427343f4c083240f7aacaa2d0f628585604051612d199291906155b2565b60405180910390a4505050565b612d2e613261565b73ffffffffffffffffffffffffffffffffffffffff16612d4c611dfa565b73ffffffffffffffffffffffffffffffffffffffff1614612da2576040517f08c379a0000000000000000000000000000000000000000000000000000000008152600401612d99906153b8565b60405180910390fd5b8060078381548110612db757612db6615a8e565b5b906000526020600020906007020160040160006101000a81548160ff0219169083151502179055505050565b600080612df08484611555565b91509150813414612e0057600080fd5b612e0981613150565b612e2433858560405180602001604052806000815250611bf1565b3373ffffffffffffffffffffffffffffffffffffffff167f1ebb537d8231cf8a6b1b0d1684d85dfd83872c030ffc75f500f0729eaf674d82848660078881548110612e7257612e71615a8e565b5b906000526020600020906007020160010160078981548110612e9757612e96615a8e565b5b9060005260206000209060070201600201604051612eb894939291906154e6565b60405180910390a260078481548110612ed457612ed3615a8e565b5b90600052602060002090600702016006015460078581548110612efa57612ef9615a8e565b5b9060005260206000209060070201600501541115612fb15760078481548110612f2657612f25615a8e565b5b90600052602060002090600702016005015460078581548110612f4c57612f4b615a8e565b5b906000526020600020906007020160060181905550612fb08460078681548110612f7957612f78615a8e565b5b906000526020600020906007020160000160009054906101000a900473ffffffffffffffffffffffffffffffffffffffff16613494565b5b50505050565b612fc182826135e9565b5050565b6000612fed836000018373ffffffffffffffffffffffffffffffffffffffff1660001b6136ca565b905092915050565b60007fd9b67a26000000000000000000000000000000000000000000000000000000007bffffffffffffffffffffffffffffffffffffffffffffffffffffffff1916827bffffffffffffffffffffffffffffffffffffffffffffffffffffffff191614806130c057507f0e89341c000000000000000000000000000000000000000000000000000000007bffffffffffffffffffffffffffffffffffffffffffffffffffffffff1916827bffffffffffffffffffffffffffffffffffffffffffffffffffffffff1916145b806130d057506130cf8261373a565b5b9050919050565b6000806000806130eb8a8a8a8a8a8a6137b4565b9250925092506000838b101561310e5761310784848d8561382f565b905061313f565b8382101561312c5761312584848d858d8d8d6138d2565b905061313e565b61313b84848d858d8d8d6139f4565b90505b5b809450505050509695505050505050565b80600260008282546131629190615703565b92505081905550806003600082825461317b9190615703565b9250508190555050565b61318e82610f7f565b61319f8161319a613261565b613af2565b6131a983836135e9565b505050565b6131b6613261565b73ffffffffffffffffffffffffffffffffffffffff168173ffffffffffffffffffffffffffffffffffffffff1614613223576040517f08c379a000000000000000000000000000000000000000000000000000000000815260040161321a90615418565b60405180910390fd5b61322d8282613b8f565b5050565b6000613259836000018373ffffffffffffffffffffffffffffffffffffffff1660001b613c71565b905092915050565b600033905090565b613271611856565b6132b0576040517f08c379a00000000000000000000000000000000000000000000000000000000081526004016132a790615358565b60405180910390fd5b6000601260006101000a81548160ff0219169083151502179055507f5db9ee0a495bf2e6ff9c91a7834c1ba4fdd244a5e8aa4e537bd38aeae4b073aa6132f4613261565b60405161330191906151c8565b60405180910390a1565b600080848661331a9190615703565b9050600083878661332b919061578a565b6133359190615759565b90506000848387613346919061578a565b6133509190615759565b90506000888461336091906157e4565b9050600060028284866133739190615703565b61337d919061578a565b6133879190615759565b90508095505050505050949350505050565b6133a1611856565b156133e1576040517f08c379a00000000000000000000000000000000000000000000000000000000081526004016133d890615398565b60405180910390fd5b6001601260006101000a81548160ff0219169083151502179055507f62e78cea01bee320cd4e420270b5ea74000d11b0c9f74754ebdbfc544b05a258613425613261565b60405161343291906151c8565b60405180910390a1565b600061344b8360000183613d7d565b60001c905092915050565b600061346482600001613df1565b9050919050565b61347482610f7f565b61348581613480613261565b613af2565b61348f8383613b8f565b505050565b6000600960008481526020019081526020016000205490506000613531600785815481106134c5576134c4615a8e565b5b906000526020600020906007020160060154600786815481106134eb576134ea615a8e565b5b9060005260206000209060070201600601546005546006546007898154811061351757613516615a8e565b5b9060005260206000209060070201600601546004546130d7565b61356760006007878154811061354a57613549615a8e565b5b90600052602060002090600702016006015460055460065461330b565b61357191906157e4565b90506000828261358191906157e4565b90508373ffffffffffffffffffffffffffffffffffffffff166108fc829081150290604051600060405180830381858888f193505050501580156135c9573d6000803e3d6000fd5b508160096000878152602001908152602001600020819055505050505050565b6135f38282611e52565b6136c6576001600d600084815260200190815260200160002060000160008373ffffffffffffffffffffffffffffffffffffffff1673ffffffffffffffffffffffffffffffffffffffff16815260200190815260200160002060006101000a81548160ff02191690831515021790555061366b613261565b73ffffffffffffffffffffffffffffffffffffffff168173ffffffffffffffffffffffffffffffffffffffff16837f2f8788117e7eff1d82e926ec794901d17c78024a50270940304540a733656f0d60405160405180910390a45b5050565b60006136d68383613e02565b61372f578260000182908060018154018082558091505060019003906000526020600020016000909190919091505582600001805490508360010160008481526020019081526020016000208190555060019050613734565b600090505b92915050565b60007f5a05180f000000000000000000000000000000000000000000000000000000007bffffffffffffffffffffffffffffffffffffffffffffffffffffffff1916827bffffffffffffffffffffffffffffffffffffffffffffffffffffffff191614806137ad57506137ac82613e25565b5b9050919050565b6000806000806002866137c79190615759565b90506000878960648860326137dc91906157e4565b8a6137e7919061578a565b6137f19190615759565b6137fb919061578a565b6138059190615759565b905060008a8c61381591906157e4565b905082828295509550955050505096509650969350505050565b600080828661383e91906157e4565b868661384a9190615759565b613854919061578a565b8561385f91906157e4565b90506000848761386f91906157e4565b878761387b9190615759565b613885919061578a565b8661389091906157e4565b9050600084866138a091906157e4565b905060028183856138b19190615703565b6138bb919061578a565b6138c59190615759565b9350505050949350505050565b60008085896138e191906157e4565b89896138ed9190615759565b6138f7919061578a565b8861390291906157e4565b905060008890506000878b61391791906157e4565b90506000600282848661392a9190615703565b613934919061578a565b61393e9190615759565b905060008b8d8c61394f91906157e4565b8e8961395b91906157e4565b8e8b8b8e613969919061578a565b6139739190615759565b61397d91906157e4565b6139879190615759565b613991919061578a565b61399b9190615703565b905060008d8c6139ab91906157e4565b9050600060028284886139be9190615703565b6139c8919061578a565b6139d29190615759565b905080846139e09190615703565b975050505050505050979650505050505050565b600080878987613a0491906157e4565b8a85613a1091906157e4565b8a87878a613a1e919061578a565b613a289190615759565b613a3291906157e4565b613a3c9190615759565b613a46919061578a565b613a509190615703565b90506000888a89613a6191906157e4565b8b86613a6d91906157e4565b8b88888b613a7b919061578a565b613a859190615759565b613a8f91906157e4565b613a999190615759565b613aa3919061578a565b613aad9190615703565b905060008789613abd91906157e4565b90506002818385613ace9190615703565b613ad8919061578a565b613ae29190615759565b9350505050979650505050505050565b613afc8282611e52565b613b8b57613b218173ffffffffffffffffffffffffffffffffffffffff166014613e9f565b613b2f8360001c6020613e9f565b604051602001613b4092919061518e565b6040516020818303038152906040526040517f08c379a0000000000000000000000000000000000000000000000000000000008152600401613b8291906152f6565b60405180910390fd5b5050565b613b998282611e52565b15613c6d576000600d600084815260200190815260200160002060000160008373ffffffffffffffffffffffffffffffffffffffff1673ffffffffffffffffffffffffffffffffffffffff16815260200190815260200160002060006101000a81548160ff021916908315150217905550613c12613261565b73ffffffffffffffffffffffffffffffffffffffff168173ffffffffffffffffffffffffffffffffffffffff16837ff6391f5c32d9c69d2a47ea670b442974b53935d1edc7fd64eb21e047a839171b60405160405180910390a45b5050565b60008083600101600084815260200190815260200160002054905060008114613d71576000600182613ca391906157e4565b9050600060018660000180549050613cbb91906157e4565b90506000866000018281548110613cd557613cd4615a8e565b5b9060005260206000200154905080876000018481548110613cf957613cf8615a8e565b5b9060005260206000200181905550838760010160008381526020019081526020016000208190555086600001805480613d3557613d34615a5f565b5b60019003818190600052602060002001600090559055866001016000878152602001908152602001600020600090556001945050505050613d77565b60009150505b92915050565b600081836000018054905011613dc8576040517f08c379a0000000000000000000000000000000000000000000000000000000008152600401613dbf90615318565b60405180910390fd5b826000018281548110613dde57613ddd615a8e565b5b9060005260206000200154905092915050565b600081600001805490509050919050565b600080836001016000848152602001908152602001600020541415905092915050565b60007f7965db0b000000000000000000000000000000000000000000000000000000007bffffffffffffffffffffffffffffffffffffffffffffffffffffffff1916827bffffffffffffffffffffffffffffffffffffffffffffffffffffffff19161480613e985750613e97826140db565b5b9050919050565b606060006002836002613eb2919061578a565b613ebc9190615703565b67ffffffffffffffff811115613ed557613ed4615abd565b5b6040519080825280601f01601f191660200182016040528015613f075781602001600182028036833780820191505090505b5090507f300000000000000000000000000000000000000000000000000000000000000081600081518110613f3f57613f3e615a8e565b5b60200101907effffffffffffffffffffffffffffffffffffffffffffffffffffffffffffff1916908160001a9053507f780000000000000000000000000000000000000000000000000000000000000081600181518110613fa357613fa2615a8e565b5b60200101907effffffffffffffffffffffffffffffffffffffffffffffffffffffffffffff1916908160001a90535060006001846002613fe3919061578a565b613fed9190615703565b90505b600181111561408d577f3031323334353637383961626364656600000000000000000000000000000000600f86166010811061402f5761402e615a8e565b5b1a60f81b82828151811061404657614045615a8e565b5b60200101907effffffffffffffffffffffffffffffffffffffffffffffffffffffffffffff1916908160001a905350600485901c945080614086906158fc565b9050613ff0565b50600084146140d1576040517f08c379a00000000000000000000000000000000000000000000000000000000081526004016140c890615338565b60405180910390fd5b8091505092915050565b60007f01ffc9a7000000000000000000000000000000000000000000000000000000007bffffffffffffffffffffffffffffffffffffffffffffffffffffffff1916827bffffffffffffffffffffffffffffffffffffffffffffffffffffffff1916149050919050565b82805461415190615926565b90600052602060002090601f01602090048101928261417357600085556141ba565b82601f1061418c57803560ff19168380011785556141ba565b828001600101855582156141ba579182015b828111156141b957823582559160200191906001019061419e565b5b5090506141c79190614251565b5090565b8280546141d790615926565b90600052602060002090601f0160209004810192826141f95760008555614240565b82601f1061421257805160ff1916838001178555614240565b82800160010185558215614240579182015b8281111561423f578251825591602001919060010190614224565b5b50905061424d9190614251565b5090565b5b8082111561426a576000816000905550600101614252565b5090565b600061428161427c84615600565b6155db565b905080838252602082019050828560208602820111156142a4576142a3615af6565b5b60005b858110156142d457816142ba8882614557565b8452602084019350602083019250506001810190506142a7565b5050509392505050565b60006142f16142ec8461562c565b6155db565b90508281526020810184848401111561430d5761430c615afb565b5b6143188482856158ba565b509392505050565b600061433361432e8461565d565b6155db565b90508281526020810184848401111561434f5761434e615afb565b5b61435a8482856158ba565b509392505050565b60008135905061437181615dee565b92915050565b60008135905061438681615e05565b92915050565b60008083601f8401126143a2576143a1615af1565b5b8235905067ffffffffffffffff8111156143bf576143be615aec565b5b6020830191508360208202830111156143db576143da615af6565b5b9250929050565b60008083601f8401126143f8576143f7615af1565b5b8235905067ffffffffffffffff81111561441557614414615aec565b5b60208301915083602082028301111561443157614430615af6565b5b9250929050565b600082601f83011261444d5761444c615af1565b5b813561445d84826020860161426e565b91505092915050565b60008135905061447581615e1c565b92915050565b60008135905061448a81615e33565b92915050565b60008135905061449f81615e4a565b92915050565b600082601f8301126144ba576144b9615af1565b5b81356144ca8482602086016142de565b91505092915050565b60008083601f8401126144e9576144e8615af1565b5b8235905067ffffffffffffffff81111561450657614505615aec565b5b60208301915083600182028301111561452257614521615af6565b5b9250929050565b600082601f83011261453e5761453d615af1565b5b813561454e848260208601614320565b91505092915050565b60008135905061456681615e61565b92915050565b60006020828403121561458257614581615b05565b5b600061459084828501614362565b91505092915050565b6000602082840312156145af576145ae615b05565b5b60006145bd84828501614377565b91505092915050565b600080600080608085870312156145e0576145df615b05565b5b60006145ee87828801614377565b945050602085013567ffffffffffffffff81111561460f5761460e615b00565b5b61461b87828801614529565b935050604085013567ffffffffffffffff81111561463c5761463b615b00565b5b61464887828801614529565b925050606085013567ffffffffffffffff81111561466957614668615b00565b5b61467587828801614529565b91505092959194509250565b6000806040838503121561469857614697615b05565b5b60006146a685828601614362565b92505060206146b785828601614362565b9150509250929050565b600080600080600060a086880312156146dd576146dc615b05565b5b60006146eb88828901614362565b95505060206146fc88828901614362565b945050604086013567ffffffffffffffff81111561471d5761471c615b00565b5b61472988828901614438565b935050606086013567ffffffffffffffff81111561474a57614749615b00565b5b61475688828901614438565b925050608086013567ffffffffffffffff81111561477757614776615b00565b5b614783888289016144a5565b9150509295509295909350565b600080600080600060a086880312156147ac576147ab615b05565b5b60006147ba88828901614362565b95505060206147cb88828901614362565b94505060406147dc88828901614557565b93505060606147ed88828901614557565b925050608086013567ffffffffffffffff81111561480e5761480d615b00565b5b61481a888289016144a5565b9150509295509295909350565b6000806000606084860312156148405761483f615b05565b5b600061484e86828701614362565b935050602084013567ffffffffffffffff81111561486f5761486e615b00565b5b61487b86828701614438565b925050604084013567ffffffffffffffff81111561489c5761489b615b00565b5b6148a886828701614438565b9150509250925092565b600080600080608085870312156148cc576148cb615b05565b5b60006148da87828801614362565b945050602085013567ffffffffffffffff8111156148fb576148fa615b00565b5b61490787828801614438565b935050604085013567ffffffffffffffff81111561492857614927615b00565b5b61493487828801614438565b925050606085013567ffffffffffffffff81111561495557614954615b00565b5b614961878288016144a5565b91505092959194509250565b6000806040838503121561498457614983615b05565b5b600061499285828601614362565b92505060206149a385828601614466565b9150509250929050565b600080604083850312156149c4576149c3615b05565b5b60006149d285828601614362565b92505060206149e385828601614557565b9150509250929050565b600080600060608486031215614a0657614a05615b05565b5b6000614a1486828701614362565b9350506020614a2586828701614557565b9250506040614a3686828701614557565b9150509250925092565b60008060008060808587031215614a5a57614a59615b05565b5b6000614a6887828801614362565b9450506020614a7987828801614557565b9350506040614a8a87828801614557565b925050606085013567ffffffffffffffff811115614aab57614aaa615b00565b5b614ab7878288016144a5565b91505092959194509250565b60008060008060408587031215614add57614adc615b05565b5b600085013567ffffffffffffffff811115614afb57614afa615b00565b5b614b078782880161438c565b9450945050602085013567ffffffffffffffff811115614b2a57614b29615b00565b5b614b36878288016143e2565b925092505092959194509250565b600060208284031215614b5a57614b59615b05565b5b6000614b688482850161447b565b91505092915050565b60008060408385031215614b8857614b87615b05565b5b6000614b968582860161447b565b9250506020614ba785828601614362565b9150509250929050565b60008060408385031215614bc857614bc7615b05565b5b6000614bd68582860161447b565b9250506020614be785828601614557565b9150509250929050565b600060208284031215614c0757614c06615b05565b5b6000614c1584828501614490565b91505092915050565b600060208284031215614c3457614c33615b05565b5b6000614c4284828501614557565b91505092915050565b60008060408385031215614c6257614c61615b05565b5b6000614c7085828601614557565b9250506020614c8185828601614362565b9150509250929050565b60008060408385031215614ca257614ca1615b05565b5b6000614cb085828601614557565b9250506020614cc185828601614377565b9150509250929050565b60008060408385031215614ce257614ce1615b05565b5b6000614cf085828601614557565b9250506020614d0185828601614466565b9150509250929050565b600080600060408486031215614d2457614d23615b05565b5b6000614d3286828701614557565b935050602084013567ffffffffffffffff811115614d5357614d52615b00565b5b614d5f868287016144d3565b92509250509250925092565b60008060408385031215614d8257614d81615b05565b5b6000614d9085828601614557565b9250506020614da185828601614557565b9150509250929050565b600080600060608486031215614dc457614dc3615b05565b5b6000614dd286828701614557565b9350506020614de386828701614557565b9250506040614df486828701614377565b9150509250925092565b6000614e0a8383615170565b60208301905092915050565b614e1f8161582a565b82525050565b614e2e81615818565b82525050565b6000614e3f826156b3565b614e4981856156d6565b9350614e548361568e565b8060005b83811015614e85578151614e6c8882614dfe565b9750614e77836156c9565b925050600181019050614e58565b5085935050505092915050565b614e9b8161583c565b82525050565b614eaa81615848565b82525050565b614eb9816158a8565b82525050565b6000614eca826156be565b614ed481856156e7565b9350614ee48185602086016158c9565b614eed81615b0a565b840191505092915050565b6000614f03826156be565b614f0d81856156f8565b9350614f1d8185602086016158c9565b80840191505092915050565b60008154614f3681615926565b614f4081866156e7565b94506001821660008114614f5b5760018114614f6d57614fa0565b60ff1983168652602086019350614fa0565b614f768561569e565b60005b83811015614f9857815481890152600182019150602081019050614f79565b808801955050505b50505092915050565b6000614fb66022836156e7565b9150614fc182615b1b565b604082019050919050565b6000614fd96020836156e7565b9150614fe482615b6a565b602082019050919050565b6000614ffc6014836156e7565b915061500782615b93565b602082019050919050565b600061501f6026836156e7565b915061502a82615bbc565b604082019050919050565b60006150426010836156e7565b915061504d82615c0b565b602082019050919050565b60006150656003836156e7565b915061507082615c34565b602082019050919050565b60006150886020836156e7565b915061509382615c5d565b602082019050919050565b60006150ab603b836156e7565b91506150b682615c86565b604082019050919050565b60006150ce6039836156e7565b91506150d982615cd5565b604082019050919050565b60006150f16017836156f8565b91506150fc82615d24565b601782019050919050565b60006151146004836156e7565b915061511f82615d4d565b602082019050919050565b60006151376011836156f8565b915061514282615d76565b601182019050919050565b600061515a602f836156e7565b915061516582615d9f565b604082019050919050565b6151798161589e565b82525050565b6151888161589e565b82525050565b6000615199826150e4565b91506151a58285614ef8565b91506151b08261512a565b91506151bc8284614ef8565b91508190509392505050565b60006020820190506151dd6000830184614e25565b92915050565b600060e0820190506151f8600083018a614e16565b818103602083015261520a8189614ebf565b9050818103604083015261521e8188614ebf565b905081810360608301526152328187614ebf565b90506152416080830186614e92565b61524e60a083018561517f565b61525b60c083018461517f565b98975050505050505050565b600060208201905081810360008301526152818184614e34565b905092915050565b600060408201905081810360008301526152a38185614e34565b905081810360208301526152b78184614e34565b90509392505050565b60006020820190506152d56000830184614e92565b92915050565b60006020820190506152f06000830184614ea1565b92915050565b600060208201905081810360008301526153108184614ebf565b905092915050565b6000602082019050818103600083015261533181614fa9565b9050919050565b6000602082019050818103600083015261535181614fcc565b9050919050565b6000602082019050818103600083015261537181614fef565b9050919050565b6000602082019050818103600083015261539181615012565b9050919050565b600060208201905081810360008301526153b181615035565b9050919050565b600060208201905081810360008301526153d18161507b565b9050919050565b600060208201905081810360008301526153f18161509e565b9050919050565b60006020820190508181036000830152615411816150c1565b9050919050565b600060208201905081810360008301526154318161514d565b9050919050565b600060208201905061544d600083018461517f565b92915050565b600061010082019050615469600083018b61517f565b615476602083018a614e16565b81810360408301526154888189614ebf565b9050818103606083015261549c8188614ebf565b905081810360808301526154b08187614ebf565b90506154bf60a0830186614e92565b6154cc60c0830185614eb0565b6154d960e0830184614eb0565b9998505050505050505050565b600060a0820190506154fb600083018761517f565b818103602083015261550c81615058565b905061551b604083018661517f565b818103606083015261552d8185614f29565b905081810360808301526155418184614f29565b905095945050505050565b600060a082019050615561600083018761517f565b818103602083015261557281615107565b9050615581604083018661517f565b81810360608301526155938185614f29565b905081810360808301526155a78184614f29565b905095945050505050565b60006040820190506155c7600083018561517f565b6155d4602083018461517f565b9392505050565b60006155e56155f6565b90506155f18282615958565b919050565b6000604051905090565b600067ffffffffffffffff82111561561b5761561a615abd565b5b602082029050602081019050919050565b600067ffffffffffffffff82111561564757615646615abd565b5b61565082615b0a565b9050602081019050919050565b600067ffffffffffffffff82111561567857615677615abd565b5b61568182615b0a565b9050602081019050919050565b6000819050602082019050919050565b60008190508160005260206000209050919050565b600081519050919050565b600081519050919050565b6000602082019050919050565b600082825260208201905092915050565b600082825260208201905092915050565b600081905092915050565b600061570e8261589e565b91506157198361589e565b9250827fffffffffffffffffffffffffffffffffffffffffffffffffffffffffffffffff0382111561574e5761574d6159d2565b5b828201905092915050565b60006157648261589e565b915061576f8361589e565b92508261577f5761577e615a01565b5b828204905092915050565b60006157958261589e565b91506157a08361589e565b9250817fffffffffffffffffffffffffffffffffffffffffffffffffffffffffffffffff04831182151516156157d9576157d86159d2565b5b828202905092915050565b60006157ef8261589e565b91506157fa8361589e565b92508282101561580d5761580c6159d2565b5b828203905092915050565b60006158238261587e565b9050919050565b60006158358261587e565b9050919050565b60008115159050919050565b6000819050919050565b60007fffffffff0000000000000000000000000000000000000000000000000000000082169050919050565b600073ffffffffffffffffffffffffffffffffffffffff82169050919050565b6000819050919050565b60006158b38261589e565b9050919050565b82818337600083830152505050565b60005b838110156158e75780820151818401526020810190506158cc565b838111156158f6576000848401525b50505050565b60006159078261589e565b9150600082141561591b5761591a6159d2565b5b600182039050919050565b6000600282049050600182168061593e57607f821691505b6020821081141561595257615951615a30565b5b50919050565b61596182615b0a565b810181811067ffffffffffffffff821117156159805761597f615abd565b5b80604052505050565b60006159948261589e565b91507fffffffffffffffffffffffffffffffffffffffffffffffffffffffffffffffff8214156159c7576159c66159d2565b5b600182019050919050565b7f4e487b7100000000000000000000000000000000000000000000000000000000600052601160045260246000fd5b7f4e487b7100000000000000000000000000000000000000000000000000000000600052601260045260246000fd5b7f4e487b7100000000000000000000000000000000000000000000000000000000600052602260045260246000fd5b7f4e487b7100000000000000000000000000000000000000000000000000000000600052603160045260246000fd5b7f4e487b7100000000000000000000000000000000000000000000000000000000600052603260045260246000fd5b7f4e487b7100000000000000000000000000000000000000000000000000000000600052604160045260246000fd5b600080fd5b600080fd5b600080fd5b600080fd5b600080fd5b600080fd5b6000601f19601f8301169050919050565b7f456e756d657261626c655365743a20696e646578206f7574206f6620626f756e60008201527f6473000000000000000000000000000000000000000000000000000000000000602082015250565b7f537472696e67733a20686578206c656e67746820696e73756666696369656e74600082015250565b7f5061757361626c653a206e6f7420706175736564000000000000000000000000600082015250565b7f4f776e61626c653a206e6577206f776e657220697320746865207a65726f206160008201527f6464726573730000000000000000000000000000000000000000000000000000602082015250565b7f5061757361626c653a2070617573656400000000000000000000000000000000600082015250565b7f6275790000000000000000000000000000000000000000000000000000000000600082015250565b7f4f776e61626c653a2063616c6c6572206973206e6f7420746865206f776e6572600082015250565b7f455243313135355072657365744d696e7465725061757365723a206d7573742060008201527f686176652070617573657220726f6c6520746f20756e70617573650000000000602082015250565b7f455243313135355072657365744d696e7465725061757365723a206d7573742060008201527f686176652070617573657220726f6c6520746f20706175736500000000000000602082015250565b7f416363657373436f6e74726f6c3a206163636f756e7420000000000000000000600082015250565b7f73656c6c00000000000000000000000000000000000000000000000000000000600082015250565b7f206973206d697373696e6720726f6c6520000000000000000000000000000000600082015250565b7f416363657373436f6e74726f6c3a2063616e206f6e6c792072656e6f756e636560008201527f20726f6c657320666f722073656c660000000000000000000000000000000000602082015250565b615df781615818565b8114615e0257600080fd5b50565b615e0e8161582a565b8114615e1957600080fd5b50565b615e258161583c565b8114615e3057600080fd5b50565b615e3c81615848565b8114615e4757600080fd5b50565b615e5381615852565b8114615e5e57600080fd5b50565b615e6a8161589e565b8114615e7557600080fd5b5056fea2646970667358221220a9c45c5d2293038aa4a18140785a1778726fa2822bdc901eea76dc59db1068d164736f6c63430008060033",
  "immutableReferences": {},
  "source": "// SPDX-License-Identifier: MIT\npragma solidity ^0.8.0;\n\nimport \"./creatortokenownership.sol\";\n\ncontract CreatorTokenExchange is CreatorTokenOwnership {\n\n\tconstructor(string memory uri) CreatorTokenOwnership(uri) { }\n\n\t// Event that fires when a new transaction occurs\n\tevent NewTransaction(address indexed account, uint amount, string transactionType, uint tokenId, string name, string symbol);\n\n\t// Allow user to buy a given CreatorToken from the platform\n\tfunction buyCreatorToken(uint _tokenId, uint _amount) external payable {\n\t\t// Calculate proceedsRequired (inclusive of fee) and fee in isolation\n\t\t(uint proceedsRequired, uint fee) = _buyProceeds(_tokenId, _amount);\n\t\t// Make sure that user sends proceedsRequired wei to cover the cost of _amount tokens, plus the platform fee\n\t\trequire(msg.value == proceedsRequired);//== 2000000000000000000);//\n\t\t// Update platform fee total\n\t\t_platformFeeUpdater(fee);\n\t\t// Mint _amount tokens at the user's address (note this increases token amount outstanding)\n\t\tmint(msg.sender, _tokenId, _amount, \"\");\n\t\t// Emit new transaction event\n\t\temit NewTransaction(msg.sender, _amount, \"buy\", _tokenId, creatorTokens[_tokenId].name, creatorTokens[_tokenId].symbol);\n\t\t// Check if new outstanding amount of token is greater than maxSupply\n\t\tif (creatorTokens[_tokenId].outstanding > creatorTokens[_tokenId].maxSupply) {\n\t\t\t// Update maxSupply\n\t\t\tcreatorTokens[_tokenId].maxSupply = creatorTokens[_tokenId].outstanding;\n\t\t\t// Call _payout to transfer excess liquidity\n\t\t\t_payCreator(_tokenId, creatorTokens[_tokenId].creatorAddress);\n\t\t}\n\t}\n\n\t// Calculate proceedsRequired to for a given buy transaction\n\tfunction _buyProceeds(uint _tokenId, uint _amount) public returns (uint256, uint256) {\n\t\t// Initialize proceeds required;\n\t\tuint proceedsRequired = 0;\n\t\t// Initialize pre-transaction supply\n\t\tuint startingSupply = creatorTokens[_tokenId].outstanding;\n\t\t// Compute post-transaction supply\n\t\tuint endSupply = startingSupply + _amount;\n\t\t// Compute buy proceeds\n\t\t// Check if endSupply <= maxSupply\n\t\tif (endSupply < creatorTokens[_tokenId].maxSupply) {\n\t\t\t// Scenario in which entire transaction takes place below maxSupply\n\t\t\t// Just call s(x)\n\t\t\tproceedsRequired = _saleFunction(startingSupply, _amount, mNumerator, mDenominator, creatorTokens[_tokenId].maxSupply, profitMargin);\n\t\t} else if (startingSupply < creatorTokens[_tokenId].maxSupply){\n\t\t\t// Scenario in which supply begins below maxSupply and ends above pre-transaction maxSupply\n\t\t\t// Use s(x) from startingSupply to maxSupply\n\t\t\tproceedsRequired = _saleFunction(creatorTokens[_tokenId].maxSupply, creatorTokens[_tokenId].maxSupply - startingSupply, mNumerator, mDenominator, creatorTokens[_tokenId].maxSupply, profitMargin);\n\t\t\t// Use b(x) from maxSupply to endSupply\n\t\t\tproceedsRequired += _buyFunction(creatorTokens[_tokenId].maxSupply, _amount - (creatorTokens[_tokenId].maxSupply - startingSupply), mNumerator, mDenominator);\n\t\t} else {\n\t\t\t// Scenario in which transaction begins at maxSupply\n\t\t\t// Just call b(x)\n\t\t\tproceedsRequired = _buyFunction(startingSupply, _amount, mNumerator, mDenominator);\n\t\t}\n\t\t// Compute fee\n\t\tuint fee = proceedsRequired*platformFee/100;\n\t\t// Add platform fee to obtain total transaction proceeds required\n\t\tproceedsRequired += fee;\n\t\t// Return total proceeds required\n\t\treturn (proceedsRequired, fee);\n\t}\n\t\n\t// Calculate area under buy price function\n\tfunction _buyFunction(uint _startingSupply, uint _amount, uint _mNumerator, uint _mDenominator) private pure returns (uint256) {\n\t\t// b(x) = m*x\n\t\tuint endSupply = _startingSupply + _amount;\n\t\tuint base1 = _mNumerator*_startingSupply/_mDenominator;\n\t\tuint base2 = _mNumerator*endSupply/_mDenominator;\n\t\tuint height = endSupply-_startingSupply;\n\t\tuint area = (base1 + base2) * height / 2;\n\t\treturn area;\n\t}\n\n\t// Allow user to sell a given CreatorToken back to the platform\n\tfunction sellCreatorToken(uint _tokenId, uint _amount, address payable _seller) external payable {\n\t\t// Require that user calling function is selling own tokens\n\t\trequire(_seller == msg.sender);\n\t\t// Initialize proceeds required\n\t\tuint proceedsRequired = 0;\n\t\t// Initialize pre-transaction supply\n\t\tuint startingSupply = creatorTokens[_tokenId].outstanding;\n\t\t// Compute sale proceeds required\n\t\tproceedsRequired = _saleFunction(startingSupply, _amount, mNumerator, mDenominator, creatorTokens[_tokenId].maxSupply, profitMargin);\n\t\t// Compute fee\n\t\tuint fee = proceedsRequired*platformFee/100;\n\t\t// Add platform fee to obtain real proceedsRequired value\n\t\tproceedsRequired -= fee;\n\t\t// Burn _amount tokens from user's address (note this decreases token amount outstanding)\n\t\tburn(_seller, _tokenId, _amount);\n\t\t// Send user proceedsRequired wei (less the platform fee) in exchange for the burned tokens\n\t\t_seller.transfer(proceedsRequired); //1500000000000000000); //\n\t\t// Update platform fee total\n\t\t_platformFeeUpdater(fee);\n\t\t// Emit new transaction event\n\t\temit NewTransaction(msg.sender, _amount, \"sell\", _tokenId, creatorTokens[_tokenId].name, creatorTokens[_tokenId].symbol);\n\t}\n\n\t// Calculate area under sale price function\n\tfunction _saleFunction(uint _startingSupply, uint _amount, uint _mNumerator, uint _mDenominator, uint _maxSupply, uint _profitMargin) private pure returns (uint256) {\n\t\t// Calculate breakpoint and endSupply\n\t\t(uint a, uint b, uint endSupply) = _breakpoint(_startingSupply, _amount, _mNumerator, _mDenominator, _maxSupply, _profitMargin);\n\t\t// Initialize area under curve\n\t\tuint area = 0;\n\t\t// Check where _startingSupply is relative to the breakpoint\n\t\tif (_startingSupply < a) {\n\t\t\t// Just need trapezoidal area of partial entirely left of the breakpoint\n\t\t\tarea = _leftArea(a, b, _startingSupply, endSupply);\n\t\t} else if (endSupply < a) {\n\t\t\t// Scenario in which _startingSupply >= a, and endSupply < a\n\t\t\t// There, need trapezoidal area of components both to right and left of breakpoint\n\t\t\tarea = _bothArea(a, b, _startingSupply, endSupply, _mNumerator, _mDenominator, _maxSupply);\n\t\t} else {\n\t\t\t// Scenario in which entire sale occurs to right of breakpoint\n\t\t\t// Just need trapezoidal area of partial entirely right of the breakpoint\n\t\t\tarea = _rightArea(a, b, _startingSupply, endSupply, _mNumerator, _mDenominator, _maxSupply);\n\t\t}\n\t\treturn area;\n\t}\n\n\t// Calculate breakpoint and other key inputs into _saleFunction\n\tfunction _breakpoint(uint _startingSupply, uint _amount, uint _mNumerator, uint _mDenominator, uint _maxSupply, uint _profitMargin) private pure returns (uint, uint, uint) {\n\t\t// Define breakpoint (a,b) chosen s.t. area under sale price function is (1-profitMargin) times area under buy price function\n\t\tuint a = _maxSupply/2;\n\t\tuint b = _maxSupply*(50-_profitMargin)/100*_mNumerator/_mDenominator;\n\t\tuint endSupply = _startingSupply - _amount;\n\t\treturn (a, b, endSupply);\n\t}\n\n\t// _saleFunction scenario in which entire transaction occurs left of breakpoint\n\tfunction _leftArea(uint _a, uint _b, uint _startingSupply, uint _endSupply) private pure returns (uint256) {\n\t\t\t//uint base1 = ((_b/_a)*(_a-_endSupply)+_b);\n\t\t\t//uint base1 = ((_b/_a)*(_endSupply-_a)+_b);\n\t\t\tuint base1 = (_b-(_b/_a)*(_a-_endSupply));\n\t\t\t//uint base2 = ((_b/_a)*(_a-_startingSupply)+_b);\n\t\t\t//uint base2 = ((_b/_a)*(_startingSupply-_a)+_b);\n\t\t\tuint base2 = (_b-(_b/_a)*(_a-_startingSupply));\n\t\t\tuint height = _startingSupply-_endSupply;\n\t\t\treturn (base1 + base2) * height / 2;\n\t}\n\n\t// _saleFunction scenario in which transaction crosses breakpoint\n\tfunction _bothArea(uint _a, uint _b, uint _startingSupply, uint _endSupply, uint _mNumerator, uint _mDenominator, uint _maxSupply) private pure returns (uint256) {\n\t\t//uint leftBase1 = ((_b/_a)*(_a-_endSupply)+_b);\n\t\t//uint leftBase1 = ((_b/_a)*(_endSupply-_a)+_b);\n\t\tuint leftBase1 = (_b-(_b/_a)*(_a-_endSupply));\n\t\tuint sharedBase = _b;\n\t\tuint leftHeight = _a-_endSupply;\n\t\tuint leftArea = (leftBase1 + sharedBase) * leftHeight / 2;\n\t\tuint rightBase2 = (_mNumerator*_maxSupply/_mDenominator-_b)/(_maxSupply-_a)*(_startingSupply-_a)+_b;\n\t\tuint rightHeight = _startingSupply-_a;\n\t\tuint rightArea = (sharedBase + rightBase2) * rightHeight / 2;\n\t\treturn leftArea + rightArea;\n\t}\n\n\t// _saleFunction scneario in which entire transaction occurs right of breakpoint\n\tfunction _rightArea(uint _a, uint _b, uint _startingSupply, uint _endSupply, uint _mNumerator, uint _mDenominator, uint _maxSupply) private pure returns (uint256) {\n\t\tuint base1 = (((_mNumerator*_maxSupply/_mDenominator-_b)/(_maxSupply-_a))*(_endSupply-_a)+_b);\n\t\tuint base2 = (((_mNumerator*_maxSupply/_mDenominator-_b)/(_maxSupply-_a))*(_startingSupply-_a)+_b);\n\t\tuint height = _startingSupply-_endSupply;\n\t\treturn (base1 + base2) * height / 2;\n\t}\n\n\t// Transfer excess liquidity (triggered only when a CreatorToken hits a new maxSupply)\n\tfunction _payCreator(uint _tokenId, address payable _creatorAddress) internal {\n\t\t// Create a variable showing excess liquidity that has already been transferred out of this token's liquidity pool\n\t\tuint alreadyTransferred = tokenValueTransferred[_tokenId];\n\t\t// Initialize totalProfit\n\t\tuint totalProfit = 0;\n\t\t// Calculate totalProfit (area between b(x) and s(x) from 0 to maxSupply)\n\t\ttotalProfit = _buyFunction(0, creatorTokens[_tokenId].maxSupply, mNumerator, mDenominator) - _saleFunction(creatorTokens[_tokenId].maxSupply, creatorTokens[_tokenId].maxSupply, mNumerator, mDenominator, creatorTokens[_tokenId].maxSupply, profitMargin);\n\t\t// Calculate creator's new profit created from new excess liquidity created\n\t\tuint newProfit = totalProfit - alreadyTransferred; //400000000000000000; // \n\t\t// Transfer newProfit wei to creator\n\t\t_creatorAddress.transfer(newProfit);\n\t\t// Update amount of value transferred to creator\n\t\ttokenValueTransferred[_tokenId] = totalProfit;\n\t}\n\n\t// Update platform fees tracker\n\tfunction _platformFeeUpdater(uint _fee) internal {\n\t\ttotalPlatformFees += _fee;\n\t\tplatformFeesOwed += _fee;\n\t}\n}\n",
  "sourcePath": "/Users/kamilalizaisadik/DeFi/Dynamic Automated Market Maker/damm_solidity/contracts/CreatorTokenExchange.sol",
  "compiler": {
    "name": "solc",
    "version": "0.8.6+commit.11564f7e.Emscripten.clang"
  },
  "schemaVersion": "3.4.1",
  "updatedAt": "2021-07-02T21:43:15.744Z",
  "devdoc": {
    "kind": "dev",
    "methods": {
      "getRoleAdmin(bytes32)": {
        "details": "Returns the admin role that controls `role`. See {grantRole} and {revokeRole}. To change a role's admin, use {_setRoleAdmin}."
      },
      "getRoleMember(bytes32,uint256)": {
        "details": "Returns one of the accounts that have `role`. `index` must be a value between 0 and {getRoleMemberCount}, non-inclusive. Role bearers are not sorted in any particular way, and their ordering may change at any point. WARNING: When using {getRoleMember} and {getRoleMemberCount}, make sure you perform all queries on the same block. See the following https://forum.openzeppelin.com/t/iterating-over-elements-on-enumerableset-in-openzeppelin-contracts/2296[forum post] for more information."
      },
      "getRoleMemberCount(bytes32)": {
        "details": "Returns the number of accounts that have `role`. Can be used together with {getRoleMember} to enumerate all bearers of a role."
      },
      "grantRole(bytes32,address)": {
        "details": "Overload {grantRole} to track enumerable memberships"
      },
      "hasRole(bytes32,address)": {
        "details": "Returns `true` if `account` has been granted `role`."
      },
      "owner()": {
        "details": "Returns the address of the current owner."
      },
      "pause()": {
        "details": "Pauses all token transfers. See {ERC1155Pausable} and {Pausable-_pause}. Requirements: - the caller must have the `PAUSER_ROLE`."
      },
      "paused()": {
        "details": "Returns true if the contract is paused, and false otherwise."
      },
      "renounceOwnership()": {
        "details": "Leaves the contract without owner. It will not be possible to call `onlyOwner` functions anymore. Can only be called by the current owner. NOTE: Renouncing ownership will leave the contract without an owner, thereby removing any functionality that is only available to the owner."
      },
      "renounceRole(bytes32,address)": {
        "details": "Overload {renounceRole} to track enumerable memberships"
      },
      "revokeRole(bytes32,address)": {
        "details": "Overload {revokeRole} to track enumerable memberships"
      },
      "supportsInterface(bytes4)": {
        "details": "See {IERC165-supportsInterface}."
      },
      "transferOwnership(address)": {
        "details": "Transfers ownership of the contract to a new account (`newOwner`). Can only be called by the current owner."
      },
      "unpause()": {
        "details": "Unpauses all token transfers. See {ERC1155Pausable} and {Pausable-_unpause}. Requirements: - the caller must have the `PAUSER_ROLE`."
      },
      "uri(uint256)": {
        "details": "See {IERC1155MetadataURI-uri}. This implementation returns the same URI for *all* token types. It relies on the token type ID substitution mechanism https://eips.ethereum.org/EIPS/eip-1155#metadata[defined in the EIP]. Clients calling this function must replace the `\\{id\\}` substring with the actual token type ID."
      }
    },
    "version": 1
  },
  "userdoc": {
    "kind": "user",
    "methods": {},
    "version": 1
  }
}