{
  "contractName": "CreatorTokenOwnership",
  "abi": [
    {
      "inputs": [
        {
          "internalType": "string",
          "name": "uri",
          "type": "string"
        }
      ],
      "stateMutability": "nonpayable",
      "type": "constructor"
    },
    {
      "anonymous": false,
      "inputs": [
        {
          "indexed": true,
          "internalType": "address",
          "name": "account",
          "type": "address"
        },
        {
          "indexed": true,
          "internalType": "address",
          "name": "operator",
          "type": "address"
        },
        {
          "indexed": false,
          "internalType": "bool",
          "name": "approved",
          "type": "bool"
        }
      ],
      "name": "ApprovalForAll",
      "type": "event"
    },
    {
      "anonymous": false,
      "inputs": [
        {
          "indexed": false,
          "internalType": "uint256",
          "name": "tokenId",
          "type": "uint256"
        },
        {
          "indexed": false,
          "internalType": "address payable",
          "name": "creatorAddress",
          "type": "address"
        },
        {
          "indexed": false,
          "internalType": "string",
          "name": "name",
          "type": "string"
        },
        {
          "indexed": false,
          "internalType": "string",
          "name": "symbol",
          "type": "string"
        },
        {
          "indexed": false,
          "internalType": "string",
          "name": "description",
          "type": "string"
        },
        {
          "indexed": false,
          "internalType": "bool",
          "name": "verified",
          "type": "bool"
        },
        {
          "indexed": false,
          "internalType": "uint256",
          "name": "outstanding",
          "type": "uint256"
        },
        {
          "indexed": false,
          "internalType": "uint256",
          "name": "maxSupply",
          "type": "uint256"
        }
      ],
      "name": "NewCreatorToken",
      "type": "event"
    },
    {
      "anonymous": false,
      "inputs": [
        {
          "indexed": true,
          "internalType": "address",
          "name": "previousOwner",
          "type": "address"
        },
        {
          "indexed": true,
          "internalType": "address",
          "name": "newOwner",
          "type": "address"
        }
      ],
      "name": "OwnershipTransferred",
      "type": "event"
    },
    {
      "anonymous": false,
      "inputs": [
        {
          "indexed": true,
          "internalType": "address",
          "name": "operator",
          "type": "address"
        },
        {
          "indexed": true,
          "internalType": "address",
          "name": "from",
          "type": "address"
        },
        {
          "indexed": true,
          "internalType": "address",
          "name": "to",
          "type": "address"
        },
        {
          "indexed": false,
          "internalType": "uint256[]",
          "name": "ids",
          "type": "uint256[]"
        },
        {
          "indexed": false,
          "internalType": "uint256[]",
          "name": "values",
          "type": "uint256[]"
        }
      ],
      "name": "TransferBatch",
      "type": "event"
    },
    {
      "anonymous": false,
      "inputs": [
        {
          "indexed": true,
          "internalType": "address",
          "name": "operator",
          "type": "address"
        },
        {
          "indexed": true,
          "internalType": "address",
          "name": "from",
          "type": "address"
        },
        {
          "indexed": true,
          "internalType": "address",
          "name": "to",
          "type": "address"
        },
        {
          "indexed": false,
          "internalType": "uint256",
          "name": "id",
          "type": "uint256"
        },
        {
          "indexed": false,
          "internalType": "uint256",
          "name": "value",
          "type": "uint256"
        }
      ],
      "name": "TransferSingle",
      "type": "event"
    },
    {
      "anonymous": false,
      "inputs": [
        {
          "indexed": false,
          "internalType": "string",
          "name": "value",
          "type": "string"
        },
        {
          "indexed": true,
          "internalType": "uint256",
          "name": "id",
          "type": "uint256"
        }
      ],
      "name": "URI",
      "type": "event"
    },
    {
      "inputs": [
        {
          "internalType": "address",
          "name": "account",
          "type": "address"
        },
        {
          "internalType": "uint256",
          "name": "id",
          "type": "uint256"
        }
      ],
      "name": "balanceOf",
      "outputs": [
        {
          "internalType": "uint256",
          "name": "",
          "type": "uint256"
        }
      ],
      "stateMutability": "view",
      "type": "function"
    },
    {
      "inputs": [
        {
          "internalType": "address[]",
          "name": "accounts",
          "type": "address[]"
        },
        {
          "internalType": "uint256[]",
          "name": "ids",
          "type": "uint256[]"
        }
      ],
      "name": "balanceOfBatch",
      "outputs": [
        {
          "internalType": "uint256[]",
          "name": "",
          "type": "uint256[]"
        }
      ],
      "stateMutability": "view",
      "type": "function"
    },
    {
      "inputs": [
        {
          "internalType": "uint256",
          "name": "_tokenId",
          "type": "uint256"
        },
        {
          "internalType": "address payable",
          "name": "_newCreatorAddress",
          "type": "address"
        }
      ],
      "name": "changeAddress",
      "outputs": [],
      "stateMutability": "nonpayable",
      "type": "function"
    },
    {
      "inputs": [
        {
          "internalType": "uint256",
          "name": "_tokenId",
          "type": "uint256"
        },
        {
          "internalType": "string",
          "name": "_newDescription",
          "type": "string"
        }
      ],
      "name": "changeDescription",
      "outputs": [],
      "stateMutability": "nonpayable",
      "type": "function"
    },
    {
      "inputs": [
        {
          "internalType": "uint256",
          "name": "_tokenId",
          "type": "uint256"
        },
        {
          "internalType": "string",
          "name": "_newName",
          "type": "string"
        }
      ],
      "name": "changeName",
      "outputs": [],
      "stateMutability": "nonpayable",
      "type": "function"
    },
    {
      "inputs": [
        {
          "internalType": "uint256",
          "name": "_newPlatformFee",
          "type": "uint256"
        }
      ],
      "name": "changePlatformFee",
      "outputs": [],
      "stateMutability": "nonpayable",
      "type": "function"
    },
    {
      "inputs": [
        {
          "internalType": "uint256",
          "name": "_newProfitMargin",
          "type": "uint256"
        }
      ],
      "name": "changeProfitMargin",
      "outputs": [],
      "stateMutability": "nonpayable",
      "type": "function"
    },
    {
      "inputs": [
        {
          "internalType": "uint256",
          "name": "_tokenId",
          "type": "uint256"
        },
        {
          "internalType": "string",
          "name": "_newSymbol",
          "type": "string"
        }
      ],
      "name": "changeSymbol",
      "outputs": [],
      "stateMutability": "nonpayable",
      "type": "function"
    },
    {
      "inputs": [
        {
          "internalType": "uint256",
          "name": "_tokenId",
          "type": "uint256"
        },
        {
          "internalType": "bool",
          "name": "_verified",
          "type": "bool"
        }
      ],
      "name": "changeVerification",
      "outputs": [],
      "stateMutability": "nonpayable",
      "type": "function"
    },
    {
      "inputs": [
        {
          "internalType": "address payable",
          "name": "_creatorAddress",
          "type": "address"
        },
        {
          "internalType": "string",
          "name": "_name",
          "type": "string"
        },
        {
          "internalType": "string",
          "name": "_symbol",
          "type": "string"
        },
        {
          "internalType": "string",
          "name": "_description",
          "type": "string"
        }
      ],
      "name": "createCreatorToken",
      "outputs": [],
      "stateMutability": "nonpayable",
      "type": "function"
    },
    {
      "inputs": [
        {
          "internalType": "uint256",
          "name": "",
          "type": "uint256"
        }
      ],
      "name": "creatorTokens",
      "outputs": [
        {
          "internalType": "address payable",
          "name": "creatorAddress",
          "type": "address"
        },
        {
          "internalType": "string",
          "name": "name",
          "type": "string"
        },
        {
          "internalType": "string",
          "name": "symbol",
          "type": "string"
        },
        {
          "internalType": "string",
          "name": "description",
          "type": "string"
        },
        {
          "internalType": "bool",
          "name": "verified",
          "type": "bool"
        },
        {
          "internalType": "uint256",
          "name": "outstanding",
          "type": "uint256"
        },
        {
          "internalType": "uint256",
          "name": "maxSupply",
          "type": "uint256"
        }
      ],
      "stateMutability": "view",
      "type": "function"
    },
    {
      "inputs": [],
      "name": "owner",
      "outputs": [
        {
          "internalType": "address",
          "name": "",
          "type": "address"
        }
      ],
      "stateMutability": "view",
      "type": "function"
    },
    {
      "inputs": [
        {
          "internalType": "address payable",
          "name": "_owner",
          "type": "address"
        }
      ],
      "name": "payoutPlatformFees",
      "outputs": [],
      "stateMutability": "nonpayable",
      "type": "function"
    },
    {
      "inputs": [],
      "name": "renounceOwnership",
      "outputs": [],
      "stateMutability": "nonpayable",
      "type": "function"
    },
    {
      "inputs": [
        {
          "internalType": "bytes4",
          "name": "interfaceId",
          "type": "bytes4"
        }
      ],
      "name": "supportsInterface",
      "outputs": [
        {
          "internalType": "bool",
          "name": "",
          "type": "bool"
        }
      ],
      "stateMutability": "view",
      "type": "function"
    },
    {
      "inputs": [
        {
          "internalType": "uint256",
          "name": "",
          "type": "uint256"
        },
        {
          "internalType": "address",
          "name": "",
          "type": "address"
        }
      ],
      "name": "tokenHoldership",
      "outputs": [
        {
          "internalType": "uint256",
          "name": "",
          "type": "uint256"
        }
      ],
      "stateMutability": "view",
      "type": "function"
    },
    {
      "inputs": [
        {
          "internalType": "uint256",
          "name": "",
          "type": "uint256"
        }
      ],
      "name": "tokenToCreator",
      "outputs": [
        {
          "internalType": "address",
          "name": "",
          "type": "address"
        }
      ],
      "stateMutability": "view",
      "type": "function"
    },
    {
      "inputs": [
        {
          "internalType": "address",
          "name": "newOwner",
          "type": "address"
        }
      ],
      "name": "transferOwnership",
      "outputs": [],
      "stateMutability": "nonpayable",
      "type": "function"
    },
    {
      "inputs": [
        {
          "internalType": "uint256",
          "name": "",
          "type": "uint256"
        }
      ],
      "name": "uri",
      "outputs": [
        {
          "internalType": "string",
          "name": "",
          "type": "string"
        }
      ],
      "stateMutability": "view",
      "type": "function"
    },
    {
      "inputs": [
        {
          "internalType": "address",
          "name": "",
          "type": "address"
        },
        {
          "internalType": "uint256",
          "name": "",
          "type": "uint256"
        }
      ],
      "name": "userToHoldings",
      "outputs": [
        {
          "internalType": "uint256",
          "name": "",
          "type": "uint256"
        }
      ],
      "stateMutability": "view",
      "type": "function"
    },
    {
      "inputs": [
        {
          "internalType": "address payable",
          "name": "_owner",
          "type": "address"
        }
      ],
      "name": "withdraw",
      "outputs": [],
      "stateMutability": "nonpayable",
      "type": "function"
    },
    {
      "inputs": [
        {
          "internalType": "address",
          "name": "_from",
          "type": "address"
        },
        {
          "internalType": "address",
          "name": "_to",
          "type": "address"
        },
        {
          "internalType": "uint256",
          "name": "_id",
          "type": "uint256"
        },
        {
          "internalType": "uint256",
          "name": "_amount",
          "type": "uint256"
        },
        {
          "internalType": "bytes",
          "name": "_data",
          "type": "bytes"
        }
      ],
      "name": "safeTransferFrom",
      "outputs": [],
      "stateMutability": "nonpayable",
      "type": "function"
    },
    {
      "inputs": [
        {
          "internalType": "address",
          "name": "_from",
          "type": "address"
        },
        {
          "internalType": "address",
          "name": "_to",
          "type": "address"
        },
        {
          "internalType": "uint256[]",
          "name": "_ids",
          "type": "uint256[]"
        },
        {
          "internalType": "uint256[]",
          "name": "_amounts",
          "type": "uint256[]"
        },
        {
          "internalType": "bytes",
          "name": "data",
          "type": "bytes"
        }
      ],
      "name": "safeBatchTransferFrom",
      "outputs": [],
      "stateMutability": "nonpayable",
      "type": "function"
    },
    {
      "inputs": [
        {
          "internalType": "address",
          "name": "_operator",
          "type": "address"
        },
        {
          "internalType": "bool",
          "name": "_approved",
          "type": "bool"
        }
      ],
      "name": "setApprovalForAll",
      "outputs": [],
      "stateMutability": "nonpayable",
      "type": "function"
    },
    {
      "inputs": [
        {
          "internalType": "address",
          "name": "_account",
          "type": "address"
        },
        {
          "internalType": "address",
          "name": "_operator",
          "type": "address"
        }
      ],
      "name": "isApprovedForAll",
      "outputs": [
        {
          "internalType": "bool",
          "name": "",
          "type": "bool"
        }
      ],
      "stateMutability": "view",
      "type": "function"
    }
  ],
  "bytecode": "0x60806040526001805560006002556000600355601460045565082f79cd900060055560b96006553480156200003357600080fd5b50604051620033ae380380620033ae833981810160405281019062000059919062000275565b8060006200006c6200012360201b60201c565b9050806000806101000a81548173ffffffffffffffffffffffffffffffffffffffff021916908373ffffffffffffffffffffffffffffffffffffffff1602179055508073ffffffffffffffffffffffffffffffffffffffff16600073ffffffffffffffffffffffffffffffffffffffff167f8be0079c531659141344cd1fd0a4f28419497f9722a3daafe3b4186f6b6457e060405160405180910390a3506200011b816200012b60201b60201c565b50506200044a565b600033905090565b80600f90805190602001906200014392919062000147565b5050565b82805462000155906200035b565b90600052602060002090601f016020900481019282620001795760008555620001c5565b82601f106200019457805160ff1916838001178555620001c5565b82800160010185558215620001c5579182015b82811115620001c4578251825591602001919060010190620001a7565b5b509050620001d49190620001d8565b5090565b5b80821115620001f3576000816000905550600101620001d9565b5090565b60006200020e6200020884620002ef565b620002c6565b9050828152602081018484840111156200022d576200022c6200042a565b5b6200023a84828562000325565b509392505050565b600082601f8301126200025a576200025962000425565b5b81516200026c848260208601620001f7565b91505092915050565b6000602082840312156200028e576200028d62000434565b5b600082015167ffffffffffffffff811115620002af57620002ae6200042f565b5b620002bd8482850162000242565b91505092915050565b6000620002d2620002e5565b9050620002e0828262000391565b919050565b6000604051905090565b600067ffffffffffffffff8211156200030d576200030c620003f6565b5b620003188262000439565b9050602081019050919050565b60005b838110156200034557808201518184015260208101905062000328565b8381111562000355576000848401525b50505050565b600060028204905060018216806200037457607f821691505b602082108114156200038b576200038a620003c7565b5b50919050565b6200039c8262000439565b810181811067ffffffffffffffff82111715620003be57620003bd620003f6565b5b80604052505050565b7f4e487b7100000000000000000000000000000000000000000000000000000000600052602260045260246000fd5b7f4e487b7100000000000000000000000000000000000000000000000000000000600052604160045260246000fd5b600080fd5b600080fd5b600080fd5b600080fd5b6000601f19601f8301169050919050565b612f54806200045a6000396000f3fe608060405234801561001057600080fd5b50600436106101725760003560e01c8063a22cb465116100de578063d7a5791a11610097578063eb84175911610071578063eb8417591461046d578063f242432a14610489578063f2fde38b146104a5578063f7374e2e146104c157610172565b8063d7a5791a14610405578063de6a06ed14610421578063e985e9c51461043d57610172565b8063a22cb4651461032f578063bfb48c9c1461034b578063c39cbef11461037b578063c539c31714610397578063ce901d8a146103b3578063d56b72c7146103e957610172565b80632eb2c2d6116101305780632eb2c2d61461026f5780634e1273f41461028b57806351cff8d9146102bb578063715018a6146102d75780638da5cb5b146102e157806392724afa146102ff57610172565b8062fdd58e1461017757806301ffc9a7146101a757806306e320f5146101d75780630e89341c146101f357806318892ae8146102235780631d5ad18b14610253575b600080fd5b610191600480360381019061018c9190612313565b6104dd565b60405161019e919061288f565b60405180910390f35b6101c160048036038101906101bc91906123cb565b6105a7565b6040516101ce91906127d2565b60405180910390f35b6101f160048036038101906101ec91906124e5565b610689565b005b61020d600480360381019061020891906123f8565b610730565b60405161021a91906127ed565b60405180910390f35b61023d600480360381019061023891906123f8565b6107c4565b60405161024a91906126da565b60405180910390f35b61026d60048036038101906102689190612465565b6107f7565b005b6102896004803603810190610284919061216d565b6108cc565b005b6102a560048036038101906102a09190612353565b610a38565b6040516102b29190612779565b60405180910390f35b6102d560048036038101906102d09190612045565b610b51565b005b6102df610c17565b005b6102e9610d51565b6040516102f691906126da565b60405180910390f35b61031960048036038101906103149190612313565b610d7a565b604051610326919061288f565b60405180910390f35b610349600480360381019061034491906122d3565b610d9f565b005b61036560048036038101906103609190612425565b610e9c565b604051610372919061288f565b60405180910390f35b610395600480360381019061039091906124e5565b610ec1565b005b6103b160048036038101906103ac91906123f8565b610f68565b005b6103cd60048036038101906103c891906123f8565b610fee565b6040516103e097969594939291906126f5565b60405180910390f35b61040360048036038101906103fe9190612072565b611205565b005b61041f600480360381019061041a91906123f8565b611421565b005b61043b600480360381019061043691906124e5565b6114a7565b005b6104576004803603810190610452919061212d565b61154e565b60405161046491906127d2565b60405180910390f35b61048760048036038101906104829190612045565b6115e2565b005b6104a3600480360381019061049e919061223c565b6116b2565b005b6104bf60048036038101906104ba9190612018565b611796565b005b6104db60048036038101906104d691906124a5565b61193f565b005b60008073ffffffffffffffffffffffffffffffffffffffff168373ffffffffffffffffffffffffffffffffffffffff16141561054e576040517f08c379a00000000000000000000000000000000000000000000000000000000081526004016105459061280f565b60405180910390fd5b600d600083815260200190815260200160002060008473ffffffffffffffffffffffffffffffffffffffff1673ffffffffffffffffffffffffffffffffffffffff16815260200190815260200160002054905092915050565b60007fd9b67a26000000000000000000000000000000000000000000000000000000007bffffffffffffffffffffffffffffffffffffffffffffffffffffffff1916827bffffffffffffffffffffffffffffffffffffffffffffffffffffffff1916148061067257507f0e89341c000000000000000000000000000000000000000000000000000000007bffffffffffffffffffffffffffffffffffffffffffffffffffffffff1916827bffffffffffffffffffffffffffffffffffffffffffffffffffffffff1916145b806106825750610681826119fc565b5b9050919050565b826008600082815260200190815260200160002060009054906101000a900473ffffffffffffffffffffffffffffffffffffffff1673ffffffffffffffffffffffffffffffffffffffff163373ffffffffffffffffffffffffffffffffffffffff16146106f557600080fd5b82826007868154811061070b5761070a612d08565b5b90600052602060002090600702016002019190610729929190611c14565b5050505050565b6060600f805461073f90612bfe565b80601f016020809104026020016040519081016040528092919081815260200182805461076b90612bfe565b80156107b85780601f1061078d576101008083540402835291602001916107b8565b820191906000526020600020905b81548152906001019060200180831161079b57829003601f168201915b50505050509050919050565b60086020528060005260406000206000915054906101000a900473ffffffffffffffffffffffffffffffffffffffff1681565b816008600082815260200190815260200160002060009054906101000a900473ffffffffffffffffffffffffffffffffffffffff1673ffffffffffffffffffffffffffffffffffffffff163373ffffffffffffffffffffffffffffffffffffffff161461086357600080fd5b816007848154811061087857610877612d08565b5b906000526020600020906007020160000160006101000a81548173ffffffffffffffffffffffffffffffffffffffff021916908373ffffffffffffffffffffffffffffffffffffffff160217905550505050565b60005b83518110156109b2578573ffffffffffffffffffffffffffffffffffffffff163373ffffffffffffffffffffffffffffffffffffffff1614806109185750610917868661154e565b5b61092157600080fd5b6109608685838151811061093857610937612d08565b5b602002602001015185848151811061095357610952612d08565b5b6020026020010151611a66565b61099f8585838151811061097757610976612d08565b5b602002602001015185848151811061099257610991612d08565b5b6020026020010151611b39565b80806109aa90612c61565b9150506108cf565b508373ffffffffffffffffffffffffffffffffffffffff168573ffffffffffffffffffffffffffffffffffffffff163373ffffffffffffffffffffffffffffffffffffffff167f4a39dc06d4c0dbc64b70af90fd698a233a518aa5d07e595d983b8c0526c8f7fb8686604051610a2992919061279b565b60405180910390a45050505050565b60608151835114610a7e576040517f08c379a0000000000000000000000000000000000000000000000000000000008152600401610a759061286f565b60405180910390fd5b6000835167ffffffffffffffff811115610a9b57610a9a612d37565b5b604051908082528060200260200182016040528015610ac95781602001602082028036833780820191505090505b50905060005b8451811015610b4657610b16858281518110610aee57610aed612d08565b5b6020026020010151858381518110610b0957610b08612d08565b5b60200260200101516104dd565b828281518110610b2957610b28612d08565b5b60200260200101818152505080610b3f90612c61565b9050610acf565b508091505092915050565b610b59611c0c565b73ffffffffffffffffffffffffffffffffffffffff16610b77610d51565b73ffffffffffffffffffffffffffffffffffffffff1614610bcd576040517f08c379a0000000000000000000000000000000000000000000000000000000008152600401610bc49061284f565b60405180910390fd5b8073ffffffffffffffffffffffffffffffffffffffff166108fc479081150290604051600060405180830381858888f19350505050158015610c13573d6000803e3d6000fd5b5050565b610c1f611c0c565b73ffffffffffffffffffffffffffffffffffffffff16610c3d610d51565b73ffffffffffffffffffffffffffffffffffffffff1614610c93576040517f08c379a0000000000000000000000000000000000000000000000000000000008152600401610c8a9061284f565b60405180910390fd5b600073ffffffffffffffffffffffffffffffffffffffff1660008054906101000a900473ffffffffffffffffffffffffffffffffffffffff1673ffffffffffffffffffffffffffffffffffffffff167f8be0079c531659141344cd1fd0a4f28419497f9722a3daafe3b4186f6b6457e060405160405180910390a360008060006101000a81548173ffffffffffffffffffffffffffffffffffffffff021916908373ffffffffffffffffffffffffffffffffffffffff160217905550565b60008060009054906101000a900473ffffffffffffffffffffffffffffffffffffffff16905090565b600b602052816000526040600020602052806000526040600020600091509150505481565b80600c60003373ffffffffffffffffffffffffffffffffffffffff1673ffffffffffffffffffffffffffffffffffffffff16815260200190815260200160002060008473ffffffffffffffffffffffffffffffffffffffff1673ffffffffffffffffffffffffffffffffffffffff16815260200190815260200160002060006101000a81548160ff0219169083151502179055508173ffffffffffffffffffffffffffffffffffffffff163373ffffffffffffffffffffffffffffffffffffffff167f17307eab39ab6107e8899845ad3d59bd9653f200f220920489ca2b5937696c3183604051610e9091906127d2565b60405180910390a35050565b600a602052816000526040600020602052806000526040600020600091509150505481565b826008600082815260200190815260200160002060009054906101000a900473ffffffffffffffffffffffffffffffffffffffff1673ffffffffffffffffffffffffffffffffffffffff163373ffffffffffffffffffffffffffffffffffffffff1614610f2d57600080fd5b828260078681548110610f4357610f42612d08565b5b90600052602060002090600702016001019190610f61929190611c14565b5050505050565b610f70611c0c565b73ffffffffffffffffffffffffffffffffffffffff16610f8e610d51565b73ffffffffffffffffffffffffffffffffffffffff1614610fe4576040517f08c379a0000000000000000000000000000000000000000000000000000000008152600401610fdb9061284f565b60405180910390fd5b8060048190555050565b60078181548110610ffe57600080fd5b90600052602060002090600702016000915090508060000160009054906101000a900473ffffffffffffffffffffffffffffffffffffffff169080600101805461104790612bfe565b80601f016020809104026020016040519081016040528092919081815260200182805461107390612bfe565b80156110c05780601f10611095576101008083540402835291602001916110c0565b820191906000526020600020905b8154815290600101906020018083116110a357829003601f168201915b5050505050908060020180546110d590612bfe565b80601f016020809104026020016040519081016040528092919081815260200182805461110190612bfe565b801561114e5780601f106111235761010080835404028352916020019161114e565b820191906000526020600020905b81548152906001019060200180831161113157829003601f168201915b50505050509080600301805461116390612bfe565b80601f016020809104026020016040519081016040528092919081815260200182805461118f90612bfe565b80156111dc5780601f106111b1576101008083540402835291602001916111dc565b820191906000526020600020905b8154815290600101906020018083116111bf57829003601f168201915b5050505050908060040160009054906101000a900460ff16908060050154908060060154905087565b60076040518060e001604052808673ffffffffffffffffffffffffffffffffffffffff168152602001858152602001848152602001838152602001600015158152602001600081526020016000815250908060018154018082558091505060019003906000526020600020906007020160009091909190915060008201518160000160006101000a81548173ffffffffffffffffffffffffffffffffffffffff021916908373ffffffffffffffffffffffffffffffffffffffff16021790555060208201518160010190805190602001906112e1929190611c9a565b5060408201518160020190805190602001906112fe929190611c9a565b50606082015181600301908051906020019061131b929190611c9a565b5060808201518160040160006101000a81548160ff02191690831515021790555060a0820151816005015560c082015181600601555050600060016007805490506113669190612af0565b9050846008600083815260200190815260200160002060006101000a81548173ffffffffffffffffffffffffffffffffffffffff021916908373ffffffffffffffffffffffffffffffffffffffff160217905550600060096000838152602001908152602001600020819055507f3ef624c0f3fb7ad40b94c02078ea3e3a797dbfc21e921ee4bd2b8ad0ca6aa113818686868660008060006040516114129897969594939291906128aa565b60405180910390a15050505050565b611429611c0c565b73ffffffffffffffffffffffffffffffffffffffff16611447610d51565b73ffffffffffffffffffffffffffffffffffffffff161461149d576040517f08c379a00000000000000000000000000000000000000000000000000000000081526004016114949061284f565b60405180910390fd5b8060018190555050565b826008600082815260200190815260200160002060009054906101000a900473ffffffffffffffffffffffffffffffffffffffff1673ffffffffffffffffffffffffffffffffffffffff163373ffffffffffffffffffffffffffffffffffffffff161461151357600080fd5b82826007868154811061152957611528612d08565b5b90600052602060002090600702016003019190611547929190611c14565b5050505050565b6000600c60008473ffffffffffffffffffffffffffffffffffffffff1673ffffffffffffffffffffffffffffffffffffffff16815260200190815260200160002060008373ffffffffffffffffffffffffffffffffffffffff1673ffffffffffffffffffffffffffffffffffffffff16815260200190815260200160002060009054906101000a900460ff16905092915050565b6115ea611c0c565b73ffffffffffffffffffffffffffffffffffffffff16611608610d51565b73ffffffffffffffffffffffffffffffffffffffff161461165e576040517f08c379a00000000000000000000000000000000000000000000000000000000081526004016116559061284f565b60405180910390fd5b8073ffffffffffffffffffffffffffffffffffffffff166108fc6003549081150290604051600060405180830381858888f193505050501580156116a6573d6000803e3d6000fd5b50600060038190555050565b8473ffffffffffffffffffffffffffffffffffffffff163373ffffffffffffffffffffffffffffffffffffffff1614806116f257506116f1858561154e565b5b6116fb57600080fd5b611706858484611a66565b611711848484611b39565b8373ffffffffffffffffffffffffffffffffffffffff168573ffffffffffffffffffffffffffffffffffffffff163373ffffffffffffffffffffffffffffffffffffffff167fc3d58168c5ae7397731d063d5bbf3d657854427343f4c083240f7aacaa2d0f62868660405161178792919061293d565b60405180910390a45050505050565b61179e611c0c565b73ffffffffffffffffffffffffffffffffffffffff166117bc610d51565b73ffffffffffffffffffffffffffffffffffffffff1614611812576040517f08c379a00000000000000000000000000000000000000000000000000000000081526004016118099061284f565b60405180910390fd5b600073ffffffffffffffffffffffffffffffffffffffff168173ffffffffffffffffffffffffffffffffffffffff161415611882576040517f08c379a00000000000000000000000000000000000000000000000000000000081526004016118799061282f565b60405180910390fd5b8073ffffffffffffffffffffffffffffffffffffffff1660008054906101000a900473ffffffffffffffffffffffffffffffffffffffff1673ffffffffffffffffffffffffffffffffffffffff167f8be0079c531659141344cd1fd0a4f28419497f9722a3daafe3b4186f6b6457e060405160405180910390a3806000806101000a81548173ffffffffffffffffffffffffffffffffffffffff021916908373ffffffffffffffffffffffffffffffffffffffff16021790555050565b611947611c0c565b73ffffffffffffffffffffffffffffffffffffffff16611965610d51565b73ffffffffffffffffffffffffffffffffffffffff16146119bb576040517f08c379a00000000000000000000000000000000000000000000000000000000081526004016119b29061284f565b60405180910390fd5b80600783815481106119d0576119cf612d08565b5b906000526020600020906007020160040160006101000a81548160ff0219169083151502179055505050565b60007f01ffc9a7000000000000000000000000000000000000000000000000000000007bffffffffffffffffffffffffffffffffffffffffffffffffffffffff1916827bffffffffffffffffffffffffffffffffffffffffffffffffffffffff1916149050919050565b80600a600084815260200190815260200160002060008573ffffffffffffffffffffffffffffffffffffffff1673ffffffffffffffffffffffffffffffffffffffff1681526020019081526020016000206000828254611ac69190612af0565b9250508190555080600b60008573ffffffffffffffffffffffffffffffffffffffff1673ffffffffffffffffffffffffffffffffffffffff16815260200190815260200160002060008481526020019081526020016000206000828254611b2d9190612af0565b92505081905550505050565b80600a600084815260200190815260200160002060008573ffffffffffffffffffffffffffffffffffffffff1673ffffffffffffffffffffffffffffffffffffffff1681526020019081526020016000206000828254611b999190612a9a565b9250508190555080600b60008573ffffffffffffffffffffffffffffffffffffffff1673ffffffffffffffffffffffffffffffffffffffff16815260200190815260200160002060008481526020019081526020016000206000828254611c009190612a9a565b92505081905550505050565b600033905090565b828054611c2090612bfe565b90600052602060002090601f016020900481019282611c425760008555611c89565b82601f10611c5b57803560ff1916838001178555611c89565b82800160010185558215611c89579182015b82811115611c88578235825591602001919060010190611c6d565b5b509050611c969190611d20565b5090565b828054611ca690612bfe565b90600052602060002090601f016020900481019282611cc85760008555611d0f565b82601f10611ce157805160ff1916838001178555611d0f565b82800160010185558215611d0f579182015b82811115611d0e578251825591602001919060010190611cf3565b5b509050611d1c9190611d20565b5090565b5b80821115611d39576000816000905550600101611d21565b5090565b6000611d50611d4b8461298b565b612966565b90508083825260208201905082856020860282011115611d7357611d72612d70565b5b60005b85811015611da35781611d898882611ea1565b845260208401935060208301925050600181019050611d76565b5050509392505050565b6000611dc0611dbb846129b7565b612966565b90508083825260208201905082856020860282011115611de357611de2612d70565b5b60005b85811015611e135781611df98882612003565b845260208401935060208301925050600181019050611de6565b5050509392505050565b6000611e30611e2b846129e3565b612966565b905082815260208101848484011115611e4c57611e4b612d75565b5b611e57848285612bbc565b509392505050565b6000611e72611e6d84612a14565b612966565b905082815260208101848484011115611e8e57611e8d612d75565b5b611e99848285612bbc565b509392505050565b600081359050611eb081612eab565b92915050565b600081359050611ec581612ec2565b92915050565b600082601f830112611ee057611edf612d6b565b5b8135611ef0848260208601611d3d565b91505092915050565b600082601f830112611f0e57611f0d612d6b565b5b8135611f1e848260208601611dad565b91505092915050565b600081359050611f3681612ed9565b92915050565b600081359050611f4b81612ef0565b92915050565b600082601f830112611f6657611f65612d6b565b5b8135611f76848260208601611e1d565b91505092915050565b60008083601f840112611f9557611f94612d6b565b5b8235905067ffffffffffffffff811115611fb257611fb1612d66565b5b602083019150836001820283011115611fce57611fcd612d70565b5b9250929050565b600082601f830112611fea57611fe9612d6b565b5b8135611ffa848260208601611e5f565b91505092915050565b60008135905061201281612f07565b92915050565b60006020828403121561202e5761202d612d7f565b5b600061203c84828501611ea1565b91505092915050565b60006020828403121561205b5761205a612d7f565b5b600061206984828501611eb6565b91505092915050565b6000806000806080858703121561208c5761208b612d7f565b5b600061209a87828801611eb6565b945050602085013567ffffffffffffffff8111156120bb576120ba612d7a565b5b6120c787828801611fd5565b935050604085013567ffffffffffffffff8111156120e8576120e7612d7a565b5b6120f487828801611fd5565b925050606085013567ffffffffffffffff81111561211557612114612d7a565b5b61212187828801611fd5565b91505092959194509250565b6000806040838503121561214457612143612d7f565b5b600061215285828601611ea1565b925050602061216385828601611ea1565b9150509250929050565b600080600080600060a0868803121561218957612188612d7f565b5b600061219788828901611ea1565b95505060206121a888828901611ea1565b945050604086013567ffffffffffffffff8111156121c9576121c8612d7a565b5b6121d588828901611ef9565b935050606086013567ffffffffffffffff8111156121f6576121f5612d7a565b5b61220288828901611ef9565b925050608086013567ffffffffffffffff81111561222357612222612d7a565b5b61222f88828901611f51565b9150509295509295909350565b600080600080600060a0868803121561225857612257612d7f565b5b600061226688828901611ea1565b955050602061227788828901611ea1565b945050604061228888828901612003565b935050606061229988828901612003565b925050608086013567ffffffffffffffff8111156122ba576122b9612d7a565b5b6122c688828901611f51565b9150509295509295909350565b600080604083850312156122ea576122e9612d7f565b5b60006122f885828601611ea1565b925050602061230985828601611f27565b9150509250929050565b6000806040838503121561232a57612329612d7f565b5b600061233885828601611ea1565b925050602061234985828601612003565b9150509250929050565b6000806040838503121561236a57612369612d7f565b5b600083013567ffffffffffffffff81111561238857612387612d7a565b5b61239485828601611ecb565b925050602083013567ffffffffffffffff8111156123b5576123b4612d7a565b5b6123c185828601611ef9565b9150509250929050565b6000602082840312156123e1576123e0612d7f565b5b60006123ef84828501611f3c565b91505092915050565b60006020828403121561240e5761240d612d7f565b5b600061241c84828501612003565b91505092915050565b6000806040838503121561243c5761243b612d7f565b5b600061244a85828601612003565b925050602061245b85828601611ea1565b9150509250929050565b6000806040838503121561247c5761247b612d7f565b5b600061248a85828601612003565b925050602061249b85828601611eb6565b9150509250929050565b600080604083850312156124bc576124bb612d7f565b5b60006124ca85828601612003565b92505060206124db85828601611f27565b9150509250929050565b6000806000604084860312156124fe576124fd612d7f565b5b600061250c86828701612003565b935050602084013567ffffffffffffffff81111561252d5761252c612d7a565b5b61253986828701611f7f565b92509250509250925092565b600061255183836126bc565b60208301905092915050565b61256681612b36565b82525050565b61257581612b24565b82525050565b600061258682612a55565b6125908185612a78565b935061259b83612a45565b8060005b838110156125cc5781516125b38882612545565b97506125be83612a6b565b92505060018101905061259f565b5085935050505092915050565b6125e281612b48565b82525050565b6125f181612baa565b82525050565b600061260282612a60565b61260c8185612a89565b935061261c818560208601612bcb565b61262581612d84565b840191505092915050565b600061263d602b83612a89565b915061264882612d95565b604082019050919050565b6000612660602683612a89565b915061266b82612de4565b604082019050919050565b6000612683602083612a89565b915061268e82612e33565b602082019050919050565b60006126a6602983612a89565b91506126b182612e5c565b604082019050919050565b6126c581612ba0565b82525050565b6126d481612ba0565b82525050565b60006020820190506126ef600083018461256c565b92915050565b600060e08201905061270a600083018a61255d565b818103602083015261271c81896125f7565b9050818103604083015261273081886125f7565b9050818103606083015261274481876125f7565b905061275360808301866125d9565b61276060a08301856126cb565b61276d60c08301846126cb565b98975050505050505050565b60006020820190508181036000830152612793818461257b565b905092915050565b600060408201905081810360008301526127b5818561257b565b905081810360208301526127c9818461257b565b90509392505050565b60006020820190506127e760008301846125d9565b92915050565b6000602082019050818103600083015261280781846125f7565b905092915050565b6000602082019050818103600083015261282881612630565b9050919050565b6000602082019050818103600083015261284881612653565b9050919050565b6000602082019050818103600083015261286881612676565b9050919050565b6000602082019050818103600083015261288881612699565b9050919050565b60006020820190506128a460008301846126cb565b92915050565b6000610100820190506128c0600083018b6126cb565b6128cd602083018a61255d565b81810360408301526128df81896125f7565b905081810360608301526128f381886125f7565b9050818103608083015261290781876125f7565b905061291660a08301866125d9565b61292360c08301856125e8565b61293060e08301846125e8565b9998505050505050505050565b600060408201905061295260008301856126cb565b61295f60208301846126cb565b9392505050565b6000612970612981565b905061297c8282612c30565b919050565b6000604051905090565b600067ffffffffffffffff8211156129a6576129a5612d37565b5b602082029050602081019050919050565b600067ffffffffffffffff8211156129d2576129d1612d37565b5b602082029050602081019050919050565b600067ffffffffffffffff8211156129fe576129fd612d37565b5b612a0782612d84565b9050602081019050919050565b600067ffffffffffffffff821115612a2f57612a2e612d37565b5b612a3882612d84565b9050602081019050919050565b6000819050602082019050919050565b600081519050919050565b600081519050919050565b6000602082019050919050565b600082825260208201905092915050565b600082825260208201905092915050565b6000612aa582612ba0565b9150612ab083612ba0565b9250827fffffffffffffffffffffffffffffffffffffffffffffffffffffffffffffffff03821115612ae557612ae4612caa565b5b828201905092915050565b6000612afb82612ba0565b9150612b0683612ba0565b925082821015612b1957612b18612caa565b5b828203905092915050565b6000612b2f82612b80565b9050919050565b6000612b4182612b80565b9050919050565b60008115159050919050565b60007fffffffff0000000000000000000000000000000000000000000000000000000082169050919050565b600073ffffffffffffffffffffffffffffffffffffffff82169050919050565b6000819050919050565b6000612bb582612ba0565b9050919050565b82818337600083830152505050565b60005b83811015612be9578082015181840152602081019050612bce565b83811115612bf8576000848401525b50505050565b60006002820490506001821680612c1657607f821691505b60208210811415612c2a57612c29612cd9565b5b50919050565b612c3982612d84565b810181811067ffffffffffffffff82111715612c5857612c57612d37565b5b80604052505050565b6000612c6c82612ba0565b91507fffffffffffffffffffffffffffffffffffffffffffffffffffffffffffffffff821415612c9f57612c9e612caa565b5b600182019050919050565b7f4e487b7100000000000000000000000000000000000000000000000000000000600052601160045260246000fd5b7f4e487b7100000000000000000000000000000000000000000000000000000000600052602260045260246000fd5b7f4e487b7100000000000000000000000000000000000000000000000000000000600052603260045260246000fd5b7f4e487b7100000000000000000000000000000000000000000000000000000000600052604160045260246000fd5b600080fd5b600080fd5b600080fd5b600080fd5b600080fd5b600080fd5b6000601f19601f8301169050919050565b7f455243313135353a2062616c616e636520717565727920666f7220746865207a60008201527f65726f2061646472657373000000000000000000000000000000000000000000602082015250565b7f4f776e61626c653a206e6577206f776e657220697320746865207a65726f206160008201527f6464726573730000000000000000000000000000000000000000000000000000602082015250565b7f4f776e61626c653a2063616c6c6572206973206e6f7420746865206f776e6572600082015250565b7f455243313135353a206163636f756e747320616e6420696473206c656e67746860008201527f206d69736d617463680000000000000000000000000000000000000000000000602082015250565b612eb481612b24565b8114612ebf57600080fd5b50565b612ecb81612b36565b8114612ed657600080fd5b50565b612ee281612b48565b8114612eed57600080fd5b50565b612ef981612b54565b8114612f0457600080fd5b50565b612f1081612ba0565b8114612f1b57600080fd5b5056fea2646970667358221220d413439a343bee1be1dc59f4190586b78b5f1bb7410a9d735ad6027e6b4b7fbf64736f6c63430008060033",
  "immutableReferences": {},
  "source": "// SPDX-License-Identifier: MIT\npragma solidity ^0.8.0;\n\nimport \"./creatortokenhelper.sol\";\n//import \"@openzeppelin/contracts/token/ERC1155/presets/ERC1155PresetMinterPauser.sol\";\nimport \"@openzeppelin/contracts/token/ERC1155/ERC1155.sol\";\n\n//contract CreatorTokenOwnership is CreatorTokenHelper, ERC1155PresetMinterPauser {\ncontract CreatorTokenOwnership is CreatorTokenHelper, ERC1155 {\n\n\tconstructor(string memory uri) ERC1155(uri) { }\n\n\tfunction mappingIncrease(address _account, uint256 _id, uint256 _amount) internal {\n\t\ttokenHoldership[_id][_account] += _amount;\n\t\tuserToHoldings[_account][_id] += _amount;\n\t}\n\n\tfunction mappingDecrease(address _account, uint256 _id, uint256 _amount) internal {\n\t\ttokenHoldership[_id][_account] -= _amount;\n\t\tuserToHoldings[_account][_id] -= _amount;\n\t}\n\n\t// Mint a token\n\tfunction _mint(address _to, uint256 _id, uint256 _amount, bytes memory _data) internal override {\n\t\t//require(hasRole(MINTER_ROLE, msg.sender));\n\t\t// Update tokenHoldership mapping\n\t\tmappingIncrease(_to, _id, _amount);\n\t\t// Increase token amount outstanding\n\t\tcreatorTokens[_id].outstanding += _amount;\n\t\t// Emit single transfer event\n\t\temit TransferSingle(msg.sender, address(0), _to, _id, _amount);\n\t}\n\n\t// Mint a batch of tokens\n\tfunction _mintBatch(address _to, uint256[] memory _ids, uint256[] memory _amounts, bytes memory data) internal override {\n\t\t//require(hasRole(MINTER_ROLE, msg.sender));\n\t\t// Iterate through _ids\n\t\tfor (uint256 i=0; i<_ids.length; i++) {\n\t\t\t// Update tokenHoldership mapping\n\t\t\tmappingIncrease(_to, _ids[i], _amounts[i]);\n\t\t\t// Increase token amount outstanding\n\t\t\tcreatorTokens[_ids[i]].outstanding += _amounts[i];\n\t\t}\n\t\t// Emit batch transfer event\n\t\temit TransferBatch(msg.sender, address(0), _to, _ids, _amounts);\n\t}\n\n\t// Burn a token\n\tfunction _burn(address _account, uint256 _id, uint256 _amount) internal override {\n\t\trequire(msg.sender == _account);\n\t\t// Update tokenHoldership mapping\n\t\tmappingDecrease(_account, _id, _amount);\n\t\t// Decrease token amount outstanding\n\t\tcreatorTokens[_id].outstanding -= _amount;\n\t\t// Emit single transfer event\n\t\temit TransferSingle(msg.sender, _account, address(0), _id, _amount);\n\t}\n\n\t// Burn a batch of tokens\n\tfunction _burnBatch(address _account, uint256[] memory _ids, uint256[] memory _amounts) internal override {\n\t\trequire(msg.sender == _account);\n\t\t// Iterate through _ids\n\t\tfor (uint256 i=0; i<_ids.length; i++) {\n\t\t\t// Update tokenHoldership mapping\n\t\t\tmappingDecrease(_account, _ids[i], _amounts[i]);\n\t\t\t// Decrease token amount outstanding\n\t\t\tcreatorTokens[_ids[i]].outstanding -= _amounts[i];\n\t\t}\n\t\t// Emit batch transfer event\n\t\temit TransferBatch(msg.sender, _account, address(0), _ids, _amounts);\n\t}\n\n\t// Transfer a token\n\tfunction safeTransferFrom(address _from, address _to, uint256 _id, uint256 _amount, bytes memory _data) public override {\n\t\t// Require that msg.sender == _from, or that approvals[_from][_to] == true\n\t\trequire(msg.sender == _from || isApprovedForAll(_from, _to));\n\t\t// Reduce tokenHoldership holdings of _from\n\t\tmappingDecrease(_from, _id, _amount);\n\t\t// Increase tokenHoldership holdings of _to\n\t\tmappingIncrease(_to, _id, _amount);\n\t\t// Emit single transfer event\n\t\temit TransferSingle(msg.sender, _from, _to, _id, _amount);\n\t}\n\n\t// Transfer a batch of tokens\n\tfunction safeBatchTransferFrom(address _from, address _to, uint256[] memory _ids, uint256[] memory _amounts, bytes memory data) public override {\n\t\t// Iterate through _ids\n\t\tfor (uint256 i=0; i<_ids.length; i++) {\n\t\t\t// Require that msg.sender == _from, or that approvals[_from][_to] == true\n\t\t\trequire(msg.sender == _from || isApprovedForAll(_from, _to));\n\t\t\t// Reduce tokenHoldership holdings of _from\n\t\t\tmappingDecrease(_from, _ids[i], _amounts[i]);\n\t\t\t// Increase tokenHoldership holdings of _to\n\t\t\tmappingIncrease(_to, _ids[i], _amounts[i]);\n\t\t}\n\t\t// Emit batch transfer event\n\t\temit TransferBatch(msg.sender, _from, _to, _ids, _amounts);\n\t}\n\n\t// Return balance of a given token at a given address\n\t//function balanceOf(address _account, uint256 _id) public view override returns (uint256) {\n\t\t// Look up _account's holdings of _id in tokenHoldership\n\t//\treturn tokenHoldership[_id][_account];\n\t//}\n\n\t// Return balance of a batch of tokens\n\t//function balanceOfBatch(address[] calldata _accounts, uint256[] calldata _ids) public view override returns (uint256[] memory) {\n\t//\t// Initialize output array\n\t//\tuint256[] memory batchBalances = new uint256[](_accounts.length);\n\t//\t// Iterate through _accounts\n\t//\tfor (uint256 i = 0; i < _accounts.length; i++) {\n\t//\t\t// Look up _account's holdings of _id in tokenHoldership\n\t//\t\tbatchBalances[i] = tokenHoldership[_ids[i]][_accounts[i]];\n\t//\t}\n\t//\t// Return output array\n\t//\treturn batchBalances;\n\t//}\n\n\t// Give operator permission to transfer caller's tokens\n\tfunction setApprovalForAll(address _operator, bool _approved) public override {\n\t\t// Update approvals mapping\n\t\tapprovals[msg.sender][_operator] = _approved;\n\t\t// Emit Approval event\n\t\temit ApprovalForAll(msg.sender, _operator, _approved);\n\t}\n\n\t// Denotes whether operator is approved to transfer accounts' tokens\n\tfunction isApprovedForAll(address _account, address _operator) public view override returns (bool) {\n\t\t// Look up approvals mapping\n\t\treturn approvals[_account][_operator];\n\t}\n}",
  "sourcePath": "/Users/kamilalizaisadik/DeFi/Dynamic Automated Market Maker/damm_solidity/contracts/creatortokenownership.sol",
  "compiler": {
    "name": "solc",
    "version": "0.8.6+commit.11564f7e.Emscripten.clang"
  },
  "schemaVersion": "3.4.1",
  "updatedAt": "2021-07-10T13:52:57.568Z",
  "devdoc": {
    "kind": "dev",
    "methods": {
      "balanceOf(address,uint256)": {
        "details": "See {IERC1155-balanceOf}. Requirements: - `account` cannot be the zero address."
      },
      "balanceOfBatch(address[],uint256[])": {
        "details": "See {IERC1155-balanceOfBatch}. Requirements: - `accounts` and `ids` must have the same length."
      },
      "owner()": {
        "details": "Returns the address of the current owner."
      },
      "renounceOwnership()": {
        "details": "Leaves the contract without owner. It will not be possible to call `onlyOwner` functions anymore. Can only be called by the current owner. NOTE: Renouncing ownership will leave the contract without an owner, thereby removing any functionality that is only available to the owner."
      },
      "supportsInterface(bytes4)": {
        "details": "See {IERC165-supportsInterface}."
      },
      "transferOwnership(address)": {
        "details": "Transfers ownership of the contract to a new account (`newOwner`). Can only be called by the current owner."
      },
      "uri(uint256)": {
        "details": "See {IERC1155MetadataURI-uri}. This implementation returns the same URI for *all* token types. It relies on the token type ID substitution mechanism https://eips.ethereum.org/EIPS/eip-1155#metadata[defined in the EIP]. Clients calling this function must replace the `\\{id\\}` substring with the actual token type ID."
      }
    },
    "version": 1
  },
  "userdoc": {
    "kind": "user",
    "methods": {},
    "version": 1
  }
}