{
  "contractName": "CreatorTokenExchange",
  "abi": [
    {
      "inputs": [
        {
          "internalType": "string",
          "name": "uri",
          "type": "string"
        }
      ],
      "stateMutability": "nonpayable",
      "type": "constructor"
    },
    {
      "anonymous": false,
      "inputs": [
        {
          "indexed": true,
          "internalType": "address",
          "name": "account",
          "type": "address"
        },
        {
          "indexed": true,
          "internalType": "address",
          "name": "operator",
          "type": "address"
        },
        {
          "indexed": false,
          "internalType": "bool",
          "name": "approved",
          "type": "bool"
        }
      ],
      "name": "ApprovalForAll",
      "type": "event"
    },
    {
      "anonymous": false,
      "inputs": [
        {
          "indexed": false,
          "internalType": "uint256",
          "name": "tokenId",
          "type": "uint256"
        },
        {
          "indexed": false,
          "internalType": "string",
          "name": "name",
          "type": "string"
        },
        {
          "indexed": false,
          "internalType": "string",
          "name": "symbol",
          "type": "string"
        }
      ],
      "name": "NewCreatorToken",
      "type": "event"
    },
    {
      "anonymous": false,
      "inputs": [
        {
          "indexed": true,
          "internalType": "address",
          "name": "account",
          "type": "address"
        },
        {
          "indexed": false,
          "internalType": "uint256",
          "name": "amount",
          "type": "uint256"
        },
        {
          "indexed": false,
          "internalType": "string",
          "name": "transactionType",
          "type": "string"
        },
        {
          "indexed": false,
          "internalType": "uint256",
          "name": "tokenId",
          "type": "uint256"
        },
        {
          "indexed": false,
          "internalType": "string",
          "name": "name",
          "type": "string"
        },
        {
          "indexed": false,
          "internalType": "string",
          "name": "symbol",
          "type": "string"
        }
      ],
      "name": "NewTransaction",
      "type": "event"
    },
    {
      "anonymous": false,
      "inputs": [
        {
          "indexed": true,
          "internalType": "address",
          "name": "previousOwner",
          "type": "address"
        },
        {
          "indexed": true,
          "internalType": "address",
          "name": "newOwner",
          "type": "address"
        }
      ],
      "name": "OwnershipTransferred",
      "type": "event"
    },
    {
      "anonymous": false,
      "inputs": [
        {
          "indexed": false,
          "internalType": "address",
          "name": "account",
          "type": "address"
        }
      ],
      "name": "Paused",
      "type": "event"
    },
    {
      "anonymous": false,
      "inputs": [
        {
          "indexed": true,
          "internalType": "bytes32",
          "name": "role",
          "type": "bytes32"
        },
        {
          "indexed": true,
          "internalType": "bytes32",
          "name": "previousAdminRole",
          "type": "bytes32"
        },
        {
          "indexed": true,
          "internalType": "bytes32",
          "name": "newAdminRole",
          "type": "bytes32"
        }
      ],
      "name": "RoleAdminChanged",
      "type": "event"
    },
    {
      "anonymous": false,
      "inputs": [
        {
          "indexed": true,
          "internalType": "bytes32",
          "name": "role",
          "type": "bytes32"
        },
        {
          "indexed": true,
          "internalType": "address",
          "name": "account",
          "type": "address"
        },
        {
          "indexed": true,
          "internalType": "address",
          "name": "sender",
          "type": "address"
        }
      ],
      "name": "RoleGranted",
      "type": "event"
    },
    {
      "anonymous": false,
      "inputs": [
        {
          "indexed": true,
          "internalType": "bytes32",
          "name": "role",
          "type": "bytes32"
        },
        {
          "indexed": true,
          "internalType": "address",
          "name": "account",
          "type": "address"
        },
        {
          "indexed": true,
          "internalType": "address",
          "name": "sender",
          "type": "address"
        }
      ],
      "name": "RoleRevoked",
      "type": "event"
    },
    {
      "anonymous": false,
      "inputs": [
        {
          "indexed": true,
          "internalType": "address",
          "name": "operator",
          "type": "address"
        },
        {
          "indexed": true,
          "internalType": "address",
          "name": "from",
          "type": "address"
        },
        {
          "indexed": true,
          "internalType": "address",
          "name": "to",
          "type": "address"
        },
        {
          "indexed": false,
          "internalType": "uint256[]",
          "name": "ids",
          "type": "uint256[]"
        },
        {
          "indexed": false,
          "internalType": "uint256[]",
          "name": "values",
          "type": "uint256[]"
        }
      ],
      "name": "TransferBatch",
      "type": "event"
    },
    {
      "anonymous": false,
      "inputs": [
        {
          "indexed": true,
          "internalType": "address",
          "name": "operator",
          "type": "address"
        },
        {
          "indexed": true,
          "internalType": "address",
          "name": "from",
          "type": "address"
        },
        {
          "indexed": true,
          "internalType": "address",
          "name": "to",
          "type": "address"
        },
        {
          "indexed": false,
          "internalType": "uint256",
          "name": "id",
          "type": "uint256"
        },
        {
          "indexed": false,
          "internalType": "uint256",
          "name": "value",
          "type": "uint256"
        }
      ],
      "name": "TransferSingle",
      "type": "event"
    },
    {
      "anonymous": false,
      "inputs": [
        {
          "indexed": false,
          "internalType": "string",
          "name": "value",
          "type": "string"
        },
        {
          "indexed": true,
          "internalType": "uint256",
          "name": "id",
          "type": "uint256"
        }
      ],
      "name": "URI",
      "type": "event"
    },
    {
      "anonymous": false,
      "inputs": [
        {
          "indexed": false,
          "internalType": "address",
          "name": "account",
          "type": "address"
        }
      ],
      "name": "Unpaused",
      "type": "event"
    },
    {
      "inputs": [],
      "name": "DEFAULT_ADMIN_ROLE",
      "outputs": [
        {
          "internalType": "bytes32",
          "name": "",
          "type": "bytes32"
        }
      ],
      "stateMutability": "view",
      "type": "function",
      "constant": true
    },
    {
      "inputs": [],
      "name": "MINTER_ROLE",
      "outputs": [
        {
          "internalType": "bytes32",
          "name": "",
          "type": "bytes32"
        }
      ],
      "stateMutability": "view",
      "type": "function",
      "constant": true
    },
    {
      "inputs": [],
      "name": "PAUSER_ROLE",
      "outputs": [
        {
          "internalType": "bytes32",
          "name": "",
          "type": "bytes32"
        }
      ],
      "stateMutability": "view",
      "type": "function",
      "constant": true
    },
    {
      "inputs": [
        {
          "internalType": "address",
          "name": "_account",
          "type": "address"
        },
        {
          "internalType": "uint256",
          "name": "_id",
          "type": "uint256"
        }
      ],
      "name": "balanceOf",
      "outputs": [
        {
          "internalType": "uint256",
          "name": "",
          "type": "uint256"
        }
      ],
      "stateMutability": "view",
      "type": "function",
      "constant": true
    },
    {
      "inputs": [
        {
          "internalType": "address[]",
          "name": "_accounts",
          "type": "address[]"
        },
        {
          "internalType": "uint256[]",
          "name": "_ids",
          "type": "uint256[]"
        }
      ],
      "name": "balanceOfBatch",
      "outputs": [
        {
          "internalType": "uint256[]",
          "name": "",
          "type": "uint256[]"
        }
      ],
      "stateMutability": "view",
      "type": "function",
      "constant": true
    },
    {
      "inputs": [
        {
          "internalType": "address",
          "name": "_account",
          "type": "address"
        },
        {
          "internalType": "uint256",
          "name": "_id",
          "type": "uint256"
        },
        {
          "internalType": "uint256",
          "name": "_amount",
          "type": "uint256"
        }
      ],
      "name": "burn",
      "outputs": [],
      "stateMutability": "nonpayable",
      "type": "function"
    },
    {
      "inputs": [
        {
          "internalType": "address",
          "name": "_account",
          "type": "address"
        },
        {
          "internalType": "uint256[]",
          "name": "_ids",
          "type": "uint256[]"
        },
        {
          "internalType": "uint256[]",
          "name": "_amounts",
          "type": "uint256[]"
        }
      ],
      "name": "burnBatch",
      "outputs": [],
      "stateMutability": "nonpayable",
      "type": "function"
    },
    {
      "inputs": [
        {
          "internalType": "uint256",
          "name": "_tokenId",
          "type": "uint256"
        },
        {
          "internalType": "address payable",
          "name": "_newCreatorAddress",
          "type": "address"
        }
      ],
      "name": "changeAddress",
      "outputs": [],
      "stateMutability": "nonpayable",
      "type": "function"
    },
    {
      "inputs": [
        {
          "internalType": "uint256",
          "name": "_tokenId",
          "type": "uint256"
        },
        {
          "internalType": "string",
          "name": "_newDescription",
          "type": "string"
        }
      ],
      "name": "changeDescription",
      "outputs": [],
      "stateMutability": "nonpayable",
      "type": "function"
    },
    {
      "inputs": [
        {
          "internalType": "uint256",
          "name": "_tokenId",
          "type": "uint256"
        },
        {
          "internalType": "string",
          "name": "_newName",
          "type": "string"
        }
      ],
      "name": "changeName",
      "outputs": [],
      "stateMutability": "nonpayable",
      "type": "function"
    },
    {
      "inputs": [
        {
          "internalType": "uint256",
          "name": "_newPlatformFee",
          "type": "uint256"
        }
      ],
      "name": "changePlatformFee",
      "outputs": [],
      "stateMutability": "nonpayable",
      "type": "function"
    },
    {
      "inputs": [
        {
          "internalType": "uint256",
          "name": "_newProfitMargin",
          "type": "uint256"
        }
      ],
      "name": "changeProfitMargin",
      "outputs": [],
      "stateMutability": "nonpayable",
      "type": "function"
    },
    {
      "inputs": [
        {
          "internalType": "uint256",
          "name": "_tokenId",
          "type": "uint256"
        },
        {
          "internalType": "string",
          "name": "_newSymbol",
          "type": "string"
        }
      ],
      "name": "changeSymbol",
      "outputs": [],
      "stateMutability": "nonpayable",
      "type": "function"
    },
    {
      "inputs": [
        {
          "internalType": "uint256",
          "name": "_tokenId",
          "type": "uint256"
        },
        {
          "internalType": "bool",
          "name": "_verified",
          "type": "bool"
        }
      ],
      "name": "changeVerification",
      "outputs": [],
      "stateMutability": "nonpayable",
      "type": "function"
    },
    {
      "inputs": [
        {
          "internalType": "address payable",
          "name": "_creatorAddress",
          "type": "address"
        },
        {
          "internalType": "string",
          "name": "_name",
          "type": "string"
        },
        {
          "internalType": "string",
          "name": "_symbol",
          "type": "string"
        },
        {
          "internalType": "string",
          "name": "_description",
          "type": "string"
        }
      ],
      "name": "createCreatorToken",
      "outputs": [],
      "stateMutability": "nonpayable",
      "type": "function"
    },
    {
      "inputs": [
        {
          "internalType": "uint256",
          "name": "",
          "type": "uint256"
        }
      ],
      "name": "creatorTokens",
      "outputs": [
        {
          "internalType": "address payable",
          "name": "creatorAddress",
          "type": "address"
        },
        {
          "internalType": "string",
          "name": "name",
          "type": "string"
        },
        {
          "internalType": "string",
          "name": "symbol",
          "type": "string"
        },
        {
          "internalType": "string",
          "name": "description",
          "type": "string"
        },
        {
          "internalType": "bool",
          "name": "verified",
          "type": "bool"
        },
        {
          "internalType": "uint256",
          "name": "outstanding",
          "type": "uint256"
        },
        {
          "internalType": "uint256",
          "name": "maxSupply",
          "type": "uint256"
        }
      ],
      "stateMutability": "view",
      "type": "function",
      "constant": true
    },
    {
      "inputs": [
        {
          "internalType": "bytes32",
          "name": "role",
          "type": "bytes32"
        }
      ],
      "name": "getRoleAdmin",
      "outputs": [
        {
          "internalType": "bytes32",
          "name": "",
          "type": "bytes32"
        }
      ],
      "stateMutability": "view",
      "type": "function",
      "constant": true
    },
    {
      "inputs": [
        {
          "internalType": "bytes32",
          "name": "role",
          "type": "bytes32"
        },
        {
          "internalType": "uint256",
          "name": "index",
          "type": "uint256"
        }
      ],
      "name": "getRoleMember",
      "outputs": [
        {
          "internalType": "address",
          "name": "",
          "type": "address"
        }
      ],
      "stateMutability": "view",
      "type": "function",
      "constant": true
    },
    {
      "inputs": [
        {
          "internalType": "bytes32",
          "name": "role",
          "type": "bytes32"
        }
      ],
      "name": "getRoleMemberCount",
      "outputs": [
        {
          "internalType": "uint256",
          "name": "",
          "type": "uint256"
        }
      ],
      "stateMutability": "view",
      "type": "function",
      "constant": true
    },
    {
      "inputs": [
        {
          "internalType": "bytes32",
          "name": "role",
          "type": "bytes32"
        },
        {
          "internalType": "address",
          "name": "account",
          "type": "address"
        }
      ],
      "name": "grantRole",
      "outputs": [],
      "stateMutability": "nonpayable",
      "type": "function"
    },
    {
      "inputs": [
        {
          "internalType": "bytes32",
          "name": "role",
          "type": "bytes32"
        },
        {
          "internalType": "address",
          "name": "account",
          "type": "address"
        }
      ],
      "name": "hasRole",
      "outputs": [
        {
          "internalType": "bool",
          "name": "",
          "type": "bool"
        }
      ],
      "stateMutability": "view",
      "type": "function",
      "constant": true
    },
    {
      "inputs": [
        {
          "internalType": "address",
          "name": "_account",
          "type": "address"
        },
        {
          "internalType": "address",
          "name": "_operator",
          "type": "address"
        }
      ],
      "name": "isApprovedForAll",
      "outputs": [
        {
          "internalType": "bool",
          "name": "",
          "type": "bool"
        }
      ],
      "stateMutability": "view",
      "type": "function",
      "constant": true
    },
    {
      "inputs": [
        {
          "internalType": "address",
          "name": "_to",
          "type": "address"
        },
        {
          "internalType": "uint256",
          "name": "_id",
          "type": "uint256"
        },
        {
          "internalType": "uint256",
          "name": "_amount",
          "type": "uint256"
        },
        {
          "internalType": "bytes",
          "name": "_data",
          "type": "bytes"
        }
      ],
      "name": "mint",
      "outputs": [],
      "stateMutability": "nonpayable",
      "type": "function"
    },
    {
      "inputs": [
        {
          "internalType": "address",
          "name": "_to",
          "type": "address"
        },
        {
          "internalType": "uint256[]",
          "name": "_ids",
          "type": "uint256[]"
        },
        {
          "internalType": "uint256[]",
          "name": "_amounts",
          "type": "uint256[]"
        },
        {
          "internalType": "bytes",
          "name": "data",
          "type": "bytes"
        }
      ],
      "name": "mintBatch",
      "outputs": [],
      "stateMutability": "nonpayable",
      "type": "function"
    },
    {
      "inputs": [],
      "name": "owner",
      "outputs": [
        {
          "internalType": "address",
          "name": "",
          "type": "address"
        }
      ],
      "stateMutability": "view",
      "type": "function",
      "constant": true
    },
    {
      "inputs": [],
      "name": "pause",
      "outputs": [],
      "stateMutability": "nonpayable",
      "type": "function"
    },
    {
      "inputs": [],
      "name": "paused",
      "outputs": [
        {
          "internalType": "bool",
          "name": "",
          "type": "bool"
        }
      ],
      "stateMutability": "view",
      "type": "function",
      "constant": true
    },
    {
      "inputs": [
        {
          "internalType": "address payable",
          "name": "_owner",
          "type": "address"
        }
      ],
      "name": "payoutPlatformFees",
      "outputs": [],
      "stateMutability": "nonpayable",
      "type": "function"
    },
    {
      "inputs": [],
      "name": "renounceOwnership",
      "outputs": [],
      "stateMutability": "nonpayable",
      "type": "function"
    },
    {
      "inputs": [
        {
          "internalType": "bytes32",
          "name": "role",
          "type": "bytes32"
        },
        {
          "internalType": "address",
          "name": "account",
          "type": "address"
        }
      ],
      "name": "renounceRole",
      "outputs": [],
      "stateMutability": "nonpayable",
      "type": "function"
    },
    {
      "inputs": [
        {
          "internalType": "bytes32",
          "name": "role",
          "type": "bytes32"
        },
        {
          "internalType": "address",
          "name": "account",
          "type": "address"
        }
      ],
      "name": "revokeRole",
      "outputs": [],
      "stateMutability": "nonpayable",
      "type": "function"
    },
    {
      "inputs": [
        {
          "internalType": "address",
          "name": "_from",
          "type": "address"
        },
        {
          "internalType": "address",
          "name": "_to",
          "type": "address"
        },
        {
          "internalType": "uint256[]",
          "name": "_ids",
          "type": "uint256[]"
        },
        {
          "internalType": "uint256[]",
          "name": "_amounts",
          "type": "uint256[]"
        },
        {
          "internalType": "bytes",
          "name": "data",
          "type": "bytes"
        }
      ],
      "name": "safeBatchTransferFrom",
      "outputs": [],
      "stateMutability": "nonpayable",
      "type": "function"
    },
    {
      "inputs": [
        {
          "internalType": "address",
          "name": "_from",
          "type": "address"
        },
        {
          "internalType": "address",
          "name": "_to",
          "type": "address"
        },
        {
          "internalType": "uint256",
          "name": "_id",
          "type": "uint256"
        },
        {
          "internalType": "uint256",
          "name": "_amount",
          "type": "uint256"
        },
        {
          "internalType": "bytes",
          "name": "_data",
          "type": "bytes"
        }
      ],
      "name": "safeTransferFrom",
      "outputs": [],
      "stateMutability": "nonpayable",
      "type": "function"
    },
    {
      "inputs": [
        {
          "internalType": "address",
          "name": "_operator",
          "type": "address"
        },
        {
          "internalType": "bool",
          "name": "_approved",
          "type": "bool"
        }
      ],
      "name": "setApprovalForAll",
      "outputs": [],
      "stateMutability": "nonpayable",
      "type": "function"
    },
    {
      "inputs": [
        {
          "internalType": "bytes4",
          "name": "interfaceId",
          "type": "bytes4"
        }
      ],
      "name": "supportsInterface",
      "outputs": [
        {
          "internalType": "bool",
          "name": "",
          "type": "bool"
        }
      ],
      "stateMutability": "view",
      "type": "function",
      "constant": true
    },
    {
      "inputs": [
        {
          "internalType": "uint256",
          "name": "",
          "type": "uint256"
        },
        {
          "internalType": "address",
          "name": "",
          "type": "address"
        }
      ],
      "name": "tokenHoldership",
      "outputs": [
        {
          "internalType": "uint256",
          "name": "",
          "type": "uint256"
        }
      ],
      "stateMutability": "view",
      "type": "function",
      "constant": true
    },
    {
      "inputs": [
        {
          "internalType": "uint256",
          "name": "",
          "type": "uint256"
        }
      ],
      "name": "tokenToCreator",
      "outputs": [
        {
          "internalType": "address",
          "name": "",
          "type": "address"
        }
      ],
      "stateMutability": "view",
      "type": "function",
      "constant": true
    },
    {
      "inputs": [
        {
          "internalType": "address",
          "name": "newOwner",
          "type": "address"
        }
      ],
      "name": "transferOwnership",
      "outputs": [],
      "stateMutability": "nonpayable",
      "type": "function"
    },
    {
      "inputs": [],
      "name": "unpause",
      "outputs": [],
      "stateMutability": "nonpayable",
      "type": "function"
    },
    {
      "inputs": [
        {
          "internalType": "uint256",
          "name": "",
          "type": "uint256"
        }
      ],
      "name": "uri",
      "outputs": [
        {
          "internalType": "string",
          "name": "",
          "type": "string"
        }
      ],
      "stateMutability": "view",
      "type": "function",
      "constant": true
    },
    {
      "inputs": [
        {
          "internalType": "address",
          "name": "",
          "type": "address"
        },
        {
          "internalType": "uint256",
          "name": "",
          "type": "uint256"
        }
      ],
      "name": "userToHoldings",
      "outputs": [
        {
          "internalType": "uint256",
          "name": "",
          "type": "uint256"
        }
      ],
      "stateMutability": "view",
      "type": "function",
      "constant": true
    },
    {
      "inputs": [
        {
          "internalType": "address payable",
          "name": "_owner",
          "type": "address"
        }
      ],
      "name": "withdraw",
      "outputs": [],
      "stateMutability": "nonpayable",
      "type": "function"
    },
    {
      "inputs": [
        {
          "internalType": "uint256",
          "name": "_tokenId",
          "type": "uint256"
        },
        {
          "internalType": "uint256",
          "name": "_amount",
          "type": "uint256"
        }
      ],
      "name": "buyCreatorToken",
      "outputs": [],
      "stateMutability": "payable",
      "type": "function",
      "payable": true
    },
    {
      "inputs": [
        {
          "internalType": "uint256",
          "name": "_tokenId",
          "type": "uint256"
        },
        {
          "internalType": "uint256",
          "name": "_amount",
          "type": "uint256"
        },
        {
          "internalType": "address payable",
          "name": "_seller",
          "type": "address"
        }
      ],
      "name": "sellCreatorToken",
      "outputs": [],
      "stateMutability": "payable",
      "type": "function",
      "payable": true
    }
  ],
  "bytecode": "0x6080604052600180556000600255600060035560146004556009600555620186a06006553480156200003057600080fd5b506040516200652d3803806200652d8339818101604052810190620000569190620005c7565b80808060006200006b620001e560201b60201c565b9050806000806101000a81548173ffffffffffffffffffffffffffffffffffffffff021916908373ffffffffffffffffffffffffffffffffffffffff1602179055508073ffffffffffffffffffffffffffffffffffffffff16600073ffffffffffffffffffffffffffffffffffffffff167f8be0079c531659141344cd1fd0a4f28419497f9722a3daafe3b4186f6b6457e060405160405180910390a3506200011a81620001ed60201b60201c565b506000601260006101000a81548160ff0219169083151502179055506200015a6000801b6200014e620001e560201b60201c565b6200020960201b60201c565b6200019b7f9f2df0fed2c77648de5860a4cc508cd0818c85b8b8a1ab4ceeef8d981c8956a66200018f620001e560201b60201c565b6200020960201b60201c565b620001dc7f65d7a28e3265b37a6474929f336521b332c1681b933f6cb9f3376673440d862a620001d0620001e560201b60201c565b6200020960201b60201c565b5050506200079c565b600033905090565b80601190805190602001906200020592919062000499565b5050565b6200022082826200025160201b62002e8e1760201c565b6200024c81600e60008581526020019081526020016000206200026760201b62002e9c1790919060201c565b505050565b6200026382826200029f60201b60201c565b5050565b600062000297836000018373ffffffffffffffffffffffffffffffffffffffff1660001b6200039160201b60201c565b905092915050565b620002b182826200040b60201b60201c565b6200038d576001600d600084815260200190815260200160002060000160008373ffffffffffffffffffffffffffffffffffffffff1673ffffffffffffffffffffffffffffffffffffffff16815260200190815260200160002060006101000a81548160ff02191690831515021790555062000332620001e560201b60201c565b73ffffffffffffffffffffffffffffffffffffffff168173ffffffffffffffffffffffffffffffffffffffff16837f2f8788117e7eff1d82e926ec794901d17c78024a50270940304540a733656f0d60405160405180910390a45b5050565b6000620003a583836200047660201b60201c565b6200040057826000018290806001815401808255809150506001900390600052602060002001600090919091909150558260000180549050836001016000848152602001908152602001600020819055506001905062000405565b600090505b92915050565b6000600d600084815260200190815260200160002060000160008373ffffffffffffffffffffffffffffffffffffffff1673ffffffffffffffffffffffffffffffffffffffff16815260200190815260200160002060009054906101000a900460ff16905092915050565b600080836001016000848152602001908152602001600020541415905092915050565b828054620004a790620006ad565b90600052602060002090601f016020900481019282620004cb576000855562000517565b82601f10620004e657805160ff191683800117855562000517565b8280016001018555821562000517579182015b8281111562000516578251825591602001919060010190620004f9565b5b5090506200052691906200052a565b5090565b5b80821115620005455760008160009055506001016200052b565b5090565b6000620005606200055a8462000641565b62000618565b9050828152602081018484840111156200057f576200057e6200077c565b5b6200058c84828562000677565b509392505050565b600082601f830112620005ac57620005ab62000777565b5b8151620005be84826020860162000549565b91505092915050565b600060208284031215620005e057620005df62000786565b5b600082015167ffffffffffffffff81111562000601576200060062000781565b5b6200060f8482850162000594565b91505092915050565b60006200062462000637565b9050620006328282620006e3565b919050565b6000604051905090565b600067ffffffffffffffff8211156200065f576200065e62000748565b5b6200066a826200078b565b9050602081019050919050565b60005b83811015620006975780820151818401526020810190506200067a565b83811115620006a7576000848401525b50505050565b60006002820490506001821680620006c657607f821691505b60208210811415620006dd57620006dc62000719565b5b50919050565b620006ee826200078b565b810181811067ffffffffffffffff8211171562000710576200070f62000748565b5b80604052505050565b7f4e487b7100000000000000000000000000000000000000000000000000000000600052602260045260246000fd5b7f4e487b7100000000000000000000000000000000000000000000000000000000600052604160045260246000fd5b600080fd5b600080fd5b600080fd5b600080fd5b6000601f19601f8301169050919050565b615d8180620007ac6000396000f3fe6080604052600436106102665760003560e01c806391d1485411610144578063d56b72c7116100b6578063eb8417591161007a578063eb84175914610952578063f242432a1461097b578063f2fde38b146109a4578063f5298aca146109cd578063f7374e2e146109f6578063fffae94114610a1f57610266565b8063d56b72c71461086f578063d7a5791a14610898578063de6a06ed146108c1578063e63ab1e9146108ea578063e985e9c51461091557610266565b8063c39cbef111610108578063c39cbef114610749578063c539c31714610772578063ca15c8731461079b578063ce901d8a146107d8578063d53913931461081b578063d547741f1461084657610266565b806391d148541461063e57806392724afa1461067b578063a217fddf146106b8578063a22cb465146106e3578063bfb48c9c1461070c57610266565b806336568abe116101dd5780636b20c454116101a15780636b20c45414610556578063715018a61461057f578063731133e9146105965780638456cb59146105bf5780638da5cb5b146105d65780639010d07c1461060157610266565b806336568abe146104855780633f4ba83a146104ae5780634e1273f4146104c557806351cff8d9146105025780635c975abb1461052b57610266565b80631d5ad18b1161022f5780631d5ad18b146103885780631f7fdffa146103b1578063248a9ca3146103da5780632dcfdaf7146104175780632eb2c2d6146104335780632f2ff15d1461045c57610266565b8062fdd58e1461026b57806301ffc9a7146102a857806306e320f5146102e55780630e89341c1461030e57806318892ae81461034b575b600080fd5b34801561027757600080fd5b50610292600480360381019061028d91906148ef565b610a3b565b60405161029f919061536b565b60405180910390f35b3480156102b457600080fd5b506102cf60048036038101906102ca9190614b33565b610a96565b6040516102dc91906151f3565b60405180910390f35b3480156102f157600080fd5b5061030c60048036038101906103079190614c4d565b610aa8565b005b34801561031a57600080fd5b5061033560048036038101906103309190614b60565b610b4f565b6040516103429190615229565b60405180910390f35b34801561035757600080fd5b50610372600480360381019061036d9190614b60565b610be3565b60405161037f91906150fb565b60405180910390f35b34801561039457600080fd5b506103af60048036038101906103aa9190614bcd565b610c16565b005b3480156103bd57600080fd5b506103d860048036038101906103d391906147f4565b610ceb565b005b3480156103e657600080fd5b5061040160048036038101906103fc9190614a86565b610e9b565b60405161040e919061520e565b60405180910390f35b610431600480360381019061042c9190614ced565b610ebb565b005b34801561043f57600080fd5b5061045a60048036038101906104559190614603565b61112d565b005b34801561046857600080fd5b50610483600480360381019061047e9190614ab3565b611308565b005b34801561049157600080fd5b506104ac60048036038101906104a79190614ab3565b61133c565b005b3480156104ba57600080fd5b506104c3611370565b005b3480156104d157600080fd5b506104ec60048036038101906104e79190614a05565b6113ea565b6040516104f9919061519a565b60405180910390f35b34801561050e57600080fd5b50610529600480360381019061052491906144db565b61151a565b005b34801561053757600080fd5b506105406115e0565b60405161054d91906151f3565b60405180910390f35b34801561056257600080fd5b5061057d60048036038101906105789190614769565b6115f7565b005b34801561058b57600080fd5b506105946117a6565b005b3480156105a257600080fd5b506105bd60048036038101906105b89190614982565b6118e0565b005b3480156105cb57600080fd5b506105d4611a08565b005b3480156105e257600080fd5b506105eb611a82565b6040516105f891906150fb565b60405180910390f35b34801561060d57600080fd5b5061062860048036038101906106239190614af3565b611aab565b60405161063591906150fb565b60405180910390f35b34801561064a57600080fd5b5061066560048036038101906106609190614ab3565b611ada565b60405161067291906151f3565b60405180910390f35b34801561068757600080fd5b506106a2600480360381019061069d91906148ef565b611b45565b6040516106af919061536b565b60405180910390f35b3480156106c457600080fd5b506106cd611b6a565b6040516106da919061520e565b60405180910390f35b3480156106ef57600080fd5b5061070a600480360381019061070591906148af565b611b71565b005b34801561071857600080fd5b50610733600480360381019061072e9190614b8d565b611c6e565b604051610740919061536b565b60405180910390f35b34801561075557600080fd5b50610770600480360381019061076b9190614c4d565b611c93565b005b34801561077e57600080fd5b5061079960048036038101906107949190614b60565b611d3a565b005b3480156107a757600080fd5b506107c260048036038101906107bd9190614a86565b611dc0565b6040516107cf919061536b565b60405180910390f35b3480156107e457600080fd5b506107ff60048036038101906107fa9190614b60565b611de4565b6040516108129796959493929190615116565b60405180910390f35b34801561082757600080fd5b50610830611ffb565b60405161083d919061520e565b60405180910390f35b34801561085257600080fd5b5061086d60048036038101906108689190614ab3565b61201f565b005b34801561087b57600080fd5b5061089660048036038101906108919190614508565b612053565b005b3480156108a457600080fd5b506108bf60048036038101906108ba9190614b60565b612263565b005b3480156108cd57600080fd5b506108e860048036038101906108e39190614c4d565b6122e9565b005b3480156108f657600080fd5b506108ff612390565b60405161090c919061520e565b60405180910390f35b34801561092157600080fd5b5061093c600480360381019061093791906145c3565b6123b4565b60405161094991906151f3565b60405180910390f35b34801561095e57600080fd5b50610979600480360381019061097491906144db565b612448565b005b34801561098757600080fd5b506109a2600480360381019061099d91906146d2565b612518565b005b3480156109b057600080fd5b506109cb60048036038101906109c691906144ae565b61266b565b005b3480156109d957600080fd5b506109f460048036038101906109ef919061492f565b612814565b005b348015610a0257600080fd5b50610a1d6004803603810190610a189190614c0d565b61293b565b005b610a396004803603810190610a349190614cad565b6129f8565b005b6000600a600083815260200190815260200160002060008473ffffffffffffffffffffffffffffffffffffffff1673ffffffffffffffffffffffffffffffffffffffff16815260200190815260200160002054905092915050565b6000610aa182612ecc565b9050919050565b826008600082815260200190815260200160002060009054906101000a900473ffffffffffffffffffffffffffffffffffffffff1673ffffffffffffffffffffffffffffffffffffffff163373ffffffffffffffffffffffffffffffffffffffff1614610b1457600080fd5b828260078681548110610b2a57610b29615961565b5b90600052602060002090600702016002019190610b48929190614087565b5050505050565b606060118054610b5e906157f9565b80601f0160208091040260200160405190810160405280929190818152602001828054610b8a906157f9565b8015610bd75780601f10610bac57610100808354040283529160200191610bd7565b820191906000526020600020905b815481529060010190602001808311610bba57829003601f168201915b50505050509050919050565b60086020528060005260406000206000915054906101000a900473ffffffffffffffffffffffffffffffffffffffff1681565b816008600082815260200190815260200160002060009054906101000a900473ffffffffffffffffffffffffffffffffffffffff1673ffffffffffffffffffffffffffffffffffffffff163373ffffffffffffffffffffffffffffffffffffffff1614610c8257600080fd5b8160078481548110610c9757610c96615961565b5b906000526020600020906007020160000160006101000a81548173ffffffffffffffffffffffffffffffffffffffff021916908373ffffffffffffffffffffffffffffffffffffffff160217905550505050565b60005b8351811015610e1557828181518110610d0a57610d09615961565b5b6020026020010151600a6000868481518110610d2957610d28615961565b5b6020026020010151815260200190815260200160002060008773ffffffffffffffffffffffffffffffffffffffff1673ffffffffffffffffffffffffffffffffffffffff1681526020019081526020016000206000828254610d8b91906155e8565b92505081905550828181518110610da557610da4615961565b5b60200260200101516007858381518110610dc257610dc1615961565b5b602002602001015181548110610ddb57610dda615961565b5b90600052602060002090600702016005016000828254610dfb91906155e8565b925050819055508080610e0d9061585c565b915050610cee565b508373ffffffffffffffffffffffffffffffffffffffff16600073ffffffffffffffffffffffffffffffffffffffff163373ffffffffffffffffffffffffffffffffffffffff167f4a39dc06d4c0dbc64b70af90fd698a233a518aa5d07e595d983b8c0526c8f7fb8686604051610e8d9291906151bc565b60405180910390a450505050565b6000600d6000838152602001908152602001600020600101549050919050565b3373ffffffffffffffffffffffffffffffffffffffff168173ffffffffffffffffffffffffffffffffffffffff1614610ef357600080fd5b60008060078581548110610f0a57610f09615961565b5b9060005260206000209060070201600501549050610f57818560055460065460078a81548110610f3d57610f3c615961565b5b906000526020600020906007020160060154600454612fae565b9150610f64838686612814565b8273ffffffffffffffffffffffffffffffffffffffff166108fc67d02ab486cedc00009081150290604051600060405180830381858888f19350505050158015610fb2573d6000803e3d6000fd5b5083600a600087815260200190815260200160002060003373ffffffffffffffffffffffffffffffffffffffff1673ffffffffffffffffffffffffffffffffffffffff168152602001908152602001600020600082825461101391906156c9565b9250508190555083600b60003373ffffffffffffffffffffffffffffffffffffffff1673ffffffffffffffffffffffffffffffffffffffff1681526020019081526020016000206000878152602001908152602001600020600082825461107a91906156c9565b9250508190555061108a82613027565b3373ffffffffffffffffffffffffffffffffffffffff167f1ebb537d8231cf8a6b1b0d1684d85dfd83872c030ffc75f500f0729eaf674d828587600789815481106110d8576110d7615961565b5b906000526020600020906007020160010160078a815481106110fd576110fc615961565b5b906000526020600020906007020160020160405161111e9493929190615431565b60405180910390a25050505050565b60005b83518110156112825782818151811061114c5761114b615961565b5b6020026020010151600a600086848151811061116b5761116a615961565b5b6020026020010151815260200190815260200160002060008873ffffffffffffffffffffffffffffffffffffffff1673ffffffffffffffffffffffffffffffffffffffff16815260200190815260200160002060008282546111cd91906156c9565b925050819055508281815181106111e7576111e6615961565b5b6020026020010151600a600086848151811061120657611205615961565b5b6020026020010151815260200190815260200160002060008773ffffffffffffffffffffffffffffffffffffffff1673ffffffffffffffffffffffffffffffffffffffff168152602001908152602001600020600082825461126891906155e8565b92505081905550808061127a9061585c565b915050611130565b508373ffffffffffffffffffffffffffffffffffffffff168573ffffffffffffffffffffffffffffffffffffffff163373ffffffffffffffffffffffffffffffffffffffff167f4a39dc06d4c0dbc64b70af90fd698a233a518aa5d07e595d983b8c0526c8f7fb86866040516112f99291906151bc565b60405180910390a45050505050565b611312828261308e565b61133781600e6000858152602001908152602001600020612e9c90919063ffffffff16565b505050565b61134682826130b7565b61136b81600e600085815260200190815260200160002061313a90919063ffffffff16565b505050565b6113a17f65d7a28e3265b37a6474929f336521b332c1681b933f6cb9f3376673440d862a61139c61316a565b611ada565b6113e0576040517f08c379a00000000000000000000000000000000000000000000000000000000081526004016113d79061530b565b60405180910390fd5b6113e8613172565b565b606060008585905067ffffffffffffffff81111561140b5761140a615990565b5b6040519080825280602002602001820160405280156114395781602001602082028036833780820191505090505b50905060005b8686905081101561150d57600a600086868481811061146157611460615961565b5b905060200201358152602001908152602001600020600088888481811061148b5761148a615961565b5b90506020020160208101906114a091906144ae565b73ffffffffffffffffffffffffffffffffffffffff1673ffffffffffffffffffffffffffffffffffffffff168152602001908152602001600020548282815181106114ee576114ed615961565b5b60200260200101818152505080806115059061585c565b91505061143f565b5080915050949350505050565b61152261316a565b73ffffffffffffffffffffffffffffffffffffffff16611540611a82565b73ffffffffffffffffffffffffffffffffffffffff1614611596576040517f08c379a000000000000000000000000000000000000000000000000000000000815260040161158d906152eb565b60405180910390fd5b8073ffffffffffffffffffffffffffffffffffffffff166108fc479081150290604051600060405180830381858888f193505050501580156115dc573d6000803e3d6000fd5b5050565b6000601260009054906101000a900460ff16905090565b60005b82518110156117215781818151811061161657611615615961565b5b6020026020010151600a600085848151811061163557611634615961565b5b6020026020010151815260200190815260200160002060008673ffffffffffffffffffffffffffffffffffffffff1673ffffffffffffffffffffffffffffffffffffffff168152602001908152602001600020600082825461169791906156c9565b925050819055508181815181106116b1576116b0615961565b5b602002602001015160078483815181106116ce576116cd615961565b5b6020026020010151815481106116e7576116e6615961565b5b9060005260206000209060070201600501600082825461170791906156c9565b9250508190555080806117199061585c565b9150506115fa565b50600073ffffffffffffffffffffffffffffffffffffffff168373ffffffffffffffffffffffffffffffffffffffff163373ffffffffffffffffffffffffffffffffffffffff167f4a39dc06d4c0dbc64b70af90fd698a233a518aa5d07e595d983b8c0526c8f7fb85856040516117999291906151bc565b60405180910390a4505050565b6117ae61316a565b73ffffffffffffffffffffffffffffffffffffffff166117cc611a82565b73ffffffffffffffffffffffffffffffffffffffff1614611822576040517f08c379a0000000000000000000000000000000000000000000000000000000008152600401611819906152eb565b60405180910390fd5b600073ffffffffffffffffffffffffffffffffffffffff1660008054906101000a900473ffffffffffffffffffffffffffffffffffffffff1673ffffffffffffffffffffffffffffffffffffffff167f8be0079c531659141344cd1fd0a4f28419497f9722a3daafe3b4186f6b6457e060405160405180910390a360008060006101000a81548173ffffffffffffffffffffffffffffffffffffffff021916908373ffffffffffffffffffffffffffffffffffffffff160217905550565b81600a600085815260200190815260200160002060008673ffffffffffffffffffffffffffffffffffffffff1673ffffffffffffffffffffffffffffffffffffffff168152602001908152602001600020600082825461194091906155e8565b92505081905550816007848154811061195c5761195b615961565b5b9060005260206000209060070201600501600082825461197c91906155e8565b925050819055508373ffffffffffffffffffffffffffffffffffffffff16600073ffffffffffffffffffffffffffffffffffffffff163373ffffffffffffffffffffffffffffffffffffffff167fc3d58168c5ae7397731d063d5bbf3d657854427343f4c083240f7aacaa2d0f6286866040516119fa929190615497565b60405180910390a450505050565b611a397f65d7a28e3265b37a6474929f336521b332c1681b933f6cb9f3376673440d862a611a3461316a565b611ada565b611a78576040517f08c379a0000000000000000000000000000000000000000000000000000000008152600401611a6f9061532b565b60405180910390fd5b611a80613214565b565b60008060009054906101000a900473ffffffffffffffffffffffffffffffffffffffff16905090565b6000611ad282600e60008681526020019081526020016000206132b790919063ffffffff16565b905092915050565b6000600d600084815260200190815260200160002060000160008373ffffffffffffffffffffffffffffffffffffffff1673ffffffffffffffffffffffffffffffffffffffff16815260200190815260200160002060009054906101000a900460ff16905092915050565b600b602052816000526040600020602052806000526040600020600091509150505481565b6000801b81565b80600c60003373ffffffffffffffffffffffffffffffffffffffff1673ffffffffffffffffffffffffffffffffffffffff16815260200190815260200160002060008473ffffffffffffffffffffffffffffffffffffffff1673ffffffffffffffffffffffffffffffffffffffff16815260200190815260200160002060006101000a81548160ff0219169083151502179055508173ffffffffffffffffffffffffffffffffffffffff163373ffffffffffffffffffffffffffffffffffffffff167f17307eab39ab6107e8899845ad3d59bd9653f200f220920489ca2b5937696c3183604051611c6291906151f3565b60405180910390a35050565b600a602052816000526040600020602052806000526040600020600091509150505481565b826008600082815260200190815260200160002060009054906101000a900473ffffffffffffffffffffffffffffffffffffffff1673ffffffffffffffffffffffffffffffffffffffff163373ffffffffffffffffffffffffffffffffffffffff1614611cff57600080fd5b828260078681548110611d1557611d14615961565b5b90600052602060002090600702016001019190611d33929190614087565b5050505050565b611d4261316a565b73ffffffffffffffffffffffffffffffffffffffff16611d60611a82565b73ffffffffffffffffffffffffffffffffffffffff1614611db6576040517f08c379a0000000000000000000000000000000000000000000000000000000008152600401611dad906152eb565b60405180910390fd5b8060048190555050565b6000611ddd600e60008481526020019081526020016000206132d1565b9050919050565b60078181548110611df457600080fd5b90600052602060002090600702016000915090508060000160009054906101000a900473ffffffffffffffffffffffffffffffffffffffff1690806001018054611e3d906157f9565b80601f0160208091040260200160405190810160405280929190818152602001828054611e69906157f9565b8015611eb65780601f10611e8b57610100808354040283529160200191611eb6565b820191906000526020600020905b815481529060010190602001808311611e9957829003601f168201915b505050505090806002018054611ecb906157f9565b80601f0160208091040260200160405190810160405280929190818152602001828054611ef7906157f9565b8015611f445780601f10611f1957610100808354040283529160200191611f44565b820191906000526020600020905b815481529060010190602001808311611f2757829003601f168201915b505050505090806003018054611f59906157f9565b80601f0160208091040260200160405190810160405280929190818152602001828054611f85906157f9565b8015611fd25780601f10611fa757610100808354040283529160200191611fd2565b820191906000526020600020905b815481529060010190602001808311611fb557829003601f168201915b5050505050908060040160009054906101000a900460ff16908060050154908060060154905087565b7f9f2df0fed2c77648de5860a4cc508cd0818c85b8b8a1ab4ceeef8d981c8956a681565b61202982826132e6565b61204e81600e600085815260200190815260200160002061313a90919063ffffffff16565b505050565b60076040518060e001604052808673ffffffffffffffffffffffffffffffffffffffff168152602001858152602001848152602001838152602001600015158152602001600081526020016000815250908060018154018082558091505060019003906000526020600020906007020160009091909190915060008201518160000160006101000a81548173ffffffffffffffffffffffffffffffffffffffff021916908373ffffffffffffffffffffffffffffffffffffffff160217905550602082015181600101908051906020019061212f92919061410d565b50604082015181600201908051906020019061214c92919061410d565b50606082015181600301908051906020019061216992919061410d565b5060808201518160040160006101000a81548160ff02191690831515021790555060a0820151816005015560c082015181600601555050600060016007805490506121b491906156c9565b9050846008600083815260200190815260200160002060006101000a81548173ffffffffffffffffffffffffffffffffffffffff021916908373ffffffffffffffffffffffffffffffffffffffff160217905550600060096000838152602001908152602001600020819055507f01e9d0e2208938b5d6a39db5244c8dca0b77eb386bf3705fe751005e7e0ca16c81858560405161225493929190615386565b60405180910390a15050505050565b61226b61316a565b73ffffffffffffffffffffffffffffffffffffffff16612289611a82565b73ffffffffffffffffffffffffffffffffffffffff16146122df576040517f08c379a00000000000000000000000000000000000000000000000000000000081526004016122d6906152eb565b60405180910390fd5b8060018190555050565b826008600082815260200190815260200160002060009054906101000a900473ffffffffffffffffffffffffffffffffffffffff1673ffffffffffffffffffffffffffffffffffffffff163373ffffffffffffffffffffffffffffffffffffffff161461235557600080fd5b82826007868154811061236b5761236a615961565b5b90600052602060002090600702016003019190612389929190614087565b5050505050565b7f65d7a28e3265b37a6474929f336521b332c1681b933f6cb9f3376673440d862a81565b6000600c60008473ffffffffffffffffffffffffffffffffffffffff1673ffffffffffffffffffffffffffffffffffffffff16815260200190815260200160002060008373ffffffffffffffffffffffffffffffffffffffff1673ffffffffffffffffffffffffffffffffffffffff16815260200190815260200160002060009054906101000a900460ff16905092915050565b61245061316a565b73ffffffffffffffffffffffffffffffffffffffff1661246e611a82565b73ffffffffffffffffffffffffffffffffffffffff16146124c4576040517f08c379a00000000000000000000000000000000000000000000000000000000081526004016124bb906152eb565b60405180910390fd5b8073ffffffffffffffffffffffffffffffffffffffff166108fc6003549081150290604051600060405180830381858888f1935050505015801561250c573d6000803e3d6000fd5b50600060038190555050565b81600a600085815260200190815260200160002060008773ffffffffffffffffffffffffffffffffffffffff1673ffffffffffffffffffffffffffffffffffffffff168152602001908152602001600020600082825461257891906156c9565b9250508190555081600a600085815260200190815260200160002060008673ffffffffffffffffffffffffffffffffffffffff1673ffffffffffffffffffffffffffffffffffffffff16815260200190815260200160002060008282546125df91906155e8565b925050819055508373ffffffffffffffffffffffffffffffffffffffff168573ffffffffffffffffffffffffffffffffffffffff163373ffffffffffffffffffffffffffffffffffffffff167fc3d58168c5ae7397731d063d5bbf3d657854427343f4c083240f7aacaa2d0f62868660405161265c929190615497565b60405180910390a45050505050565b61267361316a565b73ffffffffffffffffffffffffffffffffffffffff16612691611a82565b73ffffffffffffffffffffffffffffffffffffffff16146126e7576040517f08c379a00000000000000000000000000000000000000000000000000000000081526004016126de906152eb565b60405180910390fd5b600073ffffffffffffffffffffffffffffffffffffffff168173ffffffffffffffffffffffffffffffffffffffff161415612757576040517f08c379a000000000000000000000000000000000000000000000000000000000815260040161274e906152ab565b60405180910390fd5b8073ffffffffffffffffffffffffffffffffffffffff1660008054906101000a900473ffffffffffffffffffffffffffffffffffffffff1673ffffffffffffffffffffffffffffffffffffffff167f8be0079c531659141344cd1fd0a4f28419497f9722a3daafe3b4186f6b6457e060405160405180910390a3806000806101000a81548173ffffffffffffffffffffffffffffffffffffffff021916908373ffffffffffffffffffffffffffffffffffffffff16021790555050565b80600a600084815260200190815260200160002060008573ffffffffffffffffffffffffffffffffffffffff1673ffffffffffffffffffffffffffffffffffffffff168152602001908152602001600020600082825461287491906156c9565b9250508190555080600783815481106128905761288f615961565b5b906000526020600020906007020160050160008282546128b091906156c9565b92505081905550600073ffffffffffffffffffffffffffffffffffffffff168373ffffffffffffffffffffffffffffffffffffffff163373ffffffffffffffffffffffffffffffffffffffff167fc3d58168c5ae7397731d063d5bbf3d657854427343f4c083240f7aacaa2d0f62858560405161292e929190615497565b60405180910390a4505050565b61294361316a565b73ffffffffffffffffffffffffffffffffffffffff16612961611a82565b73ffffffffffffffffffffffffffffffffffffffff16146129b7576040517f08c379a00000000000000000000000000000000000000000000000000000000081526004016129ae906152eb565b60405180910390fd5b80600783815481106129cc576129cb615961565b5b906000526020600020906007020160040160006101000a81548160ff0219169083151502179055505050565b60008060078481548110612a0f57612a0e615961565b5b906000526020600020906007020160050154905060008382612a3191906155e8565b905060078581548110612a4757612a46615961565b5b906000526020600020906007020160060154811015612aa057612a99828560055460065460078a81548110612a7f57612a7e615961565b5b906000526020600020906007020160060154600454612fae565b9250612bf3565b60078581548110612ab457612ab3615961565b5b906000526020600020906007020160060154821015612bdf57612b5b60078681548110612ae457612ae3615961565b5b9060005260206000209060070201600601548360078881548110612b0b57612b0a615961565b5b906000526020600020906007020160060154612b2791906156c9565b60055460065460078a81548110612b4157612b40615961565b5b906000526020600020906007020160060154600454612fae565b9250612bcd60078681548110612b7457612b73615961565b5b9060005260206000209060070201600601548360078881548110612b9b57612b9a615961565b5b906000526020600020906007020160060154612bb791906156c9565b86612bc291906156c9565b60055460065461330f565b83612bd891906155e8565b9250612bf2565b612bef828560055460065461330f565b92505b5b6801158e460913d000003414612c0857600080fd5b612c1183613027565b612c2c338686604051806020016040528060008152506118e0565b83600a600087815260200190815260200160002060003373ffffffffffffffffffffffffffffffffffffffff1673ffffffffffffffffffffffffffffffffffffffff1681526020019081526020016000206000828254612c8c91906155e8565b9250508190555083600b60003373ffffffffffffffffffffffffffffffffffffffff1673ffffffffffffffffffffffffffffffffffffffff16815260200190815260200160002060008781526020019081526020016000206000828254612cf391906155e8565b925050819055503373ffffffffffffffffffffffffffffffffffffffff167f1ebb537d8231cf8a6b1b0d1684d85dfd83872c030ffc75f500f0729eaf674d82858760078981548110612d4857612d47615961565b5b906000526020600020906007020160010160078a81548110612d6d57612d6c615961565b5b9060005260206000209060070201600201604051612d8e94939291906153cb565b60405180910390a260078581548110612daa57612da9615961565b5b90600052602060002090600702016006015460078681548110612dd057612dcf615961565b5b9060005260206000209060070201600501541115612e875760078581548110612dfc57612dfb615961565b5b90600052602060002090600702016005015460078681548110612e2257612e21615961565b5b906000526020600020906007020160060181905550612e868560078781548110612e4f57612e4e615961565b5b906000526020600020906007020160000160009054906101000a900473ffffffffffffffffffffffffffffffffffffffff1661339d565b5b5050505050565b612e9882826134f2565b5050565b6000612ec4836000018373ffffffffffffffffffffffffffffffffffffffff1660001b6135d3565b905092915050565b60007fd9b67a26000000000000000000000000000000000000000000000000000000007bffffffffffffffffffffffffffffffffffffffffffffffffffffffff1916827bffffffffffffffffffffffffffffffffffffffffffffffffffffffff19161480612f9757507f0e89341c000000000000000000000000000000000000000000000000000000007bffffffffffffffffffffffffffffffffffffffffffffffffffffffff1916827bffffffffffffffffffffffffffffffffffffffffffffffffffffffff1916145b80612fa75750612fa682613643565b5b9050919050565b600080600080612fc28a8a8a8a8a8a6136bd565b9250925092506000838b1015612fe557612fde84848d85613771565b9050613016565b8382101561300357612ffc84848d858d8d8d613814565b9050613015565b61301284848d858d8d8d613936565b90505b5b809450505050509695505050505050565b606460015482613037919061566f565b613041919061563e565b6002600082825461305291906155e8565b92505081905550606460015482613069919061566f565b613073919061563e565b6003600082825461308491906155e8565b9250508190555050565b61309782610e9b565b6130a8816130a361316a565b613a34565b6130b283836134f2565b505050565b6130bf61316a565b73ffffffffffffffffffffffffffffffffffffffff168173ffffffffffffffffffffffffffffffffffffffff161461312c576040517f08c379a00000000000000000000000000000000000000000000000000000000081526004016131239061534b565b60405180910390fd5b6131368282613ad1565b5050565b6000613162836000018373ffffffffffffffffffffffffffffffffffffffff1660001b613bb3565b905092915050565b600033905090565b61317a6115e0565b6131b9576040517f08c379a00000000000000000000000000000000000000000000000000000000081526004016131b09061528b565b60405180910390fd5b6000601260006101000a81548160ff0219169083151502179055507f5db9ee0a495bf2e6ff9c91a7834c1ba4fdd244a5e8aa4e537bd38aeae4b073aa6131fd61316a565b60405161320a91906150fb565b60405180910390a1565b61321c6115e0565b1561325c576040517f08c379a0000000000000000000000000000000000000000000000000000000008152600401613253906152cb565b60405180910390fd5b6001601260006101000a81548160ff0219169083151502179055507f62e78cea01bee320cd4e420270b5ea74000d11b0c9f74754ebdbfc544b05a2586132a061316a565b6040516132ad91906150fb565b60405180910390a1565b60006132c68360000183613cbf565b60001c905092915050565b60006132df82600001613d33565b9050919050565b6132ef82610e9b565b613300816132fb61316a565b613a34565b61330a8383613ad1565b505050565b600080848661331e91906155e8565b9050600083878661332f919061566f565b613339919061563e565b9050600084838761334a919061566f565b613354919061563e565b90506000888461336491906156c9565b90506000600282848661337791906155e8565b613381919061566f565b61338b919061563e565b90508095505050505050949350505050565b600060096000848152602001908152602001600020549050600061343a600785815481106133ce576133cd615961565b5b906000526020600020906007020160060154600786815481106133f4576133f3615961565b5b906000526020600020906007020160060154600554600654600789815481106134205761341f615961565b5b906000526020600020906007020160060154600454612fae565b61347060006007878154811061345357613452615961565b5b90600052602060002090600702016006015460055460065461330f565b61347a91906156c9565b90506000828261348a91906156c9565b90508373ffffffffffffffffffffffffffffffffffffffff166108fc829081150290604051600060405180830381858888f193505050501580156134d2573d6000803e3d6000fd5b508160096000878152602001908152602001600020819055505050505050565b6134fc8282611ada565b6135cf576001600d600084815260200190815260200160002060000160008373ffffffffffffffffffffffffffffffffffffffff1673ffffffffffffffffffffffffffffffffffffffff16815260200190815260200160002060006101000a81548160ff02191690831515021790555061357461316a565b73ffffffffffffffffffffffffffffffffffffffff168173ffffffffffffffffffffffffffffffffffffffff16837f2f8788117e7eff1d82e926ec794901d17c78024a50270940304540a733656f0d60405160405180910390a45b5050565b60006135df8383613d44565b61363857826000018290806001815401808255809150506001900390600052602060002001600090919091909150558260000180549050836001016000848152602001908152602001600020819055506001905061363d565b600090505b92915050565b60007f5a05180f000000000000000000000000000000000000000000000000000000007bffffffffffffffffffffffffffffffffffffffffffffffffffffffff1916827bffffffffffffffffffffffffffffffffffffffffffffffffffffffff191614806136b657506136b582613d67565b5b9050919050565b6000806000806002866136d0919061563e565b905060006002888a896136e3919061566f565b6136ed919061563e565b898b8a60648b60026136ff919061566f565b613709919061563e565b600261371591906156c9565b61371f919061566f565b613729919061566f565b613733919061563e565b61373d91906156c9565b613747919061563e565b905060008a8c61375791906156c9565b905082828295509550955050505096509650969350505050565b60008084838761378191906156c9565b878761378d919061563e565b613797919061566f565b6137a191906155e8565b905060008585886137b291906156c9565b88886137be919061563e565b6137c8919061566f565b6137d291906155e8565b9050600084866137e291906156c9565b905060028183856137f391906155e8565b6137fd919061566f565b613807919061563e565b9350505050949350505050565b60008087868a61382491906156c9565b8a8a613830919061563e565b61383a919061566f565b61384491906155e8565b905060008890506000878b61385991906156c9565b90506000600282848661386c91906155e8565b613876919061566f565b613880919061563e565b905060008b8d8c61389191906156c9565b8e8961389d91906156c9565b8e8b8b8e6138ab919061566f565b6138b5919061563e565b6138bf91906156c9565b6138c9919061563e565b6138d3919061566f565b6138dd91906155e8565b905060008d8c6138ed91906156c9565b90506000600282848861390091906155e8565b61390a919061566f565b613914919061563e565b9050808461392291906155e8565b975050505050505050979650505050505050565b60008087898761394691906156c9565b8a8561395291906156c9565b8a87878a613960919061566f565b61396a919061563e565b61397491906156c9565b61397e919061563e565b613988919061566f565b61399291906155e8565b90506000888a896139a391906156c9565b8b866139af91906156c9565b8b88888b6139bd919061566f565b6139c7919061563e565b6139d191906156c9565b6139db919061563e565b6139e5919061566f565b6139ef91906155e8565b9050600087896139ff91906156c9565b90506002818385613a1091906155e8565b613a1a919061566f565b613a24919061563e565b9350505050979650505050505050565b613a3e8282611ada565b613acd57613a638173ffffffffffffffffffffffffffffffffffffffff166014613de1565b613a718360001c6020613de1565b604051602001613a829291906150c1565b6040516020818303038152906040526040517f08c379a0000000000000000000000000000000000000000000000000000000008152600401613ac49190615229565b60405180910390fd5b5050565b613adb8282611ada565b15613baf576000600d600084815260200190815260200160002060000160008373ffffffffffffffffffffffffffffffffffffffff1673ffffffffffffffffffffffffffffffffffffffff16815260200190815260200160002060006101000a81548160ff021916908315150217905550613b5461316a565b73ffffffffffffffffffffffffffffffffffffffff168173ffffffffffffffffffffffffffffffffffffffff16837ff6391f5c32d9c69d2a47ea670b442974b53935d1edc7fd64eb21e047a839171b60405160405180910390a45b5050565b60008083600101600084815260200190815260200160002054905060008114613cb3576000600182613be591906156c9565b9050600060018660000180549050613bfd91906156c9565b90506000866000018281548110613c1757613c16615961565b5b9060005260206000200154905080876000018481548110613c3b57613c3a615961565b5b9060005260206000200181905550838760010160008381526020019081526020016000208190555086600001805480613c7757613c76615932565b5b60019003818190600052602060002001600090559055866001016000878152602001908152602001600020600090556001945050505050613cb9565b60009150505b92915050565b600081836000018054905011613d0a576040517f08c379a0000000000000000000000000000000000000000000000000000000008152600401613d019061524b565b60405180910390fd5b826000018281548110613d2057613d1f615961565b5b9060005260206000200154905092915050565b600081600001805490509050919050565b600080836001016000848152602001908152602001600020541415905092915050565b60007f7965db0b000000000000000000000000000000000000000000000000000000007bffffffffffffffffffffffffffffffffffffffffffffffffffffffff1916827bffffffffffffffffffffffffffffffffffffffffffffffffffffffff19161480613dda5750613dd98261401d565b5b9050919050565b606060006002836002613df4919061566f565b613dfe91906155e8565b67ffffffffffffffff811115613e1757613e16615990565b5b6040519080825280601f01601f191660200182016040528015613e495781602001600182028036833780820191505090505b5090507f300000000000000000000000000000000000000000000000000000000000000081600081518110613e8157613e80615961565b5b60200101907effffffffffffffffffffffffffffffffffffffffffffffffffffffffffffff1916908160001a9053507f780000000000000000000000000000000000000000000000000000000000000081600181518110613ee557613ee4615961565b5b60200101907effffffffffffffffffffffffffffffffffffffffffffffffffffffffffffff1916908160001a90535060006001846002613f25919061566f565b613f2f91906155e8565b90505b6001811115613fcf577f3031323334353637383961626364656600000000000000000000000000000000600f861660108110613f7157613f70615961565b5b1a60f81b828281518110613f8857613f87615961565b5b60200101907effffffffffffffffffffffffffffffffffffffffffffffffffffffffffffff1916908160001a905350600485901c945080613fc8906157cf565b9050613f32565b5060008414614013576040517f08c379a000000000000000000000000000000000000000000000000000000000815260040161400a9061526b565b60405180910390fd5b8091505092915050565b60007f01ffc9a7000000000000000000000000000000000000000000000000000000007bffffffffffffffffffffffffffffffffffffffffffffffffffffffff1916827bffffffffffffffffffffffffffffffffffffffffffffffffffffffff1916149050919050565b828054614093906157f9565b90600052602060002090601f0160209004810192826140b557600085556140fc565b82601f106140ce57803560ff19168380011785556140fc565b828001600101855582156140fc579182015b828111156140fb5782358255916020019190600101906140e0565b5b5090506141099190614193565b5090565b828054614119906157f9565b90600052602060002090601f01602090048101928261413b5760008555614182565b82601f1061415457805160ff1916838001178555614182565b82800160010185558215614182579182015b82811115614181578251825591602001919060010190614166565b5b50905061418f9190614193565b5090565b5b808211156141ac576000816000905550600101614194565b5090565b60006141c36141be846154e5565b6154c0565b905080838252602082019050828560208602820111156141e6576141e56159c9565b5b60005b8581101561421657816141fc8882614499565b8452602084019350602083019250506001810190506141e9565b5050509392505050565b600061423361422e84615511565b6154c0565b90508281526020810184848401111561424f5761424e6159ce565b5b61425a84828561578d565b509392505050565b600061427561427084615542565b6154c0565b905082815260208101848484011115614291576142906159ce565b5b61429c84828561578d565b509392505050565b6000813590506142b381615cc1565b92915050565b6000813590506142c881615cd8565b92915050565b60008083601f8401126142e4576142e36159c4565b5b8235905067ffffffffffffffff811115614301576143006159bf565b5b60208301915083602082028301111561431d5761431c6159c9565b5b9250929050565b60008083601f84011261433a576143396159c4565b5b8235905067ffffffffffffffff811115614357576143566159bf565b5b602083019150836020820283011115614373576143726159c9565b5b9250929050565b600082601f83011261438f5761438e6159c4565b5b813561439f8482602086016141b0565b91505092915050565b6000813590506143b781615cef565b92915050565b6000813590506143cc81615d06565b92915050565b6000813590506143e181615d1d565b92915050565b600082601f8301126143fc576143fb6159c4565b5b813561440c848260208601614220565b91505092915050565b60008083601f84011261442b5761442a6159c4565b5b8235905067ffffffffffffffff811115614448576144476159bf565b5b602083019150836001820283011115614464576144636159c9565b5b9250929050565b600082601f8301126144805761447f6159c4565b5b8135614490848260208601614262565b91505092915050565b6000813590506144a881615d34565b92915050565b6000602082840312156144c4576144c36159d8565b5b60006144d2848285016142a4565b91505092915050565b6000602082840312156144f1576144f06159d8565b5b60006144ff848285016142b9565b91505092915050565b60008060008060808587031215614522576145216159d8565b5b6000614530878288016142b9565b945050602085013567ffffffffffffffff811115614551576145506159d3565b5b61455d8782880161446b565b935050604085013567ffffffffffffffff81111561457e5761457d6159d3565b5b61458a8782880161446b565b925050606085013567ffffffffffffffff8111156145ab576145aa6159d3565b5b6145b78782880161446b565b91505092959194509250565b600080604083850312156145da576145d96159d8565b5b60006145e8858286016142a4565b92505060206145f9858286016142a4565b9150509250929050565b600080600080600060a0868803121561461f5761461e6159d8565b5b600061462d888289016142a4565b955050602061463e888289016142a4565b945050604086013567ffffffffffffffff81111561465f5761465e6159d3565b5b61466b8882890161437a565b935050606086013567ffffffffffffffff81111561468c5761468b6159d3565b5b6146988882890161437a565b925050608086013567ffffffffffffffff8111156146b9576146b86159d3565b5b6146c5888289016143e7565b9150509295509295909350565b600080600080600060a086880312156146ee576146ed6159d8565b5b60006146fc888289016142a4565b955050602061470d888289016142a4565b945050604061471e88828901614499565b935050606061472f88828901614499565b925050608086013567ffffffffffffffff8111156147505761474f6159d3565b5b61475c888289016143e7565b9150509295509295909350565b600080600060608486031215614782576147816159d8565b5b6000614790868287016142a4565b935050602084013567ffffffffffffffff8111156147b1576147b06159d3565b5b6147bd8682870161437a565b925050604084013567ffffffffffffffff8111156147de576147dd6159d3565b5b6147ea8682870161437a565b9150509250925092565b6000806000806080858703121561480e5761480d6159d8565b5b600061481c878288016142a4565b945050602085013567ffffffffffffffff81111561483d5761483c6159d3565b5b6148498782880161437a565b935050604085013567ffffffffffffffff81111561486a576148696159d3565b5b6148768782880161437a565b925050606085013567ffffffffffffffff811115614897576148966159d3565b5b6148a3878288016143e7565b91505092959194509250565b600080604083850312156148c6576148c56159d8565b5b60006148d4858286016142a4565b92505060206148e5858286016143a8565b9150509250929050565b60008060408385031215614906576149056159d8565b5b6000614914858286016142a4565b925050602061492585828601614499565b9150509250929050565b600080600060608486031215614948576149476159d8565b5b6000614956868287016142a4565b935050602061496786828701614499565b925050604061497886828701614499565b9150509250925092565b6000806000806080858703121561499c5761499b6159d8565b5b60006149aa878288016142a4565b94505060206149bb87828801614499565b93505060406149cc87828801614499565b925050606085013567ffffffffffffffff8111156149ed576149ec6159d3565b5b6149f9878288016143e7565b91505092959194509250565b60008060008060408587031215614a1f57614a1e6159d8565b5b600085013567ffffffffffffffff811115614a3d57614a3c6159d3565b5b614a49878288016142ce565b9450945050602085013567ffffffffffffffff811115614a6c57614a6b6159d3565b5b614a7887828801614324565b925092505092959194509250565b600060208284031215614a9c57614a9b6159d8565b5b6000614aaa848285016143bd565b91505092915050565b60008060408385031215614aca57614ac96159d8565b5b6000614ad8858286016143bd565b9250506020614ae9858286016142a4565b9150509250929050565b60008060408385031215614b0a57614b096159d8565b5b6000614b18858286016143bd565b9250506020614b2985828601614499565b9150509250929050565b600060208284031215614b4957614b486159d8565b5b6000614b57848285016143d2565b91505092915050565b600060208284031215614b7657614b756159d8565b5b6000614b8484828501614499565b91505092915050565b60008060408385031215614ba457614ba36159d8565b5b6000614bb285828601614499565b9250506020614bc3858286016142a4565b9150509250929050565b60008060408385031215614be457614be36159d8565b5b6000614bf285828601614499565b9250506020614c03858286016142b9565b9150509250929050565b60008060408385031215614c2457614c236159d8565b5b6000614c3285828601614499565b9250506020614c43858286016143a8565b9150509250929050565b600080600060408486031215614c6657614c656159d8565b5b6000614c7486828701614499565b935050602084013567ffffffffffffffff811115614c9557614c946159d3565b5b614ca186828701614415565b92509250509250925092565b60008060408385031215614cc457614cc36159d8565b5b6000614cd285828601614499565b9250506020614ce385828601614499565b9150509250929050565b600080600060608486031215614d0657614d056159d8565b5b6000614d1486828701614499565b9350506020614d2586828701614499565b9250506040614d36868287016142b9565b9150509250925092565b6000614d4c83836150a3565b60208301905092915050565b614d618161570f565b82525050565b614d70816156fd565b82525050565b6000614d8182615598565b614d8b81856155bb565b9350614d9683615573565b8060005b83811015614dc7578151614dae8882614d40565b9750614db9836155ae565b925050600181019050614d9a565b5085935050505092915050565b614ddd81615721565b82525050565b614dec8161572d565b82525050565b6000614dfd826155a3565b614e0781856155cc565b9350614e1781856020860161579c565b614e20816159dd565b840191505092915050565b6000614e36826155a3565b614e4081856155dd565b9350614e5081856020860161579c565b80840191505092915050565b60008154614e69816157f9565b614e7381866155cc565b94506001821660008114614e8e5760018114614ea057614ed3565b60ff1983168652602086019350614ed3565b614ea985615583565b60005b83811015614ecb57815481890152600182019150602081019050614eac565b808801955050505b50505092915050565b6000614ee96022836155cc565b9150614ef4826159ee565b604082019050919050565b6000614f0c6020836155cc565b9150614f1782615a3d565b602082019050919050565b6000614f2f6014836155cc565b9150614f3a82615a66565b602082019050919050565b6000614f526026836155cc565b9150614f5d82615a8f565b604082019050919050565b6000614f756010836155cc565b9150614f8082615ade565b602082019050919050565b6000614f986003836155cc565b9150614fa382615b07565b602082019050919050565b6000614fbb6020836155cc565b9150614fc682615b30565b602082019050919050565b6000614fde603b836155cc565b9150614fe982615b59565b604082019050919050565b60006150016039836155cc565b915061500c82615ba8565b604082019050919050565b60006150246017836155dd565b915061502f82615bf7565b601782019050919050565b60006150476004836155cc565b915061505282615c20565b602082019050919050565b600061506a6011836155dd565b915061507582615c49565b601182019050919050565b600061508d602f836155cc565b915061509882615c72565b604082019050919050565b6150ac81615783565b82525050565b6150bb81615783565b82525050565b60006150cc82615017565b91506150d88285614e2b565b91506150e38261505d565b91506150ef8284614e2b565b91508190509392505050565b60006020820190506151106000830184614d67565b92915050565b600060e08201905061512b600083018a614d58565b818103602083015261513d8189614df2565b905081810360408301526151518188614df2565b905081810360608301526151658187614df2565b90506151746080830186614dd4565b61518160a08301856150b2565b61518e60c08301846150b2565b98975050505050505050565b600060208201905081810360008301526151b48184614d76565b905092915050565b600060408201905081810360008301526151d68185614d76565b905081810360208301526151ea8184614d76565b90509392505050565b60006020820190506152086000830184614dd4565b92915050565b60006020820190506152236000830184614de3565b92915050565b600060208201905081810360008301526152438184614df2565b905092915050565b6000602082019050818103600083015261526481614edc565b9050919050565b6000602082019050818103600083015261528481614eff565b9050919050565b600060208201905081810360008301526152a481614f22565b9050919050565b600060208201905081810360008301526152c481614f45565b9050919050565b600060208201905081810360008301526152e481614f68565b9050919050565b6000602082019050818103600083015261530481614fae565b9050919050565b6000602082019050818103600083015261532481614fd1565b9050919050565b6000602082019050818103600083015261534481614ff4565b9050919050565b6000602082019050818103600083015261536481615080565b9050919050565b600060208201905061538060008301846150b2565b92915050565b600060608201905061539b60008301866150b2565b81810360208301526153ad8185614df2565b905081810360408301526153c18184614df2565b9050949350505050565b600060a0820190506153e060008301876150b2565b81810360208301526153f181614f8b565b905061540060408301866150b2565b81810360608301526154128185614e5c565b905081810360808301526154268184614e5c565b905095945050505050565b600060a08201905061544660008301876150b2565b81810360208301526154578161503a565b905061546660408301866150b2565b81810360608301526154788185614e5c565b9050818103608083015261548c8184614e5c565b905095945050505050565b60006040820190506154ac60008301856150b2565b6154b960208301846150b2565b9392505050565b60006154ca6154db565b90506154d6828261582b565b919050565b6000604051905090565b600067ffffffffffffffff821115615500576154ff615990565b5b602082029050602081019050919050565b600067ffffffffffffffff82111561552c5761552b615990565b5b615535826159dd565b9050602081019050919050565b600067ffffffffffffffff82111561555d5761555c615990565b5b615566826159dd565b9050602081019050919050565b6000819050602082019050919050565b60008190508160005260206000209050919050565b600081519050919050565b600081519050919050565b6000602082019050919050565b600082825260208201905092915050565b600082825260208201905092915050565b600081905092915050565b60006155f382615783565b91506155fe83615783565b9250827fffffffffffffffffffffffffffffffffffffffffffffffffffffffffffffffff03821115615633576156326158a5565b5b828201905092915050565b600061564982615783565b915061565483615783565b925082615664576156636158d4565b5b828204905092915050565b600061567a82615783565b915061568583615783565b9250817fffffffffffffffffffffffffffffffffffffffffffffffffffffffffffffffff04831182151516156156be576156bd6158a5565b5b828202905092915050565b60006156d482615783565b91506156df83615783565b9250828210156156f2576156f16158a5565b5b828203905092915050565b600061570882615763565b9050919050565b600061571a82615763565b9050919050565b60008115159050919050565b6000819050919050565b60007fffffffff0000000000000000000000000000000000000000000000000000000082169050919050565b600073ffffffffffffffffffffffffffffffffffffffff82169050919050565b6000819050919050565b82818337600083830152505050565b60005b838110156157ba57808201518184015260208101905061579f565b838111156157c9576000848401525b50505050565b60006157da82615783565b915060008214156157ee576157ed6158a5565b5b600182039050919050565b6000600282049050600182168061581157607f821691505b6020821081141561582557615824615903565b5b50919050565b615834826159dd565b810181811067ffffffffffffffff8211171561585357615852615990565b5b80604052505050565b600061586782615783565b91507fffffffffffffffffffffffffffffffffffffffffffffffffffffffffffffffff82141561589a576158996158a5565b5b600182019050919050565b7f4e487b7100000000000000000000000000000000000000000000000000000000600052601160045260246000fd5b7f4e487b7100000000000000000000000000000000000000000000000000000000600052601260045260246000fd5b7f4e487b7100000000000000000000000000000000000000000000000000000000600052602260045260246000fd5b7f4e487b7100000000000000000000000000000000000000000000000000000000600052603160045260246000fd5b7f4e487b7100000000000000000000000000000000000000000000000000000000600052603260045260246000fd5b7f4e487b7100000000000000000000000000000000000000000000000000000000600052604160045260246000fd5b600080fd5b600080fd5b600080fd5b600080fd5b600080fd5b600080fd5b6000601f19601f8301169050919050565b7f456e756d657261626c655365743a20696e646578206f7574206f6620626f756e60008201527f6473000000000000000000000000000000000000000000000000000000000000602082015250565b7f537472696e67733a20686578206c656e67746820696e73756666696369656e74600082015250565b7f5061757361626c653a206e6f7420706175736564000000000000000000000000600082015250565b7f4f776e61626c653a206e6577206f776e657220697320746865207a65726f206160008201527f6464726573730000000000000000000000000000000000000000000000000000602082015250565b7f5061757361626c653a2070617573656400000000000000000000000000000000600082015250565b7f6275790000000000000000000000000000000000000000000000000000000000600082015250565b7f4f776e61626c653a2063616c6c6572206973206e6f7420746865206f776e6572600082015250565b7f455243313135355072657365744d696e7465725061757365723a206d7573742060008201527f686176652070617573657220726f6c6520746f20756e70617573650000000000602082015250565b7f455243313135355072657365744d696e7465725061757365723a206d7573742060008201527f686176652070617573657220726f6c6520746f20706175736500000000000000602082015250565b7f416363657373436f6e74726f6c3a206163636f756e7420000000000000000000600082015250565b7f73656c6c00000000000000000000000000000000000000000000000000000000600082015250565b7f206973206d697373696e6720726f6c6520000000000000000000000000000000600082015250565b7f416363657373436f6e74726f6c3a2063616e206f6e6c792072656e6f756e636560008201527f20726f6c657320666f722073656c660000000000000000000000000000000000602082015250565b615cca816156fd565b8114615cd557600080fd5b50565b615ce18161570f565b8114615cec57600080fd5b50565b615cf881615721565b8114615d0357600080fd5b50565b615d0f8161572d565b8114615d1a57600080fd5b50565b615d2681615737565b8114615d3157600080fd5b50565b615d3d81615783565b8114615d4857600080fd5b5056fea2646970667358221220b2ac6f3a0b030bd94a0cfc7909720e6bf73ab80505cd372d86a26d1cc6956b4b64736f6c63430008060033",
  "immutableReferences": {},
  "source": "// SPDX-License-Identifier: MIT\npragma solidity ^0.8.0;\n\nimport \"./creatortokenownership.sol\";\n\ncontract CreatorTokenExchange is CreatorTokenOwnership {\n\n\tconstructor(string memory uri) CreatorTokenOwnership(uri) { }\n\n\t// Event that fires when a new transaction occurs\n\tevent NewTransaction(address indexed account, uint amount, string transactionType, uint tokenId, string name, string symbol);\n\n\t// Allow user to buy a given CreatorToken from the platform\n\tfunction buyCreatorToken(uint _tokenId, uint _amount) external payable {\n\t\t// Initialize proceeds required;\n\t\tuint proceedsRequired = 0;\n\t\t// Initialize pre-transaction supply\n\t\tuint startingSupply = creatorTokens[_tokenId].outstanding;\n\t\t// Compute post-transaction supply\n\t\tuint endSupply = startingSupply + _amount;\n\t\t// Compute buy proceeds\n\t\t// Check if endSupply <= maxSupply\n\t\tif (endSupply < creatorTokens[_tokenId].maxSupply) {\n\t\t\t// Scenario in which entire transaction takes place below maxSupply\n\t\t\t// Just call s(x)\n\t\t\tproceedsRequired = _saleFunction(startingSupply, _amount, mNumerator, mDenominator, creatorTokens[_tokenId].maxSupply, profitMargin);\n\t\t} else if (startingSupply < creatorTokens[_tokenId].maxSupply){\n\t\t\t// Scenario in which supply begins below maxSupply and ends above pre-transaction maxSupply\n\t\t\t// Use s(x) from startingSupply to maxSupply\n\t\t\tproceedsRequired = _saleFunction(creatorTokens[_tokenId].maxSupply, creatorTokens[_tokenId].maxSupply - startingSupply, mNumerator, mDenominator, creatorTokens[_tokenId].maxSupply, profitMargin);\n\t\t\t// Use b(x) from maxSupply to endSupply\n\t\t\tproceedsRequired += _buyFunction(creatorTokens[_tokenId].maxSupply, _amount - (creatorTokens[_tokenId].maxSupply - startingSupply), mNumerator, mDenominator);\n\t\t} else {\n\t\t\t// Scenario in which transaction begins at maxSupply\n\t\t\t// Just call b(x)\n\t\t\tproceedsRequired = _buyFunction(startingSupply, _amount, mNumerator, mDenominator);\n\t\t}\n\t\t// Make sure that user sends proceedsRequired ether to cover the cost of _amount tokens, plus the platform fee\n\t\trequire(msg.value == 20000000000000000000); //(proceedsRequired + proceedsRequired*platformFee/100));\n\t\t// Update platform fee total\n\t\t_platformFeeUpdater(proceedsRequired);\n\t\t// Mint _amount tokens at the user's address (note this increases token amount outstanding)\n\t\tmint(msg.sender, _tokenId, _amount, \"\");\n\t\t// Update tokenHoldership mapping\n\t\ttokenHoldership[_tokenId][msg.sender] += _amount;\n\t\t// Update userToHoldings mapping\n\t\tuserToHoldings[msg.sender][_tokenId] += _amount;\n\t\t// Emit new transaction event\n\t\temit NewTransaction(msg.sender, _amount, \"buy\", _tokenId, creatorTokens[_tokenId].name, creatorTokens[_tokenId].symbol);\n\t\t// Check if new outstanding amount of token is greater than maxSupply\n\t\tif (creatorTokens[_tokenId].outstanding > creatorTokens[_tokenId].maxSupply) {\n\t\t\t// Update maxSupply\n\t\t\tcreatorTokens[_tokenId].maxSupply = creatorTokens[_tokenId].outstanding;\n\t\t\t// Call _payout to transfer excess liquidity\n\t\t\t_payCreator(_tokenId, creatorTokens[_tokenId].creatorAddress);\n\t\t}\n\t}\n\n\t// Calculate area under buy price function\n\tfunction _buyFunction(uint _startingSupply, uint _amount, uint _mNumerator, uint _mDenominator) private pure returns (uint256) {\n\t\t// b(x) = m*x\n\t\tuint endSupply = _startingSupply + _amount;\n\t\tuint base1 = _mNumerator*_startingSupply/_mDenominator;\n\t\tuint base2 = _mNumerator*endSupply/_mDenominator;\n\t\tuint height = endSupply-_startingSupply;\n\t\tuint area = (base1 + base2) * height / 2;\n\t\treturn area;\n\t}\n\n\t// Allow user to sell a given CreatorToken back to the platform\n\tfunction sellCreatorToken(uint _tokenId, uint _amount, address payable _seller) external payable {\n\t\t// Require that user calling function is selling own tokens\n\t\trequire(_seller == msg.sender);\n\t\t// Initialize proceeds required\n\t\tuint proceedsRequired = 0;\n\t\t// Initialize pre-transaction supply\n\t\tuint startingSupply = creatorTokens[_tokenId].outstanding;\n\t\t// Compute sale proceeds required\n\t\tproceedsRequired = _saleFunction(startingSupply, _amount, mNumerator, mDenominator, creatorTokens[_tokenId].maxSupply, profitMargin);\n\t\t// Burn _amount tokens from user's address (note this decreases token amount outstanding)\n\t\tburn(_seller, _tokenId, _amount);\n\t\t// Send user proceedsRequired ether (less the platform fee) in exchange for the burned tokens\n\t\t_seller.transfer(15000000000000000000); // proceedsRequired - proceedsRequired*platformFee/100\n\t\t// Update tokenHoldership mapping\n\t\ttokenHoldership[_tokenId][msg.sender] -= _amount;\n\t\t// Update userToHoldings mapping\n\t\tuserToHoldings[msg.sender][_tokenId] -= _amount;\n\t\t// Update platform fee total\n\t\t_platformFeeUpdater(proceedsRequired);\n\t\t// Emit new transaction event\n\t\temit NewTransaction(msg.sender, _amount, \"sell\", _tokenId, creatorTokens[_tokenId].name, creatorTokens[_tokenId].symbol);\n\t}\n\n\t// Calculate area under sale price function\n\tfunction _saleFunction(uint _startingSupply, uint _amount, uint _mNumerator, uint _mDenominator, uint _maxSupply, uint _profitMargin) private pure returns (uint256) {\n\t\t// Calculate breakpoint and endSupply\n\t\t(uint a, uint b, uint endSupply) = _breakpoint(_startingSupply, _amount, _mNumerator, _mDenominator, _maxSupply, _profitMargin);\n\t\t// Initialize area under curve\n\t\tuint area = 0;\n\t\t// Check where _startingSupply is relative to the breakpoint\n\t\tif (_startingSupply < a) {\n\t\t\t// Just need trapezoidal area of partial entirely left of the breakpoint\n\t\t\tarea = _leftArea(a, b, _startingSupply, endSupply);\n\t\t} else if (endSupply < a) {\n\t\t\t// Scenario in which _startingSupply >= a, and endSupply < a\n\t\t\t// There, need trapezoidal area of components both to right and left of breakpoint\n\t\t\tarea = _bothArea(a, b, _startingSupply, endSupply, _mNumerator, _mDenominator, _maxSupply);\n\t\t} else {\n\t\t\t// Scenario in which entire sale occurs to right of breakpoint\n\t\t\t// Just need trapezoidal area of partial entirely right of the breakpoint\n\t\t\tarea = _rightArea(a, b, _startingSupply, endSupply, _mNumerator, _mDenominator, _maxSupply);\n\t\t}\n\t\treturn area;\n\t}\n\n\t// Calculate breakpoint and other key inputs into _saleFunction\n\tfunction _breakpoint(uint _startingSupply, uint _amount, uint _mNumerator, uint _mDenominator, uint _maxSupply, uint _profitMargin) private pure returns (uint, uint, uint) {\n\t\t// Define breakpoint (a,b) chosen s.t. area under sale price function is (1-profitMargin) times area under buy price function\n\t\tuint a = _maxSupply/2;\n\t\tuint b = ((2-2*_profitMargin/100)*_maxSupply*_mNumerator/_mDenominator - _maxSupply*_mNumerator/_mDenominator)/2;\n\t\tuint endSupply = _startingSupply - _amount;\n\t\treturn (a, b, endSupply);\n\t}\n\n\t// _saleFunction scenario in which entire transaction occurs left of breakpoint\n\tfunction _leftArea(uint _a, uint _b, uint _startingSupply, uint _endSupply) private pure returns (uint256) {\n\t\t\tuint base1 = ((_b/_a)*(_a-_endSupply)+_b);\n\t\t\tuint base2 = ((_b/_a)*(_a-_startingSupply)+_b);\n\t\t\tuint height = _startingSupply-_endSupply;\n\t\t\treturn (base1 + base2) * height / 2;\n\t}\n\n\t// _saleFunction scenario in which transaction crosses breakpoint\n\tfunction _bothArea(uint _a, uint _b, uint _startingSupply, uint _endSupply, uint _mNumerator, uint _mDenominator, uint _maxSupply) private pure returns (uint256) {\n\t\tuint leftBase1 = ((_b/_a)*(_a-_endSupply)+_b);\n\t\tuint sharedBase = _b;\n\t\tuint leftHeight = _a-_endSupply;\n\t\tuint leftArea = (leftBase1 + sharedBase) * leftHeight / 2;\n\t\tuint rightBase2 = (_mNumerator*_maxSupply/_mDenominator-_b)/(_maxSupply-_a)*(_startingSupply-_a)+_b;\n\t\tuint rightHeight = _startingSupply-_a;\n\t\tuint rightArea = (sharedBase + rightBase2) * rightHeight / 2;\n\t\treturn leftArea + rightArea;\n\t}\n\n\t// _saleFunction scneario in which entire transaction occurs right of breakpoint\n\tfunction _rightArea(uint _a, uint _b, uint _startingSupply, uint _endSupply, uint _mNumerator, uint _mDenominator, uint _maxSupply) private pure returns (uint256) {\n\t\tuint base1 = (((_mNumerator*_maxSupply/_mDenominator-_b)/(_maxSupply-_a))*(_endSupply-_a)+_b);\n\t\tuint base2 = (((_mNumerator*_maxSupply/_mDenominator-_b)/(_maxSupply-_a))*(_startingSupply-_a)+_b);\n\t\tuint height = _startingSupply-_endSupply;\n\t\treturn (base1 + base2) * height / 2;\n\t}\n\n\t// Transfer excess liquidity (triggered only when a CreatorToken hits a new maxSupply)\n\tfunction _payCreator(uint _tokenId, address payable _creatorAddress) internal {\n\t\t// Create a variable showing excess liquidity that has already been transferred out of this token's liquidity pool\n\t\tuint alreadyTransferred = tokenValueTransferred[_tokenId];\n\t\t// Initialize totalProfit\n\t\tuint totalProfit = 0;\n\t\t// Calculate totalProfit (area between b(x) and s(x) from 0 to maxSupply)\n\t\ttotalProfit = _buyFunction(0, creatorTokens[_tokenId].maxSupply, mNumerator, mDenominator) - _saleFunction(creatorTokens[_tokenId].maxSupply, creatorTokens[_tokenId].maxSupply, mNumerator, mDenominator, creatorTokens[_tokenId].maxSupply, profitMargin);\n\t\t// Calculate creator's new profit created from new excess liquidity created\n\t\tuint newProfit = totalProfit - alreadyTransferred; //10000000000000000000\n\t\t// Transfer newProfit ether to creator\n\t\t_creatorAddress.transfer(newProfit);\n\t\t// Update amount of value transferred to creator\n\t\ttokenValueTransferred[_tokenId] = totalProfit;\n\t}\n\n\t// Update platform fees tracker\n\tfunction _platformFeeUpdater(uint _proceedsRequired) internal {\n\t\ttotalPlatformFees += _proceedsRequired*platformFee/100;\n\t\tplatformFeesOwed += _proceedsRequired*platformFee/100;\n\t}\n}\n",
  "sourcePath": "/Users/kamilalizaisadik/DeFi/Dynamic Automated Market Maker/damm_solidity/contracts/CreatorTokenExchange.sol",
  "compiler": {
    "name": "solc",
    "version": "0.8.6+commit.11564f7e.Emscripten.clang"
  },
  "schemaVersion": "3.4.1",
  "updatedAt": "2021-06-24T01:04:32.628Z",
  "networkType": "ethereum",
  "devdoc": {
    "kind": "dev",
    "methods": {
      "getRoleAdmin(bytes32)": {
        "details": "Returns the admin role that controls `role`. See {grantRole} and {revokeRole}. To change a role's admin, use {_setRoleAdmin}."
      },
      "getRoleMember(bytes32,uint256)": {
        "details": "Returns one of the accounts that have `role`. `index` must be a value between 0 and {getRoleMemberCount}, non-inclusive. Role bearers are not sorted in any particular way, and their ordering may change at any point. WARNING: When using {getRoleMember} and {getRoleMemberCount}, make sure you perform all queries on the same block. See the following https://forum.openzeppelin.com/t/iterating-over-elements-on-enumerableset-in-openzeppelin-contracts/2296[forum post] for more information."
      },
      "getRoleMemberCount(bytes32)": {
        "details": "Returns the number of accounts that have `role`. Can be used together with {getRoleMember} to enumerate all bearers of a role."
      },
      "grantRole(bytes32,address)": {
        "details": "Overload {grantRole} to track enumerable memberships"
      },
      "hasRole(bytes32,address)": {
        "details": "Returns `true` if `account` has been granted `role`."
      },
      "owner()": {
        "details": "Returns the address of the current owner."
      },
      "pause()": {
        "details": "Pauses all token transfers. See {ERC1155Pausable} and {Pausable-_pause}. Requirements: - the caller must have the `PAUSER_ROLE`."
      },
      "paused()": {
        "details": "Returns true if the contract is paused, and false otherwise."
      },
      "renounceOwnership()": {
        "details": "Leaves the contract without owner. It will not be possible to call `onlyOwner` functions anymore. Can only be called by the current owner. NOTE: Renouncing ownership will leave the contract without an owner, thereby removing any functionality that is only available to the owner."
      },
      "renounceRole(bytes32,address)": {
        "details": "Overload {renounceRole} to track enumerable memberships"
      },
      "revokeRole(bytes32,address)": {
        "details": "Overload {revokeRole} to track enumerable memberships"
      },
      "supportsInterface(bytes4)": {
        "details": "See {IERC165-supportsInterface}."
      },
      "transferOwnership(address)": {
        "details": "Transfers ownership of the contract to a new account (`newOwner`). Can only be called by the current owner."
      },
      "unpause()": {
        "details": "Unpauses all token transfers. See {ERC1155Pausable} and {Pausable-_unpause}. Requirements: - the caller must have the `PAUSER_ROLE`."
      },
      "uri(uint256)": {
        "details": "See {IERC1155MetadataURI-uri}. This implementation returns the same URI for *all* token types. It relies on the token type ID substitution mechanism https://eips.ethereum.org/EIPS/eip-1155#metadata[defined in the EIP]. Clients calling this function must replace the `\\{id\\}` substring with the actual token type ID."
      }
    },
    "version": 1
  },
  "userdoc": {
    "kind": "user",
    "methods": {},
    "version": 1
  }
}