{
  "contractName": "CreatorTokenFormulas",
  "abi": [
    {
      "inputs": [
        {
          "internalType": "string",
          "name": "uri",
          "type": "string"
        }
      ],
      "stateMutability": "nonpayable",
      "type": "constructor"
    },
    {
      "anonymous": false,
      "inputs": [
        {
          "indexed": true,
          "internalType": "address",
          "name": "account",
          "type": "address"
        },
        {
          "indexed": true,
          "internalType": "address",
          "name": "operator",
          "type": "address"
        },
        {
          "indexed": false,
          "internalType": "bool",
          "name": "approved",
          "type": "bool"
        }
      ],
      "name": "ApprovalForAll",
      "type": "event"
    },
    {
      "anonymous": false,
      "inputs": [
        {
          "indexed": false,
          "internalType": "uint256",
          "name": "tokenId",
          "type": "uint256"
        },
        {
          "indexed": false,
          "internalType": "address payable",
          "name": "creatorAddress",
          "type": "address"
        },
        {
          "indexed": false,
          "internalType": "string",
          "name": "name",
          "type": "string"
        },
        {
          "indexed": false,
          "internalType": "string",
          "name": "symbol",
          "type": "string"
        },
        {
          "indexed": false,
          "internalType": "string",
          "name": "description",
          "type": "string"
        },
        {
          "indexed": false,
          "internalType": "bool",
          "name": "verified",
          "type": "bool"
        },
        {
          "indexed": false,
          "internalType": "uint256",
          "name": "outstanding",
          "type": "uint256"
        },
        {
          "indexed": false,
          "internalType": "uint256",
          "name": "maxSupply",
          "type": "uint256"
        }
      ],
      "name": "NewCreatorToken",
      "type": "event"
    },
    {
      "anonymous": false,
      "inputs": [
        {
          "indexed": true,
          "internalType": "address",
          "name": "previousOwner",
          "type": "address"
        },
        {
          "indexed": true,
          "internalType": "address",
          "name": "newOwner",
          "type": "address"
        }
      ],
      "name": "OwnershipTransferred",
      "type": "event"
    },
    {
      "anonymous": false,
      "inputs": [
        {
          "indexed": true,
          "internalType": "address",
          "name": "operator",
          "type": "address"
        },
        {
          "indexed": true,
          "internalType": "address",
          "name": "from",
          "type": "address"
        },
        {
          "indexed": true,
          "internalType": "address",
          "name": "to",
          "type": "address"
        },
        {
          "indexed": false,
          "internalType": "uint256[]",
          "name": "ids",
          "type": "uint256[]"
        },
        {
          "indexed": false,
          "internalType": "uint256[]",
          "name": "values",
          "type": "uint256[]"
        }
      ],
      "name": "TransferBatch",
      "type": "event"
    },
    {
      "anonymous": false,
      "inputs": [
        {
          "indexed": true,
          "internalType": "address",
          "name": "operator",
          "type": "address"
        },
        {
          "indexed": true,
          "internalType": "address",
          "name": "from",
          "type": "address"
        },
        {
          "indexed": true,
          "internalType": "address",
          "name": "to",
          "type": "address"
        },
        {
          "indexed": false,
          "internalType": "uint256",
          "name": "id",
          "type": "uint256"
        },
        {
          "indexed": false,
          "internalType": "uint256",
          "name": "value",
          "type": "uint256"
        }
      ],
      "name": "TransferSingle",
      "type": "event"
    },
    {
      "anonymous": false,
      "inputs": [
        {
          "indexed": false,
          "internalType": "string",
          "name": "value",
          "type": "string"
        },
        {
          "indexed": true,
          "internalType": "uint256",
          "name": "id",
          "type": "uint256"
        }
      ],
      "name": "URI",
      "type": "event"
    },
    {
      "inputs": [
        {
          "internalType": "address",
          "name": "account",
          "type": "address"
        },
        {
          "internalType": "uint256",
          "name": "id",
          "type": "uint256"
        }
      ],
      "name": "balanceOf",
      "outputs": [
        {
          "internalType": "uint256",
          "name": "",
          "type": "uint256"
        }
      ],
      "stateMutability": "view",
      "type": "function"
    },
    {
      "inputs": [
        {
          "internalType": "address[]",
          "name": "accounts",
          "type": "address[]"
        },
        {
          "internalType": "uint256[]",
          "name": "ids",
          "type": "uint256[]"
        }
      ],
      "name": "balanceOfBatch",
      "outputs": [
        {
          "internalType": "uint256[]",
          "name": "",
          "type": "uint256[]"
        }
      ],
      "stateMutability": "view",
      "type": "function"
    },
    {
      "inputs": [
        {
          "internalType": "uint256",
          "name": "_tokenId",
          "type": "uint256"
        },
        {
          "internalType": "address payable",
          "name": "_newCreatorAddress",
          "type": "address"
        }
      ],
      "name": "changeAddress",
      "outputs": [],
      "stateMutability": "nonpayable",
      "type": "function"
    },
    {
      "inputs": [
        {
          "internalType": "uint256",
          "name": "_tokenId",
          "type": "uint256"
        },
        {
          "internalType": "string",
          "name": "_newDescription",
          "type": "string"
        }
      ],
      "name": "changeDescription",
      "outputs": [],
      "stateMutability": "nonpayable",
      "type": "function"
    },
    {
      "inputs": [
        {
          "internalType": "uint256",
          "name": "_tokenId",
          "type": "uint256"
        },
        {
          "internalType": "string",
          "name": "_newName",
          "type": "string"
        }
      ],
      "name": "changeName",
      "outputs": [],
      "stateMutability": "nonpayable",
      "type": "function"
    },
    {
      "inputs": [
        {
          "internalType": "uint256",
          "name": "_newPlatformFee",
          "type": "uint256"
        }
      ],
      "name": "changePlatformFee",
      "outputs": [],
      "stateMutability": "nonpayable",
      "type": "function"
    },
    {
      "inputs": [
        {
          "internalType": "uint256",
          "name": "_newProfitMargin",
          "type": "uint256"
        }
      ],
      "name": "changeProfitMargin",
      "outputs": [],
      "stateMutability": "nonpayable",
      "type": "function"
    },
    {
      "inputs": [
        {
          "internalType": "uint256",
          "name": "_tokenId",
          "type": "uint256"
        },
        {
          "internalType": "string",
          "name": "_newSymbol",
          "type": "string"
        }
      ],
      "name": "changeSymbol",
      "outputs": [],
      "stateMutability": "nonpayable",
      "type": "function"
    },
    {
      "inputs": [
        {
          "internalType": "uint256",
          "name": "_tokenId",
          "type": "uint256"
        },
        {
          "internalType": "bool",
          "name": "_verified",
          "type": "bool"
        }
      ],
      "name": "changeVerification",
      "outputs": [],
      "stateMutability": "nonpayable",
      "type": "function"
    },
    {
      "inputs": [
        {
          "internalType": "address payable",
          "name": "_creatorAddress",
          "type": "address"
        },
        {
          "internalType": "string",
          "name": "_name",
          "type": "string"
        },
        {
          "internalType": "string",
          "name": "_symbol",
          "type": "string"
        },
        {
          "internalType": "string",
          "name": "_description",
          "type": "string"
        }
      ],
      "name": "createCreatorToken",
      "outputs": [],
      "stateMutability": "nonpayable",
      "type": "function"
    },
    {
      "inputs": [
        {
          "internalType": "uint256",
          "name": "",
          "type": "uint256"
        }
      ],
      "name": "creatorTokens",
      "outputs": [
        {
          "internalType": "address payable",
          "name": "creatorAddress",
          "type": "address"
        },
        {
          "internalType": "string",
          "name": "name",
          "type": "string"
        },
        {
          "internalType": "string",
          "name": "symbol",
          "type": "string"
        },
        {
          "internalType": "string",
          "name": "description",
          "type": "string"
        },
        {
          "internalType": "bool",
          "name": "verified",
          "type": "bool"
        },
        {
          "internalType": "uint256",
          "name": "outstanding",
          "type": "uint256"
        },
        {
          "internalType": "uint256",
          "name": "maxSupply",
          "type": "uint256"
        }
      ],
      "stateMutability": "view",
      "type": "function"
    },
    {
      "inputs": [
        {
          "internalType": "address",
          "name": "_account",
          "type": "address"
        },
        {
          "internalType": "address",
          "name": "_operator",
          "type": "address"
        }
      ],
      "name": "isApprovedForAll",
      "outputs": [
        {
          "internalType": "bool",
          "name": "",
          "type": "bool"
        }
      ],
      "stateMutability": "view",
      "type": "function"
    },
    {
      "inputs": [],
      "name": "owner",
      "outputs": [
        {
          "internalType": "address",
          "name": "",
          "type": "address"
        }
      ],
      "stateMutability": "view",
      "type": "function"
    },
    {
      "inputs": [
        {
          "internalType": "address payable",
          "name": "_owner",
          "type": "address"
        }
      ],
      "name": "payoutPlatformFees",
      "outputs": [],
      "stateMutability": "nonpayable",
      "type": "function"
    },
    {
      "inputs": [],
      "name": "platformFeesOwed",
      "outputs": [
        {
          "internalType": "uint256",
          "name": "",
          "type": "uint256"
        }
      ],
      "stateMutability": "view",
      "type": "function"
    },
    {
      "inputs": [],
      "name": "renounceOwnership",
      "outputs": [],
      "stateMutability": "nonpayable",
      "type": "function"
    },
    {
      "inputs": [
        {
          "internalType": "address",
          "name": "_from",
          "type": "address"
        },
        {
          "internalType": "address",
          "name": "_to",
          "type": "address"
        },
        {
          "internalType": "uint256[]",
          "name": "_ids",
          "type": "uint256[]"
        },
        {
          "internalType": "uint256[]",
          "name": "_amounts",
          "type": "uint256[]"
        },
        {
          "internalType": "bytes",
          "name": "data",
          "type": "bytes"
        }
      ],
      "name": "safeBatchTransferFrom",
      "outputs": [],
      "stateMutability": "nonpayable",
      "type": "function"
    },
    {
      "inputs": [
        {
          "internalType": "address",
          "name": "_from",
          "type": "address"
        },
        {
          "internalType": "address",
          "name": "_to",
          "type": "address"
        },
        {
          "internalType": "uint256",
          "name": "_id",
          "type": "uint256"
        },
        {
          "internalType": "uint256",
          "name": "_amount",
          "type": "uint256"
        },
        {
          "internalType": "bytes",
          "name": "_data",
          "type": "bytes"
        }
      ],
      "name": "safeTransferFrom",
      "outputs": [],
      "stateMutability": "nonpayable",
      "type": "function"
    },
    {
      "inputs": [
        {
          "internalType": "address",
          "name": "_operator",
          "type": "address"
        },
        {
          "internalType": "bool",
          "name": "_approved",
          "type": "bool"
        }
      ],
      "name": "setApprovalForAll",
      "outputs": [],
      "stateMutability": "nonpayable",
      "type": "function"
    },
    {
      "inputs": [
        {
          "internalType": "bytes4",
          "name": "interfaceId",
          "type": "bytes4"
        }
      ],
      "name": "supportsInterface",
      "outputs": [
        {
          "internalType": "bool",
          "name": "",
          "type": "bool"
        }
      ],
      "stateMutability": "view",
      "type": "function"
    },
    {
      "inputs": [
        {
          "internalType": "uint256",
          "name": "",
          "type": "uint256"
        },
        {
          "internalType": "address",
          "name": "",
          "type": "address"
        }
      ],
      "name": "tokenHoldership",
      "outputs": [
        {
          "internalType": "uint256",
          "name": "",
          "type": "uint256"
        }
      ],
      "stateMutability": "view",
      "type": "function"
    },
    {
      "inputs": [
        {
          "internalType": "uint256",
          "name": "",
          "type": "uint256"
        }
      ],
      "name": "tokenToCreator",
      "outputs": [
        {
          "internalType": "address",
          "name": "",
          "type": "address"
        }
      ],
      "stateMutability": "view",
      "type": "function"
    },
    {
      "inputs": [],
      "name": "totalPlatformFees",
      "outputs": [
        {
          "internalType": "uint256",
          "name": "",
          "type": "uint256"
        }
      ],
      "stateMutability": "view",
      "type": "function"
    },
    {
      "inputs": [
        {
          "internalType": "address",
          "name": "newOwner",
          "type": "address"
        }
      ],
      "name": "transferOwnership",
      "outputs": [],
      "stateMutability": "nonpayable",
      "type": "function"
    },
    {
      "inputs": [
        {
          "internalType": "uint256",
          "name": "",
          "type": "uint256"
        }
      ],
      "name": "uri",
      "outputs": [
        {
          "internalType": "string",
          "name": "",
          "type": "string"
        }
      ],
      "stateMutability": "view",
      "type": "function"
    },
    {
      "inputs": [
        {
          "internalType": "address",
          "name": "",
          "type": "address"
        },
        {
          "internalType": "uint256",
          "name": "",
          "type": "uint256"
        }
      ],
      "name": "userToHoldings",
      "outputs": [
        {
          "internalType": "uint256",
          "name": "",
          "type": "uint256"
        }
      ],
      "stateMutability": "view",
      "type": "function"
    },
    {
      "inputs": [
        {
          "internalType": "address payable",
          "name": "_owner",
          "type": "address"
        }
      ],
      "name": "withdraw",
      "outputs": [],
      "stateMutability": "nonpayable",
      "type": "function"
    }
  ],
  "bytecode": "0x60806040526001805560006002556000600355601460045565082f79cd900060055560b96006553480156200003357600080fd5b506040516200342e3803806200342e833981810160405281019062000059919062000277565b808060006200006d6200012560201b60201c565b9050806000806101000a81548173ffffffffffffffffffffffffffffffffffffffff021916908373ffffffffffffffffffffffffffffffffffffffff1602179055508073ffffffffffffffffffffffffffffffffffffffff16600073ffffffffffffffffffffffffffffffffffffffff167f8be0079c531659141344cd1fd0a4f28419497f9722a3daafe3b4186f6b6457e060405160405180910390a3506200011c816200012d60201b60201c565b5050506200044c565b600033905090565b80600f90805190602001906200014592919062000149565b5050565b82805462000157906200035d565b90600052602060002090601f0160209004810192826200017b5760008555620001c7565b82601f106200019657805160ff1916838001178555620001c7565b82800160010185558215620001c7579182015b82811115620001c6578251825591602001919060010190620001a9565b5b509050620001d69190620001da565b5090565b5b80821115620001f5576000816000905550600101620001db565b5090565b6000620002106200020a84620002f1565b620002c8565b9050828152602081018484840111156200022f576200022e6200042c565b5b6200023c84828562000327565b509392505050565b600082601f8301126200025c576200025b62000427565b5b81516200026e848260208601620001f9565b91505092915050565b60006020828403121562000290576200028f62000436565b5b600082015167ffffffffffffffff811115620002b157620002b062000431565b5b620002bf8482850162000244565b91505092915050565b6000620002d4620002e7565b9050620002e2828262000393565b919050565b6000604051905090565b600067ffffffffffffffff8211156200030f576200030e620003f8565b5b6200031a826200043b565b9050602081019050919050565b60005b83811015620003475780820151818401526020810190506200032a565b8381111562000357576000848401525b50505050565b600060028204905060018216806200037657607f821691505b602082108114156200038d576200038c620003c9565b5b50919050565b6200039e826200043b565b810181811067ffffffffffffffff82111715620003c057620003bf620003f8565b5b80604052505050565b7f4e487b7100000000000000000000000000000000000000000000000000000000600052602260045260246000fd5b7f4e487b7100000000000000000000000000000000000000000000000000000000600052604160045260246000fd5b600080fd5b600080fd5b600080fd5b600080fd5b6000601f19601f8301169050919050565b612fd2806200045c6000396000f3fe608060405234801561001057600080fd5b50600436106101a85760003560e01c8063bfb48c9c116100f9578063d7a5791a11610097578063eb84175911610071578063eb841759146104df578063f242432a146104fb578063f2fde38b14610517578063f7374e2e14610533576101a8565b8063d7a5791a14610477578063de6a06ed14610493578063e985e9c5146104af576101a8565b8063c539c317116100d3578063c539c317146103eb578063ce901d8a14610407578063d3631fa51461043d578063d56b72c71461045b576101a8565b8063bfb48c9c14610381578063c1d33049146103b1578063c39cbef1146103cf576101a8565b80632eb2c2d611610166578063715018a611610140578063715018a61461030d5780638da5cb5b1461031757806392724afa14610335578063a22cb46514610365576101a8565b80632eb2c2d6146102a55780634e1273f4146102c157806351cff8d9146102f1576101a8565b8062fdd58e146101ad57806301ffc9a7146101dd57806306e320f51461020d5780630e89341c1461022957806318892ae8146102595780631d5ad18b14610289575b600080fd5b6101c760048036038101906101c29190612391565b61054f565b6040516101d4919061290d565b60405180910390f35b6101f760048036038101906101f29190612449565b610619565b6040516102049190612850565b60405180910390f35b61022760048036038101906102229190612563565b6106fb565b005b610243600480360381019061023e9190612476565b6107a2565b604051610250919061286b565b60405180910390f35b610273600480360381019061026e9190612476565b610836565b6040516102809190612758565b60405180910390f35b6102a3600480360381019061029e91906124e3565b610869565b005b6102bf60048036038101906102ba91906121eb565b61093e565b005b6102db60048036038101906102d691906123d1565b610aaa565b6040516102e891906127f7565b60405180910390f35b61030b600480360381019061030691906120c3565b610bc3565b005b610315610c89565b005b61031f610dc3565b60405161032c9190612758565b60405180910390f35b61034f600480360381019061034a9190612391565b610dec565b60405161035c919061290d565b60405180910390f35b61037f600480360381019061037a9190612351565b610e11565b005b61039b600480360381019061039691906124a3565b610f0e565b6040516103a8919061290d565b60405180910390f35b6103b9610f33565b6040516103c6919061290d565b60405180910390f35b6103e960048036038101906103e49190612563565b610f39565b005b61040560048036038101906104009190612476565b610fe0565b005b610421600480360381019061041c9190612476565b611066565b6040516104349796959493929190612773565b60405180910390f35b61044561127d565b604051610452919061290d565b60405180910390f35b610475600480360381019061047091906120f0565b611283565b005b610491600480360381019061048c9190612476565b61149f565b005b6104ad60048036038101906104a89190612563565b611525565b005b6104c960048036038101906104c491906121ab565b6115cc565b6040516104d69190612850565b60405180910390f35b6104f960048036038101906104f491906120c3565b611660565b005b610515600480360381019061051091906122ba565b611730565b005b610531600480360381019061052c9190612096565b611814565b005b61054d60048036038101906105489190612523565b6119bd565b005b60008073ffffffffffffffffffffffffffffffffffffffff168373ffffffffffffffffffffffffffffffffffffffff1614156105c0576040517f08c379a00000000000000000000000000000000000000000000000000000000081526004016105b79061288d565b60405180910390fd5b600d600083815260200190815260200160002060008473ffffffffffffffffffffffffffffffffffffffff1673ffffffffffffffffffffffffffffffffffffffff16815260200190815260200160002054905092915050565b60007fd9b67a26000000000000000000000000000000000000000000000000000000007bffffffffffffffffffffffffffffffffffffffffffffffffffffffff1916827bffffffffffffffffffffffffffffffffffffffffffffffffffffffff191614806106e457507f0e89341c000000000000000000000000000000000000000000000000000000007bffffffffffffffffffffffffffffffffffffffffffffffffffffffff1916827bffffffffffffffffffffffffffffffffffffffffffffffffffffffff1916145b806106f457506106f382611a7a565b5b9050919050565b826008600082815260200190815260200160002060009054906101000a900473ffffffffffffffffffffffffffffffffffffffff1673ffffffffffffffffffffffffffffffffffffffff163373ffffffffffffffffffffffffffffffffffffffff161461076757600080fd5b82826007868154811061077d5761077c612d86565b5b9060005260206000209060070201600201919061079b929190611c92565b5050505050565b6060600f80546107b190612c7c565b80601f01602080910402602001604051908101604052809291908181526020018280546107dd90612c7c565b801561082a5780601f106107ff5761010080835404028352916020019161082a565b820191906000526020600020905b81548152906001019060200180831161080d57829003601f168201915b50505050509050919050565b60086020528060005260406000206000915054906101000a900473ffffffffffffffffffffffffffffffffffffffff1681565b816008600082815260200190815260200160002060009054906101000a900473ffffffffffffffffffffffffffffffffffffffff1673ffffffffffffffffffffffffffffffffffffffff163373ffffffffffffffffffffffffffffffffffffffff16146108d557600080fd5b81600784815481106108ea576108e9612d86565b5b906000526020600020906007020160000160006101000a81548173ffffffffffffffffffffffffffffffffffffffff021916908373ffffffffffffffffffffffffffffffffffffffff160217905550505050565b60005b8351811015610a24578573ffffffffffffffffffffffffffffffffffffffff163373ffffffffffffffffffffffffffffffffffffffff16148061098a575061098986866115cc565b5b61099357600080fd5b6109d2868583815181106109aa576109a9612d86565b5b60200260200101518584815181106109c5576109c4612d86565b5b6020026020010151611ae4565b610a11858583815181106109e9576109e8612d86565b5b6020026020010151858481518110610a0457610a03612d86565b5b6020026020010151611bb7565b8080610a1c90612cdf565b915050610941565b508373ffffffffffffffffffffffffffffffffffffffff168573ffffffffffffffffffffffffffffffffffffffff163373ffffffffffffffffffffffffffffffffffffffff167f4a39dc06d4c0dbc64b70af90fd698a233a518aa5d07e595d983b8c0526c8f7fb8686604051610a9b929190612819565b60405180910390a45050505050565b60608151835114610af0576040517f08c379a0000000000000000000000000000000000000000000000000000000008152600401610ae7906128ed565b60405180910390fd5b6000835167ffffffffffffffff811115610b0d57610b0c612db5565b5b604051908082528060200260200182016040528015610b3b5781602001602082028036833780820191505090505b50905060005b8451811015610bb857610b88858281518110610b6057610b5f612d86565b5b6020026020010151858381518110610b7b57610b7a612d86565b5b602002602001015161054f565b828281518110610b9b57610b9a612d86565b5b60200260200101818152505080610bb190612cdf565b9050610b41565b508091505092915050565b610bcb611c8a565b73ffffffffffffffffffffffffffffffffffffffff16610be9610dc3565b73ffffffffffffffffffffffffffffffffffffffff1614610c3f576040517f08c379a0000000000000000000000000000000000000000000000000000000008152600401610c36906128cd565b60405180910390fd5b8073ffffffffffffffffffffffffffffffffffffffff166108fc479081150290604051600060405180830381858888f19350505050158015610c85573d6000803e3d6000fd5b5050565b610c91611c8a565b73ffffffffffffffffffffffffffffffffffffffff16610caf610dc3565b73ffffffffffffffffffffffffffffffffffffffff1614610d05576040517f08c379a0000000000000000000000000000000000000000000000000000000008152600401610cfc906128cd565b60405180910390fd5b600073ffffffffffffffffffffffffffffffffffffffff1660008054906101000a900473ffffffffffffffffffffffffffffffffffffffff1673ffffffffffffffffffffffffffffffffffffffff167f8be0079c531659141344cd1fd0a4f28419497f9722a3daafe3b4186f6b6457e060405160405180910390a360008060006101000a81548173ffffffffffffffffffffffffffffffffffffffff021916908373ffffffffffffffffffffffffffffffffffffffff160217905550565b60008060009054906101000a900473ffffffffffffffffffffffffffffffffffffffff16905090565b600b602052816000526040600020602052806000526040600020600091509150505481565b80600c60003373ffffffffffffffffffffffffffffffffffffffff1673ffffffffffffffffffffffffffffffffffffffff16815260200190815260200160002060008473ffffffffffffffffffffffffffffffffffffffff1673ffffffffffffffffffffffffffffffffffffffff16815260200190815260200160002060006101000a81548160ff0219169083151502179055508173ffffffffffffffffffffffffffffffffffffffff163373ffffffffffffffffffffffffffffffffffffffff167f17307eab39ab6107e8899845ad3d59bd9653f200f220920489ca2b5937696c3183604051610f029190612850565b60405180910390a35050565b600a602052816000526040600020602052806000526040600020600091509150505481565b60035481565b826008600082815260200190815260200160002060009054906101000a900473ffffffffffffffffffffffffffffffffffffffff1673ffffffffffffffffffffffffffffffffffffffff163373ffffffffffffffffffffffffffffffffffffffff1614610fa557600080fd5b828260078681548110610fbb57610fba612d86565b5b90600052602060002090600702016001019190610fd9929190611c92565b5050505050565b610fe8611c8a565b73ffffffffffffffffffffffffffffffffffffffff16611006610dc3565b73ffffffffffffffffffffffffffffffffffffffff161461105c576040517f08c379a0000000000000000000000000000000000000000000000000000000008152600401611053906128cd565b60405180910390fd5b8060048190555050565b6007818154811061107657600080fd5b90600052602060002090600702016000915090508060000160009054906101000a900473ffffffffffffffffffffffffffffffffffffffff16908060010180546110bf90612c7c565b80601f01602080910402602001604051908101604052809291908181526020018280546110eb90612c7c565b80156111385780601f1061110d57610100808354040283529160200191611138565b820191906000526020600020905b81548152906001019060200180831161111b57829003601f168201915b50505050509080600201805461114d90612c7c565b80601f016020809104026020016040519081016040528092919081815260200182805461117990612c7c565b80156111c65780601f1061119b576101008083540402835291602001916111c6565b820191906000526020600020905b8154815290600101906020018083116111a957829003601f168201915b5050505050908060030180546111db90612c7c565b80601f016020809104026020016040519081016040528092919081815260200182805461120790612c7c565b80156112545780601f1061122957610100808354040283529160200191611254565b820191906000526020600020905b81548152906001019060200180831161123757829003601f168201915b5050505050908060040160009054906101000a900460ff16908060050154908060060154905087565b60025481565b60076040518060e001604052808673ffffffffffffffffffffffffffffffffffffffff168152602001858152602001848152602001838152602001600015158152602001600081526020016000815250908060018154018082558091505060019003906000526020600020906007020160009091909190915060008201518160000160006101000a81548173ffffffffffffffffffffffffffffffffffffffff021916908373ffffffffffffffffffffffffffffffffffffffff160217905550602082015181600101908051906020019061135f929190611d18565b50604082015181600201908051906020019061137c929190611d18565b506060820151816003019080519060200190611399929190611d18565b5060808201518160040160006101000a81548160ff02191690831515021790555060a0820151816005015560c082015181600601555050600060016007805490506113e49190612b6e565b9050846008600083815260200190815260200160002060006101000a81548173ffffffffffffffffffffffffffffffffffffffff021916908373ffffffffffffffffffffffffffffffffffffffff160217905550600060096000838152602001908152602001600020819055507f3ef624c0f3fb7ad40b94c02078ea3e3a797dbfc21e921ee4bd2b8ad0ca6aa11381868686866000806000604051611490989796959493929190612928565b60405180910390a15050505050565b6114a7611c8a565b73ffffffffffffffffffffffffffffffffffffffff166114c5610dc3565b73ffffffffffffffffffffffffffffffffffffffff161461151b576040517f08c379a0000000000000000000000000000000000000000000000000000000008152600401611512906128cd565b60405180910390fd5b8060018190555050565b826008600082815260200190815260200160002060009054906101000a900473ffffffffffffffffffffffffffffffffffffffff1673ffffffffffffffffffffffffffffffffffffffff163373ffffffffffffffffffffffffffffffffffffffff161461159157600080fd5b8282600786815481106115a7576115a6612d86565b5b906000526020600020906007020160030191906115c5929190611c92565b5050505050565b6000600c60008473ffffffffffffffffffffffffffffffffffffffff1673ffffffffffffffffffffffffffffffffffffffff16815260200190815260200160002060008373ffffffffffffffffffffffffffffffffffffffff1673ffffffffffffffffffffffffffffffffffffffff16815260200190815260200160002060009054906101000a900460ff16905092915050565b611668611c8a565b73ffffffffffffffffffffffffffffffffffffffff16611686610dc3565b73ffffffffffffffffffffffffffffffffffffffff16146116dc576040517f08c379a00000000000000000000000000000000000000000000000000000000081526004016116d3906128cd565b60405180910390fd5b8073ffffffffffffffffffffffffffffffffffffffff166108fc6003549081150290604051600060405180830381858888f19350505050158015611724573d6000803e3d6000fd5b50600060038190555050565b8473ffffffffffffffffffffffffffffffffffffffff163373ffffffffffffffffffffffffffffffffffffffff161480611770575061176f85856115cc565b5b61177957600080fd5b611784858484611ae4565b61178f848484611bb7565b8373ffffffffffffffffffffffffffffffffffffffff168573ffffffffffffffffffffffffffffffffffffffff163373ffffffffffffffffffffffffffffffffffffffff167fc3d58168c5ae7397731d063d5bbf3d657854427343f4c083240f7aacaa2d0f6286866040516118059291906129bb565b60405180910390a45050505050565b61181c611c8a565b73ffffffffffffffffffffffffffffffffffffffff1661183a610dc3565b73ffffffffffffffffffffffffffffffffffffffff1614611890576040517f08c379a0000000000000000000000000000000000000000000000000000000008152600401611887906128cd565b60405180910390fd5b600073ffffffffffffffffffffffffffffffffffffffff168173ffffffffffffffffffffffffffffffffffffffff161415611900576040517f08c379a00000000000000000000000000000000000000000000000000000000081526004016118f7906128ad565b60405180910390fd5b8073ffffffffffffffffffffffffffffffffffffffff1660008054906101000a900473ffffffffffffffffffffffffffffffffffffffff1673ffffffffffffffffffffffffffffffffffffffff167f8be0079c531659141344cd1fd0a4f28419497f9722a3daafe3b4186f6b6457e060405160405180910390a3806000806101000a81548173ffffffffffffffffffffffffffffffffffffffff021916908373ffffffffffffffffffffffffffffffffffffffff16021790555050565b6119c5611c8a565b73ffffffffffffffffffffffffffffffffffffffff166119e3610dc3565b73ffffffffffffffffffffffffffffffffffffffff1614611a39576040517f08c379a0000000000000000000000000000000000000000000000000000000008152600401611a30906128cd565b60405180910390fd5b8060078381548110611a4e57611a4d612d86565b5b906000526020600020906007020160040160006101000a81548160ff0219169083151502179055505050565b60007f01ffc9a7000000000000000000000000000000000000000000000000000000007bffffffffffffffffffffffffffffffffffffffffffffffffffffffff1916827bffffffffffffffffffffffffffffffffffffffffffffffffffffffff1916149050919050565b80600a600084815260200190815260200160002060008573ffffffffffffffffffffffffffffffffffffffff1673ffffffffffffffffffffffffffffffffffffffff1681526020019081526020016000206000828254611b449190612b6e565b9250508190555080600b60008573ffffffffffffffffffffffffffffffffffffffff1673ffffffffffffffffffffffffffffffffffffffff16815260200190815260200160002060008481526020019081526020016000206000828254611bab9190612b6e565b92505081905550505050565b80600a600084815260200190815260200160002060008573ffffffffffffffffffffffffffffffffffffffff1673ffffffffffffffffffffffffffffffffffffffff1681526020019081526020016000206000828254611c179190612b18565b9250508190555080600b60008573ffffffffffffffffffffffffffffffffffffffff1673ffffffffffffffffffffffffffffffffffffffff16815260200190815260200160002060008481526020019081526020016000206000828254611c7e9190612b18565b92505081905550505050565b600033905090565b828054611c9e90612c7c565b90600052602060002090601f016020900481019282611cc05760008555611d07565b82601f10611cd957803560ff1916838001178555611d07565b82800160010185558215611d07579182015b82811115611d06578235825591602001919060010190611ceb565b5b509050611d149190611d9e565b5090565b828054611d2490612c7c565b90600052602060002090601f016020900481019282611d465760008555611d8d565b82601f10611d5f57805160ff1916838001178555611d8d565b82800160010185558215611d8d579182015b82811115611d8c578251825591602001919060010190611d71565b5b509050611d9a9190611d9e565b5090565b5b80821115611db7576000816000905550600101611d9f565b5090565b6000611dce611dc984612a09565b6129e4565b90508083825260208201905082856020860282011115611df157611df0612dee565b5b60005b85811015611e215781611e078882611f1f565b845260208401935060208301925050600181019050611df4565b5050509392505050565b6000611e3e611e3984612a35565b6129e4565b90508083825260208201905082856020860282011115611e6157611e60612dee565b5b60005b85811015611e915781611e778882612081565b845260208401935060208301925050600181019050611e64565b5050509392505050565b6000611eae611ea984612a61565b6129e4565b905082815260208101848484011115611eca57611ec9612df3565b5b611ed5848285612c3a565b509392505050565b6000611ef0611eeb84612a92565b6129e4565b905082815260208101848484011115611f0c57611f0b612df3565b5b611f17848285612c3a565b509392505050565b600081359050611f2e81612f29565b92915050565b600081359050611f4381612f40565b92915050565b600082601f830112611f5e57611f5d612de9565b5b8135611f6e848260208601611dbb565b91505092915050565b600082601f830112611f8c57611f8b612de9565b5b8135611f9c848260208601611e2b565b91505092915050565b600081359050611fb481612f57565b92915050565b600081359050611fc981612f6e565b92915050565b600082601f830112611fe457611fe3612de9565b5b8135611ff4848260208601611e9b565b91505092915050565b60008083601f84011261201357612012612de9565b5b8235905067ffffffffffffffff8111156120305761202f612de4565b5b60208301915083600182028301111561204c5761204b612dee565b5b9250929050565b600082601f83011261206857612067612de9565b5b8135612078848260208601611edd565b91505092915050565b60008135905061209081612f85565b92915050565b6000602082840312156120ac576120ab612dfd565b5b60006120ba84828501611f1f565b91505092915050565b6000602082840312156120d9576120d8612dfd565b5b60006120e784828501611f34565b91505092915050565b6000806000806080858703121561210a57612109612dfd565b5b600061211887828801611f34565b945050602085013567ffffffffffffffff81111561213957612138612df8565b5b61214587828801612053565b935050604085013567ffffffffffffffff81111561216657612165612df8565b5b61217287828801612053565b925050606085013567ffffffffffffffff81111561219357612192612df8565b5b61219f87828801612053565b91505092959194509250565b600080604083850312156121c2576121c1612dfd565b5b60006121d085828601611f1f565b92505060206121e185828601611f1f565b9150509250929050565b600080600080600060a0868803121561220757612206612dfd565b5b600061221588828901611f1f565b955050602061222688828901611f1f565b945050604086013567ffffffffffffffff81111561224757612246612df8565b5b61225388828901611f77565b935050606086013567ffffffffffffffff81111561227457612273612df8565b5b61228088828901611f77565b925050608086013567ffffffffffffffff8111156122a1576122a0612df8565b5b6122ad88828901611fcf565b9150509295509295909350565b600080600080600060a086880312156122d6576122d5612dfd565b5b60006122e488828901611f1f565b95505060206122f588828901611f1f565b945050604061230688828901612081565b935050606061231788828901612081565b925050608086013567ffffffffffffffff81111561233857612337612df8565b5b61234488828901611fcf565b9150509295509295909350565b6000806040838503121561236857612367612dfd565b5b600061237685828601611f1f565b925050602061238785828601611fa5565b9150509250929050565b600080604083850312156123a8576123a7612dfd565b5b60006123b685828601611f1f565b92505060206123c785828601612081565b9150509250929050565b600080604083850312156123e8576123e7612dfd565b5b600083013567ffffffffffffffff81111561240657612405612df8565b5b61241285828601611f49565b925050602083013567ffffffffffffffff81111561243357612432612df8565b5b61243f85828601611f77565b9150509250929050565b60006020828403121561245f5761245e612dfd565b5b600061246d84828501611fba565b91505092915050565b60006020828403121561248c5761248b612dfd565b5b600061249a84828501612081565b91505092915050565b600080604083850312156124ba576124b9612dfd565b5b60006124c885828601612081565b92505060206124d985828601611f1f565b9150509250929050565b600080604083850312156124fa576124f9612dfd565b5b600061250885828601612081565b925050602061251985828601611f34565b9150509250929050565b6000806040838503121561253a57612539612dfd565b5b600061254885828601612081565b925050602061255985828601611fa5565b9150509250929050565b60008060006040848603121561257c5761257b612dfd565b5b600061258a86828701612081565b935050602084013567ffffffffffffffff8111156125ab576125aa612df8565b5b6125b786828701611ffd565b92509250509250925092565b60006125cf838361273a565b60208301905092915050565b6125e481612bb4565b82525050565b6125f381612ba2565b82525050565b600061260482612ad3565b61260e8185612af6565b935061261983612ac3565b8060005b8381101561264a57815161263188826125c3565b975061263c83612ae9565b92505060018101905061261d565b5085935050505092915050565b61266081612bc6565b82525050565b61266f81612c28565b82525050565b600061268082612ade565b61268a8185612b07565b935061269a818560208601612c49565b6126a381612e02565b840191505092915050565b60006126bb602b83612b07565b91506126c682612e13565b604082019050919050565b60006126de602683612b07565b91506126e982612e62565b604082019050919050565b6000612701602083612b07565b915061270c82612eb1565b602082019050919050565b6000612724602983612b07565b915061272f82612eda565b604082019050919050565b61274381612c1e565b82525050565b61275281612c1e565b82525050565b600060208201905061276d60008301846125ea565b92915050565b600060e082019050612788600083018a6125db565b818103602083015261279a8189612675565b905081810360408301526127ae8188612675565b905081810360608301526127c28187612675565b90506127d16080830186612657565b6127de60a0830185612749565b6127eb60c0830184612749565b98975050505050505050565b6000602082019050818103600083015261281181846125f9565b905092915050565b6000604082019050818103600083015261283381856125f9565b9050818103602083015261284781846125f9565b90509392505050565b60006020820190506128656000830184612657565b92915050565b600060208201905081810360008301526128858184612675565b905092915050565b600060208201905081810360008301526128a6816126ae565b9050919050565b600060208201905081810360008301526128c6816126d1565b9050919050565b600060208201905081810360008301526128e6816126f4565b9050919050565b6000602082019050818103600083015261290681612717565b9050919050565b60006020820190506129226000830184612749565b92915050565b60006101008201905061293e600083018b612749565b61294b602083018a6125db565b818103604083015261295d8189612675565b905081810360608301526129718188612675565b905081810360808301526129858187612675565b905061299460a0830186612657565b6129a160c0830185612666565b6129ae60e0830184612666565b9998505050505050505050565b60006040820190506129d06000830185612749565b6129dd6020830184612749565b9392505050565b60006129ee6129ff565b90506129fa8282612cae565b919050565b6000604051905090565b600067ffffffffffffffff821115612a2457612a23612db5565b5b602082029050602081019050919050565b600067ffffffffffffffff821115612a5057612a4f612db5565b5b602082029050602081019050919050565b600067ffffffffffffffff821115612a7c57612a7b612db5565b5b612a8582612e02565b9050602081019050919050565b600067ffffffffffffffff821115612aad57612aac612db5565b5b612ab682612e02565b9050602081019050919050565b6000819050602082019050919050565b600081519050919050565b600081519050919050565b6000602082019050919050565b600082825260208201905092915050565b600082825260208201905092915050565b6000612b2382612c1e565b9150612b2e83612c1e565b9250827fffffffffffffffffffffffffffffffffffffffffffffffffffffffffffffffff03821115612b6357612b62612d28565b5b828201905092915050565b6000612b7982612c1e565b9150612b8483612c1e565b925082821015612b9757612b96612d28565b5b828203905092915050565b6000612bad82612bfe565b9050919050565b6000612bbf82612bfe565b9050919050565b60008115159050919050565b60007fffffffff0000000000000000000000000000000000000000000000000000000082169050919050565b600073ffffffffffffffffffffffffffffffffffffffff82169050919050565b6000819050919050565b6000612c3382612c1e565b9050919050565b82818337600083830152505050565b60005b83811015612c67578082015181840152602081019050612c4c565b83811115612c76576000848401525b50505050565b60006002820490506001821680612c9457607f821691505b60208210811415612ca857612ca7612d57565b5b50919050565b612cb782612e02565b810181811067ffffffffffffffff82111715612cd657612cd5612db5565b5b80604052505050565b6000612cea82612c1e565b91507fffffffffffffffffffffffffffffffffffffffffffffffffffffffffffffffff821415612d1d57612d1c612d28565b5b600182019050919050565b7f4e487b7100000000000000000000000000000000000000000000000000000000600052601160045260246000fd5b7f4e487b7100000000000000000000000000000000000000000000000000000000600052602260045260246000fd5b7f4e487b7100000000000000000000000000000000000000000000000000000000600052603260045260246000fd5b7f4e487b7100000000000000000000000000000000000000000000000000000000600052604160045260246000fd5b600080fd5b600080fd5b600080fd5b600080fd5b600080fd5b600080fd5b6000601f19601f8301169050919050565b7f455243313135353a2062616c616e636520717565727920666f7220746865207a60008201527f65726f2061646472657373000000000000000000000000000000000000000000602082015250565b7f4f776e61626c653a206e6577206f776e657220697320746865207a65726f206160008201527f6464726573730000000000000000000000000000000000000000000000000000602082015250565b7f4f776e61626c653a2063616c6c6572206973206e6f7420746865206f776e6572600082015250565b7f455243313135353a206163636f756e747320616e6420696473206c656e67746860008201527f206d69736d617463680000000000000000000000000000000000000000000000602082015250565b612f3281612ba2565b8114612f3d57600080fd5b50565b612f4981612bb4565b8114612f5457600080fd5b50565b612f6081612bc6565b8114612f6b57600080fd5b50565b612f7781612bd2565b8114612f8257600080fd5b50565b612f8e81612c1e565b8114612f9957600080fd5b5056fea2646970667358221220e7c9342c6c8dd3bb31c2d4941c3be5f361c429ec4b538045f1882a5bce33feb964736f6c63430008060033",
  "immutableReferences": {},
  "source": "// SPDX-License-Identifier: MIT\npragma solidity ^0.8.0;\n\nimport \"./creatortokenownership.sol\";\n\ncontract CreatorTokenFormulas is CreatorTokenOwnership {\n\n\tconstructor(string memory uri) CreatorTokenOwnership(uri) { }\n\n\t// Calculate area under buy price function\n\tfunction _buyFunction(uint _startingSupply, uint _amount, uint _mNumerator, uint _mDenominator) internal pure returns (uint256) {\n\t\t// b(x) = m*x\n\t\tuint endSupply = _startingSupply + _amount;\n\t\tuint base1 = _mNumerator*_startingSupply/_mDenominator;\n\t\tuint base2 = _mNumerator*endSupply/_mDenominator;\n\t\tuint height = endSupply-_startingSupply;\n\t\tuint area = (base1 + base2) * height / 2;\n\t\treturn area;\n\t}\n\n\t// Calculate area under sale price function\n\tfunction _saleFunction(uint _startingSupply, uint _amount, uint _mNumerator, uint _mDenominator, uint _maxSupply, uint _profitMargin) internal pure returns (uint256) {\n\t\t// Calculate breakpoint and endSupply\n\t\t(uint a, uint b, uint endSupply) = _breakpoint(_startingSupply, _amount, _mNumerator, _mDenominator, _maxSupply, _profitMargin);\n\t\t// Initialize area under curve\n\t\tuint area = 0;\n\t\t// Check where _startingSupply is relative to the breakpoint\n\t\tif (_startingSupply < a) {\n\t\t\t// Just need trapezoidal area of partial entirely left of the breakpoint\n\t\t\tarea = _leftArea(a, b, _startingSupply, endSupply);\n\t\t} else if (endSupply < a) {\n\t\t\t// Scenario in which _startingSupply >= a, and endSupply < a\n\t\t\t// There, need trapezoidal area of components both to right and left of breakpoint\n\t\t\tarea = _bothArea(a, b, _startingSupply, endSupply, _mNumerator, _mDenominator, _maxSupply);\n\t\t} else {\n\t\t\t// Scenario in which entire sale occurs to right of breakpoint\n\t\t\t// Just need trapezoidal area of partial entirely right of the breakpoint\n\t\t\tarea = _rightArea(a, b, _startingSupply, endSupply, _mNumerator, _mDenominator, _maxSupply);\n\t\t}\n\t\treturn area;\n\t}\n\n\t// Calculate breakpoint and other key inputs into _saleFunction\n\tfunction _breakpoint(uint _startingSupply, uint _amount, uint _mNumerator, uint _mDenominator, uint _maxSupply, uint _profitMargin) internal pure returns (uint, uint, uint) {\n\t\t// Define breakpoint (a,b) chosen s.t. area under sale price function is (1-profitMargin) times area under buy price function\n\t\tuint a = _maxSupply/2;\n\t\tuint b = _maxSupply*(50-_profitMargin)/100*_mNumerator/_mDenominator;\n\t\tuint endSupply = _startingSupply - _amount;\n\t\treturn (a, b, endSupply);\n\t}\n\n\t// _saleFunction scenario in which entire transaction occurs left of breakpoint\n\tfunction _leftArea(uint _a, uint _b, uint _startingSupply, uint _endSupply) internal pure returns (uint256) {\n\t\t\t//uint base1 = ((_b/_a)*(_a-_endSupply)+_b);\n\t\t\t//uint base1 = ((_b/_a)*(_endSupply-_a)+_b);\n\t\t\tuint base1 = (_b-(_b/_a)*(_a-_endSupply));\n\t\t\t//uint base2 = ((_b/_a)*(_a-_startingSupply)+_b);\n\t\t\t//uint base2 = ((_b/_a)*(_startingSupply-_a)+_b);\n\t\t\tuint base2 = (_b-(_b/_a)*(_a-_startingSupply));\n\t\t\tuint height = _startingSupply-_endSupply;\n\t\t\treturn (base1 + base2) * height / 2;\n\t}\n\n\t// _saleFunction scenario in which transaction crosses breakpoint\n\tfunction _bothArea(uint _a, uint _b, uint _startingSupply, uint _endSupply, uint _mNumerator, uint _mDenominator, uint _maxSupply) internal pure returns (uint256) {\n\t\t//uint leftBase1 = ((_b/_a)*(_a-_endSupply)+_b);\n\t\t//uint leftBase1 = ((_b/_a)*(_endSupply-_a)+_b);\n\t\tuint leftBase1 = (_b-(_b/_a)*(_a-_endSupply));\n\t\tuint sharedBase = _b;\n\t\tuint leftHeight = _a-_endSupply;\n\t\tuint leftArea = (leftBase1 + sharedBase) * leftHeight / 2;\n\t\tuint rightBase2 = (_mNumerator*_maxSupply/_mDenominator-_b)/(_maxSupply-_a)*(_startingSupply-_a)+_b;\n\t\tuint rightHeight = _startingSupply-_a;\n\t\tuint rightArea = (sharedBase + rightBase2) * rightHeight / 2;\n\t\treturn leftArea + rightArea;\n\t}\n\n\t// _saleFunction scneario in which entire transaction occurs right of breakpoint\n\tfunction _rightArea(uint _a, uint _b, uint _startingSupply, uint _endSupply, uint _mNumerator, uint _mDenominator, uint _maxSupply) internal pure returns (uint256) {\n\t\tuint base1 = (((_mNumerator*_maxSupply/_mDenominator-_b)/(_maxSupply-_a))*(_endSupply-_a)+_b);\n\t\tuint base2 = (((_mNumerator*_maxSupply/_mDenominator-_b)/(_maxSupply-_a))*(_startingSupply-_a)+_b);\n\t\tuint height = _startingSupply-_endSupply;\n\t\treturn (base1 + base2) * height / 2;\n\t}\n}\n",
  "sourcePath": "/Users/kamilalizaisadik/DeFi/Dynamic Automated Market Maker/damm_solidity/contracts/creatortokenformulas.sol",
  "compiler": {
    "name": "solc",
    "version": "0.8.6+commit.11564f7e.Emscripten.clang"
  },
  "schemaVersion": "3.4.1",
  "updatedAt": "2021-07-10T16:46:03.249Z",
  "devdoc": {
    "kind": "dev",
    "methods": {
      "balanceOf(address,uint256)": {
        "details": "See {IERC1155-balanceOf}. Requirements: - `account` cannot be the zero address."
      },
      "balanceOfBatch(address[],uint256[])": {
        "details": "See {IERC1155-balanceOfBatch}. Requirements: - `accounts` and `ids` must have the same length."
      },
      "owner()": {
        "details": "Returns the address of the current owner."
      },
      "renounceOwnership()": {
        "details": "Leaves the contract without owner. It will not be possible to call `onlyOwner` functions anymore. Can only be called by the current owner. NOTE: Renouncing ownership will leave the contract without an owner, thereby removing any functionality that is only available to the owner."
      },
      "supportsInterface(bytes4)": {
        "details": "See {IERC165-supportsInterface}."
      },
      "transferOwnership(address)": {
        "details": "Transfers ownership of the contract to a new account (`newOwner`). Can only be called by the current owner."
      },
      "uri(uint256)": {
        "details": "See {IERC1155MetadataURI-uri}. This implementation returns the same URI for *all* token types. It relies on the token type ID substitution mechanism https://eips.ethereum.org/EIPS/eip-1155#metadata[defined in the EIP]. Clients calling this function must replace the `\\{id\\}` substring with the actual token type ID."
      }
    },
    "version": 1
  },
  "userdoc": {
    "kind": "user",
    "methods": {},
    "version": 1
  }
}