{
  "contractName": "CreatorTokenHelper",
  "abi": [
    {
      "anonymous": false,
      "inputs": [
        {
          "indexed": false,
          "internalType": "uint256",
          "name": "tokenId",
          "type": "uint256"
        },
        {
          "indexed": false,
          "internalType": "address payable",
          "name": "creatorAddress",
          "type": "address"
        },
        {
          "indexed": false,
          "internalType": "string",
          "name": "name",
          "type": "string"
        },
        {
          "indexed": false,
          "internalType": "string",
          "name": "symbol",
          "type": "string"
        },
        {
          "indexed": false,
          "internalType": "string",
          "name": "description",
          "type": "string"
        },
        {
          "indexed": false,
          "internalType": "bool",
          "name": "verified",
          "type": "bool"
        },
        {
          "indexed": false,
          "internalType": "uint256",
          "name": "outstanding",
          "type": "uint256"
        },
        {
          "indexed": false,
          "internalType": "uint256",
          "name": "maxSupply",
          "type": "uint256"
        }
      ],
      "name": "NewCreatorToken",
      "type": "event"
    },
    {
      "anonymous": false,
      "inputs": [
        {
          "indexed": true,
          "internalType": "address",
          "name": "previousOwner",
          "type": "address"
        },
        {
          "indexed": true,
          "internalType": "address",
          "name": "newOwner",
          "type": "address"
        }
      ],
      "name": "OwnershipTransferred",
      "type": "event"
    },
    {
      "inputs": [
        {
          "internalType": "address",
          "name": "",
          "type": "address"
        },
        {
          "internalType": "address",
          "name": "",
          "type": "address"
        }
      ],
      "name": "approvals",
      "outputs": [
        {
          "internalType": "bool",
          "name": "",
          "type": "bool"
        }
      ],
      "stateMutability": "view",
      "type": "function"
    },
    {
      "inputs": [
        {
          "internalType": "address payable",
          "name": "_creatorAddress",
          "type": "address"
        },
        {
          "internalType": "string",
          "name": "_name",
          "type": "string"
        },
        {
          "internalType": "string",
          "name": "_symbol",
          "type": "string"
        },
        {
          "internalType": "string",
          "name": "_description",
          "type": "string"
        }
      ],
      "name": "createCreatorToken",
      "outputs": [],
      "stateMutability": "nonpayable",
      "type": "function"
    },
    {
      "inputs": [
        {
          "internalType": "uint256",
          "name": "",
          "type": "uint256"
        }
      ],
      "name": "creatorTokens",
      "outputs": [
        {
          "internalType": "address payable",
          "name": "creatorAddress",
          "type": "address"
        },
        {
          "internalType": "string",
          "name": "name",
          "type": "string"
        },
        {
          "internalType": "string",
          "name": "symbol",
          "type": "string"
        },
        {
          "internalType": "string",
          "name": "description",
          "type": "string"
        },
        {
          "internalType": "bool",
          "name": "verified",
          "type": "bool"
        },
        {
          "internalType": "uint256",
          "name": "outstanding",
          "type": "uint256"
        },
        {
          "internalType": "uint256",
          "name": "maxSupply",
          "type": "uint256"
        }
      ],
      "stateMutability": "view",
      "type": "function"
    },
    {
      "inputs": [],
      "name": "numCreatorTokens",
      "outputs": [
        {
          "internalType": "uint256",
          "name": "",
          "type": "uint256"
        }
      ],
      "stateMutability": "view",
      "type": "function"
    },
    {
      "inputs": [],
      "name": "owner",
      "outputs": [
        {
          "internalType": "address",
          "name": "",
          "type": "address"
        }
      ],
      "stateMutability": "view",
      "type": "function"
    },
    {
      "inputs": [],
      "name": "platformFeesOwed",
      "outputs": [
        {
          "internalType": "uint256",
          "name": "",
          "type": "uint256"
        }
      ],
      "stateMutability": "view",
      "type": "function"
    },
    {
      "inputs": [],
      "name": "renounceOwnership",
      "outputs": [],
      "stateMutability": "nonpayable",
      "type": "function"
    },
    {
      "inputs": [
        {
          "internalType": "uint256",
          "name": "",
          "type": "uint256"
        },
        {
          "internalType": "address",
          "name": "",
          "type": "address"
        }
      ],
      "name": "tokenHoldership",
      "outputs": [
        {
          "internalType": "uint256",
          "name": "",
          "type": "uint256"
        }
      ],
      "stateMutability": "view",
      "type": "function"
    },
    {
      "inputs": [
        {
          "internalType": "uint256",
          "name": "",
          "type": "uint256"
        }
      ],
      "name": "tokenToCreator",
      "outputs": [
        {
          "internalType": "address",
          "name": "",
          "type": "address"
        }
      ],
      "stateMutability": "view",
      "type": "function"
    },
    {
      "inputs": [
        {
          "internalType": "uint256",
          "name": "",
          "type": "uint256"
        }
      ],
      "name": "tokenValueTransferred",
      "outputs": [
        {
          "internalType": "uint256",
          "name": "",
          "type": "uint256"
        }
      ],
      "stateMutability": "view",
      "type": "function"
    },
    {
      "inputs": [],
      "name": "totalPlatformFees",
      "outputs": [
        {
          "internalType": "uint256",
          "name": "",
          "type": "uint256"
        }
      ],
      "stateMutability": "view",
      "type": "function"
    },
    {
      "inputs": [
        {
          "internalType": "uint256",
          "name": "",
          "type": "uint256"
        }
      ],
      "name": "totalValueLocked",
      "outputs": [
        {
          "internalType": "uint256",
          "name": "",
          "type": "uint256"
        }
      ],
      "stateMutability": "view",
      "type": "function"
    },
    {
      "inputs": [
        {
          "internalType": "address",
          "name": "newOwner",
          "type": "address"
        }
      ],
      "name": "transferOwnership",
      "outputs": [],
      "stateMutability": "nonpayable",
      "type": "function"
    },
    {
      "inputs": [
        {
          "internalType": "address",
          "name": "",
          "type": "address"
        },
        {
          "internalType": "uint256",
          "name": "",
          "type": "uint256"
        }
      ],
      "name": "userToHoldings",
      "outputs": [
        {
          "internalType": "uint256",
          "name": "",
          "type": "uint256"
        }
      ],
      "stateMutability": "view",
      "type": "function"
    },
    {
      "inputs": [
        {
          "internalType": "address payable",
          "name": "_owner",
          "type": "address"
        }
      ],
      "name": "withdraw",
      "outputs": [],
      "stateMutability": "nonpayable",
      "type": "function"
    },
    {
      "inputs": [
        {
          "internalType": "address payable",
          "name": "_owner",
          "type": "address"
        }
      ],
      "name": "payoutPlatformFees",
      "outputs": [],
      "stateMutability": "nonpayable",
      "type": "function"
    },
    {
      "inputs": [
        {
          "internalType": "uint256",
          "name": "_newPlatformFee",
          "type": "uint256"
        }
      ],
      "name": "changePlatformFee",
      "outputs": [],
      "stateMutability": "nonpayable",
      "type": "function"
    },
    {
      "inputs": [
        {
          "internalType": "uint256",
          "name": "_newProfitMargin",
          "type": "uint256"
        }
      ],
      "name": "changeProfitMargin",
      "outputs": [],
      "stateMutability": "nonpayable",
      "type": "function"
    },
    {
      "inputs": [
        {
          "internalType": "uint256",
          "name": "_tokenId",
          "type": "uint256"
        },
        {
          "internalType": "bool",
          "name": "_verified",
          "type": "bool"
        }
      ],
      "name": "changeVerification",
      "outputs": [],
      "stateMutability": "nonpayable",
      "type": "function"
    },
    {
      "inputs": [
        {
          "internalType": "uint256",
          "name": "_tokenId",
          "type": "uint256"
        },
        {
          "internalType": "address payable",
          "name": "_newCreatorAddress",
          "type": "address"
        }
      ],
      "name": "changeAddress",
      "outputs": [],
      "stateMutability": "nonpayable",
      "type": "function"
    },
    {
      "inputs": [
        {
          "internalType": "uint256",
          "name": "_tokenId",
          "type": "uint256"
        },
        {
          "internalType": "string",
          "name": "_newName",
          "type": "string"
        }
      ],
      "name": "changeName",
      "outputs": [],
      "stateMutability": "nonpayable",
      "type": "function"
    },
    {
      "inputs": [
        {
          "internalType": "uint256",
          "name": "_tokenId",
          "type": "uint256"
        },
        {
          "internalType": "string",
          "name": "_newSymbol",
          "type": "string"
        }
      ],
      "name": "changeSymbol",
      "outputs": [],
      "stateMutability": "nonpayable",
      "type": "function"
    },
    {
      "inputs": [
        {
          "internalType": "uint256",
          "name": "_tokenId",
          "type": "uint256"
        },
        {
          "internalType": "string",
          "name": "_newDescription",
          "type": "string"
        }
      ],
      "name": "changeDescription",
      "outputs": [],
      "stateMutability": "nonpayable",
      "type": "function"
    }
  ],
  "bytecode": "0x608060405260018055600060025560006003556000600455601460055565082f79cd900060065560b960075534801561003757600080fd5b5060006100486100eb60201b60201c565b9050806000806101000a81548173ffffffffffffffffffffffffffffffffffffffff021916908373ffffffffffffffffffffffffffffffffffffffff1602179055508073ffffffffffffffffffffffffffffffffffffffff16600073ffffffffffffffffffffffffffffffffffffffff167f8be0079c531659141344cd1fd0a4f28419497f9722a3daafe3b4186f6b6457e060405160405180910390a3506100f3565b600033905090565b611e60806101026000396000f3fe608060405234801561001057600080fd5b506004361061014d5760003560e01c8063c1d33049116100c3578063d7a5791a1161007c578063d7a5791a146103a2578063d9bd3a40146103be578063de6a06ed146103ee578063eb8417591461040a578063f2fde38b14610426578063f7374e2e146104425761014d565b8063c1d33049146102dc578063c39cbef1146102fa578063c539c31714610316578063ce901d8a14610332578063d3631fa514610368578063d56b72c7146103865761014d565b8063715018a611610115578063715018a6146102065780638da5cb5b1461021057806392724afa1461022e578063a32ce11e1461025e578063afb218321461028e578063bfb48c9c146102ac5761014d565b806306e320f51461015257806317bcaa081461016e57806318892ae81461019e5780631d5ad18b146101ce57806351cff8d9146101ea575b600080fd5b61016c60048036038101906101679190611799565b61045e565b005b610188600480360381019061018391906116ac565b610505565b60405161019591906119bd565b60405180910390f35b6101b860048036038101906101b391906116ac565b61051d565b6040516101c591906118c3565b60405180910390f35b6101e860048036038101906101e39190611719565b610550565b005b61020460048036038101906101ff9190611544565b610625565b005b61020e6106eb565b005b610218610825565b60405161022591906118c3565b60405180910390f35b6102486004803603810190610243919061166c565b61084e565b60405161025591906119bd565b60405180910390f35b6102786004803603810190610273919061162c565b610873565b6040516102859190611962565b60405180910390f35b6102966108a2565b6040516102a391906119bd565b60405180910390f35b6102c660048036038101906102c191906116d9565b6108a8565b6040516102d391906119bd565b60405180910390f35b6102e46108cd565b6040516102f191906119bd565b60405180910390f35b610314600480360381019061030f9190611799565b6108d3565b005b610330600480360381019061032b91906116ac565b61097a565b005b61034c600480360381019061034791906116ac565b610a00565b60405161035f97969594939291906118de565b60405180910390f35b610370610c17565b60405161037d91906119bd565b60405180910390f35b6103a0600480360381019061039b9190611571565b610c1d565b005b6103bc60048036038101906103b791906116ac565b610e51565b005b6103d860048036038101906103d391906116ac565b610ed7565b6040516103e591906119bd565b60405180910390f35b61040860048036038101906104039190611799565b610eef565b005b610424600480360381019061041f9190611544565b610f96565b005b610440600480360381019061043b9190611517565b611066565b005b61045c60048036038101906104579190611759565b61120f565b005b826009600082815260200190815260200160002060009054906101000a900473ffffffffffffffffffffffffffffffffffffffff1673ffffffffffffffffffffffffffffffffffffffff163373ffffffffffffffffffffffffffffffffffffffff16146104ca57600080fd5b8282600886815481106104e0576104df611cc9565b5b906000526020600020906007020160020191906104fe9291906112d4565b5050505050565b600a6020528060005260406000206000915090505481565b60096020528060005260406000206000915054906101000a900473ffffffffffffffffffffffffffffffffffffffff1681565b816009600082815260200190815260200160002060009054906101000a900473ffffffffffffffffffffffffffffffffffffffff1673ffffffffffffffffffffffffffffffffffffffff163373ffffffffffffffffffffffffffffffffffffffff16146105bc57600080fd5b81600884815481106105d1576105d0611cc9565b5b906000526020600020906007020160000160006101000a81548173ffffffffffffffffffffffffffffffffffffffff021916908373ffffffffffffffffffffffffffffffffffffffff160217905550505050565b61062d6112cc565b73ffffffffffffffffffffffffffffffffffffffff1661064b610825565b73ffffffffffffffffffffffffffffffffffffffff16146106a1576040517f08c379a00000000000000000000000000000000000000000000000000000000081526004016106989061199d565b60405180910390fd5b8073ffffffffffffffffffffffffffffffffffffffff166108fc479081150290604051600060405180830381858888f193505050501580156106e7573d6000803e3d6000fd5b5050565b6106f36112cc565b73ffffffffffffffffffffffffffffffffffffffff16610711610825565b73ffffffffffffffffffffffffffffffffffffffff1614610767576040517f08c379a000000000000000000000000000000000000000000000000000000000815260040161075e9061199d565b60405180910390fd5b600073ffffffffffffffffffffffffffffffffffffffff1660008054906101000a900473ffffffffffffffffffffffffffffffffffffffff1673ffffffffffffffffffffffffffffffffffffffff167f8be0079c531659141344cd1fd0a4f28419497f9722a3daafe3b4186f6b6457e060405160405180910390a360008060006101000a81548173ffffffffffffffffffffffffffffffffffffffff021916908373ffffffffffffffffffffffffffffffffffffffff160217905550565b60008060009054906101000a900473ffffffffffffffffffffffffffffffffffffffff16905090565b600c602052816000526040600020602052806000526040600020600091509150505481565b600d6020528160005260406000206020528060005260406000206000915091509054906101000a900460ff1681565b60045481565b600b602052816000526040600020602052806000526040600020600091509150505481565b60035481565b826009600082815260200190815260200160002060009054906101000a900473ffffffffffffffffffffffffffffffffffffffff1673ffffffffffffffffffffffffffffffffffffffff163373ffffffffffffffffffffffffffffffffffffffff161461093f57600080fd5b82826008868154811061095557610954611cc9565b5b906000526020600020906007020160010191906109739291906112d4565b5050505050565b6109826112cc565b73ffffffffffffffffffffffffffffffffffffffff166109a0610825565b73ffffffffffffffffffffffffffffffffffffffff16146109f6576040517f08c379a00000000000000000000000000000000000000000000000000000000081526004016109ed9061199d565b60405180910390fd5b8060058190555050565b60088181548110610a1057600080fd5b90600052602060002090600702016000915090508060000160009054906101000a900473ffffffffffffffffffffffffffffffffffffffff1690806001018054610a5990611bbf565b80601f0160208091040260200160405190810160405280929190818152602001828054610a8590611bbf565b8015610ad25780601f10610aa757610100808354040283529160200191610ad2565b820191906000526020600020905b815481529060010190602001808311610ab557829003601f168201915b505050505090806002018054610ae790611bbf565b80601f0160208091040260200160405190810160405280929190818152602001828054610b1390611bbf565b8015610b605780601f10610b3557610100808354040283529160200191610b60565b820191906000526020600020905b815481529060010190602001808311610b4357829003601f168201915b505050505090806003018054610b7590611bbf565b80601f0160208091040260200160405190810160405280929190818152602001828054610ba190611bbf565b8015610bee5780601f10610bc357610100808354040283529160200191610bee565b820191906000526020600020905b815481529060010190602001808311610bd157829003601f168201915b5050505050908060040160009054906101000a900460ff16908060050154908060060154905087565b60025481565b60086040518060e001604052808673ffffffffffffffffffffffffffffffffffffffff168152602001858152602001848152602001838152602001600015158152602001600081526020016000815250908060018154018082558091505060019003906000526020600020906007020160009091909190915060008201518160000160006101000a81548173ffffffffffffffffffffffffffffffffffffffff021916908373ffffffffffffffffffffffffffffffffffffffff1602179055506020820151816001019080519060200190610cf992919061135a565b506040820151816002019080519060200190610d1692919061135a565b506060820151816003019080519060200190610d3392919061135a565b5060808201518160040160006101000a81548160ff02191690831515021790555060a0820151816005015560c08201518160060155505060006001600880549050610d7e9190611add565b9050846009600083815260200190815260200160002060006101000a81548173ffffffffffffffffffffffffffffffffffffffff021916908373ffffffffffffffffffffffffffffffffffffffff1602179055506000600a60008381526020019081526020016000208190555060046000815480929190610dfe90611c22565b91905055507f3ef624c0f3fb7ad40b94c02078ea3e3a797dbfc21e921ee4bd2b8ad0ca6aa11381868686866000806000604051610e429897969594939291906119d8565b60405180910390a15050505050565b610e596112cc565b73ffffffffffffffffffffffffffffffffffffffff16610e77610825565b73ffffffffffffffffffffffffffffffffffffffff1614610ecd576040517f08c379a0000000000000000000000000000000000000000000000000000000008152600401610ec49061199d565b60405180910390fd5b8060018190555050565b600e6020528060005260406000206000915090505481565b826009600082815260200190815260200160002060009054906101000a900473ffffffffffffffffffffffffffffffffffffffff1673ffffffffffffffffffffffffffffffffffffffff163373ffffffffffffffffffffffffffffffffffffffff1614610f5b57600080fd5b828260088681548110610f7157610f70611cc9565b5b90600052602060002090600702016003019190610f8f9291906112d4565b5050505050565b610f9e6112cc565b73ffffffffffffffffffffffffffffffffffffffff16610fbc610825565b73ffffffffffffffffffffffffffffffffffffffff1614611012576040517f08c379a00000000000000000000000000000000000000000000000000000000081526004016110099061199d565b60405180910390fd5b8073ffffffffffffffffffffffffffffffffffffffff166108fc6003549081150290604051600060405180830381858888f1935050505015801561105a573d6000803e3d6000fd5b50600060038190555050565b61106e6112cc565b73ffffffffffffffffffffffffffffffffffffffff1661108c610825565b73ffffffffffffffffffffffffffffffffffffffff16146110e2576040517f08c379a00000000000000000000000000000000000000000000000000000000081526004016110d99061199d565b60405180910390fd5b600073ffffffffffffffffffffffffffffffffffffffff168173ffffffffffffffffffffffffffffffffffffffff161415611152576040517f08c379a00000000000000000000000000000000000000000000000000000000081526004016111499061197d565b60405180910390fd5b8073ffffffffffffffffffffffffffffffffffffffff1660008054906101000a900473ffffffffffffffffffffffffffffffffffffffff1673ffffffffffffffffffffffffffffffffffffffff167f8be0079c531659141344cd1fd0a4f28419497f9722a3daafe3b4186f6b6457e060405160405180910390a3806000806101000a81548173ffffffffffffffffffffffffffffffffffffffff021916908373ffffffffffffffffffffffffffffffffffffffff16021790555050565b6112176112cc565b73ffffffffffffffffffffffffffffffffffffffff16611235610825565b73ffffffffffffffffffffffffffffffffffffffff161461128b576040517f08c379a00000000000000000000000000000000000000000000000000000000081526004016112829061199d565b60405180910390fd5b80600883815481106112a05761129f611cc9565b5b906000526020600020906007020160040160006101000a81548160ff0219169083151502179055505050565b600033905090565b8280546112e090611bbf565b90600052602060002090601f0160209004810192826113025760008555611349565b82601f1061131b57803560ff1916838001178555611349565b82800160010185558215611349579182015b8281111561134857823582559160200191906001019061132d565b5b50905061135691906113e0565b5090565b82805461136690611bbf565b90600052602060002090601f01602090048101928261138857600085556113cf565b82601f106113a157805160ff19168380011785556113cf565b828001600101855582156113cf579182015b828111156113ce5782518255916020019190600101906113b3565b5b5090506113dc91906113e0565b5090565b5b808211156113f95760008160009055506001016113e1565b5090565b600061141061140b84611a90565b611a6b565b90508281526020810184848401111561142c5761142b611d36565b5b611437848285611b7d565b509392505050565b60008135905061144e81611dce565b92915050565b60008135905061146381611de5565b92915050565b60008135905061147881611dfc565b92915050565b60008083601f84011261149457611493611d2c565b5b8235905067ffffffffffffffff8111156114b1576114b0611d27565b5b6020830191508360018202830111156114cd576114cc611d31565b5b9250929050565b600082601f8301126114e9576114e8611d2c565b5b81356114f98482602086016113fd565b91505092915050565b60008135905061151181611e13565b92915050565b60006020828403121561152d5761152c611d40565b5b600061153b8482850161143f565b91505092915050565b60006020828403121561155a57611559611d40565b5b600061156884828501611454565b91505092915050565b6000806000806080858703121561158b5761158a611d40565b5b600061159987828801611454565b945050602085013567ffffffffffffffff8111156115ba576115b9611d3b565b5b6115c6878288016114d4565b935050604085013567ffffffffffffffff8111156115e7576115e6611d3b565b5b6115f3878288016114d4565b925050606085013567ffffffffffffffff81111561161457611613611d3b565b5b611620878288016114d4565b91505092959194509250565b6000806040838503121561164357611642611d40565b5b60006116518582860161143f565b92505060206116628582860161143f565b9150509250929050565b6000806040838503121561168357611682611d40565b5b60006116918582860161143f565b92505060206116a285828601611502565b9150509250929050565b6000602082840312156116c2576116c1611d40565b5b60006116d084828501611502565b91505092915050565b600080604083850312156116f0576116ef611d40565b5b60006116fe85828601611502565b925050602061170f8582860161143f565b9150509250929050565b600080604083850312156117305761172f611d40565b5b600061173e85828601611502565b925050602061174f85828601611454565b9150509250929050565b600080604083850312156117705761176f611d40565b5b600061177e85828601611502565b925050602061178f85828601611469565b9150509250929050565b6000806000604084860312156117b2576117b1611d40565b5b60006117c086828701611502565b935050602084013567ffffffffffffffff8111156117e1576117e0611d3b565b5b6117ed8682870161147e565b92509250509250925092565b61180281611b23565b82525050565b61181181611b11565b82525050565b61182081611b35565b82525050565b61182f81611b6b565b82525050565b600061184082611ac1565b61184a8185611acc565b935061185a818560208601611b8c565b61186381611d45565b840191505092915050565b600061187b602683611acc565b915061188682611d56565b604082019050919050565b600061189e602083611acc565b91506118a982611da5565b602082019050919050565b6118bd81611b61565b82525050565b60006020820190506118d86000830184611808565b92915050565b600060e0820190506118f3600083018a6117f9565b81810360208301526119058189611835565b905081810360408301526119198188611835565b9050818103606083015261192d8187611835565b905061193c6080830186611817565b61194960a08301856118b4565b61195660c08301846118b4565b98975050505050505050565b60006020820190506119776000830184611817565b92915050565b600060208201905081810360008301526119968161186e565b9050919050565b600060208201905081810360008301526119b681611891565b9050919050565b60006020820190506119d260008301846118b4565b92915050565b6000610100820190506119ee600083018b6118b4565b6119fb602083018a6117f9565b8181036040830152611a0d8189611835565b90508181036060830152611a218188611835565b90508181036080830152611a358187611835565b9050611a4460a0830186611817565b611a5160c0830185611826565b611a5e60e0830184611826565b9998505050505050505050565b6000611a75611a86565b9050611a818282611bf1565b919050565b6000604051905090565b600067ffffffffffffffff821115611aab57611aaa611cf8565b5b611ab482611d45565b9050602081019050919050565b600081519050919050565b600082825260208201905092915050565b6000611ae882611b61565b9150611af383611b61565b925082821015611b0657611b05611c6b565b5b828203905092915050565b6000611b1c82611b41565b9050919050565b6000611b2e82611b41565b9050919050565b60008115159050919050565b600073ffffffffffffffffffffffffffffffffffffffff82169050919050565b6000819050919050565b6000611b7682611b61565b9050919050565b82818337600083830152505050565b60005b83811015611baa578082015181840152602081019050611b8f565b83811115611bb9576000848401525b50505050565b60006002820490506001821680611bd757607f821691505b60208210811415611beb57611bea611c9a565b5b50919050565b611bfa82611d45565b810181811067ffffffffffffffff82111715611c1957611c18611cf8565b5b80604052505050565b6000611c2d82611b61565b91507fffffffffffffffffffffffffffffffffffffffffffffffffffffffffffffffff821415611c6057611c5f611c6b565b5b600182019050919050565b7f4e487b7100000000000000000000000000000000000000000000000000000000600052601160045260246000fd5b7f4e487b7100000000000000000000000000000000000000000000000000000000600052602260045260246000fd5b7f4e487b7100000000000000000000000000000000000000000000000000000000600052603260045260246000fd5b7f4e487b7100000000000000000000000000000000000000000000000000000000600052604160045260246000fd5b600080fd5b600080fd5b600080fd5b600080fd5b600080fd5b600080fd5b6000601f19601f8301169050919050565b7f4f776e61626c653a206e6577206f776e657220697320746865207a65726f206160008201527f6464726573730000000000000000000000000000000000000000000000000000602082015250565b7f4f776e61626c653a2063616c6c6572206973206e6f7420746865206f776e6572600082015250565b611dd781611b11565b8114611de257600080fd5b50565b611dee81611b23565b8114611df957600080fd5b50565b611e0581611b35565b8114611e1057600080fd5b50565b611e1c81611b61565b8114611e2757600080fd5b5056fea2646970667358221220431dda9347be8c6e3e3772aed051025505ccac277e9b3fb1ad324eec95fb19d664736f6c63430008060033",
  "immutableReferences": {},
  "source": "// SPDX-License-Identifier: MIT\npragma solidity ^0.8.0;\n\nimport \"./creatortokenfactory.sol\";\n\n/// @title A contract with helper functions enabling Owner- and creator-specific functions\n/// @author Kamil Alizai Sadik\ncontract CreatorTokenHelper is CreatorTokenFactory {\n\n\t/// @dev Modifier checking whether user is creator of the token\n\t/// @param _tokenId ID of the token in question\n\tmodifier onlyCreatorOf(uint _tokenId) {\n\t\trequire(msg.sender == tokenToCreator[_tokenId]);\n\t\t_;\n\t}\n\n\t/// @dev Ownable function allowing for withdrawal\n\t/// @param _owner Owner of the smart contract\n\tfunction withdraw(address payable _owner) external onlyOwner {\n\t\t_owner.transfer(address(this).balance);\n\t}\n\n\t/// @dev Pays out platform fees owed to owner (might opt to call this daily)\n\t/// @param _owner Owner of the smart contract\n\tfunction payoutPlatformFees(address payable _owner) external onlyOwner {\n\t\t_owner.transfer(platformFeesOwed);\n\t\t// Reset platformFeesOwed to zero after payout\n\t\tplatformFeesOwed = 0;\n\t}\n\n\t/// @dev Allows owner to change platformFee\n\t/// @param _newPlatformFee New platform fee\n\tfunction changePlatformFee(uint _newPlatformFee) external onlyOwner {\n\t\tplatformFee = _newPlatformFee;\n\t}\n\n\t/// @dev Allows owner to change profit_margin\n\t/// @param _newProfitMargin New profit margin\n\tfunction changeProfitMargin(uint _newProfitMargin) external onlyOwner {\n\t\tprofitMargin = _newProfitMargin;\n\t}\n\n\t/// @dev Allows owner to verify (or undo verification) of a CreatorToken\n\t/// @param _tokenId ID of the token in question\n\t/// @param _verified Verification status of the token in question\n\tfunction changeVerification(uint _tokenId, bool _verified) external onlyOwner {\n\t\tcreatorTokens[_tokenId].verified = _verified;\n\t}\n\n\t/// @dev Allows token creator to change their address\n\t/// @param _tokenId ID of the token in question\n\t/// @param _newCreatorAddress New creator address associated with the token\n\tfunction changeAddress(uint _tokenId, address payable _newCreatorAddress) external onlyCreatorOf(_tokenId) {\n\t\tcreatorTokens[_tokenId].creatorAddress = _newCreatorAddress;\n\t}\n\n\t/// @dev Allows token creator to change the name of their token\n\t/// @param _tokenId ID of the token in question\n\t/// @param _newName New name associated with the token\n\tfunction changeName(uint _tokenId, string calldata _newName) external onlyCreatorOf(_tokenId) {\n\t\tcreatorTokens[_tokenId].name = _newName;\n\t}\n\n\t/// @dev Allows token creator to change the symbol of their token\n\t/// @param _tokenId ID of the token in question\n\t/// @param _newSymbol New symbol associated with the token\n\tfunction changeSymbol(uint _tokenId, string calldata _newSymbol) external onlyCreatorOf(_tokenId) {\n\t\tcreatorTokens[_tokenId].symbol = _newSymbol;\n\t}\n\n\t/// @dev Allows token creator to change the description of their token\n\t/// @param _tokenId ID of the token in question\n\t/// @param _newDescription New description associated with the token\n\tfunction changeDescription(uint _tokenId, string calldata _newDescription) external onlyCreatorOf(_tokenId) {\n\t\tcreatorTokens[_tokenId].description = _newDescription;\n\t}\n}",
  "sourcePath": "/Users/kamilalizaisadik/DeFi/Dynamic Automated Market Maker/CreatorTokenExchange/contracts/creatortokenhelper.sol",
  "compiler": {
    "name": "solc",
    "version": "0.8.6+commit.11564f7e.Emscripten.clang"
  },
  "schemaVersion": "3.4.1",
  "updatedAt": "2021-07-31T18:06:31.539Z",
  "devdoc": {
    "author": "Kamil Alizai Sadik",
    "kind": "dev",
    "methods": {
      "changeAddress(uint256,address)": {
        "details": "Allows token creator to change their address",
        "params": {
          "_newCreatorAddress": "New creator address associated with the token",
          "_tokenId": "ID of the token in question"
        }
      },
      "changeDescription(uint256,string)": {
        "details": "Allows token creator to change the description of their token",
        "params": {
          "_newDescription": "New description associated with the token",
          "_tokenId": "ID of the token in question"
        }
      },
      "changeName(uint256,string)": {
        "details": "Allows token creator to change the name of their token",
        "params": {
          "_newName": "New name associated with the token",
          "_tokenId": "ID of the token in question"
        }
      },
      "changePlatformFee(uint256)": {
        "details": "Allows owner to change platformFee",
        "params": {
          "_newPlatformFee": "New platform fee"
        }
      },
      "changeProfitMargin(uint256)": {
        "details": "Allows owner to change profit_margin",
        "params": {
          "_newProfitMargin": "New profit margin"
        }
      },
      "changeSymbol(uint256,string)": {
        "details": "Allows token creator to change the symbol of their token",
        "params": {
          "_newSymbol": "New symbol associated with the token",
          "_tokenId": "ID of the token in question"
        }
      },
      "changeVerification(uint256,bool)": {
        "details": "Allows owner to verify (or undo verification) of a CreatorToken",
        "params": {
          "_tokenId": "ID of the token in question",
          "_verified": "Verification status of the token in question"
        }
      },
      "createCreatorToken(address,string,string,string)": {
        "details": "Creates a new creator token",
        "params": {
          "_creatorAddress": "Address of the creator of the token",
          "_description": "chosen by the creator of the tokens",
          "_name": "Name chosen by the creator of the token",
          "_symbol": "Ticker symbol chosen by the creator of the token"
        }
      },
      "owner()": {
        "details": "Returns the address of the current owner."
      },
      "payoutPlatformFees(address)": {
        "details": "Pays out platform fees owed to owner (might opt to call this daily)",
        "params": {
          "_owner": "Owner of the smart contract"
        }
      },
      "renounceOwnership()": {
        "details": "Leaves the contract without owner. It will not be possible to call `onlyOwner` functions anymore. Can only be called by the current owner. NOTE: Renouncing ownership will leave the contract without an owner, thereby removing any functionality that is only available to the owner."
      },
      "transferOwnership(address)": {
        "details": "Transfers ownership of the contract to a new account (`newOwner`). Can only be called by the current owner."
      },
      "withdraw(address)": {
        "details": "Ownable function allowing for withdrawal",
        "params": {
          "_owner": "Owner of the smart contract"
        }
      }
    },
    "title": "A contract with helper functions enabling Owner- and creator-specific functions",
    "version": 1
  },
  "userdoc": {
    "kind": "user",
    "methods": {},
    "version": 1
  }
}