{
  "contractName": "CreatorTokenExchange",
  "abi": [
    {
      "inputs": [
        {
          "internalType": "string",
          "name": "uri",
          "type": "string"
        }
      ],
      "stateMutability": "nonpayable",
      "type": "constructor"
    },
    {
      "anonymous": false,
      "inputs": [
        {
          "indexed": true,
          "internalType": "address",
          "name": "account",
          "type": "address"
        },
        {
          "indexed": true,
          "internalType": "address",
          "name": "operator",
          "type": "address"
        },
        {
          "indexed": false,
          "internalType": "bool",
          "name": "approved",
          "type": "bool"
        }
      ],
      "name": "ApprovalForAll",
      "type": "event"
    },
    {
      "anonymous": false,
      "inputs": [
        {
          "indexed": false,
          "internalType": "uint256",
          "name": "tokenId",
          "type": "uint256"
        },
        {
          "indexed": false,
          "internalType": "address payable",
          "name": "creatorAddress",
          "type": "address"
        },
        {
          "indexed": false,
          "internalType": "string",
          "name": "name",
          "type": "string"
        },
        {
          "indexed": false,
          "internalType": "string",
          "name": "symbol",
          "type": "string"
        },
        {
          "indexed": false,
          "internalType": "string",
          "name": "description",
          "type": "string"
        },
        {
          "indexed": false,
          "internalType": "bool",
          "name": "verified",
          "type": "bool"
        },
        {
          "indexed": false,
          "internalType": "uint256",
          "name": "outstanding",
          "type": "uint256"
        },
        {
          "indexed": false,
          "internalType": "uint256",
          "name": "maxSupply",
          "type": "uint256"
        }
      ],
      "name": "NewCreatorToken",
      "type": "event"
    },
    {
      "anonymous": false,
      "inputs": [
        {
          "indexed": true,
          "internalType": "address",
          "name": "account",
          "type": "address"
        },
        {
          "indexed": false,
          "internalType": "uint256",
          "name": "amount",
          "type": "uint256"
        },
        {
          "indexed": false,
          "internalType": "string",
          "name": "transactionType",
          "type": "string"
        },
        {
          "indexed": false,
          "internalType": "uint256",
          "name": "tokenId",
          "type": "uint256"
        },
        {
          "indexed": false,
          "internalType": "string",
          "name": "name",
          "type": "string"
        },
        {
          "indexed": false,
          "internalType": "string",
          "name": "symbol",
          "type": "string"
        }
      ],
      "name": "NewTransaction",
      "type": "event"
    },
    {
      "anonymous": false,
      "inputs": [
        {
          "indexed": true,
          "internalType": "address",
          "name": "previousOwner",
          "type": "address"
        },
        {
          "indexed": true,
          "internalType": "address",
          "name": "newOwner",
          "type": "address"
        }
      ],
      "name": "OwnershipTransferred",
      "type": "event"
    },
    {
      "anonymous": false,
      "inputs": [
        {
          "indexed": false,
          "internalType": "address",
          "name": "account",
          "type": "address"
        }
      ],
      "name": "Paused",
      "type": "event"
    },
    {
      "anonymous": false,
      "inputs": [
        {
          "indexed": true,
          "internalType": "bytes32",
          "name": "role",
          "type": "bytes32"
        },
        {
          "indexed": true,
          "internalType": "bytes32",
          "name": "previousAdminRole",
          "type": "bytes32"
        },
        {
          "indexed": true,
          "internalType": "bytes32",
          "name": "newAdminRole",
          "type": "bytes32"
        }
      ],
      "name": "RoleAdminChanged",
      "type": "event"
    },
    {
      "anonymous": false,
      "inputs": [
        {
          "indexed": true,
          "internalType": "bytes32",
          "name": "role",
          "type": "bytes32"
        },
        {
          "indexed": true,
          "internalType": "address",
          "name": "account",
          "type": "address"
        },
        {
          "indexed": true,
          "internalType": "address",
          "name": "sender",
          "type": "address"
        }
      ],
      "name": "RoleGranted",
      "type": "event"
    },
    {
      "anonymous": false,
      "inputs": [
        {
          "indexed": true,
          "internalType": "bytes32",
          "name": "role",
          "type": "bytes32"
        },
        {
          "indexed": true,
          "internalType": "address",
          "name": "account",
          "type": "address"
        },
        {
          "indexed": true,
          "internalType": "address",
          "name": "sender",
          "type": "address"
        }
      ],
      "name": "RoleRevoked",
      "type": "event"
    },
    {
      "anonymous": false,
      "inputs": [
        {
          "indexed": true,
          "internalType": "address",
          "name": "operator",
          "type": "address"
        },
        {
          "indexed": true,
          "internalType": "address",
          "name": "from",
          "type": "address"
        },
        {
          "indexed": true,
          "internalType": "address",
          "name": "to",
          "type": "address"
        },
        {
          "indexed": false,
          "internalType": "uint256[]",
          "name": "ids",
          "type": "uint256[]"
        },
        {
          "indexed": false,
          "internalType": "uint256[]",
          "name": "values",
          "type": "uint256[]"
        }
      ],
      "name": "TransferBatch",
      "type": "event"
    },
    {
      "anonymous": false,
      "inputs": [
        {
          "indexed": true,
          "internalType": "address",
          "name": "operator",
          "type": "address"
        },
        {
          "indexed": true,
          "internalType": "address",
          "name": "from",
          "type": "address"
        },
        {
          "indexed": true,
          "internalType": "address",
          "name": "to",
          "type": "address"
        },
        {
          "indexed": false,
          "internalType": "uint256",
          "name": "id",
          "type": "uint256"
        },
        {
          "indexed": false,
          "internalType": "uint256",
          "name": "value",
          "type": "uint256"
        }
      ],
      "name": "TransferSingle",
      "type": "event"
    },
    {
      "anonymous": false,
      "inputs": [
        {
          "indexed": false,
          "internalType": "string",
          "name": "value",
          "type": "string"
        },
        {
          "indexed": true,
          "internalType": "uint256",
          "name": "id",
          "type": "uint256"
        }
      ],
      "name": "URI",
      "type": "event"
    },
    {
      "anonymous": false,
      "inputs": [
        {
          "indexed": false,
          "internalType": "address",
          "name": "account",
          "type": "address"
        }
      ],
      "name": "Unpaused",
      "type": "event"
    },
    {
      "inputs": [],
      "name": "DEFAULT_ADMIN_ROLE",
      "outputs": [
        {
          "internalType": "bytes32",
          "name": "",
          "type": "bytes32"
        }
      ],
      "stateMutability": "view",
      "type": "function",
      "constant": true
    },
    {
      "inputs": [],
      "name": "MINTER_ROLE",
      "outputs": [
        {
          "internalType": "bytes32",
          "name": "",
          "type": "bytes32"
        }
      ],
      "stateMutability": "view",
      "type": "function",
      "constant": true
    },
    {
      "inputs": [],
      "name": "PAUSER_ROLE",
      "outputs": [
        {
          "internalType": "bytes32",
          "name": "",
          "type": "bytes32"
        }
      ],
      "stateMutability": "view",
      "type": "function",
      "constant": true
    },
    {
      "inputs": [
        {
          "internalType": "address",
          "name": "_account",
          "type": "address"
        },
        {
          "internalType": "uint256",
          "name": "_id",
          "type": "uint256"
        }
      ],
      "name": "balanceOf",
      "outputs": [
        {
          "internalType": "uint256",
          "name": "",
          "type": "uint256"
        }
      ],
      "stateMutability": "view",
      "type": "function",
      "constant": true
    },
    {
      "inputs": [
        {
          "internalType": "address[]",
          "name": "_accounts",
          "type": "address[]"
        },
        {
          "internalType": "uint256[]",
          "name": "_ids",
          "type": "uint256[]"
        }
      ],
      "name": "balanceOfBatch",
      "outputs": [
        {
          "internalType": "uint256[]",
          "name": "",
          "type": "uint256[]"
        }
      ],
      "stateMutability": "view",
      "type": "function",
      "constant": true
    },
    {
      "inputs": [
        {
          "internalType": "address",
          "name": "_account",
          "type": "address"
        },
        {
          "internalType": "uint256",
          "name": "_id",
          "type": "uint256"
        },
        {
          "internalType": "uint256",
          "name": "_amount",
          "type": "uint256"
        }
      ],
      "name": "burn",
      "outputs": [],
      "stateMutability": "nonpayable",
      "type": "function"
    },
    {
      "inputs": [
        {
          "internalType": "address",
          "name": "_account",
          "type": "address"
        },
        {
          "internalType": "uint256[]",
          "name": "_ids",
          "type": "uint256[]"
        },
        {
          "internalType": "uint256[]",
          "name": "_amounts",
          "type": "uint256[]"
        }
      ],
      "name": "burnBatch",
      "outputs": [],
      "stateMutability": "nonpayable",
      "type": "function"
    },
    {
      "inputs": [
        {
          "internalType": "uint256",
          "name": "_tokenId",
          "type": "uint256"
        },
        {
          "internalType": "address payable",
          "name": "_newCreatorAddress",
          "type": "address"
        }
      ],
      "name": "changeAddress",
      "outputs": [],
      "stateMutability": "nonpayable",
      "type": "function"
    },
    {
      "inputs": [
        {
          "internalType": "uint256",
          "name": "_tokenId",
          "type": "uint256"
        },
        {
          "internalType": "string",
          "name": "_newDescription",
          "type": "string"
        }
      ],
      "name": "changeDescription",
      "outputs": [],
      "stateMutability": "nonpayable",
      "type": "function"
    },
    {
      "inputs": [
        {
          "internalType": "uint256",
          "name": "_tokenId",
          "type": "uint256"
        },
        {
          "internalType": "string",
          "name": "_newName",
          "type": "string"
        }
      ],
      "name": "changeName",
      "outputs": [],
      "stateMutability": "nonpayable",
      "type": "function"
    },
    {
      "inputs": [
        {
          "internalType": "uint256",
          "name": "_newPlatformFee",
          "type": "uint256"
        }
      ],
      "name": "changePlatformFee",
      "outputs": [],
      "stateMutability": "nonpayable",
      "type": "function"
    },
    {
      "inputs": [
        {
          "internalType": "uint256",
          "name": "_newProfitMargin",
          "type": "uint256"
        }
      ],
      "name": "changeProfitMargin",
      "outputs": [],
      "stateMutability": "nonpayable",
      "type": "function"
    },
    {
      "inputs": [
        {
          "internalType": "uint256",
          "name": "_tokenId",
          "type": "uint256"
        },
        {
          "internalType": "string",
          "name": "_newSymbol",
          "type": "string"
        }
      ],
      "name": "changeSymbol",
      "outputs": [],
      "stateMutability": "nonpayable",
      "type": "function"
    },
    {
      "inputs": [
        {
          "internalType": "uint256",
          "name": "_tokenId",
          "type": "uint256"
        },
        {
          "internalType": "bool",
          "name": "_verified",
          "type": "bool"
        }
      ],
      "name": "changeVerification",
      "outputs": [],
      "stateMutability": "nonpayable",
      "type": "function"
    },
    {
      "inputs": [
        {
          "internalType": "address payable",
          "name": "_creatorAddress",
          "type": "address"
        },
        {
          "internalType": "string",
          "name": "_name",
          "type": "string"
        },
        {
          "internalType": "string",
          "name": "_symbol",
          "type": "string"
        },
        {
          "internalType": "string",
          "name": "_description",
          "type": "string"
        }
      ],
      "name": "createCreatorToken",
      "outputs": [],
      "stateMutability": "nonpayable",
      "type": "function"
    },
    {
      "inputs": [
        {
          "internalType": "uint256",
          "name": "",
          "type": "uint256"
        }
      ],
      "name": "creatorTokens",
      "outputs": [
        {
          "internalType": "address payable",
          "name": "creatorAddress",
          "type": "address"
        },
        {
          "internalType": "string",
          "name": "name",
          "type": "string"
        },
        {
          "internalType": "string",
          "name": "symbol",
          "type": "string"
        },
        {
          "internalType": "string",
          "name": "description",
          "type": "string"
        },
        {
          "internalType": "bool",
          "name": "verified",
          "type": "bool"
        },
        {
          "internalType": "uint256",
          "name": "outstanding",
          "type": "uint256"
        },
        {
          "internalType": "uint256",
          "name": "maxSupply",
          "type": "uint256"
        }
      ],
      "stateMutability": "view",
      "type": "function",
      "constant": true
    },
    {
      "inputs": [
        {
          "internalType": "bytes32",
          "name": "role",
          "type": "bytes32"
        }
      ],
      "name": "getRoleAdmin",
      "outputs": [
        {
          "internalType": "bytes32",
          "name": "",
          "type": "bytes32"
        }
      ],
      "stateMutability": "view",
      "type": "function",
      "constant": true
    },
    {
      "inputs": [
        {
          "internalType": "bytes32",
          "name": "role",
          "type": "bytes32"
        },
        {
          "internalType": "uint256",
          "name": "index",
          "type": "uint256"
        }
      ],
      "name": "getRoleMember",
      "outputs": [
        {
          "internalType": "address",
          "name": "",
          "type": "address"
        }
      ],
      "stateMutability": "view",
      "type": "function",
      "constant": true
    },
    {
      "inputs": [
        {
          "internalType": "bytes32",
          "name": "role",
          "type": "bytes32"
        }
      ],
      "name": "getRoleMemberCount",
      "outputs": [
        {
          "internalType": "uint256",
          "name": "",
          "type": "uint256"
        }
      ],
      "stateMutability": "view",
      "type": "function",
      "constant": true
    },
    {
      "inputs": [
        {
          "internalType": "bytes32",
          "name": "role",
          "type": "bytes32"
        },
        {
          "internalType": "address",
          "name": "account",
          "type": "address"
        }
      ],
      "name": "grantRole",
      "outputs": [],
      "stateMutability": "nonpayable",
      "type": "function"
    },
    {
      "inputs": [
        {
          "internalType": "bytes32",
          "name": "role",
          "type": "bytes32"
        },
        {
          "internalType": "address",
          "name": "account",
          "type": "address"
        }
      ],
      "name": "hasRole",
      "outputs": [
        {
          "internalType": "bool",
          "name": "",
          "type": "bool"
        }
      ],
      "stateMutability": "view",
      "type": "function",
      "constant": true
    },
    {
      "inputs": [
        {
          "internalType": "address",
          "name": "_account",
          "type": "address"
        },
        {
          "internalType": "address",
          "name": "_operator",
          "type": "address"
        }
      ],
      "name": "isApprovedForAll",
      "outputs": [
        {
          "internalType": "bool",
          "name": "",
          "type": "bool"
        }
      ],
      "stateMutability": "view",
      "type": "function",
      "constant": true
    },
    {
      "inputs": [
        {
          "internalType": "address",
          "name": "_to",
          "type": "address"
        },
        {
          "internalType": "uint256",
          "name": "_id",
          "type": "uint256"
        },
        {
          "internalType": "uint256",
          "name": "_amount",
          "type": "uint256"
        },
        {
          "internalType": "bytes",
          "name": "_data",
          "type": "bytes"
        }
      ],
      "name": "mint",
      "outputs": [],
      "stateMutability": "nonpayable",
      "type": "function"
    },
    {
      "inputs": [
        {
          "internalType": "address",
          "name": "_to",
          "type": "address"
        },
        {
          "internalType": "uint256[]",
          "name": "_ids",
          "type": "uint256[]"
        },
        {
          "internalType": "uint256[]",
          "name": "_amounts",
          "type": "uint256[]"
        },
        {
          "internalType": "bytes",
          "name": "data",
          "type": "bytes"
        }
      ],
      "name": "mintBatch",
      "outputs": [],
      "stateMutability": "nonpayable",
      "type": "function"
    },
    {
      "inputs": [],
      "name": "owner",
      "outputs": [
        {
          "internalType": "address",
          "name": "",
          "type": "address"
        }
      ],
      "stateMutability": "view",
      "type": "function",
      "constant": true
    },
    {
      "inputs": [],
      "name": "pause",
      "outputs": [],
      "stateMutability": "nonpayable",
      "type": "function"
    },
    {
      "inputs": [],
      "name": "paused",
      "outputs": [
        {
          "internalType": "bool",
          "name": "",
          "type": "bool"
        }
      ],
      "stateMutability": "view",
      "type": "function",
      "constant": true
    },
    {
      "inputs": [
        {
          "internalType": "address payable",
          "name": "_owner",
          "type": "address"
        }
      ],
      "name": "payoutPlatformFees",
      "outputs": [],
      "stateMutability": "nonpayable",
      "type": "function"
    },
    {
      "inputs": [],
      "name": "renounceOwnership",
      "outputs": [],
      "stateMutability": "nonpayable",
      "type": "function"
    },
    {
      "inputs": [
        {
          "internalType": "bytes32",
          "name": "role",
          "type": "bytes32"
        },
        {
          "internalType": "address",
          "name": "account",
          "type": "address"
        }
      ],
      "name": "renounceRole",
      "outputs": [],
      "stateMutability": "nonpayable",
      "type": "function"
    },
    {
      "inputs": [
        {
          "internalType": "bytes32",
          "name": "role",
          "type": "bytes32"
        },
        {
          "internalType": "address",
          "name": "account",
          "type": "address"
        }
      ],
      "name": "revokeRole",
      "outputs": [],
      "stateMutability": "nonpayable",
      "type": "function"
    },
    {
      "inputs": [
        {
          "internalType": "address",
          "name": "_from",
          "type": "address"
        },
        {
          "internalType": "address",
          "name": "_to",
          "type": "address"
        },
        {
          "internalType": "uint256[]",
          "name": "_ids",
          "type": "uint256[]"
        },
        {
          "internalType": "uint256[]",
          "name": "_amounts",
          "type": "uint256[]"
        },
        {
          "internalType": "bytes",
          "name": "data",
          "type": "bytes"
        }
      ],
      "name": "safeBatchTransferFrom",
      "outputs": [],
      "stateMutability": "nonpayable",
      "type": "function"
    },
    {
      "inputs": [
        {
          "internalType": "address",
          "name": "_from",
          "type": "address"
        },
        {
          "internalType": "address",
          "name": "_to",
          "type": "address"
        },
        {
          "internalType": "uint256",
          "name": "_id",
          "type": "uint256"
        },
        {
          "internalType": "uint256",
          "name": "_amount",
          "type": "uint256"
        },
        {
          "internalType": "bytes",
          "name": "_data",
          "type": "bytes"
        }
      ],
      "name": "safeTransferFrom",
      "outputs": [],
      "stateMutability": "nonpayable",
      "type": "function"
    },
    {
      "inputs": [
        {
          "internalType": "address",
          "name": "_operator",
          "type": "address"
        },
        {
          "internalType": "bool",
          "name": "_approved",
          "type": "bool"
        }
      ],
      "name": "setApprovalForAll",
      "outputs": [],
      "stateMutability": "nonpayable",
      "type": "function"
    },
    {
      "inputs": [
        {
          "internalType": "bytes4",
          "name": "interfaceId",
          "type": "bytes4"
        }
      ],
      "name": "supportsInterface",
      "outputs": [
        {
          "internalType": "bool",
          "name": "",
          "type": "bool"
        }
      ],
      "stateMutability": "view",
      "type": "function",
      "constant": true
    },
    {
      "inputs": [
        {
          "internalType": "uint256",
          "name": "",
          "type": "uint256"
        },
        {
          "internalType": "address",
          "name": "",
          "type": "address"
        }
      ],
      "name": "tokenHoldership",
      "outputs": [
        {
          "internalType": "uint256",
          "name": "",
          "type": "uint256"
        }
      ],
      "stateMutability": "view",
      "type": "function",
      "constant": true
    },
    {
      "inputs": [
        {
          "internalType": "uint256",
          "name": "",
          "type": "uint256"
        }
      ],
      "name": "tokenToCreator",
      "outputs": [
        {
          "internalType": "address",
          "name": "",
          "type": "address"
        }
      ],
      "stateMutability": "view",
      "type": "function",
      "constant": true
    },
    {
      "inputs": [
        {
          "internalType": "address",
          "name": "newOwner",
          "type": "address"
        }
      ],
      "name": "transferOwnership",
      "outputs": [],
      "stateMutability": "nonpayable",
      "type": "function"
    },
    {
      "inputs": [],
      "name": "unpause",
      "outputs": [],
      "stateMutability": "nonpayable",
      "type": "function"
    },
    {
      "inputs": [
        {
          "internalType": "uint256",
          "name": "",
          "type": "uint256"
        }
      ],
      "name": "uri",
      "outputs": [
        {
          "internalType": "string",
          "name": "",
          "type": "string"
        }
      ],
      "stateMutability": "view",
      "type": "function",
      "constant": true
    },
    {
      "inputs": [
        {
          "internalType": "address",
          "name": "",
          "type": "address"
        },
        {
          "internalType": "uint256",
          "name": "",
          "type": "uint256"
        }
      ],
      "name": "userToHoldings",
      "outputs": [
        {
          "internalType": "uint256",
          "name": "",
          "type": "uint256"
        }
      ],
      "stateMutability": "view",
      "type": "function",
      "constant": true
    },
    {
      "inputs": [
        {
          "internalType": "address payable",
          "name": "_owner",
          "type": "address"
        }
      ],
      "name": "withdraw",
      "outputs": [],
      "stateMutability": "nonpayable",
      "type": "function"
    },
    {
      "inputs": [
        {
          "internalType": "uint256",
          "name": "_tokenId",
          "type": "uint256"
        },
        {
          "internalType": "uint256",
          "name": "_amount",
          "type": "uint256"
        }
      ],
      "name": "buyCreatorToken",
      "outputs": [],
      "stateMutability": "payable",
      "type": "function",
      "payable": true
    },
    {
      "inputs": [
        {
          "internalType": "uint256",
          "name": "_tokenId",
          "type": "uint256"
        },
        {
          "internalType": "uint256",
          "name": "_amount",
          "type": "uint256"
        },
        {
          "internalType": "address payable",
          "name": "_seller",
          "type": "address"
        }
      ],
      "name": "sellCreatorToken",
      "outputs": [],
      "stateMutability": "payable",
      "type": "function",
      "payable": true
    }
  ],
  "bytecode": "0x6080604052600180556000600255600060035560146004556551dac207a00060055561073a6006553480156200003457600080fd5b50604051620065da380380620065da83398181016040528101906200005a9190620005cb565b80808060006200006f620001e960201b60201c565b9050806000806101000a81548173ffffffffffffffffffffffffffffffffffffffff021916908373ffffffffffffffffffffffffffffffffffffffff1602179055508073ffffffffffffffffffffffffffffffffffffffff16600073ffffffffffffffffffffffffffffffffffffffff167f8be0079c531659141344cd1fd0a4f28419497f9722a3daafe3b4186f6b6457e060405160405180910390a3506200011e81620001f160201b60201c565b506000601260006101000a81548160ff0219169083151502179055506200015e6000801b62000152620001e960201b60201c565b6200020d60201b60201c565b6200019f7f9f2df0fed2c77648de5860a4cc508cd0818c85b8b8a1ab4ceeef8d981c8956a662000193620001e960201b60201c565b6200020d60201b60201c565b620001e07f65d7a28e3265b37a6474929f336521b332c1681b933f6cb9f3376673440d862a620001d4620001e960201b60201c565b6200020d60201b60201c565b505050620007a0565b600033905090565b8060119080519060200190620002099291906200049d565b5050565b6200022482826200025560201b62002f011760201c565b6200025081600e60008581526020019081526020016000206200026b60201b62002f0f1790919060201c565b505050565b620002678282620002a360201b60201c565b5050565b60006200029b836000018373ffffffffffffffffffffffffffffffffffffffff1660001b6200039560201b60201c565b905092915050565b620002b582826200040f60201b60201c565b62000391576001600d600084815260200190815260200160002060000160008373ffffffffffffffffffffffffffffffffffffffff1673ffffffffffffffffffffffffffffffffffffffff16815260200190815260200160002060006101000a81548160ff02191690831515021790555062000336620001e960201b60201c565b73ffffffffffffffffffffffffffffffffffffffff168173ffffffffffffffffffffffffffffffffffffffff16837f2f8788117e7eff1d82e926ec794901d17c78024a50270940304540a733656f0d60405160405180910390a45b5050565b6000620003a983836200047a60201b60201c565b6200040457826000018290806001815401808255809150506001900390600052602060002001600090919091909150558260000180549050836001016000848152602001908152602001600020819055506001905062000409565b600090505b92915050565b6000600d600084815260200190815260200160002060000160008373ffffffffffffffffffffffffffffffffffffffff1673ffffffffffffffffffffffffffffffffffffffff16815260200190815260200160002060009054906101000a900460ff16905092915050565b600080836001016000848152602001908152602001600020541415905092915050565b828054620004ab90620006b1565b90600052602060002090601f016020900481019282620004cf57600085556200051b565b82601f10620004ea57805160ff19168380011785556200051b565b828001600101855582156200051b579182015b828111156200051a578251825591602001919060010190620004fd565b5b5090506200052a91906200052e565b5090565b5b80821115620005495760008160009055506001016200052f565b5090565b6000620005646200055e8462000645565b6200061c565b90508281526020810184848401111562000583576200058262000780565b5b620005908482856200067b565b509392505050565b600082601f830112620005b057620005af6200077b565b5b8151620005c28482602086016200054d565b91505092915050565b600060208284031215620005e457620005e36200078a565b5b600082015167ffffffffffffffff81111562000605576200060462000785565b5b620006138482850162000598565b91505092915050565b6000620006286200063b565b9050620006368282620006e7565b919050565b6000604051905090565b600067ffffffffffffffff8211156200066357620006626200074c565b5b6200066e826200078f565b9050602081019050919050565b60005b838110156200069b5780820151818401526020810190506200067e565b83811115620006ab576000848401525b50505050565b60006002820490506001821680620006ca57607f821691505b60208210811415620006e157620006e06200071d565b5b50919050565b620006f2826200078f565b810181811067ffffffffffffffff821117156200071457620007136200074c565b5b80604052505050565b7f4e487b7100000000000000000000000000000000000000000000000000000000600052602260045260246000fd5b7f4e487b7100000000000000000000000000000000000000000000000000000000600052604160045260246000fd5b600080fd5b600080fd5b600080fd5b600080fd5b6000601f19601f8301169050919050565b615e2a80620007b06000396000f3fe6080604052600436106102665760003560e01c806391d1485411610144578063d56b72c7116100b6578063eb8417591161007a578063eb84175914610952578063f242432a1461097b578063f2fde38b146109a4578063f5298aca146109cd578063f7374e2e146109f6578063fffae94114610a1f57610266565b8063d56b72c71461086f578063d7a5791a14610898578063de6a06ed146108c1578063e63ab1e9146108ea578063e985e9c51461091557610266565b8063c39cbef111610108578063c39cbef114610749578063c539c31714610772578063ca15c8731461079b578063ce901d8a146107d8578063d53913931461081b578063d547741f1461084657610266565b806391d148541461063e57806392724afa1461067b578063a217fddf146106b8578063a22cb465146106e3578063bfb48c9c1461070c57610266565b806336568abe116101dd5780636b20c454116101a15780636b20c45414610556578063715018a61461057f578063731133e9146105965780638456cb59146105bf5780638da5cb5b146105d65780639010d07c1461060157610266565b806336568abe146104855780633f4ba83a146104ae5780634e1273f4146104c557806351cff8d9146105025780635c975abb1461052b57610266565b80631d5ad18b1161022f5780631d5ad18b146103885780631f7fdffa146103b1578063248a9ca3146103da5780632dcfdaf7146104175780632eb2c2d6146104335780632f2ff15d1461045c57610266565b8062fdd58e1461026b57806301ffc9a7146102a857806306e320f5146102e55780630e89341c1461030e57806318892ae81461034b575b600080fd5b34801561027757600080fd5b50610292600480360381019061028d9190614929565b610a3b565b60405161029f91906153b4565b60405180910390f35b3480156102b457600080fd5b506102cf60048036038101906102ca9190614b6d565b610a96565b6040516102dc919061523c565b60405180910390f35b3480156102f157600080fd5b5061030c60048036038101906103079190614c87565b610aa8565b005b34801561031a57600080fd5b5061033560048036038101906103309190614b9a565b610b4f565b6040516103429190615272565b60405180910390f35b34801561035757600080fd5b50610372600480360381019061036d9190614b9a565b610be3565b60405161037f9190615144565b60405180910390f35b34801561039457600080fd5b506103af60048036038101906103aa9190614c07565b610c16565b005b3480156103bd57600080fd5b506103d860048036038101906103d3919061482e565b610ceb565b005b3480156103e657600080fd5b5061040160048036038101906103fc9190614ac0565b610f36565b60405161040e9190615257565b60405180910390f35b610431600480360381019061042c9190614d27565b610f56565b005b34801561043f57600080fd5b5061045a6004803603810190610455919061463d565b6110fa565b005b34801561046857600080fd5b50610483600480360381019061047e9190614aed565b6112d5565b005b34801561049157600080fd5b506104ac60048036038101906104a79190614aed565b611309565b005b3480156104ba57600080fd5b506104c361133d565b005b3480156104d157600080fd5b506104ec60048036038101906104e79190614a3f565b6113b7565b6040516104f991906151e3565b60405180910390f35b34801561050e57600080fd5b5061052960048036038101906105249190614515565b6114e7565b005b34801561053757600080fd5b506105406115ad565b60405161054d919061523c565b60405180910390f35b34801561056257600080fd5b5061057d600480360381019061057891906147a3565b6115c4565b005b34801561058b57600080fd5b5061059461180e565b005b3480156105a257600080fd5b506105bd60048036038101906105b891906149bc565b611948565b005b3480156105cb57600080fd5b506105d4611ad7565b005b3480156105e257600080fd5b506105eb611b51565b6040516105f89190615144565b60405180910390f35b34801561060d57600080fd5b5061062860048036038101906106239190614b2d565b611b7a565b6040516106359190615144565b60405180910390f35b34801561064a57600080fd5b5061066560048036038101906106609190614aed565b611ba9565b604051610672919061523c565b60405180910390f35b34801561068757600080fd5b506106a2600480360381019061069d9190614929565b611c14565b6040516106af91906153b4565b60405180910390f35b3480156106c457600080fd5b506106cd611c39565b6040516106da9190615257565b60405180910390f35b3480156106ef57600080fd5b5061070a600480360381019061070591906148e9565b611c40565b005b34801561071857600080fd5b50610733600480360381019061072e9190614bc7565b611d3d565b60405161074091906153b4565b60405180910390f35b34801561075557600080fd5b50610770600480360381019061076b9190614c87565b611d62565b005b34801561077e57600080fd5b5061079960048036038101906107949190614b9a565b611e09565b005b3480156107a757600080fd5b506107c260048036038101906107bd9190614ac0565b611e8f565b6040516107cf91906153b4565b60405180910390f35b3480156107e457600080fd5b506107ff60048036038101906107fa9190614b9a565b611eb3565b604051610812979695949392919061515f565b60405180910390f35b34801561082757600080fd5b506108306120ca565b60405161083d9190615257565b60405180910390f35b34801561085257600080fd5b5061086d60048036038101906108689190614aed565b6120ee565b005b34801561087b57600080fd5b5061089660048036038101906108919190614542565b612122565b005b3480156108a457600080fd5b506108bf60048036038101906108ba9190614b9a565b61233e565b005b3480156108cd57600080fd5b506108e860048036038101906108e39190614c87565b6123c4565b005b3480156108f657600080fd5b506108ff61246b565b60405161090c9190615257565b60405180910390f35b34801561092157600080fd5b5061093c600480360381019061093791906145fd565b61248f565b604051610949919061523c565b60405180910390f35b34801561095e57600080fd5b5061097960048036038101906109749190614515565b612523565b005b34801561098757600080fd5b506109a2600480360381019061099d919061470c565b6125f3565b005b3480156109b057600080fd5b506109cb60048036038101906109c691906144e8565b612746565b005b3480156109d957600080fd5b506109f460048036038101906109ef9190614969565b6128ef565b005b348015610a0257600080fd5b50610a1d6004803603810190610a189190614c47565b612a7d565b005b610a396004803603810190610a349190614ce7565b612b3a565b005b6000600a600083815260200190815260200160002060008473ffffffffffffffffffffffffffffffffffffffff1673ffffffffffffffffffffffffffffffffffffffff16815260200190815260200160002054905092915050565b6000610aa182612f3f565b9050919050565b826008600082815260200190815260200160002060009054906101000a900473ffffffffffffffffffffffffffffffffffffffff1673ffffffffffffffffffffffffffffffffffffffff163373ffffffffffffffffffffffffffffffffffffffff1614610b1457600080fd5b828260078681548110610b2a57610b29615a0a565b5b90600052602060002090600702016002019190610b489291906140c1565b5050505050565b606060118054610b5e906158a2565b80601f0160208091040260200160405190810160405280929190818152602001828054610b8a906158a2565b8015610bd75780601f10610bac57610100808354040283529160200191610bd7565b820191906000526020600020905b815481529060010190602001808311610bba57829003601f168201915b50505050509050919050565b60086020528060005260406000206000915054906101000a900473ffffffffffffffffffffffffffffffffffffffff1681565b816008600082815260200190815260200160002060009054906101000a900473ffffffffffffffffffffffffffffffffffffffff1673ffffffffffffffffffffffffffffffffffffffff163373ffffffffffffffffffffffffffffffffffffffff1614610c8257600080fd5b8160078481548110610c9757610c96615a0a565b5b906000526020600020906007020160000160006101000a81548173ffffffffffffffffffffffffffffffffffffffff021916908373ffffffffffffffffffffffffffffffffffffffff160217905550505050565b60005b8351811015610eb057828181518110610d0a57610d09615a0a565b5b6020026020010151600a6000868481518110610d2957610d28615a0a565b5b6020026020010151815260200190815260200160002060008773ffffffffffffffffffffffffffffffffffffffff1673ffffffffffffffffffffffffffffffffffffffff1681526020019081526020016000206000828254610d8b919061567f565b92505081905550828181518110610da557610da4615a0a565b5b6020026020010151600b60008773ffffffffffffffffffffffffffffffffffffffff1673ffffffffffffffffffffffffffffffffffffffff1681526020019081526020016000206000868481518110610e0157610e00615a0a565b5b602002602001015181526020019081526020016000206000828254610e26919061567f565b92505081905550828181518110610e4057610e3f615a0a565b5b60200260200101516007858381518110610e5d57610e5c615a0a565b5b602002602001015181548110610e7657610e75615a0a565b5b90600052602060002090600702016005016000828254610e96919061567f565b925050819055508080610ea890615905565b915050610cee565b508373ffffffffffffffffffffffffffffffffffffffff16600073ffffffffffffffffffffffffffffffffffffffff163373ffffffffffffffffffffffffffffffffffffffff167f4a39dc06d4c0dbc64b70af90fd698a233a518aa5d07e595d983b8c0526c8f7fb8686604051610f28929190615205565b60405180910390a450505050565b6000600d6000838152602001908152602001600020600101549050919050565b3373ffffffffffffffffffffffffffffffffffffffff168173ffffffffffffffffffffffffffffffffffffffff1614610f8e57600080fd5b60008060078581548110610fa557610fa4615a0a565b5b9060005260206000209060070201600501549050610ff2818560055460065460078a81548110610fd857610fd7615a0a565b5b906000526020600020906007020160060154600454613021565b9150610fff8386866128ef565b8273ffffffffffffffffffffffffffffffffffffffff166108fc6714d1120d7b1600009081150290604051600060405180830381858888f1935050505015801561104d573d6000803e3d6000fd5b506110578261309a565b3373ffffffffffffffffffffffffffffffffffffffff167f1ebb537d8231cf8a6b1b0d1684d85dfd83872c030ffc75f500f0729eaf674d828587600789815481106110a5576110a4615a0a565b5b906000526020600020906007020160010160078a815481106110ca576110c9615a0a565b5b90600052602060002090600702016002016040516110eb94939291906154c8565b60405180910390a25050505050565b60005b835181101561124f5782818151811061111957611118615a0a565b5b6020026020010151600a600086848151811061113857611137615a0a565b5b6020026020010151815260200190815260200160002060008873ffffffffffffffffffffffffffffffffffffffff1673ffffffffffffffffffffffffffffffffffffffff168152602001908152602001600020600082825461119a9190615760565b925050819055508281815181106111b4576111b3615a0a565b5b6020026020010151600a60008684815181106111d3576111d2615a0a565b5b6020026020010151815260200190815260200160002060008773ffffffffffffffffffffffffffffffffffffffff1673ffffffffffffffffffffffffffffffffffffffff1681526020019081526020016000206000828254611235919061567f565b92505081905550808061124790615905565b9150506110fd565b508373ffffffffffffffffffffffffffffffffffffffff168573ffffffffffffffffffffffffffffffffffffffff163373ffffffffffffffffffffffffffffffffffffffff167f4a39dc06d4c0dbc64b70af90fd698a233a518aa5d07e595d983b8c0526c8f7fb86866040516112c6929190615205565b60405180910390a45050505050565b6112df8282613101565b61130481600e6000858152602001908152602001600020612f0f90919063ffffffff16565b505050565b611313828261312a565b61133881600e60008581526020019081526020016000206131ad90919063ffffffff16565b505050565b61136e7f65d7a28e3265b37a6474929f336521b332c1681b933f6cb9f3376673440d862a6113696131dd565b611ba9565b6113ad576040517f08c379a00000000000000000000000000000000000000000000000000000000081526004016113a490615354565b60405180910390fd5b6113b56131e5565b565b606060008585905067ffffffffffffffff8111156113d8576113d7615a39565b5b6040519080825280602002602001820160405280156114065781602001602082028036833780820191505090505b50905060005b868690508110156114da57600a600086868481811061142e5761142d615a0a565b5b905060200201358152602001908152602001600020600088888481811061145857611457615a0a565b5b905060200201602081019061146d91906144e8565b73ffffffffffffffffffffffffffffffffffffffff1673ffffffffffffffffffffffffffffffffffffffff168152602001908152602001600020548282815181106114bb576114ba615a0a565b5b60200260200101818152505080806114d290615905565b91505061140c565b5080915050949350505050565b6114ef6131dd565b73ffffffffffffffffffffffffffffffffffffffff1661150d611b51565b73ffffffffffffffffffffffffffffffffffffffff1614611563576040517f08c379a000000000000000000000000000000000000000000000000000000000815260040161155a90615334565b60405180910390fd5b8073ffffffffffffffffffffffffffffffffffffffff166108fc479081150290604051600060405180830381858888f193505050501580156115a9573d6000803e3d6000fd5b5050565b6000601260009054906101000a900460ff16905090565b60005b8251811015611789578181815181106115e3576115e2615a0a565b5b6020026020010151600a600085848151811061160257611601615a0a565b5b6020026020010151815260200190815260200160002060008673ffffffffffffffffffffffffffffffffffffffff1673ffffffffffffffffffffffffffffffffffffffff16815260200190815260200160002060008282546116649190615760565b9250508190555081818151811061167e5761167d615a0a565b5b6020026020010151600b60008673ffffffffffffffffffffffffffffffffffffffff1673ffffffffffffffffffffffffffffffffffffffff16815260200190815260200160002060008584815181106116da576116d9615a0a565b5b6020026020010151815260200190815260200160002060008282546116ff9190615760565b9250508190555081818151811061171957611718615a0a565b5b6020026020010151600784838151811061173657611735615a0a565b5b60200260200101518154811061174f5761174e615a0a565b5b9060005260206000209060070201600501600082825461176f9190615760565b92505081905550808061178190615905565b9150506115c7565b50600073ffffffffffffffffffffffffffffffffffffffff168373ffffffffffffffffffffffffffffffffffffffff163373ffffffffffffffffffffffffffffffffffffffff167f4a39dc06d4c0dbc64b70af90fd698a233a518aa5d07e595d983b8c0526c8f7fb8585604051611801929190615205565b60405180910390a4505050565b6118166131dd565b73ffffffffffffffffffffffffffffffffffffffff16611834611b51565b73ffffffffffffffffffffffffffffffffffffffff161461188a576040517f08c379a000000000000000000000000000000000000000000000000000000000815260040161188190615334565b60405180910390fd5b600073ffffffffffffffffffffffffffffffffffffffff1660008054906101000a900473ffffffffffffffffffffffffffffffffffffffff1673ffffffffffffffffffffffffffffffffffffffff167f8be0079c531659141344cd1fd0a4f28419497f9722a3daafe3b4186f6b6457e060405160405180910390a360008060006101000a81548173ffffffffffffffffffffffffffffffffffffffff021916908373ffffffffffffffffffffffffffffffffffffffff160217905550565b81600a600085815260200190815260200160002060008673ffffffffffffffffffffffffffffffffffffffff1673ffffffffffffffffffffffffffffffffffffffff16815260200190815260200160002060008282546119a8919061567f565b9250508190555081600b60008673ffffffffffffffffffffffffffffffffffffffff1673ffffffffffffffffffffffffffffffffffffffff16815260200190815260200160002060008581526020019081526020016000206000828254611a0f919061567f565b925050819055508160078481548110611a2b57611a2a615a0a565b5b90600052602060002090600702016005016000828254611a4b919061567f565b925050819055508373ffffffffffffffffffffffffffffffffffffffff16600073ffffffffffffffffffffffffffffffffffffffff163373ffffffffffffffffffffffffffffffffffffffff167fc3d58168c5ae7397731d063d5bbf3d657854427343f4c083240f7aacaa2d0f628686604051611ac992919061552e565b60405180910390a450505050565b611b087f65d7a28e3265b37a6474929f336521b332c1681b933f6cb9f3376673440d862a611b036131dd565b611ba9565b611b47576040517f08c379a0000000000000000000000000000000000000000000000000000000008152600401611b3e90615374565b60405180910390fd5b611b4f613287565b565b60008060009054906101000a900473ffffffffffffffffffffffffffffffffffffffff16905090565b6000611ba182600e600086815260200190815260200160002061332a90919063ffffffff16565b905092915050565b6000600d600084815260200190815260200160002060000160008373ffffffffffffffffffffffffffffffffffffffff1673ffffffffffffffffffffffffffffffffffffffff16815260200190815260200160002060009054906101000a900460ff16905092915050565b600b602052816000526040600020602052806000526040600020600091509150505481565b6000801b81565b80600c60003373ffffffffffffffffffffffffffffffffffffffff1673ffffffffffffffffffffffffffffffffffffffff16815260200190815260200160002060008473ffffffffffffffffffffffffffffffffffffffff1673ffffffffffffffffffffffffffffffffffffffff16815260200190815260200160002060006101000a81548160ff0219169083151502179055508173ffffffffffffffffffffffffffffffffffffffff163373ffffffffffffffffffffffffffffffffffffffff167f17307eab39ab6107e8899845ad3d59bd9653f200f220920489ca2b5937696c3183604051611d31919061523c565b60405180910390a35050565b600a602052816000526040600020602052806000526040600020600091509150505481565b826008600082815260200190815260200160002060009054906101000a900473ffffffffffffffffffffffffffffffffffffffff1673ffffffffffffffffffffffffffffffffffffffff163373ffffffffffffffffffffffffffffffffffffffff1614611dce57600080fd5b828260078681548110611de457611de3615a0a565b5b90600052602060002090600702016001019190611e029291906140c1565b5050505050565b611e116131dd565b73ffffffffffffffffffffffffffffffffffffffff16611e2f611b51565b73ffffffffffffffffffffffffffffffffffffffff1614611e85576040517f08c379a0000000000000000000000000000000000000000000000000000000008152600401611e7c90615334565b60405180910390fd5b8060048190555050565b6000611eac600e6000848152602001908152602001600020613344565b9050919050565b60078181548110611ec357600080fd5b90600052602060002090600702016000915090508060000160009054906101000a900473ffffffffffffffffffffffffffffffffffffffff1690806001018054611f0c906158a2565b80601f0160208091040260200160405190810160405280929190818152602001828054611f38906158a2565b8015611f855780601f10611f5a57610100808354040283529160200191611f85565b820191906000526020600020905b815481529060010190602001808311611f6857829003601f168201915b505050505090806002018054611f9a906158a2565b80601f0160208091040260200160405190810160405280929190818152602001828054611fc6906158a2565b80156120135780601f10611fe857610100808354040283529160200191612013565b820191906000526020600020905b815481529060010190602001808311611ff657829003601f168201915b505050505090806003018054612028906158a2565b80601f0160208091040260200160405190810160405280929190818152602001828054612054906158a2565b80156120a15780601f10612076576101008083540402835291602001916120a1565b820191906000526020600020905b81548152906001019060200180831161208457829003601f168201915b5050505050908060040160009054906101000a900460ff16908060050154908060060154905087565b7f9f2df0fed2c77648de5860a4cc508cd0818c85b8b8a1ab4ceeef8d981c8956a681565b6120f88282613359565b61211d81600e60008581526020019081526020016000206131ad90919063ffffffff16565b505050565b60076040518060e001604052808673ffffffffffffffffffffffffffffffffffffffff168152602001858152602001848152602001838152602001600015158152602001600081526020016000815250908060018154018082558091505060019003906000526020600020906007020160009091909190915060008201518160000160006101000a81548173ffffffffffffffffffffffffffffffffffffffff021916908373ffffffffffffffffffffffffffffffffffffffff16021790555060208201518160010190805190602001906121fe929190614147565b50604082015181600201908051906020019061221b929190614147565b506060820151816003019080519060200190612238929190614147565b5060808201518160040160006101000a81548160ff02191690831515021790555060a0820151816005015560c082015181600601555050600060016007805490506122839190615760565b9050846008600083815260200190815260200160002060006101000a81548173ffffffffffffffffffffffffffffffffffffffff021916908373ffffffffffffffffffffffffffffffffffffffff160217905550600060096000838152602001908152602001600020819055507f3ef624c0f3fb7ad40b94c02078ea3e3a797dbfc21e921ee4bd2b8ad0ca6aa1138186868686600080600060405161232f9897969594939291906153cf565b60405180910390a15050505050565b6123466131dd565b73ffffffffffffffffffffffffffffffffffffffff16612364611b51565b73ffffffffffffffffffffffffffffffffffffffff16146123ba576040517f08c379a00000000000000000000000000000000000000000000000000000000081526004016123b190615334565b60405180910390fd5b8060018190555050565b826008600082815260200190815260200160002060009054906101000a900473ffffffffffffffffffffffffffffffffffffffff1673ffffffffffffffffffffffffffffffffffffffff163373ffffffffffffffffffffffffffffffffffffffff161461243057600080fd5b82826007868154811061244657612445615a0a565b5b906000526020600020906007020160030191906124649291906140c1565b5050505050565b7f65d7a28e3265b37a6474929f336521b332c1681b933f6cb9f3376673440d862a81565b6000600c60008473ffffffffffffffffffffffffffffffffffffffff1673ffffffffffffffffffffffffffffffffffffffff16815260200190815260200160002060008373ffffffffffffffffffffffffffffffffffffffff1673ffffffffffffffffffffffffffffffffffffffff16815260200190815260200160002060009054906101000a900460ff16905092915050565b61252b6131dd565b73ffffffffffffffffffffffffffffffffffffffff16612549611b51565b73ffffffffffffffffffffffffffffffffffffffff161461259f576040517f08c379a000000000000000000000000000000000000000000000000000000000815260040161259690615334565b60405180910390fd5b8073ffffffffffffffffffffffffffffffffffffffff166108fc6003549081150290604051600060405180830381858888f193505050501580156125e7573d6000803e3d6000fd5b50600060038190555050565b81600a600085815260200190815260200160002060008773ffffffffffffffffffffffffffffffffffffffff1673ffffffffffffffffffffffffffffffffffffffff16815260200190815260200160002060008282546126539190615760565b9250508190555081600a600085815260200190815260200160002060008673ffffffffffffffffffffffffffffffffffffffff1673ffffffffffffffffffffffffffffffffffffffff16815260200190815260200160002060008282546126ba919061567f565b925050819055508373ffffffffffffffffffffffffffffffffffffffff168573ffffffffffffffffffffffffffffffffffffffff163373ffffffffffffffffffffffffffffffffffffffff167fc3d58168c5ae7397731d063d5bbf3d657854427343f4c083240f7aacaa2d0f62868660405161273792919061552e565b60405180910390a45050505050565b61274e6131dd565b73ffffffffffffffffffffffffffffffffffffffff1661276c611b51565b73ffffffffffffffffffffffffffffffffffffffff16146127c2576040517f08c379a00000000000000000000000000000000000000000000000000000000081526004016127b990615334565b60405180910390fd5b600073ffffffffffffffffffffffffffffffffffffffff168173ffffffffffffffffffffffffffffffffffffffff161415612832576040517f08c379a0000000000000000000000000000000000000000000000000000000008152600401612829906152f4565b60405180910390fd5b8073ffffffffffffffffffffffffffffffffffffffff1660008054906101000a900473ffffffffffffffffffffffffffffffffffffffff1673ffffffffffffffffffffffffffffffffffffffff167f8be0079c531659141344cd1fd0a4f28419497f9722a3daafe3b4186f6b6457e060405160405180910390a3806000806101000a81548173ffffffffffffffffffffffffffffffffffffffff021916908373ffffffffffffffffffffffffffffffffffffffff16021790555050565b80600a600084815260200190815260200160002060008573ffffffffffffffffffffffffffffffffffffffff1673ffffffffffffffffffffffffffffffffffffffff168152602001908152602001600020600082825461294f9190615760565b9250508190555080600b60008573ffffffffffffffffffffffffffffffffffffffff1673ffffffffffffffffffffffffffffffffffffffff168152602001908152602001600020600084815260200190815260200160002060008282546129b69190615760565b9250508190555080600783815481106129d2576129d1615a0a565b5b906000526020600020906007020160050160008282546129f29190615760565b92505081905550600073ffffffffffffffffffffffffffffffffffffffff168373ffffffffffffffffffffffffffffffffffffffff163373ffffffffffffffffffffffffffffffffffffffff167fc3d58168c5ae7397731d063d5bbf3d657854427343f4c083240f7aacaa2d0f628585604051612a7092919061552e565b60405180910390a4505050565b612a856131dd565b73ffffffffffffffffffffffffffffffffffffffff16612aa3611b51565b73ffffffffffffffffffffffffffffffffffffffff1614612af9576040517f08c379a0000000000000000000000000000000000000000000000000000000008152600401612af090615334565b60405180910390fd5b8060078381548110612b0e57612b0d615a0a565b5b906000526020600020906007020160040160006101000a81548160ff0219169083151502179055505050565b60008060078481548110612b5157612b50615a0a565b5b906000526020600020906007020160050154905060008382612b73919061567f565b905060078581548110612b8957612b88615a0a565b5b906000526020600020906007020160060154811015612be257612bdb828560055460065460078a81548110612bc157612bc0615a0a565b5b906000526020600020906007020160060154600454613021565b9250612d35565b60078581548110612bf657612bf5615a0a565b5b906000526020600020906007020160060154821015612d2157612c9d60078681548110612c2657612c25615a0a565b5b9060005260206000209060070201600601548360078881548110612c4d57612c4c615a0a565b5b906000526020600020906007020160060154612c699190615760565b60055460065460078a81548110612c8357612c82615a0a565b5b906000526020600020906007020160060154600454613021565b9250612d0f60078681548110612cb657612cb5615a0a565b5b9060005260206000209060070201600601548360078881548110612cdd57612cdc615a0a565b5b906000526020600020906007020160060154612cf99190615760565b86612d049190615760565b600554600654613382565b83612d1a919061567f565b9250612d34565b612d318285600554600654613382565b92505b5b671bc16d674ec800003414612d4957600080fd5b612d528361309a565b612d6d33868660405180602001604052806000815250611948565b3373ffffffffffffffffffffffffffffffffffffffff167f1ebb537d8231cf8a6b1b0d1684d85dfd83872c030ffc75f500f0729eaf674d82858760078981548110612dbb57612dba615a0a565b5b906000526020600020906007020160010160078a81548110612de057612ddf615a0a565b5b9060005260206000209060070201600201604051612e019493929190615462565b60405180910390a260078581548110612e1d57612e1c615a0a565b5b90600052602060002090600702016006015460078681548110612e4357612e42615a0a565b5b9060005260206000209060070201600501541115612efa5760078581548110612e6f57612e6e615a0a565b5b90600052602060002090600702016005015460078681548110612e9557612e94615a0a565b5b906000526020600020906007020160060181905550612ef98560078781548110612ec257612ec1615a0a565b5b906000526020600020906007020160000160009054906101000a900473ffffffffffffffffffffffffffffffffffffffff16613410565b5b5050505050565b612f0b8282613565565b5050565b6000612f37836000018373ffffffffffffffffffffffffffffffffffffffff1660001b613646565b905092915050565b60007fd9b67a26000000000000000000000000000000000000000000000000000000007bffffffffffffffffffffffffffffffffffffffffffffffffffffffff1916827bffffffffffffffffffffffffffffffffffffffffffffffffffffffff1916148061300a57507f0e89341c000000000000000000000000000000000000000000000000000000007bffffffffffffffffffffffffffffffffffffffffffffffffffffffff1916827bffffffffffffffffffffffffffffffffffffffffffffffffffffffff1916145b8061301a5750613019826136b6565b5b9050919050565b6000806000806130358a8a8a8a8a8a613730565b9250925092506000838b10156130585761305184848d856137ab565b9050613089565b838210156130765761306f84848d858d8d8d61384e565b9050613088565b61308584848d858d8d8d613970565b90505b5b809450505050509695505050505050565b6064600154826130aa9190615706565b6130b491906156d5565b600260008282546130c5919061567f565b925050819055506064600154826130dc9190615706565b6130e691906156d5565b600360008282546130f7919061567f565b9250508190555050565b61310a82610f36565b61311b816131166131dd565b613a6e565b6131258383613565565b505050565b6131326131dd565b73ffffffffffffffffffffffffffffffffffffffff168173ffffffffffffffffffffffffffffffffffffffff161461319f576040517f08c379a000000000000000000000000000000000000000000000000000000000815260040161319690615394565b60405180910390fd5b6131a98282613b0b565b5050565b60006131d5836000018373ffffffffffffffffffffffffffffffffffffffff1660001b613bed565b905092915050565b600033905090565b6131ed6115ad565b61322c576040517f08c379a0000000000000000000000000000000000000000000000000000000008152600401613223906152d4565b60405180910390fd5b6000601260006101000a81548160ff0219169083151502179055507f5db9ee0a495bf2e6ff9c91a7834c1ba4fdd244a5e8aa4e537bd38aeae4b073aa6132706131dd565b60405161327d9190615144565b60405180910390a1565b61328f6115ad565b156132cf576040517f08c379a00000000000000000000000000000000000000000000000000000000081526004016132c690615314565b60405180910390fd5b6001601260006101000a81548160ff0219169083151502179055507f62e78cea01bee320cd4e420270b5ea74000d11b0c9f74754ebdbfc544b05a2586133136131dd565b6040516133209190615144565b60405180910390a1565b60006133398360000183613cf9565b60001c905092915050565b600061335282600001613d6d565b9050919050565b61336282610f36565b6133738161336e6131dd565b613a6e565b61337d8383613b0b565b505050565b6000808486613391919061567f565b905060008387866133a29190615706565b6133ac91906156d5565b905060008483876133bd9190615706565b6133c791906156d5565b9050600088846133d79190615760565b9050600060028284866133ea919061567f565b6133f49190615706565b6133fe91906156d5565b90508095505050505050949350505050565b60006009600084815260200190815260200160002054905060006134ad6007858154811061344157613440615a0a565b5b9060005260206000209060070201600601546007868154811061346757613466615a0a565b5b9060005260206000209060070201600601546005546006546007898154811061349357613492615a0a565b5b906000526020600020906007020160060154600454613021565b6134e36000600787815481106134c6576134c5615a0a565b5b906000526020600020906007020160060154600554600654613382565b6134ed9190615760565b9050600082826134fd9190615760565b90508373ffffffffffffffffffffffffffffffffffffffff166108fc829081150290604051600060405180830381858888f19350505050158015613545573d6000803e3d6000fd5b508160096000878152602001908152602001600020819055505050505050565b61356f8282611ba9565b613642576001600d600084815260200190815260200160002060000160008373ffffffffffffffffffffffffffffffffffffffff1673ffffffffffffffffffffffffffffffffffffffff16815260200190815260200160002060006101000a81548160ff0219169083151502179055506135e76131dd565b73ffffffffffffffffffffffffffffffffffffffff168173ffffffffffffffffffffffffffffffffffffffff16837f2f8788117e7eff1d82e926ec794901d17c78024a50270940304540a733656f0d60405160405180910390a45b5050565b60006136528383613d7e565b6136ab5782600001829080600181540180825580915050600190039060005260206000200160009091909190915055826000018054905083600101600084815260200190815260200160002081905550600190506136b0565b600090505b92915050565b60007f5a05180f000000000000000000000000000000000000000000000000000000007bffffffffffffffffffffffffffffffffffffffffffffffffffffffff1916827bffffffffffffffffffffffffffffffffffffffffffffffffffffffff19161480613729575061372882613da1565b5b9050919050565b60008060008060028661374391906156d5565b90506000878960648860326137589190615760565b8a6137639190615706565b61376d91906156d5565b6137779190615706565b61378191906156d5565b905060008a8c6137919190615760565b905082828295509550955050505096509650969350505050565b60008082866137ba9190615760565b86866137c691906156d5565b6137d09190615706565b856137db9190615760565b9050600084876137eb9190615760565b87876137f791906156d5565b6138019190615706565b8661380c9190615760565b90506000848661381c9190615760565b9050600281838561382d919061567f565b6138379190615706565b61384191906156d5565b9350505050949350505050565b600080858961385d9190615760565b898961386991906156d5565b6138739190615706565b8861387e9190615760565b905060008890506000878b6138939190615760565b9050600060028284866138a6919061567f565b6138b09190615706565b6138ba91906156d5565b905060008b8d8c6138cb9190615760565b8e896138d79190615760565b8e8b8b8e6138e59190615706565b6138ef91906156d5565b6138f99190615760565b61390391906156d5565b61390d9190615706565b613917919061567f565b905060008d8c6139279190615760565b90506000600282848861393a919061567f565b6139449190615706565b61394e91906156d5565b9050808461395c919061567f565b975050505050505050979650505050505050565b6000808789876139809190615760565b8a8561398c9190615760565b8a87878a61399a9190615706565b6139a491906156d5565b6139ae9190615760565b6139b891906156d5565b6139c29190615706565b6139cc919061567f565b90506000888a896139dd9190615760565b8b866139e99190615760565b8b88888b6139f79190615706565b613a0191906156d5565b613a0b9190615760565b613a1591906156d5565b613a1f9190615706565b613a29919061567f565b905060008789613a399190615760565b90506002818385613a4a919061567f565b613a549190615706565b613a5e91906156d5565b9350505050979650505050505050565b613a788282611ba9565b613b0757613a9d8173ffffffffffffffffffffffffffffffffffffffff166014613e1b565b613aab8360001c6020613e1b565b604051602001613abc92919061510a565b6040516020818303038152906040526040517f08c379a0000000000000000000000000000000000000000000000000000000008152600401613afe9190615272565b60405180910390fd5b5050565b613b158282611ba9565b15613be9576000600d600084815260200190815260200160002060000160008373ffffffffffffffffffffffffffffffffffffffff1673ffffffffffffffffffffffffffffffffffffffff16815260200190815260200160002060006101000a81548160ff021916908315150217905550613b8e6131dd565b73ffffffffffffffffffffffffffffffffffffffff168173ffffffffffffffffffffffffffffffffffffffff16837ff6391f5c32d9c69d2a47ea670b442974b53935d1edc7fd64eb21e047a839171b60405160405180910390a45b5050565b60008083600101600084815260200190815260200160002054905060008114613ced576000600182613c1f9190615760565b9050600060018660000180549050613c379190615760565b90506000866000018281548110613c5157613c50615a0a565b5b9060005260206000200154905080876000018481548110613c7557613c74615a0a565b5b9060005260206000200181905550838760010160008381526020019081526020016000208190555086600001805480613cb157613cb06159db565b5b60019003818190600052602060002001600090559055866001016000878152602001908152602001600020600090556001945050505050613cf3565b60009150505b92915050565b600081836000018054905011613d44576040517f08c379a0000000000000000000000000000000000000000000000000000000008152600401613d3b90615294565b60405180910390fd5b826000018281548110613d5a57613d59615a0a565b5b9060005260206000200154905092915050565b600081600001805490509050919050565b600080836001016000848152602001908152602001600020541415905092915050565b60007f7965db0b000000000000000000000000000000000000000000000000000000007bffffffffffffffffffffffffffffffffffffffffffffffffffffffff1916827bffffffffffffffffffffffffffffffffffffffffffffffffffffffff19161480613e145750613e1382614057565b5b9050919050565b606060006002836002613e2e9190615706565b613e38919061567f565b67ffffffffffffffff811115613e5157613e50615a39565b5b6040519080825280601f01601f191660200182016040528015613e835781602001600182028036833780820191505090505b5090507f300000000000000000000000000000000000000000000000000000000000000081600081518110613ebb57613eba615a0a565b5b60200101907effffffffffffffffffffffffffffffffffffffffffffffffffffffffffffff1916908160001a9053507f780000000000000000000000000000000000000000000000000000000000000081600181518110613f1f57613f1e615a0a565b5b60200101907effffffffffffffffffffffffffffffffffffffffffffffffffffffffffffff1916908160001a90535060006001846002613f5f9190615706565b613f69919061567f565b90505b6001811115614009577f3031323334353637383961626364656600000000000000000000000000000000600f861660108110613fab57613faa615a0a565b5b1a60f81b828281518110613fc257613fc1615a0a565b5b60200101907effffffffffffffffffffffffffffffffffffffffffffffffffffffffffffff1916908160001a905350600485901c94508061400290615878565b9050613f6c565b506000841461404d576040517f08c379a0000000000000000000000000000000000000000000000000000000008152600401614044906152b4565b60405180910390fd5b8091505092915050565b60007f01ffc9a7000000000000000000000000000000000000000000000000000000007bffffffffffffffffffffffffffffffffffffffffffffffffffffffff1916827bffffffffffffffffffffffffffffffffffffffffffffffffffffffff1916149050919050565b8280546140cd906158a2565b90600052602060002090601f0160209004810192826140ef5760008555614136565b82601f1061410857803560ff1916838001178555614136565b82800160010185558215614136579182015b8281111561413557823582559160200191906001019061411a565b5b50905061414391906141cd565b5090565b828054614153906158a2565b90600052602060002090601f01602090048101928261417557600085556141bc565b82601f1061418e57805160ff19168380011785556141bc565b828001600101855582156141bc579182015b828111156141bb5782518255916020019190600101906141a0565b5b5090506141c991906141cd565b5090565b5b808211156141e65760008160009055506001016141ce565b5090565b60006141fd6141f88461557c565b615557565b905080838252602082019050828560208602820111156142205761421f615a72565b5b60005b85811015614250578161423688826144d3565b845260208401935060208301925050600181019050614223565b5050509392505050565b600061426d614268846155a8565b615557565b90508281526020810184848401111561428957614288615a77565b5b614294848285615836565b509392505050565b60006142af6142aa846155d9565b615557565b9050828152602081018484840111156142cb576142ca615a77565b5b6142d6848285615836565b509392505050565b6000813590506142ed81615d6a565b92915050565b60008135905061430281615d81565b92915050565b60008083601f84011261431e5761431d615a6d565b5b8235905067ffffffffffffffff81111561433b5761433a615a68565b5b60208301915083602082028301111561435757614356615a72565b5b9250929050565b60008083601f84011261437457614373615a6d565b5b8235905067ffffffffffffffff81111561439157614390615a68565b5b6020830191508360208202830111156143ad576143ac615a72565b5b9250929050565b600082601f8301126143c9576143c8615a6d565b5b81356143d98482602086016141ea565b91505092915050565b6000813590506143f181615d98565b92915050565b60008135905061440681615daf565b92915050565b60008135905061441b81615dc6565b92915050565b600082601f83011261443657614435615a6d565b5b813561444684826020860161425a565b91505092915050565b60008083601f84011261446557614464615a6d565b5b8235905067ffffffffffffffff81111561448257614481615a68565b5b60208301915083600182028301111561449e5761449d615a72565b5b9250929050565b600082601f8301126144ba576144b9615a6d565b5b81356144ca84826020860161429c565b91505092915050565b6000813590506144e281615ddd565b92915050565b6000602082840312156144fe576144fd615a81565b5b600061450c848285016142de565b91505092915050565b60006020828403121561452b5761452a615a81565b5b6000614539848285016142f3565b91505092915050565b6000806000806080858703121561455c5761455b615a81565b5b600061456a878288016142f3565b945050602085013567ffffffffffffffff81111561458b5761458a615a7c565b5b614597878288016144a5565b935050604085013567ffffffffffffffff8111156145b8576145b7615a7c565b5b6145c4878288016144a5565b925050606085013567ffffffffffffffff8111156145e5576145e4615a7c565b5b6145f1878288016144a5565b91505092959194509250565b6000806040838503121561461457614613615a81565b5b6000614622858286016142de565b9250506020614633858286016142de565b9150509250929050565b600080600080600060a0868803121561465957614658615a81565b5b6000614667888289016142de565b9550506020614678888289016142de565b945050604086013567ffffffffffffffff81111561469957614698615a7c565b5b6146a5888289016143b4565b935050606086013567ffffffffffffffff8111156146c6576146c5615a7c565b5b6146d2888289016143b4565b925050608086013567ffffffffffffffff8111156146f3576146f2615a7c565b5b6146ff88828901614421565b9150509295509295909350565b600080600080600060a0868803121561472857614727615a81565b5b6000614736888289016142de565b9550506020614747888289016142de565b9450506040614758888289016144d3565b9350506060614769888289016144d3565b925050608086013567ffffffffffffffff81111561478a57614789615a7c565b5b61479688828901614421565b9150509295509295909350565b6000806000606084860312156147bc576147bb615a81565b5b60006147ca868287016142de565b935050602084013567ffffffffffffffff8111156147eb576147ea615a7c565b5b6147f7868287016143b4565b925050604084013567ffffffffffffffff81111561481857614817615a7c565b5b614824868287016143b4565b9150509250925092565b6000806000806080858703121561484857614847615a81565b5b6000614856878288016142de565b945050602085013567ffffffffffffffff81111561487757614876615a7c565b5b614883878288016143b4565b935050604085013567ffffffffffffffff8111156148a4576148a3615a7c565b5b6148b0878288016143b4565b925050606085013567ffffffffffffffff8111156148d1576148d0615a7c565b5b6148dd87828801614421565b91505092959194509250565b60008060408385031215614900576148ff615a81565b5b600061490e858286016142de565b925050602061491f858286016143e2565b9150509250929050565b600080604083850312156149405761493f615a81565b5b600061494e858286016142de565b925050602061495f858286016144d3565b9150509250929050565b60008060006060848603121561498257614981615a81565b5b6000614990868287016142de565b93505060206149a1868287016144d3565b92505060406149b2868287016144d3565b9150509250925092565b600080600080608085870312156149d6576149d5615a81565b5b60006149e4878288016142de565b94505060206149f5878288016144d3565b9350506040614a06878288016144d3565b925050606085013567ffffffffffffffff811115614a2757614a26615a7c565b5b614a3387828801614421565b91505092959194509250565b60008060008060408587031215614a5957614a58615a81565b5b600085013567ffffffffffffffff811115614a7757614a76615a7c565b5b614a8387828801614308565b9450945050602085013567ffffffffffffffff811115614aa657614aa5615a7c565b5b614ab28782880161435e565b925092505092959194509250565b600060208284031215614ad657614ad5615a81565b5b6000614ae4848285016143f7565b91505092915050565b60008060408385031215614b0457614b03615a81565b5b6000614b12858286016143f7565b9250506020614b23858286016142de565b9150509250929050565b60008060408385031215614b4457614b43615a81565b5b6000614b52858286016143f7565b9250506020614b63858286016144d3565b9150509250929050565b600060208284031215614b8357614b82615a81565b5b6000614b918482850161440c565b91505092915050565b600060208284031215614bb057614baf615a81565b5b6000614bbe848285016144d3565b91505092915050565b60008060408385031215614bde57614bdd615a81565b5b6000614bec858286016144d3565b9250506020614bfd858286016142de565b9150509250929050565b60008060408385031215614c1e57614c1d615a81565b5b6000614c2c858286016144d3565b9250506020614c3d858286016142f3565b9150509250929050565b60008060408385031215614c5e57614c5d615a81565b5b6000614c6c858286016144d3565b9250506020614c7d858286016143e2565b9150509250929050565b600080600060408486031215614ca057614c9f615a81565b5b6000614cae868287016144d3565b935050602084013567ffffffffffffffff811115614ccf57614cce615a7c565b5b614cdb8682870161444f565b92509250509250925092565b60008060408385031215614cfe57614cfd615a81565b5b6000614d0c858286016144d3565b9250506020614d1d858286016144d3565b9150509250929050565b600080600060608486031215614d4057614d3f615a81565b5b6000614d4e868287016144d3565b9350506020614d5f868287016144d3565b9250506040614d70868287016142f3565b9150509250925092565b6000614d8683836150ec565b60208301905092915050565b614d9b816157a6565b82525050565b614daa81615794565b82525050565b6000614dbb8261562f565b614dc58185615652565b9350614dd08361560a565b8060005b83811015614e01578151614de88882614d7a565b9750614df383615645565b925050600181019050614dd4565b5085935050505092915050565b614e17816157b8565b82525050565b614e26816157c4565b82525050565b614e3581615824565b82525050565b6000614e468261563a565b614e508185615663565b9350614e60818560208601615845565b614e6981615a86565b840191505092915050565b6000614e7f8261563a565b614e898185615674565b9350614e99818560208601615845565b80840191505092915050565b60008154614eb2816158a2565b614ebc8186615663565b94506001821660008114614ed75760018114614ee957614f1c565b60ff1983168652602086019350614f1c565b614ef28561561a565b60005b83811015614f1457815481890152600182019150602081019050614ef5565b808801955050505b50505092915050565b6000614f32602283615663565b9150614f3d82615a97565b604082019050919050565b6000614f55602083615663565b9150614f6082615ae6565b602082019050919050565b6000614f78601483615663565b9150614f8382615b0f565b602082019050919050565b6000614f9b602683615663565b9150614fa682615b38565b604082019050919050565b6000614fbe601083615663565b9150614fc982615b87565b602082019050919050565b6000614fe1600383615663565b9150614fec82615bb0565b602082019050919050565b6000615004602083615663565b915061500f82615bd9565b602082019050919050565b6000615027603b83615663565b915061503282615c02565b604082019050919050565b600061504a603983615663565b915061505582615c51565b604082019050919050565b600061506d601783615674565b915061507882615ca0565b601782019050919050565b6000615090600483615663565b915061509b82615cc9565b602082019050919050565b60006150b3601183615674565b91506150be82615cf2565b601182019050919050565b60006150d6602f83615663565b91506150e182615d1b565b604082019050919050565b6150f58161581a565b82525050565b6151048161581a565b82525050565b600061511582615060565b91506151218285614e74565b915061512c826150a6565b91506151388284614e74565b91508190509392505050565b60006020820190506151596000830184614da1565b92915050565b600060e082019050615174600083018a614d92565b81810360208301526151868189614e3b565b9050818103604083015261519a8188614e3b565b905081810360608301526151ae8187614e3b565b90506151bd6080830186614e0e565b6151ca60a08301856150fb565b6151d760c08301846150fb565b98975050505050505050565b600060208201905081810360008301526151fd8184614db0565b905092915050565b6000604082019050818103600083015261521f8185614db0565b905081810360208301526152338184614db0565b90509392505050565b60006020820190506152516000830184614e0e565b92915050565b600060208201905061526c6000830184614e1d565b92915050565b6000602082019050818103600083015261528c8184614e3b565b905092915050565b600060208201905081810360008301526152ad81614f25565b9050919050565b600060208201905081810360008301526152cd81614f48565b9050919050565b600060208201905081810360008301526152ed81614f6b565b9050919050565b6000602082019050818103600083015261530d81614f8e565b9050919050565b6000602082019050818103600083015261532d81614fb1565b9050919050565b6000602082019050818103600083015261534d81614ff7565b9050919050565b6000602082019050818103600083015261536d8161501a565b9050919050565b6000602082019050818103600083015261538d8161503d565b9050919050565b600060208201905081810360008301526153ad816150c9565b9050919050565b60006020820190506153c960008301846150fb565b92915050565b6000610100820190506153e5600083018b6150fb565b6153f2602083018a614d92565b81810360408301526154048189614e3b565b905081810360608301526154188188614e3b565b9050818103608083015261542c8187614e3b565b905061543b60a0830186614e0e565b61544860c0830185614e2c565b61545560e0830184614e2c565b9998505050505050505050565b600060a08201905061547760008301876150fb565b818103602083015261548881614fd4565b905061549760408301866150fb565b81810360608301526154a98185614ea5565b905081810360808301526154bd8184614ea5565b905095945050505050565b600060a0820190506154dd60008301876150fb565b81810360208301526154ee81615083565b90506154fd60408301866150fb565b818103606083015261550f8185614ea5565b905081810360808301526155238184614ea5565b905095945050505050565b600060408201905061554360008301856150fb565b61555060208301846150fb565b9392505050565b6000615561615572565b905061556d82826158d4565b919050565b6000604051905090565b600067ffffffffffffffff82111561559757615596615a39565b5b602082029050602081019050919050565b600067ffffffffffffffff8211156155c3576155c2615a39565b5b6155cc82615a86565b9050602081019050919050565b600067ffffffffffffffff8211156155f4576155f3615a39565b5b6155fd82615a86565b9050602081019050919050565b6000819050602082019050919050565b60008190508160005260206000209050919050565b600081519050919050565b600081519050919050565b6000602082019050919050565b600082825260208201905092915050565b600082825260208201905092915050565b600081905092915050565b600061568a8261581a565b91506156958361581a565b9250827fffffffffffffffffffffffffffffffffffffffffffffffffffffffffffffffff038211156156ca576156c961594e565b5b828201905092915050565b60006156e08261581a565b91506156eb8361581a565b9250826156fb576156fa61597d565b5b828204905092915050565b60006157118261581a565b915061571c8361581a565b9250817fffffffffffffffffffffffffffffffffffffffffffffffffffffffffffffffff04831182151516156157555761575461594e565b5b828202905092915050565b600061576b8261581a565b91506157768361581a565b9250828210156157895761578861594e565b5b828203905092915050565b600061579f826157fa565b9050919050565b60006157b1826157fa565b9050919050565b60008115159050919050565b6000819050919050565b60007fffffffff0000000000000000000000000000000000000000000000000000000082169050919050565b600073ffffffffffffffffffffffffffffffffffffffff82169050919050565b6000819050919050565b600061582f8261581a565b9050919050565b82818337600083830152505050565b60005b83811015615863578082015181840152602081019050615848565b83811115615872576000848401525b50505050565b60006158838261581a565b915060008214156158975761589661594e565b5b600182039050919050565b600060028204905060018216806158ba57607f821691505b602082108114156158ce576158cd6159ac565b5b50919050565b6158dd82615a86565b810181811067ffffffffffffffff821117156158fc576158fb615a39565b5b80604052505050565b60006159108261581a565b91507fffffffffffffffffffffffffffffffffffffffffffffffffffffffffffffffff8214156159435761594261594e565b5b600182019050919050565b7f4e487b7100000000000000000000000000000000000000000000000000000000600052601160045260246000fd5b7f4e487b7100000000000000000000000000000000000000000000000000000000600052601260045260246000fd5b7f4e487b7100000000000000000000000000000000000000000000000000000000600052602260045260246000fd5b7f4e487b7100000000000000000000000000000000000000000000000000000000600052603160045260246000fd5b7f4e487b7100000000000000000000000000000000000000000000000000000000600052603260045260246000fd5b7f4e487b7100000000000000000000000000000000000000000000000000000000600052604160045260246000fd5b600080fd5b600080fd5b600080fd5b600080fd5b600080fd5b600080fd5b6000601f19601f8301169050919050565b7f456e756d657261626c655365743a20696e646578206f7574206f6620626f756e60008201527f6473000000000000000000000000000000000000000000000000000000000000602082015250565b7f537472696e67733a20686578206c656e67746820696e73756666696369656e74600082015250565b7f5061757361626c653a206e6f7420706175736564000000000000000000000000600082015250565b7f4f776e61626c653a206e6577206f776e657220697320746865207a65726f206160008201527f6464726573730000000000000000000000000000000000000000000000000000602082015250565b7f5061757361626c653a2070617573656400000000000000000000000000000000600082015250565b7f6275790000000000000000000000000000000000000000000000000000000000600082015250565b7f4f776e61626c653a2063616c6c6572206973206e6f7420746865206f776e6572600082015250565b7f455243313135355072657365744d696e7465725061757365723a206d7573742060008201527f686176652070617573657220726f6c6520746f20756e70617573650000000000602082015250565b7f455243313135355072657365744d696e7465725061757365723a206d7573742060008201527f686176652070617573657220726f6c6520746f20706175736500000000000000602082015250565b7f416363657373436f6e74726f6c3a206163636f756e7420000000000000000000600082015250565b7f73656c6c00000000000000000000000000000000000000000000000000000000600082015250565b7f206973206d697373696e6720726f6c6520000000000000000000000000000000600082015250565b7f416363657373436f6e74726f6c3a2063616e206f6e6c792072656e6f756e636560008201527f20726f6c657320666f722073656c660000000000000000000000000000000000602082015250565b615d7381615794565b8114615d7e57600080fd5b50565b615d8a816157a6565b8114615d9557600080fd5b50565b615da1816157b8565b8114615dac57600080fd5b50565b615db8816157c4565b8114615dc357600080fd5b50565b615dcf816157ce565b8114615dda57600080fd5b50565b615de68161581a565b8114615df157600080fd5b5056fea2646970667358221220d7cd70b9cb2273fe1981b6b213e1bd5beffd4b03e719a1a14dbb5d452e3abc5b64736f6c63430008060033",
  "immutableReferences": {},
  "source": "// SPDX-License-Identifier: MIT\npragma solidity ^0.8.0;\n\nimport \"./creatortokenownership.sol\";\n\ncontract CreatorTokenExchange is CreatorTokenOwnership {\n\n\tconstructor(string memory uri) CreatorTokenOwnership(uri) { }\n\n\t// Event that fires when a new transaction occurs\n\tevent NewTransaction(address indexed account, uint amount, string transactionType, uint tokenId, string name, string symbol);\n\n\t// Allow user to buy a given CreatorToken from the platform\n\tfunction buyCreatorToken(uint _tokenId, uint _amount) external payable {\n\t\t// Initialize proceeds required;\n\t\tuint proceedsRequired = 0;\n\t\t// Initialize pre-transaction supply\n\t\tuint startingSupply = creatorTokens[_tokenId].outstanding;\n\t\t// Compute post-transaction supply\n\t\tuint endSupply = startingSupply + _amount;\n\t\t// Compute buy proceeds\n\t\t// Check if endSupply <= maxSupply\n\t\tif (endSupply < creatorTokens[_tokenId].maxSupply) {\n\t\t\t// Scenario in which entire transaction takes place below maxSupply\n\t\t\t// Just call s(x)\n\t\t\tproceedsRequired = _saleFunction(startingSupply, _amount, mNumerator, mDenominator, creatorTokens[_tokenId].maxSupply, profitMargin);\n\t\t} else if (startingSupply < creatorTokens[_tokenId].maxSupply){\n\t\t\t// Scenario in which supply begins below maxSupply and ends above pre-transaction maxSupply\n\t\t\t// Use s(x) from startingSupply to maxSupply\n\t\t\tproceedsRequired = _saleFunction(creatorTokens[_tokenId].maxSupply, creatorTokens[_tokenId].maxSupply - startingSupply, mNumerator, mDenominator, creatorTokens[_tokenId].maxSupply, profitMargin);\n\t\t\t// Use b(x) from maxSupply to endSupply\n\t\t\tproceedsRequired += _buyFunction(creatorTokens[_tokenId].maxSupply, _amount - (creatorTokens[_tokenId].maxSupply - startingSupply), mNumerator, mDenominator);\n\t\t} else {\n\t\t\t// Scenario in which transaction begins at maxSupply\n\t\t\t// Just call b(x)\n\t\t\tproceedsRequired = _buyFunction(startingSupply, _amount, mNumerator, mDenominator);\n\t\t}\n\t\t// Make sure that user sends proceedsRequired wei to cover the cost of _amount tokens, plus the platform fee\n\t\trequire(msg.value ==  2000000000000000000); // (proceedsRequired + proceedsRequired*platformFee/100)); //\n\t\t// Update platform fee total\n\t\t_platformFeeUpdater(proceedsRequired);\n\t\t// Mint _amount tokens at the user's address (note this increases token amount outstanding)\n\t\tmint(msg.sender, _tokenId, _amount, \"\");\n\t\t// Emit new transaction event\n\t\temit NewTransaction(msg.sender, _amount, \"buy\", _tokenId, creatorTokens[_tokenId].name, creatorTokens[_tokenId].symbol);\n\t\t// Check if new outstanding amount of token is greater than maxSupply\n\t\tif (creatorTokens[_tokenId].outstanding > creatorTokens[_tokenId].maxSupply) {\n\t\t\t// Update maxSupply\n\t\t\tcreatorTokens[_tokenId].maxSupply = creatorTokens[_tokenId].outstanding;\n\t\t\t// Call _payout to transfer excess liquidity\n\t\t\t_payCreator(_tokenId, creatorTokens[_tokenId].creatorAddress);\n\t\t}\n\t}\n\n\t// Calculate area under buy price function\n\tfunction _buyFunction(uint _startingSupply, uint _amount, uint _mNumerator, uint _mDenominator) private pure returns (uint256) {\n\t\t// b(x) = m*x\n\t\tuint endSupply = _startingSupply + _amount;\n\t\tuint base1 = _mNumerator*_startingSupply/_mDenominator;\n\t\tuint base2 = _mNumerator*endSupply/_mDenominator;\n\t\tuint height = endSupply-_startingSupply;\n\t\tuint area = (base1 + base2) * height / 2;\n\t\treturn area;\n\t}\n\n\t// Allow user to sell a given CreatorToken back to the platform\n\tfunction sellCreatorToken(uint _tokenId, uint _amount, address payable _seller) external payable {\n\t\t// Require that user calling function is selling own tokens\n\t\trequire(_seller == msg.sender);\n\t\t// Initialize proceeds required\n\t\tuint proceedsRequired = 0;\n\t\t// Initialize pre-transaction supply\n\t\tuint startingSupply = creatorTokens[_tokenId].outstanding;\n\t\t// Compute sale proceeds required\n\t\tproceedsRequired = _saleFunction(startingSupply, _amount, mNumerator, mDenominator, creatorTokens[_tokenId].maxSupply, profitMargin);\n\t\t// Burn _amount tokens from user's address (note this decreases token amount outstanding)\n\t\tburn(_seller, _tokenId, _amount);\n\t\t// Send user proceedsRequired wei (less the platform fee) in exchange for the burned tokens\n\t\t_seller.transfer(1500000000000000000); // proceedsRequired - proceedsRequired*platformFee/100\n\t\t// Update platform fee total\n\t\t_platformFeeUpdater(proceedsRequired);\n\t\t// Emit new transaction event\n\t\temit NewTransaction(msg.sender, _amount, \"sell\", _tokenId, creatorTokens[_tokenId].name, creatorTokens[_tokenId].symbol);\n\t}\n\n\t// Calculate area under sale price function\n\tfunction _saleFunction(uint _startingSupply, uint _amount, uint _mNumerator, uint _mDenominator, uint _maxSupply, uint _profitMargin) private pure returns (uint256) {\n\t\t// Calculate breakpoint and endSupply\n\t\t(uint a, uint b, uint endSupply) = _breakpoint(_startingSupply, _amount, _mNumerator, _mDenominator, _maxSupply, _profitMargin);\n\t\t// Initialize area under curve\n\t\tuint area = 0;\n\t\t// Check where _startingSupply is relative to the breakpoint\n\t\tif (_startingSupply < a) {\n\t\t\t// Just need trapezoidal area of partial entirely left of the breakpoint\n\t\t\tarea = _leftArea(a, b, _startingSupply, endSupply);\n\t\t} else if (endSupply < a) {\n\t\t\t// Scenario in which _startingSupply >= a, and endSupply < a\n\t\t\t// There, need trapezoidal area of components both to right and left of breakpoint\n\t\t\tarea = _bothArea(a, b, _startingSupply, endSupply, _mNumerator, _mDenominator, _maxSupply);\n\t\t} else {\n\t\t\t// Scenario in which entire sale occurs to right of breakpoint\n\t\t\t// Just need trapezoidal area of partial entirely right of the breakpoint\n\t\t\tarea = _rightArea(a, b, _startingSupply, endSupply, _mNumerator, _mDenominator, _maxSupply);\n\t\t}\n\t\treturn area;\n\t}\n\n\t// Calculate breakpoint and other key inputs into _saleFunction\n\tfunction _breakpoint(uint _startingSupply, uint _amount, uint _mNumerator, uint _mDenominator, uint _maxSupply, uint _profitMargin) private pure returns (uint, uint, uint) {\n\t\t// Define breakpoint (a,b) chosen s.t. area under sale price function is (1-profitMargin) times area under buy price function\n\t\tuint a = _maxSupply/2;\n\t\tuint b = _maxSupply*(50-_profitMargin)/100*_mNumerator/_mDenominator;\n\t\tuint endSupply = _startingSupply - _amount;\n\t\treturn (a, b, endSupply);\n\t}\n\n\t// _saleFunction scenario in which entire transaction occurs left of breakpoint\n\tfunction _leftArea(uint _a, uint _b, uint _startingSupply, uint _endSupply) private pure returns (uint256) {\n\t\t\t//uint base1 = ((_b/_a)*(_a-_endSupply)+_b);\n\t\t\t//uint base1 = ((_b/_a)*(_endSupply-_a)+_b);\n\t\t\tuint base1 = (_b-(_b/_a)*(_a-_endSupply));\n\t\t\t//uint base2 = ((_b/_a)*(_a-_startingSupply)+_b);\n\t\t\t//uint base2 = ((_b/_a)*(_startingSupply-_a)+_b);\n\t\t\tuint base2 = (_b-(_b/_a)*(_a-_startingSupply));\n\t\t\tuint height = _startingSupply-_endSupply;\n\t\t\treturn (base1 + base2) * height / 2;\n\t}\n\n\t// _saleFunction scenario in which transaction crosses breakpoint\n\tfunction _bothArea(uint _a, uint _b, uint _startingSupply, uint _endSupply, uint _mNumerator, uint _mDenominator, uint _maxSupply) private pure returns (uint256) {\n\t\t//uint leftBase1 = ((_b/_a)*(_a-_endSupply)+_b);\n\t\t//uint leftBase1 = ((_b/_a)*(_endSupply-_a)+_b);\n\t\tuint leftBase1 = (_b-(_b/_a)*(_a-_endSupply));\n\t\tuint sharedBase = _b;\n\t\tuint leftHeight = _a-_endSupply;\n\t\tuint leftArea = (leftBase1 + sharedBase) * leftHeight / 2;\n\t\tuint rightBase2 = (_mNumerator*_maxSupply/_mDenominator-_b)/(_maxSupply-_a)*(_startingSupply-_a)+_b;\n\t\tuint rightHeight = _startingSupply-_a;\n\t\tuint rightArea = (sharedBase + rightBase2) * rightHeight / 2;\n\t\treturn leftArea + rightArea;\n\t}\n\n\t// _saleFunction scneario in which entire transaction occurs right of breakpoint\n\tfunction _rightArea(uint _a, uint _b, uint _startingSupply, uint _endSupply, uint _mNumerator, uint _mDenominator, uint _maxSupply) private pure returns (uint256) {\n\t\tuint base1 = (((_mNumerator*_maxSupply/_mDenominator-_b)/(_maxSupply-_a))*(_endSupply-_a)+_b);\n\t\tuint base2 = (((_mNumerator*_maxSupply/_mDenominator-_b)/(_maxSupply-_a))*(_startingSupply-_a)+_b);\n\t\tuint height = _startingSupply-_endSupply;\n\t\treturn (base1 + base2) * height / 2;\n\t}\n\n\t// Transfer excess liquidity (triggered only when a CreatorToken hits a new maxSupply)\n\tfunction _payCreator(uint _tokenId, address payable _creatorAddress) internal {\n\t\t// Create a variable showing excess liquidity that has already been transferred out of this token's liquidity pool\n\t\tuint alreadyTransferred = tokenValueTransferred[_tokenId];\n\t\t// Initialize totalProfit\n\t\tuint totalProfit = 0;\n\t\t// Calculate totalProfit (area between b(x) and s(x) from 0 to maxSupply)\n\t\ttotalProfit = _buyFunction(0, creatorTokens[_tokenId].maxSupply, mNumerator, mDenominator) - _saleFunction(creatorTokens[_tokenId].maxSupply, creatorTokens[_tokenId].maxSupply, mNumerator, mDenominator, creatorTokens[_tokenId].maxSupply, profitMargin);\n\t\t// Calculate creator's new profit created from new excess liquidity created\n\t\tuint newProfit = totalProfit - alreadyTransferred; // 1000000000000000000; //\n\t\t// Transfer newProfit wei to creator\n\t\t_creatorAddress.transfer(newProfit);\n\t\t// Update amount of value transferred to creator\n\t\ttokenValueTransferred[_tokenId] = totalProfit;\n\t}\n\n\t// Update platform fees tracker\n\tfunction _platformFeeUpdater(uint _proceedsRequired) internal {\n\t\ttotalPlatformFees += _proceedsRequired*platformFee/100;\n\t\tplatformFeesOwed += _proceedsRequired*platformFee/100;\n\t}\n}\n",
  "sourcePath": "/Users/kamilalizaisadik/DeFi/Dynamic Automated Market Maker/damm_solidity/contracts/CreatorTokenExchange.sol",
  "compiler": {
    "name": "solc",
    "version": "0.8.6+commit.11564f7e.Emscripten.clang"
  },
  "schemaVersion": "3.4.1",
  "updatedAt": "2021-06-28T23:53:22.435Z",
  "networkType": "ethereum",
  "devdoc": {
    "kind": "dev",
    "methods": {
      "getRoleAdmin(bytes32)": {
        "details": "Returns the admin role that controls `role`. See {grantRole} and {revokeRole}. To change a role's admin, use {_setRoleAdmin}."
      },
      "getRoleMember(bytes32,uint256)": {
        "details": "Returns one of the accounts that have `role`. `index` must be a value between 0 and {getRoleMemberCount}, non-inclusive. Role bearers are not sorted in any particular way, and their ordering may change at any point. WARNING: When using {getRoleMember} and {getRoleMemberCount}, make sure you perform all queries on the same block. See the following https://forum.openzeppelin.com/t/iterating-over-elements-on-enumerableset-in-openzeppelin-contracts/2296[forum post] for more information."
      },
      "getRoleMemberCount(bytes32)": {
        "details": "Returns the number of accounts that have `role`. Can be used together with {getRoleMember} to enumerate all bearers of a role."
      },
      "grantRole(bytes32,address)": {
        "details": "Overload {grantRole} to track enumerable memberships"
      },
      "hasRole(bytes32,address)": {
        "details": "Returns `true` if `account` has been granted `role`."
      },
      "owner()": {
        "details": "Returns the address of the current owner."
      },
      "pause()": {
        "details": "Pauses all token transfers. See {ERC1155Pausable} and {Pausable-_pause}. Requirements: - the caller must have the `PAUSER_ROLE`."
      },
      "paused()": {
        "details": "Returns true if the contract is paused, and false otherwise."
      },
      "renounceOwnership()": {
        "details": "Leaves the contract without owner. It will not be possible to call `onlyOwner` functions anymore. Can only be called by the current owner. NOTE: Renouncing ownership will leave the contract without an owner, thereby removing any functionality that is only available to the owner."
      },
      "renounceRole(bytes32,address)": {
        "details": "Overload {renounceRole} to track enumerable memberships"
      },
      "revokeRole(bytes32,address)": {
        "details": "Overload {revokeRole} to track enumerable memberships"
      },
      "supportsInterface(bytes4)": {
        "details": "See {IERC165-supportsInterface}."
      },
      "transferOwnership(address)": {
        "details": "Transfers ownership of the contract to a new account (`newOwner`). Can only be called by the current owner."
      },
      "unpause()": {
        "details": "Unpauses all token transfers. See {ERC1155Pausable} and {Pausable-_unpause}. Requirements: - the caller must have the `PAUSER_ROLE`."
      },
      "uri(uint256)": {
        "details": "See {IERC1155MetadataURI-uri}. This implementation returns the same URI for *all* token types. It relies on the token type ID substitution mechanism https://eips.ethereum.org/EIPS/eip-1155#metadata[defined in the EIP]. Clients calling this function must replace the `\\{id\\}` substring with the actual token type ID."
      }
    },
    "version": 1
  },
  "userdoc": {
    "kind": "user",
    "methods": {},
    "version": 1
  }
}