{
  "contractName": "CreatorTokenComputation",
  "abi": [
    {
      "inputs": [
        {
          "internalType": "string",
          "name": "uri",
          "type": "string"
        }
      ],
      "stateMutability": "nonpayable",
      "type": "constructor"
    },
    {
      "anonymous": false,
      "inputs": [
        {
          "indexed": true,
          "internalType": "address",
          "name": "account",
          "type": "address"
        },
        {
          "indexed": true,
          "internalType": "address",
          "name": "operator",
          "type": "address"
        },
        {
          "indexed": false,
          "internalType": "bool",
          "name": "approved",
          "type": "bool"
        }
      ],
      "name": "ApprovalForAll",
      "type": "event"
    },
    {
      "anonymous": false,
      "inputs": [
        {
          "indexed": false,
          "internalType": "uint256",
          "name": "tokenId",
          "type": "uint256"
        },
        {
          "indexed": false,
          "internalType": "address payable",
          "name": "creatorAddress",
          "type": "address"
        },
        {
          "indexed": false,
          "internalType": "string",
          "name": "name",
          "type": "string"
        },
        {
          "indexed": false,
          "internalType": "string",
          "name": "symbol",
          "type": "string"
        },
        {
          "indexed": false,
          "internalType": "string",
          "name": "description",
          "type": "string"
        },
        {
          "indexed": false,
          "internalType": "bool",
          "name": "verified",
          "type": "bool"
        },
        {
          "indexed": false,
          "internalType": "uint256",
          "name": "outstanding",
          "type": "uint256"
        },
        {
          "indexed": false,
          "internalType": "uint256",
          "name": "maxSupply",
          "type": "uint256"
        }
      ],
      "name": "NewCreatorToken",
      "type": "event"
    },
    {
      "anonymous": false,
      "inputs": [
        {
          "indexed": true,
          "internalType": "address",
          "name": "previousOwner",
          "type": "address"
        },
        {
          "indexed": true,
          "internalType": "address",
          "name": "newOwner",
          "type": "address"
        }
      ],
      "name": "OwnershipTransferred",
      "type": "event"
    },
    {
      "anonymous": false,
      "inputs": [
        {
          "indexed": true,
          "internalType": "address",
          "name": "operator",
          "type": "address"
        },
        {
          "indexed": true,
          "internalType": "address",
          "name": "from",
          "type": "address"
        },
        {
          "indexed": true,
          "internalType": "address",
          "name": "to",
          "type": "address"
        },
        {
          "indexed": false,
          "internalType": "uint256[]",
          "name": "ids",
          "type": "uint256[]"
        },
        {
          "indexed": false,
          "internalType": "uint256[]",
          "name": "values",
          "type": "uint256[]"
        }
      ],
      "name": "TransferBatch",
      "type": "event"
    },
    {
      "anonymous": false,
      "inputs": [
        {
          "indexed": true,
          "internalType": "address",
          "name": "operator",
          "type": "address"
        },
        {
          "indexed": true,
          "internalType": "address",
          "name": "from",
          "type": "address"
        },
        {
          "indexed": true,
          "internalType": "address",
          "name": "to",
          "type": "address"
        },
        {
          "indexed": false,
          "internalType": "uint256",
          "name": "id",
          "type": "uint256"
        },
        {
          "indexed": false,
          "internalType": "uint256",
          "name": "value",
          "type": "uint256"
        }
      ],
      "name": "TransferSingle",
      "type": "event"
    },
    {
      "anonymous": false,
      "inputs": [
        {
          "indexed": false,
          "internalType": "string",
          "name": "value",
          "type": "string"
        },
        {
          "indexed": true,
          "internalType": "uint256",
          "name": "id",
          "type": "uint256"
        }
      ],
      "name": "URI",
      "type": "event"
    },
    {
      "inputs": [
        {
          "internalType": "uint256",
          "name": "_proceedsRequired",
          "type": "uint256"
        }
      ],
      "name": "_feeProceeds",
      "outputs": [
        {
          "internalType": "uint256",
          "name": "",
          "type": "uint256"
        }
      ],
      "stateMutability": "view",
      "type": "function"
    },
    {
      "inputs": [
        {
          "internalType": "uint256",
          "name": "_startingSupply",
          "type": "uint256"
        },
        {
          "internalType": "uint256",
          "name": "_amount",
          "type": "uint256"
        },
        {
          "internalType": "uint256",
          "name": "_mNumerator",
          "type": "uint256"
        },
        {
          "internalType": "uint256",
          "name": "_mDenominator",
          "type": "uint256"
        },
        {
          "internalType": "uint256",
          "name": "_maxSupply",
          "type": "uint256"
        },
        {
          "internalType": "uint256",
          "name": "_profitMargin",
          "type": "uint256"
        }
      ],
      "name": "_saleFunction",
      "outputs": [
        {
          "internalType": "uint256",
          "name": "",
          "type": "uint256"
        }
      ],
      "stateMutability": "pure",
      "type": "function"
    },
    {
      "inputs": [
        {
          "internalType": "address",
          "name": "",
          "type": "address"
        },
        {
          "internalType": "address",
          "name": "",
          "type": "address"
        }
      ],
      "name": "approvals",
      "outputs": [
        {
          "internalType": "bool",
          "name": "",
          "type": "bool"
        }
      ],
      "stateMutability": "view",
      "type": "function"
    },
    {
      "inputs": [
        {
          "internalType": "address",
          "name": "account",
          "type": "address"
        },
        {
          "internalType": "uint256",
          "name": "id",
          "type": "uint256"
        }
      ],
      "name": "balanceOf",
      "outputs": [
        {
          "internalType": "uint256",
          "name": "",
          "type": "uint256"
        }
      ],
      "stateMutability": "view",
      "type": "function"
    },
    {
      "inputs": [
        {
          "internalType": "address[]",
          "name": "accounts",
          "type": "address[]"
        },
        {
          "internalType": "uint256[]",
          "name": "ids",
          "type": "uint256[]"
        }
      ],
      "name": "balanceOfBatch",
      "outputs": [
        {
          "internalType": "uint256[]",
          "name": "",
          "type": "uint256[]"
        }
      ],
      "stateMutability": "view",
      "type": "function"
    },
    {
      "inputs": [
        {
          "internalType": "uint256",
          "name": "_tokenId",
          "type": "uint256"
        },
        {
          "internalType": "address payable",
          "name": "_newCreatorAddress",
          "type": "address"
        }
      ],
      "name": "changeAddress",
      "outputs": [],
      "stateMutability": "nonpayable",
      "type": "function"
    },
    {
      "inputs": [
        {
          "internalType": "uint256",
          "name": "_tokenId",
          "type": "uint256"
        },
        {
          "internalType": "string",
          "name": "_newDescription",
          "type": "string"
        }
      ],
      "name": "changeDescription",
      "outputs": [],
      "stateMutability": "nonpayable",
      "type": "function"
    },
    {
      "inputs": [
        {
          "internalType": "uint256",
          "name": "_tokenId",
          "type": "uint256"
        },
        {
          "internalType": "string",
          "name": "_newName",
          "type": "string"
        }
      ],
      "name": "changeName",
      "outputs": [],
      "stateMutability": "nonpayable",
      "type": "function"
    },
    {
      "inputs": [
        {
          "internalType": "uint256",
          "name": "_newPlatformFee",
          "type": "uint256"
        }
      ],
      "name": "changePlatformFee",
      "outputs": [],
      "stateMutability": "nonpayable",
      "type": "function"
    },
    {
      "inputs": [
        {
          "internalType": "uint256",
          "name": "_newProfitMargin",
          "type": "uint256"
        }
      ],
      "name": "changeProfitMargin",
      "outputs": [],
      "stateMutability": "nonpayable",
      "type": "function"
    },
    {
      "inputs": [
        {
          "internalType": "uint256",
          "name": "_tokenId",
          "type": "uint256"
        },
        {
          "internalType": "string",
          "name": "_newSymbol",
          "type": "string"
        }
      ],
      "name": "changeSymbol",
      "outputs": [],
      "stateMutability": "nonpayable",
      "type": "function"
    },
    {
      "inputs": [
        {
          "internalType": "uint256",
          "name": "_tokenId",
          "type": "uint256"
        },
        {
          "internalType": "bool",
          "name": "_verified",
          "type": "bool"
        }
      ],
      "name": "changeVerification",
      "outputs": [],
      "stateMutability": "nonpayable",
      "type": "function"
    },
    {
      "inputs": [
        {
          "internalType": "address payable",
          "name": "_creatorAddress",
          "type": "address"
        },
        {
          "internalType": "string",
          "name": "_name",
          "type": "string"
        },
        {
          "internalType": "string",
          "name": "_symbol",
          "type": "string"
        },
        {
          "internalType": "string",
          "name": "_description",
          "type": "string"
        }
      ],
      "name": "createCreatorToken",
      "outputs": [],
      "stateMutability": "nonpayable",
      "type": "function"
    },
    {
      "inputs": [
        {
          "internalType": "uint256",
          "name": "",
          "type": "uint256"
        }
      ],
      "name": "creatorTokens",
      "outputs": [
        {
          "internalType": "address payable",
          "name": "creatorAddress",
          "type": "address"
        },
        {
          "internalType": "string",
          "name": "name",
          "type": "string"
        },
        {
          "internalType": "string",
          "name": "symbol",
          "type": "string"
        },
        {
          "internalType": "string",
          "name": "description",
          "type": "string"
        },
        {
          "internalType": "bool",
          "name": "verified",
          "type": "bool"
        },
        {
          "internalType": "uint256",
          "name": "outstanding",
          "type": "uint256"
        },
        {
          "internalType": "uint256",
          "name": "maxSupply",
          "type": "uint256"
        },
        {
          "internalType": "uint256",
          "name": "tokenId",
          "type": "uint256"
        }
      ],
      "stateMutability": "view",
      "type": "function"
    },
    {
      "inputs": [],
      "name": "getCreatorTokenCount",
      "outputs": [
        {
          "internalType": "uint256",
          "name": "",
          "type": "uint256"
        }
      ],
      "stateMutability": "view",
      "type": "function"
    },
    {
      "inputs": [
        {
          "internalType": "address",
          "name": "_account",
          "type": "address"
        },
        {
          "internalType": "address",
          "name": "_operator",
          "type": "address"
        }
      ],
      "name": "isApprovedForAll",
      "outputs": [
        {
          "internalType": "bool",
          "name": "",
          "type": "bool"
        }
      ],
      "stateMutability": "view",
      "type": "function"
    },
    {
      "inputs": [],
      "name": "numCreatorTokens",
      "outputs": [
        {
          "internalType": "uint256",
          "name": "",
          "type": "uint256"
        }
      ],
      "stateMutability": "view",
      "type": "function"
    },
    {
      "inputs": [],
      "name": "owner",
      "outputs": [
        {
          "internalType": "address",
          "name": "",
          "type": "address"
        }
      ],
      "stateMutability": "view",
      "type": "function"
    },
    {
      "inputs": [
        {
          "internalType": "address payable",
          "name": "_owner",
          "type": "address"
        }
      ],
      "name": "payoutPlatformFees",
      "outputs": [],
      "stateMutability": "nonpayable",
      "type": "function"
    },
    {
      "inputs": [],
      "name": "platformFeesOwed",
      "outputs": [
        {
          "internalType": "uint256",
          "name": "",
          "type": "uint256"
        }
      ],
      "stateMutability": "view",
      "type": "function"
    },
    {
      "inputs": [],
      "name": "renounceOwnership",
      "outputs": [],
      "stateMutability": "nonpayable",
      "type": "function"
    },
    {
      "inputs": [
        {
          "internalType": "address",
          "name": "_from",
          "type": "address"
        },
        {
          "internalType": "address",
          "name": "_to",
          "type": "address"
        },
        {
          "internalType": "uint256[]",
          "name": "_ids",
          "type": "uint256[]"
        },
        {
          "internalType": "uint256[]",
          "name": "_amounts",
          "type": "uint256[]"
        },
        {
          "internalType": "bytes",
          "name": "_data",
          "type": "bytes"
        }
      ],
      "name": "safeBatchTransferFrom",
      "outputs": [],
      "stateMutability": "nonpayable",
      "type": "function"
    },
    {
      "inputs": [
        {
          "internalType": "address",
          "name": "_from",
          "type": "address"
        },
        {
          "internalType": "address",
          "name": "_to",
          "type": "address"
        },
        {
          "internalType": "uint256",
          "name": "_id",
          "type": "uint256"
        },
        {
          "internalType": "uint256",
          "name": "_amount",
          "type": "uint256"
        },
        {
          "internalType": "bytes",
          "name": "_data",
          "type": "bytes"
        }
      ],
      "name": "safeTransferFrom",
      "outputs": [],
      "stateMutability": "nonpayable",
      "type": "function"
    },
    {
      "inputs": [
        {
          "internalType": "address",
          "name": "_operator",
          "type": "address"
        },
        {
          "internalType": "bool",
          "name": "_approved",
          "type": "bool"
        }
      ],
      "name": "setApprovalForAll",
      "outputs": [],
      "stateMutability": "nonpayable",
      "type": "function"
    },
    {
      "inputs": [
        {
          "internalType": "bytes4",
          "name": "interfaceId",
          "type": "bytes4"
        }
      ],
      "name": "supportsInterface",
      "outputs": [
        {
          "internalType": "bool",
          "name": "",
          "type": "bool"
        }
      ],
      "stateMutability": "view",
      "type": "function"
    },
    {
      "inputs": [
        {
          "internalType": "uint256",
          "name": "",
          "type": "uint256"
        },
        {
          "internalType": "address",
          "name": "",
          "type": "address"
        }
      ],
      "name": "tokenHoldership",
      "outputs": [
        {
          "internalType": "uint256",
          "name": "",
          "type": "uint256"
        }
      ],
      "stateMutability": "view",
      "type": "function"
    },
    {
      "inputs": [
        {
          "internalType": "uint256",
          "name": "",
          "type": "uint256"
        }
      ],
      "name": "tokenToCreator",
      "outputs": [
        {
          "internalType": "address",
          "name": "",
          "type": "address"
        }
      ],
      "stateMutability": "view",
      "type": "function"
    },
    {
      "inputs": [
        {
          "internalType": "uint256",
          "name": "",
          "type": "uint256"
        }
      ],
      "name": "tokenValueTransferred",
      "outputs": [
        {
          "internalType": "uint256",
          "name": "",
          "type": "uint256"
        }
      ],
      "stateMutability": "view",
      "type": "function"
    },
    {
      "inputs": [],
      "name": "totalPlatformFees",
      "outputs": [
        {
          "internalType": "uint256",
          "name": "",
          "type": "uint256"
        }
      ],
      "stateMutability": "view",
      "type": "function"
    },
    {
      "inputs": [
        {
          "internalType": "uint256",
          "name": "",
          "type": "uint256"
        }
      ],
      "name": "totalValueLocked",
      "outputs": [
        {
          "internalType": "uint256",
          "name": "",
          "type": "uint256"
        }
      ],
      "stateMutability": "view",
      "type": "function"
    },
    {
      "inputs": [
        {
          "internalType": "address",
          "name": "newOwner",
          "type": "address"
        }
      ],
      "name": "transferOwnership",
      "outputs": [],
      "stateMutability": "nonpayable",
      "type": "function"
    },
    {
      "inputs": [
        {
          "internalType": "uint256",
          "name": "",
          "type": "uint256"
        }
      ],
      "name": "uri",
      "outputs": [
        {
          "internalType": "string",
          "name": "",
          "type": "string"
        }
      ],
      "stateMutability": "view",
      "type": "function"
    },
    {
      "inputs": [
        {
          "internalType": "address",
          "name": "",
          "type": "address"
        },
        {
          "internalType": "uint256",
          "name": "",
          "type": "uint256"
        }
      ],
      "name": "userToHoldings",
      "outputs": [
        {
          "internalType": "uint256",
          "name": "",
          "type": "uint256"
        }
      ],
      "stateMutability": "view",
      "type": "function"
    },
    {
      "inputs": [
        {
          "internalType": "address payable",
          "name": "_owner",
          "type": "address"
        }
      ],
      "name": "withdraw",
      "outputs": [],
      "stateMutability": "nonpayable",
      "type": "function"
    },
    {
      "inputs": [
        {
          "internalType": "uint256",
          "name": "_tokenId",
          "type": "uint256"
        },
        {
          "internalType": "uint256",
          "name": "_amount",
          "type": "uint256"
        }
      ],
      "name": "_totalProceeds",
      "outputs": [
        {
          "internalType": "uint256",
          "name": "",
          "type": "uint256"
        }
      ],
      "stateMutability": "view",
      "type": "function"
    },
    {
      "inputs": [
        {
          "internalType": "uint256",
          "name": "_tokenId",
          "type": "uint256"
        },
        {
          "internalType": "uint256",
          "name": "_amount",
          "type": "uint256"
        }
      ],
      "name": "_buyProceeds",
      "outputs": [
        {
          "internalType": "uint256",
          "name": "",
          "type": "uint256"
        }
      ],
      "stateMutability": "view",
      "type": "function"
    }
  ],
  "bytecode": "0x608060405260018055600060025560006003556000600455601460055565082f79cd900060065560b96007553480156200003857600080fd5b5060405162003ef738038062003ef783398181016040528101906200005e919062000280565b808080806000620000746200012e60201b60201c565b9050806000806101000a81548173ffffffffffffffffffffffffffffffffffffffff021916908373ffffffffffffffffffffffffffffffffffffffff1602179055508073ffffffffffffffffffffffffffffffffffffffff16600073ffffffffffffffffffffffffffffffffffffffff167f8be0079c531659141344cd1fd0a4f28419497f9722a3daafe3b4186f6b6457e060405160405180910390a35062000123816200013660201b60201c565b505050505062000455565b600033905090565b80601190805190602001906200014e92919062000152565b5050565b828054620001609062000366565b90600052602060002090601f016020900481019282620001845760008555620001d0565b82601f106200019f57805160ff1916838001178555620001d0565b82800160010185558215620001d0579182015b82811115620001cf578251825591602001919060010190620001b2565b5b509050620001df9190620001e3565b5090565b5b80821115620001fe576000816000905550600101620001e4565b5090565b6000620002196200021384620002fa565b620002d1565b90508281526020810184848401111562000238576200023762000435565b5b6200024584828562000330565b509392505050565b600082601f83011262000265576200026462000430565b5b81516200027784826020860162000202565b91505092915050565b6000602082840312156200029957620002986200043f565b5b600082015167ffffffffffffffff811115620002ba57620002b96200043a565b5b620002c8848285016200024d565b91505092915050565b6000620002dd620002f0565b9050620002eb82826200039c565b919050565b6000604051905090565b600067ffffffffffffffff82111562000318576200031762000401565b5b620003238262000444565b9050602081019050919050565b60005b838110156200035057808201518184015260208101905062000333565b8381111562000360576000848401525b50505050565b600060028204905060018216806200037f57607f821691505b60208210811415620003965762000395620003d2565b5b50919050565b620003a78262000444565b810181811067ffffffffffffffff82111715620003c957620003c862000401565b5b80604052505050565b7f4e487b7100000000000000000000000000000000000000000000000000000000600052602260045260246000fd5b7f4e487b7100000000000000000000000000000000000000000000000000000000600052604160045260246000fd5b600080fd5b600080fd5b600080fd5b600080fd5b6000601f19601f8301169050919050565b613a9280620004656000396000f3fe608060405234801561001057600080fd5b506004361061021b5760003560e01c8063afb2183211610125578063d7a5791a116100ad578063e985e9c51161007c578063e985e9c5146106af578063eb841759146106df578063f242432a146106fb578063f2fde38b14610717578063f7374e2e146107335761021b565b8063d7a5791a14610617578063d9bd3a4014610633578063de6a06ed14610663578063df3c00b11461067f5761021b565b8063c39cbef1116100f4578063c39cbef11461056e578063c539c3171461058a578063ce901d8a146105a6578063d3631fa5146105dd578063d56b72c7146105fb5761021b565b8063afb21832146104d2578063ba111a05146104f0578063bfb48c9c14610520578063c1d33049146105505761021b565b806335a8ae21116101a8578063715018a611610177578063715018a61461042e5780638da5cb5b1461043857806392724afa14610456578063a22cb46514610486578063a32ce11e146104a25761021b565b806335a8ae21146103825780634e1273f4146103b25780634fe477d8146103e257806351cff8d9146104125761021b565b806317bcaa08116101ef57806317bcaa08146102cc57806318892ae8146102fc5780631d5ad18b1461032c5780632a2b237c146103485780632eb2c2d6146103665761021b565b8062fdd58e1461022057806301ffc9a71461025057806306e320f5146102805780630e89341c1461029c575b600080fd5b61023a60048036038101906102359190612cbb565b61074f565b6040516102479190613313565b60405180910390f35b61026a60048036038101906102659190612d73565b610819565b6040516102779190613256565b60405180910390f35b61029a60048036038101906102959190612e8d565b6108fb565b005b6102b660048036038101906102b19190612da0565b6109a2565b6040516102c39190613271565b60405180910390f35b6102e660048036038101906102e19190612da0565b610a36565b6040516102f39190613313565b60405180910390f35b61031660048036038101906103119190612da0565b610a4e565b604051610323919061314f565b60405180910390f35b61034660048036038101906103419190612e0d565b610a81565b005b610350610b56565b60405161035d9190613313565b60405180910390f35b610380600480360381019061037b9190612b15565b610b63565b005b61039c60048036038101906103979190612eed565b610ccf565b6040516103a99190613313565b60405180910390f35b6103cc60048036038101906103c79190612cfb565b610d07565b6040516103d991906131fd565b60405180910390f35b6103fc60048036038101906103f79190612eed565b610e20565b6040516104099190613313565b60405180910390f35b61042c600480360381019061042791906129ed565b61102d565b005b6104366110f3565b005b61044061122d565b60405161044d919061314f565b60405180910390f35b610470600480360381019061046b9190612cbb565b611256565b60405161047d9190613313565b60405180910390f35b6104a0600480360381019061049b9190612c7b565b61127b565b005b6104bc60048036038101906104b79190612ad5565b611378565b6040516104c99190613256565b60405180910390f35b6104da6113a7565b6040516104e79190613313565b60405180910390f35b61050a60048036038101906105059190612da0565b6113ad565b6040516105179190613313565b60405180910390f35b61053a60048036038101906105359190612dcd565b6113d0565b6040516105479190613313565b60405180910390f35b6105586113f5565b6040516105659190613313565b60405180910390f35b61058860048036038101906105839190612e8d565b6113fb565b005b6105a4600480360381019061059f9190612da0565b6114a2565b005b6105c060048036038101906105bb9190612da0565b611528565b6040516105d498979695949392919061316a565b60405180910390f35b6105e5611745565b6040516105f29190613313565b60405180910390f35b61061560048036038101906106109190612a1a565b61174b565b005b610631600480360381019061062c9190612da0565b61196c565b005b61064d60048036038101906106489190612da0565b6119f2565b60405161065a9190613313565b60405180910390f35b61067d60048036038101906106789190612e8d565b611a0a565b005b61069960048036038101906106949190612f2d565b611ab1565b6040516106a69190613313565b60405180910390f35b6106c960048036038101906106c49190612ad5565b611b2a565b6040516106d69190613256565b60405180910390f35b6106f960048036038101906106f491906129ed565b611bbe565b005b61071560048036038101906107109190612be4565b611c8e565b005b610731600480360381019061072c91906129c0565b611d72565b005b61074d60048036038101906107489190612e4d565b611f1b565b005b60008073ffffffffffffffffffffffffffffffffffffffff168373ffffffffffffffffffffffffffffffffffffffff1614156107c0576040517f08c379a00000000000000000000000000000000000000000000000000000000081526004016107b790613293565b60405180910390fd5b600f600083815260200190815260200160002060008473ffffffffffffffffffffffffffffffffffffffff1673ffffffffffffffffffffffffffffffffffffffff16815260200190815260200160002054905092915050565b60007fd9b67a26000000000000000000000000000000000000000000000000000000007bffffffffffffffffffffffffffffffffffffffffffffffffffffffff1916827bffffffffffffffffffffffffffffffffffffffffffffffffffffffff191614806108e457507f0e89341c000000000000000000000000000000000000000000000000000000007bffffffffffffffffffffffffffffffffffffffffffffffffffffffff1916827bffffffffffffffffffffffffffffffffffffffffffffffffffffffff1916145b806108f457506108f382611fd8565b5b9050919050565b826009600082815260200190815260200160002060009054906101000a900473ffffffffffffffffffffffffffffffffffffffff1673ffffffffffffffffffffffffffffffffffffffff163373ffffffffffffffffffffffffffffffffffffffff161461096757600080fd5b82826008868154811061097d5761097c613846565b5b9060005260206000209060080201600201919061099b9291906125bc565b5050505050565b6060601180546109b19061370d565b80601f01602080910402602001604051908101604052809291908181526020018280546109dd9061370d565b8015610a2a5780601f106109ff57610100808354040283529160200191610a2a565b820191906000526020600020905b815481529060010190602001808311610a0d57829003601f168201915b50505050509050919050565b600a6020528060005260406000206000915090505481565b60096020528060005260406000206000915054906101000a900473ffffffffffffffffffffffffffffffffffffffff1681565b816009600082815260200190815260200160002060009054906101000a900473ffffffffffffffffffffffffffffffffffffffff1673ffffffffffffffffffffffffffffffffffffffff163373ffffffffffffffffffffffffffffffffffffffff1614610aed57600080fd5b8160088481548110610b0257610b01613846565b5b906000526020600020906008020160000160006101000a81548173ffffffffffffffffffffffffffffffffffffffff021916908373ffffffffffffffffffffffffffffffffffffffff160217905550505050565b6000600880549050905090565b60005b8351811015610c49578573ffffffffffffffffffffffffffffffffffffffff163373ffffffffffffffffffffffffffffffffffffffff161480610baf5750610bae8686611b2a565b5b610bb857600080fd5b610bf786858381518110610bcf57610bce613846565b5b6020026020010151858481518110610bea57610be9613846565b5b6020026020010151612042565b610c3685858381518110610c0e57610c0d613846565b5b6020026020010151858481518110610c2957610c28613846565b5b6020026020010151612115565b8080610c4190613770565b915050610b66565b508373ffffffffffffffffffffffffffffffffffffffff168573ffffffffffffffffffffffffffffffffffffffff163373ffffffffffffffffffffffffffffffffffffffff167f4a39dc06d4c0dbc64b70af90fd698a233a518aa5d07e595d983b8c0526c8f7fb8686604051610cc092919061321f565b60405180910390a45050505050565b600080610cdc8484610e20565b90506000610ce9826113ad565b905060008183610cf9919061351e565b905080935050505092915050565b60608151835114610d4d576040517f08c379a0000000000000000000000000000000000000000000000000000000008152600401610d44906132f3565b60405180910390fd5b6000835167ffffffffffffffff811115610d6a57610d69613875565b5b604051908082528060200260200182016040528015610d985781602001602082028036833780820191505090505b50905060005b8451811015610e1557610de5858281518110610dbd57610dbc613846565b5b6020026020010151858381518110610dd857610dd7613846565b5b602002602001015161074f565b828281518110610df857610df7613846565b5b60200260200101818152505080610e0e90613770565b9050610d9e565b508091505092915050565b60008060009050600060088581548110610e3d57610e3c613846565b5b906000526020600020906008020160050154905060008482610e5f919061351e565b905060088681548110610e7557610e74613846565b5b906000526020600020906008020160060154811015610ece57610ec7818660065460075460088b81548110610ead57610eac613846565b5b906000526020600020906008020160060154600554611ab1565b9250611021565b60088681548110610ee257610ee1613846565b5b90600052602060002090600802016006015482101561100d57610f8960088781548110610f1257610f11613846565b5b9060005260206000209060080201600601548360088981548110610f3957610f38613846565b5b906000526020600020906008020160060154610f5591906135ff565b60065460075460088b81548110610f6f57610f6e613846565b5b906000526020600020906008020160060154600554611ab1565b9250610ffb60088781548110610fa257610fa1613846565b5b9060005260206000209060080201600601548360088981548110610fc957610fc8613846565b5b906000526020600020906008020160060154610fe591906135ff565b87610ff091906135ff565b6006546007546121e8565b83611006919061351e565b9250611020565b61101d82866006546007546121e8565b92505b5b82935050505092915050565b611035612276565b73ffffffffffffffffffffffffffffffffffffffff1661105361122d565b73ffffffffffffffffffffffffffffffffffffffff16146110a9576040517f08c379a00000000000000000000000000000000000000000000000000000000081526004016110a0906132d3565b60405180910390fd5b8073ffffffffffffffffffffffffffffffffffffffff166108fc479081150290604051600060405180830381858888f193505050501580156110ef573d6000803e3d6000fd5b5050565b6110fb612276565b73ffffffffffffffffffffffffffffffffffffffff1661111961122d565b73ffffffffffffffffffffffffffffffffffffffff161461116f576040517f08c379a0000000000000000000000000000000000000000000000000000000008152600401611166906132d3565b60405180910390fd5b600073ffffffffffffffffffffffffffffffffffffffff1660008054906101000a900473ffffffffffffffffffffffffffffffffffffffff1673ffffffffffffffffffffffffffffffffffffffff167f8be0079c531659141344cd1fd0a4f28419497f9722a3daafe3b4186f6b6457e060405160405180910390a360008060006101000a81548173ffffffffffffffffffffffffffffffffffffffff021916908373ffffffffffffffffffffffffffffffffffffffff160217905550565b60008060009054906101000a900473ffffffffffffffffffffffffffffffffffffffff16905090565b600c602052816000526040600020602052806000526040600020600091509150505481565b80600d60003373ffffffffffffffffffffffffffffffffffffffff1673ffffffffffffffffffffffffffffffffffffffff16815260200190815260200160002060008473ffffffffffffffffffffffffffffffffffffffff1673ffffffffffffffffffffffffffffffffffffffff16815260200190815260200160002060006101000a81548160ff0219169083151502179055508173ffffffffffffffffffffffffffffffffffffffff163373ffffffffffffffffffffffffffffffffffffffff167f17307eab39ab6107e8899845ad3d59bd9653f200f220920489ca2b5937696c318360405161136c9190613256565b60405180910390a35050565b600d6020528160005260406000206020528060005260406000206000915091509054906101000a900460ff1681565b60045481565b60006064600154836113bf91906135a5565b6113c99190613574565b9050919050565b600b602052816000526040600020602052806000526040600020600091509150505481565b60035481565b826009600082815260200190815260200160002060009054906101000a900473ffffffffffffffffffffffffffffffffffffffff1673ffffffffffffffffffffffffffffffffffffffff163373ffffffffffffffffffffffffffffffffffffffff161461146757600080fd5b82826008868154811061147d5761147c613846565b5b9060005260206000209060080201600101919061149b9291906125bc565b5050505050565b6114aa612276565b73ffffffffffffffffffffffffffffffffffffffff166114c861122d565b73ffffffffffffffffffffffffffffffffffffffff161461151e576040517f08c379a0000000000000000000000000000000000000000000000000000000008152600401611515906132d3565b60405180910390fd5b8060058190555050565b6008818154811061153857600080fd5b90600052602060002090600802016000915090508060000160009054906101000a900473ffffffffffffffffffffffffffffffffffffffff16908060010180546115819061370d565b80601f01602080910402602001604051908101604052809291908181526020018280546115ad9061370d565b80156115fa5780601f106115cf576101008083540402835291602001916115fa565b820191906000526020600020905b8154815290600101906020018083116115dd57829003601f168201915b50505050509080600201805461160f9061370d565b80601f016020809104026020016040519081016040528092919081815260200182805461163b9061370d565b80156116885780601f1061165d57610100808354040283529160200191611688565b820191906000526020600020905b81548152906001019060200180831161166b57829003601f168201915b50505050509080600301805461169d9061370d565b80601f01602080910402602001604051908101604052809291908181526020018280546116c99061370d565b80156117165780601f106116eb57610100808354040283529160200191611716565b820191906000526020600020905b8154815290600101906020018083116116f957829003601f168201915b5050505050908060040160009054906101000a900460ff16908060050154908060060154908060070154905088565b60025481565b6000600880549050905060086040518061010001604052808773ffffffffffffffffffffffffffffffffffffffff168152602001868152602001858152602001848152602001600015158152602001600081526020016000815260200183815250908060018154018082558091505060019003906000526020600020906008020160009091909190915060008201518160000160006101000a81548173ffffffffffffffffffffffffffffffffffffffff021916908373ffffffffffffffffffffffffffffffffffffffff1602179055506020820151816001019080519060200190611838929190612642565b506040820151816002019080519060200190611855929190612642565b506060820151816003019080519060200190611872929190612642565b5060808201518160040160006101000a81548160ff02191690831515021790555060a0820151816005015560c0820151816006015560e082015181600701555050846009600083815260200190815260200160002060006101000a81548173ffffffffffffffffffffffffffffffffffffffff021916908373ffffffffffffffffffffffffffffffffffffffff1602179055506000600a6000838152602001908152602001600020819055507f3ef624c0f3fb7ad40b94c02078ea3e3a797dbfc21e921ee4bd2b8ad0ca6aa1138186868686600080600060405161195d98979695949392919061332e565b60405180910390a15050505050565b611974612276565b73ffffffffffffffffffffffffffffffffffffffff1661199261122d565b73ffffffffffffffffffffffffffffffffffffffff16146119e8576040517f08c379a00000000000000000000000000000000000000000000000000000000081526004016119df906132d3565b60405180910390fd5b8060018190555050565b600e6020528060005260406000206000915090505481565b826009600082815260200190815260200160002060009054906101000a900473ffffffffffffffffffffffffffffffffffffffff1673ffffffffffffffffffffffffffffffffffffffff163373ffffffffffffffffffffffffffffffffffffffff1614611a7657600080fd5b828260088681548110611a8c57611a8b613846565b5b90600052602060002090600802016003019190611aaa9291906125bc565b5050505050565b600080600080611ac58a8a8a8a8a8a61227e565b9250925092506000838b1015611ae857611ae184848d856122f9565b9050611b19565b83821015611b0657611aff84848d858d8d8d61239c565b9050611b18565b611b1584848d858d8d8d6124be565b90505b5b809450505050509695505050505050565b6000600d60008473ffffffffffffffffffffffffffffffffffffffff1673ffffffffffffffffffffffffffffffffffffffff16815260200190815260200160002060008373ffffffffffffffffffffffffffffffffffffffff1673ffffffffffffffffffffffffffffffffffffffff16815260200190815260200160002060009054906101000a900460ff16905092915050565b611bc6612276565b73ffffffffffffffffffffffffffffffffffffffff16611be461122d565b73ffffffffffffffffffffffffffffffffffffffff1614611c3a576040517f08c379a0000000000000000000000000000000000000000000000000000000008152600401611c31906132d3565b60405180910390fd5b8073ffffffffffffffffffffffffffffffffffffffff166108fc6003549081150290604051600060405180830381858888f19350505050158015611c82573d6000803e3d6000fd5b50600060038190555050565b8473ffffffffffffffffffffffffffffffffffffffff163373ffffffffffffffffffffffffffffffffffffffff161480611cce5750611ccd8585611b2a565b5b611cd757600080fd5b611ce2858484612042565b611ced848484612115565b8373ffffffffffffffffffffffffffffffffffffffff168573ffffffffffffffffffffffffffffffffffffffff163373ffffffffffffffffffffffffffffffffffffffff167fc3d58168c5ae7397731d063d5bbf3d657854427343f4c083240f7aacaa2d0f628686604051611d639291906133c1565b60405180910390a45050505050565b611d7a612276565b73ffffffffffffffffffffffffffffffffffffffff16611d9861122d565b73ffffffffffffffffffffffffffffffffffffffff1614611dee576040517f08c379a0000000000000000000000000000000000000000000000000000000008152600401611de5906132d3565b60405180910390fd5b600073ffffffffffffffffffffffffffffffffffffffff168173ffffffffffffffffffffffffffffffffffffffff161415611e5e576040517f08c379a0000000000000000000000000000000000000000000000000000000008152600401611e55906132b3565b60405180910390fd5b8073ffffffffffffffffffffffffffffffffffffffff1660008054906101000a900473ffffffffffffffffffffffffffffffffffffffff1673ffffffffffffffffffffffffffffffffffffffff167f8be0079c531659141344cd1fd0a4f28419497f9722a3daafe3b4186f6b6457e060405160405180910390a3806000806101000a81548173ffffffffffffffffffffffffffffffffffffffff021916908373ffffffffffffffffffffffffffffffffffffffff16021790555050565b611f23612276565b73ffffffffffffffffffffffffffffffffffffffff16611f4161122d565b73ffffffffffffffffffffffffffffffffffffffff1614611f97576040517f08c379a0000000000000000000000000000000000000000000000000000000008152600401611f8e906132d3565b60405180910390fd5b8060088381548110611fac57611fab613846565b5b906000526020600020906008020160040160006101000a81548160ff0219169083151502179055505050565b60007f01ffc9a7000000000000000000000000000000000000000000000000000000007bffffffffffffffffffffffffffffffffffffffffffffffffffffffff1916827bffffffffffffffffffffffffffffffffffffffffffffffffffffffff1916149050919050565b80600b600084815260200190815260200160002060008573ffffffffffffffffffffffffffffffffffffffff1673ffffffffffffffffffffffffffffffffffffffff16815260200190815260200160002060008282546120a291906135ff565b9250508190555080600c60008573ffffffffffffffffffffffffffffffffffffffff1673ffffffffffffffffffffffffffffffffffffffff1681526020019081526020016000206000848152602001908152602001600020600082825461210991906135ff565b92505081905550505050565b80600b600084815260200190815260200160002060008573ffffffffffffffffffffffffffffffffffffffff1673ffffffffffffffffffffffffffffffffffffffff1681526020019081526020016000206000828254612175919061351e565b9250508190555080600c60008573ffffffffffffffffffffffffffffffffffffffff1673ffffffffffffffffffffffffffffffffffffffff168152602001908152602001600020600084815260200190815260200160002060008282546121dc919061351e565b92505081905550505050565b60008084866121f7919061351e565b9050600083878661220891906135a5565b6122129190613574565b9050600084838761222391906135a5565b61222d9190613574565b90506000888461223d91906135ff565b905060006002828486612250919061351e565b61225a91906135a5565b6122649190613574565b90508095505050505050949350505050565b600033905090565b6000806000806002866122919190613574565b90506000878960648860326122a691906135ff565b8a6122b191906135a5565b6122bb9190613574565b6122c591906135a5565b6122cf9190613574565b905060008a8c6122df91906135ff565b905082828295509550955050505096509650969350505050565b600080828661230891906135ff565b86866123149190613574565b61231e91906135a5565b8561232991906135ff565b90506000848761233991906135ff565b87876123459190613574565b61234f91906135a5565b8661235a91906135ff565b90506000848661236a91906135ff565b9050600281838561237b919061351e565b61238591906135a5565b61238f9190613574565b9350505050949350505050565b60008085896123ab91906135ff565b89896123b79190613574565b6123c191906135a5565b886123cc91906135ff565b905060008890506000878b6123e191906135ff565b9050600060028284866123f4919061351e565b6123fe91906135a5565b6124089190613574565b905060008b8d8c61241991906135ff565b8e8961242591906135ff565b8e8b8b8e61243391906135a5565b61243d9190613574565b61244791906135ff565b6124519190613574565b61245b91906135a5565b612465919061351e565b905060008d8c61247591906135ff565b905060006002828488612488919061351e565b61249291906135a5565b61249c9190613574565b905080846124aa919061351e565b975050505050505050979650505050505050565b6000808789876124ce91906135ff565b8a856124da91906135ff565b8a87878a6124e891906135a5565b6124f29190613574565b6124fc91906135ff565b6125069190613574565b61251091906135a5565b61251a919061351e565b90506000888a8961252b91906135ff565b8b8661253791906135ff565b8b88888b61254591906135a5565b61254f9190613574565b61255991906135ff565b6125639190613574565b61256d91906135a5565b612577919061351e565b90506000878961258791906135ff565b90506002818385612598919061351e565b6125a291906135a5565b6125ac9190613574565b9350505050979650505050505050565b8280546125c89061370d565b90600052602060002090601f0160209004810192826125ea5760008555612631565b82601f1061260357803560ff1916838001178555612631565b82800160010185558215612631579182015b82811115612630578235825591602001919060010190612615565b5b50905061263e91906126c8565b5090565b82805461264e9061370d565b90600052602060002090601f01602090048101928261267057600085556126b7565b82601f1061268957805160ff19168380011785556126b7565b828001600101855582156126b7579182015b828111156126b657825182559160200191906001019061269b565b5b5090506126c491906126c8565b5090565b5b808211156126e15760008160009055506001016126c9565b5090565b60006126f86126f38461340f565b6133ea565b9050808382526020820190508285602086028201111561271b5761271a6138ae565b5b60005b8581101561274b57816127318882612849565b84526020840193506020830192505060018101905061271e565b5050509392505050565b60006127686127638461343b565b6133ea565b9050808382526020820190508285602086028201111561278b5761278a6138ae565b5b60005b858110156127bb57816127a188826129ab565b84526020840193506020830192505060018101905061278e565b5050509392505050565b60006127d86127d384613467565b6133ea565b9050828152602081018484840111156127f4576127f36138b3565b5b6127ff8482856136cb565b509392505050565b600061281a61281584613498565b6133ea565b905082815260208101848484011115612836576128356138b3565b5b6128418482856136cb565b509392505050565b600081359050612858816139e9565b92915050565b60008135905061286d81613a00565b92915050565b600082601f830112612888576128876138a9565b5b81356128988482602086016126e5565b91505092915050565b600082601f8301126128b6576128b56138a9565b5b81356128c6848260208601612755565b91505092915050565b6000813590506128de81613a17565b92915050565b6000813590506128f381613a2e565b92915050565b600082601f83011261290e5761290d6138a9565b5b813561291e8482602086016127c5565b91505092915050565b60008083601f84011261293d5761293c6138a9565b5b8235905067ffffffffffffffff81111561295a576129596138a4565b5b602083019150836001820283011115612976576129756138ae565b5b9250929050565b600082601f830112612992576129916138a9565b5b81356129a2848260208601612807565b91505092915050565b6000813590506129ba81613a45565b92915050565b6000602082840312156129d6576129d56138bd565b5b60006129e484828501612849565b91505092915050565b600060208284031215612a0357612a026138bd565b5b6000612a118482850161285e565b91505092915050565b60008060008060808587031215612a3457612a336138bd565b5b6000612a428782880161285e565b945050602085013567ffffffffffffffff811115612a6357612a626138b8565b5b612a6f8782880161297d565b935050604085013567ffffffffffffffff811115612a9057612a8f6138b8565b5b612a9c8782880161297d565b925050606085013567ffffffffffffffff811115612abd57612abc6138b8565b5b612ac98782880161297d565b91505092959194509250565b60008060408385031215612aec57612aeb6138bd565b5b6000612afa85828601612849565b9250506020612b0b85828601612849565b9150509250929050565b600080600080600060a08688031215612b3157612b306138bd565b5b6000612b3f88828901612849565b9550506020612b5088828901612849565b945050604086013567ffffffffffffffff811115612b7157612b706138b8565b5b612b7d888289016128a1565b935050606086013567ffffffffffffffff811115612b9e57612b9d6138b8565b5b612baa888289016128a1565b925050608086013567ffffffffffffffff811115612bcb57612bca6138b8565b5b612bd7888289016128f9565b9150509295509295909350565b600080600080600060a08688031215612c0057612bff6138bd565b5b6000612c0e88828901612849565b9550506020612c1f88828901612849565b9450506040612c30888289016129ab565b9350506060612c41888289016129ab565b925050608086013567ffffffffffffffff811115612c6257612c616138b8565b5b612c6e888289016128f9565b9150509295509295909350565b60008060408385031215612c9257612c916138bd565b5b6000612ca085828601612849565b9250506020612cb1858286016128cf565b9150509250929050565b60008060408385031215612cd257612cd16138bd565b5b6000612ce085828601612849565b9250506020612cf1858286016129ab565b9150509250929050565b60008060408385031215612d1257612d116138bd565b5b600083013567ffffffffffffffff811115612d3057612d2f6138b8565b5b612d3c85828601612873565b925050602083013567ffffffffffffffff811115612d5d57612d5c6138b8565b5b612d69858286016128a1565b9150509250929050565b600060208284031215612d8957612d886138bd565b5b6000612d97848285016128e4565b91505092915050565b600060208284031215612db657612db56138bd565b5b6000612dc4848285016129ab565b91505092915050565b60008060408385031215612de457612de36138bd565b5b6000612df2858286016129ab565b9250506020612e0385828601612849565b9150509250929050565b60008060408385031215612e2457612e236138bd565b5b6000612e32858286016129ab565b9250506020612e438582860161285e565b9150509250929050565b60008060408385031215612e6457612e636138bd565b5b6000612e72858286016129ab565b9250506020612e83858286016128cf565b9150509250929050565b600080600060408486031215612ea657612ea56138bd565b5b6000612eb4868287016129ab565b935050602084013567ffffffffffffffff811115612ed557612ed46138b8565b5b612ee186828701612927565b92509250509250925092565b60008060408385031215612f0457612f036138bd565b5b6000612f12858286016129ab565b9250506020612f23858286016129ab565b9150509250929050565b60008060008060008060c08789031215612f4a57612f496138bd565b5b6000612f5889828a016129ab565b9650506020612f6989828a016129ab565b9550506040612f7a89828a016129ab565b9450506060612f8b89828a016129ab565b9350506080612f9c89828a016129ab565b92505060a0612fad89828a016129ab565b9150509295509295509295565b6000612fc68383613131565b60208301905092915050565b612fdb81613645565b82525050565b612fea81613633565b82525050565b6000612ffb826134d9565b61300581856134fc565b9350613010836134c9565b8060005b838110156130415781516130288882612fba565b9750613033836134ef565b925050600181019050613014565b5085935050505092915050565b61305781613657565b82525050565b613066816136b9565b82525050565b6000613077826134e4565b613081818561350d565b93506130918185602086016136da565b61309a816138c2565b840191505092915050565b60006130b2602b8361350d565b91506130bd826138d3565b604082019050919050565b60006130d560268361350d565b91506130e082613922565b604082019050919050565b60006130f860208361350d565b915061310382613971565b602082019050919050565b600061311b60298361350d565b91506131268261399a565b604082019050919050565b61313a816136af565b82525050565b613149816136af565b82525050565b60006020820190506131646000830184612fe1565b92915050565b600061010082019050613180600083018b612fd2565b8181036020830152613192818a61306c565b905081810360408301526131a6818961306c565b905081810360608301526131ba818861306c565b90506131c9608083018761304e565b6131d660a0830186613140565b6131e360c0830185613140565b6131f060e0830184613140565b9998505050505050505050565b600060208201905081810360008301526132178184612ff0565b905092915050565b600060408201905081810360008301526132398185612ff0565b9050818103602083015261324d8184612ff0565b90509392505050565b600060208201905061326b600083018461304e565b92915050565b6000602082019050818103600083015261328b818461306c565b905092915050565b600060208201905081810360008301526132ac816130a5565b9050919050565b600060208201905081810360008301526132cc816130c8565b9050919050565b600060208201905081810360008301526132ec816130eb565b9050919050565b6000602082019050818103600083015261330c8161310e565b9050919050565b60006020820190506133286000830184613140565b92915050565b600061010082019050613344600083018b613140565b613351602083018a612fd2565b8181036040830152613363818961306c565b90508181036060830152613377818861306c565b9050818103608083015261338b818761306c565b905061339a60a083018661304e565b6133a760c083018561305d565b6133b460e083018461305d565b9998505050505050505050565b60006040820190506133d66000830185613140565b6133e36020830184613140565b9392505050565b60006133f4613405565b9050613400828261373f565b919050565b6000604051905090565b600067ffffffffffffffff82111561342a57613429613875565b5b602082029050602081019050919050565b600067ffffffffffffffff82111561345657613455613875565b5b602082029050602081019050919050565b600067ffffffffffffffff82111561348257613481613875565b5b61348b826138c2565b9050602081019050919050565b600067ffffffffffffffff8211156134b3576134b2613875565b5b6134bc826138c2565b9050602081019050919050565b6000819050602082019050919050565b600081519050919050565b600081519050919050565b6000602082019050919050565b600082825260208201905092915050565b600082825260208201905092915050565b6000613529826136af565b9150613534836136af565b9250827fffffffffffffffffffffffffffffffffffffffffffffffffffffffffffffffff03821115613569576135686137b9565b5b828201905092915050565b600061357f826136af565b915061358a836136af565b92508261359a576135996137e8565b5b828204905092915050565b60006135b0826136af565b91506135bb836136af565b9250817fffffffffffffffffffffffffffffffffffffffffffffffffffffffffffffffff04831182151516156135f4576135f36137b9565b5b828202905092915050565b600061360a826136af565b9150613615836136af565b925082821015613628576136276137b9565b5b828203905092915050565b600061363e8261368f565b9050919050565b60006136508261368f565b9050919050565b60008115159050919050565b60007fffffffff0000000000000000000000000000000000000000000000000000000082169050919050565b600073ffffffffffffffffffffffffffffffffffffffff82169050919050565b6000819050919050565b60006136c4826136af565b9050919050565b82818337600083830152505050565b60005b838110156136f85780820151818401526020810190506136dd565b83811115613707576000848401525b50505050565b6000600282049050600182168061372557607f821691505b6020821081141561373957613738613817565b5b50919050565b613748826138c2565b810181811067ffffffffffffffff8211171561376757613766613875565b5b80604052505050565b600061377b826136af565b91507fffffffffffffffffffffffffffffffffffffffffffffffffffffffffffffffff8214156137ae576137ad6137b9565b5b600182019050919050565b7f4e487b7100000000000000000000000000000000000000000000000000000000600052601160045260246000fd5b7f4e487b7100000000000000000000000000000000000000000000000000000000600052601260045260246000fd5b7f4e487b7100000000000000000000000000000000000000000000000000000000600052602260045260246000fd5b7f4e487b7100000000000000000000000000000000000000000000000000000000600052603260045260246000fd5b7f4e487b7100000000000000000000000000000000000000000000000000000000600052604160045260246000fd5b600080fd5b600080fd5b600080fd5b600080fd5b600080fd5b600080fd5b6000601f19601f8301169050919050565b7f455243313135353a2062616c616e636520717565727920666f7220746865207a60008201527f65726f2061646472657373000000000000000000000000000000000000000000602082015250565b7f4f776e61626c653a206e6577206f776e657220697320746865207a65726f206160008201527f6464726573730000000000000000000000000000000000000000000000000000602082015250565b7f4f776e61626c653a2063616c6c6572206973206e6f7420746865206f776e6572600082015250565b7f455243313135353a206163636f756e747320616e6420696473206c656e67746860008201527f206d69736d617463680000000000000000000000000000000000000000000000602082015250565b6139f281613633565b81146139fd57600080fd5b50565b613a0981613645565b8114613a1457600080fd5b50565b613a2081613657565b8114613a2b57600080fd5b50565b613a3781613663565b8114613a4257600080fd5b50565b613a4e816136af565b8114613a5957600080fd5b5056fea2646970667358221220297a8f11522dbb1aff1dba0acc562d88221c5d2d316fbadb1151ffcc7df9e21564736f6c63430008070033",
  "immutableReferences": {},
  "source": "// SPDX-License-Identifier: MIT\npragma solidity ^0.8.0;\n\nimport \"./creatortokenfees.sol\";\n\n/// @title Computes buy proceeds and total proceeds associated with a buy transaction\n/// @author Kamil Alizai Sadik\ncontract CreatorTokenComputation is CreatorTokenFees {\n\n\tconstructor(string memory uri) CreatorTokenFees(uri) { }\n\n\t/// @dev Calculates total transaction proceeds\n\t/// @param _tokenId ID of the token being transacted\n\t/// @param _amount Quantity of the token being transacted\n\t/// @return Total proceeds required in transaction\n\tfunction _totalProceeds(uint _tokenId, uint _amount) public view returns (uint256) {//, uint256, uint256) {//[3] memory) {\n\t\t// Compute proceedsRequired (ex-fees)\n\t\tuint proceedsRequired = _buyProceeds(_tokenId, _amount);\n\t\t// Compute feeRequired\n\t\tuint feeRequired = _feeProceeds(proceedsRequired);\n\t\t// Compute total proceeds required\n\t\tuint totalProceeds = proceedsRequired + feeRequired;\n\t\treturn totalProceeds;\n\t}\n\n\t/// @dev Calculates proceeds required for a given buy transaction (not including fees)\n\t/// @param _tokenId ID of the token being transacted\n\t/// @param _amount Quantity of the token being transacted\n\t/// @return Proceeds required in the transaction (before fees)\n\tfunction _buyProceeds(uint _tokenId, uint _amount) public view returns (uint256) {\n\t\t// Initialize proceeds required;\n\t\tuint proceedsRequired = 0;\n\t\t// Initialize pre-transaction supply\n\t\tuint startingSupply = creatorTokens[_tokenId].outstanding;\n\t\t// Compute post-transaction supply\n\t\tuint endSupply = startingSupply + _amount;\n\t\t// Compute buy proceeds\n\t\t// Check if endSupply <= maxSupply\n\t\tif (endSupply < creatorTokens[_tokenId].maxSupply) {\n\t\t\t// Scenario in which entire transaction takes place below maxSupply\n\t\t\t// Just call s(x)\n\t\t\t//proceedsRequired = _saleFunction(startingSupply, _amount, mNumerator, mDenominator, creatorTokens[_tokenId].maxSupply, profitMargin);\n\t\t\tproceedsRequired = _saleFunction(endSupply, _amount, mNumerator, mDenominator, creatorTokens[_tokenId].maxSupply, profitMargin);\n\t\t} else if (startingSupply < creatorTokens[_tokenId].maxSupply){\n\t\t\t// Scenario in which supply begins below maxSupply and ends above pre-transaction maxSupply\n\t\t\t// Use s(x) from startingSupply to maxSupply\n\t\t\tproceedsRequired = _saleFunction(creatorTokens[_tokenId].maxSupply, creatorTokens[_tokenId].maxSupply - startingSupply, mNumerator, mDenominator, creatorTokens[_tokenId].maxSupply, profitMargin);\n\t\t\t// Use b(x) from maxSupply to endSupply\n\t\t\tproceedsRequired += _buyFunction(creatorTokens[_tokenId].maxSupply, _amount - (creatorTokens[_tokenId].maxSupply - startingSupply), mNumerator, mDenominator);\n\t\t} else {\n\t\t\t// Scenario in which transaction begins at maxSupply\n\t\t\t// Just call b(x)\n\t\t\tproceedsRequired = _buyFunction(startingSupply, _amount, mNumerator, mDenominator);\n\t\t}\n\t\t// Return proceeds required\n\t\treturn proceedsRequired;\n\t}\n}",
  "sourcePath": "/Users/kamilalizaisadik/DeFi/Dynamic Automated Market Maker/CreatorTokenExchange/contracts/creatortokencomputation.sol",
  "compiler": {
    "name": "solc",
    "version": "0.8.7+commit.e28d00a7.Emscripten.clang"
  },
  "schemaVersion": "3.4.1",
  "updatedAt": "2021-08-12T01:06:54.433Z",
  "devdoc": {
    "author": "Kamil Alizai Sadik",
    "kind": "dev",
    "methods": {
      "_buyProceeds(uint256,uint256)": {
        "details": "Calculates proceeds required for a given buy transaction (not including fees)",
        "params": {
          "_amount": "Quantity of the token being transacted",
          "_tokenId": "ID of the token being transacted"
        },
        "returns": {
          "_0": "Proceeds required in the transaction (before fees)"
        }
      },
      "_feeProceeds(uint256)": {
        "details": "Calculates the fee associated with a buy transaction",
        "params": {
          "_proceedsRequired": "The proceeds required for the buy transaction (before addition of fees)"
        },
        "returns": {
          "_0": "Fee associated with transaction"
        }
      },
      "_saleFunction(uint256,uint256,uint256,uint256,uint256,uint256)": {
        "details": "Calculates area under sale price function",
        "params": {
          "_amount": "Amount of token being transacted",
          "_mDenominator": "Denominator of the slope of the buy price function",
          "_mNumerator": "Numerator of the slope of the buy price function",
          "_maxSupply": "Peak level of supply of the token to date",
          "_profitMargin": "percentage of total revenue generated routed to creator",
          "_startingSupply": "Supply of token in circulation before the transaction"
        },
        "returns": {
          "_0": "Area under sale price function denoting total proceeds received when selling _amount tokens (before fees)"
        }
      },
      "_totalProceeds(uint256,uint256)": {
        "details": "Calculates total transaction proceeds",
        "params": {
          "_amount": "Quantity of the token being transacted",
          "_tokenId": "ID of the token being transacted"
        },
        "returns": {
          "_0": "Total proceeds required in transaction"
        }
      },
      "balanceOf(address,uint256)": {
        "details": "See {IERC1155-balanceOf}. Requirements: - `account` cannot be the zero address."
      },
      "balanceOfBatch(address[],uint256[])": {
        "details": "See {IERC1155-balanceOfBatch}. Requirements: - `accounts` and `ids` must have the same length."
      },
      "changeAddress(uint256,address)": {
        "details": "Allows token creator to change their address",
        "params": {
          "_newCreatorAddress": "New creator address associated with the token",
          "_tokenId": "ID of the token in question"
        }
      },
      "changeDescription(uint256,string)": {
        "details": "Allows token creator to change the description of their token",
        "params": {
          "_newDescription": "New description associated with the token",
          "_tokenId": "ID of the token in question"
        }
      },
      "changeName(uint256,string)": {
        "details": "Allows token creator to change the name of their token",
        "params": {
          "_newName": "New name associated with the token",
          "_tokenId": "ID of the token in question"
        }
      },
      "changePlatformFee(uint256)": {
        "details": "Allows owner to change platformFee",
        "params": {
          "_newPlatformFee": "New platform fee"
        }
      },
      "changeProfitMargin(uint256)": {
        "details": "Allows owner to change profit_margin",
        "params": {
          "_newProfitMargin": "New profit margin"
        }
      },
      "changeSymbol(uint256,string)": {
        "details": "Allows token creator to change the symbol of their token",
        "params": {
          "_newSymbol": "New symbol associated with the token",
          "_tokenId": "ID of the token in question"
        }
      },
      "changeVerification(uint256,bool)": {
        "details": "Allows owner to verify (or undo verification) of a CreatorToken",
        "params": {
          "_tokenId": "ID of the token in question",
          "_verified": "Verification status of the token in question"
        }
      },
      "createCreatorToken(address,string,string,string)": {
        "details": "Creates a new creator token",
        "params": {
          "_creatorAddress": "Address of the creator of the token",
          "_description": "chosen by the creator of the tokens",
          "_name": "Name chosen by the creator of the token",
          "_symbol": "Ticker symbol chosen by the creator of the token"
        }
      },
      "getCreatorTokenCount()": {
        "details": "Returns the current length of the creatorTokens array",
        "returns": {
          "_0": "uint representing number of unique Creator Tokens"
        }
      },
      "isApprovedForAll(address,address)": {
        "details": "Denotes whether operator is approved to transfer account's tokens",
        "params": {
          "_account": "Wallet address holding tokens",
          "_operator": "Wallet address which is/isn't approved to transfer _account's tokens"
        },
        "returns": {
          "_0": "Boolean value indicating approval status"
        }
      },
      "owner()": {
        "details": "Returns the address of the current owner."
      },
      "payoutPlatformFees(address)": {
        "details": "Pays out platform fees owed to owner (might opt to call this daily)",
        "params": {
          "_owner": "Owner of the smart contract"
        }
      },
      "renounceOwnership()": {
        "details": "Leaves the contract without owner. It will not be possible to call `onlyOwner` functions anymore. Can only be called by the current owner. NOTE: Renouncing ownership will leave the contract without an owner, thereby removing any functionality that is only available to the owner."
      },
      "safeBatchTransferFrom(address,address,uint256[],uint256[],bytes)": {
        "details": "Transfers a batch of tokens",
        "params": {
          "_amounts": "Array of quantities of token to be transferred",
          "_data": "Data",
          "_from": "Address token is being transferred from",
          "_ids": "Array of IDs of tokens being transferred",
          "_to": "Address token is being transferred to"
        }
      },
      "safeTransferFrom(address,address,uint256,uint256,bytes)": {
        "details": "Transfers a token",
        "params": {
          "_amount": "Quantity of token to be transferred",
          "_data": "Data",
          "_from": "Address token is being transferred from",
          "_id": "ID of token being transferred",
          "_to": "Address token is being transferred to"
        }
      },
      "setApprovalForAll(address,bool)": {
        "details": "Gives operator permission to transfer caller's tokens",
        "params": {
          "_approved": "Boolean value indicating whether operator is approved",
          "_operator": "Wallet address being granted permission"
        }
      },
      "supportsInterface(bytes4)": {
        "details": "See {IERC165-supportsInterface}."
      },
      "transferOwnership(address)": {
        "details": "Transfers ownership of the contract to a new account (`newOwner`). Can only be called by the current owner."
      },
      "uri(uint256)": {
        "details": "See {IERC1155MetadataURI-uri}. This implementation returns the same URI for *all* token types. It relies on the token type ID substitution mechanism https://eips.ethereum.org/EIPS/eip-1155#metadata[defined in the EIP]. Clients calling this function must replace the `\\{id\\}` substring with the actual token type ID."
      },
      "withdraw(address)": {
        "details": "Ownable function allowing for withdrawal",
        "params": {
          "_owner": "Owner of the smart contract"
        }
      }
    },
    "title": "Computes buy proceeds and total proceeds associated with a buy transaction",
    "version": 1
  },
  "userdoc": {
    "kind": "user",
    "methods": {},
    "version": 1
  }
}