{
  "contractName": "CreatorTokenHelper",
  "abi": [
    {
      "anonymous": false,
      "inputs": [
        {
          "indexed": false,
          "internalType": "uint256",
          "name": "tokenId",
          "type": "uint256"
        },
        {
          "indexed": false,
          "internalType": "address payable",
          "name": "creatorAddress",
          "type": "address"
        },
        {
          "indexed": false,
          "internalType": "string",
          "name": "name",
          "type": "string"
        },
        {
          "indexed": false,
          "internalType": "string",
          "name": "symbol",
          "type": "string"
        },
        {
          "indexed": false,
          "internalType": "string",
          "name": "description",
          "type": "string"
        },
        {
          "indexed": false,
          "internalType": "bool",
          "name": "verified",
          "type": "bool"
        },
        {
          "indexed": false,
          "internalType": "uint256",
          "name": "outstanding",
          "type": "uint256"
        },
        {
          "indexed": false,
          "internalType": "uint256",
          "name": "maxSupply",
          "type": "uint256"
        }
      ],
      "name": "NewCreatorToken",
      "type": "event"
    },
    {
      "anonymous": false,
      "inputs": [
        {
          "indexed": true,
          "internalType": "address",
          "name": "previousOwner",
          "type": "address"
        },
        {
          "indexed": true,
          "internalType": "address",
          "name": "newOwner",
          "type": "address"
        }
      ],
      "name": "OwnershipTransferred",
      "type": "event"
    },
    {
      "inputs": [
        {
          "internalType": "address",
          "name": "",
          "type": "address"
        },
        {
          "internalType": "address",
          "name": "",
          "type": "address"
        }
      ],
      "name": "approvals",
      "outputs": [
        {
          "internalType": "bool",
          "name": "",
          "type": "bool"
        }
      ],
      "stateMutability": "view",
      "type": "function"
    },
    {
      "inputs": [
        {
          "internalType": "address payable",
          "name": "_creatorAddress",
          "type": "address"
        },
        {
          "internalType": "string",
          "name": "_name",
          "type": "string"
        },
        {
          "internalType": "string",
          "name": "_symbol",
          "type": "string"
        },
        {
          "internalType": "string",
          "name": "_description",
          "type": "string"
        }
      ],
      "name": "createCreatorToken",
      "outputs": [],
      "stateMutability": "nonpayable",
      "type": "function"
    },
    {
      "inputs": [
        {
          "internalType": "uint256",
          "name": "",
          "type": "uint256"
        }
      ],
      "name": "creatorTokens",
      "outputs": [
        {
          "internalType": "address payable",
          "name": "creatorAddress",
          "type": "address"
        },
        {
          "internalType": "string",
          "name": "name",
          "type": "string"
        },
        {
          "internalType": "string",
          "name": "symbol",
          "type": "string"
        },
        {
          "internalType": "string",
          "name": "description",
          "type": "string"
        },
        {
          "internalType": "bool",
          "name": "verified",
          "type": "bool"
        },
        {
          "internalType": "uint256",
          "name": "outstanding",
          "type": "uint256"
        },
        {
          "internalType": "uint256",
          "name": "maxSupply",
          "type": "uint256"
        }
      ],
      "stateMutability": "view",
      "type": "function"
    },
    {
      "inputs": [],
      "name": "getCreatorTokenCount",
      "outputs": [
        {
          "internalType": "uint256",
          "name": "",
          "type": "uint256"
        }
      ],
      "stateMutability": "view",
      "type": "function"
    },
    {
      "inputs": [],
      "name": "getCreatorTokens",
      "outputs": [
        {
          "components": [
            {
              "internalType": "address payable",
              "name": "creatorAddress",
              "type": "address"
            },
            {
              "internalType": "string",
              "name": "name",
              "type": "string"
            },
            {
              "internalType": "string",
              "name": "symbol",
              "type": "string"
            },
            {
              "internalType": "string",
              "name": "description",
              "type": "string"
            },
            {
              "internalType": "bool",
              "name": "verified",
              "type": "bool"
            },
            {
              "internalType": "uint256",
              "name": "outstanding",
              "type": "uint256"
            },
            {
              "internalType": "uint256",
              "name": "maxSupply",
              "type": "uint256"
            }
          ],
          "internalType": "struct CreatorTokenFactory.CreatorToken[]",
          "name": "",
          "type": "tuple[]"
        }
      ],
      "stateMutability": "view",
      "type": "function"
    },
    {
      "inputs": [
        {
          "internalType": "uint256",
          "name": "_id",
          "type": "uint256"
        }
      ],
      "name": "getToken",
      "outputs": [
        {
          "components": [
            {
              "internalType": "address payable",
              "name": "creatorAddress",
              "type": "address"
            },
            {
              "internalType": "string",
              "name": "name",
              "type": "string"
            },
            {
              "internalType": "string",
              "name": "symbol",
              "type": "string"
            },
            {
              "internalType": "string",
              "name": "description",
              "type": "string"
            },
            {
              "internalType": "bool",
              "name": "verified",
              "type": "bool"
            },
            {
              "internalType": "uint256",
              "name": "outstanding",
              "type": "uint256"
            },
            {
              "internalType": "uint256",
              "name": "maxSupply",
              "type": "uint256"
            }
          ],
          "internalType": "struct CreatorTokenFactory.CreatorToken",
          "name": "",
          "type": "tuple"
        }
      ],
      "stateMutability": "view",
      "type": "function"
    },
    {
      "inputs": [],
      "name": "numCreatorTokens",
      "outputs": [
        {
          "internalType": "uint256",
          "name": "",
          "type": "uint256"
        }
      ],
      "stateMutability": "view",
      "type": "function"
    },
    {
      "inputs": [],
      "name": "owner",
      "outputs": [
        {
          "internalType": "address",
          "name": "",
          "type": "address"
        }
      ],
      "stateMutability": "view",
      "type": "function"
    },
    {
      "inputs": [],
      "name": "platformFeesOwed",
      "outputs": [
        {
          "internalType": "uint256",
          "name": "",
          "type": "uint256"
        }
      ],
      "stateMutability": "view",
      "type": "function"
    },
    {
      "inputs": [],
      "name": "renounceOwnership",
      "outputs": [],
      "stateMutability": "nonpayable",
      "type": "function"
    },
    {
      "inputs": [
        {
          "internalType": "uint256",
          "name": "",
          "type": "uint256"
        },
        {
          "internalType": "address",
          "name": "",
          "type": "address"
        }
      ],
      "name": "tokenHoldership",
      "outputs": [
        {
          "internalType": "uint256",
          "name": "",
          "type": "uint256"
        }
      ],
      "stateMutability": "view",
      "type": "function"
    },
    {
      "inputs": [
        {
          "internalType": "uint256",
          "name": "",
          "type": "uint256"
        }
      ],
      "name": "tokenToCreator",
      "outputs": [
        {
          "internalType": "address",
          "name": "",
          "type": "address"
        }
      ],
      "stateMutability": "view",
      "type": "function"
    },
    {
      "inputs": [
        {
          "internalType": "uint256",
          "name": "",
          "type": "uint256"
        }
      ],
      "name": "tokenValueTransferred",
      "outputs": [
        {
          "internalType": "uint256",
          "name": "",
          "type": "uint256"
        }
      ],
      "stateMutability": "view",
      "type": "function"
    },
    {
      "inputs": [],
      "name": "totalPlatformFees",
      "outputs": [
        {
          "internalType": "uint256",
          "name": "",
          "type": "uint256"
        }
      ],
      "stateMutability": "view",
      "type": "function"
    },
    {
      "inputs": [
        {
          "internalType": "uint256",
          "name": "",
          "type": "uint256"
        }
      ],
      "name": "totalValueLocked",
      "outputs": [
        {
          "internalType": "uint256",
          "name": "",
          "type": "uint256"
        }
      ],
      "stateMutability": "view",
      "type": "function"
    },
    {
      "inputs": [
        {
          "internalType": "address",
          "name": "newOwner",
          "type": "address"
        }
      ],
      "name": "transferOwnership",
      "outputs": [],
      "stateMutability": "nonpayable",
      "type": "function"
    },
    {
      "inputs": [
        {
          "internalType": "address",
          "name": "",
          "type": "address"
        },
        {
          "internalType": "uint256",
          "name": "",
          "type": "uint256"
        }
      ],
      "name": "userToHoldings",
      "outputs": [
        {
          "internalType": "uint256",
          "name": "",
          "type": "uint256"
        }
      ],
      "stateMutability": "view",
      "type": "function"
    },
    {
      "inputs": [
        {
          "internalType": "address payable",
          "name": "_owner",
          "type": "address"
        }
      ],
      "name": "withdraw",
      "outputs": [],
      "stateMutability": "nonpayable",
      "type": "function"
    },
    {
      "inputs": [
        {
          "internalType": "address payable",
          "name": "_owner",
          "type": "address"
        }
      ],
      "name": "payoutPlatformFees",
      "outputs": [],
      "stateMutability": "nonpayable",
      "type": "function"
    },
    {
      "inputs": [
        {
          "internalType": "uint256",
          "name": "_newPlatformFee",
          "type": "uint256"
        }
      ],
      "name": "changePlatformFee",
      "outputs": [],
      "stateMutability": "nonpayable",
      "type": "function"
    },
    {
      "inputs": [
        {
          "internalType": "uint256",
          "name": "_newProfitMargin",
          "type": "uint256"
        }
      ],
      "name": "changeProfitMargin",
      "outputs": [],
      "stateMutability": "nonpayable",
      "type": "function"
    },
    {
      "inputs": [
        {
          "internalType": "uint256",
          "name": "_tokenId",
          "type": "uint256"
        },
        {
          "internalType": "bool",
          "name": "_verified",
          "type": "bool"
        }
      ],
      "name": "changeVerification",
      "outputs": [],
      "stateMutability": "nonpayable",
      "type": "function"
    },
    {
      "inputs": [
        {
          "internalType": "uint256",
          "name": "_tokenId",
          "type": "uint256"
        },
        {
          "internalType": "address payable",
          "name": "_newCreatorAddress",
          "type": "address"
        }
      ],
      "name": "changeAddress",
      "outputs": [],
      "stateMutability": "nonpayable",
      "type": "function"
    },
    {
      "inputs": [
        {
          "internalType": "uint256",
          "name": "_tokenId",
          "type": "uint256"
        },
        {
          "internalType": "string",
          "name": "_newName",
          "type": "string"
        }
      ],
      "name": "changeName",
      "outputs": [],
      "stateMutability": "nonpayable",
      "type": "function"
    },
    {
      "inputs": [
        {
          "internalType": "uint256",
          "name": "_tokenId",
          "type": "uint256"
        },
        {
          "internalType": "string",
          "name": "_newSymbol",
          "type": "string"
        }
      ],
      "name": "changeSymbol",
      "outputs": [],
      "stateMutability": "nonpayable",
      "type": "function"
    },
    {
      "inputs": [
        {
          "internalType": "uint256",
          "name": "_tokenId",
          "type": "uint256"
        },
        {
          "internalType": "string",
          "name": "_newDescription",
          "type": "string"
        }
      ],
      "name": "changeDescription",
      "outputs": [],
      "stateMutability": "nonpayable",
      "type": "function"
    }
  ],
  "bytecode": "0x60806040526001805560006002556000600355601460045565082f79cd900060055560b9600655600780549050600e5534801561003b57600080fd5b50600061004c6100ef60201b60201c565b9050806000806101000a81548173ffffffffffffffffffffffffffffffffffffffff021916908373ffffffffffffffffffffffffffffffffffffffff1602179055508073ffffffffffffffffffffffffffffffffffffffff16600073ffffffffffffffffffffffffffffffffffffffff167f8be0079c531659141344cd1fd0a4f28419497f9722a3daafe3b4186f6b6457e060405160405180910390a3506100f7565b600033905090565b6126f0806101066000396000f3fe608060405234801561001057600080fd5b506004361061018e5760003560e01c8063c1d33049116100de578063d7a5791a11610097578063e4b50cb811610071578063e4b50cb814610487578063eb841759146104b7578063f2fde38b146104d3578063f7374e2e146104ef5761018e565b8063d7a5791a1461041f578063d9bd3a401461043b578063de6a06ed1461046b5761018e565b8063c1d3304914610359578063c39cbef114610377578063c539c31714610393578063ce901d8a146103af578063d3631fa5146103e5578063d56b72c7146104035761018e565b8063715018a61161014b57806392724afa1161012557806392724afa146102ab578063a32ce11e146102db578063afb218321461030b578063bfb48c9c146103295761018e565b8063715018a6146102655780638d8168111461026f5780638da5cb5b1461028d5761018e565b806306e320f51461019357806317bcaa08146101af57806318892ae8146101df5780631d5ad18b1461020f5780632a2b237c1461022b57806351cff8d914610249575b600080fd5b6101ad60048036038101906101a89190611da1565b61050b565b005b6101c960048036038101906101c49190611cb4565b6105b2565b6040516101d6919061224c565b60405180910390f35b6101f960048036038101906101f49190611cb4565b6105ca565b604051610206919061210e565b60405180910390f35b61022960048036038101906102249190611d21565b6105fd565b005b6102336106d2565b604051610240919061224c565b60405180910390f35b610263600480360381019061025e9190611b4c565b6106df565b005b61026d6107a5565b005b6102776108df565b60405161028491906121ad565b60405180910390f35b610295610b79565b6040516102a2919061210e565b60405180910390f35b6102c560048036038101906102c09190611c74565b610ba2565b6040516102d2919061224c565b60405180910390f35b6102f560048036038101906102f09190611c34565b610bc7565b60405161030291906121cf565b60405180910390f35b610313610bf6565b604051610320919061224c565b60405180910390f35b610343600480360381019061033e9190611ce1565b610bfc565b604051610350919061224c565b60405180910390f35b610361610c21565b60405161036e919061224c565b60405180910390f35b610391600480360381019061038c9190611da1565b610c27565b005b6103ad60048036038101906103a89190611cb4565b610cce565b005b6103c960048036038101906103c49190611cb4565b610d54565b6040516103dc9796959493929190612129565b60405180910390f35b6103ed610f6b565b6040516103fa919061224c565b60405180910390f35b61041d60048036038101906104189190611b79565b610f71565b005b61043960048036038101906104349190611cb4565b61118d565b005b61045560048036038101906104509190611cb4565b611213565b604051610462919061224c565b60405180910390f35b61048560048036038101906104809190611da1565b61122b565b005b6104a1600480360381019061049c9190611cb4565b6112d2565b6040516104ae919061222a565b60405180910390f35b6104d160048036038101906104cc9190611b4c565b611549565b005b6104ed60048036038101906104e89190611b1f565b611619565b005b61050960048036038101906105049190611d61565b6117c2565b005b826008600082815260200190815260200160002060009054906101000a900473ffffffffffffffffffffffffffffffffffffffff1673ffffffffffffffffffffffffffffffffffffffff163373ffffffffffffffffffffffffffffffffffffffff161461057757600080fd5b82826007868154811061058d5761058c612559565b5b906000526020600020906007020160020191906105ab929190611887565b5050505050565b60096020528060005260406000206000915090505481565b60086020528060005260406000206000915054906101000a900473ffffffffffffffffffffffffffffffffffffffff1681565b816008600082815260200190815260200160002060009054906101000a900473ffffffffffffffffffffffffffffffffffffffff1673ffffffffffffffffffffffffffffffffffffffff163373ffffffffffffffffffffffffffffffffffffffff161461066957600080fd5b816007848154811061067e5761067d612559565b5b906000526020600020906007020160000160006101000a81548173ffffffffffffffffffffffffffffffffffffffff021916908373ffffffffffffffffffffffffffffffffffffffff160217905550505050565b6000600780549050905090565b6106e761187f565b73ffffffffffffffffffffffffffffffffffffffff16610705610b79565b73ffffffffffffffffffffffffffffffffffffffff161461075b576040517f08c379a00000000000000000000000000000000000000000000000000000000081526004016107529061220a565b60405180910390fd5b8073ffffffffffffffffffffffffffffffffffffffff166108fc479081150290604051600060405180830381858888f193505050501580156107a1573d6000803e3d6000fd5b5050565b6107ad61187f565b73ffffffffffffffffffffffffffffffffffffffff166107cb610b79565b73ffffffffffffffffffffffffffffffffffffffff1614610821576040517f08c379a00000000000000000000000000000000000000000000000000000000081526004016108189061220a565b60405180910390fd5b600073ffffffffffffffffffffffffffffffffffffffff1660008054906101000a900473ffffffffffffffffffffffffffffffffffffffff1673ffffffffffffffffffffffffffffffffffffffff167f8be0079c531659141344cd1fd0a4f28419497f9722a3daafe3b4186f6b6457e060405160405180910390a360008060006101000a81548173ffffffffffffffffffffffffffffffffffffffff021916908373ffffffffffffffffffffffffffffffffffffffff160217905550565b60606007805480602002602001604051908101604052809291908181526020016000905b82821015610b7057838290600052602060002090600702016040518060e00160405290816000820160009054906101000a900473ffffffffffffffffffffffffffffffffffffffff1673ffffffffffffffffffffffffffffffffffffffff1673ffffffffffffffffffffffffffffffffffffffff16815260200160018201805461098c90612498565b80601f01602080910402602001604051908101604052809291908181526020018280546109b890612498565b8015610a055780601f106109da57610100808354040283529160200191610a05565b820191906000526020600020905b8154815290600101906020018083116109e857829003601f168201915b50505050508152602001600282018054610a1e90612498565b80601f0160208091040260200160405190810160405280929190818152602001828054610a4a90612498565b8015610a975780601f10610a6c57610100808354040283529160200191610a97565b820191906000526020600020905b815481529060010190602001808311610a7a57829003601f168201915b50505050508152602001600382018054610ab090612498565b80601f0160208091040260200160405190810160405280929190818152602001828054610adc90612498565b8015610b295780601f10610afe57610100808354040283529160200191610b29565b820191906000526020600020905b815481529060010190602001808311610b0c57829003601f168201915b505050505081526020016004820160009054906101000a900460ff161515151581526020016005820154815260200160068201548152505081526020019060010190610903565b50505050905090565b60008060009054906101000a900473ffffffffffffffffffffffffffffffffffffffff16905090565b600b602052816000526040600020602052806000526040600020600091509150505481565b600c6020528160005260406000206020528060005260406000206000915091509054906101000a900460ff1681565b600e5481565b600a602052816000526040600020602052806000526040600020600091509150505481565b60035481565b826008600082815260200190815260200160002060009054906101000a900473ffffffffffffffffffffffffffffffffffffffff1673ffffffffffffffffffffffffffffffffffffffff163373ffffffffffffffffffffffffffffffffffffffff1614610c9357600080fd5b828260078681548110610ca957610ca8612559565b5b90600052602060002090600702016001019190610cc7929190611887565b5050505050565b610cd661187f565b73ffffffffffffffffffffffffffffffffffffffff16610cf4610b79565b73ffffffffffffffffffffffffffffffffffffffff1614610d4a576040517f08c379a0000000000000000000000000000000000000000000000000000000008152600401610d419061220a565b60405180910390fd5b8060048190555050565b60078181548110610d6457600080fd5b90600052602060002090600702016000915090508060000160009054906101000a900473ffffffffffffffffffffffffffffffffffffffff1690806001018054610dad90612498565b80601f0160208091040260200160405190810160405280929190818152602001828054610dd990612498565b8015610e265780601f10610dfb57610100808354040283529160200191610e26565b820191906000526020600020905b815481529060010190602001808311610e0957829003601f168201915b505050505090806002018054610e3b90612498565b80601f0160208091040260200160405190810160405280929190818152602001828054610e6790612498565b8015610eb45780601f10610e8957610100808354040283529160200191610eb4565b820191906000526020600020905b815481529060010190602001808311610e9757829003601f168201915b505050505090806003018054610ec990612498565b80601f0160208091040260200160405190810160405280929190818152602001828054610ef590612498565b8015610f425780601f10610f1757610100808354040283529160200191610f42565b820191906000526020600020905b815481529060010190602001808311610f2557829003601f168201915b5050505050908060040160009054906101000a900460ff16908060050154908060060154905087565b60025481565b60076040518060e001604052808673ffffffffffffffffffffffffffffffffffffffff168152602001858152602001848152602001838152602001600015158152602001600081526020016000815250908060018154018082558091505060019003906000526020600020906007020160009091909190915060008201518160000160006101000a81548173ffffffffffffffffffffffffffffffffffffffff021916908373ffffffffffffffffffffffffffffffffffffffff160217905550602082015181600101908051906020019061104d92919061190d565b50604082015181600201908051906020019061106a92919061190d565b50606082015181600301908051906020019061108792919061190d565b5060808201518160040160006101000a81548160ff02191690831515021790555060a0820151816005015560c082015181600601555050600060016007805490506110d291906123b6565b9050846008600083815260200190815260200160002060006101000a81548173ffffffffffffffffffffffffffffffffffffffff021916908373ffffffffffffffffffffffffffffffffffffffff160217905550600060096000838152602001908152602001600020819055507f3ef624c0f3fb7ad40b94c02078ea3e3a797dbfc21e921ee4bd2b8ad0ca6aa1138186868686600080600060405161117e989796959493929190612267565b60405180910390a15050505050565b61119561187f565b73ffffffffffffffffffffffffffffffffffffffff166111b3610b79565b73ffffffffffffffffffffffffffffffffffffffff1614611209576040517f08c379a00000000000000000000000000000000000000000000000000000000081526004016112009061220a565b60405180910390fd5b8060018190555050565b600d6020528060005260406000206000915090505481565b826008600082815260200190815260200160002060009054906101000a900473ffffffffffffffffffffffffffffffffffffffff1673ffffffffffffffffffffffffffffffffffffffff163373ffffffffffffffffffffffffffffffffffffffff161461129757600080fd5b8282600786815481106112ad576112ac612559565b5b906000526020600020906007020160030191906112cb929190611887565b5050505050565b6112da611993565b600782815481106112ee576112ed612559565b5b90600052602060002090600702016040518060e00160405290816000820160009054906101000a900473ffffffffffffffffffffffffffffffffffffffff1673ffffffffffffffffffffffffffffffffffffffff1673ffffffffffffffffffffffffffffffffffffffff16815260200160018201805461136d90612498565b80601f016020809104026020016040519081016040528092919081815260200182805461139990612498565b80156113e65780601f106113bb576101008083540402835291602001916113e6565b820191906000526020600020905b8154815290600101906020018083116113c957829003601f168201915b505050505081526020016002820180546113ff90612498565b80601f016020809104026020016040519081016040528092919081815260200182805461142b90612498565b80156114785780601f1061144d57610100808354040283529160200191611478565b820191906000526020600020905b81548152906001019060200180831161145b57829003601f168201915b5050505050815260200160038201805461149190612498565b80601f01602080910402602001604051908101604052809291908181526020018280546114bd90612498565b801561150a5780601f106114df5761010080835404028352916020019161150a565b820191906000526020600020905b8154815290600101906020018083116114ed57829003601f168201915b505050505081526020016004820160009054906101000a900460ff16151515158152602001600582015481526020016006820154815250509050919050565b61155161187f565b73ffffffffffffffffffffffffffffffffffffffff1661156f610b79565b73ffffffffffffffffffffffffffffffffffffffff16146115c5576040517f08c379a00000000000000000000000000000000000000000000000000000000081526004016115bc9061220a565b60405180910390fd5b8073ffffffffffffffffffffffffffffffffffffffff166108fc6003549081150290604051600060405180830381858888f1935050505015801561160d573d6000803e3d6000fd5b50600060038190555050565b61162161187f565b73ffffffffffffffffffffffffffffffffffffffff1661163f610b79565b73ffffffffffffffffffffffffffffffffffffffff1614611695576040517f08c379a000000000000000000000000000000000000000000000000000000000815260040161168c9061220a565b60405180910390fd5b600073ffffffffffffffffffffffffffffffffffffffff168173ffffffffffffffffffffffffffffffffffffffff161415611705576040517f08c379a00000000000000000000000000000000000000000000000000000000081526004016116fc906121ea565b60405180910390fd5b8073ffffffffffffffffffffffffffffffffffffffff1660008054906101000a900473ffffffffffffffffffffffffffffffffffffffff1673ffffffffffffffffffffffffffffffffffffffff167f8be0079c531659141344cd1fd0a4f28419497f9722a3daafe3b4186f6b6457e060405160405180910390a3806000806101000a81548173ffffffffffffffffffffffffffffffffffffffff021916908373ffffffffffffffffffffffffffffffffffffffff16021790555050565b6117ca61187f565b73ffffffffffffffffffffffffffffffffffffffff166117e8610b79565b73ffffffffffffffffffffffffffffffffffffffff161461183e576040517f08c379a00000000000000000000000000000000000000000000000000000000081526004016118359061220a565b60405180910390fd5b806007838154811061185357611852612559565b5b906000526020600020906007020160040160006101000a81548160ff0219169083151502179055505050565b600033905090565b82805461189390612498565b90600052602060002090601f0160209004810192826118b557600085556118fc565b82601f106118ce57803560ff19168380011785556118fc565b828001600101855582156118fc579182015b828111156118fb5782358255916020019190600101906118e0565b5b50905061190991906119e8565b5090565b82805461191990612498565b90600052602060002090601f01602090048101928261193b5760008555611982565b82601f1061195457805160ff1916838001178555611982565b82800160010185558215611982579182015b82811115611981578251825591602001919060010190611966565b5b50905061198f91906119e8565b5090565b6040518060e00160405280600073ffffffffffffffffffffffffffffffffffffffff16815260200160608152602001606081526020016060815260200160001515815260200160008152602001600081525090565b5b80821115611a015760008160009055506001016119e9565b5090565b6000611a18611a138461231f565b6122fa565b905082815260208101848484011115611a3457611a336125c6565b5b611a3f848285612456565b509392505050565b600081359050611a568161265e565b92915050565b600081359050611a6b81612675565b92915050565b600081359050611a808161268c565b92915050565b60008083601f840112611a9c57611a9b6125bc565b5b8235905067ffffffffffffffff811115611ab957611ab86125b7565b5b602083019150836001820283011115611ad557611ad46125c1565b5b9250929050565b600082601f830112611af157611af06125bc565b5b8135611b01848260208601611a05565b91505092915050565b600081359050611b19816126a3565b92915050565b600060208284031215611b3557611b346125d0565b5b6000611b4384828501611a47565b91505092915050565b600060208284031215611b6257611b616125d0565b5b6000611b7084828501611a5c565b91505092915050565b60008060008060808587031215611b9357611b926125d0565b5b6000611ba187828801611a5c565b945050602085013567ffffffffffffffff811115611bc257611bc16125cb565b5b611bce87828801611adc565b935050604085013567ffffffffffffffff811115611bef57611bee6125cb565b5b611bfb87828801611adc565b925050606085013567ffffffffffffffff811115611c1c57611c1b6125cb565b5b611c2887828801611adc565b91505092959194509250565b60008060408385031215611c4b57611c4a6125d0565b5b6000611c5985828601611a47565b9250506020611c6a85828601611a47565b9150509250929050565b60008060408385031215611c8b57611c8a6125d0565b5b6000611c9985828601611a47565b9250506020611caa85828601611b0a565b9150509250929050565b600060208284031215611cca57611cc96125d0565b5b6000611cd884828501611b0a565b91505092915050565b60008060408385031215611cf857611cf76125d0565b5b6000611d0685828601611b0a565b9250506020611d1785828601611a47565b9150509250929050565b60008060408385031215611d3857611d376125d0565b5b6000611d4685828601611b0a565b9250506020611d5785828601611a5c565b9150509250929050565b60008060408385031215611d7857611d776125d0565b5b6000611d8685828601611b0a565b9250506020611d9785828601611a71565b9150509250929050565b600080600060408486031215611dba57611db96125d0565b5b6000611dc886828701611b0a565b935050602084013567ffffffffffffffff811115611de957611de86125cb565b5b611df586828701611a86565b92509250509250925092565b6000611e0d8383611f9c565b905092915050565b611e1e816123fc565b82525050565b611e2d816123fc565b82525050565b611e3c816123ea565b82525050565b6000611e4d82612360565b611e578185612383565b935083602082028501611e6985612350565b8060005b85811015611ea55784840389528151611e868582611e01565b9450611e9183612376565b925060208a01995050600181019050611e6d565b50829750879550505050505092915050565b611ec08161240e565b82525050565b611ecf8161240e565b82525050565b611ede81612444565b82525050565b6000611eef8261236b565b611ef98185612394565b9350611f09818560208601612465565b611f12816125d5565b840191505092915050565b6000611f288261236b565b611f3281856123a5565b9350611f42818560208601612465565b611f4b816125d5565b840191505092915050565b6000611f636026836123a5565b9150611f6e826125e6565b604082019050919050565b6000611f866020836123a5565b9150611f9182612635565b602082019050919050565b600060e083016000830151611fb46000860182611e15565b5060208301518482036020860152611fcc8282611ee4565b91505060408301518482036040860152611fe68282611ee4565b915050606083015184820360608601526120008282611ee4565b91505060808301516120156080860182611eb7565b5060a083015161202860a08601826120f0565b5060c083015161203b60c08601826120f0565b508091505092915050565b600060e08301600083015161205e6000860182611e15565b50602083015184820360208601526120768282611ee4565b915050604083015184820360408601526120908282611ee4565b915050606083015184820360608601526120aa8282611ee4565b91505060808301516120bf6080860182611eb7565b5060a08301516120d260a08601826120f0565b5060c08301516120e560c08601826120f0565b508091505092915050565b6120f98161243a565b82525050565b6121088161243a565b82525050565b60006020820190506121236000830184611e33565b92915050565b600060e08201905061213e600083018a611e24565b81810360208301526121508189611f1d565b905081810360408301526121648188611f1d565b905081810360608301526121788187611f1d565b90506121876080830186611ec6565b61219460a08301856120ff565b6121a160c08301846120ff565b98975050505050505050565b600060208201905081810360008301526121c78184611e42565b905092915050565b60006020820190506121e46000830184611ec6565b92915050565b6000602082019050818103600083015261220381611f56565b9050919050565b6000602082019050818103600083015261222381611f79565b9050919050565b600060208201905081810360008301526122448184612046565b905092915050565b600060208201905061226160008301846120ff565b92915050565b60006101008201905061227d600083018b6120ff565b61228a602083018a611e24565b818103604083015261229c8189611f1d565b905081810360608301526122b08188611f1d565b905081810360808301526122c48187611f1d565b90506122d360a0830186611ec6565b6122e060c0830185611ed5565b6122ed60e0830184611ed5565b9998505050505050505050565b6000612304612315565b905061231082826124ca565b919050565b6000604051905090565b600067ffffffffffffffff82111561233a57612339612588565b5b612343826125d5565b9050602081019050919050565b6000819050602082019050919050565b600081519050919050565b600081519050919050565b6000602082019050919050565b600082825260208201905092915050565b600082825260208201905092915050565b600082825260208201905092915050565b60006123c18261243a565b91506123cc8361243a565b9250828210156123df576123de6124fb565b5b828203905092915050565b60006123f58261241a565b9050919050565b60006124078261241a565b9050919050565b60008115159050919050565b600073ffffffffffffffffffffffffffffffffffffffff82169050919050565b6000819050919050565b600061244f8261243a565b9050919050565b82818337600083830152505050565b60005b83811015612483578082015181840152602081019050612468565b83811115612492576000848401525b50505050565b600060028204905060018216806124b057607f821691505b602082108114156124c4576124c361252a565b5b50919050565b6124d3826125d5565b810181811067ffffffffffffffff821117156124f2576124f1612588565b5b80604052505050565b7f4e487b7100000000000000000000000000000000000000000000000000000000600052601160045260246000fd5b7f4e487b7100000000000000000000000000000000000000000000000000000000600052602260045260246000fd5b7f4e487b7100000000000000000000000000000000000000000000000000000000600052603260045260246000fd5b7f4e487b7100000000000000000000000000000000000000000000000000000000600052604160045260246000fd5b600080fd5b600080fd5b600080fd5b600080fd5b600080fd5b600080fd5b6000601f19601f8301169050919050565b7f4f776e61626c653a206e6577206f776e657220697320746865207a65726f206160008201527f6464726573730000000000000000000000000000000000000000000000000000602082015250565b7f4f776e61626c653a2063616c6c6572206973206e6f7420746865206f776e6572600082015250565b612667816123ea565b811461267257600080fd5b50565b61267e816123fc565b811461268957600080fd5b50565b6126958161240e565b81146126a057600080fd5b50565b6126ac8161243a565b81146126b757600080fd5b5056fea264697066735822122084323bb2eaf258586aeccae770f1f19bbf3f5b220b6debd278535d9e830dad3264736f6c63430008060033",
  "immutableReferences": {},
  "source": "// SPDX-License-Identifier: MIT\npragma solidity ^0.8.0;\n\nimport \"./creatortokenfactory.sol\";\n\n/// @title A contract with helper functions enabling Owner- and creator-specific functions\n/// @author Kamil Alizai Sadik\ncontract CreatorTokenHelper is CreatorTokenFactory {\n\n\t/// @dev Modifier checking whether user is creator of the token\n\t/// @param _tokenId ID of the token in question\n\tmodifier onlyCreatorOf(uint _tokenId) {\n\t\trequire(msg.sender == tokenToCreator[_tokenId]);\n\t\t_;\n\t}\n\n\t/// @dev Ownable function allowing for withdrawal\n\t/// @param _owner Owner of the smart contract\n\tfunction withdraw(address payable _owner) external onlyOwner {\n\t\t_owner.transfer(address(this).balance);\n\t}\n\n\t/// @dev Pays out platform fees owed to owner (might opt to call this daily)\n\t/// @param _owner Owner of the smart contract\n\tfunction payoutPlatformFees(address payable _owner) external onlyOwner {\n\t\t_owner.transfer(platformFeesOwed);\n\t\t// Reset platformFeesOwed to zero after payout\n\t\tplatformFeesOwed = 0;\n\t}\n\n\t/// @dev Allows owner to change platformFee\n\t/// @param _newPlatformFee New platform fee\n\tfunction changePlatformFee(uint _newPlatformFee) external onlyOwner {\n\t\tplatformFee = _newPlatformFee;\n\t}\n\n\t/// @dev Allows owner to change profit_margin\n\t/// @param _newProfitMargin New profit margin\n\tfunction changeProfitMargin(uint _newProfitMargin) external onlyOwner {\n\t\tprofitMargin = _newProfitMargin;\n\t}\n\n\t/// @dev Allows owner to verify (or undo verification) of a CreatorToken\n\t/// @param _tokenId ID of the token in question\n\t/// @param _verified Verification status of the token in question\n\tfunction changeVerification(uint _tokenId, bool _verified) external onlyOwner {\n\t\tcreatorTokens[_tokenId].verified = _verified;\n\t}\n\n\t/// @dev Allows token creator to change their address\n\t/// @param _tokenId ID of the token in question\n\t/// @param _newCreatorAddress New creator address associated with the token\n\tfunction changeAddress(uint _tokenId, address payable _newCreatorAddress) external onlyCreatorOf(_tokenId) {\n\t\tcreatorTokens[_tokenId].creatorAddress = _newCreatorAddress;\n\t}\n\n\t/// @dev Allows token creator to change the name of their token\n\t/// @param _tokenId ID of the token in question\n\t/// @param _newName New name associated with the token\n\tfunction changeName(uint _tokenId, string calldata _newName) external onlyCreatorOf(_tokenId) {\n\t\tcreatorTokens[_tokenId].name = _newName;\n\t}\n\n\t/// @dev Allows token creator to change the symbol of their token\n\t/// @param _tokenId ID of the token in question\n\t/// @param _newSymbol New symbol associated with the token\n\tfunction changeSymbol(uint _tokenId, string calldata _newSymbol) external onlyCreatorOf(_tokenId) {\n\t\tcreatorTokens[_tokenId].symbol = _newSymbol;\n\t}\n\n\t/// @dev Allows token creator to change the description of their token\n\t/// @param _tokenId ID of the token in question\n\t/// @param _newDescription New description associated with the token\n\tfunction changeDescription(uint _tokenId, string calldata _newDescription) external onlyCreatorOf(_tokenId) {\n\t\tcreatorTokens[_tokenId].description = _newDescription;\n\t}\n}",
  "sourcePath": "/Users/kamilalizaisadik/DeFi/Dynamic Automated Market Maker/CreatorTokenExchange/contracts/creatortokenhelper.sol",
  "compiler": {
    "name": "solc",
    "version": "0.8.6+commit.11564f7e.Emscripten.clang"
  },
  "schemaVersion": "3.4.1",
  "updatedAt": "2021-07-31T15:41:24.823Z",
  "devdoc": {
    "author": "Kamil Alizai Sadik",
    "kind": "dev",
    "methods": {
      "changeAddress(uint256,address)": {
        "details": "Allows token creator to change their address",
        "params": {
          "_newCreatorAddress": "New creator address associated with the token",
          "_tokenId": "ID of the token in question"
        }
      },
      "changeDescription(uint256,string)": {
        "details": "Allows token creator to change the description of their token",
        "params": {
          "_newDescription": "New description associated with the token",
          "_tokenId": "ID of the token in question"
        }
      },
      "changeName(uint256,string)": {
        "details": "Allows token creator to change the name of their token",
        "params": {
          "_newName": "New name associated with the token",
          "_tokenId": "ID of the token in question"
        }
      },
      "changePlatformFee(uint256)": {
        "details": "Allows owner to change platformFee",
        "params": {
          "_newPlatformFee": "New platform fee"
        }
      },
      "changeProfitMargin(uint256)": {
        "details": "Allows owner to change profit_margin",
        "params": {
          "_newProfitMargin": "New profit margin"
        }
      },
      "changeSymbol(uint256,string)": {
        "details": "Allows token creator to change the symbol of their token",
        "params": {
          "_newSymbol": "New symbol associated with the token",
          "_tokenId": "ID of the token in question"
        }
      },
      "changeVerification(uint256,bool)": {
        "details": "Allows owner to verify (or undo verification) of a CreatorToken",
        "params": {
          "_tokenId": "ID of the token in question",
          "_verified": "Verification status of the token in question"
        }
      },
      "createCreatorToken(address,string,string,string)": {
        "details": "Creates a new creator token",
        "params": {
          "_creatorAddress": "Address of the creator of the token",
          "_description": "chosen by the creator of the tokens",
          "_name": "Name chosen by the creator of the token",
          "_symbol": "Ticker symbol chosen by the creator of the token"
        }
      },
      "getCreatorTokenCount()": {
        "details": "Returns the current length of the creatorTokens array",
        "returns": {
          "_0": "uint representing number of unique Creator Tokens"
        }
      },
      "getCreatorTokens()": {
        "details": "Returns entire array of tokens",
        "returns": {
          "_0": "CreatorToken[]"
        }
      },
      "getToken(uint256)": {
        "details": "Returns token with a particular id",
        "params": {
          "_id": "Id of desired token"
        },
        "returns": {
          "_0": "CreatorToken"
        }
      },
      "owner()": {
        "details": "Returns the address of the current owner."
      },
      "payoutPlatformFees(address)": {
        "details": "Pays out platform fees owed to owner (might opt to call this daily)",
        "params": {
          "_owner": "Owner of the smart contract"
        }
      },
      "renounceOwnership()": {
        "details": "Leaves the contract without owner. It will not be possible to call `onlyOwner` functions anymore. Can only be called by the current owner. NOTE: Renouncing ownership will leave the contract without an owner, thereby removing any functionality that is only available to the owner."
      },
      "transferOwnership(address)": {
        "details": "Transfers ownership of the contract to a new account (`newOwner`). Can only be called by the current owner."
      },
      "withdraw(address)": {
        "details": "Ownable function allowing for withdrawal",
        "params": {
          "_owner": "Owner of the smart contract"
        }
      }
    },
    "title": "A contract with helper functions enabling Owner- and creator-specific functions",
    "version": 1
  },
  "userdoc": {
    "kind": "user",
    "methods": {},
    "version": 1
  }
}