{
  "contractName": "CreatorTokenExchange",
  "abi": [
    {
      "inputs": [
        {
          "internalType": "string",
          "name": "uri",
          "type": "string"
        }
      ],
      "stateMutability": "nonpayable",
      "type": "constructor"
    },
    {
      "anonymous": false,
      "inputs": [
        {
          "indexed": true,
          "internalType": "address",
          "name": "account",
          "type": "address"
        },
        {
          "indexed": true,
          "internalType": "address",
          "name": "operator",
          "type": "address"
        },
        {
          "indexed": false,
          "internalType": "bool",
          "name": "approved",
          "type": "bool"
        }
      ],
      "name": "ApprovalForAll",
      "type": "event"
    },
    {
      "anonymous": false,
      "inputs": [
        {
          "indexed": false,
          "internalType": "uint256",
          "name": "tokenId",
          "type": "uint256"
        },
        {
          "indexed": false,
          "internalType": "address payable",
          "name": "creatorAddress",
          "type": "address"
        },
        {
          "indexed": false,
          "internalType": "string",
          "name": "name",
          "type": "string"
        },
        {
          "indexed": false,
          "internalType": "string",
          "name": "symbol",
          "type": "string"
        },
        {
          "indexed": false,
          "internalType": "string",
          "name": "description",
          "type": "string"
        },
        {
          "indexed": false,
          "internalType": "bool",
          "name": "verified",
          "type": "bool"
        },
        {
          "indexed": false,
          "internalType": "uint256",
          "name": "outstanding",
          "type": "uint256"
        },
        {
          "indexed": false,
          "internalType": "uint256",
          "name": "maxSupply",
          "type": "uint256"
        }
      ],
      "name": "NewCreatorToken",
      "type": "event"
    },
    {
      "anonymous": false,
      "inputs": [
        {
          "indexed": true,
          "internalType": "address",
          "name": "account",
          "type": "address"
        },
        {
          "indexed": false,
          "internalType": "uint256",
          "name": "amount",
          "type": "uint256"
        },
        {
          "indexed": false,
          "internalType": "string",
          "name": "transactionType",
          "type": "string"
        },
        {
          "indexed": false,
          "internalType": "uint256",
          "name": "tokenId",
          "type": "uint256"
        },
        {
          "indexed": false,
          "internalType": "string",
          "name": "name",
          "type": "string"
        },
        {
          "indexed": false,
          "internalType": "string",
          "name": "symbol",
          "type": "string"
        }
      ],
      "name": "NewTransaction",
      "type": "event"
    },
    {
      "anonymous": false,
      "inputs": [
        {
          "indexed": true,
          "internalType": "address",
          "name": "previousOwner",
          "type": "address"
        },
        {
          "indexed": true,
          "internalType": "address",
          "name": "newOwner",
          "type": "address"
        }
      ],
      "name": "OwnershipTransferred",
      "type": "event"
    },
    {
      "anonymous": false,
      "inputs": [
        {
          "indexed": true,
          "internalType": "address",
          "name": "operator",
          "type": "address"
        },
        {
          "indexed": true,
          "internalType": "address",
          "name": "from",
          "type": "address"
        },
        {
          "indexed": true,
          "internalType": "address",
          "name": "to",
          "type": "address"
        },
        {
          "indexed": false,
          "internalType": "uint256[]",
          "name": "ids",
          "type": "uint256[]"
        },
        {
          "indexed": false,
          "internalType": "uint256[]",
          "name": "values",
          "type": "uint256[]"
        }
      ],
      "name": "TransferBatch",
      "type": "event"
    },
    {
      "anonymous": false,
      "inputs": [
        {
          "indexed": true,
          "internalType": "address",
          "name": "operator",
          "type": "address"
        },
        {
          "indexed": true,
          "internalType": "address",
          "name": "from",
          "type": "address"
        },
        {
          "indexed": true,
          "internalType": "address",
          "name": "to",
          "type": "address"
        },
        {
          "indexed": false,
          "internalType": "uint256",
          "name": "id",
          "type": "uint256"
        },
        {
          "indexed": false,
          "internalType": "uint256",
          "name": "value",
          "type": "uint256"
        }
      ],
      "name": "TransferSingle",
      "type": "event"
    },
    {
      "anonymous": false,
      "inputs": [
        {
          "indexed": false,
          "internalType": "string",
          "name": "value",
          "type": "string"
        },
        {
          "indexed": true,
          "internalType": "uint256",
          "name": "id",
          "type": "uint256"
        }
      ],
      "name": "URI",
      "type": "event"
    },
    {
      "inputs": [
        {
          "internalType": "uint256",
          "name": "_tokenId",
          "type": "uint256"
        },
        {
          "internalType": "uint256",
          "name": "_amount",
          "type": "uint256"
        }
      ],
      "name": "_buyProceeds",
      "outputs": [
        {
          "internalType": "uint256",
          "name": "",
          "type": "uint256"
        }
      ],
      "stateMutability": "view",
      "type": "function",
      "constant": true
    },
    {
      "inputs": [
        {
          "internalType": "uint256",
          "name": "_proceedsRequired",
          "type": "uint256"
        }
      ],
      "name": "_feeProceeds",
      "outputs": [
        {
          "internalType": "uint256",
          "name": "",
          "type": "uint256"
        }
      ],
      "stateMutability": "view",
      "type": "function",
      "constant": true
    },
    {
      "inputs": [
        {
          "internalType": "uint256",
          "name": "_startingSupply",
          "type": "uint256"
        },
        {
          "internalType": "uint256",
          "name": "_amount",
          "type": "uint256"
        },
        {
          "internalType": "uint256",
          "name": "_mNumerator",
          "type": "uint256"
        },
        {
          "internalType": "uint256",
          "name": "_mDenominator",
          "type": "uint256"
        },
        {
          "internalType": "uint256",
          "name": "_maxSupply",
          "type": "uint256"
        },
        {
          "internalType": "uint256",
          "name": "_profitMargin",
          "type": "uint256"
        }
      ],
      "name": "_saleFunction",
      "outputs": [
        {
          "internalType": "uint256",
          "name": "",
          "type": "uint256"
        }
      ],
      "stateMutability": "pure",
      "type": "function",
      "constant": true
    },
    {
      "inputs": [
        {
          "internalType": "uint256",
          "name": "_tokenId",
          "type": "uint256"
        },
        {
          "internalType": "uint256",
          "name": "_amount",
          "type": "uint256"
        }
      ],
      "name": "_totalProceeds",
      "outputs": [
        {
          "internalType": "uint256",
          "name": "",
          "type": "uint256"
        }
      ],
      "stateMutability": "view",
      "type": "function",
      "constant": true
    },
    {
      "inputs": [
        {
          "internalType": "address",
          "name": "",
          "type": "address"
        },
        {
          "internalType": "address",
          "name": "",
          "type": "address"
        }
      ],
      "name": "approvals",
      "outputs": [
        {
          "internalType": "bool",
          "name": "",
          "type": "bool"
        }
      ],
      "stateMutability": "view",
      "type": "function",
      "constant": true
    },
    {
      "inputs": [
        {
          "internalType": "address",
          "name": "account",
          "type": "address"
        },
        {
          "internalType": "uint256",
          "name": "id",
          "type": "uint256"
        }
      ],
      "name": "balanceOf",
      "outputs": [
        {
          "internalType": "uint256",
          "name": "",
          "type": "uint256"
        }
      ],
      "stateMutability": "view",
      "type": "function",
      "constant": true
    },
    {
      "inputs": [
        {
          "internalType": "address[]",
          "name": "accounts",
          "type": "address[]"
        },
        {
          "internalType": "uint256[]",
          "name": "ids",
          "type": "uint256[]"
        }
      ],
      "name": "balanceOfBatch",
      "outputs": [
        {
          "internalType": "uint256[]",
          "name": "",
          "type": "uint256[]"
        }
      ],
      "stateMutability": "view",
      "type": "function",
      "constant": true
    },
    {
      "inputs": [
        {
          "internalType": "uint256",
          "name": "_tokenId",
          "type": "uint256"
        },
        {
          "internalType": "address payable",
          "name": "_newCreatorAddress",
          "type": "address"
        }
      ],
      "name": "changeAddress",
      "outputs": [],
      "stateMutability": "nonpayable",
      "type": "function"
    },
    {
      "inputs": [
        {
          "internalType": "uint256",
          "name": "_tokenId",
          "type": "uint256"
        },
        {
          "internalType": "string",
          "name": "_newDescription",
          "type": "string"
        }
      ],
      "name": "changeDescription",
      "outputs": [],
      "stateMutability": "nonpayable",
      "type": "function"
    },
    {
      "inputs": [
        {
          "internalType": "uint256",
          "name": "_tokenId",
          "type": "uint256"
        },
        {
          "internalType": "string",
          "name": "_newName",
          "type": "string"
        }
      ],
      "name": "changeName",
      "outputs": [],
      "stateMutability": "nonpayable",
      "type": "function"
    },
    {
      "inputs": [
        {
          "internalType": "uint256",
          "name": "_newPlatformFee",
          "type": "uint256"
        }
      ],
      "name": "changePlatformFee",
      "outputs": [],
      "stateMutability": "nonpayable",
      "type": "function"
    },
    {
      "inputs": [
        {
          "internalType": "uint256",
          "name": "_newProfitMargin",
          "type": "uint256"
        }
      ],
      "name": "changeProfitMargin",
      "outputs": [],
      "stateMutability": "nonpayable",
      "type": "function"
    },
    {
      "inputs": [
        {
          "internalType": "uint256",
          "name": "_tokenId",
          "type": "uint256"
        },
        {
          "internalType": "string",
          "name": "_newSymbol",
          "type": "string"
        }
      ],
      "name": "changeSymbol",
      "outputs": [],
      "stateMutability": "nonpayable",
      "type": "function"
    },
    {
      "inputs": [
        {
          "internalType": "uint256",
          "name": "_tokenId",
          "type": "uint256"
        },
        {
          "internalType": "bool",
          "name": "_verified",
          "type": "bool"
        }
      ],
      "name": "changeVerification",
      "outputs": [],
      "stateMutability": "nonpayable",
      "type": "function"
    },
    {
      "inputs": [
        {
          "internalType": "address payable",
          "name": "_creatorAddress",
          "type": "address"
        },
        {
          "internalType": "string",
          "name": "_name",
          "type": "string"
        },
        {
          "internalType": "string",
          "name": "_symbol",
          "type": "string"
        },
        {
          "internalType": "string",
          "name": "_description",
          "type": "string"
        }
      ],
      "name": "createCreatorToken",
      "outputs": [],
      "stateMutability": "nonpayable",
      "type": "function"
    },
    {
      "inputs": [
        {
          "internalType": "uint256",
          "name": "",
          "type": "uint256"
        }
      ],
      "name": "creatorTokens",
      "outputs": [
        {
          "internalType": "address payable",
          "name": "creatorAddress",
          "type": "address"
        },
        {
          "internalType": "string",
          "name": "name",
          "type": "string"
        },
        {
          "internalType": "string",
          "name": "symbol",
          "type": "string"
        },
        {
          "internalType": "string",
          "name": "description",
          "type": "string"
        },
        {
          "internalType": "bool",
          "name": "verified",
          "type": "bool"
        },
        {
          "internalType": "uint256",
          "name": "outstanding",
          "type": "uint256"
        },
        {
          "internalType": "uint256",
          "name": "maxSupply",
          "type": "uint256"
        },
        {
          "internalType": "uint256",
          "name": "tokenId",
          "type": "uint256"
        }
      ],
      "stateMutability": "view",
      "type": "function",
      "constant": true
    },
    {
      "inputs": [],
      "name": "getCreatorTokenCount",
      "outputs": [
        {
          "internalType": "uint256",
          "name": "",
          "type": "uint256"
        }
      ],
      "stateMutability": "view",
      "type": "function",
      "constant": true
    },
    {
      "inputs": [
        {
          "internalType": "address",
          "name": "_account",
          "type": "address"
        },
        {
          "internalType": "address",
          "name": "_operator",
          "type": "address"
        }
      ],
      "name": "isApprovedForAll",
      "outputs": [
        {
          "internalType": "bool",
          "name": "",
          "type": "bool"
        }
      ],
      "stateMutability": "view",
      "type": "function",
      "constant": true
    },
    {
      "inputs": [],
      "name": "numCreatorTokens",
      "outputs": [
        {
          "internalType": "uint256",
          "name": "",
          "type": "uint256"
        }
      ],
      "stateMutability": "view",
      "type": "function",
      "constant": true
    },
    {
      "inputs": [],
      "name": "owner",
      "outputs": [
        {
          "internalType": "address",
          "name": "",
          "type": "address"
        }
      ],
      "stateMutability": "view",
      "type": "function",
      "constant": true
    },
    {
      "inputs": [
        {
          "internalType": "address payable",
          "name": "_owner",
          "type": "address"
        }
      ],
      "name": "payoutPlatformFees",
      "outputs": [],
      "stateMutability": "nonpayable",
      "type": "function"
    },
    {
      "inputs": [],
      "name": "platformFeesOwed",
      "outputs": [
        {
          "internalType": "uint256",
          "name": "",
          "type": "uint256"
        }
      ],
      "stateMutability": "view",
      "type": "function",
      "constant": true
    },
    {
      "inputs": [],
      "name": "renounceOwnership",
      "outputs": [],
      "stateMutability": "nonpayable",
      "type": "function"
    },
    {
      "inputs": [
        {
          "internalType": "address",
          "name": "_from",
          "type": "address"
        },
        {
          "internalType": "address",
          "name": "_to",
          "type": "address"
        },
        {
          "internalType": "uint256[]",
          "name": "_ids",
          "type": "uint256[]"
        },
        {
          "internalType": "uint256[]",
          "name": "_amounts",
          "type": "uint256[]"
        },
        {
          "internalType": "bytes",
          "name": "_data",
          "type": "bytes"
        }
      ],
      "name": "safeBatchTransferFrom",
      "outputs": [],
      "stateMutability": "nonpayable",
      "type": "function"
    },
    {
      "inputs": [
        {
          "internalType": "address",
          "name": "_from",
          "type": "address"
        },
        {
          "internalType": "address",
          "name": "_to",
          "type": "address"
        },
        {
          "internalType": "uint256",
          "name": "_id",
          "type": "uint256"
        },
        {
          "internalType": "uint256",
          "name": "_amount",
          "type": "uint256"
        },
        {
          "internalType": "bytes",
          "name": "_data",
          "type": "bytes"
        }
      ],
      "name": "safeTransferFrom",
      "outputs": [],
      "stateMutability": "nonpayable",
      "type": "function"
    },
    {
      "inputs": [
        {
          "internalType": "address",
          "name": "_operator",
          "type": "address"
        },
        {
          "internalType": "bool",
          "name": "_approved",
          "type": "bool"
        }
      ],
      "name": "setApprovalForAll",
      "outputs": [],
      "stateMutability": "nonpayable",
      "type": "function"
    },
    {
      "inputs": [
        {
          "internalType": "bytes4",
          "name": "interfaceId",
          "type": "bytes4"
        }
      ],
      "name": "supportsInterface",
      "outputs": [
        {
          "internalType": "bool",
          "name": "",
          "type": "bool"
        }
      ],
      "stateMutability": "view",
      "type": "function",
      "constant": true
    },
    {
      "inputs": [
        {
          "internalType": "uint256",
          "name": "",
          "type": "uint256"
        },
        {
          "internalType": "address",
          "name": "",
          "type": "address"
        }
      ],
      "name": "tokenHoldership",
      "outputs": [
        {
          "internalType": "uint256",
          "name": "",
          "type": "uint256"
        }
      ],
      "stateMutability": "view",
      "type": "function",
      "constant": true
    },
    {
      "inputs": [
        {
          "internalType": "uint256",
          "name": "",
          "type": "uint256"
        }
      ],
      "name": "tokenToCreator",
      "outputs": [
        {
          "internalType": "address",
          "name": "",
          "type": "address"
        }
      ],
      "stateMutability": "view",
      "type": "function",
      "constant": true
    },
    {
      "inputs": [
        {
          "internalType": "uint256",
          "name": "",
          "type": "uint256"
        }
      ],
      "name": "tokenValueTransferred",
      "outputs": [
        {
          "internalType": "uint256",
          "name": "",
          "type": "uint256"
        }
      ],
      "stateMutability": "view",
      "type": "function",
      "constant": true
    },
    {
      "inputs": [],
      "name": "totalPlatformFees",
      "outputs": [
        {
          "internalType": "uint256",
          "name": "",
          "type": "uint256"
        }
      ],
      "stateMutability": "view",
      "type": "function",
      "constant": true
    },
    {
      "inputs": [
        {
          "internalType": "uint256",
          "name": "",
          "type": "uint256"
        }
      ],
      "name": "totalValueLocked",
      "outputs": [
        {
          "internalType": "uint256",
          "name": "",
          "type": "uint256"
        }
      ],
      "stateMutability": "view",
      "type": "function",
      "constant": true
    },
    {
      "inputs": [
        {
          "internalType": "address",
          "name": "newOwner",
          "type": "address"
        }
      ],
      "name": "transferOwnership",
      "outputs": [],
      "stateMutability": "nonpayable",
      "type": "function"
    },
    {
      "inputs": [
        {
          "internalType": "uint256",
          "name": "",
          "type": "uint256"
        }
      ],
      "name": "uri",
      "outputs": [
        {
          "internalType": "string",
          "name": "",
          "type": "string"
        }
      ],
      "stateMutability": "view",
      "type": "function",
      "constant": true
    },
    {
      "inputs": [
        {
          "internalType": "address",
          "name": "",
          "type": "address"
        },
        {
          "internalType": "uint256",
          "name": "",
          "type": "uint256"
        }
      ],
      "name": "userToHoldings",
      "outputs": [
        {
          "internalType": "uint256",
          "name": "",
          "type": "uint256"
        }
      ],
      "stateMutability": "view",
      "type": "function",
      "constant": true
    },
    {
      "inputs": [
        {
          "internalType": "address payable",
          "name": "_owner",
          "type": "address"
        }
      ],
      "name": "withdraw",
      "outputs": [],
      "stateMutability": "nonpayable",
      "type": "function"
    },
    {
      "inputs": [
        {
          "internalType": "uint256",
          "name": "_tokenId",
          "type": "uint256"
        },
        {
          "internalType": "uint256",
          "name": "_amount",
          "type": "uint256"
        }
      ],
      "name": "buyCreatorToken",
      "outputs": [],
      "stateMutability": "payable",
      "type": "function",
      "payable": true
    },
    {
      "inputs": [
        {
          "internalType": "uint256",
          "name": "_tokenId",
          "type": "uint256"
        },
        {
          "internalType": "uint256",
          "name": "_amount",
          "type": "uint256"
        },
        {
          "internalType": "address payable",
          "name": "_seller",
          "type": "address"
        }
      ],
      "name": "sellCreatorToken",
      "outputs": [],
      "stateMutability": "payable",
      "type": "function",
      "payable": true
    }
  ],
  "bytecode": "0x608060405260018055600060025560006003556000600455601460055565082f79cd900060065560b96007553480156200003857600080fd5b5060405162004ab238038062004ab283398181016040528101906200005e919062000282565b80808080806000620000756200013060201b60201c565b9050806000806101000a81548173ffffffffffffffffffffffffffffffffffffffff021916908373ffffffffffffffffffffffffffffffffffffffff1602179055508073ffffffffffffffffffffffffffffffffffffffff16600073ffffffffffffffffffffffffffffffffffffffff167f8be0079c531659141344cd1fd0a4f28419497f9722a3daafe3b4186f6b6457e060405160405180910390a35062000124816200013860201b60201c565b50505050505062000457565b600033905090565b80601190805190602001906200015092919062000154565b5050565b828054620001629062000368565b90600052602060002090601f016020900481019282620001865760008555620001d2565b82601f10620001a157805160ff1916838001178555620001d2565b82800160010185558215620001d2579182015b82811115620001d1578251825591602001919060010190620001b4565b5b509050620001e19190620001e5565b5090565b5b8082111562000200576000816000905550600101620001e6565b5090565b60006200021b6200021584620002fc565b620002d3565b9050828152602081018484840111156200023a576200023962000437565b5b6200024784828562000332565b509392505050565b600082601f83011262000267576200026662000432565b5b81516200027984826020860162000204565b91505092915050565b6000602082840312156200029b576200029a62000441565b5b600082015167ffffffffffffffff811115620002bc57620002bb6200043c565b5b620002ca848285016200024f565b91505092915050565b6000620002df620002f2565b9050620002ed82826200039e565b919050565b6000604051905090565b600067ffffffffffffffff8211156200031a576200031962000403565b5b620003258262000446565b9050602081019050919050565b60005b838110156200035257808201518184015260208101905062000335565b8381111562000362576000848401525b50505050565b600060028204905060018216806200038157607f821691505b60208210811415620003985762000397620003d4565b5b50919050565b620003a98262000446565b810181811067ffffffffffffffff82111715620003cb57620003ca62000403565b5b80604052505050565b7f4e487b7100000000000000000000000000000000000000000000000000000000600052602260045260246000fd5b7f4e487b7100000000000000000000000000000000000000000000000000000000600052604160045260246000fd5b600080fd5b600080fd5b600080fd5b600080fd5b6000601f19601f8301169050919050565b61464b80620004676000396000f3fe6080604052600436106102245760003560e01c8063afb2183211610123578063d7a5791a116100ab578063eb8417591161006f578063eb841759146108a4578063f242432a146108cd578063f2fde38b146108f6578063f7374e2e1461091f578063fffae9411461094857610224565b8063d7a5791a1461079b578063d9bd3a40146107c4578063de6a06ed14610801578063df3c00b11461082a578063e985e9c51461086757610224565b8063c39cbef1116100f2578063c39cbef1146106b1578063c539c317146106da578063ce901d8a14610703578063d3631fa514610747578063d56b72c71461077257610224565b8063afb21832146105e1578063ba111a051461060c578063bfb48c9c14610649578063c1d330491461068657610224565b80632eb2c2d6116101b1578063715018a611610175578063715018a6146104fc5780638da5cb5b1461051357806392724afa1461053e578063a22cb4651461057b578063a32ce11e146105a457610224565b80632eb2c2d6146103f357806335a8ae211461041c5780634e1273f4146104595780634fe477d81461049657806351cff8d9146104d357610224565b806317bcaa08116101f857806317bcaa081461030957806318892ae8146103465780631d5ad18b146103835780632a2b237c146103ac5780632dcfdaf7146103d757610224565b8062fdd58e1461022957806301ffc9a71461026657806306e320f5146102a35780630e89341c146102cc575b600080fd5b34801561023557600080fd5b50610250600480360381019061024b9190613628565b610964565b60405161025d9190613d99565b60405180910390f35b34801561027257600080fd5b5061028d600480360381019061028891906136e0565b610a2e565b60405161029a9190613cdc565b60405180910390f35b3480156102af57600080fd5b506102ca60048036038101906102c591906137fa565b610b10565b005b3480156102d857600080fd5b506102f360048036038101906102ee919061370d565b610bb7565b6040516103009190613cf7565b60405180910390f35b34801561031557600080fd5b50610330600480360381019061032b919061370d565b610c4b565b60405161033d9190613d99565b60405180910390f35b34801561035257600080fd5b5061036d6004803603810190610368919061370d565b610c63565b60405161037a9190613bd5565b60405180910390f35b34801561038f57600080fd5b506103aa60048036038101906103a5919061377a565b610c96565b005b3480156103b857600080fd5b506103c1610d6b565b6040516103ce9190613d99565b60405180910390f35b6103f160048036038101906103ec919061389a565b610d78565b005b3480156103ff57600080fd5b5061041a60048036038101906104159190613482565b610f66565b005b34801561042857600080fd5b50610443600480360381019061043e919061385a565b6110d2565b6040516104509190613d99565b60405180910390f35b34801561046557600080fd5b50610480600480360381019061047b9190613668565b61110a565b60405161048d9190613c83565b60405180910390f35b3480156104a257600080fd5b506104bd60048036038101906104b8919061385a565b611223565b6040516104ca9190613d99565b60405180910390f35b3480156104df57600080fd5b506104fa60048036038101906104f5919061335a565b611430565b005b34801561050857600080fd5b506105116114f6565b005b34801561051f57600080fd5b50610528611630565b6040516105359190613bd5565b60405180910390f35b34801561054a57600080fd5b5061056560048036038101906105609190613628565b611659565b6040516105729190613d99565b60405180910390f35b34801561058757600080fd5b506105a2600480360381019061059d91906135e8565b61167e565b005b3480156105b057600080fd5b506105cb60048036038101906105c69190613442565b61177b565b6040516105d89190613cdc565b60405180910390f35b3480156105ed57600080fd5b506105f66117aa565b6040516106039190613d99565b60405180910390f35b34801561061857600080fd5b50610633600480360381019061062e919061370d565b6117b0565b6040516106409190613d99565b60405180910390f35b34801561065557600080fd5b50610670600480360381019061066b919061373a565b6117d3565b60405161067d9190613d99565b60405180910390f35b34801561069257600080fd5b5061069b6117f8565b6040516106a89190613d99565b60405180910390f35b3480156106bd57600080fd5b506106d860048036038101906106d391906137fa565b6117fe565b005b3480156106e657600080fd5b5061070160048036038101906106fc919061370d565b6118a5565b005b34801561070f57600080fd5b5061072a6004803603810190610725919061370d565b61192b565b60405161073e989796959493929190613bf0565b60405180910390f35b34801561075357600080fd5b5061075c611b48565b6040516107699190613d99565b60405180910390f35b34801561077e57600080fd5b5061079960048036038101906107949190613387565b611b4e565b005b3480156107a757600080fd5b506107c260048036038101906107bd919061370d565b611d6f565b005b3480156107d057600080fd5b506107eb60048036038101906107e6919061370d565b611df5565b6040516107f89190613d99565b60405180910390f35b34801561080d57600080fd5b50610828600480360381019061082391906137fa565b611e0d565b005b34801561083657600080fd5b50610851600480360381019061084c91906138ed565b611eb4565b60405161085e9190613d99565b60405180910390f35b34801561087357600080fd5b5061088e60048036038101906108899190613442565b611f2d565b60405161089b9190613cdc565b60405180910390f35b3480156108b057600080fd5b506108cb60048036038101906108c6919061335a565b611fc1565b005b3480156108d957600080fd5b506108f460048036038101906108ef9190613551565b612091565b005b34801561090257600080fd5b5061091d6004803603810190610918919061332d565b612175565b005b34801561092b57600080fd5b50610946600480360381019061094191906137ba565b61231e565b005b610962600480360381019061095d919061385a565b6123db565b005b60008073ffffffffffffffffffffffffffffffffffffffff168373ffffffffffffffffffffffffffffffffffffffff1614156109d5576040517f08c379a00000000000000000000000000000000000000000000000000000000081526004016109cc90613d19565b60405180910390fd5b600f600083815260200190815260200160002060008473ffffffffffffffffffffffffffffffffffffffff1673ffffffffffffffffffffffffffffffffffffffff16815260200190815260200160002054905092915050565b60007fd9b67a26000000000000000000000000000000000000000000000000000000007bffffffffffffffffffffffffffffffffffffffffffffffffffffffff1916827bffffffffffffffffffffffffffffffffffffffffffffffffffffffff19161480610af957507f0e89341c000000000000000000000000000000000000000000000000000000007bffffffffffffffffffffffffffffffffffffffffffffffffffffffff1916827bffffffffffffffffffffffffffffffffffffffffffffffffffffffff1916145b80610b095750610b08826125ec565b5b9050919050565b826009600082815260200190815260200160002060009054906101000a900473ffffffffffffffffffffffffffffffffffffffff1673ffffffffffffffffffffffffffffffffffffffff163373ffffffffffffffffffffffffffffffffffffffff1614610b7c57600080fd5b828260088681548110610b9257610b916143ad565b5b90600052602060002090600802016002019190610bb0929190612f29565b5050505050565b606060118054610bc690614274565b80601f0160208091040260200160405190810160405280929190818152602001828054610bf290614274565b8015610c3f5780601f10610c1457610100808354040283529160200191610c3f565b820191906000526020600020905b815481529060010190602001808311610c2257829003601f168201915b50505050509050919050565b600a6020528060005260406000206000915090505481565b60096020528060005260406000206000915054906101000a900473ffffffffffffffffffffffffffffffffffffffff1681565b816009600082815260200190815260200160002060009054906101000a900473ffffffffffffffffffffffffffffffffffffffff1673ffffffffffffffffffffffffffffffffffffffff163373ffffffffffffffffffffffffffffffffffffffff1614610d0257600080fd5b8160088481548110610d1757610d166143ad565b5b906000526020600020906008020160000160006101000a81548173ffffffffffffffffffffffffffffffffffffffff021916908373ffffffffffffffffffffffffffffffffffffffff160217905550505050565b6000600880549050905090565b3373ffffffffffffffffffffffffffffffffffffffff168173ffffffffffffffffffffffffffffffffffffffff1614610db057600080fd5b6000610e1060088581548110610dc957610dc86143ad565b5b9060005260206000209060080201600501548460065460075460088981548110610df657610df56143ad565b5b906000526020600020906008020160060154600554611eb4565b905080600e60008681526020019081526020016000206000828254610e359190614166565b925050819055506000606460015483610e4e919061410c565b610e5891906140db565b90508082610e669190614166565b9150610e73838686612656565b8273ffffffffffffffffffffffffffffffffffffffff166108fc839081150290604051600060405180830381858888f19350505050158015610eb9573d6000803e3d6000fd5b50610ec381612759565b3373ffffffffffffffffffffffffffffffffffffffff167f1ebb537d8231cf8a6b1b0d1684d85dfd83872c030ffc75f500f0729eaf674d82858760088981548110610f1157610f106143ad565b5b906000526020600020906008020160010160088a81548110610f3657610f356143ad565b5b9060005260206000209060080201600201604051610f579493929190613ead565b60405180910390a25050505050565b60005b835181101561104c578573ffffffffffffffffffffffffffffffffffffffff163373ffffffffffffffffffffffffffffffffffffffff161480610fb25750610fb18686611f2d565b5b610fbb57600080fd5b610ffa86858381518110610fd257610fd16143ad565b5b6020026020010151858481518110610fed57610fec6143ad565b5b602002602001015161278e565b61103985858381518110611011576110106143ad565b5b602002602001015185848151811061102c5761102b6143ad565b5b6020026020010151612861565b8080611044906142d7565b915050610f69565b508373ffffffffffffffffffffffffffffffffffffffff168573ffffffffffffffffffffffffffffffffffffffff163373ffffffffffffffffffffffffffffffffffffffff167f4a39dc06d4c0dbc64b70af90fd698a233a518aa5d07e595d983b8c0526c8f7fb86866040516110c3929190613ca5565b60405180910390a45050505050565b6000806110df8484611223565b905060006110ec826117b0565b9050600081836110fc9190614085565b905080935050505092915050565b60608151835114611150576040517f08c379a000000000000000000000000000000000000000000000000000000000815260040161114790613d79565b60405180910390fd5b6000835167ffffffffffffffff81111561116d5761116c6143dc565b5b60405190808252806020026020018201604052801561119b5781602001602082028036833780820191505090505b50905060005b8451811015611218576111e88582815181106111c0576111bf6143ad565b5b60200260200101518583815181106111db576111da6143ad565b5b6020026020010151610964565b8282815181106111fb576111fa6143ad565b5b60200260200101818152505080611211906142d7565b90506111a1565b508091505092915050565b600080600090506000600885815481106112405761123f6143ad565b5b9060005260206000209060080201600501549050600084826112629190614085565b905060088681548110611278576112776143ad565b5b9060005260206000209060080201600601548110156112d1576112ca818660065460075460088b815481106112b0576112af6143ad565b5b906000526020600020906008020160060154600554611eb4565b9250611424565b600886815481106112e5576112e46143ad565b5b9060005260206000209060080201600601548210156114105761138c60088781548110611315576113146143ad565b5b906000526020600020906008020160060154836008898154811061133c5761133b6143ad565b5b9060005260206000209060080201600601546113589190614166565b60065460075460088b81548110611372576113716143ad565b5b906000526020600020906008020160060154600554611eb4565b92506113fe600887815481106113a5576113a46143ad565b5b90600052602060002090600802016006015483600889815481106113cc576113cb6143ad565b5b9060005260206000209060080201600601546113e89190614166565b876113f39190614166565b600654600754612934565b836114099190614085565b9250611423565b6114208286600654600754612934565b92505b5b82935050505092915050565b6114386129c2565b73ffffffffffffffffffffffffffffffffffffffff16611456611630565b73ffffffffffffffffffffffffffffffffffffffff16146114ac576040517f08c379a00000000000000000000000000000000000000000000000000000000081526004016114a390613d59565b60405180910390fd5b8073ffffffffffffffffffffffffffffffffffffffff166108fc479081150290604051600060405180830381858888f193505050501580156114f2573d6000803e3d6000fd5b5050565b6114fe6129c2565b73ffffffffffffffffffffffffffffffffffffffff1661151c611630565b73ffffffffffffffffffffffffffffffffffffffff1614611572576040517f08c379a000000000000000000000000000000000000000000000000000000000815260040161156990613d59565b60405180910390fd5b600073ffffffffffffffffffffffffffffffffffffffff1660008054906101000a900473ffffffffffffffffffffffffffffffffffffffff1673ffffffffffffffffffffffffffffffffffffffff167f8be0079c531659141344cd1fd0a4f28419497f9722a3daafe3b4186f6b6457e060405160405180910390a360008060006101000a81548173ffffffffffffffffffffffffffffffffffffffff021916908373ffffffffffffffffffffffffffffffffffffffff160217905550565b60008060009054906101000a900473ffffffffffffffffffffffffffffffffffffffff16905090565b600c602052816000526040600020602052806000526040600020600091509150505481565b80600d60003373ffffffffffffffffffffffffffffffffffffffff1673ffffffffffffffffffffffffffffffffffffffff16815260200190815260200160002060008473ffffffffffffffffffffffffffffffffffffffff1673ffffffffffffffffffffffffffffffffffffffff16815260200190815260200160002060006101000a81548160ff0219169083151502179055508173ffffffffffffffffffffffffffffffffffffffff163373ffffffffffffffffffffffffffffffffffffffff167f17307eab39ab6107e8899845ad3d59bd9653f200f220920489ca2b5937696c318360405161176f9190613cdc565b60405180910390a35050565b600d6020528160005260406000206020528060005260406000206000915091509054906101000a900460ff1681565b60045481565b60006064600154836117c2919061410c565b6117cc91906140db565b9050919050565b600b602052816000526040600020602052806000526040600020600091509150505481565b60035481565b826009600082815260200190815260200160002060009054906101000a900473ffffffffffffffffffffffffffffffffffffffff1673ffffffffffffffffffffffffffffffffffffffff163373ffffffffffffffffffffffffffffffffffffffff161461186a57600080fd5b8282600886815481106118805761187f6143ad565b5b9060005260206000209060080201600101919061189e929190612f29565b5050505050565b6118ad6129c2565b73ffffffffffffffffffffffffffffffffffffffff166118cb611630565b73ffffffffffffffffffffffffffffffffffffffff1614611921576040517f08c379a000000000000000000000000000000000000000000000000000000000815260040161191890613d59565b60405180910390fd5b8060058190555050565b6008818154811061193b57600080fd5b90600052602060002090600802016000915090508060000160009054906101000a900473ffffffffffffffffffffffffffffffffffffffff169080600101805461198490614274565b80601f01602080910402602001604051908101604052809291908181526020018280546119b090614274565b80156119fd5780601f106119d2576101008083540402835291602001916119fd565b820191906000526020600020905b8154815290600101906020018083116119e057829003601f168201915b505050505090806002018054611a1290614274565b80601f0160208091040260200160405190810160405280929190818152602001828054611a3e90614274565b8015611a8b5780601f10611a6057610100808354040283529160200191611a8b565b820191906000526020600020905b815481529060010190602001808311611a6e57829003601f168201915b505050505090806003018054611aa090614274565b80601f0160208091040260200160405190810160405280929190818152602001828054611acc90614274565b8015611b195780601f10611aee57610100808354040283529160200191611b19565b820191906000526020600020905b815481529060010190602001808311611afc57829003601f168201915b5050505050908060040160009054906101000a900460ff16908060050154908060060154908060070154905088565b60025481565b6000600880549050905060086040518061010001604052808773ffffffffffffffffffffffffffffffffffffffff168152602001868152602001858152602001848152602001600015158152602001600081526020016000815260200183815250908060018154018082558091505060019003906000526020600020906008020160009091909190915060008201518160000160006101000a81548173ffffffffffffffffffffffffffffffffffffffff021916908373ffffffffffffffffffffffffffffffffffffffff1602179055506020820151816001019080519060200190611c3b929190612faf565b506040820151816002019080519060200190611c58929190612faf565b506060820151816003019080519060200190611c75929190612faf565b5060808201518160040160006101000a81548160ff02191690831515021790555060a0820151816005015560c0820151816006015560e082015181600701555050846009600083815260200190815260200160002060006101000a81548173ffffffffffffffffffffffffffffffffffffffff021916908373ffffffffffffffffffffffffffffffffffffffff1602179055506000600a6000838152602001908152602001600020819055507f3ef624c0f3fb7ad40b94c02078ea3e3a797dbfc21e921ee4bd2b8ad0ca6aa11381868686866000806000604051611d60989796959493929190613db4565b60405180910390a15050505050565b611d776129c2565b73ffffffffffffffffffffffffffffffffffffffff16611d95611630565b73ffffffffffffffffffffffffffffffffffffffff1614611deb576040517f08c379a0000000000000000000000000000000000000000000000000000000008152600401611de290613d59565b60405180910390fd5b8060018190555050565b600e6020528060005260406000206000915090505481565b826009600082815260200190815260200160002060009054906101000a900473ffffffffffffffffffffffffffffffffffffffff1673ffffffffffffffffffffffffffffffffffffffff163373ffffffffffffffffffffffffffffffffffffffff1614611e7957600080fd5b828260088681548110611e8f57611e8e6143ad565b5b90600052602060002090600802016003019190611ead929190612f29565b5050505050565b600080600080611ec88a8a8a8a8a8a6129ca565b9250925092506000838b1015611eeb57611ee484848d85612a45565b9050611f1c565b83821015611f0957611f0284848d858d8d8d612ae8565b9050611f1b565b611f1884848d858d8d8d612c0a565b90505b5b809450505050509695505050505050565b6000600d60008473ffffffffffffffffffffffffffffffffffffffff1673ffffffffffffffffffffffffffffffffffffffff16815260200190815260200160002060008373ffffffffffffffffffffffffffffffffffffffff1673ffffffffffffffffffffffffffffffffffffffff16815260200190815260200160002060009054906101000a900460ff16905092915050565b611fc96129c2565b73ffffffffffffffffffffffffffffffffffffffff16611fe7611630565b73ffffffffffffffffffffffffffffffffffffffff161461203d576040517f08c379a000000000000000000000000000000000000000000000000000000000815260040161203490613d59565b60405180910390fd5b8073ffffffffffffffffffffffffffffffffffffffff166108fc6003549081150290604051600060405180830381858888f19350505050158015612085573d6000803e3d6000fd5b50600060038190555050565b8473ffffffffffffffffffffffffffffffffffffffff163373ffffffffffffffffffffffffffffffffffffffff1614806120d157506120d08585611f2d565b5b6120da57600080fd5b6120e585848461278e565b6120f0848484612861565b8373ffffffffffffffffffffffffffffffffffffffff168573ffffffffffffffffffffffffffffffffffffffff163373ffffffffffffffffffffffffffffffffffffffff167fc3d58168c5ae7397731d063d5bbf3d657854427343f4c083240f7aacaa2d0f628686604051612166929190613f13565b60405180910390a45050505050565b61217d6129c2565b73ffffffffffffffffffffffffffffffffffffffff1661219b611630565b73ffffffffffffffffffffffffffffffffffffffff16146121f1576040517f08c379a00000000000000000000000000000000000000000000000000000000081526004016121e890613d59565b60405180910390fd5b600073ffffffffffffffffffffffffffffffffffffffff168173ffffffffffffffffffffffffffffffffffffffff161415612261576040517f08c379a000000000000000000000000000000000000000000000000000000000815260040161225890613d39565b60405180910390fd5b8073ffffffffffffffffffffffffffffffffffffffff1660008054906101000a900473ffffffffffffffffffffffffffffffffffffffff1673ffffffffffffffffffffffffffffffffffffffff167f8be0079c531659141344cd1fd0a4f28419497f9722a3daafe3b4186f6b6457e060405160405180910390a3806000806101000a81548173ffffffffffffffffffffffffffffffffffffffff021916908373ffffffffffffffffffffffffffffffffffffffff16021790555050565b6123266129c2565b73ffffffffffffffffffffffffffffffffffffffff16612344611630565b73ffffffffffffffffffffffffffffffffffffffff161461239a576040517f08c379a000000000000000000000000000000000000000000000000000000000815260040161239190613d59565b60405180910390fd5b80600883815481106123af576123ae6143ad565b5b906000526020600020906008020160040160006101000a81548160ff0219169083151502179055505050565b60006123e783836110d2565b90508034146123f557600080fd5b60006124018484611223565b905080600e600086815260200190815260200160002060008282546124269190614085565b9250508190555061243e612439826117b0565b612759565b61245933858560405180602001604052806000815250612d08565b3373ffffffffffffffffffffffffffffffffffffffff167f1ebb537d8231cf8a6b1b0d1684d85dfd83872c030ffc75f500f0729eaf674d828486600888815481106124a7576124a66143ad565b5b9060005260206000209060080201600101600889815481106124cc576124cb6143ad565b5b90600052602060002090600802016002016040516124ed9493929190613e47565b60405180910390a260088481548110612509576125086143ad565b5b9060005260206000209060080201600601546008858154811061252f5761252e6143ad565b5b90600052602060002090600802016005015411156125e6576008848154811061255b5761255a6143ad565b5b90600052602060002090600802016005015460088581548110612581576125806143ad565b5b9060005260206000209060080201600601819055506125e584600886815481106125ae576125ad6143ad565b5b906000526020600020906008020160000160009054906101000a900473ffffffffffffffffffffffffffffffffffffffff16612dd4565b5b50505050565b60007f01ffc9a7000000000000000000000000000000000000000000000000000000007bffffffffffffffffffffffffffffffffffffffffffffffffffffffff1916827bffffffffffffffffffffffffffffffffffffffffffffffffffffffff1916149050919050565b8273ffffffffffffffffffffffffffffffffffffffff163373ffffffffffffffffffffffffffffffffffffffff161461268e57600080fd5b61269983838361278e565b80600883815481106126ae576126ad6143ad565b5b906000526020600020906008020160050160008282546126ce9190614166565b92505081905550600073ffffffffffffffffffffffffffffffffffffffff168373ffffffffffffffffffffffffffffffffffffffff163373ffffffffffffffffffffffffffffffffffffffff167fc3d58168c5ae7397731d063d5bbf3d657854427343f4c083240f7aacaa2d0f62858560405161274c929190613f13565b60405180910390a4505050565b806002600082825461276b9190614085565b9250508190555080600360008282546127849190614085565b9250508190555050565b80600b600084815260200190815260200160002060008573ffffffffffffffffffffffffffffffffffffffff1673ffffffffffffffffffffffffffffffffffffffff16815260200190815260200160002060008282546127ee9190614166565b9250508190555080600c60008573ffffffffffffffffffffffffffffffffffffffff1673ffffffffffffffffffffffffffffffffffffffff168152602001908152602001600020600084815260200190815260200160002060008282546128559190614166565b92505081905550505050565b80600b600084815260200190815260200160002060008573ffffffffffffffffffffffffffffffffffffffff1673ffffffffffffffffffffffffffffffffffffffff16815260200190815260200160002060008282546128c19190614085565b9250508190555080600c60008573ffffffffffffffffffffffffffffffffffffffff1673ffffffffffffffffffffffffffffffffffffffff168152602001908152602001600020600084815260200190815260200160002060008282546129289190614085565b92505081905550505050565b60008084866129439190614085565b90506000838786612954919061410c565b61295e91906140db565b9050600084838761296f919061410c565b61297991906140db565b9050600088846129899190614166565b90506000600282848661299c9190614085565b6129a6919061410c565b6129b091906140db565b90508095505050505050949350505050565b600033905090565b6000806000806002866129dd91906140db565b90506000878960648860326129f29190614166565b8a6129fd919061410c565b612a0791906140db565b612a11919061410c565b612a1b91906140db565b905060008a8c612a2b9190614166565b905082828295509550955050505096509650969350505050565b6000808286612a549190614166565b8686612a6091906140db565b612a6a919061410c565b85612a759190614166565b905060008487612a859190614166565b8787612a9191906140db565b612a9b919061410c565b86612aa69190614166565b905060008486612ab69190614166565b90506002818385612ac79190614085565b612ad1919061410c565b612adb91906140db565b9350505050949350505050565b6000808589612af79190614166565b8989612b0391906140db565b612b0d919061410c565b88612b189190614166565b905060008890506000878b612b2d9190614166565b905060006002828486612b409190614085565b612b4a919061410c565b612b5491906140db565b905060008b8d8c612b659190614166565b8e89612b719190614166565b8e8b8b8e612b7f919061410c565b612b8991906140db565b612b939190614166565b612b9d91906140db565b612ba7919061410c565b612bb19190614085565b905060008d8c612bc19190614166565b905060006002828488612bd49190614085565b612bde919061410c565b612be891906140db565b90508084612bf69190614085565b975050505050505050979650505050505050565b600080878987612c1a9190614166565b8a85612c269190614166565b8a87878a612c34919061410c565b612c3e91906140db565b612c489190614166565b612c5291906140db565b612c5c919061410c565b612c669190614085565b90506000888a89612c779190614166565b8b86612c839190614166565b8b88888b612c91919061410c565b612c9b91906140db565b612ca59190614166565b612caf91906140db565b612cb9919061410c565b612cc39190614085565b905060008789612cd39190614166565b90506002818385612ce49190614085565b612cee919061410c565b612cf891906140db565b9350505050979650505050505050565b612d13848484612861565b8160088481548110612d2857612d276143ad565b5b90600052602060002090600802016005016000828254612d489190614085565b925050819055508373ffffffffffffffffffffffffffffffffffffffff16600073ffffffffffffffffffffffffffffffffffffffff163373ffffffffffffffffffffffffffffffffffffffff167fc3d58168c5ae7397731d063d5bbf3d657854427343f4c083240f7aacaa2d0f628686604051612dc6929190613f13565b60405180910390a450505050565b6000600a60008481526020019081526020016000205490506000612e7160088581548110612e0557612e046143ad565b5b90600052602060002090600802016006015460088681548110612e2b57612e2a6143ad565b5b90600052602060002090600802016006015460065460075460088981548110612e5757612e566143ad565b5b906000526020600020906008020160060154600554611eb4565b612ea7600060088781548110612e8a57612e896143ad565b5b906000526020600020906008020160060154600654600754612934565b612eb19190614166565b905060008282612ec19190614166565b90508373ffffffffffffffffffffffffffffffffffffffff166108fc829081150290604051600060405180830381858888f19350505050158015612f09573d6000803e3d6000fd5b5081600a6000878152602001908152602001600020819055505050505050565b828054612f3590614274565b90600052602060002090601f016020900481019282612f575760008555612f9e565b82601f10612f7057803560ff1916838001178555612f9e565b82800160010185558215612f9e579182015b82811115612f9d578235825591602001919060010190612f82565b5b509050612fab9190613035565b5090565b828054612fbb90614274565b90600052602060002090601f016020900481019282612fdd5760008555613024565b82601f10612ff657805160ff1916838001178555613024565b82800160010185558215613024579182015b82811115613023578251825591602001919060010190613008565b5b5090506130319190613035565b5090565b5b8082111561304e576000816000905550600101613036565b5090565b600061306561306084613f61565b613f3c565b9050808382526020820190508285602086028201111561308857613087614415565b5b60005b858110156130b8578161309e88826131b6565b84526020840193506020830192505060018101905061308b565b5050509392505050565b60006130d56130d084613f8d565b613f3c565b905080838252602082019050828560208602820111156130f8576130f7614415565b5b60005b85811015613128578161310e8882613318565b8452602084019350602083019250506001810190506130fb565b5050509392505050565b600061314561314084613fb9565b613f3c565b9050828152602081018484840111156131615761316061441a565b5b61316c848285614232565b509392505050565b600061318761318284613fea565b613f3c565b9050828152602081018484840111156131a3576131a261441a565b5b6131ae848285614232565b509392505050565b6000813590506131c5816145a2565b92915050565b6000813590506131da816145b9565b92915050565b600082601f8301126131f5576131f4614410565b5b8135613205848260208601613052565b91505092915050565b600082601f83011261322357613222614410565b5b81356132338482602086016130c2565b91505092915050565b60008135905061324b816145d0565b92915050565b600081359050613260816145e7565b92915050565b600082601f83011261327b5761327a614410565b5b813561328b848260208601613132565b91505092915050565b60008083601f8401126132aa576132a9614410565b5b8235905067ffffffffffffffff8111156132c7576132c661440b565b5b6020830191508360018202830111156132e3576132e2614415565b5b9250929050565b600082601f8301126132ff576132fe614410565b5b813561330f848260208601613174565b91505092915050565b600081359050613327816145fe565b92915050565b60006020828403121561334357613342614424565b5b6000613351848285016131b6565b91505092915050565b6000602082840312156133705761336f614424565b5b600061337e848285016131cb565b91505092915050565b600080600080608085870312156133a1576133a0614424565b5b60006133af878288016131cb565b945050602085013567ffffffffffffffff8111156133d0576133cf61441f565b5b6133dc878288016132ea565b935050604085013567ffffffffffffffff8111156133fd576133fc61441f565b5b613409878288016132ea565b925050606085013567ffffffffffffffff81111561342a5761342961441f565b5b613436878288016132ea565b91505092959194509250565b6000806040838503121561345957613458614424565b5b6000613467858286016131b6565b9250506020613478858286016131b6565b9150509250929050565b600080600080600060a0868803121561349e5761349d614424565b5b60006134ac888289016131b6565b95505060206134bd888289016131b6565b945050604086013567ffffffffffffffff8111156134de576134dd61441f565b5b6134ea8882890161320e565b935050606086013567ffffffffffffffff81111561350b5761350a61441f565b5b6135178882890161320e565b925050608086013567ffffffffffffffff8111156135385761353761441f565b5b61354488828901613266565b9150509295509295909350565b600080600080600060a0868803121561356d5761356c614424565b5b600061357b888289016131b6565b955050602061358c888289016131b6565b945050604061359d88828901613318565b93505060606135ae88828901613318565b925050608086013567ffffffffffffffff8111156135cf576135ce61441f565b5b6135db88828901613266565b9150509295509295909350565b600080604083850312156135ff576135fe614424565b5b600061360d858286016131b6565b925050602061361e8582860161323c565b9150509250929050565b6000806040838503121561363f5761363e614424565b5b600061364d858286016131b6565b925050602061365e85828601613318565b9150509250929050565b6000806040838503121561367f5761367e614424565b5b600083013567ffffffffffffffff81111561369d5761369c61441f565b5b6136a9858286016131e0565b925050602083013567ffffffffffffffff8111156136ca576136c961441f565b5b6136d68582860161320e565b9150509250929050565b6000602082840312156136f6576136f5614424565b5b600061370484828501613251565b91505092915050565b60006020828403121561372357613722614424565b5b600061373184828501613318565b91505092915050565b6000806040838503121561375157613750614424565b5b600061375f85828601613318565b9250506020613770858286016131b6565b9150509250929050565b6000806040838503121561379157613790614424565b5b600061379f85828601613318565b92505060206137b0858286016131cb565b9150509250929050565b600080604083850312156137d1576137d0614424565b5b60006137df85828601613318565b92505060206137f08582860161323c565b9150509250929050565b60008060006040848603121561381357613812614424565b5b600061382186828701613318565b935050602084013567ffffffffffffffff8111156138425761384161441f565b5b61384e86828701613294565b92509250509250925092565b6000806040838503121561387157613870614424565b5b600061387f85828601613318565b925050602061389085828601613318565b9150509250929050565b6000806000606084860312156138b3576138b2614424565b5b60006138c186828701613318565b93505060206138d286828701613318565b92505060406138e3868287016131cb565b9150509250925092565b60008060008060008060c0878903121561390a57613909614424565b5b600061391889828a01613318565b965050602061392989828a01613318565b955050604061393a89828a01613318565b945050606061394b89828a01613318565b935050608061395c89828a01613318565b92505060a061396d89828a01613318565b9150509295509295509295565b60006139868383613bb7565b60208301905092915050565b61399b816141ac565b82525050565b6139aa8161419a565b82525050565b60006139bb82614040565b6139c58185614063565b93506139d08361401b565b8060005b83811015613a015781516139e8888261397a565b97506139f383614056565b9250506001810190506139d4565b5085935050505092915050565b613a17816141be565b82525050565b613a2681614220565b82525050565b6000613a378261404b565b613a418185614074565b9350613a51818560208601614241565b613a5a81614429565b840191505092915050565b60008154613a7281614274565b613a7c8186614074565b94506001821660008114613a975760018114613aa957613adc565b60ff1983168652602086019350613adc565b613ab28561402b565b60005b83811015613ad457815481890152600182019150602081019050613ab5565b808801955050505b50505092915050565b6000613af2602b83614074565b9150613afd8261443a565b604082019050919050565b6000613b15602683614074565b9150613b2082614489565b604082019050919050565b6000613b38600383614074565b9150613b43826144d8565b602082019050919050565b6000613b5b602083614074565b9150613b6682614501565b602082019050919050565b6000613b7e602983614074565b9150613b898261452a565b604082019050919050565b6000613ba1600483614074565b9150613bac82614579565b602082019050919050565b613bc081614216565b82525050565b613bcf81614216565b82525050565b6000602082019050613bea60008301846139a1565b92915050565b600061010082019050613c06600083018b613992565b8181036020830152613c18818a613a2c565b90508181036040830152613c2c8189613a2c565b90508181036060830152613c408188613a2c565b9050613c4f6080830187613a0e565b613c5c60a0830186613bc6565b613c6960c0830185613bc6565b613c7660e0830184613bc6565b9998505050505050505050565b60006020820190508181036000830152613c9d81846139b0565b905092915050565b60006040820190508181036000830152613cbf81856139b0565b90508181036020830152613cd381846139b0565b90509392505050565b6000602082019050613cf16000830184613a0e565b92915050565b60006020820190508181036000830152613d118184613a2c565b905092915050565b60006020820190508181036000830152613d3281613ae5565b9050919050565b60006020820190508181036000830152613d5281613b08565b9050919050565b60006020820190508181036000830152613d7281613b4e565b9050919050565b60006020820190508181036000830152613d9281613b71565b9050919050565b6000602082019050613dae6000830184613bc6565b92915050565b600061010082019050613dca600083018b613bc6565b613dd7602083018a613992565b8181036040830152613de98189613a2c565b90508181036060830152613dfd8188613a2c565b90508181036080830152613e118187613a2c565b9050613e2060a0830186613a0e565b613e2d60c0830185613a1d565b613e3a60e0830184613a1d565b9998505050505050505050565b600060a082019050613e5c6000830187613bc6565b8181036020830152613e6d81613b2b565b9050613e7c6040830186613bc6565b8181036060830152613e8e8185613a65565b90508181036080830152613ea28184613a65565b905095945050505050565b600060a082019050613ec26000830187613bc6565b8181036020830152613ed381613b94565b9050613ee26040830186613bc6565b8181036060830152613ef48185613a65565b90508181036080830152613f088184613a65565b905095945050505050565b6000604082019050613f286000830185613bc6565b613f356020830184613bc6565b9392505050565b6000613f46613f57565b9050613f5282826142a6565b919050565b6000604051905090565b600067ffffffffffffffff821115613f7c57613f7b6143dc565b5b602082029050602081019050919050565b600067ffffffffffffffff821115613fa857613fa76143dc565b5b602082029050602081019050919050565b600067ffffffffffffffff821115613fd457613fd36143dc565b5b613fdd82614429565b9050602081019050919050565b600067ffffffffffffffff821115614005576140046143dc565b5b61400e82614429565b9050602081019050919050565b6000819050602082019050919050565b60008190508160005260206000209050919050565b600081519050919050565b600081519050919050565b6000602082019050919050565b600082825260208201905092915050565b600082825260208201905092915050565b600061409082614216565b915061409b83614216565b9250827fffffffffffffffffffffffffffffffffffffffffffffffffffffffffffffffff038211156140d0576140cf614320565b5b828201905092915050565b60006140e682614216565b91506140f183614216565b9250826141015761410061434f565b5b828204905092915050565b600061411782614216565b915061412283614216565b9250817fffffffffffffffffffffffffffffffffffffffffffffffffffffffffffffffff048311821515161561415b5761415a614320565b5b828202905092915050565b600061417182614216565b915061417c83614216565b92508282101561418f5761418e614320565b5b828203905092915050565b60006141a5826141f6565b9050919050565b60006141b7826141f6565b9050919050565b60008115159050919050565b60007fffffffff0000000000000000000000000000000000000000000000000000000082169050919050565b600073ffffffffffffffffffffffffffffffffffffffff82169050919050565b6000819050919050565b600061422b82614216565b9050919050565b82818337600083830152505050565b60005b8381101561425f578082015181840152602081019050614244565b8381111561426e576000848401525b50505050565b6000600282049050600182168061428c57607f821691505b602082108114156142a05761429f61437e565b5b50919050565b6142af82614429565b810181811067ffffffffffffffff821117156142ce576142cd6143dc565b5b80604052505050565b60006142e282614216565b91507fffffffffffffffffffffffffffffffffffffffffffffffffffffffffffffffff82141561431557614314614320565b5b600182019050919050565b7f4e487b7100000000000000000000000000000000000000000000000000000000600052601160045260246000fd5b7f4e487b7100000000000000000000000000000000000000000000000000000000600052601260045260246000fd5b7f4e487b7100000000000000000000000000000000000000000000000000000000600052602260045260246000fd5b7f4e487b7100000000000000000000000000000000000000000000000000000000600052603260045260246000fd5b7f4e487b7100000000000000000000000000000000000000000000000000000000600052604160045260246000fd5b600080fd5b600080fd5b600080fd5b600080fd5b600080fd5b600080fd5b6000601f19601f8301169050919050565b7f455243313135353a2062616c616e636520717565727920666f7220746865207a60008201527f65726f2061646472657373000000000000000000000000000000000000000000602082015250565b7f4f776e61626c653a206e6577206f776e657220697320746865207a65726f206160008201527f6464726573730000000000000000000000000000000000000000000000000000602082015250565b7f6275790000000000000000000000000000000000000000000000000000000000600082015250565b7f4f776e61626c653a2063616c6c6572206973206e6f7420746865206f776e6572600082015250565b7f455243313135353a206163636f756e747320616e6420696473206c656e67746860008201527f206d69736d617463680000000000000000000000000000000000000000000000602082015250565b7f73656c6c00000000000000000000000000000000000000000000000000000000600082015250565b6145ab8161419a565b81146145b657600080fd5b50565b6145c2816141ac565b81146145cd57600080fd5b50565b6145d9816141be565b81146145e457600080fd5b50565b6145f0816141ca565b81146145fb57600080fd5b50565b61460781614216565b811461461257600080fd5b5056fea2646970667358221220007b05c9324d4ad45cdf8cf359af4a81cd5643c3ae238492ffec91354895653f64736f6c63430008070033",
  "immutableReferences": {},
  "source": "// SPDX-License-Identifier: MIT\npragma solidity ^0.8.0;\n\nimport \"./creatortokencomputation.sol\";\n\n/// @title Implements high-level buy and sell functions (which users invoke when transacting)\n/// @author Kamil Alizai Sadik\ncontract CreatorTokenExchange is CreatorTokenComputation {\n\n\tconstructor(string memory uri) CreatorTokenComputation(uri) { }\n\n\t// Event that fires when a new transaction occurs\n\tevent NewTransaction(address indexed account, uint amount, string transactionType, uint tokenId, string name, string symbol);\n\n\t/// @dev Allows user to buy a given CreatorToken from the platform\n\t/// @param _tokenId ID of the token being transacted\n\t/// @param _amount Quantity of the token being transacted\n\tfunction buyCreatorToken(uint _tokenId, uint _amount) external payable {\n\t\t// Compute total transaction proceeds required (inclusive of fee)\n\t\tuint totalProceeds = _totalProceeds(_tokenId, _amount);\n\t\t// Require that user sends totalProceeds in order to transact\n\t\trequire(msg.value == totalProceeds);\n\t\t// Compute buy proceeds\n\t\tuint netProceeds = _buyProceeds(_tokenId, _amount);\n\t\t// Update totalValueLocked mapping\n\t\ttotalValueLocked[_tokenId] += netProceeds;\n\t\t// Update platform fee total\n\t\t_platformFeeUpdater(_feeProceeds(netProceeds));\n\t\t// Mint _amount tokens at the user's address (note this increases token amount outstanding)\n\t\t_mint(msg.sender, _tokenId, _amount, \"\");\n\t\t// Emit new transaction event\n\t\temit NewTransaction(msg.sender, _amount, \"buy\", _tokenId, creatorTokens[_tokenId].name, creatorTokens[_tokenId].symbol);\n\t\t// Check if new outstanding amount of token is greater than maxSupply\n\t\tif (creatorTokens[_tokenId].outstanding > creatorTokens[_tokenId].maxSupply) {\n\t\t\t// Update maxSupply\n\t\t\tcreatorTokens[_tokenId].maxSupply = creatorTokens[_tokenId].outstanding;\n\t\t\t// Call _payout to transfer excess liquidity\n\t\t\t_payCreator(_tokenId, creatorTokens[_tokenId].creatorAddress);\n\t\t}\n\t}\n\n\t/// @dev Allows user to sell a given CreatorToken back to the platform\n\t/// @param _tokenId ID of the token being transacted\n\t/// @param _amount Quantity of the token being transacted\n\t/// @param _seller Wallet address of user selling the token\n\tfunction sellCreatorToken(uint _tokenId, uint _amount, address payable _seller) external payable {\n\t\t// Require that user calling function is selling own tokens\n\t\trequire(_seller == msg.sender);\n\t\t// Compute sale proceeds required\n\t\tuint proceedsRequired = _saleFunction(creatorTokens[_tokenId].outstanding, _amount, mNumerator, mDenominator, creatorTokens[_tokenId].maxSupply, profitMargin);\n\t\t// Update totalValueLocked mapping\n\t\ttotalValueLocked[_tokenId] -= proceedsRequired;\n\t\t// Compute fee\n\t\tuint fee = proceedsRequired*platformFee/100;\n\t\t// Add platform fee to obtain real proceedsRequired value\n\t\tproceedsRequired -= fee;\n\t\t// Burn _amount tokens from user's address (note this decreases token amount outstanding)\n\t\t_burn(_seller, _tokenId, _amount);\n\t\t// Send user proceedsRequired wei (less the platform fee) in exchange for the burned tokens\n\t\t_seller.transfer(proceedsRequired); //1500000000000000000); //\n\t\t// Update platform fee total\n\t\t_platformFeeUpdater(fee);\n\t\t// Emit new transaction event\n\t\temit NewTransaction(msg.sender, _amount, \"sell\", _tokenId, creatorTokens[_tokenId].name, creatorTokens[_tokenId].symbol);\n\t}\n}\n",
  "sourcePath": "/Users/kamilalizaisadik/DeFi/Dynamic Automated Market Maker/CreatorTokenExchange/contracts/CreatorTokenExchange.sol",
  "compiler": {
    "name": "solc",
    "version": "0.8.7+commit.e28d00a7.Emscripten.clang"
  },
  "schemaVersion": "3.4.1",
  "updatedAt": "2021-08-12T01:16:09.671Z",
  "networkType": "ethereum",
  "devdoc": {
    "author": "Kamil Alizai Sadik",
    "kind": "dev",
    "methods": {
      "_buyProceeds(uint256,uint256)": {
        "details": "Calculates proceeds required for a given buy transaction (not including fees)",
        "params": {
          "_amount": "Quantity of the token being transacted",
          "_tokenId": "ID of the token being transacted"
        },
        "returns": {
          "_0": "Proceeds required in the transaction (before fees)"
        }
      },
      "_feeProceeds(uint256)": {
        "details": "Calculates the fee associated with a buy transaction",
        "params": {
          "_proceedsRequired": "The proceeds required for the buy transaction (before addition of fees)"
        },
        "returns": {
          "_0": "Fee associated with transaction"
        }
      },
      "_saleFunction(uint256,uint256,uint256,uint256,uint256,uint256)": {
        "details": "Calculates area under sale price function",
        "params": {
          "_amount": "Amount of token being transacted",
          "_mDenominator": "Denominator of the slope of the buy price function",
          "_mNumerator": "Numerator of the slope of the buy price function",
          "_maxSupply": "Peak level of supply of the token to date",
          "_profitMargin": "percentage of total revenue generated routed to creator",
          "_startingSupply": "Supply of token in circulation before the transaction"
        },
        "returns": {
          "_0": "Area under sale price function denoting total proceeds received when selling _amount tokens (before fees)"
        }
      },
      "_totalProceeds(uint256,uint256)": {
        "details": "Calculates total transaction proceeds",
        "params": {
          "_amount": "Quantity of the token being transacted",
          "_tokenId": "ID of the token being transacted"
        },
        "returns": {
          "_0": "Total proceeds required in transaction"
        }
      },
      "balanceOf(address,uint256)": {
        "details": "See {IERC1155-balanceOf}. Requirements: - `account` cannot be the zero address."
      },
      "balanceOfBatch(address[],uint256[])": {
        "details": "See {IERC1155-balanceOfBatch}. Requirements: - `accounts` and `ids` must have the same length."
      },
      "buyCreatorToken(uint256,uint256)": {
        "details": "Allows user to buy a given CreatorToken from the platform",
        "params": {
          "_amount": "Quantity of the token being transacted",
          "_tokenId": "ID of the token being transacted"
        }
      },
      "changeAddress(uint256,address)": {
        "details": "Allows token creator to change their address",
        "params": {
          "_newCreatorAddress": "New creator address associated with the token",
          "_tokenId": "ID of the token in question"
        }
      },
      "changeDescription(uint256,string)": {
        "details": "Allows token creator to change the description of their token",
        "params": {
          "_newDescription": "New description associated with the token",
          "_tokenId": "ID of the token in question"
        }
      },
      "changeName(uint256,string)": {
        "details": "Allows token creator to change the name of their token",
        "params": {
          "_newName": "New name associated with the token",
          "_tokenId": "ID of the token in question"
        }
      },
      "changePlatformFee(uint256)": {
        "details": "Allows owner to change platformFee",
        "params": {
          "_newPlatformFee": "New platform fee"
        }
      },
      "changeProfitMargin(uint256)": {
        "details": "Allows owner to change profit_margin",
        "params": {
          "_newProfitMargin": "New profit margin"
        }
      },
      "changeSymbol(uint256,string)": {
        "details": "Allows token creator to change the symbol of their token",
        "params": {
          "_newSymbol": "New symbol associated with the token",
          "_tokenId": "ID of the token in question"
        }
      },
      "changeVerification(uint256,bool)": {
        "details": "Allows owner to verify (or undo verification) of a CreatorToken",
        "params": {
          "_tokenId": "ID of the token in question",
          "_verified": "Verification status of the token in question"
        }
      },
      "createCreatorToken(address,string,string,string)": {
        "details": "Creates a new creator token",
        "params": {
          "_creatorAddress": "Address of the creator of the token",
          "_description": "chosen by the creator of the tokens",
          "_name": "Name chosen by the creator of the token",
          "_symbol": "Ticker symbol chosen by the creator of the token"
        }
      },
      "getCreatorTokenCount()": {
        "details": "Returns the current length of the creatorTokens array",
        "returns": {
          "_0": "uint representing number of unique Creator Tokens"
        }
      },
      "isApprovedForAll(address,address)": {
        "details": "Denotes whether operator is approved to transfer account's tokens",
        "params": {
          "_account": "Wallet address holding tokens",
          "_operator": "Wallet address which is/isn't approved to transfer _account's tokens"
        },
        "returns": {
          "_0": "Boolean value indicating approval status"
        }
      },
      "owner()": {
        "details": "Returns the address of the current owner."
      },
      "payoutPlatformFees(address)": {
        "details": "Pays out platform fees owed to owner (might opt to call this daily)",
        "params": {
          "_owner": "Owner of the smart contract"
        }
      },
      "renounceOwnership()": {
        "details": "Leaves the contract without owner. It will not be possible to call `onlyOwner` functions anymore. Can only be called by the current owner. NOTE: Renouncing ownership will leave the contract without an owner, thereby removing any functionality that is only available to the owner."
      },
      "safeBatchTransferFrom(address,address,uint256[],uint256[],bytes)": {
        "details": "Transfers a batch of tokens",
        "params": {
          "_amounts": "Array of quantities of token to be transferred",
          "_data": "Data",
          "_from": "Address token is being transferred from",
          "_ids": "Array of IDs of tokens being transferred",
          "_to": "Address token is being transferred to"
        }
      },
      "safeTransferFrom(address,address,uint256,uint256,bytes)": {
        "details": "Transfers a token",
        "params": {
          "_amount": "Quantity of token to be transferred",
          "_data": "Data",
          "_from": "Address token is being transferred from",
          "_id": "ID of token being transferred",
          "_to": "Address token is being transferred to"
        }
      },
      "sellCreatorToken(uint256,uint256,address)": {
        "details": "Allows user to sell a given CreatorToken back to the platform",
        "params": {
          "_amount": "Quantity of the token being transacted",
          "_seller": "Wallet address of user selling the token",
          "_tokenId": "ID of the token being transacted"
        }
      },
      "setApprovalForAll(address,bool)": {
        "details": "Gives operator permission to transfer caller's tokens",
        "params": {
          "_approved": "Boolean value indicating whether operator is approved",
          "_operator": "Wallet address being granted permission"
        }
      },
      "supportsInterface(bytes4)": {
        "details": "See {IERC165-supportsInterface}."
      },
      "transferOwnership(address)": {
        "details": "Transfers ownership of the contract to a new account (`newOwner`). Can only be called by the current owner."
      },
      "uri(uint256)": {
        "details": "See {IERC1155MetadataURI-uri}. This implementation returns the same URI for *all* token types. It relies on the token type ID substitution mechanism https://eips.ethereum.org/EIPS/eip-1155#metadata[defined in the EIP]. Clients calling this function must replace the `\\{id\\}` substring with the actual token type ID."
      },
      "withdraw(address)": {
        "details": "Ownable function allowing for withdrawal",
        "params": {
          "_owner": "Owner of the smart contract"
        }
      }
    },
    "title": "Implements high-level buy and sell functions (which users invoke when transacting)",
    "version": 1
  },
  "userdoc": {
    "kind": "user",
    "methods": {},
    "version": 1
  }
}